{
	"contracts/ZombieGame.sol": {
		"GetZombie": {
			"abi": [
				{
					"inputs": [
						{
							"internalType": "uint256",
							"name": "id",
							"type": "uint256"
						}
					],
					"name": "BuyOnRent",
					"outputs": [
						{
							"internalType": "bool",
							"name": "",
							"type": "bool"
						}
					],
					"stateMutability": "payable",
					"type": "function"
				},
				{
					"inputs": [
						{
							"internalType": "string",
							"name": "plan",
							"type": "string"
						},
						{
							"internalType": "string",
							"name": "name",
							"type": "string"
						}
					],
					"name": "BuyZombie",
					"outputs": [
						{
							"internalType": "bool",
							"name": "",
							"type": "bool"
						}
					],
					"stateMutability": "payable",
					"type": "function"
				},
				{
					"inputs": [
						{
							"internalType": "uint256",
							"name": "zombieID",
							"type": "uint256"
						}
					],
					"name": "Fight",
					"outputs": [],
					"stateMutability": "nonpayable",
					"type": "function"
				},
				{
					"inputs": [
						{
							"internalType": "address",
							"name": "",
							"type": "address"
						}
					],
					"name": "FreeNft",
					"outputs": [
						{
							"internalType": "bool",
							"name": "",
							"type": "bool"
						}
					],
					"stateMutability": "view",
					"type": "function"
				},
				{
					"inputs": [],
					"name": "FreeZombie",
					"outputs": [],
					"stateMutability": "nonpayable",
					"type": "function"
				},
				{
					"inputs": [
						{
							"internalType": "uint256",
							"name": "id",
							"type": "uint256"
						},
						{
							"internalType": "uint256",
							"name": "RentAmount",
							"type": "uint256"
						}
					],
					"name": "GiveOnRent",
					"outputs": [],
					"stateMutability": "nonpayable",
					"type": "function"
				},
				{
					"inputs": [
						{
							"internalType": "uint256",
							"name": "id",
							"type": "uint256"
						}
					],
					"name": "RemoveRent",
					"outputs": [],
					"stateMutability": "nonpayable",
					"type": "function"
				},
				{
					"inputs": [
						{
							"internalType": "uint256",
							"name": "",
							"type": "uint256"
						}
					],
					"name": "RentedbyID",
					"outputs": [
						{
							"internalType": "address",
							"name": "",
							"type": "address"
						}
					],
					"stateMutability": "view",
					"type": "function"
				},
				{
					"inputs": [
						{
							"internalType": "uint256",
							"name": "",
							"type": "uint256"
						}
					],
					"name": "TakenNft",
					"outputs": [
						{
							"internalType": "bool",
							"name": "",
							"type": "bool"
						}
					],
					"stateMutability": "view",
					"type": "function"
				},
				{
					"inputs": [
						{
							"internalType": "address",
							"name": "to",
							"type": "address"
						},
						{
							"internalType": "uint256",
							"name": "id",
							"type": "uint256"
						}
					],
					"name": "approve",
					"outputs": [],
					"stateMutability": "nonpayable",
					"type": "function"
				},
				{
					"inputs": [
						{
							"internalType": "address",
							"name": "",
							"type": "address"
						}
					],
					"name": "buyOnRent",
					"outputs": [
						{
							"internalType": "bool",
							"name": "",
							"type": "bool"
						}
					],
					"stateMutability": "view",
					"type": "function"
				},
				{
					"inputs": [
						{
							"internalType": "uint256",
							"name": "id",
							"type": "uint256"
						}
					],
					"name": "convertXP",
					"outputs": [],
					"stateMutability": "nonpayable",
					"type": "function"
				},
				{
					"inputs": [
						{
							"internalType": "uint256",
							"name": "zombieId",
							"type": "uint256"
						}
					],
					"name": "getDetails",
					"outputs": [
						{
							"components": [
								{
									"internalType": "string",
									"name": "plan",
									"type": "string"
								},
								{
									"internalType": "string",
									"name": "name",
									"type": "string"
								},
								{
									"internalType": "uint256",
									"name": "dna",
									"type": "uint256"
								},
								{
									"internalType": "uint256",
									"name": "level",
									"type": "uint256"
								},
								{
									"internalType": "uint256",
									"name": "xp",
									"type": "uint256"
								},
								{
									"internalType": "uint256",
									"name": "TotalMatch",
									"type": "uint256"
								},
								{
									"internalType": "uint256",
									"name": "MatchLeft",
									"type": "uint256"
								},
								{
									"internalType": "uint256",
									"name": "Wins",
									"type": "uint256"
								},
								{
									"internalType": "uint256",
									"name": "Looses",
									"type": "uint256"
								}
							],
							"internalType": "struct ZombieGame.zombieDetails",
							"name": "",
							"type": "tuple"
						}
					],
					"stateMutability": "view",
					"type": "function"
				},
				{
					"inputs": [
						{
							"internalType": "address",
							"name": "_owner",
							"type": "address"
						}
					],
					"name": "ownerZombies",
					"outputs": [
						{
							"internalType": "uint256[]",
							"name": "",
							"type": "uint256[]"
						}
					],
					"stateMutability": "view",
					"type": "function"
				},
				{
					"inputs": [
						{
							"internalType": "uint256",
							"name": "",
							"type": "uint256"
						}
					],
					"name": "rentAmount",
					"outputs": [
						{
							"internalType": "uint256",
							"name": "",
							"type": "uint256"
						}
					],
					"stateMutability": "view",
					"type": "function"
				},
				{
					"inputs": [
						{
							"internalType": "address",
							"name": "from",
							"type": "address"
						},
						{
							"internalType": "address",
							"name": "to",
							"type": "address"
						},
						{
							"internalType": "uint256",
							"name": "id",
							"type": "uint256"
						}
					],
					"name": "tranferFrom",
					"outputs": [],
					"stateMutability": "nonpayable",
					"type": "function"
				}
			],
			"devdoc": {
				"kind": "dev",
				"methods": {},
				"version": 1
			},
			"evm": {
				"assembly": "    /* \"contracts/ZombieGame.sol\":3733:9336  contract GetZombie is ZombieGame, FightZombies {... */\n  mstore(0x40, 0x80)\n    /* \"contracts/ZombieGame.sol\":446:454  10 ** 16 */\n  0x2386f26fc10000\n    /* \"contracts/ZombieGame.sol\":429:454  uint dnaLength = 10 ** 16 */\n  0x02\n  sstore\n    /* \"contracts/ZombieGame.sol\":3733:9336  contract GetZombie is ZombieGame, FightZombies {... */\n  callvalue\n  dup1\n  iszero\n  tag_1\n  jumpi\n  0x00\n  dup1\n  revert\ntag_1:\n  pop\n  dataSize(sub_0)\n  dup1\n  dataOffset(sub_0)\n  0x00\n  codecopy\n  0x00\n  return\nstop\n\nsub_0: assembly {\n        /* \"contracts/ZombieGame.sol\":3733:9336  contract GetZombie is ZombieGame, FightZombies {... */\n      mstore(0x40, 0x80)\n      jumpi(tag_1, lt(calldatasize, 0x04))\n      shr(0xe0, calldataload(0x00))\n      dup1\n      0xb81c3db7\n      gt\n      tag_18\n      jumpi\n      dup1\n      0xcb9940b7\n      gt\n      tag_19\n      jumpi\n      dup1\n      0xcb9940b7\n      eq\n      tag_14\n      jumpi\n      dup1\n      0xd41b93b1\n      eq\n      tag_15\n      jumpi\n      dup1\n      0xe0c4f15e\n      eq\n      tag_16\n      jumpi\n      dup1\n      0xe70364d4\n      eq\n      tag_17\n      jumpi\n      jump(tag_1)\n    tag_19:\n      dup1\n      0xb81c3db7\n      eq\n      tag_10\n      jumpi\n      dup1\n      0xb93a89f7\n      eq\n      tag_11\n      jumpi\n      dup1\n      0xc0342cb4\n      eq\n      tag_12\n      jumpi\n      dup1\n      0xc583f36a\n      eq\n      tag_13\n      jumpi\n      jump(tag_1)\n    tag_18:\n      dup1\n      0x901ac159\n      gt\n      tag_20\n      jumpi\n      dup1\n      0x901ac159\n      eq\n      tag_6\n      jumpi\n      dup1\n      0x9264a169\n      eq\n      tag_7\n      jumpi\n      dup1\n      0x9a861a78\n      eq\n      tag_8\n      jumpi\n      dup1\n      0x9f52f1a1\n      eq\n      tag_9\n      jumpi\n      jump(tag_1)\n    tag_20:\n      dup1\n      0x095ea7b3\n      eq\n      tag_2\n      jumpi\n      dup1\n      0x35e1d33c\n      eq\n      tag_3\n      jumpi\n      dup1\n      0x3c956b05\n      eq\n      tag_4\n      jumpi\n      dup1\n      0x7138d32d\n      eq\n      tag_5\n      jumpi\n    tag_1:\n      0x00\n      dup1\n      revert\n        /* \"contracts/ZombieGame.sol\":8696:8839  function approve(address to, uint id) public OnlyOwner(id) {... */\n    tag_2:\n      callvalue\n      dup1\n      iszero\n      tag_21\n      jumpi\n      0x00\n      dup1\n      revert\n    tag_21:\n      pop\n      tag_22\n      0x04\n      dup1\n      calldatasize\n      sub\n      dup2\n      add\n      swap1\n      tag_23\n      swap2\n      swap1\n      tag_24\n      jump\t// in\n    tag_23:\n      tag_25\n      jump\t// in\n    tag_22:\n      stop\n        /* \"contracts/ZombieGame.sol\":8028:8299  function GiveOnRent(uint id, uint RentAmount) public OnlyOwner(id) {... */\n    tag_3:\n      callvalue\n      dup1\n      iszero\n      tag_26\n      jumpi\n      0x00\n      dup1\n      revert\n    tag_26:\n      pop\n      tag_27\n      0x04\n      dup1\n      calldatasize\n      sub\n      dup2\n      add\n      swap1\n      tag_28\n      swap2\n      swap1\n      tag_29\n      jump\t// in\n    tag_28:\n      tag_30\n      jump\t// in\n    tag_27:\n      stop\n        /* \"contracts/ZombieGame.sol\":6209:6709  function ownerZombies(address _owner) public view returns (uint[] memory) {... */\n    tag_4:\n      callvalue\n      dup1\n      iszero\n      tag_31\n      jumpi\n      0x00\n      dup1\n      revert\n    tag_31:\n      pop\n      tag_32\n      0x04\n      dup1\n      calldatasize\n      sub\n      dup2\n      add\n      swap1\n      tag_33\n      swap2\n      swap1\n      tag_34\n      jump\t// in\n    tag_33:\n      tag_35\n      jump\t// in\n    tag_32:\n      mload(0x40)\n      tag_36\n      swap2\n      swap1\n      tag_37\n      jump\t// in\n    tag_36:\n      mload(0x40)\n      dup1\n      swap2\n      sub\n      swap1\n      return\n        /* \"contracts/ZombieGame.sol\":7004:7712  function Fight(uint zombieID) public {... */\n    tag_5:\n      callvalue\n      dup1\n      iszero\n      tag_38\n      jumpi\n      0x00\n      dup1\n      revert\n    tag_38:\n      pop\n      tag_39\n      0x04\n      dup1\n      calldatasize\n      sub\n      dup2\n      add\n      swap1\n      tag_40\n      swap2\n      swap1\n      tag_41\n      jump\t// in\n    tag_40:\n      tag_42\n      jump\t// in\n    tag_39:\n      stop\n        /* \"contracts/ZombieGame.sol\":4566:4606  mapping (uint => uint) public rentAmount */\n    tag_6:\n      callvalue\n      dup1\n      iszero\n      tag_43\n      jumpi\n      0x00\n      dup1\n      revert\n    tag_43:\n      pop\n      tag_44\n      0x04\n      dup1\n      calldatasize\n      sub\n      dup2\n      add\n      swap1\n      tag_45\n      swap2\n      swap1\n      tag_41\n      jump\t// in\n    tag_45:\n      tag_46\n      jump\t// in\n    tag_44:\n      mload(0x40)\n      tag_47\n      swap2\n      swap1\n      tag_48\n      jump\t// in\n    tag_47:\n      mload(0x40)\n      dup1\n      swap2\n      sub\n      swap1\n      return\n        /* \"contracts/ZombieGame.sol\":8900:9331  function tranferFrom(address from, address to, uint id) public OnlyOwner(id) {... */\n    tag_7:\n      callvalue\n      dup1\n      iszero\n      tag_49\n      jumpi\n      0x00\n      dup1\n      revert\n    tag_49:\n      pop\n      tag_50\n      0x04\n      dup1\n      calldatasize\n      sub\n      dup2\n      add\n      swap1\n      tag_51\n      swap2\n      swap1\n      tag_52\n      jump\t// in\n    tag_51:\n      tag_53\n      jump\t// in\n    tag_50:\n      stop\n        /* \"contracts/ZombieGame.sol\":4337:4379  mapping (address => bool) public buyOnRent */\n    tag_8:\n      callvalue\n      dup1\n      iszero\n      tag_54\n      jumpi\n      0x00\n      dup1\n      revert\n    tag_54:\n      pop\n      tag_55\n      0x04\n      dup1\n      calldatasize\n      sub\n      dup2\n      add\n      swap1\n      tag_56\n      swap2\n      swap1\n      tag_34\n      jump\t// in\n    tag_56:\n      tag_57\n      jump\t// in\n    tag_55:\n      mload(0x40)\n      tag_58\n      swap2\n      swap1\n      tag_59\n      jump\t// in\n    tag_58:\n      mload(0x40)\n      dup1\n      swap2\n      sub\n      swap1\n      return\n        /* \"contracts/ZombieGame.sol\":4239:4277  mapping (uint => bool) public TakenNft */\n    tag_9:\n      callvalue\n      dup1\n      iszero\n      tag_60\n      jumpi\n      0x00\n      dup1\n      revert\n    tag_60:\n      pop\n      tag_61\n      0x04\n      dup1\n      calldatasize\n      sub\n      dup2\n      add\n      swap1\n      tag_62\n      swap2\n      swap1\n      tag_41\n      jump\t// in\n    tag_62:\n      tag_63\n      jump\t// in\n    tag_61:\n      mload(0x40)\n      tag_64\n      swap2\n      swap1\n      tag_59\n      jump\t// in\n    tag_64:\n      mload(0x40)\n      dup1\n      swap2\n      sub\n      swap1\n      return\n        /* \"contracts/ZombieGame.sol\":4831:5061  function FreeZombie() public {... */\n    tag_10:\n      callvalue\n      dup1\n      iszero\n      tag_65\n      jumpi\n      0x00\n      dup1\n      revert\n    tag_65:\n      pop\n      tag_66\n      tag_67\n      jump\t// in\n    tag_66:\n      stop\n        /* \"contracts/ZombieGame.sol\":6795:6918  function getDetails(uint zombieId) public view returns(zombieDetails memory){... */\n    tag_11:\n      callvalue\n      dup1\n      iszero\n      tag_68\n      jumpi\n      0x00\n      dup1\n      revert\n    tag_68:\n      pop\n      tag_69\n      0x04\n      dup1\n      calldatasize\n      sub\n      dup2\n      add\n      swap1\n      tag_70\n      swap2\n      swap1\n      tag_41\n      jump\t// in\n    tag_70:\n      tag_71\n      jump\t// in\n    tag_69:\n      mload(0x40)\n      tag_72\n      swap2\n      swap1\n      tag_73\n      jump\t// in\n    tag_72:\n      mload(0x40)\n      dup1\n      swap2\n      sub\n      swap1\n      return\n        /* \"contracts/ZombieGame.sol\":3789:3829  mapping (address => bool) public FreeNft */\n    tag_12:\n      callvalue\n      dup1\n      iszero\n      tag_74\n      jumpi\n      0x00\n      dup1\n      revert\n    tag_74:\n      pop\n      tag_75\n      0x04\n      dup1\n      calldatasize\n      sub\n      dup2\n      add\n      swap1\n      tag_76\n      swap2\n      swap1\n      tag_34\n      jump\t// in\n    tag_76:\n      tag_77\n      jump\t// in\n    tag_75:\n      mload(0x40)\n      tag_78\n      swap2\n      swap1\n      tag_59\n      jump\t// in\n    tag_78:\n      mload(0x40)\n      dup1\n      swap2\n      sub\n      swap1\n      return\n        /* \"contracts/ZombieGame.sol\":4464:4507  mapping (uint => address) public RentedbyID */\n    tag_13:\n      callvalue\n      dup1\n      iszero\n      tag_79\n      jumpi\n      0x00\n      dup1\n      revert\n    tag_79:\n      pop\n      tag_80\n      0x04\n      dup1\n      calldatasize\n      sub\n      dup2\n      add\n      swap1\n      tag_81\n      swap2\n      swap1\n      tag_41\n      jump\t// in\n    tag_81:\n      tag_82\n      jump\t// in\n    tag_80:\n      mload(0x40)\n      tag_83\n      swap2\n      swap1\n      tag_84\n      jump\t// in\n    tag_83:\n      mload(0x40)\n      dup1\n      swap2\n      sub\n      swap1\n      return\n        /* \"contracts/ZombieGame.sol\":5170:5603  function BuyZombie(string memory plan, string memory name) public payable returns(bool) {... */\n    tag_14:\n      tag_85\n      0x04\n      dup1\n      calldatasize\n      sub\n      dup2\n      add\n      swap1\n      tag_86\n      swap2\n      swap1\n      tag_87\n      jump\t// in\n    tag_86:\n      tag_88\n      jump\t// in\n    tag_85:\n      mload(0x40)\n      tag_89\n      swap2\n      swap1\n      tag_59\n      jump\t// in\n    tag_89:\n      mload(0x40)\n      dup1\n      swap2\n      sub\n      swap1\n      return\n        /* \"contracts/ZombieGame.sol\":7798:7980  function convertXP(uint id) public OnlyOwner(id) {... */\n    tag_15:\n      callvalue\n      dup1\n      iszero\n      tag_90\n      jumpi\n      0x00\n      dup1\n      revert\n    tag_90:\n      pop\n      tag_91\n      0x04\n      dup1\n      calldatasize\n      sub\n      dup2\n      add\n      swap1\n      tag_92\n      swap2\n      swap1\n      tag_41\n      jump\t// in\n    tag_92:\n      tag_93\n      jump\t// in\n    tag_91:\n      stop\n        /* \"contracts/ZombieGame.sol\":8373:8616  function RemoveRent(uint id) public OnlyOwner(id) {... */\n    tag_16:\n      callvalue\n      dup1\n      iszero\n      tag_94\n      jumpi\n      0x00\n      dup1\n      revert\n    tag_94:\n      pop\n      tag_95\n      0x04\n      dup1\n      calldatasize\n      sub\n      dup2\n      add\n      swap1\n      tag_96\n      swap2\n      swap1\n      tag_41\n      jump\t// in\n    tag_96:\n      tag_97\n      jump\t// in\n    tag_95:\n      stop\n        /* \"contracts/ZombieGame.sol\":5651:6148  function BuyOnRent(uint id) public payable returns(bool) {... */\n    tag_17:\n      tag_98\n      0x04\n      dup1\n      calldatasize\n      sub\n      dup2\n      add\n      swap1\n      tag_99\n      swap2\n      swap1\n      tag_41\n      jump\t// in\n    tag_99:\n      tag_100\n      jump\t// in\n    tag_98:\n      mload(0x40)\n      tag_101\n      swap2\n      swap1\n      tag_59\n      jump\t// in\n    tag_101:\n      mload(0x40)\n      dup1\n      swap2\n      sub\n      swap1\n      return\n        /* \"contracts/ZombieGame.sol\":8696:8839  function approve(address to, uint id) public OnlyOwner(id) {... */\n    tag_25:\n        /* \"contracts/ZombieGame.sol\":8751:8753  id */\n      dup1\n        /* \"contracts/ZombieGame.sol\":4728:4738  msg.sender */\n      caller\n        /* \"contracts/ZombieGame.sol\":4703:4738  ZombieOwner[zombieId] == msg.sender */\n      0xffffffffffffffffffffffffffffffffffffffff\n      and\n        /* \"contracts/ZombieGame.sol\":4703:4714  ZombieOwner */\n      0x00\n        /* \"contracts/ZombieGame.sol\":4703:4724  ZombieOwner[zombieId] */\n      dup1\n        /* \"contracts/ZombieGame.sol\":4715:4723  zombieId */\n      dup4\n        /* \"contracts/ZombieGame.sol\":4703:4724  ZombieOwner[zombieId] */\n      dup2\n      mstore\n      0x20\n      add\n      swap1\n      dup2\n      mstore\n      0x20\n      add\n      0x00\n      keccak256\n      0x00\n      swap1\n      sload\n      swap1\n      0x0100\n      exp\n      swap1\n      div\n      0xffffffffffffffffffffffffffffffffffffffff\n      and\n        /* \"contracts/ZombieGame.sol\":4703:4738  ZombieOwner[zombieId] == msg.sender */\n      0xffffffffffffffffffffffffffffffffffffffff\n      and\n      eq\n        /* \"contracts/ZombieGame.sol\":4695:4754  require(ZombieOwner[zombieId] == msg.sender, \"Only Owner.\") */\n      tag_103\n      jumpi\n      mload(0x40)\n      0x08c379a000000000000000000000000000000000000000000000000000000000\n      dup2\n      mstore\n      0x04\n      add\n      tag_104\n      swap1\n      tag_105\n      jump\t// in\n    tag_104:\n      mload(0x40)\n      dup1\n      swap2\n      sub\n      swap1\n      revert\n    tag_103:\n        /* \"contracts/ZombieGame.sol\":8794:8796  id */\n      dup2\n        /* \"contracts/ZombieGame.sol\":8766:8775  Allowance */\n      0x06\n        /* \"contracts/ZombieGame.sol\":8766:8787  Allowance[msg.sender] */\n      0x00\n        /* \"contracts/ZombieGame.sol\":8776:8786  msg.sender */\n      caller\n        /* \"contracts/ZombieGame.sol\":8766:8787  Allowance[msg.sender] */\n      0xffffffffffffffffffffffffffffffffffffffff\n      and\n      0xffffffffffffffffffffffffffffffffffffffff\n      and\n      dup2\n      mstore\n      0x20\n      add\n      swap1\n      dup2\n      mstore\n      0x20\n      add\n      0x00\n      keccak256\n        /* \"contracts/ZombieGame.sol\":8766:8791  Allowance[msg.sender][to] */\n      0x00\n        /* \"contracts/ZombieGame.sol\":8788:8790  to */\n      dup6\n        /* \"contracts/ZombieGame.sol\":8766:8791  Allowance[msg.sender][to] */\n      0xffffffffffffffffffffffffffffffffffffffff\n      and\n      0xffffffffffffffffffffffffffffffffffffffff\n      and\n      dup2\n      mstore\n      0x20\n      add\n      swap1\n      dup2\n      mstore\n      0x20\n      add\n      0x00\n      keccak256\n        /* \"contracts/ZombieGame.sol\":8766:8796  Allowance[msg.sender][to] = id */\n      dup2\n      swap1\n      sstore\n      pop\n        /* \"contracts/ZombieGame.sol\":8829:8831  to */\n      dup3\n        /* \"contracts/ZombieGame.sol\":8807:8814  Approve */\n      0x07\n        /* \"contracts/ZombieGame.sol\":8807:8826  Approve[msg.sender] */\n      0x00\n        /* \"contracts/ZombieGame.sol\":8815:8825  msg.sender */\n      caller\n        /* \"contracts/ZombieGame.sol\":8807:8826  Approve[msg.sender] */\n      0xffffffffffffffffffffffffffffffffffffffff\n      and\n      0xffffffffffffffffffffffffffffffffffffffff\n      and\n      dup2\n      mstore\n      0x20\n      add\n      swap1\n      dup2\n      mstore\n      0x20\n      add\n      0x00\n      keccak256\n      0x00\n        /* \"contracts/ZombieGame.sol\":8807:8831  Approve[msg.sender] = to */\n      0x0100\n      exp\n      dup2\n      sload\n      dup2\n      0xffffffffffffffffffffffffffffffffffffffff\n      mul\n      not\n      and\n      swap1\n      dup4\n      0xffffffffffffffffffffffffffffffffffffffff\n      and\n      mul\n      or\n      swap1\n      sstore\n      pop\n        /* \"contracts/ZombieGame.sol\":8696:8839  function approve(address to, uint id) public OnlyOwner(id) {... */\n      pop\n      pop\n      pop\n      jump\t// out\n        /* \"contracts/ZombieGame.sol\":8028:8299  function GiveOnRent(uint id, uint RentAmount) public OnlyOwner(id) {... */\n    tag_30:\n        /* \"contracts/ZombieGame.sol\":8091:8093  id */\n      dup2\n        /* \"contracts/ZombieGame.sol\":4728:4738  msg.sender */\n      caller\n        /* \"contracts/ZombieGame.sol\":4703:4738  ZombieOwner[zombieId] == msg.sender */\n      0xffffffffffffffffffffffffffffffffffffffff\n      and\n        /* \"contracts/ZombieGame.sol\":4703:4714  ZombieOwner */\n      0x00\n        /* \"contracts/ZombieGame.sol\":4703:4724  ZombieOwner[zombieId] */\n      dup1\n        /* \"contracts/ZombieGame.sol\":4715:4723  zombieId */\n      dup4\n        /* \"contracts/ZombieGame.sol\":4703:4724  ZombieOwner[zombieId] */\n      dup2\n      mstore\n      0x20\n      add\n      swap1\n      dup2\n      mstore\n      0x20\n      add\n      0x00\n      keccak256\n      0x00\n      swap1\n      sload\n      swap1\n      0x0100\n      exp\n      swap1\n      div\n      0xffffffffffffffffffffffffffffffffffffffff\n      and\n        /* \"contracts/ZombieGame.sol\":4703:4738  ZombieOwner[zombieId] == msg.sender */\n      0xffffffffffffffffffffffffffffffffffffffff\n      and\n      eq\n        /* \"contracts/ZombieGame.sol\":4695:4754  require(ZombieOwner[zombieId] == msg.sender, \"Only Owner.\") */\n      tag_108\n      jumpi\n      mload(0x40)\n      0x08c379a000000000000000000000000000000000000000000000000000000000\n      dup2\n      mstore\n      0x04\n      add\n      tag_109\n      swap1\n      tag_105\n      jump\t// in\n    tag_109:\n      mload(0x40)\n      dup1\n      swap2\n      sub\n      swap1\n      revert\n    tag_108:\n        /* \"contracts/ZombieGame.sol\":8115:8121  onRent */\n      0x05\n        /* \"contracts/ZombieGame.sol\":8115:8125  onRent[id] */\n      0x00\n        /* \"contracts/ZombieGame.sol\":8122:8124  id */\n      dup5\n        /* \"contracts/ZombieGame.sol\":8115:8125  onRent[id] */\n      dup2\n      mstore\n      0x20\n      add\n      swap1\n      dup2\n      mstore\n      0x20\n      add\n      0x00\n      keccak256\n      0x00\n      swap1\n      sload\n      swap1\n      0x0100\n      exp\n      swap1\n      div\n      0xff\n      and\n        /* \"contracts/ZombieGame.sol\":8114:8125  !onRent[id] */\n      iszero\n        /* \"contracts/ZombieGame.sol\":8106:8126  require(!onRent[id]) */\n      tag_111\n      jumpi\n      0x00\n      dup1\n      revert\n    tag_111:\n        /* \"contracts/ZombieGame.sol\":8168:8176  10 ** 18 */\n      0x0de0b6b3a7640000\n        /* \"contracts/ZombieGame.sol\":8154:8164  RentAmount */\n      dup3\n        /* \"contracts/ZombieGame.sol\":8154:8177  RentAmount % (10 ** 18) */\n      tag_112\n      swap2\n      swap1\n      tag_113\n      jump\t// in\n    tag_112:\n        /* \"contracts/ZombieGame.sol\":8137:8147  rentAmount */\n      0x0c\n        /* \"contracts/ZombieGame.sol\":8137:8151  rentAmount[id] */\n      0x00\n        /* \"contracts/ZombieGame.sol\":8148:8150  id */\n      dup6\n        /* \"contracts/ZombieGame.sol\":8137:8151  rentAmount[id] */\n      dup2\n      mstore\n      0x20\n      add\n      swap1\n      dup2\n      mstore\n      0x20\n      add\n      0x00\n      keccak256\n        /* \"contracts/ZombieGame.sol\":8137:8177  rentAmount[id] = RentAmount % (10 ** 18) */\n      dup2\n      swap1\n      sstore\n      pop\n        /* \"contracts/ZombieGame.sol\":8202:8206  true */\n      0x01\n        /* \"contracts/ZombieGame.sol\":8189:8195  onRent */\n      0x05\n        /* \"contracts/ZombieGame.sol\":8189:8199  onRent[id] */\n      0x00\n        /* \"contracts/ZombieGame.sol\":8196:8198  id */\n      dup6\n        /* \"contracts/ZombieGame.sol\":8189:8199  onRent[id] */\n      dup2\n      mstore\n      0x20\n      add\n      swap1\n      dup2\n      mstore\n      0x20\n      add\n      0x00\n      keccak256\n      0x00\n        /* \"contracts/ZombieGame.sol\":8189:8206  onRent[id] = true */\n      0x0100\n      exp\n      dup2\n      sload\n      dup2\n      0xff\n      mul\n      not\n      and\n      swap1\n      dup4\n      iszero\n      iszero\n      mul\n      or\n      swap1\n      sstore\n      pop\n        /* \"contracts/ZombieGame.sol\":8217:8229  uint EndTime */\n      0x00\n        /* \"contracts/ZombieGame.sol\":8250:8260  30 seconds */\n      0x1e\n        /* \"contracts/ZombieGame.sol\":8232:8247  block.timestamp */\n      timestamp\n        /* \"contracts/ZombieGame.sol\":8232:8260  block.timestamp + 30 seconds */\n      tag_114\n      swap2\n      swap1\n      tag_115\n      jump\t// in\n    tag_114:\n        /* \"contracts/ZombieGame.sol\":8217:8260  uint EndTime = block.timestamp + 30 seconds */\n      swap1\n      pop\n        /* \"contracts/ZombieGame.sol\":8284:8291  EndTime */\n      dup1\n        /* \"contracts/ZombieGame.sol\":8271:8277  Timing */\n      0x08\n        /* \"contracts/ZombieGame.sol\":8271:8281  Timing[id] */\n      0x00\n        /* \"contracts/ZombieGame.sol\":8278:8280  id */\n      dup7\n        /* \"contracts/ZombieGame.sol\":8271:8281  Timing[id] */\n      dup2\n      mstore\n      0x20\n      add\n      swap1\n      dup2\n      mstore\n      0x20\n      add\n      0x00\n      keccak256\n        /* \"contracts/ZombieGame.sol\":8271:8291  Timing[id] = EndTime */\n      dup2\n      swap1\n      sstore\n      pop\n        /* \"contracts/ZombieGame.sol\":8095:8299  {... */\n      pop\n        /* \"contracts/ZombieGame.sol\":8028:8299  function GiveOnRent(uint id, uint RentAmount) public OnlyOwner(id) {... */\n      pop\n      pop\n      pop\n      jump\t// out\n        /* \"contracts/ZombieGame.sol\":6209:6709  function ownerZombies(address _owner) public view returns (uint[] memory) {... */\n    tag_35:\n        /* \"contracts/ZombieGame.sol\":6268:6281  uint[] memory */\n      0x60\n        /* \"contracts/ZombieGame.sol\":6293:6321  uint[] memory OwnerZombiesId */\n      0x00\n        /* \"contracts/ZombieGame.sol\":6335:6346  ZombieCount */\n      0x01\n        /* \"contracts/ZombieGame.sol\":6335:6354  ZombieCount[_owner] */\n      0x00\n        /* \"contracts/ZombieGame.sol\":6347:6353  _owner */\n      dup5\n        /* \"contracts/ZombieGame.sol\":6335:6354  ZombieCount[_owner] */\n      0xffffffffffffffffffffffffffffffffffffffff\n      and\n      0xffffffffffffffffffffffffffffffffffffffff\n      and\n      dup2\n      mstore\n      0x20\n      add\n      swap1\n      dup2\n      mstore\n      0x20\n      add\n      0x00\n      keccak256\n      sload\n        /* \"contracts/ZombieGame.sol\":6324:6355  new uint[](ZombieCount[_owner]) */\n      0xffffffffffffffff\n      dup2\n      gt\n      iszero\n      tag_117\n      jumpi\n      tag_118\n      tag_119\n      jump\t// in\n    tag_118:\n    tag_117:\n      mload(0x40)\n      swap1\n      dup1\n      dup3\n      mstore\n      dup1\n      0x20\n      mul\n      0x20\n      add\n      dup3\n      add\n      0x40\n      mstore\n      dup1\n      iszero\n      tag_120\n      jumpi\n      dup2\n      0x20\n      add\n      0x20\n      dup3\n      mul\n      dup1\n      calldatasize\n      dup4\n      calldatacopy\n      dup1\n      dup3\n      add\n      swap2\n      pop\n      pop\n      swap1\n      pop\n    tag_120:\n      pop\n        /* \"contracts/ZombieGame.sol\":6293:6355  uint[] memory OwnerZombiesId = new uint[](ZombieCount[_owner]) */\n      swap1\n      pop\n        /* \"contracts/ZombieGame.sol\":6463:6473  uint index */\n      0x00\n        /* \"contracts/ZombieGame.sol\":6499:6505  uint i */\n      dup1\n        /* \"contracts/ZombieGame.sol\":6494:6670  for (uint i = 0; i < zombies.length; i++) {... */\n    tag_121:\n        /* \"contracts/ZombieGame.sol\":6515:6522  zombies */\n      0x03\n        /* \"contracts/ZombieGame.sol\":6515:6529  zombies.length */\n      dup1\n      sload\n      swap1\n      pop\n        /* \"contracts/ZombieGame.sol\":6511:6512  i */\n      dup2\n        /* \"contracts/ZombieGame.sol\":6511:6529  i < zombies.length */\n      lt\n        /* \"contracts/ZombieGame.sol\":6494:6670  for (uint i = 0; i < zombies.length; i++) {... */\n      iszero\n      tag_122\n      jumpi\n        /* \"contracts/ZombieGame.sol\":6573:6579  _owner */\n      dup5\n        /* \"contracts/ZombieGame.sol\":6555:6579  ZombieOwner[i] == _owner */\n      0xffffffffffffffffffffffffffffffffffffffff\n      and\n        /* \"contracts/ZombieGame.sol\":6555:6566  ZombieOwner */\n      0x00\n        /* \"contracts/ZombieGame.sol\":6555:6569  ZombieOwner[i] */\n      dup1\n        /* \"contracts/ZombieGame.sol\":6567:6568  i */\n      dup4\n        /* \"contracts/ZombieGame.sol\":6555:6569  ZombieOwner[i] */\n      dup2\n      mstore\n      0x20\n      add\n      swap1\n      dup2\n      mstore\n      0x20\n      add\n      0x00\n      keccak256\n      0x00\n      swap1\n      sload\n      swap1\n      0x0100\n      exp\n      swap1\n      div\n      0xffffffffffffffffffffffffffffffffffffffff\n      and\n        /* \"contracts/ZombieGame.sol\":6555:6579  ZombieOwner[i] == _owner */\n      0xffffffffffffffffffffffffffffffffffffffff\n      and\n      sub\n        /* \"contracts/ZombieGame.sol\":6551:6659  if (ZombieOwner[i] == _owner) {... */\n      tag_124\n      jumpi\n        /* \"contracts/ZombieGame.sol\":6620:6621  i */\n      dup1\n        /* \"contracts/ZombieGame.sol\":6596:6610  OwnerZombiesId */\n      dup4\n        /* \"contracts/ZombieGame.sol\":6611:6616  index */\n      dup4\n        /* \"contracts/ZombieGame.sol\":6596:6617  OwnerZombiesId[index] */\n      dup2\n      mload\n      dup2\n      lt\n      tag_125\n      jumpi\n      tag_126\n      tag_127\n      jump\t// in\n    tag_126:\n    tag_125:\n      0x20\n      mul\n      0x20\n      add\n      add\n        /* \"contracts/ZombieGame.sol\":6596:6621  OwnerZombiesId[index] = i */\n      dup2\n      dup2\n      mstore\n      pop\n      pop\n        /* \"contracts/ZombieGame.sol\":6636:6643  index++ */\n      dup2\n      dup1\n      tag_128\n      swap1\n      tag_129\n      jump\t// in\n    tag_128:\n      swap3\n      pop\n      pop\n        /* \"contracts/ZombieGame.sol\":6551:6659  if (ZombieOwner[i] == _owner) {... */\n    tag_124:\n        /* \"contracts/ZombieGame.sol\":6531:6534  i++ */\n      dup1\n      dup1\n      tag_130\n      swap1\n      tag_129\n      jump\t// in\n    tag_130:\n      swap2\n      pop\n      pop\n        /* \"contracts/ZombieGame.sol\":6494:6670  for (uint i = 0; i < zombies.length; i++) {... */\n      jump(tag_121)\n    tag_122:\n      pop\n        /* \"contracts/ZombieGame.sol\":6687:6701  OwnerZombiesId */\n      dup2\n        /* \"contracts/ZombieGame.sol\":6680:6701  return OwnerZombiesId */\n      swap3\n      pop\n      pop\n      pop\n        /* \"contracts/ZombieGame.sol\":6209:6709  function ownerZombies(address _owner) public view returns (uint[] memory) {... */\n      swap2\n      swap1\n      pop\n      jump\t// out\n        /* \"contracts/ZombieGame.sol\":7004:7712  function Fight(uint zombieID) public {... */\n    tag_42:\n        /* \"contracts/ZombieGame.sol\":7088:7098  msg.sender */\n      caller\n        /* \"contracts/ZombieGame.sol\":7064:7098  RentedbyID[zombieID] == msg.sender */\n      0xffffffffffffffffffffffffffffffffffffffff\n      and\n        /* \"contracts/ZombieGame.sol\":7064:7074  RentedbyID */\n      0x0b\n        /* \"contracts/ZombieGame.sol\":7064:7084  RentedbyID[zombieID] */\n      0x00\n        /* \"contracts/ZombieGame.sol\":7075:7083  zombieID */\n      dup4\n        /* \"contracts/ZombieGame.sol\":7064:7084  RentedbyID[zombieID] */\n      dup2\n      mstore\n      0x20\n      add\n      swap1\n      dup2\n      mstore\n      0x20\n      add\n      0x00\n      keccak256\n      0x00\n      swap1\n      sload\n      swap1\n      0x0100\n      exp\n      swap1\n      div\n      0xffffffffffffffffffffffffffffffffffffffff\n      and\n        /* \"contracts/ZombieGame.sol\":7064:7098  RentedbyID[zombieID] == msg.sender */\n      0xffffffffffffffffffffffffffffffffffffffff\n      and\n      eq\n        /* \"contracts/ZombieGame.sol\":7064:7129  RentedbyID[zombieID] == msg.sender || FreeNft[msg.sender] == true */\n      dup1\n      tag_132\n      jumpi\n      pop\n        /* \"contracts/ZombieGame.sol\":7125:7129  true */\n      0x01\n        /* \"contracts/ZombieGame.sol\":7102:7129  FreeNft[msg.sender] == true */\n      iszero\n      iszero\n        /* \"contracts/ZombieGame.sol\":7102:7109  FreeNft */\n      0x04\n        /* \"contracts/ZombieGame.sol\":7102:7121  FreeNft[msg.sender] */\n      0x00\n        /* \"contracts/ZombieGame.sol\":7110:7120  msg.sender */\n      caller\n        /* \"contracts/ZombieGame.sol\":7102:7121  FreeNft[msg.sender] */\n      0xffffffffffffffffffffffffffffffffffffffff\n      and\n      0xffffffffffffffffffffffffffffffffffffffff\n      and\n      dup2\n      mstore\n      0x20\n      add\n      swap1\n      dup2\n      mstore\n      0x20\n      add\n      0x00\n      keccak256\n      0x00\n      swap1\n      sload\n      swap1\n      0x0100\n      exp\n      swap1\n      div\n      0xff\n      and\n        /* \"contracts/ZombieGame.sol\":7102:7129  FreeNft[msg.sender] == true */\n      iszero\n      iszero\n      eq\n        /* \"contracts/ZombieGame.sol\":7064:7129  RentedbyID[zombieID] == msg.sender || FreeNft[msg.sender] == true */\n    tag_132:\n        /* \"contracts/ZombieGame.sol\":7060:7705  if (RentedbyID[zombieID] == msg.sender || FreeNft[msg.sender] == true) {... */\n      iszero\n      tag_133\n      jumpi\n        /* \"contracts/ZombieGame.sol\":7173:7188  block.timestamp */\n      timestamp\n        /* \"contracts/ZombieGame.sol\":7154:7160  Timing */\n      0x08\n        /* \"contracts/ZombieGame.sol\":7154:7170  Timing[zombieID] */\n      0x00\n        /* \"contracts/ZombieGame.sol\":7161:7169  zombieID */\n      dup4\n        /* \"contracts/ZombieGame.sol\":7154:7170  Timing[zombieID] */\n      dup2\n      mstore\n      0x20\n      add\n      swap1\n      dup2\n      mstore\n      0x20\n      add\n      0x00\n      keccak256\n      sload\n        /* \"contracts/ZombieGame.sol\":7154:7188  Timing[zombieID] > block.timestamp */\n      gt\n        /* \"contracts/ZombieGame.sol\":7146:7215  require(Timing[zombieID] > block.timestamp, \"Now id is not on rent.\") */\n      tag_134\n      jumpi\n      mload(0x40)\n      0x08c379a000000000000000000000000000000000000000000000000000000000\n      dup2\n      mstore\n      0x04\n      add\n      tag_135\n      swap1\n      tag_136\n      jump\t// in\n    tag_135:\n      mload(0x40)\n      dup1\n      swap2\n      sub\n      swap1\n      revert\n    tag_134:\n        /* \"contracts/ZombieGame.sol\":7230:7250  uint beforeMatchWins */\n      0x00\n        /* \"contracts/ZombieGame.sol\":7253:7260  zombies */\n      0x03\n        /* \"contracts/ZombieGame.sol\":7261:7269  zombieID */\n      dup3\n        /* \"contracts/ZombieGame.sol\":7253:7270  zombies[zombieID] */\n      dup2\n      sload\n      dup2\n      lt\n      tag_137\n      jumpi\n      tag_138\n      tag_127\n      jump\t// in\n    tag_138:\n    tag_137:\n      swap1\n      0x00\n      mstore\n      keccak256(0x00, 0x20)\n      swap1\n      0x09\n      mul\n      add\n        /* \"contracts/ZombieGame.sol\":7253:7275  zombies[zombieID].Wins */\n      0x07\n      add\n      sload\n        /* \"contracts/ZombieGame.sol\":7230:7275  uint beforeMatchWins = zombies[zombieID].Wins */\n      swap1\n      pop\n        /* \"contracts/ZombieGame.sol\":7290:7314  ZombieVsZombie(zombieID) */\n      tag_140\n        /* \"contracts/ZombieGame.sol\":7305:7313  zombieID */\n      dup3\n        /* \"contracts/ZombieGame.sol\":7290:7304  ZombieVsZombie */\n      tag_141\n        /* \"contracts/ZombieGame.sol\":7290:7314  ZombieVsZombie(zombieID) */\n      jump\t// in\n    tag_140:\n      pop\n        /* \"contracts/ZombieGame.sol\":7362:7377  beforeMatchWins */\n      dup1\n        /* \"contracts/ZombieGame.sol\":7337:7344  zombies */\n      0x03\n        /* \"contracts/ZombieGame.sol\":7345:7353  zombieID */\n      dup4\n        /* \"contracts/ZombieGame.sol\":7337:7354  zombies[zombieID] */\n      dup2\n      sload\n      dup2\n      lt\n      tag_142\n      jumpi\n      tag_143\n      tag_127\n      jump\t// in\n    tag_143:\n    tag_142:\n      swap1\n      0x00\n      mstore\n      keccak256(0x00, 0x20)\n      swap1\n      0x09\n      mul\n      add\n        /* \"contracts/ZombieGame.sol\":7337:7359  zombies[zombieID].Wins */\n      0x07\n      add\n      sload\n        /* \"contracts/ZombieGame.sol\":7337:7377  zombies[zombieID].Wins > beforeMatchWins */\n      gt\n        /* \"contracts/ZombieGame.sol\":7337:7409  zombies[zombieID].Wins > beforeMatchWins && ZombieCount[msg.sender] >= 1 */\n      dup1\n      iszero\n      tag_145\n      jumpi\n      pop\n        /* \"contracts/ZombieGame.sol\":7408:7409  1 */\n      0x01\n        /* \"contracts/ZombieGame.sol\":7381:7392  ZombieCount */\n      dup1\n        /* \"contracts/ZombieGame.sol\":7381:7404  ZombieCount[msg.sender] */\n      0x00\n        /* \"contracts/ZombieGame.sol\":7393:7403  msg.sender */\n      caller\n        /* \"contracts/ZombieGame.sol\":7381:7404  ZombieCount[msg.sender] */\n      0xffffffffffffffffffffffffffffffffffffffff\n      and\n      0xffffffffffffffffffffffffffffffffffffffff\n      and\n      dup2\n      mstore\n      0x20\n      add\n      swap1\n      dup2\n      mstore\n      0x20\n      add\n      0x00\n      keccak256\n      sload\n        /* \"contracts/ZombieGame.sol\":7381:7409  ZombieCount[msg.sender] >= 1 */\n      lt\n      iszero\n        /* \"contracts/ZombieGame.sol\":7337:7409  zombies[zombieID].Wins > beforeMatchWins && ZombieCount[msg.sender] >= 1 */\n    tag_145:\n        /* \"contracts/ZombieGame.sol\":7333:7545  if (zombies[zombieID].Wins > beforeMatchWins && ZombieCount[msg.sender] >= 1) {... */\n      iszero\n      tag_146\n      jumpi\n        /* \"contracts/ZombieGame.sol\":7430:7452  uint[] memory renterId */\n      0x00\n        /* \"contracts/ZombieGame.sol\":7455:7479  ownerZombies(msg.sender) */\n      tag_147\n        /* \"contracts/ZombieGame.sol\":7468:7478  msg.sender */\n      caller\n        /* \"contracts/ZombieGame.sol\":7455:7467  ownerZombies */\n      tag_35\n        /* \"contracts/ZombieGame.sol\":7455:7479  ownerZombies(msg.sender) */\n      jump\t// in\n    tag_147:\n        /* \"contracts/ZombieGame.sol\":7430:7479  uint[] memory renterId = ownerZombies(msg.sender) */\n      swap1\n      pop\n        /* \"contracts/ZombieGame.sol\":7528:7529  1 */\n      0x01\n        /* \"contracts/ZombieGame.sol\":7498:7505  zombies */\n      0x03\n        /* \"contracts/ZombieGame.sol\":7506:7514  renterId */\n      dup3\n        /* \"contracts/ZombieGame.sol\":7515:7516  0 */\n      0x00\n        /* \"contracts/ZombieGame.sol\":7506:7517  renterId[0] */\n      dup2\n      mload\n      dup2\n      lt\n      tag_148\n      jumpi\n      tag_149\n      tag_127\n      jump\t// in\n    tag_149:\n    tag_148:\n      0x20\n      mul\n      0x20\n      add\n      add\n      mload\n        /* \"contracts/ZombieGame.sol\":7498:7518  zombies[renterId[0]] */\n      dup2\n      sload\n      dup2\n      lt\n      tag_150\n      jumpi\n      tag_151\n      tag_127\n      jump\t// in\n    tag_151:\n    tag_150:\n      swap1\n      0x00\n      mstore\n      keccak256(0x00, 0x20)\n      swap1\n      0x09\n      mul\n      add\n        /* \"contracts/ZombieGame.sol\":7498:7524  zombies[renterId[0]].level */\n      0x03\n      add\n      0x00\n        /* \"contracts/ZombieGame.sol\":7498:7529  zombies[renterId[0]].level += 1 */\n      dup3\n      dup3\n      sload\n      tag_153\n      swap2\n      swap1\n      tag_115\n      jump\t// in\n    tag_153:\n      swap3\n      pop\n      pop\n      dup2\n      swap1\n      sstore\n      pop\n        /* \"contracts/ZombieGame.sol\":7411:7545  {... */\n      pop\n        /* \"contracts/ZombieGame.sol\":7333:7545  if (zombies[zombieID].Wins > beforeMatchWins && ZombieCount[msg.sender] >= 1) {... */\n    tag_146:\n        /* \"contracts/ZombieGame.sol\":7131:7556  {... */\n      pop\n        /* \"contracts/ZombieGame.sol\":7060:7705  if (RentedbyID[zombieID] == msg.sender || FreeNft[msg.sender] == true) {... */\n      jump(tag_154)\n    tag_133:\n        /* \"contracts/ZombieGame.sol\":7621:7631  msg.sender */\n      caller\n        /* \"contracts/ZombieGame.sol\":7596:7631  ZombieOwner[zombieID] == msg.sender */\n      0xffffffffffffffffffffffffffffffffffffffff\n      and\n        /* \"contracts/ZombieGame.sol\":7596:7607  ZombieOwner */\n      0x00\n        /* \"contracts/ZombieGame.sol\":7596:7617  ZombieOwner[zombieID] */\n      dup1\n        /* \"contracts/ZombieGame.sol\":7608:7616  zombieID */\n      dup4\n        /* \"contracts/ZombieGame.sol\":7596:7617  ZombieOwner[zombieID] */\n      dup2\n      mstore\n      0x20\n      add\n      swap1\n      dup2\n      mstore\n      0x20\n      add\n      0x00\n      keccak256\n      0x00\n      swap1\n      sload\n      swap1\n      0x0100\n      exp\n      swap1\n      div\n      0xffffffffffffffffffffffffffffffffffffffff\n      and\n        /* \"contracts/ZombieGame.sol\":7596:7631  ZombieOwner[zombieID] == msg.sender */\n      0xffffffffffffffffffffffffffffffffffffffff\n      and\n      eq\n        /* \"contracts/ZombieGame.sol\":7588:7654  require(ZombieOwner[zombieID] == msg.sender, \"You dont have nft.\") */\n      tag_155\n      jumpi\n      mload(0x40)\n      0x08c379a000000000000000000000000000000000000000000000000000000000\n      dup2\n      mstore\n      0x04\n      add\n      tag_156\n      swap1\n      tag_157\n      jump\t// in\n    tag_156:\n      mload(0x40)\n      dup1\n      swap2\n      sub\n      swap1\n      revert\n    tag_155:\n        /* \"contracts/ZombieGame.sol\":7669:7693  ZombieVsZombie(zombieID) */\n      tag_158\n        /* \"contracts/ZombieGame.sol\":7684:7692  zombieID */\n      dup2\n        /* \"contracts/ZombieGame.sol\":7669:7683  ZombieVsZombie */\n      tag_141\n        /* \"contracts/ZombieGame.sol\":7669:7693  ZombieVsZombie(zombieID) */\n      jump\t// in\n    tag_158:\n      pop\n        /* \"contracts/ZombieGame.sol\":7060:7705  if (RentedbyID[zombieID] == msg.sender || FreeNft[msg.sender] == true) {... */\n    tag_154:\n        /* \"contracts/ZombieGame.sol\":7004:7712  function Fight(uint zombieID) public {... */\n      pop\n      jump\t// out\n        /* \"contracts/ZombieGame.sol\":4566:4606  mapping (uint => uint) public rentAmount */\n    tag_46:\n      mstore(0x20, 0x0c)\n      dup1\n      0x00\n      mstore\n      keccak256(0x00, 0x40)\n      0x00\n      swap2\n      pop\n      swap1\n      pop\n      sload\n      dup2\n      jump\t// out\n        /* \"contracts/ZombieGame.sol\":8900:9331  function tranferFrom(address from, address to, uint id) public OnlyOwner(id) {... */\n    tag_53:\n        /* \"contracts/ZombieGame.sol\":8973:8975  id */\n      dup1\n        /* \"contracts/ZombieGame.sol\":4728:4738  msg.sender */\n      caller\n        /* \"contracts/ZombieGame.sol\":4703:4738  ZombieOwner[zombieId] == msg.sender */\n      0xffffffffffffffffffffffffffffffffffffffff\n      and\n        /* \"contracts/ZombieGame.sol\":4703:4714  ZombieOwner */\n      0x00\n        /* \"contracts/ZombieGame.sol\":4703:4724  ZombieOwner[zombieId] */\n      dup1\n        /* \"contracts/ZombieGame.sol\":4715:4723  zombieId */\n      dup4\n        /* \"contracts/ZombieGame.sol\":4703:4724  ZombieOwner[zombieId] */\n      dup2\n      mstore\n      0x20\n      add\n      swap1\n      dup2\n      mstore\n      0x20\n      add\n      0x00\n      keccak256\n      0x00\n      swap1\n      sload\n      swap1\n      0x0100\n      exp\n      swap1\n      div\n      0xffffffffffffffffffffffffffffffffffffffff\n      and\n        /* \"contracts/ZombieGame.sol\":4703:4738  ZombieOwner[zombieId] == msg.sender */\n      0xffffffffffffffffffffffffffffffffffffffff\n      and\n      eq\n        /* \"contracts/ZombieGame.sol\":4695:4754  require(ZombieOwner[zombieId] == msg.sender, \"Only Owner.\") */\n      tag_160\n      jumpi\n      mload(0x40)\n      0x08c379a000000000000000000000000000000000000000000000000000000000\n      dup2\n      mstore\n      0x04\n      add\n      tag_161\n      swap1\n      tag_105\n      jump\t// in\n    tag_161:\n      mload(0x40)\n      dup1\n      swap2\n      sub\n      swap1\n      revert\n    tag_160:\n        /* \"contracts/ZombieGame.sol\":9044:9060  bytes(\"premium\") */\n      mload(0x40)\n      dup1\n      0x40\n      add\n      0x40\n      mstore\n      dup1\n      0x07\n      dup2\n      mstore\n      0x20\n      add\n      0x7072656d69756d00000000000000000000000000000000000000000000000000\n      dup2\n      mstore\n      pop\n        /* \"contracts/ZombieGame.sol\":9034:9061  keccak256(bytes(\"premium\")) */\n      dup1\n      mload\n      swap1\n      0x20\n      add\n      keccak256\n        /* \"contracts/ZombieGame.sol\":9012:9019  zombies */\n      0x03\n        /* \"contracts/ZombieGame.sol\":9020:9022  id */\n      dup4\n        /* \"contracts/ZombieGame.sol\":9012:9023  zombies[id] */\n      dup2\n      sload\n      dup2\n      lt\n      tag_163\n      jumpi\n      tag_164\n      tag_127\n      jump\t// in\n    tag_164:\n    tag_163:\n      swap1\n      0x00\n      mstore\n      keccak256(0x00, 0x20)\n      swap1\n      0x09\n      mul\n      add\n        /* \"contracts/ZombieGame.sol\":9012:9028  zombies[id].plan */\n      0x00\n      add\n        /* \"contracts/ZombieGame.sol\":8996:9030  keccak256(bytes(zombies[id].plan)) */\n      mload(0x40)\n      tag_166\n      swap2\n      swap1\n      tag_167\n      jump\t// in\n    tag_166:\n      mload(0x40)\n      dup1\n      swap2\n      sub\n      swap1\n      keccak256\n        /* \"contracts/ZombieGame.sol\":8996:9061  keccak256(bytes(zombies[id].plan)) == keccak256(bytes(\"premium\")) */\n      eq\n        /* \"contracts/ZombieGame.sol\":8988:9084  require(keccak256(bytes(zombies[id].plan)) == keccak256(bytes(\"premium\")), \"free nft can sell.\") */\n      tag_168\n      jumpi\n      mload(0x40)\n      0x08c379a000000000000000000000000000000000000000000000000000000000\n      dup2\n      mstore\n      0x04\n      add\n      tag_169\n      swap1\n      tag_170\n      jump\t// in\n    tag_169:\n      mload(0x40)\n      dup1\n      swap2\n      sub\n      swap1\n      revert\n    tag_168:\n        /* \"contracts/ZombieGame.sol\":9105:9111  onRent */\n      0x05\n        /* \"contracts/ZombieGame.sol\":9105:9115  onRent[id] */\n      0x00\n        /* \"contracts/ZombieGame.sol\":9112:9114  id */\n      dup4\n        /* \"contracts/ZombieGame.sol\":9105:9115  onRent[id] */\n      dup2\n      mstore\n      0x20\n      add\n      swap1\n      dup2\n      mstore\n      0x20\n      add\n      0x00\n      keccak256\n      0x00\n      swap1\n      sload\n      swap1\n      0x0100\n      exp\n      swap1\n      div\n      0xff\n      and\n        /* \"contracts/ZombieGame.sol\":9103:9115  ! onRent[id] */\n      iszero\n        /* \"contracts/ZombieGame.sol\":9095:9138  require(! onRent[id], \"This nft on rent.\" ) */\n      tag_171\n      jumpi\n      mload(0x40)\n      0x08c379a000000000000000000000000000000000000000000000000000000000\n      dup2\n      mstore\n      0x04\n      add\n      tag_172\n      swap1\n      tag_173\n      jump\t// in\n    tag_172:\n      mload(0x40)\n      dup1\n      swap2\n      sub\n      swap1\n      revert\n    tag_171:\n        /* \"contracts/ZombieGame.sol\":9176:9180  from */\n      dup4\n        /* \"contracts/ZombieGame.sol\":9157:9180  ZombieOwner[id] == from */\n      0xffffffffffffffffffffffffffffffffffffffff\n      and\n        /* \"contracts/ZombieGame.sol\":9157:9168  ZombieOwner */\n      0x00\n        /* \"contracts/ZombieGame.sol\":9157:9172  ZombieOwner[id] */\n      dup1\n        /* \"contracts/ZombieGame.sol\":9169:9171  id */\n      dup5\n        /* \"contracts/ZombieGame.sol\":9157:9172  ZombieOwner[id] */\n      dup2\n      mstore\n      0x20\n      add\n      swap1\n      dup2\n      mstore\n      0x20\n      add\n      0x00\n      keccak256\n      0x00\n      swap1\n      sload\n      swap1\n      0x0100\n      exp\n      swap1\n      div\n      0xffffffffffffffffffffffffffffffffffffffff\n      and\n        /* \"contracts/ZombieGame.sol\":9157:9180  ZombieOwner[id] == from */\n      0xffffffffffffffffffffffffffffffffffffffff\n      and\n      eq\n        /* \"contracts/ZombieGame.sol\":9157:9211  ZombieOwner[id] == from || Approve[from] == msg.sender */\n      dup1\n      tag_174\n      jumpi\n      pop\n        /* \"contracts/ZombieGame.sol\":9201:9211  msg.sender */\n      caller\n        /* \"contracts/ZombieGame.sol\":9184:9211  Approve[from] == msg.sender */\n      0xffffffffffffffffffffffffffffffffffffffff\n      and\n        /* \"contracts/ZombieGame.sol\":9184:9191  Approve */\n      0x07\n        /* \"contracts/ZombieGame.sol\":9184:9197  Approve[from] */\n      0x00\n        /* \"contracts/ZombieGame.sol\":9192:9196  from */\n      dup7\n        /* \"contracts/ZombieGame.sol\":9184:9197  Approve[from] */\n      0xffffffffffffffffffffffffffffffffffffffff\n      and\n      0xffffffffffffffffffffffffffffffffffffffff\n      and\n      dup2\n      mstore\n      0x20\n      add\n      swap1\n      dup2\n      mstore\n      0x20\n      add\n      0x00\n      keccak256\n      0x00\n      swap1\n      sload\n      swap1\n      0x0100\n      exp\n      swap1\n      div\n      0xffffffffffffffffffffffffffffffffffffffff\n      and\n        /* \"contracts/ZombieGame.sol\":9184:9211  Approve[from] == msg.sender */\n      0xffffffffffffffffffffffffffffffffffffffff\n      and\n      eq\n        /* \"contracts/ZombieGame.sol\":9157:9211  ZombieOwner[id] == from || Approve[from] == msg.sender */\n    tag_174:\n        /* \"contracts/ZombieGame.sol\":9149:9234  require(ZombieOwner[id] == from || Approve[from] == msg.sender, \"You dont have Nft.\") */\n      tag_175\n      jumpi\n      mload(0x40)\n      0x08c379a000000000000000000000000000000000000000000000000000000000\n      dup2\n      mstore\n      0x04\n      add\n      tag_176\n      swap1\n      tag_177\n      jump\t// in\n    tag_176:\n      mload(0x40)\n      dup1\n      swap2\n      sub\n      swap1\n      revert\n    tag_175:\n        /* \"contracts/ZombieGame.sol\":9263:9265  to */\n      dup3\n        /* \"contracts/ZombieGame.sol\":9245:9256  ZombieOwner */\n      0x00\n        /* \"contracts/ZombieGame.sol\":9245:9260  ZombieOwner[id] */\n      dup1\n        /* \"contracts/ZombieGame.sol\":9257:9259  id */\n      dup5\n        /* \"contracts/ZombieGame.sol\":9245:9260  ZombieOwner[id] */\n      dup2\n      mstore\n      0x20\n      add\n      swap1\n      dup2\n      mstore\n      0x20\n      add\n      0x00\n      keccak256\n      0x00\n        /* \"contracts/ZombieGame.sol\":9245:9265  ZombieOwner[id] = to */\n      0x0100\n      exp\n      dup2\n      sload\n      dup2\n      0xffffffffffffffffffffffffffffffffffffffff\n      mul\n      not\n      and\n      swap1\n      dup4\n      0xffffffffffffffffffffffffffffffffffffffff\n      and\n      mul\n      or\n      swap1\n      sstore\n      pop\n        /* \"contracts/ZombieGame.sol\":9276:9287  ZombieCount */\n      0x01\n        /* \"contracts/ZombieGame.sol\":9276:9293  ZombieCount[from] */\n      0x00\n        /* \"contracts/ZombieGame.sol\":9288:9292  from */\n      dup6\n        /* \"contracts/ZombieGame.sol\":9276:9293  ZombieCount[from] */\n      0xffffffffffffffffffffffffffffffffffffffff\n      and\n      0xffffffffffffffffffffffffffffffffffffffff\n      and\n      dup2\n      mstore\n      0x20\n      add\n      swap1\n      dup2\n      mstore\n      0x20\n      add\n      0x00\n      keccak256\n      0x00\n        /* \"contracts/ZombieGame.sol\":9276:9295  ZombieCount[from]-- */\n      dup2\n      sload\n      dup1\n      swap3\n      swap2\n      swap1\n      tag_178\n      swap1\n      tag_179\n      jump\t// in\n    tag_178:\n      swap2\n      swap1\n      pop\n      sstore\n      pop\n        /* \"contracts/ZombieGame.sol\":9306:9317  ZombieCount */\n      0x01\n        /* \"contracts/ZombieGame.sol\":9306:9321  ZombieCount[to] */\n      0x00\n        /* \"contracts/ZombieGame.sol\":9318:9320  to */\n      dup5\n        /* \"contracts/ZombieGame.sol\":9306:9321  ZombieCount[to] */\n      0xffffffffffffffffffffffffffffffffffffffff\n      and\n      0xffffffffffffffffffffffffffffffffffffffff\n      and\n      dup2\n      mstore\n      0x20\n      add\n      swap1\n      dup2\n      mstore\n      0x20\n      add\n      0x00\n      keccak256\n      0x00\n        /* \"contracts/ZombieGame.sol\":9306:9323  ZombieCount[to]++ */\n      dup2\n      sload\n      dup1\n      swap3\n      swap2\n      swap1\n      tag_180\n      swap1\n      tag_129\n      jump\t// in\n    tag_180:\n      swap2\n      swap1\n      pop\n      sstore\n      pop\n        /* \"contracts/ZombieGame.sol\":8900:9331  function tranferFrom(address from, address to, uint id) public OnlyOwner(id) {... */\n      pop\n      pop\n      pop\n      pop\n      jump\t// out\n        /* \"contracts/ZombieGame.sol\":4337:4379  mapping (address => bool) public buyOnRent */\n    tag_57:\n      mstore(0x20, 0x0a)\n      dup1\n      0x00\n      mstore\n      keccak256(0x00, 0x40)\n      0x00\n      swap2\n      pop\n      sload\n      swap1\n      0x0100\n      exp\n      swap1\n      div\n      0xff\n      and\n      dup2\n      jump\t// out\n        /* \"contracts/ZombieGame.sol\":4239:4277  mapping (uint => bool) public TakenNft */\n    tag_63:\n      mstore(0x20, 0x09)\n      dup1\n      0x00\n      mstore\n      keccak256(0x00, 0x40)\n      0x00\n      swap2\n      pop\n      sload\n      swap1\n      0x0100\n      exp\n      swap1\n      div\n      0xff\n      and\n      dup2\n      jump\t// out\n        /* \"contracts/ZombieGame.sol\":4831:5061  function FreeZombie() public {... */\n    tag_67:\n        /* \"contracts/ZombieGame.sol\":4906:4907  0 */\n      0x00\n        /* \"contracts/ZombieGame.sol\":4879:4890  ZombieCount */\n      0x01\n        /* \"contracts/ZombieGame.sol\":4879:4902  ZombieCount[msg.sender] */\n      0x00\n        /* \"contracts/ZombieGame.sol\":4891:4901  msg.sender */\n      caller\n        /* \"contracts/ZombieGame.sol\":4879:4902  ZombieCount[msg.sender] */\n      0xffffffffffffffffffffffffffffffffffffffff\n      and\n      0xffffffffffffffffffffffffffffffffffffffff\n      and\n      dup2\n      mstore\n      0x20\n      add\n      swap1\n      dup2\n      mstore\n      0x20\n      add\n      0x00\n      keccak256\n      sload\n        /* \"contracts/ZombieGame.sol\":4879:4907  ZombieCount[msg.sender] == 0 */\n      eq\n        /* \"contracts/ZombieGame.sol\":4871:4931  require(ZombieCount[msg.sender] == 0, \"Already have 1 nft.\") */\n      tag_182\n      jumpi\n      mload(0x40)\n      0x08c379a000000000000000000000000000000000000000000000000000000000\n      dup2\n      mstore\n      0x04\n      add\n      tag_183\n      swap1\n      tag_184\n      jump\t// in\n    tag_183:\n      mload(0x40)\n      dup1\n      swap2\n      sub\n      swap1\n      revert\n    tag_182:\n        /* \"contracts/ZombieGame.sol\":4964:4968  true */\n      0x01\n        /* \"contracts/ZombieGame.sol\":4942:4949  FreeNft */\n      0x04\n        /* \"contracts/ZombieGame.sol\":4942:4961  FreeNft[msg.sender] */\n      0x00\n        /* \"contracts/ZombieGame.sol\":4950:4960  msg.sender */\n      caller\n        /* \"contracts/ZombieGame.sol\":4942:4961  FreeNft[msg.sender] */\n      0xffffffffffffffffffffffffffffffffffffffff\n      and\n      0xffffffffffffffffffffffffffffffffffffffff\n      and\n      dup2\n      mstore\n      0x20\n      add\n      swap1\n      dup2\n      mstore\n      0x20\n      add\n      0x00\n      keccak256\n      0x00\n        /* \"contracts/ZombieGame.sol\":4942:4968  FreeNft[msg.sender] = true */\n      0x0100\n      exp\n      dup2\n      sload\n      dup2\n      0xff\n      mul\n      not\n      and\n      swap1\n      dup4\n      iszero\n      iszero\n      mul\n      or\n      swap1\n      sstore\n      pop\n        /* \"contracts/ZombieGame.sol\":4979:5053  createZombie(\"Free\", \"FreeZombie\", DnaGenerator(\"free\"), 1, 0, 0, 2, 0, 0) */\n      tag_185\n      mload(0x40)\n      dup1\n      0x40\n      add\n      0x40\n      mstore\n      dup1\n      0x04\n      dup2\n      mstore\n      0x20\n      add\n      0x4672656500000000000000000000000000000000000000000000000000000000\n      dup2\n      mstore\n      pop\n      mload(0x40)\n      dup1\n      0x40\n      add\n      0x40\n      mstore\n      dup1\n      0x0a\n      dup2\n      mstore\n      0x20\n      add\n      0x467265655a6f6d62696500000000000000000000000000000000000000000000\n      dup2\n      mstore\n      pop\n        /* \"contracts/ZombieGame.sol\":5014:5034  DnaGenerator(\"free\") */\n      tag_186\n      mload(0x40)\n      dup1\n      0x40\n      add\n      0x40\n      mstore\n      dup1\n      0x04\n      dup2\n      mstore\n      0x20\n      add\n      0x6672656500000000000000000000000000000000000000000000000000000000\n      dup2\n      mstore\n      pop\n        /* \"contracts/ZombieGame.sol\":5014:5026  DnaGenerator */\n      tag_187\n        /* \"contracts/ZombieGame.sol\":5014:5034  DnaGenerator(\"free\") */\n      jump\t// in\n    tag_186:\n        /* \"contracts/ZombieGame.sol\":5036:5037  1 */\n      0x01\n        /* \"contracts/ZombieGame.sol\":5039:5040  0 */\n      0x00\n        /* \"contracts/ZombieGame.sol\":5042:5043  0 */\n      dup1\n        /* \"contracts/ZombieGame.sol\":5045:5046  2 */\n      0x02\n        /* \"contracts/ZombieGame.sol\":5048:5049  0 */\n      0x00\n        /* \"contracts/ZombieGame.sol\":5051:5052  0 */\n      dup1\n        /* \"contracts/ZombieGame.sol\":4979:4991  createZombie */\n      tag_188\n        /* \"contracts/ZombieGame.sol\":4979:5053  createZombie(\"Free\", \"FreeZombie\", DnaGenerator(\"free\"), 1, 0, 0, 2, 0, 0) */\n      jump\t// in\n    tag_185:\n        /* \"contracts/ZombieGame.sol\":4831:5061  function FreeZombie() public {... */\n      jump\t// out\n        /* \"contracts/ZombieGame.sol\":6795:6918  function getDetails(uint zombieId) public view returns(zombieDetails memory){... */\n    tag_71:\n        /* \"contracts/ZombieGame.sol\":6850:6870  zombieDetails memory */\n      tag_189\n      tag_190\n      jump\t// in\n    tag_189:\n        /* \"contracts/ZombieGame.sol\":6889:6896  zombies */\n      0x03\n        /* \"contracts/ZombieGame.sol\":6897:6905  zombieId */\n      dup3\n        /* \"contracts/ZombieGame.sol\":6889:6906  zombies[zombieId] */\n      dup2\n      sload\n      dup2\n      lt\n      tag_192\n      jumpi\n      tag_193\n      tag_127\n      jump\t// in\n    tag_193:\n    tag_192:\n      swap1\n      0x00\n      mstore\n      keccak256(0x00, 0x20)\n      swap1\n      0x09\n      mul\n      add\n        /* \"contracts/ZombieGame.sol\":6882:6906  return zombies[zombieId] */\n      mload(0x40)\n      dup1\n      0x0120\n      add\n      0x40\n      mstore\n      swap1\n      dup2\n      0x00\n      dup3\n      add\n      dup1\n      sload\n      tag_195\n      swap1\n      tag_196\n      jump\t// in\n    tag_195:\n      dup1\n      0x1f\n      add\n      0x20\n      dup1\n      swap2\n      div\n      mul\n      0x20\n      add\n      mload(0x40)\n      swap1\n      dup2\n      add\n      0x40\n      mstore\n      dup1\n      swap3\n      swap2\n      swap1\n      dup2\n      dup2\n      mstore\n      0x20\n      add\n      dup3\n      dup1\n      sload\n      tag_197\n      swap1\n      tag_196\n      jump\t// in\n    tag_197:\n      dup1\n      iszero\n      tag_198\n      jumpi\n      dup1\n      0x1f\n      lt\n      tag_199\n      jumpi\n      0x0100\n      dup1\n      dup4\n      sload\n      div\n      mul\n      dup4\n      mstore\n      swap2\n      0x20\n      add\n      swap2\n      jump(tag_198)\n    tag_199:\n      dup3\n      add\n      swap2\n      swap1\n      0x00\n      mstore\n      keccak256(0x00, 0x20)\n      swap1\n    tag_200:\n      dup2\n      sload\n      dup2\n      mstore\n      swap1\n      0x01\n      add\n      swap1\n      0x20\n      add\n      dup1\n      dup4\n      gt\n      tag_200\n      jumpi\n      dup3\n      swap1\n      sub\n      0x1f\n      and\n      dup3\n      add\n      swap2\n    tag_198:\n      pop\n      pop\n      pop\n      pop\n      pop\n      dup2\n      mstore\n      0x20\n      add\n      0x01\n      dup3\n      add\n      dup1\n      sload\n      tag_201\n      swap1\n      tag_196\n      jump\t// in\n    tag_201:\n      dup1\n      0x1f\n      add\n      0x20\n      dup1\n      swap2\n      div\n      mul\n      0x20\n      add\n      mload(0x40)\n      swap1\n      dup2\n      add\n      0x40\n      mstore\n      dup1\n      swap3\n      swap2\n      swap1\n      dup2\n      dup2\n      mstore\n      0x20\n      add\n      dup3\n      dup1\n      sload\n      tag_202\n      swap1\n      tag_196\n      jump\t// in\n    tag_202:\n      dup1\n      iszero\n      tag_203\n      jumpi\n      dup1\n      0x1f\n      lt\n      tag_204\n      jumpi\n      0x0100\n      dup1\n      dup4\n      sload\n      div\n      mul\n      dup4\n      mstore\n      swap2\n      0x20\n      add\n      swap2\n      jump(tag_203)\n    tag_204:\n      dup3\n      add\n      swap2\n      swap1\n      0x00\n      mstore\n      keccak256(0x00, 0x20)\n      swap1\n    tag_205:\n      dup2\n      sload\n      dup2\n      mstore\n      swap1\n      0x01\n      add\n      swap1\n      0x20\n      add\n      dup1\n      dup4\n      gt\n      tag_205\n      jumpi\n      dup3\n      swap1\n      sub\n      0x1f\n      and\n      dup3\n      add\n      swap2\n    tag_203:\n      pop\n      pop\n      pop\n      pop\n      pop\n      dup2\n      mstore\n      0x20\n      add\n      0x02\n      dup3\n      add\n      sload\n      dup2\n      mstore\n      0x20\n      add\n      0x03\n      dup3\n      add\n      sload\n      dup2\n      mstore\n      0x20\n      add\n      0x04\n      dup3\n      add\n      sload\n      dup2\n      mstore\n      0x20\n      add\n      0x05\n      dup3\n      add\n      sload\n      dup2\n      mstore\n      0x20\n      add\n      0x06\n      dup3\n      add\n      sload\n      dup2\n      mstore\n      0x20\n      add\n      0x07\n      dup3\n      add\n      sload\n      dup2\n      mstore\n      0x20\n      add\n      0x08\n      dup3\n      add\n      sload\n      dup2\n      mstore\n      pop\n      pop\n      swap1\n      pop\n        /* \"contracts/ZombieGame.sol\":6795:6918  function getDetails(uint zombieId) public view returns(zombieDetails memory){... */\n      swap2\n      swap1\n      pop\n      jump\t// out\n        /* \"contracts/ZombieGame.sol\":3789:3829  mapping (address => bool) public FreeNft */\n    tag_77:\n      mstore(0x20, 0x04)\n      dup1\n      0x00\n      mstore\n      keccak256(0x00, 0x40)\n      0x00\n      swap2\n      pop\n      sload\n      swap1\n      0x0100\n      exp\n      swap1\n      div\n      0xff\n      and\n      dup2\n      jump\t// out\n        /* \"contracts/ZombieGame.sol\":4464:4507  mapping (uint => address) public RentedbyID */\n    tag_82:\n      mstore(0x20, 0x0b)\n      dup1\n      0x00\n      mstore\n      keccak256(0x00, 0x40)\n      0x00\n      swap2\n      pop\n      sload\n      swap1\n      0x0100\n      exp\n      swap1\n      div\n      0xffffffffffffffffffffffffffffffffffffffff\n      and\n      dup2\n      jump\t// out\n        /* \"contracts/ZombieGame.sol\":5170:5603  function BuyZombie(string memory plan, string memory name) public payable returns(bool) {... */\n    tag_88:\n        /* \"contracts/ZombieGame.sol\":5252:5256  bool */\n      0x00\n        /* \"contracts/ZombieGame.sol\":5290:5297  1 ether */\n      0x0de0b6b3a7640000\n        /* \"contracts/ZombieGame.sol\":5277:5286  msg.value */\n      callvalue\n        /* \"contracts/ZombieGame.sol\":5277:5297  msg.value == 1 ether */\n      eq\n        /* \"contracts/ZombieGame.sol\":5269:5324  require(msg.value == 1 ether , \"vlue must be 1 ether.\") */\n      tag_207\n      jumpi\n      mload(0x40)\n      0x08c379a000000000000000000000000000000000000000000000000000000000\n      dup2\n      mstore\n      0x04\n      add\n      tag_208\n      swap1\n      tag_209\n      jump\t// in\n    tag_208:\n      mload(0x40)\n      dup1\n      swap2\n      sub\n      swap1\n      revert\n    tag_207:\n        /* \"contracts/ZombieGame.sol\":5379:5395  bytes(\"premium\") */\n      mload(0x40)\n      dup1\n      0x40\n      add\n      0x40\n      mstore\n      dup1\n      0x07\n      dup2\n      mstore\n      0x20\n      add\n      0x7072656d69756d00000000000000000000000000000000000000000000000000\n      dup2\n      mstore\n      pop\n        /* \"contracts/ZombieGame.sol\":5369:5396  keccak256(bytes(\"premium\")) */\n      dup1\n      mload\n      swap1\n      0x20\n      add\n      keccak256\n        /* \"contracts/ZombieGame.sol\":5359:5363  plan */\n      dup4\n        /* \"contracts/ZombieGame.sol\":5343:5365  keccak256(bytes(plan)) */\n      dup1\n      mload\n      swap1\n      0x20\n      add\n      keccak256\n        /* \"contracts/ZombieGame.sol\":5343:5396  keccak256(bytes(plan)) == keccak256(bytes(\"premium\")) */\n      eq\n        /* \"contracts/ZombieGame.sol\":5343:5453  keccak256(bytes(plan)) == keccak256(bytes(\"premium\")) || keccak256(bytes(plan)) == keccak256(bytes(\"Diamond\")) */\n      dup1\n      tag_210\n      jumpi\n      pop\n        /* \"contracts/ZombieGame.sol\":5436:5452  bytes(\"Diamond\") */\n      mload(0x40)\n      dup1\n      0x40\n      add\n      0x40\n      mstore\n      dup1\n      0x07\n      dup2\n      mstore\n      0x20\n      add\n      0x4469616d6f6e6400000000000000000000000000000000000000000000000000\n      dup2\n      mstore\n      pop\n        /* \"contracts/ZombieGame.sol\":5426:5453  keccak256(bytes(\"Diamond\")) */\n      dup1\n      mload\n      swap1\n      0x20\n      add\n      keccak256\n        /* \"contracts/ZombieGame.sol\":5416:5420  plan */\n      dup4\n        /* \"contracts/ZombieGame.sol\":5400:5422  keccak256(bytes(plan)) */\n      dup1\n      mload\n      swap1\n      0x20\n      add\n      keccak256\n        /* \"contracts/ZombieGame.sol\":5400:5453  keccak256(bytes(plan)) == keccak256(bytes(\"Diamond\")) */\n      eq\n        /* \"contracts/ZombieGame.sol\":5343:5453  keccak256(bytes(plan)) == keccak256(bytes(\"premium\")) || keccak256(bytes(plan)) == keccak256(bytes(\"Diamond\")) */\n    tag_210:\n        /* \"contracts/ZombieGame.sol\":5335:5473  require(keccak256(bytes(plan)) == keccak256(bytes(\"premium\")) || keccak256(bytes(plan)) == keccak256(bytes(\"Diamond\")),\"Correct Spelling\") */\n      tag_211\n      jumpi\n      mload(0x40)\n      0x08c379a000000000000000000000000000000000000000000000000000000000\n      dup2\n      mstore\n      0x04\n      add\n      tag_212\n      swap1\n      tag_213\n      jump\t// in\n    tag_212:\n      mload(0x40)\n      dup1\n      swap2\n      sub\n      swap1\n      revert\n    tag_211:\n        /* \"contracts/ZombieGame.sol\":5484:5492  uint Dna */\n      0x00\n        /* \"contracts/ZombieGame.sol\":5495:5513  DnaGenerator(name) */\n      tag_214\n        /* \"contracts/ZombieGame.sol\":5508:5512  name */\n      dup4\n        /* \"contracts/ZombieGame.sol\":5495:5507  DnaGenerator */\n      tag_187\n        /* \"contracts/ZombieGame.sol\":5495:5513  DnaGenerator(name) */\n      jump\t// in\n    tag_214:\n        /* \"contracts/ZombieGame.sol\":5484:5513  uint Dna = DnaGenerator(name) */\n      swap1\n      pop\n        /* \"contracts/ZombieGame.sol\":5524:5573  createZombie(plan, name, Dna, 5, 500, 0, 5, 0, 0) */\n      tag_215\n        /* \"contracts/ZombieGame.sol\":5537:5541  plan */\n      dup5\n        /* \"contracts/ZombieGame.sol\":5543:5547  name */\n      dup5\n        /* \"contracts/ZombieGame.sol\":5549:5552  Dna */\n      dup4\n        /* \"contracts/ZombieGame.sol\":5554:5555  5 */\n      0x05\n        /* \"contracts/ZombieGame.sol\":5557:5560  500 */\n      0x01f4\n        /* \"contracts/ZombieGame.sol\":5562:5563  0 */\n      0x00\n        /* \"contracts/ZombieGame.sol\":5565:5566  5 */\n      0x05\n        /* \"contracts/ZombieGame.sol\":5568:5569  0 */\n      0x00\n        /* \"contracts/ZombieGame.sol\":5571:5572  0 */\n      dup1\n        /* \"contracts/ZombieGame.sol\":5524:5536  createZombie */\n      tag_188\n        /* \"contracts/ZombieGame.sol\":5524:5573  createZombie(plan, name, Dna, 5, 500, 0, 5, 0, 0) */\n      jump\t// in\n    tag_215:\n        /* \"contracts/ZombieGame.sol\":5591:5595  true */\n      0x01\n        /* \"contracts/ZombieGame.sol\":5584:5595  return true */\n      swap2\n      pop\n      pop\n        /* \"contracts/ZombieGame.sol\":5170:5603  function BuyZombie(string memory plan, string memory name) public payable returns(bool) {... */\n      swap3\n      swap2\n      pop\n      pop\n      jump\t// out\n        /* \"contracts/ZombieGame.sol\":7798:7980  function convertXP(uint id) public OnlyOwner(id) {... */\n    tag_93:\n        /* \"contracts/ZombieGame.sol\":7843:7845  id */\n      dup1\n        /* \"contracts/ZombieGame.sol\":4728:4738  msg.sender */\n      caller\n        /* \"contracts/ZombieGame.sol\":4703:4738  ZombieOwner[zombieId] == msg.sender */\n      0xffffffffffffffffffffffffffffffffffffffff\n      and\n        /* \"contracts/ZombieGame.sol\":4703:4714  ZombieOwner */\n      0x00\n        /* \"contracts/ZombieGame.sol\":4703:4724  ZombieOwner[zombieId] */\n      dup1\n        /* \"contracts/ZombieGame.sol\":4715:4723  zombieId */\n      dup4\n        /* \"contracts/ZombieGame.sol\":4703:4724  ZombieOwner[zombieId] */\n      dup2\n      mstore\n      0x20\n      add\n      swap1\n      dup2\n      mstore\n      0x20\n      add\n      0x00\n      keccak256\n      0x00\n      swap1\n      sload\n      swap1\n      0x0100\n      exp\n      swap1\n      div\n      0xffffffffffffffffffffffffffffffffffffffff\n      and\n        /* \"contracts/ZombieGame.sol\":4703:4738  ZombieOwner[zombieId] == msg.sender */\n      0xffffffffffffffffffffffffffffffffffffffff\n      and\n      eq\n        /* \"contracts/ZombieGame.sol\":4695:4754  require(ZombieOwner[zombieId] == msg.sender, \"Only Owner.\") */\n      tag_217\n      jumpi\n      mload(0x40)\n      0x08c379a000000000000000000000000000000000000000000000000000000000\n      dup2\n      mstore\n      0x04\n      add\n      tag_218\n      swap1\n      tag_105\n      jump\t// in\n    tag_218:\n      mload(0x40)\n      dup1\n      swap2\n      sub\n      swap1\n      revert\n    tag_217:\n        /* \"contracts/ZombieGame.sol\":7883:7886  500 */\n      0x01f4\n        /* \"contracts/ZombieGame.sol\":7866:7873  zombies */\n      0x03\n        /* \"contracts/ZombieGame.sol\":7874:7876  id */\n      dup4\n        /* \"contracts/ZombieGame.sol\":7866:7877  zombies[id] */\n      dup2\n      sload\n      dup2\n      lt\n      tag_220\n      jumpi\n      tag_221\n      tag_127\n      jump\t// in\n    tag_221:\n    tag_220:\n      swap1\n      0x00\n      mstore\n      keccak256(0x00, 0x20)\n      swap1\n      0x09\n      mul\n      add\n        /* \"contracts/ZombieGame.sol\":7866:7880  zombies[id].xp */\n      0x04\n      add\n      sload\n        /* \"contracts/ZombieGame.sol\":7866:7886  zombies[id].xp >=500 */\n      lt\n      iszero\n        /* \"contracts/ZombieGame.sol\":7858:7907  require(zombies[id].xp >=500, \"you need more xp\") */\n      tag_223\n      jumpi\n      mload(0x40)\n      0x08c379a000000000000000000000000000000000000000000000000000000000\n      dup2\n      mstore\n      0x04\n      add\n      tag_224\n      swap1\n      tag_225\n      jump\t// in\n    tag_224:\n      mload(0x40)\n      dup1\n      swap2\n      sub\n      swap1\n      revert\n    tag_223:\n        /* \"contracts/ZombieGame.sol\":7936:7939  500 */\n      0x01f4\n        /* \"contracts/ZombieGame.sol\":7918:7925  zombies */\n      0x03\n        /* \"contracts/ZombieGame.sol\":7926:7928  id */\n      dup4\n        /* \"contracts/ZombieGame.sol\":7918:7929  zombies[id] */\n      dup2\n      sload\n      dup2\n      lt\n      tag_226\n      jumpi\n      tag_227\n      tag_127\n      jump\t// in\n    tag_227:\n    tag_226:\n      swap1\n      0x00\n      mstore\n      keccak256(0x00, 0x20)\n      swap1\n      0x09\n      mul\n      add\n        /* \"contracts/ZombieGame.sol\":7918:7932  zombies[id].xp */\n      0x04\n      add\n      0x00\n        /* \"contracts/ZombieGame.sol\":7918:7939  zombies[id].xp -= 500 */\n      dup3\n      dup3\n      sload\n      tag_229\n      swap2\n      swap1\n      tag_230\n      jump\t// in\n    tag_229:\n      swap3\n      pop\n      pop\n      dup2\n      swap1\n      sstore\n      pop\n        /* \"contracts/ZombieGame.sol\":7971:7972  1 */\n      0x01\n        /* \"contracts/ZombieGame.sol\":7950:7957  zombies */\n      0x03\n        /* \"contracts/ZombieGame.sol\":7958:7960  id */\n      dup4\n        /* \"contracts/ZombieGame.sol\":7950:7961  zombies[id] */\n      dup2\n      sload\n      dup2\n      lt\n      tag_231\n      jumpi\n      tag_232\n      tag_127\n      jump\t// in\n    tag_232:\n    tag_231:\n      swap1\n      0x00\n      mstore\n      keccak256(0x00, 0x20)\n      swap1\n      0x09\n      mul\n      add\n        /* \"contracts/ZombieGame.sol\":7950:7967  zombies[id].level */\n      0x03\n      add\n      0x00\n        /* \"contracts/ZombieGame.sol\":7950:7972  zombies[id].level += 1 */\n      dup3\n      dup3\n      sload\n      tag_234\n      swap2\n      swap1\n      tag_115\n      jump\t// in\n    tag_234:\n      swap3\n      pop\n      pop\n      dup2\n      swap1\n      sstore\n      pop\n        /* \"contracts/ZombieGame.sol\":7798:7980  function convertXP(uint id) public OnlyOwner(id) {... */\n      pop\n      pop\n      jump\t// out\n        /* \"contracts/ZombieGame.sol\":8373:8616  function RemoveRent(uint id) public OnlyOwner(id) {... */\n    tag_97:\n        /* \"contracts/ZombieGame.sol\":8419:8421  id */\n      dup1\n        /* \"contracts/ZombieGame.sol\":4728:4738  msg.sender */\n      caller\n        /* \"contracts/ZombieGame.sol\":4703:4738  ZombieOwner[zombieId] == msg.sender */\n      0xffffffffffffffffffffffffffffffffffffffff\n      and\n        /* \"contracts/ZombieGame.sol\":4703:4714  ZombieOwner */\n      0x00\n        /* \"contracts/ZombieGame.sol\":4703:4724  ZombieOwner[zombieId] */\n      dup1\n        /* \"contracts/ZombieGame.sol\":4715:4723  zombieId */\n      dup4\n        /* \"contracts/ZombieGame.sol\":4703:4724  ZombieOwner[zombieId] */\n      dup2\n      mstore\n      0x20\n      add\n      swap1\n      dup2\n      mstore\n      0x20\n      add\n      0x00\n      keccak256\n      0x00\n      swap1\n      sload\n      swap1\n      0x0100\n      exp\n      swap1\n      div\n      0xffffffffffffffffffffffffffffffffffffffff\n      and\n        /* \"contracts/ZombieGame.sol\":4703:4738  ZombieOwner[zombieId] == msg.sender */\n      0xffffffffffffffffffffffffffffffffffffffff\n      and\n      eq\n        /* \"contracts/ZombieGame.sol\":4695:4754  require(ZombieOwner[zombieId] == msg.sender, \"Only Owner.\") */\n      tag_236\n      jumpi\n      mload(0x40)\n      0x08c379a000000000000000000000000000000000000000000000000000000000\n      dup2\n      mstore\n      0x04\n      add\n      tag_237\n      swap1\n      tag_105\n      jump\t// in\n    tag_237:\n      mload(0x40)\n      dup1\n      swap2\n      sub\n      swap1\n      revert\n    tag_236:\n        /* \"contracts/ZombieGame.sol\":8456:8460  true */\n      0x01\n        /* \"contracts/ZombieGame.sol\":8442:8460  onRent[id] == true */\n      iszero\n      iszero\n        /* \"contracts/ZombieGame.sol\":8442:8448  onRent */\n      0x05\n        /* \"contracts/ZombieGame.sol\":8442:8452  onRent[id] */\n      0x00\n        /* \"contracts/ZombieGame.sol\":8449:8451  id */\n      dup5\n        /* \"contracts/ZombieGame.sol\":8442:8452  onRent[id] */\n      dup2\n      mstore\n      0x20\n      add\n      swap1\n      dup2\n      mstore\n      0x20\n      add\n      0x00\n      keccak256\n      0x00\n      swap1\n      sload\n      swap1\n      0x0100\n      exp\n      swap1\n      div\n      0xff\n      and\n        /* \"contracts/ZombieGame.sol\":8442:8460  onRent[id] == true */\n      iszero\n      iszero\n      eq\n        /* \"contracts/ZombieGame.sol\":8434:8461  require(onRent[id] == true) */\n      tag_239\n      jumpi\n      0x00\n      dup1\n      revert\n    tag_239:\n        /* \"contracts/ZombieGame.sol\":8499:8505  Timing */\n      0x08\n        /* \"contracts/ZombieGame.sol\":8499:8509  Timing[id] */\n      0x00\n        /* \"contracts/ZombieGame.sol\":8506:8508  id */\n      dup4\n        /* \"contracts/ZombieGame.sol\":8499:8509  Timing[id] */\n      dup2\n      mstore\n      0x20\n      add\n      swap1\n      dup2\n      mstore\n      0x20\n      add\n      0x00\n      keccak256\n      sload\n        /* \"contracts/ZombieGame.sol\":8480:8495  block.timestamp */\n      timestamp\n        /* \"contracts/ZombieGame.sol\":8480:8509  block.timestamp >= Timing[id] */\n      lt\n      iszero\n        /* \"contracts/ZombieGame.sol\":8472:8510  require(block.timestamp >= Timing[id]) */\n      tag_240\n      jumpi\n      0x00\n      dup1\n      revert\n    tag_240:\n        /* \"contracts/ZombieGame.sol\":8534:8539  false */\n      0x00\n        /* \"contracts/ZombieGame.sol\":8521:8527  onRent */\n      0x05\n        /* \"contracts/ZombieGame.sol\":8521:8531  onRent[id] */\n      0x00\n        /* \"contracts/ZombieGame.sol\":8528:8530  id */\n      dup5\n        /* \"contracts/ZombieGame.sol\":8521:8531  onRent[id] */\n      dup2\n      mstore\n      0x20\n      add\n      swap1\n      dup2\n      mstore\n      0x20\n      add\n      0x00\n      keccak256\n      0x00\n        /* \"contracts/ZombieGame.sol\":8521:8539  onRent[id] = false */\n      0x0100\n      exp\n      dup2\n      sload\n      dup2\n      0xff\n      mul\n      not\n      and\n      swap1\n      dup4\n      iszero\n      iszero\n      mul\n      or\n      swap1\n      sstore\n      pop\n        /* \"contracts/ZombieGame.sol\":8565:8570  false */\n      0x00\n        /* \"contracts/ZombieGame.sol\":8550:8558  TakenNft */\n      0x09\n        /* \"contracts/ZombieGame.sol\":8550:8562  TakenNft[id] */\n      0x00\n        /* \"contracts/ZombieGame.sol\":8559:8561  id */\n      dup5\n        /* \"contracts/ZombieGame.sol\":8550:8562  TakenNft[id] */\n      dup2\n      mstore\n      0x20\n      add\n      swap1\n      dup2\n      mstore\n      0x20\n      add\n      0x00\n      keccak256\n      0x00\n        /* \"contracts/ZombieGame.sol\":8550:8570  TakenNft[id] = false */\n      0x0100\n      exp\n      dup2\n      sload\n      dup2\n      0xff\n      mul\n      not\n      and\n      swap1\n      dup4\n      iszero\n      iszero\n      mul\n      or\n      swap1\n      sstore\n      pop\n        /* \"contracts/ZombieGame.sol\":8606:8607  0 */\n      0x00\n        /* \"contracts/ZombieGame.sol\":8581:8591  RentedbyID */\n      0x0b\n        /* \"contracts/ZombieGame.sol\":8581:8595  RentedbyID[id] */\n      0x00\n        /* \"contracts/ZombieGame.sol\":8592:8594  id */\n      dup5\n        /* \"contracts/ZombieGame.sol\":8581:8595  RentedbyID[id] */\n      dup2\n      mstore\n      0x20\n      add\n      swap1\n      dup2\n      mstore\n      0x20\n      add\n      0x00\n      keccak256\n      0x00\n        /* \"contracts/ZombieGame.sol\":8581:8608  RentedbyID[id] = address(0) */\n      0x0100\n      exp\n      dup2\n      sload\n      dup2\n      0xffffffffffffffffffffffffffffffffffffffff\n      mul\n      not\n      and\n      swap1\n      dup4\n      0xffffffffffffffffffffffffffffffffffffffff\n      and\n      mul\n      or\n      swap1\n      sstore\n      pop\n        /* \"contracts/ZombieGame.sol\":8373:8616  function RemoveRent(uint id) public OnlyOwner(id) {... */\n      pop\n      pop\n      jump\t// out\n        /* \"contracts/ZombieGame.sol\":5651:6148  function BuyOnRent(uint id) public payable returns(bool) {... */\n    tag_100:\n        /* \"contracts/ZombieGame.sol\":5702:5706  bool */\n      0x00\n        /* \"contracts/ZombieGame.sol\":5740:5750  rentAmount */\n      0x0c\n        /* \"contracts/ZombieGame.sol\":5740:5754  rentAmount[id] */\n      0x00\n        /* \"contracts/ZombieGame.sol\":5751:5753  id */\n      dup4\n        /* \"contracts/ZombieGame.sol\":5740:5754  rentAmount[id] */\n      dup2\n      mstore\n      0x20\n      add\n      swap1\n      dup2\n      mstore\n      0x20\n      add\n      0x00\n      keccak256\n      sload\n        /* \"contracts/ZombieGame.sol\":5727:5736  msg.value */\n      callvalue\n        /* \"contracts/ZombieGame.sol\":5727:5754  msg.value == rentAmount[id] */\n      eq\n        /* \"contracts/ZombieGame.sol\":5719:5791  require(msg.value == rentAmount[id], \"amount not match ether required.\") */\n      tag_242\n      jumpi\n      mload(0x40)\n      0x08c379a000000000000000000000000000000000000000000000000000000000\n      dup2\n      mstore\n      0x04\n      add\n      tag_243\n      swap1\n      tag_244\n      jump\t// in\n    tag_243:\n      mload(0x40)\n      dup1\n      swap2\n      sub\n      swap1\n      revert\n    tag_242:\n        /* \"contracts/ZombieGame.sol\":5811:5819  TakenNft */\n      0x09\n        /* \"contracts/ZombieGame.sol\":5811:5823  TakenNft[id] */\n      0x00\n        /* \"contracts/ZombieGame.sol\":5820:5822  id */\n      dup4\n        /* \"contracts/ZombieGame.sol\":5811:5823  TakenNft[id] */\n      dup2\n      mstore\n      0x20\n      add\n      swap1\n      dup2\n      mstore\n      0x20\n      add\n      0x00\n      keccak256\n      0x00\n      swap1\n      sload\n      swap1\n      0x0100\n      exp\n      swap1\n      div\n      0xff\n      and\n        /* \"contracts/ZombieGame.sol\":5810:5823  !TakenNft[id] */\n      iszero\n        /* \"contracts/ZombieGame.sol\":5810:5849  !TakenNft[id] && !buyOnRent[msg.sender] */\n      dup1\n      iszero\n      tag_245\n      jumpi\n      pop\n        /* \"contracts/ZombieGame.sol\":5828:5837  buyOnRent */\n      0x0a\n        /* \"contracts/ZombieGame.sol\":5828:5849  buyOnRent[msg.sender] */\n      0x00\n        /* \"contracts/ZombieGame.sol\":5838:5848  msg.sender */\n      caller\n        /* \"contracts/ZombieGame.sol\":5828:5849  buyOnRent[msg.sender] */\n      0xffffffffffffffffffffffffffffffffffffffff\n      and\n      0xffffffffffffffffffffffffffffffffffffffff\n      and\n      dup2\n      mstore\n      0x20\n      add\n      swap1\n      dup2\n      mstore\n      0x20\n      add\n      0x00\n      keccak256\n      0x00\n      swap1\n      sload\n      swap1\n      0x0100\n      exp\n      swap1\n      div\n      0xff\n      and\n        /* \"contracts/ZombieGame.sol\":5827:5849  !buyOnRent[msg.sender] */\n      iszero\n        /* \"contracts/ZombieGame.sol\":5810:5849  !TakenNft[id] && !buyOnRent[msg.sender] */\n    tag_245:\n        /* \"contracts/ZombieGame.sol\":5802:5872  require(!TakenNft[id] && !buyOnRent[msg.sender], \"already taken Nft.\") */\n      tag_246\n      jumpi\n      mload(0x40)\n      0x08c379a000000000000000000000000000000000000000000000000000000000\n      dup2\n      mstore\n      0x04\n      add\n      tag_247\n      swap1\n      tag_248\n      jump\t// in\n    tag_247:\n      mload(0x40)\n      dup1\n      swap2\n      sub\n      swap1\n      revert\n    tag_246:\n        /* \"contracts/ZombieGame.sol\":5910:5920  msg.sender */\n      caller\n        /* \"contracts/ZombieGame.sol\":5891:5920  ZombieOwner[id] != msg.sender */\n      0xffffffffffffffffffffffffffffffffffffffff\n      and\n        /* \"contracts/ZombieGame.sol\":5891:5902  ZombieOwner */\n      0x00\n        /* \"contracts/ZombieGame.sol\":5891:5906  ZombieOwner[id] */\n      dup1\n        /* \"contracts/ZombieGame.sol\":5903:5905  id */\n      dup5\n        /* \"contracts/ZombieGame.sol\":5891:5906  ZombieOwner[id] */\n      dup2\n      mstore\n      0x20\n      add\n      swap1\n      dup2\n      mstore\n      0x20\n      add\n      0x00\n      keccak256\n      0x00\n      swap1\n      sload\n      swap1\n      0x0100\n      exp\n      swap1\n      div\n      0xffffffffffffffffffffffffffffffffffffffff\n      and\n        /* \"contracts/ZombieGame.sol\":5891:5920  ZombieOwner[id] != msg.sender */\n      0xffffffffffffffffffffffffffffffffffffffff\n      and\n      sub\n        /* \"contracts/ZombieGame.sol\":5883:5952  require(ZombieOwner[id] != msg.sender, \"owner cant take his own id.\") */\n      tag_249\n      jumpi\n      mload(0x40)\n      0x08c379a000000000000000000000000000000000000000000000000000000000\n      dup2\n      mstore\n      0x04\n      add\n      tag_250\n      swap1\n      tag_251\n      jump\t// in\n    tag_250:\n      mload(0x40)\n      dup1\n      swap2\n      sub\n      swap1\n      revert\n    tag_249:\n        /* \"contracts/ZombieGame.sol\":5985:5989  true */\n      0x01\n        /* \"contracts/ZombieGame.sol\":5971:5989  onRent[id] == true */\n      iszero\n      iszero\n        /* \"contracts/ZombieGame.sol\":5971:5977  onRent */\n      0x05\n        /* \"contracts/ZombieGame.sol\":5971:5981  onRent[id] */\n      0x00\n        /* \"contracts/ZombieGame.sol\":5978:5980  id */\n      dup5\n        /* \"contracts/ZombieGame.sol\":5971:5981  onRent[id] */\n      dup2\n      mstore\n      0x20\n      add\n      swap1\n      dup2\n      mstore\n      0x20\n      add\n      0x00\n      keccak256\n      0x00\n      swap1\n      sload\n      swap1\n      0x0100\n      exp\n      swap1\n      div\n      0xff\n      and\n        /* \"contracts/ZombieGame.sol\":5971:5989  onRent[id] == true */\n      iszero\n      iszero\n      eq\n        /* \"contracts/ZombieGame.sol\":5963:6009  require(onRent[id] == true, \"nft not listed.\") */\n      tag_252\n      jumpi\n      mload(0x40)\n      0x08c379a000000000000000000000000000000000000000000000000000000000\n      dup2\n      mstore\n      0x04\n      add\n      tag_253\n      swap1\n      tag_254\n      jump\t// in\n    tag_253:\n      mload(0x40)\n      dup1\n      swap2\n      sub\n      swap1\n      revert\n    tag_252:\n        /* \"contracts/ZombieGame.sol\":6039:6049  msg.sender */\n      caller\n        /* \"contracts/ZombieGame.sol\":6022:6032  RentedbyID */\n      0x0b\n        /* \"contracts/ZombieGame.sol\":6022:6036  RentedbyID[id] */\n      0x00\n        /* \"contracts/ZombieGame.sol\":6033:6035  id */\n      dup5\n        /* \"contracts/ZombieGame.sol\":6022:6036  RentedbyID[id] */\n      dup2\n      mstore\n      0x20\n      add\n      swap1\n      dup2\n      mstore\n      0x20\n      add\n      0x00\n      keccak256\n      0x00\n        /* \"contracts/ZombieGame.sol\":6022:6049  RentedbyID[id] = msg.sender */\n      0x0100\n      exp\n      dup2\n      sload\n      dup2\n      0xffffffffffffffffffffffffffffffffffffffff\n      mul\n      not\n      and\n      swap1\n      dup4\n      0xffffffffffffffffffffffffffffffffffffffff\n      and\n      mul\n      or\n      swap1\n      sstore\n      pop\n        /* \"contracts/ZombieGame.sol\":6084:6088  true */\n      0x01\n        /* \"contracts/ZombieGame.sol\":6060:6069  buyOnRent */\n      0x0a\n        /* \"contracts/ZombieGame.sol\":6060:6081  buyOnRent[msg.sender] */\n      0x00\n        /* \"contracts/ZombieGame.sol\":6070:6080  msg.sender */\n      caller\n        /* \"contracts/ZombieGame.sol\":6060:6081  buyOnRent[msg.sender] */\n      0xffffffffffffffffffffffffffffffffffffffff\n      and\n      0xffffffffffffffffffffffffffffffffffffffff\n      and\n      dup2\n      mstore\n      0x20\n      add\n      swap1\n      dup2\n      mstore\n      0x20\n      add\n      0x00\n      keccak256\n      0x00\n        /* \"contracts/ZombieGame.sol\":6060:6088  buyOnRent[msg.sender] = true */\n      0x0100\n      exp\n      dup2\n      sload\n      dup2\n      0xff\n      mul\n      not\n      and\n      swap1\n      dup4\n      iszero\n      iszero\n      mul\n      or\n      swap1\n      sstore\n      pop\n        /* \"contracts/ZombieGame.sol\":6114:6118  true */\n      0x01\n        /* \"contracts/ZombieGame.sol\":6099:6107  TakenNft */\n      0x09\n        /* \"contracts/ZombieGame.sol\":6099:6111  TakenNft[id] */\n      0x00\n        /* \"contracts/ZombieGame.sol\":6108:6110  id */\n      dup5\n        /* \"contracts/ZombieGame.sol\":6099:6111  TakenNft[id] */\n      dup2\n      mstore\n      0x20\n      add\n      swap1\n      dup2\n      mstore\n      0x20\n      add\n      0x00\n      keccak256\n      0x00\n        /* \"contracts/ZombieGame.sol\":6099:6118  TakenNft[id] = true */\n      0x0100\n      exp\n      dup2\n      sload\n      dup2\n      0xff\n      mul\n      not\n      and\n      swap1\n      dup4\n      iszero\n      iszero\n      mul\n      or\n      swap1\n      sstore\n      pop\n        /* \"contracts/ZombieGame.sol\":6136:6140  true */\n      0x01\n        /* \"contracts/ZombieGame.sol\":6129:6140  return true */\n      swap1\n      pop\n        /* \"contracts/ZombieGame.sol\":5651:6148  function BuyOnRent(uint id) public payable returns(bool) {... */\n      swap2\n      swap1\n      pop\n      jump\t// out\n        /* \"contracts/ZombieGame.sol\":1868:3692  function ZombieVsZombie(uint yourZombie) internal returns(string memory){... */\n    tag_141:\n        /* \"contracts/ZombieGame.sol\":1926:1939  string memory */\n      0x60\n        /* \"contracts/ZombieGame.sol\":1951:1967  uint enemyZombie */\n      0x00\n        /* \"contracts/ZombieGame.sol\":1970:1983  randomEnemy() */\n      tag_256\n        /* \"contracts/ZombieGame.sol\":1970:1981  randomEnemy */\n      tag_257\n        /* \"contracts/ZombieGame.sol\":1970:1983  randomEnemy() */\n      jump\t// in\n    tag_256:\n        /* \"contracts/ZombieGame.sol\":1951:1983  uint enemyZombie = randomEnemy() */\n      swap1\n      pop\n        /* \"contracts/ZombieGame.sol\":2035:2036  1 */\n      0x01\n        /* \"contracts/ZombieGame.sol\":2002:2009  zombies */\n      0x03\n        /* \"contracts/ZombieGame.sol\":2010:2020  yourZombie */\n      dup5\n        /* \"contracts/ZombieGame.sol\":2002:2021  zombies[yourZombie] */\n      dup2\n      sload\n      dup2\n      lt\n      tag_258\n      jumpi\n      tag_259\n      tag_127\n      jump\t// in\n    tag_259:\n    tag_258:\n      swap1\n      0x00\n      mstore\n      keccak256(0x00, 0x20)\n      swap1\n      0x09\n      mul\n      add\n        /* \"contracts/ZombieGame.sol\":2002:2031  zombies[yourZombie].MatchLeft */\n      0x06\n      add\n      sload\n        /* \"contracts/ZombieGame.sol\":2002:2036  zombies[yourZombie].MatchLeft >= 1 */\n      lt\n      iszero\n        /* \"contracts/ZombieGame.sol\":1994:2062  require(zombies[yourZombie].MatchLeft >= 1 , \"Come after 24 hours.\") */\n      tag_261\n      jumpi\n      mload(0x40)\n      0x08c379a000000000000000000000000000000000000000000000000000000000\n      dup2\n      mstore\n      0x04\n      add\n      tag_262\n      swap1\n      tag_263\n      jump\t// in\n    tag_262:\n      mload(0x40)\n      dup1\n      swap2\n      sub\n      swap1\n      revert\n    tag_261:\n        /* \"contracts/ZombieGame.sol\":2115:2116  1 */\n      0x01\n        /* \"contracts/ZombieGame.sol\":2081:2088  zombies */\n      0x03\n        /* \"contracts/ZombieGame.sol\":2089:2100  enemyZombie */\n      dup3\n        /* \"contracts/ZombieGame.sol\":2081:2101  zombies[enemyZombie] */\n      dup2\n      sload\n      dup2\n      lt\n      tag_264\n      jumpi\n      tag_265\n      tag_127\n      jump\t// in\n    tag_265:\n    tag_264:\n      swap1\n      0x00\n      mstore\n      keccak256(0x00, 0x20)\n      swap1\n      0x09\n      mul\n      add\n        /* \"contracts/ZombieGame.sol\":2081:2111  zombies[enemyZombie].MatchLeft */\n      0x06\n      add\n      sload\n        /* \"contracts/ZombieGame.sol\":2081:2116  zombies[enemyZombie].MatchLeft >= 1 */\n      lt\n      iszero\n        /* \"contracts/ZombieGame.sol\":2073:2130  require(zombies[enemyZombie].MatchLeft >= 1, \"Again Try\") */\n      tag_267\n      jumpi\n      mload(0x40)\n      0x08c379a000000000000000000000000000000000000000000000000000000000\n      dup2\n      mstore\n      0x04\n      add\n      tag_268\n      swap1\n      tag_269\n      jump\t// in\n    tag_268:\n      mload(0x40)\n      dup1\n      swap2\n      sub\n      swap1\n      revert\n    tag_267:\n        /* \"contracts/ZombieGame.sol\":2251:2258  zombies */\n      0x03\n        /* \"contracts/ZombieGame.sol\":2259:2270  enemyZombie */\n      dup2\n        /* \"contracts/ZombieGame.sol\":2251:2271  zombies[enemyZombie] */\n      dup2\n      sload\n      dup2\n      lt\n      tag_270\n      jumpi\n      tag_271\n      tag_127\n      jump\t// in\n    tag_271:\n    tag_270:\n      swap1\n      0x00\n      mstore\n      keccak256(0x00, 0x20)\n      swap1\n      0x09\n      mul\n      add\n        /* \"contracts/ZombieGame.sol\":2251:2277  zombies[enemyZombie].level */\n      0x03\n      add\n      sload\n        /* \"contracts/ZombieGame.sol\":2223:2230  zombies */\n      0x03\n        /* \"contracts/ZombieGame.sol\":2231:2241  yourZombie */\n      dup5\n        /* \"contracts/ZombieGame.sol\":2223:2242  zombies[yourZombie] */\n      dup2\n      sload\n      dup2\n      lt\n      tag_273\n      jumpi\n      tag_274\n      tag_127\n      jump\t// in\n    tag_274:\n    tag_273:\n      swap1\n      0x00\n      mstore\n      keccak256(0x00, 0x20)\n      swap1\n      0x09\n      mul\n      add\n        /* \"contracts/ZombieGame.sol\":2223:2248  zombies[yourZombie].level */\n      0x03\n      add\n      sload\n        /* \"contracts/ZombieGame.sol\":2223:2277  zombies[yourZombie].level > zombies[enemyZombie].level */\n      gt\n        /* \"contracts/ZombieGame.sol\":2219:3685  if (zombies[yourZombie].level > zombies[enemyZombie].level) {... */\n      iszero\n      tag_276\n      jumpi\n        /* \"contracts/ZombieGame.sol\":2294:2301  zombies */\n      0x03\n        /* \"contracts/ZombieGame.sol\":2302:2312  yourZombie */\n      dup4\n        /* \"contracts/ZombieGame.sol\":2294:2313  zombies[yourZombie] */\n      dup2\n      sload\n      dup2\n      lt\n      tag_277\n      jumpi\n      tag_278\n      tag_127\n      jump\t// in\n    tag_278:\n    tag_277:\n      swap1\n      0x00\n      mstore\n      keccak256(0x00, 0x20)\n      swap1\n      0x09\n      mul\n      add\n        /* \"contracts/ZombieGame.sol\":2294:2319  zombies[yourZombie].level */\n      0x03\n      add\n      0x00\n        /* \"contracts/ZombieGame.sol\":2294:2321  zombies[yourZombie].level++ */\n      dup2\n      sload\n      dup1\n      swap3\n      swap2\n      swap1\n      tag_280\n      swap1\n      tag_129\n      jump\t// in\n    tag_280:\n      swap2\n      swap1\n      pop\n      sstore\n      pop\n        /* \"contracts/ZombieGame.sol\":2337:2344  zombies */\n      0x03\n        /* \"contracts/ZombieGame.sol\":2345:2355  yourZombie */\n      dup4\n        /* \"contracts/ZombieGame.sol\":2337:2356  zombies[yourZombie] */\n      dup2\n      sload\n      dup2\n      lt\n      tag_281\n      jumpi\n      tag_282\n      tag_127\n      jump\t// in\n    tag_282:\n    tag_281:\n      swap1\n      0x00\n      mstore\n      keccak256(0x00, 0x20)\n      swap1\n      0x09\n      mul\n      add\n        /* \"contracts/ZombieGame.sol\":2337:2367  zombies[yourZombie].TotalMatch */\n      0x05\n      add\n      0x00\n        /* \"contracts/ZombieGame.sol\":2337:2369  zombies[yourZombie].TotalMatch++ */\n      dup2\n      sload\n      dup1\n      swap3\n      swap2\n      swap1\n      tag_284\n      swap1\n      tag_129\n      jump\t// in\n    tag_284:\n      swap2\n      swap1\n      pop\n      sstore\n      pop\n        /* \"contracts/ZombieGame.sol\":2384:2391  zombies */\n      0x03\n        /* \"contracts/ZombieGame.sol\":2392:2402  yourZombie */\n      dup4\n        /* \"contracts/ZombieGame.sol\":2384:2403  zombies[yourZombie] */\n      dup2\n      sload\n      dup2\n      lt\n      tag_285\n      jumpi\n      tag_286\n      tag_127\n      jump\t// in\n    tag_286:\n    tag_285:\n      swap1\n      0x00\n      mstore\n      keccak256(0x00, 0x20)\n      swap1\n      0x09\n      mul\n      add\n        /* \"contracts/ZombieGame.sol\":2384:2413  zombies[yourZombie].MatchLeft */\n      0x06\n      add\n      0x00\n        /* \"contracts/ZombieGame.sol\":2384:2415  zombies[yourZombie].MatchLeft-- */\n      dup2\n      sload\n      dup1\n      swap3\n      swap2\n      swap1\n      tag_288\n      swap1\n      tag_179\n      jump\t// in\n    tag_288:\n      swap2\n      swap1\n      pop\n      sstore\n      pop\n        /* \"contracts/ZombieGame.sol\":2430:2437  zombies */\n      0x03\n        /* \"contracts/ZombieGame.sol\":2438:2448  yourZombie */\n      dup4\n        /* \"contracts/ZombieGame.sol\":2430:2449  zombies[yourZombie] */\n      dup2\n      sload\n      dup2\n      lt\n      tag_289\n      jumpi\n      tag_290\n      tag_127\n      jump\t// in\n    tag_290:\n    tag_289:\n      swap1\n      0x00\n      mstore\n      keccak256(0x00, 0x20)\n      swap1\n      0x09\n      mul\n      add\n        /* \"contracts/ZombieGame.sol\":2430:2454  zombies[yourZombie].Wins */\n      0x07\n      add\n      0x00\n        /* \"contracts/ZombieGame.sol\":2430:2456  zombies[yourZombie].Wins++ */\n      dup2\n      sload\n      dup1\n      swap3\n      swap2\n      swap1\n      tag_292\n      swap1\n      tag_129\n      jump\t// in\n    tag_292:\n      swap2\n      swap1\n      pop\n      sstore\n      pop\n        /* \"contracts/ZombieGame.sol\":2497:2500  100 */\n      0x64\n        /* \"contracts/ZombieGame.sol\":2471:2478  zombies */\n      0x03\n        /* \"contracts/ZombieGame.sol\":2479:2489  yourZombie */\n      dup5\n        /* \"contracts/ZombieGame.sol\":2471:2490  zombies[yourZombie] */\n      dup2\n      sload\n      dup2\n      lt\n      tag_293\n      jumpi\n      tag_294\n      tag_127\n      jump\t// in\n    tag_294:\n    tag_293:\n      swap1\n      0x00\n      mstore\n      keccak256(0x00, 0x20)\n      swap1\n      0x09\n      mul\n      add\n        /* \"contracts/ZombieGame.sol\":2471:2493  zombies[yourZombie].xp */\n      0x04\n      add\n      0x00\n        /* \"contracts/ZombieGame.sol\":2471:2500  zombies[yourZombie].xp += 100 */\n      dup3\n      dup3\n      sload\n      tag_296\n      swap2\n      swap1\n      tag_115\n      jump\t// in\n    tag_296:\n      swap3\n      pop\n      pop\n      dup2\n      swap1\n      sstore\n      pop\n        /* \"contracts/ZombieGame.sol\":2515:2522  zombies */\n      0x03\n        /* \"contracts/ZombieGame.sol\":2523:2534  enemyZombie */\n      dup2\n        /* \"contracts/ZombieGame.sol\":2515:2535  zombies[enemyZombie] */\n      dup2\n      sload\n      dup2\n      lt\n      tag_297\n      jumpi\n      tag_298\n      tag_127\n      jump\t// in\n    tag_298:\n    tag_297:\n      swap1\n      0x00\n      mstore\n      keccak256(0x00, 0x20)\n      swap1\n      0x09\n      mul\n      add\n        /* \"contracts/ZombieGame.sol\":2515:2541  zombies[enemyZombie].level */\n      0x03\n      add\n      0x00\n        /* \"contracts/ZombieGame.sol\":2515:2543  zombies[enemyZombie].level-- */\n      dup2\n      sload\n      dup1\n      swap3\n      swap2\n      swap1\n      tag_300\n      swap1\n      tag_179\n      jump\t// in\n    tag_300:\n      swap2\n      swap1\n      pop\n      sstore\n      pop\n        /* \"contracts/ZombieGame.sol\":2558:2565  zombies */\n      0x03\n        /* \"contracts/ZombieGame.sol\":2566:2577  enemyZombie */\n      dup2\n        /* \"contracts/ZombieGame.sol\":2558:2578  zombies[enemyZombie] */\n      dup2\n      sload\n      dup2\n      lt\n      tag_301\n      jumpi\n      tag_302\n      tag_127\n      jump\t// in\n    tag_302:\n    tag_301:\n      swap1\n      0x00\n      mstore\n      keccak256(0x00, 0x20)\n      swap1\n      0x09\n      mul\n      add\n        /* \"contracts/ZombieGame.sol\":2558:2589  zombies[enemyZombie].TotalMatch */\n      0x05\n      add\n      0x00\n        /* \"contracts/ZombieGame.sol\":2558:2591  zombies[enemyZombie].TotalMatch++ */\n      dup2\n      sload\n      dup1\n      swap3\n      swap2\n      swap1\n      tag_304\n      swap1\n      tag_129\n      jump\t// in\n    tag_304:\n      swap2\n      swap1\n      pop\n      sstore\n      pop\n        /* \"contracts/ZombieGame.sol\":2606:2613  zombies */\n      0x03\n        /* \"contracts/ZombieGame.sol\":2614:2625  enemyZombie */\n      dup2\n        /* \"contracts/ZombieGame.sol\":2606:2626  zombies[enemyZombie] */\n      dup2\n      sload\n      dup2\n      lt\n      tag_305\n      jumpi\n      tag_306\n      tag_127\n      jump\t// in\n    tag_306:\n    tag_305:\n      swap1\n      0x00\n      mstore\n      keccak256(0x00, 0x20)\n      swap1\n      0x09\n      mul\n      add\n        /* \"contracts/ZombieGame.sol\":2606:2636  zombies[enemyZombie].MatchLeft */\n      0x06\n      add\n      0x00\n        /* \"contracts/ZombieGame.sol\":2606:2638  zombies[enemyZombie].MatchLeft-- */\n      dup2\n      sload\n      dup1\n      swap3\n      swap2\n      swap1\n      tag_308\n      swap1\n      tag_179\n      jump\t// in\n    tag_308:\n      swap2\n      swap1\n      pop\n      sstore\n      pop\n        /* \"contracts/ZombieGame.sol\":2653:2660  zombies */\n      0x03\n        /* \"contracts/ZombieGame.sol\":2661:2672  enemyZombie */\n      dup2\n        /* \"contracts/ZombieGame.sol\":2653:2673  zombies[enemyZombie] */\n      dup2\n      sload\n      dup2\n      lt\n      tag_309\n      jumpi\n      tag_310\n      tag_127\n      jump\t// in\n    tag_310:\n    tag_309:\n      swap1\n      0x00\n      mstore\n      keccak256(0x00, 0x20)\n      swap1\n      0x09\n      mul\n      add\n        /* \"contracts/ZombieGame.sol\":2653:2680  zombies[enemyZombie].Looses */\n      0x08\n      add\n      0x00\n        /* \"contracts/ZombieGame.sol\":2653:2682  zombies[enemyZombie].Looses++ */\n      dup2\n      sload\n      dup1\n      swap3\n      swap2\n      swap1\n      tag_312\n      swap1\n      tag_129\n      jump\t// in\n    tag_312:\n      swap2\n      swap1\n      pop\n      sstore\n      pop\n        /* \"contracts/ZombieGame.sol\":2695:2718  return \"Congrats Wins.\" */\n      mload(0x40)\n      dup1\n      0x40\n      add\n      0x40\n      mstore\n      dup1\n      0x0e\n      dup2\n      mstore\n      0x20\n      add\n      0x436f6e67726174732057696e732e000000000000000000000000000000000000\n      dup2\n      mstore\n      pop\n      swap2\n      pop\n      pop\n      jump(tag_255)\n        /* \"contracts/ZombieGame.sol\":2219:3685  if (zombies[yourZombie].level > zombies[enemyZombie].level) {... */\n    tag_276:\n        /* \"contracts/ZombieGame.sol\":2849:2856  zombies */\n      0x03\n        /* \"contracts/ZombieGame.sol\":2857:2867  yourZombie */\n      dup4\n        /* \"contracts/ZombieGame.sol\":2849:2868  zombies[yourZombie] */\n      dup2\n      sload\n      dup2\n      lt\n      tag_314\n      jumpi\n      tag_315\n      tag_127\n      jump\t// in\n    tag_315:\n    tag_314:\n      swap1\n      0x00\n      mstore\n      keccak256(0x00, 0x20)\n      swap1\n      0x09\n      mul\n      add\n        /* \"contracts/ZombieGame.sol\":2849:2874  zombies[yourZombie].level */\n      0x03\n      add\n      sload\n        /* \"contracts/ZombieGame.sol\":2820:2827  zombies */\n      0x03\n        /* \"contracts/ZombieGame.sol\":2828:2839  enemyZombie */\n      dup3\n        /* \"contracts/ZombieGame.sol\":2820:2840  zombies[enemyZombie] */\n      dup2\n      sload\n      dup2\n      lt\n      tag_317\n      jumpi\n      tag_318\n      tag_127\n      jump\t// in\n    tag_318:\n    tag_317:\n      swap1\n      0x00\n      mstore\n      keccak256(0x00, 0x20)\n      swap1\n      0x09\n      mul\n      add\n        /* \"contracts/ZombieGame.sol\":2820:2846  zombies[enemyZombie].level */\n      0x03\n      add\n      sload\n        /* \"contracts/ZombieGame.sol\":2820:2874  zombies[enemyZombie].level > zombies[yourZombie].level */\n      gt\n        /* \"contracts/ZombieGame.sol\":2816:3685  if (zombies[enemyZombie].level > zombies[yourZombie].level) {... */\n      iszero\n      tag_320\n      jumpi\n        /* \"contracts/ZombieGame.sol\":2891:2898  zombies */\n      0x03\n        /* \"contracts/ZombieGame.sol\":2899:2910  enemyZombie */\n      dup2\n        /* \"contracts/ZombieGame.sol\":2891:2911  zombies[enemyZombie] */\n      dup2\n      sload\n      dup2\n      lt\n      tag_321\n      jumpi\n      tag_322\n      tag_127\n      jump\t// in\n    tag_322:\n    tag_321:\n      swap1\n      0x00\n      mstore\n      keccak256(0x00, 0x20)\n      swap1\n      0x09\n      mul\n      add\n        /* \"contracts/ZombieGame.sol\":2891:2917  zombies[enemyZombie].level */\n      0x03\n      add\n      0x00\n        /* \"contracts/ZombieGame.sol\":2891:2919  zombies[enemyZombie].level++ */\n      dup2\n      sload\n      dup1\n      swap3\n      swap2\n      swap1\n      tag_324\n      swap1\n      tag_129\n      jump\t// in\n    tag_324:\n      swap2\n      swap1\n      pop\n      sstore\n      pop\n        /* \"contracts/ZombieGame.sol\":2935:2942  zombies */\n      0x03\n        /* \"contracts/ZombieGame.sol\":2943:2954  enemyZombie */\n      dup2\n        /* \"contracts/ZombieGame.sol\":2935:2955  zombies[enemyZombie] */\n      dup2\n      sload\n      dup2\n      lt\n      tag_325\n      jumpi\n      tag_326\n      tag_127\n      jump\t// in\n    tag_326:\n    tag_325:\n      swap1\n      0x00\n      mstore\n      keccak256(0x00, 0x20)\n      swap1\n      0x09\n      mul\n      add\n        /* \"contracts/ZombieGame.sol\":2935:2966  zombies[enemyZombie].TotalMatch */\n      0x05\n      add\n      0x00\n        /* \"contracts/ZombieGame.sol\":2935:2968  zombies[enemyZombie].TotalMatch++ */\n      dup2\n      sload\n      dup1\n      swap3\n      swap2\n      swap1\n      tag_328\n      swap1\n      tag_129\n      jump\t// in\n    tag_328:\n      swap2\n      swap1\n      pop\n      sstore\n      pop\n        /* \"contracts/ZombieGame.sol\":2983:2990  zombies */\n      0x03\n        /* \"contracts/ZombieGame.sol\":2991:3002  enemyZombie */\n      dup2\n        /* \"contracts/ZombieGame.sol\":2983:3003  zombies[enemyZombie] */\n      dup2\n      sload\n      dup2\n      lt\n      tag_329\n      jumpi\n      tag_330\n      tag_127\n      jump\t// in\n    tag_330:\n    tag_329:\n      swap1\n      0x00\n      mstore\n      keccak256(0x00, 0x20)\n      swap1\n      0x09\n      mul\n      add\n        /* \"contracts/ZombieGame.sol\":2983:3013  zombies[enemyZombie].MatchLeft */\n      0x06\n      add\n      0x00\n        /* \"contracts/ZombieGame.sol\":2983:3015  zombies[enemyZombie].MatchLeft-- */\n      dup2\n      sload\n      dup1\n      swap3\n      swap2\n      swap1\n      tag_332\n      swap1\n      tag_179\n      jump\t// in\n    tag_332:\n      swap2\n      swap1\n      pop\n      sstore\n      pop\n        /* \"contracts/ZombieGame.sol\":3030:3037  zombies */\n      0x03\n        /* \"contracts/ZombieGame.sol\":3038:3049  enemyZombie */\n      dup2\n        /* \"contracts/ZombieGame.sol\":3030:3050  zombies[enemyZombie] */\n      dup2\n      sload\n      dup2\n      lt\n      tag_333\n      jumpi\n      tag_334\n      tag_127\n      jump\t// in\n    tag_334:\n    tag_333:\n      swap1\n      0x00\n      mstore\n      keccak256(0x00, 0x20)\n      swap1\n      0x09\n      mul\n      add\n        /* \"contracts/ZombieGame.sol\":3030:3055  zombies[enemyZombie].Wins */\n      0x07\n      add\n      0x00\n        /* \"contracts/ZombieGame.sol\":3030:3057  zombies[enemyZombie].Wins++ */\n      dup2\n      sload\n      dup1\n      swap3\n      swap2\n      swap1\n      tag_336\n      swap1\n      tag_129\n      jump\t// in\n    tag_336:\n      swap2\n      swap1\n      pop\n      sstore\n      pop\n        /* \"contracts/ZombieGame.sol\":3099:3102  100 */\n      0x64\n        /* \"contracts/ZombieGame.sol\":3072:3079  zombies */\n      0x03\n        /* \"contracts/ZombieGame.sol\":3080:3091  enemyZombie */\n      dup3\n        /* \"contracts/ZombieGame.sol\":3072:3092  zombies[enemyZombie] */\n      dup2\n      sload\n      dup2\n      lt\n      tag_337\n      jumpi\n      tag_338\n      tag_127\n      jump\t// in\n    tag_338:\n    tag_337:\n      swap1\n      0x00\n      mstore\n      keccak256(0x00, 0x20)\n      swap1\n      0x09\n      mul\n      add\n        /* \"contracts/ZombieGame.sol\":3072:3095  zombies[enemyZombie].xp */\n      0x04\n      add\n      0x00\n        /* \"contracts/ZombieGame.sol\":3072:3102  zombies[enemyZombie].xp += 100 */\n      dup3\n      dup3\n      sload\n      tag_340\n      swap2\n      swap1\n      tag_115\n      jump\t// in\n    tag_340:\n      swap3\n      pop\n      pop\n      dup2\n      swap1\n      sstore\n      pop\n        /* \"contracts/ZombieGame.sol\":3117:3124  zombies */\n      0x03\n        /* \"contracts/ZombieGame.sol\":3125:3135  yourZombie */\n      dup4\n        /* \"contracts/ZombieGame.sol\":3117:3136  zombies[yourZombie] */\n      dup2\n      sload\n      dup2\n      lt\n      tag_341\n      jumpi\n      tag_342\n      tag_127\n      jump\t// in\n    tag_342:\n    tag_341:\n      swap1\n      0x00\n      mstore\n      keccak256(0x00, 0x20)\n      swap1\n      0x09\n      mul\n      add\n        /* \"contracts/ZombieGame.sol\":3117:3142  zombies[yourZombie].level */\n      0x03\n      add\n      0x00\n        /* \"contracts/ZombieGame.sol\":3117:3144  zombies[yourZombie].level-- */\n      dup2\n      sload\n      dup1\n      swap3\n      swap2\n      swap1\n      tag_344\n      swap1\n      tag_179\n      jump\t// in\n    tag_344:\n      swap2\n      swap1\n      pop\n      sstore\n      pop\n        /* \"contracts/ZombieGame.sol\":3159:3166  zombies */\n      0x03\n        /* \"contracts/ZombieGame.sol\":3167:3177  yourZombie */\n      dup4\n        /* \"contracts/ZombieGame.sol\":3159:3178  zombies[yourZombie] */\n      dup2\n      sload\n      dup2\n      lt\n      tag_345\n      jumpi\n      tag_346\n      tag_127\n      jump\t// in\n    tag_346:\n    tag_345:\n      swap1\n      0x00\n      mstore\n      keccak256(0x00, 0x20)\n      swap1\n      0x09\n      mul\n      add\n        /* \"contracts/ZombieGame.sol\":3159:3189  zombies[yourZombie].TotalMatch */\n      0x05\n      add\n      0x00\n        /* \"contracts/ZombieGame.sol\":3159:3191  zombies[yourZombie].TotalMatch++ */\n      dup2\n      sload\n      dup1\n      swap3\n      swap2\n      swap1\n      tag_348\n      swap1\n      tag_129\n      jump\t// in\n    tag_348:\n      swap2\n      swap1\n      pop\n      sstore\n      pop\n        /* \"contracts/ZombieGame.sol\":3206:3213  zombies */\n      0x03\n        /* \"contracts/ZombieGame.sol\":3214:3224  yourZombie */\n      dup4\n        /* \"contracts/ZombieGame.sol\":3206:3225  zombies[yourZombie] */\n      dup2\n      sload\n      dup2\n      lt\n      tag_349\n      jumpi\n      tag_350\n      tag_127\n      jump\t// in\n    tag_350:\n    tag_349:\n      swap1\n      0x00\n      mstore\n      keccak256(0x00, 0x20)\n      swap1\n      0x09\n      mul\n      add\n        /* \"contracts/ZombieGame.sol\":3206:3235  zombies[yourZombie].MatchLeft */\n      0x06\n      add\n      0x00\n        /* \"contracts/ZombieGame.sol\":3206:3237  zombies[yourZombie].MatchLeft-- */\n      dup2\n      sload\n      dup1\n      swap3\n      swap2\n      swap1\n      tag_352\n      swap1\n      tag_179\n      jump\t// in\n    tag_352:\n      swap2\n      swap1\n      pop\n      sstore\n      pop\n        /* \"contracts/ZombieGame.sol\":3252:3259  zombies */\n      0x03\n        /* \"contracts/ZombieGame.sol\":3260:3270  yourZombie */\n      dup4\n        /* \"contracts/ZombieGame.sol\":3252:3271  zombies[yourZombie] */\n      dup2\n      sload\n      dup2\n      lt\n      tag_353\n      jumpi\n      tag_354\n      tag_127\n      jump\t// in\n    tag_354:\n    tag_353:\n      swap1\n      0x00\n      mstore\n      keccak256(0x00, 0x20)\n      swap1\n      0x09\n      mul\n      add\n        /* \"contracts/ZombieGame.sol\":3252:3278  zombies[yourZombie].Looses */\n      0x08\n      add\n      0x00\n        /* \"contracts/ZombieGame.sol\":3252:3280  zombies[yourZombie].Looses++ */\n      dup2\n      sload\n      dup1\n      swap3\n      swap2\n      swap1\n      tag_356\n      swap1\n      tag_129\n      jump\t// in\n    tag_356:\n      swap2\n      swap1\n      pop\n      sstore\n      pop\n        /* \"contracts/ZombieGame.sol\":3293:3351  return \"Win And Loose is the part of the Game.Try Again!.\" */\n      mload(0x40)\n      dup1\n      0x60\n      add\n      0x40\n      mstore\n      dup1\n      0x31\n      dup2\n      mstore\n      0x20\n      add\n      data_e0168f3fae51cf798b1321eebdaae7bc178ca214b91f59783066943e69095f12\n      0x31\n      swap2\n      codecopy\n      swap2\n      pop\n      pop\n      jump(tag_255)\n        /* \"contracts/ZombieGame.sol\":2816:3685  if (zombies[enemyZombie].level > zombies[yourZombie].level) {... */\n    tag_320:\n        /* \"contracts/ZombieGame.sol\":3458:3465  zombies */\n      0x03\n        /* \"contracts/ZombieGame.sol\":3466:3477  enemyZombie */\n      dup2\n        /* \"contracts/ZombieGame.sol\":3458:3478  zombies[enemyZombie] */\n      dup2\n      sload\n      dup2\n      lt\n      tag_358\n      jumpi\n      tag_359\n      tag_127\n      jump\t// in\n    tag_359:\n    tag_358:\n      swap1\n      0x00\n      mstore\n      keccak256(0x00, 0x20)\n      swap1\n      0x09\n      mul\n      add\n        /* \"contracts/ZombieGame.sol\":3458:3489  zombies[enemyZombie].TotalMatch */\n      0x05\n      add\n      0x00\n        /* \"contracts/ZombieGame.sol\":3458:3491  zombies[enemyZombie].TotalMatch++ */\n      dup2\n      sload\n      dup1\n      swap3\n      swap2\n      swap1\n      tag_361\n      swap1\n      tag_129\n      jump\t// in\n    tag_361:\n      swap2\n      swap1\n      pop\n      sstore\n      pop\n        /* \"contracts/ZombieGame.sol\":3506:3513  zombies */\n      0x03\n        /* \"contracts/ZombieGame.sol\":3514:3524  yourZombie */\n      dup4\n        /* \"contracts/ZombieGame.sol\":3506:3525  zombies[yourZombie] */\n      dup2\n      sload\n      dup2\n      lt\n      tag_362\n      jumpi\n      tag_363\n      tag_127\n      jump\t// in\n    tag_363:\n    tag_362:\n      swap1\n      0x00\n      mstore\n      keccak256(0x00, 0x20)\n      swap1\n      0x09\n      mul\n      add\n        /* \"contracts/ZombieGame.sol\":3506:3536  zombies[yourZombie].TotalMatch */\n      0x05\n      add\n      0x00\n        /* \"contracts/ZombieGame.sol\":3506:3538  zombies[yourZombie].TotalMatch++ */\n      dup2\n      sload\n      dup1\n      swap3\n      swap2\n      swap1\n      tag_365\n      swap1\n      tag_129\n      jump\t// in\n    tag_365:\n      swap2\n      swap1\n      pop\n      sstore\n      pop\n        /* \"contracts/ZombieGame.sol\":3553:3560  zombies */\n      0x03\n        /* \"contracts/ZombieGame.sol\":3561:3571  yourZombie */\n      dup4\n        /* \"contracts/ZombieGame.sol\":3553:3572  zombies[yourZombie] */\n      dup2\n      sload\n      dup2\n      lt\n      tag_366\n      jumpi\n      tag_367\n      tag_127\n      jump\t// in\n    tag_367:\n    tag_366:\n      swap1\n      0x00\n      mstore\n      keccak256(0x00, 0x20)\n      swap1\n      0x09\n      mul\n      add\n        /* \"contracts/ZombieGame.sol\":3553:3582  zombies[yourZombie].MatchLeft */\n      0x06\n      add\n      0x00\n        /* \"contracts/ZombieGame.sol\":3553:3584  zombies[yourZombie].MatchLeft-- */\n      dup2\n      sload\n      dup1\n      swap3\n      swap2\n      swap1\n      tag_369\n      swap1\n      tag_179\n      jump\t// in\n    tag_369:\n      swap2\n      swap1\n      pop\n      sstore\n      pop\n        /* \"contracts/ZombieGame.sol\":3599:3606  zombies */\n      0x03\n        /* \"contracts/ZombieGame.sol\":3607:3618  enemyZombie */\n      dup2\n        /* \"contracts/ZombieGame.sol\":3599:3619  zombies[enemyZombie] */\n      dup2\n      sload\n      dup2\n      lt\n      tag_370\n      jumpi\n      tag_371\n      tag_127\n      jump\t// in\n    tag_371:\n    tag_370:\n      swap1\n      0x00\n      mstore\n      keccak256(0x00, 0x20)\n      swap1\n      0x09\n      mul\n      add\n        /* \"contracts/ZombieGame.sol\":3599:3629  zombies[enemyZombie].MatchLeft */\n      0x06\n      add\n      0x00\n        /* \"contracts/ZombieGame.sol\":3599:3631  zombies[enemyZombie].MatchLeft-- */\n      dup2\n      sload\n      dup1\n      swap3\n      swap2\n      swap1\n      tag_373\n      swap1\n      tag_179\n      jump\t// in\n    tag_373:\n      swap2\n      swap1\n      pop\n      sstore\n      pop\n        /* \"contracts/ZombieGame.sol\":3644:3668  return \"Draw Try Again.\" */\n      mload(0x40)\n      dup1\n      0x40\n      add\n      0x40\n      mstore\n      dup1\n      0x0f\n      dup2\n      mstore\n      0x20\n      add\n      0x447261772054727920416761696e2e0000000000000000000000000000000000\n      dup2\n      mstore\n      pop\n      swap2\n      pop\n      pop\n        /* \"contracts/ZombieGame.sol\":1868:3692  function ZombieVsZombie(uint yourZombie) internal returns(string memory){... */\n    tag_255:\n      swap2\n      swap1\n      pop\n      jump\t// out\n        /* \"contracts/ZombieGame.sol\":1085:1256  function DnaGenerator(string memory name) internal view returns(uint){... */\n    tag_187:\n        /* \"contracts/ZombieGame.sol\":1149:1153  uint */\n      0x00\n        /* \"contracts/ZombieGame.sol\":1165:1173  uint Dna */\n      dup1\n        /* \"contracts/ZombieGame.sol\":1208:1212  name */\n      dup3\n        /* \"contracts/ZombieGame.sol\":1191:1213  abi.encodePacked(name) */\n      add(0x20, mload(0x40))\n      tag_375\n      swap2\n      swap1\n      tag_376\n      jump\t// in\n    tag_375:\n      mload(0x40)\n      0x20\n      dup2\n      dup4\n      sub\n      sub\n      dup2\n      mstore\n      swap1\n      0x40\n      mstore\n        /* \"contracts/ZombieGame.sol\":1181:1214  keccak256(abi.encodePacked(name)) */\n      dup1\n      mload\n      swap1\n      0x20\n      add\n      keccak256\n        /* \"contracts/ZombieGame.sol\":1176:1215  uint(keccak256(abi.encodePacked(name))) */\n      0x00\n      shr\n        /* \"contracts/ZombieGame.sol\":1165:1215  uint Dna = uint(keccak256(abi.encodePacked(name))) */\n      swap1\n      pop\n        /* \"contracts/ZombieGame.sol\":1239:1248  dnaLength */\n      sload(0x02)\n        /* \"contracts/ZombieGame.sol\":1233:1236  Dna */\n      dup2\n        /* \"contracts/ZombieGame.sol\":1233:1248  Dna % dnaLength */\n      tag_377\n      swap2\n      swap1\n      tag_113\n      jump\t// in\n    tag_377:\n        /* \"contracts/ZombieGame.sol\":1226:1248  return Dna % dnaLength */\n      swap2\n      pop\n      pop\n        /* \"contracts/ZombieGame.sol\":1085:1256  function DnaGenerator(string memory name) internal view returns(uint){... */\n      swap2\n      swap1\n      pop\n      jump\t// out\n        /* \"contracts/ZombieGame.sol\":628:1030  function createZombie(string memory Plan, string memory name, uint dna, uint level, uint xp, uint TotalMatch, uint MatchLeft, uint Wins, uint Looses) internal {... */\n    tag_188:\n        /* \"contracts/ZombieGame.sol\":798:805  zombies */\n      0x03\n        /* \"contracts/ZombieGame.sol\":811:888  zombieDetails(Plan ,name ,dna ,level ,xp ,TotalMatch, MatchLeft,Wins ,Looses) */\n      mload(0x40)\n      dup1\n      0x0120\n      add\n      0x40\n      mstore\n      dup1\n        /* \"contracts/ZombieGame.sol\":825:829  Plan */\n      dup12\n        /* \"contracts/ZombieGame.sol\":811:888  zombieDetails(Plan ,name ,dna ,level ,xp ,TotalMatch, MatchLeft,Wins ,Looses) */\n      dup2\n      mstore\n      0x20\n      add\n        /* \"contracts/ZombieGame.sol\":831:835  name */\n      dup11\n        /* \"contracts/ZombieGame.sol\":811:888  zombieDetails(Plan ,name ,dna ,level ,xp ,TotalMatch, MatchLeft,Wins ,Looses) */\n      dup2\n      mstore\n      0x20\n      add\n        /* \"contracts/ZombieGame.sol\":837:840  dna */\n      dup10\n        /* \"contracts/ZombieGame.sol\":811:888  zombieDetails(Plan ,name ,dna ,level ,xp ,TotalMatch, MatchLeft,Wins ,Looses) */\n      dup2\n      mstore\n      0x20\n      add\n        /* \"contracts/ZombieGame.sol\":842:847  level */\n      dup9\n        /* \"contracts/ZombieGame.sol\":811:888  zombieDetails(Plan ,name ,dna ,level ,xp ,TotalMatch, MatchLeft,Wins ,Looses) */\n      dup2\n      mstore\n      0x20\n      add\n        /* \"contracts/ZombieGame.sol\":849:851  xp */\n      dup8\n        /* \"contracts/ZombieGame.sol\":811:888  zombieDetails(Plan ,name ,dna ,level ,xp ,TotalMatch, MatchLeft,Wins ,Looses) */\n      dup2\n      mstore\n      0x20\n      add\n        /* \"contracts/ZombieGame.sol\":853:863  TotalMatch */\n      dup7\n        /* \"contracts/ZombieGame.sol\":811:888  zombieDetails(Plan ,name ,dna ,level ,xp ,TotalMatch, MatchLeft,Wins ,Looses) */\n      dup2\n      mstore\n      0x20\n      add\n        /* \"contracts/ZombieGame.sol\":865:874  MatchLeft */\n      dup6\n        /* \"contracts/ZombieGame.sol\":811:888  zombieDetails(Plan ,name ,dna ,level ,xp ,TotalMatch, MatchLeft,Wins ,Looses) */\n      dup2\n      mstore\n      0x20\n      add\n        /* \"contracts/ZombieGame.sol\":875:879  Wins */\n      dup5\n        /* \"contracts/ZombieGame.sol\":811:888  zombieDetails(Plan ,name ,dna ,level ,xp ,TotalMatch, MatchLeft,Wins ,Looses) */\n      dup2\n      mstore\n      0x20\n      add\n        /* \"contracts/ZombieGame.sol\":881:887  Looses */\n      dup4\n        /* \"contracts/ZombieGame.sol\":811:888  zombieDetails(Plan ,name ,dna ,level ,xp ,TotalMatch, MatchLeft,Wins ,Looses) */\n      dup2\n      mstore\n      pop\n        /* \"contracts/ZombieGame.sol\":798:889  zombies.push(zombieDetails(Plan ,name ,dna ,level ,xp ,TotalMatch, MatchLeft,Wins ,Looses)) */\n      swap1\n      dup1\n      0x01\n      dup2\n      sload\n      add\n      dup1\n      dup3\n      sstore\n      dup1\n      swap2\n      pop\n      pop\n      0x01\n      swap1\n      sub\n      swap1\n      0x00\n      mstore\n      keccak256(0x00, 0x20)\n      swap1\n      0x09\n      mul\n      add\n      0x00\n      swap1\n      swap2\n      swap1\n      swap2\n      swap1\n      swap2\n      pop\n      0x00\n      dup3\n      add\n      mload\n      dup2\n      0x00\n      add\n      swap1\n      dup2\n      tag_380\n      swap2\n      swap1\n      tag_381\n      jump\t// in\n    tag_380:\n      pop\n      0x20\n      dup3\n      add\n      mload\n      dup2\n      0x01\n      add\n      swap1\n      dup2\n      tag_382\n      swap2\n      swap1\n      tag_381\n      jump\t// in\n    tag_382:\n      pop\n      0x40\n      dup3\n      add\n      mload\n      dup2\n      0x02\n      add\n      sstore\n      0x60\n      dup3\n      add\n      mload\n      dup2\n      0x03\n      add\n      sstore\n      0x80\n      dup3\n      add\n      mload\n      dup2\n      0x04\n      add\n      sstore\n      0xa0\n      dup3\n      add\n      mload\n      dup2\n      0x05\n      add\n      sstore\n      0xc0\n      dup3\n      add\n      mload\n      dup2\n      0x06\n      add\n      sstore\n      0xe0\n      dup3\n      add\n      mload\n      dup2\n      0x07\n      add\n      sstore\n      0x0100\n      dup3\n      add\n      mload\n      dup2\n      0x08\n      add\n      sstore\n      pop\n      pop\n        /* \"contracts/ZombieGame.sol\":900:917  uint currentIndex */\n      0x00\n        /* \"contracts/ZombieGame.sol\":936:937  1 */\n      0x01\n        /* \"contracts/ZombieGame.sol\":920:927  zombies */\n      0x03\n        /* \"contracts/ZombieGame.sol\":920:934  zombies.length */\n      dup1\n      sload\n      swap1\n      pop\n        /* \"contracts/ZombieGame.sol\":920:937  zombies.length -1 */\n      tag_383\n      swap2\n      swap1\n      tag_230\n      jump\t// in\n    tag_383:\n        /* \"contracts/ZombieGame.sol\":900:937  uint currentIndex = zombies.length -1 */\n      swap1\n      pop\n        /* \"contracts/ZombieGame.sol\":948:959  ZombieCount */\n      0x01\n        /* \"contracts/ZombieGame.sol\":948:971  ZombieCount[msg.sender] */\n      0x00\n        /* \"contracts/ZombieGame.sol\":960:970  msg.sender */\n      caller\n        /* \"contracts/ZombieGame.sol\":948:971  ZombieCount[msg.sender] */\n      0xffffffffffffffffffffffffffffffffffffffff\n      and\n      0xffffffffffffffffffffffffffffffffffffffff\n      and\n      dup2\n      mstore\n      0x20\n      add\n      swap1\n      dup2\n      mstore\n      0x20\n      add\n      0x00\n      keccak256\n      0x00\n        /* \"contracts/ZombieGame.sol\":948:973  ZombieCount[msg.sender]++ */\n      dup2\n      sload\n      dup1\n      swap3\n      swap2\n      swap1\n      tag_384\n      swap1\n      tag_129\n      jump\t// in\n    tag_384:\n      swap2\n      swap1\n      pop\n      sstore\n      pop\n        /* \"contracts/ZombieGame.sol\":1012:1022  msg.sender */\n      caller\n        /* \"contracts/ZombieGame.sol\":984:995  ZombieOwner */\n      0x00\n        /* \"contracts/ZombieGame.sol\":984:1009  ZombieOwner[currentIndex] */\n      dup1\n        /* \"contracts/ZombieGame.sol\":996:1008  currentIndex */\n      dup4\n        /* \"contracts/ZombieGame.sol\":984:1009  ZombieOwner[currentIndex] */\n      dup2\n      mstore\n      0x20\n      add\n      swap1\n      dup2\n      mstore\n      0x20\n      add\n      0x00\n      keccak256\n      0x00\n        /* \"contracts/ZombieGame.sol\":984:1022  ZombieOwner[currentIndex] = msg.sender */\n      0x0100\n      exp\n      dup2\n      sload\n      dup2\n      0xffffffffffffffffffffffffffffffffffffffff\n      mul\n      not\n      and\n      swap1\n      dup4\n      0xffffffffffffffffffffffffffffffffffffffff\n      and\n      mul\n      or\n      swap1\n      sstore\n      pop\n        /* \"contracts/ZombieGame.sol\":787:1030  {... */\n      pop\n        /* \"contracts/ZombieGame.sol\":628:1030  function createZombie(string memory Plan, string memory name, uint dna, uint level, uint xp, uint TotalMatch, uint MatchLeft, uint Wins, uint Looses) internal {... */\n      pop\n      pop\n      pop\n      pop\n      pop\n      pop\n      pop\n      pop\n      pop\n      jump\t// out\n        /* \"contracts/ZombieGame.sol\":1502:1730  function randomEnemy() private view returns(uint) {... */\n    tag_257:\n        /* \"contracts/ZombieGame.sol\":1546:1550  uint */\n      0x00\n        /* \"contracts/ZombieGame.sol\":1563:1578  uint TotalEnemy */\n      dup1\n        /* \"contracts/ZombieGame.sol\":1581:1588  zombies */\n      0x03\n        /* \"contracts/ZombieGame.sol\":1581:1595  zombies.length */\n      dup1\n      sload\n      swap1\n      pop\n        /* \"contracts/ZombieGame.sol\":1563:1595  uint TotalEnemy = zombies.length */\n      swap1\n      pop\n        /* \"contracts/ZombieGame.sol\":1606:1619  uint RandomId */\n      0x00\n        /* \"contracts/ZombieGame.sol\":1686:1696  TotalEnemy */\n      dup2\n        /* \"contracts/ZombieGame.sol\":1654:1664  TotalEnemy */\n      dup3\n        /* \"contracts/ZombieGame.sol\":1665:1680  block.timestamp */\n      timestamp\n        /* \"contracts/ZombieGame.sol\":1637:1681  abi.encodePacked(TotalEnemy,block.timestamp) */\n      add(0x20, mload(0x40))\n      tag_386\n      swap3\n      swap2\n      swap1\n      tag_387\n      jump\t// in\n    tag_386:\n      mload(0x40)\n      0x20\n      dup2\n      dup4\n      sub\n      sub\n      dup2\n      mstore\n      swap1\n      0x40\n      mstore\n        /* \"contracts/ZombieGame.sol\":1627:1682  keccak256(abi.encodePacked(TotalEnemy,block.timestamp)) */\n      dup1\n      mload\n      swap1\n      0x20\n      add\n      keccak256\n        /* \"contracts/ZombieGame.sol\":1622:1683  uint(keccak256(abi.encodePacked(TotalEnemy,block.timestamp))) */\n      0x00\n      shr\n        /* \"contracts/ZombieGame.sol\":1622:1696  uint(keccak256(abi.encodePacked(TotalEnemy,block.timestamp))) % TotalEnemy */\n      tag_388\n      swap2\n      swap1\n      tag_113\n      jump\t// in\n    tag_388:\n        /* \"contracts/ZombieGame.sol\":1606:1696  uint RandomId = uint(keccak256(abi.encodePacked(TotalEnemy,block.timestamp))) % TotalEnemy */\n      swap1\n      pop\n        /* \"contracts/ZombieGame.sol\":1714:1722  RandomId */\n      dup1\n        /* \"contracts/ZombieGame.sol\":1707:1722  return RandomId */\n      swap3\n      pop\n      pop\n      pop\n        /* \"contracts/ZombieGame.sol\":1502:1730  function randomEnemy() private view returns(uint) {... */\n      swap1\n      jump\t// out\n    tag_190:\n      mload(0x40)\n      dup1\n      0x0120\n      add\n      0x40\n      mstore\n      dup1\n      0x60\n      dup2\n      mstore\n      0x20\n      add\n      0x60\n      dup2\n      mstore\n      0x20\n      add\n      0x00\n      dup2\n      mstore\n      0x20\n      add\n      0x00\n      dup2\n      mstore\n      0x20\n      add\n      0x00\n      dup2\n      mstore\n      0x20\n      add\n      0x00\n      dup2\n      mstore\n      0x20\n      add\n      0x00\n      dup2\n      mstore\n      0x20\n      add\n      0x00\n      dup2\n      mstore\n      0x20\n      add\n      0x00\n      dup2\n      mstore\n      pop\n      swap1\n      jump\t// out\n        /* \"#utility.yul\":7:82   */\n    tag_389:\n        /* \"#utility.yul\":40:46   */\n      0x00\n        /* \"#utility.yul\":73:75   */\n      0x40\n        /* \"#utility.yul\":67:76   */\n      mload\n        /* \"#utility.yul\":57:76   */\n      swap1\n      pop\n        /* \"#utility.yul\":7:82   */\n      swap1\n      jump\t// out\n        /* \"#utility.yul\":88:205   */\n    tag_390:\n        /* \"#utility.yul\":197:198   */\n      0x00\n        /* \"#utility.yul\":194:195   */\n      dup1\n        /* \"#utility.yul\":187:199   */\n      revert\n        /* \"#utility.yul\":211:328   */\n    tag_391:\n        /* \"#utility.yul\":320:321   */\n      0x00\n        /* \"#utility.yul\":317:318   */\n      dup1\n        /* \"#utility.yul\":310:322   */\n      revert\n        /* \"#utility.yul\":334:460   */\n    tag_392:\n        /* \"#utility.yul\":371:378   */\n      0x00\n        /* \"#utility.yul\":411:453   */\n      0xffffffffffffffffffffffffffffffffffffffff\n        /* \"#utility.yul\":404:409   */\n      dup3\n        /* \"#utility.yul\":400:454   */\n      and\n        /* \"#utility.yul\":389:454   */\n      swap1\n      pop\n        /* \"#utility.yul\":334:460   */\n      swap2\n      swap1\n      pop\n      jump\t// out\n        /* \"#utility.yul\":466:562   */\n    tag_393:\n        /* \"#utility.yul\":503:510   */\n      0x00\n        /* \"#utility.yul\":532:556   */\n      tag_488\n        /* \"#utility.yul\":550:555   */\n      dup3\n        /* \"#utility.yul\":532:556   */\n      tag_392\n      jump\t// in\n    tag_488:\n        /* \"#utility.yul\":521:556   */\n      swap1\n      pop\n        /* \"#utility.yul\":466:562   */\n      swap2\n      swap1\n      pop\n      jump\t// out\n        /* \"#utility.yul\":568:690   */\n    tag_394:\n        /* \"#utility.yul\":641:665   */\n      tag_490\n        /* \"#utility.yul\":659:664   */\n      dup2\n        /* \"#utility.yul\":641:665   */\n      tag_393\n      jump\t// in\n    tag_490:\n        /* \"#utility.yul\":634:639   */\n      dup2\n        /* \"#utility.yul\":631:666   */\n      eq\n        /* \"#utility.yul\":621:684   */\n      tag_491\n      jumpi\n        /* \"#utility.yul\":680:681   */\n      0x00\n        /* \"#utility.yul\":677:678   */\n      dup1\n        /* \"#utility.yul\":670:682   */\n      revert\n        /* \"#utility.yul\":621:684   */\n    tag_491:\n        /* \"#utility.yul\":568:690   */\n      pop\n      jump\t// out\n        /* \"#utility.yul\":696:835   */\n    tag_395:\n        /* \"#utility.yul\":742:747   */\n      0x00\n        /* \"#utility.yul\":780:786   */\n      dup2\n        /* \"#utility.yul\":767:787   */\n      calldataload\n        /* \"#utility.yul\":758:787   */\n      swap1\n      pop\n        /* \"#utility.yul\":796:829   */\n      tag_493\n        /* \"#utility.yul\":823:828   */\n      dup2\n        /* \"#utility.yul\":796:829   */\n      tag_394\n      jump\t// in\n    tag_493:\n        /* \"#utility.yul\":696:835   */\n      swap3\n      swap2\n      pop\n      pop\n      jump\t// out\n        /* \"#utility.yul\":841:918   */\n    tag_396:\n        /* \"#utility.yul\":878:885   */\n      0x00\n        /* \"#utility.yul\":907:912   */\n      dup2\n        /* \"#utility.yul\":896:912   */\n      swap1\n      pop\n        /* \"#utility.yul\":841:918   */\n      swap2\n      swap1\n      pop\n      jump\t// out\n        /* \"#utility.yul\":924:1046   */\n    tag_397:\n        /* \"#utility.yul\":997:1021   */\n      tag_496\n        /* \"#utility.yul\":1015:1020   */\n      dup2\n        /* \"#utility.yul\":997:1021   */\n      tag_396\n      jump\t// in\n    tag_496:\n        /* \"#utility.yul\":990:995   */\n      dup2\n        /* \"#utility.yul\":987:1022   */\n      eq\n        /* \"#utility.yul\":977:1040   */\n      tag_497\n      jumpi\n        /* \"#utility.yul\":1036:1037   */\n      0x00\n        /* \"#utility.yul\":1033:1034   */\n      dup1\n        /* \"#utility.yul\":1026:1038   */\n      revert\n        /* \"#utility.yul\":977:1040   */\n    tag_497:\n        /* \"#utility.yul\":924:1046   */\n      pop\n      jump\t// out\n        /* \"#utility.yul\":1052:1191   */\n    tag_398:\n        /* \"#utility.yul\":1098:1103   */\n      0x00\n        /* \"#utility.yul\":1136:1142   */\n      dup2\n        /* \"#utility.yul\":1123:1143   */\n      calldataload\n        /* \"#utility.yul\":1114:1143   */\n      swap1\n      pop\n        /* \"#utility.yul\":1152:1185   */\n      tag_499\n        /* \"#utility.yul\":1179:1184   */\n      dup2\n        /* \"#utility.yul\":1152:1185   */\n      tag_397\n      jump\t// in\n    tag_499:\n        /* \"#utility.yul\":1052:1191   */\n      swap3\n      swap2\n      pop\n      pop\n      jump\t// out\n        /* \"#utility.yul\":1197:1671   */\n    tag_24:\n        /* \"#utility.yul\":1265:1271   */\n      0x00\n        /* \"#utility.yul\":1273:1279   */\n      dup1\n        /* \"#utility.yul\":1322:1324   */\n      0x40\n        /* \"#utility.yul\":1310:1319   */\n      dup4\n        /* \"#utility.yul\":1301:1308   */\n      dup6\n        /* \"#utility.yul\":1297:1320   */\n      sub\n        /* \"#utility.yul\":1293:1325   */\n      slt\n        /* \"#utility.yul\":1290:1409   */\n      iszero\n      tag_501\n      jumpi\n        /* \"#utility.yul\":1328:1407   */\n      tag_502\n      tag_390\n      jump\t// in\n    tag_502:\n        /* \"#utility.yul\":1290:1409   */\n    tag_501:\n        /* \"#utility.yul\":1448:1449   */\n      0x00\n        /* \"#utility.yul\":1473:1526   */\n      tag_503\n        /* \"#utility.yul\":1518:1525   */\n      dup6\n        /* \"#utility.yul\":1509:1515   */\n      dup3\n        /* \"#utility.yul\":1498:1507   */\n      dup7\n        /* \"#utility.yul\":1494:1516   */\n      add\n        /* \"#utility.yul\":1473:1526   */\n      tag_395\n      jump\t// in\n    tag_503:\n        /* \"#utility.yul\":1463:1526   */\n      swap3\n      pop\n        /* \"#utility.yul\":1419:1536   */\n      pop\n        /* \"#utility.yul\":1575:1577   */\n      0x20\n        /* \"#utility.yul\":1601:1654   */\n      tag_504\n        /* \"#utility.yul\":1646:1653   */\n      dup6\n        /* \"#utility.yul\":1637:1643   */\n      dup3\n        /* \"#utility.yul\":1626:1635   */\n      dup7\n        /* \"#utility.yul\":1622:1644   */\n      add\n        /* \"#utility.yul\":1601:1654   */\n      tag_398\n      jump\t// in\n    tag_504:\n        /* \"#utility.yul\":1591:1654   */\n      swap2\n      pop\n        /* \"#utility.yul\":1546:1664   */\n      pop\n        /* \"#utility.yul\":1197:1671   */\n      swap3\n      pop\n      swap3\n      swap1\n      pop\n      jump\t// out\n        /* \"#utility.yul\":1677:2151   */\n    tag_29:\n        /* \"#utility.yul\":1745:1751   */\n      0x00\n        /* \"#utility.yul\":1753:1759   */\n      dup1\n        /* \"#utility.yul\":1802:1804   */\n      0x40\n        /* \"#utility.yul\":1790:1799   */\n      dup4\n        /* \"#utility.yul\":1781:1788   */\n      dup6\n        /* \"#utility.yul\":1777:1800   */\n      sub\n        /* \"#utility.yul\":1773:1805   */\n      slt\n        /* \"#utility.yul\":1770:1889   */\n      iszero\n      tag_506\n      jumpi\n        /* \"#utility.yul\":1808:1887   */\n      tag_507\n      tag_390\n      jump\t// in\n    tag_507:\n        /* \"#utility.yul\":1770:1889   */\n    tag_506:\n        /* \"#utility.yul\":1928:1929   */\n      0x00\n        /* \"#utility.yul\":1953:2006   */\n      tag_508\n        /* \"#utility.yul\":1998:2005   */\n      dup6\n        /* \"#utility.yul\":1989:1995   */\n      dup3\n        /* \"#utility.yul\":1978:1987   */\n      dup7\n        /* \"#utility.yul\":1974:1996   */\n      add\n        /* \"#utility.yul\":1953:2006   */\n      tag_398\n      jump\t// in\n    tag_508:\n        /* \"#utility.yul\":1943:2006   */\n      swap3\n      pop\n        /* \"#utility.yul\":1899:2016   */\n      pop\n        /* \"#utility.yul\":2055:2057   */\n      0x20\n        /* \"#utility.yul\":2081:2134   */\n      tag_509\n        /* \"#utility.yul\":2126:2133   */\n      dup6\n        /* \"#utility.yul\":2117:2123   */\n      dup3\n        /* \"#utility.yul\":2106:2115   */\n      dup7\n        /* \"#utility.yul\":2102:2124   */\n      add\n        /* \"#utility.yul\":2081:2134   */\n      tag_398\n      jump\t// in\n    tag_509:\n        /* \"#utility.yul\":2071:2134   */\n      swap2\n      pop\n        /* \"#utility.yul\":2026:2144   */\n      pop\n        /* \"#utility.yul\":1677:2151   */\n      swap3\n      pop\n      swap3\n      swap1\n      pop\n      jump\t// out\n        /* \"#utility.yul\":2157:2486   */\n    tag_34:\n        /* \"#utility.yul\":2216:2222   */\n      0x00\n        /* \"#utility.yul\":2265:2267   */\n      0x20\n        /* \"#utility.yul\":2253:2262   */\n      dup3\n        /* \"#utility.yul\":2244:2251   */\n      dup5\n        /* \"#utility.yul\":2240:2263   */\n      sub\n        /* \"#utility.yul\":2236:2268   */\n      slt\n        /* \"#utility.yul\":2233:2352   */\n      iszero\n      tag_511\n      jumpi\n        /* \"#utility.yul\":2271:2350   */\n      tag_512\n      tag_390\n      jump\t// in\n    tag_512:\n        /* \"#utility.yul\":2233:2352   */\n    tag_511:\n        /* \"#utility.yul\":2391:2392   */\n      0x00\n        /* \"#utility.yul\":2416:2469   */\n      tag_513\n        /* \"#utility.yul\":2461:2468   */\n      dup5\n        /* \"#utility.yul\":2452:2458   */\n      dup3\n        /* \"#utility.yul\":2441:2450   */\n      dup6\n        /* \"#utility.yul\":2437:2459   */\n      add\n        /* \"#utility.yul\":2416:2469   */\n      tag_395\n      jump\t// in\n    tag_513:\n        /* \"#utility.yul\":2406:2469   */\n      swap2\n      pop\n        /* \"#utility.yul\":2362:2479   */\n      pop\n        /* \"#utility.yul\":2157:2486   */\n      swap3\n      swap2\n      pop\n      pop\n      jump\t// out\n        /* \"#utility.yul\":2492:2606   */\n    tag_399:\n        /* \"#utility.yul\":2559:2565   */\n      0x00\n        /* \"#utility.yul\":2593:2598   */\n      dup2\n        /* \"#utility.yul\":2587:2599   */\n      mload\n        /* \"#utility.yul\":2577:2599   */\n      swap1\n      pop\n        /* \"#utility.yul\":2492:2606   */\n      swap2\n      swap1\n      pop\n      jump\t// out\n        /* \"#utility.yul\":2612:2796   */\n    tag_400:\n        /* \"#utility.yul\":2711:2722   */\n      0x00\n        /* \"#utility.yul\":2745:2751   */\n      dup3\n        /* \"#utility.yul\":2740:2743   */\n      dup3\n        /* \"#utility.yul\":2733:2752   */\n      mstore\n        /* \"#utility.yul\":2785:2789   */\n      0x20\n        /* \"#utility.yul\":2780:2783   */\n      dup3\n        /* \"#utility.yul\":2776:2790   */\n      add\n        /* \"#utility.yul\":2761:2790   */\n      swap1\n      pop\n        /* \"#utility.yul\":2612:2796   */\n      swap3\n      swap2\n      pop\n      pop\n      jump\t// out\n        /* \"#utility.yul\":2802:2934   */\n    tag_401:\n        /* \"#utility.yul\":2869:2873   */\n      0x00\n        /* \"#utility.yul\":2892:2895   */\n      dup2\n        /* \"#utility.yul\":2884:2895   */\n      swap1\n      pop\n        /* \"#utility.yul\":2922:2926   */\n      0x20\n        /* \"#utility.yul\":2917:2920   */\n      dup3\n        /* \"#utility.yul\":2913:2927   */\n      add\n        /* \"#utility.yul\":2905:2927   */\n      swap1\n      pop\n        /* \"#utility.yul\":2802:2934   */\n      swap2\n      swap1\n      pop\n      jump\t// out\n        /* \"#utility.yul\":2940:3048   */\n    tag_402:\n        /* \"#utility.yul\":3017:3041   */\n      tag_518\n        /* \"#utility.yul\":3035:3040   */\n      dup2\n        /* \"#utility.yul\":3017:3041   */\n      tag_396\n      jump\t// in\n    tag_518:\n        /* \"#utility.yul\":3012:3015   */\n      dup3\n        /* \"#utility.yul\":3005:3042   */\n      mstore\n        /* \"#utility.yul\":2940:3048   */\n      pop\n      pop\n      jump\t// out\n        /* \"#utility.yul\":3054:3233   */\n    tag_403:\n        /* \"#utility.yul\":3123:3133   */\n      0x00\n        /* \"#utility.yul\":3144:3190   */\n      tag_520\n        /* \"#utility.yul\":3186:3189   */\n      dup4\n        /* \"#utility.yul\":3178:3184   */\n      dup4\n        /* \"#utility.yul\":3144:3190   */\n      tag_402\n      jump\t// in\n    tag_520:\n        /* \"#utility.yul\":3222:3226   */\n      0x20\n        /* \"#utility.yul\":3217:3220   */\n      dup4\n        /* \"#utility.yul\":3213:3227   */\n      add\n        /* \"#utility.yul\":3199:3227   */\n      swap1\n      pop\n        /* \"#utility.yul\":3054:3233   */\n      swap3\n      swap2\n      pop\n      pop\n      jump\t// out\n        /* \"#utility.yul\":3239:3352   */\n    tag_404:\n        /* \"#utility.yul\":3309:3313   */\n      0x00\n        /* \"#utility.yul\":3341:3345   */\n      0x20\n        /* \"#utility.yul\":3336:3339   */\n      dup3\n        /* \"#utility.yul\":3332:3346   */\n      add\n        /* \"#utility.yul\":3324:3346   */\n      swap1\n      pop\n        /* \"#utility.yul\":3239:3352   */\n      swap2\n      swap1\n      pop\n      jump\t// out\n        /* \"#utility.yul\":3388:4120   */\n    tag_405:\n        /* \"#utility.yul\":3507:3510   */\n      0x00\n        /* \"#utility.yul\":3536:3590   */\n      tag_523\n        /* \"#utility.yul\":3584:3589   */\n      dup3\n        /* \"#utility.yul\":3536:3590   */\n      tag_399\n      jump\t// in\n    tag_523:\n        /* \"#utility.yul\":3606:3692   */\n      tag_524\n        /* \"#utility.yul\":3685:3691   */\n      dup2\n        /* \"#utility.yul\":3680:3683   */\n      dup6\n        /* \"#utility.yul\":3606:3692   */\n      tag_400\n      jump\t// in\n    tag_524:\n        /* \"#utility.yul\":3599:3692   */\n      swap4\n      pop\n        /* \"#utility.yul\":3716:3772   */\n      tag_525\n        /* \"#utility.yul\":3766:3771   */\n      dup4\n        /* \"#utility.yul\":3716:3772   */\n      tag_401\n      jump\t// in\n    tag_525:\n        /* \"#utility.yul\":3795:3802   */\n      dup1\n        /* \"#utility.yul\":3826:3827   */\n      0x00\n        /* \"#utility.yul\":3811:4095   */\n    tag_526:\n        /* \"#utility.yul\":3836:3842   */\n      dup4\n        /* \"#utility.yul\":3833:3834   */\n      dup2\n        /* \"#utility.yul\":3830:3843   */\n      lt\n        /* \"#utility.yul\":3811:4095   */\n      iszero\n      tag_528\n      jumpi\n        /* \"#utility.yul\":3912:3918   */\n      dup2\n        /* \"#utility.yul\":3906:3919   */\n      mload\n        /* \"#utility.yul\":3939:4002   */\n      tag_529\n        /* \"#utility.yul\":3998:4001   */\n      dup9\n        /* \"#utility.yul\":3983:3996   */\n      dup3\n        /* \"#utility.yul\":3939:4002   */\n      tag_403\n      jump\t// in\n    tag_529:\n        /* \"#utility.yul\":3932:4002   */\n      swap8\n      pop\n        /* \"#utility.yul\":4025:4085   */\n      tag_530\n        /* \"#utility.yul\":4078:4084   */\n      dup4\n        /* \"#utility.yul\":4025:4085   */\n      tag_404\n      jump\t// in\n    tag_530:\n        /* \"#utility.yul\":4015:4085   */\n      swap3\n      pop\n        /* \"#utility.yul\":3871:4095   */\n      pop\n        /* \"#utility.yul\":3858:3859   */\n      0x01\n        /* \"#utility.yul\":3855:3856   */\n      dup2\n        /* \"#utility.yul\":3851:3860   */\n      add\n        /* \"#utility.yul\":3846:3860   */\n      swap1\n      pop\n        /* \"#utility.yul\":3811:4095   */\n      jump(tag_526)\n    tag_528:\n        /* \"#utility.yul\":3815:3829   */\n      pop\n        /* \"#utility.yul\":4111:4114   */\n      dup6\n        /* \"#utility.yul\":4104:4114   */\n      swap4\n      pop\n        /* \"#utility.yul\":3512:4120   */\n      pop\n      pop\n      pop\n        /* \"#utility.yul\":3388:4120   */\n      swap3\n      swap2\n      pop\n      pop\n      jump\t// out\n        /* \"#utility.yul\":4126:4499   */\n    tag_37:\n        /* \"#utility.yul\":4269:4273   */\n      0x00\n        /* \"#utility.yul\":4307:4309   */\n      0x20\n        /* \"#utility.yul\":4296:4305   */\n      dup3\n        /* \"#utility.yul\":4292:4310   */\n      add\n        /* \"#utility.yul\":4284:4310   */\n      swap1\n      pop\n        /* \"#utility.yul\":4356:4365   */\n      dup2\n        /* \"#utility.yul\":4350:4354   */\n      dup2\n        /* \"#utility.yul\":4346:4366   */\n      sub\n        /* \"#utility.yul\":4342:4343   */\n      0x00\n        /* \"#utility.yul\":4331:4340   */\n      dup4\n        /* \"#utility.yul\":4327:4344   */\n      add\n        /* \"#utility.yul\":4320:4367   */\n      mstore\n        /* \"#utility.yul\":4384:4492   */\n      tag_532\n        /* \"#utility.yul\":4487:4491   */\n      dup2\n        /* \"#utility.yul\":4478:4484   */\n      dup5\n        /* \"#utility.yul\":4384:4492   */\n      tag_405\n      jump\t// in\n    tag_532:\n        /* \"#utility.yul\":4376:4492   */\n      swap1\n      pop\n        /* \"#utility.yul\":4126:4499   */\n      swap3\n      swap2\n      pop\n      pop\n      jump\t// out\n        /* \"#utility.yul\":4505:4834   */\n    tag_41:\n        /* \"#utility.yul\":4564:4570   */\n      0x00\n        /* \"#utility.yul\":4613:4615   */\n      0x20\n        /* \"#utility.yul\":4601:4610   */\n      dup3\n        /* \"#utility.yul\":4592:4599   */\n      dup5\n        /* \"#utility.yul\":4588:4611   */\n      sub\n        /* \"#utility.yul\":4584:4616   */\n      slt\n        /* \"#utility.yul\":4581:4700   */\n      iszero\n      tag_534\n      jumpi\n        /* \"#utility.yul\":4619:4698   */\n      tag_535\n      tag_390\n      jump\t// in\n    tag_535:\n        /* \"#utility.yul\":4581:4700   */\n    tag_534:\n        /* \"#utility.yul\":4739:4740   */\n      0x00\n        /* \"#utility.yul\":4764:4817   */\n      tag_536\n        /* \"#utility.yul\":4809:4816   */\n      dup5\n        /* \"#utility.yul\":4800:4806   */\n      dup3\n        /* \"#utility.yul\":4789:4798   */\n      dup6\n        /* \"#utility.yul\":4785:4807   */\n      add\n        /* \"#utility.yul\":4764:4817   */\n      tag_398\n      jump\t// in\n    tag_536:\n        /* \"#utility.yul\":4754:4817   */\n      swap2\n      pop\n        /* \"#utility.yul\":4710:4827   */\n      pop\n        /* \"#utility.yul\":4505:4834   */\n      swap3\n      swap2\n      pop\n      pop\n      jump\t// out\n        /* \"#utility.yul\":4840:4958   */\n    tag_406:\n        /* \"#utility.yul\":4927:4951   */\n      tag_538\n        /* \"#utility.yul\":4945:4950   */\n      dup2\n        /* \"#utility.yul\":4927:4951   */\n      tag_396\n      jump\t// in\n    tag_538:\n        /* \"#utility.yul\":4922:4925   */\n      dup3\n        /* \"#utility.yul\":4915:4952   */\n      mstore\n        /* \"#utility.yul\":4840:4958   */\n      pop\n      pop\n      jump\t// out\n        /* \"#utility.yul\":4964:5186   */\n    tag_48:\n        /* \"#utility.yul\":5057:5061   */\n      0x00\n        /* \"#utility.yul\":5095:5097   */\n      0x20\n        /* \"#utility.yul\":5084:5093   */\n      dup3\n        /* \"#utility.yul\":5080:5098   */\n      add\n        /* \"#utility.yul\":5072:5098   */\n      swap1\n      pop\n        /* \"#utility.yul\":5108:5179   */\n      tag_540\n        /* \"#utility.yul\":5176:5177   */\n      0x00\n        /* \"#utility.yul\":5165:5174   */\n      dup4\n        /* \"#utility.yul\":5161:5178   */\n      add\n        /* \"#utility.yul\":5152:5158   */\n      dup5\n        /* \"#utility.yul\":5108:5179   */\n      tag_406\n      jump\t// in\n    tag_540:\n        /* \"#utility.yul\":4964:5186   */\n      swap3\n      swap2\n      pop\n      pop\n      jump\t// out\n        /* \"#utility.yul\":5192:5811   */\n    tag_52:\n        /* \"#utility.yul\":5269:5275   */\n      0x00\n        /* \"#utility.yul\":5277:5283   */\n      dup1\n        /* \"#utility.yul\":5285:5291   */\n      0x00\n        /* \"#utility.yul\":5334:5336   */\n      0x60\n        /* \"#utility.yul\":5322:5331   */\n      dup5\n        /* \"#utility.yul\":5313:5320   */\n      dup7\n        /* \"#utility.yul\":5309:5332   */\n      sub\n        /* \"#utility.yul\":5305:5337   */\n      slt\n        /* \"#utility.yul\":5302:5421   */\n      iszero\n      tag_542\n      jumpi\n        /* \"#utility.yul\":5340:5419   */\n      tag_543\n      tag_390\n      jump\t// in\n    tag_543:\n        /* \"#utility.yul\":5302:5421   */\n    tag_542:\n        /* \"#utility.yul\":5460:5461   */\n      0x00\n        /* \"#utility.yul\":5485:5538   */\n      tag_544\n        /* \"#utility.yul\":5530:5537   */\n      dup7\n        /* \"#utility.yul\":5521:5527   */\n      dup3\n        /* \"#utility.yul\":5510:5519   */\n      dup8\n        /* \"#utility.yul\":5506:5528   */\n      add\n        /* \"#utility.yul\":5485:5538   */\n      tag_395\n      jump\t// in\n    tag_544:\n        /* \"#utility.yul\":5475:5538   */\n      swap4\n      pop\n        /* \"#utility.yul\":5431:5548   */\n      pop\n        /* \"#utility.yul\":5587:5589   */\n      0x20\n        /* \"#utility.yul\":5613:5666   */\n      tag_545\n        /* \"#utility.yul\":5658:5665   */\n      dup7\n        /* \"#utility.yul\":5649:5655   */\n      dup3\n        /* \"#utility.yul\":5638:5647   */\n      dup8\n        /* \"#utility.yul\":5634:5656   */\n      add\n        /* \"#utility.yul\":5613:5666   */\n      tag_395\n      jump\t// in\n    tag_545:\n        /* \"#utility.yul\":5603:5666   */\n      swap3\n      pop\n        /* \"#utility.yul\":5558:5676   */\n      pop\n        /* \"#utility.yul\":5715:5717   */\n      0x40\n        /* \"#utility.yul\":5741:5794   */\n      tag_546\n        /* \"#utility.yul\":5786:5793   */\n      dup7\n        /* \"#utility.yul\":5777:5783   */\n      dup3\n        /* \"#utility.yul\":5766:5775   */\n      dup8\n        /* \"#utility.yul\":5762:5784   */\n      add\n        /* \"#utility.yul\":5741:5794   */\n      tag_398\n      jump\t// in\n    tag_546:\n        /* \"#utility.yul\":5731:5794   */\n      swap2\n      pop\n        /* \"#utility.yul\":5686:5804   */\n      pop\n        /* \"#utility.yul\":5192:5811   */\n      swap3\n      pop\n      swap3\n      pop\n      swap3\n      jump\t// out\n        /* \"#utility.yul\":5817:5907   */\n    tag_407:\n        /* \"#utility.yul\":5851:5858   */\n      0x00\n        /* \"#utility.yul\":5894:5899   */\n      dup2\n        /* \"#utility.yul\":5887:5900   */\n      iszero\n        /* \"#utility.yul\":5880:5901   */\n      iszero\n        /* \"#utility.yul\":5869:5901   */\n      swap1\n      pop\n        /* \"#utility.yul\":5817:5907   */\n      swap2\n      swap1\n      pop\n      jump\t// out\n        /* \"#utility.yul\":5913:6022   */\n    tag_408:\n        /* \"#utility.yul\":5994:6015   */\n      tag_549\n        /* \"#utility.yul\":6009:6014   */\n      dup2\n        /* \"#utility.yul\":5994:6015   */\n      tag_407\n      jump\t// in\n    tag_549:\n        /* \"#utility.yul\":5989:5992   */\n      dup3\n        /* \"#utility.yul\":5982:6016   */\n      mstore\n        /* \"#utility.yul\":5913:6022   */\n      pop\n      pop\n      jump\t// out\n        /* \"#utility.yul\":6028:6238   */\n    tag_59:\n        /* \"#utility.yul\":6115:6119   */\n      0x00\n        /* \"#utility.yul\":6153:6155   */\n      0x20\n        /* \"#utility.yul\":6142:6151   */\n      dup3\n        /* \"#utility.yul\":6138:6156   */\n      add\n        /* \"#utility.yul\":6130:6156   */\n      swap1\n      pop\n        /* \"#utility.yul\":6166:6231   */\n      tag_551\n        /* \"#utility.yul\":6228:6229   */\n      0x00\n        /* \"#utility.yul\":6217:6226   */\n      dup4\n        /* \"#utility.yul\":6213:6230   */\n      add\n        /* \"#utility.yul\":6204:6210   */\n      dup5\n        /* \"#utility.yul\":6166:6231   */\n      tag_408\n      jump\t// in\n    tag_551:\n        /* \"#utility.yul\":6028:6238   */\n      swap3\n      swap2\n      pop\n      pop\n      jump\t// out\n        /* \"#utility.yul\":6244:6343   */\n    tag_409:\n        /* \"#utility.yul\":6296:6302   */\n      0x00\n        /* \"#utility.yul\":6330:6335   */\n      dup2\n        /* \"#utility.yul\":6324:6336   */\n      mload\n        /* \"#utility.yul\":6314:6336   */\n      swap1\n      pop\n        /* \"#utility.yul\":6244:6343   */\n      swap2\n      swap1\n      pop\n      jump\t// out\n        /* \"#utility.yul\":6349:6508   */\n    tag_410:\n        /* \"#utility.yul\":6423:6434   */\n      0x00\n        /* \"#utility.yul\":6457:6463   */\n      dup3\n        /* \"#utility.yul\":6452:6455   */\n      dup3\n        /* \"#utility.yul\":6445:6464   */\n      mstore\n        /* \"#utility.yul\":6497:6501   */\n      0x20\n        /* \"#utility.yul\":6492:6495   */\n      dup3\n        /* \"#utility.yul\":6488:6502   */\n      add\n        /* \"#utility.yul\":6473:6502   */\n      swap1\n      pop\n        /* \"#utility.yul\":6349:6508   */\n      swap3\n      swap2\n      pop\n      pop\n      jump\t// out\n        /* \"#utility.yul\":6514:6760   */\n    tag_411:\n        /* \"#utility.yul\":6595:6596   */\n      0x00\n        /* \"#utility.yul\":6605:6718   */\n    tag_555:\n        /* \"#utility.yul\":6619:6625   */\n      dup4\n        /* \"#utility.yul\":6616:6617   */\n      dup2\n        /* \"#utility.yul\":6613:6626   */\n      lt\n        /* \"#utility.yul\":6605:6718   */\n      iszero\n      tag_557\n      jumpi\n        /* \"#utility.yul\":6704:6705   */\n      dup1\n        /* \"#utility.yul\":6699:6702   */\n      dup3\n        /* \"#utility.yul\":6695:6706   */\n      add\n        /* \"#utility.yul\":6689:6707   */\n      mload\n        /* \"#utility.yul\":6685:6686   */\n      dup2\n        /* \"#utility.yul\":6680:6683   */\n      dup5\n        /* \"#utility.yul\":6676:6687   */\n      add\n        /* \"#utility.yul\":6669:6708   */\n      mstore\n        /* \"#utility.yul\":6641:6643   */\n      0x20\n        /* \"#utility.yul\":6638:6639   */\n      dup2\n        /* \"#utility.yul\":6634:6644   */\n      add\n        /* \"#utility.yul\":6629:6644   */\n      swap1\n      pop\n        /* \"#utility.yul\":6605:6718   */\n      jump(tag_555)\n    tag_557:\n        /* \"#utility.yul\":6752:6753   */\n      0x00\n        /* \"#utility.yul\":6743:6749   */\n      dup5\n        /* \"#utility.yul\":6738:6741   */\n      dup5\n        /* \"#utility.yul\":6734:6750   */\n      add\n        /* \"#utility.yul\":6727:6754   */\n      mstore\n        /* \"#utility.yul\":6576:6760   */\n      pop\n        /* \"#utility.yul\":6514:6760   */\n      pop\n      pop\n      pop\n      jump\t// out\n        /* \"#utility.yul\":6766:6868   */\n    tag_412:\n        /* \"#utility.yul\":6807:6813   */\n      0x00\n        /* \"#utility.yul\":6858:6860   */\n      0x1f\n        /* \"#utility.yul\":6854:6861   */\n      not\n        /* \"#utility.yul\":6849:6851   */\n      0x1f\n        /* \"#utility.yul\":6842:6847   */\n      dup4\n        /* \"#utility.yul\":6838:6852   */\n      add\n        /* \"#utility.yul\":6834:6862   */\n      and\n        /* \"#utility.yul\":6824:6862   */\n      swap1\n      pop\n        /* \"#utility.yul\":6766:6868   */\n      swap2\n      swap1\n      pop\n      jump\t// out\n        /* \"#utility.yul\":6874:7231   */\n    tag_413:\n        /* \"#utility.yul\":6952:6955   */\n      0x00\n        /* \"#utility.yul\":6980:7019   */\n      tag_560\n        /* \"#utility.yul\":7013:7018   */\n      dup3\n        /* \"#utility.yul\":6980:7019   */\n      tag_409\n      jump\t// in\n    tag_560:\n        /* \"#utility.yul\":7035:7096   */\n      tag_561\n        /* \"#utility.yul\":7089:7095   */\n      dup2\n        /* \"#utility.yul\":7084:7087   */\n      dup6\n        /* \"#utility.yul\":7035:7096   */\n      tag_410\n      jump\t// in\n    tag_561:\n        /* \"#utility.yul\":7028:7096   */\n      swap4\n      pop\n        /* \"#utility.yul\":7105:7170   */\n      tag_562\n        /* \"#utility.yul\":7163:7169   */\n      dup2\n        /* \"#utility.yul\":7158:7161   */\n      dup6\n        /* \"#utility.yul\":7151:7155   */\n      0x20\n        /* \"#utility.yul\":7144:7149   */\n      dup7\n        /* \"#utility.yul\":7140:7156   */\n      add\n        /* \"#utility.yul\":7105:7170   */\n      tag_411\n      jump\t// in\n    tag_562:\n        /* \"#utility.yul\":7195:7224   */\n      tag_563\n        /* \"#utility.yul\":7217:7223   */\n      dup2\n        /* \"#utility.yul\":7195:7224   */\n      tag_412\n      jump\t// in\n    tag_563:\n        /* \"#utility.yul\":7190:7193   */\n      dup5\n        /* \"#utility.yul\":7186:7225   */\n      add\n        /* \"#utility.yul\":7179:7225   */\n      swap2\n      pop\n        /* \"#utility.yul\":6956:7231   */\n      pop\n        /* \"#utility.yul\":6874:7231   */\n      swap3\n      swap2\n      pop\n      pop\n      jump\t// out\n        /* \"#utility.yul\":7311:9231   */\n    tag_414:\n        /* \"#utility.yul\":7438:7441   */\n      0x00\n        /* \"#utility.yul\":7474:7480   */\n      0x0120\n        /* \"#utility.yul\":7469:7472   */\n      dup4\n        /* \"#utility.yul\":7465:7481   */\n      add\n        /* \"#utility.yul\":7563:7567   */\n      0x00\n        /* \"#utility.yul\":7556:7561   */\n      dup4\n        /* \"#utility.yul\":7552:7568   */\n      add\n        /* \"#utility.yul\":7546:7569   */\n      mload\n        /* \"#utility.yul\":7616:7619   */\n      dup5\n        /* \"#utility.yul\":7610:7614   */\n      dup3\n        /* \"#utility.yul\":7606:7620   */\n      sub\n        /* \"#utility.yul\":7599:7603   */\n      0x00\n        /* \"#utility.yul\":7594:7597   */\n      dup7\n        /* \"#utility.yul\":7590:7604   */\n      add\n        /* \"#utility.yul\":7583:7621   */\n      mstore\n        /* \"#utility.yul\":7642:7715   */\n      tag_565\n        /* \"#utility.yul\":7710:7714   */\n      dup3\n        /* \"#utility.yul\":7696:7708   */\n      dup3\n        /* \"#utility.yul\":7642:7715   */\n      tag_413\n      jump\t// in\n    tag_565:\n        /* \"#utility.yul\":7634:7715   */\n      swap2\n      pop\n        /* \"#utility.yul\":7491:7726   */\n      pop\n        /* \"#utility.yul\":7808:7812   */\n      0x20\n        /* \"#utility.yul\":7801:7806   */\n      dup4\n        /* \"#utility.yul\":7797:7813   */\n      add\n        /* \"#utility.yul\":7791:7814   */\n      mload\n        /* \"#utility.yul\":7861:7864   */\n      dup5\n        /* \"#utility.yul\":7855:7859   */\n      dup3\n        /* \"#utility.yul\":7851:7865   */\n      sub\n        /* \"#utility.yul\":7844:7848   */\n      0x20\n        /* \"#utility.yul\":7839:7842   */\n      dup7\n        /* \"#utility.yul\":7835:7849   */\n      add\n        /* \"#utility.yul\":7828:7866   */\n      mstore\n        /* \"#utility.yul\":7887:7960   */\n      tag_566\n        /* \"#utility.yul\":7955:7959   */\n      dup3\n        /* \"#utility.yul\":7941:7953   */\n      dup3\n        /* \"#utility.yul\":7887:7960   */\n      tag_413\n      jump\t// in\n    tag_566:\n        /* \"#utility.yul\":7879:7960   */\n      swap2\n      pop\n        /* \"#utility.yul\":7736:7971   */\n      pop\n        /* \"#utility.yul\":8052:8056   */\n      0x40\n        /* \"#utility.yul\":8045:8050   */\n      dup4\n        /* \"#utility.yul\":8041:8057   */\n      add\n        /* \"#utility.yul\":8035:8058   */\n      mload\n        /* \"#utility.yul\":8071:8134   */\n      tag_567\n        /* \"#utility.yul\":8128:8132   */\n      0x40\n        /* \"#utility.yul\":8123:8126   */\n      dup7\n        /* \"#utility.yul\":8119:8133   */\n      add\n        /* \"#utility.yul\":8105:8117   */\n      dup3\n        /* \"#utility.yul\":8071:8134   */\n      tag_402\n      jump\t// in\n    tag_567:\n        /* \"#utility.yul\":7981:8144   */\n      pop\n        /* \"#utility.yul\":8227:8231   */\n      0x60\n        /* \"#utility.yul\":8220:8225   */\n      dup4\n        /* \"#utility.yul\":8216:8232   */\n      add\n        /* \"#utility.yul\":8210:8233   */\n      mload\n        /* \"#utility.yul\":8246:8309   */\n      tag_568\n        /* \"#utility.yul\":8303:8307   */\n      0x60\n        /* \"#utility.yul\":8298:8301   */\n      dup7\n        /* \"#utility.yul\":8294:8308   */\n      add\n        /* \"#utility.yul\":8280:8292   */\n      dup3\n        /* \"#utility.yul\":8246:8309   */\n      tag_402\n      jump\t// in\n    tag_568:\n        /* \"#utility.yul\":8154:8319   */\n      pop\n        /* \"#utility.yul\":8399:8403   */\n      0x80\n        /* \"#utility.yul\":8392:8397   */\n      dup4\n        /* \"#utility.yul\":8388:8404   */\n      add\n        /* \"#utility.yul\":8382:8405   */\n      mload\n        /* \"#utility.yul\":8418:8481   */\n      tag_569\n        /* \"#utility.yul\":8475:8479   */\n      0x80\n        /* \"#utility.yul\":8470:8473   */\n      dup7\n        /* \"#utility.yul\":8466:8480   */\n      add\n        /* \"#utility.yul\":8452:8464   */\n      dup3\n        /* \"#utility.yul\":8418:8481   */\n      tag_402\n      jump\t// in\n    tag_569:\n        /* \"#utility.yul\":8329:8491   */\n      pop\n        /* \"#utility.yul\":8579:8583   */\n      0xa0\n        /* \"#utility.yul\":8572:8577   */\n      dup4\n        /* \"#utility.yul\":8568:8584   */\n      add\n        /* \"#utility.yul\":8562:8585   */\n      mload\n        /* \"#utility.yul\":8598:8661   */\n      tag_570\n        /* \"#utility.yul\":8655:8659   */\n      0xa0\n        /* \"#utility.yul\":8650:8653   */\n      dup7\n        /* \"#utility.yul\":8646:8660   */\n      add\n        /* \"#utility.yul\":8632:8644   */\n      dup3\n        /* \"#utility.yul\":8598:8661   */\n      tag_402\n      jump\t// in\n    tag_570:\n        /* \"#utility.yul\":8501:8671   */\n      pop\n        /* \"#utility.yul\":8758:8762   */\n      0xc0\n        /* \"#utility.yul\":8751:8756   */\n      dup4\n        /* \"#utility.yul\":8747:8763   */\n      add\n        /* \"#utility.yul\":8741:8764   */\n      mload\n        /* \"#utility.yul\":8777:8840   */\n      tag_571\n        /* \"#utility.yul\":8834:8838   */\n      0xc0\n        /* \"#utility.yul\":8829:8832   */\n      dup7\n        /* \"#utility.yul\":8825:8839   */\n      add\n        /* \"#utility.yul\":8811:8823   */\n      dup3\n        /* \"#utility.yul\":8777:8840   */\n      tag_402\n      jump\t// in\n    tag_571:\n        /* \"#utility.yul\":8681:8850   */\n      pop\n        /* \"#utility.yul\":8932:8936   */\n      0xe0\n        /* \"#utility.yul\":8925:8930   */\n      dup4\n        /* \"#utility.yul\":8921:8937   */\n      add\n        /* \"#utility.yul\":8915:8938   */\n      mload\n        /* \"#utility.yul\":8951:9014   */\n      tag_572\n        /* \"#utility.yul\":9008:9012   */\n      0xe0\n        /* \"#utility.yul\":9003:9006   */\n      dup7\n        /* \"#utility.yul\":8999:9013   */\n      add\n        /* \"#utility.yul\":8985:8997   */\n      dup3\n        /* \"#utility.yul\":8951:9014   */\n      tag_402\n      jump\t// in\n    tag_572:\n        /* \"#utility.yul\":8860:9024   */\n      pop\n        /* \"#utility.yul\":9108:9114   */\n      0x0100\n        /* \"#utility.yul\":9101:9106   */\n      dup4\n        /* \"#utility.yul\":9097:9115   */\n      add\n        /* \"#utility.yul\":9091:9116   */\n      mload\n        /* \"#utility.yul\":9129:9194   */\n      tag_573\n        /* \"#utility.yul\":9186:9192   */\n      0x0100\n        /* \"#utility.yul\":9181:9184   */\n      dup7\n        /* \"#utility.yul\":9177:9193   */\n      add\n        /* \"#utility.yul\":9163:9175   */\n      dup3\n        /* \"#utility.yul\":9129:9194   */\n      tag_402\n      jump\t// in\n    tag_573:\n        /* \"#utility.yul\":9034:9204   */\n      pop\n        /* \"#utility.yul\":9221:9225   */\n      dup1\n        /* \"#utility.yul\":9214:9225   */\n      swap2\n      pop\n        /* \"#utility.yul\":7443:9231   */\n      pop\n        /* \"#utility.yul\":7311:9231   */\n      swap3\n      swap2\n      pop\n      pop\n      jump\t// out\n        /* \"#utility.yul\":9237:9626   */\n    tag_73:\n        /* \"#utility.yul\":9388:9392   */\n      0x00\n        /* \"#utility.yul\":9426:9428   */\n      0x20\n        /* \"#utility.yul\":9415:9424   */\n      dup3\n        /* \"#utility.yul\":9411:9429   */\n      add\n        /* \"#utility.yul\":9403:9429   */\n      swap1\n      pop\n        /* \"#utility.yul\":9475:9484   */\n      dup2\n        /* \"#utility.yul\":9469:9473   */\n      dup2\n        /* \"#utility.yul\":9465:9485   */\n      sub\n        /* \"#utility.yul\":9461:9462   */\n      0x00\n        /* \"#utility.yul\":9450:9459   */\n      dup4\n        /* \"#utility.yul\":9446:9463   */\n      add\n        /* \"#utility.yul\":9439:9486   */\n      mstore\n        /* \"#utility.yul\":9503:9619   */\n      tag_575\n        /* \"#utility.yul\":9614:9618   */\n      dup2\n        /* \"#utility.yul\":9605:9611   */\n      dup5\n        /* \"#utility.yul\":9503:9619   */\n      tag_414\n      jump\t// in\n    tag_575:\n        /* \"#utility.yul\":9495:9619   */\n      swap1\n      pop\n        /* \"#utility.yul\":9237:9626   */\n      swap3\n      swap2\n      pop\n      pop\n      jump\t// out\n        /* \"#utility.yul\":9632:9750   */\n    tag_415:\n        /* \"#utility.yul\":9719:9743   */\n      tag_577\n        /* \"#utility.yul\":9737:9742   */\n      dup2\n        /* \"#utility.yul\":9719:9743   */\n      tag_393\n      jump\t// in\n    tag_577:\n        /* \"#utility.yul\":9714:9717   */\n      dup3\n        /* \"#utility.yul\":9707:9744   */\n      mstore\n        /* \"#utility.yul\":9632:9750   */\n      pop\n      pop\n      jump\t// out\n        /* \"#utility.yul\":9756:9978   */\n    tag_84:\n        /* \"#utility.yul\":9849:9853   */\n      0x00\n        /* \"#utility.yul\":9887:9889   */\n      0x20\n        /* \"#utility.yul\":9876:9885   */\n      dup3\n        /* \"#utility.yul\":9872:9890   */\n      add\n        /* \"#utility.yul\":9864:9890   */\n      swap1\n      pop\n        /* \"#utility.yul\":9900:9971   */\n      tag_579\n        /* \"#utility.yul\":9968:9969   */\n      0x00\n        /* \"#utility.yul\":9957:9966   */\n      dup4\n        /* \"#utility.yul\":9953:9970   */\n      add\n        /* \"#utility.yul\":9944:9950   */\n      dup5\n        /* \"#utility.yul\":9900:9971   */\n      tag_415\n      jump\t// in\n    tag_579:\n        /* \"#utility.yul\":9756:9978   */\n      swap3\n      swap2\n      pop\n      pop\n      jump\t// out\n        /* \"#utility.yul\":9984:10101   */\n    tag_416:\n        /* \"#utility.yul\":10093:10094   */\n      0x00\n        /* \"#utility.yul\":10090:10091   */\n      dup1\n        /* \"#utility.yul\":10083:10095   */\n      revert\n        /* \"#utility.yul\":10107:10224   */\n    tag_417:\n        /* \"#utility.yul\":10216:10217   */\n      0x00\n        /* \"#utility.yul\":10213:10214   */\n      dup1\n        /* \"#utility.yul\":10206:10218   */\n      revert\n        /* \"#utility.yul\":10230:10410   */\n    tag_119:\n        /* \"#utility.yul\":10278:10355   */\n      0x4e487b7100000000000000000000000000000000000000000000000000000000\n        /* \"#utility.yul\":10275:10276   */\n      0x00\n        /* \"#utility.yul\":10268:10356   */\n      mstore\n        /* \"#utility.yul\":10375:10379   */\n      0x41\n        /* \"#utility.yul\":10372:10373   */\n      0x04\n        /* \"#utility.yul\":10365:10380   */\n      mstore\n        /* \"#utility.yul\":10399:10403   */\n      0x24\n        /* \"#utility.yul\":10396:10397   */\n      0x00\n        /* \"#utility.yul\":10389:10404   */\n      revert\n        /* \"#utility.yul\":10416:10697   */\n    tag_418:\n        /* \"#utility.yul\":10499:10526   */\n      tag_584\n        /* \"#utility.yul\":10521:10525   */\n      dup3\n        /* \"#utility.yul\":10499:10526   */\n      tag_412\n      jump\t// in\n    tag_584:\n        /* \"#utility.yul\":10491:10497   */\n      dup2\n        /* \"#utility.yul\":10487:10527   */\n      add\n        /* \"#utility.yul\":10629:10635   */\n      dup2\n        /* \"#utility.yul\":10617:10627   */\n      dup2\n        /* \"#utility.yul\":10614:10636   */\n      lt\n        /* \"#utility.yul\":10593:10611   */\n      0xffffffffffffffff\n        /* \"#utility.yul\":10581:10591   */\n      dup3\n        /* \"#utility.yul\":10578:10612   */\n      gt\n        /* \"#utility.yul\":10575:10637   */\n      or\n        /* \"#utility.yul\":10572:10660   */\n      iszero\n      tag_585\n      jumpi\n        /* \"#utility.yul\":10640:10658   */\n      tag_586\n      tag_119\n      jump\t// in\n    tag_586:\n        /* \"#utility.yul\":10572:10660   */\n    tag_585:\n        /* \"#utility.yul\":10680:10690   */\n      dup1\n        /* \"#utility.yul\":10676:10678   */\n      0x40\n        /* \"#utility.yul\":10669:10691   */\n      mstore\n        /* \"#utility.yul\":10459:10697   */\n      pop\n        /* \"#utility.yul\":10416:10697   */\n      pop\n      pop\n      jump\t// out\n        /* \"#utility.yul\":10703:10832   */\n    tag_419:\n        /* \"#utility.yul\":10737:10743   */\n      0x00\n        /* \"#utility.yul\":10764:10784   */\n      tag_588\n      tag_389\n      jump\t// in\n    tag_588:\n        /* \"#utility.yul\":10754:10784   */\n      swap1\n      pop\n        /* \"#utility.yul\":10793:10826   */\n      tag_589\n        /* \"#utility.yul\":10821:10825   */\n      dup3\n        /* \"#utility.yul\":10813:10819   */\n      dup3\n        /* \"#utility.yul\":10793:10826   */\n      tag_418\n      jump\t// in\n    tag_589:\n        /* \"#utility.yul\":10703:10832   */\n      swap2\n      swap1\n      pop\n      jump\t// out\n        /* \"#utility.yul\":10838:11146   */\n    tag_420:\n        /* \"#utility.yul\":10900:10904   */\n      0x00\n        /* \"#utility.yul\":10990:11008   */\n      0xffffffffffffffff\n        /* \"#utility.yul\":10982:10988   */\n      dup3\n        /* \"#utility.yul\":10979:11009   */\n      gt\n        /* \"#utility.yul\":10976:11032   */\n      iszero\n      tag_591\n      jumpi\n        /* \"#utility.yul\":11012:11030   */\n      tag_592\n      tag_119\n      jump\t// in\n    tag_592:\n        /* \"#utility.yul\":10976:11032   */\n    tag_591:\n        /* \"#utility.yul\":11050:11079   */\n      tag_593\n        /* \"#utility.yul\":11072:11078   */\n      dup3\n        /* \"#utility.yul\":11050:11079   */\n      tag_412\n      jump\t// in\n    tag_593:\n        /* \"#utility.yul\":11042:11079   */\n      swap1\n      pop\n        /* \"#utility.yul\":11134:11138   */\n      0x20\n        /* \"#utility.yul\":11128:11132   */\n      dup2\n        /* \"#utility.yul\":11124:11139   */\n      add\n        /* \"#utility.yul\":11116:11139   */\n      swap1\n      pop\n        /* \"#utility.yul\":10838:11146   */\n      swap2\n      swap1\n      pop\n      jump\t// out\n        /* \"#utility.yul\":11152:11298   */\n    tag_421:\n        /* \"#utility.yul\":11249:11255   */\n      dup3\n        /* \"#utility.yul\":11244:11247   */\n      dup2\n        /* \"#utility.yul\":11239:11242   */\n      dup4\n        /* \"#utility.yul\":11226:11256   */\n      calldatacopy\n        /* \"#utility.yul\":11290:11291   */\n      0x00\n        /* \"#utility.yul\":11281:11287   */\n      dup4\n        /* \"#utility.yul\":11276:11279   */\n      dup4\n        /* \"#utility.yul\":11272:11288   */\n      add\n        /* \"#utility.yul\":11265:11292   */\n      mstore\n        /* \"#utility.yul\":11152:11298   */\n      pop\n      pop\n      pop\n      jump\t// out\n        /* \"#utility.yul\":11304:11729   */\n    tag_422:\n        /* \"#utility.yul\":11382:11387   */\n      0x00\n        /* \"#utility.yul\":11407:11473   */\n      tag_596\n        /* \"#utility.yul\":11423:11472   */\n      tag_597\n        /* \"#utility.yul\":11465:11471   */\n      dup5\n        /* \"#utility.yul\":11423:11472   */\n      tag_420\n      jump\t// in\n    tag_597:\n        /* \"#utility.yul\":11407:11473   */\n      tag_419\n      jump\t// in\n    tag_596:\n        /* \"#utility.yul\":11398:11473   */\n      swap1\n      pop\n        /* \"#utility.yul\":11496:11502   */\n      dup3\n        /* \"#utility.yul\":11489:11494   */\n      dup2\n        /* \"#utility.yul\":11482:11503   */\n      mstore\n        /* \"#utility.yul\":11534:11538   */\n      0x20\n        /* \"#utility.yul\":11527:11532   */\n      dup2\n        /* \"#utility.yul\":11523:11539   */\n      add\n        /* \"#utility.yul\":11572:11575   */\n      dup5\n        /* \"#utility.yul\":11563:11569   */\n      dup5\n        /* \"#utility.yul\":11558:11561   */\n      dup5\n        /* \"#utility.yul\":11554:11570   */\n      add\n        /* \"#utility.yul\":11551:11576   */\n      gt\n        /* \"#utility.yul\":11548:11660   */\n      iszero\n      tag_598\n      jumpi\n        /* \"#utility.yul\":11579:11658   */\n      tag_599\n      tag_417\n      jump\t// in\n    tag_599:\n        /* \"#utility.yul\":11548:11660   */\n    tag_598:\n        /* \"#utility.yul\":11669:11723   */\n      tag_600\n        /* \"#utility.yul\":11716:11722   */\n      dup5\n        /* \"#utility.yul\":11711:11714   */\n      dup3\n        /* \"#utility.yul\":11706:11709   */\n      dup6\n        /* \"#utility.yul\":11669:11723   */\n      tag_421\n      jump\t// in\n    tag_600:\n        /* \"#utility.yul\":11388:11729   */\n      pop\n        /* \"#utility.yul\":11304:11729   */\n      swap4\n      swap3\n      pop\n      pop\n      pop\n      jump\t// out\n        /* \"#utility.yul\":11749:12089   */\n    tag_423:\n        /* \"#utility.yul\":11805:11810   */\n      0x00\n        /* \"#utility.yul\":11854:11857   */\n      dup3\n        /* \"#utility.yul\":11847:11851   */\n      0x1f\n        /* \"#utility.yul\":11839:11845   */\n      dup4\n        /* \"#utility.yul\":11835:11852   */\n      add\n        /* \"#utility.yul\":11831:11858   */\n      slt\n        /* \"#utility.yul\":11821:11943   */\n      tag_602\n      jumpi\n        /* \"#utility.yul\":11862:11941   */\n      tag_603\n      tag_416\n      jump\t// in\n    tag_603:\n        /* \"#utility.yul\":11821:11943   */\n    tag_602:\n        /* \"#utility.yul\":11979:11985   */\n      dup2\n        /* \"#utility.yul\":11966:11986   */\n      calldataload\n        /* \"#utility.yul\":12004:12083   */\n      tag_604\n        /* \"#utility.yul\":12079:12082   */\n      dup5\n        /* \"#utility.yul\":12071:12077   */\n      dup3\n        /* \"#utility.yul\":12064:12068   */\n      0x20\n        /* \"#utility.yul\":12056:12062   */\n      dup7\n        /* \"#utility.yul\":12052:12069   */\n      add\n        /* \"#utility.yul\":12004:12083   */\n      tag_422\n      jump\t// in\n    tag_604:\n        /* \"#utility.yul\":11995:12083   */\n      swap2\n      pop\n        /* \"#utility.yul\":11811:12089   */\n      pop\n        /* \"#utility.yul\":11749:12089   */\n      swap3\n      swap2\n      pop\n      pop\n      jump\t// out\n        /* \"#utility.yul\":12095:12929   */\n    tag_87:\n        /* \"#utility.yul\":12183:12189   */\n      0x00\n        /* \"#utility.yul\":12191:12197   */\n      dup1\n        /* \"#utility.yul\":12240:12242   */\n      0x40\n        /* \"#utility.yul\":12228:12237   */\n      dup4\n        /* \"#utility.yul\":12219:12226   */\n      dup6\n        /* \"#utility.yul\":12215:12238   */\n      sub\n        /* \"#utility.yul\":12211:12243   */\n      slt\n        /* \"#utility.yul\":12208:12327   */\n      iszero\n      tag_606\n      jumpi\n        /* \"#utility.yul\":12246:12325   */\n      tag_607\n      tag_390\n      jump\t// in\n    tag_607:\n        /* \"#utility.yul\":12208:12327   */\n    tag_606:\n        /* \"#utility.yul\":12394:12395   */\n      0x00\n        /* \"#utility.yul\":12383:12392   */\n      dup4\n        /* \"#utility.yul\":12379:12396   */\n      add\n        /* \"#utility.yul\":12366:12397   */\n      calldataload\n        /* \"#utility.yul\":12424:12442   */\n      0xffffffffffffffff\n        /* \"#utility.yul\":12416:12422   */\n      dup2\n        /* \"#utility.yul\":12413:12443   */\n      gt\n        /* \"#utility.yul\":12410:12527   */\n      iszero\n      tag_608\n      jumpi\n        /* \"#utility.yul\":12446:12525   */\n      tag_609\n      tag_391\n      jump\t// in\n    tag_609:\n        /* \"#utility.yul\":12410:12527   */\n    tag_608:\n        /* \"#utility.yul\":12551:12614   */\n      tag_610\n        /* \"#utility.yul\":12606:12613   */\n      dup6\n        /* \"#utility.yul\":12597:12603   */\n      dup3\n        /* \"#utility.yul\":12586:12595   */\n      dup7\n        /* \"#utility.yul\":12582:12604   */\n      add\n        /* \"#utility.yul\":12551:12614   */\n      tag_423\n      jump\t// in\n    tag_610:\n        /* \"#utility.yul\":12541:12614   */\n      swap3\n      pop\n        /* \"#utility.yul\":12337:12624   */\n      pop\n        /* \"#utility.yul\":12691:12693   */\n      0x20\n        /* \"#utility.yul\":12680:12689   */\n      dup4\n        /* \"#utility.yul\":12676:12694   */\n      add\n        /* \"#utility.yul\":12663:12695   */\n      calldataload\n        /* \"#utility.yul\":12722:12740   */\n      0xffffffffffffffff\n        /* \"#utility.yul\":12714:12720   */\n      dup2\n        /* \"#utility.yul\":12711:12741   */\n      gt\n        /* \"#utility.yul\":12708:12825   */\n      iszero\n      tag_611\n      jumpi\n        /* \"#utility.yul\":12744:12823   */\n      tag_612\n      tag_391\n      jump\t// in\n    tag_612:\n        /* \"#utility.yul\":12708:12825   */\n    tag_611:\n        /* \"#utility.yul\":12849:12912   */\n      tag_613\n        /* \"#utility.yul\":12904:12911   */\n      dup6\n        /* \"#utility.yul\":12895:12901   */\n      dup3\n        /* \"#utility.yul\":12884:12893   */\n      dup7\n        /* \"#utility.yul\":12880:12902   */\n      add\n        /* \"#utility.yul\":12849:12912   */\n      tag_423\n      jump\t// in\n    tag_613:\n        /* \"#utility.yul\":12839:12912   */\n      swap2\n      pop\n        /* \"#utility.yul\":12634:12922   */\n      pop\n        /* \"#utility.yul\":12095:12929   */\n      swap3\n      pop\n      swap3\n      swap1\n      pop\n      jump\t// out\n        /* \"#utility.yul\":12935:13104   */\n    tag_424:\n        /* \"#utility.yul\":13019:13030   */\n      0x00\n        /* \"#utility.yul\":13053:13059   */\n      dup3\n        /* \"#utility.yul\":13048:13051   */\n      dup3\n        /* \"#utility.yul\":13041:13060   */\n      mstore\n        /* \"#utility.yul\":13093:13097   */\n      0x20\n        /* \"#utility.yul\":13088:13091   */\n      dup3\n        /* \"#utility.yul\":13084:13098   */\n      add\n        /* \"#utility.yul\":13069:13098   */\n      swap1\n      pop\n        /* \"#utility.yul\":12935:13104   */\n      swap3\n      swap2\n      pop\n      pop\n      jump\t// out\n        /* \"#utility.yul\":13110:13271   */\n    tag_425:\n        /* \"#utility.yul\":13250:13263   */\n      0x4f6e6c79204f776e65722e000000000000000000000000000000000000000000\n        /* \"#utility.yul\":13246:13247   */\n      0x00\n        /* \"#utility.yul\":13238:13244   */\n      dup3\n        /* \"#utility.yul\":13234:13248   */\n      add\n        /* \"#utility.yul\":13227:13264   */\n      mstore\n        /* \"#utility.yul\":13110:13271   */\n      pop\n      jump\t// out\n        /* \"#utility.yul\":13277:13643   */\n    tag_426:\n        /* \"#utility.yul\":13419:13422   */\n      0x00\n        /* \"#utility.yul\":13440:13507   */\n      tag_617\n        /* \"#utility.yul\":13504:13506   */\n      0x0b\n        /* \"#utility.yul\":13499:13502   */\n      dup4\n        /* \"#utility.yul\":13440:13507   */\n      tag_424\n      jump\t// in\n    tag_617:\n        /* \"#utility.yul\":13433:13507   */\n      swap2\n      pop\n        /* \"#utility.yul\":13516:13609   */\n      tag_618\n        /* \"#utility.yul\":13605:13608   */\n      dup3\n        /* \"#utility.yul\":13516:13609   */\n      tag_425\n      jump\t// in\n    tag_618:\n        /* \"#utility.yul\":13634:13636   */\n      0x20\n        /* \"#utility.yul\":13629:13632   */\n      dup3\n        /* \"#utility.yul\":13625:13637   */\n      add\n        /* \"#utility.yul\":13618:13637   */\n      swap1\n      pop\n        /* \"#utility.yul\":13277:13643   */\n      swap2\n      swap1\n      pop\n      jump\t// out\n        /* \"#utility.yul\":13649:14068   */\n    tag_105:\n        /* \"#utility.yul\":13815:13819   */\n      0x00\n        /* \"#utility.yul\":13853:13855   */\n      0x20\n        /* \"#utility.yul\":13842:13851   */\n      dup3\n        /* \"#utility.yul\":13838:13856   */\n      add\n        /* \"#utility.yul\":13830:13856   */\n      swap1\n      pop\n        /* \"#utility.yul\":13902:13911   */\n      dup2\n        /* \"#utility.yul\":13896:13900   */\n      dup2\n        /* \"#utility.yul\":13892:13912   */\n      sub\n        /* \"#utility.yul\":13888:13889   */\n      0x00\n        /* \"#utility.yul\":13877:13886   */\n      dup4\n        /* \"#utility.yul\":13873:13890   */\n      add\n        /* \"#utility.yul\":13866:13913   */\n      mstore\n        /* \"#utility.yul\":13930:14061   */\n      tag_620\n        /* \"#utility.yul\":14056:14060   */\n      dup2\n        /* \"#utility.yul\":13930:14061   */\n      tag_426\n      jump\t// in\n    tag_620:\n        /* \"#utility.yul\":13922:14061   */\n      swap1\n      pop\n        /* \"#utility.yul\":13649:14068   */\n      swap2\n      swap1\n      pop\n      jump\t// out\n        /* \"#utility.yul\":14074:14254   */\n    tag_427:\n        /* \"#utility.yul\":14122:14199   */\n      0x4e487b7100000000000000000000000000000000000000000000000000000000\n        /* \"#utility.yul\":14119:14120   */\n      0x00\n        /* \"#utility.yul\":14112:14200   */\n      mstore\n        /* \"#utility.yul\":14219:14223   */\n      0x12\n        /* \"#utility.yul\":14216:14217   */\n      0x04\n        /* \"#utility.yul\":14209:14224   */\n      mstore\n        /* \"#utility.yul\":14243:14247   */\n      0x24\n        /* \"#utility.yul\":14240:14241   */\n      0x00\n        /* \"#utility.yul\":14233:14248   */\n      revert\n        /* \"#utility.yul\":14260:14436   */\n    tag_113:\n        /* \"#utility.yul\":14292:14293   */\n      0x00\n        /* \"#utility.yul\":14309:14329   */\n      tag_623\n        /* \"#utility.yul\":14327:14328   */\n      dup3\n        /* \"#utility.yul\":14309:14329   */\n      tag_396\n      jump\t// in\n    tag_623:\n        /* \"#utility.yul\":14304:14329   */\n      swap2\n      pop\n        /* \"#utility.yul\":14343:14363   */\n      tag_624\n        /* \"#utility.yul\":14361:14362   */\n      dup4\n        /* \"#utility.yul\":14343:14363   */\n      tag_396\n      jump\t// in\n    tag_624:\n        /* \"#utility.yul\":14338:14363   */\n      swap3\n      pop\n        /* \"#utility.yul\":14382:14383   */\n      dup3\n        /* \"#utility.yul\":14372:14407   */\n      tag_625\n      jumpi\n        /* \"#utility.yul\":14387:14405   */\n      tag_626\n      tag_427\n      jump\t// in\n    tag_626:\n        /* \"#utility.yul\":14372:14407   */\n    tag_625:\n        /* \"#utility.yul\":14428:14429   */\n      dup3\n        /* \"#utility.yul\":14425:14426   */\n      dup3\n        /* \"#utility.yul\":14421:14430   */\n      mod\n        /* \"#utility.yul\":14416:14430   */\n      swap1\n      pop\n        /* \"#utility.yul\":14260:14436   */\n      swap3\n      swap2\n      pop\n      pop\n      jump\t// out\n        /* \"#utility.yul\":14442:14622   */\n    tag_428:\n        /* \"#utility.yul\":14490:14567   */\n      0x4e487b7100000000000000000000000000000000000000000000000000000000\n        /* \"#utility.yul\":14487:14488   */\n      0x00\n        /* \"#utility.yul\":14480:14568   */\n      mstore\n        /* \"#utility.yul\":14587:14591   */\n      0x11\n        /* \"#utility.yul\":14584:14585   */\n      0x04\n        /* \"#utility.yul\":14577:14592   */\n      mstore\n        /* \"#utility.yul\":14611:14615   */\n      0x24\n        /* \"#utility.yul\":14608:14609   */\n      0x00\n        /* \"#utility.yul\":14601:14616   */\n      revert\n        /* \"#utility.yul\":14628:14819   */\n    tag_115:\n        /* \"#utility.yul\":14668:14671   */\n      0x00\n        /* \"#utility.yul\":14687:14707   */\n      tag_629\n        /* \"#utility.yul\":14705:14706   */\n      dup3\n        /* \"#utility.yul\":14687:14707   */\n      tag_396\n      jump\t// in\n    tag_629:\n        /* \"#utility.yul\":14682:14707   */\n      swap2\n      pop\n        /* \"#utility.yul\":14721:14741   */\n      tag_630\n        /* \"#utility.yul\":14739:14740   */\n      dup4\n        /* \"#utility.yul\":14721:14741   */\n      tag_396\n      jump\t// in\n    tag_630:\n        /* \"#utility.yul\":14716:14741   */\n      swap3\n      pop\n        /* \"#utility.yul\":14764:14765   */\n      dup3\n        /* \"#utility.yul\":14761:14762   */\n      dup3\n        /* \"#utility.yul\":14757:14766   */\n      add\n        /* \"#utility.yul\":14750:14766   */\n      swap1\n      pop\n        /* \"#utility.yul\":14785:14788   */\n      dup1\n        /* \"#utility.yul\":14782:14783   */\n      dup3\n        /* \"#utility.yul\":14779:14789   */\n      gt\n        /* \"#utility.yul\":14776:14812   */\n      iszero\n      tag_631\n      jumpi\n        /* \"#utility.yul\":14792:14810   */\n      tag_632\n      tag_428\n      jump\t// in\n    tag_632:\n        /* \"#utility.yul\":14776:14812   */\n    tag_631:\n        /* \"#utility.yul\":14628:14819   */\n      swap3\n      swap2\n      pop\n      pop\n      jump\t// out\n        /* \"#utility.yul\":14825:15005   */\n    tag_127:\n        /* \"#utility.yul\":14873:14950   */\n      0x4e487b7100000000000000000000000000000000000000000000000000000000\n        /* \"#utility.yul\":14870:14871   */\n      0x00\n        /* \"#utility.yul\":14863:14951   */\n      mstore\n        /* \"#utility.yul\":14970:14974   */\n      0x32\n        /* \"#utility.yul\":14967:14968   */\n      0x04\n        /* \"#utility.yul\":14960:14975   */\n      mstore\n        /* \"#utility.yul\":14994:14998   */\n      0x24\n        /* \"#utility.yul\":14991:14992   */\n      0x00\n        /* \"#utility.yul\":14984:14999   */\n      revert\n        /* \"#utility.yul\":15011:15244   */\n    tag_129:\n        /* \"#utility.yul\":15050:15053   */\n      0x00\n        /* \"#utility.yul\":15073:15097   */\n      tag_635\n        /* \"#utility.yul\":15091:15096   */\n      dup3\n        /* \"#utility.yul\":15073:15097   */\n      tag_396\n      jump\t// in\n    tag_635:\n        /* \"#utility.yul\":15064:15097   */\n      swap2\n      pop\n        /* \"#utility.yul\":15119:15185   */\n      0xffffffffffffffffffffffffffffffffffffffffffffffffffffffffffffffff\n        /* \"#utility.yul\":15112:15117   */\n      dup3\n        /* \"#utility.yul\":15109:15186   */\n      sub\n        /* \"#utility.yul\":15106:15209   */\n      tag_636\n      jumpi\n        /* \"#utility.yul\":15189:15207   */\n      tag_637\n      tag_428\n      jump\t// in\n    tag_637:\n        /* \"#utility.yul\":15106:15209   */\n    tag_636:\n        /* \"#utility.yul\":15236:15237   */\n      0x01\n        /* \"#utility.yul\":15229:15234   */\n      dup3\n        /* \"#utility.yul\":15225:15238   */\n      add\n        /* \"#utility.yul\":15218:15238   */\n      swap1\n      pop\n        /* \"#utility.yul\":15011:15244   */\n      swap2\n      swap1\n      pop\n      jump\t// out\n        /* \"#utility.yul\":15250:15422   */\n    tag_429:\n        /* \"#utility.yul\":15390:15414   */\n      0x4e6f77206964206973206e6f74206f6e2072656e742e00000000000000000000\n        /* \"#utility.yul\":15386:15387   */\n      0x00\n        /* \"#utility.yul\":15378:15384   */\n      dup3\n        /* \"#utility.yul\":15374:15388   */\n      add\n        /* \"#utility.yul\":15367:15415   */\n      mstore\n        /* \"#utility.yul\":15250:15422   */\n      pop\n      jump\t// out\n        /* \"#utility.yul\":15428:15794   */\n    tag_430:\n        /* \"#utility.yul\":15570:15573   */\n      0x00\n        /* \"#utility.yul\":15591:15658   */\n      tag_640\n        /* \"#utility.yul\":15655:15657   */\n      0x16\n        /* \"#utility.yul\":15650:15653   */\n      dup4\n        /* \"#utility.yul\":15591:15658   */\n      tag_424\n      jump\t// in\n    tag_640:\n        /* \"#utility.yul\":15584:15658   */\n      swap2\n      pop\n        /* \"#utility.yul\":15667:15760   */\n      tag_641\n        /* \"#utility.yul\":15756:15759   */\n      dup3\n        /* \"#utility.yul\":15667:15760   */\n      tag_429\n      jump\t// in\n    tag_641:\n        /* \"#utility.yul\":15785:15787   */\n      0x20\n        /* \"#utility.yul\":15780:15783   */\n      dup3\n        /* \"#utility.yul\":15776:15788   */\n      add\n        /* \"#utility.yul\":15769:15788   */\n      swap1\n      pop\n        /* \"#utility.yul\":15428:15794   */\n      swap2\n      swap1\n      pop\n      jump\t// out\n        /* \"#utility.yul\":15800:16219   */\n    tag_136:\n        /* \"#utility.yul\":15966:15970   */\n      0x00\n        /* \"#utility.yul\":16004:16006   */\n      0x20\n        /* \"#utility.yul\":15993:16002   */\n      dup3\n        /* \"#utility.yul\":15989:16007   */\n      add\n        /* \"#utility.yul\":15981:16007   */\n      swap1\n      pop\n        /* \"#utility.yul\":16053:16062   */\n      dup2\n        /* \"#utility.yul\":16047:16051   */\n      dup2\n        /* \"#utility.yul\":16043:16063   */\n      sub\n        /* \"#utility.yul\":16039:16040   */\n      0x00\n        /* \"#utility.yul\":16028:16037   */\n      dup4\n        /* \"#utility.yul\":16024:16041   */\n      add\n        /* \"#utility.yul\":16017:16064   */\n      mstore\n        /* \"#utility.yul\":16081:16212   */\n      tag_643\n        /* \"#utility.yul\":16207:16211   */\n      dup2\n        /* \"#utility.yul\":16081:16212   */\n      tag_430\n      jump\t// in\n    tag_643:\n        /* \"#utility.yul\":16073:16212   */\n      swap1\n      pop\n        /* \"#utility.yul\":15800:16219   */\n      swap2\n      swap1\n      pop\n      jump\t// out\n        /* \"#utility.yul\":16225:16393   */\n    tag_431:\n        /* \"#utility.yul\":16365:16385   */\n      0x596f7520646f6e742068617665206e66742e0000000000000000000000000000\n        /* \"#utility.yul\":16361:16362   */\n      0x00\n        /* \"#utility.yul\":16353:16359   */\n      dup3\n        /* \"#utility.yul\":16349:16363   */\n      add\n        /* \"#utility.yul\":16342:16386   */\n      mstore\n        /* \"#utility.yul\":16225:16393   */\n      pop\n      jump\t// out\n        /* \"#utility.yul\":16399:16765   */\n    tag_432:\n        /* \"#utility.yul\":16541:16544   */\n      0x00\n        /* \"#utility.yul\":16562:16629   */\n      tag_646\n        /* \"#utility.yul\":16626:16628   */\n      0x12\n        /* \"#utility.yul\":16621:16624   */\n      dup4\n        /* \"#utility.yul\":16562:16629   */\n      tag_424\n      jump\t// in\n    tag_646:\n        /* \"#utility.yul\":16555:16629   */\n      swap2\n      pop\n        /* \"#utility.yul\":16638:16731   */\n      tag_647\n        /* \"#utility.yul\":16727:16730   */\n      dup3\n        /* \"#utility.yul\":16638:16731   */\n      tag_431\n      jump\t// in\n    tag_647:\n        /* \"#utility.yul\":16756:16758   */\n      0x20\n        /* \"#utility.yul\":16751:16754   */\n      dup3\n        /* \"#utility.yul\":16747:16759   */\n      add\n        /* \"#utility.yul\":16740:16759   */\n      swap1\n      pop\n        /* \"#utility.yul\":16399:16765   */\n      swap2\n      swap1\n      pop\n      jump\t// out\n        /* \"#utility.yul\":16771:17190   */\n    tag_157:\n        /* \"#utility.yul\":16937:16941   */\n      0x00\n        /* \"#utility.yul\":16975:16977   */\n      0x20\n        /* \"#utility.yul\":16964:16973   */\n      dup3\n        /* \"#utility.yul\":16960:16978   */\n      add\n        /* \"#utility.yul\":16952:16978   */\n      swap1\n      pop\n        /* \"#utility.yul\":17024:17033   */\n      dup2\n        /* \"#utility.yul\":17018:17022   */\n      dup2\n        /* \"#utility.yul\":17014:17034   */\n      sub\n        /* \"#utility.yul\":17010:17011   */\n      0x00\n        /* \"#utility.yul\":16999:17008   */\n      dup4\n        /* \"#utility.yul\":16995:17012   */\n      add\n        /* \"#utility.yul\":16988:17035   */\n      mstore\n        /* \"#utility.yul\":17052:17183   */\n      tag_649\n        /* \"#utility.yul\":17178:17182   */\n      dup2\n        /* \"#utility.yul\":17052:17183   */\n      tag_432\n      jump\t// in\n    tag_649:\n        /* \"#utility.yul\":17044:17183   */\n      swap1\n      pop\n        /* \"#utility.yul\":16771:17190   */\n      swap2\n      swap1\n      pop\n      jump\t// out\n        /* \"#utility.yul\":17196:17376   */\n    tag_433:\n        /* \"#utility.yul\":17244:17321   */\n      0x4e487b7100000000000000000000000000000000000000000000000000000000\n        /* \"#utility.yul\":17241:17242   */\n      0x00\n        /* \"#utility.yul\":17234:17322   */\n      mstore\n        /* \"#utility.yul\":17341:17345   */\n      0x22\n        /* \"#utility.yul\":17338:17339   */\n      0x04\n        /* \"#utility.yul\":17331:17346   */\n      mstore\n        /* \"#utility.yul\":17365:17369   */\n      0x24\n        /* \"#utility.yul\":17362:17363   */\n      0x00\n        /* \"#utility.yul\":17355:17370   */\n      revert\n        /* \"#utility.yul\":17382:17702   */\n    tag_196:\n        /* \"#utility.yul\":17426:17432   */\n      0x00\n        /* \"#utility.yul\":17463:17464   */\n      0x02\n        /* \"#utility.yul\":17457:17461   */\n      dup3\n        /* \"#utility.yul\":17453:17465   */\n      div\n        /* \"#utility.yul\":17443:17465   */\n      swap1\n      pop\n        /* \"#utility.yul\":17510:17511   */\n      0x01\n        /* \"#utility.yul\":17504:17508   */\n      dup3\n        /* \"#utility.yul\":17500:17512   */\n      and\n        /* \"#utility.yul\":17531:17549   */\n      dup1\n        /* \"#utility.yul\":17521:17602   */\n      tag_652\n      jumpi\n        /* \"#utility.yul\":17587:17591   */\n      0x7f\n        /* \"#utility.yul\":17579:17585   */\n      dup3\n        /* \"#utility.yul\":17575:17592   */\n      and\n        /* \"#utility.yul\":17565:17592   */\n      swap2\n      pop\n        /* \"#utility.yul\":17521:17602   */\n    tag_652:\n        /* \"#utility.yul\":17649:17651   */\n      0x20\n        /* \"#utility.yul\":17641:17647   */\n      dup3\n        /* \"#utility.yul\":17638:17652   */\n      lt\n        /* \"#utility.yul\":17618:17636   */\n      dup2\n        /* \"#utility.yul\":17615:17653   */\n      sub\n        /* \"#utility.yul\":17612:17696   */\n      tag_653\n      jumpi\n        /* \"#utility.yul\":17668:17686   */\n      tag_654\n      tag_433\n      jump\t// in\n    tag_654:\n        /* \"#utility.yul\":17612:17696   */\n    tag_653:\n        /* \"#utility.yul\":17433:17702   */\n      pop\n        /* \"#utility.yul\":17382:17702   */\n      swap2\n      swap1\n      pop\n      jump\t// out\n        /* \"#utility.yul\":17708:17855   */\n    tag_434:\n        /* \"#utility.yul\":17809:17820   */\n      0x00\n        /* \"#utility.yul\":17846:17849   */\n      dup2\n        /* \"#utility.yul\":17831:17849   */\n      swap1\n      pop\n        /* \"#utility.yul\":17708:17855   */\n      swap3\n      swap2\n      pop\n      pop\n      jump\t// out\n        /* \"#utility.yul\":17861:18005   */\n    tag_435:\n        /* \"#utility.yul\":17913:17917   */\n      0x00\n        /* \"#utility.yul\":17936:17939   */\n      dup2\n        /* \"#utility.yul\":17928:17939   */\n      swap1\n      pop\n        /* \"#utility.yul\":17959:17962   */\n      dup2\n        /* \"#utility.yul\":17956:17957   */\n      0x00\n        /* \"#utility.yul\":17949:17963   */\n      mstore\n        /* \"#utility.yul\":17993:17997   */\n      0x20\n        /* \"#utility.yul\":17990:17991   */\n      0x00\n        /* \"#utility.yul\":17980:17998   */\n      keccak256\n        /* \"#utility.yul\":17972:17998   */\n      swap1\n      pop\n        /* \"#utility.yul\":17861:18005   */\n      swap2\n      swap1\n      pop\n      jump\t// out\n        /* \"#utility.yul\":18033:18911   */\n    tag_436:\n        /* \"#utility.yul\":18138:18141   */\n      0x00\n        /* \"#utility.yul\":18175:18180   */\n      dup2\n        /* \"#utility.yul\":18169:18181   */\n      sload\n        /* \"#utility.yul\":18204:18240   */\n      tag_658\n        /* \"#utility.yul\":18230:18239   */\n      dup2\n        /* \"#utility.yul\":18204:18240   */\n      tag_196\n      jump\t// in\n    tag_658:\n        /* \"#utility.yul\":18256:18344   */\n      tag_659\n        /* \"#utility.yul\":18337:18343   */\n      dup2\n        /* \"#utility.yul\":18332:18335   */\n      dup7\n        /* \"#utility.yul\":18256:18344   */\n      tag_434\n      jump\t// in\n    tag_659:\n        /* \"#utility.yul\":18249:18344   */\n      swap5\n      pop\n        /* \"#utility.yul\":18375:18376   */\n      0x01\n        /* \"#utility.yul\":18364:18373   */\n      dup3\n        /* \"#utility.yul\":18360:18377   */\n      and\n        /* \"#utility.yul\":18391:18392   */\n      0x00\n        /* \"#utility.yul\":18386:18552   */\n      dup2\n      eq\n      tag_661\n      jumpi\n        /* \"#utility.yul\":18566:18567   */\n      0x01\n        /* \"#utility.yul\":18561:18905   */\n      dup2\n      eq\n      tag_662\n      jumpi\n        /* \"#utility.yul\":18353:18905   */\n      jump(tag_660)\n        /* \"#utility.yul\":18386:18552   */\n    tag_661:\n        /* \"#utility.yul\":18470:18474   */\n      0xff\n        /* \"#utility.yul\":18466:18475   */\n      not\n        /* \"#utility.yul\":18455:18464   */\n      dup4\n        /* \"#utility.yul\":18451:18476   */\n      and\n        /* \"#utility.yul\":18446:18449   */\n      dup7\n        /* \"#utility.yul\":18439:18477   */\n      mstore\n        /* \"#utility.yul\":18532:18538   */\n      dup2\n        /* \"#utility.yul\":18525:18539   */\n      iszero\n        /* \"#utility.yul\":18518:18540   */\n      iszero\n        /* \"#utility.yul\":18510:18516   */\n      dup3\n        /* \"#utility.yul\":18506:18541   */\n      mul\n        /* \"#utility.yul\":18501:18504   */\n      dup7\n        /* \"#utility.yul\":18497:18542   */\n      add\n        /* \"#utility.yul\":18490:18542   */\n      swap4\n      pop\n        /* \"#utility.yul\":18386:18552   */\n      jump(tag_660)\n        /* \"#utility.yul\":18561:18905   */\n    tag_662:\n        /* \"#utility.yul\":18628:18669   */\n      tag_663\n        /* \"#utility.yul\":18663:18668   */\n      dup6\n        /* \"#utility.yul\":18628:18669   */\n      tag_435\n      jump\t// in\n    tag_663:\n        /* \"#utility.yul\":18691:18692   */\n      0x00\n        /* \"#utility.yul\":18705:18859   */\n    tag_664:\n        /* \"#utility.yul\":18719:18725   */\n      dup4\n        /* \"#utility.yul\":18716:18717   */\n      dup2\n        /* \"#utility.yul\":18713:18726   */\n      lt\n        /* \"#utility.yul\":18705:18859   */\n      iszero\n      tag_666\n      jumpi\n        /* \"#utility.yul\":18793:18800   */\n      dup2\n        /* \"#utility.yul\":18787:18801   */\n      sload\n        /* \"#utility.yul\":18783:18784   */\n      dup2\n        /* \"#utility.yul\":18778:18781   */\n      dup10\n        /* \"#utility.yul\":18774:18785   */\n      add\n        /* \"#utility.yul\":18767:18802   */\n      mstore\n        /* \"#utility.yul\":18843:18844   */\n      0x01\n        /* \"#utility.yul\":18834:18841   */\n      dup3\n        /* \"#utility.yul\":18830:18845   */\n      add\n        /* \"#utility.yul\":18819:18845   */\n      swap2\n      pop\n        /* \"#utility.yul\":18741:18745   */\n      0x20\n        /* \"#utility.yul\":18738:18739   */\n      dup2\n        /* \"#utility.yul\":18734:18746   */\n      add\n        /* \"#utility.yul\":18729:18746   */\n      swap1\n      pop\n        /* \"#utility.yul\":18705:18859   */\n      jump(tag_664)\n    tag_666:\n        /* \"#utility.yul\":18888:18894   */\n      dup4\n        /* \"#utility.yul\":18883:18886   */\n      dup9\n        /* \"#utility.yul\":18879:18895   */\n      add\n        /* \"#utility.yul\":18872:18895   */\n      swap6\n      pop\n        /* \"#utility.yul\":18568:18905   */\n      pop\n      pop\n        /* \"#utility.yul\":18353:18905   */\n    tag_660:\n      pop\n        /* \"#utility.yul\":18142:18911   */\n      pop\n      pop\n        /* \"#utility.yul\":18033:18911   */\n      swap3\n      swap2\n      pop\n      pop\n      jump\t// out\n        /* \"#utility.yul\":18917:19190   */\n    tag_167:\n        /* \"#utility.yul\":19048:19051   */\n      0x00\n        /* \"#utility.yul\":19070:19164   */\n      tag_668\n        /* \"#utility.yul\":19160:19163   */\n      dup3\n        /* \"#utility.yul\":19151:19157   */\n      dup5\n        /* \"#utility.yul\":19070:19164   */\n      tag_436\n      jump\t// in\n    tag_668:\n        /* \"#utility.yul\":19063:19164   */\n      swap2\n      pop\n        /* \"#utility.yul\":19181:19184   */\n      dup2\n        /* \"#utility.yul\":19174:19184   */\n      swap1\n      pop\n        /* \"#utility.yul\":18917:19190   */\n      swap3\n      swap2\n      pop\n      pop\n      jump\t// out\n        /* \"#utility.yul\":19196:19364   */\n    tag_437:\n        /* \"#utility.yul\":19336:19356   */\n      0x66726565206e66742063616e2073656c6c2e0000000000000000000000000000\n        /* \"#utility.yul\":19332:19333   */\n      0x00\n        /* \"#utility.yul\":19324:19330   */\n      dup3\n        /* \"#utility.yul\":19320:19334   */\n      add\n        /* \"#utility.yul\":19313:19357   */\n      mstore\n        /* \"#utility.yul\":19196:19364   */\n      pop\n      jump\t// out\n        /* \"#utility.yul\":19370:19736   */\n    tag_438:\n        /* \"#utility.yul\":19512:19515   */\n      0x00\n        /* \"#utility.yul\":19533:19600   */\n      tag_671\n        /* \"#utility.yul\":19597:19599   */\n      0x12\n        /* \"#utility.yul\":19592:19595   */\n      dup4\n        /* \"#utility.yul\":19533:19600   */\n      tag_424\n      jump\t// in\n    tag_671:\n        /* \"#utility.yul\":19526:19600   */\n      swap2\n      pop\n        /* \"#utility.yul\":19609:19702   */\n      tag_672\n        /* \"#utility.yul\":19698:19701   */\n      dup3\n        /* \"#utility.yul\":19609:19702   */\n      tag_437\n      jump\t// in\n    tag_672:\n        /* \"#utility.yul\":19727:19729   */\n      0x20\n        /* \"#utility.yul\":19722:19725   */\n      dup3\n        /* \"#utility.yul\":19718:19730   */\n      add\n        /* \"#utility.yul\":19711:19730   */\n      swap1\n      pop\n        /* \"#utility.yul\":19370:19736   */\n      swap2\n      swap1\n      pop\n      jump\t// out\n        /* \"#utility.yul\":19742:20161   */\n    tag_170:\n        /* \"#utility.yul\":19908:19912   */\n      0x00\n        /* \"#utility.yul\":19946:19948   */\n      0x20\n        /* \"#utility.yul\":19935:19944   */\n      dup3\n        /* \"#utility.yul\":19931:19949   */\n      add\n        /* \"#utility.yul\":19923:19949   */\n      swap1\n      pop\n        /* \"#utility.yul\":19995:20004   */\n      dup2\n        /* \"#utility.yul\":19989:19993   */\n      dup2\n        /* \"#utility.yul\":19985:20005   */\n      sub\n        /* \"#utility.yul\":19981:19982   */\n      0x00\n        /* \"#utility.yul\":19970:19979   */\n      dup4\n        /* \"#utility.yul\":19966:19983   */\n      add\n        /* \"#utility.yul\":19959:20006   */\n      mstore\n        /* \"#utility.yul\":20023:20154   */\n      tag_674\n        /* \"#utility.yul\":20149:20153   */\n      dup2\n        /* \"#utility.yul\":20023:20154   */\n      tag_438\n      jump\t// in\n    tag_674:\n        /* \"#utility.yul\":20015:20154   */\n      swap1\n      pop\n        /* \"#utility.yul\":19742:20161   */\n      swap2\n      swap1\n      pop\n      jump\t// out\n        /* \"#utility.yul\":20167:20334   */\n    tag_439:\n        /* \"#utility.yul\":20307:20326   */\n      0x54686973206e6674206f6e2072656e742e000000000000000000000000000000\n        /* \"#utility.yul\":20303:20304   */\n      0x00\n        /* \"#utility.yul\":20295:20301   */\n      dup3\n        /* \"#utility.yul\":20291:20305   */\n      add\n        /* \"#utility.yul\":20284:20327   */\n      mstore\n        /* \"#utility.yul\":20167:20334   */\n      pop\n      jump\t// out\n        /* \"#utility.yul\":20340:20706   */\n    tag_440:\n        /* \"#utility.yul\":20482:20485   */\n      0x00\n        /* \"#utility.yul\":20503:20570   */\n      tag_677\n        /* \"#utility.yul\":20567:20569   */\n      0x11\n        /* \"#utility.yul\":20562:20565   */\n      dup4\n        /* \"#utility.yul\":20503:20570   */\n      tag_424\n      jump\t// in\n    tag_677:\n        /* \"#utility.yul\":20496:20570   */\n      swap2\n      pop\n        /* \"#utility.yul\":20579:20672   */\n      tag_678\n        /* \"#utility.yul\":20668:20671   */\n      dup3\n        /* \"#utility.yul\":20579:20672   */\n      tag_439\n      jump\t// in\n    tag_678:\n        /* \"#utility.yul\":20697:20699   */\n      0x20\n        /* \"#utility.yul\":20692:20695   */\n      dup3\n        /* \"#utility.yul\":20688:20700   */\n      add\n        /* \"#utility.yul\":20681:20700   */\n      swap1\n      pop\n        /* \"#utility.yul\":20340:20706   */\n      swap2\n      swap1\n      pop\n      jump\t// out\n        /* \"#utility.yul\":20712:21131   */\n    tag_173:\n        /* \"#utility.yul\":20878:20882   */\n      0x00\n        /* \"#utility.yul\":20916:20918   */\n      0x20\n        /* \"#utility.yul\":20905:20914   */\n      dup3\n        /* \"#utility.yul\":20901:20919   */\n      add\n        /* \"#utility.yul\":20893:20919   */\n      swap1\n      pop\n        /* \"#utility.yul\":20965:20974   */\n      dup2\n        /* \"#utility.yul\":20959:20963   */\n      dup2\n        /* \"#utility.yul\":20955:20975   */\n      sub\n        /* \"#utility.yul\":20951:20952   */\n      0x00\n        /* \"#utility.yul\":20940:20949   */\n      dup4\n        /* \"#utility.yul\":20936:20953   */\n      add\n        /* \"#utility.yul\":20929:20976   */\n      mstore\n        /* \"#utility.yul\":20993:21124   */\n      tag_680\n        /* \"#utility.yul\":21119:21123   */\n      dup2\n        /* \"#utility.yul\":20993:21124   */\n      tag_440\n      jump\t// in\n    tag_680:\n        /* \"#utility.yul\":20985:21124   */\n      swap1\n      pop\n        /* \"#utility.yul\":20712:21131   */\n      swap2\n      swap1\n      pop\n      jump\t// out\n        /* \"#utility.yul\":21137:21305   */\n    tag_441:\n        /* \"#utility.yul\":21277:21297   */\n      0x596f7520646f6e742068617665204e66742e0000000000000000000000000000\n        /* \"#utility.yul\":21273:21274   */\n      0x00\n        /* \"#utility.yul\":21265:21271   */\n      dup3\n        /* \"#utility.yul\":21261:21275   */\n      add\n        /* \"#utility.yul\":21254:21298   */\n      mstore\n        /* \"#utility.yul\":21137:21305   */\n      pop\n      jump\t// out\n        /* \"#utility.yul\":21311:21677   */\n    tag_442:\n        /* \"#utility.yul\":21453:21456   */\n      0x00\n        /* \"#utility.yul\":21474:21541   */\n      tag_683\n        /* \"#utility.yul\":21538:21540   */\n      0x12\n        /* \"#utility.yul\":21533:21536   */\n      dup4\n        /* \"#utility.yul\":21474:21541   */\n      tag_424\n      jump\t// in\n    tag_683:\n        /* \"#utility.yul\":21467:21541   */\n      swap2\n      pop\n        /* \"#utility.yul\":21550:21643   */\n      tag_684\n        /* \"#utility.yul\":21639:21642   */\n      dup3\n        /* \"#utility.yul\":21550:21643   */\n      tag_441\n      jump\t// in\n    tag_684:\n        /* \"#utility.yul\":21668:21670   */\n      0x20\n        /* \"#utility.yul\":21663:21666   */\n      dup3\n        /* \"#utility.yul\":21659:21671   */\n      add\n        /* \"#utility.yul\":21652:21671   */\n      swap1\n      pop\n        /* \"#utility.yul\":21311:21677   */\n      swap2\n      swap1\n      pop\n      jump\t// out\n        /* \"#utility.yul\":21683:22102   */\n    tag_177:\n        /* \"#utility.yul\":21849:21853   */\n      0x00\n        /* \"#utility.yul\":21887:21889   */\n      0x20\n        /* \"#utility.yul\":21876:21885   */\n      dup3\n        /* \"#utility.yul\":21872:21890   */\n      add\n        /* \"#utility.yul\":21864:21890   */\n      swap1\n      pop\n        /* \"#utility.yul\":21936:21945   */\n      dup2\n        /* \"#utility.yul\":21930:21934   */\n      dup2\n        /* \"#utility.yul\":21926:21946   */\n      sub\n        /* \"#utility.yul\":21922:21923   */\n      0x00\n        /* \"#utility.yul\":21911:21920   */\n      dup4\n        /* \"#utility.yul\":21907:21924   */\n      add\n        /* \"#utility.yul\":21900:21947   */\n      mstore\n        /* \"#utility.yul\":21964:22095   */\n      tag_686\n        /* \"#utility.yul\":22090:22094   */\n      dup2\n        /* \"#utility.yul\":21964:22095   */\n      tag_442\n      jump\t// in\n    tag_686:\n        /* \"#utility.yul\":21956:22095   */\n      swap1\n      pop\n        /* \"#utility.yul\":21683:22102   */\n      swap2\n      swap1\n      pop\n      jump\t// out\n        /* \"#utility.yul\":22108:22279   */\n    tag_179:\n        /* \"#utility.yul\":22147:22150   */\n      0x00\n        /* \"#utility.yul\":22170:22194   */\n      tag_688\n        /* \"#utility.yul\":22188:22193   */\n      dup3\n        /* \"#utility.yul\":22170:22194   */\n      tag_396\n      jump\t// in\n    tag_688:\n        /* \"#utility.yul\":22161:22194   */\n      swap2\n      pop\n        /* \"#utility.yul\":22216:22220   */\n      0x00\n        /* \"#utility.yul\":22209:22214   */\n      dup3\n        /* \"#utility.yul\":22206:22221   */\n      sub\n        /* \"#utility.yul\":22203:22244   */\n      tag_689\n      jumpi\n        /* \"#utility.yul\":22224:22242   */\n      tag_690\n      tag_428\n      jump\t// in\n    tag_690:\n        /* \"#utility.yul\":22203:22244   */\n    tag_689:\n        /* \"#utility.yul\":22271:22272   */\n      0x01\n        /* \"#utility.yul\":22264:22269   */\n      dup3\n        /* \"#utility.yul\":22260:22273   */\n      sub\n        /* \"#utility.yul\":22253:22273   */\n      swap1\n      pop\n        /* \"#utility.yul\":22108:22279   */\n      swap2\n      swap1\n      pop\n      jump\t// out\n        /* \"#utility.yul\":22285:22454   */\n    tag_443:\n        /* \"#utility.yul\":22425:22446   */\n      0x416c726561647920686176652031206e66742e00000000000000000000000000\n        /* \"#utility.yul\":22421:22422   */\n      0x00\n        /* \"#utility.yul\":22413:22419   */\n      dup3\n        /* \"#utility.yul\":22409:22423   */\n      add\n        /* \"#utility.yul\":22402:22447   */\n      mstore\n        /* \"#utility.yul\":22285:22454   */\n      pop\n      jump\t// out\n        /* \"#utility.yul\":22460:22826   */\n    tag_444:\n        /* \"#utility.yul\":22602:22605   */\n      0x00\n        /* \"#utility.yul\":22623:22690   */\n      tag_693\n        /* \"#utility.yul\":22687:22689   */\n      0x13\n        /* \"#utility.yul\":22682:22685   */\n      dup4\n        /* \"#utility.yul\":22623:22690   */\n      tag_424\n      jump\t// in\n    tag_693:\n        /* \"#utility.yul\":22616:22690   */\n      swap2\n      pop\n        /* \"#utility.yul\":22699:22792   */\n      tag_694\n        /* \"#utility.yul\":22788:22791   */\n      dup3\n        /* \"#utility.yul\":22699:22792   */\n      tag_443\n      jump\t// in\n    tag_694:\n        /* \"#utility.yul\":22817:22819   */\n      0x20\n        /* \"#utility.yul\":22812:22815   */\n      dup3\n        /* \"#utility.yul\":22808:22820   */\n      add\n        /* \"#utility.yul\":22801:22820   */\n      swap1\n      pop\n        /* \"#utility.yul\":22460:22826   */\n      swap2\n      swap1\n      pop\n      jump\t// out\n        /* \"#utility.yul\":22832:23251   */\n    tag_184:\n        /* \"#utility.yul\":22998:23002   */\n      0x00\n        /* \"#utility.yul\":23036:23038   */\n      0x20\n        /* \"#utility.yul\":23025:23034   */\n      dup3\n        /* \"#utility.yul\":23021:23039   */\n      add\n        /* \"#utility.yul\":23013:23039   */\n      swap1\n      pop\n        /* \"#utility.yul\":23085:23094   */\n      dup2\n        /* \"#utility.yul\":23079:23083   */\n      dup2\n        /* \"#utility.yul\":23075:23095   */\n      sub\n        /* \"#utility.yul\":23071:23072   */\n      0x00\n        /* \"#utility.yul\":23060:23069   */\n      dup4\n        /* \"#utility.yul\":23056:23073   */\n      add\n        /* \"#utility.yul\":23049:23096   */\n      mstore\n        /* \"#utility.yul\":23113:23244   */\n      tag_696\n        /* \"#utility.yul\":23239:23243   */\n      dup2\n        /* \"#utility.yul\":23113:23244   */\n      tag_444\n      jump\t// in\n    tag_696:\n        /* \"#utility.yul\":23105:23244   */\n      swap1\n      pop\n        /* \"#utility.yul\":22832:23251   */\n      swap2\n      swap1\n      pop\n      jump\t// out\n        /* \"#utility.yul\":23257:23428   */\n    tag_445:\n        /* \"#utility.yul\":23397:23420   */\n      0x766c7565206d75737420626520312065746865722e0000000000000000000000\n        /* \"#utility.yul\":23393:23394   */\n      0x00\n        /* \"#utility.yul\":23385:23391   */\n      dup3\n        /* \"#utility.yul\":23381:23395   */\n      add\n        /* \"#utility.yul\":23374:23421   */\n      mstore\n        /* \"#utility.yul\":23257:23428   */\n      pop\n      jump\t// out\n        /* \"#utility.yul\":23434:23800   */\n    tag_446:\n        /* \"#utility.yul\":23576:23579   */\n      0x00\n        /* \"#utility.yul\":23597:23664   */\n      tag_699\n        /* \"#utility.yul\":23661:23663   */\n      0x15\n        /* \"#utility.yul\":23656:23659   */\n      dup4\n        /* \"#utility.yul\":23597:23664   */\n      tag_424\n      jump\t// in\n    tag_699:\n        /* \"#utility.yul\":23590:23664   */\n      swap2\n      pop\n        /* \"#utility.yul\":23673:23766   */\n      tag_700\n        /* \"#utility.yul\":23762:23765   */\n      dup3\n        /* \"#utility.yul\":23673:23766   */\n      tag_445\n      jump\t// in\n    tag_700:\n        /* \"#utility.yul\":23791:23793   */\n      0x20\n        /* \"#utility.yul\":23786:23789   */\n      dup3\n        /* \"#utility.yul\":23782:23794   */\n      add\n        /* \"#utility.yul\":23775:23794   */\n      swap1\n      pop\n        /* \"#utility.yul\":23434:23800   */\n      swap2\n      swap1\n      pop\n      jump\t// out\n        /* \"#utility.yul\":23806:24225   */\n    tag_209:\n        /* \"#utility.yul\":23972:23976   */\n      0x00\n        /* \"#utility.yul\":24010:24012   */\n      0x20\n        /* \"#utility.yul\":23999:24008   */\n      dup3\n        /* \"#utility.yul\":23995:24013   */\n      add\n        /* \"#utility.yul\":23987:24013   */\n      swap1\n      pop\n        /* \"#utility.yul\":24059:24068   */\n      dup2\n        /* \"#utility.yul\":24053:24057   */\n      dup2\n        /* \"#utility.yul\":24049:24069   */\n      sub\n        /* \"#utility.yul\":24045:24046   */\n      0x00\n        /* \"#utility.yul\":24034:24043   */\n      dup4\n        /* \"#utility.yul\":24030:24047   */\n      add\n        /* \"#utility.yul\":24023:24070   */\n      mstore\n        /* \"#utility.yul\":24087:24218   */\n      tag_702\n        /* \"#utility.yul\":24213:24217   */\n      dup2\n        /* \"#utility.yul\":24087:24218   */\n      tag_446\n      jump\t// in\n    tag_702:\n        /* \"#utility.yul\":24079:24218   */\n      swap1\n      pop\n        /* \"#utility.yul\":23806:24225   */\n      swap2\n      swap1\n      pop\n      jump\t// out\n        /* \"#utility.yul\":24231:24397   */\n    tag_447:\n        /* \"#utility.yul\":24371:24389   */\n      0x436f7272656374205370656c6c696e6700000000000000000000000000000000\n        /* \"#utility.yul\":24367:24368   */\n      0x00\n        /* \"#utility.yul\":24359:24365   */\n      dup3\n        /* \"#utility.yul\":24355:24369   */\n      add\n        /* \"#utility.yul\":24348:24390   */\n      mstore\n        /* \"#utility.yul\":24231:24397   */\n      pop\n      jump\t// out\n        /* \"#utility.yul\":24403:24769   */\n    tag_448:\n        /* \"#utility.yul\":24545:24548   */\n      0x00\n        /* \"#utility.yul\":24566:24633   */\n      tag_705\n        /* \"#utility.yul\":24630:24632   */\n      0x10\n        /* \"#utility.yul\":24625:24628   */\n      dup4\n        /* \"#utility.yul\":24566:24633   */\n      tag_424\n      jump\t// in\n    tag_705:\n        /* \"#utility.yul\":24559:24633   */\n      swap2\n      pop\n        /* \"#utility.yul\":24642:24735   */\n      tag_706\n        /* \"#utility.yul\":24731:24734   */\n      dup3\n        /* \"#utility.yul\":24642:24735   */\n      tag_447\n      jump\t// in\n    tag_706:\n        /* \"#utility.yul\":24760:24762   */\n      0x20\n        /* \"#utility.yul\":24755:24758   */\n      dup3\n        /* \"#utility.yul\":24751:24763   */\n      add\n        /* \"#utility.yul\":24744:24763   */\n      swap1\n      pop\n        /* \"#utility.yul\":24403:24769   */\n      swap2\n      swap1\n      pop\n      jump\t// out\n        /* \"#utility.yul\":24775:25194   */\n    tag_213:\n        /* \"#utility.yul\":24941:24945   */\n      0x00\n        /* \"#utility.yul\":24979:24981   */\n      0x20\n        /* \"#utility.yul\":24968:24977   */\n      dup3\n        /* \"#utility.yul\":24964:24982   */\n      add\n        /* \"#utility.yul\":24956:24982   */\n      swap1\n      pop\n        /* \"#utility.yul\":25028:25037   */\n      dup2\n        /* \"#utility.yul\":25022:25026   */\n      dup2\n        /* \"#utility.yul\":25018:25038   */\n      sub\n        /* \"#utility.yul\":25014:25015   */\n      0x00\n        /* \"#utility.yul\":25003:25012   */\n      dup4\n        /* \"#utility.yul\":24999:25016   */\n      add\n        /* \"#utility.yul\":24992:25039   */\n      mstore\n        /* \"#utility.yul\":25056:25187   */\n      tag_708\n        /* \"#utility.yul\":25182:25186   */\n      dup2\n        /* \"#utility.yul\":25056:25187   */\n      tag_448\n      jump\t// in\n    tag_708:\n        /* \"#utility.yul\":25048:25187   */\n      swap1\n      pop\n        /* \"#utility.yul\":24775:25194   */\n      swap2\n      swap1\n      pop\n      jump\t// out\n        /* \"#utility.yul\":25200:25366   */\n    tag_449:\n        /* \"#utility.yul\":25340:25358   */\n      0x796f75206e656564206d6f726520787000000000000000000000000000000000\n        /* \"#utility.yul\":25336:25337   */\n      0x00\n        /* \"#utility.yul\":25328:25334   */\n      dup3\n        /* \"#utility.yul\":25324:25338   */\n      add\n        /* \"#utility.yul\":25317:25359   */\n      mstore\n        /* \"#utility.yul\":25200:25366   */\n      pop\n      jump\t// out\n        /* \"#utility.yul\":25372:25738   */\n    tag_450:\n        /* \"#utility.yul\":25514:25517   */\n      0x00\n        /* \"#utility.yul\":25535:25602   */\n      tag_711\n        /* \"#utility.yul\":25599:25601   */\n      0x10\n        /* \"#utility.yul\":25594:25597   */\n      dup4\n        /* \"#utility.yul\":25535:25602   */\n      tag_424\n      jump\t// in\n    tag_711:\n        /* \"#utility.yul\":25528:25602   */\n      swap2\n      pop\n        /* \"#utility.yul\":25611:25704   */\n      tag_712\n        /* \"#utility.yul\":25700:25703   */\n      dup3\n        /* \"#utility.yul\":25611:25704   */\n      tag_449\n      jump\t// in\n    tag_712:\n        /* \"#utility.yul\":25729:25731   */\n      0x20\n        /* \"#utility.yul\":25724:25727   */\n      dup3\n        /* \"#utility.yul\":25720:25732   */\n      add\n        /* \"#utility.yul\":25713:25732   */\n      swap1\n      pop\n        /* \"#utility.yul\":25372:25738   */\n      swap2\n      swap1\n      pop\n      jump\t// out\n        /* \"#utility.yul\":25744:26163   */\n    tag_225:\n        /* \"#utility.yul\":25910:25914   */\n      0x00\n        /* \"#utility.yul\":25948:25950   */\n      0x20\n        /* \"#utility.yul\":25937:25946   */\n      dup3\n        /* \"#utility.yul\":25933:25951   */\n      add\n        /* \"#utility.yul\":25925:25951   */\n      swap1\n      pop\n        /* \"#utility.yul\":25997:26006   */\n      dup2\n        /* \"#utility.yul\":25991:25995   */\n      dup2\n        /* \"#utility.yul\":25987:26007   */\n      sub\n        /* \"#utility.yul\":25983:25984   */\n      0x00\n        /* \"#utility.yul\":25972:25981   */\n      dup4\n        /* \"#utility.yul\":25968:25985   */\n      add\n        /* \"#utility.yul\":25961:26008   */\n      mstore\n        /* \"#utility.yul\":26025:26156   */\n      tag_714\n        /* \"#utility.yul\":26151:26155   */\n      dup2\n        /* \"#utility.yul\":26025:26156   */\n      tag_450\n      jump\t// in\n    tag_714:\n        /* \"#utility.yul\":26017:26156   */\n      swap1\n      pop\n        /* \"#utility.yul\":25744:26163   */\n      swap2\n      swap1\n      pop\n      jump\t// out\n        /* \"#utility.yul\":26169:26363   */\n    tag_230:\n        /* \"#utility.yul\":26209:26213   */\n      0x00\n        /* \"#utility.yul\":26229:26249   */\n      tag_716\n        /* \"#utility.yul\":26247:26248   */\n      dup3\n        /* \"#utility.yul\":26229:26249   */\n      tag_396\n      jump\t// in\n    tag_716:\n        /* \"#utility.yul\":26224:26249   */\n      swap2\n      pop\n        /* \"#utility.yul\":26263:26283   */\n      tag_717\n        /* \"#utility.yul\":26281:26282   */\n      dup4\n        /* \"#utility.yul\":26263:26283   */\n      tag_396\n      jump\t// in\n    tag_717:\n        /* \"#utility.yul\":26258:26283   */\n      swap3\n      pop\n        /* \"#utility.yul\":26307:26308   */\n      dup3\n        /* \"#utility.yul\":26304:26305   */\n      dup3\n        /* \"#utility.yul\":26300:26309   */\n      sub\n        /* \"#utility.yul\":26292:26309   */\n      swap1\n      pop\n        /* \"#utility.yul\":26331:26332   */\n      dup2\n        /* \"#utility.yul\":26325:26329   */\n      dup2\n        /* \"#utility.yul\":26322:26333   */\n      gt\n        /* \"#utility.yul\":26319:26356   */\n      iszero\n      tag_718\n      jumpi\n        /* \"#utility.yul\":26336:26354   */\n      tag_719\n      tag_428\n      jump\t// in\n    tag_719:\n        /* \"#utility.yul\":26319:26356   */\n    tag_718:\n        /* \"#utility.yul\":26169:26363   */\n      swap3\n      swap2\n      pop\n      pop\n      jump\t// out\n        /* \"#utility.yul\":26369:26551   */\n    tag_451:\n        /* \"#utility.yul\":26509:26543   */\n      0x616d6f756e74206e6f74206d617463682065746865722072657175697265642e\n        /* \"#utility.yul\":26505:26506   */\n      0x00\n        /* \"#utility.yul\":26497:26503   */\n      dup3\n        /* \"#utility.yul\":26493:26507   */\n      add\n        /* \"#utility.yul\":26486:26544   */\n      mstore\n        /* \"#utility.yul\":26369:26551   */\n      pop\n      jump\t// out\n        /* \"#utility.yul\":26557:26923   */\n    tag_452:\n        /* \"#utility.yul\":26699:26702   */\n      0x00\n        /* \"#utility.yul\":26720:26787   */\n      tag_722\n        /* \"#utility.yul\":26784:26786   */\n      0x20\n        /* \"#utility.yul\":26779:26782   */\n      dup4\n        /* \"#utility.yul\":26720:26787   */\n      tag_424\n      jump\t// in\n    tag_722:\n        /* \"#utility.yul\":26713:26787   */\n      swap2\n      pop\n        /* \"#utility.yul\":26796:26889   */\n      tag_723\n        /* \"#utility.yul\":26885:26888   */\n      dup3\n        /* \"#utility.yul\":26796:26889   */\n      tag_451\n      jump\t// in\n    tag_723:\n        /* \"#utility.yul\":26914:26916   */\n      0x20\n        /* \"#utility.yul\":26909:26912   */\n      dup3\n        /* \"#utility.yul\":26905:26917   */\n      add\n        /* \"#utility.yul\":26898:26917   */\n      swap1\n      pop\n        /* \"#utility.yul\":26557:26923   */\n      swap2\n      swap1\n      pop\n      jump\t// out\n        /* \"#utility.yul\":26929:27348   */\n    tag_244:\n        /* \"#utility.yul\":27095:27099   */\n      0x00\n        /* \"#utility.yul\":27133:27135   */\n      0x20\n        /* \"#utility.yul\":27122:27131   */\n      dup3\n        /* \"#utility.yul\":27118:27136   */\n      add\n        /* \"#utility.yul\":27110:27136   */\n      swap1\n      pop\n        /* \"#utility.yul\":27182:27191   */\n      dup2\n        /* \"#utility.yul\":27176:27180   */\n      dup2\n        /* \"#utility.yul\":27172:27192   */\n      sub\n        /* \"#utility.yul\":27168:27169   */\n      0x00\n        /* \"#utility.yul\":27157:27166   */\n      dup4\n        /* \"#utility.yul\":27153:27170   */\n      add\n        /* \"#utility.yul\":27146:27193   */\n      mstore\n        /* \"#utility.yul\":27210:27341   */\n      tag_725\n        /* \"#utility.yul\":27336:27340   */\n      dup2\n        /* \"#utility.yul\":27210:27341   */\n      tag_452\n      jump\t// in\n    tag_725:\n        /* \"#utility.yul\":27202:27341   */\n      swap1\n      pop\n        /* \"#utility.yul\":26929:27348   */\n      swap2\n      swap1\n      pop\n      jump\t// out\n        /* \"#utility.yul\":27354:27522   */\n    tag_453:\n        /* \"#utility.yul\":27494:27514   */\n      0x616c72656164792074616b656e204e66742e0000000000000000000000000000\n        /* \"#utility.yul\":27490:27491   */\n      0x00\n        /* \"#utility.yul\":27482:27488   */\n      dup3\n        /* \"#utility.yul\":27478:27492   */\n      add\n        /* \"#utility.yul\":27471:27515   */\n      mstore\n        /* \"#utility.yul\":27354:27522   */\n      pop\n      jump\t// out\n        /* \"#utility.yul\":27528:27894   */\n    tag_454:\n        /* \"#utility.yul\":27670:27673   */\n      0x00\n        /* \"#utility.yul\":27691:27758   */\n      tag_728\n        /* \"#utility.yul\":27755:27757   */\n      0x12\n        /* \"#utility.yul\":27750:27753   */\n      dup4\n        /* \"#utility.yul\":27691:27758   */\n      tag_424\n      jump\t// in\n    tag_728:\n        /* \"#utility.yul\":27684:27758   */\n      swap2\n      pop\n        /* \"#utility.yul\":27767:27860   */\n      tag_729\n        /* \"#utility.yul\":27856:27859   */\n      dup3\n        /* \"#utility.yul\":27767:27860   */\n      tag_453\n      jump\t// in\n    tag_729:\n        /* \"#utility.yul\":27885:27887   */\n      0x20\n        /* \"#utility.yul\":27880:27883   */\n      dup3\n        /* \"#utility.yul\":27876:27888   */\n      add\n        /* \"#utility.yul\":27869:27888   */\n      swap1\n      pop\n        /* \"#utility.yul\":27528:27894   */\n      swap2\n      swap1\n      pop\n      jump\t// out\n        /* \"#utility.yul\":27900:28319   */\n    tag_248:\n        /* \"#utility.yul\":28066:28070   */\n      0x00\n        /* \"#utility.yul\":28104:28106   */\n      0x20\n        /* \"#utility.yul\":28093:28102   */\n      dup3\n        /* \"#utility.yul\":28089:28107   */\n      add\n        /* \"#utility.yul\":28081:28107   */\n      swap1\n      pop\n        /* \"#utility.yul\":28153:28162   */\n      dup2\n        /* \"#utility.yul\":28147:28151   */\n      dup2\n        /* \"#utility.yul\":28143:28163   */\n      sub\n        /* \"#utility.yul\":28139:28140   */\n      0x00\n        /* \"#utility.yul\":28128:28137   */\n      dup4\n        /* \"#utility.yul\":28124:28141   */\n      add\n        /* \"#utility.yul\":28117:28164   */\n      mstore\n        /* \"#utility.yul\":28181:28312   */\n      tag_731\n        /* \"#utility.yul\":28307:28311   */\n      dup2\n        /* \"#utility.yul\":28181:28312   */\n      tag_454\n      jump\t// in\n    tag_731:\n        /* \"#utility.yul\":28173:28312   */\n      swap1\n      pop\n        /* \"#utility.yul\":27900:28319   */\n      swap2\n      swap1\n      pop\n      jump\t// out\n        /* \"#utility.yul\":28325:28502   */\n    tag_455:\n        /* \"#utility.yul\":28465:28494   */\n      0x6f776e65722063616e742074616b6520686973206f776e2069642e0000000000\n        /* \"#utility.yul\":28461:28462   */\n      0x00\n        /* \"#utility.yul\":28453:28459   */\n      dup3\n        /* \"#utility.yul\":28449:28463   */\n      add\n        /* \"#utility.yul\":28442:28495   */\n      mstore\n        /* \"#utility.yul\":28325:28502   */\n      pop\n      jump\t// out\n        /* \"#utility.yul\":28508:28874   */\n    tag_456:\n        /* \"#utility.yul\":28650:28653   */\n      0x00\n        /* \"#utility.yul\":28671:28738   */\n      tag_734\n        /* \"#utility.yul\":28735:28737   */\n      0x1b\n        /* \"#utility.yul\":28730:28733   */\n      dup4\n        /* \"#utility.yul\":28671:28738   */\n      tag_424\n      jump\t// in\n    tag_734:\n        /* \"#utility.yul\":28664:28738   */\n      swap2\n      pop\n        /* \"#utility.yul\":28747:28840   */\n      tag_735\n        /* \"#utility.yul\":28836:28839   */\n      dup3\n        /* \"#utility.yul\":28747:28840   */\n      tag_455\n      jump\t// in\n    tag_735:\n        /* \"#utility.yul\":28865:28867   */\n      0x20\n        /* \"#utility.yul\":28860:28863   */\n      dup3\n        /* \"#utility.yul\":28856:28868   */\n      add\n        /* \"#utility.yul\":28849:28868   */\n      swap1\n      pop\n        /* \"#utility.yul\":28508:28874   */\n      swap2\n      swap1\n      pop\n      jump\t// out\n        /* \"#utility.yul\":28880:29299   */\n    tag_251:\n        /* \"#utility.yul\":29046:29050   */\n      0x00\n        /* \"#utility.yul\":29084:29086   */\n      0x20\n        /* \"#utility.yul\":29073:29082   */\n      dup3\n        /* \"#utility.yul\":29069:29087   */\n      add\n        /* \"#utility.yul\":29061:29087   */\n      swap1\n      pop\n        /* \"#utility.yul\":29133:29142   */\n      dup2\n        /* \"#utility.yul\":29127:29131   */\n      dup2\n        /* \"#utility.yul\":29123:29143   */\n      sub\n        /* \"#utility.yul\":29119:29120   */\n      0x00\n        /* \"#utility.yul\":29108:29117   */\n      dup4\n        /* \"#utility.yul\":29104:29121   */\n      add\n        /* \"#utility.yul\":29097:29144   */\n      mstore\n        /* \"#utility.yul\":29161:29292   */\n      tag_737\n        /* \"#utility.yul\":29287:29291   */\n      dup2\n        /* \"#utility.yul\":29161:29292   */\n      tag_456\n      jump\t// in\n    tag_737:\n        /* \"#utility.yul\":29153:29292   */\n      swap1\n      pop\n        /* \"#utility.yul\":28880:29299   */\n      swap2\n      swap1\n      pop\n      jump\t// out\n        /* \"#utility.yul\":29305:29470   */\n    tag_457:\n        /* \"#utility.yul\":29445:29462   */\n      0x6e6674206e6f74206c69737465642e0000000000000000000000000000000000\n        /* \"#utility.yul\":29441:29442   */\n      0x00\n        /* \"#utility.yul\":29433:29439   */\n      dup3\n        /* \"#utility.yul\":29429:29443   */\n      add\n        /* \"#utility.yul\":29422:29463   */\n      mstore\n        /* \"#utility.yul\":29305:29470   */\n      pop\n      jump\t// out\n        /* \"#utility.yul\":29476:29842   */\n    tag_458:\n        /* \"#utility.yul\":29618:29621   */\n      0x00\n        /* \"#utility.yul\":29639:29706   */\n      tag_740\n        /* \"#utility.yul\":29703:29705   */\n      0x0f\n        /* \"#utility.yul\":29698:29701   */\n      dup4\n        /* \"#utility.yul\":29639:29706   */\n      tag_424\n      jump\t// in\n    tag_740:\n        /* \"#utility.yul\":29632:29706   */\n      swap2\n      pop\n        /* \"#utility.yul\":29715:29808   */\n      tag_741\n        /* \"#utility.yul\":29804:29807   */\n      dup3\n        /* \"#utility.yul\":29715:29808   */\n      tag_457\n      jump\t// in\n    tag_741:\n        /* \"#utility.yul\":29833:29835   */\n      0x20\n        /* \"#utility.yul\":29828:29831   */\n      dup3\n        /* \"#utility.yul\":29824:29836   */\n      add\n        /* \"#utility.yul\":29817:29836   */\n      swap1\n      pop\n        /* \"#utility.yul\":29476:29842   */\n      swap2\n      swap1\n      pop\n      jump\t// out\n        /* \"#utility.yul\":29848:30267   */\n    tag_254:\n        /* \"#utility.yul\":30014:30018   */\n      0x00\n        /* \"#utility.yul\":30052:30054   */\n      0x20\n        /* \"#utility.yul\":30041:30050   */\n      dup3\n        /* \"#utility.yul\":30037:30055   */\n      add\n        /* \"#utility.yul\":30029:30055   */\n      swap1\n      pop\n        /* \"#utility.yul\":30101:30110   */\n      dup2\n        /* \"#utility.yul\":30095:30099   */\n      dup2\n        /* \"#utility.yul\":30091:30111   */\n      sub\n        /* \"#utility.yul\":30087:30088   */\n      0x00\n        /* \"#utility.yul\":30076:30085   */\n      dup4\n        /* \"#utility.yul\":30072:30089   */\n      add\n        /* \"#utility.yul\":30065:30112   */\n      mstore\n        /* \"#utility.yul\":30129:30260   */\n      tag_743\n        /* \"#utility.yul\":30255:30259   */\n      dup2\n        /* \"#utility.yul\":30129:30260   */\n      tag_458\n      jump\t// in\n    tag_743:\n        /* \"#utility.yul\":30121:30260   */\n      swap1\n      pop\n        /* \"#utility.yul\":29848:30267   */\n      swap2\n      swap1\n      pop\n      jump\t// out\n        /* \"#utility.yul\":30273:30443   */\n    tag_459:\n        /* \"#utility.yul\":30413:30435   */\n      0x436f6d6520616674657220323420686f7572732e000000000000000000000000\n        /* \"#utility.yul\":30409:30410   */\n      0x00\n        /* \"#utility.yul\":30401:30407   */\n      dup3\n        /* \"#utility.yul\":30397:30411   */\n      add\n        /* \"#utility.yul\":30390:30436   */\n      mstore\n        /* \"#utility.yul\":30273:30443   */\n      pop\n      jump\t// out\n        /* \"#utility.yul\":30449:30815   */\n    tag_460:\n        /* \"#utility.yul\":30591:30594   */\n      0x00\n        /* \"#utility.yul\":30612:30679   */\n      tag_746\n        /* \"#utility.yul\":30676:30678   */\n      0x14\n        /* \"#utility.yul\":30671:30674   */\n      dup4\n        /* \"#utility.yul\":30612:30679   */\n      tag_424\n      jump\t// in\n    tag_746:\n        /* \"#utility.yul\":30605:30679   */\n      swap2\n      pop\n        /* \"#utility.yul\":30688:30781   */\n      tag_747\n        /* \"#utility.yul\":30777:30780   */\n      dup3\n        /* \"#utility.yul\":30688:30781   */\n      tag_459\n      jump\t// in\n    tag_747:\n        /* \"#utility.yul\":30806:30808   */\n      0x20\n        /* \"#utility.yul\":30801:30804   */\n      dup3\n        /* \"#utility.yul\":30797:30809   */\n      add\n        /* \"#utility.yul\":30790:30809   */\n      swap1\n      pop\n        /* \"#utility.yul\":30449:30815   */\n      swap2\n      swap1\n      pop\n      jump\t// out\n        /* \"#utility.yul\":30821:31240   */\n    tag_263:\n        /* \"#utility.yul\":30987:30991   */\n      0x00\n        /* \"#utility.yul\":31025:31027   */\n      0x20\n        /* \"#utility.yul\":31014:31023   */\n      dup3\n        /* \"#utility.yul\":31010:31028   */\n      add\n        /* \"#utility.yul\":31002:31028   */\n      swap1\n      pop\n        /* \"#utility.yul\":31074:31083   */\n      dup2\n        /* \"#utility.yul\":31068:31072   */\n      dup2\n        /* \"#utility.yul\":31064:31084   */\n      sub\n        /* \"#utility.yul\":31060:31061   */\n      0x00\n        /* \"#utility.yul\":31049:31058   */\n      dup4\n        /* \"#utility.yul\":31045:31062   */\n      add\n        /* \"#utility.yul\":31038:31085   */\n      mstore\n        /* \"#utility.yul\":31102:31233   */\n      tag_749\n        /* \"#utility.yul\":31228:31232   */\n      dup2\n        /* \"#utility.yul\":31102:31233   */\n      tag_460\n      jump\t// in\n    tag_749:\n        /* \"#utility.yul\":31094:31233   */\n      swap1\n      pop\n        /* \"#utility.yul\":30821:31240   */\n      swap2\n      swap1\n      pop\n      jump\t// out\n        /* \"#utility.yul\":31246:31405   */\n    tag_461:\n        /* \"#utility.yul\":31386:31397   */\n      0x416761696e205472790000000000000000000000000000000000000000000000\n        /* \"#utility.yul\":31382:31383   */\n      0x00\n        /* \"#utility.yul\":31374:31380   */\n      dup3\n        /* \"#utility.yul\":31370:31384   */\n      add\n        /* \"#utility.yul\":31363:31398   */\n      mstore\n        /* \"#utility.yul\":31246:31405   */\n      pop\n      jump\t// out\n        /* \"#utility.yul\":31411:31776   */\n    tag_462:\n        /* \"#utility.yul\":31553:31556   */\n      0x00\n        /* \"#utility.yul\":31574:31640   */\n      tag_752\n        /* \"#utility.yul\":31638:31639   */\n      0x09\n        /* \"#utility.yul\":31633:31636   */\n      dup4\n        /* \"#utility.yul\":31574:31640   */\n      tag_424\n      jump\t// in\n    tag_752:\n        /* \"#utility.yul\":31567:31640   */\n      swap2\n      pop\n        /* \"#utility.yul\":31649:31742   */\n      tag_753\n        /* \"#utility.yul\":31738:31741   */\n      dup3\n        /* \"#utility.yul\":31649:31742   */\n      tag_461\n      jump\t// in\n    tag_753:\n        /* \"#utility.yul\":31767:31769   */\n      0x20\n        /* \"#utility.yul\":31762:31765   */\n      dup3\n        /* \"#utility.yul\":31758:31770   */\n      add\n        /* \"#utility.yul\":31751:31770   */\n      swap1\n      pop\n        /* \"#utility.yul\":31411:31776   */\n      swap2\n      swap1\n      pop\n      jump\t// out\n        /* \"#utility.yul\":31782:32201   */\n    tag_269:\n        /* \"#utility.yul\":31948:31952   */\n      0x00\n        /* \"#utility.yul\":31986:31988   */\n      0x20\n        /* \"#utility.yul\":31975:31984   */\n      dup3\n        /* \"#utility.yul\":31971:31989   */\n      add\n        /* \"#utility.yul\":31963:31989   */\n      swap1\n      pop\n        /* \"#utility.yul\":32035:32044   */\n      dup2\n        /* \"#utility.yul\":32029:32033   */\n      dup2\n        /* \"#utility.yul\":32025:32045   */\n      sub\n        /* \"#utility.yul\":32021:32022   */\n      0x00\n        /* \"#utility.yul\":32010:32019   */\n      dup4\n        /* \"#utility.yul\":32006:32023   */\n      add\n        /* \"#utility.yul\":31999:32046   */\n      mstore\n        /* \"#utility.yul\":32063:32194   */\n      tag_755\n        /* \"#utility.yul\":32189:32193   */\n      dup2\n        /* \"#utility.yul\":32063:32194   */\n      tag_462\n      jump\t// in\n    tag_755:\n        /* \"#utility.yul\":32055:32194   */\n      swap1\n      pop\n        /* \"#utility.yul\":31782:32201   */\n      swap2\n      swap1\n      pop\n      jump\t// out\n        /* \"#utility.yul\":32207:32355   */\n    tag_463:\n        /* \"#utility.yul\":32309:32320   */\n      0x00\n        /* \"#utility.yul\":32346:32349   */\n      dup2\n        /* \"#utility.yul\":32331:32349   */\n      swap1\n      pop\n        /* \"#utility.yul\":32207:32355   */\n      swap3\n      swap2\n      pop\n      pop\n      jump\t// out\n        /* \"#utility.yul\":32361:32751   */\n    tag_464:\n        /* \"#utility.yul\":32467:32470   */\n      0x00\n        /* \"#utility.yul\":32495:32534   */\n      tag_758\n        /* \"#utility.yul\":32528:32533   */\n      dup3\n        /* \"#utility.yul\":32495:32534   */\n      tag_409\n      jump\t// in\n    tag_758:\n        /* \"#utility.yul\":32550:32639   */\n      tag_759\n        /* \"#utility.yul\":32632:32638   */\n      dup2\n        /* \"#utility.yul\":32627:32630   */\n      dup6\n        /* \"#utility.yul\":32550:32639   */\n      tag_463\n      jump\t// in\n    tag_759:\n        /* \"#utility.yul\":32543:32639   */\n      swap4\n      pop\n        /* \"#utility.yul\":32648:32713   */\n      tag_760\n        /* \"#utility.yul\":32706:32712   */\n      dup2\n        /* \"#utility.yul\":32701:32704   */\n      dup6\n        /* \"#utility.yul\":32694:32698   */\n      0x20\n        /* \"#utility.yul\":32687:32692   */\n      dup7\n        /* \"#utility.yul\":32683:32699   */\n      add\n        /* \"#utility.yul\":32648:32713   */\n      tag_411\n      jump\t// in\n    tag_760:\n        /* \"#utility.yul\":32738:32744   */\n      dup1\n        /* \"#utility.yul\":32733:32736   */\n      dup5\n        /* \"#utility.yul\":32729:32745   */\n      add\n        /* \"#utility.yul\":32722:32745   */\n      swap2\n      pop\n        /* \"#utility.yul\":32471:32751   */\n      pop\n        /* \"#utility.yul\":32361:32751   */\n      swap3\n      swap2\n      pop\n      pop\n      jump\t// out\n        /* \"#utility.yul\":32757:33032   */\n    tag_376:\n        /* \"#utility.yul\":32889:32892   */\n      0x00\n        /* \"#utility.yul\":32911:33006   */\n      tag_762\n        /* \"#utility.yul\":33002:33005   */\n      dup3\n        /* \"#utility.yul\":32993:32999   */\n      dup5\n        /* \"#utility.yul\":32911:33006   */\n      tag_464\n      jump\t// in\n    tag_762:\n        /* \"#utility.yul\":32904:33006   */\n      swap2\n      pop\n        /* \"#utility.yul\":33023:33026   */\n      dup2\n        /* \"#utility.yul\":33016:33026   */\n      swap1\n      pop\n        /* \"#utility.yul\":32757:33032   */\n      swap3\n      swap2\n      pop\n      pop\n      jump\t// out\n        /* \"#utility.yul\":33038:33179   */\n    tag_465:\n        /* \"#utility.yul\":33087:33091   */\n      0x00\n        /* \"#utility.yul\":33110:33113   */\n      dup2\n        /* \"#utility.yul\":33102:33113   */\n      swap1\n      pop\n        /* \"#utility.yul\":33133:33136   */\n      dup2\n        /* \"#utility.yul\":33130:33131   */\n      0x00\n        /* \"#utility.yul\":33123:33137   */\n      mstore\n        /* \"#utility.yul\":33167:33171   */\n      0x20\n        /* \"#utility.yul\":33164:33165   */\n      0x00\n        /* \"#utility.yul\":33154:33172   */\n      keccak256\n        /* \"#utility.yul\":33146:33172   */\n      swap1\n      pop\n        /* \"#utility.yul\":33038:33179   */\n      swap2\n      swap1\n      pop\n      jump\t// out\n        /* \"#utility.yul\":33185:33278   */\n    tag_466:\n        /* \"#utility.yul\":33222:33228   */\n      0x00\n        /* \"#utility.yul\":33269:33271   */\n      0x20\n        /* \"#utility.yul\":33264:33266   */\n      0x1f\n        /* \"#utility.yul\":33257:33262   */\n      dup4\n        /* \"#utility.yul\":33253:33267   */\n      add\n        /* \"#utility.yul\":33249:33272   */\n      div\n        /* \"#utility.yul\":33239:33272   */\n      swap1\n      pop\n        /* \"#utility.yul\":33185:33278   */\n      swap2\n      swap1\n      pop\n      jump\t// out\n        /* \"#utility.yul\":33284:33391   */\n    tag_467:\n        /* \"#utility.yul\":33328:33336   */\n      0x00\n        /* \"#utility.yul\":33378:33383   */\n      dup3\n        /* \"#utility.yul\":33372:33376   */\n      dup3\n        /* \"#utility.yul\":33368:33384   */\n      shl\n        /* \"#utility.yul\":33347:33384   */\n      swap1\n      pop\n        /* \"#utility.yul\":33284:33391   */\n      swap3\n      swap2\n      pop\n      pop\n      jump\t// out\n        /* \"#utility.yul\":33397:33790   */\n    tag_468:\n        /* \"#utility.yul\":33466:33472   */\n      0x00\n        /* \"#utility.yul\":33516:33517   */\n      0x08\n        /* \"#utility.yul\":33504:33514   */\n      dup4\n        /* \"#utility.yul\":33500:33518   */\n      mul\n        /* \"#utility.yul\":33539:33636   */\n      tag_767\n        /* \"#utility.yul\":33569:33635   */\n      0xffffffffffffffffffffffffffffffffffffffffffffffffffffffffffffffff\n        /* \"#utility.yul\":33558:33567   */\n      dup3\n        /* \"#utility.yul\":33539:33636   */\n      tag_467\n      jump\t// in\n    tag_767:\n        /* \"#utility.yul\":33657:33696   */\n      tag_768\n        /* \"#utility.yul\":33687:33695   */\n      dup7\n        /* \"#utility.yul\":33676:33685   */\n      dup4\n        /* \"#utility.yul\":33657:33696   */\n      tag_467\n      jump\t// in\n    tag_768:\n        /* \"#utility.yul\":33645:33696   */\n      swap6\n      pop\n        /* \"#utility.yul\":33729:33733   */\n      dup1\n        /* \"#utility.yul\":33725:33734   */\n      not\n        /* \"#utility.yul\":33718:33723   */\n      dup5\n        /* \"#utility.yul\":33714:33735   */\n      and\n        /* \"#utility.yul\":33705:33735   */\n      swap4\n      pop\n        /* \"#utility.yul\":33778:33782   */\n      dup1\n        /* \"#utility.yul\":33768:33776   */\n      dup7\n        /* \"#utility.yul\":33764:33783   */\n      and\n        /* \"#utility.yul\":33757:33762   */\n      dup5\n        /* \"#utility.yul\":33754:33784   */\n      or\n        /* \"#utility.yul\":33744:33784   */\n      swap3\n      pop\n        /* \"#utility.yul\":33473:33790   */\n      pop\n      pop\n        /* \"#utility.yul\":33397:33790   */\n      swap4\n      swap3\n      pop\n      pop\n      pop\n      jump\t// out\n        /* \"#utility.yul\":33796:33856   */\n    tag_469:\n        /* \"#utility.yul\":33824:33827   */\n      0x00\n        /* \"#utility.yul\":33845:33850   */\n      dup2\n        /* \"#utility.yul\":33838:33850   */\n      swap1\n      pop\n        /* \"#utility.yul\":33796:33856   */\n      swap2\n      swap1\n      pop\n      jump\t// out\n        /* \"#utility.yul\":33862:34004   */\n    tag_470:\n        /* \"#utility.yul\":33912:33921   */\n      0x00\n        /* \"#utility.yul\":33945:33998   */\n      tag_771\n        /* \"#utility.yul\":33963:33997   */\n      tag_772\n        /* \"#utility.yul\":33972:33996   */\n      tag_773\n        /* \"#utility.yul\":33990:33995   */\n      dup5\n        /* \"#utility.yul\":33972:33996   */\n      tag_396\n      jump\t// in\n    tag_773:\n        /* \"#utility.yul\":33963:33997   */\n      tag_469\n      jump\t// in\n    tag_772:\n        /* \"#utility.yul\":33945:33998   */\n      tag_396\n      jump\t// in\n    tag_771:\n        /* \"#utility.yul\":33932:33998   */\n      swap1\n      pop\n        /* \"#utility.yul\":33862:34004   */\n      swap2\n      swap1\n      pop\n      jump\t// out\n        /* \"#utility.yul\":34010:34085   */\n    tag_471:\n        /* \"#utility.yul\":34053:34056   */\n      0x00\n        /* \"#utility.yul\":34074:34079   */\n      dup2\n        /* \"#utility.yul\":34067:34079   */\n      swap1\n      pop\n        /* \"#utility.yul\":34010:34085   */\n      swap2\n      swap1\n      pop\n      jump\t// out\n        /* \"#utility.yul\":34091:34360   */\n    tag_472:\n        /* \"#utility.yul\":34201:34240   */\n      tag_776\n        /* \"#utility.yul\":34232:34239   */\n      dup4\n        /* \"#utility.yul\":34201:34240   */\n      tag_470\n      jump\t// in\n    tag_776:\n        /* \"#utility.yul\":34262:34353   */\n      tag_777\n        /* \"#utility.yul\":34311:34352   */\n      tag_778\n        /* \"#utility.yul\":34335:34351   */\n      dup3\n        /* \"#utility.yul\":34311:34352   */\n      tag_471\n      jump\t// in\n    tag_778:\n        /* \"#utility.yul\":34303:34309   */\n      dup5\n        /* \"#utility.yul\":34296:34300   */\n      dup5\n        /* \"#utility.yul\":34290:34301   */\n      sload\n        /* \"#utility.yul\":34262:34353   */\n      tag_468\n      jump\t// in\n    tag_777:\n        /* \"#utility.yul\":34256:34260   */\n      dup3\n        /* \"#utility.yul\":34249:34354   */\n      sstore\n        /* \"#utility.yul\":34167:34360   */\n      pop\n        /* \"#utility.yul\":34091:34360   */\n      pop\n      pop\n      pop\n      jump\t// out\n        /* \"#utility.yul\":34366:34439   */\n    tag_473:\n        /* \"#utility.yul\":34411:34414   */\n      0x00\n        /* \"#utility.yul\":34366:34439   */\n      swap1\n      jump\t// out\n        /* \"#utility.yul\":34445:34634   */\n    tag_474:\n        /* \"#utility.yul\":34522:34554   */\n      tag_781\n      tag_473\n      jump\t// in\n    tag_781:\n        /* \"#utility.yul\":34563:34628   */\n      tag_782\n        /* \"#utility.yul\":34621:34627   */\n      dup2\n        /* \"#utility.yul\":34613:34619   */\n      dup5\n        /* \"#utility.yul\":34607:34611   */\n      dup5\n        /* \"#utility.yul\":34563:34628   */\n      tag_472\n      jump\t// in\n    tag_782:\n        /* \"#utility.yul\":34498:34634   */\n      pop\n        /* \"#utility.yul\":34445:34634   */\n      pop\n      pop\n      jump\t// out\n        /* \"#utility.yul\":34640:34826   */\n    tag_475:\n        /* \"#utility.yul\":34700:34820   */\n    tag_784:\n        /* \"#utility.yul\":34717:34720   */\n      dup2\n        /* \"#utility.yul\":34710:34715   */\n      dup2\n        /* \"#utility.yul\":34707:34721   */\n      lt\n        /* \"#utility.yul\":34700:34820   */\n      iszero\n      tag_786\n      jumpi\n        /* \"#utility.yul\":34771:34810   */\n      tag_787\n        /* \"#utility.yul\":34808:34809   */\n      0x00\n        /* \"#utility.yul\":34801:34806   */\n      dup3\n        /* \"#utility.yul\":34771:34810   */\n      tag_474\n      jump\t// in\n    tag_787:\n        /* \"#utility.yul\":34744:34745   */\n      0x01\n        /* \"#utility.yul\":34737:34742   */\n      dup2\n        /* \"#utility.yul\":34733:34746   */\n      add\n        /* \"#utility.yul\":34724:34746   */\n      swap1\n      pop\n        /* \"#utility.yul\":34700:34820   */\n      jump(tag_784)\n    tag_786:\n        /* \"#utility.yul\":34640:34826   */\n      pop\n      pop\n      jump\t// out\n        /* \"#utility.yul\":34832:35375   */\n    tag_476:\n        /* \"#utility.yul\":34933:34935   */\n      0x1f\n        /* \"#utility.yul\":34928:34931   */\n      dup3\n        /* \"#utility.yul\":34925:34936   */\n      gt\n        /* \"#utility.yul\":34922:35368   */\n      iszero\n      tag_789\n      jumpi\n        /* \"#utility.yul\":34967:35005   */\n      tag_790\n        /* \"#utility.yul\":34999:35004   */\n      dup2\n        /* \"#utility.yul\":34967:35005   */\n      tag_465\n      jump\t// in\n    tag_790:\n        /* \"#utility.yul\":35051:35080   */\n      tag_791\n        /* \"#utility.yul\":35069:35079   */\n      dup5\n        /* \"#utility.yul\":35051:35080   */\n      tag_466\n      jump\t// in\n    tag_791:\n        /* \"#utility.yul\":35041:35049   */\n      dup2\n        /* \"#utility.yul\":35037:35081   */\n      add\n        /* \"#utility.yul\":35234:35236   */\n      0x20\n        /* \"#utility.yul\":35222:35232   */\n      dup6\n        /* \"#utility.yul\":35219:35237   */\n      lt\n        /* \"#utility.yul\":35216:35265   */\n      iszero\n      tag_792\n      jumpi\n        /* \"#utility.yul\":35255:35263   */\n      dup2\n        /* \"#utility.yul\":35240:35263   */\n      swap1\n      pop\n        /* \"#utility.yul\":35216:35265   */\n    tag_792:\n        /* \"#utility.yul\":35278:35358   */\n      tag_793\n        /* \"#utility.yul\":35334:35356   */\n      tag_794\n        /* \"#utility.yul\":35352:35355   */\n      dup6\n        /* \"#utility.yul\":35334:35356   */\n      tag_466\n      jump\t// in\n    tag_794:\n        /* \"#utility.yul\":35324:35332   */\n      dup4\n        /* \"#utility.yul\":35320:35357   */\n      add\n        /* \"#utility.yul\":35307:35318   */\n      dup3\n        /* \"#utility.yul\":35278:35358   */\n      tag_475\n      jump\t// in\n    tag_793:\n        /* \"#utility.yul\":34937:35368   */\n      pop\n      pop\n        /* \"#utility.yul\":34922:35368   */\n    tag_789:\n        /* \"#utility.yul\":34832:35375   */\n      pop\n      pop\n      pop\n      jump\t// out\n        /* \"#utility.yul\":35381:35498   */\n    tag_477:\n        /* \"#utility.yul\":35435:35443   */\n      0x00\n        /* \"#utility.yul\":35485:35490   */\n      dup3\n        /* \"#utility.yul\":35479:35483   */\n      dup3\n        /* \"#utility.yul\":35475:35491   */\n      shr\n        /* \"#utility.yul\":35454:35491   */\n      swap1\n      pop\n        /* \"#utility.yul\":35381:35498   */\n      swap3\n      swap2\n      pop\n      pop\n      jump\t// out\n        /* \"#utility.yul\":35504:35673   */\n    tag_478:\n        /* \"#utility.yul\":35548:35554   */\n      0x00\n        /* \"#utility.yul\":35581:35632   */\n      tag_797\n        /* \"#utility.yul\":35629:35630   */\n      0x00\n        /* \"#utility.yul\":35625:35631   */\n      not\n        /* \"#utility.yul\":35617:35622   */\n      dup5\n        /* \"#utility.yul\":35614:35615   */\n      0x08\n        /* \"#utility.yul\":35610:35623   */\n      mul\n        /* \"#utility.yul\":35581:35632   */\n      tag_477\n      jump\t// in\n    tag_797:\n        /* \"#utility.yul\":35577:35633   */\n      not\n        /* \"#utility.yul\":35662:35666   */\n      dup1\n        /* \"#utility.yul\":35656:35660   */\n      dup4\n        /* \"#utility.yul\":35652:35667   */\n      and\n        /* \"#utility.yul\":35642:35667   */\n      swap2\n      pop\n        /* \"#utility.yul\":35555:35673   */\n      pop\n        /* \"#utility.yul\":35504:35673   */\n      swap3\n      swap2\n      pop\n      pop\n      jump\t// out\n        /* \"#utility.yul\":35678:35973   */\n    tag_479:\n        /* \"#utility.yul\":35754:35758   */\n      0x00\n        /* \"#utility.yul\":35900:35929   */\n      tag_799\n        /* \"#utility.yul\":35925:35928   */\n      dup4\n        /* \"#utility.yul\":35919:35923   */\n      dup4\n        /* \"#utility.yul\":35900:35929   */\n      tag_478\n      jump\t// in\n    tag_799:\n        /* \"#utility.yul\":35892:35929   */\n      swap2\n      pop\n        /* \"#utility.yul\":35962:35965   */\n      dup3\n        /* \"#utility.yul\":35959:35960   */\n      0x02\n        /* \"#utility.yul\":35955:35966   */\n      mul\n        /* \"#utility.yul\":35949:35953   */\n      dup3\n        /* \"#utility.yul\":35946:35967   */\n      or\n        /* \"#utility.yul\":35938:35967   */\n      swap1\n      pop\n        /* \"#utility.yul\":35678:35973   */\n      swap3\n      swap2\n      pop\n      pop\n      jump\t// out\n        /* \"#utility.yul\":35978:37373   */\n    tag_381:\n        /* \"#utility.yul\":36095:36132   */\n      tag_801\n        /* \"#utility.yul\":36128:36131   */\n      dup3\n        /* \"#utility.yul\":36095:36132   */\n      tag_409\n      jump\t// in\n    tag_801:\n        /* \"#utility.yul\":36197:36215   */\n      0xffffffffffffffff\n        /* \"#utility.yul\":36189:36195   */\n      dup2\n        /* \"#utility.yul\":36186:36216   */\n      gt\n        /* \"#utility.yul\":36183:36239   */\n      iszero\n      tag_802\n      jumpi\n        /* \"#utility.yul\":36219:36237   */\n      tag_803\n      tag_119\n      jump\t// in\n    tag_803:\n        /* \"#utility.yul\":36183:36239   */\n    tag_802:\n        /* \"#utility.yul\":36263:36301   */\n      tag_804\n        /* \"#utility.yul\":36295:36299   */\n      dup3\n        /* \"#utility.yul\":36289:36300   */\n      sload\n        /* \"#utility.yul\":36263:36301   */\n      tag_196\n      jump\t// in\n    tag_804:\n        /* \"#utility.yul\":36348:36415   */\n      tag_805\n        /* \"#utility.yul\":36408:36414   */\n      dup3\n        /* \"#utility.yul\":36400:36406   */\n      dup3\n        /* \"#utility.yul\":36394:36398   */\n      dup6\n        /* \"#utility.yul\":36348:36415   */\n      tag_476\n      jump\t// in\n    tag_805:\n        /* \"#utility.yul\":36442:36443   */\n      0x00\n        /* \"#utility.yul\":36466:36470   */\n      0x20\n        /* \"#utility.yul\":36453:36470   */\n      swap1\n      pop\n        /* \"#utility.yul\":36498:36500   */\n      0x1f\n        /* \"#utility.yul\":36490:36496   */\n      dup4\n        /* \"#utility.yul\":36487:36501   */\n      gt\n        /* \"#utility.yul\":36515:36516   */\n      0x01\n        /* \"#utility.yul\":36510:37128   */\n      dup2\n      eq\n      tag_807\n      jumpi\n        /* \"#utility.yul\":37172:37173   */\n      0x00\n        /* \"#utility.yul\":37189:37195   */\n      dup5\n        /* \"#utility.yul\":37186:37263   */\n      iszero\n      tag_808\n      jumpi\n        /* \"#utility.yul\":37238:37247   */\n      dup3\n        /* \"#utility.yul\":37233:37236   */\n      dup8\n        /* \"#utility.yul\":37229:37248   */\n      add\n        /* \"#utility.yul\":37223:37249   */\n      mload\n        /* \"#utility.yul\":37214:37249   */\n      swap1\n      pop\n        /* \"#utility.yul\":37186:37263   */\n    tag_808:\n        /* \"#utility.yul\":37289:37356   */\n      tag_809\n        /* \"#utility.yul\":37349:37355   */\n      dup6\n        /* \"#utility.yul\":37342:37347   */\n      dup3\n        /* \"#utility.yul\":37289:37356   */\n      tag_479\n      jump\t// in\n    tag_809:\n        /* \"#utility.yul\":37283:37287   */\n      dup7\n        /* \"#utility.yul\":37276:37357   */\n      sstore\n        /* \"#utility.yul\":37145:37367   */\n      pop\n        /* \"#utility.yul\":36480:37367   */\n      jump(tag_806)\n        /* \"#utility.yul\":36510:37128   */\n    tag_807:\n        /* \"#utility.yul\":36562:36566   */\n      0x1f\n        /* \"#utility.yul\":36558:36567   */\n      not\n        /* \"#utility.yul\":36550:36556   */\n      dup5\n        /* \"#utility.yul\":36546:36568   */\n      and\n        /* \"#utility.yul\":36596:36633   */\n      tag_810\n        /* \"#utility.yul\":36628:36632   */\n      dup7\n        /* \"#utility.yul\":36596:36633   */\n      tag_465\n      jump\t// in\n    tag_810:\n        /* \"#utility.yul\":36655:36656   */\n      0x00\n        /* \"#utility.yul\":36669:36877   */\n    tag_811:\n        /* \"#utility.yul\":36683:36690   */\n      dup3\n        /* \"#utility.yul\":36680:36681   */\n      dup2\n        /* \"#utility.yul\":36677:36691   */\n      lt\n        /* \"#utility.yul\":36669:36877   */\n      iszero\n      tag_813\n      jumpi\n        /* \"#utility.yul\":36762:36771   */\n      dup5\n        /* \"#utility.yul\":36757:36760   */\n      dup10\n        /* \"#utility.yul\":36753:36772   */\n      add\n        /* \"#utility.yul\":36747:36773   */\n      mload\n        /* \"#utility.yul\":36739:36745   */\n      dup3\n        /* \"#utility.yul\":36732:36774   */\n      sstore\n        /* \"#utility.yul\":36813:36814   */\n      0x01\n        /* \"#utility.yul\":36805:36811   */\n      dup3\n        /* \"#utility.yul\":36801:36815   */\n      add\n        /* \"#utility.yul\":36791:36815   */\n      swap2\n      pop\n        /* \"#utility.yul\":36860:36862   */\n      0x20\n        /* \"#utility.yul\":36849:36858   */\n      dup6\n        /* \"#utility.yul\":36845:36863   */\n      add\n        /* \"#utility.yul\":36832:36863   */\n      swap5\n      pop\n        /* \"#utility.yul\":36706:36710   */\n      0x20\n        /* \"#utility.yul\":36703:36704   */\n      dup2\n        /* \"#utility.yul\":36699:36711   */\n      add\n        /* \"#utility.yul\":36694:36711   */\n      swap1\n      pop\n        /* \"#utility.yul\":36669:36877   */\n      jump(tag_811)\n    tag_813:\n        /* \"#utility.yul\":36905:36911   */\n      dup7\n        /* \"#utility.yul\":36896:36903   */\n      dup4\n        /* \"#utility.yul\":36893:36912   */\n      lt\n        /* \"#utility.yul\":36890:37069   */\n      iszero\n      tag_814\n      jumpi\n        /* \"#utility.yul\":36963:36972   */\n      dup5\n        /* \"#utility.yul\":36958:36961   */\n      dup10\n        /* \"#utility.yul\":36954:36973   */\n      add\n        /* \"#utility.yul\":36948:36974   */\n      mload\n        /* \"#utility.yul\":37006:37054   */\n      tag_815\n        /* \"#utility.yul\":37048:37052   */\n      0x1f\n        /* \"#utility.yul\":37040:37046   */\n      dup10\n        /* \"#utility.yul\":37036:37053   */\n      and\n        /* \"#utility.yul\":37025:37034   */\n      dup3\n        /* \"#utility.yul\":37006:37054   */\n      tag_478\n      jump\t// in\n    tag_815:\n        /* \"#utility.yul\":36998:37004   */\n      dup4\n        /* \"#utility.yul\":36991:37055   */\n      sstore\n        /* \"#utility.yul\":36913:37069   */\n      pop\n        /* \"#utility.yul\":36890:37069   */\n    tag_814:\n        /* \"#utility.yul\":37115:37116   */\n      0x01\n        /* \"#utility.yul\":37111:37112   */\n      0x02\n        /* \"#utility.yul\":37103:37109   */\n      dup9\n        /* \"#utility.yul\":37099:37113   */\n      mul\n        /* \"#utility.yul\":37095:37117   */\n      add\n        /* \"#utility.yul\":37089:37093   */\n      dup9\n        /* \"#utility.yul\":37082:37118   */\n      sstore\n        /* \"#utility.yul\":36517:37128   */\n      pop\n      pop\n      pop\n        /* \"#utility.yul\":36480:37367   */\n    tag_806:\n      pop\n        /* \"#utility.yul\":36070:37373   */\n      pop\n      pop\n      pop\n        /* \"#utility.yul\":35978:37373   */\n      pop\n      pop\n      jump\t// out\n        /* \"#utility.yul\":37379:37458   */\n    tag_480:\n        /* \"#utility.yul\":37418:37425   */\n      0x00\n        /* \"#utility.yul\":37447:37452   */\n      dup2\n        /* \"#utility.yul\":37436:37452   */\n      swap1\n      pop\n        /* \"#utility.yul\":37379:37458   */\n      swap2\n      swap1\n      pop\n      jump\t// out\n        /* \"#utility.yul\":37464:37621   */\n    tag_481:\n        /* \"#utility.yul\":37569:37614   */\n      tag_818\n        /* \"#utility.yul\":37589:37613   */\n      tag_819\n        /* \"#utility.yul\":37607:37612   */\n      dup3\n        /* \"#utility.yul\":37589:37613   */\n      tag_396\n      jump\t// in\n    tag_819:\n        /* \"#utility.yul\":37569:37614   */\n      tag_480\n      jump\t// in\n    tag_818:\n        /* \"#utility.yul\":37564:37567   */\n      dup3\n        /* \"#utility.yul\":37557:37615   */\n      mstore\n        /* \"#utility.yul\":37464:37621   */\n      pop\n      pop\n      jump\t// out\n        /* \"#utility.yul\":37627:38024   */\n    tag_387:\n        /* \"#utility.yul\":37767:37770   */\n      0x00\n        /* \"#utility.yul\":37782:37857   */\n      tag_821\n        /* \"#utility.yul\":37853:37856   */\n      dup3\n        /* \"#utility.yul\":37844:37850   */\n      dup6\n        /* \"#utility.yul\":37782:37857   */\n      tag_481\n      jump\t// in\n    tag_821:\n        /* \"#utility.yul\":37882:37884   */\n      0x20\n        /* \"#utility.yul\":37877:37880   */\n      dup3\n        /* \"#utility.yul\":37873:37885   */\n      add\n        /* \"#utility.yul\":37866:37885   */\n      swap2\n      pop\n        /* \"#utility.yul\":37895:37970   */\n      tag_822\n        /* \"#utility.yul\":37966:37969   */\n      dup3\n        /* \"#utility.yul\":37957:37963   */\n      dup5\n        /* \"#utility.yul\":37895:37970   */\n      tag_481\n      jump\t// in\n    tag_822:\n        /* \"#utility.yul\":37995:37997   */\n      0x20\n        /* \"#utility.yul\":37990:37993   */\n      dup3\n        /* \"#utility.yul\":37986:37998   */\n      add\n        /* \"#utility.yul\":37979:37998   */\n      swap2\n      pop\n        /* \"#utility.yul\":38015:38018   */\n      dup2\n        /* \"#utility.yul\":38008:38018   */\n      swap1\n      pop\n        /* \"#utility.yul\":37627:38024   */\n      swap4\n      swap3\n      pop\n      pop\n      pop\n      jump\t// out\n    stop\n    data_e0168f3fae51cf798b1321eebdaae7bc178ca214b91f59783066943e69095f12 57696e20416e64204c6f6f7365206973207468652070617274206f66207468652047616d652e54727920416761696e212e\n\n    auxdata: 0xa26469706673582212206d70210816c3432d547a0f7aeb768bc03fa2dc0d6458ec851e887d5b3fdb56f464736f6c63430008140033\n}\n",
				"bytecode": {
					"linkReferences": {},
					"object": "6080604052662386f26fc1000060025534801561001a575f80fd5b506135e0806100285f395ff3fe6080604052600436106100f2575f3560e01c8063b81c3db711610089578063cb9940b711610058578063cb9940b714610350578063d41b93b114610380578063e0c4f15e146103a8578063e70364d4146103d0576100f2565b8063b81c3db714610286578063b93a89f71461029c578063c0342cb4146102d8578063c583f36a14610314576100f2565b8063901ac159116100c5578063901ac159146101aa5780639264a169146101e65780639a861a781461020e5780639f52f1a11461024a576100f2565b8063095ea7b3146100f657806335e1d33c1461011e5780633c956b05146101465780637138d32d14610182575b5f80fd5b348015610101575f80fd5b5061011c600480360381019061011791906123b7565b610400565b005b348015610129575f80fd5b50610144600480360381019061013f91906123f5565b61059b565b005b348015610151575f80fd5b5061016c60048036038101906101679190612433565b6106de565b6040516101799190612515565b60405180910390f35b34801561018d575f80fd5b506101a860048036038101906101a39190612535565b610828565b005b3480156101b5575f80fd5b506101d060048036038101906101cb9190612535565b610aef565b6040516101dd919061256f565b60405180910390f35b3480156101f1575f80fd5b5061020c60048036038101906102079190612588565b610b04565b005b348015610219575f80fd5b50610234600480360381019061022f9190612433565b610edb565b60405161024191906125f2565b60405180910390f35b348015610255575f80fd5b50610270600480360381019061026b9190612535565b610ef8565b60405161027d91906125f2565b60405180910390f35b348015610291575f80fd5b5061029a610f15565b005b3480156102a7575f80fd5b506102c260048036038101906102bd9190612535565b6110a5565b6040516102cf919061275e565b60405180910390f35b3480156102e3575f80fd5b506102fe60048036038101906102f99190612433565b611245565b60405161030b91906125f2565b60405180910390f35b34801561031f575f80fd5b5061033a60048036038101906103359190612535565b611262565b604051610347919061278d565b60405180910390f35b61036a600480360381019061036591906128d2565b611292565b60405161037791906125f2565b60405180910390f35b34801561038b575f80fd5b506103a660048036038101906103a19190612535565b6113db565b005b3480156103b3575f80fd5b506103ce60048036038101906103c99190612535565b61155a565b005b6103ea60048036038101906103e59190612535565b6116e5565b6040516103f791906125f2565b60405180910390f35b803373ffffffffffffffffffffffffffffffffffffffff165f808381526020019081526020015f205f9054906101000a900473ffffffffffffffffffffffffffffffffffffffff1673ffffffffffffffffffffffffffffffffffffffff161461049e576040517f08c379a0000000000000000000000000000000000000000000000000000000008152600401610495906129a2565b60405180910390fd5b8160065f3373ffffffffffffffffffffffffffffffffffffffff1673ffffffffffffffffffffffffffffffffffffffff1681526020019081526020015f205f8573ffffffffffffffffffffffffffffffffffffffff1673ffffffffffffffffffffffffffffffffffffffff1681526020019081526020015f20819055508260075f3373ffffffffffffffffffffffffffffffffffffffff1673ffffffffffffffffffffffffffffffffffffffff1681526020019081526020015f205f6101000a81548173ffffffffffffffffffffffffffffffffffffffff021916908373ffffffffffffffffffffffffffffffffffffffff160217905550505050565b813373ffffffffffffffffffffffffffffffffffffffff165f808381526020019081526020015f205f9054906101000a900473ffffffffffffffffffffffffffffffffffffffff1673ffffffffffffffffffffffffffffffffffffffff1614610639576040517f08c379a0000000000000000000000000000000000000000000000000000000008152600401610630906129a2565b60405180910390fd5b60055f8481526020019081526020015f205f9054906101000a900460ff1615610660575f80fd5b670de0b6b3a76400008261067491906129ed565b600c5f8581526020019081526020015f2081905550600160055f8581526020019081526020015f205f6101000a81548160ff0219169083151502179055505f601e426106c09190612a4a565b90508060085f8681526020019081526020015f208190555050505050565b60605f60015f8473ffffffffffffffffffffffffffffffffffffffff1673ffffffffffffffffffffffffffffffffffffffff1681526020019081526020015f205467ffffffffffffffff811115610738576107376127ae565b5b6040519080825280602002602001820160405280156107665781602001602082028036833780820191505090505b5090505f805b60038054905081101561081d578473ffffffffffffffffffffffffffffffffffffffff165f808381526020019081526020015f205f9054906101000a900473ffffffffffffffffffffffffffffffffffffffff1673ffffffffffffffffffffffffffffffffffffffff160361080a57808383815181106107ef576107ee612a7d565b5b602002602001018181525050818061080690612aaa565b9250505b808061081590612aaa565b91505061076c565b508192505050919050565b3373ffffffffffffffffffffffffffffffffffffffff16600b5f8381526020019081526020015f205f9054906101000a900473ffffffffffffffffffffffffffffffffffffffff1673ffffffffffffffffffffffffffffffffffffffff1614806108df57506001151560045f3373ffffffffffffffffffffffffffffffffffffffff1673ffffffffffffffffffffffffffffffffffffffff1681526020019081526020015f205f9054906101000a900460ff161515145b15610a44574260085f8381526020019081526020015f205411610937576040517f08c379a000000000000000000000000000000000000000000000000000000000815260040161092e90612b3b565b60405180910390fd5b5f6003828154811061094c5761094b612a7d565b5b905f5260205f209060090201600701549050610967826119c1565b50806003838154811061097d5761097c612a7d565b5b905f5260205f209060090201600701541180156109d757506001805f3373ffffffffffffffffffffffffffffffffffffffff1673ffffffffffffffffffffffffffffffffffffffff1681526020019081526020015f205410155b15610a3e575f6109e6336106de565b905060016003825f815181106109ff576109fe612a7d565b5b602002602001015181548110610a1857610a17612a7d565b5b905f5260205f2090600902016003015f828254610a359190612a4a565b92505081905550505b50610aec565b3373ffffffffffffffffffffffffffffffffffffffff165f808381526020019081526020015f205f9054906101000a900473ffffffffffffffffffffffffffffffffffffffff1673ffffffffffffffffffffffffffffffffffffffff1614610ae1576040517f08c379a0000000000000000000000000000000000000000000000000000000008152600401610ad890612ba3565b60405180910390fd5b610aea816119c1565b505b50565b600c602052805f5260405f205f915090505481565b803373ffffffffffffffffffffffffffffffffffffffff165f808381526020019081526020015f205f9054906101000a900473ffffffffffffffffffffffffffffffffffffffff1673ffffffffffffffffffffffffffffffffffffffff1614610ba2576040517f08c379a0000000000000000000000000000000000000000000000000000000008152600401610b99906129a2565b60405180910390fd5b6040518060400160405280600781526020017f7072656d69756d000000000000000000000000000000000000000000000000008152508051906020012060038381548110610bf357610bf2612a7d565b5b905f5260205f2090600902015f01604051610c0e9190612cba565b604051809103902014610c56576040517f08c379a0000000000000000000000000000000000000000000000000000000008152600401610c4d90612d1a565b60405180910390fd5b60055f8381526020019081526020015f205f9054906101000a900460ff1615610cb4576040517f08c379a0000000000000000000000000000000000000000000000000000000008152600401610cab90612d82565b60405180910390fd5b8373ffffffffffffffffffffffffffffffffffffffff165f808481526020019081526020015f205f9054906101000a900473ffffffffffffffffffffffffffffffffffffffff1673ffffffffffffffffffffffffffffffffffffffff161480610da457503373ffffffffffffffffffffffffffffffffffffffff1660075f8673ffffffffffffffffffffffffffffffffffffffff1673ffffffffffffffffffffffffffffffffffffffff1681526020019081526020015f205f9054906101000a900473ffffffffffffffffffffffffffffffffffffffff1673ffffffffffffffffffffffffffffffffffffffff16145b610de3576040517f08c379a0000000000000000000000000000000000000000000000000000000008152600401610dda90612dea565b60405180910390fd5b825f808481526020019081526020015f205f6101000a81548173ffffffffffffffffffffffffffffffffffffffff021916908373ffffffffffffffffffffffffffffffffffffffff16021790555060015f8573ffffffffffffffffffffffffffffffffffffffff1673ffffffffffffffffffffffffffffffffffffffff1681526020019081526020015f205f815480929190610e7e90612e08565b919050555060015f8473ffffffffffffffffffffffffffffffffffffffff1673ffffffffffffffffffffffffffffffffffffffff1681526020019081526020015f205f815480929190610ed090612aaa565b919050555050505050565b600a602052805f5260405f205f915054906101000a900460ff1681565b6009602052805f5260405f205f915054906101000a900460ff1681565b5f60015f3373ffffffffffffffffffffffffffffffffffffffff1673ffffffffffffffffffffffffffffffffffffffff1681526020019081526020015f205414610f94576040517f08c379a0000000000000000000000000000000000000000000000000000000008152600401610f8b90612e79565b60405180910390fd5b600160045f3373ffffffffffffffffffffffffffffffffffffffff1673ffffffffffffffffffffffffffffffffffffffff1681526020019081526020015f205f6101000a81548160ff0219169083151502179055506110a36040518060400160405280600481526020017f46726565000000000000000000000000000000000000000000000000000000008152506040518060400160405280600a81526020017f467265655a6f6d626965000000000000000000000000000000000000000000008152506110966040518060400160405280600481526020017f66726565000000000000000000000000000000000000000000000000000000008152506120aa565b60015f8060025f806120ed565b565b6110ad6122d4565b600382815481106110c1576110c0612a7d565b5b905f5260205f209060090201604051806101200160405290815f820180546110e890612bee565b80601f016020809104026020016040519081016040528092919081815260200182805461111490612bee565b801561115f5780601f106111365761010080835404028352916020019161115f565b820191905f5260205f20905b81548152906001019060200180831161114257829003601f168201915b5050505050815260200160018201805461117890612bee565b80601f01602080910402602001604051908101604052809291908181526020018280546111a490612bee565b80156111ef5780601f106111c6576101008083540402835291602001916111ef565b820191905f5260205f20905b8154815290600101906020018083116111d257829003601f168201915b505050505081526020016002820154815260200160038201548152602001600482015481526020016005820154815260200160068201548152602001600782015481526020016008820154815250509050919050565b6004602052805f5260405f205f915054906101000a900460ff1681565b600b602052805f5260405f205f915054906101000a900473ffffffffffffffffffffffffffffffffffffffff1681565b5f670de0b6b3a764000034146112dd576040517f08c379a00000000000000000000000000000000000000000000000000000000081526004016112d490612ee1565b60405180910390fd5b6040518060400160405280600781526020017f7072656d69756d00000000000000000000000000000000000000000000000000815250805190602001208380519060200120148061137057506040518060400160405280600781526020017f4469616d6f6e6400000000000000000000000000000000000000000000000000815250805190602001208380519060200120145b6113af576040517f08c379a00000000000000000000000000000000000000000000000000000000081526004016113a690612f49565b60405180910390fd5b5f6113b9836120aa565b90506113d084848360056101f45f60055f806120ed565b600191505092915050565b803373ffffffffffffffffffffffffffffffffffffffff165f808381526020019081526020015f205f9054906101000a900473ffffffffffffffffffffffffffffffffffffffff1673ffffffffffffffffffffffffffffffffffffffff1614611479576040517f08c379a0000000000000000000000000000000000000000000000000000000008152600401611470906129a2565b60405180910390fd5b6101f4600383815481106114905761148f612a7d565b5b905f5260205f2090600902016004015410156114e1576040517f08c379a00000000000000000000000000000000000000000000000000000000081526004016114d890612fb1565b60405180910390fd5b6101f4600383815481106114f8576114f7612a7d565b5b905f5260205f2090600902016004015f8282546115159190612fcf565b9250508190555060016003838154811061153257611531612a7d565b5b905f5260205f2090600902016003015f82825461154f9190612a4a565b925050819055505050565b803373ffffffffffffffffffffffffffffffffffffffff165f808381526020019081526020015f205f9054906101000a900473ffffffffffffffffffffffffffffffffffffffff1673ffffffffffffffffffffffffffffffffffffffff16146115f8576040517f08c379a00000000000000000000000000000000000000000000000000000000081526004016115ef906129a2565b60405180910390fd5b6001151560055f8481526020019081526020015f205f9054906101000a900460ff16151514611625575f80fd5b60085f8381526020019081526020015f2054421015611642575f80fd5b5f60055f8481526020019081526020015f205f6101000a81548160ff0219169083151502179055505f60095f8481526020019081526020015f205f6101000a81548160ff0219169083151502179055505f600b5f8481526020019081526020015f205f6101000a81548173ffffffffffffffffffffffffffffffffffffffff021916908373ffffffffffffffffffffffffffffffffffffffff1602179055505050565b5f600c5f8381526020019081526020015f20543414611739576040517f08c379a00000000000000000000000000000000000000000000000000000000081526004016117309061304c565b60405180910390fd5b60095f8381526020019081526020015f205f9054906101000a900460ff161580156117ab5750600a5f3373ffffffffffffffffffffffffffffffffffffffff1673ffffffffffffffffffffffffffffffffffffffff1681526020019081526020015f205f9054906101000a900460ff16155b6117ea576040517f08c379a00000000000000000000000000000000000000000000000000000000081526004016117e1906130b4565b60405180910390fd5b3373ffffffffffffffffffffffffffffffffffffffff165f808481526020019081526020015f205f9054906101000a900473ffffffffffffffffffffffffffffffffffffffff1673ffffffffffffffffffffffffffffffffffffffff1603611887576040517f08c379a000000000000000000000000000000000000000000000000000000000815260040161187e9061311c565b60405180910390fd5b6001151560055f8481526020019081526020015f205f9054906101000a900460ff161515146118eb576040517f08c379a00000000000000000000000000000000000000000000000000000000081526004016118e290613184565b60405180910390fd5b33600b5f8481526020019081526020015f205f6101000a81548173ffffffffffffffffffffffffffffffffffffffff021916908373ffffffffffffffffffffffffffffffffffffffff1602179055506001600a5f3373ffffffffffffffffffffffffffffffffffffffff1673ffffffffffffffffffffffffffffffffffffffff1681526020019081526020015f205f6101000a81548160ff021916908315150217905550600160095f8481526020019081526020015f205f6101000a81548160ff02191690831515021790555060019050919050565b60605f6119cc612289565b90506001600384815481106119e4576119e3612a7d565b5b905f5260205f209060090201600601541015611a35576040517f08c379a0000000000000000000000000000000000000000000000000000000008152600401611a2c906131ec565b60405180910390fd5b600160038281548110611a4b57611a4a612a7d565b5b905f5260205f209060090201600601541015611a9c576040517f08c379a0000000000000000000000000000000000000000000000000000000008152600401611a9390613254565b60405180910390fd5b60038181548110611ab057611aaf612a7d565b5b905f5260205f2090600902016003015460038481548110611ad457611ad3612a7d565b5b905f5260205f209060090201600301541115611d225760038381548110611afe57611afd612a7d565b5b905f5260205f2090600902016003015f815480929190611b1d90612aaa565b919050555060038381548110611b3657611b35612a7d565b5b905f5260205f2090600902016005015f815480929190611b5590612aaa565b919050555060038381548110611b6e57611b6d612a7d565b5b905f5260205f2090600902016006015f815480929190611b8d90612e08565b919050555060038381548110611ba657611ba5612a7d565b5b905f5260205f2090600902016007015f815480929190611bc590612aaa565b9190505550606460038481548110611be057611bdf612a7d565b5b905f5260205f2090600902016004015f828254611bfd9190612a4a565b9250508190555060038181548110611c1857611c17612a7d565b5b905f5260205f2090600902016003015f815480929190611c3790612e08565b919050555060038181548110611c5057611c4f612a7d565b5b905f5260205f2090600902016005015f815480929190611c6f90612aaa565b919050555060038181548110611c8857611c87612a7d565b5b905f5260205f2090600902016006015f815480929190611ca790612e08565b919050555060038181548110611cc057611cbf612a7d565b5b905f5260205f2090600902016008015f815480929190611cdf90612aaa565b91905055506040518060400160405280600e81526020017f436f6e67726174732057696e732e0000000000000000000000000000000000008152509150506120a5565b60038381548110611d3657611d35612a7d565b5b905f5260205f2090600902016003015460038281548110611d5a57611d59612a7d565b5b905f5260205f209060090201600301541115611f8b5760038181548110611d8457611d83612a7d565b5b905f5260205f2090600902016003015f815480929190611da390612aaa565b919050555060038181548110611dbc57611dbb612a7d565b5b905f5260205f2090600902016005015f815480929190611ddb90612aaa565b919050555060038181548110611df457611df3612a7d565b5b905f5260205f2090600902016006015f815480929190611e1390612e08565b919050555060038181548110611e2c57611e2b612a7d565b5b905f5260205f2090600902016007015f815480929190611e4b90612aaa565b9190505550606460038281548110611e6657611e65612a7d565b5b905f5260205f2090600902016004015f828254611e839190612a4a565b9250508190555060038381548110611e9e57611e9d612a7d565b5b905f5260205f2090600902016003015f815480929190611ebd90612e08565b919050555060038381548110611ed657611ed5612a7d565b5b905f5260205f2090600902016005015f815480929190611ef590612aaa565b919050555060038381548110611f0e57611f0d612a7d565b5b905f5260205f2090600902016006015f815480929190611f2d90612e08565b919050555060038381548110611f4657611f45612a7d565b5b905f5260205f2090600902016008015f815480929190611f6590612aaa565b919050555060405180606001604052806031815260200161357a603191399150506120a5565b60038181548110611f9f57611f9e612a7d565b5b905f5260205f2090600902016005015f815480929190611fbe90612aaa565b919050555060038381548110611fd757611fd6612a7d565b5b905f5260205f2090600902016005015f815480929190611ff690612aaa565b91905055506003838154811061200f5761200e612a7d565b5b905f5260205f2090600902016006015f81548092919061202e90612e08565b91905055506003818154811061204757612046612a7d565b5b905f5260205f2090600902016006015f81548092919061206690612e08565b91905055506040518060400160405280600f81526020017f447261772054727920416761696e2e00000000000000000000000000000000008152509150505b919050565b5f80826040516020016120bd91906132ac565b604051602081830303815290604052805190602001205f1c9050600254816120e591906129ed565b915050919050565b60036040518061012001604052808b81526020018a815260200189815260200188815260200187815260200186815260200185815260200184815260200183815250908060018154018082558091505060019003905f5260205f2090600902015f909190919091505f820151815f019081612168919061345f565b50602082015181600101908161217e919061345f565b5060408201518160020155606082015181600301556080820151816004015560a0820151816005015560c0820151816006015560e08201518160070155610100820151816008015550505f60016003805490506121db9190612fcf565b905060015f3373ffffffffffffffffffffffffffffffffffffffff1673ffffffffffffffffffffffffffffffffffffffff1681526020019081526020015f205f81548092919061222a90612aaa565b9190505550335f808381526020019081526020015f205f6101000a81548173ffffffffffffffffffffffffffffffffffffffff021916908373ffffffffffffffffffffffffffffffffffffffff16021790555050505050505050505050565b5f8060038054905090505f8182426040516020016122a892919061354e565b604051602081830303815290604052805190602001205f1c6122ca91906129ed565b9050809250505090565b60405180610120016040528060608152602001606081526020015f81526020015f81526020015f81526020015f81526020015f81526020015f81526020015f81525090565b5f604051905090565b5f80fd5b5f80fd5b5f73ffffffffffffffffffffffffffffffffffffffff82169050919050565b5f6123538261232a565b9050919050565b61236381612349565b811461236d575f80fd5b50565b5f8135905061237e8161235a565b92915050565b5f819050919050565b61239681612384565b81146123a0575f80fd5b50565b5f813590506123b18161238d565b92915050565b5f80604083850312156123cd576123cc612322565b5b5f6123da85828601612370565b92505060206123eb858286016123a3565b9150509250929050565b5f806040838503121561240b5761240a612322565b5b5f612418858286016123a3565b9250506020612429858286016123a3565b9150509250929050565b5f6020828403121561244857612447612322565b5b5f61245584828501612370565b91505092915050565b5f81519050919050565b5f82825260208201905092915050565b5f819050602082019050919050565b61249081612384565b82525050565b5f6124a18383612487565b60208301905092915050565b5f602082019050919050565b5f6124c38261245e565b6124cd8185612468565b93506124d883612478565b805f5b838110156125085781516124ef8882612496565b97506124fa836124ad565b9250506001810190506124db565b5085935050505092915050565b5f6020820190508181035f83015261252d81846124b9565b905092915050565b5f6020828403121561254a57612549612322565b5b5f612557848285016123a3565b91505092915050565b61256981612384565b82525050565b5f6020820190506125825f830184612560565b92915050565b5f805f6060848603121561259f5761259e612322565b5b5f6125ac86828701612370565b93505060206125bd86828701612370565b92505060406125ce868287016123a3565b9150509250925092565b5f8115159050919050565b6125ec816125d8565b82525050565b5f6020820190506126055f8301846125e3565b92915050565b5f81519050919050565b5f82825260208201905092915050565b5f5b83811015612642578082015181840152602081019050612627565b5f8484015250505050565b5f601f19601f8301169050919050565b5f6126678261260b565b6126718185612615565b9350612681818560208601612625565b61268a8161264d565b840191505092915050565b5f61012083015f8301518482035f8601526126b0828261265d565b915050602083015184820360208601526126ca828261265d565b91505060408301516126df6040860182612487565b5060608301516126f26060860182612487565b5060808301516127056080860182612487565b5060a083015161271860a0860182612487565b5060c083015161272b60c0860182612487565b5060e083015161273e60e0860182612487565b50610100830151612753610100860182612487565b508091505092915050565b5f6020820190508181035f8301526127768184612695565b905092915050565b61278781612349565b82525050565b5f6020820190506127a05f83018461277e565b92915050565b5f80fd5b5f80fd5b7f4e487b71000000000000000000000000000000000000000000000000000000005f52604160045260245ffd5b6127e48261264d565b810181811067ffffffffffffffff82111715612803576128026127ae565b5b80604052505050565b5f612815612319565b905061282182826127db565b919050565b5f67ffffffffffffffff8211156128405761283f6127ae565b5b6128498261264d565b9050602081019050919050565b828183375f83830152505050565b5f61287661287184612826565b61280c565b905082815260208101848484011115612892576128916127aa565b5b61289d848285612856565b509392505050565b5f82601f8301126128b9576128b86127a6565b5b81356128c9848260208601612864565b91505092915050565b5f80604083850312156128e8576128e7612322565b5b5f83013567ffffffffffffffff81111561290557612904612326565b5b612911858286016128a5565b925050602083013567ffffffffffffffff81111561293257612931612326565b5b61293e858286016128a5565b9150509250929050565b5f82825260208201905092915050565b7f4f6e6c79204f776e65722e0000000000000000000000000000000000000000005f82015250565b5f61298c600b83612948565b915061299782612958565b602082019050919050565b5f6020820190508181035f8301526129b981612980565b9050919050565b7f4e487b71000000000000000000000000000000000000000000000000000000005f52601260045260245ffd5b5f6129f782612384565b9150612a0283612384565b925082612a1257612a116129c0565b5b828206905092915050565b7f4e487b71000000000000000000000000000000000000000000000000000000005f52601160045260245ffd5b5f612a5482612384565b9150612a5f83612384565b9250828201905080821115612a7757612a76612a1d565b5b92915050565b7f4e487b71000000000000000000000000000000000000000000000000000000005f52603260045260245ffd5b5f612ab482612384565b91507fffffffffffffffffffffffffffffffffffffffffffffffffffffffffffffffff8203612ae657612ae5612a1d565b5b600182019050919050565b7f4e6f77206964206973206e6f74206f6e2072656e742e000000000000000000005f82015250565b5f612b25601683612948565b9150612b3082612af1565b602082019050919050565b5f6020820190508181035f830152612b5281612b19565b9050919050565b7f596f7520646f6e742068617665206e66742e00000000000000000000000000005f82015250565b5f612b8d601283612948565b9150612b9882612b59565b602082019050919050565b5f6020820190508181035f830152612bba81612b81565b9050919050565b7f4e487b71000000000000000000000000000000000000000000000000000000005f52602260045260245ffd5b5f6002820490506001821680612c0557607f821691505b602082108103612c1857612c17612bc1565b5b50919050565b5f81905092915050565b5f819050815f5260205f209050919050565b5f8154612c4681612bee565b612c508186612c1e565b9450600182165f8114612c6a5760018114612c7f57612cb1565b60ff1983168652811515820286019350612cb1565b612c8885612c28565b5f5b83811015612ca957815481890152600182019150602081019050612c8a565b838801955050505b50505092915050565b5f612cc58284612c3a565b915081905092915050565b7f66726565206e66742063616e2073656c6c2e00000000000000000000000000005f82015250565b5f612d04601283612948565b9150612d0f82612cd0565b602082019050919050565b5f6020820190508181035f830152612d3181612cf8565b9050919050565b7f54686973206e6674206f6e2072656e742e0000000000000000000000000000005f82015250565b5f612d6c601183612948565b9150612d7782612d38565b602082019050919050565b5f6020820190508181035f830152612d9981612d60565b9050919050565b7f596f7520646f6e742068617665204e66742e00000000000000000000000000005f82015250565b5f612dd4601283612948565b9150612ddf82612da0565b602082019050919050565b5f6020820190508181035f830152612e0181612dc8565b9050919050565b5f612e1282612384565b91505f8203612e2457612e23612a1d565b5b600182039050919050565b7f416c726561647920686176652031206e66742e000000000000000000000000005f82015250565b5f612e63601383612948565b9150612e6e82612e2f565b602082019050919050565b5f6020820190508181035f830152612e9081612e57565b9050919050565b7f766c7565206d75737420626520312065746865722e00000000000000000000005f82015250565b5f612ecb601583612948565b9150612ed682612e97565b602082019050919050565b5f6020820190508181035f830152612ef881612ebf565b9050919050565b7f436f7272656374205370656c6c696e67000000000000000000000000000000005f82015250565b5f612f33601083612948565b9150612f3e82612eff565b602082019050919050565b5f6020820190508181035f830152612f6081612f27565b9050919050565b7f796f75206e656564206d6f7265207870000000000000000000000000000000005f82015250565b5f612f9b601083612948565b9150612fa682612f67565b602082019050919050565b5f6020820190508181035f830152612fc881612f8f565b9050919050565b5f612fd982612384565b9150612fe483612384565b9250828203905081811115612ffc57612ffb612a1d565b5b92915050565b7f616d6f756e74206e6f74206d617463682065746865722072657175697265642e5f82015250565b5f613036602083612948565b915061304182613002565b602082019050919050565b5f6020820190508181035f8301526130638161302a565b9050919050565b7f616c72656164792074616b656e204e66742e00000000000000000000000000005f82015250565b5f61309e601283612948565b91506130a98261306a565b602082019050919050565b5f6020820190508181035f8301526130cb81613092565b9050919050565b7f6f776e65722063616e742074616b6520686973206f776e2069642e00000000005f82015250565b5f613106601b83612948565b9150613111826130d2565b602082019050919050565b5f6020820190508181035f830152613133816130fa565b9050919050565b7f6e6674206e6f74206c69737465642e00000000000000000000000000000000005f82015250565b5f61316e600f83612948565b91506131798261313a565b602082019050919050565b5f6020820190508181035f83015261319b81613162565b9050919050565b7f436f6d6520616674657220323420686f7572732e0000000000000000000000005f82015250565b5f6131d6601483612948565b91506131e1826131a2565b602082019050919050565b5f6020820190508181035f830152613203816131ca565b9050919050565b7f416761696e2054727900000000000000000000000000000000000000000000005f82015250565b5f61323e600983612948565b91506132498261320a565b602082019050919050565b5f6020820190508181035f83015261326b81613232565b9050919050565b5f81905092915050565b5f6132868261260b565b6132908185613272565b93506132a0818560208601612625565b80840191505092915050565b5f6132b7828461327c565b915081905092915050565b5f819050815f5260205f209050919050565b5f6020601f8301049050919050565b5f82821b905092915050565b5f6008830261331e7fffffffffffffffffffffffffffffffffffffffffffffffffffffffffffffffff826132e3565b61332886836132e3565b95508019841693508086168417925050509392505050565b5f819050919050565b5f61336361335e61335984612384565b613340565b612384565b9050919050565b5f819050919050565b61337c83613349565b6133906133888261336a565b8484546132ef565b825550505050565b5f90565b6133a4613398565b6133af818484613373565b505050565b5b818110156133d2576133c75f8261339c565b6001810190506133b5565b5050565b601f821115613417576133e8816132c2565b6133f1846132d4565b81016020851015613400578190505b61341461340c856132d4565b8301826133b4565b50505b505050565b5f82821c905092915050565b5f6134375f198460080261341c565b1980831691505092915050565b5f61344f8383613428565b9150826002028217905092915050565b6134688261260b565b67ffffffffffffffff811115613481576134806127ae565b5b61348b8254612bee565b6134968282856133d6565b5f60209050601f8311600181146134c7575f84156134b5578287015190505b6134bf8582613444565b865550613526565b601f1984166134d5866132c2565b5f5b828110156134fc578489015182556001820191506020850194506020810190506134d7565b868310156135195784890151613515601f891682613428565b8355505b6001600288020188555050505b505050505050565b5f819050919050565b61354861354382612384565b61352e565b82525050565b5f6135598285613537565b6020820191506135698284613537565b602082019150819050939250505056fe57696e20416e64204c6f6f7365206973207468652070617274206f66207468652047616d652e54727920416761696e212ea26469706673582212206d70210816c3432d547a0f7aeb768bc03fa2dc0d6458ec851e887d5b3fdb56f464736f6c63430008140033",
					"opcodes": "PUSH1 0x80 PUSH1 0x40 MSTORE PUSH7 0x2386F26FC10000 PUSH1 0x2 SSTORE CALLVALUE DUP1 ISZERO PUSH2 0x1A JUMPI PUSH0 DUP1 REVERT JUMPDEST POP PUSH2 0x35E0 DUP1 PUSH2 0x28 PUSH0 CODECOPY PUSH0 RETURN INVALID PUSH1 0x80 PUSH1 0x40 MSTORE PUSH1 0x4 CALLDATASIZE LT PUSH2 0xF2 JUMPI PUSH0 CALLDATALOAD PUSH1 0xE0 SHR DUP1 PUSH4 0xB81C3DB7 GT PUSH2 0x89 JUMPI DUP1 PUSH4 0xCB9940B7 GT PUSH2 0x58 JUMPI DUP1 PUSH4 0xCB9940B7 EQ PUSH2 0x350 JUMPI DUP1 PUSH4 0xD41B93B1 EQ PUSH2 0x380 JUMPI DUP1 PUSH4 0xE0C4F15E EQ PUSH2 0x3A8 JUMPI DUP1 PUSH4 0xE70364D4 EQ PUSH2 0x3D0 JUMPI PUSH2 0xF2 JUMP JUMPDEST DUP1 PUSH4 0xB81C3DB7 EQ PUSH2 0x286 JUMPI DUP1 PUSH4 0xB93A89F7 EQ PUSH2 0x29C JUMPI DUP1 PUSH4 0xC0342CB4 EQ PUSH2 0x2D8 JUMPI DUP1 PUSH4 0xC583F36A EQ PUSH2 0x314 JUMPI PUSH2 0xF2 JUMP JUMPDEST DUP1 PUSH4 0x901AC159 GT PUSH2 0xC5 JUMPI DUP1 PUSH4 0x901AC159 EQ PUSH2 0x1AA JUMPI DUP1 PUSH4 0x9264A169 EQ PUSH2 0x1E6 JUMPI DUP1 PUSH4 0x9A861A78 EQ PUSH2 0x20E JUMPI DUP1 PUSH4 0x9F52F1A1 EQ PUSH2 0x24A JUMPI PUSH2 0xF2 JUMP JUMPDEST DUP1 PUSH4 0x95EA7B3 EQ PUSH2 0xF6 JUMPI DUP1 PUSH4 0x35E1D33C EQ PUSH2 0x11E JUMPI DUP1 PUSH4 0x3C956B05 EQ PUSH2 0x146 JUMPI DUP1 PUSH4 0x7138D32D EQ PUSH2 0x182 JUMPI JUMPDEST PUSH0 DUP1 REVERT JUMPDEST CALLVALUE DUP1 ISZERO PUSH2 0x101 JUMPI PUSH0 DUP1 REVERT JUMPDEST POP PUSH2 0x11C PUSH1 0x4 DUP1 CALLDATASIZE SUB DUP2 ADD SWAP1 PUSH2 0x117 SWAP2 SWAP1 PUSH2 0x23B7 JUMP JUMPDEST PUSH2 0x400 JUMP JUMPDEST STOP JUMPDEST CALLVALUE DUP1 ISZERO PUSH2 0x129 JUMPI PUSH0 DUP1 REVERT JUMPDEST POP PUSH2 0x144 PUSH1 0x4 DUP1 CALLDATASIZE SUB DUP2 ADD SWAP1 PUSH2 0x13F SWAP2 SWAP1 PUSH2 0x23F5 JUMP JUMPDEST PUSH2 0x59B JUMP JUMPDEST STOP JUMPDEST CALLVALUE DUP1 ISZERO PUSH2 0x151 JUMPI PUSH0 DUP1 REVERT JUMPDEST POP PUSH2 0x16C PUSH1 0x4 DUP1 CALLDATASIZE SUB DUP2 ADD SWAP1 PUSH2 0x167 SWAP2 SWAP1 PUSH2 0x2433 JUMP JUMPDEST PUSH2 0x6DE JUMP JUMPDEST PUSH1 0x40 MLOAD PUSH2 0x179 SWAP2 SWAP1 PUSH2 0x2515 JUMP JUMPDEST PUSH1 0x40 MLOAD DUP1 SWAP2 SUB SWAP1 RETURN JUMPDEST CALLVALUE DUP1 ISZERO PUSH2 0x18D JUMPI PUSH0 DUP1 REVERT JUMPDEST POP PUSH2 0x1A8 PUSH1 0x4 DUP1 CALLDATASIZE SUB DUP2 ADD SWAP1 PUSH2 0x1A3 SWAP2 SWAP1 PUSH2 0x2535 JUMP JUMPDEST PUSH2 0x828 JUMP JUMPDEST STOP JUMPDEST CALLVALUE DUP1 ISZERO PUSH2 0x1B5 JUMPI PUSH0 DUP1 REVERT JUMPDEST POP PUSH2 0x1D0 PUSH1 0x4 DUP1 CALLDATASIZE SUB DUP2 ADD SWAP1 PUSH2 0x1CB SWAP2 SWAP1 PUSH2 0x2535 JUMP JUMPDEST PUSH2 0xAEF JUMP JUMPDEST PUSH1 0x40 MLOAD PUSH2 0x1DD SWAP2 SWAP1 PUSH2 0x256F JUMP JUMPDEST PUSH1 0x40 MLOAD DUP1 SWAP2 SUB SWAP1 RETURN JUMPDEST CALLVALUE DUP1 ISZERO PUSH2 0x1F1 JUMPI PUSH0 DUP1 REVERT JUMPDEST POP PUSH2 0x20C PUSH1 0x4 DUP1 CALLDATASIZE SUB DUP2 ADD SWAP1 PUSH2 0x207 SWAP2 SWAP1 PUSH2 0x2588 JUMP JUMPDEST PUSH2 0xB04 JUMP JUMPDEST STOP JUMPDEST CALLVALUE DUP1 ISZERO PUSH2 0x219 JUMPI PUSH0 DUP1 REVERT JUMPDEST POP PUSH2 0x234 PUSH1 0x4 DUP1 CALLDATASIZE SUB DUP2 ADD SWAP1 PUSH2 0x22F SWAP2 SWAP1 PUSH2 0x2433 JUMP JUMPDEST PUSH2 0xEDB JUMP JUMPDEST PUSH1 0x40 MLOAD PUSH2 0x241 SWAP2 SWAP1 PUSH2 0x25F2 JUMP JUMPDEST PUSH1 0x40 MLOAD DUP1 SWAP2 SUB SWAP1 RETURN JUMPDEST CALLVALUE DUP1 ISZERO PUSH2 0x255 JUMPI PUSH0 DUP1 REVERT JUMPDEST POP PUSH2 0x270 PUSH1 0x4 DUP1 CALLDATASIZE SUB DUP2 ADD SWAP1 PUSH2 0x26B SWAP2 SWAP1 PUSH2 0x2535 JUMP JUMPDEST PUSH2 0xEF8 JUMP JUMPDEST PUSH1 0x40 MLOAD PUSH2 0x27D SWAP2 SWAP1 PUSH2 0x25F2 JUMP JUMPDEST PUSH1 0x40 MLOAD DUP1 SWAP2 SUB SWAP1 RETURN JUMPDEST CALLVALUE DUP1 ISZERO PUSH2 0x291 JUMPI PUSH0 DUP1 REVERT JUMPDEST POP PUSH2 0x29A PUSH2 0xF15 JUMP JUMPDEST STOP JUMPDEST CALLVALUE DUP1 ISZERO PUSH2 0x2A7 JUMPI PUSH0 DUP1 REVERT JUMPDEST POP PUSH2 0x2C2 PUSH1 0x4 DUP1 CALLDATASIZE SUB DUP2 ADD SWAP1 PUSH2 0x2BD SWAP2 SWAP1 PUSH2 0x2535 JUMP JUMPDEST PUSH2 0x10A5 JUMP JUMPDEST PUSH1 0x40 MLOAD PUSH2 0x2CF SWAP2 SWAP1 PUSH2 0x275E JUMP JUMPDEST PUSH1 0x40 MLOAD DUP1 SWAP2 SUB SWAP1 RETURN JUMPDEST CALLVALUE DUP1 ISZERO PUSH2 0x2E3 JUMPI PUSH0 DUP1 REVERT JUMPDEST POP PUSH2 0x2FE PUSH1 0x4 DUP1 CALLDATASIZE SUB DUP2 ADD SWAP1 PUSH2 0x2F9 SWAP2 SWAP1 PUSH2 0x2433 JUMP JUMPDEST PUSH2 0x1245 JUMP JUMPDEST PUSH1 0x40 MLOAD PUSH2 0x30B SWAP2 SWAP1 PUSH2 0x25F2 JUMP JUMPDEST PUSH1 0x40 MLOAD DUP1 SWAP2 SUB SWAP1 RETURN JUMPDEST CALLVALUE DUP1 ISZERO PUSH2 0x31F JUMPI PUSH0 DUP1 REVERT JUMPDEST POP PUSH2 0x33A PUSH1 0x4 DUP1 CALLDATASIZE SUB DUP2 ADD SWAP1 PUSH2 0x335 SWAP2 SWAP1 PUSH2 0x2535 JUMP JUMPDEST PUSH2 0x1262 JUMP JUMPDEST PUSH1 0x40 MLOAD PUSH2 0x347 SWAP2 SWAP1 PUSH2 0x278D JUMP JUMPDEST PUSH1 0x40 MLOAD DUP1 SWAP2 SUB SWAP1 RETURN JUMPDEST PUSH2 0x36A PUSH1 0x4 DUP1 CALLDATASIZE SUB DUP2 ADD SWAP1 PUSH2 0x365 SWAP2 SWAP1 PUSH2 0x28D2 JUMP JUMPDEST PUSH2 0x1292 JUMP JUMPDEST PUSH1 0x40 MLOAD PUSH2 0x377 SWAP2 SWAP1 PUSH2 0x25F2 JUMP JUMPDEST PUSH1 0x40 MLOAD DUP1 SWAP2 SUB SWAP1 RETURN JUMPDEST CALLVALUE DUP1 ISZERO PUSH2 0x38B JUMPI PUSH0 DUP1 REVERT JUMPDEST POP PUSH2 0x3A6 PUSH1 0x4 DUP1 CALLDATASIZE SUB DUP2 ADD SWAP1 PUSH2 0x3A1 SWAP2 SWAP1 PUSH2 0x2535 JUMP JUMPDEST PUSH2 0x13DB JUMP JUMPDEST STOP JUMPDEST CALLVALUE DUP1 ISZERO PUSH2 0x3B3 JUMPI PUSH0 DUP1 REVERT JUMPDEST POP PUSH2 0x3CE PUSH1 0x4 DUP1 CALLDATASIZE SUB DUP2 ADD SWAP1 PUSH2 0x3C9 SWAP2 SWAP1 PUSH2 0x2535 JUMP JUMPDEST PUSH2 0x155A JUMP JUMPDEST STOP JUMPDEST PUSH2 0x3EA PUSH1 0x4 DUP1 CALLDATASIZE SUB DUP2 ADD SWAP1 PUSH2 0x3E5 SWAP2 SWAP1 PUSH2 0x2535 JUMP JUMPDEST PUSH2 0x16E5 JUMP JUMPDEST PUSH1 0x40 MLOAD PUSH2 0x3F7 SWAP2 SWAP1 PUSH2 0x25F2 JUMP JUMPDEST PUSH1 0x40 MLOAD DUP1 SWAP2 SUB SWAP1 RETURN JUMPDEST DUP1 CALLER PUSH20 0xFFFFFFFFFFFFFFFFFFFFFFFFFFFFFFFFFFFFFFFF AND PUSH0 DUP1 DUP4 DUP2 MSTORE PUSH1 0x20 ADD SWAP1 DUP2 MSTORE PUSH1 0x20 ADD PUSH0 KECCAK256 PUSH0 SWAP1 SLOAD SWAP1 PUSH2 0x100 EXP SWAP1 DIV PUSH20 0xFFFFFFFFFFFFFFFFFFFFFFFFFFFFFFFFFFFFFFFF AND PUSH20 0xFFFFFFFFFFFFFFFFFFFFFFFFFFFFFFFFFFFFFFFF AND EQ PUSH2 0x49E JUMPI PUSH1 0x40 MLOAD PUSH32 0x8C379A000000000000000000000000000000000000000000000000000000000 DUP2 MSTORE PUSH1 0x4 ADD PUSH2 0x495 SWAP1 PUSH2 0x29A2 JUMP JUMPDEST PUSH1 0x40 MLOAD DUP1 SWAP2 SUB SWAP1 REVERT JUMPDEST DUP2 PUSH1 0x6 PUSH0 CALLER PUSH20 0xFFFFFFFFFFFFFFFFFFFFFFFFFFFFFFFFFFFFFFFF AND PUSH20 0xFFFFFFFFFFFFFFFFFFFFFFFFFFFFFFFFFFFFFFFF AND DUP2 MSTORE PUSH1 0x20 ADD SWAP1 DUP2 MSTORE PUSH1 0x20 ADD PUSH0 KECCAK256 PUSH0 DUP6 PUSH20 0xFFFFFFFFFFFFFFFFFFFFFFFFFFFFFFFFFFFFFFFF AND PUSH20 0xFFFFFFFFFFFFFFFFFFFFFFFFFFFFFFFFFFFFFFFF AND DUP2 MSTORE PUSH1 0x20 ADD SWAP1 DUP2 MSTORE PUSH1 0x20 ADD PUSH0 KECCAK256 DUP2 SWAP1 SSTORE POP DUP3 PUSH1 0x7 PUSH0 CALLER PUSH20 0xFFFFFFFFFFFFFFFFFFFFFFFFFFFFFFFFFFFFFFFF AND PUSH20 0xFFFFFFFFFFFFFFFFFFFFFFFFFFFFFFFFFFFFFFFF AND DUP2 MSTORE PUSH1 0x20 ADD SWAP1 DUP2 MSTORE PUSH1 0x20 ADD PUSH0 KECCAK256 PUSH0 PUSH2 0x100 EXP DUP2 SLOAD DUP2 PUSH20 0xFFFFFFFFFFFFFFFFFFFFFFFFFFFFFFFFFFFFFFFF MUL NOT AND SWAP1 DUP4 PUSH20 0xFFFFFFFFFFFFFFFFFFFFFFFFFFFFFFFFFFFFFFFF AND MUL OR SWAP1 SSTORE POP POP POP POP JUMP JUMPDEST DUP2 CALLER PUSH20 0xFFFFFFFFFFFFFFFFFFFFFFFFFFFFFFFFFFFFFFFF AND PUSH0 DUP1 DUP4 DUP2 MSTORE PUSH1 0x20 ADD SWAP1 DUP2 MSTORE PUSH1 0x20 ADD PUSH0 KECCAK256 PUSH0 SWAP1 SLOAD SWAP1 PUSH2 0x100 EXP SWAP1 DIV PUSH20 0xFFFFFFFFFFFFFFFFFFFFFFFFFFFFFFFFFFFFFFFF AND PUSH20 0xFFFFFFFFFFFFFFFFFFFFFFFFFFFFFFFFFFFFFFFF AND EQ PUSH2 0x639 JUMPI PUSH1 0x40 MLOAD PUSH32 0x8C379A000000000000000000000000000000000000000000000000000000000 DUP2 MSTORE PUSH1 0x4 ADD PUSH2 0x630 SWAP1 PUSH2 0x29A2 JUMP JUMPDEST PUSH1 0x40 MLOAD DUP1 SWAP2 SUB SWAP1 REVERT JUMPDEST PUSH1 0x5 PUSH0 DUP5 DUP2 MSTORE PUSH1 0x20 ADD SWAP1 DUP2 MSTORE PUSH1 0x20 ADD PUSH0 KECCAK256 PUSH0 SWAP1 SLOAD SWAP1 PUSH2 0x100 EXP SWAP1 DIV PUSH1 0xFF AND ISZERO PUSH2 0x660 JUMPI PUSH0 DUP1 REVERT JUMPDEST PUSH8 0xDE0B6B3A7640000 DUP3 PUSH2 0x674 SWAP2 SWAP1 PUSH2 0x29ED JUMP JUMPDEST PUSH1 0xC PUSH0 DUP6 DUP2 MSTORE PUSH1 0x20 ADD SWAP1 DUP2 MSTORE PUSH1 0x20 ADD PUSH0 KECCAK256 DUP2 SWAP1 SSTORE POP PUSH1 0x1 PUSH1 0x5 PUSH0 DUP6 DUP2 MSTORE PUSH1 0x20 ADD SWAP1 DUP2 MSTORE PUSH1 0x20 ADD PUSH0 KECCAK256 PUSH0 PUSH2 0x100 EXP DUP2 SLOAD DUP2 PUSH1 0xFF MUL NOT AND SWAP1 DUP4 ISZERO ISZERO MUL OR SWAP1 SSTORE POP PUSH0 PUSH1 0x1E TIMESTAMP PUSH2 0x6C0 SWAP2 SWAP1 PUSH2 0x2A4A JUMP JUMPDEST SWAP1 POP DUP1 PUSH1 0x8 PUSH0 DUP7 DUP2 MSTORE PUSH1 0x20 ADD SWAP1 DUP2 MSTORE PUSH1 0x20 ADD PUSH0 KECCAK256 DUP2 SWAP1 SSTORE POP POP POP POP POP JUMP JUMPDEST PUSH1 0x60 PUSH0 PUSH1 0x1 PUSH0 DUP5 PUSH20 0xFFFFFFFFFFFFFFFFFFFFFFFFFFFFFFFFFFFFFFFF AND PUSH20 0xFFFFFFFFFFFFFFFFFFFFFFFFFFFFFFFFFFFFFFFF AND DUP2 MSTORE PUSH1 0x20 ADD SWAP1 DUP2 MSTORE PUSH1 0x20 ADD PUSH0 KECCAK256 SLOAD PUSH8 0xFFFFFFFFFFFFFFFF DUP2 GT ISZERO PUSH2 0x738 JUMPI PUSH2 0x737 PUSH2 0x27AE JUMP JUMPDEST JUMPDEST PUSH1 0x40 MLOAD SWAP1 DUP1 DUP3 MSTORE DUP1 PUSH1 0x20 MUL PUSH1 0x20 ADD DUP3 ADD PUSH1 0x40 MSTORE DUP1 ISZERO PUSH2 0x766 JUMPI DUP2 PUSH1 0x20 ADD PUSH1 0x20 DUP3 MUL DUP1 CALLDATASIZE DUP4 CALLDATACOPY DUP1 DUP3 ADD SWAP2 POP POP SWAP1 POP JUMPDEST POP SWAP1 POP PUSH0 DUP1 JUMPDEST PUSH1 0x3 DUP1 SLOAD SWAP1 POP DUP2 LT ISZERO PUSH2 0x81D JUMPI DUP5 PUSH20 0xFFFFFFFFFFFFFFFFFFFFFFFFFFFFFFFFFFFFFFFF AND PUSH0 DUP1 DUP4 DUP2 MSTORE PUSH1 0x20 ADD SWAP1 DUP2 MSTORE PUSH1 0x20 ADD PUSH0 KECCAK256 PUSH0 SWAP1 SLOAD SWAP1 PUSH2 0x100 EXP SWAP1 DIV PUSH20 0xFFFFFFFFFFFFFFFFFFFFFFFFFFFFFFFFFFFFFFFF AND PUSH20 0xFFFFFFFFFFFFFFFFFFFFFFFFFFFFFFFFFFFFFFFF AND SUB PUSH2 0x80A JUMPI DUP1 DUP4 DUP4 DUP2 MLOAD DUP2 LT PUSH2 0x7EF JUMPI PUSH2 0x7EE PUSH2 0x2A7D JUMP JUMPDEST JUMPDEST PUSH1 0x20 MUL PUSH1 0x20 ADD ADD DUP2 DUP2 MSTORE POP POP DUP2 DUP1 PUSH2 0x806 SWAP1 PUSH2 0x2AAA JUMP JUMPDEST SWAP3 POP POP JUMPDEST DUP1 DUP1 PUSH2 0x815 SWAP1 PUSH2 0x2AAA JUMP JUMPDEST SWAP2 POP POP PUSH2 0x76C JUMP JUMPDEST POP DUP2 SWAP3 POP POP POP SWAP2 SWAP1 POP JUMP JUMPDEST CALLER PUSH20 0xFFFFFFFFFFFFFFFFFFFFFFFFFFFFFFFFFFFFFFFF AND PUSH1 0xB PUSH0 DUP4 DUP2 MSTORE PUSH1 0x20 ADD SWAP1 DUP2 MSTORE PUSH1 0x20 ADD PUSH0 KECCAK256 PUSH0 SWAP1 SLOAD SWAP1 PUSH2 0x100 EXP SWAP1 DIV PUSH20 0xFFFFFFFFFFFFFFFFFFFFFFFFFFFFFFFFFFFFFFFF AND PUSH20 0xFFFFFFFFFFFFFFFFFFFFFFFFFFFFFFFFFFFFFFFF AND EQ DUP1 PUSH2 0x8DF JUMPI POP PUSH1 0x1 ISZERO ISZERO PUSH1 0x4 PUSH0 CALLER PUSH20 0xFFFFFFFFFFFFFFFFFFFFFFFFFFFFFFFFFFFFFFFF AND PUSH20 0xFFFFFFFFFFFFFFFFFFFFFFFFFFFFFFFFFFFFFFFF AND DUP2 MSTORE PUSH1 0x20 ADD SWAP1 DUP2 MSTORE PUSH1 0x20 ADD PUSH0 KECCAK256 PUSH0 SWAP1 SLOAD SWAP1 PUSH2 0x100 EXP SWAP1 DIV PUSH1 0xFF AND ISZERO ISZERO EQ JUMPDEST ISZERO PUSH2 0xA44 JUMPI TIMESTAMP PUSH1 0x8 PUSH0 DUP4 DUP2 MSTORE PUSH1 0x20 ADD SWAP1 DUP2 MSTORE PUSH1 0x20 ADD PUSH0 KECCAK256 SLOAD GT PUSH2 0x937 JUMPI PUSH1 0x40 MLOAD PUSH32 0x8C379A000000000000000000000000000000000000000000000000000000000 DUP2 MSTORE PUSH1 0x4 ADD PUSH2 0x92E SWAP1 PUSH2 0x2B3B JUMP JUMPDEST PUSH1 0x40 MLOAD DUP1 SWAP2 SUB SWAP1 REVERT JUMPDEST PUSH0 PUSH1 0x3 DUP3 DUP2 SLOAD DUP2 LT PUSH2 0x94C JUMPI PUSH2 0x94B PUSH2 0x2A7D JUMP JUMPDEST JUMPDEST SWAP1 PUSH0 MSTORE PUSH1 0x20 PUSH0 KECCAK256 SWAP1 PUSH1 0x9 MUL ADD PUSH1 0x7 ADD SLOAD SWAP1 POP PUSH2 0x967 DUP3 PUSH2 0x19C1 JUMP JUMPDEST POP DUP1 PUSH1 0x3 DUP4 DUP2 SLOAD DUP2 LT PUSH2 0x97D JUMPI PUSH2 0x97C PUSH2 0x2A7D JUMP JUMPDEST JUMPDEST SWAP1 PUSH0 MSTORE PUSH1 0x20 PUSH0 KECCAK256 SWAP1 PUSH1 0x9 MUL ADD PUSH1 0x7 ADD SLOAD GT DUP1 ISZERO PUSH2 0x9D7 JUMPI POP PUSH1 0x1 DUP1 PUSH0 CALLER PUSH20 0xFFFFFFFFFFFFFFFFFFFFFFFFFFFFFFFFFFFFFFFF AND PUSH20 0xFFFFFFFFFFFFFFFFFFFFFFFFFFFFFFFFFFFFFFFF AND DUP2 MSTORE PUSH1 0x20 ADD SWAP1 DUP2 MSTORE PUSH1 0x20 ADD PUSH0 KECCAK256 SLOAD LT ISZERO JUMPDEST ISZERO PUSH2 0xA3E JUMPI PUSH0 PUSH2 0x9E6 CALLER PUSH2 0x6DE JUMP JUMPDEST SWAP1 POP PUSH1 0x1 PUSH1 0x3 DUP3 PUSH0 DUP2 MLOAD DUP2 LT PUSH2 0x9FF JUMPI PUSH2 0x9FE PUSH2 0x2A7D JUMP JUMPDEST JUMPDEST PUSH1 0x20 MUL PUSH1 0x20 ADD ADD MLOAD DUP2 SLOAD DUP2 LT PUSH2 0xA18 JUMPI PUSH2 0xA17 PUSH2 0x2A7D JUMP JUMPDEST JUMPDEST SWAP1 PUSH0 MSTORE PUSH1 0x20 PUSH0 KECCAK256 SWAP1 PUSH1 0x9 MUL ADD PUSH1 0x3 ADD PUSH0 DUP3 DUP3 SLOAD PUSH2 0xA35 SWAP2 SWAP1 PUSH2 0x2A4A JUMP JUMPDEST SWAP3 POP POP DUP2 SWAP1 SSTORE POP POP JUMPDEST POP PUSH2 0xAEC JUMP JUMPDEST CALLER PUSH20 0xFFFFFFFFFFFFFFFFFFFFFFFFFFFFFFFFFFFFFFFF AND PUSH0 DUP1 DUP4 DUP2 MSTORE PUSH1 0x20 ADD SWAP1 DUP2 MSTORE PUSH1 0x20 ADD PUSH0 KECCAK256 PUSH0 SWAP1 SLOAD SWAP1 PUSH2 0x100 EXP SWAP1 DIV PUSH20 0xFFFFFFFFFFFFFFFFFFFFFFFFFFFFFFFFFFFFFFFF AND PUSH20 0xFFFFFFFFFFFFFFFFFFFFFFFFFFFFFFFFFFFFFFFF AND EQ PUSH2 0xAE1 JUMPI PUSH1 0x40 MLOAD PUSH32 0x8C379A000000000000000000000000000000000000000000000000000000000 DUP2 MSTORE PUSH1 0x4 ADD PUSH2 0xAD8 SWAP1 PUSH2 0x2BA3 JUMP JUMPDEST PUSH1 0x40 MLOAD DUP1 SWAP2 SUB SWAP1 REVERT JUMPDEST PUSH2 0xAEA DUP2 PUSH2 0x19C1 JUMP JUMPDEST POP JUMPDEST POP JUMP JUMPDEST PUSH1 0xC PUSH1 0x20 MSTORE DUP1 PUSH0 MSTORE PUSH1 0x40 PUSH0 KECCAK256 PUSH0 SWAP2 POP SWAP1 POP SLOAD DUP2 JUMP JUMPDEST DUP1 CALLER PUSH20 0xFFFFFFFFFFFFFFFFFFFFFFFFFFFFFFFFFFFFFFFF AND PUSH0 DUP1 DUP4 DUP2 MSTORE PUSH1 0x20 ADD SWAP1 DUP2 MSTORE PUSH1 0x20 ADD PUSH0 KECCAK256 PUSH0 SWAP1 SLOAD SWAP1 PUSH2 0x100 EXP SWAP1 DIV PUSH20 0xFFFFFFFFFFFFFFFFFFFFFFFFFFFFFFFFFFFFFFFF AND PUSH20 0xFFFFFFFFFFFFFFFFFFFFFFFFFFFFFFFFFFFFFFFF AND EQ PUSH2 0xBA2 JUMPI PUSH1 0x40 MLOAD PUSH32 0x8C379A000000000000000000000000000000000000000000000000000000000 DUP2 MSTORE PUSH1 0x4 ADD PUSH2 0xB99 SWAP1 PUSH2 0x29A2 JUMP JUMPDEST PUSH1 0x40 MLOAD DUP1 SWAP2 SUB SWAP1 REVERT JUMPDEST PUSH1 0x40 MLOAD DUP1 PUSH1 0x40 ADD PUSH1 0x40 MSTORE DUP1 PUSH1 0x7 DUP2 MSTORE PUSH1 0x20 ADD PUSH32 0x7072656D69756D00000000000000000000000000000000000000000000000000 DUP2 MSTORE POP DUP1 MLOAD SWAP1 PUSH1 0x20 ADD KECCAK256 PUSH1 0x3 DUP4 DUP2 SLOAD DUP2 LT PUSH2 0xBF3 JUMPI PUSH2 0xBF2 PUSH2 0x2A7D JUMP JUMPDEST JUMPDEST SWAP1 PUSH0 MSTORE PUSH1 0x20 PUSH0 KECCAK256 SWAP1 PUSH1 0x9 MUL ADD PUSH0 ADD PUSH1 0x40 MLOAD PUSH2 0xC0E SWAP2 SWAP1 PUSH2 0x2CBA JUMP JUMPDEST PUSH1 0x40 MLOAD DUP1 SWAP2 SUB SWAP1 KECCAK256 EQ PUSH2 0xC56 JUMPI PUSH1 0x40 MLOAD PUSH32 0x8C379A000000000000000000000000000000000000000000000000000000000 DUP2 MSTORE PUSH1 0x4 ADD PUSH2 0xC4D SWAP1 PUSH2 0x2D1A JUMP JUMPDEST PUSH1 0x40 MLOAD DUP1 SWAP2 SUB SWAP1 REVERT JUMPDEST PUSH1 0x5 PUSH0 DUP4 DUP2 MSTORE PUSH1 0x20 ADD SWAP1 DUP2 MSTORE PUSH1 0x20 ADD PUSH0 KECCAK256 PUSH0 SWAP1 SLOAD SWAP1 PUSH2 0x100 EXP SWAP1 DIV PUSH1 0xFF AND ISZERO PUSH2 0xCB4 JUMPI PUSH1 0x40 MLOAD PUSH32 0x8C379A000000000000000000000000000000000000000000000000000000000 DUP2 MSTORE PUSH1 0x4 ADD PUSH2 0xCAB SWAP1 PUSH2 0x2D82 JUMP JUMPDEST PUSH1 0x40 MLOAD DUP1 SWAP2 SUB SWAP1 REVERT JUMPDEST DUP4 PUSH20 0xFFFFFFFFFFFFFFFFFFFFFFFFFFFFFFFFFFFFFFFF AND PUSH0 DUP1 DUP5 DUP2 MSTORE PUSH1 0x20 ADD SWAP1 DUP2 MSTORE PUSH1 0x20 ADD PUSH0 KECCAK256 PUSH0 SWAP1 SLOAD SWAP1 PUSH2 0x100 EXP SWAP1 DIV PUSH20 0xFFFFFFFFFFFFFFFFFFFFFFFFFFFFFFFFFFFFFFFF AND PUSH20 0xFFFFFFFFFFFFFFFFFFFFFFFFFFFFFFFFFFFFFFFF AND EQ DUP1 PUSH2 0xDA4 JUMPI POP CALLER PUSH20 0xFFFFFFFFFFFFFFFFFFFFFFFFFFFFFFFFFFFFFFFF AND PUSH1 0x7 PUSH0 DUP7 PUSH20 0xFFFFFFFFFFFFFFFFFFFFFFFFFFFFFFFFFFFFFFFF AND PUSH20 0xFFFFFFFFFFFFFFFFFFFFFFFFFFFFFFFFFFFFFFFF AND DUP2 MSTORE PUSH1 0x20 ADD SWAP1 DUP2 MSTORE PUSH1 0x20 ADD PUSH0 KECCAK256 PUSH0 SWAP1 SLOAD SWAP1 PUSH2 0x100 EXP SWAP1 DIV PUSH20 0xFFFFFFFFFFFFFFFFFFFFFFFFFFFFFFFFFFFFFFFF AND PUSH20 0xFFFFFFFFFFFFFFFFFFFFFFFFFFFFFFFFFFFFFFFF AND EQ JUMPDEST PUSH2 0xDE3 JUMPI PUSH1 0x40 MLOAD PUSH32 0x8C379A000000000000000000000000000000000000000000000000000000000 DUP2 MSTORE PUSH1 0x4 ADD PUSH2 0xDDA SWAP1 PUSH2 0x2DEA JUMP JUMPDEST PUSH1 0x40 MLOAD DUP1 SWAP2 SUB SWAP1 REVERT JUMPDEST DUP3 PUSH0 DUP1 DUP5 DUP2 MSTORE PUSH1 0x20 ADD SWAP1 DUP2 MSTORE PUSH1 0x20 ADD PUSH0 KECCAK256 PUSH0 PUSH2 0x100 EXP DUP2 SLOAD DUP2 PUSH20 0xFFFFFFFFFFFFFFFFFFFFFFFFFFFFFFFFFFFFFFFF MUL NOT AND SWAP1 DUP4 PUSH20 0xFFFFFFFFFFFFFFFFFFFFFFFFFFFFFFFFFFFFFFFF AND MUL OR SWAP1 SSTORE POP PUSH1 0x1 PUSH0 DUP6 PUSH20 0xFFFFFFFFFFFFFFFFFFFFFFFFFFFFFFFFFFFFFFFF AND PUSH20 0xFFFFFFFFFFFFFFFFFFFFFFFFFFFFFFFFFFFFFFFF AND DUP2 MSTORE PUSH1 0x20 ADD SWAP1 DUP2 MSTORE PUSH1 0x20 ADD PUSH0 KECCAK256 PUSH0 DUP2 SLOAD DUP1 SWAP3 SWAP2 SWAP1 PUSH2 0xE7E SWAP1 PUSH2 0x2E08 JUMP JUMPDEST SWAP2 SWAP1 POP SSTORE POP PUSH1 0x1 PUSH0 DUP5 PUSH20 0xFFFFFFFFFFFFFFFFFFFFFFFFFFFFFFFFFFFFFFFF AND PUSH20 0xFFFFFFFFFFFFFFFFFFFFFFFFFFFFFFFFFFFFFFFF AND DUP2 MSTORE PUSH1 0x20 ADD SWAP1 DUP2 MSTORE PUSH1 0x20 ADD PUSH0 KECCAK256 PUSH0 DUP2 SLOAD DUP1 SWAP3 SWAP2 SWAP1 PUSH2 0xED0 SWAP1 PUSH2 0x2AAA JUMP JUMPDEST SWAP2 SWAP1 POP SSTORE POP POP POP POP POP JUMP JUMPDEST PUSH1 0xA PUSH1 0x20 MSTORE DUP1 PUSH0 MSTORE PUSH1 0x40 PUSH0 KECCAK256 PUSH0 SWAP2 POP SLOAD SWAP1 PUSH2 0x100 EXP SWAP1 DIV PUSH1 0xFF AND DUP2 JUMP JUMPDEST PUSH1 0x9 PUSH1 0x20 MSTORE DUP1 PUSH0 MSTORE PUSH1 0x40 PUSH0 KECCAK256 PUSH0 SWAP2 POP SLOAD SWAP1 PUSH2 0x100 EXP SWAP1 DIV PUSH1 0xFF AND DUP2 JUMP JUMPDEST PUSH0 PUSH1 0x1 PUSH0 CALLER PUSH20 0xFFFFFFFFFFFFFFFFFFFFFFFFFFFFFFFFFFFFFFFF AND PUSH20 0xFFFFFFFFFFFFFFFFFFFFFFFFFFFFFFFFFFFFFFFF AND DUP2 MSTORE PUSH1 0x20 ADD SWAP1 DUP2 MSTORE PUSH1 0x20 ADD PUSH0 KECCAK256 SLOAD EQ PUSH2 0xF94 JUMPI PUSH1 0x40 MLOAD PUSH32 0x8C379A000000000000000000000000000000000000000000000000000000000 DUP2 MSTORE PUSH1 0x4 ADD PUSH2 0xF8B SWAP1 PUSH2 0x2E79 JUMP JUMPDEST PUSH1 0x40 MLOAD DUP1 SWAP2 SUB SWAP1 REVERT JUMPDEST PUSH1 0x1 PUSH1 0x4 PUSH0 CALLER PUSH20 0xFFFFFFFFFFFFFFFFFFFFFFFFFFFFFFFFFFFFFFFF AND PUSH20 0xFFFFFFFFFFFFFFFFFFFFFFFFFFFFFFFFFFFFFFFF AND DUP2 MSTORE PUSH1 0x20 ADD SWAP1 DUP2 MSTORE PUSH1 0x20 ADD PUSH0 KECCAK256 PUSH0 PUSH2 0x100 EXP DUP2 SLOAD DUP2 PUSH1 0xFF MUL NOT AND SWAP1 DUP4 ISZERO ISZERO MUL OR SWAP1 SSTORE POP PUSH2 0x10A3 PUSH1 0x40 MLOAD DUP1 PUSH1 0x40 ADD PUSH1 0x40 MSTORE DUP1 PUSH1 0x4 DUP2 MSTORE PUSH1 0x20 ADD PUSH32 0x4672656500000000000000000000000000000000000000000000000000000000 DUP2 MSTORE POP PUSH1 0x40 MLOAD DUP1 PUSH1 0x40 ADD PUSH1 0x40 MSTORE DUP1 PUSH1 0xA DUP2 MSTORE PUSH1 0x20 ADD PUSH32 0x467265655A6F6D62696500000000000000000000000000000000000000000000 DUP2 MSTORE POP PUSH2 0x1096 PUSH1 0x40 MLOAD DUP1 PUSH1 0x40 ADD PUSH1 0x40 MSTORE DUP1 PUSH1 0x4 DUP2 MSTORE PUSH1 0x20 ADD PUSH32 0x6672656500000000000000000000000000000000000000000000000000000000 DUP2 MSTORE POP PUSH2 0x20AA JUMP JUMPDEST PUSH1 0x1 PUSH0 DUP1 PUSH1 0x2 PUSH0 DUP1 PUSH2 0x20ED JUMP JUMPDEST JUMP JUMPDEST PUSH2 0x10AD PUSH2 0x22D4 JUMP JUMPDEST PUSH1 0x3 DUP3 DUP2 SLOAD DUP2 LT PUSH2 0x10C1 JUMPI PUSH2 0x10C0 PUSH2 0x2A7D JUMP JUMPDEST JUMPDEST SWAP1 PUSH0 MSTORE PUSH1 0x20 PUSH0 KECCAK256 SWAP1 PUSH1 0x9 MUL ADD PUSH1 0x40 MLOAD DUP1 PUSH2 0x120 ADD PUSH1 0x40 MSTORE SWAP1 DUP2 PUSH0 DUP3 ADD DUP1 SLOAD PUSH2 0x10E8 SWAP1 PUSH2 0x2BEE JUMP JUMPDEST DUP1 PUSH1 0x1F ADD PUSH1 0x20 DUP1 SWAP2 DIV MUL PUSH1 0x20 ADD PUSH1 0x40 MLOAD SWAP1 DUP2 ADD PUSH1 0x40 MSTORE DUP1 SWAP3 SWAP2 SWAP1 DUP2 DUP2 MSTORE PUSH1 0x20 ADD DUP3 DUP1 SLOAD PUSH2 0x1114 SWAP1 PUSH2 0x2BEE JUMP JUMPDEST DUP1 ISZERO PUSH2 0x115F JUMPI DUP1 PUSH1 0x1F LT PUSH2 0x1136 JUMPI PUSH2 0x100 DUP1 DUP4 SLOAD DIV MUL DUP4 MSTORE SWAP2 PUSH1 0x20 ADD SWAP2 PUSH2 0x115F JUMP JUMPDEST DUP3 ADD SWAP2 SWAP1 PUSH0 MSTORE PUSH1 0x20 PUSH0 KECCAK256 SWAP1 JUMPDEST DUP2 SLOAD DUP2 MSTORE SWAP1 PUSH1 0x1 ADD SWAP1 PUSH1 0x20 ADD DUP1 DUP4 GT PUSH2 0x1142 JUMPI DUP3 SWAP1 SUB PUSH1 0x1F AND DUP3 ADD SWAP2 JUMPDEST POP POP POP POP POP DUP2 MSTORE PUSH1 0x20 ADD PUSH1 0x1 DUP3 ADD DUP1 SLOAD PUSH2 0x1178 SWAP1 PUSH2 0x2BEE JUMP JUMPDEST DUP1 PUSH1 0x1F ADD PUSH1 0x20 DUP1 SWAP2 DIV MUL PUSH1 0x20 ADD PUSH1 0x40 MLOAD SWAP1 DUP2 ADD PUSH1 0x40 MSTORE DUP1 SWAP3 SWAP2 SWAP1 DUP2 DUP2 MSTORE PUSH1 0x20 ADD DUP3 DUP1 SLOAD PUSH2 0x11A4 SWAP1 PUSH2 0x2BEE JUMP JUMPDEST DUP1 ISZERO PUSH2 0x11EF JUMPI DUP1 PUSH1 0x1F LT PUSH2 0x11C6 JUMPI PUSH2 0x100 DUP1 DUP4 SLOAD DIV MUL DUP4 MSTORE SWAP2 PUSH1 0x20 ADD SWAP2 PUSH2 0x11EF JUMP JUMPDEST DUP3 ADD SWAP2 SWAP1 PUSH0 MSTORE PUSH1 0x20 PUSH0 KECCAK256 SWAP1 JUMPDEST DUP2 SLOAD DUP2 MSTORE SWAP1 PUSH1 0x1 ADD SWAP1 PUSH1 0x20 ADD DUP1 DUP4 GT PUSH2 0x11D2 JUMPI DUP3 SWAP1 SUB PUSH1 0x1F AND DUP3 ADD SWAP2 JUMPDEST POP POP POP POP POP DUP2 MSTORE PUSH1 0x20 ADD PUSH1 0x2 DUP3 ADD SLOAD DUP2 MSTORE PUSH1 0x20 ADD PUSH1 0x3 DUP3 ADD SLOAD DUP2 MSTORE PUSH1 0x20 ADD PUSH1 0x4 DUP3 ADD SLOAD DUP2 MSTORE PUSH1 0x20 ADD PUSH1 0x5 DUP3 ADD SLOAD DUP2 MSTORE PUSH1 0x20 ADD PUSH1 0x6 DUP3 ADD SLOAD DUP2 MSTORE PUSH1 0x20 ADD PUSH1 0x7 DUP3 ADD SLOAD DUP2 MSTORE PUSH1 0x20 ADD PUSH1 0x8 DUP3 ADD SLOAD DUP2 MSTORE POP POP SWAP1 POP SWAP2 SWAP1 POP JUMP JUMPDEST PUSH1 0x4 PUSH1 0x20 MSTORE DUP1 PUSH0 MSTORE PUSH1 0x40 PUSH0 KECCAK256 PUSH0 SWAP2 POP SLOAD SWAP1 PUSH2 0x100 EXP SWAP1 DIV PUSH1 0xFF AND DUP2 JUMP JUMPDEST PUSH1 0xB PUSH1 0x20 MSTORE DUP1 PUSH0 MSTORE PUSH1 0x40 PUSH0 KECCAK256 PUSH0 SWAP2 POP SLOAD SWAP1 PUSH2 0x100 EXP SWAP1 DIV PUSH20 0xFFFFFFFFFFFFFFFFFFFFFFFFFFFFFFFFFFFFFFFF AND DUP2 JUMP JUMPDEST PUSH0 PUSH8 0xDE0B6B3A7640000 CALLVALUE EQ PUSH2 0x12DD JUMPI PUSH1 0x40 MLOAD PUSH32 0x8C379A000000000000000000000000000000000000000000000000000000000 DUP2 MSTORE PUSH1 0x4 ADD PUSH2 0x12D4 SWAP1 PUSH2 0x2EE1 JUMP JUMPDEST PUSH1 0x40 MLOAD DUP1 SWAP2 SUB SWAP1 REVERT JUMPDEST PUSH1 0x40 MLOAD DUP1 PUSH1 0x40 ADD PUSH1 0x40 MSTORE DUP1 PUSH1 0x7 DUP2 MSTORE PUSH1 0x20 ADD PUSH32 0x7072656D69756D00000000000000000000000000000000000000000000000000 DUP2 MSTORE POP DUP1 MLOAD SWAP1 PUSH1 0x20 ADD KECCAK256 DUP4 DUP1 MLOAD SWAP1 PUSH1 0x20 ADD KECCAK256 EQ DUP1 PUSH2 0x1370 JUMPI POP PUSH1 0x40 MLOAD DUP1 PUSH1 0x40 ADD PUSH1 0x40 MSTORE DUP1 PUSH1 0x7 DUP2 MSTORE PUSH1 0x20 ADD PUSH32 0x4469616D6F6E6400000000000000000000000000000000000000000000000000 DUP2 MSTORE POP DUP1 MLOAD SWAP1 PUSH1 0x20 ADD KECCAK256 DUP4 DUP1 MLOAD SWAP1 PUSH1 0x20 ADD KECCAK256 EQ JUMPDEST PUSH2 0x13AF JUMPI PUSH1 0x40 MLOAD PUSH32 0x8C379A000000000000000000000000000000000000000000000000000000000 DUP2 MSTORE PUSH1 0x4 ADD PUSH2 0x13A6 SWAP1 PUSH2 0x2F49 JUMP JUMPDEST PUSH1 0x40 MLOAD DUP1 SWAP2 SUB SWAP1 REVERT JUMPDEST PUSH0 PUSH2 0x13B9 DUP4 PUSH2 0x20AA JUMP JUMPDEST SWAP1 POP PUSH2 0x13D0 DUP5 DUP5 DUP4 PUSH1 0x5 PUSH2 0x1F4 PUSH0 PUSH1 0x5 PUSH0 DUP1 PUSH2 0x20ED JUMP JUMPDEST PUSH1 0x1 SWAP2 POP POP SWAP3 SWAP2 POP POP JUMP JUMPDEST DUP1 CALLER PUSH20 0xFFFFFFFFFFFFFFFFFFFFFFFFFFFFFFFFFFFFFFFF AND PUSH0 DUP1 DUP4 DUP2 MSTORE PUSH1 0x20 ADD SWAP1 DUP2 MSTORE PUSH1 0x20 ADD PUSH0 KECCAK256 PUSH0 SWAP1 SLOAD SWAP1 PUSH2 0x100 EXP SWAP1 DIV PUSH20 0xFFFFFFFFFFFFFFFFFFFFFFFFFFFFFFFFFFFFFFFF AND PUSH20 0xFFFFFFFFFFFFFFFFFFFFFFFFFFFFFFFFFFFFFFFF AND EQ PUSH2 0x1479 JUMPI PUSH1 0x40 MLOAD PUSH32 0x8C379A000000000000000000000000000000000000000000000000000000000 DUP2 MSTORE PUSH1 0x4 ADD PUSH2 0x1470 SWAP1 PUSH2 0x29A2 JUMP JUMPDEST PUSH1 0x40 MLOAD DUP1 SWAP2 SUB SWAP1 REVERT JUMPDEST PUSH2 0x1F4 PUSH1 0x3 DUP4 DUP2 SLOAD DUP2 LT PUSH2 0x1490 JUMPI PUSH2 0x148F PUSH2 0x2A7D JUMP JUMPDEST JUMPDEST SWAP1 PUSH0 MSTORE PUSH1 0x20 PUSH0 KECCAK256 SWAP1 PUSH1 0x9 MUL ADD PUSH1 0x4 ADD SLOAD LT ISZERO PUSH2 0x14E1 JUMPI PUSH1 0x40 MLOAD PUSH32 0x8C379A000000000000000000000000000000000000000000000000000000000 DUP2 MSTORE PUSH1 0x4 ADD PUSH2 0x14D8 SWAP1 PUSH2 0x2FB1 JUMP JUMPDEST PUSH1 0x40 MLOAD DUP1 SWAP2 SUB SWAP1 REVERT JUMPDEST PUSH2 0x1F4 PUSH1 0x3 DUP4 DUP2 SLOAD DUP2 LT PUSH2 0x14F8 JUMPI PUSH2 0x14F7 PUSH2 0x2A7D JUMP JUMPDEST JUMPDEST SWAP1 PUSH0 MSTORE PUSH1 0x20 PUSH0 KECCAK256 SWAP1 PUSH1 0x9 MUL ADD PUSH1 0x4 ADD PUSH0 DUP3 DUP3 SLOAD PUSH2 0x1515 SWAP2 SWAP1 PUSH2 0x2FCF JUMP JUMPDEST SWAP3 POP POP DUP2 SWAP1 SSTORE POP PUSH1 0x1 PUSH1 0x3 DUP4 DUP2 SLOAD DUP2 LT PUSH2 0x1532 JUMPI PUSH2 0x1531 PUSH2 0x2A7D JUMP JUMPDEST JUMPDEST SWAP1 PUSH0 MSTORE PUSH1 0x20 PUSH0 KECCAK256 SWAP1 PUSH1 0x9 MUL ADD PUSH1 0x3 ADD PUSH0 DUP3 DUP3 SLOAD PUSH2 0x154F SWAP2 SWAP1 PUSH2 0x2A4A JUMP JUMPDEST SWAP3 POP POP DUP2 SWAP1 SSTORE POP POP POP JUMP JUMPDEST DUP1 CALLER PUSH20 0xFFFFFFFFFFFFFFFFFFFFFFFFFFFFFFFFFFFFFFFF AND PUSH0 DUP1 DUP4 DUP2 MSTORE PUSH1 0x20 ADD SWAP1 DUP2 MSTORE PUSH1 0x20 ADD PUSH0 KECCAK256 PUSH0 SWAP1 SLOAD SWAP1 PUSH2 0x100 EXP SWAP1 DIV PUSH20 0xFFFFFFFFFFFFFFFFFFFFFFFFFFFFFFFFFFFFFFFF AND PUSH20 0xFFFFFFFFFFFFFFFFFFFFFFFFFFFFFFFFFFFFFFFF AND EQ PUSH2 0x15F8 JUMPI PUSH1 0x40 MLOAD PUSH32 0x8C379A000000000000000000000000000000000000000000000000000000000 DUP2 MSTORE PUSH1 0x4 ADD PUSH2 0x15EF SWAP1 PUSH2 0x29A2 JUMP JUMPDEST PUSH1 0x40 MLOAD DUP1 SWAP2 SUB SWAP1 REVERT JUMPDEST PUSH1 0x1 ISZERO ISZERO PUSH1 0x5 PUSH0 DUP5 DUP2 MSTORE PUSH1 0x20 ADD SWAP1 DUP2 MSTORE PUSH1 0x20 ADD PUSH0 KECCAK256 PUSH0 SWAP1 SLOAD SWAP1 PUSH2 0x100 EXP SWAP1 DIV PUSH1 0xFF AND ISZERO ISZERO EQ PUSH2 0x1625 JUMPI PUSH0 DUP1 REVERT JUMPDEST PUSH1 0x8 PUSH0 DUP4 DUP2 MSTORE PUSH1 0x20 ADD SWAP1 DUP2 MSTORE PUSH1 0x20 ADD PUSH0 KECCAK256 SLOAD TIMESTAMP LT ISZERO PUSH2 0x1642 JUMPI PUSH0 DUP1 REVERT JUMPDEST PUSH0 PUSH1 0x5 PUSH0 DUP5 DUP2 MSTORE PUSH1 0x20 ADD SWAP1 DUP2 MSTORE PUSH1 0x20 ADD PUSH0 KECCAK256 PUSH0 PUSH2 0x100 EXP DUP2 SLOAD DUP2 PUSH1 0xFF MUL NOT AND SWAP1 DUP4 ISZERO ISZERO MUL OR SWAP1 SSTORE POP PUSH0 PUSH1 0x9 PUSH0 DUP5 DUP2 MSTORE PUSH1 0x20 ADD SWAP1 DUP2 MSTORE PUSH1 0x20 ADD PUSH0 KECCAK256 PUSH0 PUSH2 0x100 EXP DUP2 SLOAD DUP2 PUSH1 0xFF MUL NOT AND SWAP1 DUP4 ISZERO ISZERO MUL OR SWAP1 SSTORE POP PUSH0 PUSH1 0xB PUSH0 DUP5 DUP2 MSTORE PUSH1 0x20 ADD SWAP1 DUP2 MSTORE PUSH1 0x20 ADD PUSH0 KECCAK256 PUSH0 PUSH2 0x100 EXP DUP2 SLOAD DUP2 PUSH20 0xFFFFFFFFFFFFFFFFFFFFFFFFFFFFFFFFFFFFFFFF MUL NOT AND SWAP1 DUP4 PUSH20 0xFFFFFFFFFFFFFFFFFFFFFFFFFFFFFFFFFFFFFFFF AND MUL OR SWAP1 SSTORE POP POP POP JUMP JUMPDEST PUSH0 PUSH1 0xC PUSH0 DUP4 DUP2 MSTORE PUSH1 0x20 ADD SWAP1 DUP2 MSTORE PUSH1 0x20 ADD PUSH0 KECCAK256 SLOAD CALLVALUE EQ PUSH2 0x1739 JUMPI PUSH1 0x40 MLOAD PUSH32 0x8C379A000000000000000000000000000000000000000000000000000000000 DUP2 MSTORE PUSH1 0x4 ADD PUSH2 0x1730 SWAP1 PUSH2 0x304C JUMP JUMPDEST PUSH1 0x40 MLOAD DUP1 SWAP2 SUB SWAP1 REVERT JUMPDEST PUSH1 0x9 PUSH0 DUP4 DUP2 MSTORE PUSH1 0x20 ADD SWAP1 DUP2 MSTORE PUSH1 0x20 ADD PUSH0 KECCAK256 PUSH0 SWAP1 SLOAD SWAP1 PUSH2 0x100 EXP SWAP1 DIV PUSH1 0xFF AND ISZERO DUP1 ISZERO PUSH2 0x17AB JUMPI POP PUSH1 0xA PUSH0 CALLER PUSH20 0xFFFFFFFFFFFFFFFFFFFFFFFFFFFFFFFFFFFFFFFF AND PUSH20 0xFFFFFFFFFFFFFFFFFFFFFFFFFFFFFFFFFFFFFFFF AND DUP2 MSTORE PUSH1 0x20 ADD SWAP1 DUP2 MSTORE PUSH1 0x20 ADD PUSH0 KECCAK256 PUSH0 SWAP1 SLOAD SWAP1 PUSH2 0x100 EXP SWAP1 DIV PUSH1 0xFF AND ISZERO JUMPDEST PUSH2 0x17EA JUMPI PUSH1 0x40 MLOAD PUSH32 0x8C379A000000000000000000000000000000000000000000000000000000000 DUP2 MSTORE PUSH1 0x4 ADD PUSH2 0x17E1 SWAP1 PUSH2 0x30B4 JUMP JUMPDEST PUSH1 0x40 MLOAD DUP1 SWAP2 SUB SWAP1 REVERT JUMPDEST CALLER PUSH20 0xFFFFFFFFFFFFFFFFFFFFFFFFFFFFFFFFFFFFFFFF AND PUSH0 DUP1 DUP5 DUP2 MSTORE PUSH1 0x20 ADD SWAP1 DUP2 MSTORE PUSH1 0x20 ADD PUSH0 KECCAK256 PUSH0 SWAP1 SLOAD SWAP1 PUSH2 0x100 EXP SWAP1 DIV PUSH20 0xFFFFFFFFFFFFFFFFFFFFFFFFFFFFFFFFFFFFFFFF AND PUSH20 0xFFFFFFFFFFFFFFFFFFFFFFFFFFFFFFFFFFFFFFFF AND SUB PUSH2 0x1887 JUMPI PUSH1 0x40 MLOAD PUSH32 0x8C379A000000000000000000000000000000000000000000000000000000000 DUP2 MSTORE PUSH1 0x4 ADD PUSH2 0x187E SWAP1 PUSH2 0x311C JUMP JUMPDEST PUSH1 0x40 MLOAD DUP1 SWAP2 SUB SWAP1 REVERT JUMPDEST PUSH1 0x1 ISZERO ISZERO PUSH1 0x5 PUSH0 DUP5 DUP2 MSTORE PUSH1 0x20 ADD SWAP1 DUP2 MSTORE PUSH1 0x20 ADD PUSH0 KECCAK256 PUSH0 SWAP1 SLOAD SWAP1 PUSH2 0x100 EXP SWAP1 DIV PUSH1 0xFF AND ISZERO ISZERO EQ PUSH2 0x18EB JUMPI PUSH1 0x40 MLOAD PUSH32 0x8C379A000000000000000000000000000000000000000000000000000000000 DUP2 MSTORE PUSH1 0x4 ADD PUSH2 0x18E2 SWAP1 PUSH2 0x3184 JUMP JUMPDEST PUSH1 0x40 MLOAD DUP1 SWAP2 SUB SWAP1 REVERT JUMPDEST CALLER PUSH1 0xB PUSH0 DUP5 DUP2 MSTORE PUSH1 0x20 ADD SWAP1 DUP2 MSTORE PUSH1 0x20 ADD PUSH0 KECCAK256 PUSH0 PUSH2 0x100 EXP DUP2 SLOAD DUP2 PUSH20 0xFFFFFFFFFFFFFFFFFFFFFFFFFFFFFFFFFFFFFFFF MUL NOT AND SWAP1 DUP4 PUSH20 0xFFFFFFFFFFFFFFFFFFFFFFFFFFFFFFFFFFFFFFFF AND MUL OR SWAP1 SSTORE POP PUSH1 0x1 PUSH1 0xA PUSH0 CALLER PUSH20 0xFFFFFFFFFFFFFFFFFFFFFFFFFFFFFFFFFFFFFFFF AND PUSH20 0xFFFFFFFFFFFFFFFFFFFFFFFFFFFFFFFFFFFFFFFF AND DUP2 MSTORE PUSH1 0x20 ADD SWAP1 DUP2 MSTORE PUSH1 0x20 ADD PUSH0 KECCAK256 PUSH0 PUSH2 0x100 EXP DUP2 SLOAD DUP2 PUSH1 0xFF MUL NOT AND SWAP1 DUP4 ISZERO ISZERO MUL OR SWAP1 SSTORE POP PUSH1 0x1 PUSH1 0x9 PUSH0 DUP5 DUP2 MSTORE PUSH1 0x20 ADD SWAP1 DUP2 MSTORE PUSH1 0x20 ADD PUSH0 KECCAK256 PUSH0 PUSH2 0x100 EXP DUP2 SLOAD DUP2 PUSH1 0xFF MUL NOT AND SWAP1 DUP4 ISZERO ISZERO MUL OR SWAP1 SSTORE POP PUSH1 0x1 SWAP1 POP SWAP2 SWAP1 POP JUMP JUMPDEST PUSH1 0x60 PUSH0 PUSH2 0x19CC PUSH2 0x2289 JUMP JUMPDEST SWAP1 POP PUSH1 0x1 PUSH1 0x3 DUP5 DUP2 SLOAD DUP2 LT PUSH2 0x19E4 JUMPI PUSH2 0x19E3 PUSH2 0x2A7D JUMP JUMPDEST JUMPDEST SWAP1 PUSH0 MSTORE PUSH1 0x20 PUSH0 KECCAK256 SWAP1 PUSH1 0x9 MUL ADD PUSH1 0x6 ADD SLOAD LT ISZERO PUSH2 0x1A35 JUMPI PUSH1 0x40 MLOAD PUSH32 0x8C379A000000000000000000000000000000000000000000000000000000000 DUP2 MSTORE PUSH1 0x4 ADD PUSH2 0x1A2C SWAP1 PUSH2 0x31EC JUMP JUMPDEST PUSH1 0x40 MLOAD DUP1 SWAP2 SUB SWAP1 REVERT JUMPDEST PUSH1 0x1 PUSH1 0x3 DUP3 DUP2 SLOAD DUP2 LT PUSH2 0x1A4B JUMPI PUSH2 0x1A4A PUSH2 0x2A7D JUMP JUMPDEST JUMPDEST SWAP1 PUSH0 MSTORE PUSH1 0x20 PUSH0 KECCAK256 SWAP1 PUSH1 0x9 MUL ADD PUSH1 0x6 ADD SLOAD LT ISZERO PUSH2 0x1A9C JUMPI PUSH1 0x40 MLOAD PUSH32 0x8C379A000000000000000000000000000000000000000000000000000000000 DUP2 MSTORE PUSH1 0x4 ADD PUSH2 0x1A93 SWAP1 PUSH2 0x3254 JUMP JUMPDEST PUSH1 0x40 MLOAD DUP1 SWAP2 SUB SWAP1 REVERT JUMPDEST PUSH1 0x3 DUP2 DUP2 SLOAD DUP2 LT PUSH2 0x1AB0 JUMPI PUSH2 0x1AAF PUSH2 0x2A7D JUMP JUMPDEST JUMPDEST SWAP1 PUSH0 MSTORE PUSH1 0x20 PUSH0 KECCAK256 SWAP1 PUSH1 0x9 MUL ADD PUSH1 0x3 ADD SLOAD PUSH1 0x3 DUP5 DUP2 SLOAD DUP2 LT PUSH2 0x1AD4 JUMPI PUSH2 0x1AD3 PUSH2 0x2A7D JUMP JUMPDEST JUMPDEST SWAP1 PUSH0 MSTORE PUSH1 0x20 PUSH0 KECCAK256 SWAP1 PUSH1 0x9 MUL ADD PUSH1 0x3 ADD SLOAD GT ISZERO PUSH2 0x1D22 JUMPI PUSH1 0x3 DUP4 DUP2 SLOAD DUP2 LT PUSH2 0x1AFE JUMPI PUSH2 0x1AFD PUSH2 0x2A7D JUMP JUMPDEST JUMPDEST SWAP1 PUSH0 MSTORE PUSH1 0x20 PUSH0 KECCAK256 SWAP1 PUSH1 0x9 MUL ADD PUSH1 0x3 ADD PUSH0 DUP2 SLOAD DUP1 SWAP3 SWAP2 SWAP1 PUSH2 0x1B1D SWAP1 PUSH2 0x2AAA JUMP JUMPDEST SWAP2 SWAP1 POP SSTORE POP PUSH1 0x3 DUP4 DUP2 SLOAD DUP2 LT PUSH2 0x1B36 JUMPI PUSH2 0x1B35 PUSH2 0x2A7D JUMP JUMPDEST JUMPDEST SWAP1 PUSH0 MSTORE PUSH1 0x20 PUSH0 KECCAK256 SWAP1 PUSH1 0x9 MUL ADD PUSH1 0x5 ADD PUSH0 DUP2 SLOAD DUP1 SWAP3 SWAP2 SWAP1 PUSH2 0x1B55 SWAP1 PUSH2 0x2AAA JUMP JUMPDEST SWAP2 SWAP1 POP SSTORE POP PUSH1 0x3 DUP4 DUP2 SLOAD DUP2 LT PUSH2 0x1B6E JUMPI PUSH2 0x1B6D PUSH2 0x2A7D JUMP JUMPDEST JUMPDEST SWAP1 PUSH0 MSTORE PUSH1 0x20 PUSH0 KECCAK256 SWAP1 PUSH1 0x9 MUL ADD PUSH1 0x6 ADD PUSH0 DUP2 SLOAD DUP1 SWAP3 SWAP2 SWAP1 PUSH2 0x1B8D SWAP1 PUSH2 0x2E08 JUMP JUMPDEST SWAP2 SWAP1 POP SSTORE POP PUSH1 0x3 DUP4 DUP2 SLOAD DUP2 LT PUSH2 0x1BA6 JUMPI PUSH2 0x1BA5 PUSH2 0x2A7D JUMP JUMPDEST JUMPDEST SWAP1 PUSH0 MSTORE PUSH1 0x20 PUSH0 KECCAK256 SWAP1 PUSH1 0x9 MUL ADD PUSH1 0x7 ADD PUSH0 DUP2 SLOAD DUP1 SWAP3 SWAP2 SWAP1 PUSH2 0x1BC5 SWAP1 PUSH2 0x2AAA JUMP JUMPDEST SWAP2 SWAP1 POP SSTORE POP PUSH1 0x64 PUSH1 0x3 DUP5 DUP2 SLOAD DUP2 LT PUSH2 0x1BE0 JUMPI PUSH2 0x1BDF PUSH2 0x2A7D JUMP JUMPDEST JUMPDEST SWAP1 PUSH0 MSTORE PUSH1 0x20 PUSH0 KECCAK256 SWAP1 PUSH1 0x9 MUL ADD PUSH1 0x4 ADD PUSH0 DUP3 DUP3 SLOAD PUSH2 0x1BFD SWAP2 SWAP1 PUSH2 0x2A4A JUMP JUMPDEST SWAP3 POP POP DUP2 SWAP1 SSTORE POP PUSH1 0x3 DUP2 DUP2 SLOAD DUP2 LT PUSH2 0x1C18 JUMPI PUSH2 0x1C17 PUSH2 0x2A7D JUMP JUMPDEST JUMPDEST SWAP1 PUSH0 MSTORE PUSH1 0x20 PUSH0 KECCAK256 SWAP1 PUSH1 0x9 MUL ADD PUSH1 0x3 ADD PUSH0 DUP2 SLOAD DUP1 SWAP3 SWAP2 SWAP1 PUSH2 0x1C37 SWAP1 PUSH2 0x2E08 JUMP JUMPDEST SWAP2 SWAP1 POP SSTORE POP PUSH1 0x3 DUP2 DUP2 SLOAD DUP2 LT PUSH2 0x1C50 JUMPI PUSH2 0x1C4F PUSH2 0x2A7D JUMP JUMPDEST JUMPDEST SWAP1 PUSH0 MSTORE PUSH1 0x20 PUSH0 KECCAK256 SWAP1 PUSH1 0x9 MUL ADD PUSH1 0x5 ADD PUSH0 DUP2 SLOAD DUP1 SWAP3 SWAP2 SWAP1 PUSH2 0x1C6F SWAP1 PUSH2 0x2AAA JUMP JUMPDEST SWAP2 SWAP1 POP SSTORE POP PUSH1 0x3 DUP2 DUP2 SLOAD DUP2 LT PUSH2 0x1C88 JUMPI PUSH2 0x1C87 PUSH2 0x2A7D JUMP JUMPDEST JUMPDEST SWAP1 PUSH0 MSTORE PUSH1 0x20 PUSH0 KECCAK256 SWAP1 PUSH1 0x9 MUL ADD PUSH1 0x6 ADD PUSH0 DUP2 SLOAD DUP1 SWAP3 SWAP2 SWAP1 PUSH2 0x1CA7 SWAP1 PUSH2 0x2E08 JUMP JUMPDEST SWAP2 SWAP1 POP SSTORE POP PUSH1 0x3 DUP2 DUP2 SLOAD DUP2 LT PUSH2 0x1CC0 JUMPI PUSH2 0x1CBF PUSH2 0x2A7D JUMP JUMPDEST JUMPDEST SWAP1 PUSH0 MSTORE PUSH1 0x20 PUSH0 KECCAK256 SWAP1 PUSH1 0x9 MUL ADD PUSH1 0x8 ADD PUSH0 DUP2 SLOAD DUP1 SWAP3 SWAP2 SWAP1 PUSH2 0x1CDF SWAP1 PUSH2 0x2AAA JUMP JUMPDEST SWAP2 SWAP1 POP SSTORE POP PUSH1 0x40 MLOAD DUP1 PUSH1 0x40 ADD PUSH1 0x40 MSTORE DUP1 PUSH1 0xE DUP2 MSTORE PUSH1 0x20 ADD PUSH32 0x436F6E67726174732057696E732E000000000000000000000000000000000000 DUP2 MSTORE POP SWAP2 POP POP PUSH2 0x20A5 JUMP JUMPDEST PUSH1 0x3 DUP4 DUP2 SLOAD DUP2 LT PUSH2 0x1D36 JUMPI PUSH2 0x1D35 PUSH2 0x2A7D JUMP JUMPDEST JUMPDEST SWAP1 PUSH0 MSTORE PUSH1 0x20 PUSH0 KECCAK256 SWAP1 PUSH1 0x9 MUL ADD PUSH1 0x3 ADD SLOAD PUSH1 0x3 DUP3 DUP2 SLOAD DUP2 LT PUSH2 0x1D5A JUMPI PUSH2 0x1D59 PUSH2 0x2A7D JUMP JUMPDEST JUMPDEST SWAP1 PUSH0 MSTORE PUSH1 0x20 PUSH0 KECCAK256 SWAP1 PUSH1 0x9 MUL ADD PUSH1 0x3 ADD SLOAD GT ISZERO PUSH2 0x1F8B JUMPI PUSH1 0x3 DUP2 DUP2 SLOAD DUP2 LT PUSH2 0x1D84 JUMPI PUSH2 0x1D83 PUSH2 0x2A7D JUMP JUMPDEST JUMPDEST SWAP1 PUSH0 MSTORE PUSH1 0x20 PUSH0 KECCAK256 SWAP1 PUSH1 0x9 MUL ADD PUSH1 0x3 ADD PUSH0 DUP2 SLOAD DUP1 SWAP3 SWAP2 SWAP1 PUSH2 0x1DA3 SWAP1 PUSH2 0x2AAA JUMP JUMPDEST SWAP2 SWAP1 POP SSTORE POP PUSH1 0x3 DUP2 DUP2 SLOAD DUP2 LT PUSH2 0x1DBC JUMPI PUSH2 0x1DBB PUSH2 0x2A7D JUMP JUMPDEST JUMPDEST SWAP1 PUSH0 MSTORE PUSH1 0x20 PUSH0 KECCAK256 SWAP1 PUSH1 0x9 MUL ADD PUSH1 0x5 ADD PUSH0 DUP2 SLOAD DUP1 SWAP3 SWAP2 SWAP1 PUSH2 0x1DDB SWAP1 PUSH2 0x2AAA JUMP JUMPDEST SWAP2 SWAP1 POP SSTORE POP PUSH1 0x3 DUP2 DUP2 SLOAD DUP2 LT PUSH2 0x1DF4 JUMPI PUSH2 0x1DF3 PUSH2 0x2A7D JUMP JUMPDEST JUMPDEST SWAP1 PUSH0 MSTORE PUSH1 0x20 PUSH0 KECCAK256 SWAP1 PUSH1 0x9 MUL ADD PUSH1 0x6 ADD PUSH0 DUP2 SLOAD DUP1 SWAP3 SWAP2 SWAP1 PUSH2 0x1E13 SWAP1 PUSH2 0x2E08 JUMP JUMPDEST SWAP2 SWAP1 POP SSTORE POP PUSH1 0x3 DUP2 DUP2 SLOAD DUP2 LT PUSH2 0x1E2C JUMPI PUSH2 0x1E2B PUSH2 0x2A7D JUMP JUMPDEST JUMPDEST SWAP1 PUSH0 MSTORE PUSH1 0x20 PUSH0 KECCAK256 SWAP1 PUSH1 0x9 MUL ADD PUSH1 0x7 ADD PUSH0 DUP2 SLOAD DUP1 SWAP3 SWAP2 SWAP1 PUSH2 0x1E4B SWAP1 PUSH2 0x2AAA JUMP JUMPDEST SWAP2 SWAP1 POP SSTORE POP PUSH1 0x64 PUSH1 0x3 DUP3 DUP2 SLOAD DUP2 LT PUSH2 0x1E66 JUMPI PUSH2 0x1E65 PUSH2 0x2A7D JUMP JUMPDEST JUMPDEST SWAP1 PUSH0 MSTORE PUSH1 0x20 PUSH0 KECCAK256 SWAP1 PUSH1 0x9 MUL ADD PUSH1 0x4 ADD PUSH0 DUP3 DUP3 SLOAD PUSH2 0x1E83 SWAP2 SWAP1 PUSH2 0x2A4A JUMP JUMPDEST SWAP3 POP POP DUP2 SWAP1 SSTORE POP PUSH1 0x3 DUP4 DUP2 SLOAD DUP2 LT PUSH2 0x1E9E JUMPI PUSH2 0x1E9D PUSH2 0x2A7D JUMP JUMPDEST JUMPDEST SWAP1 PUSH0 MSTORE PUSH1 0x20 PUSH0 KECCAK256 SWAP1 PUSH1 0x9 MUL ADD PUSH1 0x3 ADD PUSH0 DUP2 SLOAD DUP1 SWAP3 SWAP2 SWAP1 PUSH2 0x1EBD SWAP1 PUSH2 0x2E08 JUMP JUMPDEST SWAP2 SWAP1 POP SSTORE POP PUSH1 0x3 DUP4 DUP2 SLOAD DUP2 LT PUSH2 0x1ED6 JUMPI PUSH2 0x1ED5 PUSH2 0x2A7D JUMP JUMPDEST JUMPDEST SWAP1 PUSH0 MSTORE PUSH1 0x20 PUSH0 KECCAK256 SWAP1 PUSH1 0x9 MUL ADD PUSH1 0x5 ADD PUSH0 DUP2 SLOAD DUP1 SWAP3 SWAP2 SWAP1 PUSH2 0x1EF5 SWAP1 PUSH2 0x2AAA JUMP JUMPDEST SWAP2 SWAP1 POP SSTORE POP PUSH1 0x3 DUP4 DUP2 SLOAD DUP2 LT PUSH2 0x1F0E JUMPI PUSH2 0x1F0D PUSH2 0x2A7D JUMP JUMPDEST JUMPDEST SWAP1 PUSH0 MSTORE PUSH1 0x20 PUSH0 KECCAK256 SWAP1 PUSH1 0x9 MUL ADD PUSH1 0x6 ADD PUSH0 DUP2 SLOAD DUP1 SWAP3 SWAP2 SWAP1 PUSH2 0x1F2D SWAP1 PUSH2 0x2E08 JUMP JUMPDEST SWAP2 SWAP1 POP SSTORE POP PUSH1 0x3 DUP4 DUP2 SLOAD DUP2 LT PUSH2 0x1F46 JUMPI PUSH2 0x1F45 PUSH2 0x2A7D JUMP JUMPDEST JUMPDEST SWAP1 PUSH0 MSTORE PUSH1 0x20 PUSH0 KECCAK256 SWAP1 PUSH1 0x9 MUL ADD PUSH1 0x8 ADD PUSH0 DUP2 SLOAD DUP1 SWAP3 SWAP2 SWAP1 PUSH2 0x1F65 SWAP1 PUSH2 0x2AAA JUMP JUMPDEST SWAP2 SWAP1 POP SSTORE POP PUSH1 0x40 MLOAD DUP1 PUSH1 0x60 ADD PUSH1 0x40 MSTORE DUP1 PUSH1 0x31 DUP2 MSTORE PUSH1 0x20 ADD PUSH2 0x357A PUSH1 0x31 SWAP2 CODECOPY SWAP2 POP POP PUSH2 0x20A5 JUMP JUMPDEST PUSH1 0x3 DUP2 DUP2 SLOAD DUP2 LT PUSH2 0x1F9F JUMPI PUSH2 0x1F9E PUSH2 0x2A7D JUMP JUMPDEST JUMPDEST SWAP1 PUSH0 MSTORE PUSH1 0x20 PUSH0 KECCAK256 SWAP1 PUSH1 0x9 MUL ADD PUSH1 0x5 ADD PUSH0 DUP2 SLOAD DUP1 SWAP3 SWAP2 SWAP1 PUSH2 0x1FBE SWAP1 PUSH2 0x2AAA JUMP JUMPDEST SWAP2 SWAP1 POP SSTORE POP PUSH1 0x3 DUP4 DUP2 SLOAD DUP2 LT PUSH2 0x1FD7 JUMPI PUSH2 0x1FD6 PUSH2 0x2A7D JUMP JUMPDEST JUMPDEST SWAP1 PUSH0 MSTORE PUSH1 0x20 PUSH0 KECCAK256 SWAP1 PUSH1 0x9 MUL ADD PUSH1 0x5 ADD PUSH0 DUP2 SLOAD DUP1 SWAP3 SWAP2 SWAP1 PUSH2 0x1FF6 SWAP1 PUSH2 0x2AAA JUMP JUMPDEST SWAP2 SWAP1 POP SSTORE POP PUSH1 0x3 DUP4 DUP2 SLOAD DUP2 LT PUSH2 0x200F JUMPI PUSH2 0x200E PUSH2 0x2A7D JUMP JUMPDEST JUMPDEST SWAP1 PUSH0 MSTORE PUSH1 0x20 PUSH0 KECCAK256 SWAP1 PUSH1 0x9 MUL ADD PUSH1 0x6 ADD PUSH0 DUP2 SLOAD DUP1 SWAP3 SWAP2 SWAP1 PUSH2 0x202E SWAP1 PUSH2 0x2E08 JUMP JUMPDEST SWAP2 SWAP1 POP SSTORE POP PUSH1 0x3 DUP2 DUP2 SLOAD DUP2 LT PUSH2 0x2047 JUMPI PUSH2 0x2046 PUSH2 0x2A7D JUMP JUMPDEST JUMPDEST SWAP1 PUSH0 MSTORE PUSH1 0x20 PUSH0 KECCAK256 SWAP1 PUSH1 0x9 MUL ADD PUSH1 0x6 ADD PUSH0 DUP2 SLOAD DUP1 SWAP3 SWAP2 SWAP1 PUSH2 0x2066 SWAP1 PUSH2 0x2E08 JUMP JUMPDEST SWAP2 SWAP1 POP SSTORE POP PUSH1 0x40 MLOAD DUP1 PUSH1 0x40 ADD PUSH1 0x40 MSTORE DUP1 PUSH1 0xF DUP2 MSTORE PUSH1 0x20 ADD PUSH32 0x447261772054727920416761696E2E0000000000000000000000000000000000 DUP2 MSTORE POP SWAP2 POP POP JUMPDEST SWAP2 SWAP1 POP JUMP JUMPDEST PUSH0 DUP1 DUP3 PUSH1 0x40 MLOAD PUSH1 0x20 ADD PUSH2 0x20BD SWAP2 SWAP1 PUSH2 0x32AC JUMP JUMPDEST PUSH1 0x40 MLOAD PUSH1 0x20 DUP2 DUP4 SUB SUB DUP2 MSTORE SWAP1 PUSH1 0x40 MSTORE DUP1 MLOAD SWAP1 PUSH1 0x20 ADD KECCAK256 PUSH0 SHR SWAP1 POP PUSH1 0x2 SLOAD DUP2 PUSH2 0x20E5 SWAP2 SWAP1 PUSH2 0x29ED JUMP JUMPDEST SWAP2 POP POP SWAP2 SWAP1 POP JUMP JUMPDEST PUSH1 0x3 PUSH1 0x40 MLOAD DUP1 PUSH2 0x120 ADD PUSH1 0x40 MSTORE DUP1 DUP12 DUP2 MSTORE PUSH1 0x20 ADD DUP11 DUP2 MSTORE PUSH1 0x20 ADD DUP10 DUP2 MSTORE PUSH1 0x20 ADD DUP9 DUP2 MSTORE PUSH1 0x20 ADD DUP8 DUP2 MSTORE PUSH1 0x20 ADD DUP7 DUP2 MSTORE PUSH1 0x20 ADD DUP6 DUP2 MSTORE PUSH1 0x20 ADD DUP5 DUP2 MSTORE PUSH1 0x20 ADD DUP4 DUP2 MSTORE POP SWAP1 DUP1 PUSH1 0x1 DUP2 SLOAD ADD DUP1 DUP3 SSTORE DUP1 SWAP2 POP POP PUSH1 0x1 SWAP1 SUB SWAP1 PUSH0 MSTORE PUSH1 0x20 PUSH0 KECCAK256 SWAP1 PUSH1 0x9 MUL ADD PUSH0 SWAP1 SWAP2 SWAP1 SWAP2 SWAP1 SWAP2 POP PUSH0 DUP3 ADD MLOAD DUP2 PUSH0 ADD SWAP1 DUP2 PUSH2 0x2168 SWAP2 SWAP1 PUSH2 0x345F JUMP JUMPDEST POP PUSH1 0x20 DUP3 ADD MLOAD DUP2 PUSH1 0x1 ADD SWAP1 DUP2 PUSH2 0x217E SWAP2 SWAP1 PUSH2 0x345F JUMP JUMPDEST POP PUSH1 0x40 DUP3 ADD MLOAD DUP2 PUSH1 0x2 ADD SSTORE PUSH1 0x60 DUP3 ADD MLOAD DUP2 PUSH1 0x3 ADD SSTORE PUSH1 0x80 DUP3 ADD MLOAD DUP2 PUSH1 0x4 ADD SSTORE PUSH1 0xA0 DUP3 ADD MLOAD DUP2 PUSH1 0x5 ADD SSTORE PUSH1 0xC0 DUP3 ADD MLOAD DUP2 PUSH1 0x6 ADD SSTORE PUSH1 0xE0 DUP3 ADD MLOAD DUP2 PUSH1 0x7 ADD SSTORE PUSH2 0x100 DUP3 ADD MLOAD DUP2 PUSH1 0x8 ADD SSTORE POP POP PUSH0 PUSH1 0x1 PUSH1 0x3 DUP1 SLOAD SWAP1 POP PUSH2 0x21DB SWAP2 SWAP1 PUSH2 0x2FCF JUMP JUMPDEST SWAP1 POP PUSH1 0x1 PUSH0 CALLER PUSH20 0xFFFFFFFFFFFFFFFFFFFFFFFFFFFFFFFFFFFFFFFF AND PUSH20 0xFFFFFFFFFFFFFFFFFFFFFFFFFFFFFFFFFFFFFFFF AND DUP2 MSTORE PUSH1 0x20 ADD SWAP1 DUP2 MSTORE PUSH1 0x20 ADD PUSH0 KECCAK256 PUSH0 DUP2 SLOAD DUP1 SWAP3 SWAP2 SWAP1 PUSH2 0x222A SWAP1 PUSH2 0x2AAA JUMP JUMPDEST SWAP2 SWAP1 POP SSTORE POP CALLER PUSH0 DUP1 DUP4 DUP2 MSTORE PUSH1 0x20 ADD SWAP1 DUP2 MSTORE PUSH1 0x20 ADD PUSH0 KECCAK256 PUSH0 PUSH2 0x100 EXP DUP2 SLOAD DUP2 PUSH20 0xFFFFFFFFFFFFFFFFFFFFFFFFFFFFFFFFFFFFFFFF MUL NOT AND SWAP1 DUP4 PUSH20 0xFFFFFFFFFFFFFFFFFFFFFFFFFFFFFFFFFFFFFFFF AND MUL OR SWAP1 SSTORE POP POP POP POP POP POP POP POP POP POP POP JUMP JUMPDEST PUSH0 DUP1 PUSH1 0x3 DUP1 SLOAD SWAP1 POP SWAP1 POP PUSH0 DUP2 DUP3 TIMESTAMP PUSH1 0x40 MLOAD PUSH1 0x20 ADD PUSH2 0x22A8 SWAP3 SWAP2 SWAP1 PUSH2 0x354E JUMP JUMPDEST PUSH1 0x40 MLOAD PUSH1 0x20 DUP2 DUP4 SUB SUB DUP2 MSTORE SWAP1 PUSH1 0x40 MSTORE DUP1 MLOAD SWAP1 PUSH1 0x20 ADD KECCAK256 PUSH0 SHR PUSH2 0x22CA SWAP2 SWAP1 PUSH2 0x29ED JUMP JUMPDEST SWAP1 POP DUP1 SWAP3 POP POP POP SWAP1 JUMP JUMPDEST PUSH1 0x40 MLOAD DUP1 PUSH2 0x120 ADD PUSH1 0x40 MSTORE DUP1 PUSH1 0x60 DUP2 MSTORE PUSH1 0x20 ADD PUSH1 0x60 DUP2 MSTORE PUSH1 0x20 ADD PUSH0 DUP2 MSTORE PUSH1 0x20 ADD PUSH0 DUP2 MSTORE PUSH1 0x20 ADD PUSH0 DUP2 MSTORE PUSH1 0x20 ADD PUSH0 DUP2 MSTORE PUSH1 0x20 ADD PUSH0 DUP2 MSTORE PUSH1 0x20 ADD PUSH0 DUP2 MSTORE PUSH1 0x20 ADD PUSH0 DUP2 MSTORE POP SWAP1 JUMP JUMPDEST PUSH0 PUSH1 0x40 MLOAD SWAP1 POP SWAP1 JUMP JUMPDEST PUSH0 DUP1 REVERT JUMPDEST PUSH0 DUP1 REVERT JUMPDEST PUSH0 PUSH20 0xFFFFFFFFFFFFFFFFFFFFFFFFFFFFFFFFFFFFFFFF DUP3 AND SWAP1 POP SWAP2 SWAP1 POP JUMP JUMPDEST PUSH0 PUSH2 0x2353 DUP3 PUSH2 0x232A JUMP JUMPDEST SWAP1 POP SWAP2 SWAP1 POP JUMP JUMPDEST PUSH2 0x2363 DUP2 PUSH2 0x2349 JUMP JUMPDEST DUP2 EQ PUSH2 0x236D JUMPI PUSH0 DUP1 REVERT JUMPDEST POP JUMP JUMPDEST PUSH0 DUP2 CALLDATALOAD SWAP1 POP PUSH2 0x237E DUP2 PUSH2 0x235A JUMP JUMPDEST SWAP3 SWAP2 POP POP JUMP JUMPDEST PUSH0 DUP2 SWAP1 POP SWAP2 SWAP1 POP JUMP JUMPDEST PUSH2 0x2396 DUP2 PUSH2 0x2384 JUMP JUMPDEST DUP2 EQ PUSH2 0x23A0 JUMPI PUSH0 DUP1 REVERT JUMPDEST POP JUMP JUMPDEST PUSH0 DUP2 CALLDATALOAD SWAP1 POP PUSH2 0x23B1 DUP2 PUSH2 0x238D JUMP JUMPDEST SWAP3 SWAP2 POP POP JUMP JUMPDEST PUSH0 DUP1 PUSH1 0x40 DUP4 DUP6 SUB SLT ISZERO PUSH2 0x23CD JUMPI PUSH2 0x23CC PUSH2 0x2322 JUMP JUMPDEST JUMPDEST PUSH0 PUSH2 0x23DA DUP6 DUP3 DUP7 ADD PUSH2 0x2370 JUMP JUMPDEST SWAP3 POP POP PUSH1 0x20 PUSH2 0x23EB DUP6 DUP3 DUP7 ADD PUSH2 0x23A3 JUMP JUMPDEST SWAP2 POP POP SWAP3 POP SWAP3 SWAP1 POP JUMP JUMPDEST PUSH0 DUP1 PUSH1 0x40 DUP4 DUP6 SUB SLT ISZERO PUSH2 0x240B JUMPI PUSH2 0x240A PUSH2 0x2322 JUMP JUMPDEST JUMPDEST PUSH0 PUSH2 0x2418 DUP6 DUP3 DUP7 ADD PUSH2 0x23A3 JUMP JUMPDEST SWAP3 POP POP PUSH1 0x20 PUSH2 0x2429 DUP6 DUP3 DUP7 ADD PUSH2 0x23A3 JUMP JUMPDEST SWAP2 POP POP SWAP3 POP SWAP3 SWAP1 POP JUMP JUMPDEST PUSH0 PUSH1 0x20 DUP3 DUP5 SUB SLT ISZERO PUSH2 0x2448 JUMPI PUSH2 0x2447 PUSH2 0x2322 JUMP JUMPDEST JUMPDEST PUSH0 PUSH2 0x2455 DUP5 DUP3 DUP6 ADD PUSH2 0x2370 JUMP JUMPDEST SWAP2 POP POP SWAP3 SWAP2 POP POP JUMP JUMPDEST PUSH0 DUP2 MLOAD SWAP1 POP SWAP2 SWAP1 POP JUMP JUMPDEST PUSH0 DUP3 DUP3 MSTORE PUSH1 0x20 DUP3 ADD SWAP1 POP SWAP3 SWAP2 POP POP JUMP JUMPDEST PUSH0 DUP2 SWAP1 POP PUSH1 0x20 DUP3 ADD SWAP1 POP SWAP2 SWAP1 POP JUMP JUMPDEST PUSH2 0x2490 DUP2 PUSH2 0x2384 JUMP JUMPDEST DUP3 MSTORE POP POP JUMP JUMPDEST PUSH0 PUSH2 0x24A1 DUP4 DUP4 PUSH2 0x2487 JUMP JUMPDEST PUSH1 0x20 DUP4 ADD SWAP1 POP SWAP3 SWAP2 POP POP JUMP JUMPDEST PUSH0 PUSH1 0x20 DUP3 ADD SWAP1 POP SWAP2 SWAP1 POP JUMP JUMPDEST PUSH0 PUSH2 0x24C3 DUP3 PUSH2 0x245E JUMP JUMPDEST PUSH2 0x24CD DUP2 DUP6 PUSH2 0x2468 JUMP JUMPDEST SWAP4 POP PUSH2 0x24D8 DUP4 PUSH2 0x2478 JUMP JUMPDEST DUP1 PUSH0 JUMPDEST DUP4 DUP2 LT ISZERO PUSH2 0x2508 JUMPI DUP2 MLOAD PUSH2 0x24EF DUP9 DUP3 PUSH2 0x2496 JUMP JUMPDEST SWAP8 POP PUSH2 0x24FA DUP4 PUSH2 0x24AD JUMP JUMPDEST SWAP3 POP POP PUSH1 0x1 DUP2 ADD SWAP1 POP PUSH2 0x24DB JUMP JUMPDEST POP DUP6 SWAP4 POP POP POP POP SWAP3 SWAP2 POP POP JUMP JUMPDEST PUSH0 PUSH1 0x20 DUP3 ADD SWAP1 POP DUP2 DUP2 SUB PUSH0 DUP4 ADD MSTORE PUSH2 0x252D DUP2 DUP5 PUSH2 0x24B9 JUMP JUMPDEST SWAP1 POP SWAP3 SWAP2 POP POP JUMP JUMPDEST PUSH0 PUSH1 0x20 DUP3 DUP5 SUB SLT ISZERO PUSH2 0x254A JUMPI PUSH2 0x2549 PUSH2 0x2322 JUMP JUMPDEST JUMPDEST PUSH0 PUSH2 0x2557 DUP5 DUP3 DUP6 ADD PUSH2 0x23A3 JUMP JUMPDEST SWAP2 POP POP SWAP3 SWAP2 POP POP JUMP JUMPDEST PUSH2 0x2569 DUP2 PUSH2 0x2384 JUMP JUMPDEST DUP3 MSTORE POP POP JUMP JUMPDEST PUSH0 PUSH1 0x20 DUP3 ADD SWAP1 POP PUSH2 0x2582 PUSH0 DUP4 ADD DUP5 PUSH2 0x2560 JUMP JUMPDEST SWAP3 SWAP2 POP POP JUMP JUMPDEST PUSH0 DUP1 PUSH0 PUSH1 0x60 DUP5 DUP7 SUB SLT ISZERO PUSH2 0x259F JUMPI PUSH2 0x259E PUSH2 0x2322 JUMP JUMPDEST JUMPDEST PUSH0 PUSH2 0x25AC DUP7 DUP3 DUP8 ADD PUSH2 0x2370 JUMP JUMPDEST SWAP4 POP POP PUSH1 0x20 PUSH2 0x25BD DUP7 DUP3 DUP8 ADD PUSH2 0x2370 JUMP JUMPDEST SWAP3 POP POP PUSH1 0x40 PUSH2 0x25CE DUP7 DUP3 DUP8 ADD PUSH2 0x23A3 JUMP JUMPDEST SWAP2 POP POP SWAP3 POP SWAP3 POP SWAP3 JUMP JUMPDEST PUSH0 DUP2 ISZERO ISZERO SWAP1 POP SWAP2 SWAP1 POP JUMP JUMPDEST PUSH2 0x25EC DUP2 PUSH2 0x25D8 JUMP JUMPDEST DUP3 MSTORE POP POP JUMP JUMPDEST PUSH0 PUSH1 0x20 DUP3 ADD SWAP1 POP PUSH2 0x2605 PUSH0 DUP4 ADD DUP5 PUSH2 0x25E3 JUMP JUMPDEST SWAP3 SWAP2 POP POP JUMP JUMPDEST PUSH0 DUP2 MLOAD SWAP1 POP SWAP2 SWAP1 POP JUMP JUMPDEST PUSH0 DUP3 DUP3 MSTORE PUSH1 0x20 DUP3 ADD SWAP1 POP SWAP3 SWAP2 POP POP JUMP JUMPDEST PUSH0 JUMPDEST DUP4 DUP2 LT ISZERO PUSH2 0x2642 JUMPI DUP1 DUP3 ADD MLOAD DUP2 DUP5 ADD MSTORE PUSH1 0x20 DUP2 ADD SWAP1 POP PUSH2 0x2627 JUMP JUMPDEST PUSH0 DUP5 DUP5 ADD MSTORE POP POP POP POP JUMP JUMPDEST PUSH0 PUSH1 0x1F NOT PUSH1 0x1F DUP4 ADD AND SWAP1 POP SWAP2 SWAP1 POP JUMP JUMPDEST PUSH0 PUSH2 0x2667 DUP3 PUSH2 0x260B JUMP JUMPDEST PUSH2 0x2671 DUP2 DUP6 PUSH2 0x2615 JUMP JUMPDEST SWAP4 POP PUSH2 0x2681 DUP2 DUP6 PUSH1 0x20 DUP7 ADD PUSH2 0x2625 JUMP JUMPDEST PUSH2 0x268A DUP2 PUSH2 0x264D JUMP JUMPDEST DUP5 ADD SWAP2 POP POP SWAP3 SWAP2 POP POP JUMP JUMPDEST PUSH0 PUSH2 0x120 DUP4 ADD PUSH0 DUP4 ADD MLOAD DUP5 DUP3 SUB PUSH0 DUP7 ADD MSTORE PUSH2 0x26B0 DUP3 DUP3 PUSH2 0x265D JUMP JUMPDEST SWAP2 POP POP PUSH1 0x20 DUP4 ADD MLOAD DUP5 DUP3 SUB PUSH1 0x20 DUP7 ADD MSTORE PUSH2 0x26CA DUP3 DUP3 PUSH2 0x265D JUMP JUMPDEST SWAP2 POP POP PUSH1 0x40 DUP4 ADD MLOAD PUSH2 0x26DF PUSH1 0x40 DUP7 ADD DUP3 PUSH2 0x2487 JUMP JUMPDEST POP PUSH1 0x60 DUP4 ADD MLOAD PUSH2 0x26F2 PUSH1 0x60 DUP7 ADD DUP3 PUSH2 0x2487 JUMP JUMPDEST POP PUSH1 0x80 DUP4 ADD MLOAD PUSH2 0x2705 PUSH1 0x80 DUP7 ADD DUP3 PUSH2 0x2487 JUMP JUMPDEST POP PUSH1 0xA0 DUP4 ADD MLOAD PUSH2 0x2718 PUSH1 0xA0 DUP7 ADD DUP3 PUSH2 0x2487 JUMP JUMPDEST POP PUSH1 0xC0 DUP4 ADD MLOAD PUSH2 0x272B PUSH1 0xC0 DUP7 ADD DUP3 PUSH2 0x2487 JUMP JUMPDEST POP PUSH1 0xE0 DUP4 ADD MLOAD PUSH2 0x273E PUSH1 0xE0 DUP7 ADD DUP3 PUSH2 0x2487 JUMP JUMPDEST POP PUSH2 0x100 DUP4 ADD MLOAD PUSH2 0x2753 PUSH2 0x100 DUP7 ADD DUP3 PUSH2 0x2487 JUMP JUMPDEST POP DUP1 SWAP2 POP POP SWAP3 SWAP2 POP POP JUMP JUMPDEST PUSH0 PUSH1 0x20 DUP3 ADD SWAP1 POP DUP2 DUP2 SUB PUSH0 DUP4 ADD MSTORE PUSH2 0x2776 DUP2 DUP5 PUSH2 0x2695 JUMP JUMPDEST SWAP1 POP SWAP3 SWAP2 POP POP JUMP JUMPDEST PUSH2 0x2787 DUP2 PUSH2 0x2349 JUMP JUMPDEST DUP3 MSTORE POP POP JUMP JUMPDEST PUSH0 PUSH1 0x20 DUP3 ADD SWAP1 POP PUSH2 0x27A0 PUSH0 DUP4 ADD DUP5 PUSH2 0x277E JUMP JUMPDEST SWAP3 SWAP2 POP POP JUMP JUMPDEST PUSH0 DUP1 REVERT JUMPDEST PUSH0 DUP1 REVERT JUMPDEST PUSH32 0x4E487B7100000000000000000000000000000000000000000000000000000000 PUSH0 MSTORE PUSH1 0x41 PUSH1 0x4 MSTORE PUSH1 0x24 PUSH0 REVERT JUMPDEST PUSH2 0x27E4 DUP3 PUSH2 0x264D JUMP JUMPDEST DUP2 ADD DUP2 DUP2 LT PUSH8 0xFFFFFFFFFFFFFFFF DUP3 GT OR ISZERO PUSH2 0x2803 JUMPI PUSH2 0x2802 PUSH2 0x27AE JUMP JUMPDEST JUMPDEST DUP1 PUSH1 0x40 MSTORE POP POP POP JUMP JUMPDEST PUSH0 PUSH2 0x2815 PUSH2 0x2319 JUMP JUMPDEST SWAP1 POP PUSH2 0x2821 DUP3 DUP3 PUSH2 0x27DB JUMP JUMPDEST SWAP2 SWAP1 POP JUMP JUMPDEST PUSH0 PUSH8 0xFFFFFFFFFFFFFFFF DUP3 GT ISZERO PUSH2 0x2840 JUMPI PUSH2 0x283F PUSH2 0x27AE JUMP JUMPDEST JUMPDEST PUSH2 0x2849 DUP3 PUSH2 0x264D JUMP JUMPDEST SWAP1 POP PUSH1 0x20 DUP2 ADD SWAP1 POP SWAP2 SWAP1 POP JUMP JUMPDEST DUP3 DUP2 DUP4 CALLDATACOPY PUSH0 DUP4 DUP4 ADD MSTORE POP POP POP JUMP JUMPDEST PUSH0 PUSH2 0x2876 PUSH2 0x2871 DUP5 PUSH2 0x2826 JUMP JUMPDEST PUSH2 0x280C JUMP JUMPDEST SWAP1 POP DUP3 DUP2 MSTORE PUSH1 0x20 DUP2 ADD DUP5 DUP5 DUP5 ADD GT ISZERO PUSH2 0x2892 JUMPI PUSH2 0x2891 PUSH2 0x27AA JUMP JUMPDEST JUMPDEST PUSH2 0x289D DUP5 DUP3 DUP6 PUSH2 0x2856 JUMP JUMPDEST POP SWAP4 SWAP3 POP POP POP JUMP JUMPDEST PUSH0 DUP3 PUSH1 0x1F DUP4 ADD SLT PUSH2 0x28B9 JUMPI PUSH2 0x28B8 PUSH2 0x27A6 JUMP JUMPDEST JUMPDEST DUP2 CALLDATALOAD PUSH2 0x28C9 DUP5 DUP3 PUSH1 0x20 DUP7 ADD PUSH2 0x2864 JUMP JUMPDEST SWAP2 POP POP SWAP3 SWAP2 POP POP JUMP JUMPDEST PUSH0 DUP1 PUSH1 0x40 DUP4 DUP6 SUB SLT ISZERO PUSH2 0x28E8 JUMPI PUSH2 0x28E7 PUSH2 0x2322 JUMP JUMPDEST JUMPDEST PUSH0 DUP4 ADD CALLDATALOAD PUSH8 0xFFFFFFFFFFFFFFFF DUP2 GT ISZERO PUSH2 0x2905 JUMPI PUSH2 0x2904 PUSH2 0x2326 JUMP JUMPDEST JUMPDEST PUSH2 0x2911 DUP6 DUP3 DUP7 ADD PUSH2 0x28A5 JUMP JUMPDEST SWAP3 POP POP PUSH1 0x20 DUP4 ADD CALLDATALOAD PUSH8 0xFFFFFFFFFFFFFFFF DUP2 GT ISZERO PUSH2 0x2932 JUMPI PUSH2 0x2931 PUSH2 0x2326 JUMP JUMPDEST JUMPDEST PUSH2 0x293E DUP6 DUP3 DUP7 ADD PUSH2 0x28A5 JUMP JUMPDEST SWAP2 POP POP SWAP3 POP SWAP3 SWAP1 POP JUMP JUMPDEST PUSH0 DUP3 DUP3 MSTORE PUSH1 0x20 DUP3 ADD SWAP1 POP SWAP3 SWAP2 POP POP JUMP JUMPDEST PUSH32 0x4F6E6C79204F776E65722E000000000000000000000000000000000000000000 PUSH0 DUP3 ADD MSTORE POP JUMP JUMPDEST PUSH0 PUSH2 0x298C PUSH1 0xB DUP4 PUSH2 0x2948 JUMP JUMPDEST SWAP2 POP PUSH2 0x2997 DUP3 PUSH2 0x2958 JUMP JUMPDEST PUSH1 0x20 DUP3 ADD SWAP1 POP SWAP2 SWAP1 POP JUMP JUMPDEST PUSH0 PUSH1 0x20 DUP3 ADD SWAP1 POP DUP2 DUP2 SUB PUSH0 DUP4 ADD MSTORE PUSH2 0x29B9 DUP2 PUSH2 0x2980 JUMP JUMPDEST SWAP1 POP SWAP2 SWAP1 POP JUMP JUMPDEST PUSH32 0x4E487B7100000000000000000000000000000000000000000000000000000000 PUSH0 MSTORE PUSH1 0x12 PUSH1 0x4 MSTORE PUSH1 0x24 PUSH0 REVERT JUMPDEST PUSH0 PUSH2 0x29F7 DUP3 PUSH2 0x2384 JUMP JUMPDEST SWAP2 POP PUSH2 0x2A02 DUP4 PUSH2 0x2384 JUMP JUMPDEST SWAP3 POP DUP3 PUSH2 0x2A12 JUMPI PUSH2 0x2A11 PUSH2 0x29C0 JUMP JUMPDEST JUMPDEST DUP3 DUP3 MOD SWAP1 POP SWAP3 SWAP2 POP POP JUMP JUMPDEST PUSH32 0x4E487B7100000000000000000000000000000000000000000000000000000000 PUSH0 MSTORE PUSH1 0x11 PUSH1 0x4 MSTORE PUSH1 0x24 PUSH0 REVERT JUMPDEST PUSH0 PUSH2 0x2A54 DUP3 PUSH2 0x2384 JUMP JUMPDEST SWAP2 POP PUSH2 0x2A5F DUP4 PUSH2 0x2384 JUMP JUMPDEST SWAP3 POP DUP3 DUP3 ADD SWAP1 POP DUP1 DUP3 GT ISZERO PUSH2 0x2A77 JUMPI PUSH2 0x2A76 PUSH2 0x2A1D JUMP JUMPDEST JUMPDEST SWAP3 SWAP2 POP POP JUMP JUMPDEST PUSH32 0x4E487B7100000000000000000000000000000000000000000000000000000000 PUSH0 MSTORE PUSH1 0x32 PUSH1 0x4 MSTORE PUSH1 0x24 PUSH0 REVERT JUMPDEST PUSH0 PUSH2 0x2AB4 DUP3 PUSH2 0x2384 JUMP JUMPDEST SWAP2 POP PUSH32 0xFFFFFFFFFFFFFFFFFFFFFFFFFFFFFFFFFFFFFFFFFFFFFFFFFFFFFFFFFFFFFFFF DUP3 SUB PUSH2 0x2AE6 JUMPI PUSH2 0x2AE5 PUSH2 0x2A1D JUMP JUMPDEST JUMPDEST PUSH1 0x1 DUP3 ADD SWAP1 POP SWAP2 SWAP1 POP JUMP JUMPDEST PUSH32 0x4E6F77206964206973206E6F74206F6E2072656E742E00000000000000000000 PUSH0 DUP3 ADD MSTORE POP JUMP JUMPDEST PUSH0 PUSH2 0x2B25 PUSH1 0x16 DUP4 PUSH2 0x2948 JUMP JUMPDEST SWAP2 POP PUSH2 0x2B30 DUP3 PUSH2 0x2AF1 JUMP JUMPDEST PUSH1 0x20 DUP3 ADD SWAP1 POP SWAP2 SWAP1 POP JUMP JUMPDEST PUSH0 PUSH1 0x20 DUP3 ADD SWAP1 POP DUP2 DUP2 SUB PUSH0 DUP4 ADD MSTORE PUSH2 0x2B52 DUP2 PUSH2 0x2B19 JUMP JUMPDEST SWAP1 POP SWAP2 SWAP1 POP JUMP JUMPDEST PUSH32 0x596F7520646F6E742068617665206E66742E0000000000000000000000000000 PUSH0 DUP3 ADD MSTORE POP JUMP JUMPDEST PUSH0 PUSH2 0x2B8D PUSH1 0x12 DUP4 PUSH2 0x2948 JUMP JUMPDEST SWAP2 POP PUSH2 0x2B98 DUP3 PUSH2 0x2B59 JUMP JUMPDEST PUSH1 0x20 DUP3 ADD SWAP1 POP SWAP2 SWAP1 POP JUMP JUMPDEST PUSH0 PUSH1 0x20 DUP3 ADD SWAP1 POP DUP2 DUP2 SUB PUSH0 DUP4 ADD MSTORE PUSH2 0x2BBA DUP2 PUSH2 0x2B81 JUMP JUMPDEST SWAP1 POP SWAP2 SWAP1 POP JUMP JUMPDEST PUSH32 0x4E487B7100000000000000000000000000000000000000000000000000000000 PUSH0 MSTORE PUSH1 0x22 PUSH1 0x4 MSTORE PUSH1 0x24 PUSH0 REVERT JUMPDEST PUSH0 PUSH1 0x2 DUP3 DIV SWAP1 POP PUSH1 0x1 DUP3 AND DUP1 PUSH2 0x2C05 JUMPI PUSH1 0x7F DUP3 AND SWAP2 POP JUMPDEST PUSH1 0x20 DUP3 LT DUP2 SUB PUSH2 0x2C18 JUMPI PUSH2 0x2C17 PUSH2 0x2BC1 JUMP JUMPDEST JUMPDEST POP SWAP2 SWAP1 POP JUMP JUMPDEST PUSH0 DUP2 SWAP1 POP SWAP3 SWAP2 POP POP JUMP JUMPDEST PUSH0 DUP2 SWAP1 POP DUP2 PUSH0 MSTORE PUSH1 0x20 PUSH0 KECCAK256 SWAP1 POP SWAP2 SWAP1 POP JUMP JUMPDEST PUSH0 DUP2 SLOAD PUSH2 0x2C46 DUP2 PUSH2 0x2BEE JUMP JUMPDEST PUSH2 0x2C50 DUP2 DUP7 PUSH2 0x2C1E JUMP JUMPDEST SWAP5 POP PUSH1 0x1 DUP3 AND PUSH0 DUP2 EQ PUSH2 0x2C6A JUMPI PUSH1 0x1 DUP2 EQ PUSH2 0x2C7F JUMPI PUSH2 0x2CB1 JUMP JUMPDEST PUSH1 0xFF NOT DUP4 AND DUP7 MSTORE DUP2 ISZERO ISZERO DUP3 MUL DUP7 ADD SWAP4 POP PUSH2 0x2CB1 JUMP JUMPDEST PUSH2 0x2C88 DUP6 PUSH2 0x2C28 JUMP JUMPDEST PUSH0 JUMPDEST DUP4 DUP2 LT ISZERO PUSH2 0x2CA9 JUMPI DUP2 SLOAD DUP2 DUP10 ADD MSTORE PUSH1 0x1 DUP3 ADD SWAP2 POP PUSH1 0x20 DUP2 ADD SWAP1 POP PUSH2 0x2C8A JUMP JUMPDEST DUP4 DUP9 ADD SWAP6 POP POP POP JUMPDEST POP POP POP SWAP3 SWAP2 POP POP JUMP JUMPDEST PUSH0 PUSH2 0x2CC5 DUP3 DUP5 PUSH2 0x2C3A JUMP JUMPDEST SWAP2 POP DUP2 SWAP1 POP SWAP3 SWAP2 POP POP JUMP JUMPDEST PUSH32 0x66726565206E66742063616E2073656C6C2E0000000000000000000000000000 PUSH0 DUP3 ADD MSTORE POP JUMP JUMPDEST PUSH0 PUSH2 0x2D04 PUSH1 0x12 DUP4 PUSH2 0x2948 JUMP JUMPDEST SWAP2 POP PUSH2 0x2D0F DUP3 PUSH2 0x2CD0 JUMP JUMPDEST PUSH1 0x20 DUP3 ADD SWAP1 POP SWAP2 SWAP1 POP JUMP JUMPDEST PUSH0 PUSH1 0x20 DUP3 ADD SWAP1 POP DUP2 DUP2 SUB PUSH0 DUP4 ADD MSTORE PUSH2 0x2D31 DUP2 PUSH2 0x2CF8 JUMP JUMPDEST SWAP1 POP SWAP2 SWAP1 POP JUMP JUMPDEST PUSH32 0x54686973206E6674206F6E2072656E742E000000000000000000000000000000 PUSH0 DUP3 ADD MSTORE POP JUMP JUMPDEST PUSH0 PUSH2 0x2D6C PUSH1 0x11 DUP4 PUSH2 0x2948 JUMP JUMPDEST SWAP2 POP PUSH2 0x2D77 DUP3 PUSH2 0x2D38 JUMP JUMPDEST PUSH1 0x20 DUP3 ADD SWAP1 POP SWAP2 SWAP1 POP JUMP JUMPDEST PUSH0 PUSH1 0x20 DUP3 ADD SWAP1 POP DUP2 DUP2 SUB PUSH0 DUP4 ADD MSTORE PUSH2 0x2D99 DUP2 PUSH2 0x2D60 JUMP JUMPDEST SWAP1 POP SWAP2 SWAP1 POP JUMP JUMPDEST PUSH32 0x596F7520646F6E742068617665204E66742E0000000000000000000000000000 PUSH0 DUP3 ADD MSTORE POP JUMP JUMPDEST PUSH0 PUSH2 0x2DD4 PUSH1 0x12 DUP4 PUSH2 0x2948 JUMP JUMPDEST SWAP2 POP PUSH2 0x2DDF DUP3 PUSH2 0x2DA0 JUMP JUMPDEST PUSH1 0x20 DUP3 ADD SWAP1 POP SWAP2 SWAP1 POP JUMP JUMPDEST PUSH0 PUSH1 0x20 DUP3 ADD SWAP1 POP DUP2 DUP2 SUB PUSH0 DUP4 ADD MSTORE PUSH2 0x2E01 DUP2 PUSH2 0x2DC8 JUMP JUMPDEST SWAP1 POP SWAP2 SWAP1 POP JUMP JUMPDEST PUSH0 PUSH2 0x2E12 DUP3 PUSH2 0x2384 JUMP JUMPDEST SWAP2 POP PUSH0 DUP3 SUB PUSH2 0x2E24 JUMPI PUSH2 0x2E23 PUSH2 0x2A1D JUMP JUMPDEST JUMPDEST PUSH1 0x1 DUP3 SUB SWAP1 POP SWAP2 SWAP1 POP JUMP JUMPDEST PUSH32 0x416C726561647920686176652031206E66742E00000000000000000000000000 PUSH0 DUP3 ADD MSTORE POP JUMP JUMPDEST PUSH0 PUSH2 0x2E63 PUSH1 0x13 DUP4 PUSH2 0x2948 JUMP JUMPDEST SWAP2 POP PUSH2 0x2E6E DUP3 PUSH2 0x2E2F JUMP JUMPDEST PUSH1 0x20 DUP3 ADD SWAP1 POP SWAP2 SWAP1 POP JUMP JUMPDEST PUSH0 PUSH1 0x20 DUP3 ADD SWAP1 POP DUP2 DUP2 SUB PUSH0 DUP4 ADD MSTORE PUSH2 0x2E90 DUP2 PUSH2 0x2E57 JUMP JUMPDEST SWAP1 POP SWAP2 SWAP1 POP JUMP JUMPDEST PUSH32 0x766C7565206D75737420626520312065746865722E0000000000000000000000 PUSH0 DUP3 ADD MSTORE POP JUMP JUMPDEST PUSH0 PUSH2 0x2ECB PUSH1 0x15 DUP4 PUSH2 0x2948 JUMP JUMPDEST SWAP2 POP PUSH2 0x2ED6 DUP3 PUSH2 0x2E97 JUMP JUMPDEST PUSH1 0x20 DUP3 ADD SWAP1 POP SWAP2 SWAP1 POP JUMP JUMPDEST PUSH0 PUSH1 0x20 DUP3 ADD SWAP1 POP DUP2 DUP2 SUB PUSH0 DUP4 ADD MSTORE PUSH2 0x2EF8 DUP2 PUSH2 0x2EBF JUMP JUMPDEST SWAP1 POP SWAP2 SWAP1 POP JUMP JUMPDEST PUSH32 0x436F7272656374205370656C6C696E6700000000000000000000000000000000 PUSH0 DUP3 ADD MSTORE POP JUMP JUMPDEST PUSH0 PUSH2 0x2F33 PUSH1 0x10 DUP4 PUSH2 0x2948 JUMP JUMPDEST SWAP2 POP PUSH2 0x2F3E DUP3 PUSH2 0x2EFF JUMP JUMPDEST PUSH1 0x20 DUP3 ADD SWAP1 POP SWAP2 SWAP1 POP JUMP JUMPDEST PUSH0 PUSH1 0x20 DUP3 ADD SWAP1 POP DUP2 DUP2 SUB PUSH0 DUP4 ADD MSTORE PUSH2 0x2F60 DUP2 PUSH2 0x2F27 JUMP JUMPDEST SWAP1 POP SWAP2 SWAP1 POP JUMP JUMPDEST PUSH32 0x796F75206E656564206D6F726520787000000000000000000000000000000000 PUSH0 DUP3 ADD MSTORE POP JUMP JUMPDEST PUSH0 PUSH2 0x2F9B PUSH1 0x10 DUP4 PUSH2 0x2948 JUMP JUMPDEST SWAP2 POP PUSH2 0x2FA6 DUP3 PUSH2 0x2F67 JUMP JUMPDEST PUSH1 0x20 DUP3 ADD SWAP1 POP SWAP2 SWAP1 POP JUMP JUMPDEST PUSH0 PUSH1 0x20 DUP3 ADD SWAP1 POP DUP2 DUP2 SUB PUSH0 DUP4 ADD MSTORE PUSH2 0x2FC8 DUP2 PUSH2 0x2F8F JUMP JUMPDEST SWAP1 POP SWAP2 SWAP1 POP JUMP JUMPDEST PUSH0 PUSH2 0x2FD9 DUP3 PUSH2 0x2384 JUMP JUMPDEST SWAP2 POP PUSH2 0x2FE4 DUP4 PUSH2 0x2384 JUMP JUMPDEST SWAP3 POP DUP3 DUP3 SUB SWAP1 POP DUP2 DUP2 GT ISZERO PUSH2 0x2FFC JUMPI PUSH2 0x2FFB PUSH2 0x2A1D JUMP JUMPDEST JUMPDEST SWAP3 SWAP2 POP POP JUMP JUMPDEST PUSH32 0x616D6F756E74206E6F74206D617463682065746865722072657175697265642E PUSH0 DUP3 ADD MSTORE POP JUMP JUMPDEST PUSH0 PUSH2 0x3036 PUSH1 0x20 DUP4 PUSH2 0x2948 JUMP JUMPDEST SWAP2 POP PUSH2 0x3041 DUP3 PUSH2 0x3002 JUMP JUMPDEST PUSH1 0x20 DUP3 ADD SWAP1 POP SWAP2 SWAP1 POP JUMP JUMPDEST PUSH0 PUSH1 0x20 DUP3 ADD SWAP1 POP DUP2 DUP2 SUB PUSH0 DUP4 ADD MSTORE PUSH2 0x3063 DUP2 PUSH2 0x302A JUMP JUMPDEST SWAP1 POP SWAP2 SWAP1 POP JUMP JUMPDEST PUSH32 0x616C72656164792074616B656E204E66742E0000000000000000000000000000 PUSH0 DUP3 ADD MSTORE POP JUMP JUMPDEST PUSH0 PUSH2 0x309E PUSH1 0x12 DUP4 PUSH2 0x2948 JUMP JUMPDEST SWAP2 POP PUSH2 0x30A9 DUP3 PUSH2 0x306A JUMP JUMPDEST PUSH1 0x20 DUP3 ADD SWAP1 POP SWAP2 SWAP1 POP JUMP JUMPDEST PUSH0 PUSH1 0x20 DUP3 ADD SWAP1 POP DUP2 DUP2 SUB PUSH0 DUP4 ADD MSTORE PUSH2 0x30CB DUP2 PUSH2 0x3092 JUMP JUMPDEST SWAP1 POP SWAP2 SWAP1 POP JUMP JUMPDEST PUSH32 0x6F776E65722063616E742074616B6520686973206F776E2069642E0000000000 PUSH0 DUP3 ADD MSTORE POP JUMP JUMPDEST PUSH0 PUSH2 0x3106 PUSH1 0x1B DUP4 PUSH2 0x2948 JUMP JUMPDEST SWAP2 POP PUSH2 0x3111 DUP3 PUSH2 0x30D2 JUMP JUMPDEST PUSH1 0x20 DUP3 ADD SWAP1 POP SWAP2 SWAP1 POP JUMP JUMPDEST PUSH0 PUSH1 0x20 DUP3 ADD SWAP1 POP DUP2 DUP2 SUB PUSH0 DUP4 ADD MSTORE PUSH2 0x3133 DUP2 PUSH2 0x30FA JUMP JUMPDEST SWAP1 POP SWAP2 SWAP1 POP JUMP JUMPDEST PUSH32 0x6E6674206E6F74206C69737465642E0000000000000000000000000000000000 PUSH0 DUP3 ADD MSTORE POP JUMP JUMPDEST PUSH0 PUSH2 0x316E PUSH1 0xF DUP4 PUSH2 0x2948 JUMP JUMPDEST SWAP2 POP PUSH2 0x3179 DUP3 PUSH2 0x313A JUMP JUMPDEST PUSH1 0x20 DUP3 ADD SWAP1 POP SWAP2 SWAP1 POP JUMP JUMPDEST PUSH0 PUSH1 0x20 DUP3 ADD SWAP1 POP DUP2 DUP2 SUB PUSH0 DUP4 ADD MSTORE PUSH2 0x319B DUP2 PUSH2 0x3162 JUMP JUMPDEST SWAP1 POP SWAP2 SWAP1 POP JUMP JUMPDEST PUSH32 0x436F6D6520616674657220323420686F7572732E000000000000000000000000 PUSH0 DUP3 ADD MSTORE POP JUMP JUMPDEST PUSH0 PUSH2 0x31D6 PUSH1 0x14 DUP4 PUSH2 0x2948 JUMP JUMPDEST SWAP2 POP PUSH2 0x31E1 DUP3 PUSH2 0x31A2 JUMP JUMPDEST PUSH1 0x20 DUP3 ADD SWAP1 POP SWAP2 SWAP1 POP JUMP JUMPDEST PUSH0 PUSH1 0x20 DUP3 ADD SWAP1 POP DUP2 DUP2 SUB PUSH0 DUP4 ADD MSTORE PUSH2 0x3203 DUP2 PUSH2 0x31CA JUMP JUMPDEST SWAP1 POP SWAP2 SWAP1 POP JUMP JUMPDEST PUSH32 0x416761696E205472790000000000000000000000000000000000000000000000 PUSH0 DUP3 ADD MSTORE POP JUMP JUMPDEST PUSH0 PUSH2 0x323E PUSH1 0x9 DUP4 PUSH2 0x2948 JUMP JUMPDEST SWAP2 POP PUSH2 0x3249 DUP3 PUSH2 0x320A JUMP JUMPDEST PUSH1 0x20 DUP3 ADD SWAP1 POP SWAP2 SWAP1 POP JUMP JUMPDEST PUSH0 PUSH1 0x20 DUP3 ADD SWAP1 POP DUP2 DUP2 SUB PUSH0 DUP4 ADD MSTORE PUSH2 0x326B DUP2 PUSH2 0x3232 JUMP JUMPDEST SWAP1 POP SWAP2 SWAP1 POP JUMP JUMPDEST PUSH0 DUP2 SWAP1 POP SWAP3 SWAP2 POP POP JUMP JUMPDEST PUSH0 PUSH2 0x3286 DUP3 PUSH2 0x260B JUMP JUMPDEST PUSH2 0x3290 DUP2 DUP6 PUSH2 0x3272 JUMP JUMPDEST SWAP4 POP PUSH2 0x32A0 DUP2 DUP6 PUSH1 0x20 DUP7 ADD PUSH2 0x2625 JUMP JUMPDEST DUP1 DUP5 ADD SWAP2 POP POP SWAP3 SWAP2 POP POP JUMP JUMPDEST PUSH0 PUSH2 0x32B7 DUP3 DUP5 PUSH2 0x327C JUMP JUMPDEST SWAP2 POP DUP2 SWAP1 POP SWAP3 SWAP2 POP POP JUMP JUMPDEST PUSH0 DUP2 SWAP1 POP DUP2 PUSH0 MSTORE PUSH1 0x20 PUSH0 KECCAK256 SWAP1 POP SWAP2 SWAP1 POP JUMP JUMPDEST PUSH0 PUSH1 0x20 PUSH1 0x1F DUP4 ADD DIV SWAP1 POP SWAP2 SWAP1 POP JUMP JUMPDEST PUSH0 DUP3 DUP3 SHL SWAP1 POP SWAP3 SWAP2 POP POP JUMP JUMPDEST PUSH0 PUSH1 0x8 DUP4 MUL PUSH2 0x331E PUSH32 0xFFFFFFFFFFFFFFFFFFFFFFFFFFFFFFFFFFFFFFFFFFFFFFFFFFFFFFFFFFFFFFFF DUP3 PUSH2 0x32E3 JUMP JUMPDEST PUSH2 0x3328 DUP7 DUP4 PUSH2 0x32E3 JUMP JUMPDEST SWAP6 POP DUP1 NOT DUP5 AND SWAP4 POP DUP1 DUP7 AND DUP5 OR SWAP3 POP POP POP SWAP4 SWAP3 POP POP POP JUMP JUMPDEST PUSH0 DUP2 SWAP1 POP SWAP2 SWAP1 POP JUMP JUMPDEST PUSH0 PUSH2 0x3363 PUSH2 0x335E PUSH2 0x3359 DUP5 PUSH2 0x2384 JUMP JUMPDEST PUSH2 0x3340 JUMP JUMPDEST PUSH2 0x2384 JUMP JUMPDEST SWAP1 POP SWAP2 SWAP1 POP JUMP JUMPDEST PUSH0 DUP2 SWAP1 POP SWAP2 SWAP1 POP JUMP JUMPDEST PUSH2 0x337C DUP4 PUSH2 0x3349 JUMP JUMPDEST PUSH2 0x3390 PUSH2 0x3388 DUP3 PUSH2 0x336A JUMP JUMPDEST DUP5 DUP5 SLOAD PUSH2 0x32EF JUMP JUMPDEST DUP3 SSTORE POP POP POP POP JUMP JUMPDEST PUSH0 SWAP1 JUMP JUMPDEST PUSH2 0x33A4 PUSH2 0x3398 JUMP JUMPDEST PUSH2 0x33AF DUP2 DUP5 DUP5 PUSH2 0x3373 JUMP JUMPDEST POP POP POP JUMP JUMPDEST JUMPDEST DUP2 DUP2 LT ISZERO PUSH2 0x33D2 JUMPI PUSH2 0x33C7 PUSH0 DUP3 PUSH2 0x339C JUMP JUMPDEST PUSH1 0x1 DUP2 ADD SWAP1 POP PUSH2 0x33B5 JUMP JUMPDEST POP POP JUMP JUMPDEST PUSH1 0x1F DUP3 GT ISZERO PUSH2 0x3417 JUMPI PUSH2 0x33E8 DUP2 PUSH2 0x32C2 JUMP JUMPDEST PUSH2 0x33F1 DUP5 PUSH2 0x32D4 JUMP JUMPDEST DUP2 ADD PUSH1 0x20 DUP6 LT ISZERO PUSH2 0x3400 JUMPI DUP2 SWAP1 POP JUMPDEST PUSH2 0x3414 PUSH2 0x340C DUP6 PUSH2 0x32D4 JUMP JUMPDEST DUP4 ADD DUP3 PUSH2 0x33B4 JUMP JUMPDEST POP POP JUMPDEST POP POP POP JUMP JUMPDEST PUSH0 DUP3 DUP3 SHR SWAP1 POP SWAP3 SWAP2 POP POP JUMP JUMPDEST PUSH0 PUSH2 0x3437 PUSH0 NOT DUP5 PUSH1 0x8 MUL PUSH2 0x341C JUMP JUMPDEST NOT DUP1 DUP4 AND SWAP2 POP POP SWAP3 SWAP2 POP POP JUMP JUMPDEST PUSH0 PUSH2 0x344F DUP4 DUP4 PUSH2 0x3428 JUMP JUMPDEST SWAP2 POP DUP3 PUSH1 0x2 MUL DUP3 OR SWAP1 POP SWAP3 SWAP2 POP POP JUMP JUMPDEST PUSH2 0x3468 DUP3 PUSH2 0x260B JUMP JUMPDEST PUSH8 0xFFFFFFFFFFFFFFFF DUP2 GT ISZERO PUSH2 0x3481 JUMPI PUSH2 0x3480 PUSH2 0x27AE JUMP JUMPDEST JUMPDEST PUSH2 0x348B DUP3 SLOAD PUSH2 0x2BEE JUMP JUMPDEST PUSH2 0x3496 DUP3 DUP3 DUP6 PUSH2 0x33D6 JUMP JUMPDEST PUSH0 PUSH1 0x20 SWAP1 POP PUSH1 0x1F DUP4 GT PUSH1 0x1 DUP2 EQ PUSH2 0x34C7 JUMPI PUSH0 DUP5 ISZERO PUSH2 0x34B5 JUMPI DUP3 DUP8 ADD MLOAD SWAP1 POP JUMPDEST PUSH2 0x34BF DUP6 DUP3 PUSH2 0x3444 JUMP JUMPDEST DUP7 SSTORE POP PUSH2 0x3526 JUMP JUMPDEST PUSH1 0x1F NOT DUP5 AND PUSH2 0x34D5 DUP7 PUSH2 0x32C2 JUMP JUMPDEST PUSH0 JUMPDEST DUP3 DUP2 LT ISZERO PUSH2 0x34FC JUMPI DUP5 DUP10 ADD MLOAD DUP3 SSTORE PUSH1 0x1 DUP3 ADD SWAP2 POP PUSH1 0x20 DUP6 ADD SWAP5 POP PUSH1 0x20 DUP2 ADD SWAP1 POP PUSH2 0x34D7 JUMP JUMPDEST DUP7 DUP4 LT ISZERO PUSH2 0x3519 JUMPI DUP5 DUP10 ADD MLOAD PUSH2 0x3515 PUSH1 0x1F DUP10 AND DUP3 PUSH2 0x3428 JUMP JUMPDEST DUP4 SSTORE POP JUMPDEST PUSH1 0x1 PUSH1 0x2 DUP9 MUL ADD DUP9 SSTORE POP POP POP JUMPDEST POP POP POP POP POP POP JUMP JUMPDEST PUSH0 DUP2 SWAP1 POP SWAP2 SWAP1 POP JUMP JUMPDEST PUSH2 0x3548 PUSH2 0x3543 DUP3 PUSH2 0x2384 JUMP JUMPDEST PUSH2 0x352E JUMP JUMPDEST DUP3 MSTORE POP POP JUMP JUMPDEST PUSH0 PUSH2 0x3559 DUP3 DUP6 PUSH2 0x3537 JUMP JUMPDEST PUSH1 0x20 DUP3 ADD SWAP2 POP PUSH2 0x3569 DUP3 DUP5 PUSH2 0x3537 JUMP JUMPDEST PUSH1 0x20 DUP3 ADD SWAP2 POP DUP2 SWAP1 POP SWAP4 SWAP3 POP POP POP JUMP INVALID JUMPI PUSH10 0x6E20416E64204C6F6F73 PUSH6 0x206973207468 PUSH6 0x207061727420 PUSH16 0x66207468652047616D652E5472792041 PUSH8 0x61696E212EA26469 PUSH17 0x6673582212206D70210816C3432D547A0F PUSH27 0xEB768BC03FA2DC0D6458EC851E887D5B3FDB56F464736F6C634300 ADDMOD EQ STOP CALLER "
				},
				"gasEstimates": {
					"creation": {
						"codeDepositCost": "2758400",
						"executionCost": "25103",
						"totalCost": "2783503"
					},
					"external": {
						"BuyOnRent(uint256)": "84869",
						"BuyZombie(string,string)": "infinite",
						"Fight(uint256)": "infinite",
						"FreeNft(address)": "2900",
						"FreeZombie()": "infinite",
						"GiveOnRent(uint256,uint256)": "infinite",
						"RemoveRent(uint256)": "80187",
						"RentedbyID(uint256)": "2916",
						"TakenNft(uint256)": "2874",
						"approve(address,uint256)": "49536",
						"buyOnRent(address)": "2900",
						"convertXP(uint256)": "infinite",
						"getDetails(uint256)": "infinite",
						"ownerZombies(address)": "infinite",
						"rentAmount(uint256)": "infinite",
						"tranferFrom(address,address,uint256)": "infinite"
					}
				},
				"methodIdentifiers": {
					"BuyOnRent(uint256)": "e70364d4",
					"BuyZombie(string,string)": "cb9940b7",
					"Fight(uint256)": "7138d32d",
					"FreeNft(address)": "c0342cb4",
					"FreeZombie()": "b81c3db7",
					"GiveOnRent(uint256,uint256)": "35e1d33c",
					"RemoveRent(uint256)": "e0c4f15e",
					"RentedbyID(uint256)": "c583f36a",
					"TakenNft(uint256)": "9f52f1a1",
					"approve(address,uint256)": "095ea7b3",
					"buyOnRent(address)": "9a861a78",
					"convertXP(uint256)": "d41b93b1",
					"getDetails(uint256)": "b93a89f7",
					"ownerZombies(address)": "3c956b05",
					"rentAmount(uint256)": "901ac159",
					"tranferFrom(address,address,uint256)": "9264a169"
				}
			},
			"storageLayout": {
				"storage": [
					{
						"astId": 5,
						"contract": "contracts/ZombieGame.sol:GetZombie",
						"label": "ZombieOwner",
						"offset": 0,
						"slot": "0",
						"type": "t_mapping(t_uint256,t_address)"
					},
					{
						"astId": 9,
						"contract": "contracts/ZombieGame.sol:GetZombie",
						"label": "ZombieCount",
						"offset": 0,
						"slot": "1",
						"type": "t_mapping(t_address,t_uint256)"
					},
					{
						"astId": 33,
						"contract": "contracts/ZombieGame.sol:GetZombie",
						"label": "dnaLength",
						"offset": 0,
						"slot": "2",
						"type": "t_uint256"
					},
					{
						"astId": 37,
						"contract": "contracts/ZombieGame.sol:GetZombie",
						"label": "zombies",
						"offset": 0,
						"slot": "3",
						"type": "t_array(t_struct(zombieDetails)28_storage)dyn_storage"
					},
					{
						"astId": 356,
						"contract": "contracts/ZombieGame.sol:GetZombie",
						"label": "FreeNft",
						"offset": 0,
						"slot": "4",
						"type": "t_mapping(t_address,t_bool)"
					},
					{
						"astId": 360,
						"contract": "contracts/ZombieGame.sol:GetZombie",
						"label": "onRent",
						"offset": 0,
						"slot": "5",
						"type": "t_mapping(t_uint256,t_bool)"
					},
					{
						"astId": 366,
						"contract": "contracts/ZombieGame.sol:GetZombie",
						"label": "Allowance",
						"offset": 0,
						"slot": "6",
						"type": "t_mapping(t_address,t_mapping(t_address,t_uint256))"
					},
					{
						"astId": 370,
						"contract": "contracts/ZombieGame.sol:GetZombie",
						"label": "Approve",
						"offset": 0,
						"slot": "7",
						"type": "t_mapping(t_address,t_address)"
					},
					{
						"astId": 374,
						"contract": "contracts/ZombieGame.sol:GetZombie",
						"label": "Timing",
						"offset": 0,
						"slot": "8",
						"type": "t_mapping(t_uint256,t_uint256)"
					},
					{
						"astId": 378,
						"contract": "contracts/ZombieGame.sol:GetZombie",
						"label": "TakenNft",
						"offset": 0,
						"slot": "9",
						"type": "t_mapping(t_uint256,t_bool)"
					},
					{
						"astId": 382,
						"contract": "contracts/ZombieGame.sol:GetZombie",
						"label": "buyOnRent",
						"offset": 0,
						"slot": "10",
						"type": "t_mapping(t_address,t_bool)"
					},
					{
						"astId": 386,
						"contract": "contracts/ZombieGame.sol:GetZombie",
						"label": "RentedbyID",
						"offset": 0,
						"slot": "11",
						"type": "t_mapping(t_uint256,t_address)"
					},
					{
						"astId": 390,
						"contract": "contracts/ZombieGame.sol:GetZombie",
						"label": "rentAmount",
						"offset": 0,
						"slot": "12",
						"type": "t_mapping(t_uint256,t_uint256)"
					}
				],
				"types": {
					"t_address": {
						"encoding": "inplace",
						"label": "address",
						"numberOfBytes": "20"
					},
					"t_array(t_struct(zombieDetails)28_storage)dyn_storage": {
						"base": "t_struct(zombieDetails)28_storage",
						"encoding": "dynamic_array",
						"label": "struct ZombieGame.zombieDetails[]",
						"numberOfBytes": "32"
					},
					"t_bool": {
						"encoding": "inplace",
						"label": "bool",
						"numberOfBytes": "1"
					},
					"t_mapping(t_address,t_address)": {
						"encoding": "mapping",
						"key": "t_address",
						"label": "mapping(address => address)",
						"numberOfBytes": "32",
						"value": "t_address"
					},
					"t_mapping(t_address,t_bool)": {
						"encoding": "mapping",
						"key": "t_address",
						"label": "mapping(address => bool)",
						"numberOfBytes": "32",
						"value": "t_bool"
					},
					"t_mapping(t_address,t_mapping(t_address,t_uint256))": {
						"encoding": "mapping",
						"key": "t_address",
						"label": "mapping(address => mapping(address => uint256))",
						"numberOfBytes": "32",
						"value": "t_mapping(t_address,t_uint256)"
					},
					"t_mapping(t_address,t_uint256)": {
						"encoding": "mapping",
						"key": "t_address",
						"label": "mapping(address => uint256)",
						"numberOfBytes": "32",
						"value": "t_uint256"
					},
					"t_mapping(t_uint256,t_address)": {
						"encoding": "mapping",
						"key": "t_uint256",
						"label": "mapping(uint256 => address)",
						"numberOfBytes": "32",
						"value": "t_address"
					},
					"t_mapping(t_uint256,t_bool)": {
						"encoding": "mapping",
						"key": "t_uint256",
						"label": "mapping(uint256 => bool)",
						"numberOfBytes": "32",
						"value": "t_bool"
					},
					"t_mapping(t_uint256,t_uint256)": {
						"encoding": "mapping",
						"key": "t_uint256",
						"label": "mapping(uint256 => uint256)",
						"numberOfBytes": "32",
						"value": "t_uint256"
					},
					"t_string_storage": {
						"encoding": "bytes",
						"label": "string",
						"numberOfBytes": "32"
					},
					"t_struct(zombieDetails)28_storage": {
						"encoding": "inplace",
						"label": "struct ZombieGame.zombieDetails",
						"members": [
							{
								"astId": 11,
								"contract": "contracts/ZombieGame.sol:GetZombie",
								"label": "plan",
								"offset": 0,
								"slot": "0",
								"type": "t_string_storage"
							},
							{
								"astId": 13,
								"contract": "contracts/ZombieGame.sol:GetZombie",
								"label": "name",
								"offset": 0,
								"slot": "1",
								"type": "t_string_storage"
							},
							{
								"astId": 15,
								"contract": "contracts/ZombieGame.sol:GetZombie",
								"label": "dna",
								"offset": 0,
								"slot": "2",
								"type": "t_uint256"
							},
							{
								"astId": 17,
								"contract": "contracts/ZombieGame.sol:GetZombie",
								"label": "level",
								"offset": 0,
								"slot": "3",
								"type": "t_uint256"
							},
							{
								"astId": 19,
								"contract": "contracts/ZombieGame.sol:GetZombie",
								"label": "xp",
								"offset": 0,
								"slot": "4",
								"type": "t_uint256"
							},
							{
								"astId": 21,
								"contract": "contracts/ZombieGame.sol:GetZombie",
								"label": "TotalMatch",
								"offset": 0,
								"slot": "5",
								"type": "t_uint256"
							},
							{
								"astId": 23,
								"contract": "contracts/ZombieGame.sol:GetZombie",
								"label": "MatchLeft",
								"offset": 0,
								"slot": "6",
								"type": "t_uint256"
							},
							{
								"astId": 25,
								"contract": "contracts/ZombieGame.sol:GetZombie",
								"label": "Wins",
								"offset": 0,
								"slot": "7",
								"type": "t_uint256"
							},
							{
								"astId": 27,
								"contract": "contracts/ZombieGame.sol:GetZombie",
								"label": "Looses",
								"offset": 0,
								"slot": "8",
								"type": "t_uint256"
							}
						],
						"numberOfBytes": "288"
					},
					"t_uint256": {
						"encoding": "inplace",
						"label": "uint256",
						"numberOfBytes": "32"
					}
				}
			},
			"userdoc": {
				"kind": "user",
				"methods": {},
				"version": 1
			}
		}
	}
}