{
	"contracts/function part2.sol": {
		"functionuse": {
			"abi": [
				{
					"inputs": [
						{
							"internalType": "uint256",
							"name": "",
							"type": "uint256"
						}
					],
					"name": "arr",
					"outputs": [
						{
							"internalType": "uint256",
							"name": "",
							"type": "uint256"
						}
					],
					"stateMutability": "view",
					"type": "function"
				},
				{
					"inputs": [
						{
							"internalType": "uint256[]",
							"name": "_arr1",
							"type": "uint256[]"
						}
					],
					"name": "arrayinput",
					"outputs": [],
					"stateMutability": "nonpayable",
					"type": "function"
				},
				{
					"inputs": [],
					"name": "arrayoutput",
					"outputs": [
						{
							"internalType": "uint256[]",
							"name": "",
							"type": "uint256[]"
						}
					],
					"stateMutability": "view",
					"type": "function"
				},
				{
					"inputs": [],
					"name": "destructuringassignments",
					"outputs": [
						{
							"internalType": "uint256",
							"name": "",
							"type": "uint256"
						},
						{
							"internalType": "bool",
							"name": "",
							"type": "bool"
						},
						{
							"internalType": "uint256",
							"name": "",
							"type": "uint256"
						},
						{
							"internalType": "uint256",
							"name": "",
							"type": "uint256"
						},
						{
							"internalType": "uint256",
							"name": "",
							"type": "uint256"
						}
					],
					"stateMutability": "pure",
					"type": "function"
				},
				{
					"inputs": [],
					"name": "names",
					"outputs": [
						{
							"internalType": "uint256",
							"name": "x",
							"type": "uint256"
						},
						{
							"internalType": "string",
							"name": "y",
							"type": "string"
						},
						{
							"internalType": "bool",
							"name": "z",
							"type": "bool"
						}
					],
					"stateMutability": "pure",
					"type": "function"
				},
				{
					"inputs": [],
					"name": "returnmany",
					"outputs": [
						{
							"internalType": "uint256",
							"name": "",
							"type": "uint256"
						},
						{
							"internalType": "bool",
							"name": "",
							"type": "bool"
						},
						{
							"internalType": "uint256",
							"name": "",
							"type": "uint256"
						}
					],
					"stateMutability": "pure",
					"type": "function"
				}
			],
			"devdoc": {
				"kind": "dev",
				"methods": {},
				"version": 1
			},
			"evm": {
				"assembly": "    /* \"contracts/function part2.sol\":61:1473  contract functionuse{... */\n  mstore(0x40, 0x80)\n  callvalue\n  dup1\n  iszero\n  tag_1\n  jumpi\n  0x00\n  dup1\n  revert\ntag_1:\n  pop\n  dataSize(sub_0)\n  dup1\n  dataOffset(sub_0)\n  0x00\n  codecopy\n  0x00\n  return\nstop\n\nsub_0: assembly {\n        /* \"contracts/function part2.sol\":61:1473  contract functionuse{... */\n      mstore(0x40, 0x80)\n      callvalue\n      dup1\n      iszero\n      tag_1\n      jumpi\n      0x00\n      dup1\n      revert\n    tag_1:\n      pop\n      jumpi(tag_2, lt(calldatasize, 0x04))\n      shr(0xe0, calldataload(0x00))\n      dup1\n      0x056da048\n      eq\n      tag_3\n      jumpi\n      dup1\n      0x2093fd93\n      eq\n      tag_4\n      jumpi\n      dup1\n      0x3043d5e6\n      eq\n      tag_5\n      jumpi\n      dup1\n      0x6428b262\n      eq\n      tag_6\n      jumpi\n      dup1\n      0x71e5ee5f\n      eq\n      tag_7\n      jumpi\n      dup1\n      0xb9031a1b\n      eq\n      tag_8\n      jumpi\n    tag_2:\n      0x00\n      dup1\n      revert\n        /* \"contracts/function part2.sol\":283:436  function names() public pure returns (uint x, string memory y, bool z){... */\n    tag_3:\n      tag_9\n      tag_10\n      jump\t// in\n    tag_9:\n      mload(0x40)\n      tag_11\n      swap4\n      swap3\n      swap2\n      swap1\n      tag_12\n      jump\t// in\n    tag_11:\n      mload(0x40)\n      dup1\n      swap2\n      sub\n      swap1\n      return\n        /* \"contracts/function part2.sol\":134:228  function returnmany() public pure returns (uint,bool,uint){... */\n    tag_4:\n      tag_13\n      tag_14\n      jump\t// in\n    tag_13:\n      mload(0x40)\n      tag_15\n      swap4\n      swap3\n      swap2\n      swap1\n      tag_16\n      jump\t// in\n    tag_15:\n      mload(0x40)\n      dup1\n      swap2\n      sub\n      swap1\n      return\n        /* \"contracts/function part2.sol\":1157:1242  function arrayinput(uint[] memory _arr1) public {... */\n    tag_5:\n      tag_17\n      0x04\n      dup1\n      calldatasize\n      sub\n      dup2\n      add\n      swap1\n      tag_18\n      swap2\n      swap1\n      tag_19\n      jump\t// in\n    tag_18:\n      tag_20\n      jump\t// in\n    tag_17:\n      stop\n        /* \"contracts/function part2.sol\":1381:1468  function arrayoutput() public view returns (uint[] memory){... */\n    tag_6:\n      tag_21\n      tag_22\n      jump\t// in\n    tag_21:\n      mload(0x40)\n      tag_23\n      swap2\n      swap1\n      tag_24\n      jump\t// in\n    tag_23:\n      mload(0x40)\n      dup1\n      swap2\n      sub\n      swap1\n      return\n        /* \"contracts/function part2.sol\":1133:1150  uint[] public arr */\n    tag_7:\n      tag_25\n      0x04\n      dup1\n      calldatasize\n      sub\n      dup2\n      add\n      swap1\n      tag_26\n      swap2\n      swap1\n      tag_27\n      jump\t// in\n    tag_26:\n      tag_28\n      jump\t// in\n    tag_25:\n      mload(0x40)\n      tag_29\n      swap2\n      swap1\n      tag_30\n      jump\t// in\n    tag_29:\n      mload(0x40)\n      dup1\n      swap2\n      sub\n      swap1\n      return\n        /* \"contracts/function part2.sol\":483:720  function destructuringassignments() public pure returns (uint,bool,uint,uint,uint){... */\n    tag_8:\n      tag_31\n      tag_32\n      jump\t// in\n    tag_31:\n      mload(0x40)\n      tag_33\n      swap6\n      swap5\n      swap4\n      swap3\n      swap2\n      swap1\n      tag_34\n      jump\t// in\n    tag_33:\n      mload(0x40)\n      dup1\n      swap2\n      sub\n      swap1\n      return\n        /* \"contracts/function part2.sol\":283:436  function names() public pure returns (uint x, string memory y, bool z){... */\n    tag_10:\n        /* \"contracts/function part2.sol\":321:327  uint x */\n      0x00\n        /* \"contracts/function part2.sol\":329:344  string memory y */\n      0x60\n        /* \"contracts/function part2.sol\":346:352  bool z */\n      0x00\n        /* \"contracts/function part2.sol\":366:367  2 */\n      0x02\n        /* \"contracts/function part2.sol\":364:367  x=2 */\n      swap3\n      pop\n        /* \"contracts/function part2.sol\":378:386  y=\"aman\" */\n      mload(0x40)\n      dup1\n      0x40\n      add\n      0x40\n      mstore\n      dup1\n      0x04\n      dup2\n      mstore\n      0x20\n      add\n      0x616d616e00000000000000000000000000000000000000000000000000000000\n      dup2\n      mstore\n      pop\n      swap2\n      pop\n        /* \"contracts/function part2.sol\":399:403  true */\n      0x01\n        /* \"contracts/function part2.sol\":397:403  z=true */\n      swap1\n      pop\n        /* \"contracts/function part2.sol\":283:436  function names() public pure returns (uint x, string memory y, bool z){... */\n      swap1\n      swap2\n      swap3\n      jump\t// out\n        /* \"contracts/function part2.sol\":134:228  function returnmany() public pure returns (uint,bool,uint){... */\n    tag_14:\n        /* \"contracts/function part2.sol\":177:181  uint */\n      0x00\n        /* \"contracts/function part2.sol\":182:186  bool */\n      dup1\n        /* \"contracts/function part2.sol\":187:191  uint */\n      0x00\n        /* \"contracts/function part2.sol\":211:212  2 */\n      0x02\n        /* \"contracts/function part2.sol\":213:217  true */\n      0x01\n        /* \"contracts/function part2.sol\":218:219  4 */\n      0x04\n        /* \"contracts/function part2.sol\":203:220  return (2,true,4) */\n      swap3\n      pop\n      swap3\n      pop\n      swap3\n      pop\n        /* \"contracts/function part2.sol\":134:228  function returnmany() public pure returns (uint,bool,uint){... */\n      swap1\n      swap2\n      swap3\n      jump\t// out\n        /* \"contracts/function part2.sol\":1157:1242  function arrayinput(uint[] memory _arr1) public {... */\n    tag_20:\n        /* \"contracts/function part2.sol\":1216:1219  arr */\n      0x00\n        /* \"contracts/function part2.sol\":1225:1230  _arr1 */\n      dup2\n        /* \"contracts/function part2.sol\":1231:1232  0 */\n      0x00\n        /* \"contracts/function part2.sol\":1225:1233  _arr1[0] */\n      dup2\n      mload\n      dup2\n      lt\n      tag_38\n      jumpi\n      tag_39\n      tag_40\n      jump\t// in\n    tag_39:\n    tag_38:\n      0x20\n      mul\n      0x20\n      add\n      add\n      mload\n        /* \"contracts/function part2.sol\":1216:1234  arr.push(_arr1[0]) */\n      swap1\n      dup1\n      0x01\n      dup2\n      sload\n      add\n      dup1\n      dup3\n      sstore\n      dup1\n      swap2\n      pop\n      pop\n      0x01\n      swap1\n      sub\n      swap1\n      0x00\n      mstore\n      keccak256(0x00, 0x20)\n      add\n      0x00\n      swap1\n      swap2\n      swap1\n      swap2\n      swap1\n      swap2\n      pop\n      sstore\n        /* \"contracts/function part2.sol\":1157:1242  function arrayinput(uint[] memory _arr1) public {... */\n      pop\n      jump\t// out\n        /* \"contracts/function part2.sol\":1381:1468  function arrayoutput() public view returns (uint[] memory){... */\n    tag_22:\n        /* \"contracts/function part2.sol\":1425:1438  uint[] memory */\n      0x60\n        /* \"contracts/function part2.sol\":1457:1460  arr */\n      0x00\n        /* \"contracts/function part2.sol\":1450:1460  return arr */\n      dup1\n      sload\n      dup1\n      0x20\n      mul\n      0x20\n      add\n      mload(0x40)\n      swap1\n      dup2\n      add\n      0x40\n      mstore\n      dup1\n      swap3\n      swap2\n      swap1\n      dup2\n      dup2\n      mstore\n      0x20\n      add\n      dup3\n      dup1\n      sload\n      dup1\n      iszero\n      tag_43\n      jumpi\n      0x20\n      mul\n      dup3\n      add\n      swap2\n      swap1\n      0x00\n      mstore\n      keccak256(0x00, 0x20)\n      swap1\n    tag_44:\n      dup2\n      sload\n      dup2\n      mstore\n      0x20\n      add\n      swap1\n      0x01\n      add\n      swap1\n      dup1\n      dup4\n      gt\n      tag_44\n      jumpi\n    tag_43:\n      pop\n      pop\n      pop\n      pop\n      pop\n      swap1\n      pop\n        /* \"contracts/function part2.sol\":1381:1468  function arrayoutput() public view returns (uint[] memory){... */\n      swap1\n      jump\t// out\n        /* \"contracts/function part2.sol\":1133:1150  uint[] public arr */\n    tag_28:\n      0x00\n      dup2\n      dup2\n      sload\n      dup2\n      lt\n      tag_45\n      jumpi\n      0x00\n      dup1\n      revert\n    tag_45:\n      swap1\n      0x00\n      mstore\n      keccak256(0x00, 0x20)\n      add\n      0x00\n      swap2\n      pop\n      swap1\n      pop\n      sload\n      dup2\n      jump\t// out\n        /* \"contracts/function part2.sol\":483:720  function destructuringassignments() public pure returns (uint,bool,uint,uint,uint){... */\n    tag_32:\n        /* \"contracts/function part2.sol\":540:544  uint */\n      0x00\n        /* \"contracts/function part2.sol\":545:549  bool */\n      dup1\n        /* \"contracts/function part2.sol\":550:554  uint */\n      0x00\n        /* \"contracts/function part2.sol\":555:559  uint */\n      dup1\n        /* \"contracts/function part2.sol\":560:564  uint */\n      0x00\n        /* \"contracts/function part2.sol\":577:583  uint i */\n      dup1\n        /* \"contracts/function part2.sol\":585:591  bool b */\n      0x00\n        /* \"contracts/function part2.sol\":593:599  uint j */\n      dup1\n        /* \"contracts/function part2.sol\":604:616  returnmany() */\n      tag_48\n        /* \"contracts/function part2.sol\":604:614  returnmany */\n      tag_14\n        /* \"contracts/function part2.sol\":604:616  returnmany() */\n      jump\t// in\n    tag_48:\n        /* \"contracts/function part2.sol\":576:616  (uint i, bool b, uint j)  = returnmany() */\n      swap3\n      pop\n      swap3\n      pop\n      swap3\n      pop\n        /* \"contracts/function part2.sol\":659:665  uint x */\n      0x00\n        /* \"contracts/function part2.sol\":667:673  uint y */\n      dup1\n        /* \"contracts/function part2.sol\":676:677  3 */\n      0x03\n        /* \"contracts/function part2.sol\":678:679  5 */\n      0x05\n        /* \"contracts/function part2.sol\":658:680  (uint x, uint y)=(3,5) */\n      swap2\n      pop\n      swap2\n      pop\n        /* \"contracts/function part2.sol\":699:700  i */\n      dup5\n        /* \"contracts/function part2.sol\":702:703  b */\n      dup5\n        /* \"contracts/function part2.sol\":705:706  j */\n      dup5\n        /* \"contracts/function part2.sol\":708:709  x */\n      dup5\n        /* \"contracts/function part2.sol\":710:711  y */\n      dup5\n        /* \"contracts/function part2.sol\":691:712  return (i, b, j, x,y) */\n      swap10\n      pop\n      swap10\n      pop\n      swap10\n      pop\n      swap10\n      pop\n      swap10\n      pop\n      pop\n      pop\n      pop\n      pop\n      pop\n        /* \"contracts/function part2.sol\":483:720  function destructuringassignments() public pure returns (uint,bool,uint,uint,uint){... */\n      swap1\n      swap2\n      swap3\n      swap4\n      swap5\n      jump\t// out\n        /* \"#utility.yul\":7:84   */\n    tag_49:\n        /* \"#utility.yul\":44:51   */\n      0x00\n        /* \"#utility.yul\":73:78   */\n      dup2\n        /* \"#utility.yul\":62:78   */\n      swap1\n      pop\n        /* \"#utility.yul\":7:84   */\n      swap2\n      swap1\n      pop\n      jump\t// out\n        /* \"#utility.yul\":90:208   */\n    tag_50:\n        /* \"#utility.yul\":177:201   */\n      tag_81\n        /* \"#utility.yul\":195:200   */\n      dup2\n        /* \"#utility.yul\":177:201   */\n      tag_49\n      jump\t// in\n    tag_81:\n        /* \"#utility.yul\":172:175   */\n      dup3\n        /* \"#utility.yul\":165:202   */\n      mstore\n        /* \"#utility.yul\":90:208   */\n      pop\n      pop\n      jump\t// out\n        /* \"#utility.yul\":214:313   */\n    tag_51:\n        /* \"#utility.yul\":266:272   */\n      0x00\n        /* \"#utility.yul\":300:305   */\n      dup2\n        /* \"#utility.yul\":294:306   */\n      mload\n        /* \"#utility.yul\":284:306   */\n      swap1\n      pop\n        /* \"#utility.yul\":214:313   */\n      swap2\n      swap1\n      pop\n      jump\t// out\n        /* \"#utility.yul\":319:488   */\n    tag_52:\n        /* \"#utility.yul\":403:414   */\n      0x00\n        /* \"#utility.yul\":437:443   */\n      dup3\n        /* \"#utility.yul\":432:435   */\n      dup3\n        /* \"#utility.yul\":425:444   */\n      mstore\n        /* \"#utility.yul\":477:481   */\n      0x20\n        /* \"#utility.yul\":472:475   */\n      dup3\n        /* \"#utility.yul\":468:482   */\n      add\n        /* \"#utility.yul\":453:482   */\n      swap1\n      pop\n        /* \"#utility.yul\":319:488   */\n      swap3\n      swap2\n      pop\n      pop\n      jump\t// out\n        /* \"#utility.yul\":494:740   */\n    tag_53:\n        /* \"#utility.yul\":575:576   */\n      0x00\n        /* \"#utility.yul\":585:698   */\n    tag_85:\n        /* \"#utility.yul\":599:605   */\n      dup4\n        /* \"#utility.yul\":596:597   */\n      dup2\n        /* \"#utility.yul\":593:606   */\n      lt\n        /* \"#utility.yul\":585:698   */\n      iszero\n      tag_87\n      jumpi\n        /* \"#utility.yul\":684:685   */\n      dup1\n        /* \"#utility.yul\":679:682   */\n      dup3\n        /* \"#utility.yul\":675:686   */\n      add\n        /* \"#utility.yul\":669:687   */\n      mload\n        /* \"#utility.yul\":665:666   */\n      dup2\n        /* \"#utility.yul\":660:663   */\n      dup5\n        /* \"#utility.yul\":656:667   */\n      add\n        /* \"#utility.yul\":649:688   */\n      mstore\n        /* \"#utility.yul\":621:623   */\n      0x20\n        /* \"#utility.yul\":618:619   */\n      dup2\n        /* \"#utility.yul\":614:624   */\n      add\n        /* \"#utility.yul\":609:624   */\n      swap1\n      pop\n        /* \"#utility.yul\":585:698   */\n      jump(tag_85)\n    tag_87:\n        /* \"#utility.yul\":732:733   */\n      0x00\n        /* \"#utility.yul\":723:729   */\n      dup5\n        /* \"#utility.yul\":718:721   */\n      dup5\n        /* \"#utility.yul\":714:730   */\n      add\n        /* \"#utility.yul\":707:734   */\n      mstore\n        /* \"#utility.yul\":556:740   */\n      pop\n        /* \"#utility.yul\":494:740   */\n      pop\n      pop\n      pop\n      jump\t// out\n        /* \"#utility.yul\":746:848   */\n    tag_54:\n        /* \"#utility.yul\":787:793   */\n      0x00\n        /* \"#utility.yul\":838:840   */\n      0x1f\n        /* \"#utility.yul\":834:841   */\n      not\n        /* \"#utility.yul\":829:831   */\n      0x1f\n        /* \"#utility.yul\":822:827   */\n      dup4\n        /* \"#utility.yul\":818:832   */\n      add\n        /* \"#utility.yul\":814:842   */\n      and\n        /* \"#utility.yul\":804:842   */\n      swap1\n      pop\n        /* \"#utility.yul\":746:848   */\n      swap2\n      swap1\n      pop\n      jump\t// out\n        /* \"#utility.yul\":854:1231   */\n    tag_55:\n        /* \"#utility.yul\":942:945   */\n      0x00\n        /* \"#utility.yul\":970:1009   */\n      tag_90\n        /* \"#utility.yul\":1003:1008   */\n      dup3\n        /* \"#utility.yul\":970:1009   */\n      tag_51\n      jump\t// in\n    tag_90:\n        /* \"#utility.yul\":1025:1096   */\n      tag_91\n        /* \"#utility.yul\":1089:1095   */\n      dup2\n        /* \"#utility.yul\":1084:1087   */\n      dup6\n        /* \"#utility.yul\":1025:1096   */\n      tag_52\n      jump\t// in\n    tag_91:\n        /* \"#utility.yul\":1018:1096   */\n      swap4\n      pop\n        /* \"#utility.yul\":1105:1170   */\n      tag_92\n        /* \"#utility.yul\":1163:1169   */\n      dup2\n        /* \"#utility.yul\":1158:1161   */\n      dup6\n        /* \"#utility.yul\":1151:1155   */\n      0x20\n        /* \"#utility.yul\":1144:1149   */\n      dup7\n        /* \"#utility.yul\":1140:1156   */\n      add\n        /* \"#utility.yul\":1105:1170   */\n      tag_53\n      jump\t// in\n    tag_92:\n        /* \"#utility.yul\":1195:1224   */\n      tag_93\n        /* \"#utility.yul\":1217:1223   */\n      dup2\n        /* \"#utility.yul\":1195:1224   */\n      tag_54\n      jump\t// in\n    tag_93:\n        /* \"#utility.yul\":1190:1193   */\n      dup5\n        /* \"#utility.yul\":1186:1225   */\n      add\n        /* \"#utility.yul\":1179:1225   */\n      swap2\n      pop\n        /* \"#utility.yul\":946:1231   */\n      pop\n        /* \"#utility.yul\":854:1231   */\n      swap3\n      swap2\n      pop\n      pop\n      jump\t// out\n        /* \"#utility.yul\":1237:1327   */\n    tag_56:\n        /* \"#utility.yul\":1271:1278   */\n      0x00\n        /* \"#utility.yul\":1314:1319   */\n      dup2\n        /* \"#utility.yul\":1307:1320   */\n      iszero\n        /* \"#utility.yul\":1300:1321   */\n      iszero\n        /* \"#utility.yul\":1289:1321   */\n      swap1\n      pop\n        /* \"#utility.yul\":1237:1327   */\n      swap2\n      swap1\n      pop\n      jump\t// out\n        /* \"#utility.yul\":1333:1442   */\n    tag_57:\n        /* \"#utility.yul\":1414:1435   */\n      tag_96\n        /* \"#utility.yul\":1429:1434   */\n      dup2\n        /* \"#utility.yul\":1414:1435   */\n      tag_56\n      jump\t// in\n    tag_96:\n        /* \"#utility.yul\":1409:1412   */\n      dup3\n        /* \"#utility.yul\":1402:1436   */\n      mstore\n        /* \"#utility.yul\":1333:1442   */\n      pop\n      pop\n      jump\t// out\n        /* \"#utility.yul\":1448:1969   */\n    tag_12:\n        /* \"#utility.yul\":1611:1615   */\n      0x00\n        /* \"#utility.yul\":1649:1651   */\n      0x60\n        /* \"#utility.yul\":1638:1647   */\n      dup3\n        /* \"#utility.yul\":1634:1652   */\n      add\n        /* \"#utility.yul\":1626:1652   */\n      swap1\n      pop\n        /* \"#utility.yul\":1662:1733   */\n      tag_98\n        /* \"#utility.yul\":1730:1731   */\n      0x00\n        /* \"#utility.yul\":1719:1728   */\n      dup4\n        /* \"#utility.yul\":1715:1732   */\n      add\n        /* \"#utility.yul\":1706:1712   */\n      dup7\n        /* \"#utility.yul\":1662:1733   */\n      tag_50\n      jump\t// in\n    tag_98:\n        /* \"#utility.yul\":1780:1789   */\n      dup2\n        /* \"#utility.yul\":1774:1778   */\n      dup2\n        /* \"#utility.yul\":1770:1790   */\n      sub\n        /* \"#utility.yul\":1765:1767   */\n      0x20\n        /* \"#utility.yul\":1754:1763   */\n      dup4\n        /* \"#utility.yul\":1750:1768   */\n      add\n        /* \"#utility.yul\":1743:1791   */\n      mstore\n        /* \"#utility.yul\":1808:1886   */\n      tag_99\n        /* \"#utility.yul\":1881:1885   */\n      dup2\n        /* \"#utility.yul\":1872:1878   */\n      dup6\n        /* \"#utility.yul\":1808:1886   */\n      tag_55\n      jump\t// in\n    tag_99:\n        /* \"#utility.yul\":1800:1886   */\n      swap1\n      pop\n        /* \"#utility.yul\":1896:1962   */\n      tag_100\n        /* \"#utility.yul\":1958:1960   */\n      0x40\n        /* \"#utility.yul\":1947:1956   */\n      dup4\n        /* \"#utility.yul\":1943:1961   */\n      add\n        /* \"#utility.yul\":1934:1940   */\n      dup5\n        /* \"#utility.yul\":1896:1962   */\n      tag_57\n      jump\t// in\n    tag_100:\n        /* \"#utility.yul\":1448:1969   */\n      swap5\n      swap4\n      pop\n      pop\n      pop\n      pop\n      jump\t// out\n        /* \"#utility.yul\":1975:2405   */\n    tag_16:\n        /* \"#utility.yul\":2118:2122   */\n      0x00\n        /* \"#utility.yul\":2156:2158   */\n      0x60\n        /* \"#utility.yul\":2145:2154   */\n      dup3\n        /* \"#utility.yul\":2141:2159   */\n      add\n        /* \"#utility.yul\":2133:2159   */\n      swap1\n      pop\n        /* \"#utility.yul\":2169:2240   */\n      tag_102\n        /* \"#utility.yul\":2237:2238   */\n      0x00\n        /* \"#utility.yul\":2226:2235   */\n      dup4\n        /* \"#utility.yul\":2222:2239   */\n      add\n        /* \"#utility.yul\":2213:2219   */\n      dup7\n        /* \"#utility.yul\":2169:2240   */\n      tag_50\n      jump\t// in\n    tag_102:\n        /* \"#utility.yul\":2250:2316   */\n      tag_103\n        /* \"#utility.yul\":2312:2314   */\n      0x20\n        /* \"#utility.yul\":2301:2310   */\n      dup4\n        /* \"#utility.yul\":2297:2315   */\n      add\n        /* \"#utility.yul\":2288:2294   */\n      dup6\n        /* \"#utility.yul\":2250:2316   */\n      tag_57\n      jump\t// in\n    tag_103:\n        /* \"#utility.yul\":2326:2398   */\n      tag_104\n        /* \"#utility.yul\":2394:2396   */\n      0x40\n        /* \"#utility.yul\":2383:2392   */\n      dup4\n        /* \"#utility.yul\":2379:2397   */\n      add\n        /* \"#utility.yul\":2370:2376   */\n      dup5\n        /* \"#utility.yul\":2326:2398   */\n      tag_50\n      jump\t// in\n    tag_104:\n        /* \"#utility.yul\":1975:2405   */\n      swap5\n      swap4\n      pop\n      pop\n      pop\n      pop\n      jump\t// out\n        /* \"#utility.yul\":2411:2486   */\n    tag_58:\n        /* \"#utility.yul\":2444:2450   */\n      0x00\n        /* \"#utility.yul\":2477:2479   */\n      0x40\n        /* \"#utility.yul\":2471:2480   */\n      mload\n        /* \"#utility.yul\":2461:2480   */\n      swap1\n      pop\n        /* \"#utility.yul\":2411:2486   */\n      swap1\n      jump\t// out\n        /* \"#utility.yul\":2492:2609   */\n    tag_59:\n        /* \"#utility.yul\":2601:2602   */\n      0x00\n        /* \"#utility.yul\":2598:2599   */\n      dup1\n        /* \"#utility.yul\":2591:2603   */\n      revert\n        /* \"#utility.yul\":2615:2732   */\n    tag_60:\n        /* \"#utility.yul\":2724:2725   */\n      0x00\n        /* \"#utility.yul\":2721:2722   */\n      dup1\n        /* \"#utility.yul\":2714:2726   */\n      revert\n        /* \"#utility.yul\":2738:2855   */\n    tag_61:\n        /* \"#utility.yul\":2847:2848   */\n      0x00\n        /* \"#utility.yul\":2844:2845   */\n      dup1\n        /* \"#utility.yul\":2837:2849   */\n      revert\n        /* \"#utility.yul\":2861:3041   */\n    tag_62:\n        /* \"#utility.yul\":2909:2986   */\n      0x4e487b7100000000000000000000000000000000000000000000000000000000\n        /* \"#utility.yul\":2906:2907   */\n      0x00\n        /* \"#utility.yul\":2899:2987   */\n      mstore\n        /* \"#utility.yul\":3006:3010   */\n      0x41\n        /* \"#utility.yul\":3003:3004   */\n      0x04\n        /* \"#utility.yul\":2996:3011   */\n      mstore\n        /* \"#utility.yul\":3030:3034   */\n      0x24\n        /* \"#utility.yul\":3027:3028   */\n      0x00\n        /* \"#utility.yul\":3020:3035   */\n      revert\n        /* \"#utility.yul\":3047:3328   */\n    tag_63:\n        /* \"#utility.yul\":3130:3157   */\n      tag_111\n        /* \"#utility.yul\":3152:3156   */\n      dup3\n        /* \"#utility.yul\":3130:3157   */\n      tag_54\n      jump\t// in\n    tag_111:\n        /* \"#utility.yul\":3122:3128   */\n      dup2\n        /* \"#utility.yul\":3118:3158   */\n      add\n        /* \"#utility.yul\":3260:3266   */\n      dup2\n        /* \"#utility.yul\":3248:3258   */\n      dup2\n        /* \"#utility.yul\":3245:3267   */\n      lt\n        /* \"#utility.yul\":3224:3242   */\n      0xffffffffffffffff\n        /* \"#utility.yul\":3212:3222   */\n      dup3\n        /* \"#utility.yul\":3209:3243   */\n      gt\n        /* \"#utility.yul\":3206:3268   */\n      or\n        /* \"#utility.yul\":3203:3291   */\n      iszero\n      tag_112\n      jumpi\n        /* \"#utility.yul\":3271:3289   */\n      tag_113\n      tag_62\n      jump\t// in\n    tag_113:\n        /* \"#utility.yul\":3203:3291   */\n    tag_112:\n        /* \"#utility.yul\":3311:3321   */\n      dup1\n        /* \"#utility.yul\":3307:3309   */\n      0x40\n        /* \"#utility.yul\":3300:3322   */\n      mstore\n        /* \"#utility.yul\":3090:3328   */\n      pop\n        /* \"#utility.yul\":3047:3328   */\n      pop\n      pop\n      jump\t// out\n        /* \"#utility.yul\":3334:3463   */\n    tag_64:\n        /* \"#utility.yul\":3368:3374   */\n      0x00\n        /* \"#utility.yul\":3395:3415   */\n      tag_115\n      tag_58\n      jump\t// in\n    tag_115:\n        /* \"#utility.yul\":3385:3415   */\n      swap1\n      pop\n        /* \"#utility.yul\":3424:3457   */\n      tag_116\n        /* \"#utility.yul\":3452:3456   */\n      dup3\n        /* \"#utility.yul\":3444:3450   */\n      dup3\n        /* \"#utility.yul\":3424:3457   */\n      tag_63\n      jump\t// in\n    tag_116:\n        /* \"#utility.yul\":3334:3463   */\n      swap2\n      swap1\n      pop\n      jump\t// out\n        /* \"#utility.yul\":3469:3780   */\n    tag_65:\n        /* \"#utility.yul\":3546:3550   */\n      0x00\n        /* \"#utility.yul\":3636:3654   */\n      0xffffffffffffffff\n        /* \"#utility.yul\":3628:3634   */\n      dup3\n        /* \"#utility.yul\":3625:3655   */\n      gt\n        /* \"#utility.yul\":3622:3678   */\n      iszero\n      tag_118\n      jumpi\n        /* \"#utility.yul\":3658:3676   */\n      tag_119\n      tag_62\n      jump\t// in\n    tag_119:\n        /* \"#utility.yul\":3622:3678   */\n    tag_118:\n        /* \"#utility.yul\":3708:3712   */\n      0x20\n        /* \"#utility.yul\":3700:3706   */\n      dup3\n        /* \"#utility.yul\":3696:3713   */\n      mul\n        /* \"#utility.yul\":3688:3713   */\n      swap1\n      pop\n        /* \"#utility.yul\":3768:3772   */\n      0x20\n        /* \"#utility.yul\":3762:3766   */\n      dup2\n        /* \"#utility.yul\":3758:3773   */\n      add\n        /* \"#utility.yul\":3750:3773   */\n      swap1\n      pop\n        /* \"#utility.yul\":3469:3780   */\n      swap2\n      swap1\n      pop\n      jump\t// out\n        /* \"#utility.yul\":3786:3903   */\n    tag_66:\n        /* \"#utility.yul\":3895:3896   */\n      0x00\n        /* \"#utility.yul\":3892:3893   */\n      dup1\n        /* \"#utility.yul\":3885:3897   */\n      revert\n        /* \"#utility.yul\":3909:4031   */\n    tag_67:\n        /* \"#utility.yul\":3982:4006   */\n      tag_122\n        /* \"#utility.yul\":4000:4005   */\n      dup2\n        /* \"#utility.yul\":3982:4006   */\n      tag_49\n      jump\t// in\n    tag_122:\n        /* \"#utility.yul\":3975:3980   */\n      dup2\n        /* \"#utility.yul\":3972:4007   */\n      eq\n        /* \"#utility.yul\":3962:4025   */\n      tag_123\n      jumpi\n        /* \"#utility.yul\":4021:4022   */\n      0x00\n        /* \"#utility.yul\":4018:4019   */\n      dup1\n        /* \"#utility.yul\":4011:4023   */\n      revert\n        /* \"#utility.yul\":3962:4025   */\n    tag_123:\n        /* \"#utility.yul\":3909:4031   */\n      pop\n      jump\t// out\n        /* \"#utility.yul\":4037:4176   */\n    tag_68:\n        /* \"#utility.yul\":4083:4088   */\n      0x00\n        /* \"#utility.yul\":4121:4127   */\n      dup2\n        /* \"#utility.yul\":4108:4128   */\n      calldataload\n        /* \"#utility.yul\":4099:4128   */\n      swap1\n      pop\n        /* \"#utility.yul\":4137:4170   */\n      tag_125\n        /* \"#utility.yul\":4164:4169   */\n      dup2\n        /* \"#utility.yul\":4137:4170   */\n      tag_67\n      jump\t// in\n    tag_125:\n        /* \"#utility.yul\":4037:4176   */\n      swap3\n      swap2\n      pop\n      pop\n      jump\t// out\n        /* \"#utility.yul\":4199:4909   */\n    tag_69:\n        /* \"#utility.yul\":4295:4300   */\n      0x00\n        /* \"#utility.yul\":4320:4401   */\n      tag_127\n        /* \"#utility.yul\":4336:4400   */\n      tag_128\n        /* \"#utility.yul\":4393:4399   */\n      dup5\n        /* \"#utility.yul\":4336:4400   */\n      tag_65\n      jump\t// in\n    tag_128:\n        /* \"#utility.yul\":4320:4401   */\n      tag_64\n      jump\t// in\n    tag_127:\n        /* \"#utility.yul\":4311:4401   */\n      swap1\n      pop\n        /* \"#utility.yul\":4421:4426   */\n      dup1\n        /* \"#utility.yul\":4450:4456   */\n      dup4\n        /* \"#utility.yul\":4443:4448   */\n      dup3\n        /* \"#utility.yul\":4436:4457   */\n      mstore\n        /* \"#utility.yul\":4484:4488   */\n      0x20\n        /* \"#utility.yul\":4477:4482   */\n      dup3\n        /* \"#utility.yul\":4473:4489   */\n      add\n        /* \"#utility.yul\":4466:4489   */\n      swap1\n      pop\n        /* \"#utility.yul\":4537:4541   */\n      0x20\n        /* \"#utility.yul\":4529:4535   */\n      dup5\n        /* \"#utility.yul\":4525:4542   */\n      mul\n        /* \"#utility.yul\":4517:4523   */\n      dup4\n        /* \"#utility.yul\":4513:4543   */\n      add\n        /* \"#utility.yul\":4566:4569   */\n      dup6\n        /* \"#utility.yul\":4558:4564   */\n      dup2\n        /* \"#utility.yul\":4555:4570   */\n      gt\n        /* \"#utility.yul\":4552:4674   */\n      iszero\n      tag_129\n      jumpi\n        /* \"#utility.yul\":4585:4664   */\n      tag_130\n      tag_66\n      jump\t// in\n    tag_130:\n        /* \"#utility.yul\":4552:4674   */\n    tag_129:\n        /* \"#utility.yul\":4700:4706   */\n      dup4\n        /* \"#utility.yul\":4683:4903   */\n    tag_131:\n        /* \"#utility.yul\":4717:4723   */\n      dup2\n        /* \"#utility.yul\":4712:4715   */\n      dup2\n        /* \"#utility.yul\":4709:4724   */\n      lt\n        /* \"#utility.yul\":4683:4903   */\n      iszero\n      tag_133\n      jumpi\n        /* \"#utility.yul\":4792:4795   */\n      dup1\n        /* \"#utility.yul\":4821:4858   */\n      tag_134\n        /* \"#utility.yul\":4854:4857   */\n      dup9\n        /* \"#utility.yul\":4842:4852   */\n      dup3\n        /* \"#utility.yul\":4821:4858   */\n      tag_68\n      jump\t// in\n    tag_134:\n        /* \"#utility.yul\":4816:4819   */\n      dup5\n        /* \"#utility.yul\":4809:4859   */\n      mstore\n        /* \"#utility.yul\":4888:4892   */\n      0x20\n        /* \"#utility.yul\":4883:4886   */\n      dup5\n        /* \"#utility.yul\":4879:4893   */\n      add\n        /* \"#utility.yul\":4872:4893   */\n      swap4\n      pop\n        /* \"#utility.yul\":4759:4903   */\n      pop\n        /* \"#utility.yul\":4743:4747   */\n      0x20\n        /* \"#utility.yul\":4738:4741   */\n      dup2\n        /* \"#utility.yul\":4734:4748   */\n      add\n        /* \"#utility.yul\":4727:4748   */\n      swap1\n      pop\n        /* \"#utility.yul\":4683:4903   */\n      jump(tag_131)\n    tag_133:\n        /* \"#utility.yul\":4687:4708   */\n      pop\n        /* \"#utility.yul\":4301:4909   */\n      pop\n      pop\n        /* \"#utility.yul\":4199:4909   */\n      swap4\n      swap3\n      pop\n      pop\n      pop\n      jump\t// out\n        /* \"#utility.yul\":4932:5302   */\n    tag_70:\n        /* \"#utility.yul\":5003:5008   */\n      0x00\n        /* \"#utility.yul\":5052:5055   */\n      dup3\n        /* \"#utility.yul\":5045:5049   */\n      0x1f\n        /* \"#utility.yul\":5037:5043   */\n      dup4\n        /* \"#utility.yul\":5033:5050   */\n      add\n        /* \"#utility.yul\":5029:5056   */\n      slt\n        /* \"#utility.yul\":5019:5141   */\n      tag_136\n      jumpi\n        /* \"#utility.yul\":5060:5139   */\n      tag_137\n      tag_61\n      jump\t// in\n    tag_137:\n        /* \"#utility.yul\":5019:5141   */\n    tag_136:\n        /* \"#utility.yul\":5177:5183   */\n      dup2\n        /* \"#utility.yul\":5164:5184   */\n      calldataload\n        /* \"#utility.yul\":5202:5296   */\n      tag_138\n        /* \"#utility.yul\":5292:5295   */\n      dup5\n        /* \"#utility.yul\":5284:5290   */\n      dup3\n        /* \"#utility.yul\":5277:5281   */\n      0x20\n        /* \"#utility.yul\":5269:5275   */\n      dup7\n        /* \"#utility.yul\":5265:5282   */\n      add\n        /* \"#utility.yul\":5202:5296   */\n      tag_69\n      jump\t// in\n    tag_138:\n        /* \"#utility.yul\":5193:5296   */\n      swap2\n      pop\n        /* \"#utility.yul\":5009:5302   */\n      pop\n        /* \"#utility.yul\":4932:5302   */\n      swap3\n      swap2\n      pop\n      pop\n      jump\t// out\n        /* \"#utility.yul\":5308:5847   */\n    tag_19:\n        /* \"#utility.yul\":5392:5398   */\n      0x00\n        /* \"#utility.yul\":5441:5443   */\n      0x20\n        /* \"#utility.yul\":5429:5438   */\n      dup3\n        /* \"#utility.yul\":5420:5427   */\n      dup5\n        /* \"#utility.yul\":5416:5439   */\n      sub\n        /* \"#utility.yul\":5412:5444   */\n      slt\n        /* \"#utility.yul\":5409:5528   */\n      iszero\n      tag_140\n      jumpi\n        /* \"#utility.yul\":5447:5526   */\n      tag_141\n      tag_59\n      jump\t// in\n    tag_141:\n        /* \"#utility.yul\":5409:5528   */\n    tag_140:\n        /* \"#utility.yul\":5595:5596   */\n      0x00\n        /* \"#utility.yul\":5584:5593   */\n      dup3\n        /* \"#utility.yul\":5580:5597   */\n      add\n        /* \"#utility.yul\":5567:5598   */\n      calldataload\n        /* \"#utility.yul\":5625:5643   */\n      0xffffffffffffffff\n        /* \"#utility.yul\":5617:5623   */\n      dup2\n        /* \"#utility.yul\":5614:5644   */\n      gt\n        /* \"#utility.yul\":5611:5728   */\n      iszero\n      tag_142\n      jumpi\n        /* \"#utility.yul\":5647:5726   */\n      tag_143\n      tag_60\n      jump\t// in\n    tag_143:\n        /* \"#utility.yul\":5611:5728   */\n    tag_142:\n        /* \"#utility.yul\":5752:5830   */\n      tag_144\n        /* \"#utility.yul\":5822:5829   */\n      dup5\n        /* \"#utility.yul\":5813:5819   */\n      dup3\n        /* \"#utility.yul\":5802:5811   */\n      dup6\n        /* \"#utility.yul\":5798:5820   */\n      add\n        /* \"#utility.yul\":5752:5830   */\n      tag_70\n      jump\t// in\n    tag_144:\n        /* \"#utility.yul\":5742:5830   */\n      swap2\n      pop\n        /* \"#utility.yul\":5538:5840   */\n      pop\n        /* \"#utility.yul\":5308:5847   */\n      swap3\n      swap2\n      pop\n      pop\n      jump\t// out\n        /* \"#utility.yul\":5853:5967   */\n    tag_71:\n        /* \"#utility.yul\":5920:5926   */\n      0x00\n        /* \"#utility.yul\":5954:5959   */\n      dup2\n        /* \"#utility.yul\":5948:5960   */\n      mload\n        /* \"#utility.yul\":5938:5960   */\n      swap1\n      pop\n        /* \"#utility.yul\":5853:5967   */\n      swap2\n      swap1\n      pop\n      jump\t// out\n        /* \"#utility.yul\":5973:6157   */\n    tag_72:\n        /* \"#utility.yul\":6072:6083   */\n      0x00\n        /* \"#utility.yul\":6106:6112   */\n      dup3\n        /* \"#utility.yul\":6101:6104   */\n      dup3\n        /* \"#utility.yul\":6094:6113   */\n      mstore\n        /* \"#utility.yul\":6146:6150   */\n      0x20\n        /* \"#utility.yul\":6141:6144   */\n      dup3\n        /* \"#utility.yul\":6137:6151   */\n      add\n        /* \"#utility.yul\":6122:6151   */\n      swap1\n      pop\n        /* \"#utility.yul\":5973:6157   */\n      swap3\n      swap2\n      pop\n      pop\n      jump\t// out\n        /* \"#utility.yul\":6163:6295   */\n    tag_73:\n        /* \"#utility.yul\":6230:6234   */\n      0x00\n        /* \"#utility.yul\":6253:6256   */\n      dup2\n        /* \"#utility.yul\":6245:6256   */\n      swap1\n      pop\n        /* \"#utility.yul\":6283:6287   */\n      0x20\n        /* \"#utility.yul\":6278:6281   */\n      dup3\n        /* \"#utility.yul\":6274:6288   */\n      add\n        /* \"#utility.yul\":6266:6288   */\n      swap1\n      pop\n        /* \"#utility.yul\":6163:6295   */\n      swap2\n      swap1\n      pop\n      jump\t// out\n        /* \"#utility.yul\":6301:6409   */\n    tag_74:\n        /* \"#utility.yul\":6378:6402   */\n      tag_149\n        /* \"#utility.yul\":6396:6401   */\n      dup2\n        /* \"#utility.yul\":6378:6402   */\n      tag_49\n      jump\t// in\n    tag_149:\n        /* \"#utility.yul\":6373:6376   */\n      dup3\n        /* \"#utility.yul\":6366:6403   */\n      mstore\n        /* \"#utility.yul\":6301:6409   */\n      pop\n      pop\n      jump\t// out\n        /* \"#utility.yul\":6415:6594   */\n    tag_75:\n        /* \"#utility.yul\":6484:6494   */\n      0x00\n        /* \"#utility.yul\":6505:6551   */\n      tag_151\n        /* \"#utility.yul\":6547:6550   */\n      dup4\n        /* \"#utility.yul\":6539:6545   */\n      dup4\n        /* \"#utility.yul\":6505:6551   */\n      tag_74\n      jump\t// in\n    tag_151:\n        /* \"#utility.yul\":6583:6587   */\n      0x20\n        /* \"#utility.yul\":6578:6581   */\n      dup4\n        /* \"#utility.yul\":6574:6588   */\n      add\n        /* \"#utility.yul\":6560:6588   */\n      swap1\n      pop\n        /* \"#utility.yul\":6415:6594   */\n      swap3\n      swap2\n      pop\n      pop\n      jump\t// out\n        /* \"#utility.yul\":6600:6713   */\n    tag_76:\n        /* \"#utility.yul\":6670:6674   */\n      0x00\n        /* \"#utility.yul\":6702:6706   */\n      0x20\n        /* \"#utility.yul\":6697:6700   */\n      dup3\n        /* \"#utility.yul\":6693:6707   */\n      add\n        /* \"#utility.yul\":6685:6707   */\n      swap1\n      pop\n        /* \"#utility.yul\":6600:6713   */\n      swap2\n      swap1\n      pop\n      jump\t// out\n        /* \"#utility.yul\":6749:7481   */\n    tag_77:\n        /* \"#utility.yul\":6868:6871   */\n      0x00\n        /* \"#utility.yul\":6897:6951   */\n      tag_154\n        /* \"#utility.yul\":6945:6950   */\n      dup3\n        /* \"#utility.yul\":6897:6951   */\n      tag_71\n      jump\t// in\n    tag_154:\n        /* \"#utility.yul\":6967:7053   */\n      tag_155\n        /* \"#utility.yul\":7046:7052   */\n      dup2\n        /* \"#utility.yul\":7041:7044   */\n      dup6\n        /* \"#utility.yul\":6967:7053   */\n      tag_72\n      jump\t// in\n    tag_155:\n        /* \"#utility.yul\":6960:7053   */\n      swap4\n      pop\n        /* \"#utility.yul\":7077:7133   */\n      tag_156\n        /* \"#utility.yul\":7127:7132   */\n      dup4\n        /* \"#utility.yul\":7077:7133   */\n      tag_73\n      jump\t// in\n    tag_156:\n        /* \"#utility.yul\":7156:7163   */\n      dup1\n        /* \"#utility.yul\":7187:7188   */\n      0x00\n        /* \"#utility.yul\":7172:7456   */\n    tag_157:\n        /* \"#utility.yul\":7197:7203   */\n      dup4\n        /* \"#utility.yul\":7194:7195   */\n      dup2\n        /* \"#utility.yul\":7191:7204   */\n      lt\n        /* \"#utility.yul\":7172:7456   */\n      iszero\n      tag_159\n      jumpi\n        /* \"#utility.yul\":7273:7279   */\n      dup2\n        /* \"#utility.yul\":7267:7280   */\n      mload\n        /* \"#utility.yul\":7300:7363   */\n      tag_160\n        /* \"#utility.yul\":7359:7362   */\n      dup9\n        /* \"#utility.yul\":7344:7357   */\n      dup3\n        /* \"#utility.yul\":7300:7363   */\n      tag_75\n      jump\t// in\n    tag_160:\n        /* \"#utility.yul\":7293:7363   */\n      swap8\n      pop\n        /* \"#utility.yul\":7386:7446   */\n      tag_161\n        /* \"#utility.yul\":7439:7445   */\n      dup4\n        /* \"#utility.yul\":7386:7446   */\n      tag_76\n      jump\t// in\n    tag_161:\n        /* \"#utility.yul\":7376:7446   */\n      swap3\n      pop\n        /* \"#utility.yul\":7232:7456   */\n      pop\n        /* \"#utility.yul\":7219:7220   */\n      0x01\n        /* \"#utility.yul\":7216:7217   */\n      dup2\n        /* \"#utility.yul\":7212:7221   */\n      add\n        /* \"#utility.yul\":7207:7221   */\n      swap1\n      pop\n        /* \"#utility.yul\":7172:7456   */\n      jump(tag_157)\n    tag_159:\n        /* \"#utility.yul\":7176:7190   */\n      pop\n        /* \"#utility.yul\":7472:7475   */\n      dup6\n        /* \"#utility.yul\":7465:7475   */\n      swap4\n      pop\n        /* \"#utility.yul\":6873:7481   */\n      pop\n      pop\n      pop\n        /* \"#utility.yul\":6749:7481   */\n      swap3\n      swap2\n      pop\n      pop\n      jump\t// out\n        /* \"#utility.yul\":7487:7860   */\n    tag_24:\n        /* \"#utility.yul\":7630:7634   */\n      0x00\n        /* \"#utility.yul\":7668:7670   */\n      0x20\n        /* \"#utility.yul\":7657:7666   */\n      dup3\n        /* \"#utility.yul\":7653:7671   */\n      add\n        /* \"#utility.yul\":7645:7671   */\n      swap1\n      pop\n        /* \"#utility.yul\":7717:7726   */\n      dup2\n        /* \"#utility.yul\":7711:7715   */\n      dup2\n        /* \"#utility.yul\":7707:7727   */\n      sub\n        /* \"#utility.yul\":7703:7704   */\n      0x00\n        /* \"#utility.yul\":7692:7701   */\n      dup4\n        /* \"#utility.yul\":7688:7705   */\n      add\n        /* \"#utility.yul\":7681:7728   */\n      mstore\n        /* \"#utility.yul\":7745:7853   */\n      tag_163\n        /* \"#utility.yul\":7848:7852   */\n      dup2\n        /* \"#utility.yul\":7839:7845   */\n      dup5\n        /* \"#utility.yul\":7745:7853   */\n      tag_77\n      jump\t// in\n    tag_163:\n        /* \"#utility.yul\":7737:7853   */\n      swap1\n      pop\n        /* \"#utility.yul\":7487:7860   */\n      swap3\n      swap2\n      pop\n      pop\n      jump\t// out\n        /* \"#utility.yul\":7866:8195   */\n    tag_27:\n        /* \"#utility.yul\":7925:7931   */\n      0x00\n        /* \"#utility.yul\":7974:7976   */\n      0x20\n        /* \"#utility.yul\":7962:7971   */\n      dup3\n        /* \"#utility.yul\":7953:7960   */\n      dup5\n        /* \"#utility.yul\":7949:7972   */\n      sub\n        /* \"#utility.yul\":7945:7977   */\n      slt\n        /* \"#utility.yul\":7942:8061   */\n      iszero\n      tag_165\n      jumpi\n        /* \"#utility.yul\":7980:8059   */\n      tag_166\n      tag_59\n      jump\t// in\n    tag_166:\n        /* \"#utility.yul\":7942:8061   */\n    tag_165:\n        /* \"#utility.yul\":8100:8101   */\n      0x00\n        /* \"#utility.yul\":8125:8178   */\n      tag_167\n        /* \"#utility.yul\":8170:8177   */\n      dup5\n        /* \"#utility.yul\":8161:8167   */\n      dup3\n        /* \"#utility.yul\":8150:8159   */\n      dup6\n        /* \"#utility.yul\":8146:8168   */\n      add\n        /* \"#utility.yul\":8125:8178   */\n      tag_68\n      jump\t// in\n    tag_167:\n        /* \"#utility.yul\":8115:8178   */\n      swap2\n      pop\n        /* \"#utility.yul\":8071:8188   */\n      pop\n        /* \"#utility.yul\":7866:8195   */\n      swap3\n      swap2\n      pop\n      pop\n      jump\t// out\n        /* \"#utility.yul\":8201:8423   */\n    tag_30:\n        /* \"#utility.yul\":8294:8298   */\n      0x00\n        /* \"#utility.yul\":8332:8334   */\n      0x20\n        /* \"#utility.yul\":8321:8330   */\n      dup3\n        /* \"#utility.yul\":8317:8335   */\n      add\n        /* \"#utility.yul\":8309:8335   */\n      swap1\n      pop\n        /* \"#utility.yul\":8345:8416   */\n      tag_169\n        /* \"#utility.yul\":8413:8414   */\n      0x00\n        /* \"#utility.yul\":8402:8411   */\n      dup4\n        /* \"#utility.yul\":8398:8415   */\n      add\n        /* \"#utility.yul\":8389:8395   */\n      dup5\n        /* \"#utility.yul\":8345:8416   */\n      tag_50\n      jump\t// in\n    tag_169:\n        /* \"#utility.yul\":8201:8423   */\n      swap3\n      swap2\n      pop\n      pop\n      jump\t// out\n        /* \"#utility.yul\":8429:9081   */\n    tag_34:\n        /* \"#utility.yul\":8628:8632   */\n      0x00\n        /* \"#utility.yul\":8666:8669   */\n      0xa0\n        /* \"#utility.yul\":8655:8664   */\n      dup3\n        /* \"#utility.yul\":8651:8670   */\n      add\n        /* \"#utility.yul\":8643:8670   */\n      swap1\n      pop\n        /* \"#utility.yul\":8680:8751   */\n      tag_171\n        /* \"#utility.yul\":8748:8749   */\n      0x00\n        /* \"#utility.yul\":8737:8746   */\n      dup4\n        /* \"#utility.yul\":8733:8750   */\n      add\n        /* \"#utility.yul\":8724:8730   */\n      dup9\n        /* \"#utility.yul\":8680:8751   */\n      tag_50\n      jump\t// in\n    tag_171:\n        /* \"#utility.yul\":8761:8827   */\n      tag_172\n        /* \"#utility.yul\":8823:8825   */\n      0x20\n        /* \"#utility.yul\":8812:8821   */\n      dup4\n        /* \"#utility.yul\":8808:8826   */\n      add\n        /* \"#utility.yul\":8799:8805   */\n      dup8\n        /* \"#utility.yul\":8761:8827   */\n      tag_57\n      jump\t// in\n    tag_172:\n        /* \"#utility.yul\":8837:8909   */\n      tag_173\n        /* \"#utility.yul\":8905:8907   */\n      0x40\n        /* \"#utility.yul\":8894:8903   */\n      dup4\n        /* \"#utility.yul\":8890:8908   */\n      add\n        /* \"#utility.yul\":8881:8887   */\n      dup7\n        /* \"#utility.yul\":8837:8909   */\n      tag_50\n      jump\t// in\n    tag_173:\n        /* \"#utility.yul\":8919:8991   */\n      tag_174\n        /* \"#utility.yul\":8987:8989   */\n      0x60\n        /* \"#utility.yul\":8976:8985   */\n      dup4\n        /* \"#utility.yul\":8972:8990   */\n      add\n        /* \"#utility.yul\":8963:8969   */\n      dup6\n        /* \"#utility.yul\":8919:8991   */\n      tag_50\n      jump\t// in\n    tag_174:\n        /* \"#utility.yul\":9001:9074   */\n      tag_175\n        /* \"#utility.yul\":9069:9072   */\n      0x80\n        /* \"#utility.yul\":9058:9067   */\n      dup4\n        /* \"#utility.yul\":9054:9073   */\n      add\n        /* \"#utility.yul\":9045:9051   */\n      dup5\n        /* \"#utility.yul\":9001:9074   */\n      tag_50\n      jump\t// in\n    tag_175:\n        /* \"#utility.yul\":8429:9081   */\n      swap7\n      swap6\n      pop\n      pop\n      pop\n      pop\n      pop\n      pop\n      jump\t// out\n        /* \"#utility.yul\":9087:9267   */\n    tag_40:\n        /* \"#utility.yul\":9135:9212   */\n      0x4e487b7100000000000000000000000000000000000000000000000000000000\n        /* \"#utility.yul\":9132:9133   */\n      0x00\n        /* \"#utility.yul\":9125:9213   */\n      mstore\n        /* \"#utility.yul\":9232:9236   */\n      0x32\n        /* \"#utility.yul\":9229:9230   */\n      0x04\n        /* \"#utility.yul\":9222:9237   */\n      mstore\n        /* \"#utility.yul\":9256:9260   */\n      0x24\n        /* \"#utility.yul\":9253:9254   */\n      0x00\n        /* \"#utility.yul\":9246:9261   */\n      revert\n\n    auxdata: 0xa264697066735822122077f9b90f62f2f7549cf21690aac9aa6c85ed1d3432f532b06f4fb8836425c93464736f6c63430008120033\n}\n",
				"bytecode": {
					"linkReferences": {},
					"object": "608060405234801561001057600080fd5b50610781806100206000396000f3fe608060405234801561001057600080fd5b50600436106100625760003560e01c8063056da048146100675780632093fd93146100875780633043d5e6146100a75780636428b262146100c357806371e5ee5f146100e1578063b9031a1b14610111575b600080fd5b61006f610133565b60405161007e9392919061035b565b60405180910390f35b61008f61017e565b60405161009e93929190610399565b60405180910390f35b6100c160048036038101906100bc9190610558565b610194565b005b6100cb6101db565b6040516100d8919061065f565b60405180910390f35b6100fb60048036038101906100f69190610681565b610233565b60405161010891906106ae565b60405180910390f35b610119610257565b60405161012a9594939291906106c9565b60405180910390f35b600060606000600292506040518060400160405280600481526020017f616d616e00000000000000000000000000000000000000000000000000000000815250915060019050909192565b6000806000600260016004925092509250909192565b6000816000815181106101aa576101a961071c565b5b6020026020010151908060018154018082558091505060019003906000526020600020016000909190919091505550565b6060600080548060200260200160405190810160405280929190818152602001828054801561022957602002820191906000526020600020905b815481526020019060010190808311610215575b5050505050905090565b6000818154811061024357600080fd5b906000526020600020016000915090505481565b60008060008060008060008061026b61017e565b925092509250600080600360059150915084848484849950995099509950995050505050509091929394565b6000819050919050565b6102aa81610297565b82525050565b600081519050919050565b600082825260208201905092915050565b60005b838110156102ea5780820151818401526020810190506102cf565b60008484015250505050565b6000601f19601f8301169050919050565b6000610312826102b0565b61031c81856102bb565b935061032c8185602086016102cc565b610335816102f6565b840191505092915050565b60008115159050919050565b61035581610340565b82525050565b600060608201905061037060008301866102a1565b81810360208301526103828185610307565b9050610391604083018461034c565b949350505050565b60006060820190506103ae60008301866102a1565b6103bb602083018561034c565b6103c860408301846102a1565b949350505050565b6000604051905090565b600080fd5b600080fd5b600080fd5b7f4e487b7100000000000000000000000000000000000000000000000000000000600052604160045260246000fd5b610421826102f6565b810181811067ffffffffffffffff821117156104405761043f6103e9565b5b80604052505050565b60006104536103d0565b905061045f8282610418565b919050565b600067ffffffffffffffff82111561047f5761047e6103e9565b5b602082029050602081019050919050565b600080fd5b61049e81610297565b81146104a957600080fd5b50565b6000813590506104bb81610495565b92915050565b60006104d46104cf84610464565b610449565b905080838252602082019050602084028301858111156104f7576104f6610490565b5b835b81811015610520578061050c88826104ac565b8452602084019350506020810190506104f9565b5050509392505050565b600082601f83011261053f5761053e6103e4565b5b813561054f8482602086016104c1565b91505092915050565b60006020828403121561056e5761056d6103da565b5b600082013567ffffffffffffffff81111561058c5761058b6103df565b5b6105988482850161052a565b91505092915050565b600081519050919050565b600082825260208201905092915050565b6000819050602082019050919050565b6105d681610297565b82525050565b60006105e883836105cd565b60208301905092915050565b6000602082019050919050565b600061060c826105a1565b61061681856105ac565b9350610621836105bd565b8060005b8381101561065257815161063988826105dc565b9750610644836105f4565b925050600181019050610625565b5085935050505092915050565b600060208201905081810360008301526106798184610601565b905092915050565b600060208284031215610697576106966103da565b5b60006106a5848285016104ac565b91505092915050565b60006020820190506106c360008301846102a1565b92915050565b600060a0820190506106de60008301886102a1565b6106eb602083018761034c565b6106f860408301866102a1565b61070560608301856102a1565b61071260808301846102a1565b9695505050505050565b7f4e487b7100000000000000000000000000000000000000000000000000000000600052603260045260246000fdfea264697066735822122077f9b90f62f2f7549cf21690aac9aa6c85ed1d3432f532b06f4fb8836425c93464736f6c63430008120033",
					"opcodes": "PUSH1 0x80 PUSH1 0x40 MSTORE CALLVALUE DUP1 ISZERO PUSH2 0x10 JUMPI PUSH1 0x0 DUP1 REVERT JUMPDEST POP PUSH2 0x781 DUP1 PUSH2 0x20 PUSH1 0x0 CODECOPY PUSH1 0x0 RETURN INVALID PUSH1 0x80 PUSH1 0x40 MSTORE CALLVALUE DUP1 ISZERO PUSH2 0x10 JUMPI PUSH1 0x0 DUP1 REVERT JUMPDEST POP PUSH1 0x4 CALLDATASIZE LT PUSH2 0x62 JUMPI PUSH1 0x0 CALLDATALOAD PUSH1 0xE0 SHR DUP1 PUSH4 0x56DA048 EQ PUSH2 0x67 JUMPI DUP1 PUSH4 0x2093FD93 EQ PUSH2 0x87 JUMPI DUP1 PUSH4 0x3043D5E6 EQ PUSH2 0xA7 JUMPI DUP1 PUSH4 0x6428B262 EQ PUSH2 0xC3 JUMPI DUP1 PUSH4 0x71E5EE5F EQ PUSH2 0xE1 JUMPI DUP1 PUSH4 0xB9031A1B EQ PUSH2 0x111 JUMPI JUMPDEST PUSH1 0x0 DUP1 REVERT JUMPDEST PUSH2 0x6F PUSH2 0x133 JUMP JUMPDEST PUSH1 0x40 MLOAD PUSH2 0x7E SWAP4 SWAP3 SWAP2 SWAP1 PUSH2 0x35B JUMP JUMPDEST PUSH1 0x40 MLOAD DUP1 SWAP2 SUB SWAP1 RETURN JUMPDEST PUSH2 0x8F PUSH2 0x17E JUMP JUMPDEST PUSH1 0x40 MLOAD PUSH2 0x9E SWAP4 SWAP3 SWAP2 SWAP1 PUSH2 0x399 JUMP JUMPDEST PUSH1 0x40 MLOAD DUP1 SWAP2 SUB SWAP1 RETURN JUMPDEST PUSH2 0xC1 PUSH1 0x4 DUP1 CALLDATASIZE SUB DUP2 ADD SWAP1 PUSH2 0xBC SWAP2 SWAP1 PUSH2 0x558 JUMP JUMPDEST PUSH2 0x194 JUMP JUMPDEST STOP JUMPDEST PUSH2 0xCB PUSH2 0x1DB JUMP JUMPDEST PUSH1 0x40 MLOAD PUSH2 0xD8 SWAP2 SWAP1 PUSH2 0x65F JUMP JUMPDEST PUSH1 0x40 MLOAD DUP1 SWAP2 SUB SWAP1 RETURN JUMPDEST PUSH2 0xFB PUSH1 0x4 DUP1 CALLDATASIZE SUB DUP2 ADD SWAP1 PUSH2 0xF6 SWAP2 SWAP1 PUSH2 0x681 JUMP JUMPDEST PUSH2 0x233 JUMP JUMPDEST PUSH1 0x40 MLOAD PUSH2 0x108 SWAP2 SWAP1 PUSH2 0x6AE JUMP JUMPDEST PUSH1 0x40 MLOAD DUP1 SWAP2 SUB SWAP1 RETURN JUMPDEST PUSH2 0x119 PUSH2 0x257 JUMP JUMPDEST PUSH1 0x40 MLOAD PUSH2 0x12A SWAP6 SWAP5 SWAP4 SWAP3 SWAP2 SWAP1 PUSH2 0x6C9 JUMP JUMPDEST PUSH1 0x40 MLOAD DUP1 SWAP2 SUB SWAP1 RETURN JUMPDEST PUSH1 0x0 PUSH1 0x60 PUSH1 0x0 PUSH1 0x2 SWAP3 POP PUSH1 0x40 MLOAD DUP1 PUSH1 0x40 ADD PUSH1 0x40 MSTORE DUP1 PUSH1 0x4 DUP2 MSTORE PUSH1 0x20 ADD PUSH32 0x616D616E00000000000000000000000000000000000000000000000000000000 DUP2 MSTORE POP SWAP2 POP PUSH1 0x1 SWAP1 POP SWAP1 SWAP2 SWAP3 JUMP JUMPDEST PUSH1 0x0 DUP1 PUSH1 0x0 PUSH1 0x2 PUSH1 0x1 PUSH1 0x4 SWAP3 POP SWAP3 POP SWAP3 POP SWAP1 SWAP2 SWAP3 JUMP JUMPDEST PUSH1 0x0 DUP2 PUSH1 0x0 DUP2 MLOAD DUP2 LT PUSH2 0x1AA JUMPI PUSH2 0x1A9 PUSH2 0x71C JUMP JUMPDEST JUMPDEST PUSH1 0x20 MUL PUSH1 0x20 ADD ADD MLOAD SWAP1 DUP1 PUSH1 0x1 DUP2 SLOAD ADD DUP1 DUP3 SSTORE DUP1 SWAP2 POP POP PUSH1 0x1 SWAP1 SUB SWAP1 PUSH1 0x0 MSTORE PUSH1 0x20 PUSH1 0x0 KECCAK256 ADD PUSH1 0x0 SWAP1 SWAP2 SWAP1 SWAP2 SWAP1 SWAP2 POP SSTORE POP JUMP JUMPDEST PUSH1 0x60 PUSH1 0x0 DUP1 SLOAD DUP1 PUSH1 0x20 MUL PUSH1 0x20 ADD PUSH1 0x40 MLOAD SWAP1 DUP2 ADD PUSH1 0x40 MSTORE DUP1 SWAP3 SWAP2 SWAP1 DUP2 DUP2 MSTORE PUSH1 0x20 ADD DUP3 DUP1 SLOAD DUP1 ISZERO PUSH2 0x229 JUMPI PUSH1 0x20 MUL DUP3 ADD SWAP2 SWAP1 PUSH1 0x0 MSTORE PUSH1 0x20 PUSH1 0x0 KECCAK256 SWAP1 JUMPDEST DUP2 SLOAD DUP2 MSTORE PUSH1 0x20 ADD SWAP1 PUSH1 0x1 ADD SWAP1 DUP1 DUP4 GT PUSH2 0x215 JUMPI JUMPDEST POP POP POP POP POP SWAP1 POP SWAP1 JUMP JUMPDEST PUSH1 0x0 DUP2 DUP2 SLOAD DUP2 LT PUSH2 0x243 JUMPI PUSH1 0x0 DUP1 REVERT JUMPDEST SWAP1 PUSH1 0x0 MSTORE PUSH1 0x20 PUSH1 0x0 KECCAK256 ADD PUSH1 0x0 SWAP2 POP SWAP1 POP SLOAD DUP2 JUMP JUMPDEST PUSH1 0x0 DUP1 PUSH1 0x0 DUP1 PUSH1 0x0 DUP1 PUSH1 0x0 DUP1 PUSH2 0x26B PUSH2 0x17E JUMP JUMPDEST SWAP3 POP SWAP3 POP SWAP3 POP PUSH1 0x0 DUP1 PUSH1 0x3 PUSH1 0x5 SWAP2 POP SWAP2 POP DUP5 DUP5 DUP5 DUP5 DUP5 SWAP10 POP SWAP10 POP SWAP10 POP SWAP10 POP SWAP10 POP POP POP POP POP POP SWAP1 SWAP2 SWAP3 SWAP4 SWAP5 JUMP JUMPDEST PUSH1 0x0 DUP2 SWAP1 POP SWAP2 SWAP1 POP JUMP JUMPDEST PUSH2 0x2AA DUP2 PUSH2 0x297 JUMP JUMPDEST DUP3 MSTORE POP POP JUMP JUMPDEST PUSH1 0x0 DUP2 MLOAD SWAP1 POP SWAP2 SWAP1 POP JUMP JUMPDEST PUSH1 0x0 DUP3 DUP3 MSTORE PUSH1 0x20 DUP3 ADD SWAP1 POP SWAP3 SWAP2 POP POP JUMP JUMPDEST PUSH1 0x0 JUMPDEST DUP4 DUP2 LT ISZERO PUSH2 0x2EA JUMPI DUP1 DUP3 ADD MLOAD DUP2 DUP5 ADD MSTORE PUSH1 0x20 DUP2 ADD SWAP1 POP PUSH2 0x2CF JUMP JUMPDEST PUSH1 0x0 DUP5 DUP5 ADD MSTORE POP POP POP POP JUMP JUMPDEST PUSH1 0x0 PUSH1 0x1F NOT PUSH1 0x1F DUP4 ADD AND SWAP1 POP SWAP2 SWAP1 POP JUMP JUMPDEST PUSH1 0x0 PUSH2 0x312 DUP3 PUSH2 0x2B0 JUMP JUMPDEST PUSH2 0x31C DUP2 DUP6 PUSH2 0x2BB JUMP JUMPDEST SWAP4 POP PUSH2 0x32C DUP2 DUP6 PUSH1 0x20 DUP7 ADD PUSH2 0x2CC JUMP JUMPDEST PUSH2 0x335 DUP2 PUSH2 0x2F6 JUMP JUMPDEST DUP5 ADD SWAP2 POP POP SWAP3 SWAP2 POP POP JUMP JUMPDEST PUSH1 0x0 DUP2 ISZERO ISZERO SWAP1 POP SWAP2 SWAP1 POP JUMP JUMPDEST PUSH2 0x355 DUP2 PUSH2 0x340 JUMP JUMPDEST DUP3 MSTORE POP POP JUMP JUMPDEST PUSH1 0x0 PUSH1 0x60 DUP3 ADD SWAP1 POP PUSH2 0x370 PUSH1 0x0 DUP4 ADD DUP7 PUSH2 0x2A1 JUMP JUMPDEST DUP2 DUP2 SUB PUSH1 0x20 DUP4 ADD MSTORE PUSH2 0x382 DUP2 DUP6 PUSH2 0x307 JUMP JUMPDEST SWAP1 POP PUSH2 0x391 PUSH1 0x40 DUP4 ADD DUP5 PUSH2 0x34C JUMP JUMPDEST SWAP5 SWAP4 POP POP POP POP JUMP JUMPDEST PUSH1 0x0 PUSH1 0x60 DUP3 ADD SWAP1 POP PUSH2 0x3AE PUSH1 0x0 DUP4 ADD DUP7 PUSH2 0x2A1 JUMP JUMPDEST PUSH2 0x3BB PUSH1 0x20 DUP4 ADD DUP6 PUSH2 0x34C JUMP JUMPDEST PUSH2 0x3C8 PUSH1 0x40 DUP4 ADD DUP5 PUSH2 0x2A1 JUMP JUMPDEST SWAP5 SWAP4 POP POP POP POP JUMP JUMPDEST PUSH1 0x0 PUSH1 0x40 MLOAD SWAP1 POP SWAP1 JUMP JUMPDEST PUSH1 0x0 DUP1 REVERT JUMPDEST PUSH1 0x0 DUP1 REVERT JUMPDEST PUSH1 0x0 DUP1 REVERT JUMPDEST PUSH32 0x4E487B7100000000000000000000000000000000000000000000000000000000 PUSH1 0x0 MSTORE PUSH1 0x41 PUSH1 0x4 MSTORE PUSH1 0x24 PUSH1 0x0 REVERT JUMPDEST PUSH2 0x421 DUP3 PUSH2 0x2F6 JUMP JUMPDEST DUP2 ADD DUP2 DUP2 LT PUSH8 0xFFFFFFFFFFFFFFFF DUP3 GT OR ISZERO PUSH2 0x440 JUMPI PUSH2 0x43F PUSH2 0x3E9 JUMP JUMPDEST JUMPDEST DUP1 PUSH1 0x40 MSTORE POP POP POP JUMP JUMPDEST PUSH1 0x0 PUSH2 0x453 PUSH2 0x3D0 JUMP JUMPDEST SWAP1 POP PUSH2 0x45F DUP3 DUP3 PUSH2 0x418 JUMP JUMPDEST SWAP2 SWAP1 POP JUMP JUMPDEST PUSH1 0x0 PUSH8 0xFFFFFFFFFFFFFFFF DUP3 GT ISZERO PUSH2 0x47F JUMPI PUSH2 0x47E PUSH2 0x3E9 JUMP JUMPDEST JUMPDEST PUSH1 0x20 DUP3 MUL SWAP1 POP PUSH1 0x20 DUP2 ADD SWAP1 POP SWAP2 SWAP1 POP JUMP JUMPDEST PUSH1 0x0 DUP1 REVERT JUMPDEST PUSH2 0x49E DUP2 PUSH2 0x297 JUMP JUMPDEST DUP2 EQ PUSH2 0x4A9 JUMPI PUSH1 0x0 DUP1 REVERT JUMPDEST POP JUMP JUMPDEST PUSH1 0x0 DUP2 CALLDATALOAD SWAP1 POP PUSH2 0x4BB DUP2 PUSH2 0x495 JUMP JUMPDEST SWAP3 SWAP2 POP POP JUMP JUMPDEST PUSH1 0x0 PUSH2 0x4D4 PUSH2 0x4CF DUP5 PUSH2 0x464 JUMP JUMPDEST PUSH2 0x449 JUMP JUMPDEST SWAP1 POP DUP1 DUP4 DUP3 MSTORE PUSH1 0x20 DUP3 ADD SWAP1 POP PUSH1 0x20 DUP5 MUL DUP4 ADD DUP6 DUP2 GT ISZERO PUSH2 0x4F7 JUMPI PUSH2 0x4F6 PUSH2 0x490 JUMP JUMPDEST JUMPDEST DUP4 JUMPDEST DUP2 DUP2 LT ISZERO PUSH2 0x520 JUMPI DUP1 PUSH2 0x50C DUP9 DUP3 PUSH2 0x4AC JUMP JUMPDEST DUP5 MSTORE PUSH1 0x20 DUP5 ADD SWAP4 POP POP PUSH1 0x20 DUP2 ADD SWAP1 POP PUSH2 0x4F9 JUMP JUMPDEST POP POP POP SWAP4 SWAP3 POP POP POP JUMP JUMPDEST PUSH1 0x0 DUP3 PUSH1 0x1F DUP4 ADD SLT PUSH2 0x53F JUMPI PUSH2 0x53E PUSH2 0x3E4 JUMP JUMPDEST JUMPDEST DUP2 CALLDATALOAD PUSH2 0x54F DUP5 DUP3 PUSH1 0x20 DUP7 ADD PUSH2 0x4C1 JUMP JUMPDEST SWAP2 POP POP SWAP3 SWAP2 POP POP JUMP JUMPDEST PUSH1 0x0 PUSH1 0x20 DUP3 DUP5 SUB SLT ISZERO PUSH2 0x56E JUMPI PUSH2 0x56D PUSH2 0x3DA JUMP JUMPDEST JUMPDEST PUSH1 0x0 DUP3 ADD CALLDATALOAD PUSH8 0xFFFFFFFFFFFFFFFF DUP2 GT ISZERO PUSH2 0x58C JUMPI PUSH2 0x58B PUSH2 0x3DF JUMP JUMPDEST JUMPDEST PUSH2 0x598 DUP5 DUP3 DUP6 ADD PUSH2 0x52A JUMP JUMPDEST SWAP2 POP POP SWAP3 SWAP2 POP POP JUMP JUMPDEST PUSH1 0x0 DUP2 MLOAD SWAP1 POP SWAP2 SWAP1 POP JUMP JUMPDEST PUSH1 0x0 DUP3 DUP3 MSTORE PUSH1 0x20 DUP3 ADD SWAP1 POP SWAP3 SWAP2 POP POP JUMP JUMPDEST PUSH1 0x0 DUP2 SWAP1 POP PUSH1 0x20 DUP3 ADD SWAP1 POP SWAP2 SWAP1 POP JUMP JUMPDEST PUSH2 0x5D6 DUP2 PUSH2 0x297 JUMP JUMPDEST DUP3 MSTORE POP POP JUMP JUMPDEST PUSH1 0x0 PUSH2 0x5E8 DUP4 DUP4 PUSH2 0x5CD JUMP JUMPDEST PUSH1 0x20 DUP4 ADD SWAP1 POP SWAP3 SWAP2 POP POP JUMP JUMPDEST PUSH1 0x0 PUSH1 0x20 DUP3 ADD SWAP1 POP SWAP2 SWAP1 POP JUMP JUMPDEST PUSH1 0x0 PUSH2 0x60C DUP3 PUSH2 0x5A1 JUMP JUMPDEST PUSH2 0x616 DUP2 DUP6 PUSH2 0x5AC JUMP JUMPDEST SWAP4 POP PUSH2 0x621 DUP4 PUSH2 0x5BD JUMP JUMPDEST DUP1 PUSH1 0x0 JUMPDEST DUP4 DUP2 LT ISZERO PUSH2 0x652 JUMPI DUP2 MLOAD PUSH2 0x639 DUP9 DUP3 PUSH2 0x5DC JUMP JUMPDEST SWAP8 POP PUSH2 0x644 DUP4 PUSH2 0x5F4 JUMP JUMPDEST SWAP3 POP POP PUSH1 0x1 DUP2 ADD SWAP1 POP PUSH2 0x625 JUMP JUMPDEST POP DUP6 SWAP4 POP POP POP POP SWAP3 SWAP2 POP POP JUMP JUMPDEST PUSH1 0x0 PUSH1 0x20 DUP3 ADD SWAP1 POP DUP2 DUP2 SUB PUSH1 0x0 DUP4 ADD MSTORE PUSH2 0x679 DUP2 DUP5 PUSH2 0x601 JUMP JUMPDEST SWAP1 POP SWAP3 SWAP2 POP POP JUMP JUMPDEST PUSH1 0x0 PUSH1 0x20 DUP3 DUP5 SUB SLT ISZERO PUSH2 0x697 JUMPI PUSH2 0x696 PUSH2 0x3DA JUMP JUMPDEST JUMPDEST PUSH1 0x0 PUSH2 0x6A5 DUP5 DUP3 DUP6 ADD PUSH2 0x4AC JUMP JUMPDEST SWAP2 POP POP SWAP3 SWAP2 POP POP JUMP JUMPDEST PUSH1 0x0 PUSH1 0x20 DUP3 ADD SWAP1 POP PUSH2 0x6C3 PUSH1 0x0 DUP4 ADD DUP5 PUSH2 0x2A1 JUMP JUMPDEST SWAP3 SWAP2 POP POP JUMP JUMPDEST PUSH1 0x0 PUSH1 0xA0 DUP3 ADD SWAP1 POP PUSH2 0x6DE PUSH1 0x0 DUP4 ADD DUP9 PUSH2 0x2A1 JUMP JUMPDEST PUSH2 0x6EB PUSH1 0x20 DUP4 ADD DUP8 PUSH2 0x34C JUMP JUMPDEST PUSH2 0x6F8 PUSH1 0x40 DUP4 ADD DUP7 PUSH2 0x2A1 JUMP JUMPDEST PUSH2 0x705 PUSH1 0x60 DUP4 ADD DUP6 PUSH2 0x2A1 JUMP JUMPDEST PUSH2 0x712 PUSH1 0x80 DUP4 ADD DUP5 PUSH2 0x2A1 JUMP JUMPDEST SWAP7 SWAP6 POP POP POP POP POP POP JUMP JUMPDEST PUSH32 0x4E487B7100000000000000000000000000000000000000000000000000000000 PUSH1 0x0 MSTORE PUSH1 0x32 PUSH1 0x4 MSTORE PUSH1 0x24 PUSH1 0x0 REVERT INVALID LOG2 PUSH5 0x6970667358 0x22 SLT KECCAK256 PUSH24 0xF9B90F62F2F7549CF21690AAC9AA6C85ED1D3432F532B06F 0x4F 0xB8 DUP4 PUSH5 0x25C9346473 PUSH16 0x6C634300081200330000000000000000 "
				},
				"gasEstimates": {
					"creation": {
						"codeDepositCost": "384200",
						"executionCost": "424",
						"totalCost": "384624"
					},
					"external": {
						"arr(uint256)": "infinite",
						"arrayinput(uint256[])": "infinite",
						"arrayoutput()": "infinite",
						"destructuringassignments()": "infinite",
						"names()": "infinite",
						"returnmany()": "infinite"
					}
				},
				"methodIdentifiers": {
					"arr(uint256)": "71e5ee5f",
					"arrayinput(uint256[])": "3043d5e6",
					"arrayoutput()": "6428b262",
					"destructuringassignments()": "b9031a1b",
					"names()": "056da048",
					"returnmany()": "2093fd93"
				}
			},
			"storageLayout": {
				"storage": [
					{
						"astId": 84,
						"contract": "contracts/function part2.sol:functionuse",
						"label": "arr",
						"offset": 0,
						"slot": "0",
						"type": "t_array(t_uint256)dyn_storage"
					}
				],
				"types": {
					"t_array(t_uint256)dyn_storage": {
						"base": "t_uint256",
						"encoding": "dynamic_array",
						"label": "uint256[]",
						"numberOfBytes": "32"
					},
					"t_uint256": {
						"encoding": "inplace",
						"label": "uint256",
						"numberOfBytes": "32"
					}
				}
			},
			"userdoc": {
				"kind": "user",
				"methods": {},
				"version": 1
			}
		}
	}
}