{
	"contracts/function part2.sol": {
		"functionuse": {
			"abi": [
				{
					"inputs": [
						{
							"internalType": "uint256",
							"name": "",
							"type": "uint256"
						}
					],
					"name": "arr",
					"outputs": [
						{
							"internalType": "uint256",
							"name": "",
							"type": "uint256"
						}
					],
					"stateMutability": "view",
					"type": "function"
				},
				{
					"inputs": [
						{
							"internalType": "uint256",
							"name": "_value",
							"type": "uint256"
						}
					],
					"name": "arrayinput",
					"outputs": [],
					"stateMutability": "nonpayable",
					"type": "function"
				},
				{
					"inputs": [],
					"name": "arrayoutput",
					"outputs": [
						{
							"internalType": "uint256[]",
							"name": "",
							"type": "uint256[]"
						}
					],
					"stateMutability": "view",
					"type": "function"
				},
				{
					"inputs": [],
					"name": "destructuringassignments",
					"outputs": [
						{
							"internalType": "uint256",
							"name": "",
							"type": "uint256"
						},
						{
							"internalType": "bool",
							"name": "",
							"type": "bool"
						},
						{
							"internalType": "uint256",
							"name": "",
							"type": "uint256"
						},
						{
							"internalType": "uint256",
							"name": "",
							"type": "uint256"
						},
						{
							"internalType": "uint256",
							"name": "",
							"type": "uint256"
						}
					],
					"stateMutability": "pure",
					"type": "function"
				},
				{
					"inputs": [],
					"name": "names",
					"outputs": [
						{
							"internalType": "uint256",
							"name": "x",
							"type": "uint256"
						},
						{
							"internalType": "string",
							"name": "y",
							"type": "string"
						},
						{
							"internalType": "bool",
							"name": "z",
							"type": "bool"
						}
					],
					"stateMutability": "pure",
					"type": "function"
				},
				{
					"inputs": [],
					"name": "returnmany",
					"outputs": [
						{
							"internalType": "uint256",
							"name": "",
							"type": "uint256"
						},
						{
							"internalType": "bool",
							"name": "",
							"type": "bool"
						},
						{
							"internalType": "uint256",
							"name": "",
							"type": "uint256"
						}
					],
					"stateMutability": "pure",
					"type": "function"
				}
			],
			"devdoc": {
				"kind": "dev",
				"methods": {},
				"version": 1
			},
			"evm": {
				"assembly": "    /* \"contracts/function part2.sol\":61:1481  contract functionuse{... */\n  mstore(0x40, 0x80)\n    /* \"contracts/function part2.sol\":1133:1163  uint[]  public arr=[23 , 4, 5] */\n  mload(0x40)\n  dup1\n  0x60\n  add\n  0x40\n  mstore\n  dup1\n    /* \"contracts/function part2.sol\":1153:1155  23 */\n  0x17\n    /* \"contracts/function part2.sol\":1133:1163  uint[]  public arr=[23 , 4, 5] */\n  0xff\n  and\n  dup2\n  mstore\n  0x20\n  add\n    /* \"contracts/function part2.sol\":1158:1159  4 */\n  0x04\n    /* \"contracts/function part2.sol\":1133:1163  uint[]  public arr=[23 , 4, 5] */\n  0xff\n  and\n  dup2\n  mstore\n  0x20\n  add\n    /* \"contracts/function part2.sol\":1161:1162  5 */\n  0x05\n    /* \"contracts/function part2.sol\":1133:1163  uint[]  public arr=[23 , 4, 5] */\n  0xff\n  and\n  dup2\n  mstore\n  pop\n  0x00\n  swap1\n  0x03\n  tag_1\n  swap3\n  swap2\n  swap1\n  tag_2\n  jump\t// in\ntag_1:\n  pop\n    /* \"contracts/function part2.sol\":61:1481  contract functionuse{... */\n  callvalue\n  dup1\n  iszero\n  tag_3\n  jumpi\n  0x00\n  dup1\n  revert\ntag_3:\n  pop\n  jump(tag_4)\ntag_2:\n  dup3\n  dup1\n  sload\n  dup3\n  dup3\n  sstore\n  swap1\n  0x00\n  mstore\n  keccak256(0x00, 0x20)\n  swap1\n  dup2\n  add\n  swap3\n  dup3\n  iszero\n  tag_5\n  jumpi\n  swap2\n  0x20\n  mul\n  dup3\n  add\ntag_6:\n  dup3\n  dup2\n  gt\n  iszero\n  tag_7\n  jumpi\n  dup3\n  mload\n  dup3\n  swap1\n  0xff\n  and\n  swap1\n  sstore\n  swap2\n  0x20\n  add\n  swap2\n  swap1\n  0x01\n  add\n  swap1\n  jump(tag_6)\ntag_7:\ntag_5:\n  pop\n  swap1\n  pop\n  tag_8\n  swap2\n  swap1\n  tag_9\n  jump\t// in\ntag_8:\n  pop\n  swap1\n  jump\t// out\ntag_9:\ntag_10:\n  dup1\n  dup3\n  gt\n  iszero\n  tag_11\n  jumpi\n  0x00\n  dup2\n  0x00\n  swap1\n  sstore\n  pop\n  0x01\n  add\n  jump(tag_10)\ntag_11:\n  pop\n  swap1\n  jump\t// out\ntag_4:\n  dataSize(sub_0)\n  dup1\n  dataOffset(sub_0)\n  0x00\n  codecopy\n  0x00\n  return\nstop\n\nsub_0: assembly {\n        /* \"contracts/function part2.sol\":61:1481  contract functionuse{... */\n      mstore(0x40, 0x80)\n      callvalue\n      dup1\n      iszero\n      tag_1\n      jumpi\n      0x00\n      dup1\n      revert\n    tag_1:\n      pop\n      jumpi(tag_2, lt(calldatasize, 0x04))\n      shr(0xe0, calldataload(0x00))\n      dup1\n      0x056da048\n      eq\n      tag_3\n      jumpi\n      dup1\n      0x1be1e6c7\n      eq\n      tag_4\n      jumpi\n      dup1\n      0x2093fd93\n      eq\n      tag_5\n      jumpi\n      dup1\n      0x6428b262\n      eq\n      tag_6\n      jumpi\n      dup1\n      0x71e5ee5f\n      eq\n      tag_7\n      jumpi\n      dup1\n      0xb9031a1b\n      eq\n      tag_8\n      jumpi\n    tag_2:\n      0x00\n      dup1\n      revert\n        /* \"contracts/function part2.sol\":283:436  function names() public pure returns (uint x, string memory y, bool z){... */\n    tag_3:\n      tag_9\n      tag_10\n      jump\t// in\n    tag_9:\n      mload(0x40)\n      tag_11\n      swap4\n      swap3\n      swap2\n      swap1\n      tag_12\n      jump\t// in\n    tag_11:\n      mload(0x40)\n      dup1\n      swap2\n      sub\n      swap1\n      return\n        /* \"contracts/function part2.sol\":1170:1250  function arrayinput(uint256 _value) public {... */\n    tag_4:\n      tag_13\n      0x04\n      dup1\n      calldatasize\n      sub\n      dup2\n      add\n      swap1\n      tag_14\n      swap2\n      swap1\n      tag_15\n      jump\t// in\n    tag_14:\n      tag_16\n      jump\t// in\n    tag_13:\n      stop\n        /* \"contracts/function part2.sol\":134:228  function returnmany() public pure returns (uint,bool,uint){... */\n    tag_5:\n      tag_17\n      tag_18\n      jump\t// in\n    tag_17:\n      mload(0x40)\n      tag_19\n      swap4\n      swap3\n      swap2\n      swap1\n      tag_20\n      jump\t// in\n    tag_19:\n      mload(0x40)\n      dup1\n      swap2\n      sub\n      swap1\n      return\n        /* \"contracts/function part2.sol\":1389:1476  function arrayoutput() public view returns (uint[] memory){... */\n    tag_6:\n      tag_21\n      tag_22\n      jump\t// in\n    tag_21:\n      mload(0x40)\n      tag_23\n      swap2\n      swap1\n      tag_24\n      jump\t// in\n    tag_23:\n      mload(0x40)\n      dup1\n      swap2\n      sub\n      swap1\n      return\n        /* \"contracts/function part2.sol\":1133:1163  uint[]  public arr=[23 , 4, 5] */\n    tag_7:\n      tag_25\n      0x04\n      dup1\n      calldatasize\n      sub\n      dup2\n      add\n      swap1\n      tag_26\n      swap2\n      swap1\n      tag_15\n      jump\t// in\n    tag_26:\n      tag_27\n      jump\t// in\n    tag_25:\n      mload(0x40)\n      tag_28\n      swap2\n      swap1\n      tag_29\n      jump\t// in\n    tag_28:\n      mload(0x40)\n      dup1\n      swap2\n      sub\n      swap1\n      return\n        /* \"contracts/function part2.sol\":483:720  function destructuringassignments() public pure returns (uint,bool,uint,uint,uint){... */\n    tag_8:\n      tag_30\n      tag_31\n      jump\t// in\n    tag_30:\n      mload(0x40)\n      tag_32\n      swap6\n      swap5\n      swap4\n      swap3\n      swap2\n      swap1\n      tag_33\n      jump\t// in\n    tag_32:\n      mload(0x40)\n      dup1\n      swap2\n      sub\n      swap1\n      return\n        /* \"contracts/function part2.sol\":283:436  function names() public pure returns (uint x, string memory y, bool z){... */\n    tag_10:\n        /* \"contracts/function part2.sol\":321:327  uint x */\n      0x00\n        /* \"contracts/function part2.sol\":329:344  string memory y */\n      0x60\n        /* \"contracts/function part2.sol\":346:352  bool z */\n      0x00\n        /* \"contracts/function part2.sol\":366:367  2 */\n      0x02\n        /* \"contracts/function part2.sol\":364:367  x=2 */\n      swap3\n      pop\n        /* \"contracts/function part2.sol\":378:386  y=\"aman\" */\n      mload(0x40)\n      dup1\n      0x40\n      add\n      0x40\n      mstore\n      dup1\n      0x04\n      dup2\n      mstore\n      0x20\n      add\n      0x616d616e00000000000000000000000000000000000000000000000000000000\n      dup2\n      mstore\n      pop\n      swap2\n      pop\n        /* \"contracts/function part2.sol\":399:403  true */\n      0x01\n        /* \"contracts/function part2.sol\":397:403  z=true */\n      swap1\n      pop\n        /* \"contracts/function part2.sol\":283:436  function names() public pure returns (uint x, string memory y, bool z){... */\n      swap1\n      swap2\n      swap3\n      jump\t// out\n        /* \"contracts/function part2.sol\":1170:1250  function arrayinput(uint256 _value) public {... */\n    tag_16:\n        /* \"contracts/function part2.sol\":1224:1227  arr */\n      0x00\n        /* \"contracts/function part2.sol\":1233:1239  _value */\n      dup2\n        /* \"contracts/function part2.sol\":1224:1240  arr.push(_value) */\n      swap1\n      dup1\n      0x01\n      dup2\n      sload\n      add\n      dup1\n      dup3\n      sstore\n      dup1\n      swap2\n      pop\n      pop\n      0x01\n      swap1\n      sub\n      swap1\n      0x00\n      mstore\n      keccak256(0x00, 0x20)\n      add\n      0x00\n      swap1\n      swap2\n      swap1\n      swap2\n      swap1\n      swap2\n      pop\n      sstore\n        /* \"contracts/function part2.sol\":1170:1250  function arrayinput(uint256 _value) public {... */\n      pop\n      jump\t// out\n        /* \"contracts/function part2.sol\":134:228  function returnmany() public pure returns (uint,bool,uint){... */\n    tag_18:\n        /* \"contracts/function part2.sol\":177:181  uint */\n      0x00\n        /* \"contracts/function part2.sol\":182:186  bool */\n      dup1\n        /* \"contracts/function part2.sol\":187:191  uint */\n      0x00\n        /* \"contracts/function part2.sol\":211:212  2 */\n      0x02\n        /* \"contracts/function part2.sol\":213:217  true */\n      0x01\n        /* \"contracts/function part2.sol\":218:219  4 */\n      0x04\n        /* \"contracts/function part2.sol\":203:220  return (2,true,4) */\n      swap3\n      pop\n      swap3\n      pop\n      swap3\n      pop\n        /* \"contracts/function part2.sol\":134:228  function returnmany() public pure returns (uint,bool,uint){... */\n      swap1\n      swap2\n      swap3\n      jump\t// out\n        /* \"contracts/function part2.sol\":1389:1476  function arrayoutput() public view returns (uint[] memory){... */\n    tag_22:\n        /* \"contracts/function part2.sol\":1433:1446  uint[] memory */\n      0x60\n        /* \"contracts/function part2.sol\":1465:1468  arr */\n      0x00\n        /* \"contracts/function part2.sol\":1458:1468  return arr */\n      dup1\n      sload\n      dup1\n      0x20\n      mul\n      0x20\n      add\n      mload(0x40)\n      swap1\n      dup2\n      add\n      0x40\n      mstore\n      dup1\n      swap3\n      swap2\n      swap1\n      dup2\n      dup2\n      mstore\n      0x20\n      add\n      dup3\n      dup1\n      sload\n      dup1\n      iszero\n      tag_39\n      jumpi\n      0x20\n      mul\n      dup3\n      add\n      swap2\n      swap1\n      0x00\n      mstore\n      keccak256(0x00, 0x20)\n      swap1\n    tag_40:\n      dup2\n      sload\n      dup2\n      mstore\n      0x20\n      add\n      swap1\n      0x01\n      add\n      swap1\n      dup1\n      dup4\n      gt\n      tag_40\n      jumpi\n    tag_39:\n      pop\n      pop\n      pop\n      pop\n      pop\n      swap1\n      pop\n        /* \"contracts/function part2.sol\":1389:1476  function arrayoutput() public view returns (uint[] memory){... */\n      swap1\n      jump\t// out\n        /* \"contracts/function part2.sol\":1133:1163  uint[]  public arr=[23 , 4, 5] */\n    tag_27:\n      0x00\n      dup2\n      dup2\n      sload\n      dup2\n      lt\n      tag_41\n      jumpi\n      0x00\n      dup1\n      revert\n    tag_41:\n      swap1\n      0x00\n      mstore\n      keccak256(0x00, 0x20)\n      add\n      0x00\n      swap2\n      pop\n      swap1\n      pop\n      sload\n      dup2\n      jump\t// out\n        /* \"contracts/function part2.sol\":483:720  function destructuringassignments() public pure returns (uint,bool,uint,uint,uint){... */\n    tag_31:\n        /* \"contracts/function part2.sol\":540:544  uint */\n      0x00\n        /* \"contracts/function part2.sol\":545:549  bool */\n      dup1\n        /* \"contracts/function part2.sol\":550:554  uint */\n      0x00\n        /* \"contracts/function part2.sol\":555:559  uint */\n      dup1\n        /* \"contracts/function part2.sol\":560:564  uint */\n      0x00\n        /* \"contracts/function part2.sol\":577:583  uint i */\n      dup1\n        /* \"contracts/function part2.sol\":585:591  bool b */\n      0x00\n        /* \"contracts/function part2.sol\":593:599  uint j */\n      dup1\n        /* \"contracts/function part2.sol\":604:616  returnmany() */\n      tag_44\n        /* \"contracts/function part2.sol\":604:614  returnmany */\n      tag_18\n        /* \"contracts/function part2.sol\":604:616  returnmany() */\n      jump\t// in\n    tag_44:\n        /* \"contracts/function part2.sol\":576:616  (uint i, bool b, uint j)  = returnmany() */\n      swap3\n      pop\n      swap3\n      pop\n      swap3\n      pop\n        /* \"contracts/function part2.sol\":659:665  uint x */\n      0x00\n        /* \"contracts/function part2.sol\":667:673  uint y */\n      dup1\n        /* \"contracts/function part2.sol\":676:677  3 */\n      0x03\n        /* \"contracts/function part2.sol\":678:679  5 */\n      0x05\n        /* \"contracts/function part2.sol\":658:680  (uint x, uint y)=(3,5) */\n      swap2\n      pop\n      swap2\n      pop\n        /* \"contracts/function part2.sol\":699:700  i */\n      dup5\n        /* \"contracts/function part2.sol\":702:703  b */\n      dup5\n        /* \"contracts/function part2.sol\":705:706  j */\n      dup5\n        /* \"contracts/function part2.sol\":708:709  x */\n      dup5\n        /* \"contracts/function part2.sol\":710:711  y */\n      dup5\n        /* \"contracts/function part2.sol\":691:712  return (i, b, j, x,y) */\n      swap10\n      pop\n      swap10\n      pop\n      swap10\n      pop\n      swap10\n      pop\n      swap10\n      pop\n      pop\n      pop\n      pop\n      pop\n      pop\n        /* \"contracts/function part2.sol\":483:720  function destructuringassignments() public pure returns (uint,bool,uint,uint,uint){... */\n      swap1\n      swap2\n      swap3\n      swap4\n      swap5\n      jump\t// out\n        /* \"#utility.yul\":7:84   */\n    tag_45:\n        /* \"#utility.yul\":44:51   */\n      0x00\n        /* \"#utility.yul\":73:78   */\n      dup2\n        /* \"#utility.yul\":62:78   */\n      swap1\n      pop\n        /* \"#utility.yul\":7:84   */\n      swap2\n      swap1\n      pop\n      jump\t// out\n        /* \"#utility.yul\":90:208   */\n    tag_46:\n        /* \"#utility.yul\":177:201   */\n      tag_69\n        /* \"#utility.yul\":195:200   */\n      dup2\n        /* \"#utility.yul\":177:201   */\n      tag_45\n      jump\t// in\n    tag_69:\n        /* \"#utility.yul\":172:175   */\n      dup3\n        /* \"#utility.yul\":165:202   */\n      mstore\n        /* \"#utility.yul\":90:208   */\n      pop\n      pop\n      jump\t// out\n        /* \"#utility.yul\":214:313   */\n    tag_47:\n        /* \"#utility.yul\":266:272   */\n      0x00\n        /* \"#utility.yul\":300:305   */\n      dup2\n        /* \"#utility.yul\":294:306   */\n      mload\n        /* \"#utility.yul\":284:306   */\n      swap1\n      pop\n        /* \"#utility.yul\":214:313   */\n      swap2\n      swap1\n      pop\n      jump\t// out\n        /* \"#utility.yul\":319:488   */\n    tag_48:\n        /* \"#utility.yul\":403:414   */\n      0x00\n        /* \"#utility.yul\":437:443   */\n      dup3\n        /* \"#utility.yul\":432:435   */\n      dup3\n        /* \"#utility.yul\":425:444   */\n      mstore\n        /* \"#utility.yul\":477:481   */\n      0x20\n        /* \"#utility.yul\":472:475   */\n      dup3\n        /* \"#utility.yul\":468:482   */\n      add\n        /* \"#utility.yul\":453:482   */\n      swap1\n      pop\n        /* \"#utility.yul\":319:488   */\n      swap3\n      swap2\n      pop\n      pop\n      jump\t// out\n        /* \"#utility.yul\":494:740   */\n    tag_49:\n        /* \"#utility.yul\":575:576   */\n      0x00\n        /* \"#utility.yul\":585:698   */\n    tag_73:\n        /* \"#utility.yul\":599:605   */\n      dup4\n        /* \"#utility.yul\":596:597   */\n      dup2\n        /* \"#utility.yul\":593:606   */\n      lt\n        /* \"#utility.yul\":585:698   */\n      iszero\n      tag_75\n      jumpi\n        /* \"#utility.yul\":684:685   */\n      dup1\n        /* \"#utility.yul\":679:682   */\n      dup3\n        /* \"#utility.yul\":675:686   */\n      add\n        /* \"#utility.yul\":669:687   */\n      mload\n        /* \"#utility.yul\":665:666   */\n      dup2\n        /* \"#utility.yul\":660:663   */\n      dup5\n        /* \"#utility.yul\":656:667   */\n      add\n        /* \"#utility.yul\":649:688   */\n      mstore\n        /* \"#utility.yul\":621:623   */\n      0x20\n        /* \"#utility.yul\":618:619   */\n      dup2\n        /* \"#utility.yul\":614:624   */\n      add\n        /* \"#utility.yul\":609:624   */\n      swap1\n      pop\n        /* \"#utility.yul\":585:698   */\n      jump(tag_73)\n    tag_75:\n        /* \"#utility.yul\":732:733   */\n      0x00\n        /* \"#utility.yul\":723:729   */\n      dup5\n        /* \"#utility.yul\":718:721   */\n      dup5\n        /* \"#utility.yul\":714:730   */\n      add\n        /* \"#utility.yul\":707:734   */\n      mstore\n        /* \"#utility.yul\":556:740   */\n      pop\n        /* \"#utility.yul\":494:740   */\n      pop\n      pop\n      pop\n      jump\t// out\n        /* \"#utility.yul\":746:848   */\n    tag_50:\n        /* \"#utility.yul\":787:793   */\n      0x00\n        /* \"#utility.yul\":838:840   */\n      0x1f\n        /* \"#utility.yul\":834:841   */\n      not\n        /* \"#utility.yul\":829:831   */\n      0x1f\n        /* \"#utility.yul\":822:827   */\n      dup4\n        /* \"#utility.yul\":818:832   */\n      add\n        /* \"#utility.yul\":814:842   */\n      and\n        /* \"#utility.yul\":804:842   */\n      swap1\n      pop\n        /* \"#utility.yul\":746:848   */\n      swap2\n      swap1\n      pop\n      jump\t// out\n        /* \"#utility.yul\":854:1231   */\n    tag_51:\n        /* \"#utility.yul\":942:945   */\n      0x00\n        /* \"#utility.yul\":970:1009   */\n      tag_78\n        /* \"#utility.yul\":1003:1008   */\n      dup3\n        /* \"#utility.yul\":970:1009   */\n      tag_47\n      jump\t// in\n    tag_78:\n        /* \"#utility.yul\":1025:1096   */\n      tag_79\n        /* \"#utility.yul\":1089:1095   */\n      dup2\n        /* \"#utility.yul\":1084:1087   */\n      dup6\n        /* \"#utility.yul\":1025:1096   */\n      tag_48\n      jump\t// in\n    tag_79:\n        /* \"#utility.yul\":1018:1096   */\n      swap4\n      pop\n        /* \"#utility.yul\":1105:1170   */\n      tag_80\n        /* \"#utility.yul\":1163:1169   */\n      dup2\n        /* \"#utility.yul\":1158:1161   */\n      dup6\n        /* \"#utility.yul\":1151:1155   */\n      0x20\n        /* \"#utility.yul\":1144:1149   */\n      dup7\n        /* \"#utility.yul\":1140:1156   */\n      add\n        /* \"#utility.yul\":1105:1170   */\n      tag_49\n      jump\t// in\n    tag_80:\n        /* \"#utility.yul\":1195:1224   */\n      tag_81\n        /* \"#utility.yul\":1217:1223   */\n      dup2\n        /* \"#utility.yul\":1195:1224   */\n      tag_50\n      jump\t// in\n    tag_81:\n        /* \"#utility.yul\":1190:1193   */\n      dup5\n        /* \"#utility.yul\":1186:1225   */\n      add\n        /* \"#utility.yul\":1179:1225   */\n      swap2\n      pop\n        /* \"#utility.yul\":946:1231   */\n      pop\n        /* \"#utility.yul\":854:1231   */\n      swap3\n      swap2\n      pop\n      pop\n      jump\t// out\n        /* \"#utility.yul\":1237:1327   */\n    tag_52:\n        /* \"#utility.yul\":1271:1278   */\n      0x00\n        /* \"#utility.yul\":1314:1319   */\n      dup2\n        /* \"#utility.yul\":1307:1320   */\n      iszero\n        /* \"#utility.yul\":1300:1321   */\n      iszero\n        /* \"#utility.yul\":1289:1321   */\n      swap1\n      pop\n        /* \"#utility.yul\":1237:1327   */\n      swap2\n      swap1\n      pop\n      jump\t// out\n        /* \"#utility.yul\":1333:1442   */\n    tag_53:\n        /* \"#utility.yul\":1414:1435   */\n      tag_84\n        /* \"#utility.yul\":1429:1434   */\n      dup2\n        /* \"#utility.yul\":1414:1435   */\n      tag_52\n      jump\t// in\n    tag_84:\n        /* \"#utility.yul\":1409:1412   */\n      dup3\n        /* \"#utility.yul\":1402:1436   */\n      mstore\n        /* \"#utility.yul\":1333:1442   */\n      pop\n      pop\n      jump\t// out\n        /* \"#utility.yul\":1448:1969   */\n    tag_12:\n        /* \"#utility.yul\":1611:1615   */\n      0x00\n        /* \"#utility.yul\":1649:1651   */\n      0x60\n        /* \"#utility.yul\":1638:1647   */\n      dup3\n        /* \"#utility.yul\":1634:1652   */\n      add\n        /* \"#utility.yul\":1626:1652   */\n      swap1\n      pop\n        /* \"#utility.yul\":1662:1733   */\n      tag_86\n        /* \"#utility.yul\":1730:1731   */\n      0x00\n        /* \"#utility.yul\":1719:1728   */\n      dup4\n        /* \"#utility.yul\":1715:1732   */\n      add\n        /* \"#utility.yul\":1706:1712   */\n      dup7\n        /* \"#utility.yul\":1662:1733   */\n      tag_46\n      jump\t// in\n    tag_86:\n        /* \"#utility.yul\":1780:1789   */\n      dup2\n        /* \"#utility.yul\":1774:1778   */\n      dup2\n        /* \"#utility.yul\":1770:1790   */\n      sub\n        /* \"#utility.yul\":1765:1767   */\n      0x20\n        /* \"#utility.yul\":1754:1763   */\n      dup4\n        /* \"#utility.yul\":1750:1768   */\n      add\n        /* \"#utility.yul\":1743:1791   */\n      mstore\n        /* \"#utility.yul\":1808:1886   */\n      tag_87\n        /* \"#utility.yul\":1881:1885   */\n      dup2\n        /* \"#utility.yul\":1872:1878   */\n      dup6\n        /* \"#utility.yul\":1808:1886   */\n      tag_51\n      jump\t// in\n    tag_87:\n        /* \"#utility.yul\":1800:1886   */\n      swap1\n      pop\n        /* \"#utility.yul\":1896:1962   */\n      tag_88\n        /* \"#utility.yul\":1958:1960   */\n      0x40\n        /* \"#utility.yul\":1947:1956   */\n      dup4\n        /* \"#utility.yul\":1943:1961   */\n      add\n        /* \"#utility.yul\":1934:1940   */\n      dup5\n        /* \"#utility.yul\":1896:1962   */\n      tag_53\n      jump\t// in\n    tag_88:\n        /* \"#utility.yul\":1448:1969   */\n      swap5\n      swap4\n      pop\n      pop\n      pop\n      pop\n      jump\t// out\n        /* \"#utility.yul\":2056:2173   */\n    tag_55:\n        /* \"#utility.yul\":2165:2166   */\n      0x00\n        /* \"#utility.yul\":2162:2163   */\n      dup1\n        /* \"#utility.yul\":2155:2167   */\n      revert\n        /* \"#utility.yul\":2302:2424   */\n    tag_57:\n        /* \"#utility.yul\":2375:2399   */\n      tag_93\n        /* \"#utility.yul\":2393:2398   */\n      dup2\n        /* \"#utility.yul\":2375:2399   */\n      tag_45\n      jump\t// in\n    tag_93:\n        /* \"#utility.yul\":2368:2373   */\n      dup2\n        /* \"#utility.yul\":2365:2400   */\n      eq\n        /* \"#utility.yul\":2355:2418   */\n      tag_94\n      jumpi\n        /* \"#utility.yul\":2414:2415   */\n      0x00\n        /* \"#utility.yul\":2411:2412   */\n      dup1\n        /* \"#utility.yul\":2404:2416   */\n      revert\n        /* \"#utility.yul\":2355:2418   */\n    tag_94:\n        /* \"#utility.yul\":2302:2424   */\n      pop\n      jump\t// out\n        /* \"#utility.yul\":2430:2569   */\n    tag_58:\n        /* \"#utility.yul\":2476:2481   */\n      0x00\n        /* \"#utility.yul\":2514:2520   */\n      dup2\n        /* \"#utility.yul\":2501:2521   */\n      calldataload\n        /* \"#utility.yul\":2492:2521   */\n      swap1\n      pop\n        /* \"#utility.yul\":2530:2563   */\n      tag_96\n        /* \"#utility.yul\":2557:2562   */\n      dup2\n        /* \"#utility.yul\":2530:2563   */\n      tag_57\n      jump\t// in\n    tag_96:\n        /* \"#utility.yul\":2430:2569   */\n      swap3\n      swap2\n      pop\n      pop\n      jump\t// out\n        /* \"#utility.yul\":2575:2904   */\n    tag_15:\n        /* \"#utility.yul\":2634:2640   */\n      0x00\n        /* \"#utility.yul\":2683:2685   */\n      0x20\n        /* \"#utility.yul\":2671:2680   */\n      dup3\n        /* \"#utility.yul\":2662:2669   */\n      dup5\n        /* \"#utility.yul\":2658:2681   */\n      sub\n        /* \"#utility.yul\":2654:2686   */\n      slt\n        /* \"#utility.yul\":2651:2770   */\n      iszero\n      tag_98\n      jumpi\n        /* \"#utility.yul\":2689:2768   */\n      tag_99\n      tag_55\n      jump\t// in\n    tag_99:\n        /* \"#utility.yul\":2651:2770   */\n    tag_98:\n        /* \"#utility.yul\":2809:2810   */\n      0x00\n        /* \"#utility.yul\":2834:2887   */\n      tag_100\n        /* \"#utility.yul\":2879:2886   */\n      dup5\n        /* \"#utility.yul\":2870:2876   */\n      dup3\n        /* \"#utility.yul\":2859:2868   */\n      dup6\n        /* \"#utility.yul\":2855:2877   */\n      add\n        /* \"#utility.yul\":2834:2887   */\n      tag_58\n      jump\t// in\n    tag_100:\n        /* \"#utility.yul\":2824:2887   */\n      swap2\n      pop\n        /* \"#utility.yul\":2780:2897   */\n      pop\n        /* \"#utility.yul\":2575:2904   */\n      swap3\n      swap2\n      pop\n      pop\n      jump\t// out\n        /* \"#utility.yul\":2910:3340   */\n    tag_20:\n        /* \"#utility.yul\":3053:3057   */\n      0x00\n        /* \"#utility.yul\":3091:3093   */\n      0x60\n        /* \"#utility.yul\":3080:3089   */\n      dup3\n        /* \"#utility.yul\":3076:3094   */\n      add\n        /* \"#utility.yul\":3068:3094   */\n      swap1\n      pop\n        /* \"#utility.yul\":3104:3175   */\n      tag_102\n        /* \"#utility.yul\":3172:3173   */\n      0x00\n        /* \"#utility.yul\":3161:3170   */\n      dup4\n        /* \"#utility.yul\":3157:3174   */\n      add\n        /* \"#utility.yul\":3148:3154   */\n      dup7\n        /* \"#utility.yul\":3104:3175   */\n      tag_46\n      jump\t// in\n    tag_102:\n        /* \"#utility.yul\":3185:3251   */\n      tag_103\n        /* \"#utility.yul\":3247:3249   */\n      0x20\n        /* \"#utility.yul\":3236:3245   */\n      dup4\n        /* \"#utility.yul\":3232:3250   */\n      add\n        /* \"#utility.yul\":3223:3229   */\n      dup6\n        /* \"#utility.yul\":3185:3251   */\n      tag_53\n      jump\t// in\n    tag_103:\n        /* \"#utility.yul\":3261:3333   */\n      tag_104\n        /* \"#utility.yul\":3329:3331   */\n      0x40\n        /* \"#utility.yul\":3318:3327   */\n      dup4\n        /* \"#utility.yul\":3314:3332   */\n      add\n        /* \"#utility.yul\":3305:3311   */\n      dup5\n        /* \"#utility.yul\":3261:3333   */\n      tag_46\n      jump\t// in\n    tag_104:\n        /* \"#utility.yul\":2910:3340   */\n      swap5\n      swap4\n      pop\n      pop\n      pop\n      pop\n      jump\t// out\n        /* \"#utility.yul\":3346:3460   */\n    tag_59:\n        /* \"#utility.yul\":3413:3419   */\n      0x00\n        /* \"#utility.yul\":3447:3452   */\n      dup2\n        /* \"#utility.yul\":3441:3453   */\n      mload\n        /* \"#utility.yul\":3431:3453   */\n      swap1\n      pop\n        /* \"#utility.yul\":3346:3460   */\n      swap2\n      swap1\n      pop\n      jump\t// out\n        /* \"#utility.yul\":3466:3650   */\n    tag_60:\n        /* \"#utility.yul\":3565:3576   */\n      0x00\n        /* \"#utility.yul\":3599:3605   */\n      dup3\n        /* \"#utility.yul\":3594:3597   */\n      dup3\n        /* \"#utility.yul\":3587:3606   */\n      mstore\n        /* \"#utility.yul\":3639:3643   */\n      0x20\n        /* \"#utility.yul\":3634:3637   */\n      dup3\n        /* \"#utility.yul\":3630:3644   */\n      add\n        /* \"#utility.yul\":3615:3644   */\n      swap1\n      pop\n        /* \"#utility.yul\":3466:3650   */\n      swap3\n      swap2\n      pop\n      pop\n      jump\t// out\n        /* \"#utility.yul\":3656:3788   */\n    tag_61:\n        /* \"#utility.yul\":3723:3727   */\n      0x00\n        /* \"#utility.yul\":3746:3749   */\n      dup2\n        /* \"#utility.yul\":3738:3749   */\n      swap1\n      pop\n        /* \"#utility.yul\":3776:3780   */\n      0x20\n        /* \"#utility.yul\":3771:3774   */\n      dup3\n        /* \"#utility.yul\":3767:3781   */\n      add\n        /* \"#utility.yul\":3759:3781   */\n      swap1\n      pop\n        /* \"#utility.yul\":3656:3788   */\n      swap2\n      swap1\n      pop\n      jump\t// out\n        /* \"#utility.yul\":3794:3902   */\n    tag_62:\n        /* \"#utility.yul\":3871:3895   */\n      tag_109\n        /* \"#utility.yul\":3889:3894   */\n      dup2\n        /* \"#utility.yul\":3871:3895   */\n      tag_45\n      jump\t// in\n    tag_109:\n        /* \"#utility.yul\":3866:3869   */\n      dup3\n        /* \"#utility.yul\":3859:3896   */\n      mstore\n        /* \"#utility.yul\":3794:3902   */\n      pop\n      pop\n      jump\t// out\n        /* \"#utility.yul\":3908:4087   */\n    tag_63:\n        /* \"#utility.yul\":3977:3987   */\n      0x00\n        /* \"#utility.yul\":3998:4044   */\n      tag_111\n        /* \"#utility.yul\":4040:4043   */\n      dup4\n        /* \"#utility.yul\":4032:4038   */\n      dup4\n        /* \"#utility.yul\":3998:4044   */\n      tag_62\n      jump\t// in\n    tag_111:\n        /* \"#utility.yul\":4076:4080   */\n      0x20\n        /* \"#utility.yul\":4071:4074   */\n      dup4\n        /* \"#utility.yul\":4067:4081   */\n      add\n        /* \"#utility.yul\":4053:4081   */\n      swap1\n      pop\n        /* \"#utility.yul\":3908:4087   */\n      swap3\n      swap2\n      pop\n      pop\n      jump\t// out\n        /* \"#utility.yul\":4093:4206   */\n    tag_64:\n        /* \"#utility.yul\":4163:4167   */\n      0x00\n        /* \"#utility.yul\":4195:4199   */\n      0x20\n        /* \"#utility.yul\":4190:4193   */\n      dup3\n        /* \"#utility.yul\":4186:4200   */\n      add\n        /* \"#utility.yul\":4178:4200   */\n      swap1\n      pop\n        /* \"#utility.yul\":4093:4206   */\n      swap2\n      swap1\n      pop\n      jump\t// out\n        /* \"#utility.yul\":4242:4974   */\n    tag_65:\n        /* \"#utility.yul\":4361:4364   */\n      0x00\n        /* \"#utility.yul\":4390:4444   */\n      tag_114\n        /* \"#utility.yul\":4438:4443   */\n      dup3\n        /* \"#utility.yul\":4390:4444   */\n      tag_59\n      jump\t// in\n    tag_114:\n        /* \"#utility.yul\":4460:4546   */\n      tag_115\n        /* \"#utility.yul\":4539:4545   */\n      dup2\n        /* \"#utility.yul\":4534:4537   */\n      dup6\n        /* \"#utility.yul\":4460:4546   */\n      tag_60\n      jump\t// in\n    tag_115:\n        /* \"#utility.yul\":4453:4546   */\n      swap4\n      pop\n        /* \"#utility.yul\":4570:4626   */\n      tag_116\n        /* \"#utility.yul\":4620:4625   */\n      dup4\n        /* \"#utility.yul\":4570:4626   */\n      tag_61\n      jump\t// in\n    tag_116:\n        /* \"#utility.yul\":4649:4656   */\n      dup1\n        /* \"#utility.yul\":4680:4681   */\n      0x00\n        /* \"#utility.yul\":4665:4949   */\n    tag_117:\n        /* \"#utility.yul\":4690:4696   */\n      dup4\n        /* \"#utility.yul\":4687:4688   */\n      dup2\n        /* \"#utility.yul\":4684:4697   */\n      lt\n        /* \"#utility.yul\":4665:4949   */\n      iszero\n      tag_119\n      jumpi\n        /* \"#utility.yul\":4766:4772   */\n      dup2\n        /* \"#utility.yul\":4760:4773   */\n      mload\n        /* \"#utility.yul\":4793:4856   */\n      tag_120\n        /* \"#utility.yul\":4852:4855   */\n      dup9\n        /* \"#utility.yul\":4837:4850   */\n      dup3\n        /* \"#utility.yul\":4793:4856   */\n      tag_63\n      jump\t// in\n    tag_120:\n        /* \"#utility.yul\":4786:4856   */\n      swap8\n      pop\n        /* \"#utility.yul\":4879:4939   */\n      tag_121\n        /* \"#utility.yul\":4932:4938   */\n      dup4\n        /* \"#utility.yul\":4879:4939   */\n      tag_64\n      jump\t// in\n    tag_121:\n        /* \"#utility.yul\":4869:4939   */\n      swap3\n      pop\n        /* \"#utility.yul\":4725:4949   */\n      pop\n        /* \"#utility.yul\":4712:4713   */\n      0x01\n        /* \"#utility.yul\":4709:4710   */\n      dup2\n        /* \"#utility.yul\":4705:4714   */\n      add\n        /* \"#utility.yul\":4700:4714   */\n      swap1\n      pop\n        /* \"#utility.yul\":4665:4949   */\n      jump(tag_117)\n    tag_119:\n        /* \"#utility.yul\":4669:4683   */\n      pop\n        /* \"#utility.yul\":4965:4968   */\n      dup6\n        /* \"#utility.yul\":4958:4968   */\n      swap4\n      pop\n        /* \"#utility.yul\":4366:4974   */\n      pop\n      pop\n      pop\n        /* \"#utility.yul\":4242:4974   */\n      swap3\n      swap2\n      pop\n      pop\n      jump\t// out\n        /* \"#utility.yul\":4980:5353   */\n    tag_24:\n        /* \"#utility.yul\":5123:5127   */\n      0x00\n        /* \"#utility.yul\":5161:5163   */\n      0x20\n        /* \"#utility.yul\":5150:5159   */\n      dup3\n        /* \"#utility.yul\":5146:5164   */\n      add\n        /* \"#utility.yul\":5138:5164   */\n      swap1\n      pop\n        /* \"#utility.yul\":5210:5219   */\n      dup2\n        /* \"#utility.yul\":5204:5208   */\n      dup2\n        /* \"#utility.yul\":5200:5220   */\n      sub\n        /* \"#utility.yul\":5196:5197   */\n      0x00\n        /* \"#utility.yul\":5185:5194   */\n      dup4\n        /* \"#utility.yul\":5181:5198   */\n      add\n        /* \"#utility.yul\":5174:5221   */\n      mstore\n        /* \"#utility.yul\":5238:5346   */\n      tag_123\n        /* \"#utility.yul\":5341:5345   */\n      dup2\n        /* \"#utility.yul\":5332:5338   */\n      dup5\n        /* \"#utility.yul\":5238:5346   */\n      tag_65\n      jump\t// in\n    tag_123:\n        /* \"#utility.yul\":5230:5346   */\n      swap1\n      pop\n        /* \"#utility.yul\":4980:5353   */\n      swap3\n      swap2\n      pop\n      pop\n      jump\t// out\n        /* \"#utility.yul\":5359:5581   */\n    tag_29:\n        /* \"#utility.yul\":5452:5456   */\n      0x00\n        /* \"#utility.yul\":5490:5492   */\n      0x20\n        /* \"#utility.yul\":5479:5488   */\n      dup3\n        /* \"#utility.yul\":5475:5493   */\n      add\n        /* \"#utility.yul\":5467:5493   */\n      swap1\n      pop\n        /* \"#utility.yul\":5503:5574   */\n      tag_125\n        /* \"#utility.yul\":5571:5572   */\n      0x00\n        /* \"#utility.yul\":5560:5569   */\n      dup4\n        /* \"#utility.yul\":5556:5573   */\n      add\n        /* \"#utility.yul\":5547:5553   */\n      dup5\n        /* \"#utility.yul\":5503:5574   */\n      tag_46\n      jump\t// in\n    tag_125:\n        /* \"#utility.yul\":5359:5581   */\n      swap3\n      swap2\n      pop\n      pop\n      jump\t// out\n        /* \"#utility.yul\":5587:6239   */\n    tag_33:\n        /* \"#utility.yul\":5786:5790   */\n      0x00\n        /* \"#utility.yul\":5824:5827   */\n      0xa0\n        /* \"#utility.yul\":5813:5822   */\n      dup3\n        /* \"#utility.yul\":5809:5828   */\n      add\n        /* \"#utility.yul\":5801:5828   */\n      swap1\n      pop\n        /* \"#utility.yul\":5838:5909   */\n      tag_127\n        /* \"#utility.yul\":5906:5907   */\n      0x00\n        /* \"#utility.yul\":5895:5904   */\n      dup4\n        /* \"#utility.yul\":5891:5908   */\n      add\n        /* \"#utility.yul\":5882:5888   */\n      dup9\n        /* \"#utility.yul\":5838:5909   */\n      tag_46\n      jump\t// in\n    tag_127:\n        /* \"#utility.yul\":5919:5985   */\n      tag_128\n        /* \"#utility.yul\":5981:5983   */\n      0x20\n        /* \"#utility.yul\":5970:5979   */\n      dup4\n        /* \"#utility.yul\":5966:5984   */\n      add\n        /* \"#utility.yul\":5957:5963   */\n      dup8\n        /* \"#utility.yul\":5919:5985   */\n      tag_53\n      jump\t// in\n    tag_128:\n        /* \"#utility.yul\":5995:6067   */\n      tag_129\n        /* \"#utility.yul\":6063:6065   */\n      0x40\n        /* \"#utility.yul\":6052:6061   */\n      dup4\n        /* \"#utility.yul\":6048:6066   */\n      add\n        /* \"#utility.yul\":6039:6045   */\n      dup7\n        /* \"#utility.yul\":5995:6067   */\n      tag_46\n      jump\t// in\n    tag_129:\n        /* \"#utility.yul\":6077:6149   */\n      tag_130\n        /* \"#utility.yul\":6145:6147   */\n      0x60\n        /* \"#utility.yul\":6134:6143   */\n      dup4\n        /* \"#utility.yul\":6130:6148   */\n      add\n        /* \"#utility.yul\":6121:6127   */\n      dup6\n        /* \"#utility.yul\":6077:6149   */\n      tag_46\n      jump\t// in\n    tag_130:\n        /* \"#utility.yul\":6159:6232   */\n      tag_131\n        /* \"#utility.yul\":6227:6230   */\n      0x80\n        /* \"#utility.yul\":6216:6225   */\n      dup4\n        /* \"#utility.yul\":6212:6231   */\n      add\n        /* \"#utility.yul\":6203:6209   */\n      dup5\n        /* \"#utility.yul\":6159:6232   */\n      tag_46\n      jump\t// in\n    tag_131:\n        /* \"#utility.yul\":5587:6239   */\n      swap7\n      swap6\n      pop\n      pop\n      pop\n      pop\n      pop\n      pop\n      jump\t// out\n\n    auxdata: 0xa26469706673582212206f95fe1168d5186f5b99ac75d38d962bf1259511948d257084ecdbaddd887e6664736f6c63430008120033\n}\n",
				"bytecode": {
					"linkReferences": {},
					"object": "60806040526040518060600160405280601760ff168152602001600460ff168152602001600560ff16815250600090600361003b92919061004e565b5034801561004857600080fd5b506100bd565b82805482825590600052602060002090810192821561008f579160200282015b8281111561008e578251829060ff1690559160200191906001019061006e565b5b50905061009c91906100a0565b5090565b5b808211156100b95760008160009055506001016100a1565b5090565b610597806100cc6000396000f3fe608060405234801561001057600080fd5b50600436106100625760003560e01c8063056da048146100675780631be1e6c7146100875780632093fd93146100a35780636428b262146100c357806371e5ee5f146100e1578063b9031a1b14610111575b600080fd5b61006f610133565b60405161007e93929190610340565b60405180910390f35b6100a1600480360381019061009c91906103af565b61017e565b005b6100ab6101aa565b6040516100ba939291906103dc565b60405180910390f35b6100cb6101c0565b6040516100d891906104d1565b60405180910390f35b6100fb60048036038101906100f691906103af565b610218565b60405161010891906104f3565b60405180910390f35b61011961023c565b60405161012a95949392919061050e565b60405180910390f35b600060606000600292506040518060400160405280600481526020017f616d616e00000000000000000000000000000000000000000000000000000000815250915060019050909192565b600081908060018154018082558091505060019003906000526020600020016000909190919091505550565b6000806000600260016004925092509250909192565b6060600080548060200260200160405190810160405280929190818152602001828054801561020e57602002820191906000526020600020905b8154815260200190600101908083116101fa575b5050505050905090565b6000818154811061022857600080fd5b906000526020600020016000915090505481565b6000806000806000806000806102506101aa565b925092509250600080600360059150915084848484849950995099509950995050505050509091929394565b6000819050919050565b61028f8161027c565b82525050565b600081519050919050565b600082825260208201905092915050565b60005b838110156102cf5780820151818401526020810190506102b4565b60008484015250505050565b6000601f19601f8301169050919050565b60006102f782610295565b61030181856102a0565b93506103118185602086016102b1565b61031a816102db565b840191505092915050565b60008115159050919050565b61033a81610325565b82525050565b60006060820190506103556000830186610286565b818103602083015261036781856102ec565b90506103766040830184610331565b949350505050565b600080fd5b61038c8161027c565b811461039757600080fd5b50565b6000813590506103a981610383565b92915050565b6000602082840312156103c5576103c461037e565b5b60006103d38482850161039a565b91505092915050565b60006060820190506103f16000830186610286565b6103fe6020830185610331565b61040b6040830184610286565b949350505050565b600081519050919050565b600082825260208201905092915050565b6000819050602082019050919050565b6104488161027c565b82525050565b600061045a838361043f565b60208301905092915050565b6000602082019050919050565b600061047e82610413565b610488818561041e565b93506104938361042f565b8060005b838110156104c45781516104ab888261044e565b97506104b683610466565b925050600181019050610497565b5085935050505092915050565b600060208201905081810360008301526104eb8184610473565b905092915050565b60006020820190506105086000830184610286565b92915050565b600060a0820190506105236000830188610286565b6105306020830187610331565b61053d6040830186610286565b61054a6060830185610286565b6105576080830184610286565b969550505050505056fea26469706673582212206f95fe1168d5186f5b99ac75d38d962bf1259511948d257084ecdbaddd887e6664736f6c63430008120033",
					"opcodes": "PUSH1 0x80 PUSH1 0x40 MSTORE PUSH1 0x40 MLOAD DUP1 PUSH1 0x60 ADD PUSH1 0x40 MSTORE DUP1 PUSH1 0x17 PUSH1 0xFF AND DUP2 MSTORE PUSH1 0x20 ADD PUSH1 0x4 PUSH1 0xFF AND DUP2 MSTORE PUSH1 0x20 ADD PUSH1 0x5 PUSH1 0xFF AND DUP2 MSTORE POP PUSH1 0x0 SWAP1 PUSH1 0x3 PUSH2 0x3B SWAP3 SWAP2 SWAP1 PUSH2 0x4E JUMP JUMPDEST POP CALLVALUE DUP1 ISZERO PUSH2 0x48 JUMPI PUSH1 0x0 DUP1 REVERT JUMPDEST POP PUSH2 0xBD JUMP JUMPDEST DUP3 DUP1 SLOAD DUP3 DUP3 SSTORE SWAP1 PUSH1 0x0 MSTORE PUSH1 0x20 PUSH1 0x0 KECCAK256 SWAP1 DUP2 ADD SWAP3 DUP3 ISZERO PUSH2 0x8F JUMPI SWAP2 PUSH1 0x20 MUL DUP3 ADD JUMPDEST DUP3 DUP2 GT ISZERO PUSH2 0x8E JUMPI DUP3 MLOAD DUP3 SWAP1 PUSH1 0xFF AND SWAP1 SSTORE SWAP2 PUSH1 0x20 ADD SWAP2 SWAP1 PUSH1 0x1 ADD SWAP1 PUSH2 0x6E JUMP JUMPDEST JUMPDEST POP SWAP1 POP PUSH2 0x9C SWAP2 SWAP1 PUSH2 0xA0 JUMP JUMPDEST POP SWAP1 JUMP JUMPDEST JUMPDEST DUP1 DUP3 GT ISZERO PUSH2 0xB9 JUMPI PUSH1 0x0 DUP2 PUSH1 0x0 SWAP1 SSTORE POP PUSH1 0x1 ADD PUSH2 0xA1 JUMP JUMPDEST POP SWAP1 JUMP JUMPDEST PUSH2 0x597 DUP1 PUSH2 0xCC PUSH1 0x0 CODECOPY PUSH1 0x0 RETURN INVALID PUSH1 0x80 PUSH1 0x40 MSTORE CALLVALUE DUP1 ISZERO PUSH2 0x10 JUMPI PUSH1 0x0 DUP1 REVERT JUMPDEST POP PUSH1 0x4 CALLDATASIZE LT PUSH2 0x62 JUMPI PUSH1 0x0 CALLDATALOAD PUSH1 0xE0 SHR DUP1 PUSH4 0x56DA048 EQ PUSH2 0x67 JUMPI DUP1 PUSH4 0x1BE1E6C7 EQ PUSH2 0x87 JUMPI DUP1 PUSH4 0x2093FD93 EQ PUSH2 0xA3 JUMPI DUP1 PUSH4 0x6428B262 EQ PUSH2 0xC3 JUMPI DUP1 PUSH4 0x71E5EE5F EQ PUSH2 0xE1 JUMPI DUP1 PUSH4 0xB9031A1B EQ PUSH2 0x111 JUMPI JUMPDEST PUSH1 0x0 DUP1 REVERT JUMPDEST PUSH2 0x6F PUSH2 0x133 JUMP JUMPDEST PUSH1 0x40 MLOAD PUSH2 0x7E SWAP4 SWAP3 SWAP2 SWAP1 PUSH2 0x340 JUMP JUMPDEST PUSH1 0x40 MLOAD DUP1 SWAP2 SUB SWAP1 RETURN JUMPDEST PUSH2 0xA1 PUSH1 0x4 DUP1 CALLDATASIZE SUB DUP2 ADD SWAP1 PUSH2 0x9C SWAP2 SWAP1 PUSH2 0x3AF JUMP JUMPDEST PUSH2 0x17E JUMP JUMPDEST STOP JUMPDEST PUSH2 0xAB PUSH2 0x1AA JUMP JUMPDEST PUSH1 0x40 MLOAD PUSH2 0xBA SWAP4 SWAP3 SWAP2 SWAP1 PUSH2 0x3DC JUMP JUMPDEST PUSH1 0x40 MLOAD DUP1 SWAP2 SUB SWAP1 RETURN JUMPDEST PUSH2 0xCB PUSH2 0x1C0 JUMP JUMPDEST PUSH1 0x40 MLOAD PUSH2 0xD8 SWAP2 SWAP1 PUSH2 0x4D1 JUMP JUMPDEST PUSH1 0x40 MLOAD DUP1 SWAP2 SUB SWAP1 RETURN JUMPDEST PUSH2 0xFB PUSH1 0x4 DUP1 CALLDATASIZE SUB DUP2 ADD SWAP1 PUSH2 0xF6 SWAP2 SWAP1 PUSH2 0x3AF JUMP JUMPDEST PUSH2 0x218 JUMP JUMPDEST PUSH1 0x40 MLOAD PUSH2 0x108 SWAP2 SWAP1 PUSH2 0x4F3 JUMP JUMPDEST PUSH1 0x40 MLOAD DUP1 SWAP2 SUB SWAP1 RETURN JUMPDEST PUSH2 0x119 PUSH2 0x23C JUMP JUMPDEST PUSH1 0x40 MLOAD PUSH2 0x12A SWAP6 SWAP5 SWAP4 SWAP3 SWAP2 SWAP1 PUSH2 0x50E JUMP JUMPDEST PUSH1 0x40 MLOAD DUP1 SWAP2 SUB SWAP1 RETURN JUMPDEST PUSH1 0x0 PUSH1 0x60 PUSH1 0x0 PUSH1 0x2 SWAP3 POP PUSH1 0x40 MLOAD DUP1 PUSH1 0x40 ADD PUSH1 0x40 MSTORE DUP1 PUSH1 0x4 DUP2 MSTORE PUSH1 0x20 ADD PUSH32 0x616D616E00000000000000000000000000000000000000000000000000000000 DUP2 MSTORE POP SWAP2 POP PUSH1 0x1 SWAP1 POP SWAP1 SWAP2 SWAP3 JUMP JUMPDEST PUSH1 0x0 DUP2 SWAP1 DUP1 PUSH1 0x1 DUP2 SLOAD ADD DUP1 DUP3 SSTORE DUP1 SWAP2 POP POP PUSH1 0x1 SWAP1 SUB SWAP1 PUSH1 0x0 MSTORE PUSH1 0x20 PUSH1 0x0 KECCAK256 ADD PUSH1 0x0 SWAP1 SWAP2 SWAP1 SWAP2 SWAP1 SWAP2 POP SSTORE POP JUMP JUMPDEST PUSH1 0x0 DUP1 PUSH1 0x0 PUSH1 0x2 PUSH1 0x1 PUSH1 0x4 SWAP3 POP SWAP3 POP SWAP3 POP SWAP1 SWAP2 SWAP3 JUMP JUMPDEST PUSH1 0x60 PUSH1 0x0 DUP1 SLOAD DUP1 PUSH1 0x20 MUL PUSH1 0x20 ADD PUSH1 0x40 MLOAD SWAP1 DUP2 ADD PUSH1 0x40 MSTORE DUP1 SWAP3 SWAP2 SWAP1 DUP2 DUP2 MSTORE PUSH1 0x20 ADD DUP3 DUP1 SLOAD DUP1 ISZERO PUSH2 0x20E JUMPI PUSH1 0x20 MUL DUP3 ADD SWAP2 SWAP1 PUSH1 0x0 MSTORE PUSH1 0x20 PUSH1 0x0 KECCAK256 SWAP1 JUMPDEST DUP2 SLOAD DUP2 MSTORE PUSH1 0x20 ADD SWAP1 PUSH1 0x1 ADD SWAP1 DUP1 DUP4 GT PUSH2 0x1FA JUMPI JUMPDEST POP POP POP POP POP SWAP1 POP SWAP1 JUMP JUMPDEST PUSH1 0x0 DUP2 DUP2 SLOAD DUP2 LT PUSH2 0x228 JUMPI PUSH1 0x0 DUP1 REVERT JUMPDEST SWAP1 PUSH1 0x0 MSTORE PUSH1 0x20 PUSH1 0x0 KECCAK256 ADD PUSH1 0x0 SWAP2 POP SWAP1 POP SLOAD DUP2 JUMP JUMPDEST PUSH1 0x0 DUP1 PUSH1 0x0 DUP1 PUSH1 0x0 DUP1 PUSH1 0x0 DUP1 PUSH2 0x250 PUSH2 0x1AA JUMP JUMPDEST SWAP3 POP SWAP3 POP SWAP3 POP PUSH1 0x0 DUP1 PUSH1 0x3 PUSH1 0x5 SWAP2 POP SWAP2 POP DUP5 DUP5 DUP5 DUP5 DUP5 SWAP10 POP SWAP10 POP SWAP10 POP SWAP10 POP SWAP10 POP POP POP POP POP POP SWAP1 SWAP2 SWAP3 SWAP4 SWAP5 JUMP JUMPDEST PUSH1 0x0 DUP2 SWAP1 POP SWAP2 SWAP1 POP JUMP JUMPDEST PUSH2 0x28F DUP2 PUSH2 0x27C JUMP JUMPDEST DUP3 MSTORE POP POP JUMP JUMPDEST PUSH1 0x0 DUP2 MLOAD SWAP1 POP SWAP2 SWAP1 POP JUMP JUMPDEST PUSH1 0x0 DUP3 DUP3 MSTORE PUSH1 0x20 DUP3 ADD SWAP1 POP SWAP3 SWAP2 POP POP JUMP JUMPDEST PUSH1 0x0 JUMPDEST DUP4 DUP2 LT ISZERO PUSH2 0x2CF JUMPI DUP1 DUP3 ADD MLOAD DUP2 DUP5 ADD MSTORE PUSH1 0x20 DUP2 ADD SWAP1 POP PUSH2 0x2B4 JUMP JUMPDEST PUSH1 0x0 DUP5 DUP5 ADD MSTORE POP POP POP POP JUMP JUMPDEST PUSH1 0x0 PUSH1 0x1F NOT PUSH1 0x1F DUP4 ADD AND SWAP1 POP SWAP2 SWAP1 POP JUMP JUMPDEST PUSH1 0x0 PUSH2 0x2F7 DUP3 PUSH2 0x295 JUMP JUMPDEST PUSH2 0x301 DUP2 DUP6 PUSH2 0x2A0 JUMP JUMPDEST SWAP4 POP PUSH2 0x311 DUP2 DUP6 PUSH1 0x20 DUP7 ADD PUSH2 0x2B1 JUMP JUMPDEST PUSH2 0x31A DUP2 PUSH2 0x2DB JUMP JUMPDEST DUP5 ADD SWAP2 POP POP SWAP3 SWAP2 POP POP JUMP JUMPDEST PUSH1 0x0 DUP2 ISZERO ISZERO SWAP1 POP SWAP2 SWAP1 POP JUMP JUMPDEST PUSH2 0x33A DUP2 PUSH2 0x325 JUMP JUMPDEST DUP3 MSTORE POP POP JUMP JUMPDEST PUSH1 0x0 PUSH1 0x60 DUP3 ADD SWAP1 POP PUSH2 0x355 PUSH1 0x0 DUP4 ADD DUP7 PUSH2 0x286 JUMP JUMPDEST DUP2 DUP2 SUB PUSH1 0x20 DUP4 ADD MSTORE PUSH2 0x367 DUP2 DUP6 PUSH2 0x2EC JUMP JUMPDEST SWAP1 POP PUSH2 0x376 PUSH1 0x40 DUP4 ADD DUP5 PUSH2 0x331 JUMP JUMPDEST SWAP5 SWAP4 POP POP POP POP JUMP JUMPDEST PUSH1 0x0 DUP1 REVERT JUMPDEST PUSH2 0x38C DUP2 PUSH2 0x27C JUMP JUMPDEST DUP2 EQ PUSH2 0x397 JUMPI PUSH1 0x0 DUP1 REVERT JUMPDEST POP JUMP JUMPDEST PUSH1 0x0 DUP2 CALLDATALOAD SWAP1 POP PUSH2 0x3A9 DUP2 PUSH2 0x383 JUMP JUMPDEST SWAP3 SWAP2 POP POP JUMP JUMPDEST PUSH1 0x0 PUSH1 0x20 DUP3 DUP5 SUB SLT ISZERO PUSH2 0x3C5 JUMPI PUSH2 0x3C4 PUSH2 0x37E JUMP JUMPDEST JUMPDEST PUSH1 0x0 PUSH2 0x3D3 DUP5 DUP3 DUP6 ADD PUSH2 0x39A JUMP JUMPDEST SWAP2 POP POP SWAP3 SWAP2 POP POP JUMP JUMPDEST PUSH1 0x0 PUSH1 0x60 DUP3 ADD SWAP1 POP PUSH2 0x3F1 PUSH1 0x0 DUP4 ADD DUP7 PUSH2 0x286 JUMP JUMPDEST PUSH2 0x3FE PUSH1 0x20 DUP4 ADD DUP6 PUSH2 0x331 JUMP JUMPDEST PUSH2 0x40B PUSH1 0x40 DUP4 ADD DUP5 PUSH2 0x286 JUMP JUMPDEST SWAP5 SWAP4 POP POP POP POP JUMP JUMPDEST PUSH1 0x0 DUP2 MLOAD SWAP1 POP SWAP2 SWAP1 POP JUMP JUMPDEST PUSH1 0x0 DUP3 DUP3 MSTORE PUSH1 0x20 DUP3 ADD SWAP1 POP SWAP3 SWAP2 POP POP JUMP JUMPDEST PUSH1 0x0 DUP2 SWAP1 POP PUSH1 0x20 DUP3 ADD SWAP1 POP SWAP2 SWAP1 POP JUMP JUMPDEST PUSH2 0x448 DUP2 PUSH2 0x27C JUMP JUMPDEST DUP3 MSTORE POP POP JUMP JUMPDEST PUSH1 0x0 PUSH2 0x45A DUP4 DUP4 PUSH2 0x43F JUMP JUMPDEST PUSH1 0x20 DUP4 ADD SWAP1 POP SWAP3 SWAP2 POP POP JUMP JUMPDEST PUSH1 0x0 PUSH1 0x20 DUP3 ADD SWAP1 POP SWAP2 SWAP1 POP JUMP JUMPDEST PUSH1 0x0 PUSH2 0x47E DUP3 PUSH2 0x413 JUMP JUMPDEST PUSH2 0x488 DUP2 DUP6 PUSH2 0x41E JUMP JUMPDEST SWAP4 POP PUSH2 0x493 DUP4 PUSH2 0x42F JUMP JUMPDEST DUP1 PUSH1 0x0 JUMPDEST DUP4 DUP2 LT ISZERO PUSH2 0x4C4 JUMPI DUP2 MLOAD PUSH2 0x4AB DUP9 DUP3 PUSH2 0x44E JUMP JUMPDEST SWAP8 POP PUSH2 0x4B6 DUP4 PUSH2 0x466 JUMP JUMPDEST SWAP3 POP POP PUSH1 0x1 DUP2 ADD SWAP1 POP PUSH2 0x497 JUMP JUMPDEST POP DUP6 SWAP4 POP POP POP POP SWAP3 SWAP2 POP POP JUMP JUMPDEST PUSH1 0x0 PUSH1 0x20 DUP3 ADD SWAP1 POP DUP2 DUP2 SUB PUSH1 0x0 DUP4 ADD MSTORE PUSH2 0x4EB DUP2 DUP5 PUSH2 0x473 JUMP JUMPDEST SWAP1 POP SWAP3 SWAP2 POP POP JUMP JUMPDEST PUSH1 0x0 PUSH1 0x20 DUP3 ADD SWAP1 POP PUSH2 0x508 PUSH1 0x0 DUP4 ADD DUP5 PUSH2 0x286 JUMP JUMPDEST SWAP3 SWAP2 POP POP JUMP JUMPDEST PUSH1 0x0 PUSH1 0xA0 DUP3 ADD SWAP1 POP PUSH2 0x523 PUSH1 0x0 DUP4 ADD DUP9 PUSH2 0x286 JUMP JUMPDEST PUSH2 0x530 PUSH1 0x20 DUP4 ADD DUP8 PUSH2 0x331 JUMP JUMPDEST PUSH2 0x53D PUSH1 0x40 DUP4 ADD DUP7 PUSH2 0x286 JUMP JUMPDEST PUSH2 0x54A PUSH1 0x60 DUP4 ADD DUP6 PUSH2 0x286 JUMP JUMPDEST PUSH2 0x557 PUSH1 0x80 DUP4 ADD DUP5 PUSH2 0x286 JUMP JUMPDEST SWAP7 SWAP6 POP POP POP POP POP POP JUMP INVALID LOG2 PUSH5 0x6970667358 0x22 SLT KECCAK256 PUSH16 0x95FE1168D5186F5B99AC75D38D962BF1 0x25 SWAP6 GT SWAP5 DUP14 0x25 PUSH17 0x84ECDBADDD887E6664736F6C6343000812 STOP CALLER "
				},
				"gasEstimates": {
					"creation": {
						"codeDepositCost": "286200",
						"executionCost": "infinite",
						"totalCost": "infinite"
					},
					"external": {
						"arr(uint256)": "infinite",
						"arrayinput(uint256)": "46829",
						"arrayoutput()": "infinite",
						"destructuringassignments()": "infinite",
						"names()": "infinite",
						"returnmany()": "infinite"
					}
				},
				"methodIdentifiers": {
					"arr(uint256)": "71e5ee5f",
					"arrayinput(uint256)": "1be1e6c7",
					"arrayoutput()": "6428b262",
					"destructuringassignments()": "b9031a1b",
					"names()": "056da048",
					"returnmany()": "2093fd93"
				}
			},
			"storageLayout": {
				"storage": [
					{
						"astId": 88,
						"contract": "contracts/function part2.sol:functionuse",
						"label": "arr",
						"offset": 0,
						"slot": "0",
						"type": "t_array(t_uint256)dyn_storage"
					}
				],
				"types": {
					"t_array(t_uint256)dyn_storage": {
						"base": "t_uint256",
						"encoding": "dynamic_array",
						"label": "uint256[]",
						"numberOfBytes": "32"
					},
					"t_uint256": {
						"encoding": "inplace",
						"label": "uint256",
						"numberOfBytes": "32"
					}
				}
			},
			"userdoc": {
				"kind": "user",
				"methods": {},
				"version": 1
			}
		}
	}
}