{
	"contracts/function part2.sol": {
		"xyz": {
			"abi": [
				{
					"inputs": [],
					"name": "callfunc",
					"outputs": [
						{
							"internalType": "uint256",
							"name": "",
							"type": "uint256"
						}
					],
					"stateMutability": "pure",
					"type": "function"
				},
				{
					"inputs": [],
					"name": "callfunwithkeyvalue",
					"outputs": [
						{
							"internalType": "uint256",
							"name": "",
							"type": "uint256"
						}
					],
					"stateMutability": "pure",
					"type": "function"
				},
				{
					"inputs": [
						{
							"internalType": "uint256",
							"name": "x",
							"type": "uint256"
						},
						{
							"internalType": "uint256",
							"name": "y",
							"type": "uint256"
						},
						{
							"internalType": "uint256",
							"name": "z",
							"type": "uint256"
						},
						{
							"internalType": "address",
							"name": "a",
							"type": "address"
						},
						{
							"internalType": "bool",
							"name": "b",
							"type": "bool"
						},
						{
							"internalType": "string",
							"name": "c",
							"type": "string"
						}
					],
					"name": "somefunctionwithmanyinputs",
					"outputs": [
						{
							"internalType": "uint256",
							"name": "",
							"type": "uint256"
						}
					],
					"stateMutability": "pure",
					"type": "function"
				}
			],
			"devdoc": {
				"kind": "dev",
				"methods": {},
				"version": 1
			},
			"evm": {
				"assembly": "    /* \"contracts/function part2.sol\":1530:2090  contract xyz{... */\n  mstore(0x40, 0x80)\n  callvalue\n  dup1\n  iszero\n  tag_1\n  jumpi\n  0x00\n  dup1\n  revert\ntag_1:\n  pop\n  dataSize(sub_0)\n  dup1\n  dataOffset(sub_0)\n  0x00\n  codecopy\n  0x00\n  return\nstop\n\nsub_0: assembly {\n        /* \"contracts/function part2.sol\":1530:2090  contract xyz{... */\n      mstore(0x40, 0x80)\n      callvalue\n      dup1\n      iszero\n      tag_1\n      jumpi\n      0x00\n      dup1\n      revert\n    tag_1:\n      pop\n      jumpi(tag_2, lt(calldatasize, 0x04))\n      shr(0xe0, calldataload(0x00))\n      dup1\n      0x209b4376\n      eq\n      tag_3\n      jumpi\n      dup1\n      0x3f1c21d4\n      eq\n      tag_4\n      jumpi\n      dup1\n      0xc162b3b4\n      eq\n      tag_5\n      jumpi\n    tag_2:\n      0x00\n      dup1\n      revert\n        /* \"contracts/function part2.sol\":1551:1681  function somefunctionwithmanyinputs(uint x, uint y, uint z, address a, bool b, string memory c) public pure returns (uint){... */\n    tag_3:\n      tag_6\n      0x04\n      dup1\n      calldatasize\n      sub\n      dup2\n      add\n      swap1\n      tag_7\n      swap2\n      swap1\n      tag_8\n      jump\t// in\n    tag_7:\n      tag_9\n      jump\t// in\n    tag_6:\n      mload(0x40)\n      tag_10\n      swap2\n      swap1\n      tag_11\n      jump\t// in\n    tag_10:\n      mload(0x40)\n      dup1\n      swap2\n      sub\n      swap1\n      return\n        /* \"contracts/function part2.sol\":1891:2085  function callfunwithkeyvalue() external pure returns (uint){... */\n    tag_4:\n      tag_12\n      tag_13\n      jump\t// in\n    tag_12:\n      mload(0x40)\n      tag_14\n      swap2\n      swap1\n      tag_11\n      jump\t// in\n    tag_14:\n      mload(0x40)\n      dup1\n      swap2\n      sub\n      swap1\n      return\n        /* \"contracts/function part2.sol\":1706:1868  function callfunc() external pure returns (uint){... */\n    tag_5:\n      tag_15\n      tag_16\n      jump\t// in\n    tag_15:\n      mload(0x40)\n      tag_17\n      swap2\n      swap1\n      tag_11\n      jump\t// in\n    tag_17:\n      mload(0x40)\n      dup1\n      swap2\n      sub\n      swap1\n      return\n        /* \"contracts/function part2.sol\":1551:1681  function somefunctionwithmanyinputs(uint x, uint y, uint z, address a, bool b, string memory c) public pure returns (uint){... */\n    tag_9:\n        /* \"contracts/function part2.sol\":1668:1672  uint */\n      0x00\n        /* \"contracts/function part2.sol\":1551:1681  function somefunctionwithmanyinputs(uint x, uint y, uint z, address a, bool b, string memory c) public pure returns (uint){... */\n      swap7\n      swap6\n      pop\n      pop\n      pop\n      pop\n      pop\n      pop\n      jump\t// out\n        /* \"contracts/function part2.sol\":1891:2085  function callfunwithkeyvalue() external pure returns (uint){... */\n    tag_13:\n        /* \"contracts/function part2.sol\":1945:1949  uint */\n      0x00\n        /* \"contracts/function part2.sol\":1969:2076  somefunctionwithmanyinputs({x:3, y:4, z:6, a:0x5B38Da6a701c568545dCfcB03FcB875f56beddC4, b:true, c:\"aman\"}) */\n      tag_20\n        /* \"contracts/function part2.sol\":1999:2000  3 */\n      0x03\n        /* \"contracts/function part2.sol\":2004:2005  4 */\n      0x04\n        /* \"contracts/function part2.sol\":2009:2010  6 */\n      0x06\n        /* \"contracts/function part2.sol\":2014:2056  0x5B38Da6a701c568545dCfcB03FcB875f56beddC4 */\n      0x5b38da6a701c568545dcfcb03fcb875f56beddc4\n        /* \"contracts/function part2.sol\":2060:2064  true */\n      0x01\n        /* \"contracts/function part2.sol\":1969:2076  somefunctionwithmanyinputs({x:3, y:4, z:6, a:0x5B38Da6a701c568545dCfcB03FcB875f56beddC4, b:true, c:\"aman\"}) */\n      mload(0x40)\n      dup1\n      0x40\n      add\n      0x40\n      mstore\n      dup1\n      0x04\n      dup2\n      mstore\n      0x20\n      add\n      0x616d616e00000000000000000000000000000000000000000000000000000000\n      dup2\n      mstore\n      pop\n        /* \"contracts/function part2.sol\":1969:1995  somefunctionwithmanyinputs */\n      tag_9\n        /* \"contracts/function part2.sol\":1969:2076  somefunctionwithmanyinputs({x:3, y:4, z:6, a:0x5B38Da6a701c568545dCfcB03FcB875f56beddC4, b:true, c:\"aman\"}) */\n      jump\t// in\n    tag_20:\n        /* \"contracts/function part2.sol\":1961:2077  return (somefunctionwithmanyinputs({x:3, y:4, z:6, a:0x5B38Da6a701c568545dCfcB03FcB875f56beddC4, b:true, c:\"aman\"})) */\n      swap1\n      pop\n        /* \"contracts/function part2.sol\":1891:2085  function callfunwithkeyvalue() external pure returns (uint){... */\n      swap1\n      jump\t// out\n        /* \"contracts/function part2.sol\":1706:1868  function callfunc() external pure returns (uint){... */\n    tag_16:\n        /* \"contracts/function part2.sol\":1749:1753  uint */\n      0x00\n        /* \"contracts/function part2.sol\":1772:1860  somefunctionwithmanyinputs(3,4,2,0x5B38Da6a701c568545dCfcB03FcB875f56beddC4,true,\"aman\") */\n      tag_22\n        /* \"contracts/function part2.sol\":1799:1800  3 */\n      0x03\n        /* \"contracts/function part2.sol\":1801:1802  4 */\n      0x04\n        /* \"contracts/function part2.sol\":1803:1804  2 */\n      0x02\n        /* \"contracts/function part2.sol\":1805:1847  0x5B38Da6a701c568545dCfcB03FcB875f56beddC4 */\n      0x5b38da6a701c568545dcfcb03fcb875f56beddc4\n        /* \"contracts/function part2.sol\":1848:1852  true */\n      0x01\n        /* \"contracts/function part2.sol\":1772:1860  somefunctionwithmanyinputs(3,4,2,0x5B38Da6a701c568545dCfcB03FcB875f56beddC4,true,\"aman\") */\n      mload(0x40)\n      dup1\n      0x40\n      add\n      0x40\n      mstore\n      dup1\n      0x04\n      dup2\n      mstore\n      0x20\n      add\n      0x616d616e00000000000000000000000000000000000000000000000000000000\n      dup2\n      mstore\n      pop\n        /* \"contracts/function part2.sol\":1772:1798  somefunctionwithmanyinputs */\n      tag_9\n        /* \"contracts/function part2.sol\":1772:1860  somefunctionwithmanyinputs(3,4,2,0x5B38Da6a701c568545dCfcB03FcB875f56beddC4,true,\"aman\") */\n      jump\t// in\n    tag_22:\n        /* \"contracts/function part2.sol\":1765:1860  return somefunctionwithmanyinputs(3,4,2,0x5B38Da6a701c568545dCfcB03FcB875f56beddC4,true,\"aman\") */\n      swap1\n      pop\n        /* \"contracts/function part2.sol\":1706:1868  function callfunc() external pure returns (uint){... */\n      swap1\n      jump\t// out\n        /* \"#utility.yul\":7:82   */\n    tag_23:\n        /* \"#utility.yul\":40:46   */\n      0x00\n        /* \"#utility.yul\":73:75   */\n      0x40\n        /* \"#utility.yul\":67:76   */\n      mload\n        /* \"#utility.yul\":57:76   */\n      swap1\n      pop\n        /* \"#utility.yul\":7:82   */\n      swap1\n      jump\t// out\n        /* \"#utility.yul\":88:205   */\n    tag_24:\n        /* \"#utility.yul\":197:198   */\n      0x00\n        /* \"#utility.yul\":194:195   */\n      dup1\n        /* \"#utility.yul\":187:199   */\n      revert\n        /* \"#utility.yul\":211:328   */\n    tag_25:\n        /* \"#utility.yul\":320:321   */\n      0x00\n        /* \"#utility.yul\":317:318   */\n      dup1\n        /* \"#utility.yul\":310:322   */\n      revert\n        /* \"#utility.yul\":334:411   */\n    tag_26:\n        /* \"#utility.yul\":371:378   */\n      0x00\n        /* \"#utility.yul\":400:405   */\n      dup2\n        /* \"#utility.yul\":389:405   */\n      swap1\n      pop\n        /* \"#utility.yul\":334:411   */\n      swap2\n      swap1\n      pop\n      jump\t// out\n        /* \"#utility.yul\":417:539   */\n    tag_27:\n        /* \"#utility.yul\":490:514   */\n      tag_53\n        /* \"#utility.yul\":508:513   */\n      dup2\n        /* \"#utility.yul\":490:514   */\n      tag_26\n      jump\t// in\n    tag_53:\n        /* \"#utility.yul\":483:488   */\n      dup2\n        /* \"#utility.yul\":480:515   */\n      eq\n        /* \"#utility.yul\":470:533   */\n      tag_54\n      jumpi\n        /* \"#utility.yul\":529:530   */\n      0x00\n        /* \"#utility.yul\":526:527   */\n      dup1\n        /* \"#utility.yul\":519:531   */\n      revert\n        /* \"#utility.yul\":470:533   */\n    tag_54:\n        /* \"#utility.yul\":417:539   */\n      pop\n      jump\t// out\n        /* \"#utility.yul\":545:684   */\n    tag_28:\n        /* \"#utility.yul\":591:596   */\n      0x00\n        /* \"#utility.yul\":629:635   */\n      dup2\n        /* \"#utility.yul\":616:636   */\n      calldataload\n        /* \"#utility.yul\":607:636   */\n      swap1\n      pop\n        /* \"#utility.yul\":645:678   */\n      tag_56\n        /* \"#utility.yul\":672:677   */\n      dup2\n        /* \"#utility.yul\":645:678   */\n      tag_27\n      jump\t// in\n    tag_56:\n        /* \"#utility.yul\":545:684   */\n      swap3\n      swap2\n      pop\n      pop\n      jump\t// out\n        /* \"#utility.yul\":690:816   */\n    tag_29:\n        /* \"#utility.yul\":727:734   */\n      0x00\n        /* \"#utility.yul\":767:809   */\n      0xffffffffffffffffffffffffffffffffffffffff\n        /* \"#utility.yul\":760:765   */\n      dup3\n        /* \"#utility.yul\":756:810   */\n      and\n        /* \"#utility.yul\":745:810   */\n      swap1\n      pop\n        /* \"#utility.yul\":690:816   */\n      swap2\n      swap1\n      pop\n      jump\t// out\n        /* \"#utility.yul\":822:918   */\n    tag_30:\n        /* \"#utility.yul\":859:866   */\n      0x00\n        /* \"#utility.yul\":888:912   */\n      tag_59\n        /* \"#utility.yul\":906:911   */\n      dup3\n        /* \"#utility.yul\":888:912   */\n      tag_29\n      jump\t// in\n    tag_59:\n        /* \"#utility.yul\":877:912   */\n      swap1\n      pop\n        /* \"#utility.yul\":822:918   */\n      swap2\n      swap1\n      pop\n      jump\t// out\n        /* \"#utility.yul\":924:1046   */\n    tag_31:\n        /* \"#utility.yul\":997:1021   */\n      tag_61\n        /* \"#utility.yul\":1015:1020   */\n      dup2\n        /* \"#utility.yul\":997:1021   */\n      tag_30\n      jump\t// in\n    tag_61:\n        /* \"#utility.yul\":990:995   */\n      dup2\n        /* \"#utility.yul\":987:1022   */\n      eq\n        /* \"#utility.yul\":977:1040   */\n      tag_62\n      jumpi\n        /* \"#utility.yul\":1036:1037   */\n      0x00\n        /* \"#utility.yul\":1033:1034   */\n      dup1\n        /* \"#utility.yul\":1026:1038   */\n      revert\n        /* \"#utility.yul\":977:1040   */\n    tag_62:\n        /* \"#utility.yul\":924:1046   */\n      pop\n      jump\t// out\n        /* \"#utility.yul\":1052:1191   */\n    tag_32:\n        /* \"#utility.yul\":1098:1103   */\n      0x00\n        /* \"#utility.yul\":1136:1142   */\n      dup2\n        /* \"#utility.yul\":1123:1143   */\n      calldataload\n        /* \"#utility.yul\":1114:1143   */\n      swap1\n      pop\n        /* \"#utility.yul\":1152:1185   */\n      tag_64\n        /* \"#utility.yul\":1179:1184   */\n      dup2\n        /* \"#utility.yul\":1152:1185   */\n      tag_31\n      jump\t// in\n    tag_64:\n        /* \"#utility.yul\":1052:1191   */\n      swap3\n      swap2\n      pop\n      pop\n      jump\t// out\n        /* \"#utility.yul\":1197:1287   */\n    tag_33:\n        /* \"#utility.yul\":1231:1238   */\n      0x00\n        /* \"#utility.yul\":1274:1279   */\n      dup2\n        /* \"#utility.yul\":1267:1280   */\n      iszero\n        /* \"#utility.yul\":1260:1281   */\n      iszero\n        /* \"#utility.yul\":1249:1281   */\n      swap1\n      pop\n        /* \"#utility.yul\":1197:1287   */\n      swap2\n      swap1\n      pop\n      jump\t// out\n        /* \"#utility.yul\":1293:1409   */\n    tag_34:\n        /* \"#utility.yul\":1363:1384   */\n      tag_67\n        /* \"#utility.yul\":1378:1383   */\n      dup2\n        /* \"#utility.yul\":1363:1384   */\n      tag_33\n      jump\t// in\n    tag_67:\n        /* \"#utility.yul\":1356:1361   */\n      dup2\n        /* \"#utility.yul\":1353:1385   */\n      eq\n        /* \"#utility.yul\":1343:1403   */\n      tag_68\n      jumpi\n        /* \"#utility.yul\":1399:1400   */\n      0x00\n        /* \"#utility.yul\":1396:1397   */\n      dup1\n        /* \"#utility.yul\":1389:1401   */\n      revert\n        /* \"#utility.yul\":1343:1403   */\n    tag_68:\n        /* \"#utility.yul\":1293:1409   */\n      pop\n      jump\t// out\n        /* \"#utility.yul\":1415:1548   */\n    tag_35:\n        /* \"#utility.yul\":1458:1463   */\n      0x00\n        /* \"#utility.yul\":1496:1502   */\n      dup2\n        /* \"#utility.yul\":1483:1503   */\n      calldataload\n        /* \"#utility.yul\":1474:1503   */\n      swap1\n      pop\n        /* \"#utility.yul\":1512:1542   */\n      tag_70\n        /* \"#utility.yul\":1536:1541   */\n      dup2\n        /* \"#utility.yul\":1512:1542   */\n      tag_34\n      jump\t// in\n    tag_70:\n        /* \"#utility.yul\":1415:1548   */\n      swap3\n      swap2\n      pop\n      pop\n      jump\t// out\n        /* \"#utility.yul\":1554:1671   */\n    tag_36:\n        /* \"#utility.yul\":1663:1664   */\n      0x00\n        /* \"#utility.yul\":1660:1661   */\n      dup1\n        /* \"#utility.yul\":1653:1665   */\n      revert\n        /* \"#utility.yul\":1677:1794   */\n    tag_37:\n        /* \"#utility.yul\":1786:1787   */\n      0x00\n        /* \"#utility.yul\":1783:1784   */\n      dup1\n        /* \"#utility.yul\":1776:1788   */\n      revert\n        /* \"#utility.yul\":1800:1902   */\n    tag_38:\n        /* \"#utility.yul\":1841:1847   */\n      0x00\n        /* \"#utility.yul\":1892:1894   */\n      0x1f\n        /* \"#utility.yul\":1888:1895   */\n      not\n        /* \"#utility.yul\":1883:1885   */\n      0x1f\n        /* \"#utility.yul\":1876:1881   */\n      dup4\n        /* \"#utility.yul\":1872:1886   */\n      add\n        /* \"#utility.yul\":1868:1896   */\n      and\n        /* \"#utility.yul\":1858:1896   */\n      swap1\n      pop\n        /* \"#utility.yul\":1800:1902   */\n      swap2\n      swap1\n      pop\n      jump\t// out\n        /* \"#utility.yul\":1908:2088   */\n    tag_39:\n        /* \"#utility.yul\":1956:2033   */\n      0x4e487b7100000000000000000000000000000000000000000000000000000000\n        /* \"#utility.yul\":1953:1954   */\n      0x00\n        /* \"#utility.yul\":1946:2034   */\n      mstore\n        /* \"#utility.yul\":2053:2057   */\n      0x41\n        /* \"#utility.yul\":2050:2051   */\n      0x04\n        /* \"#utility.yul\":2043:2058   */\n      mstore\n        /* \"#utility.yul\":2077:2081   */\n      0x24\n        /* \"#utility.yul\":2074:2075   */\n      0x00\n        /* \"#utility.yul\":2067:2082   */\n      revert\n        /* \"#utility.yul\":2094:2375   */\n    tag_40:\n        /* \"#utility.yul\":2177:2204   */\n      tag_76\n        /* \"#utility.yul\":2199:2203   */\n      dup3\n        /* \"#utility.yul\":2177:2204   */\n      tag_38\n      jump\t// in\n    tag_76:\n        /* \"#utility.yul\":2169:2175   */\n      dup2\n        /* \"#utility.yul\":2165:2205   */\n      add\n        /* \"#utility.yul\":2307:2313   */\n      dup2\n        /* \"#utility.yul\":2295:2305   */\n      dup2\n        /* \"#utility.yul\":2292:2314   */\n      lt\n        /* \"#utility.yul\":2271:2289   */\n      0xffffffffffffffff\n        /* \"#utility.yul\":2259:2269   */\n      dup3\n        /* \"#utility.yul\":2256:2290   */\n      gt\n        /* \"#utility.yul\":2253:2315   */\n      or\n        /* \"#utility.yul\":2250:2338   */\n      iszero\n      tag_77\n      jumpi\n        /* \"#utility.yul\":2318:2336   */\n      tag_78\n      tag_39\n      jump\t// in\n    tag_78:\n        /* \"#utility.yul\":2250:2338   */\n    tag_77:\n        /* \"#utility.yul\":2358:2368   */\n      dup1\n        /* \"#utility.yul\":2354:2356   */\n      0x40\n        /* \"#utility.yul\":2347:2369   */\n      mstore\n        /* \"#utility.yul\":2137:2375   */\n      pop\n        /* \"#utility.yul\":2094:2375   */\n      pop\n      pop\n      jump\t// out\n        /* \"#utility.yul\":2381:2510   */\n    tag_41:\n        /* \"#utility.yul\":2415:2421   */\n      0x00\n        /* \"#utility.yul\":2442:2462   */\n      tag_80\n      tag_23\n      jump\t// in\n    tag_80:\n        /* \"#utility.yul\":2432:2462   */\n      swap1\n      pop\n        /* \"#utility.yul\":2471:2504   */\n      tag_81\n        /* \"#utility.yul\":2499:2503   */\n      dup3\n        /* \"#utility.yul\":2491:2497   */\n      dup3\n        /* \"#utility.yul\":2471:2504   */\n      tag_40\n      jump\t// in\n    tag_81:\n        /* \"#utility.yul\":2381:2510   */\n      swap2\n      swap1\n      pop\n      jump\t// out\n        /* \"#utility.yul\":2516:2824   */\n    tag_42:\n        /* \"#utility.yul\":2578:2582   */\n      0x00\n        /* \"#utility.yul\":2668:2686   */\n      0xffffffffffffffff\n        /* \"#utility.yul\":2660:2666   */\n      dup3\n        /* \"#utility.yul\":2657:2687   */\n      gt\n        /* \"#utility.yul\":2654:2710   */\n      iszero\n      tag_83\n      jumpi\n        /* \"#utility.yul\":2690:2708   */\n      tag_84\n      tag_39\n      jump\t// in\n    tag_84:\n        /* \"#utility.yul\":2654:2710   */\n    tag_83:\n        /* \"#utility.yul\":2728:2757   */\n      tag_85\n        /* \"#utility.yul\":2750:2756   */\n      dup3\n        /* \"#utility.yul\":2728:2757   */\n      tag_38\n      jump\t// in\n    tag_85:\n        /* \"#utility.yul\":2720:2757   */\n      swap1\n      pop\n        /* \"#utility.yul\":2812:2816   */\n      0x20\n        /* \"#utility.yul\":2806:2810   */\n      dup2\n        /* \"#utility.yul\":2802:2817   */\n      add\n        /* \"#utility.yul\":2794:2817   */\n      swap1\n      pop\n        /* \"#utility.yul\":2516:2824   */\n      swap2\n      swap1\n      pop\n      jump\t// out\n        /* \"#utility.yul\":2830:2976   */\n    tag_43:\n        /* \"#utility.yul\":2927:2933   */\n      dup3\n        /* \"#utility.yul\":2922:2925   */\n      dup2\n        /* \"#utility.yul\":2917:2920   */\n      dup4\n        /* \"#utility.yul\":2904:2934   */\n      calldatacopy\n        /* \"#utility.yul\":2968:2969   */\n      0x00\n        /* \"#utility.yul\":2959:2965   */\n      dup4\n        /* \"#utility.yul\":2954:2957   */\n      dup4\n        /* \"#utility.yul\":2950:2966   */\n      add\n        /* \"#utility.yul\":2943:2970   */\n      mstore\n        /* \"#utility.yul\":2830:2976   */\n      pop\n      pop\n      pop\n      jump\t// out\n        /* \"#utility.yul\":2982:3407   */\n    tag_44:\n        /* \"#utility.yul\":3060:3065   */\n      0x00\n        /* \"#utility.yul\":3085:3151   */\n      tag_88\n        /* \"#utility.yul\":3101:3150   */\n      tag_89\n        /* \"#utility.yul\":3143:3149   */\n      dup5\n        /* \"#utility.yul\":3101:3150   */\n      tag_42\n      jump\t// in\n    tag_89:\n        /* \"#utility.yul\":3085:3151   */\n      tag_41\n      jump\t// in\n    tag_88:\n        /* \"#utility.yul\":3076:3151   */\n      swap1\n      pop\n        /* \"#utility.yul\":3174:3180   */\n      dup3\n        /* \"#utility.yul\":3167:3172   */\n      dup2\n        /* \"#utility.yul\":3160:3181   */\n      mstore\n        /* \"#utility.yul\":3212:3216   */\n      0x20\n        /* \"#utility.yul\":3205:3210   */\n      dup2\n        /* \"#utility.yul\":3201:3217   */\n      add\n        /* \"#utility.yul\":3250:3253   */\n      dup5\n        /* \"#utility.yul\":3241:3247   */\n      dup5\n        /* \"#utility.yul\":3236:3239   */\n      dup5\n        /* \"#utility.yul\":3232:3248   */\n      add\n        /* \"#utility.yul\":3229:3254   */\n      gt\n        /* \"#utility.yul\":3226:3338   */\n      iszero\n      tag_90\n      jumpi\n        /* \"#utility.yul\":3257:3336   */\n      tag_91\n      tag_37\n      jump\t// in\n    tag_91:\n        /* \"#utility.yul\":3226:3338   */\n    tag_90:\n        /* \"#utility.yul\":3347:3401   */\n      tag_92\n        /* \"#utility.yul\":3394:3400   */\n      dup5\n        /* \"#utility.yul\":3389:3392   */\n      dup3\n        /* \"#utility.yul\":3384:3387   */\n      dup6\n        /* \"#utility.yul\":3347:3401   */\n      tag_43\n      jump\t// in\n    tag_92:\n        /* \"#utility.yul\":3066:3407   */\n      pop\n        /* \"#utility.yul\":2982:3407   */\n      swap4\n      swap3\n      pop\n      pop\n      pop\n      jump\t// out\n        /* \"#utility.yul\":3427:3767   */\n    tag_45:\n        /* \"#utility.yul\":3483:3488   */\n      0x00\n        /* \"#utility.yul\":3532:3535   */\n      dup3\n        /* \"#utility.yul\":3525:3529   */\n      0x1f\n        /* \"#utility.yul\":3517:3523   */\n      dup4\n        /* \"#utility.yul\":3513:3530   */\n      add\n        /* \"#utility.yul\":3509:3536   */\n      slt\n        /* \"#utility.yul\":3499:3621   */\n      tag_94\n      jumpi\n        /* \"#utility.yul\":3540:3619   */\n      tag_95\n      tag_36\n      jump\t// in\n    tag_95:\n        /* \"#utility.yul\":3499:3621   */\n    tag_94:\n        /* \"#utility.yul\":3657:3663   */\n      dup2\n        /* \"#utility.yul\":3644:3664   */\n      calldataload\n        /* \"#utility.yul\":3682:3761   */\n      tag_96\n        /* \"#utility.yul\":3757:3760   */\n      dup5\n        /* \"#utility.yul\":3749:3755   */\n      dup3\n        /* \"#utility.yul\":3742:3746   */\n      0x20\n        /* \"#utility.yul\":3734:3740   */\n      dup7\n        /* \"#utility.yul\":3730:3747   */\n      add\n        /* \"#utility.yul\":3682:3761   */\n      tag_44\n      jump\t// in\n    tag_96:\n        /* \"#utility.yul\":3673:3761   */\n      swap2\n      pop\n        /* \"#utility.yul\":3489:3767   */\n      pop\n        /* \"#utility.yul\":3427:3767   */\n      swap3\n      swap2\n      pop\n      pop\n      jump\t// out\n        /* \"#utility.yul\":3773:5004   */\n    tag_8:\n        /* \"#utility.yul\":3884:3890   */\n      0x00\n        /* \"#utility.yul\":3892:3898   */\n      dup1\n        /* \"#utility.yul\":3900:3906   */\n      0x00\n        /* \"#utility.yul\":3908:3914   */\n      dup1\n        /* \"#utility.yul\":3916:3922   */\n      0x00\n        /* \"#utility.yul\":3924:3930   */\n      dup1\n        /* \"#utility.yul\":3973:3976   */\n      0xc0\n        /* \"#utility.yul\":3961:3970   */\n      dup8\n        /* \"#utility.yul\":3952:3959   */\n      dup10\n        /* \"#utility.yul\":3948:3971   */\n      sub\n        /* \"#utility.yul\":3944:3977   */\n      slt\n        /* \"#utility.yul\":3941:4061   */\n      iszero\n      tag_98\n      jumpi\n        /* \"#utility.yul\":3980:4059   */\n      tag_99\n      tag_24\n      jump\t// in\n    tag_99:\n        /* \"#utility.yul\":3941:4061   */\n    tag_98:\n        /* \"#utility.yul\":4100:4101   */\n      0x00\n        /* \"#utility.yul\":4125:4178   */\n      tag_100\n        /* \"#utility.yul\":4170:4177   */\n      dup10\n        /* \"#utility.yul\":4161:4167   */\n      dup3\n        /* \"#utility.yul\":4150:4159   */\n      dup11\n        /* \"#utility.yul\":4146:4168   */\n      add\n        /* \"#utility.yul\":4125:4178   */\n      tag_28\n      jump\t// in\n    tag_100:\n        /* \"#utility.yul\":4115:4178   */\n      swap7\n      pop\n        /* \"#utility.yul\":4071:4188   */\n      pop\n        /* \"#utility.yul\":4227:4229   */\n      0x20\n        /* \"#utility.yul\":4253:4306   */\n      tag_101\n        /* \"#utility.yul\":4298:4305   */\n      dup10\n        /* \"#utility.yul\":4289:4295   */\n      dup3\n        /* \"#utility.yul\":4278:4287   */\n      dup11\n        /* \"#utility.yul\":4274:4296   */\n      add\n        /* \"#utility.yul\":4253:4306   */\n      tag_28\n      jump\t// in\n    tag_101:\n        /* \"#utility.yul\":4243:4306   */\n      swap6\n      pop\n        /* \"#utility.yul\":4198:4316   */\n      pop\n        /* \"#utility.yul\":4355:4357   */\n      0x40\n        /* \"#utility.yul\":4381:4434   */\n      tag_102\n        /* \"#utility.yul\":4426:4433   */\n      dup10\n        /* \"#utility.yul\":4417:4423   */\n      dup3\n        /* \"#utility.yul\":4406:4415   */\n      dup11\n        /* \"#utility.yul\":4402:4424   */\n      add\n        /* \"#utility.yul\":4381:4434   */\n      tag_28\n      jump\t// in\n    tag_102:\n        /* \"#utility.yul\":4371:4434   */\n      swap5\n      pop\n        /* \"#utility.yul\":4326:4444   */\n      pop\n        /* \"#utility.yul\":4483:4485   */\n      0x60\n        /* \"#utility.yul\":4509:4562   */\n      tag_103\n        /* \"#utility.yul\":4554:4561   */\n      dup10\n        /* \"#utility.yul\":4545:4551   */\n      dup3\n        /* \"#utility.yul\":4534:4543   */\n      dup11\n        /* \"#utility.yul\":4530:4552   */\n      add\n        /* \"#utility.yul\":4509:4562   */\n      tag_32\n      jump\t// in\n    tag_103:\n        /* \"#utility.yul\":4499:4562   */\n      swap4\n      pop\n        /* \"#utility.yul\":4454:4572   */\n      pop\n        /* \"#utility.yul\":4611:4614   */\n      0x80\n        /* \"#utility.yul\":4638:4688   */\n      tag_104\n        /* \"#utility.yul\":4680:4687   */\n      dup10\n        /* \"#utility.yul\":4671:4677   */\n      dup3\n        /* \"#utility.yul\":4660:4669   */\n      dup11\n        /* \"#utility.yul\":4656:4678   */\n      add\n        /* \"#utility.yul\":4638:4688   */\n      tag_35\n      jump\t// in\n    tag_104:\n        /* \"#utility.yul\":4628:4688   */\n      swap3\n      pop\n        /* \"#utility.yul\":4582:4698   */\n      pop\n        /* \"#utility.yul\":4765:4768   */\n      0xa0\n        /* \"#utility.yul\":4754:4763   */\n      dup8\n        /* \"#utility.yul\":4750:4769   */\n      add\n        /* \"#utility.yul\":4737:4770   */\n      calldataload\n        /* \"#utility.yul\":4797:4815   */\n      0xffffffffffffffff\n        /* \"#utility.yul\":4789:4795   */\n      dup2\n        /* \"#utility.yul\":4786:4816   */\n      gt\n        /* \"#utility.yul\":4783:4900   */\n      iszero\n      tag_105\n      jumpi\n        /* \"#utility.yul\":4819:4898   */\n      tag_106\n      tag_25\n      jump\t// in\n    tag_106:\n        /* \"#utility.yul\":4783:4900   */\n    tag_105:\n        /* \"#utility.yul\":4924:4987   */\n      tag_107\n        /* \"#utility.yul\":4979:4986   */\n      dup10\n        /* \"#utility.yul\":4970:4976   */\n      dup3\n        /* \"#utility.yul\":4959:4968   */\n      dup11\n        /* \"#utility.yul\":4955:4977   */\n      add\n        /* \"#utility.yul\":4924:4987   */\n      tag_45\n      jump\t// in\n    tag_107:\n        /* \"#utility.yul\":4914:4987   */\n      swap2\n      pop\n        /* \"#utility.yul\":4708:4997   */\n      pop\n        /* \"#utility.yul\":3773:5004   */\n      swap3\n      swap6\n      pop\n      swap3\n      swap6\n      pop\n      swap3\n      swap6\n      jump\t// out\n        /* \"#utility.yul\":5010:5128   */\n    tag_46:\n        /* \"#utility.yul\":5097:5121   */\n      tag_109\n        /* \"#utility.yul\":5115:5120   */\n      dup2\n        /* \"#utility.yul\":5097:5121   */\n      tag_26\n      jump\t// in\n    tag_109:\n        /* \"#utility.yul\":5092:5095   */\n      dup3\n        /* \"#utility.yul\":5085:5122   */\n      mstore\n        /* \"#utility.yul\":5010:5128   */\n      pop\n      pop\n      jump\t// out\n        /* \"#utility.yul\":5134:5356   */\n    tag_11:\n        /* \"#utility.yul\":5227:5231   */\n      0x00\n        /* \"#utility.yul\":5265:5267   */\n      0x20\n        /* \"#utility.yul\":5254:5263   */\n      dup3\n        /* \"#utility.yul\":5250:5268   */\n      add\n        /* \"#utility.yul\":5242:5268   */\n      swap1\n      pop\n        /* \"#utility.yul\":5278:5349   */\n      tag_111\n        /* \"#utility.yul\":5346:5347   */\n      0x00\n        /* \"#utility.yul\":5335:5344   */\n      dup4\n        /* \"#utility.yul\":5331:5348   */\n      add\n        /* \"#utility.yul\":5322:5328   */\n      dup5\n        /* \"#utility.yul\":5278:5349   */\n      tag_46\n      jump\t// in\n    tag_111:\n        /* \"#utility.yul\":5134:5356   */\n      swap3\n      swap2\n      pop\n      pop\n      jump\t// out\n\n    auxdata: 0xa2646970667358221220f9044d9f7a836cca25536bf06c7c62ee0283923d519eaf1458657bbb365a51f864736f6c63430008120033\n}\n",
				"bytecode": {
					"linkReferences": {},
					"object": "608060405234801561001057600080fd5b506104b1806100206000396000f3fe608060405234801561001057600080fd5b50600436106100415760003560e01c8063209b4376146100465780633f1c21d414610076578063c162b3b414610094575b600080fd5b610060600480360381019061005b91906103a8565b6100b2565b60405161006d9190610460565b60405180910390f35b61007e6100be565b60405161008b9190610460565b60405180910390f35b61009c610120565b6040516100a99190610460565b60405180910390f35b60009695505050505050565b600061011b600360046006735b38da6a701c568545dcfcb03fcb875f56beddc460016040518060400160405280600481526020017f616d616e000000000000000000000000000000000000000000000000000000008152506100b2565b905090565b600061017d600360046002735b38da6a701c568545dcfcb03fcb875f56beddc460016040518060400160405280600481526020017f616d616e000000000000000000000000000000000000000000000000000000008152506100b2565b905090565b6000604051905090565b600080fd5b600080fd5b6000819050919050565b6101a981610196565b81146101b457600080fd5b50565b6000813590506101c6816101a0565b92915050565b600073ffffffffffffffffffffffffffffffffffffffff82169050919050565b60006101f7826101cc565b9050919050565b610207816101ec565b811461021257600080fd5b50565b600081359050610224816101fe565b92915050565b60008115159050919050565b61023f8161022a565b811461024a57600080fd5b50565b60008135905061025c81610236565b92915050565b600080fd5b600080fd5b6000601f19601f8301169050919050565b7f4e487b7100000000000000000000000000000000000000000000000000000000600052604160045260246000fd5b6102b58261026c565b810181811067ffffffffffffffff821117156102d4576102d361027d565b5b80604052505050565b60006102e7610182565b90506102f382826102ac565b919050565b600067ffffffffffffffff8211156103135761031261027d565b5b61031c8261026c565b9050602081019050919050565b82818337600083830152505050565b600061034b610346846102f8565b6102dd565b90508281526020810184848401111561036757610366610267565b5b610372848285610329565b509392505050565b600082601f83011261038f5761038e610262565b5b813561039f848260208601610338565b91505092915050565b60008060008060008060c087890312156103c5576103c461018c565b5b60006103d389828a016101b7565b96505060206103e489828a016101b7565b95505060406103f589828a016101b7565b945050606061040689828a01610215565b935050608061041789828a0161024d565b92505060a087013567ffffffffffffffff81111561043857610437610191565b5b61044489828a0161037a565b9150509295509295509295565b61045a81610196565b82525050565b60006020820190506104756000830184610451565b9291505056fea2646970667358221220f9044d9f7a836cca25536bf06c7c62ee0283923d519eaf1458657bbb365a51f864736f6c63430008120033",
					"opcodes": "PUSH1 0x80 PUSH1 0x40 MSTORE CALLVALUE DUP1 ISZERO PUSH2 0x10 JUMPI PUSH1 0x0 DUP1 REVERT JUMPDEST POP PUSH2 0x4B1 DUP1 PUSH2 0x20 PUSH1 0x0 CODECOPY PUSH1 0x0 RETURN INVALID PUSH1 0x80 PUSH1 0x40 MSTORE CALLVALUE DUP1 ISZERO PUSH2 0x10 JUMPI PUSH1 0x0 DUP1 REVERT JUMPDEST POP PUSH1 0x4 CALLDATASIZE LT PUSH2 0x41 JUMPI PUSH1 0x0 CALLDATALOAD PUSH1 0xE0 SHR DUP1 PUSH4 0x209B4376 EQ PUSH2 0x46 JUMPI DUP1 PUSH4 0x3F1C21D4 EQ PUSH2 0x76 JUMPI DUP1 PUSH4 0xC162B3B4 EQ PUSH2 0x94 JUMPI JUMPDEST PUSH1 0x0 DUP1 REVERT JUMPDEST PUSH2 0x60 PUSH1 0x4 DUP1 CALLDATASIZE SUB DUP2 ADD SWAP1 PUSH2 0x5B SWAP2 SWAP1 PUSH2 0x3A8 JUMP JUMPDEST PUSH2 0xB2 JUMP JUMPDEST PUSH1 0x40 MLOAD PUSH2 0x6D SWAP2 SWAP1 PUSH2 0x460 JUMP JUMPDEST PUSH1 0x40 MLOAD DUP1 SWAP2 SUB SWAP1 RETURN JUMPDEST PUSH2 0x7E PUSH2 0xBE JUMP JUMPDEST PUSH1 0x40 MLOAD PUSH2 0x8B SWAP2 SWAP1 PUSH2 0x460 JUMP JUMPDEST PUSH1 0x40 MLOAD DUP1 SWAP2 SUB SWAP1 RETURN JUMPDEST PUSH2 0x9C PUSH2 0x120 JUMP JUMPDEST PUSH1 0x40 MLOAD PUSH2 0xA9 SWAP2 SWAP1 PUSH2 0x460 JUMP JUMPDEST PUSH1 0x40 MLOAD DUP1 SWAP2 SUB SWAP1 RETURN JUMPDEST PUSH1 0x0 SWAP7 SWAP6 POP POP POP POP POP POP JUMP JUMPDEST PUSH1 0x0 PUSH2 0x11B PUSH1 0x3 PUSH1 0x4 PUSH1 0x6 PUSH20 0x5B38DA6A701C568545DCFCB03FCB875F56BEDDC4 PUSH1 0x1 PUSH1 0x40 MLOAD DUP1 PUSH1 0x40 ADD PUSH1 0x40 MSTORE DUP1 PUSH1 0x4 DUP2 MSTORE PUSH1 0x20 ADD PUSH32 0x616D616E00000000000000000000000000000000000000000000000000000000 DUP2 MSTORE POP PUSH2 0xB2 JUMP JUMPDEST SWAP1 POP SWAP1 JUMP JUMPDEST PUSH1 0x0 PUSH2 0x17D PUSH1 0x3 PUSH1 0x4 PUSH1 0x2 PUSH20 0x5B38DA6A701C568545DCFCB03FCB875F56BEDDC4 PUSH1 0x1 PUSH1 0x40 MLOAD DUP1 PUSH1 0x40 ADD PUSH1 0x40 MSTORE DUP1 PUSH1 0x4 DUP2 MSTORE PUSH1 0x20 ADD PUSH32 0x616D616E00000000000000000000000000000000000000000000000000000000 DUP2 MSTORE POP PUSH2 0xB2 JUMP JUMPDEST SWAP1 POP SWAP1 JUMP JUMPDEST PUSH1 0x0 PUSH1 0x40 MLOAD SWAP1 POP SWAP1 JUMP JUMPDEST PUSH1 0x0 DUP1 REVERT JUMPDEST PUSH1 0x0 DUP1 REVERT JUMPDEST PUSH1 0x0 DUP2 SWAP1 POP SWAP2 SWAP1 POP JUMP JUMPDEST PUSH2 0x1A9 DUP2 PUSH2 0x196 JUMP JUMPDEST DUP2 EQ PUSH2 0x1B4 JUMPI PUSH1 0x0 DUP1 REVERT JUMPDEST POP JUMP JUMPDEST PUSH1 0x0 DUP2 CALLDATALOAD SWAP1 POP PUSH2 0x1C6 DUP2 PUSH2 0x1A0 JUMP JUMPDEST SWAP3 SWAP2 POP POP JUMP JUMPDEST PUSH1 0x0 PUSH20 0xFFFFFFFFFFFFFFFFFFFFFFFFFFFFFFFFFFFFFFFF DUP3 AND SWAP1 POP SWAP2 SWAP1 POP JUMP JUMPDEST PUSH1 0x0 PUSH2 0x1F7 DUP3 PUSH2 0x1CC JUMP JUMPDEST SWAP1 POP SWAP2 SWAP1 POP JUMP JUMPDEST PUSH2 0x207 DUP2 PUSH2 0x1EC JUMP JUMPDEST DUP2 EQ PUSH2 0x212 JUMPI PUSH1 0x0 DUP1 REVERT JUMPDEST POP JUMP JUMPDEST PUSH1 0x0 DUP2 CALLDATALOAD SWAP1 POP PUSH2 0x224 DUP2 PUSH2 0x1FE JUMP JUMPDEST SWAP3 SWAP2 POP POP JUMP JUMPDEST PUSH1 0x0 DUP2 ISZERO ISZERO SWAP1 POP SWAP2 SWAP1 POP JUMP JUMPDEST PUSH2 0x23F DUP2 PUSH2 0x22A JUMP JUMPDEST DUP2 EQ PUSH2 0x24A JUMPI PUSH1 0x0 DUP1 REVERT JUMPDEST POP JUMP JUMPDEST PUSH1 0x0 DUP2 CALLDATALOAD SWAP1 POP PUSH2 0x25C DUP2 PUSH2 0x236 JUMP JUMPDEST SWAP3 SWAP2 POP POP JUMP JUMPDEST PUSH1 0x0 DUP1 REVERT JUMPDEST PUSH1 0x0 DUP1 REVERT JUMPDEST PUSH1 0x0 PUSH1 0x1F NOT PUSH1 0x1F DUP4 ADD AND SWAP1 POP SWAP2 SWAP1 POP JUMP JUMPDEST PUSH32 0x4E487B7100000000000000000000000000000000000000000000000000000000 PUSH1 0x0 MSTORE PUSH1 0x41 PUSH1 0x4 MSTORE PUSH1 0x24 PUSH1 0x0 REVERT JUMPDEST PUSH2 0x2B5 DUP3 PUSH2 0x26C JUMP JUMPDEST DUP2 ADD DUP2 DUP2 LT PUSH8 0xFFFFFFFFFFFFFFFF DUP3 GT OR ISZERO PUSH2 0x2D4 JUMPI PUSH2 0x2D3 PUSH2 0x27D JUMP JUMPDEST JUMPDEST DUP1 PUSH1 0x40 MSTORE POP POP POP JUMP JUMPDEST PUSH1 0x0 PUSH2 0x2E7 PUSH2 0x182 JUMP JUMPDEST SWAP1 POP PUSH2 0x2F3 DUP3 DUP3 PUSH2 0x2AC JUMP JUMPDEST SWAP2 SWAP1 POP JUMP JUMPDEST PUSH1 0x0 PUSH8 0xFFFFFFFFFFFFFFFF DUP3 GT ISZERO PUSH2 0x313 JUMPI PUSH2 0x312 PUSH2 0x27D JUMP JUMPDEST JUMPDEST PUSH2 0x31C DUP3 PUSH2 0x26C JUMP JUMPDEST SWAP1 POP PUSH1 0x20 DUP2 ADD SWAP1 POP SWAP2 SWAP1 POP JUMP JUMPDEST DUP3 DUP2 DUP4 CALLDATACOPY PUSH1 0x0 DUP4 DUP4 ADD MSTORE POP POP POP JUMP JUMPDEST PUSH1 0x0 PUSH2 0x34B PUSH2 0x346 DUP5 PUSH2 0x2F8 JUMP JUMPDEST PUSH2 0x2DD JUMP JUMPDEST SWAP1 POP DUP3 DUP2 MSTORE PUSH1 0x20 DUP2 ADD DUP5 DUP5 DUP5 ADD GT ISZERO PUSH2 0x367 JUMPI PUSH2 0x366 PUSH2 0x267 JUMP JUMPDEST JUMPDEST PUSH2 0x372 DUP5 DUP3 DUP6 PUSH2 0x329 JUMP JUMPDEST POP SWAP4 SWAP3 POP POP POP JUMP JUMPDEST PUSH1 0x0 DUP3 PUSH1 0x1F DUP4 ADD SLT PUSH2 0x38F JUMPI PUSH2 0x38E PUSH2 0x262 JUMP JUMPDEST JUMPDEST DUP2 CALLDATALOAD PUSH2 0x39F DUP5 DUP3 PUSH1 0x20 DUP7 ADD PUSH2 0x338 JUMP JUMPDEST SWAP2 POP POP SWAP3 SWAP2 POP POP JUMP JUMPDEST PUSH1 0x0 DUP1 PUSH1 0x0 DUP1 PUSH1 0x0 DUP1 PUSH1 0xC0 DUP8 DUP10 SUB SLT ISZERO PUSH2 0x3C5 JUMPI PUSH2 0x3C4 PUSH2 0x18C JUMP JUMPDEST JUMPDEST PUSH1 0x0 PUSH2 0x3D3 DUP10 DUP3 DUP11 ADD PUSH2 0x1B7 JUMP JUMPDEST SWAP7 POP POP PUSH1 0x20 PUSH2 0x3E4 DUP10 DUP3 DUP11 ADD PUSH2 0x1B7 JUMP JUMPDEST SWAP6 POP POP PUSH1 0x40 PUSH2 0x3F5 DUP10 DUP3 DUP11 ADD PUSH2 0x1B7 JUMP JUMPDEST SWAP5 POP POP PUSH1 0x60 PUSH2 0x406 DUP10 DUP3 DUP11 ADD PUSH2 0x215 JUMP JUMPDEST SWAP4 POP POP PUSH1 0x80 PUSH2 0x417 DUP10 DUP3 DUP11 ADD PUSH2 0x24D JUMP JUMPDEST SWAP3 POP POP PUSH1 0xA0 DUP8 ADD CALLDATALOAD PUSH8 0xFFFFFFFFFFFFFFFF DUP2 GT ISZERO PUSH2 0x438 JUMPI PUSH2 0x437 PUSH2 0x191 JUMP JUMPDEST JUMPDEST PUSH2 0x444 DUP10 DUP3 DUP11 ADD PUSH2 0x37A JUMP JUMPDEST SWAP2 POP POP SWAP3 SWAP6 POP SWAP3 SWAP6 POP SWAP3 SWAP6 JUMP JUMPDEST PUSH2 0x45A DUP2 PUSH2 0x196 JUMP JUMPDEST DUP3 MSTORE POP POP JUMP JUMPDEST PUSH1 0x0 PUSH1 0x20 DUP3 ADD SWAP1 POP PUSH2 0x475 PUSH1 0x0 DUP4 ADD DUP5 PUSH2 0x451 JUMP JUMPDEST SWAP3 SWAP2 POP POP JUMP INVALID LOG2 PUSH5 0x6970667358 0x22 SLT KECCAK256 0xF9 DIV 0x4D SWAP16 PUSH27 0x836CCA25536BF06C7C62EE0283923D519EAF1458657BBB365A51F8 PUSH5 0x736F6C6343 STOP ADDMOD SLT STOP CALLER "
				},
				"gasEstimates": {
					"creation": {
						"codeDepositCost": "240200",
						"executionCost": "281",
						"totalCost": "240481"
					},
					"external": {
						"callfunc()": "472",
						"callfunwithkeyvalue()": "450",
						"somefunctionwithmanyinputs(uint256,uint256,uint256,address,bool,string)": "infinite"
					}
				},
				"methodIdentifiers": {
					"callfunc()": "c162b3b4",
					"callfunwithkeyvalue()": "3f1c21d4",
					"somefunctionwithmanyinputs(uint256,uint256,uint256,address,bool,string)": "209b4376"
				}
			},
			"storageLayout": {
				"storage": [],
				"types": null
			},
			"userdoc": {
				"kind": "user",
				"methods": {},
				"version": 1
			}
		}
	}
}