{
	"contracts/oneto other contract 2.sol": {
		"Car": {
			"abi": [
				{
					"inputs": [
						{
							"internalType": "string",
							"name": "_model",
							"type": "string"
						},
						{
							"internalType": "address",
							"name": "_owner",
							"type": "address"
						}
					],
					"stateMutability": "payable",
					"type": "constructor"
				},
				{
					"inputs": [],
					"name": "model",
					"outputs": [
						{
							"internalType": "string",
							"name": "",
							"type": "string"
						}
					],
					"stateMutability": "view",
					"type": "function"
				},
				{
					"inputs": [],
					"name": "owner",
					"outputs": [
						{
							"internalType": "address",
							"name": "",
							"type": "address"
						}
					],
					"stateMutability": "view",
					"type": "function"
				}
			],
			"devdoc": {
				"kind": "dev",
				"methods": {},
				"version": 1
			},
			"evm": {
				"assembly": "    /* \"contracts/oneto other contract 2.sol\":187:376  contract Car{... */\n  mstore(0x40, 0x80)\n    /* \"contracts/oneto other contract 2.sol\":261:373  constructor(string memory _model, address _owner) payable {... */\n  mload(0x40)\n  sub(codesize, bytecodeSize)\n  dup1\n  bytecodeSize\n  dup4\n  codecopy\n  dup2\n  dup2\n  add\n  0x40\n  mstore\n  dup2\n  add\n  swap1\n  tag_1\n  swap2\n  swap1\n  tag_2\n  jump\t// in\ntag_1:\n    /* \"contracts/oneto other contract 2.sol\":336:342  _model */\n  dup2\n    /* \"contracts/oneto other contract 2.sol\":330:335  model */\n  0x00\n    /* \"contracts/oneto other contract 2.sol\":330:342  model=_model */\n  swap1\n  dup2\n  tag_5\n  swap2\n  swap1\n  tag_6\n  jump\t// in\ntag_5:\n  pop\n    /* \"contracts/oneto other contract 2.sol\":359:365  _owner */\n  dup1\n    /* \"contracts/oneto other contract 2.sol\":353:358  owner */\n  0x01\n  0x00\n    /* \"contracts/oneto other contract 2.sol\":353:365  owner=_owner */\n  0x0100\n  exp\n  dup2\n  sload\n  dup2\n  0xffffffffffffffffffffffffffffffffffffffff\n  mul\n  not\n  and\n  swap1\n  dup4\n  0xffffffffffffffffffffffffffffffffffffffff\n  and\n  mul\n  or\n  swap1\n  sstore\n  pop\n    /* \"contracts/oneto other contract 2.sol\":261:373  constructor(string memory _model, address _owner) payable {... */\n  pop\n  pop\n    /* \"contracts/oneto other contract 2.sol\":187:376  contract Car{... */\n  jump(tag_7)\n    /* \"#utility.yul\":7:82   */\ntag_8:\n    /* \"#utility.yul\":40:46   */\n  0x00\n    /* \"#utility.yul\":73:75   */\n  0x40\n    /* \"#utility.yul\":67:76   */\n  mload\n    /* \"#utility.yul\":57:76   */\n  swap1\n  pop\n    /* \"#utility.yul\":7:82   */\n  swap1\n  jump\t// out\n    /* \"#utility.yul\":88:205   */\ntag_9:\n    /* \"#utility.yul\":197:198   */\n  0x00\n    /* \"#utility.yul\":194:195   */\n  dup1\n    /* \"#utility.yul\":187:199   */\n  revert\n    /* \"#utility.yul\":211:328   */\ntag_10:\n    /* \"#utility.yul\":320:321   */\n  0x00\n    /* \"#utility.yul\":317:318   */\n  dup1\n    /* \"#utility.yul\":310:322   */\n  revert\n    /* \"#utility.yul\":334:451   */\ntag_11:\n    /* \"#utility.yul\":443:444   */\n  0x00\n    /* \"#utility.yul\":440:441   */\n  dup1\n    /* \"#utility.yul\":433:445   */\n  revert\n    /* \"#utility.yul\":457:574   */\ntag_12:\n    /* \"#utility.yul\":566:567   */\n  0x00\n    /* \"#utility.yul\":563:564   */\n  dup1\n    /* \"#utility.yul\":556:568   */\n  revert\n    /* \"#utility.yul\":580:682   */\ntag_13:\n    /* \"#utility.yul\":621:627   */\n  0x00\n    /* \"#utility.yul\":672:674   */\n  0x1f\n    /* \"#utility.yul\":668:675   */\n  not\n    /* \"#utility.yul\":663:665   */\n  0x1f\n    /* \"#utility.yul\":656:661   */\n  dup4\n    /* \"#utility.yul\":652:666   */\n  add\n    /* \"#utility.yul\":648:676   */\n  and\n    /* \"#utility.yul\":638:676   */\n  swap1\n  pop\n    /* \"#utility.yul\":580:682   */\n  swap2\n  swap1\n  pop\n  jump\t// out\n    /* \"#utility.yul\":688:868   */\ntag_14:\n    /* \"#utility.yul\":736:813   */\n  0x4e487b7100000000000000000000000000000000000000000000000000000000\n    /* \"#utility.yul\":733:734   */\n  0x00\n    /* \"#utility.yul\":726:814   */\n  mstore\n    /* \"#utility.yul\":833:837   */\n  0x41\n    /* \"#utility.yul\":830:831   */\n  0x04\n    /* \"#utility.yul\":823:838   */\n  mstore\n    /* \"#utility.yul\":857:861   */\n  0x24\n    /* \"#utility.yul\":854:855   */\n  0x00\n    /* \"#utility.yul\":847:862   */\n  revert\n    /* \"#utility.yul\":874:1155   */\ntag_15:\n    /* \"#utility.yul\":957:984   */\n  tag_53\n    /* \"#utility.yul\":979:983   */\n  dup3\n    /* \"#utility.yul\":957:984   */\n  tag_13\n  jump\t// in\ntag_53:\n    /* \"#utility.yul\":949:955   */\n  dup2\n    /* \"#utility.yul\":945:985   */\n  add\n    /* \"#utility.yul\":1087:1093   */\n  dup2\n    /* \"#utility.yul\":1075:1085   */\n  dup2\n    /* \"#utility.yul\":1072:1094   */\n  lt\n    /* \"#utility.yul\":1051:1069   */\n  0xffffffffffffffff\n    /* \"#utility.yul\":1039:1049   */\n  dup3\n    /* \"#utility.yul\":1036:1070   */\n  gt\n    /* \"#utility.yul\":1033:1095   */\n  or\n    /* \"#utility.yul\":1030:1118   */\n  iszero\n  tag_54\n  jumpi\n    /* \"#utility.yul\":1098:1116   */\n  tag_55\n  tag_14\n  jump\t// in\ntag_55:\n    /* \"#utility.yul\":1030:1118   */\ntag_54:\n    /* \"#utility.yul\":1138:1148   */\n  dup1\n    /* \"#utility.yul\":1134:1136   */\n  0x40\n    /* \"#utility.yul\":1127:1149   */\n  mstore\n    /* \"#utility.yul\":917:1155   */\n  pop\n    /* \"#utility.yul\":874:1155   */\n  pop\n  pop\n  jump\t// out\n    /* \"#utility.yul\":1161:1290   */\ntag_16:\n    /* \"#utility.yul\":1195:1201   */\n  0x00\n    /* \"#utility.yul\":1222:1242   */\n  tag_57\n  tag_8\n  jump\t// in\ntag_57:\n    /* \"#utility.yul\":1212:1242   */\n  swap1\n  pop\n    /* \"#utility.yul\":1251:1284   */\n  tag_58\n    /* \"#utility.yul\":1279:1283   */\n  dup3\n    /* \"#utility.yul\":1271:1277   */\n  dup3\n    /* \"#utility.yul\":1251:1284   */\n  tag_15\n  jump\t// in\ntag_58:\n    /* \"#utility.yul\":1161:1290   */\n  swap2\n  swap1\n  pop\n  jump\t// out\n    /* \"#utility.yul\":1296:1604   */\ntag_17:\n    /* \"#utility.yul\":1358:1362   */\n  0x00\n    /* \"#utility.yul\":1448:1466   */\n  0xffffffffffffffff\n    /* \"#utility.yul\":1440:1446   */\n  dup3\n    /* \"#utility.yul\":1437:1467   */\n  gt\n    /* \"#utility.yul\":1434:1490   */\n  iszero\n  tag_60\n  jumpi\n    /* \"#utility.yul\":1470:1488   */\n  tag_61\n  tag_14\n  jump\t// in\ntag_61:\n    /* \"#utility.yul\":1434:1490   */\ntag_60:\n    /* \"#utility.yul\":1508:1537   */\n  tag_62\n    /* \"#utility.yul\":1530:1536   */\n  dup3\n    /* \"#utility.yul\":1508:1537   */\n  tag_13\n  jump\t// in\ntag_62:\n    /* \"#utility.yul\":1500:1537   */\n  swap1\n  pop\n    /* \"#utility.yul\":1592:1596   */\n  0x20\n    /* \"#utility.yul\":1586:1590   */\n  dup2\n    /* \"#utility.yul\":1582:1597   */\n  add\n    /* \"#utility.yul\":1574:1597   */\n  swap1\n  pop\n    /* \"#utility.yul\":1296:1604   */\n  swap2\n  swap1\n  pop\n  jump\t// out\n    /* \"#utility.yul\":1610:1856   */\ntag_18:\n    /* \"#utility.yul\":1691:1692   */\n  0x00\n    /* \"#utility.yul\":1701:1814   */\ntag_64:\n    /* \"#utility.yul\":1715:1721   */\n  dup4\n    /* \"#utility.yul\":1712:1713   */\n  dup2\n    /* \"#utility.yul\":1709:1722   */\n  lt\n    /* \"#utility.yul\":1701:1814   */\n  iszero\n  tag_66\n  jumpi\n    /* \"#utility.yul\":1800:1801   */\n  dup1\n    /* \"#utility.yul\":1795:1798   */\n  dup3\n    /* \"#utility.yul\":1791:1802   */\n  add\n    /* \"#utility.yul\":1785:1803   */\n  mload\n    /* \"#utility.yul\":1781:1782   */\n  dup2\n    /* \"#utility.yul\":1776:1779   */\n  dup5\n    /* \"#utility.yul\":1772:1783   */\n  add\n    /* \"#utility.yul\":1765:1804   */\n  mstore\n    /* \"#utility.yul\":1737:1739   */\n  0x20\n    /* \"#utility.yul\":1734:1735   */\n  dup2\n    /* \"#utility.yul\":1730:1740   */\n  add\n    /* \"#utility.yul\":1725:1740   */\n  swap1\n  pop\n    /* \"#utility.yul\":1701:1814   */\n  jump(tag_64)\ntag_66:\n    /* \"#utility.yul\":1848:1849   */\n  0x00\n    /* \"#utility.yul\":1839:1845   */\n  dup5\n    /* \"#utility.yul\":1834:1837   */\n  dup5\n    /* \"#utility.yul\":1830:1846   */\n  add\n    /* \"#utility.yul\":1823:1850   */\n  mstore\n    /* \"#utility.yul\":1672:1856   */\n  pop\n    /* \"#utility.yul\":1610:1856   */\n  pop\n  pop\n  pop\n  jump\t// out\n    /* \"#utility.yul\":1862:2296   */\ntag_19:\n    /* \"#utility.yul\":1951:1956   */\n  0x00\n    /* \"#utility.yul\":1976:2042   */\n  tag_68\n    /* \"#utility.yul\":1992:2041   */\n  tag_69\n    /* \"#utility.yul\":2034:2040   */\n  dup5\n    /* \"#utility.yul\":1992:2041   */\n  tag_17\n  jump\t// in\ntag_69:\n    /* \"#utility.yul\":1976:2042   */\n  tag_16\n  jump\t// in\ntag_68:\n    /* \"#utility.yul\":1967:2042   */\n  swap1\n  pop\n    /* \"#utility.yul\":2065:2071   */\n  dup3\n    /* \"#utility.yul\":2058:2063   */\n  dup2\n    /* \"#utility.yul\":2051:2072   */\n  mstore\n    /* \"#utility.yul\":2103:2107   */\n  0x20\n    /* \"#utility.yul\":2096:2101   */\n  dup2\n    /* \"#utility.yul\":2092:2108   */\n  add\n    /* \"#utility.yul\":2141:2144   */\n  dup5\n    /* \"#utility.yul\":2132:2138   */\n  dup5\n    /* \"#utility.yul\":2127:2130   */\n  dup5\n    /* \"#utility.yul\":2123:2139   */\n  add\n    /* \"#utility.yul\":2120:2145   */\n  gt\n    /* \"#utility.yul\":2117:2229   */\n  iszero\n  tag_70\n  jumpi\n    /* \"#utility.yul\":2148:2227   */\n  tag_71\n  tag_12\n  jump\t// in\ntag_71:\n    /* \"#utility.yul\":2117:2229   */\ntag_70:\n    /* \"#utility.yul\":2238:2290   */\n  tag_72\n    /* \"#utility.yul\":2283:2289   */\n  dup5\n    /* \"#utility.yul\":2278:2281   */\n  dup3\n    /* \"#utility.yul\":2273:2276   */\n  dup6\n    /* \"#utility.yul\":2238:2290   */\n  tag_18\n  jump\t// in\ntag_72:\n    /* \"#utility.yul\":1957:2296   */\n  pop\n    /* \"#utility.yul\":1862:2296   */\n  swap4\n  swap3\n  pop\n  pop\n  pop\n  jump\t// out\n    /* \"#utility.yul\":2316:2671   */\ntag_20:\n    /* \"#utility.yul\":2383:2388   */\n  0x00\n    /* \"#utility.yul\":2432:2435   */\n  dup3\n    /* \"#utility.yul\":2425:2429   */\n  0x1f\n    /* \"#utility.yul\":2417:2423   */\n  dup4\n    /* \"#utility.yul\":2413:2430   */\n  add\n    /* \"#utility.yul\":2409:2436   */\n  slt\n    /* \"#utility.yul\":2399:2521   */\n  tag_74\n  jumpi\n    /* \"#utility.yul\":2440:2519   */\n  tag_75\n  tag_11\n  jump\t// in\ntag_75:\n    /* \"#utility.yul\":2399:2521   */\ntag_74:\n    /* \"#utility.yul\":2550:2556   */\n  dup2\n    /* \"#utility.yul\":2544:2557   */\n  mload\n    /* \"#utility.yul\":2575:2665   */\n  tag_76\n    /* \"#utility.yul\":2661:2664   */\n  dup5\n    /* \"#utility.yul\":2653:2659   */\n  dup3\n    /* \"#utility.yul\":2646:2650   */\n  0x20\n    /* \"#utility.yul\":2638:2644   */\n  dup7\n    /* \"#utility.yul\":2634:2651   */\n  add\n    /* \"#utility.yul\":2575:2665   */\n  tag_19\n  jump\t// in\ntag_76:\n    /* \"#utility.yul\":2566:2665   */\n  swap2\n  pop\n    /* \"#utility.yul\":2389:2671   */\n  pop\n    /* \"#utility.yul\":2316:2671   */\n  swap3\n  swap2\n  pop\n  pop\n  jump\t// out\n    /* \"#utility.yul\":2677:2803   */\ntag_21:\n    /* \"#utility.yul\":2714:2721   */\n  0x00\n    /* \"#utility.yul\":2754:2796   */\n  0xffffffffffffffffffffffffffffffffffffffff\n    /* \"#utility.yul\":2747:2752   */\n  dup3\n    /* \"#utility.yul\":2743:2797   */\n  and\n    /* \"#utility.yul\":2732:2797   */\n  swap1\n  pop\n    /* \"#utility.yul\":2677:2803   */\n  swap2\n  swap1\n  pop\n  jump\t// out\n    /* \"#utility.yul\":2809:2905   */\ntag_22:\n    /* \"#utility.yul\":2846:2853   */\n  0x00\n    /* \"#utility.yul\":2875:2899   */\n  tag_79\n    /* \"#utility.yul\":2893:2898   */\n  dup3\n    /* \"#utility.yul\":2875:2899   */\n  tag_21\n  jump\t// in\ntag_79:\n    /* \"#utility.yul\":2864:2899   */\n  swap1\n  pop\n    /* \"#utility.yul\":2809:2905   */\n  swap2\n  swap1\n  pop\n  jump\t// out\n    /* \"#utility.yul\":2911:3033   */\ntag_23:\n    /* \"#utility.yul\":2984:3008   */\n  tag_81\n    /* \"#utility.yul\":3002:3007   */\n  dup2\n    /* \"#utility.yul\":2984:3008   */\n  tag_22\n  jump\t// in\ntag_81:\n    /* \"#utility.yul\":2977:2982   */\n  dup2\n    /* \"#utility.yul\":2974:3009   */\n  eq\n    /* \"#utility.yul\":2964:3027   */\n  tag_82\n  jumpi\n    /* \"#utility.yul\":3023:3024   */\n  0x00\n    /* \"#utility.yul\":3020:3021   */\n  dup1\n    /* \"#utility.yul\":3013:3025   */\n  revert\n    /* \"#utility.yul\":2964:3027   */\ntag_82:\n    /* \"#utility.yul\":2911:3033   */\n  pop\n  jump\t// out\n    /* \"#utility.yul\":3039:3182   */\ntag_24:\n    /* \"#utility.yul\":3096:3101   */\n  0x00\n    /* \"#utility.yul\":3127:3133   */\n  dup2\n    /* \"#utility.yul\":3121:3134   */\n  mload\n    /* \"#utility.yul\":3112:3134   */\n  swap1\n  pop\n    /* \"#utility.yul\":3143:3176   */\n  tag_84\n    /* \"#utility.yul\":3170:3175   */\n  dup2\n    /* \"#utility.yul\":3143:3176   */\n  tag_23\n  jump\t// in\ntag_84:\n    /* \"#utility.yul\":3039:3182   */\n  swap3\n  swap2\n  pop\n  pop\n  jump\t// out\n    /* \"#utility.yul\":3188:3868   */\ntag_2:\n    /* \"#utility.yul\":3277:3283   */\n  0x00\n    /* \"#utility.yul\":3285:3291   */\n  dup1\n    /* \"#utility.yul\":3334:3336   */\n  0x40\n    /* \"#utility.yul\":3322:3331   */\n  dup4\n    /* \"#utility.yul\":3313:3320   */\n  dup6\n    /* \"#utility.yul\":3309:3332   */\n  sub\n    /* \"#utility.yul\":3305:3337   */\n  slt\n    /* \"#utility.yul\":3302:3421   */\n  iszero\n  tag_86\n  jumpi\n    /* \"#utility.yul\":3340:3419   */\n  tag_87\n  tag_9\n  jump\t// in\ntag_87:\n    /* \"#utility.yul\":3302:3421   */\ntag_86:\n    /* \"#utility.yul\":3481:3482   */\n  0x00\n    /* \"#utility.yul\":3470:3479   */\n  dup4\n    /* \"#utility.yul\":3466:3483   */\n  add\n    /* \"#utility.yul\":3460:3484   */\n  mload\n    /* \"#utility.yul\":3511:3529   */\n  0xffffffffffffffff\n    /* \"#utility.yul\":3503:3509   */\n  dup2\n    /* \"#utility.yul\":3500:3530   */\n  gt\n    /* \"#utility.yul\":3497:3614   */\n  iszero\n  tag_88\n  jumpi\n    /* \"#utility.yul\":3533:3612   */\n  tag_89\n  tag_10\n  jump\t// in\ntag_89:\n    /* \"#utility.yul\":3497:3614   */\ntag_88:\n    /* \"#utility.yul\":3638:3712   */\n  tag_90\n    /* \"#utility.yul\":3704:3711   */\n  dup6\n    /* \"#utility.yul\":3695:3701   */\n  dup3\n    /* \"#utility.yul\":3684:3693   */\n  dup7\n    /* \"#utility.yul\":3680:3702   */\n  add\n    /* \"#utility.yul\":3638:3712   */\n  tag_20\n  jump\t// in\ntag_90:\n    /* \"#utility.yul\":3628:3712   */\n  swap3\n  pop\n    /* \"#utility.yul\":3431:3722   */\n  pop\n    /* \"#utility.yul\":3761:3763   */\n  0x20\n    /* \"#utility.yul\":3787:3851   */\n  tag_91\n    /* \"#utility.yul\":3843:3850   */\n  dup6\n    /* \"#utility.yul\":3834:3840   */\n  dup3\n    /* \"#utility.yul\":3823:3832   */\n  dup7\n    /* \"#utility.yul\":3819:3841   */\n  add\n    /* \"#utility.yul\":3787:3851   */\n  tag_24\n  jump\t// in\ntag_91:\n    /* \"#utility.yul\":3777:3851   */\n  swap2\n  pop\n    /* \"#utility.yul\":3732:3861   */\n  pop\n    /* \"#utility.yul\":3188:3868   */\n  swap3\n  pop\n  swap3\n  swap1\n  pop\n  jump\t// out\n    /* \"#utility.yul\":3874:3973   */\ntag_25:\n    /* \"#utility.yul\":3926:3932   */\n  0x00\n    /* \"#utility.yul\":3960:3965   */\n  dup2\n    /* \"#utility.yul\":3954:3966   */\n  mload\n    /* \"#utility.yul\":3944:3966   */\n  swap1\n  pop\n    /* \"#utility.yul\":3874:3973   */\n  swap2\n  swap1\n  pop\n  jump\t// out\n    /* \"#utility.yul\":3979:4159   */\ntag_26:\n    /* \"#utility.yul\":4027:4104   */\n  0x4e487b7100000000000000000000000000000000000000000000000000000000\n    /* \"#utility.yul\":4024:4025   */\n  0x00\n    /* \"#utility.yul\":4017:4105   */\n  mstore\n    /* \"#utility.yul\":4124:4128   */\n  0x22\n    /* \"#utility.yul\":4121:4122   */\n  0x04\n    /* \"#utility.yul\":4114:4129   */\n  mstore\n    /* \"#utility.yul\":4148:4152   */\n  0x24\n    /* \"#utility.yul\":4145:4146   */\n  0x00\n    /* \"#utility.yul\":4138:4153   */\n  revert\n    /* \"#utility.yul\":4165:4485   */\ntag_27:\n    /* \"#utility.yul\":4209:4215   */\n  0x00\n    /* \"#utility.yul\":4246:4247   */\n  0x02\n    /* \"#utility.yul\":4240:4244   */\n  dup3\n    /* \"#utility.yul\":4236:4248   */\n  div\n    /* \"#utility.yul\":4226:4248   */\n  swap1\n  pop\n    /* \"#utility.yul\":4293:4294   */\n  0x01\n    /* \"#utility.yul\":4287:4291   */\n  dup3\n    /* \"#utility.yul\":4283:4295   */\n  and\n    /* \"#utility.yul\":4314:4332   */\n  dup1\n    /* \"#utility.yul\":4304:4385   */\n  tag_95\n  jumpi\n    /* \"#utility.yul\":4370:4374   */\n  0x7f\n    /* \"#utility.yul\":4362:4368   */\n  dup3\n    /* \"#utility.yul\":4358:4375   */\n  and\n    /* \"#utility.yul\":4348:4375   */\n  swap2\n  pop\n    /* \"#utility.yul\":4304:4385   */\ntag_95:\n    /* \"#utility.yul\":4432:4434   */\n  0x20\n    /* \"#utility.yul\":4424:4430   */\n  dup3\n    /* \"#utility.yul\":4421:4435   */\n  lt\n    /* \"#utility.yul\":4401:4419   */\n  dup2\n    /* \"#utility.yul\":4398:4436   */\n  sub\n    /* \"#utility.yul\":4395:4479   */\n  tag_96\n  jumpi\n    /* \"#utility.yul\":4451:4469   */\n  tag_97\n  tag_26\n  jump\t// in\ntag_97:\n    /* \"#utility.yul\":4395:4479   */\ntag_96:\n    /* \"#utility.yul\":4216:4485   */\n  pop\n    /* \"#utility.yul\":4165:4485   */\n  swap2\n  swap1\n  pop\n  jump\t// out\n    /* \"#utility.yul\":4491:4632   */\ntag_28:\n    /* \"#utility.yul\":4540:4544   */\n  0x00\n    /* \"#utility.yul\":4563:4566   */\n  dup2\n    /* \"#utility.yul\":4555:4566   */\n  swap1\n  pop\n    /* \"#utility.yul\":4586:4589   */\n  dup2\n    /* \"#utility.yul\":4583:4584   */\n  0x00\n    /* \"#utility.yul\":4576:4590   */\n  mstore\n    /* \"#utility.yul\":4620:4624   */\n  0x20\n    /* \"#utility.yul\":4617:4618   */\n  0x00\n    /* \"#utility.yul\":4607:4625   */\n  keccak256\n    /* \"#utility.yul\":4599:4625   */\n  swap1\n  pop\n    /* \"#utility.yul\":4491:4632   */\n  swap2\n  swap1\n  pop\n  jump\t// out\n    /* \"#utility.yul\":4638:4731   */\ntag_29:\n    /* \"#utility.yul\":4675:4681   */\n  0x00\n    /* \"#utility.yul\":4722:4724   */\n  0x20\n    /* \"#utility.yul\":4717:4719   */\n  0x1f\n    /* \"#utility.yul\":4710:4715   */\n  dup4\n    /* \"#utility.yul\":4706:4720   */\n  add\n    /* \"#utility.yul\":4702:4725   */\n  div\n    /* \"#utility.yul\":4692:4725   */\n  swap1\n  pop\n    /* \"#utility.yul\":4638:4731   */\n  swap2\n  swap1\n  pop\n  jump\t// out\n    /* \"#utility.yul\":4737:4844   */\ntag_30:\n    /* \"#utility.yul\":4781:4789   */\n  0x00\n    /* \"#utility.yul\":4831:4836   */\n  dup3\n    /* \"#utility.yul\":4825:4829   */\n  dup3\n    /* \"#utility.yul\":4821:4837   */\n  shl\n    /* \"#utility.yul\":4800:4837   */\n  swap1\n  pop\n    /* \"#utility.yul\":4737:4844   */\n  swap3\n  swap2\n  pop\n  pop\n  jump\t// out\n    /* \"#utility.yul\":4850:5243   */\ntag_31:\n    /* \"#utility.yul\":4919:4925   */\n  0x00\n    /* \"#utility.yul\":4969:4970   */\n  0x08\n    /* \"#utility.yul\":4957:4967   */\n  dup4\n    /* \"#utility.yul\":4953:4971   */\n  mul\n    /* \"#utility.yul\":4992:5089   */\n  tag_102\n    /* \"#utility.yul\":5022:5088   */\n  0xffffffffffffffffffffffffffffffffffffffffffffffffffffffffffffffff\n    /* \"#utility.yul\":5011:5020   */\n  dup3\n    /* \"#utility.yul\":4992:5089   */\n  tag_30\n  jump\t// in\ntag_102:\n    /* \"#utility.yul\":5110:5149   */\n  tag_103\n    /* \"#utility.yul\":5140:5148   */\n  dup7\n    /* \"#utility.yul\":5129:5138   */\n  dup4\n    /* \"#utility.yul\":5110:5149   */\n  tag_30\n  jump\t// in\ntag_103:\n    /* \"#utility.yul\":5098:5149   */\n  swap6\n  pop\n    /* \"#utility.yul\":5182:5186   */\n  dup1\n    /* \"#utility.yul\":5178:5187   */\n  not\n    /* \"#utility.yul\":5171:5176   */\n  dup5\n    /* \"#utility.yul\":5167:5188   */\n  and\n    /* \"#utility.yul\":5158:5188   */\n  swap4\n  pop\n    /* \"#utility.yul\":5231:5235   */\n  dup1\n    /* \"#utility.yul\":5221:5229   */\n  dup7\n    /* \"#utility.yul\":5217:5236   */\n  and\n    /* \"#utility.yul\":5210:5215   */\n  dup5\n    /* \"#utility.yul\":5207:5237   */\n  or\n    /* \"#utility.yul\":5197:5237   */\n  swap3\n  pop\n    /* \"#utility.yul\":4926:5243   */\n  pop\n  pop\n    /* \"#utility.yul\":4850:5243   */\n  swap4\n  swap3\n  pop\n  pop\n  pop\n  jump\t// out\n    /* \"#utility.yul\":5249:5326   */\ntag_32:\n    /* \"#utility.yul\":5286:5293   */\n  0x00\n    /* \"#utility.yul\":5315:5320   */\n  dup2\n    /* \"#utility.yul\":5304:5320   */\n  swap1\n  pop\n    /* \"#utility.yul\":5249:5326   */\n  swap2\n  swap1\n  pop\n  jump\t// out\n    /* \"#utility.yul\":5332:5392   */\ntag_33:\n    /* \"#utility.yul\":5360:5363   */\n  0x00\n    /* \"#utility.yul\":5381:5386   */\n  dup2\n    /* \"#utility.yul\":5374:5386   */\n  swap1\n  pop\n    /* \"#utility.yul\":5332:5392   */\n  swap2\n  swap1\n  pop\n  jump\t// out\n    /* \"#utility.yul\":5398:5540   */\ntag_34:\n    /* \"#utility.yul\":5448:5457   */\n  0x00\n    /* \"#utility.yul\":5481:5534   */\n  tag_107\n    /* \"#utility.yul\":5499:5533   */\n  tag_108\n    /* \"#utility.yul\":5508:5532   */\n  tag_109\n    /* \"#utility.yul\":5526:5531   */\n  dup5\n    /* \"#utility.yul\":5508:5532   */\n  tag_32\n  jump\t// in\ntag_109:\n    /* \"#utility.yul\":5499:5533   */\n  tag_33\n  jump\t// in\ntag_108:\n    /* \"#utility.yul\":5481:5534   */\n  tag_32\n  jump\t// in\ntag_107:\n    /* \"#utility.yul\":5468:5534   */\n  swap1\n  pop\n    /* \"#utility.yul\":5398:5540   */\n  swap2\n  swap1\n  pop\n  jump\t// out\n    /* \"#utility.yul\":5546:5621   */\ntag_35:\n    /* \"#utility.yul\":5589:5592   */\n  0x00\n    /* \"#utility.yul\":5610:5615   */\n  dup2\n    /* \"#utility.yul\":5603:5615   */\n  swap1\n  pop\n    /* \"#utility.yul\":5546:5621   */\n  swap2\n  swap1\n  pop\n  jump\t// out\n    /* \"#utility.yul\":5627:5896   */\ntag_36:\n    /* \"#utility.yul\":5737:5776   */\n  tag_112\n    /* \"#utility.yul\":5768:5775   */\n  dup4\n    /* \"#utility.yul\":5737:5776   */\n  tag_34\n  jump\t// in\ntag_112:\n    /* \"#utility.yul\":5798:5889   */\n  tag_113\n    /* \"#utility.yul\":5847:5888   */\n  tag_114\n    /* \"#utility.yul\":5871:5887   */\n  dup3\n    /* \"#utility.yul\":5847:5888   */\n  tag_35\n  jump\t// in\ntag_114:\n    /* \"#utility.yul\":5839:5845   */\n  dup5\n    /* \"#utility.yul\":5832:5836   */\n  dup5\n    /* \"#utility.yul\":5826:5837   */\n  sload\n    /* \"#utility.yul\":5798:5889   */\n  tag_31\n  jump\t// in\ntag_113:\n    /* \"#utility.yul\":5792:5796   */\n  dup3\n    /* \"#utility.yul\":5785:5890   */\n  sstore\n    /* \"#utility.yul\":5703:5896   */\n  pop\n    /* \"#utility.yul\":5627:5896   */\n  pop\n  pop\n  pop\n  jump\t// out\n    /* \"#utility.yul\":5902:5975   */\ntag_37:\n    /* \"#utility.yul\":5947:5950   */\n  0x00\n    /* \"#utility.yul\":5902:5975   */\n  swap1\n  jump\t// out\n    /* \"#utility.yul\":5981:6170   */\ntag_38:\n    /* \"#utility.yul\":6058:6090   */\n  tag_117\n  tag_37\n  jump\t// in\ntag_117:\n    /* \"#utility.yul\":6099:6164   */\n  tag_118\n    /* \"#utility.yul\":6157:6163   */\n  dup2\n    /* \"#utility.yul\":6149:6155   */\n  dup5\n    /* \"#utility.yul\":6143:6147   */\n  dup5\n    /* \"#utility.yul\":6099:6164   */\n  tag_36\n  jump\t// in\ntag_118:\n    /* \"#utility.yul\":6034:6170   */\n  pop\n    /* \"#utility.yul\":5981:6170   */\n  pop\n  pop\n  jump\t// out\n    /* \"#utility.yul\":6176:6362   */\ntag_39:\n    /* \"#utility.yul\":6236:6356   */\ntag_120:\n    /* \"#utility.yul\":6253:6256   */\n  dup2\n    /* \"#utility.yul\":6246:6251   */\n  dup2\n    /* \"#utility.yul\":6243:6257   */\n  lt\n    /* \"#utility.yul\":6236:6356   */\n  iszero\n  tag_122\n  jumpi\n    /* \"#utility.yul\":6307:6346   */\n  tag_123\n    /* \"#utility.yul\":6344:6345   */\n  0x00\n    /* \"#utility.yul\":6337:6342   */\n  dup3\n    /* \"#utility.yul\":6307:6346   */\n  tag_38\n  jump\t// in\ntag_123:\n    /* \"#utility.yul\":6280:6281   */\n  0x01\n    /* \"#utility.yul\":6273:6278   */\n  dup2\n    /* \"#utility.yul\":6269:6282   */\n  add\n    /* \"#utility.yul\":6260:6282   */\n  swap1\n  pop\n    /* \"#utility.yul\":6236:6356   */\n  jump(tag_120)\ntag_122:\n    /* \"#utility.yul\":6176:6362   */\n  pop\n  pop\n  jump\t// out\n    /* \"#utility.yul\":6368:6911   */\ntag_40:\n    /* \"#utility.yul\":6469:6471   */\n  0x1f\n    /* \"#utility.yul\":6464:6467   */\n  dup3\n    /* \"#utility.yul\":6461:6472   */\n  gt\n    /* \"#utility.yul\":6458:6904   */\n  iszero\n  tag_125\n  jumpi\n    /* \"#utility.yul\":6503:6541   */\n  tag_126\n    /* \"#utility.yul\":6535:6540   */\n  dup2\n    /* \"#utility.yul\":6503:6541   */\n  tag_28\n  jump\t// in\ntag_126:\n    /* \"#utility.yul\":6587:6616   */\n  tag_127\n    /* \"#utility.yul\":6605:6615   */\n  dup5\n    /* \"#utility.yul\":6587:6616   */\n  tag_29\n  jump\t// in\ntag_127:\n    /* \"#utility.yul\":6577:6585   */\n  dup2\n    /* \"#utility.yul\":6573:6617   */\n  add\n    /* \"#utility.yul\":6770:6772   */\n  0x20\n    /* \"#utility.yul\":6758:6768   */\n  dup6\n    /* \"#utility.yul\":6755:6773   */\n  lt\n    /* \"#utility.yul\":6752:6801   */\n  iszero\n  tag_128\n  jumpi\n    /* \"#utility.yul\":6791:6799   */\n  dup2\n    /* \"#utility.yul\":6776:6799   */\n  swap1\n  pop\n    /* \"#utility.yul\":6752:6801   */\ntag_128:\n    /* \"#utility.yul\":6814:6894   */\n  tag_129\n    /* \"#utility.yul\":6870:6892   */\n  tag_130\n    /* \"#utility.yul\":6888:6891   */\n  dup6\n    /* \"#utility.yul\":6870:6892   */\n  tag_29\n  jump\t// in\ntag_130:\n    /* \"#utility.yul\":6860:6868   */\n  dup4\n    /* \"#utility.yul\":6856:6893   */\n  add\n    /* \"#utility.yul\":6843:6854   */\n  dup3\n    /* \"#utility.yul\":6814:6894   */\n  tag_39\n  jump\t// in\ntag_129:\n    /* \"#utility.yul\":6473:6904   */\n  pop\n  pop\n    /* \"#utility.yul\":6458:6904   */\ntag_125:\n    /* \"#utility.yul\":6368:6911   */\n  pop\n  pop\n  pop\n  jump\t// out\n    /* \"#utility.yul\":6917:7034   */\ntag_41:\n    /* \"#utility.yul\":6971:6979   */\n  0x00\n    /* \"#utility.yul\":7021:7026   */\n  dup3\n    /* \"#utility.yul\":7015:7019   */\n  dup3\n    /* \"#utility.yul\":7011:7027   */\n  shr\n    /* \"#utility.yul\":6990:7027   */\n  swap1\n  pop\n    /* \"#utility.yul\":6917:7034   */\n  swap3\n  swap2\n  pop\n  pop\n  jump\t// out\n    /* \"#utility.yul\":7040:7209   */\ntag_42:\n    /* \"#utility.yul\":7084:7090   */\n  0x00\n    /* \"#utility.yul\":7117:7168   */\n  tag_133\n    /* \"#utility.yul\":7165:7166   */\n  0x00\n    /* \"#utility.yul\":7161:7167   */\n  not\n    /* \"#utility.yul\":7153:7158   */\n  dup5\n    /* \"#utility.yul\":7150:7151   */\n  0x08\n    /* \"#utility.yul\":7146:7159   */\n  mul\n    /* \"#utility.yul\":7117:7168   */\n  tag_41\n  jump\t// in\ntag_133:\n    /* \"#utility.yul\":7113:7169   */\n  not\n    /* \"#utility.yul\":7198:7202   */\n  dup1\n    /* \"#utility.yul\":7192:7196   */\n  dup4\n    /* \"#utility.yul\":7188:7203   */\n  and\n    /* \"#utility.yul\":7178:7203   */\n  swap2\n  pop\n    /* \"#utility.yul\":7091:7209   */\n  pop\n    /* \"#utility.yul\":7040:7209   */\n  swap3\n  swap2\n  pop\n  pop\n  jump\t// out\n    /* \"#utility.yul\":7214:7509   */\ntag_43:\n    /* \"#utility.yul\":7290:7294   */\n  0x00\n    /* \"#utility.yul\":7436:7465   */\n  tag_135\n    /* \"#utility.yul\":7461:7464   */\n  dup4\n    /* \"#utility.yul\":7455:7459   */\n  dup4\n    /* \"#utility.yul\":7436:7465   */\n  tag_42\n  jump\t// in\ntag_135:\n    /* \"#utility.yul\":7428:7465   */\n  swap2\n  pop\n    /* \"#utility.yul\":7498:7501   */\n  dup3\n    /* \"#utility.yul\":7495:7496   */\n  0x02\n    /* \"#utility.yul\":7491:7502   */\n  mul\n    /* \"#utility.yul\":7485:7489   */\n  dup3\n    /* \"#utility.yul\":7482:7503   */\n  or\n    /* \"#utility.yul\":7474:7503   */\n  swap1\n  pop\n    /* \"#utility.yul\":7214:7509   */\n  swap3\n  swap2\n  pop\n  pop\n  jump\t// out\n    /* \"#utility.yul\":7514:8909   */\ntag_6:\n    /* \"#utility.yul\":7631:7668   */\n  tag_137\n    /* \"#utility.yul\":7664:7667   */\n  dup3\n    /* \"#utility.yul\":7631:7668   */\n  tag_25\n  jump\t// in\ntag_137:\n    /* \"#utility.yul\":7733:7751   */\n  0xffffffffffffffff\n    /* \"#utility.yul\":7725:7731   */\n  dup2\n    /* \"#utility.yul\":7722:7752   */\n  gt\n    /* \"#utility.yul\":7719:7775   */\n  iszero\n  tag_138\n  jumpi\n    /* \"#utility.yul\":7755:7773   */\n  tag_139\n  tag_14\n  jump\t// in\ntag_139:\n    /* \"#utility.yul\":7719:7775   */\ntag_138:\n    /* \"#utility.yul\":7799:7837   */\n  tag_140\n    /* \"#utility.yul\":7831:7835   */\n  dup3\n    /* \"#utility.yul\":7825:7836   */\n  sload\n    /* \"#utility.yul\":7799:7837   */\n  tag_27\n  jump\t// in\ntag_140:\n    /* \"#utility.yul\":7884:7951   */\n  tag_141\n    /* \"#utility.yul\":7944:7950   */\n  dup3\n    /* \"#utility.yul\":7936:7942   */\n  dup3\n    /* \"#utility.yul\":7930:7934   */\n  dup6\n    /* \"#utility.yul\":7884:7951   */\n  tag_40\n  jump\t// in\ntag_141:\n    /* \"#utility.yul\":7978:7979   */\n  0x00\n    /* \"#utility.yul\":8002:8006   */\n  0x20\n    /* \"#utility.yul\":7989:8006   */\n  swap1\n  pop\n    /* \"#utility.yul\":8034:8036   */\n  0x1f\n    /* \"#utility.yul\":8026:8032   */\n  dup4\n    /* \"#utility.yul\":8023:8037   */\n  gt\n    /* \"#utility.yul\":8051:8052   */\n  0x01\n    /* \"#utility.yul\":8046:8664   */\n  dup2\n  eq\n  tag_143\n  jumpi\n    /* \"#utility.yul\":8708:8709   */\n  0x00\n    /* \"#utility.yul\":8725:8731   */\n  dup5\n    /* \"#utility.yul\":8722:8799   */\n  iszero\n  tag_144\n  jumpi\n    /* \"#utility.yul\":8774:8783   */\n  dup3\n    /* \"#utility.yul\":8769:8772   */\n  dup8\n    /* \"#utility.yul\":8765:8784   */\n  add\n    /* \"#utility.yul\":8759:8785   */\n  mload\n    /* \"#utility.yul\":8750:8785   */\n  swap1\n  pop\n    /* \"#utility.yul\":8722:8799   */\ntag_144:\n    /* \"#utility.yul\":8825:8892   */\n  tag_145\n    /* \"#utility.yul\":8885:8891   */\n  dup6\n    /* \"#utility.yul\":8878:8883   */\n  dup3\n    /* \"#utility.yul\":8825:8892   */\n  tag_43\n  jump\t// in\ntag_145:\n    /* \"#utility.yul\":8819:8823   */\n  dup7\n    /* \"#utility.yul\":8812:8893   */\n  sstore\n    /* \"#utility.yul\":8681:8903   */\n  pop\n    /* \"#utility.yul\":8016:8903   */\n  jump(tag_142)\n    /* \"#utility.yul\":8046:8664   */\ntag_143:\n    /* \"#utility.yul\":8098:8102   */\n  0x1f\n    /* \"#utility.yul\":8094:8103   */\n  not\n    /* \"#utility.yul\":8086:8092   */\n  dup5\n    /* \"#utility.yul\":8082:8104   */\n  and\n    /* \"#utility.yul\":8132:8169   */\n  tag_146\n    /* \"#utility.yul\":8164:8168   */\n  dup7\n    /* \"#utility.yul\":8132:8169   */\n  tag_28\n  jump\t// in\ntag_146:\n    /* \"#utility.yul\":8191:8192   */\n  0x00\n    /* \"#utility.yul\":8205:8413   */\ntag_147:\n    /* \"#utility.yul\":8219:8226   */\n  dup3\n    /* \"#utility.yul\":8216:8217   */\n  dup2\n    /* \"#utility.yul\":8213:8227   */\n  lt\n    /* \"#utility.yul\":8205:8413   */\n  iszero\n  tag_149\n  jumpi\n    /* \"#utility.yul\":8298:8307   */\n  dup5\n    /* \"#utility.yul\":8293:8296   */\n  dup10\n    /* \"#utility.yul\":8289:8308   */\n  add\n    /* \"#utility.yul\":8283:8309   */\n  mload\n    /* \"#utility.yul\":8275:8281   */\n  dup3\n    /* \"#utility.yul\":8268:8310   */\n  sstore\n    /* \"#utility.yul\":8349:8350   */\n  0x01\n    /* \"#utility.yul\":8341:8347   */\n  dup3\n    /* \"#utility.yul\":8337:8351   */\n  add\n    /* \"#utility.yul\":8327:8351   */\n  swap2\n  pop\n    /* \"#utility.yul\":8396:8398   */\n  0x20\n    /* \"#utility.yul\":8385:8394   */\n  dup6\n    /* \"#utility.yul\":8381:8399   */\n  add\n    /* \"#utility.yul\":8368:8399   */\n  swap5\n  pop\n    /* \"#utility.yul\":8242:8246   */\n  0x20\n    /* \"#utility.yul\":8239:8240   */\n  dup2\n    /* \"#utility.yul\":8235:8247   */\n  add\n    /* \"#utility.yul\":8230:8247   */\n  swap1\n  pop\n    /* \"#utility.yul\":8205:8413   */\n  jump(tag_147)\ntag_149:\n    /* \"#utility.yul\":8441:8447   */\n  dup7\n    /* \"#utility.yul\":8432:8439   */\n  dup4\n    /* \"#utility.yul\":8429:8448   */\n  lt\n    /* \"#utility.yul\":8426:8605   */\n  iszero\n  tag_150\n  jumpi\n    /* \"#utility.yul\":8499:8508   */\n  dup5\n    /* \"#utility.yul\":8494:8497   */\n  dup10\n    /* \"#utility.yul\":8490:8509   */\n  add\n    /* \"#utility.yul\":8484:8510   */\n  mload\n    /* \"#utility.yul\":8542:8590   */\n  tag_151\n    /* \"#utility.yul\":8584:8588   */\n  0x1f\n    /* \"#utility.yul\":8576:8582   */\n  dup10\n    /* \"#utility.yul\":8572:8589   */\n  and\n    /* \"#utility.yul\":8561:8570   */\n  dup3\n    /* \"#utility.yul\":8542:8590   */\n  tag_42\n  jump\t// in\ntag_151:\n    /* \"#utility.yul\":8534:8540   */\n  dup4\n    /* \"#utility.yul\":8527:8591   */\n  sstore\n    /* \"#utility.yul\":8449:8605   */\n  pop\n    /* \"#utility.yul\":8426:8605   */\ntag_150:\n    /* \"#utility.yul\":8651:8652   */\n  0x01\n    /* \"#utility.yul\":8647:8648   */\n  0x02\n    /* \"#utility.yul\":8639:8645   */\n  dup9\n    /* \"#utility.yul\":8635:8649   */\n  mul\n    /* \"#utility.yul\":8631:8653   */\n  add\n    /* \"#utility.yul\":8625:8629   */\n  dup9\n    /* \"#utility.yul\":8618:8654   */\n  sstore\n    /* \"#utility.yul\":8053:8664   */\n  pop\n  pop\n  pop\n    /* \"#utility.yul\":8016:8903   */\ntag_142:\n  pop\n    /* \"#utility.yul\":7606:8909   */\n  pop\n  pop\n  pop\n    /* \"#utility.yul\":7514:8909   */\n  pop\n  pop\n  jump\t// out\n    /* \"contracts/oneto other contract 2.sol\":187:376  contract Car{... */\ntag_7:\n  dataSize(sub_0)\n  dup1\n  dataOffset(sub_0)\n  0x00\n  codecopy\n  0x00\n  return\nstop\n\nsub_0: assembly {\n        /* \"contracts/oneto other contract 2.sol\":187:376  contract Car{... */\n      mstore(0x40, 0x80)\n      callvalue\n      dup1\n      iszero\n      tag_1\n      jumpi\n      0x00\n      dup1\n      revert\n    tag_1:\n      pop\n      jumpi(tag_2, lt(calldatasize, 0x04))\n      shr(0xe0, calldataload(0x00))\n      dup1\n      0x0ad9d052\n      eq\n      tag_3\n      jumpi\n      dup1\n      0x8da5cb5b\n      eq\n      tag_4\n      jumpi\n    tag_2:\n      0x00\n      dup1\n      revert\n        /* \"contracts/oneto other contract 2.sol\":206:225  string public model */\n    tag_3:\n      tag_5\n      tag_6\n      jump\t// in\n    tag_5:\n      mload(0x40)\n      tag_7\n      swap2\n      swap1\n      tag_8\n      jump\t// in\n    tag_7:\n      mload(0x40)\n      dup1\n      swap2\n      sub\n      swap1\n      return\n        /* \"contracts/oneto other contract 2.sol\":232:252  address public owner */\n    tag_4:\n      tag_9\n      tag_10\n      jump\t// in\n    tag_9:\n      mload(0x40)\n      tag_11\n      swap2\n      swap1\n      tag_12\n      jump\t// in\n    tag_11:\n      mload(0x40)\n      dup1\n      swap2\n      sub\n      swap1\n      return\n        /* \"contracts/oneto other contract 2.sol\":206:225  string public model */\n    tag_6:\n      0x00\n      dup1\n      sload\n      tag_13\n      swap1\n      tag_14\n      jump\t// in\n    tag_13:\n      dup1\n      0x1f\n      add\n      0x20\n      dup1\n      swap2\n      div\n      mul\n      0x20\n      add\n      mload(0x40)\n      swap1\n      dup2\n      add\n      0x40\n      mstore\n      dup1\n      swap3\n      swap2\n      swap1\n      dup2\n      dup2\n      mstore\n      0x20\n      add\n      dup3\n      dup1\n      sload\n      tag_15\n      swap1\n      tag_14\n      jump\t// in\n    tag_15:\n      dup1\n      iszero\n      tag_16\n      jumpi\n      dup1\n      0x1f\n      lt\n      tag_17\n      jumpi\n      0x0100\n      dup1\n      dup4\n      sload\n      div\n      mul\n      dup4\n      mstore\n      swap2\n      0x20\n      add\n      swap2\n      jump(tag_16)\n    tag_17:\n      dup3\n      add\n      swap2\n      swap1\n      0x00\n      mstore\n      keccak256(0x00, 0x20)\n      swap1\n    tag_18:\n      dup2\n      sload\n      dup2\n      mstore\n      swap1\n      0x01\n      add\n      swap1\n      0x20\n      add\n      dup1\n      dup4\n      gt\n      tag_18\n      jumpi\n      dup3\n      swap1\n      sub\n      0x1f\n      and\n      dup3\n      add\n      swap2\n    tag_16:\n      pop\n      pop\n      pop\n      pop\n      pop\n      dup2\n      jump\t// out\n        /* \"contracts/oneto other contract 2.sol\":232:252  address public owner */\n    tag_10:\n      0x01\n      0x00\n      swap1\n      sload\n      swap1\n      0x0100\n      exp\n      swap1\n      div\n      0xffffffffffffffffffffffffffffffffffffffff\n      and\n      dup2\n      jump\t// out\n        /* \"#utility.yul\":7:106   */\n    tag_19:\n        /* \"#utility.yul\":59:65   */\n      0x00\n        /* \"#utility.yul\":93:98   */\n      dup2\n        /* \"#utility.yul\":87:99   */\n      mload\n        /* \"#utility.yul\":77:99   */\n      swap1\n      pop\n        /* \"#utility.yul\":7:106   */\n      swap2\n      swap1\n      pop\n      jump\t// out\n        /* \"#utility.yul\":112:281   */\n    tag_20:\n        /* \"#utility.yul\":196:207   */\n      0x00\n        /* \"#utility.yul\":230:236   */\n      dup3\n        /* \"#utility.yul\":225:228   */\n      dup3\n        /* \"#utility.yul\":218:237   */\n      mstore\n        /* \"#utility.yul\":270:274   */\n      0x20\n        /* \"#utility.yul\":265:268   */\n      dup3\n        /* \"#utility.yul\":261:275   */\n      add\n        /* \"#utility.yul\":246:275   */\n      swap1\n      pop\n        /* \"#utility.yul\":112:281   */\n      swap3\n      swap2\n      pop\n      pop\n      jump\t// out\n        /* \"#utility.yul\":287:533   */\n    tag_21:\n        /* \"#utility.yul\":368:369   */\n      0x00\n        /* \"#utility.yul\":378:491   */\n    tag_32:\n        /* \"#utility.yul\":392:398   */\n      dup4\n        /* \"#utility.yul\":389:390   */\n      dup2\n        /* \"#utility.yul\":386:399   */\n      lt\n        /* \"#utility.yul\":378:491   */\n      iszero\n      tag_34\n      jumpi\n        /* \"#utility.yul\":477:478   */\n      dup1\n        /* \"#utility.yul\":472:475   */\n      dup3\n        /* \"#utility.yul\":468:479   */\n      add\n        /* \"#utility.yul\":462:480   */\n      mload\n        /* \"#utility.yul\":458:459   */\n      dup2\n        /* \"#utility.yul\":453:456   */\n      dup5\n        /* \"#utility.yul\":449:460   */\n      add\n        /* \"#utility.yul\":442:481   */\n      mstore\n        /* \"#utility.yul\":414:416   */\n      0x20\n        /* \"#utility.yul\":411:412   */\n      dup2\n        /* \"#utility.yul\":407:417   */\n      add\n        /* \"#utility.yul\":402:417   */\n      swap1\n      pop\n        /* \"#utility.yul\":378:491   */\n      jump(tag_32)\n    tag_34:\n        /* \"#utility.yul\":525:526   */\n      0x00\n        /* \"#utility.yul\":516:522   */\n      dup5\n        /* \"#utility.yul\":511:514   */\n      dup5\n        /* \"#utility.yul\":507:523   */\n      add\n        /* \"#utility.yul\":500:527   */\n      mstore\n        /* \"#utility.yul\":349:533   */\n      pop\n        /* \"#utility.yul\":287:533   */\n      pop\n      pop\n      pop\n      jump\t// out\n        /* \"#utility.yul\":539:641   */\n    tag_22:\n        /* \"#utility.yul\":580:586   */\n      0x00\n        /* \"#utility.yul\":631:633   */\n      0x1f\n        /* \"#utility.yul\":627:634   */\n      not\n        /* \"#utility.yul\":622:624   */\n      0x1f\n        /* \"#utility.yul\":615:620   */\n      dup4\n        /* \"#utility.yul\":611:625   */\n      add\n        /* \"#utility.yul\":607:635   */\n      and\n        /* \"#utility.yul\":597:635   */\n      swap1\n      pop\n        /* \"#utility.yul\":539:641   */\n      swap2\n      swap1\n      pop\n      jump\t// out\n        /* \"#utility.yul\":647:1024   */\n    tag_23:\n        /* \"#utility.yul\":735:738   */\n      0x00\n        /* \"#utility.yul\":763:802   */\n      tag_37\n        /* \"#utility.yul\":796:801   */\n      dup3\n        /* \"#utility.yul\":763:802   */\n      tag_19\n      jump\t// in\n    tag_37:\n        /* \"#utility.yul\":818:889   */\n      tag_38\n        /* \"#utility.yul\":882:888   */\n      dup2\n        /* \"#utility.yul\":877:880   */\n      dup6\n        /* \"#utility.yul\":818:889   */\n      tag_20\n      jump\t// in\n    tag_38:\n        /* \"#utility.yul\":811:889   */\n      swap4\n      pop\n        /* \"#utility.yul\":898:963   */\n      tag_39\n        /* \"#utility.yul\":956:962   */\n      dup2\n        /* \"#utility.yul\":951:954   */\n      dup6\n        /* \"#utility.yul\":944:948   */\n      0x20\n        /* \"#utility.yul\":937:942   */\n      dup7\n        /* \"#utility.yul\":933:949   */\n      add\n        /* \"#utility.yul\":898:963   */\n      tag_21\n      jump\t// in\n    tag_39:\n        /* \"#utility.yul\":988:1017   */\n      tag_40\n        /* \"#utility.yul\":1010:1016   */\n      dup2\n        /* \"#utility.yul\":988:1017   */\n      tag_22\n      jump\t// in\n    tag_40:\n        /* \"#utility.yul\":983:986   */\n      dup5\n        /* \"#utility.yul\":979:1018   */\n      add\n        /* \"#utility.yul\":972:1018   */\n      swap2\n      pop\n        /* \"#utility.yul\":739:1024   */\n      pop\n        /* \"#utility.yul\":647:1024   */\n      swap3\n      swap2\n      pop\n      pop\n      jump\t// out\n        /* \"#utility.yul\":1030:1343   */\n    tag_8:\n        /* \"#utility.yul\":1143:1147   */\n      0x00\n        /* \"#utility.yul\":1181:1183   */\n      0x20\n        /* \"#utility.yul\":1170:1179   */\n      dup3\n        /* \"#utility.yul\":1166:1184   */\n      add\n        /* \"#utility.yul\":1158:1184   */\n      swap1\n      pop\n        /* \"#utility.yul\":1230:1239   */\n      dup2\n        /* \"#utility.yul\":1224:1228   */\n      dup2\n        /* \"#utility.yul\":1220:1240   */\n      sub\n        /* \"#utility.yul\":1216:1217   */\n      0x00\n        /* \"#utility.yul\":1205:1214   */\n      dup4\n        /* \"#utility.yul\":1201:1218   */\n      add\n        /* \"#utility.yul\":1194:1241   */\n      mstore\n        /* \"#utility.yul\":1258:1336   */\n      tag_42\n        /* \"#utility.yul\":1331:1335   */\n      dup2\n        /* \"#utility.yul\":1322:1328   */\n      dup5\n        /* \"#utility.yul\":1258:1336   */\n      tag_23\n      jump\t// in\n    tag_42:\n        /* \"#utility.yul\":1250:1336   */\n      swap1\n      pop\n        /* \"#utility.yul\":1030:1343   */\n      swap3\n      swap2\n      pop\n      pop\n      jump\t// out\n        /* \"#utility.yul\":1349:1475   */\n    tag_24:\n        /* \"#utility.yul\":1386:1393   */\n      0x00\n        /* \"#utility.yul\":1426:1468   */\n      0xffffffffffffffffffffffffffffffffffffffff\n        /* \"#utility.yul\":1419:1424   */\n      dup3\n        /* \"#utility.yul\":1415:1469   */\n      and\n        /* \"#utility.yul\":1404:1469   */\n      swap1\n      pop\n        /* \"#utility.yul\":1349:1475   */\n      swap2\n      swap1\n      pop\n      jump\t// out\n        /* \"#utility.yul\":1481:1577   */\n    tag_25:\n        /* \"#utility.yul\":1518:1525   */\n      0x00\n        /* \"#utility.yul\":1547:1571   */\n      tag_45\n        /* \"#utility.yul\":1565:1570   */\n      dup3\n        /* \"#utility.yul\":1547:1571   */\n      tag_24\n      jump\t// in\n    tag_45:\n        /* \"#utility.yul\":1536:1571   */\n      swap1\n      pop\n        /* \"#utility.yul\":1481:1577   */\n      swap2\n      swap1\n      pop\n      jump\t// out\n        /* \"#utility.yul\":1583:1701   */\n    tag_26:\n        /* \"#utility.yul\":1670:1694   */\n      tag_47\n        /* \"#utility.yul\":1688:1693   */\n      dup2\n        /* \"#utility.yul\":1670:1694   */\n      tag_25\n      jump\t// in\n    tag_47:\n        /* \"#utility.yul\":1665:1668   */\n      dup3\n        /* \"#utility.yul\":1658:1695   */\n      mstore\n        /* \"#utility.yul\":1583:1701   */\n      pop\n      pop\n      jump\t// out\n        /* \"#utility.yul\":1707:1929   */\n    tag_12:\n        /* \"#utility.yul\":1800:1804   */\n      0x00\n        /* \"#utility.yul\":1838:1840   */\n      0x20\n        /* \"#utility.yul\":1827:1836   */\n      dup3\n        /* \"#utility.yul\":1823:1841   */\n      add\n        /* \"#utility.yul\":1815:1841   */\n      swap1\n      pop\n        /* \"#utility.yul\":1851:1922   */\n      tag_49\n        /* \"#utility.yul\":1919:1920   */\n      0x00\n        /* \"#utility.yul\":1908:1917   */\n      dup4\n        /* \"#utility.yul\":1904:1921   */\n      add\n        /* \"#utility.yul\":1895:1901   */\n      dup5\n        /* \"#utility.yul\":1851:1922   */\n      tag_26\n      jump\t// in\n    tag_49:\n        /* \"#utility.yul\":1707:1929   */\n      swap3\n      swap2\n      pop\n      pop\n      jump\t// out\n        /* \"#utility.yul\":1935:2115   */\n    tag_27:\n        /* \"#utility.yul\":1983:2060   */\n      0x4e487b7100000000000000000000000000000000000000000000000000000000\n        /* \"#utility.yul\":1980:1981   */\n      0x00\n        /* \"#utility.yul\":1973:2061   */\n      mstore\n        /* \"#utility.yul\":2080:2084   */\n      0x22\n        /* \"#utility.yul\":2077:2078   */\n      0x04\n        /* \"#utility.yul\":2070:2085   */\n      mstore\n        /* \"#utility.yul\":2104:2108   */\n      0x24\n        /* \"#utility.yul\":2101:2102   */\n      0x00\n        /* \"#utility.yul\":2094:2109   */\n      revert\n        /* \"#utility.yul\":2121:2441   */\n    tag_14:\n        /* \"#utility.yul\":2165:2171   */\n      0x00\n        /* \"#utility.yul\":2202:2203   */\n      0x02\n        /* \"#utility.yul\":2196:2200   */\n      dup3\n        /* \"#utility.yul\":2192:2204   */\n      div\n        /* \"#utility.yul\":2182:2204   */\n      swap1\n      pop\n        /* \"#utility.yul\":2249:2250   */\n      0x01\n        /* \"#utility.yul\":2243:2247   */\n      dup3\n        /* \"#utility.yul\":2239:2251   */\n      and\n        /* \"#utility.yul\":2270:2288   */\n      dup1\n        /* \"#utility.yul\":2260:2341   */\n      tag_52\n      jumpi\n        /* \"#utility.yul\":2326:2330   */\n      0x7f\n        /* \"#utility.yul\":2318:2324   */\n      dup3\n        /* \"#utility.yul\":2314:2331   */\n      and\n        /* \"#utility.yul\":2304:2331   */\n      swap2\n      pop\n        /* \"#utility.yul\":2260:2341   */\n    tag_52:\n        /* \"#utility.yul\":2388:2390   */\n      0x20\n        /* \"#utility.yul\":2380:2386   */\n      dup3\n        /* \"#utility.yul\":2377:2391   */\n      lt\n        /* \"#utility.yul\":2357:2375   */\n      dup2\n        /* \"#utility.yul\":2354:2392   */\n      sub\n        /* \"#utility.yul\":2351:2435   */\n      tag_53\n      jumpi\n        /* \"#utility.yul\":2407:2425   */\n      tag_54\n      tag_27\n      jump\t// in\n    tag_54:\n        /* \"#utility.yul\":2351:2435   */\n    tag_53:\n        /* \"#utility.yul\":2172:2441   */\n      pop\n        /* \"#utility.yul\":2121:2441   */\n      swap2\n      swap1\n      pop\n      jump\t// out\n\n    auxdata: 0xa2646970667358221220bc1f34b042378244f7219033933e035f75ceb101240bad58baad4e5e70c95c9464736f6c63430008120033\n}\n",
				"bytecode": {
					"linkReferences": {},
					"object": "6080604052604051620008f3380380620008f383398181016040528101906200002991906200027c565b81600090816200003a91906200052d565b5080600160006101000a81548173ffffffffffffffffffffffffffffffffffffffff021916908373ffffffffffffffffffffffffffffffffffffffff160217905550505062000614565b6000604051905090565b600080fd5b600080fd5b600080fd5b600080fd5b6000601f19601f8301169050919050565b7f4e487b7100000000000000000000000000000000000000000000000000000000600052604160045260246000fd5b620000ed82620000a2565b810181811067ffffffffffffffff821117156200010f576200010e620000b3565b5b80604052505050565b60006200012462000084565b9050620001328282620000e2565b919050565b600067ffffffffffffffff821115620001555762000154620000b3565b5b6200016082620000a2565b9050602081019050919050565b60005b838110156200018d57808201518184015260208101905062000170565b60008484015250505050565b6000620001b0620001aa8462000137565b62000118565b905082815260208101848484011115620001cf57620001ce6200009d565b5b620001dc8482856200016d565b509392505050565b600082601f830112620001fc57620001fb62000098565b5b81516200020e84826020860162000199565b91505092915050565b600073ffffffffffffffffffffffffffffffffffffffff82169050919050565b6000620002448262000217565b9050919050565b620002568162000237565b81146200026257600080fd5b50565b60008151905062000276816200024b565b92915050565b600080604083850312156200029657620002956200008e565b5b600083015167ffffffffffffffff811115620002b757620002b662000093565b5b620002c585828601620001e4565b9250506020620002d88582860162000265565b9150509250929050565b600081519050919050565b7f4e487b7100000000000000000000000000000000000000000000000000000000600052602260045260246000fd5b600060028204905060018216806200033557607f821691505b6020821081036200034b576200034a620002ed565b5b50919050565b60008190508160005260206000209050919050565b60006020601f8301049050919050565b600082821b905092915050565b600060088302620003b57fffffffffffffffffffffffffffffffffffffffffffffffffffffffffffffffff8262000376565b620003c1868362000376565b95508019841693508086168417925050509392505050565b6000819050919050565b6000819050919050565b60006200040e620004086200040284620003d9565b620003e3565b620003d9565b9050919050565b6000819050919050565b6200042a83620003ed565b62000442620004398262000415565b84845462000383565b825550505050565b600090565b620004596200044a565b620004668184846200041f565b505050565b5b818110156200048e57620004826000826200044f565b6001810190506200046c565b5050565b601f821115620004dd57620004a78162000351565b620004b28462000366565b81016020851015620004c2578190505b620004da620004d18562000366565b8301826200046b565b50505b505050565b600082821c905092915050565b60006200050260001984600802620004e2565b1980831691505092915050565b60006200051d8383620004ef565b9150826002028217905092915050565b6200053882620002e2565b67ffffffffffffffff811115620005545762000553620000b3565b5b6200056082546200031c565b6200056d82828562000492565b600060209050601f831160018114620005a5576000841562000590578287015190505b6200059c85826200050f565b8655506200060c565b601f198416620005b58662000351565b60005b82811015620005df57848901518255600182019150602085019450602081019050620005b8565b86831015620005ff5784890151620005fb601f891682620004ef565b8355505b6001600288020188555050505b505050505050565b6102cf80620006246000396000f3fe608060405234801561001057600080fd5b50600436106100365760003560e01c80630ad9d0521461003b5780638da5cb5b14610059575b600080fd5b610043610077565b60405161005091906101bb565b60405180910390f35b610061610105565b60405161006e919061021e565b60405180910390f35b6000805461008490610268565b80601f01602080910402602001604051908101604052809291908181526020018280546100b090610268565b80156100fd5780601f106100d2576101008083540402835291602001916100fd565b820191906000526020600020905b8154815290600101906020018083116100e057829003601f168201915b505050505081565b600160009054906101000a900473ffffffffffffffffffffffffffffffffffffffff1681565b600081519050919050565b600082825260208201905092915050565b60005b8381101561016557808201518184015260208101905061014a565b60008484015250505050565b6000601f19601f8301169050919050565b600061018d8261012b565b6101978185610136565b93506101a7818560208601610147565b6101b081610171565b840191505092915050565b600060208201905081810360008301526101d58184610182565b905092915050565b600073ffffffffffffffffffffffffffffffffffffffff82169050919050565b6000610208826101dd565b9050919050565b610218816101fd565b82525050565b6000602082019050610233600083018461020f565b92915050565b7f4e487b7100000000000000000000000000000000000000000000000000000000600052602260045260246000fd5b6000600282049050600182168061028057607f821691505b60208210810361029357610292610239565b5b5091905056fea2646970667358221220bc1f34b042378244f7219033933e035f75ceb101240bad58baad4e5e70c95c9464736f6c63430008120033",
					"opcodes": "PUSH1 0x80 PUSH1 0x40 MSTORE PUSH1 0x40 MLOAD PUSH3 0x8F3 CODESIZE SUB DUP1 PUSH3 0x8F3 DUP4 CODECOPY DUP2 DUP2 ADD PUSH1 0x40 MSTORE DUP2 ADD SWAP1 PUSH3 0x29 SWAP2 SWAP1 PUSH3 0x27C JUMP JUMPDEST DUP2 PUSH1 0x0 SWAP1 DUP2 PUSH3 0x3A SWAP2 SWAP1 PUSH3 0x52D JUMP JUMPDEST POP DUP1 PUSH1 0x1 PUSH1 0x0 PUSH2 0x100 EXP DUP2 SLOAD DUP2 PUSH20 0xFFFFFFFFFFFFFFFFFFFFFFFFFFFFFFFFFFFFFFFF MUL NOT AND SWAP1 DUP4 PUSH20 0xFFFFFFFFFFFFFFFFFFFFFFFFFFFFFFFFFFFFFFFF AND MUL OR SWAP1 SSTORE POP POP POP PUSH3 0x614 JUMP JUMPDEST PUSH1 0x0 PUSH1 0x40 MLOAD SWAP1 POP SWAP1 JUMP JUMPDEST PUSH1 0x0 DUP1 REVERT JUMPDEST PUSH1 0x0 DUP1 REVERT JUMPDEST PUSH1 0x0 DUP1 REVERT JUMPDEST PUSH1 0x0 DUP1 REVERT JUMPDEST PUSH1 0x0 PUSH1 0x1F NOT PUSH1 0x1F DUP4 ADD AND SWAP1 POP SWAP2 SWAP1 POP JUMP JUMPDEST PUSH32 0x4E487B7100000000000000000000000000000000000000000000000000000000 PUSH1 0x0 MSTORE PUSH1 0x41 PUSH1 0x4 MSTORE PUSH1 0x24 PUSH1 0x0 REVERT JUMPDEST PUSH3 0xED DUP3 PUSH3 0xA2 JUMP JUMPDEST DUP2 ADD DUP2 DUP2 LT PUSH8 0xFFFFFFFFFFFFFFFF DUP3 GT OR ISZERO PUSH3 0x10F JUMPI PUSH3 0x10E PUSH3 0xB3 JUMP JUMPDEST JUMPDEST DUP1 PUSH1 0x40 MSTORE POP POP POP JUMP JUMPDEST PUSH1 0x0 PUSH3 0x124 PUSH3 0x84 JUMP JUMPDEST SWAP1 POP PUSH3 0x132 DUP3 DUP3 PUSH3 0xE2 JUMP JUMPDEST SWAP2 SWAP1 POP JUMP JUMPDEST PUSH1 0x0 PUSH8 0xFFFFFFFFFFFFFFFF DUP3 GT ISZERO PUSH3 0x155 JUMPI PUSH3 0x154 PUSH3 0xB3 JUMP JUMPDEST JUMPDEST PUSH3 0x160 DUP3 PUSH3 0xA2 JUMP JUMPDEST SWAP1 POP PUSH1 0x20 DUP2 ADD SWAP1 POP SWAP2 SWAP1 POP JUMP JUMPDEST PUSH1 0x0 JUMPDEST DUP4 DUP2 LT ISZERO PUSH3 0x18D JUMPI DUP1 DUP3 ADD MLOAD DUP2 DUP5 ADD MSTORE PUSH1 0x20 DUP2 ADD SWAP1 POP PUSH3 0x170 JUMP JUMPDEST PUSH1 0x0 DUP5 DUP5 ADD MSTORE POP POP POP POP JUMP JUMPDEST PUSH1 0x0 PUSH3 0x1B0 PUSH3 0x1AA DUP5 PUSH3 0x137 JUMP JUMPDEST PUSH3 0x118 JUMP JUMPDEST SWAP1 POP DUP3 DUP2 MSTORE PUSH1 0x20 DUP2 ADD DUP5 DUP5 DUP5 ADD GT ISZERO PUSH3 0x1CF JUMPI PUSH3 0x1CE PUSH3 0x9D JUMP JUMPDEST JUMPDEST PUSH3 0x1DC DUP5 DUP3 DUP6 PUSH3 0x16D JUMP JUMPDEST POP SWAP4 SWAP3 POP POP POP JUMP JUMPDEST PUSH1 0x0 DUP3 PUSH1 0x1F DUP4 ADD SLT PUSH3 0x1FC JUMPI PUSH3 0x1FB PUSH3 0x98 JUMP JUMPDEST JUMPDEST DUP2 MLOAD PUSH3 0x20E DUP5 DUP3 PUSH1 0x20 DUP7 ADD PUSH3 0x199 JUMP JUMPDEST SWAP2 POP POP SWAP3 SWAP2 POP POP JUMP JUMPDEST PUSH1 0x0 PUSH20 0xFFFFFFFFFFFFFFFFFFFFFFFFFFFFFFFFFFFFFFFF DUP3 AND SWAP1 POP SWAP2 SWAP1 POP JUMP JUMPDEST PUSH1 0x0 PUSH3 0x244 DUP3 PUSH3 0x217 JUMP JUMPDEST SWAP1 POP SWAP2 SWAP1 POP JUMP JUMPDEST PUSH3 0x256 DUP2 PUSH3 0x237 JUMP JUMPDEST DUP2 EQ PUSH3 0x262 JUMPI PUSH1 0x0 DUP1 REVERT JUMPDEST POP JUMP JUMPDEST PUSH1 0x0 DUP2 MLOAD SWAP1 POP PUSH3 0x276 DUP2 PUSH3 0x24B JUMP JUMPDEST SWAP3 SWAP2 POP POP JUMP JUMPDEST PUSH1 0x0 DUP1 PUSH1 0x40 DUP4 DUP6 SUB SLT ISZERO PUSH3 0x296 JUMPI PUSH3 0x295 PUSH3 0x8E JUMP JUMPDEST JUMPDEST PUSH1 0x0 DUP4 ADD MLOAD PUSH8 0xFFFFFFFFFFFFFFFF DUP2 GT ISZERO PUSH3 0x2B7 JUMPI PUSH3 0x2B6 PUSH3 0x93 JUMP JUMPDEST JUMPDEST PUSH3 0x2C5 DUP6 DUP3 DUP7 ADD PUSH3 0x1E4 JUMP JUMPDEST SWAP3 POP POP PUSH1 0x20 PUSH3 0x2D8 DUP6 DUP3 DUP7 ADD PUSH3 0x265 JUMP JUMPDEST SWAP2 POP POP SWAP3 POP SWAP3 SWAP1 POP JUMP JUMPDEST PUSH1 0x0 DUP2 MLOAD SWAP1 POP SWAP2 SWAP1 POP JUMP JUMPDEST PUSH32 0x4E487B7100000000000000000000000000000000000000000000000000000000 PUSH1 0x0 MSTORE PUSH1 0x22 PUSH1 0x4 MSTORE PUSH1 0x24 PUSH1 0x0 REVERT JUMPDEST PUSH1 0x0 PUSH1 0x2 DUP3 DIV SWAP1 POP PUSH1 0x1 DUP3 AND DUP1 PUSH3 0x335 JUMPI PUSH1 0x7F DUP3 AND SWAP2 POP JUMPDEST PUSH1 0x20 DUP3 LT DUP2 SUB PUSH3 0x34B JUMPI PUSH3 0x34A PUSH3 0x2ED JUMP JUMPDEST JUMPDEST POP SWAP2 SWAP1 POP JUMP JUMPDEST PUSH1 0x0 DUP2 SWAP1 POP DUP2 PUSH1 0x0 MSTORE PUSH1 0x20 PUSH1 0x0 KECCAK256 SWAP1 POP SWAP2 SWAP1 POP JUMP JUMPDEST PUSH1 0x0 PUSH1 0x20 PUSH1 0x1F DUP4 ADD DIV SWAP1 POP SWAP2 SWAP1 POP JUMP JUMPDEST PUSH1 0x0 DUP3 DUP3 SHL SWAP1 POP SWAP3 SWAP2 POP POP JUMP JUMPDEST PUSH1 0x0 PUSH1 0x8 DUP4 MUL PUSH3 0x3B5 PUSH32 0xFFFFFFFFFFFFFFFFFFFFFFFFFFFFFFFFFFFFFFFFFFFFFFFFFFFFFFFFFFFFFFFF DUP3 PUSH3 0x376 JUMP JUMPDEST PUSH3 0x3C1 DUP7 DUP4 PUSH3 0x376 JUMP JUMPDEST SWAP6 POP DUP1 NOT DUP5 AND SWAP4 POP DUP1 DUP7 AND DUP5 OR SWAP3 POP POP POP SWAP4 SWAP3 POP POP POP JUMP JUMPDEST PUSH1 0x0 DUP2 SWAP1 POP SWAP2 SWAP1 POP JUMP JUMPDEST PUSH1 0x0 DUP2 SWAP1 POP SWAP2 SWAP1 POP JUMP JUMPDEST PUSH1 0x0 PUSH3 0x40E PUSH3 0x408 PUSH3 0x402 DUP5 PUSH3 0x3D9 JUMP JUMPDEST PUSH3 0x3E3 JUMP JUMPDEST PUSH3 0x3D9 JUMP JUMPDEST SWAP1 POP SWAP2 SWAP1 POP JUMP JUMPDEST PUSH1 0x0 DUP2 SWAP1 POP SWAP2 SWAP1 POP JUMP JUMPDEST PUSH3 0x42A DUP4 PUSH3 0x3ED JUMP JUMPDEST PUSH3 0x442 PUSH3 0x439 DUP3 PUSH3 0x415 JUMP JUMPDEST DUP5 DUP5 SLOAD PUSH3 0x383 JUMP JUMPDEST DUP3 SSTORE POP POP POP POP JUMP JUMPDEST PUSH1 0x0 SWAP1 JUMP JUMPDEST PUSH3 0x459 PUSH3 0x44A JUMP JUMPDEST PUSH3 0x466 DUP2 DUP5 DUP5 PUSH3 0x41F JUMP JUMPDEST POP POP POP JUMP JUMPDEST JUMPDEST DUP2 DUP2 LT ISZERO PUSH3 0x48E JUMPI PUSH3 0x482 PUSH1 0x0 DUP3 PUSH3 0x44F JUMP JUMPDEST PUSH1 0x1 DUP2 ADD SWAP1 POP PUSH3 0x46C JUMP JUMPDEST POP POP JUMP JUMPDEST PUSH1 0x1F DUP3 GT ISZERO PUSH3 0x4DD JUMPI PUSH3 0x4A7 DUP2 PUSH3 0x351 JUMP JUMPDEST PUSH3 0x4B2 DUP5 PUSH3 0x366 JUMP JUMPDEST DUP2 ADD PUSH1 0x20 DUP6 LT ISZERO PUSH3 0x4C2 JUMPI DUP2 SWAP1 POP JUMPDEST PUSH3 0x4DA PUSH3 0x4D1 DUP6 PUSH3 0x366 JUMP JUMPDEST DUP4 ADD DUP3 PUSH3 0x46B JUMP JUMPDEST POP POP JUMPDEST POP POP POP JUMP JUMPDEST PUSH1 0x0 DUP3 DUP3 SHR SWAP1 POP SWAP3 SWAP2 POP POP JUMP JUMPDEST PUSH1 0x0 PUSH3 0x502 PUSH1 0x0 NOT DUP5 PUSH1 0x8 MUL PUSH3 0x4E2 JUMP JUMPDEST NOT DUP1 DUP4 AND SWAP2 POP POP SWAP3 SWAP2 POP POP JUMP JUMPDEST PUSH1 0x0 PUSH3 0x51D DUP4 DUP4 PUSH3 0x4EF JUMP JUMPDEST SWAP2 POP DUP3 PUSH1 0x2 MUL DUP3 OR SWAP1 POP SWAP3 SWAP2 POP POP JUMP JUMPDEST PUSH3 0x538 DUP3 PUSH3 0x2E2 JUMP JUMPDEST PUSH8 0xFFFFFFFFFFFFFFFF DUP2 GT ISZERO PUSH3 0x554 JUMPI PUSH3 0x553 PUSH3 0xB3 JUMP JUMPDEST JUMPDEST PUSH3 0x560 DUP3 SLOAD PUSH3 0x31C JUMP JUMPDEST PUSH3 0x56D DUP3 DUP3 DUP6 PUSH3 0x492 JUMP JUMPDEST PUSH1 0x0 PUSH1 0x20 SWAP1 POP PUSH1 0x1F DUP4 GT PUSH1 0x1 DUP2 EQ PUSH3 0x5A5 JUMPI PUSH1 0x0 DUP5 ISZERO PUSH3 0x590 JUMPI DUP3 DUP8 ADD MLOAD SWAP1 POP JUMPDEST PUSH3 0x59C DUP6 DUP3 PUSH3 0x50F JUMP JUMPDEST DUP7 SSTORE POP PUSH3 0x60C JUMP JUMPDEST PUSH1 0x1F NOT DUP5 AND PUSH3 0x5B5 DUP7 PUSH3 0x351 JUMP JUMPDEST PUSH1 0x0 JUMPDEST DUP3 DUP2 LT ISZERO PUSH3 0x5DF JUMPI DUP5 DUP10 ADD MLOAD DUP3 SSTORE PUSH1 0x1 DUP3 ADD SWAP2 POP PUSH1 0x20 DUP6 ADD SWAP5 POP PUSH1 0x20 DUP2 ADD SWAP1 POP PUSH3 0x5B8 JUMP JUMPDEST DUP7 DUP4 LT ISZERO PUSH3 0x5FF JUMPI DUP5 DUP10 ADD MLOAD PUSH3 0x5FB PUSH1 0x1F DUP10 AND DUP3 PUSH3 0x4EF JUMP JUMPDEST DUP4 SSTORE POP JUMPDEST PUSH1 0x1 PUSH1 0x2 DUP9 MUL ADD DUP9 SSTORE POP POP POP JUMPDEST POP POP POP POP POP POP JUMP JUMPDEST PUSH2 0x2CF DUP1 PUSH3 0x624 PUSH1 0x0 CODECOPY PUSH1 0x0 RETURN INVALID PUSH1 0x80 PUSH1 0x40 MSTORE CALLVALUE DUP1 ISZERO PUSH2 0x10 JUMPI PUSH1 0x0 DUP1 REVERT JUMPDEST POP PUSH1 0x4 CALLDATASIZE LT PUSH2 0x36 JUMPI PUSH1 0x0 CALLDATALOAD PUSH1 0xE0 SHR DUP1 PUSH4 0xAD9D052 EQ PUSH2 0x3B JUMPI DUP1 PUSH4 0x8DA5CB5B EQ PUSH2 0x59 JUMPI JUMPDEST PUSH1 0x0 DUP1 REVERT JUMPDEST PUSH2 0x43 PUSH2 0x77 JUMP JUMPDEST PUSH1 0x40 MLOAD PUSH2 0x50 SWAP2 SWAP1 PUSH2 0x1BB JUMP JUMPDEST PUSH1 0x40 MLOAD DUP1 SWAP2 SUB SWAP1 RETURN JUMPDEST PUSH2 0x61 PUSH2 0x105 JUMP JUMPDEST PUSH1 0x40 MLOAD PUSH2 0x6E SWAP2 SWAP1 PUSH2 0x21E JUMP JUMPDEST PUSH1 0x40 MLOAD DUP1 SWAP2 SUB SWAP1 RETURN JUMPDEST PUSH1 0x0 DUP1 SLOAD PUSH2 0x84 SWAP1 PUSH2 0x268 JUMP JUMPDEST DUP1 PUSH1 0x1F ADD PUSH1 0x20 DUP1 SWAP2 DIV MUL PUSH1 0x20 ADD PUSH1 0x40 MLOAD SWAP1 DUP2 ADD PUSH1 0x40 MSTORE DUP1 SWAP3 SWAP2 SWAP1 DUP2 DUP2 MSTORE PUSH1 0x20 ADD DUP3 DUP1 SLOAD PUSH2 0xB0 SWAP1 PUSH2 0x268 JUMP JUMPDEST DUP1 ISZERO PUSH2 0xFD JUMPI DUP1 PUSH1 0x1F LT PUSH2 0xD2 JUMPI PUSH2 0x100 DUP1 DUP4 SLOAD DIV MUL DUP4 MSTORE SWAP2 PUSH1 0x20 ADD SWAP2 PUSH2 0xFD JUMP JUMPDEST DUP3 ADD SWAP2 SWAP1 PUSH1 0x0 MSTORE PUSH1 0x20 PUSH1 0x0 KECCAK256 SWAP1 JUMPDEST DUP2 SLOAD DUP2 MSTORE SWAP1 PUSH1 0x1 ADD SWAP1 PUSH1 0x20 ADD DUP1 DUP4 GT PUSH2 0xE0 JUMPI DUP3 SWAP1 SUB PUSH1 0x1F AND DUP3 ADD SWAP2 JUMPDEST POP POP POP POP POP DUP2 JUMP JUMPDEST PUSH1 0x1 PUSH1 0x0 SWAP1 SLOAD SWAP1 PUSH2 0x100 EXP SWAP1 DIV PUSH20 0xFFFFFFFFFFFFFFFFFFFFFFFFFFFFFFFFFFFFFFFF AND DUP2 JUMP JUMPDEST PUSH1 0x0 DUP2 MLOAD SWAP1 POP SWAP2 SWAP1 POP JUMP JUMPDEST PUSH1 0x0 DUP3 DUP3 MSTORE PUSH1 0x20 DUP3 ADD SWAP1 POP SWAP3 SWAP2 POP POP JUMP JUMPDEST PUSH1 0x0 JUMPDEST DUP4 DUP2 LT ISZERO PUSH2 0x165 JUMPI DUP1 DUP3 ADD MLOAD DUP2 DUP5 ADD MSTORE PUSH1 0x20 DUP2 ADD SWAP1 POP PUSH2 0x14A JUMP JUMPDEST PUSH1 0x0 DUP5 DUP5 ADD MSTORE POP POP POP POP JUMP JUMPDEST PUSH1 0x0 PUSH1 0x1F NOT PUSH1 0x1F DUP4 ADD AND SWAP1 POP SWAP2 SWAP1 POP JUMP JUMPDEST PUSH1 0x0 PUSH2 0x18D DUP3 PUSH2 0x12B JUMP JUMPDEST PUSH2 0x197 DUP2 DUP6 PUSH2 0x136 JUMP JUMPDEST SWAP4 POP PUSH2 0x1A7 DUP2 DUP6 PUSH1 0x20 DUP7 ADD PUSH2 0x147 JUMP JUMPDEST PUSH2 0x1B0 DUP2 PUSH2 0x171 JUMP JUMPDEST DUP5 ADD SWAP2 POP POP SWAP3 SWAP2 POP POP JUMP JUMPDEST PUSH1 0x0 PUSH1 0x20 DUP3 ADD SWAP1 POP DUP2 DUP2 SUB PUSH1 0x0 DUP4 ADD MSTORE PUSH2 0x1D5 DUP2 DUP5 PUSH2 0x182 JUMP JUMPDEST SWAP1 POP SWAP3 SWAP2 POP POP JUMP JUMPDEST PUSH1 0x0 PUSH20 0xFFFFFFFFFFFFFFFFFFFFFFFFFFFFFFFFFFFFFFFF DUP3 AND SWAP1 POP SWAP2 SWAP1 POP JUMP JUMPDEST PUSH1 0x0 PUSH2 0x208 DUP3 PUSH2 0x1DD JUMP JUMPDEST SWAP1 POP SWAP2 SWAP1 POP JUMP JUMPDEST PUSH2 0x218 DUP2 PUSH2 0x1FD JUMP JUMPDEST DUP3 MSTORE POP POP JUMP JUMPDEST PUSH1 0x0 PUSH1 0x20 DUP3 ADD SWAP1 POP PUSH2 0x233 PUSH1 0x0 DUP4 ADD DUP5 PUSH2 0x20F JUMP JUMPDEST SWAP3 SWAP2 POP POP JUMP JUMPDEST PUSH32 0x4E487B7100000000000000000000000000000000000000000000000000000000 PUSH1 0x0 MSTORE PUSH1 0x22 PUSH1 0x4 MSTORE PUSH1 0x24 PUSH1 0x0 REVERT JUMPDEST PUSH1 0x0 PUSH1 0x2 DUP3 DIV SWAP1 POP PUSH1 0x1 DUP3 AND DUP1 PUSH2 0x280 JUMPI PUSH1 0x7F DUP3 AND SWAP2 POP JUMPDEST PUSH1 0x20 DUP3 LT DUP2 SUB PUSH2 0x293 JUMPI PUSH2 0x292 PUSH2 0x239 JUMP JUMPDEST JUMPDEST POP SWAP2 SWAP1 POP JUMP INVALID LOG2 PUSH5 0x6970667358 0x22 SLT KECCAK256 0xBC 0x1F CALLVALUE 0xB0 TIMESTAMP CALLDATACOPY DUP3 PREVRANDAO 0xF7 0x21 SWAP1 CALLER SWAP4 RETURNDATACOPY SUB 0x5F PUSH22 0xCEB101240BAD58BAAD4E5E70C95C9464736F6C634300 ADDMOD SLT STOP CALLER "
				},
				"gasEstimates": {
					"creation": {
						"codeDepositCost": "143800",
						"executionCost": "infinite",
						"totalCost": "infinite"
					},
					"external": {
						"model()": "infinite",
						"owner()": "2514"
					}
				},
				"methodIdentifiers": {
					"model()": "0ad9d052",
					"owner()": "8da5cb5b"
				}
			},
			"storageLayout": {
				"storage": [
					{
						"astId": 3,
						"contract": "contracts/oneto other contract 2.sol:Car",
						"label": "model",
						"offset": 0,
						"slot": "0",
						"type": "t_string_storage"
					},
					{
						"astId": 5,
						"contract": "contracts/oneto other contract 2.sol:Car",
						"label": "owner",
						"offset": 0,
						"slot": "1",
						"type": "t_address"
					}
				],
				"types": {
					"t_address": {
						"encoding": "inplace",
						"label": "address",
						"numberOfBytes": "20"
					},
					"t_string_storage": {
						"encoding": "bytes",
						"label": "string",
						"numberOfBytes": "32"
					}
				}
			},
			"userdoc": {
				"kind": "user",
				"methods": {},
				"version": 1
			}
		}
	}
}