{
	"contracts/mapping.sol": {
		"nestedmapping": {
			"abi": [
				{
					"inputs": [
						{
							"internalType": "address",
							"name": "_add",
							"type": "address"
						},
						{
							"internalType": "uint256",
							"name": "_no",
							"type": "uint256"
						}
					],
					"name": "del",
					"outputs": [],
					"stateMutability": "nonpayable",
					"type": "function"
				},
				{
					"inputs": [
						{
							"internalType": "address",
							"name": "_address1",
							"type": "address"
						},
						{
							"internalType": "uint256",
							"name": "_i",
							"type": "uint256"
						}
					],
					"name": "get",
					"outputs": [
						{
							"internalType": "bool",
							"name": "",
							"type": "bool"
						}
					],
					"stateMutability": "view",
					"type": "function"
				},
				{
					"inputs": [
						{
							"internalType": "address",
							"name": "",
							"type": "address"
						},
						{
							"internalType": "uint256",
							"name": "",
							"type": "uint256"
						}
					],
					"name": "mymap",
					"outputs": [
						{
							"internalType": "bool",
							"name": "",
							"type": "bool"
						}
					],
					"stateMutability": "view",
					"type": "function"
				},
				{
					"inputs": [
						{
							"internalType": "address",
							"name": "_add",
							"type": "address"
						},
						{
							"internalType": "uint256",
							"name": "_no",
							"type": "uint256"
						},
						{
							"internalType": "bool",
							"name": "_bol",
							"type": "bool"
						}
					],
					"name": "set",
					"outputs": [],
					"stateMutability": "nonpayable",
					"type": "function"
				}
			],
			"devdoc": {
				"kind": "dev",
				"methods": {},
				"version": 1
			},
			"evm": {
				"assembly": "    /* \"contracts/mapping.sol\":607:1514  contract nestedmapping{... */\n  mstore(0x40, 0x80)\n  callvalue\n  dup1\n  iszero\n  tag_1\n  jumpi\n  0x00\n  dup1\n  revert\ntag_1:\n  pop\n  dataSize(sub_0)\n  dup1\n  dataOffset(sub_0)\n  0x00\n  codecopy\n  0x00\n  return\nstop\n\nsub_0: assembly {\n        /* \"contracts/mapping.sol\":607:1514  contract nestedmapping{... */\n      mstore(0x40, 0x80)\n      callvalue\n      dup1\n      iszero\n      tag_1\n      jumpi\n      0x00\n      dup1\n      revert\n    tag_1:\n      pop\n      jumpi(tag_2, lt(calldatasize, 0x04))\n      shr(0xe0, calldataload(0x00))\n      dup1\n      0x0b139194\n      eq\n      tag_3\n      jumpi\n      dup1\n      0x38ef7d63\n      eq\n      tag_4\n      jumpi\n      dup1\n      0xb464631b\n      eq\n      tag_5\n      jumpi\n      dup1\n      0xd6924949\n      eq\n      tag_6\n      jumpi\n    tag_2:\n      0x00\n      dup1\n      revert\n        /* \"contracts/mapping.sol\":1192:1301  function set(address _add, uint256 _no, bool _bol) public {... */\n    tag_3:\n      tag_7\n      0x04\n      dup1\n      calldatasize\n      sub\n      dup2\n      add\n      swap1\n      tag_8\n      swap2\n      swap1\n      tag_9\n      jump\t// in\n    tag_8:\n      tag_10\n      jump\t// in\n    tag_7:\n      stop\n        /* \"contracts/mapping.sol\":1422:1511  function del(address _add, uint256 _no) public {... */\n    tag_4:\n      tag_11\n      0x04\n      dup1\n      calldatasize\n      sub\n      dup2\n      add\n      swap1\n      tag_12\n      swap2\n      swap1\n      tag_13\n      jump\t// in\n    tag_12:\n      tag_14\n      jump\t// in\n    tag_11:\n      stop\n        /* \"contracts/mapping.sol\":800:1183  function get(address _address1, uint256 _i) public view returns(bool) {... */\n    tag_5:\n      tag_15\n      0x04\n      dup1\n      calldatasize\n      sub\n      dup2\n      add\n      swap1\n      tag_16\n      swap2\n      swap1\n      tag_13\n      jump\t// in\n    tag_16:\n      tag_17\n      jump\t// in\n    tag_15:\n      mload(0x40)\n      tag_18\n      swap2\n      swap1\n      tag_19\n      jump\t// in\n    tag_18:\n      mload(0x40)\n      dup1\n      swap2\n      sub\n      swap1\n      return\n        /* \"contracts/mapping.sol\":708:760  mapping (address=>mapping (uint=>bool)) public mymap */\n    tag_6:\n      tag_20\n      0x04\n      dup1\n      calldatasize\n      sub\n      dup2\n      add\n      swap1\n      tag_21\n      swap2\n      swap1\n      tag_13\n      jump\t// in\n    tag_21:\n      tag_22\n      jump\t// in\n    tag_20:\n      mload(0x40)\n      tag_23\n      swap2\n      swap1\n      tag_19\n      jump\t// in\n    tag_23:\n      mload(0x40)\n      dup1\n      swap2\n      sub\n      swap1\n      return\n        /* \"contracts/mapping.sol\":1192:1301  function set(address _add, uint256 _no, bool _bol) public {... */\n    tag_10:\n        /* \"contracts/mapping.sol\":1279:1283  _bol */\n      dup1\n        /* \"contracts/mapping.sol\":1261:1266  mymap */\n      0x00\n        /* \"contracts/mapping.sol\":1261:1272  mymap[_add] */\n      dup1\n        /* \"contracts/mapping.sol\":1267:1271  _add */\n      dup6\n        /* \"contracts/mapping.sol\":1261:1272  mymap[_add] */\n      0xffffffffffffffffffffffffffffffffffffffff\n      and\n      0xffffffffffffffffffffffffffffffffffffffff\n      and\n      dup2\n      mstore\n      0x20\n      add\n      swap1\n      dup2\n      mstore\n      0x20\n      add\n      0x00\n      keccak256\n        /* \"contracts/mapping.sol\":1261:1277  mymap[_add][_no] */\n      0x00\n        /* \"contracts/mapping.sol\":1273:1276  _no */\n      dup5\n        /* \"contracts/mapping.sol\":1261:1277  mymap[_add][_no] */\n      dup2\n      mstore\n      0x20\n      add\n      swap1\n      dup2\n      mstore\n      0x20\n      add\n      0x00\n      keccak256\n      0x00\n        /* \"contracts/mapping.sol\":1261:1283  mymap[_add][_no]= _bol */\n      0x0100\n      exp\n      dup2\n      sload\n      dup2\n      0xff\n      mul\n      not\n      and\n      swap1\n      dup4\n      iszero\n      iszero\n      mul\n      or\n      swap1\n      sstore\n      pop\n        /* \"contracts/mapping.sol\":1192:1301  function set(address _add, uint256 _no, bool _bol) public {... */\n      pop\n      pop\n      pop\n      jump\t// out\n        /* \"contracts/mapping.sol\":1422:1511  function del(address _add, uint256 _no) public {... */\n    tag_14:\n        /* \"contracts/mapping.sol\":1487:1492  mymap */\n      0x00\n        /* \"contracts/mapping.sol\":1487:1498  mymap[_add] */\n      dup1\n        /* \"contracts/mapping.sol\":1493:1497  _add */\n      dup4\n        /* \"contracts/mapping.sol\":1487:1498  mymap[_add] */\n      0xffffffffffffffffffffffffffffffffffffffff\n      and\n      0xffffffffffffffffffffffffffffffffffffffff\n      and\n      dup2\n      mstore\n      0x20\n      add\n      swap1\n      dup2\n      mstore\n      0x20\n      add\n      0x00\n      keccak256\n        /* \"contracts/mapping.sol\":1487:1503  mymap[_add][_no] */\n      0x00\n        /* \"contracts/mapping.sol\":1499:1502  _no */\n      dup3\n        /* \"contracts/mapping.sol\":1487:1503  mymap[_add][_no] */\n      dup2\n      mstore\n      0x20\n      add\n      swap1\n      dup2\n      mstore\n      0x20\n      add\n      0x00\n      keccak256\n      0x00\n        /* \"contracts/mapping.sol\":1480:1503  delete mymap[_add][_no] */\n      0x0100\n      exp\n      dup2\n      sload\n      swap1\n      0xff\n      mul\n      not\n      and\n      swap1\n      sstore\n        /* \"contracts/mapping.sol\":1422:1511  function del(address _add, uint256 _no) public {... */\n      pop\n      pop\n      jump\t// out\n        /* \"contracts/mapping.sol\":800:1183  function get(address _address1, uint256 _i) public view returns(bool) {... */\n    tag_17:\n        /* \"contracts/mapping.sol\":864:868  bool */\n      0x00\n        /* \"contracts/mapping.sol\":888:893  mymap */\n      dup1\n        /* \"contracts/mapping.sol\":888:904  mymap[_address1] */\n      0x00\n        /* \"contracts/mapping.sol\":894:903  _address1 */\n      dup5\n        /* \"contracts/mapping.sol\":888:904  mymap[_address1] */\n      0xffffffffffffffffffffffffffffffffffffffff\n      and\n      0xffffffffffffffffffffffffffffffffffffffff\n      and\n      dup2\n      mstore\n      0x20\n      add\n      swap1\n      dup2\n      mstore\n      0x20\n      add\n      0x00\n      keccak256\n        /* \"contracts/mapping.sol\":888:908  mymap[_address1][_i] */\n      0x00\n        /* \"contracts/mapping.sol\":905:907  _i */\n      dup4\n        /* \"contracts/mapping.sol\":888:908  mymap[_address1][_i] */\n      dup2\n      mstore\n      0x20\n      add\n      swap1\n      dup2\n      mstore\n      0x20\n      add\n      0x00\n      keccak256\n      0x00\n      swap1\n      sload\n      swap1\n      0x0100\n      exp\n      swap1\n      div\n      0xff\n      and\n        /* \"contracts/mapping.sol\":881:908  return mymap[_address1][_i] */\n      swap1\n      pop\n        /* \"contracts/mapping.sol\":800:1183  function get(address _address1, uint256 _i) public view returns(bool) {... */\n      swap3\n      swap2\n      pop\n      pop\n      jump\t// out\n        /* \"contracts/mapping.sol\":708:760  mapping (address=>mapping (uint=>bool)) public mymap */\n    tag_22:\n      mstore(0x20, 0x00)\n      dup2\n      0x00\n      mstore\n      mstore(0x20, keccak256(0x00, 0x40))\n      dup1\n      0x00\n      mstore\n      keccak256(0x00, 0x40)\n      0x00\n      swap2\n      pop\n      swap2\n      pop\n      swap1\n      sload\n      swap1\n      0x0100\n      exp\n      swap1\n      div\n      0xff\n      and\n      dup2\n      jump\t// out\n        /* \"#utility.yul\":88:205   */\n    tag_28:\n        /* \"#utility.yul\":197:198   */\n      0x00\n        /* \"#utility.yul\":194:195   */\n      dup1\n        /* \"#utility.yul\":187:199   */\n      revert\n        /* \"#utility.yul\":334:460   */\n    tag_30:\n        /* \"#utility.yul\":371:378   */\n      0x00\n        /* \"#utility.yul\":411:453   */\n      0xffffffffffffffffffffffffffffffffffffffff\n        /* \"#utility.yul\":404:409   */\n      dup3\n        /* \"#utility.yul\":400:454   */\n      and\n        /* \"#utility.yul\":389:454   */\n      swap1\n      pop\n        /* \"#utility.yul\":334:460   */\n      swap2\n      swap1\n      pop\n      jump\t// out\n        /* \"#utility.yul\":466:562   */\n    tag_31:\n        /* \"#utility.yul\":503:510   */\n      0x00\n        /* \"#utility.yul\":532:556   */\n      tag_47\n        /* \"#utility.yul\":550:555   */\n      dup3\n        /* \"#utility.yul\":532:556   */\n      tag_30\n      jump\t// in\n    tag_47:\n        /* \"#utility.yul\":521:556   */\n      swap1\n      pop\n        /* \"#utility.yul\":466:562   */\n      swap2\n      swap1\n      pop\n      jump\t// out\n        /* \"#utility.yul\":568:690   */\n    tag_32:\n        /* \"#utility.yul\":641:665   */\n      tag_49\n        /* \"#utility.yul\":659:664   */\n      dup2\n        /* \"#utility.yul\":641:665   */\n      tag_31\n      jump\t// in\n    tag_49:\n        /* \"#utility.yul\":634:639   */\n      dup2\n        /* \"#utility.yul\":631:666   */\n      eq\n        /* \"#utility.yul\":621:684   */\n      tag_50\n      jumpi\n        /* \"#utility.yul\":680:681   */\n      0x00\n        /* \"#utility.yul\":677:678   */\n      dup1\n        /* \"#utility.yul\":670:682   */\n      revert\n        /* \"#utility.yul\":621:684   */\n    tag_50:\n        /* \"#utility.yul\":568:690   */\n      pop\n      jump\t// out\n        /* \"#utility.yul\":696:835   */\n    tag_33:\n        /* \"#utility.yul\":742:747   */\n      0x00\n        /* \"#utility.yul\":780:786   */\n      dup2\n        /* \"#utility.yul\":767:787   */\n      calldataload\n        /* \"#utility.yul\":758:787   */\n      swap1\n      pop\n        /* \"#utility.yul\":796:829   */\n      tag_52\n        /* \"#utility.yul\":823:828   */\n      dup2\n        /* \"#utility.yul\":796:829   */\n      tag_32\n      jump\t// in\n    tag_52:\n        /* \"#utility.yul\":696:835   */\n      swap3\n      swap2\n      pop\n      pop\n      jump\t// out\n        /* \"#utility.yul\":841:918   */\n    tag_34:\n        /* \"#utility.yul\":878:885   */\n      0x00\n        /* \"#utility.yul\":907:912   */\n      dup2\n        /* \"#utility.yul\":896:912   */\n      swap1\n      pop\n        /* \"#utility.yul\":841:918   */\n      swap2\n      swap1\n      pop\n      jump\t// out\n        /* \"#utility.yul\":924:1046   */\n    tag_35:\n        /* \"#utility.yul\":997:1021   */\n      tag_55\n        /* \"#utility.yul\":1015:1020   */\n      dup2\n        /* \"#utility.yul\":997:1021   */\n      tag_34\n      jump\t// in\n    tag_55:\n        /* \"#utility.yul\":990:995   */\n      dup2\n        /* \"#utility.yul\":987:1022   */\n      eq\n        /* \"#utility.yul\":977:1040   */\n      tag_56\n      jumpi\n        /* \"#utility.yul\":1036:1037   */\n      0x00\n        /* \"#utility.yul\":1033:1034   */\n      dup1\n        /* \"#utility.yul\":1026:1038   */\n      revert\n        /* \"#utility.yul\":977:1040   */\n    tag_56:\n        /* \"#utility.yul\":924:1046   */\n      pop\n      jump\t// out\n        /* \"#utility.yul\":1052:1191   */\n    tag_36:\n        /* \"#utility.yul\":1098:1103   */\n      0x00\n        /* \"#utility.yul\":1136:1142   */\n      dup2\n        /* \"#utility.yul\":1123:1143   */\n      calldataload\n        /* \"#utility.yul\":1114:1143   */\n      swap1\n      pop\n        /* \"#utility.yul\":1152:1185   */\n      tag_58\n        /* \"#utility.yul\":1179:1184   */\n      dup2\n        /* \"#utility.yul\":1152:1185   */\n      tag_35\n      jump\t// in\n    tag_58:\n        /* \"#utility.yul\":1052:1191   */\n      swap3\n      swap2\n      pop\n      pop\n      jump\t// out\n        /* \"#utility.yul\":1197:1287   */\n    tag_37:\n        /* \"#utility.yul\":1231:1238   */\n      0x00\n        /* \"#utility.yul\":1274:1279   */\n      dup2\n        /* \"#utility.yul\":1267:1280   */\n      iszero\n        /* \"#utility.yul\":1260:1281   */\n      iszero\n        /* \"#utility.yul\":1249:1281   */\n      swap1\n      pop\n        /* \"#utility.yul\":1197:1287   */\n      swap2\n      swap1\n      pop\n      jump\t// out\n        /* \"#utility.yul\":1293:1409   */\n    tag_38:\n        /* \"#utility.yul\":1363:1384   */\n      tag_61\n        /* \"#utility.yul\":1378:1383   */\n      dup2\n        /* \"#utility.yul\":1363:1384   */\n      tag_37\n      jump\t// in\n    tag_61:\n        /* \"#utility.yul\":1356:1361   */\n      dup2\n        /* \"#utility.yul\":1353:1385   */\n      eq\n        /* \"#utility.yul\":1343:1403   */\n      tag_62\n      jumpi\n        /* \"#utility.yul\":1399:1400   */\n      0x00\n        /* \"#utility.yul\":1396:1397   */\n      dup1\n        /* \"#utility.yul\":1389:1401   */\n      revert\n        /* \"#utility.yul\":1343:1403   */\n    tag_62:\n        /* \"#utility.yul\":1293:1409   */\n      pop\n      jump\t// out\n        /* \"#utility.yul\":1415:1548   */\n    tag_39:\n        /* \"#utility.yul\":1458:1463   */\n      0x00\n        /* \"#utility.yul\":1496:1502   */\n      dup2\n        /* \"#utility.yul\":1483:1503   */\n      calldataload\n        /* \"#utility.yul\":1474:1503   */\n      swap1\n      pop\n        /* \"#utility.yul\":1512:1542   */\n      tag_64\n        /* \"#utility.yul\":1536:1541   */\n      dup2\n        /* \"#utility.yul\":1512:1542   */\n      tag_38\n      jump\t// in\n    tag_64:\n        /* \"#utility.yul\":1415:1548   */\n      swap3\n      swap2\n      pop\n      pop\n      jump\t// out\n        /* \"#utility.yul\":1554:2167   */\n    tag_9:\n        /* \"#utility.yul\":1628:1634   */\n      0x00\n        /* \"#utility.yul\":1636:1642   */\n      dup1\n        /* \"#utility.yul\":1644:1650   */\n      0x00\n        /* \"#utility.yul\":1693:1695   */\n      0x60\n        /* \"#utility.yul\":1681:1690   */\n      dup5\n        /* \"#utility.yul\":1672:1679   */\n      dup7\n        /* \"#utility.yul\":1668:1691   */\n      sub\n        /* \"#utility.yul\":1664:1696   */\n      slt\n        /* \"#utility.yul\":1661:1780   */\n      iszero\n      tag_66\n      jumpi\n        /* \"#utility.yul\":1699:1778   */\n      tag_67\n      tag_28\n      jump\t// in\n    tag_67:\n        /* \"#utility.yul\":1661:1780   */\n    tag_66:\n        /* \"#utility.yul\":1819:1820   */\n      0x00\n        /* \"#utility.yul\":1844:1897   */\n      tag_68\n        /* \"#utility.yul\":1889:1896   */\n      dup7\n        /* \"#utility.yul\":1880:1886   */\n      dup3\n        /* \"#utility.yul\":1869:1878   */\n      dup8\n        /* \"#utility.yul\":1865:1887   */\n      add\n        /* \"#utility.yul\":1844:1897   */\n      tag_33\n      jump\t// in\n    tag_68:\n        /* \"#utility.yul\":1834:1897   */\n      swap4\n      pop\n        /* \"#utility.yul\":1790:1907   */\n      pop\n        /* \"#utility.yul\":1946:1948   */\n      0x20\n        /* \"#utility.yul\":1972:2025   */\n      tag_69\n        /* \"#utility.yul\":2017:2024   */\n      dup7\n        /* \"#utility.yul\":2008:2014   */\n      dup3\n        /* \"#utility.yul\":1997:2006   */\n      dup8\n        /* \"#utility.yul\":1993:2015   */\n      add\n        /* \"#utility.yul\":1972:2025   */\n      tag_36\n      jump\t// in\n    tag_69:\n        /* \"#utility.yul\":1962:2025   */\n      swap3\n      pop\n        /* \"#utility.yul\":1917:2035   */\n      pop\n        /* \"#utility.yul\":2074:2076   */\n      0x40\n        /* \"#utility.yul\":2100:2150   */\n      tag_70\n        /* \"#utility.yul\":2142:2149   */\n      dup7\n        /* \"#utility.yul\":2133:2139   */\n      dup3\n        /* \"#utility.yul\":2122:2131   */\n      dup8\n        /* \"#utility.yul\":2118:2140   */\n      add\n        /* \"#utility.yul\":2100:2150   */\n      tag_39\n      jump\t// in\n    tag_70:\n        /* \"#utility.yul\":2090:2150   */\n      swap2\n      pop\n        /* \"#utility.yul\":2045:2160   */\n      pop\n        /* \"#utility.yul\":1554:2167   */\n      swap3\n      pop\n      swap3\n      pop\n      swap3\n      jump\t// out\n        /* \"#utility.yul\":2173:2647   */\n    tag_13:\n        /* \"#utility.yul\":2241:2247   */\n      0x00\n        /* \"#utility.yul\":2249:2255   */\n      dup1\n        /* \"#utility.yul\":2298:2300   */\n      0x40\n        /* \"#utility.yul\":2286:2295   */\n      dup4\n        /* \"#utility.yul\":2277:2284   */\n      dup6\n        /* \"#utility.yul\":2273:2296   */\n      sub\n        /* \"#utility.yul\":2269:2301   */\n      slt\n        /* \"#utility.yul\":2266:2385   */\n      iszero\n      tag_72\n      jumpi\n        /* \"#utility.yul\":2304:2383   */\n      tag_73\n      tag_28\n      jump\t// in\n    tag_73:\n        /* \"#utility.yul\":2266:2385   */\n    tag_72:\n        /* \"#utility.yul\":2424:2425   */\n      0x00\n        /* \"#utility.yul\":2449:2502   */\n      tag_74\n        /* \"#utility.yul\":2494:2501   */\n      dup6\n        /* \"#utility.yul\":2485:2491   */\n      dup3\n        /* \"#utility.yul\":2474:2483   */\n      dup7\n        /* \"#utility.yul\":2470:2492   */\n      add\n        /* \"#utility.yul\":2449:2502   */\n      tag_33\n      jump\t// in\n    tag_74:\n        /* \"#utility.yul\":2439:2502   */\n      swap3\n      pop\n        /* \"#utility.yul\":2395:2512   */\n      pop\n        /* \"#utility.yul\":2551:2553   */\n      0x20\n        /* \"#utility.yul\":2577:2630   */\n      tag_75\n        /* \"#utility.yul\":2622:2629   */\n      dup6\n        /* \"#utility.yul\":2613:2619   */\n      dup3\n        /* \"#utility.yul\":2602:2611   */\n      dup7\n        /* \"#utility.yul\":2598:2620   */\n      add\n        /* \"#utility.yul\":2577:2630   */\n      tag_36\n      jump\t// in\n    tag_75:\n        /* \"#utility.yul\":2567:2630   */\n      swap2\n      pop\n        /* \"#utility.yul\":2522:2640   */\n      pop\n        /* \"#utility.yul\":2173:2647   */\n      swap3\n      pop\n      swap3\n      swap1\n      pop\n      jump\t// out\n        /* \"#utility.yul\":2653:2762   */\n    tag_40:\n        /* \"#utility.yul\":2734:2755   */\n      tag_77\n        /* \"#utility.yul\":2749:2754   */\n      dup2\n        /* \"#utility.yul\":2734:2755   */\n      tag_37\n      jump\t// in\n    tag_77:\n        /* \"#utility.yul\":2729:2732   */\n      dup3\n        /* \"#utility.yul\":2722:2756   */\n      mstore\n        /* \"#utility.yul\":2653:2762   */\n      pop\n      pop\n      jump\t// out\n        /* \"#utility.yul\":2768:2978   */\n    tag_19:\n        /* \"#utility.yul\":2855:2859   */\n      0x00\n        /* \"#utility.yul\":2893:2895   */\n      0x20\n        /* \"#utility.yul\":2882:2891   */\n      dup3\n        /* \"#utility.yul\":2878:2896   */\n      add\n        /* \"#utility.yul\":2870:2896   */\n      swap1\n      pop\n        /* \"#utility.yul\":2906:2971   */\n      tag_79\n        /* \"#utility.yul\":2968:2969   */\n      0x00\n        /* \"#utility.yul\":2957:2966   */\n      dup4\n        /* \"#utility.yul\":2953:2970   */\n      add\n        /* \"#utility.yul\":2944:2950   */\n      dup5\n        /* \"#utility.yul\":2906:2971   */\n      tag_40\n      jump\t// in\n    tag_79:\n        /* \"#utility.yul\":2768:2978   */\n      swap3\n      swap2\n      pop\n      pop\n      jump\t// out\n\n    auxdata: 0xa264697066735822122036c0ab41c97fc6082f54205242554ac10c200c11edd6403033ecfdaae901175f64736f6c63430008120033\n}\n",
				"bytecode": {
					"linkReferences": {},
					"object": "608060405234801561001057600080fd5b50610412806100206000396000f3fe608060405234801561001057600080fd5b506004361061004c5760003560e01c80630b1391941461005157806338ef7d631461006d578063b464631b14610089578063d6924949146100b9575b600080fd5b61006b6004803603810190610066919061031f565b6100e9565b005b61008760048036038101906100829190610372565b610155565b005b6100a3600480360381019061009e9190610372565b6101b8565b6040516100b091906103c1565b60405180910390f35b6100d360048036038101906100ce9190610372565b61021f565b6040516100e091906103c1565b60405180910390f35b806000808573ffffffffffffffffffffffffffffffffffffffff1673ffffffffffffffffffffffffffffffffffffffff168152602001908152602001600020600084815260200190815260200160002060006101000a81548160ff021916908315150217905550505050565b6000808373ffffffffffffffffffffffffffffffffffffffff1673ffffffffffffffffffffffffffffffffffffffff168152602001908152602001600020600082815260200190815260200160002060006101000a81549060ff02191690555050565b60008060008473ffffffffffffffffffffffffffffffffffffffff1673ffffffffffffffffffffffffffffffffffffffff168152602001908152602001600020600083815260200190815260200160002060009054906101000a900460ff16905092915050565b60006020528160005260406000206020528060005260406000206000915091509054906101000a900460ff1681565b600080fd5b600073ffffffffffffffffffffffffffffffffffffffff82169050919050565b600061027e82610253565b9050919050565b61028e81610273565b811461029957600080fd5b50565b6000813590506102ab81610285565b92915050565b6000819050919050565b6102c4816102b1565b81146102cf57600080fd5b50565b6000813590506102e1816102bb565b92915050565b60008115159050919050565b6102fc816102e7565b811461030757600080fd5b50565b600081359050610319816102f3565b92915050565b6000806000606084860312156103385761033761024e565b5b60006103468682870161029c565b9350506020610357868287016102d2565b92505060406103688682870161030a565b9150509250925092565b600080604083850312156103895761038861024e565b5b60006103978582860161029c565b92505060206103a8858286016102d2565b9150509250929050565b6103bb816102e7565b82525050565b60006020820190506103d660008301846103b2565b9291505056fea264697066735822122036c0ab41c97fc6082f54205242554ac10c200c11edd6403033ecfdaae901175f64736f6c63430008120033",
					"opcodes": "PUSH1 0x80 PUSH1 0x40 MSTORE CALLVALUE DUP1 ISZERO PUSH2 0x10 JUMPI PUSH1 0x0 DUP1 REVERT JUMPDEST POP PUSH2 0x412 DUP1 PUSH2 0x20 PUSH1 0x0 CODECOPY PUSH1 0x0 RETURN INVALID PUSH1 0x80 PUSH1 0x40 MSTORE CALLVALUE DUP1 ISZERO PUSH2 0x10 JUMPI PUSH1 0x0 DUP1 REVERT JUMPDEST POP PUSH1 0x4 CALLDATASIZE LT PUSH2 0x4C JUMPI PUSH1 0x0 CALLDATALOAD PUSH1 0xE0 SHR DUP1 PUSH4 0xB139194 EQ PUSH2 0x51 JUMPI DUP1 PUSH4 0x38EF7D63 EQ PUSH2 0x6D JUMPI DUP1 PUSH4 0xB464631B EQ PUSH2 0x89 JUMPI DUP1 PUSH4 0xD6924949 EQ PUSH2 0xB9 JUMPI JUMPDEST PUSH1 0x0 DUP1 REVERT JUMPDEST PUSH2 0x6B PUSH1 0x4 DUP1 CALLDATASIZE SUB DUP2 ADD SWAP1 PUSH2 0x66 SWAP2 SWAP1 PUSH2 0x31F JUMP JUMPDEST PUSH2 0xE9 JUMP JUMPDEST STOP JUMPDEST PUSH2 0x87 PUSH1 0x4 DUP1 CALLDATASIZE SUB DUP2 ADD SWAP1 PUSH2 0x82 SWAP2 SWAP1 PUSH2 0x372 JUMP JUMPDEST PUSH2 0x155 JUMP JUMPDEST STOP JUMPDEST PUSH2 0xA3 PUSH1 0x4 DUP1 CALLDATASIZE SUB DUP2 ADD SWAP1 PUSH2 0x9E SWAP2 SWAP1 PUSH2 0x372 JUMP JUMPDEST PUSH2 0x1B8 JUMP JUMPDEST PUSH1 0x40 MLOAD PUSH2 0xB0 SWAP2 SWAP1 PUSH2 0x3C1 JUMP JUMPDEST PUSH1 0x40 MLOAD DUP1 SWAP2 SUB SWAP1 RETURN JUMPDEST PUSH2 0xD3 PUSH1 0x4 DUP1 CALLDATASIZE SUB DUP2 ADD SWAP1 PUSH2 0xCE SWAP2 SWAP1 PUSH2 0x372 JUMP JUMPDEST PUSH2 0x21F JUMP JUMPDEST PUSH1 0x40 MLOAD PUSH2 0xE0 SWAP2 SWAP1 PUSH2 0x3C1 JUMP JUMPDEST PUSH1 0x40 MLOAD DUP1 SWAP2 SUB SWAP1 RETURN JUMPDEST DUP1 PUSH1 0x0 DUP1 DUP6 PUSH20 0xFFFFFFFFFFFFFFFFFFFFFFFFFFFFFFFFFFFFFFFF AND PUSH20 0xFFFFFFFFFFFFFFFFFFFFFFFFFFFFFFFFFFFFFFFF AND DUP2 MSTORE PUSH1 0x20 ADD SWAP1 DUP2 MSTORE PUSH1 0x20 ADD PUSH1 0x0 KECCAK256 PUSH1 0x0 DUP5 DUP2 MSTORE PUSH1 0x20 ADD SWAP1 DUP2 MSTORE PUSH1 0x20 ADD PUSH1 0x0 KECCAK256 PUSH1 0x0 PUSH2 0x100 EXP DUP2 SLOAD DUP2 PUSH1 0xFF MUL NOT AND SWAP1 DUP4 ISZERO ISZERO MUL OR SWAP1 SSTORE POP POP POP POP JUMP JUMPDEST PUSH1 0x0 DUP1 DUP4 PUSH20 0xFFFFFFFFFFFFFFFFFFFFFFFFFFFFFFFFFFFFFFFF AND PUSH20 0xFFFFFFFFFFFFFFFFFFFFFFFFFFFFFFFFFFFFFFFF AND DUP2 MSTORE PUSH1 0x20 ADD SWAP1 DUP2 MSTORE PUSH1 0x20 ADD PUSH1 0x0 KECCAK256 PUSH1 0x0 DUP3 DUP2 MSTORE PUSH1 0x20 ADD SWAP1 DUP2 MSTORE PUSH1 0x20 ADD PUSH1 0x0 KECCAK256 PUSH1 0x0 PUSH2 0x100 EXP DUP2 SLOAD SWAP1 PUSH1 0xFF MUL NOT AND SWAP1 SSTORE POP POP JUMP JUMPDEST PUSH1 0x0 DUP1 PUSH1 0x0 DUP5 PUSH20 0xFFFFFFFFFFFFFFFFFFFFFFFFFFFFFFFFFFFFFFFF AND PUSH20 0xFFFFFFFFFFFFFFFFFFFFFFFFFFFFFFFFFFFFFFFF AND DUP2 MSTORE PUSH1 0x20 ADD SWAP1 DUP2 MSTORE PUSH1 0x20 ADD PUSH1 0x0 KECCAK256 PUSH1 0x0 DUP4 DUP2 MSTORE PUSH1 0x20 ADD SWAP1 DUP2 MSTORE PUSH1 0x20 ADD PUSH1 0x0 KECCAK256 PUSH1 0x0 SWAP1 SLOAD SWAP1 PUSH2 0x100 EXP SWAP1 DIV PUSH1 0xFF AND SWAP1 POP SWAP3 SWAP2 POP POP JUMP JUMPDEST PUSH1 0x0 PUSH1 0x20 MSTORE DUP2 PUSH1 0x0 MSTORE PUSH1 0x40 PUSH1 0x0 KECCAK256 PUSH1 0x20 MSTORE DUP1 PUSH1 0x0 MSTORE PUSH1 0x40 PUSH1 0x0 KECCAK256 PUSH1 0x0 SWAP2 POP SWAP2 POP SWAP1 SLOAD SWAP1 PUSH2 0x100 EXP SWAP1 DIV PUSH1 0xFF AND DUP2 JUMP JUMPDEST PUSH1 0x0 DUP1 REVERT JUMPDEST PUSH1 0x0 PUSH20 0xFFFFFFFFFFFFFFFFFFFFFFFFFFFFFFFFFFFFFFFF DUP3 AND SWAP1 POP SWAP2 SWAP1 POP JUMP JUMPDEST PUSH1 0x0 PUSH2 0x27E DUP3 PUSH2 0x253 JUMP JUMPDEST SWAP1 POP SWAP2 SWAP1 POP JUMP JUMPDEST PUSH2 0x28E DUP2 PUSH2 0x273 JUMP JUMPDEST DUP2 EQ PUSH2 0x299 JUMPI PUSH1 0x0 DUP1 REVERT JUMPDEST POP JUMP JUMPDEST PUSH1 0x0 DUP2 CALLDATALOAD SWAP1 POP PUSH2 0x2AB DUP2 PUSH2 0x285 JUMP JUMPDEST SWAP3 SWAP2 POP POP JUMP JUMPDEST PUSH1 0x0 DUP2 SWAP1 POP SWAP2 SWAP1 POP JUMP JUMPDEST PUSH2 0x2C4 DUP2 PUSH2 0x2B1 JUMP JUMPDEST DUP2 EQ PUSH2 0x2CF JUMPI PUSH1 0x0 DUP1 REVERT JUMPDEST POP JUMP JUMPDEST PUSH1 0x0 DUP2 CALLDATALOAD SWAP1 POP PUSH2 0x2E1 DUP2 PUSH2 0x2BB JUMP JUMPDEST SWAP3 SWAP2 POP POP JUMP JUMPDEST PUSH1 0x0 DUP2 ISZERO ISZERO SWAP1 POP SWAP2 SWAP1 POP JUMP JUMPDEST PUSH2 0x2FC DUP2 PUSH2 0x2E7 JUMP JUMPDEST DUP2 EQ PUSH2 0x307 JUMPI PUSH1 0x0 DUP1 REVERT JUMPDEST POP JUMP JUMPDEST PUSH1 0x0 DUP2 CALLDATALOAD SWAP1 POP PUSH2 0x319 DUP2 PUSH2 0x2F3 JUMP JUMPDEST SWAP3 SWAP2 POP POP JUMP JUMPDEST PUSH1 0x0 DUP1 PUSH1 0x0 PUSH1 0x60 DUP5 DUP7 SUB SLT ISZERO PUSH2 0x338 JUMPI PUSH2 0x337 PUSH2 0x24E JUMP JUMPDEST JUMPDEST PUSH1 0x0 PUSH2 0x346 DUP7 DUP3 DUP8 ADD PUSH2 0x29C JUMP JUMPDEST SWAP4 POP POP PUSH1 0x20 PUSH2 0x357 DUP7 DUP3 DUP8 ADD PUSH2 0x2D2 JUMP JUMPDEST SWAP3 POP POP PUSH1 0x40 PUSH2 0x368 DUP7 DUP3 DUP8 ADD PUSH2 0x30A JUMP JUMPDEST SWAP2 POP POP SWAP3 POP SWAP3 POP SWAP3 JUMP JUMPDEST PUSH1 0x0 DUP1 PUSH1 0x40 DUP4 DUP6 SUB SLT ISZERO PUSH2 0x389 JUMPI PUSH2 0x388 PUSH2 0x24E JUMP JUMPDEST JUMPDEST PUSH1 0x0 PUSH2 0x397 DUP6 DUP3 DUP7 ADD PUSH2 0x29C JUMP JUMPDEST SWAP3 POP POP PUSH1 0x20 PUSH2 0x3A8 DUP6 DUP3 DUP7 ADD PUSH2 0x2D2 JUMP JUMPDEST SWAP2 POP POP SWAP3 POP SWAP3 SWAP1 POP JUMP JUMPDEST PUSH2 0x3BB DUP2 PUSH2 0x2E7 JUMP JUMPDEST DUP3 MSTORE POP POP JUMP JUMPDEST PUSH1 0x0 PUSH1 0x20 DUP3 ADD SWAP1 POP PUSH2 0x3D6 PUSH1 0x0 DUP4 ADD DUP5 PUSH2 0x3B2 JUMP JUMPDEST SWAP3 SWAP2 POP POP JUMP INVALID LOG2 PUSH5 0x6970667358 0x22 SLT KECCAK256 CALLDATASIZE 0xC0 0xAB COINBASE 0xC9 PUSH32 0xC6082F54205242554AC10C200C11EDD6403033ECFDAAE901175F64736F6C6343 STOP ADDMOD SLT STOP CALLER "
				},
				"gasEstimates": {
					"creation": {
						"codeDepositCost": "208400",
						"executionCost": "251",
						"totalCost": "208651"
					},
					"external": {
						"del(address,uint256)": "25038",
						"get(address,uint256)": "3156",
						"mymap(address,uint256)": "3131",
						"set(address,uint256,bool)": "25217"
					}
				},
				"methodIdentifiers": {
					"del(address,uint256)": "38ef7d63",
					"get(address,uint256)": "b464631b",
					"mymap(address,uint256)": "d6924949",
					"set(address,uint256,bool)": "0b139194"
				}
			},
			"storageLayout": {
				"storage": [
					{
						"astId": 49,
						"contract": "contracts/mapping.sol:nestedmapping",
						"label": "mymap",
						"offset": 0,
						"slot": "0",
						"type": "t_mapping(t_address,t_mapping(t_uint256,t_bool))"
					}
				],
				"types": {
					"t_address": {
						"encoding": "inplace",
						"label": "address",
						"numberOfBytes": "20"
					},
					"t_bool": {
						"encoding": "inplace",
						"label": "bool",
						"numberOfBytes": "1"
					},
					"t_mapping(t_address,t_mapping(t_uint256,t_bool))": {
						"encoding": "mapping",
						"key": "t_address",
						"label": "mapping(address => mapping(uint256 => bool))",
						"numberOfBytes": "32",
						"value": "t_mapping(t_uint256,t_bool)"
					},
					"t_mapping(t_uint256,t_bool)": {
						"encoding": "mapping",
						"key": "t_uint256",
						"label": "mapping(uint256 => bool)",
						"numberOfBytes": "32",
						"value": "t_bool"
					},
					"t_uint256": {
						"encoding": "inplace",
						"label": "uint256",
						"numberOfBytes": "32"
					}
				}
			},
			"userdoc": {
				"kind": "user",
				"methods": {},
				"version": 1
			}
		}
	}
}