{
	"contracts/ZombieGame.sol": {
		"GetZombie": {
			"abi": [
				{
					"inputs": [
						{
							"internalType": "uint256",
							"name": "id",
							"type": "uint256"
						}
					],
					"name": "BuyOnRent",
					"outputs": [],
					"stateMutability": "nonpayable",
					"type": "function"
				},
				{
					"inputs": [
						{
							"internalType": "string",
							"name": "plan",
							"type": "string"
						},
						{
							"internalType": "string",
							"name": "name",
							"type": "string"
						}
					],
					"name": "BuyZombie",
					"outputs": [],
					"stateMutability": "nonpayable",
					"type": "function"
				},
				{
					"inputs": [
						{
							"internalType": "uint256",
							"name": "zombieID",
							"type": "uint256"
						}
					],
					"name": "Fight",
					"outputs": [],
					"stateMutability": "nonpayable",
					"type": "function"
				},
				{
					"inputs": [],
					"name": "FreeZombie",
					"outputs": [],
					"stateMutability": "nonpayable",
					"type": "function"
				},
				{
					"inputs": [
						{
							"internalType": "uint256",
							"name": "yourZombie",
							"type": "uint256"
						}
					],
					"name": "ZombieVsZombie",
					"outputs": [
						{
							"internalType": "string",
							"name": "Result",
							"type": "string"
						}
					],
					"stateMutability": "nonpayable",
					"type": "function"
				},
				{
					"inputs": [
						{
							"internalType": "address",
							"name": "_owner",
							"type": "address"
						}
					],
					"name": "ownerZombies",
					"outputs": [
						{
							"internalType": "uint256[]",
							"name": "",
							"type": "uint256[]"
						}
					],
					"stateMutability": "view",
					"type": "function"
				}
			],
			"devdoc": {
				"kind": "dev",
				"methods": {},
				"version": 1
			},
			"evm": {
				"assembly": "    /* \"contracts/ZombieGame.sol\":3829:5606  contract GetZombie is ZombieGame, ZombieOnRent, FightZombies {... */\n  mstore(0x40, 0x80)\n    /* \"contracts/ZombieGame.sol\":446:454  10 ** 16 */\n  0x2386f26fc10000\n    /* \"contracts/ZombieGame.sol\":429:454  uint dnaLength = 10 ** 16 */\n  0x02\n  sstore\n    /* \"contracts/ZombieGame.sol\":3829:5606  contract GetZombie is ZombieGame, ZombieOnRent, FightZombies {... */\n  callvalue\n  dup1\n  iszero\n  tag_1\n  jumpi\n  0x00\n  dup1\n  revert\ntag_1:\n  pop\n  dataSize(sub_0)\n  dup1\n  dataOffset(sub_0)\n  0x00\n  codecopy\n  0x00\n  return\nstop\n\nsub_0: assembly {\n        /* \"contracts/ZombieGame.sol\":3829:5606  contract GetZombie is ZombieGame, ZombieOnRent, FightZombies {... */\n      mstore(0x40, 0x80)\n      callvalue\n      dup1\n      iszero\n      tag_1\n      jumpi\n      0x00\n      dup1\n      revert\n    tag_1:\n      pop\n      jumpi(tag_2, lt(calldatasize, 0x04))\n      shr(0xe0, calldataload(0x00))\n      dup1\n      0x3c956b05\n      eq\n      tag_3\n      jumpi\n      dup1\n      0x7138d32d\n      eq\n      tag_4\n      jumpi\n      dup1\n      0xa85b2ba7\n      eq\n      tag_5\n      jumpi\n      dup1\n      0xb81c3db7\n      eq\n      tag_6\n      jumpi\n      dup1\n      0xcb9940b7\n      eq\n      tag_7\n      jumpi\n      dup1\n      0xe70364d4\n      eq\n      tag_8\n      jumpi\n    tag_2:\n      0x00\n      dup1\n      revert\n        /* \"contracts/ZombieGame.sol\":4630:5130  function ownerZombies(address _owner) public view returns (uint[] memory) {... */\n    tag_3:\n      tag_9\n      0x04\n      dup1\n      calldatasize\n      sub\n      dup2\n      add\n      swap1\n      tag_10\n      swap2\n      swap1\n      tag_11\n      jump\t// in\n    tag_10:\n      tag_12\n      jump\t// in\n    tag_9:\n      mload(0x40)\n      tag_13\n      swap2\n      swap1\n      tag_14\n      jump\t// in\n    tag_13:\n      mload(0x40)\n      dup1\n      swap2\n      sub\n      swap1\n      return\n        /* \"contracts/ZombieGame.sol\":5138:5601  function Fight(uint zombieID) public {... */\n    tag_4:\n      tag_15\n      0x04\n      dup1\n      calldatasize\n      sub\n      dup2\n      add\n      swap1\n      tag_16\n      swap2\n      swap1\n      tag_17\n      jump\t// in\n    tag_16:\n      tag_18\n      jump\t// in\n    tag_15:\n      stop\n        /* \"contracts/ZombieGame.sol\":2430:3814  function ZombieVsZombie(uint yourZombie) public returns(string memory Result){... */\n    tag_5:\n      tag_19\n      0x04\n      dup1\n      calldatasize\n      sub\n      dup2\n      add\n      swap1\n      tag_20\n      swap2\n      swap1\n      tag_17\n      jump\t// in\n    tag_20:\n      tag_21\n      jump\t// in\n    tag_19:\n      mload(0x40)\n      tag_22\n      swap2\n      swap1\n      tag_23\n      jump\t// in\n    tag_22:\n      mload(0x40)\n      dup1\n      swap2\n      sub\n      swap1\n      return\n        /* \"contracts/ZombieGame.sol\":3943:4136  function FreeZombie() public {... */\n    tag_6:\n      tag_24\n      tag_25\n      jump\t// in\n    tag_24:\n      stop\n        /* \"contracts/ZombieGame.sol\":4144:4467  function BuyZombie(string memory plan, string memory name) public {... */\n    tag_7:\n      tag_26\n      0x04\n      dup1\n      calldatasize\n      sub\n      dup2\n      add\n      swap1\n      tag_27\n      swap2\n      swap1\n      tag_28\n      jump\t// in\n    tag_27:\n      tag_29\n      jump\t// in\n    tag_26:\n      stop\n        /* \"contracts/ZombieGame.sol\":4475:4622  function BuyOnRent(uint id) public {... */\n    tag_8:\n      tag_30\n      0x04\n      dup1\n      calldatasize\n      sub\n      dup2\n      add\n      swap1\n      tag_31\n      swap2\n      swap1\n      tag_17\n      jump\t// in\n    tag_31:\n      tag_32\n      jump\t// in\n    tag_30:\n      stop\n        /* \"contracts/ZombieGame.sol\":4630:5130  function ownerZombies(address _owner) public view returns (uint[] memory) {... */\n    tag_12:\n        /* \"contracts/ZombieGame.sol\":4689:4702  uint[] memory */\n      0x60\n        /* \"contracts/ZombieGame.sol\":4714:4742  uint[] memory OwnerZombiesId */\n      0x00\n        /* \"contracts/ZombieGame.sol\":4756:4767  ZombieCount */\n      0x01\n        /* \"contracts/ZombieGame.sol\":4756:4775  ZombieCount[_owner] */\n      0x00\n        /* \"contracts/ZombieGame.sol\":4768:4774  _owner */\n      dup5\n        /* \"contracts/ZombieGame.sol\":4756:4775  ZombieCount[_owner] */\n      0xffffffffffffffffffffffffffffffffffffffff\n      and\n      0xffffffffffffffffffffffffffffffffffffffff\n      and\n      dup2\n      mstore\n      0x20\n      add\n      swap1\n      dup2\n      mstore\n      0x20\n      add\n      0x00\n      keccak256\n      sload\n        /* \"contracts/ZombieGame.sol\":4745:4776  new uint[](ZombieCount[_owner]) */\n      0xffffffffffffffff\n      dup2\n      gt\n      iszero\n      tag_34\n      jumpi\n      tag_35\n      tag_36\n      jump\t// in\n    tag_35:\n    tag_34:\n      mload(0x40)\n      swap1\n      dup1\n      dup3\n      mstore\n      dup1\n      0x20\n      mul\n      0x20\n      add\n      dup3\n      add\n      0x40\n      mstore\n      dup1\n      iszero\n      tag_37\n      jumpi\n      dup2\n      0x20\n      add\n      0x20\n      dup3\n      mul\n      dup1\n      calldatasize\n      dup4\n      calldatacopy\n      dup1\n      dup3\n      add\n      swap2\n      pop\n      pop\n      swap1\n      pop\n    tag_37:\n      pop\n        /* \"contracts/ZombieGame.sol\":4714:4776  uint[] memory OwnerZombiesId = new uint[](ZombieCount[_owner]) */\n      swap1\n      pop\n        /* \"contracts/ZombieGame.sol\":4884:4894  uint index */\n      0x00\n        /* \"contracts/ZombieGame.sol\":4920:4926  uint i */\n      dup1\n        /* \"contracts/ZombieGame.sol\":4915:5091  for (uint i = 0; i < zombies.length; i++) {... */\n    tag_38:\n        /* \"contracts/ZombieGame.sol\":4936:4943  zombies */\n      0x03\n        /* \"contracts/ZombieGame.sol\":4936:4950  zombies.length */\n      dup1\n      sload\n      swap1\n      pop\n        /* \"contracts/ZombieGame.sol\":4932:4933  i */\n      dup2\n        /* \"contracts/ZombieGame.sol\":4932:4950  i < zombies.length */\n      lt\n        /* \"contracts/ZombieGame.sol\":4915:5091  for (uint i = 0; i < zombies.length; i++) {... */\n      iszero\n      tag_39\n      jumpi\n        /* \"contracts/ZombieGame.sol\":4994:5000  _owner */\n      dup5\n        /* \"contracts/ZombieGame.sol\":4976:5000  ZombieOwner[i] == _owner */\n      0xffffffffffffffffffffffffffffffffffffffff\n      and\n        /* \"contracts/ZombieGame.sol\":4976:4987  ZombieOwner */\n      0x00\n        /* \"contracts/ZombieGame.sol\":4976:4990  ZombieOwner[i] */\n      dup1\n        /* \"contracts/ZombieGame.sol\":4988:4989  i */\n      dup4\n        /* \"contracts/ZombieGame.sol\":4976:4990  ZombieOwner[i] */\n      dup2\n      mstore\n      0x20\n      add\n      swap1\n      dup2\n      mstore\n      0x20\n      add\n      0x00\n      keccak256\n      0x00\n      swap1\n      sload\n      swap1\n      0x0100\n      exp\n      swap1\n      div\n      0xffffffffffffffffffffffffffffffffffffffff\n      and\n        /* \"contracts/ZombieGame.sol\":4976:5000  ZombieOwner[i] == _owner */\n      0xffffffffffffffffffffffffffffffffffffffff\n      and\n      sub\n        /* \"contracts/ZombieGame.sol\":4972:5080  if (ZombieOwner[i] == _owner) {... */\n      tag_41\n      jumpi\n        /* \"contracts/ZombieGame.sol\":5041:5042  i */\n      dup1\n        /* \"contracts/ZombieGame.sol\":5017:5031  OwnerZombiesId */\n      dup4\n        /* \"contracts/ZombieGame.sol\":5032:5037  index */\n      dup4\n        /* \"contracts/ZombieGame.sol\":5017:5038  OwnerZombiesId[index] */\n      dup2\n      mload\n      dup2\n      lt\n      tag_42\n      jumpi\n      tag_43\n      tag_44\n      jump\t// in\n    tag_43:\n    tag_42:\n      0x20\n      mul\n      0x20\n      add\n      add\n        /* \"contracts/ZombieGame.sol\":5017:5042  OwnerZombiesId[index] = i */\n      dup2\n      dup2\n      mstore\n      pop\n      pop\n        /* \"contracts/ZombieGame.sol\":5057:5064  index++ */\n      dup2\n      dup1\n      tag_45\n      swap1\n      tag_46\n      jump\t// in\n    tag_45:\n      swap3\n      pop\n      pop\n        /* \"contracts/ZombieGame.sol\":4972:5080  if (ZombieOwner[i] == _owner) {... */\n    tag_41:\n        /* \"contracts/ZombieGame.sol\":4952:4955  i++ */\n      dup1\n      dup1\n      tag_47\n      swap1\n      tag_46\n      jump\t// in\n    tag_47:\n      swap2\n      pop\n      pop\n        /* \"contracts/ZombieGame.sol\":4915:5091  for (uint i = 0; i < zombies.length; i++) {... */\n      jump(tag_38)\n    tag_39:\n      pop\n        /* \"contracts/ZombieGame.sol\":5108:5122  OwnerZombiesId */\n      dup2\n        /* \"contracts/ZombieGame.sol\":5101:5122  return OwnerZombiesId */\n      swap3\n      pop\n      pop\n      pop\n        /* \"contracts/ZombieGame.sol\":4630:5130  function ownerZombies(address _owner) public view returns (uint[] memory) {... */\n      swap2\n      swap1\n      pop\n      jump\t// out\n        /* \"contracts/ZombieGame.sol\":5138:5601  function Fight(uint zombieID) public {... */\n    tag_18:\n        /* \"contracts/ZombieGame.sol\":5217:5225  zombieID */\n      dup1\n        /* \"contracts/ZombieGame.sol\":5192:5201  RentedNft */\n      0x08\n        /* \"contracts/ZombieGame.sol\":5192:5213  RentedNft[msg.sender] */\n      0x00\n        /* \"contracts/ZombieGame.sol\":5202:5212  msg.sender */\n      caller\n        /* \"contracts/ZombieGame.sol\":5192:5213  RentedNft[msg.sender] */\n      0xffffffffffffffffffffffffffffffffffffffff\n      and\n      0xffffffffffffffffffffffffffffffffffffffff\n      and\n      dup2\n      mstore\n      0x20\n      add\n      swap1\n      dup2\n      mstore\n      0x20\n      add\n      0x00\n      keccak256\n      sload\n        /* \"contracts/ZombieGame.sol\":5192:5225  RentedNft[msg.sender] == zombieID */\n      sub\n        /* \"contracts/ZombieGame.sol\":5188:5594  if (RentedNft[msg.sender] == zombieID) {... */\n      tag_49\n      jumpi\n        /* \"contracts/ZombieGame.sol\":5240:5260  uint beforeMatchWins */\n      0x00\n        /* \"contracts/ZombieGame.sol\":5263:5270  zombies */\n      0x03\n        /* \"contracts/ZombieGame.sol\":5271:5279  zombieID */\n      dup3\n        /* \"contracts/ZombieGame.sol\":5263:5280  zombies[zombieID] */\n      dup2\n      sload\n      dup2\n      lt\n      tag_50\n      jumpi\n      tag_51\n      tag_44\n      jump\t// in\n    tag_51:\n    tag_50:\n      swap1\n      0x00\n      mstore\n      keccak256(0x00, 0x20)\n      swap1\n      0x09\n      mul\n      add\n        /* \"contracts/ZombieGame.sol\":5263:5285  zombies[zombieID].Wins */\n      0x07\n      add\n      sload\n        /* \"contracts/ZombieGame.sol\":5240:5285  uint beforeMatchWins = zombies[zombieID].Wins */\n      swap1\n      pop\n        /* \"contracts/ZombieGame.sol\":5296:5320  ZombieVsZombie(zombieID) */\n      tag_53\n        /* \"contracts/ZombieGame.sol\":5311:5319  zombieID */\n      dup3\n        /* \"contracts/ZombieGame.sol\":5296:5310  ZombieVsZombie */\n      tag_21\n        /* \"contracts/ZombieGame.sol\":5296:5320  ZombieVsZombie(zombieID) */\n      jump\t// in\n    tag_53:\n      pop\n        /* \"contracts/ZombieGame.sol\":5364:5379  beforeMatchWins */\n      dup1\n        /* \"contracts/ZombieGame.sol\":5339:5346  zombies */\n      0x03\n        /* \"contracts/ZombieGame.sol\":5347:5355  zombieID */\n      dup4\n        /* \"contracts/ZombieGame.sol\":5339:5356  zombies[zombieID] */\n      dup2\n      sload\n      dup2\n      lt\n      tag_54\n      jumpi\n      tag_55\n      tag_44\n      jump\t// in\n    tag_55:\n    tag_54:\n      swap1\n      0x00\n      mstore\n      keccak256(0x00, 0x20)\n      swap1\n      0x09\n      mul\n      add\n        /* \"contracts/ZombieGame.sol\":5339:5361  zombies[zombieID].Wins */\n      0x07\n      add\n      sload\n        /* \"contracts/ZombieGame.sol\":5339:5379  zombies[zombieID].Wins > beforeMatchWins */\n      gt\n        /* \"contracts/ZombieGame.sol\":5339:5411  zombies[zombieID].Wins > beforeMatchWins && ZombieCount[msg.sender] >= 1 */\n      dup1\n      iszero\n      tag_57\n      jumpi\n      pop\n        /* \"contracts/ZombieGame.sol\":5410:5411  1 */\n      0x01\n        /* \"contracts/ZombieGame.sol\":5383:5394  ZombieCount */\n      dup1\n        /* \"contracts/ZombieGame.sol\":5383:5406  ZombieCount[msg.sender] */\n      0x00\n        /* \"contracts/ZombieGame.sol\":5395:5405  msg.sender */\n      caller\n        /* \"contracts/ZombieGame.sol\":5383:5406  ZombieCount[msg.sender] */\n      0xffffffffffffffffffffffffffffffffffffffff\n      and\n      0xffffffffffffffffffffffffffffffffffffffff\n      and\n      dup2\n      mstore\n      0x20\n      add\n      swap1\n      dup2\n      mstore\n      0x20\n      add\n      0x00\n      keccak256\n      sload\n        /* \"contracts/ZombieGame.sol\":5383:5411  ZombieCount[msg.sender] >= 1 */\n      lt\n      iszero\n        /* \"contracts/ZombieGame.sol\":5339:5411  zombies[zombieID].Wins > beforeMatchWins && ZombieCount[msg.sender] >= 1 */\n    tag_57:\n        /* \"contracts/ZombieGame.sol\":5331:5412  require(zombies[zombieID].Wins > beforeMatchWins && ZombieCount[msg.sender] >= 1) */\n      tag_58\n      jumpi\n      0x00\n      dup1\n      revert\n    tag_58:\n        /* \"contracts/ZombieGame.sol\":5423:5445  uint[] memory renterId */\n      0x00\n        /* \"contracts/ZombieGame.sol\":5448:5472  ownerZombies(msg.sender) */\n      tag_59\n        /* \"contracts/ZombieGame.sol\":5461:5471  msg.sender */\n      caller\n        /* \"contracts/ZombieGame.sol\":5448:5460  ownerZombies */\n      tag_12\n        /* \"contracts/ZombieGame.sol\":5448:5472  ownerZombies(msg.sender) */\n      jump\t// in\n    tag_59:\n        /* \"contracts/ZombieGame.sol\":5423:5472  uint[] memory renterId = ownerZombies(msg.sender) */\n      swap1\n      pop\n        /* \"contracts/ZombieGame.sol\":5513:5514  1 */\n      0x01\n        /* \"contracts/ZombieGame.sol\":5483:5490  zombies */\n      0x03\n        /* \"contracts/ZombieGame.sol\":5491:5499  renterId */\n      dup3\n        /* \"contracts/ZombieGame.sol\":5500:5501  0 */\n      0x00\n        /* \"contracts/ZombieGame.sol\":5491:5502  renterId[0] */\n      dup2\n      mload\n      dup2\n      lt\n      tag_60\n      jumpi\n      tag_61\n      tag_44\n      jump\t// in\n    tag_61:\n    tag_60:\n      0x20\n      mul\n      0x20\n      add\n      add\n      mload\n        /* \"contracts/ZombieGame.sol\":5483:5503  zombies[renterId[0]] */\n      dup2\n      sload\n      dup2\n      lt\n      tag_62\n      jumpi\n      tag_63\n      tag_44\n      jump\t// in\n    tag_63:\n    tag_62:\n      swap1\n      0x00\n      mstore\n      keccak256(0x00, 0x20)\n      swap1\n      0x09\n      mul\n      add\n        /* \"contracts/ZombieGame.sol\":5483:5509  zombies[renterId[0]].level */\n      0x03\n      add\n      0x00\n        /* \"contracts/ZombieGame.sol\":5483:5514  zombies[renterId[0]].level += 1 */\n      dup3\n      dup3\n      sload\n      tag_65\n      swap2\n      swap1\n      tag_66\n      jump\t// in\n    tag_65:\n      swap3\n      pop\n      pop\n      dup2\n      swap1\n      sstore\n      pop\n        /* \"contracts/ZombieGame.sol\":5227:5526  {... */\n      pop\n      pop\n        /* \"contracts/ZombieGame.sol\":5188:5594  if (RentedNft[msg.sender] == zombieID) {... */\n      jump(tag_67)\n    tag_49:\n        /* \"contracts/ZombieGame.sol\":5558:5582  ZombieVsZombie(zombieID) */\n      tag_68\n        /* \"contracts/ZombieGame.sol\":5573:5581  zombieID */\n      dup2\n        /* \"contracts/ZombieGame.sol\":5558:5572  ZombieVsZombie */\n      tag_21\n        /* \"contracts/ZombieGame.sol\":5558:5582  ZombieVsZombie(zombieID) */\n      jump\t// in\n    tag_68:\n      pop\n        /* \"contracts/ZombieGame.sol\":5188:5594  if (RentedNft[msg.sender] == zombieID) {... */\n    tag_67:\n        /* \"contracts/ZombieGame.sol\":5138:5601  function Fight(uint zombieID) public {... */\n      pop\n      jump\t// out\n        /* \"contracts/ZombieGame.sol\":2430:3814  function ZombieVsZombie(uint yourZombie) public returns(string memory Result){... */\n    tag_21:\n        /* \"contracts/ZombieGame.sol\":2486:2506  string memory Result */\n      0x60\n        /* \"contracts/ZombieGame.sol\":2518:2534  uint enemyZombie */\n      0x00\n        /* \"contracts/ZombieGame.sol\":2537:2550  randomEnemy() */\n      tag_70\n        /* \"contracts/ZombieGame.sol\":2537:2548  randomEnemy */\n      tag_71\n        /* \"contracts/ZombieGame.sol\":2537:2550  randomEnemy() */\n      jump\t// in\n    tag_70:\n        /* \"contracts/ZombieGame.sol\":2518:2550  uint enemyZombie = randomEnemy() */\n      swap1\n      pop\n        /* \"contracts/ZombieGame.sol\":2563:2595  zombieDetails storage YourZombie */\n      0x00\n        /* \"contracts/ZombieGame.sol\":2598:2605  zombies */\n      0x03\n        /* \"contracts/ZombieGame.sol\":2606:2616  yourZombie */\n      dup5\n        /* \"contracts/ZombieGame.sol\":2598:2617  zombies[yourZombie] */\n      dup2\n      sload\n      dup2\n      lt\n      tag_72\n      jumpi\n      tag_73\n      tag_44\n      jump\t// in\n    tag_73:\n    tag_72:\n      swap1\n      0x00\n      mstore\n      keccak256(0x00, 0x20)\n      swap1\n      0x09\n      mul\n      add\n        /* \"contracts/ZombieGame.sol\":2563:2617  zombieDetails storage YourZombie = zombies[yourZombie] */\n      swap1\n      pop\n        /* \"contracts/ZombieGame.sol\":2628:2661  zombieDetails storage EnemyZombie */\n      0x00\n        /* \"contracts/ZombieGame.sol\":2664:2671  zombies */\n      0x03\n        /* \"contracts/ZombieGame.sol\":2672:2683  enemyZombie */\n      dup4\n        /* \"contracts/ZombieGame.sol\":2664:2684  zombies[enemyZombie] */\n      dup2\n      sload\n      dup2\n      lt\n      tag_75\n      jumpi\n      tag_76\n      tag_44\n      jump\t// in\n    tag_76:\n    tag_75:\n      swap1\n      0x00\n      mstore\n      keccak256(0x00, 0x20)\n      swap1\n      0x09\n      mul\n      add\n        /* \"contracts/ZombieGame.sol\":2628:2684  zombieDetails storage EnemyZombie = zombies[enemyZombie] */\n      swap1\n      pop\n        /* \"contracts/ZombieGame.sol\":2720:2731  EnemyZombie */\n      dup1\n        /* \"contracts/ZombieGame.sol\":2720:2737  EnemyZombie.level */\n      0x03\n      add\n      sload\n        /* \"contracts/ZombieGame.sol\":2701:2711  YourZombie */\n      dup3\n        /* \"contracts/ZombieGame.sol\":2701:2717  YourZombie.level */\n      0x03\n      add\n      sload\n        /* \"contracts/ZombieGame.sol\":2701:2737  YourZombie.level > EnemyZombie.level */\n      gt\n        /* \"contracts/ZombieGame.sol\":2697:3805  if (YourZombie.level > EnemyZombie.level) {... */\n      iszero\n      tag_78\n      jumpi\n        /* \"contracts/ZombieGame.sol\":2754:2764  YourZombie */\n      dup2\n        /* \"contracts/ZombieGame.sol\":2754:2770  YourZombie.level */\n      0x03\n      add\n      0x00\n        /* \"contracts/ZombieGame.sol\":2754:2772  YourZombie.level++ */\n      dup2\n      sload\n      dup1\n      swap3\n      swap2\n      swap1\n      tag_79\n      swap1\n      tag_46\n      jump\t// in\n    tag_79:\n      swap2\n      swap1\n      pop\n      sstore\n      pop\n        /* \"contracts/ZombieGame.sol\":2788:2798  YourZombie */\n      dup2\n        /* \"contracts/ZombieGame.sol\":2788:2809  YourZombie.TotalMatch */\n      0x05\n      add\n      0x00\n        /* \"contracts/ZombieGame.sol\":2788:2811  YourZombie.TotalMatch++ */\n      dup2\n      sload\n      dup1\n      swap3\n      swap2\n      swap1\n      tag_80\n      swap1\n      tag_46\n      jump\t// in\n    tag_80:\n      swap2\n      swap1\n      pop\n      sstore\n      pop\n        /* \"contracts/ZombieGame.sol\":2826:2836  YourZombie */\n      dup2\n        /* \"contracts/ZombieGame.sol\":2826:2846  YourZombie.MatchLeft */\n      0x06\n      add\n      0x00\n        /* \"contracts/ZombieGame.sol\":2826:2848  YourZombie.MatchLeft-- */\n      dup2\n      sload\n      dup1\n      swap3\n      swap2\n      swap1\n      tag_81\n      swap1\n      tag_82\n      jump\t// in\n    tag_81:\n      swap2\n      swap1\n      pop\n      sstore\n      pop\n        /* \"contracts/ZombieGame.sol\":2863:2873  YourZombie */\n      dup2\n        /* \"contracts/ZombieGame.sol\":2863:2878  YourZombie.Wins */\n      0x07\n      add\n      0x00\n        /* \"contracts/ZombieGame.sol\":2863:2880  YourZombie.Wins++ */\n      dup2\n      sload\n      dup1\n      swap3\n      swap2\n      swap1\n      tag_83\n      swap1\n      tag_46\n      jump\t// in\n    tag_83:\n      swap2\n      swap1\n      pop\n      sstore\n      pop\n        /* \"contracts/ZombieGame.sol\":2912:2915  100 */\n      0x64\n        /* \"contracts/ZombieGame.sol\":2895:2905  YourZombie */\n      dup3\n        /* \"contracts/ZombieGame.sol\":2895:2908  YourZombie.xp */\n      0x04\n      add\n      0x00\n        /* \"contracts/ZombieGame.sol\":2895:2915  YourZombie.xp += 100 */\n      dup3\n      dup3\n      sload\n      tag_84\n      swap2\n      swap1\n      tag_66\n      jump\t// in\n    tag_84:\n      swap3\n      pop\n      pop\n      dup2\n      swap1\n      sstore\n      pop\n        /* \"contracts/ZombieGame.sol\":2930:2941  EnemyZombie */\n      dup1\n        /* \"contracts/ZombieGame.sol\":2930:2947  EnemyZombie.level */\n      0x03\n      add\n      0x00\n        /* \"contracts/ZombieGame.sol\":2930:2949  EnemyZombie.level-- */\n      dup2\n      sload\n      dup1\n      swap3\n      swap2\n      swap1\n      tag_85\n      swap1\n      tag_82\n      jump\t// in\n    tag_85:\n      swap2\n      swap1\n      pop\n      sstore\n      pop\n        /* \"contracts/ZombieGame.sol\":2964:2975  EnemyZombie */\n      dup1\n        /* \"contracts/ZombieGame.sol\":2964:2986  EnemyZombie.TotalMatch */\n      0x05\n      add\n      0x00\n        /* \"contracts/ZombieGame.sol\":2964:2988  EnemyZombie.TotalMatch++ */\n      dup2\n      sload\n      dup1\n      swap3\n      swap2\n      swap1\n      tag_86\n      swap1\n      tag_46\n      jump\t// in\n    tag_86:\n      swap2\n      swap1\n      pop\n      sstore\n      pop\n        /* \"contracts/ZombieGame.sol\":3003:3014  EnemyZombie */\n      dup1\n        /* \"contracts/ZombieGame.sol\":3003:3024  EnemyZombie.MatchLeft */\n      0x06\n      add\n      0x00\n        /* \"contracts/ZombieGame.sol\":3003:3026  EnemyZombie.MatchLeft-- */\n      dup2\n      sload\n      dup1\n      swap3\n      swap2\n      swap1\n      tag_87\n      swap1\n      tag_82\n      jump\t// in\n    tag_87:\n      swap2\n      swap1\n      pop\n      sstore\n      pop\n        /* \"contracts/ZombieGame.sol\":3041:3052  EnemyZombie */\n      dup1\n        /* \"contracts/ZombieGame.sol\":3041:3059  EnemyZombie.Looses */\n      0x08\n      add\n      0x00\n        /* \"contracts/ZombieGame.sol\":3041:3061  EnemyZombie.Looses++ */\n      dup2\n      sload\n      dup1\n      swap3\n      swap2\n      swap1\n      tag_88\n      swap1\n      tag_46\n      jump\t// in\n    tag_88:\n      swap2\n      swap1\n      pop\n      sstore\n      pop\n        /* \"contracts/ZombieGame.sol\":3074:3097  return \"Congrats Wins.\" */\n      mload(0x40)\n      dup1\n      0x40\n      add\n      0x40\n      mstore\n      dup1\n      0x0e\n      dup2\n      mstore\n      0x20\n      add\n      0x436f6e67726174732057696e732e000000000000000000000000000000000000\n      dup2\n      mstore\n      pop\n      swap4\n      pop\n      pop\n      pop\n      pop\n      jump(tag_69)\n        /* \"contracts/ZombieGame.sol\":2697:3805  if (YourZombie.level > EnemyZombie.level) {... */\n    tag_78:\n        /* \"contracts/ZombieGame.sol\":3154:3164  YourZombie */\n      dup2\n        /* \"contracts/ZombieGame.sol\":3154:3170  YourZombie.level */\n      0x03\n      add\n      sload\n        /* \"contracts/ZombieGame.sol\":3134:3145  EnemyZombie */\n      dup2\n        /* \"contracts/ZombieGame.sol\":3134:3151  EnemyZombie.level */\n      0x03\n      add\n      sload\n        /* \"contracts/ZombieGame.sol\":3134:3170  EnemyZombie.level > YourZombie.level */\n      gt\n        /* \"contracts/ZombieGame.sol\":3130:3805  if (EnemyZombie.level > YourZombie.level) {... */\n      iszero\n      tag_90\n      jumpi\n        /* \"contracts/ZombieGame.sol\":3187:3198  EnemyZombie */\n      dup1\n        /* \"contracts/ZombieGame.sol\":3187:3204  EnemyZombie.level */\n      0x03\n      add\n      0x00\n        /* \"contracts/ZombieGame.sol\":3187:3206  EnemyZombie.level++ */\n      dup2\n      sload\n      dup1\n      swap3\n      swap2\n      swap1\n      tag_91\n      swap1\n      tag_46\n      jump\t// in\n    tag_91:\n      swap2\n      swap1\n      pop\n      sstore\n      pop\n        /* \"contracts/ZombieGame.sol\":3222:3233  EnemyZombie */\n      dup1\n        /* \"contracts/ZombieGame.sol\":3222:3244  EnemyZombie.TotalMatch */\n      0x05\n      add\n      0x00\n        /* \"contracts/ZombieGame.sol\":3222:3246  EnemyZombie.TotalMatch++ */\n      dup2\n      sload\n      dup1\n      swap3\n      swap2\n      swap1\n      tag_92\n      swap1\n      tag_46\n      jump\t// in\n    tag_92:\n      swap2\n      swap1\n      pop\n      sstore\n      pop\n        /* \"contracts/ZombieGame.sol\":3261:3272  EnemyZombie */\n      dup1\n        /* \"contracts/ZombieGame.sol\":3261:3282  EnemyZombie.MatchLeft */\n      0x06\n      add\n      0x00\n        /* \"contracts/ZombieGame.sol\":3261:3284  EnemyZombie.MatchLeft-- */\n      dup2\n      sload\n      dup1\n      swap3\n      swap2\n      swap1\n      tag_93\n      swap1\n      tag_82\n      jump\t// in\n    tag_93:\n      swap2\n      swap1\n      pop\n      sstore\n      pop\n        /* \"contracts/ZombieGame.sol\":3299:3310  EnemyZombie */\n      dup1\n        /* \"contracts/ZombieGame.sol\":3299:3315  EnemyZombie.Wins */\n      0x07\n      add\n      0x00\n        /* \"contracts/ZombieGame.sol\":3299:3317  EnemyZombie.Wins++ */\n      dup2\n      sload\n      dup1\n      swap3\n      swap2\n      swap1\n      tag_94\n      swap1\n      tag_46\n      jump\t// in\n    tag_94:\n      swap2\n      swap1\n      pop\n      sstore\n      pop\n        /* \"contracts/ZombieGame.sol\":3350:3353  100 */\n      0x64\n        /* \"contracts/ZombieGame.sol\":3332:3343  EnemyZombie */\n      dup2\n        /* \"contracts/ZombieGame.sol\":3332:3346  EnemyZombie.xp */\n      0x04\n      add\n      0x00\n        /* \"contracts/ZombieGame.sol\":3332:3353  EnemyZombie.xp += 100 */\n      dup3\n      dup3\n      sload\n      tag_95\n      swap2\n      swap1\n      tag_66\n      jump\t// in\n    tag_95:\n      swap3\n      pop\n      pop\n      dup2\n      swap1\n      sstore\n      pop\n        /* \"contracts/ZombieGame.sol\":3368:3378  YourZombie */\n      dup2\n        /* \"contracts/ZombieGame.sol\":3368:3384  YourZombie.level */\n      0x03\n      add\n      0x00\n        /* \"contracts/ZombieGame.sol\":3368:3386  YourZombie.level-- */\n      dup2\n      sload\n      dup1\n      swap3\n      swap2\n      swap1\n      tag_96\n      swap1\n      tag_82\n      jump\t// in\n    tag_96:\n      swap2\n      swap1\n      pop\n      sstore\n      pop\n        /* \"contracts/ZombieGame.sol\":3401:3411  YourZombie */\n      dup2\n        /* \"contracts/ZombieGame.sol\":3401:3422  YourZombie.TotalMatch */\n      0x05\n      add\n      0x00\n        /* \"contracts/ZombieGame.sol\":3401:3424  YourZombie.TotalMatch++ */\n      dup2\n      sload\n      dup1\n      swap3\n      swap2\n      swap1\n      tag_97\n      swap1\n      tag_46\n      jump\t// in\n    tag_97:\n      swap2\n      swap1\n      pop\n      sstore\n      pop\n        /* \"contracts/ZombieGame.sol\":3439:3449  YourZombie */\n      dup2\n        /* \"contracts/ZombieGame.sol\":3439:3459  YourZombie.MatchLeft */\n      0x06\n      add\n      0x00\n        /* \"contracts/ZombieGame.sol\":3439:3461  YourZombie.MatchLeft-- */\n      dup2\n      sload\n      dup1\n      swap3\n      swap2\n      swap1\n      tag_98\n      swap1\n      tag_82\n      jump\t// in\n    tag_98:\n      swap2\n      swap1\n      pop\n      sstore\n      pop\n        /* \"contracts/ZombieGame.sol\":3476:3486  YourZombie */\n      dup2\n        /* \"contracts/ZombieGame.sol\":3476:3493  YourZombie.Looses */\n      0x08\n      add\n      0x00\n        /* \"contracts/ZombieGame.sol\":3476:3495  YourZombie.Looses++ */\n      dup2\n      sload\n      dup1\n      swap3\n      swap2\n      swap1\n      tag_99\n      swap1\n      tag_46\n      jump\t// in\n    tag_99:\n      swap2\n      swap1\n      pop\n      sstore\n      pop\n        /* \"contracts/ZombieGame.sol\":3508:3566  return \"Win And Loose is the part of the Game.Try Again!.\" */\n      mload(0x40)\n      dup1\n      0x60\n      add\n      0x40\n      mstore\n      dup1\n      0x31\n      dup2\n      mstore\n      0x20\n      add\n      data_e0168f3fae51cf798b1321eebdaae7bc178ca214b91f59783066943e69095f12\n      0x31\n      swap2\n      codecopy\n      swap4\n      pop\n      pop\n      pop\n      pop\n      jump(tag_69)\n        /* \"contracts/ZombieGame.sol\":3130:3805  if (EnemyZombie.level > YourZombie.level) {... */\n    tag_90:\n        /* \"contracts/ZombieGame.sol\":3614:3625  EnemyZombie */\n      dup1\n        /* \"contracts/ZombieGame.sol\":3614:3636  EnemyZombie.TotalMatch */\n      0x05\n      add\n      0x00\n        /* \"contracts/ZombieGame.sol\":3614:3638  EnemyZombie.TotalMatch++ */\n      dup2\n      sload\n      dup1\n      swap3\n      swap2\n      swap1\n      tag_101\n      swap1\n      tag_46\n      jump\t// in\n    tag_101:\n      swap2\n      swap1\n      pop\n      sstore\n      pop\n        /* \"contracts/ZombieGame.sol\":3653:3663  YourZombie */\n      dup2\n        /* \"contracts/ZombieGame.sol\":3653:3674  YourZombie.TotalMatch */\n      0x05\n      add\n      0x00\n        /* \"contracts/ZombieGame.sol\":3653:3676  YourZombie.TotalMatch++ */\n      dup2\n      sload\n      dup1\n      swap3\n      swap2\n      swap1\n      tag_102\n      swap1\n      tag_46\n      jump\t// in\n    tag_102:\n      swap2\n      swap1\n      pop\n      sstore\n      pop\n        /* \"contracts/ZombieGame.sol\":3691:3701  YourZombie */\n      dup2\n        /* \"contracts/ZombieGame.sol\":3691:3711  YourZombie.MatchLeft */\n      0x06\n      add\n      0x00\n        /* \"contracts/ZombieGame.sol\":3691:3713  YourZombie.MatchLeft-- */\n      dup2\n      sload\n      dup1\n      swap3\n      swap2\n      swap1\n      tag_103\n      swap1\n      tag_82\n      jump\t// in\n    tag_103:\n      swap2\n      swap1\n      pop\n      sstore\n      pop\n        /* \"contracts/ZombieGame.sol\":3728:3739  EnemyZombie */\n      dup1\n        /* \"contracts/ZombieGame.sol\":3728:3749  EnemyZombie.MatchLeft */\n      0x06\n      add\n      0x00\n        /* \"contracts/ZombieGame.sol\":3728:3751  EnemyZombie.MatchLeft-- */\n      dup2\n      sload\n      dup1\n      swap3\n      swap2\n      swap1\n      tag_104\n      swap1\n      tag_82\n      jump\t// in\n    tag_104:\n      swap2\n      swap1\n      pop\n      sstore\n      pop\n        /* \"contracts/ZombieGame.sol\":3764:3788  return \"Draw Try Again.\" */\n      mload(0x40)\n      dup1\n      0x40\n      add\n      0x40\n      mstore\n      dup1\n      0x0f\n      dup2\n      mstore\n      0x20\n      add\n      0x447261772054727920416761696e2e0000000000000000000000000000000000\n      dup2\n      mstore\n      pop\n      swap4\n      pop\n      pop\n      pop\n      pop\n        /* \"contracts/ZombieGame.sol\":2430:3814  function ZombieVsZombie(uint yourZombie) public returns(string memory Result){... */\n    tag_69:\n      swap2\n      swap1\n      pop\n      jump\t// out\n        /* \"contracts/ZombieGame.sol\":3943:4136  function FreeZombie() public {... */\n    tag_25:\n        /* \"contracts/ZombieGame.sol\":4018:4019  0 */\n      0x00\n        /* \"contracts/ZombieGame.sol\":3991:4002  ZombieCount */\n      0x01\n        /* \"contracts/ZombieGame.sol\":3991:4014  ZombieCount[msg.sender] */\n      0x00\n        /* \"contracts/ZombieGame.sol\":4003:4013  msg.sender */\n      caller\n        /* \"contracts/ZombieGame.sol\":3991:4014  ZombieCount[msg.sender] */\n      0xffffffffffffffffffffffffffffffffffffffff\n      and\n      0xffffffffffffffffffffffffffffffffffffffff\n      and\n      dup2\n      mstore\n      0x20\n      add\n      swap1\n      dup2\n      mstore\n      0x20\n      add\n      0x00\n      keccak256\n      sload\n        /* \"contracts/ZombieGame.sol\":3991:4019  ZombieCount[msg.sender] == 0 */\n      eq\n        /* \"contracts/ZombieGame.sol\":3983:4043  require(ZombieCount[msg.sender] == 0, \"Already have 1 nft.\") */\n      tag_106\n      jumpi\n      mload(0x40)\n      0x08c379a000000000000000000000000000000000000000000000000000000000\n      dup2\n      mstore\n      0x04\n      add\n      tag_107\n      swap1\n      tag_108\n      jump\t// in\n    tag_107:\n      mload(0x40)\n      dup1\n      swap2\n      sub\n      swap1\n      revert\n    tag_106:\n        /* \"contracts/ZombieGame.sol\":4054:4128  createZombie(\"Free\", \"FreeZombie\", DnaGenerator(\"free\"), 1, 0, 0, 2, 0, 0) */\n      tag_109\n      mload(0x40)\n      dup1\n      0x40\n      add\n      0x40\n      mstore\n      dup1\n      0x04\n      dup2\n      mstore\n      0x20\n      add\n      0x4672656500000000000000000000000000000000000000000000000000000000\n      dup2\n      mstore\n      pop\n      mload(0x40)\n      dup1\n      0x40\n      add\n      0x40\n      mstore\n      dup1\n      0x0a\n      dup2\n      mstore\n      0x20\n      add\n      0x467265655a6f6d62696500000000000000000000000000000000000000000000\n      dup2\n      mstore\n      pop\n        /* \"contracts/ZombieGame.sol\":4089:4109  DnaGenerator(\"free\") */\n      tag_110\n      mload(0x40)\n      dup1\n      0x40\n      add\n      0x40\n      mstore\n      dup1\n      0x04\n      dup2\n      mstore\n      0x20\n      add\n      0x6672656500000000000000000000000000000000000000000000000000000000\n      dup2\n      mstore\n      pop\n        /* \"contracts/ZombieGame.sol\":4089:4101  DnaGenerator */\n      tag_111\n        /* \"contracts/ZombieGame.sol\":4089:4109  DnaGenerator(\"free\") */\n      jump\t// in\n    tag_110:\n        /* \"contracts/ZombieGame.sol\":4111:4112  1 */\n      0x01\n        /* \"contracts/ZombieGame.sol\":4114:4115  0 */\n      0x00\n        /* \"contracts/ZombieGame.sol\":4117:4118  0 */\n      dup1\n        /* \"contracts/ZombieGame.sol\":4120:4121  2 */\n      0x02\n        /* \"contracts/ZombieGame.sol\":4123:4124  0 */\n      0x00\n        /* \"contracts/ZombieGame.sol\":4126:4127  0 */\n      dup1\n        /* \"contracts/ZombieGame.sol\":4054:4066  createZombie */\n      tag_112\n        /* \"contracts/ZombieGame.sol\":4054:4128  createZombie(\"Free\", \"FreeZombie\", DnaGenerator(\"free\"), 1, 0, 0, 2, 0, 0) */\n      jump\t// in\n    tag_109:\n        /* \"contracts/ZombieGame.sol\":3943:4136  function FreeZombie() public {... */\n      jump\t// out\n        /* \"contracts/ZombieGame.sol\":4144:4467  function BuyZombie(string memory plan, string memory name) public {... */\n    tag_29:\n        /* \"contracts/ZombieGame.sol\":4265:4281  bytes(\"premium\") */\n      mload(0x40)\n      dup1\n      0x40\n      add\n      0x40\n      mstore\n      dup1\n      0x07\n      dup2\n      mstore\n      0x20\n      add\n      0x7072656d69756d00000000000000000000000000000000000000000000000000\n      dup2\n      mstore\n      pop\n        /* \"contracts/ZombieGame.sol\":4255:4282  keccak256(bytes(\"premium\")) */\n      dup1\n      mload\n      swap1\n      0x20\n      add\n      keccak256\n        /* \"contracts/ZombieGame.sol\":4245:4249  plan */\n      dup3\n        /* \"contracts/ZombieGame.sol\":4229:4251  keccak256(bytes(plan)) */\n      dup1\n      mload\n      swap1\n      0x20\n      add\n      keccak256\n        /* \"contracts/ZombieGame.sol\":4229:4282  keccak256(bytes(plan)) == keccak256(bytes(\"premium\")) */\n      eq\n        /* \"contracts/ZombieGame.sol\":4229:4339  keccak256(bytes(plan)) == keccak256(bytes(\"premium\")) || keccak256(bytes(plan)) == keccak256(bytes(\"Diamond\")) */\n      dup1\n      tag_114\n      jumpi\n      pop\n        /* \"contracts/ZombieGame.sol\":4322:4338  bytes(\"Diamond\") */\n      mload(0x40)\n      dup1\n      0x40\n      add\n      0x40\n      mstore\n      dup1\n      0x07\n      dup2\n      mstore\n      0x20\n      add\n      0x4469616d6f6e6400000000000000000000000000000000000000000000000000\n      dup2\n      mstore\n      pop\n        /* \"contracts/ZombieGame.sol\":4312:4339  keccak256(bytes(\"Diamond\")) */\n      dup1\n      mload\n      swap1\n      0x20\n      add\n      keccak256\n        /* \"contracts/ZombieGame.sol\":4302:4306  plan */\n      dup3\n        /* \"contracts/ZombieGame.sol\":4286:4308  keccak256(bytes(plan)) */\n      dup1\n      mload\n      swap1\n      0x20\n      add\n      keccak256\n        /* \"contracts/ZombieGame.sol\":4286:4339  keccak256(bytes(plan)) == keccak256(bytes(\"Diamond\")) */\n      eq\n        /* \"contracts/ZombieGame.sol\":4229:4339  keccak256(bytes(plan)) == keccak256(bytes(\"premium\")) || keccak256(bytes(plan)) == keccak256(bytes(\"Diamond\")) */\n    tag_114:\n        /* \"contracts/ZombieGame.sol\":4221:4359  require(keccak256(bytes(plan)) == keccak256(bytes(\"premium\")) || keccak256(bytes(plan)) == keccak256(bytes(\"Diamond\")),\"Correct Spelling\") */\n      tag_115\n      jumpi\n      mload(0x40)\n      0x08c379a000000000000000000000000000000000000000000000000000000000\n      dup2\n      mstore\n      0x04\n      add\n      tag_116\n      swap1\n      tag_117\n      jump\t// in\n    tag_116:\n      mload(0x40)\n      dup1\n      swap2\n      sub\n      swap1\n      revert\n    tag_115:\n        /* \"contracts/ZombieGame.sol\":4370:4378  uint Dna */\n      0x00\n        /* \"contracts/ZombieGame.sol\":4381:4399  DnaGenerator(name) */\n      tag_118\n        /* \"contracts/ZombieGame.sol\":4394:4398  name */\n      dup3\n        /* \"contracts/ZombieGame.sol\":4381:4393  DnaGenerator */\n      tag_111\n        /* \"contracts/ZombieGame.sol\":4381:4399  DnaGenerator(name) */\n      jump\t// in\n    tag_118:\n        /* \"contracts/ZombieGame.sol\":4370:4399  uint Dna = DnaGenerator(name) */\n      swap1\n      pop\n        /* \"contracts/ZombieGame.sol\":4410:4459  createZombie(plan, name, Dna, 5, 500, 0, 5, 0, 0) */\n      tag_119\n        /* \"contracts/ZombieGame.sol\":4423:4427  plan */\n      dup4\n        /* \"contracts/ZombieGame.sol\":4429:4433  name */\n      dup4\n        /* \"contracts/ZombieGame.sol\":4435:4438  Dna */\n      dup4\n        /* \"contracts/ZombieGame.sol\":4440:4441  5 */\n      0x05\n        /* \"contracts/ZombieGame.sol\":4443:4446  500 */\n      0x01f4\n        /* \"contracts/ZombieGame.sol\":4448:4449  0 */\n      0x00\n        /* \"contracts/ZombieGame.sol\":4451:4452  5 */\n      0x05\n        /* \"contracts/ZombieGame.sol\":4454:4455  0 */\n      0x00\n        /* \"contracts/ZombieGame.sol\":4457:4458  0 */\n      dup1\n        /* \"contracts/ZombieGame.sol\":4410:4422  createZombie */\n      tag_112\n        /* \"contracts/ZombieGame.sol\":4410:4459  createZombie(plan, name, Dna, 5, 500, 0, 5, 0, 0) */\n      jump\t// in\n    tag_119:\n        /* \"contracts/ZombieGame.sol\":4210:4467  {... */\n      pop\n        /* \"contracts/ZombieGame.sol\":4144:4467  function BuyZombie(string memory plan, string memory name) public {... */\n      pop\n      pop\n      jump\t// out\n        /* \"contracts/ZombieGame.sol\":4475:4622  function BuyOnRent(uint id) public {... */\n    tag_32:\n        /* \"contracts/ZombieGame.sol\":4543:4547  true */\n      0x01\n        /* \"contracts/ZombieGame.sol\":4529:4547  onRent[id] == true */\n      iszero\n      iszero\n        /* \"contracts/ZombieGame.sol\":4529:4535  onRent */\n      0x04\n        /* \"contracts/ZombieGame.sol\":4529:4539  onRent[id] */\n      0x00\n        /* \"contracts/ZombieGame.sol\":4536:4538  id */\n      dup4\n        /* \"contracts/ZombieGame.sol\":4529:4539  onRent[id] */\n      dup2\n      mstore\n      0x20\n      add\n      swap1\n      dup2\n      mstore\n      0x20\n      add\n      0x00\n      keccak256\n      0x00\n      swap1\n      sload\n      swap1\n      0x0100\n      exp\n      swap1\n      div\n      0xff\n      and\n        /* \"contracts/ZombieGame.sol\":4529:4547  onRent[id] == true */\n      iszero\n      iszero\n      eq\n        /* \"contracts/ZombieGame.sol\":4521:4548  require(onRent[id] == true) */\n      tag_121\n      jumpi\n      0x00\n      dup1\n      revert\n    tag_121:\n        /* \"contracts/ZombieGame.sol\":4583:4585  id */\n      dup1\n        /* \"contracts/ZombieGame.sol\":4559:4568  RentedNft */\n      0x08\n        /* \"contracts/ZombieGame.sol\":4559:4580  RentedNft[msg.sender] */\n      0x00\n        /* \"contracts/ZombieGame.sol\":4569:4579  msg.sender */\n      caller\n        /* \"contracts/ZombieGame.sol\":4559:4580  RentedNft[msg.sender] */\n      0xffffffffffffffffffffffffffffffffffffffff\n      and\n      0xffffffffffffffffffffffffffffffffffffffff\n      and\n      dup2\n      mstore\n      0x20\n      add\n      swap1\n      dup2\n      mstore\n      0x20\n      add\n      0x00\n      keccak256\n        /* \"contracts/ZombieGame.sol\":4559:4585  RentedNft[msg.sender] = id */\n      dup2\n      swap1\n      sstore\n      pop\n        /* \"contracts/ZombieGame.sol\":4609:4614  false */\n      0x00\n        /* \"contracts/ZombieGame.sol\":4596:4602  onRent */\n      0x04\n        /* \"contracts/ZombieGame.sol\":4596:4606  onRent[id] */\n      0x00\n        /* \"contracts/ZombieGame.sol\":4603:4605  id */\n      dup4\n        /* \"contracts/ZombieGame.sol\":4596:4606  onRent[id] */\n      dup2\n      mstore\n      0x20\n      add\n      swap1\n      dup2\n      mstore\n      0x20\n      add\n      0x00\n      keccak256\n      0x00\n        /* \"contracts/ZombieGame.sol\":4596:4614  onRent[id] = false */\n      0x0100\n      exp\n      dup2\n      sload\n      dup2\n      0xff\n      mul\n      not\n      and\n      swap1\n      dup4\n      iszero\n      iszero\n      mul\n      or\n      swap1\n      sstore\n      pop\n        /* \"contracts/ZombieGame.sol\":4475:4622  function BuyOnRent(uint id) public {... */\n      pop\n      jump\t// out\n        /* \"contracts/ZombieGame.sol\":2194:2422  function randomEnemy() private view returns(uint) {... */\n    tag_71:\n        /* \"contracts/ZombieGame.sol\":2238:2242  uint */\n      0x00\n        /* \"contracts/ZombieGame.sol\":2255:2270  uint TotalEnemy */\n      dup1\n        /* \"contracts/ZombieGame.sol\":2273:2280  zombies */\n      0x03\n        /* \"contracts/ZombieGame.sol\":2273:2287  zombies.length */\n      dup1\n      sload\n      swap1\n      pop\n        /* \"contracts/ZombieGame.sol\":2255:2287  uint TotalEnemy = zombies.length */\n      swap1\n      pop\n        /* \"contracts/ZombieGame.sol\":2298:2311  uint RandomId */\n      0x00\n        /* \"contracts/ZombieGame.sol\":2378:2388  TotalEnemy */\n      dup2\n        /* \"contracts/ZombieGame.sol\":2346:2356  TotalEnemy */\n      dup3\n        /* \"contracts/ZombieGame.sol\":2357:2372  block.timestamp */\n      timestamp\n        /* \"contracts/ZombieGame.sol\":2329:2373  abi.encodePacked(TotalEnemy,block.timestamp) */\n      add(0x20, mload(0x40))\n      tag_123\n      swap3\n      swap2\n      swap1\n      tag_124\n      jump\t// in\n    tag_123:\n      mload(0x40)\n      0x20\n      dup2\n      dup4\n      sub\n      sub\n      dup2\n      mstore\n      swap1\n      0x40\n      mstore\n        /* \"contracts/ZombieGame.sol\":2319:2374  keccak256(abi.encodePacked(TotalEnemy,block.timestamp)) */\n      dup1\n      mload\n      swap1\n      0x20\n      add\n      keccak256\n        /* \"contracts/ZombieGame.sol\":2314:2375  uint(keccak256(abi.encodePacked(TotalEnemy,block.timestamp))) */\n      0x00\n      shr\n        /* \"contracts/ZombieGame.sol\":2314:2388  uint(keccak256(abi.encodePacked(TotalEnemy,block.timestamp))) % TotalEnemy */\n      tag_125\n      swap2\n      swap1\n      tag_126\n      jump\t// in\n    tag_125:\n        /* \"contracts/ZombieGame.sol\":2298:2388  uint RandomId = uint(keccak256(abi.encodePacked(TotalEnemy,block.timestamp))) % TotalEnemy */\n      swap1\n      pop\n        /* \"contracts/ZombieGame.sol\":2406:2414  RandomId */\n      dup1\n        /* \"contracts/ZombieGame.sol\":2399:2414  return RandomId */\n      swap3\n      pop\n      pop\n      pop\n        /* \"contracts/ZombieGame.sol\":2194:2422  function randomEnemy() private view returns(uint) {... */\n      swap1\n      jump\t// out\n        /* \"contracts/ZombieGame.sol\":914:1085  function DnaGenerator(string memory name) internal view returns(uint){... */\n    tag_111:\n        /* \"contracts/ZombieGame.sol\":978:982  uint */\n      0x00\n        /* \"contracts/ZombieGame.sol\":994:1002  uint Dna */\n      dup1\n        /* \"contracts/ZombieGame.sol\":1037:1041  name */\n      dup3\n        /* \"contracts/ZombieGame.sol\":1020:1042  abi.encodePacked(name) */\n      add(0x20, mload(0x40))\n      tag_128\n      swap2\n      swap1\n      tag_129\n      jump\t// in\n    tag_128:\n      mload(0x40)\n      0x20\n      dup2\n      dup4\n      sub\n      sub\n      dup2\n      mstore\n      swap1\n      0x40\n      mstore\n        /* \"contracts/ZombieGame.sol\":1010:1043  keccak256(abi.encodePacked(name)) */\n      dup1\n      mload\n      swap1\n      0x20\n      add\n      keccak256\n        /* \"contracts/ZombieGame.sol\":1005:1044  uint(keccak256(abi.encodePacked(name))) */\n      0x00\n      shr\n        /* \"contracts/ZombieGame.sol\":994:1044  uint Dna = uint(keccak256(abi.encodePacked(name))) */\n      swap1\n      pop\n        /* \"contracts/ZombieGame.sol\":1068:1077  dnaLength */\n      sload(0x02)\n        /* \"contracts/ZombieGame.sol\":1062:1065  Dna */\n      dup2\n        /* \"contracts/ZombieGame.sol\":1062:1077  Dna % dnaLength */\n      tag_130\n      swap2\n      swap1\n      tag_126\n      jump\t// in\n    tag_130:\n        /* \"contracts/ZombieGame.sol\":1055:1077  return Dna % dnaLength */\n      swap2\n      pop\n      pop\n        /* \"contracts/ZombieGame.sol\":914:1085  function DnaGenerator(string memory name) internal view returns(uint){... */\n      swap2\n      swap1\n      pop\n      jump\t// out\n        /* \"contracts/ZombieGame.sol\":504:906  function createZombie(string memory Plan, string memory name, uint dna, uint level, uint xp, uint TotalMatch, uint MatchLeft, uint Wins, uint Looses) internal {... */\n    tag_112:\n        /* \"contracts/ZombieGame.sol\":674:681  zombies */\n      0x03\n        /* \"contracts/ZombieGame.sol\":687:764  zombieDetails(Plan ,name ,dna ,level ,xp ,TotalMatch, MatchLeft,Wins ,Looses) */\n      mload(0x40)\n      dup1\n      0x0120\n      add\n      0x40\n      mstore\n      dup1\n        /* \"contracts/ZombieGame.sol\":701:705  Plan */\n      dup12\n        /* \"contracts/ZombieGame.sol\":687:764  zombieDetails(Plan ,name ,dna ,level ,xp ,TotalMatch, MatchLeft,Wins ,Looses) */\n      dup2\n      mstore\n      0x20\n      add\n        /* \"contracts/ZombieGame.sol\":707:711  name */\n      dup11\n        /* \"contracts/ZombieGame.sol\":687:764  zombieDetails(Plan ,name ,dna ,level ,xp ,TotalMatch, MatchLeft,Wins ,Looses) */\n      dup2\n      mstore\n      0x20\n      add\n        /* \"contracts/ZombieGame.sol\":713:716  dna */\n      dup10\n        /* \"contracts/ZombieGame.sol\":687:764  zombieDetails(Plan ,name ,dna ,level ,xp ,TotalMatch, MatchLeft,Wins ,Looses) */\n      dup2\n      mstore\n      0x20\n      add\n        /* \"contracts/ZombieGame.sol\":718:723  level */\n      dup9\n        /* \"contracts/ZombieGame.sol\":687:764  zombieDetails(Plan ,name ,dna ,level ,xp ,TotalMatch, MatchLeft,Wins ,Looses) */\n      dup2\n      mstore\n      0x20\n      add\n        /* \"contracts/ZombieGame.sol\":725:727  xp */\n      dup8\n        /* \"contracts/ZombieGame.sol\":687:764  zombieDetails(Plan ,name ,dna ,level ,xp ,TotalMatch, MatchLeft,Wins ,Looses) */\n      dup2\n      mstore\n      0x20\n      add\n        /* \"contracts/ZombieGame.sol\":729:739  TotalMatch */\n      dup7\n        /* \"contracts/ZombieGame.sol\":687:764  zombieDetails(Plan ,name ,dna ,level ,xp ,TotalMatch, MatchLeft,Wins ,Looses) */\n      dup2\n      mstore\n      0x20\n      add\n        /* \"contracts/ZombieGame.sol\":741:750  MatchLeft */\n      dup6\n        /* \"contracts/ZombieGame.sol\":687:764  zombieDetails(Plan ,name ,dna ,level ,xp ,TotalMatch, MatchLeft,Wins ,Looses) */\n      dup2\n      mstore\n      0x20\n      add\n        /* \"contracts/ZombieGame.sol\":751:755  Wins */\n      dup5\n        /* \"contracts/ZombieGame.sol\":687:764  zombieDetails(Plan ,name ,dna ,level ,xp ,TotalMatch, MatchLeft,Wins ,Looses) */\n      dup2\n      mstore\n      0x20\n      add\n        /* \"contracts/ZombieGame.sol\":757:763  Looses */\n      dup4\n        /* \"contracts/ZombieGame.sol\":687:764  zombieDetails(Plan ,name ,dna ,level ,xp ,TotalMatch, MatchLeft,Wins ,Looses) */\n      dup2\n      mstore\n      pop\n        /* \"contracts/ZombieGame.sol\":674:765  zombies.push(zombieDetails(Plan ,name ,dna ,level ,xp ,TotalMatch, MatchLeft,Wins ,Looses)) */\n      swap1\n      dup1\n      0x01\n      dup2\n      sload\n      add\n      dup1\n      dup3\n      sstore\n      dup1\n      swap2\n      pop\n      pop\n      0x01\n      swap1\n      sub\n      swap1\n      0x00\n      mstore\n      keccak256(0x00, 0x20)\n      swap1\n      0x09\n      mul\n      add\n      0x00\n      swap1\n      swap2\n      swap1\n      swap2\n      swap1\n      swap2\n      pop\n      0x00\n      dup3\n      add\n      mload\n      dup2\n      0x00\n      add\n      swap1\n      dup2\n      tag_133\n      swap2\n      swap1\n      tag_134\n      jump\t// in\n    tag_133:\n      pop\n      0x20\n      dup3\n      add\n      mload\n      dup2\n      0x01\n      add\n      swap1\n      dup2\n      tag_135\n      swap2\n      swap1\n      tag_134\n      jump\t// in\n    tag_135:\n      pop\n      0x40\n      dup3\n      add\n      mload\n      dup2\n      0x02\n      add\n      sstore\n      0x60\n      dup3\n      add\n      mload\n      dup2\n      0x03\n      add\n      sstore\n      0x80\n      dup3\n      add\n      mload\n      dup2\n      0x04\n      add\n      sstore\n      0xa0\n      dup3\n      add\n      mload\n      dup2\n      0x05\n      add\n      sstore\n      0xc0\n      dup3\n      add\n      mload\n      dup2\n      0x06\n      add\n      sstore\n      0xe0\n      dup3\n      add\n      mload\n      dup2\n      0x07\n      add\n      sstore\n      0x0100\n      dup3\n      add\n      mload\n      dup2\n      0x08\n      add\n      sstore\n      pop\n      pop\n        /* \"contracts/ZombieGame.sol\":776:793  uint currentIndex */\n      0x00\n        /* \"contracts/ZombieGame.sol\":812:813  1 */\n      0x01\n        /* \"contracts/ZombieGame.sol\":796:803  zombies */\n      0x03\n        /* \"contracts/ZombieGame.sol\":796:810  zombies.length */\n      dup1\n      sload\n      swap1\n      pop\n        /* \"contracts/ZombieGame.sol\":796:813  zombies.length -1 */\n      tag_136\n      swap2\n      swap1\n      tag_137\n      jump\t// in\n    tag_136:\n        /* \"contracts/ZombieGame.sol\":776:813  uint currentIndex = zombies.length -1 */\n      swap1\n      pop\n        /* \"contracts/ZombieGame.sol\":824:835  ZombieCount */\n      0x01\n        /* \"contracts/ZombieGame.sol\":824:847  ZombieCount[msg.sender] */\n      0x00\n        /* \"contracts/ZombieGame.sol\":836:846  msg.sender */\n      caller\n        /* \"contracts/ZombieGame.sol\":824:847  ZombieCount[msg.sender] */\n      0xffffffffffffffffffffffffffffffffffffffff\n      and\n      0xffffffffffffffffffffffffffffffffffffffff\n      and\n      dup2\n      mstore\n      0x20\n      add\n      swap1\n      dup2\n      mstore\n      0x20\n      add\n      0x00\n      keccak256\n      0x00\n        /* \"contracts/ZombieGame.sol\":824:849  ZombieCount[msg.sender]++ */\n      dup2\n      sload\n      dup1\n      swap3\n      swap2\n      swap1\n      tag_138\n      swap1\n      tag_46\n      jump\t// in\n    tag_138:\n      swap2\n      swap1\n      pop\n      sstore\n      pop\n        /* \"contracts/ZombieGame.sol\":888:898  msg.sender */\n      caller\n        /* \"contracts/ZombieGame.sol\":860:871  ZombieOwner */\n      0x00\n        /* \"contracts/ZombieGame.sol\":860:885  ZombieOwner[currentIndex] */\n      dup1\n        /* \"contracts/ZombieGame.sol\":872:884  currentIndex */\n      dup4\n        /* \"contracts/ZombieGame.sol\":860:885  ZombieOwner[currentIndex] */\n      dup2\n      mstore\n      0x20\n      add\n      swap1\n      dup2\n      mstore\n      0x20\n      add\n      0x00\n      keccak256\n      0x00\n        /* \"contracts/ZombieGame.sol\":860:898  ZombieOwner[currentIndex] = msg.sender */\n      0x0100\n      exp\n      dup2\n      sload\n      dup2\n      0xffffffffffffffffffffffffffffffffffffffff\n      mul\n      not\n      and\n      swap1\n      dup4\n      0xffffffffffffffffffffffffffffffffffffffff\n      and\n      mul\n      or\n      swap1\n      sstore\n      pop\n        /* \"contracts/ZombieGame.sol\":663:906  {... */\n      pop\n        /* \"contracts/ZombieGame.sol\":504:906  function createZombie(string memory Plan, string memory name, uint dna, uint level, uint xp, uint TotalMatch, uint MatchLeft, uint Wins, uint Looses) internal {... */\n      pop\n      pop\n      pop\n      pop\n      pop\n      pop\n      pop\n      pop\n      pop\n      jump\t// out\n        /* \"#utility.yul\":7:82   */\n    tag_139:\n        /* \"#utility.yul\":40:46   */\n      0x00\n        /* \"#utility.yul\":73:75   */\n      0x40\n        /* \"#utility.yul\":67:76   */\n      mload\n        /* \"#utility.yul\":57:76   */\n      swap1\n      pop\n        /* \"#utility.yul\":7:82   */\n      swap1\n      jump\t// out\n        /* \"#utility.yul\":88:205   */\n    tag_140:\n        /* \"#utility.yul\":197:198   */\n      0x00\n        /* \"#utility.yul\":194:195   */\n      dup1\n        /* \"#utility.yul\":187:199   */\n      revert\n        /* \"#utility.yul\":211:328   */\n    tag_141:\n        /* \"#utility.yul\":320:321   */\n      0x00\n        /* \"#utility.yul\":317:318   */\n      dup1\n        /* \"#utility.yul\":310:322   */\n      revert\n        /* \"#utility.yul\":334:460   */\n    tag_142:\n        /* \"#utility.yul\":371:378   */\n      0x00\n        /* \"#utility.yul\":411:453   */\n      0xffffffffffffffffffffffffffffffffffffffff\n        /* \"#utility.yul\":404:409   */\n      dup3\n        /* \"#utility.yul\":400:454   */\n      and\n        /* \"#utility.yul\":389:454   */\n      swap1\n      pop\n        /* \"#utility.yul\":334:460   */\n      swap2\n      swap1\n      pop\n      jump\t// out\n        /* \"#utility.yul\":466:562   */\n    tag_143:\n        /* \"#utility.yul\":503:510   */\n      0x00\n        /* \"#utility.yul\":532:556   */\n      tag_202\n        /* \"#utility.yul\":550:555   */\n      dup3\n        /* \"#utility.yul\":532:556   */\n      tag_142\n      jump\t// in\n    tag_202:\n        /* \"#utility.yul\":521:556   */\n      swap1\n      pop\n        /* \"#utility.yul\":466:562   */\n      swap2\n      swap1\n      pop\n      jump\t// out\n        /* \"#utility.yul\":568:690   */\n    tag_144:\n        /* \"#utility.yul\":641:665   */\n      tag_204\n        /* \"#utility.yul\":659:664   */\n      dup2\n        /* \"#utility.yul\":641:665   */\n      tag_143\n      jump\t// in\n    tag_204:\n        /* \"#utility.yul\":634:639   */\n      dup2\n        /* \"#utility.yul\":631:666   */\n      eq\n        /* \"#utility.yul\":621:684   */\n      tag_205\n      jumpi\n        /* \"#utility.yul\":680:681   */\n      0x00\n        /* \"#utility.yul\":677:678   */\n      dup1\n        /* \"#utility.yul\":670:682   */\n      revert\n        /* \"#utility.yul\":621:684   */\n    tag_205:\n        /* \"#utility.yul\":568:690   */\n      pop\n      jump\t// out\n        /* \"#utility.yul\":696:835   */\n    tag_145:\n        /* \"#utility.yul\":742:747   */\n      0x00\n        /* \"#utility.yul\":780:786   */\n      dup2\n        /* \"#utility.yul\":767:787   */\n      calldataload\n        /* \"#utility.yul\":758:787   */\n      swap1\n      pop\n        /* \"#utility.yul\":796:829   */\n      tag_207\n        /* \"#utility.yul\":823:828   */\n      dup2\n        /* \"#utility.yul\":796:829   */\n      tag_144\n      jump\t// in\n    tag_207:\n        /* \"#utility.yul\":696:835   */\n      swap3\n      swap2\n      pop\n      pop\n      jump\t// out\n        /* \"#utility.yul\":841:1170   */\n    tag_11:\n        /* \"#utility.yul\":900:906   */\n      0x00\n        /* \"#utility.yul\":949:951   */\n      0x20\n        /* \"#utility.yul\":937:946   */\n      dup3\n        /* \"#utility.yul\":928:935   */\n      dup5\n        /* \"#utility.yul\":924:947   */\n      sub\n        /* \"#utility.yul\":920:952   */\n      slt\n        /* \"#utility.yul\":917:1036   */\n      iszero\n      tag_209\n      jumpi\n        /* \"#utility.yul\":955:1034   */\n      tag_210\n      tag_140\n      jump\t// in\n    tag_210:\n        /* \"#utility.yul\":917:1036   */\n    tag_209:\n        /* \"#utility.yul\":1075:1076   */\n      0x00\n        /* \"#utility.yul\":1100:1153   */\n      tag_211\n        /* \"#utility.yul\":1145:1152   */\n      dup5\n        /* \"#utility.yul\":1136:1142   */\n      dup3\n        /* \"#utility.yul\":1125:1134   */\n      dup6\n        /* \"#utility.yul\":1121:1143   */\n      add\n        /* \"#utility.yul\":1100:1153   */\n      tag_145\n      jump\t// in\n    tag_211:\n        /* \"#utility.yul\":1090:1153   */\n      swap2\n      pop\n        /* \"#utility.yul\":1046:1163   */\n      pop\n        /* \"#utility.yul\":841:1170   */\n      swap3\n      swap2\n      pop\n      pop\n      jump\t// out\n        /* \"#utility.yul\":1176:1290   */\n    tag_146:\n        /* \"#utility.yul\":1243:1249   */\n      0x00\n        /* \"#utility.yul\":1277:1282   */\n      dup2\n        /* \"#utility.yul\":1271:1283   */\n      mload\n        /* \"#utility.yul\":1261:1283   */\n      swap1\n      pop\n        /* \"#utility.yul\":1176:1290   */\n      swap2\n      swap1\n      pop\n      jump\t// out\n        /* \"#utility.yul\":1296:1480   */\n    tag_147:\n        /* \"#utility.yul\":1395:1406   */\n      0x00\n        /* \"#utility.yul\":1429:1435   */\n      dup3\n        /* \"#utility.yul\":1424:1427   */\n      dup3\n        /* \"#utility.yul\":1417:1436   */\n      mstore\n        /* \"#utility.yul\":1469:1473   */\n      0x20\n        /* \"#utility.yul\":1464:1467   */\n      dup3\n        /* \"#utility.yul\":1460:1474   */\n      add\n        /* \"#utility.yul\":1445:1474   */\n      swap1\n      pop\n        /* \"#utility.yul\":1296:1480   */\n      swap3\n      swap2\n      pop\n      pop\n      jump\t// out\n        /* \"#utility.yul\":1486:1618   */\n    tag_148:\n        /* \"#utility.yul\":1553:1557   */\n      0x00\n        /* \"#utility.yul\":1576:1579   */\n      dup2\n        /* \"#utility.yul\":1568:1579   */\n      swap1\n      pop\n        /* \"#utility.yul\":1606:1610   */\n      0x20\n        /* \"#utility.yul\":1601:1604   */\n      dup3\n        /* \"#utility.yul\":1597:1611   */\n      add\n        /* \"#utility.yul\":1589:1611   */\n      swap1\n      pop\n        /* \"#utility.yul\":1486:1618   */\n      swap2\n      swap1\n      pop\n      jump\t// out\n        /* \"#utility.yul\":1624:1701   */\n    tag_149:\n        /* \"#utility.yul\":1661:1668   */\n      0x00\n        /* \"#utility.yul\":1690:1695   */\n      dup2\n        /* \"#utility.yul\":1679:1695   */\n      swap1\n      pop\n        /* \"#utility.yul\":1624:1701   */\n      swap2\n      swap1\n      pop\n      jump\t// out\n        /* \"#utility.yul\":1707:1815   */\n    tag_150:\n        /* \"#utility.yul\":1784:1808   */\n      tag_217\n        /* \"#utility.yul\":1802:1807   */\n      dup2\n        /* \"#utility.yul\":1784:1808   */\n      tag_149\n      jump\t// in\n    tag_217:\n        /* \"#utility.yul\":1779:1782   */\n      dup3\n        /* \"#utility.yul\":1772:1809   */\n      mstore\n        /* \"#utility.yul\":1707:1815   */\n      pop\n      pop\n      jump\t// out\n        /* \"#utility.yul\":1821:2000   */\n    tag_151:\n        /* \"#utility.yul\":1890:1900   */\n      0x00\n        /* \"#utility.yul\":1911:1957   */\n      tag_219\n        /* \"#utility.yul\":1953:1956   */\n      dup4\n        /* \"#utility.yul\":1945:1951   */\n      dup4\n        /* \"#utility.yul\":1911:1957   */\n      tag_150\n      jump\t// in\n    tag_219:\n        /* \"#utility.yul\":1989:1993   */\n      0x20\n        /* \"#utility.yul\":1984:1987   */\n      dup4\n        /* \"#utility.yul\":1980:1994   */\n      add\n        /* \"#utility.yul\":1966:1994   */\n      swap1\n      pop\n        /* \"#utility.yul\":1821:2000   */\n      swap3\n      swap2\n      pop\n      pop\n      jump\t// out\n        /* \"#utility.yul\":2006:2119   */\n    tag_152:\n        /* \"#utility.yul\":2076:2080   */\n      0x00\n        /* \"#utility.yul\":2108:2112   */\n      0x20\n        /* \"#utility.yul\":2103:2106   */\n      dup3\n        /* \"#utility.yul\":2099:2113   */\n      add\n        /* \"#utility.yul\":2091:2113   */\n      swap1\n      pop\n        /* \"#utility.yul\":2006:2119   */\n      swap2\n      swap1\n      pop\n      jump\t// out\n        /* \"#utility.yul\":2155:2887   */\n    tag_153:\n        /* \"#utility.yul\":2274:2277   */\n      0x00\n        /* \"#utility.yul\":2303:2357   */\n      tag_222\n        /* \"#utility.yul\":2351:2356   */\n      dup3\n        /* \"#utility.yul\":2303:2357   */\n      tag_146\n      jump\t// in\n    tag_222:\n        /* \"#utility.yul\":2373:2459   */\n      tag_223\n        /* \"#utility.yul\":2452:2458   */\n      dup2\n        /* \"#utility.yul\":2447:2450   */\n      dup6\n        /* \"#utility.yul\":2373:2459   */\n      tag_147\n      jump\t// in\n    tag_223:\n        /* \"#utility.yul\":2366:2459   */\n      swap4\n      pop\n        /* \"#utility.yul\":2483:2539   */\n      tag_224\n        /* \"#utility.yul\":2533:2538   */\n      dup4\n        /* \"#utility.yul\":2483:2539   */\n      tag_148\n      jump\t// in\n    tag_224:\n        /* \"#utility.yul\":2562:2569   */\n      dup1\n        /* \"#utility.yul\":2593:2594   */\n      0x00\n        /* \"#utility.yul\":2578:2862   */\n    tag_225:\n        /* \"#utility.yul\":2603:2609   */\n      dup4\n        /* \"#utility.yul\":2600:2601   */\n      dup2\n        /* \"#utility.yul\":2597:2610   */\n      lt\n        /* \"#utility.yul\":2578:2862   */\n      iszero\n      tag_227\n      jumpi\n        /* \"#utility.yul\":2679:2685   */\n      dup2\n        /* \"#utility.yul\":2673:2686   */\n      mload\n        /* \"#utility.yul\":2706:2769   */\n      tag_228\n        /* \"#utility.yul\":2765:2768   */\n      dup9\n        /* \"#utility.yul\":2750:2763   */\n      dup3\n        /* \"#utility.yul\":2706:2769   */\n      tag_151\n      jump\t// in\n    tag_228:\n        /* \"#utility.yul\":2699:2769   */\n      swap8\n      pop\n        /* \"#utility.yul\":2792:2852   */\n      tag_229\n        /* \"#utility.yul\":2845:2851   */\n      dup4\n        /* \"#utility.yul\":2792:2852   */\n      tag_152\n      jump\t// in\n    tag_229:\n        /* \"#utility.yul\":2782:2852   */\n      swap3\n      pop\n        /* \"#utility.yul\":2638:2862   */\n      pop\n        /* \"#utility.yul\":2625:2626   */\n      0x01\n        /* \"#utility.yul\":2622:2623   */\n      dup2\n        /* \"#utility.yul\":2618:2627   */\n      add\n        /* \"#utility.yul\":2613:2627   */\n      swap1\n      pop\n        /* \"#utility.yul\":2578:2862   */\n      jump(tag_225)\n    tag_227:\n        /* \"#utility.yul\":2582:2596   */\n      pop\n        /* \"#utility.yul\":2878:2881   */\n      dup6\n        /* \"#utility.yul\":2871:2881   */\n      swap4\n      pop\n        /* \"#utility.yul\":2279:2887   */\n      pop\n      pop\n      pop\n        /* \"#utility.yul\":2155:2887   */\n      swap3\n      swap2\n      pop\n      pop\n      jump\t// out\n        /* \"#utility.yul\":2893:3266   */\n    tag_14:\n        /* \"#utility.yul\":3036:3040   */\n      0x00\n        /* \"#utility.yul\":3074:3076   */\n      0x20\n        /* \"#utility.yul\":3063:3072   */\n      dup3\n        /* \"#utility.yul\":3059:3077   */\n      add\n        /* \"#utility.yul\":3051:3077   */\n      swap1\n      pop\n        /* \"#utility.yul\":3123:3132   */\n      dup2\n        /* \"#utility.yul\":3117:3121   */\n      dup2\n        /* \"#utility.yul\":3113:3133   */\n      sub\n        /* \"#utility.yul\":3109:3110   */\n      0x00\n        /* \"#utility.yul\":3098:3107   */\n      dup4\n        /* \"#utility.yul\":3094:3111   */\n      add\n        /* \"#utility.yul\":3087:3134   */\n      mstore\n        /* \"#utility.yul\":3151:3259   */\n      tag_231\n        /* \"#utility.yul\":3254:3258   */\n      dup2\n        /* \"#utility.yul\":3245:3251   */\n      dup5\n        /* \"#utility.yul\":3151:3259   */\n      tag_153\n      jump\t// in\n    tag_231:\n        /* \"#utility.yul\":3143:3259   */\n      swap1\n      pop\n        /* \"#utility.yul\":2893:3266   */\n      swap3\n      swap2\n      pop\n      pop\n      jump\t// out\n        /* \"#utility.yul\":3272:3394   */\n    tag_154:\n        /* \"#utility.yul\":3345:3369   */\n      tag_233\n        /* \"#utility.yul\":3363:3368   */\n      dup2\n        /* \"#utility.yul\":3345:3369   */\n      tag_149\n      jump\t// in\n    tag_233:\n        /* \"#utility.yul\":3338:3343   */\n      dup2\n        /* \"#utility.yul\":3335:3370   */\n      eq\n        /* \"#utility.yul\":3325:3388   */\n      tag_234\n      jumpi\n        /* \"#utility.yul\":3384:3385   */\n      0x00\n        /* \"#utility.yul\":3381:3382   */\n      dup1\n        /* \"#utility.yul\":3374:3386   */\n      revert\n        /* \"#utility.yul\":3325:3388   */\n    tag_234:\n        /* \"#utility.yul\":3272:3394   */\n      pop\n      jump\t// out\n        /* \"#utility.yul\":3400:3539   */\n    tag_155:\n        /* \"#utility.yul\":3446:3451   */\n      0x00\n        /* \"#utility.yul\":3484:3490   */\n      dup2\n        /* \"#utility.yul\":3471:3491   */\n      calldataload\n        /* \"#utility.yul\":3462:3491   */\n      swap1\n      pop\n        /* \"#utility.yul\":3500:3533   */\n      tag_236\n        /* \"#utility.yul\":3527:3532   */\n      dup2\n        /* \"#utility.yul\":3500:3533   */\n      tag_154\n      jump\t// in\n    tag_236:\n        /* \"#utility.yul\":3400:3539   */\n      swap3\n      swap2\n      pop\n      pop\n      jump\t// out\n        /* \"#utility.yul\":3545:3874   */\n    tag_17:\n        /* \"#utility.yul\":3604:3610   */\n      0x00\n        /* \"#utility.yul\":3653:3655   */\n      0x20\n        /* \"#utility.yul\":3641:3650   */\n      dup3\n        /* \"#utility.yul\":3632:3639   */\n      dup5\n        /* \"#utility.yul\":3628:3651   */\n      sub\n        /* \"#utility.yul\":3624:3656   */\n      slt\n        /* \"#utility.yul\":3621:3740   */\n      iszero\n      tag_238\n      jumpi\n        /* \"#utility.yul\":3659:3738   */\n      tag_239\n      tag_140\n      jump\t// in\n    tag_239:\n        /* \"#utility.yul\":3621:3740   */\n    tag_238:\n        /* \"#utility.yul\":3779:3780   */\n      0x00\n        /* \"#utility.yul\":3804:3857   */\n      tag_240\n        /* \"#utility.yul\":3849:3856   */\n      dup5\n        /* \"#utility.yul\":3840:3846   */\n      dup3\n        /* \"#utility.yul\":3829:3838   */\n      dup6\n        /* \"#utility.yul\":3825:3847   */\n      add\n        /* \"#utility.yul\":3804:3857   */\n      tag_155\n      jump\t// in\n    tag_240:\n        /* \"#utility.yul\":3794:3857   */\n      swap2\n      pop\n        /* \"#utility.yul\":3750:3867   */\n      pop\n        /* \"#utility.yul\":3545:3874   */\n      swap3\n      swap2\n      pop\n      pop\n      jump\t// out\n        /* \"#utility.yul\":3880:3979   */\n    tag_156:\n        /* \"#utility.yul\":3932:3938   */\n      0x00\n        /* \"#utility.yul\":3966:3971   */\n      dup2\n        /* \"#utility.yul\":3960:3972   */\n      mload\n        /* \"#utility.yul\":3950:3972   */\n      swap1\n      pop\n        /* \"#utility.yul\":3880:3979   */\n      swap2\n      swap1\n      pop\n      jump\t// out\n        /* \"#utility.yul\":3985:4154   */\n    tag_157:\n        /* \"#utility.yul\":4069:4080   */\n      0x00\n        /* \"#utility.yul\":4103:4109   */\n      dup3\n        /* \"#utility.yul\":4098:4101   */\n      dup3\n        /* \"#utility.yul\":4091:4110   */\n      mstore\n        /* \"#utility.yul\":4143:4147   */\n      0x20\n        /* \"#utility.yul\":4138:4141   */\n      dup3\n        /* \"#utility.yul\":4134:4148   */\n      add\n        /* \"#utility.yul\":4119:4148   */\n      swap1\n      pop\n        /* \"#utility.yul\":3985:4154   */\n      swap3\n      swap2\n      pop\n      pop\n      jump\t// out\n        /* \"#utility.yul\":4160:4406   */\n    tag_158:\n        /* \"#utility.yul\":4241:4242   */\n      0x00\n        /* \"#utility.yul\":4251:4364   */\n    tag_244:\n        /* \"#utility.yul\":4265:4271   */\n      dup4\n        /* \"#utility.yul\":4262:4263   */\n      dup2\n        /* \"#utility.yul\":4259:4272   */\n      lt\n        /* \"#utility.yul\":4251:4364   */\n      iszero\n      tag_246\n      jumpi\n        /* \"#utility.yul\":4350:4351   */\n      dup1\n        /* \"#utility.yul\":4345:4348   */\n      dup3\n        /* \"#utility.yul\":4341:4352   */\n      add\n        /* \"#utility.yul\":4335:4353   */\n      mload\n        /* \"#utility.yul\":4331:4332   */\n      dup2\n        /* \"#utility.yul\":4326:4329   */\n      dup5\n        /* \"#utility.yul\":4322:4333   */\n      add\n        /* \"#utility.yul\":4315:4354   */\n      mstore\n        /* \"#utility.yul\":4287:4289   */\n      0x20\n        /* \"#utility.yul\":4284:4285   */\n      dup2\n        /* \"#utility.yul\":4280:4290   */\n      add\n        /* \"#utility.yul\":4275:4290   */\n      swap1\n      pop\n        /* \"#utility.yul\":4251:4364   */\n      jump(tag_244)\n    tag_246:\n        /* \"#utility.yul\":4398:4399   */\n      0x00\n        /* \"#utility.yul\":4389:4395   */\n      dup5\n        /* \"#utility.yul\":4384:4387   */\n      dup5\n        /* \"#utility.yul\":4380:4396   */\n      add\n        /* \"#utility.yul\":4373:4400   */\n      mstore\n        /* \"#utility.yul\":4222:4406   */\n      pop\n        /* \"#utility.yul\":4160:4406   */\n      pop\n      pop\n      pop\n      jump\t// out\n        /* \"#utility.yul\":4412:4514   */\n    tag_159:\n        /* \"#utility.yul\":4453:4459   */\n      0x00\n        /* \"#utility.yul\":4504:4506   */\n      0x1f\n        /* \"#utility.yul\":4500:4507   */\n      not\n        /* \"#utility.yul\":4495:4497   */\n      0x1f\n        /* \"#utility.yul\":4488:4493   */\n      dup4\n        /* \"#utility.yul\":4484:4498   */\n      add\n        /* \"#utility.yul\":4480:4508   */\n      and\n        /* \"#utility.yul\":4470:4508   */\n      swap1\n      pop\n        /* \"#utility.yul\":4412:4514   */\n      swap2\n      swap1\n      pop\n      jump\t// out\n        /* \"#utility.yul\":4520:4897   */\n    tag_160:\n        /* \"#utility.yul\":4608:4611   */\n      0x00\n        /* \"#utility.yul\":4636:4675   */\n      tag_249\n        /* \"#utility.yul\":4669:4674   */\n      dup3\n        /* \"#utility.yul\":4636:4675   */\n      tag_156\n      jump\t// in\n    tag_249:\n        /* \"#utility.yul\":4691:4762   */\n      tag_250\n        /* \"#utility.yul\":4755:4761   */\n      dup2\n        /* \"#utility.yul\":4750:4753   */\n      dup6\n        /* \"#utility.yul\":4691:4762   */\n      tag_157\n      jump\t// in\n    tag_250:\n        /* \"#utility.yul\":4684:4762   */\n      swap4\n      pop\n        /* \"#utility.yul\":4771:4836   */\n      tag_251\n        /* \"#utility.yul\":4829:4835   */\n      dup2\n        /* \"#utility.yul\":4824:4827   */\n      dup6\n        /* \"#utility.yul\":4817:4821   */\n      0x20\n        /* \"#utility.yul\":4810:4815   */\n      dup7\n        /* \"#utility.yul\":4806:4822   */\n      add\n        /* \"#utility.yul\":4771:4836   */\n      tag_158\n      jump\t// in\n    tag_251:\n        /* \"#utility.yul\":4861:4890   */\n      tag_252\n        /* \"#utility.yul\":4883:4889   */\n      dup2\n        /* \"#utility.yul\":4861:4890   */\n      tag_159\n      jump\t// in\n    tag_252:\n        /* \"#utility.yul\":4856:4859   */\n      dup5\n        /* \"#utility.yul\":4852:4891   */\n      add\n        /* \"#utility.yul\":4845:4891   */\n      swap2\n      pop\n        /* \"#utility.yul\":4612:4897   */\n      pop\n        /* \"#utility.yul\":4520:4897   */\n      swap3\n      swap2\n      pop\n      pop\n      jump\t// out\n        /* \"#utility.yul\":4903:5216   */\n    tag_23:\n        /* \"#utility.yul\":5016:5020   */\n      0x00\n        /* \"#utility.yul\":5054:5056   */\n      0x20\n        /* \"#utility.yul\":5043:5052   */\n      dup3\n        /* \"#utility.yul\":5039:5057   */\n      add\n        /* \"#utility.yul\":5031:5057   */\n      swap1\n      pop\n        /* \"#utility.yul\":5103:5112   */\n      dup2\n        /* \"#utility.yul\":5097:5101   */\n      dup2\n        /* \"#utility.yul\":5093:5113   */\n      sub\n        /* \"#utility.yul\":5089:5090   */\n      0x00\n        /* \"#utility.yul\":5078:5087   */\n      dup4\n        /* \"#utility.yul\":5074:5091   */\n      add\n        /* \"#utility.yul\":5067:5114   */\n      mstore\n        /* \"#utility.yul\":5131:5209   */\n      tag_254\n        /* \"#utility.yul\":5204:5208   */\n      dup2\n        /* \"#utility.yul\":5195:5201   */\n      dup5\n        /* \"#utility.yul\":5131:5209   */\n      tag_160\n      jump\t// in\n    tag_254:\n        /* \"#utility.yul\":5123:5209   */\n      swap1\n      pop\n        /* \"#utility.yul\":4903:5216   */\n      swap3\n      swap2\n      pop\n      pop\n      jump\t// out\n        /* \"#utility.yul\":5222:5339   */\n    tag_161:\n        /* \"#utility.yul\":5331:5332   */\n      0x00\n        /* \"#utility.yul\":5328:5329   */\n      dup1\n        /* \"#utility.yul\":5321:5333   */\n      revert\n        /* \"#utility.yul\":5345:5462   */\n    tag_162:\n        /* \"#utility.yul\":5454:5455   */\n      0x00\n        /* \"#utility.yul\":5451:5452   */\n      dup1\n        /* \"#utility.yul\":5444:5456   */\n      revert\n        /* \"#utility.yul\":5468:5648   */\n    tag_36:\n        /* \"#utility.yul\":5516:5593   */\n      0x4e487b7100000000000000000000000000000000000000000000000000000000\n        /* \"#utility.yul\":5513:5514   */\n      0x00\n        /* \"#utility.yul\":5506:5594   */\n      mstore\n        /* \"#utility.yul\":5613:5617   */\n      0x41\n        /* \"#utility.yul\":5610:5611   */\n      0x04\n        /* \"#utility.yul\":5603:5618   */\n      mstore\n        /* \"#utility.yul\":5637:5641   */\n      0x24\n        /* \"#utility.yul\":5634:5635   */\n      0x00\n        /* \"#utility.yul\":5627:5642   */\n      revert\n        /* \"#utility.yul\":5654:5935   */\n    tag_163:\n        /* \"#utility.yul\":5737:5764   */\n      tag_259\n        /* \"#utility.yul\":5759:5763   */\n      dup3\n        /* \"#utility.yul\":5737:5764   */\n      tag_159\n      jump\t// in\n    tag_259:\n        /* \"#utility.yul\":5729:5735   */\n      dup2\n        /* \"#utility.yul\":5725:5765   */\n      add\n        /* \"#utility.yul\":5867:5873   */\n      dup2\n        /* \"#utility.yul\":5855:5865   */\n      dup2\n        /* \"#utility.yul\":5852:5874   */\n      lt\n        /* \"#utility.yul\":5831:5849   */\n      0xffffffffffffffff\n        /* \"#utility.yul\":5819:5829   */\n      dup3\n        /* \"#utility.yul\":5816:5850   */\n      gt\n        /* \"#utility.yul\":5813:5875   */\n      or\n        /* \"#utility.yul\":5810:5898   */\n      iszero\n      tag_260\n      jumpi\n        /* \"#utility.yul\":5878:5896   */\n      tag_261\n      tag_36\n      jump\t// in\n    tag_261:\n        /* \"#utility.yul\":5810:5898   */\n    tag_260:\n        /* \"#utility.yul\":5918:5928   */\n      dup1\n        /* \"#utility.yul\":5914:5916   */\n      0x40\n        /* \"#utility.yul\":5907:5929   */\n      mstore\n        /* \"#utility.yul\":5697:5935   */\n      pop\n        /* \"#utility.yul\":5654:5935   */\n      pop\n      pop\n      jump\t// out\n        /* \"#utility.yul\":5941:6070   */\n    tag_164:\n        /* \"#utility.yul\":5975:5981   */\n      0x00\n        /* \"#utility.yul\":6002:6022   */\n      tag_263\n      tag_139\n      jump\t// in\n    tag_263:\n        /* \"#utility.yul\":5992:6022   */\n      swap1\n      pop\n        /* \"#utility.yul\":6031:6064   */\n      tag_264\n        /* \"#utility.yul\":6059:6063   */\n      dup3\n        /* \"#utility.yul\":6051:6057   */\n      dup3\n        /* \"#utility.yul\":6031:6064   */\n      tag_163\n      jump\t// in\n    tag_264:\n        /* \"#utility.yul\":5941:6070   */\n      swap2\n      swap1\n      pop\n      jump\t// out\n        /* \"#utility.yul\":6076:6384   */\n    tag_165:\n        /* \"#utility.yul\":6138:6142   */\n      0x00\n        /* \"#utility.yul\":6228:6246   */\n      0xffffffffffffffff\n        /* \"#utility.yul\":6220:6226   */\n      dup3\n        /* \"#utility.yul\":6217:6247   */\n      gt\n        /* \"#utility.yul\":6214:6270   */\n      iszero\n      tag_266\n      jumpi\n        /* \"#utility.yul\":6250:6268   */\n      tag_267\n      tag_36\n      jump\t// in\n    tag_267:\n        /* \"#utility.yul\":6214:6270   */\n    tag_266:\n        /* \"#utility.yul\":6288:6317   */\n      tag_268\n        /* \"#utility.yul\":6310:6316   */\n      dup3\n        /* \"#utility.yul\":6288:6317   */\n      tag_159\n      jump\t// in\n    tag_268:\n        /* \"#utility.yul\":6280:6317   */\n      swap1\n      pop\n        /* \"#utility.yul\":6372:6376   */\n      0x20\n        /* \"#utility.yul\":6366:6370   */\n      dup2\n        /* \"#utility.yul\":6362:6377   */\n      add\n        /* \"#utility.yul\":6354:6377   */\n      swap1\n      pop\n        /* \"#utility.yul\":6076:6384   */\n      swap2\n      swap1\n      pop\n      jump\t// out\n        /* \"#utility.yul\":6390:6536   */\n    tag_166:\n        /* \"#utility.yul\":6487:6493   */\n      dup3\n        /* \"#utility.yul\":6482:6485   */\n      dup2\n        /* \"#utility.yul\":6477:6480   */\n      dup4\n        /* \"#utility.yul\":6464:6494   */\n      calldatacopy\n        /* \"#utility.yul\":6528:6529   */\n      0x00\n        /* \"#utility.yul\":6519:6525   */\n      dup4\n        /* \"#utility.yul\":6514:6517   */\n      dup4\n        /* \"#utility.yul\":6510:6526   */\n      add\n        /* \"#utility.yul\":6503:6530   */\n      mstore\n        /* \"#utility.yul\":6390:6536   */\n      pop\n      pop\n      pop\n      jump\t// out\n        /* \"#utility.yul\":6542:6967   */\n    tag_167:\n        /* \"#utility.yul\":6620:6625   */\n      0x00\n        /* \"#utility.yul\":6645:6711   */\n      tag_271\n        /* \"#utility.yul\":6661:6710   */\n      tag_272\n        /* \"#utility.yul\":6703:6709   */\n      dup5\n        /* \"#utility.yul\":6661:6710   */\n      tag_165\n      jump\t// in\n    tag_272:\n        /* \"#utility.yul\":6645:6711   */\n      tag_164\n      jump\t// in\n    tag_271:\n        /* \"#utility.yul\":6636:6711   */\n      swap1\n      pop\n        /* \"#utility.yul\":6734:6740   */\n      dup3\n        /* \"#utility.yul\":6727:6732   */\n      dup2\n        /* \"#utility.yul\":6720:6741   */\n      mstore\n        /* \"#utility.yul\":6772:6776   */\n      0x20\n        /* \"#utility.yul\":6765:6770   */\n      dup2\n        /* \"#utility.yul\":6761:6777   */\n      add\n        /* \"#utility.yul\":6810:6813   */\n      dup5\n        /* \"#utility.yul\":6801:6807   */\n      dup5\n        /* \"#utility.yul\":6796:6799   */\n      dup5\n        /* \"#utility.yul\":6792:6808   */\n      add\n        /* \"#utility.yul\":6789:6814   */\n      gt\n        /* \"#utility.yul\":6786:6898   */\n      iszero\n      tag_273\n      jumpi\n        /* \"#utility.yul\":6817:6896   */\n      tag_274\n      tag_162\n      jump\t// in\n    tag_274:\n        /* \"#utility.yul\":6786:6898   */\n    tag_273:\n        /* \"#utility.yul\":6907:6961   */\n      tag_275\n        /* \"#utility.yul\":6954:6960   */\n      dup5\n        /* \"#utility.yul\":6949:6952   */\n      dup3\n        /* \"#utility.yul\":6944:6947   */\n      dup6\n        /* \"#utility.yul\":6907:6961   */\n      tag_166\n      jump\t// in\n    tag_275:\n        /* \"#utility.yul\":6626:6967   */\n      pop\n        /* \"#utility.yul\":6542:6967   */\n      swap4\n      swap3\n      pop\n      pop\n      pop\n      jump\t// out\n        /* \"#utility.yul\":6987:7327   */\n    tag_168:\n        /* \"#utility.yul\":7043:7048   */\n      0x00\n        /* \"#utility.yul\":7092:7095   */\n      dup3\n        /* \"#utility.yul\":7085:7089   */\n      0x1f\n        /* \"#utility.yul\":7077:7083   */\n      dup4\n        /* \"#utility.yul\":7073:7090   */\n      add\n        /* \"#utility.yul\":7069:7096   */\n      slt\n        /* \"#utility.yul\":7059:7181   */\n      tag_277\n      jumpi\n        /* \"#utility.yul\":7100:7179   */\n      tag_278\n      tag_161\n      jump\t// in\n    tag_278:\n        /* \"#utility.yul\":7059:7181   */\n    tag_277:\n        /* \"#utility.yul\":7217:7223   */\n      dup2\n        /* \"#utility.yul\":7204:7224   */\n      calldataload\n        /* \"#utility.yul\":7242:7321   */\n      tag_279\n        /* \"#utility.yul\":7317:7320   */\n      dup5\n        /* \"#utility.yul\":7309:7315   */\n      dup3\n        /* \"#utility.yul\":7302:7306   */\n      0x20\n        /* \"#utility.yul\":7294:7300   */\n      dup7\n        /* \"#utility.yul\":7290:7307   */\n      add\n        /* \"#utility.yul\":7242:7321   */\n      tag_167\n      jump\t// in\n    tag_279:\n        /* \"#utility.yul\":7233:7321   */\n      swap2\n      pop\n        /* \"#utility.yul\":7049:7327   */\n      pop\n        /* \"#utility.yul\":6987:7327   */\n      swap3\n      swap2\n      pop\n      pop\n      jump\t// out\n        /* \"#utility.yul\":7333:8167   */\n    tag_28:\n        /* \"#utility.yul\":7421:7427   */\n      0x00\n        /* \"#utility.yul\":7429:7435   */\n      dup1\n        /* \"#utility.yul\":7478:7480   */\n      0x40\n        /* \"#utility.yul\":7466:7475   */\n      dup4\n        /* \"#utility.yul\":7457:7464   */\n      dup6\n        /* \"#utility.yul\":7453:7476   */\n      sub\n        /* \"#utility.yul\":7449:7481   */\n      slt\n        /* \"#utility.yul\":7446:7565   */\n      iszero\n      tag_281\n      jumpi\n        /* \"#utility.yul\":7484:7563   */\n      tag_282\n      tag_140\n      jump\t// in\n    tag_282:\n        /* \"#utility.yul\":7446:7565   */\n    tag_281:\n        /* \"#utility.yul\":7632:7633   */\n      0x00\n        /* \"#utility.yul\":7621:7630   */\n      dup4\n        /* \"#utility.yul\":7617:7634   */\n      add\n        /* \"#utility.yul\":7604:7635   */\n      calldataload\n        /* \"#utility.yul\":7662:7680   */\n      0xffffffffffffffff\n        /* \"#utility.yul\":7654:7660   */\n      dup2\n        /* \"#utility.yul\":7651:7681   */\n      gt\n        /* \"#utility.yul\":7648:7765   */\n      iszero\n      tag_283\n      jumpi\n        /* \"#utility.yul\":7684:7763   */\n      tag_284\n      tag_141\n      jump\t// in\n    tag_284:\n        /* \"#utility.yul\":7648:7765   */\n    tag_283:\n        /* \"#utility.yul\":7789:7852   */\n      tag_285\n        /* \"#utility.yul\":7844:7851   */\n      dup6\n        /* \"#utility.yul\":7835:7841   */\n      dup3\n        /* \"#utility.yul\":7824:7833   */\n      dup7\n        /* \"#utility.yul\":7820:7842   */\n      add\n        /* \"#utility.yul\":7789:7852   */\n      tag_168\n      jump\t// in\n    tag_285:\n        /* \"#utility.yul\":7779:7852   */\n      swap3\n      pop\n        /* \"#utility.yul\":7575:7862   */\n      pop\n        /* \"#utility.yul\":7929:7931   */\n      0x20\n        /* \"#utility.yul\":7918:7927   */\n      dup4\n        /* \"#utility.yul\":7914:7932   */\n      add\n        /* \"#utility.yul\":7901:7933   */\n      calldataload\n        /* \"#utility.yul\":7960:7978   */\n      0xffffffffffffffff\n        /* \"#utility.yul\":7952:7958   */\n      dup2\n        /* \"#utility.yul\":7949:7979   */\n      gt\n        /* \"#utility.yul\":7946:8063   */\n      iszero\n      tag_286\n      jumpi\n        /* \"#utility.yul\":7982:8061   */\n      tag_287\n      tag_141\n      jump\t// in\n    tag_287:\n        /* \"#utility.yul\":7946:8063   */\n    tag_286:\n        /* \"#utility.yul\":8087:8150   */\n      tag_288\n        /* \"#utility.yul\":8142:8149   */\n      dup6\n        /* \"#utility.yul\":8133:8139   */\n      dup3\n        /* \"#utility.yul\":8122:8131   */\n      dup7\n        /* \"#utility.yul\":8118:8140   */\n      add\n        /* \"#utility.yul\":8087:8150   */\n      tag_168\n      jump\t// in\n    tag_288:\n        /* \"#utility.yul\":8077:8150   */\n      swap2\n      pop\n        /* \"#utility.yul\":7872:8160   */\n      pop\n        /* \"#utility.yul\":7333:8167   */\n      swap3\n      pop\n      swap3\n      swap1\n      pop\n      jump\t// out\n        /* \"#utility.yul\":8173:8353   */\n    tag_44:\n        /* \"#utility.yul\":8221:8298   */\n      0x4e487b7100000000000000000000000000000000000000000000000000000000\n        /* \"#utility.yul\":8218:8219   */\n      0x00\n        /* \"#utility.yul\":8211:8299   */\n      mstore\n        /* \"#utility.yul\":8318:8322   */\n      0x32\n        /* \"#utility.yul\":8315:8316   */\n      0x04\n        /* \"#utility.yul\":8308:8323   */\n      mstore\n        /* \"#utility.yul\":8342:8346   */\n      0x24\n        /* \"#utility.yul\":8339:8340   */\n      0x00\n        /* \"#utility.yul\":8332:8347   */\n      revert\n        /* \"#utility.yul\":8359:8539   */\n    tag_169:\n        /* \"#utility.yul\":8407:8484   */\n      0x4e487b7100000000000000000000000000000000000000000000000000000000\n        /* \"#utility.yul\":8404:8405   */\n      0x00\n        /* \"#utility.yul\":8397:8485   */\n      mstore\n        /* \"#utility.yul\":8504:8508   */\n      0x11\n        /* \"#utility.yul\":8501:8502   */\n      0x04\n        /* \"#utility.yul\":8494:8509   */\n      mstore\n        /* \"#utility.yul\":8528:8532   */\n      0x24\n        /* \"#utility.yul\":8525:8526   */\n      0x00\n        /* \"#utility.yul\":8518:8533   */\n      revert\n        /* \"#utility.yul\":8545:8778   */\n    tag_46:\n        /* \"#utility.yul\":8584:8587   */\n      0x00\n        /* \"#utility.yul\":8607:8631   */\n      tag_292\n        /* \"#utility.yul\":8625:8630   */\n      dup3\n        /* \"#utility.yul\":8607:8631   */\n      tag_149\n      jump\t// in\n    tag_292:\n        /* \"#utility.yul\":8598:8631   */\n      swap2\n      pop\n        /* \"#utility.yul\":8653:8719   */\n      0xffffffffffffffffffffffffffffffffffffffffffffffffffffffffffffffff\n        /* \"#utility.yul\":8646:8651   */\n      dup3\n        /* \"#utility.yul\":8643:8720   */\n      sub\n        /* \"#utility.yul\":8640:8743   */\n      tag_293\n      jumpi\n        /* \"#utility.yul\":8723:8741   */\n      tag_294\n      tag_169\n      jump\t// in\n    tag_294:\n        /* \"#utility.yul\":8640:8743   */\n    tag_293:\n        /* \"#utility.yul\":8770:8771   */\n      0x01\n        /* \"#utility.yul\":8763:8768   */\n      dup3\n        /* \"#utility.yul\":8759:8772   */\n      add\n        /* \"#utility.yul\":8752:8772   */\n      swap1\n      pop\n        /* \"#utility.yul\":8545:8778   */\n      swap2\n      swap1\n      pop\n      jump\t// out\n        /* \"#utility.yul\":8784:8975   */\n    tag_66:\n        /* \"#utility.yul\":8824:8827   */\n      0x00\n        /* \"#utility.yul\":8843:8863   */\n      tag_296\n        /* \"#utility.yul\":8861:8862   */\n      dup3\n        /* \"#utility.yul\":8843:8863   */\n      tag_149\n      jump\t// in\n    tag_296:\n        /* \"#utility.yul\":8838:8863   */\n      swap2\n      pop\n        /* \"#utility.yul\":8877:8897   */\n      tag_297\n        /* \"#utility.yul\":8895:8896   */\n      dup4\n        /* \"#utility.yul\":8877:8897   */\n      tag_149\n      jump\t// in\n    tag_297:\n        /* \"#utility.yul\":8872:8897   */\n      swap3\n      pop\n        /* \"#utility.yul\":8920:8921   */\n      dup3\n        /* \"#utility.yul\":8917:8918   */\n      dup3\n        /* \"#utility.yul\":8913:8922   */\n      add\n        /* \"#utility.yul\":8906:8922   */\n      swap1\n      pop\n        /* \"#utility.yul\":8941:8944   */\n      dup1\n        /* \"#utility.yul\":8938:8939   */\n      dup3\n        /* \"#utility.yul\":8935:8945   */\n      gt\n        /* \"#utility.yul\":8932:8968   */\n      iszero\n      tag_298\n      jumpi\n        /* \"#utility.yul\":8948:8966   */\n      tag_299\n      tag_169\n      jump\t// in\n    tag_299:\n        /* \"#utility.yul\":8932:8968   */\n    tag_298:\n        /* \"#utility.yul\":8784:8975   */\n      swap3\n      swap2\n      pop\n      pop\n      jump\t// out\n        /* \"#utility.yul\":8981:9152   */\n    tag_82:\n        /* \"#utility.yul\":9020:9023   */\n      0x00\n        /* \"#utility.yul\":9043:9067   */\n      tag_301\n        /* \"#utility.yul\":9061:9066   */\n      dup3\n        /* \"#utility.yul\":9043:9067   */\n      tag_149\n      jump\t// in\n    tag_301:\n        /* \"#utility.yul\":9034:9067   */\n      swap2\n      pop\n        /* \"#utility.yul\":9089:9093   */\n      0x00\n        /* \"#utility.yul\":9082:9087   */\n      dup3\n        /* \"#utility.yul\":9079:9094   */\n      sub\n        /* \"#utility.yul\":9076:9117   */\n      tag_302\n      jumpi\n        /* \"#utility.yul\":9097:9115   */\n      tag_303\n      tag_169\n      jump\t// in\n    tag_303:\n        /* \"#utility.yul\":9076:9117   */\n    tag_302:\n        /* \"#utility.yul\":9144:9145   */\n      0x01\n        /* \"#utility.yul\":9137:9142   */\n      dup3\n        /* \"#utility.yul\":9133:9146   */\n      sub\n        /* \"#utility.yul\":9126:9146   */\n      swap1\n      pop\n        /* \"#utility.yul\":8981:9152   */\n      swap2\n      swap1\n      pop\n      jump\t// out\n        /* \"#utility.yul\":9158:9327   */\n    tag_170:\n        /* \"#utility.yul\":9298:9319   */\n      0x416c726561647920686176652031206e66742e00000000000000000000000000\n        /* \"#utility.yul\":9294:9295   */\n      0x00\n        /* \"#utility.yul\":9286:9292   */\n      dup3\n        /* \"#utility.yul\":9282:9296   */\n      add\n        /* \"#utility.yul\":9275:9320   */\n      mstore\n        /* \"#utility.yul\":9158:9327   */\n      pop\n      jump\t// out\n        /* \"#utility.yul\":9333:9699   */\n    tag_171:\n        /* \"#utility.yul\":9475:9478   */\n      0x00\n        /* \"#utility.yul\":9496:9563   */\n      tag_306\n        /* \"#utility.yul\":9560:9562   */\n      0x13\n        /* \"#utility.yul\":9555:9558   */\n      dup4\n        /* \"#utility.yul\":9496:9563   */\n      tag_157\n      jump\t// in\n    tag_306:\n        /* \"#utility.yul\":9489:9563   */\n      swap2\n      pop\n        /* \"#utility.yul\":9572:9665   */\n      tag_307\n        /* \"#utility.yul\":9661:9664   */\n      dup3\n        /* \"#utility.yul\":9572:9665   */\n      tag_170\n      jump\t// in\n    tag_307:\n        /* \"#utility.yul\":9690:9692   */\n      0x20\n        /* \"#utility.yul\":9685:9688   */\n      dup3\n        /* \"#utility.yul\":9681:9693   */\n      add\n        /* \"#utility.yul\":9674:9693   */\n      swap1\n      pop\n        /* \"#utility.yul\":9333:9699   */\n      swap2\n      swap1\n      pop\n      jump\t// out\n        /* \"#utility.yul\":9705:10124   */\n    tag_108:\n        /* \"#utility.yul\":9871:9875   */\n      0x00\n        /* \"#utility.yul\":9909:9911   */\n      0x20\n        /* \"#utility.yul\":9898:9907   */\n      dup3\n        /* \"#utility.yul\":9894:9912   */\n      add\n        /* \"#utility.yul\":9886:9912   */\n      swap1\n      pop\n        /* \"#utility.yul\":9958:9967   */\n      dup2\n        /* \"#utility.yul\":9952:9956   */\n      dup2\n        /* \"#utility.yul\":9948:9968   */\n      sub\n        /* \"#utility.yul\":9944:9945   */\n      0x00\n        /* \"#utility.yul\":9933:9942   */\n      dup4\n        /* \"#utility.yul\":9929:9946   */\n      add\n        /* \"#utility.yul\":9922:9969   */\n      mstore\n        /* \"#utility.yul\":9986:10117   */\n      tag_309\n        /* \"#utility.yul\":10112:10116   */\n      dup2\n        /* \"#utility.yul\":9986:10117   */\n      tag_171\n      jump\t// in\n    tag_309:\n        /* \"#utility.yul\":9978:10117   */\n      swap1\n      pop\n        /* \"#utility.yul\":9705:10124   */\n      swap2\n      swap1\n      pop\n      jump\t// out\n        /* \"#utility.yul\":10130:10296   */\n    tag_172:\n        /* \"#utility.yul\":10270:10288   */\n      0x436f7272656374205370656c6c696e6700000000000000000000000000000000\n        /* \"#utility.yul\":10266:10267   */\n      0x00\n        /* \"#utility.yul\":10258:10264   */\n      dup3\n        /* \"#utility.yul\":10254:10268   */\n      add\n        /* \"#utility.yul\":10247:10289   */\n      mstore\n        /* \"#utility.yul\":10130:10296   */\n      pop\n      jump\t// out\n        /* \"#utility.yul\":10302:10668   */\n    tag_173:\n        /* \"#utility.yul\":10444:10447   */\n      0x00\n        /* \"#utility.yul\":10465:10532   */\n      tag_312\n        /* \"#utility.yul\":10529:10531   */\n      0x10\n        /* \"#utility.yul\":10524:10527   */\n      dup4\n        /* \"#utility.yul\":10465:10532   */\n      tag_157\n      jump\t// in\n    tag_312:\n        /* \"#utility.yul\":10458:10532   */\n      swap2\n      pop\n        /* \"#utility.yul\":10541:10634   */\n      tag_313\n        /* \"#utility.yul\":10630:10633   */\n      dup3\n        /* \"#utility.yul\":10541:10634   */\n      tag_172\n      jump\t// in\n    tag_313:\n        /* \"#utility.yul\":10659:10661   */\n      0x20\n        /* \"#utility.yul\":10654:10657   */\n      dup3\n        /* \"#utility.yul\":10650:10662   */\n      add\n        /* \"#utility.yul\":10643:10662   */\n      swap1\n      pop\n        /* \"#utility.yul\":10302:10668   */\n      swap2\n      swap1\n      pop\n      jump\t// out\n        /* \"#utility.yul\":10674:11093   */\n    tag_117:\n        /* \"#utility.yul\":10840:10844   */\n      0x00\n        /* \"#utility.yul\":10878:10880   */\n      0x20\n        /* \"#utility.yul\":10867:10876   */\n      dup3\n        /* \"#utility.yul\":10863:10881   */\n      add\n        /* \"#utility.yul\":10855:10881   */\n      swap1\n      pop\n        /* \"#utility.yul\":10927:10936   */\n      dup2\n        /* \"#utility.yul\":10921:10925   */\n      dup2\n        /* \"#utility.yul\":10917:10937   */\n      sub\n        /* \"#utility.yul\":10913:10914   */\n      0x00\n        /* \"#utility.yul\":10902:10911   */\n      dup4\n        /* \"#utility.yul\":10898:10915   */\n      add\n        /* \"#utility.yul\":10891:10938   */\n      mstore\n        /* \"#utility.yul\":10955:11086   */\n      tag_315\n        /* \"#utility.yul\":11081:11085   */\n      dup2\n        /* \"#utility.yul\":10955:11086   */\n      tag_173\n      jump\t// in\n    tag_315:\n        /* \"#utility.yul\":10947:11086   */\n      swap1\n      pop\n        /* \"#utility.yul\":10674:11093   */\n      swap2\n      swap1\n      pop\n      jump\t// out\n        /* \"#utility.yul\":11099:11178   */\n    tag_174:\n        /* \"#utility.yul\":11138:11145   */\n      0x00\n        /* \"#utility.yul\":11167:11172   */\n      dup2\n        /* \"#utility.yul\":11156:11172   */\n      swap1\n      pop\n        /* \"#utility.yul\":11099:11178   */\n      swap2\n      swap1\n      pop\n      jump\t// out\n        /* \"#utility.yul\":11184:11341   */\n    tag_175:\n        /* \"#utility.yul\":11289:11334   */\n      tag_318\n        /* \"#utility.yul\":11309:11333   */\n      tag_319\n        /* \"#utility.yul\":11327:11332   */\n      dup3\n        /* \"#utility.yul\":11309:11333   */\n      tag_149\n      jump\t// in\n    tag_319:\n        /* \"#utility.yul\":11289:11334   */\n      tag_174\n      jump\t// in\n    tag_318:\n        /* \"#utility.yul\":11284:11287   */\n      dup3\n        /* \"#utility.yul\":11277:11335   */\n      mstore\n        /* \"#utility.yul\":11184:11341   */\n      pop\n      pop\n      jump\t// out\n        /* \"#utility.yul\":11347:11744   */\n    tag_124:\n        /* \"#utility.yul\":11487:11490   */\n      0x00\n        /* \"#utility.yul\":11502:11577   */\n      tag_321\n        /* \"#utility.yul\":11573:11576   */\n      dup3\n        /* \"#utility.yul\":11564:11570   */\n      dup6\n        /* \"#utility.yul\":11502:11577   */\n      tag_175\n      jump\t// in\n    tag_321:\n        /* \"#utility.yul\":11602:11604   */\n      0x20\n        /* \"#utility.yul\":11597:11600   */\n      dup3\n        /* \"#utility.yul\":11593:11605   */\n      add\n        /* \"#utility.yul\":11586:11605   */\n      swap2\n      pop\n        /* \"#utility.yul\":11615:11690   */\n      tag_322\n        /* \"#utility.yul\":11686:11689   */\n      dup3\n        /* \"#utility.yul\":11677:11683   */\n      dup5\n        /* \"#utility.yul\":11615:11690   */\n      tag_175\n      jump\t// in\n    tag_322:\n        /* \"#utility.yul\":11715:11717   */\n      0x20\n        /* \"#utility.yul\":11710:11713   */\n      dup3\n        /* \"#utility.yul\":11706:11718   */\n      add\n        /* \"#utility.yul\":11699:11718   */\n      swap2\n      pop\n        /* \"#utility.yul\":11735:11738   */\n      dup2\n        /* \"#utility.yul\":11728:11738   */\n      swap1\n      pop\n        /* \"#utility.yul\":11347:11744   */\n      swap4\n      swap3\n      pop\n      pop\n      pop\n      jump\t// out\n        /* \"#utility.yul\":11750:11930   */\n    tag_176:\n        /* \"#utility.yul\":11798:11875   */\n      0x4e487b7100000000000000000000000000000000000000000000000000000000\n        /* \"#utility.yul\":11795:11796   */\n      0x00\n        /* \"#utility.yul\":11788:11876   */\n      mstore\n        /* \"#utility.yul\":11895:11899   */\n      0x12\n        /* \"#utility.yul\":11892:11893   */\n      0x04\n        /* \"#utility.yul\":11885:11900   */\n      mstore\n        /* \"#utility.yul\":11919:11923   */\n      0x24\n        /* \"#utility.yul\":11916:11917   */\n      0x00\n        /* \"#utility.yul\":11909:11924   */\n      revert\n        /* \"#utility.yul\":11936:12112   */\n    tag_126:\n        /* \"#utility.yul\":11968:11969   */\n      0x00\n        /* \"#utility.yul\":11985:12005   */\n      tag_325\n        /* \"#utility.yul\":12003:12004   */\n      dup3\n        /* \"#utility.yul\":11985:12005   */\n      tag_149\n      jump\t// in\n    tag_325:\n        /* \"#utility.yul\":11980:12005   */\n      swap2\n      pop\n        /* \"#utility.yul\":12019:12039   */\n      tag_326\n        /* \"#utility.yul\":12037:12038   */\n      dup4\n        /* \"#utility.yul\":12019:12039   */\n      tag_149\n      jump\t// in\n    tag_326:\n        /* \"#utility.yul\":12014:12039   */\n      swap3\n      pop\n        /* \"#utility.yul\":12058:12059   */\n      dup3\n        /* \"#utility.yul\":12048:12083   */\n      tag_327\n      jumpi\n        /* \"#utility.yul\":12063:12081   */\n      tag_328\n      tag_176\n      jump\t// in\n    tag_328:\n        /* \"#utility.yul\":12048:12083   */\n    tag_327:\n        /* \"#utility.yul\":12104:12105   */\n      dup3\n        /* \"#utility.yul\":12101:12102   */\n      dup3\n        /* \"#utility.yul\":12097:12106   */\n      mod\n        /* \"#utility.yul\":12092:12106   */\n      swap1\n      pop\n        /* \"#utility.yul\":11936:12112   */\n      swap3\n      swap2\n      pop\n      pop\n      jump\t// out\n        /* \"#utility.yul\":12118:12266   */\n    tag_177:\n        /* \"#utility.yul\":12220:12231   */\n      0x00\n        /* \"#utility.yul\":12257:12260   */\n      dup2\n        /* \"#utility.yul\":12242:12260   */\n      swap1\n      pop\n        /* \"#utility.yul\":12118:12266   */\n      swap3\n      swap2\n      pop\n      pop\n      jump\t// out\n        /* \"#utility.yul\":12272:12662   */\n    tag_178:\n        /* \"#utility.yul\":12378:12381   */\n      0x00\n        /* \"#utility.yul\":12406:12445   */\n      tag_331\n        /* \"#utility.yul\":12439:12444   */\n      dup3\n        /* \"#utility.yul\":12406:12445   */\n      tag_156\n      jump\t// in\n    tag_331:\n        /* \"#utility.yul\":12461:12550   */\n      tag_332\n        /* \"#utility.yul\":12543:12549   */\n      dup2\n        /* \"#utility.yul\":12538:12541   */\n      dup6\n        /* \"#utility.yul\":12461:12550   */\n      tag_177\n      jump\t// in\n    tag_332:\n        /* \"#utility.yul\":12454:12550   */\n      swap4\n      pop\n        /* \"#utility.yul\":12559:12624   */\n      tag_333\n        /* \"#utility.yul\":12617:12623   */\n      dup2\n        /* \"#utility.yul\":12612:12615   */\n      dup6\n        /* \"#utility.yul\":12605:12609   */\n      0x20\n        /* \"#utility.yul\":12598:12603   */\n      dup7\n        /* \"#utility.yul\":12594:12610   */\n      add\n        /* \"#utility.yul\":12559:12624   */\n      tag_158\n      jump\t// in\n    tag_333:\n        /* \"#utility.yul\":12649:12655   */\n      dup1\n        /* \"#utility.yul\":12644:12647   */\n      dup5\n        /* \"#utility.yul\":12640:12656   */\n      add\n        /* \"#utility.yul\":12633:12656   */\n      swap2\n      pop\n        /* \"#utility.yul\":12382:12662   */\n      pop\n        /* \"#utility.yul\":12272:12662   */\n      swap3\n      swap2\n      pop\n      pop\n      jump\t// out\n        /* \"#utility.yul\":12668:12943   */\n    tag_129:\n        /* \"#utility.yul\":12800:12803   */\n      0x00\n        /* \"#utility.yul\":12822:12917   */\n      tag_335\n        /* \"#utility.yul\":12913:12916   */\n      dup3\n        /* \"#utility.yul\":12904:12910   */\n      dup5\n        /* \"#utility.yul\":12822:12917   */\n      tag_178\n      jump\t// in\n    tag_335:\n        /* \"#utility.yul\":12815:12917   */\n      swap2\n      pop\n        /* \"#utility.yul\":12934:12937   */\n      dup2\n        /* \"#utility.yul\":12927:12937   */\n      swap1\n      pop\n        /* \"#utility.yul\":12668:12943   */\n      swap3\n      swap2\n      pop\n      pop\n      jump\t// out\n        /* \"#utility.yul\":12949:13129   */\n    tag_179:\n        /* \"#utility.yul\":12997:13074   */\n      0x4e487b7100000000000000000000000000000000000000000000000000000000\n        /* \"#utility.yul\":12994:12995   */\n      0x00\n        /* \"#utility.yul\":12987:13075   */\n      mstore\n        /* \"#utility.yul\":13094:13098   */\n      0x22\n        /* \"#utility.yul\":13091:13092   */\n      0x04\n        /* \"#utility.yul\":13084:13099   */\n      mstore\n        /* \"#utility.yul\":13118:13122   */\n      0x24\n        /* \"#utility.yul\":13115:13116   */\n      0x00\n        /* \"#utility.yul\":13108:13123   */\n      revert\n        /* \"#utility.yul\":13135:13455   */\n    tag_180:\n        /* \"#utility.yul\":13179:13185   */\n      0x00\n        /* \"#utility.yul\":13216:13217   */\n      0x02\n        /* \"#utility.yul\":13210:13214   */\n      dup3\n        /* \"#utility.yul\":13206:13218   */\n      div\n        /* \"#utility.yul\":13196:13218   */\n      swap1\n      pop\n        /* \"#utility.yul\":13263:13264   */\n      0x01\n        /* \"#utility.yul\":13257:13261   */\n      dup3\n        /* \"#utility.yul\":13253:13265   */\n      and\n        /* \"#utility.yul\":13284:13302   */\n      dup1\n        /* \"#utility.yul\":13274:13355   */\n      tag_338\n      jumpi\n        /* \"#utility.yul\":13340:13344   */\n      0x7f\n        /* \"#utility.yul\":13332:13338   */\n      dup3\n        /* \"#utility.yul\":13328:13345   */\n      and\n        /* \"#utility.yul\":13318:13345   */\n      swap2\n      pop\n        /* \"#utility.yul\":13274:13355   */\n    tag_338:\n        /* \"#utility.yul\":13402:13404   */\n      0x20\n        /* \"#utility.yul\":13394:13400   */\n      dup3\n        /* \"#utility.yul\":13391:13405   */\n      lt\n        /* \"#utility.yul\":13371:13389   */\n      dup2\n        /* \"#utility.yul\":13368:13406   */\n      sub\n        /* \"#utility.yul\":13365:13449   */\n      tag_339\n      jumpi\n        /* \"#utility.yul\":13421:13439   */\n      tag_340\n      tag_179\n      jump\t// in\n    tag_340:\n        /* \"#utility.yul\":13365:13449   */\n    tag_339:\n        /* \"#utility.yul\":13186:13455   */\n      pop\n        /* \"#utility.yul\":13135:13455   */\n      swap2\n      swap1\n      pop\n      jump\t// out\n        /* \"#utility.yul\":13461:13602   */\n    tag_181:\n        /* \"#utility.yul\":13510:13514   */\n      0x00\n        /* \"#utility.yul\":13533:13536   */\n      dup2\n        /* \"#utility.yul\":13525:13536   */\n      swap1\n      pop\n        /* \"#utility.yul\":13556:13559   */\n      dup2\n        /* \"#utility.yul\":13553:13554   */\n      0x00\n        /* \"#utility.yul\":13546:13560   */\n      mstore\n        /* \"#utility.yul\":13590:13594   */\n      0x20\n        /* \"#utility.yul\":13587:13588   */\n      0x00\n        /* \"#utility.yul\":13577:13595   */\n      keccak256\n        /* \"#utility.yul\":13569:13595   */\n      swap1\n      pop\n        /* \"#utility.yul\":13461:13602   */\n      swap2\n      swap1\n      pop\n      jump\t// out\n        /* \"#utility.yul\":13608:13701   */\n    tag_182:\n        /* \"#utility.yul\":13645:13651   */\n      0x00\n        /* \"#utility.yul\":13692:13694   */\n      0x20\n        /* \"#utility.yul\":13687:13689   */\n      0x1f\n        /* \"#utility.yul\":13680:13685   */\n      dup4\n        /* \"#utility.yul\":13676:13690   */\n      add\n        /* \"#utility.yul\":13672:13695   */\n      div\n        /* \"#utility.yul\":13662:13695   */\n      swap1\n      pop\n        /* \"#utility.yul\":13608:13701   */\n      swap2\n      swap1\n      pop\n      jump\t// out\n        /* \"#utility.yul\":13707:13814   */\n    tag_183:\n        /* \"#utility.yul\":13751:13759   */\n      0x00\n        /* \"#utility.yul\":13801:13806   */\n      dup3\n        /* \"#utility.yul\":13795:13799   */\n      dup3\n        /* \"#utility.yul\":13791:13807   */\n      shl\n        /* \"#utility.yul\":13770:13807   */\n      swap1\n      pop\n        /* \"#utility.yul\":13707:13814   */\n      swap3\n      swap2\n      pop\n      pop\n      jump\t// out\n        /* \"#utility.yul\":13820:14213   */\n    tag_184:\n        /* \"#utility.yul\":13889:13895   */\n      0x00\n        /* \"#utility.yul\":13939:13940   */\n      0x08\n        /* \"#utility.yul\":13927:13937   */\n      dup4\n        /* \"#utility.yul\":13923:13941   */\n      mul\n        /* \"#utility.yul\":13962:14059   */\n      tag_345\n        /* \"#utility.yul\":13992:14058   */\n      0xffffffffffffffffffffffffffffffffffffffffffffffffffffffffffffffff\n        /* \"#utility.yul\":13981:13990   */\n      dup3\n        /* \"#utility.yul\":13962:14059   */\n      tag_183\n      jump\t// in\n    tag_345:\n        /* \"#utility.yul\":14080:14119   */\n      tag_346\n        /* \"#utility.yul\":14110:14118   */\n      dup7\n        /* \"#utility.yul\":14099:14108   */\n      dup4\n        /* \"#utility.yul\":14080:14119   */\n      tag_183\n      jump\t// in\n    tag_346:\n        /* \"#utility.yul\":14068:14119   */\n      swap6\n      pop\n        /* \"#utility.yul\":14152:14156   */\n      dup1\n        /* \"#utility.yul\":14148:14157   */\n      not\n        /* \"#utility.yul\":14141:14146   */\n      dup5\n        /* \"#utility.yul\":14137:14158   */\n      and\n        /* \"#utility.yul\":14128:14158   */\n      swap4\n      pop\n        /* \"#utility.yul\":14201:14205   */\n      dup1\n        /* \"#utility.yul\":14191:14199   */\n      dup7\n        /* \"#utility.yul\":14187:14206   */\n      and\n        /* \"#utility.yul\":14180:14185   */\n      dup5\n        /* \"#utility.yul\":14177:14207   */\n      or\n        /* \"#utility.yul\":14167:14207   */\n      swap3\n      pop\n        /* \"#utility.yul\":13896:14213   */\n      pop\n      pop\n        /* \"#utility.yul\":13820:14213   */\n      swap4\n      swap3\n      pop\n      pop\n      pop\n      jump\t// out\n        /* \"#utility.yul\":14219:14279   */\n    tag_185:\n        /* \"#utility.yul\":14247:14250   */\n      0x00\n        /* \"#utility.yul\":14268:14273   */\n      dup2\n        /* \"#utility.yul\":14261:14273   */\n      swap1\n      pop\n        /* \"#utility.yul\":14219:14279   */\n      swap2\n      swap1\n      pop\n      jump\t// out\n        /* \"#utility.yul\":14285:14427   */\n    tag_186:\n        /* \"#utility.yul\":14335:14344   */\n      0x00\n        /* \"#utility.yul\":14368:14421   */\n      tag_349\n        /* \"#utility.yul\":14386:14420   */\n      tag_350\n        /* \"#utility.yul\":14395:14419   */\n      tag_351\n        /* \"#utility.yul\":14413:14418   */\n      dup5\n        /* \"#utility.yul\":14395:14419   */\n      tag_149\n      jump\t// in\n    tag_351:\n        /* \"#utility.yul\":14386:14420   */\n      tag_185\n      jump\t// in\n    tag_350:\n        /* \"#utility.yul\":14368:14421   */\n      tag_149\n      jump\t// in\n    tag_349:\n        /* \"#utility.yul\":14355:14421   */\n      swap1\n      pop\n        /* \"#utility.yul\":14285:14427   */\n      swap2\n      swap1\n      pop\n      jump\t// out\n        /* \"#utility.yul\":14433:14508   */\n    tag_187:\n        /* \"#utility.yul\":14476:14479   */\n      0x00\n        /* \"#utility.yul\":14497:14502   */\n      dup2\n        /* \"#utility.yul\":14490:14502   */\n      swap1\n      pop\n        /* \"#utility.yul\":14433:14508   */\n      swap2\n      swap1\n      pop\n      jump\t// out\n        /* \"#utility.yul\":14514:14783   */\n    tag_188:\n        /* \"#utility.yul\":14624:14663   */\n      tag_354\n        /* \"#utility.yul\":14655:14662   */\n      dup4\n        /* \"#utility.yul\":14624:14663   */\n      tag_186\n      jump\t// in\n    tag_354:\n        /* \"#utility.yul\":14685:14776   */\n      tag_355\n        /* \"#utility.yul\":14734:14775   */\n      tag_356\n        /* \"#utility.yul\":14758:14774   */\n      dup3\n        /* \"#utility.yul\":14734:14775   */\n      tag_187\n      jump\t// in\n    tag_356:\n        /* \"#utility.yul\":14726:14732   */\n      dup5\n        /* \"#utility.yul\":14719:14723   */\n      dup5\n        /* \"#utility.yul\":14713:14724   */\n      sload\n        /* \"#utility.yul\":14685:14776   */\n      tag_184\n      jump\t// in\n    tag_355:\n        /* \"#utility.yul\":14679:14683   */\n      dup3\n        /* \"#utility.yul\":14672:14777   */\n      sstore\n        /* \"#utility.yul\":14590:14783   */\n      pop\n        /* \"#utility.yul\":14514:14783   */\n      pop\n      pop\n      pop\n      jump\t// out\n        /* \"#utility.yul\":14789:14862   */\n    tag_189:\n        /* \"#utility.yul\":14834:14837   */\n      0x00\n        /* \"#utility.yul\":14789:14862   */\n      swap1\n      jump\t// out\n        /* \"#utility.yul\":14868:15057   */\n    tag_190:\n        /* \"#utility.yul\":14945:14977   */\n      tag_359\n      tag_189\n      jump\t// in\n    tag_359:\n        /* \"#utility.yul\":14986:15051   */\n      tag_360\n        /* \"#utility.yul\":15044:15050   */\n      dup2\n        /* \"#utility.yul\":15036:15042   */\n      dup5\n        /* \"#utility.yul\":15030:15034   */\n      dup5\n        /* \"#utility.yul\":14986:15051   */\n      tag_188\n      jump\t// in\n    tag_360:\n        /* \"#utility.yul\":14921:15057   */\n      pop\n        /* \"#utility.yul\":14868:15057   */\n      pop\n      pop\n      jump\t// out\n        /* \"#utility.yul\":15063:15249   */\n    tag_191:\n        /* \"#utility.yul\":15123:15243   */\n    tag_362:\n        /* \"#utility.yul\":15140:15143   */\n      dup2\n        /* \"#utility.yul\":15133:15138   */\n      dup2\n        /* \"#utility.yul\":15130:15144   */\n      lt\n        /* \"#utility.yul\":15123:15243   */\n      iszero\n      tag_364\n      jumpi\n        /* \"#utility.yul\":15194:15233   */\n      tag_365\n        /* \"#utility.yul\":15231:15232   */\n      0x00\n        /* \"#utility.yul\":15224:15229   */\n      dup3\n        /* \"#utility.yul\":15194:15233   */\n      tag_190\n      jump\t// in\n    tag_365:\n        /* \"#utility.yul\":15167:15168   */\n      0x01\n        /* \"#utility.yul\":15160:15165   */\n      dup2\n        /* \"#utility.yul\":15156:15169   */\n      add\n        /* \"#utility.yul\":15147:15169   */\n      swap1\n      pop\n        /* \"#utility.yul\":15123:15243   */\n      jump(tag_362)\n    tag_364:\n        /* \"#utility.yul\":15063:15249   */\n      pop\n      pop\n      jump\t// out\n        /* \"#utility.yul\":15255:15798   */\n    tag_192:\n        /* \"#utility.yul\":15356:15358   */\n      0x1f\n        /* \"#utility.yul\":15351:15354   */\n      dup3\n        /* \"#utility.yul\":15348:15359   */\n      gt\n        /* \"#utility.yul\":15345:15791   */\n      iszero\n      tag_367\n      jumpi\n        /* \"#utility.yul\":15390:15428   */\n      tag_368\n        /* \"#utility.yul\":15422:15427   */\n      dup2\n        /* \"#utility.yul\":15390:15428   */\n      tag_181\n      jump\t// in\n    tag_368:\n        /* \"#utility.yul\":15474:15503   */\n      tag_369\n        /* \"#utility.yul\":15492:15502   */\n      dup5\n        /* \"#utility.yul\":15474:15503   */\n      tag_182\n      jump\t// in\n    tag_369:\n        /* \"#utility.yul\":15464:15472   */\n      dup2\n        /* \"#utility.yul\":15460:15504   */\n      add\n        /* \"#utility.yul\":15657:15659   */\n      0x20\n        /* \"#utility.yul\":15645:15655   */\n      dup6\n        /* \"#utility.yul\":15642:15660   */\n      lt\n        /* \"#utility.yul\":15639:15688   */\n      iszero\n      tag_370\n      jumpi\n        /* \"#utility.yul\":15678:15686   */\n      dup2\n        /* \"#utility.yul\":15663:15686   */\n      swap1\n      pop\n        /* \"#utility.yul\":15639:15688   */\n    tag_370:\n        /* \"#utility.yul\":15701:15781   */\n      tag_371\n        /* \"#utility.yul\":15757:15779   */\n      tag_372\n        /* \"#utility.yul\":15775:15778   */\n      dup6\n        /* \"#utility.yul\":15757:15779   */\n      tag_182\n      jump\t// in\n    tag_372:\n        /* \"#utility.yul\":15747:15755   */\n      dup4\n        /* \"#utility.yul\":15743:15780   */\n      add\n        /* \"#utility.yul\":15730:15741   */\n      dup3\n        /* \"#utility.yul\":15701:15781   */\n      tag_191\n      jump\t// in\n    tag_371:\n        /* \"#utility.yul\":15360:15791   */\n      pop\n      pop\n        /* \"#utility.yul\":15345:15791   */\n    tag_367:\n        /* \"#utility.yul\":15255:15798   */\n      pop\n      pop\n      pop\n      jump\t// out\n        /* \"#utility.yul\":15804:15921   */\n    tag_193:\n        /* \"#utility.yul\":15858:15866   */\n      0x00\n        /* \"#utility.yul\":15908:15913   */\n      dup3\n        /* \"#utility.yul\":15902:15906   */\n      dup3\n        /* \"#utility.yul\":15898:15914   */\n      shr\n        /* \"#utility.yul\":15877:15914   */\n      swap1\n      pop\n        /* \"#utility.yul\":15804:15921   */\n      swap3\n      swap2\n      pop\n      pop\n      jump\t// out\n        /* \"#utility.yul\":15927:16096   */\n    tag_194:\n        /* \"#utility.yul\":15971:15977   */\n      0x00\n        /* \"#utility.yul\":16004:16055   */\n      tag_375\n        /* \"#utility.yul\":16052:16053   */\n      0x00\n        /* \"#utility.yul\":16048:16054   */\n      not\n        /* \"#utility.yul\":16040:16045   */\n      dup5\n        /* \"#utility.yul\":16037:16038   */\n      0x08\n        /* \"#utility.yul\":16033:16046   */\n      mul\n        /* \"#utility.yul\":16004:16055   */\n      tag_193\n      jump\t// in\n    tag_375:\n        /* \"#utility.yul\":16000:16056   */\n      not\n        /* \"#utility.yul\":16085:16089   */\n      dup1\n        /* \"#utility.yul\":16079:16083   */\n      dup4\n        /* \"#utility.yul\":16075:16090   */\n      and\n        /* \"#utility.yul\":16065:16090   */\n      swap2\n      pop\n        /* \"#utility.yul\":15978:16096   */\n      pop\n        /* \"#utility.yul\":15927:16096   */\n      swap3\n      swap2\n      pop\n      pop\n      jump\t// out\n        /* \"#utility.yul\":16101:16396   */\n    tag_195:\n        /* \"#utility.yul\":16177:16181   */\n      0x00\n        /* \"#utility.yul\":16323:16352   */\n      tag_377\n        /* \"#utility.yul\":16348:16351   */\n      dup4\n        /* \"#utility.yul\":16342:16346   */\n      dup4\n        /* \"#utility.yul\":16323:16352   */\n      tag_194\n      jump\t// in\n    tag_377:\n        /* \"#utility.yul\":16315:16352   */\n      swap2\n      pop\n        /* \"#utility.yul\":16385:16388   */\n      dup3\n        /* \"#utility.yul\":16382:16383   */\n      0x02\n        /* \"#utility.yul\":16378:16389   */\n      mul\n        /* \"#utility.yul\":16372:16376   */\n      dup3\n        /* \"#utility.yul\":16369:16390   */\n      or\n        /* \"#utility.yul\":16361:16390   */\n      swap1\n      pop\n        /* \"#utility.yul\":16101:16396   */\n      swap3\n      swap2\n      pop\n      pop\n      jump\t// out\n        /* \"#utility.yul\":16401:17796   */\n    tag_134:\n        /* \"#utility.yul\":16518:16555   */\n      tag_379\n        /* \"#utility.yul\":16551:16554   */\n      dup3\n        /* \"#utility.yul\":16518:16555   */\n      tag_156\n      jump\t// in\n    tag_379:\n        /* \"#utility.yul\":16620:16638   */\n      0xffffffffffffffff\n        /* \"#utility.yul\":16612:16618   */\n      dup2\n        /* \"#utility.yul\":16609:16639   */\n      gt\n        /* \"#utility.yul\":16606:16662   */\n      iszero\n      tag_380\n      jumpi\n        /* \"#utility.yul\":16642:16660   */\n      tag_381\n      tag_36\n      jump\t// in\n    tag_381:\n        /* \"#utility.yul\":16606:16662   */\n    tag_380:\n        /* \"#utility.yul\":16686:16724   */\n      tag_382\n        /* \"#utility.yul\":16718:16722   */\n      dup3\n        /* \"#utility.yul\":16712:16723   */\n      sload\n        /* \"#utility.yul\":16686:16724   */\n      tag_180\n      jump\t// in\n    tag_382:\n        /* \"#utility.yul\":16771:16838   */\n      tag_383\n        /* \"#utility.yul\":16831:16837   */\n      dup3\n        /* \"#utility.yul\":16823:16829   */\n      dup3\n        /* \"#utility.yul\":16817:16821   */\n      dup6\n        /* \"#utility.yul\":16771:16838   */\n      tag_192\n      jump\t// in\n    tag_383:\n        /* \"#utility.yul\":16865:16866   */\n      0x00\n        /* \"#utility.yul\":16889:16893   */\n      0x20\n        /* \"#utility.yul\":16876:16893   */\n      swap1\n      pop\n        /* \"#utility.yul\":16921:16923   */\n      0x1f\n        /* \"#utility.yul\":16913:16919   */\n      dup4\n        /* \"#utility.yul\":16910:16924   */\n      gt\n        /* \"#utility.yul\":16938:16939   */\n      0x01\n        /* \"#utility.yul\":16933:17551   */\n      dup2\n      eq\n      tag_385\n      jumpi\n        /* \"#utility.yul\":17595:17596   */\n      0x00\n        /* \"#utility.yul\":17612:17618   */\n      dup5\n        /* \"#utility.yul\":17609:17686   */\n      iszero\n      tag_386\n      jumpi\n        /* \"#utility.yul\":17661:17670   */\n      dup3\n        /* \"#utility.yul\":17656:17659   */\n      dup8\n        /* \"#utility.yul\":17652:17671   */\n      add\n        /* \"#utility.yul\":17646:17672   */\n      mload\n        /* \"#utility.yul\":17637:17672   */\n      swap1\n      pop\n        /* \"#utility.yul\":17609:17686   */\n    tag_386:\n        /* \"#utility.yul\":17712:17779   */\n      tag_387\n        /* \"#utility.yul\":17772:17778   */\n      dup6\n        /* \"#utility.yul\":17765:17770   */\n      dup3\n        /* \"#utility.yul\":17712:17779   */\n      tag_195\n      jump\t// in\n    tag_387:\n        /* \"#utility.yul\":17706:17710   */\n      dup7\n        /* \"#utility.yul\":17699:17780   */\n      sstore\n        /* \"#utility.yul\":17568:17790   */\n      pop\n        /* \"#utility.yul\":16903:17790   */\n      jump(tag_384)\n        /* \"#utility.yul\":16933:17551   */\n    tag_385:\n        /* \"#utility.yul\":16985:16989   */\n      0x1f\n        /* \"#utility.yul\":16981:16990   */\n      not\n        /* \"#utility.yul\":16973:16979   */\n      dup5\n        /* \"#utility.yul\":16969:16991   */\n      and\n        /* \"#utility.yul\":17019:17056   */\n      tag_388\n        /* \"#utility.yul\":17051:17055   */\n      dup7\n        /* \"#utility.yul\":17019:17056   */\n      tag_181\n      jump\t// in\n    tag_388:\n        /* \"#utility.yul\":17078:17079   */\n      0x00\n        /* \"#utility.yul\":17092:17300   */\n    tag_389:\n        /* \"#utility.yul\":17106:17113   */\n      dup3\n        /* \"#utility.yul\":17103:17104   */\n      dup2\n        /* \"#utility.yul\":17100:17114   */\n      lt\n        /* \"#utility.yul\":17092:17300   */\n      iszero\n      tag_391\n      jumpi\n        /* \"#utility.yul\":17185:17194   */\n      dup5\n        /* \"#utility.yul\":17180:17183   */\n      dup10\n        /* \"#utility.yul\":17176:17195   */\n      add\n        /* \"#utility.yul\":17170:17196   */\n      mload\n        /* \"#utility.yul\":17162:17168   */\n      dup3\n        /* \"#utility.yul\":17155:17197   */\n      sstore\n        /* \"#utility.yul\":17236:17237   */\n      0x01\n        /* \"#utility.yul\":17228:17234   */\n      dup3\n        /* \"#utility.yul\":17224:17238   */\n      add\n        /* \"#utility.yul\":17214:17238   */\n      swap2\n      pop\n        /* \"#utility.yul\":17283:17285   */\n      0x20\n        /* \"#utility.yul\":17272:17281   */\n      dup6\n        /* \"#utility.yul\":17268:17286   */\n      add\n        /* \"#utility.yul\":17255:17286   */\n      swap5\n      pop\n        /* \"#utility.yul\":17129:17133   */\n      0x20\n        /* \"#utility.yul\":17126:17127   */\n      dup2\n        /* \"#utility.yul\":17122:17134   */\n      add\n        /* \"#utility.yul\":17117:17134   */\n      swap1\n      pop\n        /* \"#utility.yul\":17092:17300   */\n      jump(tag_389)\n    tag_391:\n        /* \"#utility.yul\":17328:17334   */\n      dup7\n        /* \"#utility.yul\":17319:17326   */\n      dup4\n        /* \"#utility.yul\":17316:17335   */\n      lt\n        /* \"#utility.yul\":17313:17492   */\n      iszero\n      tag_392\n      jumpi\n        /* \"#utility.yul\":17386:17395   */\n      dup5\n        /* \"#utility.yul\":17381:17384   */\n      dup10\n        /* \"#utility.yul\":17377:17396   */\n      add\n        /* \"#utility.yul\":17371:17397   */\n      mload\n        /* \"#utility.yul\":17429:17477   */\n      tag_393\n        /* \"#utility.yul\":17471:17475   */\n      0x1f\n        /* \"#utility.yul\":17463:17469   */\n      dup10\n        /* \"#utility.yul\":17459:17476   */\n      and\n        /* \"#utility.yul\":17448:17457   */\n      dup3\n        /* \"#utility.yul\":17429:17477   */\n      tag_194\n      jump\t// in\n    tag_393:\n        /* \"#utility.yul\":17421:17427   */\n      dup4\n        /* \"#utility.yul\":17414:17478   */\n      sstore\n        /* \"#utility.yul\":17336:17492   */\n      pop\n        /* \"#utility.yul\":17313:17492   */\n    tag_392:\n        /* \"#utility.yul\":17538:17539   */\n      0x01\n        /* \"#utility.yul\":17534:17535   */\n      0x02\n        /* \"#utility.yul\":17526:17532   */\n      dup9\n        /* \"#utility.yul\":17522:17536   */\n      mul\n        /* \"#utility.yul\":17518:17540   */\n      add\n        /* \"#utility.yul\":17512:17516   */\n      dup9\n        /* \"#utility.yul\":17505:17541   */\n      sstore\n        /* \"#utility.yul\":16940:17551   */\n      pop\n      pop\n      pop\n        /* \"#utility.yul\":16903:17790   */\n    tag_384:\n      pop\n        /* \"#utility.yul\":16493:17796   */\n      pop\n      pop\n      pop\n        /* \"#utility.yul\":16401:17796   */\n      pop\n      pop\n      jump\t// out\n        /* \"#utility.yul\":17802:17996   */\n    tag_137:\n        /* \"#utility.yul\":17842:17846   */\n      0x00\n        /* \"#utility.yul\":17862:17882   */\n      tag_395\n        /* \"#utility.yul\":17880:17881   */\n      dup3\n        /* \"#utility.yul\":17862:17882   */\n      tag_149\n      jump\t// in\n    tag_395:\n        /* \"#utility.yul\":17857:17882   */\n      swap2\n      pop\n        /* \"#utility.yul\":17896:17916   */\n      tag_396\n        /* \"#utility.yul\":17914:17915   */\n      dup4\n        /* \"#utility.yul\":17896:17916   */\n      tag_149\n      jump\t// in\n    tag_396:\n        /* \"#utility.yul\":17891:17916   */\n      swap3\n      pop\n        /* \"#utility.yul\":17940:17941   */\n      dup3\n        /* \"#utility.yul\":17937:17938   */\n      dup3\n        /* \"#utility.yul\":17933:17942   */\n      sub\n        /* \"#utility.yul\":17925:17942   */\n      swap1\n      pop\n        /* \"#utility.yul\":17964:17965   */\n      dup2\n        /* \"#utility.yul\":17958:17962   */\n      dup2\n        /* \"#utility.yul\":17955:17966   */\n      gt\n        /* \"#utility.yul\":17952:17989   */\n      iszero\n      tag_397\n      jumpi\n        /* \"#utility.yul\":17969:17987   */\n      tag_398\n      tag_169\n      jump\t// in\n    tag_398:\n        /* \"#utility.yul\":17952:17989   */\n    tag_397:\n        /* \"#utility.yul\":17802:17996   */\n      swap3\n      swap2\n      pop\n      pop\n      jump\t// out\n    stop\n    data_e0168f3fae51cf798b1321eebdaae7bc178ca214b91f59783066943e69095f12 57696e20416e64204c6f6f7365206973207468652070617274206f66207468652047616d652e54727920416761696e212e\n\n    auxdata: 0xa26469706673582212202fa5479592357e09e1631367b542a5f2a8675f466366401d0d77f322c57c58ad64736f6c63430008140033\n}\n",
				"bytecode": {
					"linkReferences": {},
					"object": "6080604052662386f26fc1000060025534801561001a575f80fd5b50611642806100285f395ff3fe608060405234801561000f575f80fd5b5060043610610060575f3560e01c80633c956b05146100645780637138d32d14610094578063a85b2ba7146100b0578063b81c3db7146100e0578063cb9940b7146100ea578063e70364d414610106575b5f80fd5b61007e60048036038101906100799190610c70565b610122565b60405161008b9190610d5b565b60405180910390f35b6100ae60048036038101906100a99190610da5565b61026c565b005b6100ca60048036038101906100c59190610da5565b6103cd565b6040516100d79190610e5a565b60405180910390f35b6100e861070e565b005b61010460048036038101906100ff9190610fa6565b610849565b005b610120600480360381019061011b9190610da5565b610941565b005b60605f60015f8473ffffffffffffffffffffffffffffffffffffffff1673ffffffffffffffffffffffffffffffffffffffff1681526020019081526020015f205467ffffffffffffffff81111561017c5761017b610e82565b5b6040519080825280602002602001820160405280156101aa5781602001602082028036833780820191505090505b5090505f805b600380549050811015610261578473ffffffffffffffffffffffffffffffffffffffff165f808381526020019081526020015f205f9054906101000a900473ffffffffffffffffffffffffffffffffffffffff1673ffffffffffffffffffffffffffffffffffffffff160361024e57808383815181106102335761023261101c565b5b602002602001018181525050818061024a90611076565b9250505b808061025990611076565b9150506101b0565b508192505050919050565b8060085f3373ffffffffffffffffffffffffffffffffffffffff1673ffffffffffffffffffffffffffffffffffffffff1681526020019081526020015f2054036103bf575f600382815481106102c5576102c461101c565b5b905f5260205f2090600902016007015490506102e0826103cd565b5080600383815481106102f6576102f561101c565b5b905f5260205f2090600902016007015411801561035057506001805f3373ffffffffffffffffffffffffffffffffffffffff1673ffffffffffffffffffffffffffffffffffffffff1681526020019081526020015f205410155b610358575f80fd5b5f61036233610122565b905060016003825f8151811061037b5761037a61101c565b5b6020026020010151815481106103945761039361101c565b5b905f5260205f2090600902016003015f8282546103b191906110bd565b9250508190555050506103ca565b6103c8816103cd565b505b50565b60605f6103d86109db565b90505f600384815481106103ef576103ee61101c565b5b905f5260205f20906009020190505f600383815481106104125761041161101c565b5b905f5260205f209060090201905080600301548260030154111561055357816003015f81548092919061044490611076565b9190505550816005015f81548092919061045d90611076565b9190505550816006015f815480929190610476906110f0565b9190505550816007015f81548092919061048f90611076565b91905055506064826004015f8282546104a891906110bd565b92505081905550806003015f8154809291906104c3906110f0565b9190505550806005015f8154809291906104dc90611076565b9190505550806006015f8154809291906104f5906110f0565b9190505550806008015f81548092919061050e90611076565b91905055506040518060400160405280600e81526020017f436f6e67726174732057696e732e0000000000000000000000000000000000008152509350505050610709565b81600301548160030154111561066957806003015f81548092919061057790611076565b9190505550806005015f81548092919061059090611076565b9190505550806006015f8154809291906105a9906110f0565b9190505550806007015f8154809291906105c290611076565b91905055506064816004015f8282546105db91906110bd565b92505081905550816003015f8154809291906105f6906110f0565b9190505550816005015f81548092919061060f90611076565b9190505550816006015f815480929190610628906110f0565b9190505550816008015f81548092919061064190611076565b91905055506040518060600160405280603181526020016115dc603191399350505050610709565b806005015f81548092919061067d90611076565b9190505550816005015f81548092919061069690611076565b9190505550816006015f8154809291906106af906110f0565b9190505550806006015f8154809291906106c8906110f0565b91905055506040518060400160405280600f81526020017f447261772054727920416761696e2e000000000000000000000000000000000081525093505050505b919050565b5f60015f3373ffffffffffffffffffffffffffffffffffffffff1673ffffffffffffffffffffffffffffffffffffffff1681526020019081526020015f20541461078d576040517f08c379a000000000000000000000000000000000000000000000000000000000815260040161078490611161565b60405180910390fd5b6108476040518060400160405280600481526020017f46726565000000000000000000000000000000000000000000000000000000008152506040518060400160405280600a81526020017f467265655a6f6d6269650000000000000000000000000000000000000000000081525061083a6040518060400160405280600481526020017f6672656500000000000000000000000000000000000000000000000000000000815250610a26565b60015f8060025f80610a69565b565b6040518060400160405280600781526020017f7072656d69756d0000000000000000000000000000000000000000000000000081525080519060200120828051906020012014806108dc57506040518060400160405280600781526020017f4469616d6f6e6400000000000000000000000000000000000000000000000000815250805190602001208280519060200120145b61091b576040517f08c379a0000000000000000000000000000000000000000000000000000000008152600401610912906111c9565b60405180910390fd5b5f61092582610a26565b905061093c83838360056101f45f60055f80610a69565b505050565b6001151560045f8381526020019081526020015f205f9054906101000a900460ff1615151461096e575f80fd5b8060085f3373ffffffffffffffffffffffffffffffffffffffff1673ffffffffffffffffffffffffffffffffffffffff1681526020019081526020015f20819055505f60045f8381526020019081526020015f205f6101000a81548160ff02191690831515021790555050565b5f8060038054905090505f8182426040516020016109fa929190611207565b604051602081830303815290604052805190602001205f1c610a1c919061125f565b9050809250505090565b5f8082604051602001610a3991906112c9565b604051602081830303815290604052805190602001205f1c905060025481610a61919061125f565b915050919050565b60036040518061012001604052808b81526020018a815260200189815260200188815260200187815260200186815260200185815260200184815260200183815250908060018154018082558091505060019003905f5260205f2090600902015f909190919091505f820151815f019081610ae491906114d9565b506020820151816001019081610afa91906114d9565b5060408201518160020155606082015181600301556080820151816004015560a0820151816005015560c0820151816006015560e08201518160070155610100820151816008015550505f6001600380549050610b5791906115a8565b905060015f3373ffffffffffffffffffffffffffffffffffffffff1673ffffffffffffffffffffffffffffffffffffffff1681526020019081526020015f205f815480929190610ba690611076565b9190505550335f808381526020019081526020015f205f6101000a81548173ffffffffffffffffffffffffffffffffffffffff021916908373ffffffffffffffffffffffffffffffffffffffff16021790555050505050505050505050565b5f604051905090565b5f80fd5b5f80fd5b5f73ffffffffffffffffffffffffffffffffffffffff82169050919050565b5f610c3f82610c16565b9050919050565b610c4f81610c35565b8114610c59575f80fd5b50565b5f81359050610c6a81610c46565b92915050565b5f60208284031215610c8557610c84610c0e565b5b5f610c9284828501610c5c565b91505092915050565b5f81519050919050565b5f82825260208201905092915050565b5f819050602082019050919050565b5f819050919050565b610cd681610cc4565b82525050565b5f610ce78383610ccd565b60208301905092915050565b5f602082019050919050565b5f610d0982610c9b565b610d138185610ca5565b9350610d1e83610cb5565b805f5b83811015610d4e578151610d358882610cdc565b9750610d4083610cf3565b925050600181019050610d21565b5085935050505092915050565b5f6020820190508181035f830152610d738184610cff565b905092915050565b610d8481610cc4565b8114610d8e575f80fd5b50565b5f81359050610d9f81610d7b565b92915050565b5f60208284031215610dba57610db9610c0e565b5b5f610dc784828501610d91565b91505092915050565b5f81519050919050565b5f82825260208201905092915050565b5f5b83811015610e07578082015181840152602081019050610dec565b5f8484015250505050565b5f601f19601f8301169050919050565b5f610e2c82610dd0565b610e368185610dda565b9350610e46818560208601610dea565b610e4f81610e12565b840191505092915050565b5f6020820190508181035f830152610e728184610e22565b905092915050565b5f80fd5b5f80fd5b7f4e487b71000000000000000000000000000000000000000000000000000000005f52604160045260245ffd5b610eb882610e12565b810181811067ffffffffffffffff82111715610ed757610ed6610e82565b5b80604052505050565b5f610ee9610c05565b9050610ef58282610eaf565b919050565b5f67ffffffffffffffff821115610f1457610f13610e82565b5b610f1d82610e12565b9050602081019050919050565b828183375f83830152505050565b5f610f4a610f4584610efa565b610ee0565b905082815260208101848484011115610f6657610f65610e7e565b5b610f71848285610f2a565b509392505050565b5f82601f830112610f8d57610f8c610e7a565b5b8135610f9d848260208601610f38565b91505092915050565b5f8060408385031215610fbc57610fbb610c0e565b5b5f83013567ffffffffffffffff811115610fd957610fd8610c12565b5b610fe585828601610f79565b925050602083013567ffffffffffffffff81111561100657611005610c12565b5b61101285828601610f79565b9150509250929050565b7f4e487b71000000000000000000000000000000000000000000000000000000005f52603260045260245ffd5b7f4e487b71000000000000000000000000000000000000000000000000000000005f52601160045260245ffd5b5f61108082610cc4565b91507fffffffffffffffffffffffffffffffffffffffffffffffffffffffffffffffff82036110b2576110b1611049565b5b600182019050919050565b5f6110c782610cc4565b91506110d283610cc4565b92508282019050808211156110ea576110e9611049565b5b92915050565b5f6110fa82610cc4565b91505f820361110c5761110b611049565b5b600182039050919050565b7f416c726561647920686176652031206e66742e000000000000000000000000005f82015250565b5f61114b601383610dda565b915061115682611117565b602082019050919050565b5f6020820190508181035f8301526111788161113f565b9050919050565b7f436f7272656374205370656c6c696e67000000000000000000000000000000005f82015250565b5f6111b3601083610dda565b91506111be8261117f565b602082019050919050565b5f6020820190508181035f8301526111e0816111a7565b9050919050565b5f819050919050565b6112016111fc82610cc4565b6111e7565b82525050565b5f61121282856111f0565b60208201915061122282846111f0565b6020820191508190509392505050565b7f4e487b71000000000000000000000000000000000000000000000000000000005f52601260045260245ffd5b5f61126982610cc4565b915061127483610cc4565b92508261128457611283611232565b5b828206905092915050565b5f81905092915050565b5f6112a382610dd0565b6112ad818561128f565b93506112bd818560208601610dea565b80840191505092915050565b5f6112d48284611299565b915081905092915050565b7f4e487b71000000000000000000000000000000000000000000000000000000005f52602260045260245ffd5b5f600282049050600182168061132357607f821691505b602082108103611336576113356112df565b5b50919050565b5f819050815f5260205f209050919050565b5f6020601f8301049050919050565b5f82821b905092915050565b5f600883026113987fffffffffffffffffffffffffffffffffffffffffffffffffffffffffffffffff8261135d565b6113a2868361135d565b95508019841693508086168417925050509392505050565b5f819050919050565b5f6113dd6113d86113d384610cc4565b6113ba565b610cc4565b9050919050565b5f819050919050565b6113f6836113c3565b61140a611402826113e4565b848454611369565b825550505050565b5f90565b61141e611412565b6114298184846113ed565b505050565b5b8181101561144c576114415f82611416565b60018101905061142f565b5050565b601f821115611491576114628161133c565b61146b8461134e565b8101602085101561147a578190505b61148e6114868561134e565b83018261142e565b50505b505050565b5f82821c905092915050565b5f6114b15f1984600802611496565b1980831691505092915050565b5f6114c983836114a2565b9150826002028217905092915050565b6114e282610dd0565b67ffffffffffffffff8111156114fb576114fa610e82565b5b611505825461130c565b611510828285611450565b5f60209050601f831160018114611541575f841561152f578287015190505b61153985826114be565b8655506115a0565b601f19841661154f8661133c565b5f5b8281101561157657848901518255600182019150602085019450602081019050611551565b86831015611593578489015161158f601f8916826114a2565b8355505b6001600288020188555050505b505050505050565b5f6115b282610cc4565b91506115bd83610cc4565b92508282039050818111156115d5576115d4611049565b5b9291505056fe57696e20416e64204c6f6f7365206973207468652070617274206f66207468652047616d652e54727920416761696e212ea26469706673582212202fa5479592357e09e1631367b542a5f2a8675f466366401d0d77f322c57c58ad64736f6c63430008140033",
					"opcodes": "PUSH1 0x80 PUSH1 0x40 MSTORE PUSH7 0x2386F26FC10000 PUSH1 0x2 SSTORE CALLVALUE DUP1 ISZERO PUSH2 0x1A JUMPI PUSH0 DUP1 REVERT JUMPDEST POP PUSH2 0x1642 DUP1 PUSH2 0x28 PUSH0 CODECOPY PUSH0 RETURN INVALID PUSH1 0x80 PUSH1 0x40 MSTORE CALLVALUE DUP1 ISZERO PUSH2 0xF JUMPI PUSH0 DUP1 REVERT JUMPDEST POP PUSH1 0x4 CALLDATASIZE LT PUSH2 0x60 JUMPI PUSH0 CALLDATALOAD PUSH1 0xE0 SHR DUP1 PUSH4 0x3C956B05 EQ PUSH2 0x64 JUMPI DUP1 PUSH4 0x7138D32D EQ PUSH2 0x94 JUMPI DUP1 PUSH4 0xA85B2BA7 EQ PUSH2 0xB0 JUMPI DUP1 PUSH4 0xB81C3DB7 EQ PUSH2 0xE0 JUMPI DUP1 PUSH4 0xCB9940B7 EQ PUSH2 0xEA JUMPI DUP1 PUSH4 0xE70364D4 EQ PUSH2 0x106 JUMPI JUMPDEST PUSH0 DUP1 REVERT JUMPDEST PUSH2 0x7E PUSH1 0x4 DUP1 CALLDATASIZE SUB DUP2 ADD SWAP1 PUSH2 0x79 SWAP2 SWAP1 PUSH2 0xC70 JUMP JUMPDEST PUSH2 0x122 JUMP JUMPDEST PUSH1 0x40 MLOAD PUSH2 0x8B SWAP2 SWAP1 PUSH2 0xD5B JUMP JUMPDEST PUSH1 0x40 MLOAD DUP1 SWAP2 SUB SWAP1 RETURN JUMPDEST PUSH2 0xAE PUSH1 0x4 DUP1 CALLDATASIZE SUB DUP2 ADD SWAP1 PUSH2 0xA9 SWAP2 SWAP1 PUSH2 0xDA5 JUMP JUMPDEST PUSH2 0x26C JUMP JUMPDEST STOP JUMPDEST PUSH2 0xCA PUSH1 0x4 DUP1 CALLDATASIZE SUB DUP2 ADD SWAP1 PUSH2 0xC5 SWAP2 SWAP1 PUSH2 0xDA5 JUMP JUMPDEST PUSH2 0x3CD JUMP JUMPDEST PUSH1 0x40 MLOAD PUSH2 0xD7 SWAP2 SWAP1 PUSH2 0xE5A JUMP JUMPDEST PUSH1 0x40 MLOAD DUP1 SWAP2 SUB SWAP1 RETURN JUMPDEST PUSH2 0xE8 PUSH2 0x70E JUMP JUMPDEST STOP JUMPDEST PUSH2 0x104 PUSH1 0x4 DUP1 CALLDATASIZE SUB DUP2 ADD SWAP1 PUSH2 0xFF SWAP2 SWAP1 PUSH2 0xFA6 JUMP JUMPDEST PUSH2 0x849 JUMP JUMPDEST STOP JUMPDEST PUSH2 0x120 PUSH1 0x4 DUP1 CALLDATASIZE SUB DUP2 ADD SWAP1 PUSH2 0x11B SWAP2 SWAP1 PUSH2 0xDA5 JUMP JUMPDEST PUSH2 0x941 JUMP JUMPDEST STOP JUMPDEST PUSH1 0x60 PUSH0 PUSH1 0x1 PUSH0 DUP5 PUSH20 0xFFFFFFFFFFFFFFFFFFFFFFFFFFFFFFFFFFFFFFFF AND PUSH20 0xFFFFFFFFFFFFFFFFFFFFFFFFFFFFFFFFFFFFFFFF AND DUP2 MSTORE PUSH1 0x20 ADD SWAP1 DUP2 MSTORE PUSH1 0x20 ADD PUSH0 KECCAK256 SLOAD PUSH8 0xFFFFFFFFFFFFFFFF DUP2 GT ISZERO PUSH2 0x17C JUMPI PUSH2 0x17B PUSH2 0xE82 JUMP JUMPDEST JUMPDEST PUSH1 0x40 MLOAD SWAP1 DUP1 DUP3 MSTORE DUP1 PUSH1 0x20 MUL PUSH1 0x20 ADD DUP3 ADD PUSH1 0x40 MSTORE DUP1 ISZERO PUSH2 0x1AA JUMPI DUP2 PUSH1 0x20 ADD PUSH1 0x20 DUP3 MUL DUP1 CALLDATASIZE DUP4 CALLDATACOPY DUP1 DUP3 ADD SWAP2 POP POP SWAP1 POP JUMPDEST POP SWAP1 POP PUSH0 DUP1 JUMPDEST PUSH1 0x3 DUP1 SLOAD SWAP1 POP DUP2 LT ISZERO PUSH2 0x261 JUMPI DUP5 PUSH20 0xFFFFFFFFFFFFFFFFFFFFFFFFFFFFFFFFFFFFFFFF AND PUSH0 DUP1 DUP4 DUP2 MSTORE PUSH1 0x20 ADD SWAP1 DUP2 MSTORE PUSH1 0x20 ADD PUSH0 KECCAK256 PUSH0 SWAP1 SLOAD SWAP1 PUSH2 0x100 EXP SWAP1 DIV PUSH20 0xFFFFFFFFFFFFFFFFFFFFFFFFFFFFFFFFFFFFFFFF AND PUSH20 0xFFFFFFFFFFFFFFFFFFFFFFFFFFFFFFFFFFFFFFFF AND SUB PUSH2 0x24E JUMPI DUP1 DUP4 DUP4 DUP2 MLOAD DUP2 LT PUSH2 0x233 JUMPI PUSH2 0x232 PUSH2 0x101C JUMP JUMPDEST JUMPDEST PUSH1 0x20 MUL PUSH1 0x20 ADD ADD DUP2 DUP2 MSTORE POP POP DUP2 DUP1 PUSH2 0x24A SWAP1 PUSH2 0x1076 JUMP JUMPDEST SWAP3 POP POP JUMPDEST DUP1 DUP1 PUSH2 0x259 SWAP1 PUSH2 0x1076 JUMP JUMPDEST SWAP2 POP POP PUSH2 0x1B0 JUMP JUMPDEST POP DUP2 SWAP3 POP POP POP SWAP2 SWAP1 POP JUMP JUMPDEST DUP1 PUSH1 0x8 PUSH0 CALLER PUSH20 0xFFFFFFFFFFFFFFFFFFFFFFFFFFFFFFFFFFFFFFFF AND PUSH20 0xFFFFFFFFFFFFFFFFFFFFFFFFFFFFFFFFFFFFFFFF AND DUP2 MSTORE PUSH1 0x20 ADD SWAP1 DUP2 MSTORE PUSH1 0x20 ADD PUSH0 KECCAK256 SLOAD SUB PUSH2 0x3BF JUMPI PUSH0 PUSH1 0x3 DUP3 DUP2 SLOAD DUP2 LT PUSH2 0x2C5 JUMPI PUSH2 0x2C4 PUSH2 0x101C JUMP JUMPDEST JUMPDEST SWAP1 PUSH0 MSTORE PUSH1 0x20 PUSH0 KECCAK256 SWAP1 PUSH1 0x9 MUL ADD PUSH1 0x7 ADD SLOAD SWAP1 POP PUSH2 0x2E0 DUP3 PUSH2 0x3CD JUMP JUMPDEST POP DUP1 PUSH1 0x3 DUP4 DUP2 SLOAD DUP2 LT PUSH2 0x2F6 JUMPI PUSH2 0x2F5 PUSH2 0x101C JUMP JUMPDEST JUMPDEST SWAP1 PUSH0 MSTORE PUSH1 0x20 PUSH0 KECCAK256 SWAP1 PUSH1 0x9 MUL ADD PUSH1 0x7 ADD SLOAD GT DUP1 ISZERO PUSH2 0x350 JUMPI POP PUSH1 0x1 DUP1 PUSH0 CALLER PUSH20 0xFFFFFFFFFFFFFFFFFFFFFFFFFFFFFFFFFFFFFFFF AND PUSH20 0xFFFFFFFFFFFFFFFFFFFFFFFFFFFFFFFFFFFFFFFF AND DUP2 MSTORE PUSH1 0x20 ADD SWAP1 DUP2 MSTORE PUSH1 0x20 ADD PUSH0 KECCAK256 SLOAD LT ISZERO JUMPDEST PUSH2 0x358 JUMPI PUSH0 DUP1 REVERT JUMPDEST PUSH0 PUSH2 0x362 CALLER PUSH2 0x122 JUMP JUMPDEST SWAP1 POP PUSH1 0x1 PUSH1 0x3 DUP3 PUSH0 DUP2 MLOAD DUP2 LT PUSH2 0x37B JUMPI PUSH2 0x37A PUSH2 0x101C JUMP JUMPDEST JUMPDEST PUSH1 0x20 MUL PUSH1 0x20 ADD ADD MLOAD DUP2 SLOAD DUP2 LT PUSH2 0x394 JUMPI PUSH2 0x393 PUSH2 0x101C JUMP JUMPDEST JUMPDEST SWAP1 PUSH0 MSTORE PUSH1 0x20 PUSH0 KECCAK256 SWAP1 PUSH1 0x9 MUL ADD PUSH1 0x3 ADD PUSH0 DUP3 DUP3 SLOAD PUSH2 0x3B1 SWAP2 SWAP1 PUSH2 0x10BD JUMP JUMPDEST SWAP3 POP POP DUP2 SWAP1 SSTORE POP POP POP PUSH2 0x3CA JUMP JUMPDEST PUSH2 0x3C8 DUP2 PUSH2 0x3CD JUMP JUMPDEST POP JUMPDEST POP JUMP JUMPDEST PUSH1 0x60 PUSH0 PUSH2 0x3D8 PUSH2 0x9DB JUMP JUMPDEST SWAP1 POP PUSH0 PUSH1 0x3 DUP5 DUP2 SLOAD DUP2 LT PUSH2 0x3EF JUMPI PUSH2 0x3EE PUSH2 0x101C JUMP JUMPDEST JUMPDEST SWAP1 PUSH0 MSTORE PUSH1 0x20 PUSH0 KECCAK256 SWAP1 PUSH1 0x9 MUL ADD SWAP1 POP PUSH0 PUSH1 0x3 DUP4 DUP2 SLOAD DUP2 LT PUSH2 0x412 JUMPI PUSH2 0x411 PUSH2 0x101C JUMP JUMPDEST JUMPDEST SWAP1 PUSH0 MSTORE PUSH1 0x20 PUSH0 KECCAK256 SWAP1 PUSH1 0x9 MUL ADD SWAP1 POP DUP1 PUSH1 0x3 ADD SLOAD DUP3 PUSH1 0x3 ADD SLOAD GT ISZERO PUSH2 0x553 JUMPI DUP2 PUSH1 0x3 ADD PUSH0 DUP2 SLOAD DUP1 SWAP3 SWAP2 SWAP1 PUSH2 0x444 SWAP1 PUSH2 0x1076 JUMP JUMPDEST SWAP2 SWAP1 POP SSTORE POP DUP2 PUSH1 0x5 ADD PUSH0 DUP2 SLOAD DUP1 SWAP3 SWAP2 SWAP1 PUSH2 0x45D SWAP1 PUSH2 0x1076 JUMP JUMPDEST SWAP2 SWAP1 POP SSTORE POP DUP2 PUSH1 0x6 ADD PUSH0 DUP2 SLOAD DUP1 SWAP3 SWAP2 SWAP1 PUSH2 0x476 SWAP1 PUSH2 0x10F0 JUMP JUMPDEST SWAP2 SWAP1 POP SSTORE POP DUP2 PUSH1 0x7 ADD PUSH0 DUP2 SLOAD DUP1 SWAP3 SWAP2 SWAP1 PUSH2 0x48F SWAP1 PUSH2 0x1076 JUMP JUMPDEST SWAP2 SWAP1 POP SSTORE POP PUSH1 0x64 DUP3 PUSH1 0x4 ADD PUSH0 DUP3 DUP3 SLOAD PUSH2 0x4A8 SWAP2 SWAP1 PUSH2 0x10BD JUMP JUMPDEST SWAP3 POP POP DUP2 SWAP1 SSTORE POP DUP1 PUSH1 0x3 ADD PUSH0 DUP2 SLOAD DUP1 SWAP3 SWAP2 SWAP1 PUSH2 0x4C3 SWAP1 PUSH2 0x10F0 JUMP JUMPDEST SWAP2 SWAP1 POP SSTORE POP DUP1 PUSH1 0x5 ADD PUSH0 DUP2 SLOAD DUP1 SWAP3 SWAP2 SWAP1 PUSH2 0x4DC SWAP1 PUSH2 0x1076 JUMP JUMPDEST SWAP2 SWAP1 POP SSTORE POP DUP1 PUSH1 0x6 ADD PUSH0 DUP2 SLOAD DUP1 SWAP3 SWAP2 SWAP1 PUSH2 0x4F5 SWAP1 PUSH2 0x10F0 JUMP JUMPDEST SWAP2 SWAP1 POP SSTORE POP DUP1 PUSH1 0x8 ADD PUSH0 DUP2 SLOAD DUP1 SWAP3 SWAP2 SWAP1 PUSH2 0x50E SWAP1 PUSH2 0x1076 JUMP JUMPDEST SWAP2 SWAP1 POP SSTORE POP PUSH1 0x40 MLOAD DUP1 PUSH1 0x40 ADD PUSH1 0x40 MSTORE DUP1 PUSH1 0xE DUP2 MSTORE PUSH1 0x20 ADD PUSH32 0x436F6E67726174732057696E732E000000000000000000000000000000000000 DUP2 MSTORE POP SWAP4 POP POP POP POP PUSH2 0x709 JUMP JUMPDEST DUP2 PUSH1 0x3 ADD SLOAD DUP2 PUSH1 0x3 ADD SLOAD GT ISZERO PUSH2 0x669 JUMPI DUP1 PUSH1 0x3 ADD PUSH0 DUP2 SLOAD DUP1 SWAP3 SWAP2 SWAP1 PUSH2 0x577 SWAP1 PUSH2 0x1076 JUMP JUMPDEST SWAP2 SWAP1 POP SSTORE POP DUP1 PUSH1 0x5 ADD PUSH0 DUP2 SLOAD DUP1 SWAP3 SWAP2 SWAP1 PUSH2 0x590 SWAP1 PUSH2 0x1076 JUMP JUMPDEST SWAP2 SWAP1 POP SSTORE POP DUP1 PUSH1 0x6 ADD PUSH0 DUP2 SLOAD DUP1 SWAP3 SWAP2 SWAP1 PUSH2 0x5A9 SWAP1 PUSH2 0x10F0 JUMP JUMPDEST SWAP2 SWAP1 POP SSTORE POP DUP1 PUSH1 0x7 ADD PUSH0 DUP2 SLOAD DUP1 SWAP3 SWAP2 SWAP1 PUSH2 0x5C2 SWAP1 PUSH2 0x1076 JUMP JUMPDEST SWAP2 SWAP1 POP SSTORE POP PUSH1 0x64 DUP2 PUSH1 0x4 ADD PUSH0 DUP3 DUP3 SLOAD PUSH2 0x5DB SWAP2 SWAP1 PUSH2 0x10BD JUMP JUMPDEST SWAP3 POP POP DUP2 SWAP1 SSTORE POP DUP2 PUSH1 0x3 ADD PUSH0 DUP2 SLOAD DUP1 SWAP3 SWAP2 SWAP1 PUSH2 0x5F6 SWAP1 PUSH2 0x10F0 JUMP JUMPDEST SWAP2 SWAP1 POP SSTORE POP DUP2 PUSH1 0x5 ADD PUSH0 DUP2 SLOAD DUP1 SWAP3 SWAP2 SWAP1 PUSH2 0x60F SWAP1 PUSH2 0x1076 JUMP JUMPDEST SWAP2 SWAP1 POP SSTORE POP DUP2 PUSH1 0x6 ADD PUSH0 DUP2 SLOAD DUP1 SWAP3 SWAP2 SWAP1 PUSH2 0x628 SWAP1 PUSH2 0x10F0 JUMP JUMPDEST SWAP2 SWAP1 POP SSTORE POP DUP2 PUSH1 0x8 ADD PUSH0 DUP2 SLOAD DUP1 SWAP3 SWAP2 SWAP1 PUSH2 0x641 SWAP1 PUSH2 0x1076 JUMP JUMPDEST SWAP2 SWAP1 POP SSTORE POP PUSH1 0x40 MLOAD DUP1 PUSH1 0x60 ADD PUSH1 0x40 MSTORE DUP1 PUSH1 0x31 DUP2 MSTORE PUSH1 0x20 ADD PUSH2 0x15DC PUSH1 0x31 SWAP2 CODECOPY SWAP4 POP POP POP POP PUSH2 0x709 JUMP JUMPDEST DUP1 PUSH1 0x5 ADD PUSH0 DUP2 SLOAD DUP1 SWAP3 SWAP2 SWAP1 PUSH2 0x67D SWAP1 PUSH2 0x1076 JUMP JUMPDEST SWAP2 SWAP1 POP SSTORE POP DUP2 PUSH1 0x5 ADD PUSH0 DUP2 SLOAD DUP1 SWAP3 SWAP2 SWAP1 PUSH2 0x696 SWAP1 PUSH2 0x1076 JUMP JUMPDEST SWAP2 SWAP1 POP SSTORE POP DUP2 PUSH1 0x6 ADD PUSH0 DUP2 SLOAD DUP1 SWAP3 SWAP2 SWAP1 PUSH2 0x6AF SWAP1 PUSH2 0x10F0 JUMP JUMPDEST SWAP2 SWAP1 POP SSTORE POP DUP1 PUSH1 0x6 ADD PUSH0 DUP2 SLOAD DUP1 SWAP3 SWAP2 SWAP1 PUSH2 0x6C8 SWAP1 PUSH2 0x10F0 JUMP JUMPDEST SWAP2 SWAP1 POP SSTORE POP PUSH1 0x40 MLOAD DUP1 PUSH1 0x40 ADD PUSH1 0x40 MSTORE DUP1 PUSH1 0xF DUP2 MSTORE PUSH1 0x20 ADD PUSH32 0x447261772054727920416761696E2E0000000000000000000000000000000000 DUP2 MSTORE POP SWAP4 POP POP POP POP JUMPDEST SWAP2 SWAP1 POP JUMP JUMPDEST PUSH0 PUSH1 0x1 PUSH0 CALLER PUSH20 0xFFFFFFFFFFFFFFFFFFFFFFFFFFFFFFFFFFFFFFFF AND PUSH20 0xFFFFFFFFFFFFFFFFFFFFFFFFFFFFFFFFFFFFFFFF AND DUP2 MSTORE PUSH1 0x20 ADD SWAP1 DUP2 MSTORE PUSH1 0x20 ADD PUSH0 KECCAK256 SLOAD EQ PUSH2 0x78D JUMPI PUSH1 0x40 MLOAD PUSH32 0x8C379A000000000000000000000000000000000000000000000000000000000 DUP2 MSTORE PUSH1 0x4 ADD PUSH2 0x784 SWAP1 PUSH2 0x1161 JUMP JUMPDEST PUSH1 0x40 MLOAD DUP1 SWAP2 SUB SWAP1 REVERT JUMPDEST PUSH2 0x847 PUSH1 0x40 MLOAD DUP1 PUSH1 0x40 ADD PUSH1 0x40 MSTORE DUP1 PUSH1 0x4 DUP2 MSTORE PUSH1 0x20 ADD PUSH32 0x4672656500000000000000000000000000000000000000000000000000000000 DUP2 MSTORE POP PUSH1 0x40 MLOAD DUP1 PUSH1 0x40 ADD PUSH1 0x40 MSTORE DUP1 PUSH1 0xA DUP2 MSTORE PUSH1 0x20 ADD PUSH32 0x467265655A6F6D62696500000000000000000000000000000000000000000000 DUP2 MSTORE POP PUSH2 0x83A PUSH1 0x40 MLOAD DUP1 PUSH1 0x40 ADD PUSH1 0x40 MSTORE DUP1 PUSH1 0x4 DUP2 MSTORE PUSH1 0x20 ADD PUSH32 0x6672656500000000000000000000000000000000000000000000000000000000 DUP2 MSTORE POP PUSH2 0xA26 JUMP JUMPDEST PUSH1 0x1 PUSH0 DUP1 PUSH1 0x2 PUSH0 DUP1 PUSH2 0xA69 JUMP JUMPDEST JUMP JUMPDEST PUSH1 0x40 MLOAD DUP1 PUSH1 0x40 ADD PUSH1 0x40 MSTORE DUP1 PUSH1 0x7 DUP2 MSTORE PUSH1 0x20 ADD PUSH32 0x7072656D69756D00000000000000000000000000000000000000000000000000 DUP2 MSTORE POP DUP1 MLOAD SWAP1 PUSH1 0x20 ADD KECCAK256 DUP3 DUP1 MLOAD SWAP1 PUSH1 0x20 ADD KECCAK256 EQ DUP1 PUSH2 0x8DC JUMPI POP PUSH1 0x40 MLOAD DUP1 PUSH1 0x40 ADD PUSH1 0x40 MSTORE DUP1 PUSH1 0x7 DUP2 MSTORE PUSH1 0x20 ADD PUSH32 0x4469616D6F6E6400000000000000000000000000000000000000000000000000 DUP2 MSTORE POP DUP1 MLOAD SWAP1 PUSH1 0x20 ADD KECCAK256 DUP3 DUP1 MLOAD SWAP1 PUSH1 0x20 ADD KECCAK256 EQ JUMPDEST PUSH2 0x91B JUMPI PUSH1 0x40 MLOAD PUSH32 0x8C379A000000000000000000000000000000000000000000000000000000000 DUP2 MSTORE PUSH1 0x4 ADD PUSH2 0x912 SWAP1 PUSH2 0x11C9 JUMP JUMPDEST PUSH1 0x40 MLOAD DUP1 SWAP2 SUB SWAP1 REVERT JUMPDEST PUSH0 PUSH2 0x925 DUP3 PUSH2 0xA26 JUMP JUMPDEST SWAP1 POP PUSH2 0x93C DUP4 DUP4 DUP4 PUSH1 0x5 PUSH2 0x1F4 PUSH0 PUSH1 0x5 PUSH0 DUP1 PUSH2 0xA69 JUMP JUMPDEST POP POP POP JUMP JUMPDEST PUSH1 0x1 ISZERO ISZERO PUSH1 0x4 PUSH0 DUP4 DUP2 MSTORE PUSH1 0x20 ADD SWAP1 DUP2 MSTORE PUSH1 0x20 ADD PUSH0 KECCAK256 PUSH0 SWAP1 SLOAD SWAP1 PUSH2 0x100 EXP SWAP1 DIV PUSH1 0xFF AND ISZERO ISZERO EQ PUSH2 0x96E JUMPI PUSH0 DUP1 REVERT JUMPDEST DUP1 PUSH1 0x8 PUSH0 CALLER PUSH20 0xFFFFFFFFFFFFFFFFFFFFFFFFFFFFFFFFFFFFFFFF AND PUSH20 0xFFFFFFFFFFFFFFFFFFFFFFFFFFFFFFFFFFFFFFFF AND DUP2 MSTORE PUSH1 0x20 ADD SWAP1 DUP2 MSTORE PUSH1 0x20 ADD PUSH0 KECCAK256 DUP2 SWAP1 SSTORE POP PUSH0 PUSH1 0x4 PUSH0 DUP4 DUP2 MSTORE PUSH1 0x20 ADD SWAP1 DUP2 MSTORE PUSH1 0x20 ADD PUSH0 KECCAK256 PUSH0 PUSH2 0x100 EXP DUP2 SLOAD DUP2 PUSH1 0xFF MUL NOT AND SWAP1 DUP4 ISZERO ISZERO MUL OR SWAP1 SSTORE POP POP JUMP JUMPDEST PUSH0 DUP1 PUSH1 0x3 DUP1 SLOAD SWAP1 POP SWAP1 POP PUSH0 DUP2 DUP3 TIMESTAMP PUSH1 0x40 MLOAD PUSH1 0x20 ADD PUSH2 0x9FA SWAP3 SWAP2 SWAP1 PUSH2 0x1207 JUMP JUMPDEST PUSH1 0x40 MLOAD PUSH1 0x20 DUP2 DUP4 SUB SUB DUP2 MSTORE SWAP1 PUSH1 0x40 MSTORE DUP1 MLOAD SWAP1 PUSH1 0x20 ADD KECCAK256 PUSH0 SHR PUSH2 0xA1C SWAP2 SWAP1 PUSH2 0x125F JUMP JUMPDEST SWAP1 POP DUP1 SWAP3 POP POP POP SWAP1 JUMP JUMPDEST PUSH0 DUP1 DUP3 PUSH1 0x40 MLOAD PUSH1 0x20 ADD PUSH2 0xA39 SWAP2 SWAP1 PUSH2 0x12C9 JUMP JUMPDEST PUSH1 0x40 MLOAD PUSH1 0x20 DUP2 DUP4 SUB SUB DUP2 MSTORE SWAP1 PUSH1 0x40 MSTORE DUP1 MLOAD SWAP1 PUSH1 0x20 ADD KECCAK256 PUSH0 SHR SWAP1 POP PUSH1 0x2 SLOAD DUP2 PUSH2 0xA61 SWAP2 SWAP1 PUSH2 0x125F JUMP JUMPDEST SWAP2 POP POP SWAP2 SWAP1 POP JUMP JUMPDEST PUSH1 0x3 PUSH1 0x40 MLOAD DUP1 PUSH2 0x120 ADD PUSH1 0x40 MSTORE DUP1 DUP12 DUP2 MSTORE PUSH1 0x20 ADD DUP11 DUP2 MSTORE PUSH1 0x20 ADD DUP10 DUP2 MSTORE PUSH1 0x20 ADD DUP9 DUP2 MSTORE PUSH1 0x20 ADD DUP8 DUP2 MSTORE PUSH1 0x20 ADD DUP7 DUP2 MSTORE PUSH1 0x20 ADD DUP6 DUP2 MSTORE PUSH1 0x20 ADD DUP5 DUP2 MSTORE PUSH1 0x20 ADD DUP4 DUP2 MSTORE POP SWAP1 DUP1 PUSH1 0x1 DUP2 SLOAD ADD DUP1 DUP3 SSTORE DUP1 SWAP2 POP POP PUSH1 0x1 SWAP1 SUB SWAP1 PUSH0 MSTORE PUSH1 0x20 PUSH0 KECCAK256 SWAP1 PUSH1 0x9 MUL ADD PUSH0 SWAP1 SWAP2 SWAP1 SWAP2 SWAP1 SWAP2 POP PUSH0 DUP3 ADD MLOAD DUP2 PUSH0 ADD SWAP1 DUP2 PUSH2 0xAE4 SWAP2 SWAP1 PUSH2 0x14D9 JUMP JUMPDEST POP PUSH1 0x20 DUP3 ADD MLOAD DUP2 PUSH1 0x1 ADD SWAP1 DUP2 PUSH2 0xAFA SWAP2 SWAP1 PUSH2 0x14D9 JUMP JUMPDEST POP PUSH1 0x40 DUP3 ADD MLOAD DUP2 PUSH1 0x2 ADD SSTORE PUSH1 0x60 DUP3 ADD MLOAD DUP2 PUSH1 0x3 ADD SSTORE PUSH1 0x80 DUP3 ADD MLOAD DUP2 PUSH1 0x4 ADD SSTORE PUSH1 0xA0 DUP3 ADD MLOAD DUP2 PUSH1 0x5 ADD SSTORE PUSH1 0xC0 DUP3 ADD MLOAD DUP2 PUSH1 0x6 ADD SSTORE PUSH1 0xE0 DUP3 ADD MLOAD DUP2 PUSH1 0x7 ADD SSTORE PUSH2 0x100 DUP3 ADD MLOAD DUP2 PUSH1 0x8 ADD SSTORE POP POP PUSH0 PUSH1 0x1 PUSH1 0x3 DUP1 SLOAD SWAP1 POP PUSH2 0xB57 SWAP2 SWAP1 PUSH2 0x15A8 JUMP JUMPDEST SWAP1 POP PUSH1 0x1 PUSH0 CALLER PUSH20 0xFFFFFFFFFFFFFFFFFFFFFFFFFFFFFFFFFFFFFFFF AND PUSH20 0xFFFFFFFFFFFFFFFFFFFFFFFFFFFFFFFFFFFFFFFF AND DUP2 MSTORE PUSH1 0x20 ADD SWAP1 DUP2 MSTORE PUSH1 0x20 ADD PUSH0 KECCAK256 PUSH0 DUP2 SLOAD DUP1 SWAP3 SWAP2 SWAP1 PUSH2 0xBA6 SWAP1 PUSH2 0x1076 JUMP JUMPDEST SWAP2 SWAP1 POP SSTORE POP CALLER PUSH0 DUP1 DUP4 DUP2 MSTORE PUSH1 0x20 ADD SWAP1 DUP2 MSTORE PUSH1 0x20 ADD PUSH0 KECCAK256 PUSH0 PUSH2 0x100 EXP DUP2 SLOAD DUP2 PUSH20 0xFFFFFFFFFFFFFFFFFFFFFFFFFFFFFFFFFFFFFFFF MUL NOT AND SWAP1 DUP4 PUSH20 0xFFFFFFFFFFFFFFFFFFFFFFFFFFFFFFFFFFFFFFFF AND MUL OR SWAP1 SSTORE POP POP POP POP POP POP POP POP POP POP POP JUMP JUMPDEST PUSH0 PUSH1 0x40 MLOAD SWAP1 POP SWAP1 JUMP JUMPDEST PUSH0 DUP1 REVERT JUMPDEST PUSH0 DUP1 REVERT JUMPDEST PUSH0 PUSH20 0xFFFFFFFFFFFFFFFFFFFFFFFFFFFFFFFFFFFFFFFF DUP3 AND SWAP1 POP SWAP2 SWAP1 POP JUMP JUMPDEST PUSH0 PUSH2 0xC3F DUP3 PUSH2 0xC16 JUMP JUMPDEST SWAP1 POP SWAP2 SWAP1 POP JUMP JUMPDEST PUSH2 0xC4F DUP2 PUSH2 0xC35 JUMP JUMPDEST DUP2 EQ PUSH2 0xC59 JUMPI PUSH0 DUP1 REVERT JUMPDEST POP JUMP JUMPDEST PUSH0 DUP2 CALLDATALOAD SWAP1 POP PUSH2 0xC6A DUP2 PUSH2 0xC46 JUMP JUMPDEST SWAP3 SWAP2 POP POP JUMP JUMPDEST PUSH0 PUSH1 0x20 DUP3 DUP5 SUB SLT ISZERO PUSH2 0xC85 JUMPI PUSH2 0xC84 PUSH2 0xC0E JUMP JUMPDEST JUMPDEST PUSH0 PUSH2 0xC92 DUP5 DUP3 DUP6 ADD PUSH2 0xC5C JUMP JUMPDEST SWAP2 POP POP SWAP3 SWAP2 POP POP JUMP JUMPDEST PUSH0 DUP2 MLOAD SWAP1 POP SWAP2 SWAP1 POP JUMP JUMPDEST PUSH0 DUP3 DUP3 MSTORE PUSH1 0x20 DUP3 ADD SWAP1 POP SWAP3 SWAP2 POP POP JUMP JUMPDEST PUSH0 DUP2 SWAP1 POP PUSH1 0x20 DUP3 ADD SWAP1 POP SWAP2 SWAP1 POP JUMP JUMPDEST PUSH0 DUP2 SWAP1 POP SWAP2 SWAP1 POP JUMP JUMPDEST PUSH2 0xCD6 DUP2 PUSH2 0xCC4 JUMP JUMPDEST DUP3 MSTORE POP POP JUMP JUMPDEST PUSH0 PUSH2 0xCE7 DUP4 DUP4 PUSH2 0xCCD JUMP JUMPDEST PUSH1 0x20 DUP4 ADD SWAP1 POP SWAP3 SWAP2 POP POP JUMP JUMPDEST PUSH0 PUSH1 0x20 DUP3 ADD SWAP1 POP SWAP2 SWAP1 POP JUMP JUMPDEST PUSH0 PUSH2 0xD09 DUP3 PUSH2 0xC9B JUMP JUMPDEST PUSH2 0xD13 DUP2 DUP6 PUSH2 0xCA5 JUMP JUMPDEST SWAP4 POP PUSH2 0xD1E DUP4 PUSH2 0xCB5 JUMP JUMPDEST DUP1 PUSH0 JUMPDEST DUP4 DUP2 LT ISZERO PUSH2 0xD4E JUMPI DUP2 MLOAD PUSH2 0xD35 DUP9 DUP3 PUSH2 0xCDC JUMP JUMPDEST SWAP8 POP PUSH2 0xD40 DUP4 PUSH2 0xCF3 JUMP JUMPDEST SWAP3 POP POP PUSH1 0x1 DUP2 ADD SWAP1 POP PUSH2 0xD21 JUMP JUMPDEST POP DUP6 SWAP4 POP POP POP POP SWAP3 SWAP2 POP POP JUMP JUMPDEST PUSH0 PUSH1 0x20 DUP3 ADD SWAP1 POP DUP2 DUP2 SUB PUSH0 DUP4 ADD MSTORE PUSH2 0xD73 DUP2 DUP5 PUSH2 0xCFF JUMP JUMPDEST SWAP1 POP SWAP3 SWAP2 POP POP JUMP JUMPDEST PUSH2 0xD84 DUP2 PUSH2 0xCC4 JUMP JUMPDEST DUP2 EQ PUSH2 0xD8E JUMPI PUSH0 DUP1 REVERT JUMPDEST POP JUMP JUMPDEST PUSH0 DUP2 CALLDATALOAD SWAP1 POP PUSH2 0xD9F DUP2 PUSH2 0xD7B JUMP JUMPDEST SWAP3 SWAP2 POP POP JUMP JUMPDEST PUSH0 PUSH1 0x20 DUP3 DUP5 SUB SLT ISZERO PUSH2 0xDBA JUMPI PUSH2 0xDB9 PUSH2 0xC0E JUMP JUMPDEST JUMPDEST PUSH0 PUSH2 0xDC7 DUP5 DUP3 DUP6 ADD PUSH2 0xD91 JUMP JUMPDEST SWAP2 POP POP SWAP3 SWAP2 POP POP JUMP JUMPDEST PUSH0 DUP2 MLOAD SWAP1 POP SWAP2 SWAP1 POP JUMP JUMPDEST PUSH0 DUP3 DUP3 MSTORE PUSH1 0x20 DUP3 ADD SWAP1 POP SWAP3 SWAP2 POP POP JUMP JUMPDEST PUSH0 JUMPDEST DUP4 DUP2 LT ISZERO PUSH2 0xE07 JUMPI DUP1 DUP3 ADD MLOAD DUP2 DUP5 ADD MSTORE PUSH1 0x20 DUP2 ADD SWAP1 POP PUSH2 0xDEC JUMP JUMPDEST PUSH0 DUP5 DUP5 ADD MSTORE POP POP POP POP JUMP JUMPDEST PUSH0 PUSH1 0x1F NOT PUSH1 0x1F DUP4 ADD AND SWAP1 POP SWAP2 SWAP1 POP JUMP JUMPDEST PUSH0 PUSH2 0xE2C DUP3 PUSH2 0xDD0 JUMP JUMPDEST PUSH2 0xE36 DUP2 DUP6 PUSH2 0xDDA JUMP JUMPDEST SWAP4 POP PUSH2 0xE46 DUP2 DUP6 PUSH1 0x20 DUP7 ADD PUSH2 0xDEA JUMP JUMPDEST PUSH2 0xE4F DUP2 PUSH2 0xE12 JUMP JUMPDEST DUP5 ADD SWAP2 POP POP SWAP3 SWAP2 POP POP JUMP JUMPDEST PUSH0 PUSH1 0x20 DUP3 ADD SWAP1 POP DUP2 DUP2 SUB PUSH0 DUP4 ADD MSTORE PUSH2 0xE72 DUP2 DUP5 PUSH2 0xE22 JUMP JUMPDEST SWAP1 POP SWAP3 SWAP2 POP POP JUMP JUMPDEST PUSH0 DUP1 REVERT JUMPDEST PUSH0 DUP1 REVERT JUMPDEST PUSH32 0x4E487B7100000000000000000000000000000000000000000000000000000000 PUSH0 MSTORE PUSH1 0x41 PUSH1 0x4 MSTORE PUSH1 0x24 PUSH0 REVERT JUMPDEST PUSH2 0xEB8 DUP3 PUSH2 0xE12 JUMP JUMPDEST DUP2 ADD DUP2 DUP2 LT PUSH8 0xFFFFFFFFFFFFFFFF DUP3 GT OR ISZERO PUSH2 0xED7 JUMPI PUSH2 0xED6 PUSH2 0xE82 JUMP JUMPDEST JUMPDEST DUP1 PUSH1 0x40 MSTORE POP POP POP JUMP JUMPDEST PUSH0 PUSH2 0xEE9 PUSH2 0xC05 JUMP JUMPDEST SWAP1 POP PUSH2 0xEF5 DUP3 DUP3 PUSH2 0xEAF JUMP JUMPDEST SWAP2 SWAP1 POP JUMP JUMPDEST PUSH0 PUSH8 0xFFFFFFFFFFFFFFFF DUP3 GT ISZERO PUSH2 0xF14 JUMPI PUSH2 0xF13 PUSH2 0xE82 JUMP JUMPDEST JUMPDEST PUSH2 0xF1D DUP3 PUSH2 0xE12 JUMP JUMPDEST SWAP1 POP PUSH1 0x20 DUP2 ADD SWAP1 POP SWAP2 SWAP1 POP JUMP JUMPDEST DUP3 DUP2 DUP4 CALLDATACOPY PUSH0 DUP4 DUP4 ADD MSTORE POP POP POP JUMP JUMPDEST PUSH0 PUSH2 0xF4A PUSH2 0xF45 DUP5 PUSH2 0xEFA JUMP JUMPDEST PUSH2 0xEE0 JUMP JUMPDEST SWAP1 POP DUP3 DUP2 MSTORE PUSH1 0x20 DUP2 ADD DUP5 DUP5 DUP5 ADD GT ISZERO PUSH2 0xF66 JUMPI PUSH2 0xF65 PUSH2 0xE7E JUMP JUMPDEST JUMPDEST PUSH2 0xF71 DUP5 DUP3 DUP6 PUSH2 0xF2A JUMP JUMPDEST POP SWAP4 SWAP3 POP POP POP JUMP JUMPDEST PUSH0 DUP3 PUSH1 0x1F DUP4 ADD SLT PUSH2 0xF8D JUMPI PUSH2 0xF8C PUSH2 0xE7A JUMP JUMPDEST JUMPDEST DUP2 CALLDATALOAD PUSH2 0xF9D DUP5 DUP3 PUSH1 0x20 DUP7 ADD PUSH2 0xF38 JUMP JUMPDEST SWAP2 POP POP SWAP3 SWAP2 POP POP JUMP JUMPDEST PUSH0 DUP1 PUSH1 0x40 DUP4 DUP6 SUB SLT ISZERO PUSH2 0xFBC JUMPI PUSH2 0xFBB PUSH2 0xC0E JUMP JUMPDEST JUMPDEST PUSH0 DUP4 ADD CALLDATALOAD PUSH8 0xFFFFFFFFFFFFFFFF DUP2 GT ISZERO PUSH2 0xFD9 JUMPI PUSH2 0xFD8 PUSH2 0xC12 JUMP JUMPDEST JUMPDEST PUSH2 0xFE5 DUP6 DUP3 DUP7 ADD PUSH2 0xF79 JUMP JUMPDEST SWAP3 POP POP PUSH1 0x20 DUP4 ADD CALLDATALOAD PUSH8 0xFFFFFFFFFFFFFFFF DUP2 GT ISZERO PUSH2 0x1006 JUMPI PUSH2 0x1005 PUSH2 0xC12 JUMP JUMPDEST JUMPDEST PUSH2 0x1012 DUP6 DUP3 DUP7 ADD PUSH2 0xF79 JUMP JUMPDEST SWAP2 POP POP SWAP3 POP SWAP3 SWAP1 POP JUMP JUMPDEST PUSH32 0x4E487B7100000000000000000000000000000000000000000000000000000000 PUSH0 MSTORE PUSH1 0x32 PUSH1 0x4 MSTORE PUSH1 0x24 PUSH0 REVERT JUMPDEST PUSH32 0x4E487B7100000000000000000000000000000000000000000000000000000000 PUSH0 MSTORE PUSH1 0x11 PUSH1 0x4 MSTORE PUSH1 0x24 PUSH0 REVERT JUMPDEST PUSH0 PUSH2 0x1080 DUP3 PUSH2 0xCC4 JUMP JUMPDEST SWAP2 POP PUSH32 0xFFFFFFFFFFFFFFFFFFFFFFFFFFFFFFFFFFFFFFFFFFFFFFFFFFFFFFFFFFFFFFFF DUP3 SUB PUSH2 0x10B2 JUMPI PUSH2 0x10B1 PUSH2 0x1049 JUMP JUMPDEST JUMPDEST PUSH1 0x1 DUP3 ADD SWAP1 POP SWAP2 SWAP1 POP JUMP JUMPDEST PUSH0 PUSH2 0x10C7 DUP3 PUSH2 0xCC4 JUMP JUMPDEST SWAP2 POP PUSH2 0x10D2 DUP4 PUSH2 0xCC4 JUMP JUMPDEST SWAP3 POP DUP3 DUP3 ADD SWAP1 POP DUP1 DUP3 GT ISZERO PUSH2 0x10EA JUMPI PUSH2 0x10E9 PUSH2 0x1049 JUMP JUMPDEST JUMPDEST SWAP3 SWAP2 POP POP JUMP JUMPDEST PUSH0 PUSH2 0x10FA DUP3 PUSH2 0xCC4 JUMP JUMPDEST SWAP2 POP PUSH0 DUP3 SUB PUSH2 0x110C JUMPI PUSH2 0x110B PUSH2 0x1049 JUMP JUMPDEST JUMPDEST PUSH1 0x1 DUP3 SUB SWAP1 POP SWAP2 SWAP1 POP JUMP JUMPDEST PUSH32 0x416C726561647920686176652031206E66742E00000000000000000000000000 PUSH0 DUP3 ADD MSTORE POP JUMP JUMPDEST PUSH0 PUSH2 0x114B PUSH1 0x13 DUP4 PUSH2 0xDDA JUMP JUMPDEST SWAP2 POP PUSH2 0x1156 DUP3 PUSH2 0x1117 JUMP JUMPDEST PUSH1 0x20 DUP3 ADD SWAP1 POP SWAP2 SWAP1 POP JUMP JUMPDEST PUSH0 PUSH1 0x20 DUP3 ADD SWAP1 POP DUP2 DUP2 SUB PUSH0 DUP4 ADD MSTORE PUSH2 0x1178 DUP2 PUSH2 0x113F JUMP JUMPDEST SWAP1 POP SWAP2 SWAP1 POP JUMP JUMPDEST PUSH32 0x436F7272656374205370656C6C696E6700000000000000000000000000000000 PUSH0 DUP3 ADD MSTORE POP JUMP JUMPDEST PUSH0 PUSH2 0x11B3 PUSH1 0x10 DUP4 PUSH2 0xDDA JUMP JUMPDEST SWAP2 POP PUSH2 0x11BE DUP3 PUSH2 0x117F JUMP JUMPDEST PUSH1 0x20 DUP3 ADD SWAP1 POP SWAP2 SWAP1 POP JUMP JUMPDEST PUSH0 PUSH1 0x20 DUP3 ADD SWAP1 POP DUP2 DUP2 SUB PUSH0 DUP4 ADD MSTORE PUSH2 0x11E0 DUP2 PUSH2 0x11A7 JUMP JUMPDEST SWAP1 POP SWAP2 SWAP1 POP JUMP JUMPDEST PUSH0 DUP2 SWAP1 POP SWAP2 SWAP1 POP JUMP JUMPDEST PUSH2 0x1201 PUSH2 0x11FC DUP3 PUSH2 0xCC4 JUMP JUMPDEST PUSH2 0x11E7 JUMP JUMPDEST DUP3 MSTORE POP POP JUMP JUMPDEST PUSH0 PUSH2 0x1212 DUP3 DUP6 PUSH2 0x11F0 JUMP JUMPDEST PUSH1 0x20 DUP3 ADD SWAP2 POP PUSH2 0x1222 DUP3 DUP5 PUSH2 0x11F0 JUMP JUMPDEST PUSH1 0x20 DUP3 ADD SWAP2 POP DUP2 SWAP1 POP SWAP4 SWAP3 POP POP POP JUMP JUMPDEST PUSH32 0x4E487B7100000000000000000000000000000000000000000000000000000000 PUSH0 MSTORE PUSH1 0x12 PUSH1 0x4 MSTORE PUSH1 0x24 PUSH0 REVERT JUMPDEST PUSH0 PUSH2 0x1269 DUP3 PUSH2 0xCC4 JUMP JUMPDEST SWAP2 POP PUSH2 0x1274 DUP4 PUSH2 0xCC4 JUMP JUMPDEST SWAP3 POP DUP3 PUSH2 0x1284 JUMPI PUSH2 0x1283 PUSH2 0x1232 JUMP JUMPDEST JUMPDEST DUP3 DUP3 MOD SWAP1 POP SWAP3 SWAP2 POP POP JUMP JUMPDEST PUSH0 DUP2 SWAP1 POP SWAP3 SWAP2 POP POP JUMP JUMPDEST PUSH0 PUSH2 0x12A3 DUP3 PUSH2 0xDD0 JUMP JUMPDEST PUSH2 0x12AD DUP2 DUP6 PUSH2 0x128F JUMP JUMPDEST SWAP4 POP PUSH2 0x12BD DUP2 DUP6 PUSH1 0x20 DUP7 ADD PUSH2 0xDEA JUMP JUMPDEST DUP1 DUP5 ADD SWAP2 POP POP SWAP3 SWAP2 POP POP JUMP JUMPDEST PUSH0 PUSH2 0x12D4 DUP3 DUP5 PUSH2 0x1299 JUMP JUMPDEST SWAP2 POP DUP2 SWAP1 POP SWAP3 SWAP2 POP POP JUMP JUMPDEST PUSH32 0x4E487B7100000000000000000000000000000000000000000000000000000000 PUSH0 MSTORE PUSH1 0x22 PUSH1 0x4 MSTORE PUSH1 0x24 PUSH0 REVERT JUMPDEST PUSH0 PUSH1 0x2 DUP3 DIV SWAP1 POP PUSH1 0x1 DUP3 AND DUP1 PUSH2 0x1323 JUMPI PUSH1 0x7F DUP3 AND SWAP2 POP JUMPDEST PUSH1 0x20 DUP3 LT DUP2 SUB PUSH2 0x1336 JUMPI PUSH2 0x1335 PUSH2 0x12DF JUMP JUMPDEST JUMPDEST POP SWAP2 SWAP1 POP JUMP JUMPDEST PUSH0 DUP2 SWAP1 POP DUP2 PUSH0 MSTORE PUSH1 0x20 PUSH0 KECCAK256 SWAP1 POP SWAP2 SWAP1 POP JUMP JUMPDEST PUSH0 PUSH1 0x20 PUSH1 0x1F DUP4 ADD DIV SWAP1 POP SWAP2 SWAP1 POP JUMP JUMPDEST PUSH0 DUP3 DUP3 SHL SWAP1 POP SWAP3 SWAP2 POP POP JUMP JUMPDEST PUSH0 PUSH1 0x8 DUP4 MUL PUSH2 0x1398 PUSH32 0xFFFFFFFFFFFFFFFFFFFFFFFFFFFFFFFFFFFFFFFFFFFFFFFFFFFFFFFFFFFFFFFF DUP3 PUSH2 0x135D JUMP JUMPDEST PUSH2 0x13A2 DUP7 DUP4 PUSH2 0x135D JUMP JUMPDEST SWAP6 POP DUP1 NOT DUP5 AND SWAP4 POP DUP1 DUP7 AND DUP5 OR SWAP3 POP POP POP SWAP4 SWAP3 POP POP POP JUMP JUMPDEST PUSH0 DUP2 SWAP1 POP SWAP2 SWAP1 POP JUMP JUMPDEST PUSH0 PUSH2 0x13DD PUSH2 0x13D8 PUSH2 0x13D3 DUP5 PUSH2 0xCC4 JUMP JUMPDEST PUSH2 0x13BA JUMP JUMPDEST PUSH2 0xCC4 JUMP JUMPDEST SWAP1 POP SWAP2 SWAP1 POP JUMP JUMPDEST PUSH0 DUP2 SWAP1 POP SWAP2 SWAP1 POP JUMP JUMPDEST PUSH2 0x13F6 DUP4 PUSH2 0x13C3 JUMP JUMPDEST PUSH2 0x140A PUSH2 0x1402 DUP3 PUSH2 0x13E4 JUMP JUMPDEST DUP5 DUP5 SLOAD PUSH2 0x1369 JUMP JUMPDEST DUP3 SSTORE POP POP POP POP JUMP JUMPDEST PUSH0 SWAP1 JUMP JUMPDEST PUSH2 0x141E PUSH2 0x1412 JUMP JUMPDEST PUSH2 0x1429 DUP2 DUP5 DUP5 PUSH2 0x13ED JUMP JUMPDEST POP POP POP JUMP JUMPDEST JUMPDEST DUP2 DUP2 LT ISZERO PUSH2 0x144C JUMPI PUSH2 0x1441 PUSH0 DUP3 PUSH2 0x1416 JUMP JUMPDEST PUSH1 0x1 DUP2 ADD SWAP1 POP PUSH2 0x142F JUMP JUMPDEST POP POP JUMP JUMPDEST PUSH1 0x1F DUP3 GT ISZERO PUSH2 0x1491 JUMPI PUSH2 0x1462 DUP2 PUSH2 0x133C JUMP JUMPDEST PUSH2 0x146B DUP5 PUSH2 0x134E JUMP JUMPDEST DUP2 ADD PUSH1 0x20 DUP6 LT ISZERO PUSH2 0x147A JUMPI DUP2 SWAP1 POP JUMPDEST PUSH2 0x148E PUSH2 0x1486 DUP6 PUSH2 0x134E JUMP JUMPDEST DUP4 ADD DUP3 PUSH2 0x142E JUMP JUMPDEST POP POP JUMPDEST POP POP POP JUMP JUMPDEST PUSH0 DUP3 DUP3 SHR SWAP1 POP SWAP3 SWAP2 POP POP JUMP JUMPDEST PUSH0 PUSH2 0x14B1 PUSH0 NOT DUP5 PUSH1 0x8 MUL PUSH2 0x1496 JUMP JUMPDEST NOT DUP1 DUP4 AND SWAP2 POP POP SWAP3 SWAP2 POP POP JUMP JUMPDEST PUSH0 PUSH2 0x14C9 DUP4 DUP4 PUSH2 0x14A2 JUMP JUMPDEST SWAP2 POP DUP3 PUSH1 0x2 MUL DUP3 OR SWAP1 POP SWAP3 SWAP2 POP POP JUMP JUMPDEST PUSH2 0x14E2 DUP3 PUSH2 0xDD0 JUMP JUMPDEST PUSH8 0xFFFFFFFFFFFFFFFF DUP2 GT ISZERO PUSH2 0x14FB JUMPI PUSH2 0x14FA PUSH2 0xE82 JUMP JUMPDEST JUMPDEST PUSH2 0x1505 DUP3 SLOAD PUSH2 0x130C JUMP JUMPDEST PUSH2 0x1510 DUP3 DUP3 DUP6 PUSH2 0x1450 JUMP JUMPDEST PUSH0 PUSH1 0x20 SWAP1 POP PUSH1 0x1F DUP4 GT PUSH1 0x1 DUP2 EQ PUSH2 0x1541 JUMPI PUSH0 DUP5 ISZERO PUSH2 0x152F JUMPI DUP3 DUP8 ADD MLOAD SWAP1 POP JUMPDEST PUSH2 0x1539 DUP6 DUP3 PUSH2 0x14BE JUMP JUMPDEST DUP7 SSTORE POP PUSH2 0x15A0 JUMP JUMPDEST PUSH1 0x1F NOT DUP5 AND PUSH2 0x154F DUP7 PUSH2 0x133C JUMP JUMPDEST PUSH0 JUMPDEST DUP3 DUP2 LT ISZERO PUSH2 0x1576 JUMPI DUP5 DUP10 ADD MLOAD DUP3 SSTORE PUSH1 0x1 DUP3 ADD SWAP2 POP PUSH1 0x20 DUP6 ADD SWAP5 POP PUSH1 0x20 DUP2 ADD SWAP1 POP PUSH2 0x1551 JUMP JUMPDEST DUP7 DUP4 LT ISZERO PUSH2 0x1593 JUMPI DUP5 DUP10 ADD MLOAD PUSH2 0x158F PUSH1 0x1F DUP10 AND DUP3 PUSH2 0x14A2 JUMP JUMPDEST DUP4 SSTORE POP JUMPDEST PUSH1 0x1 PUSH1 0x2 DUP9 MUL ADD DUP9 SSTORE POP POP POP JUMPDEST POP POP POP POP POP POP JUMP JUMPDEST PUSH0 PUSH2 0x15B2 DUP3 PUSH2 0xCC4 JUMP JUMPDEST SWAP2 POP PUSH2 0x15BD DUP4 PUSH2 0xCC4 JUMP JUMPDEST SWAP3 POP DUP3 DUP3 SUB SWAP1 POP DUP2 DUP2 GT ISZERO PUSH2 0x15D5 JUMPI PUSH2 0x15D4 PUSH2 0x1049 JUMP JUMPDEST JUMPDEST SWAP3 SWAP2 POP POP JUMP INVALID JUMPI PUSH10 0x6E20416E64204C6F6F73 PUSH6 0x206973207468 PUSH6 0x207061727420 PUSH16 0x66207468652047616D652E5472792041 PUSH8 0x61696E212EA26469 PUSH17 0x6673582212202FA5479592357E09E16313 PUSH8 0xB542A5F2A8675F46 PUSH4 0x66401D0D PUSH24 0xF322C57C58AD64736F6C6343000814003300000000000000 "
				},
				"gasEstimates": {
					"creation": {
						"codeDepositCost": "1139600",
						"executionCost": "23291",
						"totalCost": "1162891"
					},
					"external": {
						"BuyOnRent(uint256)": "49277",
						"BuyZombie(string,string)": "infinite",
						"Fight(uint256)": "infinite",
						"FreeZombie()": "infinite",
						"ZombieVsZombie(uint256)": "infinite",
						"ownerZombies(address)": "infinite"
					}
				},
				"methodIdentifiers": {
					"BuyOnRent(uint256)": "e70364d4",
					"BuyZombie(string,string)": "cb9940b7",
					"Fight(uint256)": "7138d32d",
					"FreeZombie()": "b81c3db7",
					"ZombieVsZombie(uint256)": "a85b2ba7",
					"ownerZombies(address)": "3c956b05"
				}
			},
			"storageLayout": {
				"storage": [
					{
						"astId": 5,
						"contract": "contracts/ZombieGame.sol:GetZombie",
						"label": "ZombieOwner",
						"offset": 0,
						"slot": "0",
						"type": "t_mapping(t_uint256,t_address)"
					},
					{
						"astId": 9,
						"contract": "contracts/ZombieGame.sol:GetZombie",
						"label": "ZombieCount",
						"offset": 0,
						"slot": "1",
						"type": "t_mapping(t_address,t_uint256)"
					},
					{
						"astId": 33,
						"contract": "contracts/ZombieGame.sol:GetZombie",
						"label": "dnaLength",
						"offset": 0,
						"slot": "2",
						"type": "t_uint256"
					},
					{
						"astId": 37,
						"contract": "contracts/ZombieGame.sol:GetZombie",
						"label": "zombies",
						"offset": 0,
						"slot": "3",
						"type": "t_array(t_struct(zombieDetails)28_storage)dyn_storage"
					},
					{
						"astId": 126,
						"contract": "contracts/ZombieGame.sol:GetZombie",
						"label": "onRent",
						"offset": 0,
						"slot": "4",
						"type": "t_mapping(t_uint256,t_bool)"
					},
					{
						"astId": 132,
						"contract": "contracts/ZombieGame.sol:GetZombie",
						"label": "Allowance",
						"offset": 0,
						"slot": "5",
						"type": "t_mapping(t_address,t_mapping(t_address,t_uint256))"
					},
					{
						"astId": 136,
						"contract": "contracts/ZombieGame.sol:GetZombie",
						"label": "Approve",
						"offset": 0,
						"slot": "6",
						"type": "t_mapping(t_address,t_address)"
					},
					{
						"astId": 140,
						"contract": "contracts/ZombieGame.sol:GetZombie",
						"label": "Timing",
						"offset": 0,
						"slot": "7",
						"type": "t_mapping(t_uint256,t_uint256)"
					},
					{
						"astId": 477,
						"contract": "contracts/ZombieGame.sol:GetZombie",
						"label": "RentedNft",
						"offset": 0,
						"slot": "8",
						"type": "t_mapping(t_address,t_uint256)"
					}
				],
				"types": {
					"t_address": {
						"encoding": "inplace",
						"label": "address",
						"numberOfBytes": "20"
					},
					"t_array(t_struct(zombieDetails)28_storage)dyn_storage": {
						"base": "t_struct(zombieDetails)28_storage",
						"encoding": "dynamic_array",
						"label": "struct ZombieGame.zombieDetails[]",
						"numberOfBytes": "32"
					},
					"t_bool": {
						"encoding": "inplace",
						"label": "bool",
						"numberOfBytes": "1"
					},
					"t_mapping(t_address,t_address)": {
						"encoding": "mapping",
						"key": "t_address",
						"label": "mapping(address => address)",
						"numberOfBytes": "32",
						"value": "t_address"
					},
					"t_mapping(t_address,t_mapping(t_address,t_uint256))": {
						"encoding": "mapping",
						"key": "t_address",
						"label": "mapping(address => mapping(address => uint256))",
						"numberOfBytes": "32",
						"value": "t_mapping(t_address,t_uint256)"
					},
					"t_mapping(t_address,t_uint256)": {
						"encoding": "mapping",
						"key": "t_address",
						"label": "mapping(address => uint256)",
						"numberOfBytes": "32",
						"value": "t_uint256"
					},
					"t_mapping(t_uint256,t_address)": {
						"encoding": "mapping",
						"key": "t_uint256",
						"label": "mapping(uint256 => address)",
						"numberOfBytes": "32",
						"value": "t_address"
					},
					"t_mapping(t_uint256,t_bool)": {
						"encoding": "mapping",
						"key": "t_uint256",
						"label": "mapping(uint256 => bool)",
						"numberOfBytes": "32",
						"value": "t_bool"
					},
					"t_mapping(t_uint256,t_uint256)": {
						"encoding": "mapping",
						"key": "t_uint256",
						"label": "mapping(uint256 => uint256)",
						"numberOfBytes": "32",
						"value": "t_uint256"
					},
					"t_string_storage": {
						"encoding": "bytes",
						"label": "string",
						"numberOfBytes": "32"
					},
					"t_struct(zombieDetails)28_storage": {
						"encoding": "inplace",
						"label": "struct ZombieGame.zombieDetails",
						"members": [
							{
								"astId": 11,
								"contract": "contracts/ZombieGame.sol:GetZombie",
								"label": "plan",
								"offset": 0,
								"slot": "0",
								"type": "t_string_storage"
							},
							{
								"astId": 13,
								"contract": "contracts/ZombieGame.sol:GetZombie",
								"label": "name",
								"offset": 0,
								"slot": "1",
								"type": "t_string_storage"
							},
							{
								"astId": 15,
								"contract": "contracts/ZombieGame.sol:GetZombie",
								"label": "dna",
								"offset": 0,
								"slot": "2",
								"type": "t_uint256"
							},
							{
								"astId": 17,
								"contract": "contracts/ZombieGame.sol:GetZombie",
								"label": "level",
								"offset": 0,
								"slot": "3",
								"type": "t_uint256"
							},
							{
								"astId": 19,
								"contract": "contracts/ZombieGame.sol:GetZombie",
								"label": "xp",
								"offset": 0,
								"slot": "4",
								"type": "t_uint256"
							},
							{
								"astId": 21,
								"contract": "contracts/ZombieGame.sol:GetZombie",
								"label": "TotalMatch",
								"offset": 0,
								"slot": "5",
								"type": "t_uint256"
							},
							{
								"astId": 23,
								"contract": "contracts/ZombieGame.sol:GetZombie",
								"label": "MatchLeft",
								"offset": 0,
								"slot": "6",
								"type": "t_uint256"
							},
							{
								"astId": 25,
								"contract": "contracts/ZombieGame.sol:GetZombie",
								"label": "Wins",
								"offset": 0,
								"slot": "7",
								"type": "t_uint256"
							},
							{
								"astId": 27,
								"contract": "contracts/ZombieGame.sol:GetZombie",
								"label": "Looses",
								"offset": 0,
								"slot": "8",
								"type": "t_uint256"
							}
						],
						"numberOfBytes": "288"
					},
					"t_uint256": {
						"encoding": "inplace",
						"label": "uint256",
						"numberOfBytes": "32"
					}
				}
			},
			"userdoc": {
				"kind": "user",
				"methods": {},
				"version": 1
			}
		}
	}
}