{
	"contracts/ZombieGame.sol": {
		"FightZombies": {
			"abi": [
				{
					"inputs": [
						{
							"internalType": "uint256",
							"name": "yourZombie",
							"type": "uint256"
						}
					],
					"name": "ZombieVsZombie",
					"outputs": [
						{
							"internalType": "string",
							"name": "Result",
							"type": "string"
						}
					],
					"stateMutability": "nonpayable",
					"type": "function"
				}
			],
			"devdoc": {
				"kind": "dev",
				"methods": {},
				"version": 1
			},
			"evm": {
				"assembly": "    /* \"contracts/ZombieGame.sol\":2149:3823  contract FightZombies is ZombieGame {... */\n  mstore(0x40, 0x80)\n    /* \"contracts/ZombieGame.sol\":446:454  10 ** 16 */\n  0x2386f26fc10000\n    /* \"contracts/ZombieGame.sol\":429:454  uint dnaLength = 10 ** 16 */\n  0x02\n  sstore\n    /* \"contracts/ZombieGame.sol\":2149:3823  contract FightZombies is ZombieGame {... */\n  callvalue\n  dup1\n  iszero\n  tag_1\n  jumpi\n  0x00\n  dup1\n  revert\ntag_1:\n  pop\n  dataSize(sub_0)\n  dup1\n  dataOffset(sub_0)\n  0x00\n  codecopy\n  0x00\n  return\nstop\n\nsub_0: assembly {\n        /* \"contracts/ZombieGame.sol\":2149:3823  contract FightZombies is ZombieGame {... */\n      mstore(0x40, 0x80)\n      callvalue\n      dup1\n      iszero\n      tag_1\n      jumpi\n      0x00\n      dup1\n      revert\n    tag_1:\n      pop\n      jumpi(tag_2, lt(calldatasize, 0x04))\n      shr(0xe0, calldataload(0x00))\n      dup1\n      0xa85b2ba7\n      eq\n      tag_3\n      jumpi\n    tag_2:\n      0x00\n      dup1\n      revert\n        /* \"contracts/ZombieGame.sol\":2430:3814  function ZombieVsZombie(uint yourZombie) public returns(string memory Result){... */\n    tag_3:\n      tag_4\n      0x04\n      dup1\n      calldatasize\n      sub\n      dup2\n      add\n      swap1\n      tag_5\n      swap2\n      swap1\n      tag_6\n      jump\t// in\n    tag_5:\n      tag_7\n      jump\t// in\n    tag_4:\n      mload(0x40)\n      tag_8\n      swap2\n      swap1\n      tag_9\n      jump\t// in\n    tag_8:\n      mload(0x40)\n      dup1\n      swap2\n      sub\n      swap1\n      return\n    tag_7:\n        /* \"contracts/ZombieGame.sol\":2486:2506  string memory Result */\n      0x60\n        /* \"contracts/ZombieGame.sol\":2518:2534  uint enemyZombie */\n      0x00\n        /* \"contracts/ZombieGame.sol\":2537:2550  randomEnemy() */\n      tag_11\n        /* \"contracts/ZombieGame.sol\":2537:2548  randomEnemy */\n      tag_12\n        /* \"contracts/ZombieGame.sol\":2537:2550  randomEnemy() */\n      jump\t// in\n    tag_11:\n        /* \"contracts/ZombieGame.sol\":2518:2550  uint enemyZombie = randomEnemy() */\n      swap1\n      pop\n        /* \"contracts/ZombieGame.sol\":2563:2595  zombieDetails storage YourZombie */\n      0x00\n        /* \"contracts/ZombieGame.sol\":2598:2605  zombies */\n      0x03\n        /* \"contracts/ZombieGame.sol\":2606:2616  yourZombie */\n      dup5\n        /* \"contracts/ZombieGame.sol\":2598:2617  zombies[yourZombie] */\n      dup2\n      sload\n      dup2\n      lt\n      tag_13\n      jumpi\n      tag_14\n      tag_15\n      jump\t// in\n    tag_14:\n    tag_13:\n      swap1\n      0x00\n      mstore\n      keccak256(0x00, 0x20)\n      swap1\n      0x09\n      mul\n      add\n        /* \"contracts/ZombieGame.sol\":2563:2617  zombieDetails storage YourZombie = zombies[yourZombie] */\n      swap1\n      pop\n        /* \"contracts/ZombieGame.sol\":2628:2661  zombieDetails storage EnemyZombie */\n      0x00\n        /* \"contracts/ZombieGame.sol\":2664:2671  zombies */\n      0x03\n        /* \"contracts/ZombieGame.sol\":2672:2683  enemyZombie */\n      dup4\n        /* \"contracts/ZombieGame.sol\":2664:2684  zombies[enemyZombie] */\n      dup2\n      sload\n      dup2\n      lt\n      tag_17\n      jumpi\n      tag_18\n      tag_15\n      jump\t// in\n    tag_18:\n    tag_17:\n      swap1\n      0x00\n      mstore\n      keccak256(0x00, 0x20)\n      swap1\n      0x09\n      mul\n      add\n        /* \"contracts/ZombieGame.sol\":2628:2684  zombieDetails storage EnemyZombie = zombies[enemyZombie] */\n      swap1\n      pop\n        /* \"contracts/ZombieGame.sol\":2720:2731  EnemyZombie */\n      dup1\n        /* \"contracts/ZombieGame.sol\":2720:2737  EnemyZombie.level */\n      0x03\n      add\n      sload\n        /* \"contracts/ZombieGame.sol\":2701:2711  YourZombie */\n      dup3\n        /* \"contracts/ZombieGame.sol\":2701:2717  YourZombie.level */\n      0x03\n      add\n      sload\n        /* \"contracts/ZombieGame.sol\":2701:2737  YourZombie.level > EnemyZombie.level */\n      gt\n        /* \"contracts/ZombieGame.sol\":2697:3805  if (YourZombie.level > EnemyZombie.level) {... */\n      iszero\n      tag_20\n      jumpi\n        /* \"contracts/ZombieGame.sol\":2754:2764  YourZombie */\n      dup2\n        /* \"contracts/ZombieGame.sol\":2754:2770  YourZombie.level */\n      0x03\n      add\n      0x00\n        /* \"contracts/ZombieGame.sol\":2754:2772  YourZombie.level++ */\n      dup2\n      sload\n      dup1\n      swap3\n      swap2\n      swap1\n      tag_21\n      swap1\n      tag_22\n      jump\t// in\n    tag_21:\n      swap2\n      swap1\n      pop\n      sstore\n      pop\n        /* \"contracts/ZombieGame.sol\":2788:2798  YourZombie */\n      dup2\n        /* \"contracts/ZombieGame.sol\":2788:2809  YourZombie.TotalMatch */\n      0x05\n      add\n      0x00\n        /* \"contracts/ZombieGame.sol\":2788:2811  YourZombie.TotalMatch++ */\n      dup2\n      sload\n      dup1\n      swap3\n      swap2\n      swap1\n      tag_23\n      swap1\n      tag_22\n      jump\t// in\n    tag_23:\n      swap2\n      swap1\n      pop\n      sstore\n      pop\n        /* \"contracts/ZombieGame.sol\":2826:2836  YourZombie */\n      dup2\n        /* \"contracts/ZombieGame.sol\":2826:2846  YourZombie.MatchLeft */\n      0x06\n      add\n      0x00\n        /* \"contracts/ZombieGame.sol\":2826:2848  YourZombie.MatchLeft-- */\n      dup2\n      sload\n      dup1\n      swap3\n      swap2\n      swap1\n      tag_24\n      swap1\n      tag_25\n      jump\t// in\n    tag_24:\n      swap2\n      swap1\n      pop\n      sstore\n      pop\n        /* \"contracts/ZombieGame.sol\":2863:2873  YourZombie */\n      dup2\n        /* \"contracts/ZombieGame.sol\":2863:2878  YourZombie.Wins */\n      0x07\n      add\n      0x00\n        /* \"contracts/ZombieGame.sol\":2863:2880  YourZombie.Wins++ */\n      dup2\n      sload\n      dup1\n      swap3\n      swap2\n      swap1\n      tag_26\n      swap1\n      tag_22\n      jump\t// in\n    tag_26:\n      swap2\n      swap1\n      pop\n      sstore\n      pop\n        /* \"contracts/ZombieGame.sol\":2912:2915  100 */\n      0x64\n        /* \"contracts/ZombieGame.sol\":2895:2905  YourZombie */\n      dup3\n        /* \"contracts/ZombieGame.sol\":2895:2908  YourZombie.xp */\n      0x04\n      add\n      0x00\n        /* \"contracts/ZombieGame.sol\":2895:2915  YourZombie.xp += 100 */\n      dup3\n      dup3\n      sload\n      tag_27\n      swap2\n      swap1\n      tag_28\n      jump\t// in\n    tag_27:\n      swap3\n      pop\n      pop\n      dup2\n      swap1\n      sstore\n      pop\n        /* \"contracts/ZombieGame.sol\":2930:2941  EnemyZombie */\n      dup1\n        /* \"contracts/ZombieGame.sol\":2930:2947  EnemyZombie.level */\n      0x03\n      add\n      0x00\n        /* \"contracts/ZombieGame.sol\":2930:2949  EnemyZombie.level-- */\n      dup2\n      sload\n      dup1\n      swap3\n      swap2\n      swap1\n      tag_29\n      swap1\n      tag_25\n      jump\t// in\n    tag_29:\n      swap2\n      swap1\n      pop\n      sstore\n      pop\n        /* \"contracts/ZombieGame.sol\":2964:2975  EnemyZombie */\n      dup1\n        /* \"contracts/ZombieGame.sol\":2964:2986  EnemyZombie.TotalMatch */\n      0x05\n      add\n      0x00\n        /* \"contracts/ZombieGame.sol\":2964:2988  EnemyZombie.TotalMatch++ */\n      dup2\n      sload\n      dup1\n      swap3\n      swap2\n      swap1\n      tag_30\n      swap1\n      tag_22\n      jump\t// in\n    tag_30:\n      swap2\n      swap1\n      pop\n      sstore\n      pop\n        /* \"contracts/ZombieGame.sol\":3003:3014  EnemyZombie */\n      dup1\n        /* \"contracts/ZombieGame.sol\":3003:3024  EnemyZombie.MatchLeft */\n      0x06\n      add\n      0x00\n        /* \"contracts/ZombieGame.sol\":3003:3026  EnemyZombie.MatchLeft-- */\n      dup2\n      sload\n      dup1\n      swap3\n      swap2\n      swap1\n      tag_31\n      swap1\n      tag_25\n      jump\t// in\n    tag_31:\n      swap2\n      swap1\n      pop\n      sstore\n      pop\n        /* \"contracts/ZombieGame.sol\":3041:3052  EnemyZombie */\n      dup1\n        /* \"contracts/ZombieGame.sol\":3041:3059  EnemyZombie.Looses */\n      0x08\n      add\n      0x00\n        /* \"contracts/ZombieGame.sol\":3041:3061  EnemyZombie.Looses++ */\n      dup2\n      sload\n      dup1\n      swap3\n      swap2\n      swap1\n      tag_32\n      swap1\n      tag_22\n      jump\t// in\n    tag_32:\n      swap2\n      swap1\n      pop\n      sstore\n      pop\n        /* \"contracts/ZombieGame.sol\":3074:3097  return \"Congrats Wins.\" */\n      mload(0x40)\n      dup1\n      0x40\n      add\n      0x40\n      mstore\n      dup1\n      0x0e\n      dup2\n      mstore\n      0x20\n      add\n      0x436f6e67726174732057696e732e000000000000000000000000000000000000\n      dup2\n      mstore\n      pop\n      swap4\n      pop\n      pop\n      pop\n      pop\n      jump(tag_10)\n        /* \"contracts/ZombieGame.sol\":2697:3805  if (YourZombie.level > EnemyZombie.level) {... */\n    tag_20:\n        /* \"contracts/ZombieGame.sol\":3154:3164  YourZombie */\n      dup2\n        /* \"contracts/ZombieGame.sol\":3154:3170  YourZombie.level */\n      0x03\n      add\n      sload\n        /* \"contracts/ZombieGame.sol\":3134:3145  EnemyZombie */\n      dup2\n        /* \"contracts/ZombieGame.sol\":3134:3151  EnemyZombie.level */\n      0x03\n      add\n      sload\n        /* \"contracts/ZombieGame.sol\":3134:3170  EnemyZombie.level > YourZombie.level */\n      gt\n        /* \"contracts/ZombieGame.sol\":3130:3805  if (EnemyZombie.level > YourZombie.level) {... */\n      iszero\n      tag_34\n      jumpi\n        /* \"contracts/ZombieGame.sol\":3187:3198  EnemyZombie */\n      dup1\n        /* \"contracts/ZombieGame.sol\":3187:3204  EnemyZombie.level */\n      0x03\n      add\n      0x00\n        /* \"contracts/ZombieGame.sol\":3187:3206  EnemyZombie.level++ */\n      dup2\n      sload\n      dup1\n      swap3\n      swap2\n      swap1\n      tag_35\n      swap1\n      tag_22\n      jump\t// in\n    tag_35:\n      swap2\n      swap1\n      pop\n      sstore\n      pop\n        /* \"contracts/ZombieGame.sol\":3222:3233  EnemyZombie */\n      dup1\n        /* \"contracts/ZombieGame.sol\":3222:3244  EnemyZombie.TotalMatch */\n      0x05\n      add\n      0x00\n        /* \"contracts/ZombieGame.sol\":3222:3246  EnemyZombie.TotalMatch++ */\n      dup2\n      sload\n      dup1\n      swap3\n      swap2\n      swap1\n      tag_36\n      swap1\n      tag_22\n      jump\t// in\n    tag_36:\n      swap2\n      swap1\n      pop\n      sstore\n      pop\n        /* \"contracts/ZombieGame.sol\":3261:3272  EnemyZombie */\n      dup1\n        /* \"contracts/ZombieGame.sol\":3261:3282  EnemyZombie.MatchLeft */\n      0x06\n      add\n      0x00\n        /* \"contracts/ZombieGame.sol\":3261:3284  EnemyZombie.MatchLeft-- */\n      dup2\n      sload\n      dup1\n      swap3\n      swap2\n      swap1\n      tag_37\n      swap1\n      tag_25\n      jump\t// in\n    tag_37:\n      swap2\n      swap1\n      pop\n      sstore\n      pop\n        /* \"contracts/ZombieGame.sol\":3299:3310  EnemyZombie */\n      dup1\n        /* \"contracts/ZombieGame.sol\":3299:3315  EnemyZombie.Wins */\n      0x07\n      add\n      0x00\n        /* \"contracts/ZombieGame.sol\":3299:3317  EnemyZombie.Wins++ */\n      dup2\n      sload\n      dup1\n      swap3\n      swap2\n      swap1\n      tag_38\n      swap1\n      tag_22\n      jump\t// in\n    tag_38:\n      swap2\n      swap1\n      pop\n      sstore\n      pop\n        /* \"contracts/ZombieGame.sol\":3350:3353  100 */\n      0x64\n        /* \"contracts/ZombieGame.sol\":3332:3343  EnemyZombie */\n      dup2\n        /* \"contracts/ZombieGame.sol\":3332:3346  EnemyZombie.xp */\n      0x04\n      add\n      0x00\n        /* \"contracts/ZombieGame.sol\":3332:3353  EnemyZombie.xp += 100 */\n      dup3\n      dup3\n      sload\n      tag_39\n      swap2\n      swap1\n      tag_28\n      jump\t// in\n    tag_39:\n      swap3\n      pop\n      pop\n      dup2\n      swap1\n      sstore\n      pop\n        /* \"contracts/ZombieGame.sol\":3368:3378  YourZombie */\n      dup2\n        /* \"contracts/ZombieGame.sol\":3368:3384  YourZombie.level */\n      0x03\n      add\n      0x00\n        /* \"contracts/ZombieGame.sol\":3368:3386  YourZombie.level-- */\n      dup2\n      sload\n      dup1\n      swap3\n      swap2\n      swap1\n      tag_40\n      swap1\n      tag_25\n      jump\t// in\n    tag_40:\n      swap2\n      swap1\n      pop\n      sstore\n      pop\n        /* \"contracts/ZombieGame.sol\":3401:3411  YourZombie */\n      dup2\n        /* \"contracts/ZombieGame.sol\":3401:3422  YourZombie.TotalMatch */\n      0x05\n      add\n      0x00\n        /* \"contracts/ZombieGame.sol\":3401:3424  YourZombie.TotalMatch++ */\n      dup2\n      sload\n      dup1\n      swap3\n      swap2\n      swap1\n      tag_41\n      swap1\n      tag_22\n      jump\t// in\n    tag_41:\n      swap2\n      swap1\n      pop\n      sstore\n      pop\n        /* \"contracts/ZombieGame.sol\":3439:3449  YourZombie */\n      dup2\n        /* \"contracts/ZombieGame.sol\":3439:3459  YourZombie.MatchLeft */\n      0x06\n      add\n      0x00\n        /* \"contracts/ZombieGame.sol\":3439:3461  YourZombie.MatchLeft-- */\n      dup2\n      sload\n      dup1\n      swap3\n      swap2\n      swap1\n      tag_42\n      swap1\n      tag_25\n      jump\t// in\n    tag_42:\n      swap2\n      swap1\n      pop\n      sstore\n      pop\n        /* \"contracts/ZombieGame.sol\":3476:3486  YourZombie */\n      dup2\n        /* \"contracts/ZombieGame.sol\":3476:3493  YourZombie.Looses */\n      0x08\n      add\n      0x00\n        /* \"contracts/ZombieGame.sol\":3476:3495  YourZombie.Looses++ */\n      dup2\n      sload\n      dup1\n      swap3\n      swap2\n      swap1\n      tag_43\n      swap1\n      tag_22\n      jump\t// in\n    tag_43:\n      swap2\n      swap1\n      pop\n      sstore\n      pop\n        /* \"contracts/ZombieGame.sol\":3508:3566  return \"Win And Loose is the part of the Game.Try Again!.\" */\n      mload(0x40)\n      dup1\n      0x60\n      add\n      0x40\n      mstore\n      dup1\n      0x31\n      dup2\n      mstore\n      0x20\n      add\n      data_e0168f3fae51cf798b1321eebdaae7bc178ca214b91f59783066943e69095f12\n      0x31\n      swap2\n      codecopy\n      swap4\n      pop\n      pop\n      pop\n      pop\n      jump(tag_10)\n        /* \"contracts/ZombieGame.sol\":3130:3805  if (EnemyZombie.level > YourZombie.level) {... */\n    tag_34:\n        /* \"contracts/ZombieGame.sol\":3614:3625  EnemyZombie */\n      dup1\n        /* \"contracts/ZombieGame.sol\":3614:3636  EnemyZombie.TotalMatch */\n      0x05\n      add\n      0x00\n        /* \"contracts/ZombieGame.sol\":3614:3638  EnemyZombie.TotalMatch++ */\n      dup2\n      sload\n      dup1\n      swap3\n      swap2\n      swap1\n      tag_45\n      swap1\n      tag_22\n      jump\t// in\n    tag_45:\n      swap2\n      swap1\n      pop\n      sstore\n      pop\n        /* \"contracts/ZombieGame.sol\":3653:3663  YourZombie */\n      dup2\n        /* \"contracts/ZombieGame.sol\":3653:3674  YourZombie.TotalMatch */\n      0x05\n      add\n      0x00\n        /* \"contracts/ZombieGame.sol\":3653:3676  YourZombie.TotalMatch++ */\n      dup2\n      sload\n      dup1\n      swap3\n      swap2\n      swap1\n      tag_46\n      swap1\n      tag_22\n      jump\t// in\n    tag_46:\n      swap2\n      swap1\n      pop\n      sstore\n      pop\n        /* \"contracts/ZombieGame.sol\":3691:3701  YourZombie */\n      dup2\n        /* \"contracts/ZombieGame.sol\":3691:3711  YourZombie.MatchLeft */\n      0x06\n      add\n      0x00\n        /* \"contracts/ZombieGame.sol\":3691:3713  YourZombie.MatchLeft-- */\n      dup2\n      sload\n      dup1\n      swap3\n      swap2\n      swap1\n      tag_47\n      swap1\n      tag_25\n      jump\t// in\n    tag_47:\n      swap2\n      swap1\n      pop\n      sstore\n      pop\n        /* \"contracts/ZombieGame.sol\":3728:3739  EnemyZombie */\n      dup1\n        /* \"contracts/ZombieGame.sol\":3728:3749  EnemyZombie.MatchLeft */\n      0x06\n      add\n      0x00\n        /* \"contracts/ZombieGame.sol\":3728:3751  EnemyZombie.MatchLeft-- */\n      dup2\n      sload\n      dup1\n      swap3\n      swap2\n      swap1\n      tag_48\n      swap1\n      tag_25\n      jump\t// in\n    tag_48:\n      swap2\n      swap1\n      pop\n      sstore\n      pop\n        /* \"contracts/ZombieGame.sol\":3764:3788  return \"Draw Try Again.\" */\n      mload(0x40)\n      dup1\n      0x40\n      add\n      0x40\n      mstore\n      dup1\n      0x0f\n      dup2\n      mstore\n      0x20\n      add\n      0x447261772054727920416761696e2e0000000000000000000000000000000000\n      dup2\n      mstore\n      pop\n      swap4\n      pop\n      pop\n      pop\n      pop\n        /* \"contracts/ZombieGame.sol\":2430:3814  function ZombieVsZombie(uint yourZombie) public returns(string memory Result){... */\n    tag_10:\n      swap2\n      swap1\n      pop\n      jump\t// out\n        /* \"contracts/ZombieGame.sol\":2194:2422  function randomEnemy() private view returns(uint) {... */\n    tag_12:\n        /* \"contracts/ZombieGame.sol\":2238:2242  uint */\n      0x00\n        /* \"contracts/ZombieGame.sol\":2255:2270  uint TotalEnemy */\n      dup1\n        /* \"contracts/ZombieGame.sol\":2273:2280  zombies */\n      0x03\n        /* \"contracts/ZombieGame.sol\":2273:2287  zombies.length */\n      dup1\n      sload\n      swap1\n      pop\n        /* \"contracts/ZombieGame.sol\":2255:2287  uint TotalEnemy = zombies.length */\n      swap1\n      pop\n        /* \"contracts/ZombieGame.sol\":2298:2311  uint RandomId */\n      0x00\n        /* \"contracts/ZombieGame.sol\":2378:2388  TotalEnemy */\n      dup2\n        /* \"contracts/ZombieGame.sol\":2346:2356  TotalEnemy */\n      dup3\n        /* \"contracts/ZombieGame.sol\":2357:2372  block.timestamp */\n      timestamp\n        /* \"contracts/ZombieGame.sol\":2329:2373  abi.encodePacked(TotalEnemy,block.timestamp) */\n      add(0x20, mload(0x40))\n      tag_50\n      swap3\n      swap2\n      swap1\n      tag_51\n      jump\t// in\n    tag_50:\n      mload(0x40)\n      0x20\n      dup2\n      dup4\n      sub\n      sub\n      dup2\n      mstore\n      swap1\n      0x40\n      mstore\n        /* \"contracts/ZombieGame.sol\":2319:2374  keccak256(abi.encodePacked(TotalEnemy,block.timestamp)) */\n      dup1\n      mload\n      swap1\n      0x20\n      add\n      keccak256\n        /* \"contracts/ZombieGame.sol\":2314:2375  uint(keccak256(abi.encodePacked(TotalEnemy,block.timestamp))) */\n      0x00\n      shr\n        /* \"contracts/ZombieGame.sol\":2314:2388  uint(keccak256(abi.encodePacked(TotalEnemy,block.timestamp))) % TotalEnemy */\n      tag_52\n      swap2\n      swap1\n      tag_53\n      jump\t// in\n    tag_52:\n        /* \"contracts/ZombieGame.sol\":2298:2388  uint RandomId = uint(keccak256(abi.encodePacked(TotalEnemy,block.timestamp))) % TotalEnemy */\n      swap1\n      pop\n        /* \"contracts/ZombieGame.sol\":2406:2414  RandomId */\n      dup1\n        /* \"contracts/ZombieGame.sol\":2399:2414  return RandomId */\n      swap3\n      pop\n      pop\n      pop\n        /* \"contracts/ZombieGame.sol\":2194:2422  function randomEnemy() private view returns(uint) {... */\n      swap1\n      jump\t// out\n        /* \"#utility.yul\":88:205   */\n    tag_55:\n        /* \"#utility.yul\":197:198   */\n      0x00\n        /* \"#utility.yul\":194:195   */\n      dup1\n        /* \"#utility.yul\":187:199   */\n      revert\n        /* \"#utility.yul\":334:411   */\n    tag_57:\n        /* \"#utility.yul\":371:378   */\n      0x00\n        /* \"#utility.yul\":400:405   */\n      dup2\n        /* \"#utility.yul\":389:405   */\n      swap1\n      pop\n        /* \"#utility.yul\":334:411   */\n      swap2\n      swap1\n      pop\n      jump\t// out\n        /* \"#utility.yul\":417:539   */\n    tag_58:\n        /* \"#utility.yul\":490:514   */\n      tag_75\n        /* \"#utility.yul\":508:513   */\n      dup2\n        /* \"#utility.yul\":490:514   */\n      tag_57\n      jump\t// in\n    tag_75:\n        /* \"#utility.yul\":483:488   */\n      dup2\n        /* \"#utility.yul\":480:515   */\n      eq\n        /* \"#utility.yul\":470:533   */\n      tag_76\n      jumpi\n        /* \"#utility.yul\":529:530   */\n      0x00\n        /* \"#utility.yul\":526:527   */\n      dup1\n        /* \"#utility.yul\":519:531   */\n      revert\n        /* \"#utility.yul\":470:533   */\n    tag_76:\n        /* \"#utility.yul\":417:539   */\n      pop\n      jump\t// out\n        /* \"#utility.yul\":545:684   */\n    tag_59:\n        /* \"#utility.yul\":591:596   */\n      0x00\n        /* \"#utility.yul\":629:635   */\n      dup2\n        /* \"#utility.yul\":616:636   */\n      calldataload\n        /* \"#utility.yul\":607:636   */\n      swap1\n      pop\n        /* \"#utility.yul\":645:678   */\n      tag_78\n        /* \"#utility.yul\":672:677   */\n      dup2\n        /* \"#utility.yul\":645:678   */\n      tag_58\n      jump\t// in\n    tag_78:\n        /* \"#utility.yul\":545:684   */\n      swap3\n      swap2\n      pop\n      pop\n      jump\t// out\n        /* \"#utility.yul\":690:1019   */\n    tag_6:\n        /* \"#utility.yul\":749:755   */\n      0x00\n        /* \"#utility.yul\":798:800   */\n      0x20\n        /* \"#utility.yul\":786:795   */\n      dup3\n        /* \"#utility.yul\":777:784   */\n      dup5\n        /* \"#utility.yul\":773:796   */\n      sub\n        /* \"#utility.yul\":769:801   */\n      slt\n        /* \"#utility.yul\":766:885   */\n      iszero\n      tag_80\n      jumpi\n        /* \"#utility.yul\":804:883   */\n      tag_81\n      tag_55\n      jump\t// in\n    tag_81:\n        /* \"#utility.yul\":766:885   */\n    tag_80:\n        /* \"#utility.yul\":924:925   */\n      0x00\n        /* \"#utility.yul\":949:1002   */\n      tag_82\n        /* \"#utility.yul\":994:1001   */\n      dup5\n        /* \"#utility.yul\":985:991   */\n      dup3\n        /* \"#utility.yul\":974:983   */\n      dup6\n        /* \"#utility.yul\":970:992   */\n      add\n        /* \"#utility.yul\":949:1002   */\n      tag_59\n      jump\t// in\n    tag_82:\n        /* \"#utility.yul\":939:1002   */\n      swap2\n      pop\n        /* \"#utility.yul\":895:1012   */\n      pop\n        /* \"#utility.yul\":690:1019   */\n      swap3\n      swap2\n      pop\n      pop\n      jump\t// out\n        /* \"#utility.yul\":1025:1124   */\n    tag_60:\n        /* \"#utility.yul\":1077:1083   */\n      0x00\n        /* \"#utility.yul\":1111:1116   */\n      dup2\n        /* \"#utility.yul\":1105:1117   */\n      mload\n        /* \"#utility.yul\":1095:1117   */\n      swap1\n      pop\n        /* \"#utility.yul\":1025:1124   */\n      swap2\n      swap1\n      pop\n      jump\t// out\n        /* \"#utility.yul\":1130:1299   */\n    tag_61:\n        /* \"#utility.yul\":1214:1225   */\n      0x00\n        /* \"#utility.yul\":1248:1254   */\n      dup3\n        /* \"#utility.yul\":1243:1246   */\n      dup3\n        /* \"#utility.yul\":1236:1255   */\n      mstore\n        /* \"#utility.yul\":1288:1292   */\n      0x20\n        /* \"#utility.yul\":1283:1286   */\n      dup3\n        /* \"#utility.yul\":1279:1293   */\n      add\n        /* \"#utility.yul\":1264:1293   */\n      swap1\n      pop\n        /* \"#utility.yul\":1130:1299   */\n      swap3\n      swap2\n      pop\n      pop\n      jump\t// out\n        /* \"#utility.yul\":1305:1551   */\n    tag_62:\n        /* \"#utility.yul\":1386:1387   */\n      0x00\n        /* \"#utility.yul\":1396:1509   */\n    tag_86:\n        /* \"#utility.yul\":1410:1416   */\n      dup4\n        /* \"#utility.yul\":1407:1408   */\n      dup2\n        /* \"#utility.yul\":1404:1417   */\n      lt\n        /* \"#utility.yul\":1396:1509   */\n      iszero\n      tag_88\n      jumpi\n        /* \"#utility.yul\":1495:1496   */\n      dup1\n        /* \"#utility.yul\":1490:1493   */\n      dup3\n        /* \"#utility.yul\":1486:1497   */\n      add\n        /* \"#utility.yul\":1480:1498   */\n      mload\n        /* \"#utility.yul\":1476:1477   */\n      dup2\n        /* \"#utility.yul\":1471:1474   */\n      dup5\n        /* \"#utility.yul\":1467:1478   */\n      add\n        /* \"#utility.yul\":1460:1499   */\n      mstore\n        /* \"#utility.yul\":1432:1434   */\n      0x20\n        /* \"#utility.yul\":1429:1430   */\n      dup2\n        /* \"#utility.yul\":1425:1435   */\n      add\n        /* \"#utility.yul\":1420:1435   */\n      swap1\n      pop\n        /* \"#utility.yul\":1396:1509   */\n      jump(tag_86)\n    tag_88:\n        /* \"#utility.yul\":1543:1544   */\n      0x00\n        /* \"#utility.yul\":1534:1540   */\n      dup5\n        /* \"#utility.yul\":1529:1532   */\n      dup5\n        /* \"#utility.yul\":1525:1541   */\n      add\n        /* \"#utility.yul\":1518:1545   */\n      mstore\n        /* \"#utility.yul\":1367:1551   */\n      pop\n        /* \"#utility.yul\":1305:1551   */\n      pop\n      pop\n      pop\n      jump\t// out\n        /* \"#utility.yul\":1557:1659   */\n    tag_63:\n        /* \"#utility.yul\":1598:1604   */\n      0x00\n        /* \"#utility.yul\":1649:1651   */\n      0x1f\n        /* \"#utility.yul\":1645:1652   */\n      not\n        /* \"#utility.yul\":1640:1642   */\n      0x1f\n        /* \"#utility.yul\":1633:1638   */\n      dup4\n        /* \"#utility.yul\":1629:1643   */\n      add\n        /* \"#utility.yul\":1625:1653   */\n      and\n        /* \"#utility.yul\":1615:1653   */\n      swap1\n      pop\n        /* \"#utility.yul\":1557:1659   */\n      swap2\n      swap1\n      pop\n      jump\t// out\n        /* \"#utility.yul\":1665:2042   */\n    tag_64:\n        /* \"#utility.yul\":1753:1756   */\n      0x00\n        /* \"#utility.yul\":1781:1820   */\n      tag_91\n        /* \"#utility.yul\":1814:1819   */\n      dup3\n        /* \"#utility.yul\":1781:1820   */\n      tag_60\n      jump\t// in\n    tag_91:\n        /* \"#utility.yul\":1836:1907   */\n      tag_92\n        /* \"#utility.yul\":1900:1906   */\n      dup2\n        /* \"#utility.yul\":1895:1898   */\n      dup6\n        /* \"#utility.yul\":1836:1907   */\n      tag_61\n      jump\t// in\n    tag_92:\n        /* \"#utility.yul\":1829:1907   */\n      swap4\n      pop\n        /* \"#utility.yul\":1916:1981   */\n      tag_93\n        /* \"#utility.yul\":1974:1980   */\n      dup2\n        /* \"#utility.yul\":1969:1972   */\n      dup6\n        /* \"#utility.yul\":1962:1966   */\n      0x20\n        /* \"#utility.yul\":1955:1960   */\n      dup7\n        /* \"#utility.yul\":1951:1967   */\n      add\n        /* \"#utility.yul\":1916:1981   */\n      tag_62\n      jump\t// in\n    tag_93:\n        /* \"#utility.yul\":2006:2035   */\n      tag_94\n        /* \"#utility.yul\":2028:2034   */\n      dup2\n        /* \"#utility.yul\":2006:2035   */\n      tag_63\n      jump\t// in\n    tag_94:\n        /* \"#utility.yul\":2001:2004   */\n      dup5\n        /* \"#utility.yul\":1997:2036   */\n      add\n        /* \"#utility.yul\":1990:2036   */\n      swap2\n      pop\n        /* \"#utility.yul\":1757:2042   */\n      pop\n        /* \"#utility.yul\":1665:2042   */\n      swap3\n      swap2\n      pop\n      pop\n      jump\t// out\n        /* \"#utility.yul\":2048:2361   */\n    tag_9:\n        /* \"#utility.yul\":2161:2165   */\n      0x00\n        /* \"#utility.yul\":2199:2201   */\n      0x20\n        /* \"#utility.yul\":2188:2197   */\n      dup3\n        /* \"#utility.yul\":2184:2202   */\n      add\n        /* \"#utility.yul\":2176:2202   */\n      swap1\n      pop\n        /* \"#utility.yul\":2248:2257   */\n      dup2\n        /* \"#utility.yul\":2242:2246   */\n      dup2\n        /* \"#utility.yul\":2238:2258   */\n      sub\n        /* \"#utility.yul\":2234:2235   */\n      0x00\n        /* \"#utility.yul\":2223:2232   */\n      dup4\n        /* \"#utility.yul\":2219:2236   */\n      add\n        /* \"#utility.yul\":2212:2259   */\n      mstore\n        /* \"#utility.yul\":2276:2354   */\n      tag_96\n        /* \"#utility.yul\":2349:2353   */\n      dup2\n        /* \"#utility.yul\":2340:2346   */\n      dup5\n        /* \"#utility.yul\":2276:2354   */\n      tag_64\n      jump\t// in\n    tag_96:\n        /* \"#utility.yul\":2268:2354   */\n      swap1\n      pop\n        /* \"#utility.yul\":2048:2361   */\n      swap3\n      swap2\n      pop\n      pop\n      jump\t// out\n        /* \"#utility.yul\":2367:2547   */\n    tag_15:\n        /* \"#utility.yul\":2415:2492   */\n      0x4e487b7100000000000000000000000000000000000000000000000000000000\n        /* \"#utility.yul\":2412:2413   */\n      0x00\n        /* \"#utility.yul\":2405:2493   */\n      mstore\n        /* \"#utility.yul\":2512:2516   */\n      0x32\n        /* \"#utility.yul\":2509:2510   */\n      0x04\n        /* \"#utility.yul\":2502:2517   */\n      mstore\n        /* \"#utility.yul\":2536:2540   */\n      0x24\n        /* \"#utility.yul\":2533:2534   */\n      0x00\n        /* \"#utility.yul\":2526:2541   */\n      revert\n        /* \"#utility.yul\":2553:2733   */\n    tag_65:\n        /* \"#utility.yul\":2601:2678   */\n      0x4e487b7100000000000000000000000000000000000000000000000000000000\n        /* \"#utility.yul\":2598:2599   */\n      0x00\n        /* \"#utility.yul\":2591:2679   */\n      mstore\n        /* \"#utility.yul\":2698:2702   */\n      0x11\n        /* \"#utility.yul\":2695:2696   */\n      0x04\n        /* \"#utility.yul\":2688:2703   */\n      mstore\n        /* \"#utility.yul\":2722:2726   */\n      0x24\n        /* \"#utility.yul\":2719:2720   */\n      0x00\n        /* \"#utility.yul\":2712:2727   */\n      revert\n        /* \"#utility.yul\":2739:2972   */\n    tag_22:\n        /* \"#utility.yul\":2778:2781   */\n      0x00\n        /* \"#utility.yul\":2801:2825   */\n      tag_100\n        /* \"#utility.yul\":2819:2824   */\n      dup3\n        /* \"#utility.yul\":2801:2825   */\n      tag_57\n      jump\t// in\n    tag_100:\n        /* \"#utility.yul\":2792:2825   */\n      swap2\n      pop\n        /* \"#utility.yul\":2847:2913   */\n      0xffffffffffffffffffffffffffffffffffffffffffffffffffffffffffffffff\n        /* \"#utility.yul\":2840:2845   */\n      dup3\n        /* \"#utility.yul\":2837:2914   */\n      sub\n        /* \"#utility.yul\":2834:2937   */\n      tag_101\n      jumpi\n        /* \"#utility.yul\":2917:2935   */\n      tag_102\n      tag_65\n      jump\t// in\n    tag_102:\n        /* \"#utility.yul\":2834:2937   */\n    tag_101:\n        /* \"#utility.yul\":2964:2965   */\n      0x01\n        /* \"#utility.yul\":2957:2962   */\n      dup3\n        /* \"#utility.yul\":2953:2966   */\n      add\n        /* \"#utility.yul\":2946:2966   */\n      swap1\n      pop\n        /* \"#utility.yul\":2739:2972   */\n      swap2\n      swap1\n      pop\n      jump\t// out\n        /* \"#utility.yul\":2978:3149   */\n    tag_25:\n        /* \"#utility.yul\":3017:3020   */\n      0x00\n        /* \"#utility.yul\":3040:3064   */\n      tag_104\n        /* \"#utility.yul\":3058:3063   */\n      dup3\n        /* \"#utility.yul\":3040:3064   */\n      tag_57\n      jump\t// in\n    tag_104:\n        /* \"#utility.yul\":3031:3064   */\n      swap2\n      pop\n        /* \"#utility.yul\":3086:3090   */\n      0x00\n        /* \"#utility.yul\":3079:3084   */\n      dup3\n        /* \"#utility.yul\":3076:3091   */\n      sub\n        /* \"#utility.yul\":3073:3114   */\n      tag_105\n      jumpi\n        /* \"#utility.yul\":3094:3112   */\n      tag_106\n      tag_65\n      jump\t// in\n    tag_106:\n        /* \"#utility.yul\":3073:3114   */\n    tag_105:\n        /* \"#utility.yul\":3141:3142   */\n      0x01\n        /* \"#utility.yul\":3134:3139   */\n      dup3\n        /* \"#utility.yul\":3130:3143   */\n      sub\n        /* \"#utility.yul\":3123:3143   */\n      swap1\n      pop\n        /* \"#utility.yul\":2978:3149   */\n      swap2\n      swap1\n      pop\n      jump\t// out\n        /* \"#utility.yul\":3155:3346   */\n    tag_28:\n        /* \"#utility.yul\":3195:3198   */\n      0x00\n        /* \"#utility.yul\":3214:3234   */\n      tag_108\n        /* \"#utility.yul\":3232:3233   */\n      dup3\n        /* \"#utility.yul\":3214:3234   */\n      tag_57\n      jump\t// in\n    tag_108:\n        /* \"#utility.yul\":3209:3234   */\n      swap2\n      pop\n        /* \"#utility.yul\":3248:3268   */\n      tag_109\n        /* \"#utility.yul\":3266:3267   */\n      dup4\n        /* \"#utility.yul\":3248:3268   */\n      tag_57\n      jump\t// in\n    tag_109:\n        /* \"#utility.yul\":3243:3268   */\n      swap3\n      pop\n        /* \"#utility.yul\":3291:3292   */\n      dup3\n        /* \"#utility.yul\":3288:3289   */\n      dup3\n        /* \"#utility.yul\":3284:3293   */\n      add\n        /* \"#utility.yul\":3277:3293   */\n      swap1\n      pop\n        /* \"#utility.yul\":3312:3315   */\n      dup1\n        /* \"#utility.yul\":3309:3310   */\n      dup3\n        /* \"#utility.yul\":3306:3316   */\n      gt\n        /* \"#utility.yul\":3303:3339   */\n      iszero\n      tag_110\n      jumpi\n        /* \"#utility.yul\":3319:3337   */\n      tag_111\n      tag_65\n      jump\t// in\n    tag_111:\n        /* \"#utility.yul\":3303:3339   */\n    tag_110:\n        /* \"#utility.yul\":3155:3346   */\n      swap3\n      swap2\n      pop\n      pop\n      jump\t// out\n        /* \"#utility.yul\":3352:3431   */\n    tag_66:\n        /* \"#utility.yul\":3391:3398   */\n      0x00\n        /* \"#utility.yul\":3420:3425   */\n      dup2\n        /* \"#utility.yul\":3409:3425   */\n      swap1\n      pop\n        /* \"#utility.yul\":3352:3431   */\n      swap2\n      swap1\n      pop\n      jump\t// out\n        /* \"#utility.yul\":3437:3594   */\n    tag_67:\n        /* \"#utility.yul\":3542:3587   */\n      tag_114\n        /* \"#utility.yul\":3562:3586   */\n      tag_115\n        /* \"#utility.yul\":3580:3585   */\n      dup3\n        /* \"#utility.yul\":3562:3586   */\n      tag_57\n      jump\t// in\n    tag_115:\n        /* \"#utility.yul\":3542:3587   */\n      tag_66\n      jump\t// in\n    tag_114:\n        /* \"#utility.yul\":3537:3540   */\n      dup3\n        /* \"#utility.yul\":3530:3588   */\n      mstore\n        /* \"#utility.yul\":3437:3594   */\n      pop\n      pop\n      jump\t// out\n        /* \"#utility.yul\":3600:3997   */\n    tag_51:\n        /* \"#utility.yul\":3740:3743   */\n      0x00\n        /* \"#utility.yul\":3755:3830   */\n      tag_117\n        /* \"#utility.yul\":3826:3829   */\n      dup3\n        /* \"#utility.yul\":3817:3823   */\n      dup6\n        /* \"#utility.yul\":3755:3830   */\n      tag_67\n      jump\t// in\n    tag_117:\n        /* \"#utility.yul\":3855:3857   */\n      0x20\n        /* \"#utility.yul\":3850:3853   */\n      dup3\n        /* \"#utility.yul\":3846:3858   */\n      add\n        /* \"#utility.yul\":3839:3858   */\n      swap2\n      pop\n        /* \"#utility.yul\":3868:3943   */\n      tag_118\n        /* \"#utility.yul\":3939:3942   */\n      dup3\n        /* \"#utility.yul\":3930:3936   */\n      dup5\n        /* \"#utility.yul\":3868:3943   */\n      tag_67\n      jump\t// in\n    tag_118:\n        /* \"#utility.yul\":3968:3970   */\n      0x20\n        /* \"#utility.yul\":3963:3966   */\n      dup3\n        /* \"#utility.yul\":3959:3971   */\n      add\n        /* \"#utility.yul\":3952:3971   */\n      swap2\n      pop\n        /* \"#utility.yul\":3988:3991   */\n      dup2\n        /* \"#utility.yul\":3981:3991   */\n      swap1\n      pop\n        /* \"#utility.yul\":3600:3997   */\n      swap4\n      swap3\n      pop\n      pop\n      pop\n      jump\t// out\n        /* \"#utility.yul\":4003:4183   */\n    tag_68:\n        /* \"#utility.yul\":4051:4128   */\n      0x4e487b7100000000000000000000000000000000000000000000000000000000\n        /* \"#utility.yul\":4048:4049   */\n      0x00\n        /* \"#utility.yul\":4041:4129   */\n      mstore\n        /* \"#utility.yul\":4148:4152   */\n      0x12\n        /* \"#utility.yul\":4145:4146   */\n      0x04\n        /* \"#utility.yul\":4138:4153   */\n      mstore\n        /* \"#utility.yul\":4172:4176   */\n      0x24\n        /* \"#utility.yul\":4169:4170   */\n      0x00\n        /* \"#utility.yul\":4162:4177   */\n      revert\n        /* \"#utility.yul\":4189:4365   */\n    tag_53:\n        /* \"#utility.yul\":4221:4222   */\n      0x00\n        /* \"#utility.yul\":4238:4258   */\n      tag_121\n        /* \"#utility.yul\":4256:4257   */\n      dup3\n        /* \"#utility.yul\":4238:4258   */\n      tag_57\n      jump\t// in\n    tag_121:\n        /* \"#utility.yul\":4233:4258   */\n      swap2\n      pop\n        /* \"#utility.yul\":4272:4292   */\n      tag_122\n        /* \"#utility.yul\":4290:4291   */\n      dup4\n        /* \"#utility.yul\":4272:4292   */\n      tag_57\n      jump\t// in\n    tag_122:\n        /* \"#utility.yul\":4267:4292   */\n      swap3\n      pop\n        /* \"#utility.yul\":4311:4312   */\n      dup3\n        /* \"#utility.yul\":4301:4336   */\n      tag_123\n      jumpi\n        /* \"#utility.yul\":4316:4334   */\n      tag_124\n      tag_68\n      jump\t// in\n    tag_124:\n        /* \"#utility.yul\":4301:4336   */\n    tag_123:\n        /* \"#utility.yul\":4357:4358   */\n      dup3\n        /* \"#utility.yul\":4354:4355   */\n      dup3\n        /* \"#utility.yul\":4350:4359   */\n      mod\n        /* \"#utility.yul\":4345:4359   */\n      swap1\n      pop\n        /* \"#utility.yul\":4189:4365   */\n      swap3\n      swap2\n      pop\n      pop\n      jump\t// out\n    stop\n    data_e0168f3fae51cf798b1321eebdaae7bc178ca214b91f59783066943e69095f12 57696e20416e64204c6f6f7365206973207468652070617274206f66207468652047616d652e54727920416761696e212e\n\n    auxdata: 0xa26469706673582212204eee407c46ce1465e64ff22ee13b43a18bd0ed76e568dbfa4fd04fcf0c76308864736f6c63430008140033\n}\n",
				"bytecode": {
					"linkReferences": {},
					"object": "6080604052662386f26fc1000060025534801561001a575f80fd5b506106ff806100285f395ff3fe608060405234801561000f575f80fd5b5060043610610029575f3560e01c8063a85b2ba71461002d575b5f80fd5b61004760048036038101906100429190610420565b61005d565b60405161005491906104d5565b60405180910390f35b60605f61006861039e565b90505f6003848154811061007f5761007e6104f5565b5b905f5260205f20906009020190505f600383815481106100a2576100a16104f5565b5b905f5260205f20906009020190508060030154826003015411156101e357816003015f8154809291906100d49061054f565b9190505550816005015f8154809291906100ed9061054f565b9190505550816006015f81548092919061010690610596565b9190505550816007015f81548092919061011f9061054f565b91905055506064826004015f82825461013891906105bd565b92505081905550806003015f81548092919061015390610596565b9190505550806005015f81548092919061016c9061054f565b9190505550806006015f81548092919061018590610596565b9190505550806008015f81548092919061019e9061054f565b91905055506040518060400160405280600e81526020017f436f6e67726174732057696e732e0000000000000000000000000000000000008152509350505050610399565b8160030154816003015411156102f957806003015f8154809291906102079061054f565b9190505550806005015f8154809291906102209061054f565b9190505550806006015f81548092919061023990610596565b9190505550806007015f8154809291906102529061054f565b91905055506064816004015f82825461026b91906105bd565b92505081905550816003015f81548092919061028690610596565b9190505550816005015f81548092919061029f9061054f565b9190505550816006015f8154809291906102b890610596565b9190505550816008015f8154809291906102d19061054f565b9190505550604051806060016040528060318152602001610699603191399350505050610399565b806005015f81548092919061030d9061054f565b9190505550816005015f8154809291906103269061054f565b9190505550816006015f81548092919061033f90610596565b9190505550806006015f81548092919061035890610596565b91905055506040518060400160405280600f81526020017f447261772054727920416761696e2e000000000000000000000000000000000081525093505050505b919050565b5f8060038054905090505f8182426040516020016103bd929190610610565b604051602081830303815290604052805190602001205f1c6103df9190610668565b9050809250505090565b5f80fd5b5f819050919050565b6103ff816103ed565b8114610409575f80fd5b50565b5f8135905061041a816103f6565b92915050565b5f60208284031215610435576104346103e9565b5b5f6104428482850161040c565b91505092915050565b5f81519050919050565b5f82825260208201905092915050565b5f5b83811015610482578082015181840152602081019050610467565b5f8484015250505050565b5f601f19601f8301169050919050565b5f6104a78261044b565b6104b18185610455565b93506104c1818560208601610465565b6104ca8161048d565b840191505092915050565b5f6020820190508181035f8301526104ed818461049d565b905092915050565b7f4e487b71000000000000000000000000000000000000000000000000000000005f52603260045260245ffd5b7f4e487b71000000000000000000000000000000000000000000000000000000005f52601160045260245ffd5b5f610559826103ed565b91507fffffffffffffffffffffffffffffffffffffffffffffffffffffffffffffffff820361058b5761058a610522565b5b600182019050919050565b5f6105a0826103ed565b91505f82036105b2576105b1610522565b5b600182039050919050565b5f6105c7826103ed565b91506105d2836103ed565b92508282019050808211156105ea576105e9610522565b5b92915050565b5f819050919050565b61060a610605826103ed565b6105f0565b82525050565b5f61061b82856105f9565b60208201915061062b82846105f9565b6020820191508190509392505050565b7f4e487b71000000000000000000000000000000000000000000000000000000005f52601260045260245ffd5b5f610672826103ed565b915061067d836103ed565b92508261068d5761068c61063b565b5b82820690509291505056fe57696e20416e64204c6f6f7365206973207468652070617274206f66207468652047616d652e54727920416761696e212ea26469706673582212204eee407c46ce1465e64ff22ee13b43a18bd0ed76e568dbfa4fd04fcf0c76308864736f6c63430008140033",
					"opcodes": "PUSH1 0x80 PUSH1 0x40 MSTORE PUSH7 0x2386F26FC10000 PUSH1 0x2 SSTORE CALLVALUE DUP1 ISZERO PUSH2 0x1A JUMPI PUSH0 DUP1 REVERT JUMPDEST POP PUSH2 0x6FF DUP1 PUSH2 0x28 PUSH0 CODECOPY PUSH0 RETURN INVALID PUSH1 0x80 PUSH1 0x40 MSTORE CALLVALUE DUP1 ISZERO PUSH2 0xF JUMPI PUSH0 DUP1 REVERT JUMPDEST POP PUSH1 0x4 CALLDATASIZE LT PUSH2 0x29 JUMPI PUSH0 CALLDATALOAD PUSH1 0xE0 SHR DUP1 PUSH4 0xA85B2BA7 EQ PUSH2 0x2D JUMPI JUMPDEST PUSH0 DUP1 REVERT JUMPDEST PUSH2 0x47 PUSH1 0x4 DUP1 CALLDATASIZE SUB DUP2 ADD SWAP1 PUSH2 0x42 SWAP2 SWAP1 PUSH2 0x420 JUMP JUMPDEST PUSH2 0x5D JUMP JUMPDEST PUSH1 0x40 MLOAD PUSH2 0x54 SWAP2 SWAP1 PUSH2 0x4D5 JUMP JUMPDEST PUSH1 0x40 MLOAD DUP1 SWAP2 SUB SWAP1 RETURN JUMPDEST PUSH1 0x60 PUSH0 PUSH2 0x68 PUSH2 0x39E JUMP JUMPDEST SWAP1 POP PUSH0 PUSH1 0x3 DUP5 DUP2 SLOAD DUP2 LT PUSH2 0x7F JUMPI PUSH2 0x7E PUSH2 0x4F5 JUMP JUMPDEST JUMPDEST SWAP1 PUSH0 MSTORE PUSH1 0x20 PUSH0 KECCAK256 SWAP1 PUSH1 0x9 MUL ADD SWAP1 POP PUSH0 PUSH1 0x3 DUP4 DUP2 SLOAD DUP2 LT PUSH2 0xA2 JUMPI PUSH2 0xA1 PUSH2 0x4F5 JUMP JUMPDEST JUMPDEST SWAP1 PUSH0 MSTORE PUSH1 0x20 PUSH0 KECCAK256 SWAP1 PUSH1 0x9 MUL ADD SWAP1 POP DUP1 PUSH1 0x3 ADD SLOAD DUP3 PUSH1 0x3 ADD SLOAD GT ISZERO PUSH2 0x1E3 JUMPI DUP2 PUSH1 0x3 ADD PUSH0 DUP2 SLOAD DUP1 SWAP3 SWAP2 SWAP1 PUSH2 0xD4 SWAP1 PUSH2 0x54F JUMP JUMPDEST SWAP2 SWAP1 POP SSTORE POP DUP2 PUSH1 0x5 ADD PUSH0 DUP2 SLOAD DUP1 SWAP3 SWAP2 SWAP1 PUSH2 0xED SWAP1 PUSH2 0x54F JUMP JUMPDEST SWAP2 SWAP1 POP SSTORE POP DUP2 PUSH1 0x6 ADD PUSH0 DUP2 SLOAD DUP1 SWAP3 SWAP2 SWAP1 PUSH2 0x106 SWAP1 PUSH2 0x596 JUMP JUMPDEST SWAP2 SWAP1 POP SSTORE POP DUP2 PUSH1 0x7 ADD PUSH0 DUP2 SLOAD DUP1 SWAP3 SWAP2 SWAP1 PUSH2 0x11F SWAP1 PUSH2 0x54F JUMP JUMPDEST SWAP2 SWAP1 POP SSTORE POP PUSH1 0x64 DUP3 PUSH1 0x4 ADD PUSH0 DUP3 DUP3 SLOAD PUSH2 0x138 SWAP2 SWAP1 PUSH2 0x5BD JUMP JUMPDEST SWAP3 POP POP DUP2 SWAP1 SSTORE POP DUP1 PUSH1 0x3 ADD PUSH0 DUP2 SLOAD DUP1 SWAP3 SWAP2 SWAP1 PUSH2 0x153 SWAP1 PUSH2 0x596 JUMP JUMPDEST SWAP2 SWAP1 POP SSTORE POP DUP1 PUSH1 0x5 ADD PUSH0 DUP2 SLOAD DUP1 SWAP3 SWAP2 SWAP1 PUSH2 0x16C SWAP1 PUSH2 0x54F JUMP JUMPDEST SWAP2 SWAP1 POP SSTORE POP DUP1 PUSH1 0x6 ADD PUSH0 DUP2 SLOAD DUP1 SWAP3 SWAP2 SWAP1 PUSH2 0x185 SWAP1 PUSH2 0x596 JUMP JUMPDEST SWAP2 SWAP1 POP SSTORE POP DUP1 PUSH1 0x8 ADD PUSH0 DUP2 SLOAD DUP1 SWAP3 SWAP2 SWAP1 PUSH2 0x19E SWAP1 PUSH2 0x54F JUMP JUMPDEST SWAP2 SWAP1 POP SSTORE POP PUSH1 0x40 MLOAD DUP1 PUSH1 0x40 ADD PUSH1 0x40 MSTORE DUP1 PUSH1 0xE DUP2 MSTORE PUSH1 0x20 ADD PUSH32 0x436F6E67726174732057696E732E000000000000000000000000000000000000 DUP2 MSTORE POP SWAP4 POP POP POP POP PUSH2 0x399 JUMP JUMPDEST DUP2 PUSH1 0x3 ADD SLOAD DUP2 PUSH1 0x3 ADD SLOAD GT ISZERO PUSH2 0x2F9 JUMPI DUP1 PUSH1 0x3 ADD PUSH0 DUP2 SLOAD DUP1 SWAP3 SWAP2 SWAP1 PUSH2 0x207 SWAP1 PUSH2 0x54F JUMP JUMPDEST SWAP2 SWAP1 POP SSTORE POP DUP1 PUSH1 0x5 ADD PUSH0 DUP2 SLOAD DUP1 SWAP3 SWAP2 SWAP1 PUSH2 0x220 SWAP1 PUSH2 0x54F JUMP JUMPDEST SWAP2 SWAP1 POP SSTORE POP DUP1 PUSH1 0x6 ADD PUSH0 DUP2 SLOAD DUP1 SWAP3 SWAP2 SWAP1 PUSH2 0x239 SWAP1 PUSH2 0x596 JUMP JUMPDEST SWAP2 SWAP1 POP SSTORE POP DUP1 PUSH1 0x7 ADD PUSH0 DUP2 SLOAD DUP1 SWAP3 SWAP2 SWAP1 PUSH2 0x252 SWAP1 PUSH2 0x54F JUMP JUMPDEST SWAP2 SWAP1 POP SSTORE POP PUSH1 0x64 DUP2 PUSH1 0x4 ADD PUSH0 DUP3 DUP3 SLOAD PUSH2 0x26B SWAP2 SWAP1 PUSH2 0x5BD JUMP JUMPDEST SWAP3 POP POP DUP2 SWAP1 SSTORE POP DUP2 PUSH1 0x3 ADD PUSH0 DUP2 SLOAD DUP1 SWAP3 SWAP2 SWAP1 PUSH2 0x286 SWAP1 PUSH2 0x596 JUMP JUMPDEST SWAP2 SWAP1 POP SSTORE POP DUP2 PUSH1 0x5 ADD PUSH0 DUP2 SLOAD DUP1 SWAP3 SWAP2 SWAP1 PUSH2 0x29F SWAP1 PUSH2 0x54F JUMP JUMPDEST SWAP2 SWAP1 POP SSTORE POP DUP2 PUSH1 0x6 ADD PUSH0 DUP2 SLOAD DUP1 SWAP3 SWAP2 SWAP1 PUSH2 0x2B8 SWAP1 PUSH2 0x596 JUMP JUMPDEST SWAP2 SWAP1 POP SSTORE POP DUP2 PUSH1 0x8 ADD PUSH0 DUP2 SLOAD DUP1 SWAP3 SWAP2 SWAP1 PUSH2 0x2D1 SWAP1 PUSH2 0x54F JUMP JUMPDEST SWAP2 SWAP1 POP SSTORE POP PUSH1 0x40 MLOAD DUP1 PUSH1 0x60 ADD PUSH1 0x40 MSTORE DUP1 PUSH1 0x31 DUP2 MSTORE PUSH1 0x20 ADD PUSH2 0x699 PUSH1 0x31 SWAP2 CODECOPY SWAP4 POP POP POP POP PUSH2 0x399 JUMP JUMPDEST DUP1 PUSH1 0x5 ADD PUSH0 DUP2 SLOAD DUP1 SWAP3 SWAP2 SWAP1 PUSH2 0x30D SWAP1 PUSH2 0x54F JUMP JUMPDEST SWAP2 SWAP1 POP SSTORE POP DUP2 PUSH1 0x5 ADD PUSH0 DUP2 SLOAD DUP1 SWAP3 SWAP2 SWAP1 PUSH2 0x326 SWAP1 PUSH2 0x54F JUMP JUMPDEST SWAP2 SWAP1 POP SSTORE POP DUP2 PUSH1 0x6 ADD PUSH0 DUP2 SLOAD DUP1 SWAP3 SWAP2 SWAP1 PUSH2 0x33F SWAP1 PUSH2 0x596 JUMP JUMPDEST SWAP2 SWAP1 POP SSTORE POP DUP1 PUSH1 0x6 ADD PUSH0 DUP2 SLOAD DUP1 SWAP3 SWAP2 SWAP1 PUSH2 0x358 SWAP1 PUSH2 0x596 JUMP JUMPDEST SWAP2 SWAP1 POP SSTORE POP PUSH1 0x40 MLOAD DUP1 PUSH1 0x40 ADD PUSH1 0x40 MSTORE DUP1 PUSH1 0xF DUP2 MSTORE PUSH1 0x20 ADD PUSH32 0x447261772054727920416761696E2E0000000000000000000000000000000000 DUP2 MSTORE POP SWAP4 POP POP POP POP JUMPDEST SWAP2 SWAP1 POP JUMP JUMPDEST PUSH0 DUP1 PUSH1 0x3 DUP1 SLOAD SWAP1 POP SWAP1 POP PUSH0 DUP2 DUP3 TIMESTAMP PUSH1 0x40 MLOAD PUSH1 0x20 ADD PUSH2 0x3BD SWAP3 SWAP2 SWAP1 PUSH2 0x610 JUMP JUMPDEST PUSH1 0x40 MLOAD PUSH1 0x20 DUP2 DUP4 SUB SUB DUP2 MSTORE SWAP1 PUSH1 0x40 MSTORE DUP1 MLOAD SWAP1 PUSH1 0x20 ADD KECCAK256 PUSH0 SHR PUSH2 0x3DF SWAP2 SWAP1 PUSH2 0x668 JUMP JUMPDEST SWAP1 POP DUP1 SWAP3 POP POP POP SWAP1 JUMP JUMPDEST PUSH0 DUP1 REVERT JUMPDEST PUSH0 DUP2 SWAP1 POP SWAP2 SWAP1 POP JUMP JUMPDEST PUSH2 0x3FF DUP2 PUSH2 0x3ED JUMP JUMPDEST DUP2 EQ PUSH2 0x409 JUMPI PUSH0 DUP1 REVERT JUMPDEST POP JUMP JUMPDEST PUSH0 DUP2 CALLDATALOAD SWAP1 POP PUSH2 0x41A DUP2 PUSH2 0x3F6 JUMP JUMPDEST SWAP3 SWAP2 POP POP JUMP JUMPDEST PUSH0 PUSH1 0x20 DUP3 DUP5 SUB SLT ISZERO PUSH2 0x435 JUMPI PUSH2 0x434 PUSH2 0x3E9 JUMP JUMPDEST JUMPDEST PUSH0 PUSH2 0x442 DUP5 DUP3 DUP6 ADD PUSH2 0x40C JUMP JUMPDEST SWAP2 POP POP SWAP3 SWAP2 POP POP JUMP JUMPDEST PUSH0 DUP2 MLOAD SWAP1 POP SWAP2 SWAP1 POP JUMP JUMPDEST PUSH0 DUP3 DUP3 MSTORE PUSH1 0x20 DUP3 ADD SWAP1 POP SWAP3 SWAP2 POP POP JUMP JUMPDEST PUSH0 JUMPDEST DUP4 DUP2 LT ISZERO PUSH2 0x482 JUMPI DUP1 DUP3 ADD MLOAD DUP2 DUP5 ADD MSTORE PUSH1 0x20 DUP2 ADD SWAP1 POP PUSH2 0x467 JUMP JUMPDEST PUSH0 DUP5 DUP5 ADD MSTORE POP POP POP POP JUMP JUMPDEST PUSH0 PUSH1 0x1F NOT PUSH1 0x1F DUP4 ADD AND SWAP1 POP SWAP2 SWAP1 POP JUMP JUMPDEST PUSH0 PUSH2 0x4A7 DUP3 PUSH2 0x44B JUMP JUMPDEST PUSH2 0x4B1 DUP2 DUP6 PUSH2 0x455 JUMP JUMPDEST SWAP4 POP PUSH2 0x4C1 DUP2 DUP6 PUSH1 0x20 DUP7 ADD PUSH2 0x465 JUMP JUMPDEST PUSH2 0x4CA DUP2 PUSH2 0x48D JUMP JUMPDEST DUP5 ADD SWAP2 POP POP SWAP3 SWAP2 POP POP JUMP JUMPDEST PUSH0 PUSH1 0x20 DUP3 ADD SWAP1 POP DUP2 DUP2 SUB PUSH0 DUP4 ADD MSTORE PUSH2 0x4ED DUP2 DUP5 PUSH2 0x49D JUMP JUMPDEST SWAP1 POP SWAP3 SWAP2 POP POP JUMP JUMPDEST PUSH32 0x4E487B7100000000000000000000000000000000000000000000000000000000 PUSH0 MSTORE PUSH1 0x32 PUSH1 0x4 MSTORE PUSH1 0x24 PUSH0 REVERT JUMPDEST PUSH32 0x4E487B7100000000000000000000000000000000000000000000000000000000 PUSH0 MSTORE PUSH1 0x11 PUSH1 0x4 MSTORE PUSH1 0x24 PUSH0 REVERT JUMPDEST PUSH0 PUSH2 0x559 DUP3 PUSH2 0x3ED JUMP JUMPDEST SWAP2 POP PUSH32 0xFFFFFFFFFFFFFFFFFFFFFFFFFFFFFFFFFFFFFFFFFFFFFFFFFFFFFFFFFFFFFFFF DUP3 SUB PUSH2 0x58B JUMPI PUSH2 0x58A PUSH2 0x522 JUMP JUMPDEST JUMPDEST PUSH1 0x1 DUP3 ADD SWAP1 POP SWAP2 SWAP1 POP JUMP JUMPDEST PUSH0 PUSH2 0x5A0 DUP3 PUSH2 0x3ED JUMP JUMPDEST SWAP2 POP PUSH0 DUP3 SUB PUSH2 0x5B2 JUMPI PUSH2 0x5B1 PUSH2 0x522 JUMP JUMPDEST JUMPDEST PUSH1 0x1 DUP3 SUB SWAP1 POP SWAP2 SWAP1 POP JUMP JUMPDEST PUSH0 PUSH2 0x5C7 DUP3 PUSH2 0x3ED JUMP JUMPDEST SWAP2 POP PUSH2 0x5D2 DUP4 PUSH2 0x3ED JUMP JUMPDEST SWAP3 POP DUP3 DUP3 ADD SWAP1 POP DUP1 DUP3 GT ISZERO PUSH2 0x5EA JUMPI PUSH2 0x5E9 PUSH2 0x522 JUMP JUMPDEST JUMPDEST SWAP3 SWAP2 POP POP JUMP JUMPDEST PUSH0 DUP2 SWAP1 POP SWAP2 SWAP1 POP JUMP JUMPDEST PUSH2 0x60A PUSH2 0x605 DUP3 PUSH2 0x3ED JUMP JUMPDEST PUSH2 0x5F0 JUMP JUMPDEST DUP3 MSTORE POP POP JUMP JUMPDEST PUSH0 PUSH2 0x61B DUP3 DUP6 PUSH2 0x5F9 JUMP JUMPDEST PUSH1 0x20 DUP3 ADD SWAP2 POP PUSH2 0x62B DUP3 DUP5 PUSH2 0x5F9 JUMP JUMPDEST PUSH1 0x20 DUP3 ADD SWAP2 POP DUP2 SWAP1 POP SWAP4 SWAP3 POP POP POP JUMP JUMPDEST PUSH32 0x4E487B7100000000000000000000000000000000000000000000000000000000 PUSH0 MSTORE PUSH1 0x12 PUSH1 0x4 MSTORE PUSH1 0x24 PUSH0 REVERT JUMPDEST PUSH0 PUSH2 0x672 DUP3 PUSH2 0x3ED JUMP JUMPDEST SWAP2 POP PUSH2 0x67D DUP4 PUSH2 0x3ED JUMP JUMPDEST SWAP3 POP DUP3 PUSH2 0x68D JUMPI PUSH2 0x68C PUSH2 0x63B JUMP JUMPDEST JUMPDEST DUP3 DUP3 MOD SWAP1 POP SWAP3 SWAP2 POP POP JUMP INVALID JUMPI PUSH10 0x6E20416E64204C6F6F73 PUSH6 0x206973207468 PUSH6 0x207061727420 PUSH16 0x66207468652047616D652E5472792041 PUSH8 0x61696E212EA26469 PUSH17 0x6673582212204EEE407C46CE1465E64FF2 0x2E 0xE1 EXTCODESIZE NUMBER LOG1 DUP12 0xD0 0xED PUSH23 0xE568DBFA4FD04FCF0C76308864736F6C63430008140033 "
				},
				"gasEstimates": {
					"creation": {
						"codeDepositCost": "358200",
						"executionCost": "22497",
						"totalCost": "380697"
					},
					"external": {
						"ZombieVsZombie(uint256)": "infinite"
					},
					"internal": {
						"randomEnemy()": "infinite"
					}
				},
				"methodIdentifiers": {
					"ZombieVsZombie(uint256)": "a85b2ba7"
				}
			},
			"storageLayout": {
				"storage": [
					{
						"astId": 5,
						"contract": "contracts/ZombieGame.sol:FightZombies",
						"label": "ZombieOwner",
						"offset": 0,
						"slot": "0",
						"type": "t_mapping(t_uint256,t_address)"
					},
					{
						"astId": 9,
						"contract": "contracts/ZombieGame.sol:FightZombies",
						"label": "ZombieCount",
						"offset": 0,
						"slot": "1",
						"type": "t_mapping(t_address,t_uint256)"
					},
					{
						"astId": 33,
						"contract": "contracts/ZombieGame.sol:FightZombies",
						"label": "dnaLength",
						"offset": 0,
						"slot": "2",
						"type": "t_uint256"
					},
					{
						"astId": 37,
						"contract": "contracts/ZombieGame.sol:FightZombies",
						"label": "zombies",
						"offset": 0,
						"slot": "3",
						"type": "t_array(t_struct(zombieDetails)28_storage)dyn_storage"
					}
				],
				"types": {
					"t_address": {
						"encoding": "inplace",
						"label": "address",
						"numberOfBytes": "20"
					},
					"t_array(t_struct(zombieDetails)28_storage)dyn_storage": {
						"base": "t_struct(zombieDetails)28_storage",
						"encoding": "dynamic_array",
						"label": "struct ZombieGame.zombieDetails[]",
						"numberOfBytes": "32"
					},
					"t_mapping(t_address,t_uint256)": {
						"encoding": "mapping",
						"key": "t_address",
						"label": "mapping(address => uint256)",
						"numberOfBytes": "32",
						"value": "t_uint256"
					},
					"t_mapping(t_uint256,t_address)": {
						"encoding": "mapping",
						"key": "t_uint256",
						"label": "mapping(uint256 => address)",
						"numberOfBytes": "32",
						"value": "t_address"
					},
					"t_string_storage": {
						"encoding": "bytes",
						"label": "string",
						"numberOfBytes": "32"
					},
					"t_struct(zombieDetails)28_storage": {
						"encoding": "inplace",
						"label": "struct ZombieGame.zombieDetails",
						"members": [
							{
								"astId": 11,
								"contract": "contracts/ZombieGame.sol:FightZombies",
								"label": "plan",
								"offset": 0,
								"slot": "0",
								"type": "t_string_storage"
							},
							{
								"astId": 13,
								"contract": "contracts/ZombieGame.sol:FightZombies",
								"label": "name",
								"offset": 0,
								"slot": "1",
								"type": "t_string_storage"
							},
							{
								"astId": 15,
								"contract": "contracts/ZombieGame.sol:FightZombies",
								"label": "dna",
								"offset": 0,
								"slot": "2",
								"type": "t_uint256"
							},
							{
								"astId": 17,
								"contract": "contracts/ZombieGame.sol:FightZombies",
								"label": "level",
								"offset": 0,
								"slot": "3",
								"type": "t_uint256"
							},
							{
								"astId": 19,
								"contract": "contracts/ZombieGame.sol:FightZombies",
								"label": "xp",
								"offset": 0,
								"slot": "4",
								"type": "t_uint256"
							},
							{
								"astId": 21,
								"contract": "contracts/ZombieGame.sol:FightZombies",
								"label": "TotalMatch",
								"offset": 0,
								"slot": "5",
								"type": "t_uint256"
							},
							{
								"astId": 23,
								"contract": "contracts/ZombieGame.sol:FightZombies",
								"label": "MatchLeft",
								"offset": 0,
								"slot": "6",
								"type": "t_uint256"
							},
							{
								"astId": 25,
								"contract": "contracts/ZombieGame.sol:FightZombies",
								"label": "Wins",
								"offset": 0,
								"slot": "7",
								"type": "t_uint256"
							},
							{
								"astId": 27,
								"contract": "contracts/ZombieGame.sol:FightZombies",
								"label": "Looses",
								"offset": 0,
								"slot": "8",
								"type": "t_uint256"
							}
						],
						"numberOfBytes": "288"
					},
					"t_uint256": {
						"encoding": "inplace",
						"label": "uint256",
						"numberOfBytes": "32"
					}
				}
			},
			"userdoc": {
				"kind": "user",
				"methods": {},
				"version": 1
			}
		}
	}
}