{
	"contracts/view and pure.sol": {
		"pureuses": {
			"abi": [
				{
					"inputs": [],
					"name": "getresults",
					"outputs": [
						{
							"internalType": "uint256",
							"name": "product",
							"type": "uint256"
						},
						{
							"internalType": "uint256",
							"name": "total",
							"type": "uint256"
						}
					],
					"stateMutability": "pure",
					"type": "function"
				}
			],
			"devdoc": {
				"kind": "dev",
				"methods": {},
				"version": 1
			},
			"evm": {
				"assembly": "    /* \"contracts/view and pure.sol\":1174:1640  contract pureuses{... */\n  mstore(0x40, 0x80)\n  callvalue\n  dup1\n  iszero\n  tag_1\n  jumpi\n  0x00\n  dup1\n  revert\ntag_1:\n  pop\n  dataSize(sub_0)\n  dup1\n  dataOffset(sub_0)\n  0x00\n  codecopy\n  0x00\n  return\nstop\n\nsub_0: assembly {\n        /* \"contracts/view and pure.sol\":1174:1640  contract pureuses{... */\n      mstore(0x40, 0x80)\n      callvalue\n      dup1\n      iszero\n      tag_1\n      jumpi\n      0x00\n      dup1\n      revert\n    tag_1:\n      pop\n      jumpi(tag_2, lt(calldatasize, 0x04))\n      shr(0xe0, calldataload(0x00))\n      dup1\n      0x1de7e977\n      eq\n      tag_3\n      jumpi\n    tag_2:\n      0x00\n      dup1\n      revert\n        /* \"contracts/view and pure.sol\":1200:1395  function getresults() public pure returns(uint256 product, uint256 total){... */\n    tag_3:\n      tag_4\n      tag_5\n      jump\t// in\n    tag_4:\n      mload(0x40)\n      tag_6\n      swap3\n      swap2\n      swap1\n      tag_7\n      jump\t// in\n    tag_6:\n      mload(0x40)\n      dup1\n      swap2\n      sub\n      swap1\n      return\n    tag_5:\n        /* \"contracts/view and pure.sol\":1242:1257  uint256 product */\n      0x00\n        /* \"contracts/view and pure.sol\":1259:1272  uint256 total */\n      dup1\n        /* \"contracts/view and pure.sol\":1284:1296  uint256 num1 */\n      0x00\n        /* \"contracts/view and pure.sol\":1297:1298  5 */\n      0x05\n        /* \"contracts/view and pure.sol\":1284:1298  uint256 num1=5 */\n      swap1\n      pop\n        /* \"contracts/view and pure.sol\":1309:1321  uint256 num2 */\n      0x00\n        /* \"contracts/view and pure.sol\":1322:1323  6 */\n      0x06\n        /* \"contracts/view and pure.sol\":1309:1323  uint256 num2=6 */\n      swap1\n      pop\n        /* \"contracts/view and pure.sol\":1347:1351  num2 */\n      dup1\n        /* \"contracts/view and pure.sol\":1342:1346  num1 */\n      dup3\n        /* \"contracts/view and pure.sol\":1342:1351  num1*num2 */\n      tag_9\n      swap2\n      swap1\n      tag_10\n      jump\t// in\n    tag_9:\n        /* \"contracts/view and pure.sol\":1334:1351  product=num1*num2 */\n      swap4\n      pop\n        /* \"contracts/view and pure.sol\":1373:1377  num2 */\n      dup1\n        /* \"contracts/view and pure.sol\":1368:1372  num1 */\n      dup3\n        /* \"contracts/view and pure.sol\":1368:1377  num1+num2 */\n      tag_11\n      swap2\n      swap1\n      tag_12\n      jump\t// in\n    tag_11:\n        /* \"contracts/view and pure.sol\":1362:1377  total=num1+num2 */\n      swap3\n      pop\n        /* \"contracts/view and pure.sol\":1273:1395  {... */\n      pop\n      pop\n        /* \"contracts/view and pure.sol\":1200:1395  function getresults() public pure returns(uint256 product, uint256 total){... */\n      swap1\n      swap2\n      jump\t// out\n        /* \"#utility.yul\":7:84   */\n    tag_13:\n        /* \"#utility.yul\":44:51   */\n      0x00\n        /* \"#utility.yul\":73:78   */\n      dup2\n        /* \"#utility.yul\":62:78   */\n      swap1\n      pop\n        /* \"#utility.yul\":7:84   */\n      swap2\n      swap1\n      pop\n      jump\t// out\n        /* \"#utility.yul\":90:208   */\n    tag_14:\n        /* \"#utility.yul\":177:201   */\n      tag_19\n        /* \"#utility.yul\":195:200   */\n      dup2\n        /* \"#utility.yul\":177:201   */\n      tag_13\n      jump\t// in\n    tag_19:\n        /* \"#utility.yul\":172:175   */\n      dup3\n        /* \"#utility.yul\":165:202   */\n      mstore\n        /* \"#utility.yul\":90:208   */\n      pop\n      pop\n      jump\t// out\n        /* \"#utility.yul\":214:546   */\n    tag_7:\n        /* \"#utility.yul\":335:339   */\n      0x00\n        /* \"#utility.yul\":373:375   */\n      0x40\n        /* \"#utility.yul\":362:371   */\n      dup3\n        /* \"#utility.yul\":358:376   */\n      add\n        /* \"#utility.yul\":350:376   */\n      swap1\n      pop\n        /* \"#utility.yul\":386:457   */\n      tag_21\n        /* \"#utility.yul\":454:455   */\n      0x00\n        /* \"#utility.yul\":443:452   */\n      dup4\n        /* \"#utility.yul\":439:456   */\n      add\n        /* \"#utility.yul\":430:436   */\n      dup6\n        /* \"#utility.yul\":386:457   */\n      tag_14\n      jump\t// in\n    tag_21:\n        /* \"#utility.yul\":467:539   */\n      tag_22\n        /* \"#utility.yul\":535:537   */\n      0x20\n        /* \"#utility.yul\":524:533   */\n      dup4\n        /* \"#utility.yul\":520:538   */\n      add\n        /* \"#utility.yul\":511:517   */\n      dup5\n        /* \"#utility.yul\":467:539   */\n      tag_14\n      jump\t// in\n    tag_22:\n        /* \"#utility.yul\":214:546   */\n      swap4\n      swap3\n      pop\n      pop\n      pop\n      jump\t// out\n        /* \"#utility.yul\":552:732   */\n    tag_15:\n        /* \"#utility.yul\":600:677   */\n      0x4e487b7100000000000000000000000000000000000000000000000000000000\n        /* \"#utility.yul\":597:598   */\n      0x00\n        /* \"#utility.yul\":590:678   */\n      mstore\n        /* \"#utility.yul\":697:701   */\n      0x11\n        /* \"#utility.yul\":694:695   */\n      0x04\n        /* \"#utility.yul\":687:702   */\n      mstore\n        /* \"#utility.yul\":721:725   */\n      0x24\n        /* \"#utility.yul\":718:719   */\n      0x00\n        /* \"#utility.yul\":711:726   */\n      revert\n        /* \"#utility.yul\":738:1148   */\n    tag_10:\n        /* \"#utility.yul\":778:785   */\n      0x00\n        /* \"#utility.yul\":801:821   */\n      tag_25\n        /* \"#utility.yul\":819:820   */\n      dup3\n        /* \"#utility.yul\":801:821   */\n      tag_13\n      jump\t// in\n    tag_25:\n        /* \"#utility.yul\":796:821   */\n      swap2\n      pop\n        /* \"#utility.yul\":835:855   */\n      tag_26\n        /* \"#utility.yul\":853:854   */\n      dup4\n        /* \"#utility.yul\":835:855   */\n      tag_13\n      jump\t// in\n    tag_26:\n        /* \"#utility.yul\":830:855   */\n      swap3\n      pop\n        /* \"#utility.yul\":890:891   */\n      dup3\n        /* \"#utility.yul\":887:888   */\n      dup3\n        /* \"#utility.yul\":883:892   */\n      mul\n        /* \"#utility.yul\":912:942   */\n      tag_27\n        /* \"#utility.yul\":930:941   */\n      dup2\n        /* \"#utility.yul\":912:942   */\n      tag_13\n      jump\t// in\n    tag_27:\n        /* \"#utility.yul\":901:942   */\n      swap2\n      pop\n        /* \"#utility.yul\":1091:1092   */\n      dup3\n        /* \"#utility.yul\":1082:1089   */\n      dup3\n        /* \"#utility.yul\":1078:1093   */\n      div\n        /* \"#utility.yul\":1075:1076   */\n      dup5\n        /* \"#utility.yul\":1072:1094   */\n      eq\n        /* \"#utility.yul\":1052:1053   */\n      dup4\n        /* \"#utility.yul\":1045:1054   */\n      iszero\n        /* \"#utility.yul\":1025:1108   */\n      or\n        /* \"#utility.yul\":1002:1141   */\n      tag_28\n      jumpi\n        /* \"#utility.yul\":1121:1139   */\n      tag_29\n      tag_15\n      jump\t// in\n    tag_29:\n        /* \"#utility.yul\":1002:1141   */\n    tag_28:\n        /* \"#utility.yul\":786:1148   */\n      pop\n        /* \"#utility.yul\":738:1148   */\n      swap3\n      swap2\n      pop\n      pop\n      jump\t// out\n        /* \"#utility.yul\":1154:1345   */\n    tag_12:\n        /* \"#utility.yul\":1194:1197   */\n      0x00\n        /* \"#utility.yul\":1213:1233   */\n      tag_31\n        /* \"#utility.yul\":1231:1232   */\n      dup3\n        /* \"#utility.yul\":1213:1233   */\n      tag_13\n      jump\t// in\n    tag_31:\n        /* \"#utility.yul\":1208:1233   */\n      swap2\n      pop\n        /* \"#utility.yul\":1247:1267   */\n      tag_32\n        /* \"#utility.yul\":1265:1266   */\n      dup4\n        /* \"#utility.yul\":1247:1267   */\n      tag_13\n      jump\t// in\n    tag_32:\n        /* \"#utility.yul\":1242:1267   */\n      swap3\n      pop\n        /* \"#utility.yul\":1290:1291   */\n      dup3\n        /* \"#utility.yul\":1287:1288   */\n      dup3\n        /* \"#utility.yul\":1283:1292   */\n      add\n        /* \"#utility.yul\":1276:1292   */\n      swap1\n      pop\n        /* \"#utility.yul\":1311:1314   */\n      dup1\n        /* \"#utility.yul\":1308:1309   */\n      dup3\n        /* \"#utility.yul\":1305:1315   */\n      gt\n        /* \"#utility.yul\":1302:1338   */\n      iszero\n      tag_33\n      jumpi\n        /* \"#utility.yul\":1318:1336   */\n      tag_34\n      tag_15\n      jump\t// in\n    tag_34:\n        /* \"#utility.yul\":1302:1338   */\n    tag_33:\n        /* \"#utility.yul\":1154:1345   */\n      swap3\n      swap2\n      pop\n      pop\n      jump\t// out\n\n    auxdata: 0xa264697066735822122049b3b55050afc36b91f8b096066af06f6818efe51815a747bb32acb7d8ff0ce164736f6c63430008120033\n}\n",
				"bytecode": {
					"linkReferences": {},
					"object": "608060405234801561001057600080fd5b5061019d806100206000396000f3fe608060405234801561001057600080fd5b506004361061002b5760003560e01c80631de7e97714610030575b600080fd5b61003861004f565b604051610046929190610099565b60405180910390f35b600080600060059050600060069050808261006a91906100f1565b935080826100789190610133565b925050509091565b6000819050919050565b61009381610080565b82525050565b60006040820190506100ae600083018561008a565b6100bb602083018461008a565b9392505050565b7f4e487b7100000000000000000000000000000000000000000000000000000000600052601160045260246000fd5b60006100fc82610080565b915061010783610080565b925082820261011581610080565b9150828204841483151761012c5761012b6100c2565b5b5092915050565b600061013e82610080565b915061014983610080565b9250828201905080821115610161576101606100c2565b5b9291505056fea264697066735822122049b3b55050afc36b91f8b096066af06f6818efe51815a747bb32acb7d8ff0ce164736f6c63430008120033",
					"opcodes": "PUSH1 0x80 PUSH1 0x40 MSTORE CALLVALUE DUP1 ISZERO PUSH2 0x10 JUMPI PUSH1 0x0 DUP1 REVERT JUMPDEST POP PUSH2 0x19D DUP1 PUSH2 0x20 PUSH1 0x0 CODECOPY PUSH1 0x0 RETURN INVALID PUSH1 0x80 PUSH1 0x40 MSTORE CALLVALUE DUP1 ISZERO PUSH2 0x10 JUMPI PUSH1 0x0 DUP1 REVERT JUMPDEST POP PUSH1 0x4 CALLDATASIZE LT PUSH2 0x2B JUMPI PUSH1 0x0 CALLDATALOAD PUSH1 0xE0 SHR DUP1 PUSH4 0x1DE7E977 EQ PUSH2 0x30 JUMPI JUMPDEST PUSH1 0x0 DUP1 REVERT JUMPDEST PUSH2 0x38 PUSH2 0x4F JUMP JUMPDEST PUSH1 0x40 MLOAD PUSH2 0x46 SWAP3 SWAP2 SWAP1 PUSH2 0x99 JUMP JUMPDEST PUSH1 0x40 MLOAD DUP1 SWAP2 SUB SWAP1 RETURN JUMPDEST PUSH1 0x0 DUP1 PUSH1 0x0 PUSH1 0x5 SWAP1 POP PUSH1 0x0 PUSH1 0x6 SWAP1 POP DUP1 DUP3 PUSH2 0x6A SWAP2 SWAP1 PUSH2 0xF1 JUMP JUMPDEST SWAP4 POP DUP1 DUP3 PUSH2 0x78 SWAP2 SWAP1 PUSH2 0x133 JUMP JUMPDEST SWAP3 POP POP POP SWAP1 SWAP2 JUMP JUMPDEST PUSH1 0x0 DUP2 SWAP1 POP SWAP2 SWAP1 POP JUMP JUMPDEST PUSH2 0x93 DUP2 PUSH2 0x80 JUMP JUMPDEST DUP3 MSTORE POP POP JUMP JUMPDEST PUSH1 0x0 PUSH1 0x40 DUP3 ADD SWAP1 POP PUSH2 0xAE PUSH1 0x0 DUP4 ADD DUP6 PUSH2 0x8A JUMP JUMPDEST PUSH2 0xBB PUSH1 0x20 DUP4 ADD DUP5 PUSH2 0x8A JUMP JUMPDEST SWAP4 SWAP3 POP POP POP JUMP JUMPDEST PUSH32 0x4E487B7100000000000000000000000000000000000000000000000000000000 PUSH1 0x0 MSTORE PUSH1 0x11 PUSH1 0x4 MSTORE PUSH1 0x24 PUSH1 0x0 REVERT JUMPDEST PUSH1 0x0 PUSH2 0xFC DUP3 PUSH2 0x80 JUMP JUMPDEST SWAP2 POP PUSH2 0x107 DUP4 PUSH2 0x80 JUMP JUMPDEST SWAP3 POP DUP3 DUP3 MUL PUSH2 0x115 DUP2 PUSH2 0x80 JUMP JUMPDEST SWAP2 POP DUP3 DUP3 DIV DUP5 EQ DUP4 ISZERO OR PUSH2 0x12C JUMPI PUSH2 0x12B PUSH2 0xC2 JUMP JUMPDEST JUMPDEST POP SWAP3 SWAP2 POP POP JUMP JUMPDEST PUSH1 0x0 PUSH2 0x13E DUP3 PUSH2 0x80 JUMP JUMPDEST SWAP2 POP PUSH2 0x149 DUP4 PUSH2 0x80 JUMP JUMPDEST SWAP3 POP DUP3 DUP3 ADD SWAP1 POP DUP1 DUP3 GT ISZERO PUSH2 0x161 JUMPI PUSH2 0x160 PUSH2 0xC2 JUMP JUMPDEST JUMPDEST SWAP3 SWAP2 POP POP JUMP INVALID LOG2 PUSH5 0x6970667358 0x22 SLT KECCAK256 0x49 0xB3 0xB5 POP POP 0xAF 0xC3 PUSH12 0x91F8B096066AF06F6818EFE5 XOR ISZERO 0xA7 SELFBALANCE 0xBB ORIGIN 0xAC 0xB7 0xD8 SELFDESTRUCT 0xC 0xE1 PUSH5 0x736F6C6343 STOP ADDMOD SLT STOP CALLER "
				},
				"gasEstimates": {
					"creation": {
						"codeDepositCost": "82600",
						"executionCost": "129",
						"totalCost": "82729"
					},
					"external": {
						"getresults()": "infinite"
					}
				},
				"methodIdentifiers": {
					"getresults()": "1de7e977"
				}
			},
			"storageLayout": {
				"storage": [],
				"types": null
			},
			"userdoc": {
				"kind": "user",
				"methods": {},
				"version": 1
			}
		}
	}
}