{
	"contracts/delegatecall.sol": {
		"Caller": {
			"abi": [
				{
					"inputs": [],
					"name": "num",
					"outputs": [
						{
							"internalType": "uint256",
							"name": "",
							"type": "uint256"
						}
					],
					"stateMutability": "view",
					"type": "function"
				},
				{
					"inputs": [
						{
							"internalType": "address",
							"name": "_targetContract",
							"type": "address"
						},
						{
							"internalType": "uint256",
							"name": "_value",
							"type": "uint256"
						}
					],
					"name": "setValue",
					"outputs": [],
					"stateMutability": "payable",
					"type": "function"
				},
				{
					"inputs": [],
					"name": "value",
					"outputs": [
						{
							"internalType": "uint256",
							"name": "",
							"type": "uint256"
						}
					],
					"stateMutability": "view",
					"type": "function"
				}
			],
			"devdoc": {
				"kind": "dev",
				"methods": {},
				"version": 1
			},
			"evm": {
				"assembly": "    /* \"contracts/delegatecall.sol\":1376:1780  contract Caller {... */\n  mstore(0x40, 0x80)\n  callvalue\n  dup1\n  iszero\n  tag_1\n  jumpi\n  0x00\n  dup1\n  revert\ntag_1:\n  pop\n  dataSize(sub_0)\n  dup1\n  dataOffset(sub_0)\n  0x00\n  codecopy\n  0x00\n  return\nstop\n\nsub_0: assembly {\n        /* \"contracts/delegatecall.sol\":1376:1780  contract Caller {... */\n      mstore(0x40, 0x80)\n      jumpi(tag_1, lt(calldatasize, 0x04))\n      shr(0xe0, calldataload(0x00))\n      dup1\n      0x3fa4f245\n      eq\n      tag_2\n      jumpi\n      dup1\n      0x48461b56\n      eq\n      tag_3\n      jumpi\n      dup1\n      0x4e70b1dc\n      eq\n      tag_4\n      jumpi\n    tag_1:\n      0x00\n      dup1\n      revert\n        /* \"contracts/delegatecall.sol\":1399:1419  uint256 public value */\n    tag_2:\n      callvalue\n      dup1\n      iszero\n      tag_5\n      jumpi\n      0x00\n      dup1\n      revert\n    tag_5:\n      pop\n      tag_6\n      tag_7\n      jump\t// in\n    tag_6:\n      mload(0x40)\n      tag_8\n      swap2\n      swap1\n      tag_9\n      jump\t// in\n    tag_8:\n      mload(0x40)\n      dup1\n      swap2\n      sub\n      swap1\n      return\n        /* \"contracts/delegatecall.sol\":1453:1775  function setValue(address _targetContract, uint256 _value) public payable  {... */\n    tag_3:\n      tag_10\n      0x04\n      dup1\n      calldatasize\n      sub\n      dup2\n      add\n      swap1\n      tag_11\n      swap2\n      swap1\n      tag_12\n      jump\t// in\n    tag_11:\n      tag_13\n      jump\t// in\n    tag_10:\n      stop\n        /* \"contracts/delegatecall.sol\":1426:1444  uint256 public num */\n    tag_4:\n      callvalue\n      dup1\n      iszero\n      tag_14\n      jumpi\n      0x00\n      dup1\n      revert\n    tag_14:\n      pop\n      tag_15\n      tag_16\n      jump\t// in\n    tag_15:\n      mload(0x40)\n      tag_17\n      swap2\n      swap1\n      tag_9\n      jump\t// in\n    tag_17:\n      mload(0x40)\n      dup1\n      swap2\n      sub\n      swap1\n      return\n        /* \"contracts/delegatecall.sol\":1399:1419  uint256 public value */\n    tag_7:\n      sload(0x00)\n      dup2\n      jump\t// out\n        /* \"contracts/delegatecall.sol\":1453:1775  function setValue(address _targetContract, uint256 _value) public payable  {... */\n    tag_13:\n        /* \"contracts/delegatecall.sol\":1618:1630  bool success */\n      0x00\n        /* \"contracts/delegatecall.sol\":1635:1650  _targetContract */\n      dup3\n        /* \"contracts/delegatecall.sol\":1635:1663  _targetContract.delegatecall */\n      0xffffffffffffffffffffffffffffffffffffffff\n      and\n        /* \"contracts/delegatecall.sol\":1709:1715  _value */\n      dup3\n        /* \"contracts/delegatecall.sol\":1664:1716  abi.encodeWithSignature(\"setValue(uint256)\", _value) */\n      add(0x24, mload(0x40))\n      tag_19\n      swap2\n      swap1\n      tag_9\n      jump\t// in\n    tag_19:\n      mload(0x40)\n      0x20\n      dup2\n      dup4\n      sub\n      sub\n      dup2\n      mstore\n      swap1\n      0x40\n      mstore\n      and(not(0xffffffffffffffffffffffffffffffffffffffffffffffffffffffff), 0x5524107700000000000000000000000000000000000000000000000000000000)\n      0x20\n      dup3\n      add\n      dup1\n      mload\n      0xffffffffffffffffffffffffffffffffffffffffffffffffffffffff\n      dup4\n      dup2\n      dup4\n      and\n      or\n      dup4\n      mstore\n      pop\n      pop\n      pop\n      pop\n        /* \"contracts/delegatecall.sol\":1635:1717  _targetContract.delegatecall(abi.encodeWithSignature(\"setValue(uint256)\", _value)) */\n      mload(0x40)\n      tag_20\n      swap2\n      swap1\n      tag_21\n      jump\t// in\n    tag_20:\n      0x00\n      mload(0x40)\n      dup1\n      dup4\n      sub\n      dup2\n      dup6\n      gas\n      delegatecall\n      swap2\n      pop\n      pop\n      returndatasize\n      dup1\n      0x00\n      dup2\n      eq\n      tag_24\n      jumpi\n      mload(0x40)\n      swap2\n      pop\n      and(add(returndatasize, 0x3f), not(0x1f))\n      dup3\n      add\n      0x40\n      mstore\n      returndatasize\n      dup3\n      mstore\n      returndatasize\n      0x00\n      0x20\n      dup5\n      add\n      returndatacopy\n      jump(tag_23)\n    tag_24:\n      0x60\n      swap2\n      pop\n    tag_23:\n      pop\n        /* \"contracts/delegatecall.sol\":1617:1717  (bool success,) = _targetContract.delegatecall(abi.encodeWithSignature(\"setValue(uint256)\", _value)) */\n      pop\n      swap1\n      pop\n        /* \"contracts/delegatecall.sol\":1736:1743  success */\n      dup1\n        /* \"contracts/delegatecall.sol\":1728:1767  require(success, \"Delegatecall failed\") */\n      tag_25\n      jumpi\n      mload(0x40)\n      0x08c379a000000000000000000000000000000000000000000000000000000000\n      dup2\n      mstore\n      0x04\n      add\n      tag_26\n      swap1\n      tag_27\n      jump\t// in\n    tag_26:\n      mload(0x40)\n      dup1\n      swap2\n      sub\n      swap1\n      revert\n    tag_25:\n        /* \"contracts/delegatecall.sol\":1528:1775  {... */\n      pop\n        /* \"contracts/delegatecall.sol\":1453:1775  function setValue(address _targetContract, uint256 _value) public payable  {... */\n      pop\n      pop\n      jump\t// out\n        /* \"contracts/delegatecall.sol\":1426:1444  uint256 public num */\n    tag_16:\n      sload(0x01)\n      dup2\n      jump\t// out\n        /* \"#utility.yul\":7:84   */\n    tag_28:\n        /* \"#utility.yul\":44:51   */\n      0x00\n        /* \"#utility.yul\":73:78   */\n      dup2\n        /* \"#utility.yul\":62:78   */\n      swap1\n      pop\n        /* \"#utility.yul\":7:84   */\n      swap2\n      swap1\n      pop\n      jump\t// out\n        /* \"#utility.yul\":90:208   */\n    tag_29:\n        /* \"#utility.yul\":177:201   */\n      tag_49\n        /* \"#utility.yul\":195:200   */\n      dup2\n        /* \"#utility.yul\":177:201   */\n      tag_28\n      jump\t// in\n    tag_49:\n        /* \"#utility.yul\":172:175   */\n      dup3\n        /* \"#utility.yul\":165:202   */\n      mstore\n        /* \"#utility.yul\":90:208   */\n      pop\n      pop\n      jump\t// out\n        /* \"#utility.yul\":214:436   */\n    tag_9:\n        /* \"#utility.yul\":307:311   */\n      0x00\n        /* \"#utility.yul\":345:347   */\n      0x20\n        /* \"#utility.yul\":334:343   */\n      dup3\n        /* \"#utility.yul\":330:348   */\n      add\n        /* \"#utility.yul\":322:348   */\n      swap1\n      pop\n        /* \"#utility.yul\":358:429   */\n      tag_51\n        /* \"#utility.yul\":426:427   */\n      0x00\n        /* \"#utility.yul\":415:424   */\n      dup4\n        /* \"#utility.yul\":411:428   */\n      add\n        /* \"#utility.yul\":402:408   */\n      dup5\n        /* \"#utility.yul\":358:429   */\n      tag_29\n      jump\t// in\n    tag_51:\n        /* \"#utility.yul\":214:436   */\n      swap3\n      swap2\n      pop\n      pop\n      jump\t// out\n        /* \"#utility.yul\":523:640   */\n    tag_31:\n        /* \"#utility.yul\":632:633   */\n      0x00\n        /* \"#utility.yul\":629:630   */\n      dup1\n        /* \"#utility.yul\":622:634   */\n      revert\n        /* \"#utility.yul\":769:895   */\n    tag_33:\n        /* \"#utility.yul\":806:813   */\n      0x00\n        /* \"#utility.yul\":846:888   */\n      0xffffffffffffffffffffffffffffffffffffffff\n        /* \"#utility.yul\":839:844   */\n      dup3\n        /* \"#utility.yul\":835:889   */\n      and\n        /* \"#utility.yul\":824:889   */\n      swap1\n      pop\n        /* \"#utility.yul\":769:895   */\n      swap2\n      swap1\n      pop\n      jump\t// out\n        /* \"#utility.yul\":901:997   */\n    tag_34:\n        /* \"#utility.yul\":938:945   */\n      0x00\n        /* \"#utility.yul\":967:991   */\n      tag_57\n        /* \"#utility.yul\":985:990   */\n      dup3\n        /* \"#utility.yul\":967:991   */\n      tag_33\n      jump\t// in\n    tag_57:\n        /* \"#utility.yul\":956:991   */\n      swap1\n      pop\n        /* \"#utility.yul\":901:997   */\n      swap2\n      swap1\n      pop\n      jump\t// out\n        /* \"#utility.yul\":1003:1125   */\n    tag_35:\n        /* \"#utility.yul\":1076:1100   */\n      tag_59\n        /* \"#utility.yul\":1094:1099   */\n      dup2\n        /* \"#utility.yul\":1076:1100   */\n      tag_34\n      jump\t// in\n    tag_59:\n        /* \"#utility.yul\":1069:1074   */\n      dup2\n        /* \"#utility.yul\":1066:1101   */\n      eq\n        /* \"#utility.yul\":1056:1119   */\n      tag_60\n      jumpi\n        /* \"#utility.yul\":1115:1116   */\n      0x00\n        /* \"#utility.yul\":1112:1113   */\n      dup1\n        /* \"#utility.yul\":1105:1117   */\n      revert\n        /* \"#utility.yul\":1056:1119   */\n    tag_60:\n        /* \"#utility.yul\":1003:1125   */\n      pop\n      jump\t// out\n        /* \"#utility.yul\":1131:1270   */\n    tag_36:\n        /* \"#utility.yul\":1177:1182   */\n      0x00\n        /* \"#utility.yul\":1215:1221   */\n      dup2\n        /* \"#utility.yul\":1202:1222   */\n      calldataload\n        /* \"#utility.yul\":1193:1222   */\n      swap1\n      pop\n        /* \"#utility.yul\":1231:1264   */\n      tag_62\n        /* \"#utility.yul\":1258:1263   */\n      dup2\n        /* \"#utility.yul\":1231:1264   */\n      tag_35\n      jump\t// in\n    tag_62:\n        /* \"#utility.yul\":1131:1270   */\n      swap3\n      swap2\n      pop\n      pop\n      jump\t// out\n        /* \"#utility.yul\":1276:1398   */\n    tag_37:\n        /* \"#utility.yul\":1349:1373   */\n      tag_64\n        /* \"#utility.yul\":1367:1372   */\n      dup2\n        /* \"#utility.yul\":1349:1373   */\n      tag_28\n      jump\t// in\n    tag_64:\n        /* \"#utility.yul\":1342:1347   */\n      dup2\n        /* \"#utility.yul\":1339:1374   */\n      eq\n        /* \"#utility.yul\":1329:1392   */\n      tag_65\n      jumpi\n        /* \"#utility.yul\":1388:1389   */\n      0x00\n        /* \"#utility.yul\":1385:1386   */\n      dup1\n        /* \"#utility.yul\":1378:1390   */\n      revert\n        /* \"#utility.yul\":1329:1392   */\n    tag_65:\n        /* \"#utility.yul\":1276:1398   */\n      pop\n      jump\t// out\n        /* \"#utility.yul\":1404:1543   */\n    tag_38:\n        /* \"#utility.yul\":1450:1455   */\n      0x00\n        /* \"#utility.yul\":1488:1494   */\n      dup2\n        /* \"#utility.yul\":1475:1495   */\n      calldataload\n        /* \"#utility.yul\":1466:1495   */\n      swap1\n      pop\n        /* \"#utility.yul\":1504:1537   */\n      tag_67\n        /* \"#utility.yul\":1531:1536   */\n      dup2\n        /* \"#utility.yul\":1504:1537   */\n      tag_37\n      jump\t// in\n    tag_67:\n        /* \"#utility.yul\":1404:1543   */\n      swap3\n      swap2\n      pop\n      pop\n      jump\t// out\n        /* \"#utility.yul\":1549:2023   */\n    tag_12:\n        /* \"#utility.yul\":1617:1623   */\n      0x00\n        /* \"#utility.yul\":1625:1631   */\n      dup1\n        /* \"#utility.yul\":1674:1676   */\n      0x40\n        /* \"#utility.yul\":1662:1671   */\n      dup4\n        /* \"#utility.yul\":1653:1660   */\n      dup6\n        /* \"#utility.yul\":1649:1672   */\n      sub\n        /* \"#utility.yul\":1645:1677   */\n      slt\n        /* \"#utility.yul\":1642:1761   */\n      iszero\n      tag_69\n      jumpi\n        /* \"#utility.yul\":1680:1759   */\n      tag_70\n      tag_31\n      jump\t// in\n    tag_70:\n        /* \"#utility.yul\":1642:1761   */\n    tag_69:\n        /* \"#utility.yul\":1800:1801   */\n      0x00\n        /* \"#utility.yul\":1825:1878   */\n      tag_71\n        /* \"#utility.yul\":1870:1877   */\n      dup6\n        /* \"#utility.yul\":1861:1867   */\n      dup3\n        /* \"#utility.yul\":1850:1859   */\n      dup7\n        /* \"#utility.yul\":1846:1868   */\n      add\n        /* \"#utility.yul\":1825:1878   */\n      tag_36\n      jump\t// in\n    tag_71:\n        /* \"#utility.yul\":1815:1878   */\n      swap3\n      pop\n        /* \"#utility.yul\":1771:1888   */\n      pop\n        /* \"#utility.yul\":1927:1929   */\n      0x20\n        /* \"#utility.yul\":1953:2006   */\n      tag_72\n        /* \"#utility.yul\":1998:2005   */\n      dup6\n        /* \"#utility.yul\":1989:1995   */\n      dup3\n        /* \"#utility.yul\":1978:1987   */\n      dup7\n        /* \"#utility.yul\":1974:1996   */\n      add\n        /* \"#utility.yul\":1953:2006   */\n      tag_38\n      jump\t// in\n    tag_72:\n        /* \"#utility.yul\":1943:2006   */\n      swap2\n      pop\n        /* \"#utility.yul\":1898:2016   */\n      pop\n        /* \"#utility.yul\":1549:2023   */\n      swap3\n      pop\n      swap3\n      swap1\n      pop\n      jump\t// out\n        /* \"#utility.yul\":2029:2127   */\n    tag_39:\n        /* \"#utility.yul\":2080:2086   */\n      0x00\n        /* \"#utility.yul\":2114:2119   */\n      dup2\n        /* \"#utility.yul\":2108:2120   */\n      mload\n        /* \"#utility.yul\":2098:2120   */\n      swap1\n      pop\n        /* \"#utility.yul\":2029:2127   */\n      swap2\n      swap1\n      pop\n      jump\t// out\n        /* \"#utility.yul\":2133:2280   */\n    tag_40:\n        /* \"#utility.yul\":2234:2245   */\n      0x00\n        /* \"#utility.yul\":2271:2274   */\n      dup2\n        /* \"#utility.yul\":2256:2274   */\n      swap1\n      pop\n        /* \"#utility.yul\":2133:2280   */\n      swap3\n      swap2\n      pop\n      pop\n      jump\t// out\n        /* \"#utility.yul\":2286:2532   */\n    tag_41:\n        /* \"#utility.yul\":2367:2368   */\n      0x00\n        /* \"#utility.yul\":2377:2490   */\n    tag_76:\n        /* \"#utility.yul\":2391:2397   */\n      dup4\n        /* \"#utility.yul\":2388:2389   */\n      dup2\n        /* \"#utility.yul\":2385:2398   */\n      lt\n        /* \"#utility.yul\":2377:2490   */\n      iszero\n      tag_78\n      jumpi\n        /* \"#utility.yul\":2476:2477   */\n      dup1\n        /* \"#utility.yul\":2471:2474   */\n      dup3\n        /* \"#utility.yul\":2467:2478   */\n      add\n        /* \"#utility.yul\":2461:2479   */\n      mload\n        /* \"#utility.yul\":2457:2458   */\n      dup2\n        /* \"#utility.yul\":2452:2455   */\n      dup5\n        /* \"#utility.yul\":2448:2459   */\n      add\n        /* \"#utility.yul\":2441:2480   */\n      mstore\n        /* \"#utility.yul\":2413:2415   */\n      0x20\n        /* \"#utility.yul\":2410:2411   */\n      dup2\n        /* \"#utility.yul\":2406:2416   */\n      add\n        /* \"#utility.yul\":2401:2416   */\n      swap1\n      pop\n        /* \"#utility.yul\":2377:2490   */\n      jump(tag_76)\n    tag_78:\n        /* \"#utility.yul\":2524:2525   */\n      0x00\n        /* \"#utility.yul\":2515:2521   */\n      dup5\n        /* \"#utility.yul\":2510:2513   */\n      dup5\n        /* \"#utility.yul\":2506:2522   */\n      add\n        /* \"#utility.yul\":2499:2526   */\n      mstore\n        /* \"#utility.yul\":2348:2532   */\n      pop\n        /* \"#utility.yul\":2286:2532   */\n      pop\n      pop\n      pop\n      jump\t// out\n        /* \"#utility.yul\":2538:2924   */\n    tag_42:\n        /* \"#utility.yul\":2642:2645   */\n      0x00\n        /* \"#utility.yul\":2670:2708   */\n      tag_80\n        /* \"#utility.yul\":2702:2707   */\n      dup3\n        /* \"#utility.yul\":2670:2708   */\n      tag_39\n      jump\t// in\n    tag_80:\n        /* \"#utility.yul\":2724:2812   */\n      tag_81\n        /* \"#utility.yul\":2805:2811   */\n      dup2\n        /* \"#utility.yul\":2800:2803   */\n      dup6\n        /* \"#utility.yul\":2724:2812   */\n      tag_40\n      jump\t// in\n    tag_81:\n        /* \"#utility.yul\":2717:2812   */\n      swap4\n      pop\n        /* \"#utility.yul\":2821:2886   */\n      tag_82\n        /* \"#utility.yul\":2879:2885   */\n      dup2\n        /* \"#utility.yul\":2874:2877   */\n      dup6\n        /* \"#utility.yul\":2867:2871   */\n      0x20\n        /* \"#utility.yul\":2860:2865   */\n      dup7\n        /* \"#utility.yul\":2856:2872   */\n      add\n        /* \"#utility.yul\":2821:2886   */\n      tag_41\n      jump\t// in\n    tag_82:\n        /* \"#utility.yul\":2911:2917   */\n      dup1\n        /* \"#utility.yul\":2906:2909   */\n      dup5\n        /* \"#utility.yul\":2902:2918   */\n      add\n        /* \"#utility.yul\":2895:2918   */\n      swap2\n      pop\n        /* \"#utility.yul\":2646:2924   */\n      pop\n        /* \"#utility.yul\":2538:2924   */\n      swap3\n      swap2\n      pop\n      pop\n      jump\t// out\n        /* \"#utility.yul\":2930:3201   */\n    tag_21:\n        /* \"#utility.yul\":3060:3063   */\n      0x00\n        /* \"#utility.yul\":3082:3175   */\n      tag_84\n        /* \"#utility.yul\":3171:3174   */\n      dup3\n        /* \"#utility.yul\":3162:3168   */\n      dup5\n        /* \"#utility.yul\":3082:3175   */\n      tag_42\n      jump\t// in\n    tag_84:\n        /* \"#utility.yul\":3075:3175   */\n      swap2\n      pop\n        /* \"#utility.yul\":3192:3195   */\n      dup2\n        /* \"#utility.yul\":3185:3195   */\n      swap1\n      pop\n        /* \"#utility.yul\":2930:3201   */\n      swap3\n      swap2\n      pop\n      pop\n      jump\t// out\n        /* \"#utility.yul\":3207:3376   */\n    tag_43:\n        /* \"#utility.yul\":3291:3302   */\n      0x00\n        /* \"#utility.yul\":3325:3331   */\n      dup3\n        /* \"#utility.yul\":3320:3323   */\n      dup3\n        /* \"#utility.yul\":3313:3332   */\n      mstore\n        /* \"#utility.yul\":3365:3369   */\n      0x20\n        /* \"#utility.yul\":3360:3363   */\n      dup3\n        /* \"#utility.yul\":3356:3370   */\n      add\n        /* \"#utility.yul\":3341:3370   */\n      swap1\n      pop\n        /* \"#utility.yul\":3207:3376   */\n      swap3\n      swap2\n      pop\n      pop\n      jump\t// out\n        /* \"#utility.yul\":3382:3551   */\n    tag_44:\n        /* \"#utility.yul\":3522:3543   */\n      0x44656c656761746563616c6c206661696c656400000000000000000000000000\n        /* \"#utility.yul\":3518:3519   */\n      0x00\n        /* \"#utility.yul\":3510:3516   */\n      dup3\n        /* \"#utility.yul\":3506:3520   */\n      add\n        /* \"#utility.yul\":3499:3544   */\n      mstore\n        /* \"#utility.yul\":3382:3551   */\n      pop\n      jump\t// out\n        /* \"#utility.yul\":3557:3923   */\n    tag_45:\n        /* \"#utility.yul\":3699:3702   */\n      0x00\n        /* \"#utility.yul\":3720:3787   */\n      tag_88\n        /* \"#utility.yul\":3784:3786   */\n      0x13\n        /* \"#utility.yul\":3779:3782   */\n      dup4\n        /* \"#utility.yul\":3720:3787   */\n      tag_43\n      jump\t// in\n    tag_88:\n        /* \"#utility.yul\":3713:3787   */\n      swap2\n      pop\n        /* \"#utility.yul\":3796:3889   */\n      tag_89\n        /* \"#utility.yul\":3885:3888   */\n      dup3\n        /* \"#utility.yul\":3796:3889   */\n      tag_44\n      jump\t// in\n    tag_89:\n        /* \"#utility.yul\":3914:3916   */\n      0x20\n        /* \"#utility.yul\":3909:3912   */\n      dup3\n        /* \"#utility.yul\":3905:3917   */\n      add\n        /* \"#utility.yul\":3898:3917   */\n      swap1\n      pop\n        /* \"#utility.yul\":3557:3923   */\n      swap2\n      swap1\n      pop\n      jump\t// out\n        /* \"#utility.yul\":3929:4348   */\n    tag_27:\n        /* \"#utility.yul\":4095:4099   */\n      0x00\n        /* \"#utility.yul\":4133:4135   */\n      0x20\n        /* \"#utility.yul\":4122:4131   */\n      dup3\n        /* \"#utility.yul\":4118:4136   */\n      add\n        /* \"#utility.yul\":4110:4136   */\n      swap1\n      pop\n        /* \"#utility.yul\":4182:4191   */\n      dup2\n        /* \"#utility.yul\":4176:4180   */\n      dup2\n        /* \"#utility.yul\":4172:4192   */\n      sub\n        /* \"#utility.yul\":4168:4169   */\n      0x00\n        /* \"#utility.yul\":4157:4166   */\n      dup4\n        /* \"#utility.yul\":4153:4170   */\n      add\n        /* \"#utility.yul\":4146:4193   */\n      mstore\n        /* \"#utility.yul\":4210:4341   */\n      tag_91\n        /* \"#utility.yul\":4336:4340   */\n      dup2\n        /* \"#utility.yul\":4210:4341   */\n      tag_45\n      jump\t// in\n    tag_91:\n        /* \"#utility.yul\":4202:4341   */\n      swap1\n      pop\n        /* \"#utility.yul\":3929:4348   */\n      swap2\n      swap1\n      pop\n      jump\t// out\n\n    auxdata: 0xa26469706673582212203f4257d004ea6cf680cdeda5623cb67335dacd689582ecc6e80c9a1a37aefd9664736f6c63430008120033\n}\n",
				"bytecode": {
					"linkReferences": {},
					"object": "608060405234801561001057600080fd5b50610432806100206000396000f3fe6080604052600436106100345760003560e01c80633fa4f2451461003957806348461b56146100645780634e70b1dc14610080575b600080fd5b34801561004557600080fd5b5061004e6100ab565b60405161005b919061020d565b60405180910390f35b61007e600480360381019061007991906102b7565b6100b1565b005b34801561008c57600080fd5b506100956101ee565b6040516100a2919061020d565b60405180910390f35b60005481565b60008273ffffffffffffffffffffffffffffffffffffffff16826040516024016100db919061020d565b6040516020818303038152906040527f55241077000000000000000000000000000000000000000000000000000000007bffffffffffffffffffffffffffffffffffffffffffffffffffffffff19166020820180517bffffffffffffffffffffffffffffffffffffffffffffffffffffffff83818316178352505050506040516101659190610368565b600060405180830381855af49150503d80600081146101a0576040519150601f19603f3d011682016040523d82523d6000602084013e6101a5565b606091505b50509050806101e9576040517f08c379a00000000000000000000000000000000000000000000000000000000081526004016101e0906103dc565b60405180910390fd5b505050565b60015481565b6000819050919050565b610207816101f4565b82525050565b600060208201905061022260008301846101fe565b92915050565b600080fd5b600073ffffffffffffffffffffffffffffffffffffffff82169050919050565b60006102588261022d565b9050919050565b6102688161024d565b811461027357600080fd5b50565b6000813590506102858161025f565b92915050565b610294816101f4565b811461029f57600080fd5b50565b6000813590506102b18161028b565b92915050565b600080604083850312156102ce576102cd610228565b5b60006102dc85828601610276565b92505060206102ed858286016102a2565b9150509250929050565b600081519050919050565b600081905092915050565b60005b8381101561032b578082015181840152602081019050610310565b60008484015250505050565b6000610342826102f7565b61034c8185610302565b935061035c81856020860161030d565b80840191505092915050565b60006103748284610337565b915081905092915050565b600082825260208201905092915050565b7f44656c656761746563616c6c206661696c656400000000000000000000000000600082015250565b60006103c660138361037f565b91506103d182610390565b602082019050919050565b600060208201905081810360008301526103f5816103b9565b905091905056fea26469706673582212203f4257d004ea6cf680cdeda5623cb67335dacd689582ecc6e80c9a1a37aefd9664736f6c63430008120033",
					"opcodes": "PUSH1 0x80 PUSH1 0x40 MSTORE CALLVALUE DUP1 ISZERO PUSH2 0x10 JUMPI PUSH1 0x0 DUP1 REVERT JUMPDEST POP PUSH2 0x432 DUP1 PUSH2 0x20 PUSH1 0x0 CODECOPY PUSH1 0x0 RETURN INVALID PUSH1 0x80 PUSH1 0x40 MSTORE PUSH1 0x4 CALLDATASIZE LT PUSH2 0x34 JUMPI PUSH1 0x0 CALLDATALOAD PUSH1 0xE0 SHR DUP1 PUSH4 0x3FA4F245 EQ PUSH2 0x39 JUMPI DUP1 PUSH4 0x48461B56 EQ PUSH2 0x64 JUMPI DUP1 PUSH4 0x4E70B1DC EQ PUSH2 0x80 JUMPI JUMPDEST PUSH1 0x0 DUP1 REVERT JUMPDEST CALLVALUE DUP1 ISZERO PUSH2 0x45 JUMPI PUSH1 0x0 DUP1 REVERT JUMPDEST POP PUSH2 0x4E PUSH2 0xAB JUMP JUMPDEST PUSH1 0x40 MLOAD PUSH2 0x5B SWAP2 SWAP1 PUSH2 0x20D JUMP JUMPDEST PUSH1 0x40 MLOAD DUP1 SWAP2 SUB SWAP1 RETURN JUMPDEST PUSH2 0x7E PUSH1 0x4 DUP1 CALLDATASIZE SUB DUP2 ADD SWAP1 PUSH2 0x79 SWAP2 SWAP1 PUSH2 0x2B7 JUMP JUMPDEST PUSH2 0xB1 JUMP JUMPDEST STOP JUMPDEST CALLVALUE DUP1 ISZERO PUSH2 0x8C JUMPI PUSH1 0x0 DUP1 REVERT JUMPDEST POP PUSH2 0x95 PUSH2 0x1EE JUMP JUMPDEST PUSH1 0x40 MLOAD PUSH2 0xA2 SWAP2 SWAP1 PUSH2 0x20D JUMP JUMPDEST PUSH1 0x40 MLOAD DUP1 SWAP2 SUB SWAP1 RETURN JUMPDEST PUSH1 0x0 SLOAD DUP2 JUMP JUMPDEST PUSH1 0x0 DUP3 PUSH20 0xFFFFFFFFFFFFFFFFFFFFFFFFFFFFFFFFFFFFFFFF AND DUP3 PUSH1 0x40 MLOAD PUSH1 0x24 ADD PUSH2 0xDB SWAP2 SWAP1 PUSH2 0x20D JUMP JUMPDEST PUSH1 0x40 MLOAD PUSH1 0x20 DUP2 DUP4 SUB SUB DUP2 MSTORE SWAP1 PUSH1 0x40 MSTORE PUSH32 0x5524107700000000000000000000000000000000000000000000000000000000 PUSH28 0xFFFFFFFFFFFFFFFFFFFFFFFFFFFFFFFFFFFFFFFFFFFFFFFFFFFFFFFF NOT AND PUSH1 0x20 DUP3 ADD DUP1 MLOAD PUSH28 0xFFFFFFFFFFFFFFFFFFFFFFFFFFFFFFFFFFFFFFFFFFFFFFFFFFFFFFFF DUP4 DUP2 DUP4 AND OR DUP4 MSTORE POP POP POP POP PUSH1 0x40 MLOAD PUSH2 0x165 SWAP2 SWAP1 PUSH2 0x368 JUMP JUMPDEST PUSH1 0x0 PUSH1 0x40 MLOAD DUP1 DUP4 SUB DUP2 DUP6 GAS DELEGATECALL SWAP2 POP POP RETURNDATASIZE DUP1 PUSH1 0x0 DUP2 EQ PUSH2 0x1A0 JUMPI PUSH1 0x40 MLOAD SWAP2 POP PUSH1 0x1F NOT PUSH1 0x3F RETURNDATASIZE ADD AND DUP3 ADD PUSH1 0x40 MSTORE RETURNDATASIZE DUP3 MSTORE RETURNDATASIZE PUSH1 0x0 PUSH1 0x20 DUP5 ADD RETURNDATACOPY PUSH2 0x1A5 JUMP JUMPDEST PUSH1 0x60 SWAP2 POP JUMPDEST POP POP SWAP1 POP DUP1 PUSH2 0x1E9 JUMPI PUSH1 0x40 MLOAD PUSH32 0x8C379A000000000000000000000000000000000000000000000000000000000 DUP2 MSTORE PUSH1 0x4 ADD PUSH2 0x1E0 SWAP1 PUSH2 0x3DC JUMP JUMPDEST PUSH1 0x40 MLOAD DUP1 SWAP2 SUB SWAP1 REVERT JUMPDEST POP POP POP JUMP JUMPDEST PUSH1 0x1 SLOAD DUP2 JUMP JUMPDEST PUSH1 0x0 DUP2 SWAP1 POP SWAP2 SWAP1 POP JUMP JUMPDEST PUSH2 0x207 DUP2 PUSH2 0x1F4 JUMP JUMPDEST DUP3 MSTORE POP POP JUMP JUMPDEST PUSH1 0x0 PUSH1 0x20 DUP3 ADD SWAP1 POP PUSH2 0x222 PUSH1 0x0 DUP4 ADD DUP5 PUSH2 0x1FE JUMP JUMPDEST SWAP3 SWAP2 POP POP JUMP JUMPDEST PUSH1 0x0 DUP1 REVERT JUMPDEST PUSH1 0x0 PUSH20 0xFFFFFFFFFFFFFFFFFFFFFFFFFFFFFFFFFFFFFFFF DUP3 AND SWAP1 POP SWAP2 SWAP1 POP JUMP JUMPDEST PUSH1 0x0 PUSH2 0x258 DUP3 PUSH2 0x22D JUMP JUMPDEST SWAP1 POP SWAP2 SWAP1 POP JUMP JUMPDEST PUSH2 0x268 DUP2 PUSH2 0x24D JUMP JUMPDEST DUP2 EQ PUSH2 0x273 JUMPI PUSH1 0x0 DUP1 REVERT JUMPDEST POP JUMP JUMPDEST PUSH1 0x0 DUP2 CALLDATALOAD SWAP1 POP PUSH2 0x285 DUP2 PUSH2 0x25F JUMP JUMPDEST SWAP3 SWAP2 POP POP JUMP JUMPDEST PUSH2 0x294 DUP2 PUSH2 0x1F4 JUMP JUMPDEST DUP2 EQ PUSH2 0x29F JUMPI PUSH1 0x0 DUP1 REVERT JUMPDEST POP JUMP JUMPDEST PUSH1 0x0 DUP2 CALLDATALOAD SWAP1 POP PUSH2 0x2B1 DUP2 PUSH2 0x28B JUMP JUMPDEST SWAP3 SWAP2 POP POP JUMP JUMPDEST PUSH1 0x0 DUP1 PUSH1 0x40 DUP4 DUP6 SUB SLT ISZERO PUSH2 0x2CE JUMPI PUSH2 0x2CD PUSH2 0x228 JUMP JUMPDEST JUMPDEST PUSH1 0x0 PUSH2 0x2DC DUP6 DUP3 DUP7 ADD PUSH2 0x276 JUMP JUMPDEST SWAP3 POP POP PUSH1 0x20 PUSH2 0x2ED DUP6 DUP3 DUP7 ADD PUSH2 0x2A2 JUMP JUMPDEST SWAP2 POP POP SWAP3 POP SWAP3 SWAP1 POP JUMP JUMPDEST PUSH1 0x0 DUP2 MLOAD SWAP1 POP SWAP2 SWAP1 POP JUMP JUMPDEST PUSH1 0x0 DUP2 SWAP1 POP SWAP3 SWAP2 POP POP JUMP JUMPDEST PUSH1 0x0 JUMPDEST DUP4 DUP2 LT ISZERO PUSH2 0x32B JUMPI DUP1 DUP3 ADD MLOAD DUP2 DUP5 ADD MSTORE PUSH1 0x20 DUP2 ADD SWAP1 POP PUSH2 0x310 JUMP JUMPDEST PUSH1 0x0 DUP5 DUP5 ADD MSTORE POP POP POP POP JUMP JUMPDEST PUSH1 0x0 PUSH2 0x342 DUP3 PUSH2 0x2F7 JUMP JUMPDEST PUSH2 0x34C DUP2 DUP6 PUSH2 0x302 JUMP JUMPDEST SWAP4 POP PUSH2 0x35C DUP2 DUP6 PUSH1 0x20 DUP7 ADD PUSH2 0x30D JUMP JUMPDEST DUP1 DUP5 ADD SWAP2 POP POP SWAP3 SWAP2 POP POP JUMP JUMPDEST PUSH1 0x0 PUSH2 0x374 DUP3 DUP5 PUSH2 0x337 JUMP JUMPDEST SWAP2 POP DUP2 SWAP1 POP SWAP3 SWAP2 POP POP JUMP JUMPDEST PUSH1 0x0 DUP3 DUP3 MSTORE PUSH1 0x20 DUP3 ADD SWAP1 POP SWAP3 SWAP2 POP POP JUMP JUMPDEST PUSH32 0x44656C656761746563616C6C206661696C656400000000000000000000000000 PUSH1 0x0 DUP3 ADD MSTORE POP JUMP JUMPDEST PUSH1 0x0 PUSH2 0x3C6 PUSH1 0x13 DUP4 PUSH2 0x37F JUMP JUMPDEST SWAP2 POP PUSH2 0x3D1 DUP3 PUSH2 0x390 JUMP JUMPDEST PUSH1 0x20 DUP3 ADD SWAP1 POP SWAP2 SWAP1 POP JUMP JUMPDEST PUSH1 0x0 PUSH1 0x20 DUP3 ADD SWAP1 POP DUP2 DUP2 SUB PUSH1 0x0 DUP4 ADD MSTORE PUSH2 0x3F5 DUP2 PUSH2 0x3B9 JUMP JUMPDEST SWAP1 POP SWAP2 SWAP1 POP JUMP INVALID LOG2 PUSH5 0x6970667358 0x22 SLT KECCAK256 EXTCODEHASH TIMESTAMP JUMPI 0xD0 DIV 0xEA PUSH13 0xF680CDEDA5623CB67335DACD68 SWAP6 DUP3 0xEC 0xC6 0xE8 0xC SWAP11 BYTE CALLDATACOPY 0xAE REVERT SWAP7 PUSH5 0x736F6C6343 STOP ADDMOD SLT STOP CALLER "
				},
				"gasEstimates": {
					"creation": {
						"codeDepositCost": "214800",
						"executionCost": "257",
						"totalCost": "215057"
					},
					"external": {
						"num()": "2451",
						"setValue(address,uint256)": "infinite",
						"value()": "2407"
					}
				},
				"methodIdentifiers": {
					"num()": "4e70b1dc",
					"setValue(address,uint256)": "48461b56",
					"value()": "3fa4f245"
				}
			},
			"storageLayout": {
				"storage": [
					{
						"astId": 3,
						"contract": "contracts/delegatecall.sol:Caller",
						"label": "value",
						"offset": 0,
						"slot": "0",
						"type": "t_uint256"
					},
					{
						"astId": 5,
						"contract": "contracts/delegatecall.sol:Caller",
						"label": "num",
						"offset": 0,
						"slot": "1",
						"type": "t_uint256"
					}
				],
				"types": {
					"t_uint256": {
						"encoding": "inplace",
						"label": "uint256",
						"numberOfBytes": "32"
					}
				}
			},
			"userdoc": {
				"kind": "user",
				"methods": {},
				"version": 1
			}
		}
	}
}