{
	"contracts/datatypes.sol": {
		"datatypes": {
			"abi": [
				{
					"inputs": [],
					"name": "address1",
					"outputs": [
						{
							"internalType": "address",
							"name": "",
							"type": "address"
						}
					],
					"stateMutability": "view",
					"type": "function"
				},
				{
					"inputs": [],
					"name": "address2",
					"outputs": [
						{
							"internalType": "address",
							"name": "",
							"type": "address"
						}
					],
					"stateMutability": "view",
					"type": "function"
				},
				{
					"inputs": [],
					"name": "ama1",
					"outputs": [
						{
							"internalType": "int256",
							"name": "",
							"type": "int256"
						}
					],
					"stateMutability": "view",
					"type": "function"
				},
				{
					"inputs": [],
					"name": "ama2",
					"outputs": [
						{
							"internalType": "int8",
							"name": "",
							"type": "int8"
						}
					],
					"stateMutability": "view",
					"type": "function"
				},
				{
					"inputs": [],
					"name": "aman",
					"outputs": [
						{
							"internalType": "uint8",
							"name": "",
							"type": "uint8"
						}
					],
					"stateMutability": "view",
					"type": "function"
				},
				{
					"inputs": [],
					"name": "aman1l",
					"outputs": [
						{
							"internalType": "uint16",
							"name": "",
							"type": "uint16"
						}
					],
					"stateMutability": "view",
					"type": "function"
				},
				{
					"inputs": [],
					"name": "aman2",
					"outputs": [
						{
							"internalType": "uint256",
							"name": "",
							"type": "uint256"
						}
					],
					"stateMutability": "view",
					"type": "function"
				},
				{
					"inputs": [],
					"name": "aman3",
					"outputs": [
						{
							"internalType": "uint256",
							"name": "",
							"type": "uint256"
						}
					],
					"stateMutability": "view",
					"type": "function"
				},
				{
					"inputs": [],
					"name": "bool1",
					"outputs": [
						{
							"internalType": "bool",
							"name": "",
							"type": "bool"
						}
					],
					"stateMutability": "view",
					"type": "function"
				},
				{
					"inputs": [],
					"name": "bool2",
					"outputs": [
						{
							"internalType": "bool",
							"name": "",
							"type": "bool"
						}
					],
					"stateMutability": "view",
					"type": "function"
				},
				{
					"inputs": [],
					"name": "check1",
					"outputs": [
						{
							"internalType": "bytes1",
							"name": "",
							"type": "bytes1"
						}
					],
					"stateMutability": "view",
					"type": "function"
				},
				{
					"inputs": [],
					"name": "check2",
					"outputs": [
						{
							"internalType": "bytes1",
							"name": "",
							"type": "bytes1"
						}
					],
					"stateMutability": "view",
					"type": "function"
				},
				{
					"inputs": [],
					"name": "maxint",
					"outputs": [
						{
							"internalType": "int256",
							"name": "",
							"type": "int256"
						}
					],
					"stateMutability": "view",
					"type": "function"
				},
				{
					"inputs": [],
					"name": "minint",
					"outputs": [
						{
							"internalType": "int256",
							"name": "",
							"type": "int256"
						}
					],
					"stateMutability": "view",
					"type": "function"
				}
			],
			"devdoc": {
				"kind": "dev",
				"methods": {},
				"version": 1
			},
			"evm": {
				"assembly": "    /* \"contracts/datatypes.sol\":61:1014  contract datatypes{... */\n  mstore(0x40, 0x80)\n    /* \"contracts/datatypes.sol\":153:157  true */\n  0x01\n    /* \"contracts/datatypes.sol\":134:157  bool public bool2= true */\n  0x00\n  exp(0x0100, 0x01)\n  dup2\n  sload\n  dup2\n  0xff\n  mul\n  not\n  and\n  swap1\n  dup4\n  iszero\n  iszero\n  mul\n  or\n  swap1\n  sstore\n  pop\n    /* \"contracts/datatypes.sol\":425:427  12 */\n  0x0c\n    /* \"contracts/datatypes.sol\":405:427  int256 public ama1 =12 */\n  0x03\n  sstore\n    /* \"contracts/datatypes.sol\":491:494  -43 */\n  0xffffffffffffffffffffffffffffffffffffffffffffffffffffffffffffffd5\n    /* \"contracts/datatypes.sol\":473:494  int8 public ama2= -43 */\n  0x04\n  exp(0x0100, 0x00)\n  dup2\n  sload\n  dup2\n  0xff\n  mul\n  not\n  and\n  swap1\n  dup4\n  0x00\n  signextend\n  0xff\n  and\n  mul\n  or\n  swap1\n  sstore\n  pop\n    /* \"contracts/datatypes.sol\":523:536  type(int).min */\n  0x8000000000000000000000000000000000000000000000000000000000000000\n    /* \"contracts/datatypes.sol\":503:536  int public minint = type(int).min */\n  0x05\n  sstore\n    /* \"contracts/datatypes.sol\":563:576  type(int).max */\n  0x7fffffffffffffffffffffffffffffffffffffffffffffffffffffffffffffff\n    /* \"contracts/datatypes.sol\":543:576  int public maxint = type(int).max */\n  0x06\n  sstore\n    /* \"contracts/datatypes.sol\":865:869  0xbb */\n  0xbb\n    /* \"contracts/datatypes.sol\":840:869  bytes1 public   check1 = 0xbb */\n  0xf8\n  shl\n  0x07\n  exp(0x0100, 0x00)\n  dup2\n  sload\n  dup2\n  0xff\n  mul\n  not\n  and\n  swap1\n  dup4\n  0xf8\n  shr\n  mul\n  or\n  swap1\n  sstore\n  pop\n    /* \"contracts/datatypes.sol\":898:902  0x56 */\n  0x56\n    /* \"contracts/datatypes.sol\":876:902  bytes1 public check2 =0x56 */\n  0xf8\n  shl\n  0x07\n  exp(0x0100, 0x01)\n  dup2\n  sload\n  dup2\n  0xff\n  mul\n  not\n  and\n  swap1\n  dup4\n  0xf8\n  shr\n  mul\n  or\n  swap1\n  sstore\n  pop\n    /* \"contracts/datatypes.sol\":966:1008  0xCD38D2eF21f029C5d5ac65E30a1EB22fc8BabE59 */\n  0xcd38d2ef21f029c5d5ac65e30a1eb22fc8babe59\n    /* \"contracts/datatypes.sol\":941:1008  address public address2= 0xCD38D2eF21f029C5d5ac65E30a1EB22fc8BabE59 */\n  0x08\n  exp(0x0100, 0x00)\n  dup2\n  sload\n  dup2\n  0xffffffffffffffffffffffffffffffffffffffff\n  mul\n  not\n  and\n  swap1\n  dup4\n  0xffffffffffffffffffffffffffffffffffffffff\n  and\n  mul\n  or\n  swap1\n  sstore\n  pop\n    /* \"contracts/datatypes.sol\":61:1014  contract datatypes{... */\n  callvalue\n  dup1\n  iszero\n  tag_1\n  jumpi\n  0x00\n  dup1\n  revert\ntag_1:\n  pop\n  dataSize(sub_0)\n  dup1\n  dataOffset(sub_0)\n  0x00\n  codecopy\n  0x00\n  return\nstop\n\nsub_0: assembly {\n        /* \"contracts/datatypes.sol\":61:1014  contract datatypes{... */\n      mstore(0x40, 0x80)\n      callvalue\n      dup1\n      iszero\n      tag_1\n      jumpi\n      0x00\n      dup1\n      revert\n    tag_1:\n      pop\n      jumpi(tag_2, lt(calldatasize, 0x04))\n      shr(0xe0, calldataload(0x00))\n      dup1\n      0x9eea4a3a\n      gt\n      tag_17\n      jumpi\n      dup1\n      0xdaf149b0\n      gt\n      tag_18\n      jumpi\n      dup1\n      0xdaf149b0\n      eq\n      tag_13\n      jumpi\n      dup1\n      0xdc1f768c\n      eq\n      tag_14\n      jumpi\n      dup1\n      0xe845ce8f\n      eq\n      tag_15\n      jumpi\n      dup1\n      0xec630c70\n      eq\n      tag_16\n      jumpi\n      jump(tag_2)\n    tag_18:\n      dup1\n      0x9eea4a3a\n      eq\n      tag_10\n      jumpi\n      dup1\n      0xa3558510\n      eq\n      tag_11\n      jumpi\n      dup1\n      0xa548daf6\n      eq\n      tag_12\n      jumpi\n      jump(tag_2)\n    tag_17:\n      dup1\n      0x2c23de69\n      gt\n      tag_19\n      jumpi\n      dup1\n      0x2c23de69\n      eq\n      tag_6\n      jumpi\n      dup1\n      0x3a36399e\n      eq\n      tag_7\n      jumpi\n      dup1\n      0x621fe6c6\n      eq\n      tag_8\n      jumpi\n      dup1\n      0x8efcc3a3\n      eq\n      tag_9\n      jumpi\n      jump(tag_2)\n    tag_19:\n      dup1\n      0x01a9b703\n      eq\n      tag_3\n      jumpi\n      dup1\n      0x0dc3de4b\n      eq\n      tag_4\n      jumpi\n      dup1\n      0x1b5e8b93\n      eq\n      tag_5\n      jumpi\n    tag_2:\n      0x00\n      dup1\n      revert\n        /* \"contracts/datatypes.sol\":473:494  int8 public ama2= -43 */\n    tag_3:\n      tag_20\n      tag_21\n      jump\t// in\n    tag_20:\n      mload(0x40)\n      tag_22\n      swap2\n      swap1\n      tag_23\n      jump\t// in\n    tag_22:\n      mload(0x40)\n      dup1\n      swap2\n      sub\n      swap1\n      return\n        /* \"contracts/datatypes.sol\":267:287  uint16 public aman1l */\n    tag_4:\n      tag_24\n      tag_25\n      jump\t// in\n    tag_24:\n      mload(0x40)\n      tag_26\n      swap2\n      swap1\n      tag_27\n      jump\t// in\n    tag_26:\n      mload(0x40)\n      dup1\n      swap2\n      sub\n      swap1\n      return\n        /* \"contracts/datatypes.sol\":840:869  bytes1 public   check1 = 0xbb */\n    tag_5:\n      tag_28\n      tag_29\n      jump\t// in\n    tag_28:\n      mload(0x40)\n      tag_30\n      swap2\n      swap1\n      tag_31\n      jump\t// in\n    tag_30:\n      mload(0x40)\n      dup1\n      swap2\n      sub\n      swap1\n      return\n        /* \"contracts/datatypes.sol\":543:576  int public maxint = type(int).max */\n    tag_6:\n      tag_32\n      tag_33\n      jump\t// in\n    tag_32:\n      mload(0x40)\n      tag_34\n      swap2\n      swap1\n      tag_35\n      jump\t// in\n    tag_34:\n      mload(0x40)\n      dup1\n      swap2\n      sub\n      swap1\n      return\n        /* \"contracts/datatypes.sol\":911:934  address public address1 */\n    tag_7:\n      tag_36\n      tag_37\n      jump\t// in\n    tag_36:\n      mload(0x40)\n      tag_38\n      swap2\n      swap1\n      tag_39\n      jump\t// in\n    tag_38:\n      mload(0x40)\n      dup1\n      swap2\n      sub\n      swap1\n      return\n        /* \"contracts/datatypes.sol\":294:311  uint public aman2 */\n    tag_8:\n      tag_40\n      tag_41\n      jump\t// in\n    tag_40:\n      mload(0x40)\n      tag_42\n      swap2\n      swap1\n      tag_43\n      jump\t// in\n    tag_42:\n      mload(0x40)\n      dup1\n      swap2\n      sub\n      swap1\n      return\n        /* \"contracts/datatypes.sol\":347:367  uint256 public aman3 */\n    tag_9:\n      tag_44\n      tag_45\n      jump\t// in\n    tag_44:\n      mload(0x40)\n      tag_46\n      swap2\n      swap1\n      tag_43\n      jump\t// in\n    tag_46:\n      mload(0x40)\n      dup1\n      swap2\n      sub\n      swap1\n      return\n        /* \"contracts/datatypes.sol\":941:1008  address public address2= 0xCD38D2eF21f029C5d5ac65E30a1EB22fc8BabE59 */\n    tag_10:\n      tag_47\n      tag_48\n      jump\t// in\n    tag_47:\n      mload(0x40)\n      tag_49\n      swap2\n      swap1\n      tag_39\n      jump\t// in\n    tag_49:\n      mload(0x40)\n      dup1\n      swap2\n      sub\n      swap1\n      return\n        /* \"contracts/datatypes.sol\":405:427  int256 public ama1 =12 */\n    tag_11:\n      tag_50\n      tag_51\n      jump\t// in\n    tag_50:\n      mload(0x40)\n      tag_52\n      swap2\n      swap1\n      tag_35\n      jump\t// in\n    tag_52:\n      mload(0x40)\n      dup1\n      swap2\n      sub\n      swap1\n      return\n        /* \"contracts/datatypes.sol\":876:902  bytes1 public check2 =0x56 */\n    tag_12:\n      tag_53\n      tag_54\n      jump\t// in\n    tag_53:\n      mload(0x40)\n      tag_55\n      swap2\n      swap1\n      tag_31\n      jump\t// in\n    tag_55:\n      mload(0x40)\n      dup1\n      swap2\n      sub\n      swap1\n      return\n        /* \"contracts/datatypes.sol\":166:183  uint8 public aman */\n    tag_13:\n      tag_56\n      tag_57\n      jump\t// in\n    tag_56:\n      mload(0x40)\n      tag_58\n      swap2\n      swap1\n      tag_59\n      jump\t// in\n    tag_58:\n      mload(0x40)\n      dup1\n      swap2\n      sub\n      swap1\n      return\n        /* \"contracts/datatypes.sol\":503:536  int public minint = type(int).min */\n    tag_14:\n      tag_60\n      tag_61\n      jump\t// in\n    tag_60:\n      mload(0x40)\n      tag_62\n      swap2\n      swap1\n      tag_35\n      jump\t// in\n    tag_62:\n      mload(0x40)\n      dup1\n      swap2\n      sub\n      swap1\n      return\n        /* \"contracts/datatypes.sol\":134:157  bool public bool2= true */\n    tag_15:\n      tag_63\n      tag_64\n      jump\t// in\n    tag_63:\n      mload(0x40)\n      tag_65\n      swap2\n      swap1\n      tag_66\n      jump\t// in\n    tag_65:\n      mload(0x40)\n      dup1\n      swap2\n      sub\n      swap1\n      return\n        /* \"contracts/datatypes.sol\":88:105  bool public bool1 */\n    tag_16:\n      tag_67\n      tag_68\n      jump\t// in\n    tag_67:\n      mload(0x40)\n      tag_69\n      swap2\n      swap1\n      tag_66\n      jump\t// in\n    tag_69:\n      mload(0x40)\n      dup1\n      swap2\n      sub\n      swap1\n      return\n        /* \"contracts/datatypes.sol\":473:494  int8 public ama2= -43 */\n    tag_21:\n      0x04\n      0x00\n      swap1\n      sload\n      swap1\n      0x0100\n      exp\n      swap1\n      div\n      0x00\n      signextend\n      dup2\n      jump\t// out\n        /* \"contracts/datatypes.sol\":267:287  uint16 public aman1l */\n    tag_25:\n      0x00\n      0x03\n      swap1\n      sload\n      swap1\n      0x0100\n      exp\n      swap1\n      div\n      0xffff\n      and\n      dup2\n      jump\t// out\n        /* \"contracts/datatypes.sol\":840:869  bytes1 public   check1 = 0xbb */\n    tag_29:\n      0x07\n      0x00\n      swap1\n      sload\n      swap1\n      0x0100\n      exp\n      swap1\n      div\n      0xf8\n      shl\n      dup2\n      jump\t// out\n        /* \"contracts/datatypes.sol\":543:576  int public maxint = type(int).max */\n    tag_33:\n      sload(0x06)\n      dup2\n      jump\t// out\n        /* \"contracts/datatypes.sol\":911:934  address public address1 */\n    tag_37:\n      0x07\n      0x02\n      swap1\n      sload\n      swap1\n      0x0100\n      exp\n      swap1\n      div\n      0xffffffffffffffffffffffffffffffffffffffff\n      and\n      dup2\n      jump\t// out\n        /* \"contracts/datatypes.sol\":294:311  uint public aman2 */\n    tag_41:\n      sload(0x01)\n      dup2\n      jump\t// out\n        /* \"contracts/datatypes.sol\":347:367  uint256 public aman3 */\n    tag_45:\n      sload(0x02)\n      dup2\n      jump\t// out\n        /* \"contracts/datatypes.sol\":941:1008  address public address2= 0xCD38D2eF21f029C5d5ac65E30a1EB22fc8BabE59 */\n    tag_48:\n      0x08\n      0x00\n      swap1\n      sload\n      swap1\n      0x0100\n      exp\n      swap1\n      div\n      0xffffffffffffffffffffffffffffffffffffffff\n      and\n      dup2\n      jump\t// out\n        /* \"contracts/datatypes.sol\":405:427  int256 public ama1 =12 */\n    tag_51:\n      sload(0x03)\n      dup2\n      jump\t// out\n        /* \"contracts/datatypes.sol\":876:902  bytes1 public check2 =0x56 */\n    tag_54:\n      0x07\n      0x01\n      swap1\n      sload\n      swap1\n      0x0100\n      exp\n      swap1\n      div\n      0xf8\n      shl\n      dup2\n      jump\t// out\n        /* \"contracts/datatypes.sol\":166:183  uint8 public aman */\n    tag_57:\n      0x00\n      0x02\n      swap1\n      sload\n      swap1\n      0x0100\n      exp\n      swap1\n      div\n      0xff\n      and\n      dup2\n      jump\t// out\n        /* \"contracts/datatypes.sol\":503:536  int public minint = type(int).min */\n    tag_61:\n      sload(0x05)\n      dup2\n      jump\t// out\n        /* \"contracts/datatypes.sol\":134:157  bool public bool2= true */\n    tag_64:\n      0x00\n      0x01\n      swap1\n      sload\n      swap1\n      0x0100\n      exp\n      swap1\n      div\n      0xff\n      and\n      dup2\n      jump\t// out\n        /* \"contracts/datatypes.sol\":88:105  bool public bool1 */\n    tag_68:\n      0x00\n      dup1\n      sload\n      swap1\n      0x0100\n      exp\n      swap1\n      div\n      0xff\n      and\n      dup2\n      jump\t// out\n        /* \"#utility.yul\":7:96   */\n    tag_70:\n        /* \"#utility.yul\":41:48   */\n      0x00\n        /* \"#utility.yul\":84:89   */\n      dup2\n        /* \"#utility.yul\":81:82   */\n      0x00\n        /* \"#utility.yul\":70:90   */\n      signextend\n        /* \"#utility.yul\":59:90   */\n      swap1\n      pop\n        /* \"#utility.yul\":7:96   */\n      swap2\n      swap1\n      pop\n      jump\t// out\n        /* \"#utility.yul\":102:211   */\n    tag_71:\n        /* \"#utility.yul\":183:204   */\n      tag_90\n        /* \"#utility.yul\":198:203   */\n      dup2\n        /* \"#utility.yul\":183:204   */\n      tag_70\n      jump\t// in\n    tag_90:\n        /* \"#utility.yul\":178:181   */\n      dup3\n        /* \"#utility.yul\":171:205   */\n      mstore\n        /* \"#utility.yul\":102:211   */\n      pop\n      pop\n      jump\t// out\n        /* \"#utility.yul\":217:427   */\n    tag_23:\n        /* \"#utility.yul\":304:308   */\n      0x00\n        /* \"#utility.yul\":342:344   */\n      0x20\n        /* \"#utility.yul\":331:340   */\n      dup3\n        /* \"#utility.yul\":327:345   */\n      add\n        /* \"#utility.yul\":319:345   */\n      swap1\n      pop\n        /* \"#utility.yul\":355:420   */\n      tag_92\n        /* \"#utility.yul\":417:418   */\n      0x00\n        /* \"#utility.yul\":406:415   */\n      dup4\n        /* \"#utility.yul\":402:419   */\n      add\n        /* \"#utility.yul\":393:399   */\n      dup5\n        /* \"#utility.yul\":355:420   */\n      tag_71\n      jump\t// in\n    tag_92:\n        /* \"#utility.yul\":217:427   */\n      swap3\n      swap2\n      pop\n      pop\n      jump\t// out\n        /* \"#utility.yul\":433:522   */\n    tag_72:\n        /* \"#utility.yul\":469:476   */\n      0x00\n        /* \"#utility.yul\":509:515   */\n      0xffff\n        /* \"#utility.yul\":502:507   */\n      dup3\n        /* \"#utility.yul\":498:516   */\n      and\n        /* \"#utility.yul\":487:516   */\n      swap1\n      pop\n        /* \"#utility.yul\":433:522   */\n      swap2\n      swap1\n      pop\n      jump\t// out\n        /* \"#utility.yul\":528:643   */\n    tag_73:\n        /* \"#utility.yul\":613:636   */\n      tag_95\n        /* \"#utility.yul\":630:635   */\n      dup2\n        /* \"#utility.yul\":613:636   */\n      tag_72\n      jump\t// in\n    tag_95:\n        /* \"#utility.yul\":608:611   */\n      dup3\n        /* \"#utility.yul\":601:637   */\n      mstore\n        /* \"#utility.yul\":528:643   */\n      pop\n      pop\n      jump\t// out\n        /* \"#utility.yul\":649:867   */\n    tag_27:\n        /* \"#utility.yul\":740:744   */\n      0x00\n        /* \"#utility.yul\":778:780   */\n      0x20\n        /* \"#utility.yul\":767:776   */\n      dup3\n        /* \"#utility.yul\":763:781   */\n      add\n        /* \"#utility.yul\":755:781   */\n      swap1\n      pop\n        /* \"#utility.yul\":791:860   */\n      tag_97\n        /* \"#utility.yul\":857:858   */\n      0x00\n        /* \"#utility.yul\":846:855   */\n      dup4\n        /* \"#utility.yul\":842:859   */\n      add\n        /* \"#utility.yul\":833:839   */\n      dup5\n        /* \"#utility.yul\":791:860   */\n      tag_73\n      jump\t// in\n    tag_97:\n        /* \"#utility.yul\":649:867   */\n      swap3\n      swap2\n      pop\n      pop\n      jump\t// out\n        /* \"#utility.yul\":873:1022   */\n    tag_74:\n        /* \"#utility.yul\":909:916   */\n      0x00\n        /* \"#utility.yul\":949:1015   */\n      0xff00000000000000000000000000000000000000000000000000000000000000\n        /* \"#utility.yul\":942:947   */\n      dup3\n        /* \"#utility.yul\":938:1016   */\n      and\n        /* \"#utility.yul\":927:1016   */\n      swap1\n      pop\n        /* \"#utility.yul\":873:1022   */\n      swap2\n      swap1\n      pop\n      jump\t// out\n        /* \"#utility.yul\":1028:1143   */\n    tag_75:\n        /* \"#utility.yul\":1113:1136   */\n      tag_100\n        /* \"#utility.yul\":1130:1135   */\n      dup2\n        /* \"#utility.yul\":1113:1136   */\n      tag_74\n      jump\t// in\n    tag_100:\n        /* \"#utility.yul\":1108:1111   */\n      dup3\n        /* \"#utility.yul\":1101:1137   */\n      mstore\n        /* \"#utility.yul\":1028:1143   */\n      pop\n      pop\n      jump\t// out\n        /* \"#utility.yul\":1149:1367   */\n    tag_31:\n        /* \"#utility.yul\":1240:1244   */\n      0x00\n        /* \"#utility.yul\":1278:1280   */\n      0x20\n        /* \"#utility.yul\":1267:1276   */\n      dup3\n        /* \"#utility.yul\":1263:1281   */\n      add\n        /* \"#utility.yul\":1255:1281   */\n      swap1\n      pop\n        /* \"#utility.yul\":1291:1360   */\n      tag_102\n        /* \"#utility.yul\":1357:1358   */\n      0x00\n        /* \"#utility.yul\":1346:1355   */\n      dup4\n        /* \"#utility.yul\":1342:1359   */\n      add\n        /* \"#utility.yul\":1333:1339   */\n      dup5\n        /* \"#utility.yul\":1291:1360   */\n      tag_75\n      jump\t// in\n    tag_102:\n        /* \"#utility.yul\":1149:1367   */\n      swap3\n      swap2\n      pop\n      pop\n      jump\t// out\n        /* \"#utility.yul\":1373:1449   */\n    tag_76:\n        /* \"#utility.yul\":1409:1416   */\n      0x00\n        /* \"#utility.yul\":1438:1443   */\n      dup2\n        /* \"#utility.yul\":1427:1443   */\n      swap1\n      pop\n        /* \"#utility.yul\":1373:1449   */\n      swap2\n      swap1\n      pop\n      jump\t// out\n        /* \"#utility.yul\":1455:1570   */\n    tag_77:\n        /* \"#utility.yul\":1540:1563   */\n      tag_105\n        /* \"#utility.yul\":1557:1562   */\n      dup2\n        /* \"#utility.yul\":1540:1563   */\n      tag_76\n      jump\t// in\n    tag_105:\n        /* \"#utility.yul\":1535:1538   */\n      dup3\n        /* \"#utility.yul\":1528:1564   */\n      mstore\n        /* \"#utility.yul\":1455:1570   */\n      pop\n      pop\n      jump\t// out\n        /* \"#utility.yul\":1576:1794   */\n    tag_35:\n        /* \"#utility.yul\":1667:1671   */\n      0x00\n        /* \"#utility.yul\":1705:1707   */\n      0x20\n        /* \"#utility.yul\":1694:1703   */\n      dup3\n        /* \"#utility.yul\":1690:1708   */\n      add\n        /* \"#utility.yul\":1682:1708   */\n      swap1\n      pop\n        /* \"#utility.yul\":1718:1787   */\n      tag_107\n        /* \"#utility.yul\":1784:1785   */\n      0x00\n        /* \"#utility.yul\":1773:1782   */\n      dup4\n        /* \"#utility.yul\":1769:1786   */\n      add\n        /* \"#utility.yul\":1760:1766   */\n      dup5\n        /* \"#utility.yul\":1718:1787   */\n      tag_77\n      jump\t// in\n    tag_107:\n        /* \"#utility.yul\":1576:1794   */\n      swap3\n      swap2\n      pop\n      pop\n      jump\t// out\n        /* \"#utility.yul\":1800:1926   */\n    tag_78:\n        /* \"#utility.yul\":1837:1844   */\n      0x00\n        /* \"#utility.yul\":1877:1919   */\n      0xffffffffffffffffffffffffffffffffffffffff\n        /* \"#utility.yul\":1870:1875   */\n      dup3\n        /* \"#utility.yul\":1866:1920   */\n      and\n        /* \"#utility.yul\":1855:1920   */\n      swap1\n      pop\n        /* \"#utility.yul\":1800:1926   */\n      swap2\n      swap1\n      pop\n      jump\t// out\n        /* \"#utility.yul\":1932:2028   */\n    tag_79:\n        /* \"#utility.yul\":1969:1976   */\n      0x00\n        /* \"#utility.yul\":1998:2022   */\n      tag_110\n        /* \"#utility.yul\":2016:2021   */\n      dup3\n        /* \"#utility.yul\":1998:2022   */\n      tag_78\n      jump\t// in\n    tag_110:\n        /* \"#utility.yul\":1987:2022   */\n      swap1\n      pop\n        /* \"#utility.yul\":1932:2028   */\n      swap2\n      swap1\n      pop\n      jump\t// out\n        /* \"#utility.yul\":2034:2152   */\n    tag_80:\n        /* \"#utility.yul\":2121:2145   */\n      tag_112\n        /* \"#utility.yul\":2139:2144   */\n      dup2\n        /* \"#utility.yul\":2121:2145   */\n      tag_79\n      jump\t// in\n    tag_112:\n        /* \"#utility.yul\":2116:2119   */\n      dup3\n        /* \"#utility.yul\":2109:2146   */\n      mstore\n        /* \"#utility.yul\":2034:2152   */\n      pop\n      pop\n      jump\t// out\n        /* \"#utility.yul\":2158:2380   */\n    tag_39:\n        /* \"#utility.yul\":2251:2255   */\n      0x00\n        /* \"#utility.yul\":2289:2291   */\n      0x20\n        /* \"#utility.yul\":2278:2287   */\n      dup3\n        /* \"#utility.yul\":2274:2292   */\n      add\n        /* \"#utility.yul\":2266:2292   */\n      swap1\n      pop\n        /* \"#utility.yul\":2302:2373   */\n      tag_114\n        /* \"#utility.yul\":2370:2371   */\n      0x00\n        /* \"#utility.yul\":2359:2368   */\n      dup4\n        /* \"#utility.yul\":2355:2372   */\n      add\n        /* \"#utility.yul\":2346:2352   */\n      dup5\n        /* \"#utility.yul\":2302:2373   */\n      tag_80\n      jump\t// in\n    tag_114:\n        /* \"#utility.yul\":2158:2380   */\n      swap3\n      swap2\n      pop\n      pop\n      jump\t// out\n        /* \"#utility.yul\":2386:2463   */\n    tag_81:\n        /* \"#utility.yul\":2423:2430   */\n      0x00\n        /* \"#utility.yul\":2452:2457   */\n      dup2\n        /* \"#utility.yul\":2441:2457   */\n      swap1\n      pop\n        /* \"#utility.yul\":2386:2463   */\n      swap2\n      swap1\n      pop\n      jump\t// out\n        /* \"#utility.yul\":2469:2587   */\n    tag_82:\n        /* \"#utility.yul\":2556:2580   */\n      tag_117\n        /* \"#utility.yul\":2574:2579   */\n      dup2\n        /* \"#utility.yul\":2556:2580   */\n      tag_81\n      jump\t// in\n    tag_117:\n        /* \"#utility.yul\":2551:2554   */\n      dup3\n        /* \"#utility.yul\":2544:2581   */\n      mstore\n        /* \"#utility.yul\":2469:2587   */\n      pop\n      pop\n      jump\t// out\n        /* \"#utility.yul\":2593:2815   */\n    tag_43:\n        /* \"#utility.yul\":2686:2690   */\n      0x00\n        /* \"#utility.yul\":2724:2726   */\n      0x20\n        /* \"#utility.yul\":2713:2722   */\n      dup3\n        /* \"#utility.yul\":2709:2727   */\n      add\n        /* \"#utility.yul\":2701:2727   */\n      swap1\n      pop\n        /* \"#utility.yul\":2737:2808   */\n      tag_119\n        /* \"#utility.yul\":2805:2806   */\n      0x00\n        /* \"#utility.yul\":2794:2803   */\n      dup4\n        /* \"#utility.yul\":2790:2807   */\n      add\n        /* \"#utility.yul\":2781:2787   */\n      dup5\n        /* \"#utility.yul\":2737:2808   */\n      tag_82\n      jump\t// in\n    tag_119:\n        /* \"#utility.yul\":2593:2815   */\n      swap3\n      swap2\n      pop\n      pop\n      jump\t// out\n        /* \"#utility.yul\":2821:2907   */\n    tag_83:\n        /* \"#utility.yul\":2856:2863   */\n      0x00\n        /* \"#utility.yul\":2896:2900   */\n      0xff\n        /* \"#utility.yul\":2889:2894   */\n      dup3\n        /* \"#utility.yul\":2885:2901   */\n      and\n        /* \"#utility.yul\":2874:2901   */\n      swap1\n      pop\n        /* \"#utility.yul\":2821:2907   */\n      swap2\n      swap1\n      pop\n      jump\t// out\n        /* \"#utility.yul\":2913:3025   */\n    tag_84:\n        /* \"#utility.yul\":2996:3018   */\n      tag_122\n        /* \"#utility.yul\":3012:3017   */\n      dup2\n        /* \"#utility.yul\":2996:3018   */\n      tag_83\n      jump\t// in\n    tag_122:\n        /* \"#utility.yul\":2991:2994   */\n      dup3\n        /* \"#utility.yul\":2984:3019   */\n      mstore\n        /* \"#utility.yul\":2913:3025   */\n      pop\n      pop\n      jump\t// out\n        /* \"#utility.yul\":3031:3245   */\n    tag_59:\n        /* \"#utility.yul\":3120:3124   */\n      0x00\n        /* \"#utility.yul\":3158:3160   */\n      0x20\n        /* \"#utility.yul\":3147:3156   */\n      dup3\n        /* \"#utility.yul\":3143:3161   */\n      add\n        /* \"#utility.yul\":3135:3161   */\n      swap1\n      pop\n        /* \"#utility.yul\":3171:3238   */\n      tag_124\n        /* \"#utility.yul\":3235:3236   */\n      0x00\n        /* \"#utility.yul\":3224:3233   */\n      dup4\n        /* \"#utility.yul\":3220:3237   */\n      add\n        /* \"#utility.yul\":3211:3217   */\n      dup5\n        /* \"#utility.yul\":3171:3238   */\n      tag_84\n      jump\t// in\n    tag_124:\n        /* \"#utility.yul\":3031:3245   */\n      swap3\n      swap2\n      pop\n      pop\n      jump\t// out\n        /* \"#utility.yul\":3251:3341   */\n    tag_85:\n        /* \"#utility.yul\":3285:3292   */\n      0x00\n        /* \"#utility.yul\":3328:3333   */\n      dup2\n        /* \"#utility.yul\":3321:3334   */\n      iszero\n        /* \"#utility.yul\":3314:3335   */\n      iszero\n        /* \"#utility.yul\":3303:3335   */\n      swap1\n      pop\n        /* \"#utility.yul\":3251:3341   */\n      swap2\n      swap1\n      pop\n      jump\t// out\n        /* \"#utility.yul\":3347:3456   */\n    tag_86:\n        /* \"#utility.yul\":3428:3449   */\n      tag_127\n        /* \"#utility.yul\":3443:3448   */\n      dup2\n        /* \"#utility.yul\":3428:3449   */\n      tag_85\n      jump\t// in\n    tag_127:\n        /* \"#utility.yul\":3423:3426   */\n      dup3\n        /* \"#utility.yul\":3416:3450   */\n      mstore\n        /* \"#utility.yul\":3347:3456   */\n      pop\n      pop\n      jump\t// out\n        /* \"#utility.yul\":3462:3672   */\n    tag_66:\n        /* \"#utility.yul\":3549:3553   */\n      0x00\n        /* \"#utility.yul\":3587:3589   */\n      0x20\n        /* \"#utility.yul\":3576:3585   */\n      dup3\n        /* \"#utility.yul\":3572:3590   */\n      add\n        /* \"#utility.yul\":3564:3590   */\n      swap1\n      pop\n        /* \"#utility.yul\":3600:3665   */\n      tag_129\n        /* \"#utility.yul\":3662:3663   */\n      0x00\n        /* \"#utility.yul\":3651:3660   */\n      dup4\n        /* \"#utility.yul\":3647:3664   */\n      add\n        /* \"#utility.yul\":3638:3644   */\n      dup5\n        /* \"#utility.yul\":3600:3665   */\n      tag_86\n      jump\t// in\n    tag_129:\n        /* \"#utility.yul\":3462:3672   */\n      swap3\n      swap2\n      pop\n      pop\n      jump\t// out\n\n    auxdata: 0xa264697066735822122021b63787d91280dbb2f02240ff5f26aad66d1cba63ac790fbcce664c50fc1d9b64736f6c63430008130033\n}\n",
				"bytecode": {
					"linkReferences": {},
					"object": "60806040526001600060016101000a81548160ff021916908315150217905550600c6003557fffffffffffffffffffffffffffffffffffffffffffffffffffffffffffffffd5600460006101000a81548160ff021916908360000b60ff1602179055507f80000000000000000000000000000000000000000000000000000000000000006005557f7fffffffffffffffffffffffffffffffffffffffffffffffffffffffffffffff60065560bb60f81b600760006101000a81548160ff021916908360f81c0217905550605660f81b600760016101000a81548160ff021916908360f81c021790555073cd38d2ef21f029c5d5ac65e30a1eb22fc8babe59600860006101000a81548173ffffffffffffffffffffffffffffffffffffffff021916908373ffffffffffffffffffffffffffffffffffffffff16021790555034801561014957600080fd5b506105ad806101596000396000f3fe608060405234801561001057600080fd5b50600436106100ea5760003560e01c80639eea4a3a1161008c578063daf149b011610066578063daf149b01461021b578063dc1f768c14610239578063e845ce8f14610257578063ec630c7014610275576100ea565b80639eea4a3a146101c1578063a3558510146101df578063a548daf6146101fd576100ea565b80632c23de69116100c85780632c23de69146101495780633a36399e14610167578063621fe6c6146101855780638efcc3a3146101a3576100ea565b806301a9b703146100ef5780630dc3de4b1461010d5780631b5e8b931461012b575b600080fd5b6100f7610293565b604051610104919061039d565b60405180910390f35b6101156102a6565b60405161012291906103d5565b60405180910390f35b6101336102ba565b604051610140919061042b565b60405180910390f35b6101516102cd565b60405161015e919061045f565b60405180910390f35b61016f6102d3565b60405161017c91906104bb565b60405180910390f35b61018d6102f9565b60405161019a91906104ef565b60405180910390f35b6101ab6102ff565b6040516101b891906104ef565b60405180910390f35b6101c9610305565b6040516101d691906104bb565b60405180910390f35b6101e761032b565b6040516101f4919061045f565b60405180910390f35b610205610331565b604051610212919061042b565b60405180910390f35b610223610344565b6040516102309190610526565b60405180910390f35b610241610357565b60405161024e919061045f565b60405180910390f35b61025f61035d565b60405161026c919061055c565b60405180910390f35b61027d610370565b60405161028a919061055c565b60405180910390f35b600460009054906101000a900460000b81565b600060039054906101000a900461ffff1681565b600760009054906101000a900460f81b81565b60065481565b600760029054906101000a900473ffffffffffffffffffffffffffffffffffffffff1681565b60015481565b60025481565b600860009054906101000a900473ffffffffffffffffffffffffffffffffffffffff1681565b60035481565b600760019054906101000a900460f81b81565b600060029054906101000a900460ff1681565b60055481565b600060019054906101000a900460ff1681565b60008054906101000a900460ff1681565b60008160000b9050919050565b61039781610381565b82525050565b60006020820190506103b2600083018461038e565b92915050565b600061ffff82169050919050565b6103cf816103b8565b82525050565b60006020820190506103ea60008301846103c6565b92915050565b60007fff0000000000000000000000000000000000000000000000000000000000000082169050919050565b610425816103f0565b82525050565b6000602082019050610440600083018461041c565b92915050565b6000819050919050565b61045981610446565b82525050565b60006020820190506104746000830184610450565b92915050565b600073ffffffffffffffffffffffffffffffffffffffff82169050919050565b60006104a58261047a565b9050919050565b6104b58161049a565b82525050565b60006020820190506104d060008301846104ac565b92915050565b6000819050919050565b6104e9816104d6565b82525050565b600060208201905061050460008301846104e0565b92915050565b600060ff82169050919050565b6105208161050a565b82525050565b600060208201905061053b6000830184610517565b92915050565b60008115159050919050565b61055681610541565b82525050565b6000602082019050610571600083018461054d565b9291505056fea264697066735822122021b63787d91280dbb2f02240ff5f26aad66d1cba63ac790fbcce664c50fc1d9b64736f6c63430008130033",
					"opcodes": "PUSH1 0x80 PUSH1 0x40 MSTORE PUSH1 0x1 PUSH1 0x0 PUSH1 0x1 PUSH2 0x100 EXP DUP2 SLOAD DUP2 PUSH1 0xFF MUL NOT AND SWAP1 DUP4 ISZERO ISZERO MUL OR SWAP1 SSTORE POP PUSH1 0xC PUSH1 0x3 SSTORE PUSH32 0xFFFFFFFFFFFFFFFFFFFFFFFFFFFFFFFFFFFFFFFFFFFFFFFFFFFFFFFFFFFFFFD5 PUSH1 0x4 PUSH1 0x0 PUSH2 0x100 EXP DUP2 SLOAD DUP2 PUSH1 0xFF MUL NOT AND SWAP1 DUP4 PUSH1 0x0 SIGNEXTEND PUSH1 0xFF AND MUL OR SWAP1 SSTORE POP PUSH32 0x8000000000000000000000000000000000000000000000000000000000000000 PUSH1 0x5 SSTORE PUSH32 0x7FFFFFFFFFFFFFFFFFFFFFFFFFFFFFFFFFFFFFFFFFFFFFFFFFFFFFFFFFFFFFFF PUSH1 0x6 SSTORE PUSH1 0xBB PUSH1 0xF8 SHL PUSH1 0x7 PUSH1 0x0 PUSH2 0x100 EXP DUP2 SLOAD DUP2 PUSH1 0xFF MUL NOT AND SWAP1 DUP4 PUSH1 0xF8 SHR MUL OR SWAP1 SSTORE POP PUSH1 0x56 PUSH1 0xF8 SHL PUSH1 0x7 PUSH1 0x1 PUSH2 0x100 EXP DUP2 SLOAD DUP2 PUSH1 0xFF MUL NOT AND SWAP1 DUP4 PUSH1 0xF8 SHR MUL OR SWAP1 SSTORE POP PUSH20 0xCD38D2EF21F029C5D5AC65E30A1EB22FC8BABE59 PUSH1 0x8 PUSH1 0x0 PUSH2 0x100 EXP DUP2 SLOAD DUP2 PUSH20 0xFFFFFFFFFFFFFFFFFFFFFFFFFFFFFFFFFFFFFFFF MUL NOT AND SWAP1 DUP4 PUSH20 0xFFFFFFFFFFFFFFFFFFFFFFFFFFFFFFFFFFFFFFFF AND MUL OR SWAP1 SSTORE POP CALLVALUE DUP1 ISZERO PUSH2 0x149 JUMPI PUSH1 0x0 DUP1 REVERT JUMPDEST POP PUSH2 0x5AD DUP1 PUSH2 0x159 PUSH1 0x0 CODECOPY PUSH1 0x0 RETURN INVALID PUSH1 0x80 PUSH1 0x40 MSTORE CALLVALUE DUP1 ISZERO PUSH2 0x10 JUMPI PUSH1 0x0 DUP1 REVERT JUMPDEST POP PUSH1 0x4 CALLDATASIZE LT PUSH2 0xEA JUMPI PUSH1 0x0 CALLDATALOAD PUSH1 0xE0 SHR DUP1 PUSH4 0x9EEA4A3A GT PUSH2 0x8C JUMPI DUP1 PUSH4 0xDAF149B0 GT PUSH2 0x66 JUMPI DUP1 PUSH4 0xDAF149B0 EQ PUSH2 0x21B JUMPI DUP1 PUSH4 0xDC1F768C EQ PUSH2 0x239 JUMPI DUP1 PUSH4 0xE845CE8F EQ PUSH2 0x257 JUMPI DUP1 PUSH4 0xEC630C70 EQ PUSH2 0x275 JUMPI PUSH2 0xEA JUMP JUMPDEST DUP1 PUSH4 0x9EEA4A3A EQ PUSH2 0x1C1 JUMPI DUP1 PUSH4 0xA3558510 EQ PUSH2 0x1DF JUMPI DUP1 PUSH4 0xA548DAF6 EQ PUSH2 0x1FD JUMPI PUSH2 0xEA JUMP JUMPDEST DUP1 PUSH4 0x2C23DE69 GT PUSH2 0xC8 JUMPI DUP1 PUSH4 0x2C23DE69 EQ PUSH2 0x149 JUMPI DUP1 PUSH4 0x3A36399E EQ PUSH2 0x167 JUMPI DUP1 PUSH4 0x621FE6C6 EQ PUSH2 0x185 JUMPI DUP1 PUSH4 0x8EFCC3A3 EQ PUSH2 0x1A3 JUMPI PUSH2 0xEA JUMP JUMPDEST DUP1 PUSH4 0x1A9B703 EQ PUSH2 0xEF JUMPI DUP1 PUSH4 0xDC3DE4B EQ PUSH2 0x10D JUMPI DUP1 PUSH4 0x1B5E8B93 EQ PUSH2 0x12B JUMPI JUMPDEST PUSH1 0x0 DUP1 REVERT JUMPDEST PUSH2 0xF7 PUSH2 0x293 JUMP JUMPDEST PUSH1 0x40 MLOAD PUSH2 0x104 SWAP2 SWAP1 PUSH2 0x39D JUMP JUMPDEST PUSH1 0x40 MLOAD DUP1 SWAP2 SUB SWAP1 RETURN JUMPDEST PUSH2 0x115 PUSH2 0x2A6 JUMP JUMPDEST PUSH1 0x40 MLOAD PUSH2 0x122 SWAP2 SWAP1 PUSH2 0x3D5 JUMP JUMPDEST PUSH1 0x40 MLOAD DUP1 SWAP2 SUB SWAP1 RETURN JUMPDEST PUSH2 0x133 PUSH2 0x2BA JUMP JUMPDEST PUSH1 0x40 MLOAD PUSH2 0x140 SWAP2 SWAP1 PUSH2 0x42B JUMP JUMPDEST PUSH1 0x40 MLOAD DUP1 SWAP2 SUB SWAP1 RETURN JUMPDEST PUSH2 0x151 PUSH2 0x2CD JUMP JUMPDEST PUSH1 0x40 MLOAD PUSH2 0x15E SWAP2 SWAP1 PUSH2 0x45F JUMP JUMPDEST PUSH1 0x40 MLOAD DUP1 SWAP2 SUB SWAP1 RETURN JUMPDEST PUSH2 0x16F PUSH2 0x2D3 JUMP JUMPDEST PUSH1 0x40 MLOAD PUSH2 0x17C SWAP2 SWAP1 PUSH2 0x4BB JUMP JUMPDEST PUSH1 0x40 MLOAD DUP1 SWAP2 SUB SWAP1 RETURN JUMPDEST PUSH2 0x18D PUSH2 0x2F9 JUMP JUMPDEST PUSH1 0x40 MLOAD PUSH2 0x19A SWAP2 SWAP1 PUSH2 0x4EF JUMP JUMPDEST PUSH1 0x40 MLOAD DUP1 SWAP2 SUB SWAP1 RETURN JUMPDEST PUSH2 0x1AB PUSH2 0x2FF JUMP JUMPDEST PUSH1 0x40 MLOAD PUSH2 0x1B8 SWAP2 SWAP1 PUSH2 0x4EF JUMP JUMPDEST PUSH1 0x40 MLOAD DUP1 SWAP2 SUB SWAP1 RETURN JUMPDEST PUSH2 0x1C9 PUSH2 0x305 JUMP JUMPDEST PUSH1 0x40 MLOAD PUSH2 0x1D6 SWAP2 SWAP1 PUSH2 0x4BB JUMP JUMPDEST PUSH1 0x40 MLOAD DUP1 SWAP2 SUB SWAP1 RETURN JUMPDEST PUSH2 0x1E7 PUSH2 0x32B JUMP JUMPDEST PUSH1 0x40 MLOAD PUSH2 0x1F4 SWAP2 SWAP1 PUSH2 0x45F JUMP JUMPDEST PUSH1 0x40 MLOAD DUP1 SWAP2 SUB SWAP1 RETURN JUMPDEST PUSH2 0x205 PUSH2 0x331 JUMP JUMPDEST PUSH1 0x40 MLOAD PUSH2 0x212 SWAP2 SWAP1 PUSH2 0x42B JUMP JUMPDEST PUSH1 0x40 MLOAD DUP1 SWAP2 SUB SWAP1 RETURN JUMPDEST PUSH2 0x223 PUSH2 0x344 JUMP JUMPDEST PUSH1 0x40 MLOAD PUSH2 0x230 SWAP2 SWAP1 PUSH2 0x526 JUMP JUMPDEST PUSH1 0x40 MLOAD DUP1 SWAP2 SUB SWAP1 RETURN JUMPDEST PUSH2 0x241 PUSH2 0x357 JUMP JUMPDEST PUSH1 0x40 MLOAD PUSH2 0x24E SWAP2 SWAP1 PUSH2 0x45F JUMP JUMPDEST PUSH1 0x40 MLOAD DUP1 SWAP2 SUB SWAP1 RETURN JUMPDEST PUSH2 0x25F PUSH2 0x35D JUMP JUMPDEST PUSH1 0x40 MLOAD PUSH2 0x26C SWAP2 SWAP1 PUSH2 0x55C JUMP JUMPDEST PUSH1 0x40 MLOAD DUP1 SWAP2 SUB SWAP1 RETURN JUMPDEST PUSH2 0x27D PUSH2 0x370 JUMP JUMPDEST PUSH1 0x40 MLOAD PUSH2 0x28A SWAP2 SWAP1 PUSH2 0x55C JUMP JUMPDEST PUSH1 0x40 MLOAD DUP1 SWAP2 SUB SWAP1 RETURN JUMPDEST PUSH1 0x4 PUSH1 0x0 SWAP1 SLOAD SWAP1 PUSH2 0x100 EXP SWAP1 DIV PUSH1 0x0 SIGNEXTEND DUP2 JUMP JUMPDEST PUSH1 0x0 PUSH1 0x3 SWAP1 SLOAD SWAP1 PUSH2 0x100 EXP SWAP1 DIV PUSH2 0xFFFF AND DUP2 JUMP JUMPDEST PUSH1 0x7 PUSH1 0x0 SWAP1 SLOAD SWAP1 PUSH2 0x100 EXP SWAP1 DIV PUSH1 0xF8 SHL DUP2 JUMP JUMPDEST PUSH1 0x6 SLOAD DUP2 JUMP JUMPDEST PUSH1 0x7 PUSH1 0x2 SWAP1 SLOAD SWAP1 PUSH2 0x100 EXP SWAP1 DIV PUSH20 0xFFFFFFFFFFFFFFFFFFFFFFFFFFFFFFFFFFFFFFFF AND DUP2 JUMP JUMPDEST PUSH1 0x1 SLOAD DUP2 JUMP JUMPDEST PUSH1 0x2 SLOAD DUP2 JUMP JUMPDEST PUSH1 0x8 PUSH1 0x0 SWAP1 SLOAD SWAP1 PUSH2 0x100 EXP SWAP1 DIV PUSH20 0xFFFFFFFFFFFFFFFFFFFFFFFFFFFFFFFFFFFFFFFF AND DUP2 JUMP JUMPDEST PUSH1 0x3 SLOAD DUP2 JUMP JUMPDEST PUSH1 0x7 PUSH1 0x1 SWAP1 SLOAD SWAP1 PUSH2 0x100 EXP SWAP1 DIV PUSH1 0xF8 SHL DUP2 JUMP JUMPDEST PUSH1 0x0 PUSH1 0x2 SWAP1 SLOAD SWAP1 PUSH2 0x100 EXP SWAP1 DIV PUSH1 0xFF AND DUP2 JUMP JUMPDEST PUSH1 0x5 SLOAD DUP2 JUMP JUMPDEST PUSH1 0x0 PUSH1 0x1 SWAP1 SLOAD SWAP1 PUSH2 0x100 EXP SWAP1 DIV PUSH1 0xFF AND DUP2 JUMP JUMPDEST PUSH1 0x0 DUP1 SLOAD SWAP1 PUSH2 0x100 EXP SWAP1 DIV PUSH1 0xFF AND DUP2 JUMP JUMPDEST PUSH1 0x0 DUP2 PUSH1 0x0 SIGNEXTEND SWAP1 POP SWAP2 SWAP1 POP JUMP JUMPDEST PUSH2 0x397 DUP2 PUSH2 0x381 JUMP JUMPDEST DUP3 MSTORE POP POP JUMP JUMPDEST PUSH1 0x0 PUSH1 0x20 DUP3 ADD SWAP1 POP PUSH2 0x3B2 PUSH1 0x0 DUP4 ADD DUP5 PUSH2 0x38E JUMP JUMPDEST SWAP3 SWAP2 POP POP JUMP JUMPDEST PUSH1 0x0 PUSH2 0xFFFF DUP3 AND SWAP1 POP SWAP2 SWAP1 POP JUMP JUMPDEST PUSH2 0x3CF DUP2 PUSH2 0x3B8 JUMP JUMPDEST DUP3 MSTORE POP POP JUMP JUMPDEST PUSH1 0x0 PUSH1 0x20 DUP3 ADD SWAP1 POP PUSH2 0x3EA PUSH1 0x0 DUP4 ADD DUP5 PUSH2 0x3C6 JUMP JUMPDEST SWAP3 SWAP2 POP POP JUMP JUMPDEST PUSH1 0x0 PUSH32 0xFF00000000000000000000000000000000000000000000000000000000000000 DUP3 AND SWAP1 POP SWAP2 SWAP1 POP JUMP JUMPDEST PUSH2 0x425 DUP2 PUSH2 0x3F0 JUMP JUMPDEST DUP3 MSTORE POP POP JUMP JUMPDEST PUSH1 0x0 PUSH1 0x20 DUP3 ADD SWAP1 POP PUSH2 0x440 PUSH1 0x0 DUP4 ADD DUP5 PUSH2 0x41C JUMP JUMPDEST SWAP3 SWAP2 POP POP JUMP JUMPDEST PUSH1 0x0 DUP2 SWAP1 POP SWAP2 SWAP1 POP JUMP JUMPDEST PUSH2 0x459 DUP2 PUSH2 0x446 JUMP JUMPDEST DUP3 MSTORE POP POP JUMP JUMPDEST PUSH1 0x0 PUSH1 0x20 DUP3 ADD SWAP1 POP PUSH2 0x474 PUSH1 0x0 DUP4 ADD DUP5 PUSH2 0x450 JUMP JUMPDEST SWAP3 SWAP2 POP POP JUMP JUMPDEST PUSH1 0x0 PUSH20 0xFFFFFFFFFFFFFFFFFFFFFFFFFFFFFFFFFFFFFFFF DUP3 AND SWAP1 POP SWAP2 SWAP1 POP JUMP JUMPDEST PUSH1 0x0 PUSH2 0x4A5 DUP3 PUSH2 0x47A JUMP JUMPDEST SWAP1 POP SWAP2 SWAP1 POP JUMP JUMPDEST PUSH2 0x4B5 DUP2 PUSH2 0x49A JUMP JUMPDEST DUP3 MSTORE POP POP JUMP JUMPDEST PUSH1 0x0 PUSH1 0x20 DUP3 ADD SWAP1 POP PUSH2 0x4D0 PUSH1 0x0 DUP4 ADD DUP5 PUSH2 0x4AC JUMP JUMPDEST SWAP3 SWAP2 POP POP JUMP JUMPDEST PUSH1 0x0 DUP2 SWAP1 POP SWAP2 SWAP1 POP JUMP JUMPDEST PUSH2 0x4E9 DUP2 PUSH2 0x4D6 JUMP JUMPDEST DUP3 MSTORE POP POP JUMP JUMPDEST PUSH1 0x0 PUSH1 0x20 DUP3 ADD SWAP1 POP PUSH2 0x504 PUSH1 0x0 DUP4 ADD DUP5 PUSH2 0x4E0 JUMP JUMPDEST SWAP3 SWAP2 POP POP JUMP JUMPDEST PUSH1 0x0 PUSH1 0xFF DUP3 AND SWAP1 POP SWAP2 SWAP1 POP JUMP JUMPDEST PUSH2 0x520 DUP2 PUSH2 0x50A JUMP JUMPDEST DUP3 MSTORE POP POP JUMP JUMPDEST PUSH1 0x0 PUSH1 0x20 DUP3 ADD SWAP1 POP PUSH2 0x53B PUSH1 0x0 DUP4 ADD DUP5 PUSH2 0x517 JUMP JUMPDEST SWAP3 SWAP2 POP POP JUMP JUMPDEST PUSH1 0x0 DUP2 ISZERO ISZERO SWAP1 POP SWAP2 SWAP1 POP JUMP JUMPDEST PUSH2 0x556 DUP2 PUSH2 0x541 JUMP JUMPDEST DUP3 MSTORE POP POP JUMP JUMPDEST PUSH1 0x0 PUSH1 0x20 DUP3 ADD SWAP1 POP PUSH2 0x571 PUSH1 0x0 DUP4 ADD DUP5 PUSH2 0x54D JUMP JUMPDEST SWAP3 SWAP2 POP POP JUMP INVALID LOG2 PUSH5 0x6970667358 0x22 SLT KECCAK256 0x21 0xB6 CALLDATACOPY DUP8 0xD9 SLT DUP1 0xDB 0xB2 CREATE 0x22 BLOCKHASH SELFDESTRUCT 0x5F 0x26 0xAA 0xD6 PUSH14 0x1CBA63AC790FBCCE664C50FC1D9B PUSH5 0x736F6C6343 STOP ADDMOD SGT STOP CALLER "
				},
				"gasEstimates": {
					"creation": {
						"codeDepositCost": "290600",
						"executionCost": "188104",
						"totalCost": "478704"
					},
					"external": {
						"address1()": "2609",
						"address2()": "2537",
						"ama1()": "2474",
						"ama2()": "2499",
						"aman()": "2543",
						"aman1l()": "2567",
						"aman2()": "2496",
						"aman3()": "2518",
						"bool1()": "2556",
						"bool2()": "2587",
						"check1()": "2539",
						"check2()": "2588",
						"maxint()": "2452",
						"minint()": "2473"
					}
				},
				"methodIdentifiers": {
					"address1()": "3a36399e",
					"address2()": "9eea4a3a",
					"ama1()": "a3558510",
					"ama2()": "01a9b703",
					"aman()": "daf149b0",
					"aman1l()": "0dc3de4b",
					"aman2()": "621fe6c6",
					"aman3()": "8efcc3a3",
					"bool1()": "ec630c70",
					"bool2()": "e845ce8f",
					"check1()": "1b5e8b93",
					"check2()": "a548daf6",
					"maxint()": "2c23de69",
					"minint()": "dc1f768c"
				}
			},
			"storageLayout": {
				"storage": [
					{
						"astId": 3,
						"contract": "contracts/datatypes.sol:datatypes",
						"label": "bool1",
						"offset": 0,
						"slot": "0",
						"type": "t_bool"
					},
					{
						"astId": 6,
						"contract": "contracts/datatypes.sol:datatypes",
						"label": "bool2",
						"offset": 1,
						"slot": "0",
						"type": "t_bool"
					},
					{
						"astId": 8,
						"contract": "contracts/datatypes.sol:datatypes",
						"label": "aman",
						"offset": 2,
						"slot": "0",
						"type": "t_uint8"
					},
					{
						"astId": 10,
						"contract": "contracts/datatypes.sol:datatypes",
						"label": "aman1l",
						"offset": 3,
						"slot": "0",
						"type": "t_uint16"
					},
					{
						"astId": 12,
						"contract": "contracts/datatypes.sol:datatypes",
						"label": "aman2",
						"offset": 0,
						"slot": "1",
						"type": "t_uint256"
					},
					{
						"astId": 14,
						"contract": "contracts/datatypes.sol:datatypes",
						"label": "aman3",
						"offset": 0,
						"slot": "2",
						"type": "t_uint256"
					},
					{
						"astId": 17,
						"contract": "contracts/datatypes.sol:datatypes",
						"label": "ama1",
						"offset": 0,
						"slot": "3",
						"type": "t_int256"
					},
					{
						"astId": 21,
						"contract": "contracts/datatypes.sol:datatypes",
						"label": "ama2",
						"offset": 0,
						"slot": "4",
						"type": "t_int8"
					},
					{
						"astId": 28,
						"contract": "contracts/datatypes.sol:datatypes",
						"label": "minint",
						"offset": 0,
						"slot": "5",
						"type": "t_int256"
					},
					{
						"astId": 35,
						"contract": "contracts/datatypes.sol:datatypes",
						"label": "maxint",
						"offset": 0,
						"slot": "6",
						"type": "t_int256"
					},
					{
						"astId": 38,
						"contract": "contracts/datatypes.sol:datatypes",
						"label": "check1",
						"offset": 0,
						"slot": "7",
						"type": "t_bytes1"
					},
					{
						"astId": 41,
						"contract": "contracts/datatypes.sol:datatypes",
						"label": "check2",
						"offset": 1,
						"slot": "7",
						"type": "t_bytes1"
					},
					{
						"astId": 43,
						"contract": "contracts/datatypes.sol:datatypes",
						"label": "address1",
						"offset": 2,
						"slot": "7",
						"type": "t_address"
					},
					{
						"astId": 46,
						"contract": "contracts/datatypes.sol:datatypes",
						"label": "address2",
						"offset": 0,
						"slot": "8",
						"type": "t_address"
					}
				],
				"types": {
					"t_address": {
						"encoding": "inplace",
						"label": "address",
						"numberOfBytes": "20"
					},
					"t_bool": {
						"encoding": "inplace",
						"label": "bool",
						"numberOfBytes": "1"
					},
					"t_bytes1": {
						"encoding": "inplace",
						"label": "bytes1",
						"numberOfBytes": "1"
					},
					"t_int256": {
						"encoding": "inplace",
						"label": "int256",
						"numberOfBytes": "32"
					},
					"t_int8": {
						"encoding": "inplace",
						"label": "int8",
						"numberOfBytes": "1"
					},
					"t_uint16": {
						"encoding": "inplace",
						"label": "uint16",
						"numberOfBytes": "2"
					},
					"t_uint256": {
						"encoding": "inplace",
						"label": "uint256",
						"numberOfBytes": "32"
					},
					"t_uint8": {
						"encoding": "inplace",
						"label": "uint8",
						"numberOfBytes": "1"
					}
				}
			},
			"userdoc": {
				"kind": "user",
				"methods": {},
				"version": 1
			}
		}
	}
}