{
	"contracts/eventorganisation.sol": {
		"Eventorganization": {
			"abi": [
				{
					"inputs": [
						{
							"internalType": "uint256",
							"name": "id",
							"type": "uint256"
						},
						{
							"internalType": "uint256",
							"name": "quantity",
							"type": "uint256"
						}
					],
					"name": "buyticket",
					"outputs": [],
					"stateMutability": "payable",
					"type": "function"
				},
				{
					"inputs": [
						{
							"internalType": "string",
							"name": "_name",
							"type": "string"
						},
						{
							"internalType": "uint256",
							"name": "_date",
							"type": "uint256"
						},
						{
							"internalType": "uint256",
							"name": "_price",
							"type": "uint256"
						},
						{
							"internalType": "uint256",
							"name": "_totalnoofticket",
							"type": "uint256"
						}
					],
					"name": "createEvent",
					"outputs": [],
					"stateMutability": "nonpayable",
					"type": "function"
				},
				{
					"inputs": [
						{
							"internalType": "uint256",
							"name": "",
							"type": "uint256"
						}
					],
					"name": "eventbynumber",
					"outputs": [
						{
							"internalType": "string",
							"name": "eventname",
							"type": "string"
						},
						{
							"internalType": "address",
							"name": "organizer",
							"type": "address"
						},
						{
							"internalType": "uint256",
							"name": "date",
							"type": "uint256"
						},
						{
							"internalType": "uint256",
							"name": "price",
							"type": "uint256"
						},
						{
							"internalType": "uint256",
							"name": "totalnoofticket",
							"type": "uint256"
						},
						{
							"internalType": "uint256",
							"name": "ticketremain",
							"type": "uint256"
						}
					],
					"stateMutability": "view",
					"type": "function"
				},
				{
					"inputs": [],
					"name": "nextid",
					"outputs": [
						{
							"internalType": "uint256",
							"name": "",
							"type": "uint256"
						}
					],
					"stateMutability": "view",
					"type": "function"
				},
				{
					"inputs": [
						{
							"internalType": "address",
							"name": "",
							"type": "address"
						},
						{
							"internalType": "uint256",
							"name": "",
							"type": "uint256"
						}
					],
					"name": "tickets",
					"outputs": [
						{
							"internalType": "uint256",
							"name": "",
							"type": "uint256"
						}
					],
					"stateMutability": "view",
					"type": "function"
				},
				{
					"inputs": [
						{
							"internalType": "uint256",
							"name": "eventid",
							"type": "uint256"
						},
						{
							"internalType": "uint256",
							"name": "quantity",
							"type": "uint256"
						},
						{
							"internalType": "address",
							"name": "to",
							"type": "address"
						}
					],
					"name": "transferticket",
					"outputs": [],
					"stateMutability": "nonpayable",
					"type": "function"
				}
			],
			"devdoc": {
				"kind": "dev",
				"methods": {},
				"version": 1
			},
			"evm": {
				"assembly": "    /* \"contracts/eventorganisation.sol\":209:2496  contract Eventorganization{... */\n  mstore(0x40, 0x80)\n  callvalue\n  dup1\n  iszero\n  tag_1\n  jumpi\n  0x00\n  dup1\n  revert\ntag_1:\n  pop\n  dataSize(sub_0)\n  dup1\n  dataOffset(sub_0)\n  0x00\n  codecopy\n  0x00\n  return\nstop\n\nsub_0: assembly {\n        /* \"contracts/eventorganisation.sol\":209:2496  contract Eventorganization{... */\n      mstore(0x40, 0x80)\n      jumpi(tag_1, lt(calldatasize, 0x04))\n      shr(0xe0, calldataload(0x00))\n      dup1\n      0x0374ab0b\n      eq\n      tag_2\n      jumpi\n      dup1\n      0x5c29d40d\n      eq\n      tag_3\n      jumpi\n      dup1\n      0x7a5a2462\n      eq\n      tag_4\n      jumpi\n      dup1\n      0xd9e20b7c\n      eq\n      tag_5\n      jumpi\n      dup1\n      0xdae7a13c\n      eq\n      tag_6\n      jumpi\n      dup1\n      0xe3cd6c64\n      eq\n      tag_7\n      jumpi\n    tag_1:\n      0x00\n      dup1\n      revert\n        /* \"contracts/eventorganisation.sol\":679:1188  function createEvent(string memory _name, uint _date, uint _price, uint _totalnoofticket) external {... */\n    tag_2:\n      callvalue\n      dup1\n      iszero\n      tag_8\n      jumpi\n      0x00\n      dup1\n      revert\n    tag_8:\n      pop\n      tag_9\n      0x04\n      dup1\n      calldatasize\n      sub\n      dup2\n      add\n      swap1\n      tag_10\n      swap2\n      swap1\n      tag_11\n      jump\t// in\n    tag_10:\n      tag_12\n      jump\t// in\n    tag_9:\n      stop\n        /* \"contracts/eventorganisation.sol\":541:559  uint public nextid */\n    tag_3:\n      callvalue\n      dup1\n      iszero\n      tag_13\n      jumpi\n      0x00\n      dup1\n      revert\n    tag_13:\n      pop\n      tag_14\n      tag_15\n      jump\t// in\n    tag_14:\n      mload(0x40)\n      tag_16\n      swap2\n      swap1\n      tag_17\n      jump\t// in\n    tag_16:\n      mload(0x40)\n      dup1\n      swap2\n      sub\n      swap1\n      return\n        /* \"contracts/eventorganisation.sol\":1946:2491  function transferticket(uint eventid, uint quantity, address to) external  {... */\n    tag_4:\n      callvalue\n      dup1\n      iszero\n      tag_18\n      jumpi\n      0x00\n      dup1\n      revert\n    tag_18:\n      pop\n      tag_19\n      0x04\n      dup1\n      calldatasize\n      sub\n      dup2\n      add\n      swap1\n      tag_20\n      swap2\n      swap1\n      tag_21\n      jump\t// in\n    tag_20:\n      tag_22\n      jump\t// in\n    tag_19:\n      stop\n        /* \"contracts/eventorganisation.sol\":1196:1938  function buyticket(uint id, uint quantity) external payable {... */\n    tag_5:\n      tag_23\n      0x04\n      dup1\n      calldatasize\n      sub\n      dup2\n      add\n      swap1\n      tag_24\n      swap2\n      swap1\n      tag_25\n      jump\t// in\n    tag_24:\n      tag_26\n      jump\t// in\n    tag_23:\n      stop\n        /* \"contracts/eventorganisation.sol\":480:534  mapping (address=>mapping (uint=>uint)) public tickets */\n    tag_6:\n      callvalue\n      dup1\n      iszero\n      tag_27\n      jumpi\n      0x00\n      dup1\n      revert\n    tag_27:\n      pop\n      tag_28\n      0x04\n      dup1\n      calldatasize\n      sub\n      dup2\n      add\n      swap1\n      tag_29\n      swap2\n      swap1\n      tag_30\n      jump\t// in\n    tag_29:\n      tag_31\n      jump\t// in\n    tag_28:\n      mload(0x40)\n      tag_32\n      swap2\n      swap1\n      tag_17\n      jump\t// in\n    tag_32:\n      mload(0x40)\n      dup1\n      swap2\n      sub\n      swap1\n      return\n        /* \"contracts/eventorganisation.sol\":427:473  mapping (uint=>eventlist) public eventbynumber */\n    tag_7:\n      callvalue\n      dup1\n      iszero\n      tag_33\n      jumpi\n      0x00\n      dup1\n      revert\n    tag_33:\n      pop\n      tag_34\n      0x04\n      dup1\n      calldatasize\n      sub\n      dup2\n      add\n      swap1\n      tag_35\n      swap2\n      swap1\n      tag_36\n      jump\t// in\n    tag_35:\n      tag_37\n      jump\t// in\n    tag_34:\n      mload(0x40)\n      tag_38\n      swap7\n      swap6\n      swap5\n      swap4\n      swap3\n      swap2\n      swap1\n      tag_39\n      jump\t// in\n    tag_38:\n      mload(0x40)\n      dup1\n      swap2\n      sub\n      swap1\n      return\n        /* \"contracts/eventorganisation.sol\":679:1188  function createEvent(string memory _name, uint _date, uint _price, uint _totalnoofticket) external {... */\n    tag_12:\n        /* \"contracts/eventorganisation.sol\":803:818  block.timestamp */\n      timestamp\n        /* \"contracts/eventorganisation.sol\":797:802  _date */\n      dup4\n        /* \"contracts/eventorganisation.sol\":797:818  _date>block.timestamp */\n      gt\n        /* \"contracts/eventorganisation.sol\":789:841  require(_date>block.timestamp,\"data is not correct\") */\n      tag_41\n      jumpi\n      mload(0x40)\n      0x08c379a000000000000000000000000000000000000000000000000000000000\n      dup2\n      mstore\n      0x04\n      add\n      tag_42\n      swap1\n      tag_43\n      jump\t// in\n    tag_42:\n      mload(0x40)\n      dup1\n      swap2\n      sub\n      swap1\n      revert\n    tag_41:\n        /* \"contracts/eventorganisation.sol\":877:878  0 */\n      0x00\n        /* \"contracts/eventorganisation.sol\":860:876  _totalnoofticket */\n      dup2\n        /* \"contracts/eventorganisation.sol\":860:878  _totalnoofticket>0 */\n      gt\n        /* \"contracts/eventorganisation.sol\":852:915  require(_totalnoofticket>0,\"please increase the totalticketno\") */\n      tag_44\n      jumpi\n      mload(0x40)\n      0x08c379a000000000000000000000000000000000000000000000000000000000\n      dup2\n      mstore\n      0x04\n      add\n      tag_45\n      swap1\n      tag_46\n      jump\t// in\n    tag_45:\n      mload(0x40)\n      dup1\n      swap2\n      sub\n      swap1\n      revert\n    tag_44:\n        /* \"contracts/eventorganisation.sol\":1083:1161  eventlist(_name, msg.sender, _date, _price, _totalnoofticket,_totalnoofticket) */\n      mload(0x40)\n      dup1\n      0xc0\n      add\n      0x40\n      mstore\n      dup1\n        /* \"contracts/eventorganisation.sol\":1093:1098  _name */\n      dup6\n        /* \"contracts/eventorganisation.sol\":1083:1161  eventlist(_name, msg.sender, _date, _price, _totalnoofticket,_totalnoofticket) */\n      dup2\n      mstore\n      0x20\n      add\n        /* \"contracts/eventorganisation.sol\":1100:1110  msg.sender */\n      caller\n        /* \"contracts/eventorganisation.sol\":1083:1161  eventlist(_name, msg.sender, _date, _price, _totalnoofticket,_totalnoofticket) */\n      0xffffffffffffffffffffffffffffffffffffffff\n      and\n      dup2\n      mstore\n      0x20\n      add\n        /* \"contracts/eventorganisation.sol\":1112:1117  _date */\n      dup5\n        /* \"contracts/eventorganisation.sol\":1083:1161  eventlist(_name, msg.sender, _date, _price, _totalnoofticket,_totalnoofticket) */\n      dup2\n      mstore\n      0x20\n      add\n        /* \"contracts/eventorganisation.sol\":1119:1125  _price */\n      dup4\n        /* \"contracts/eventorganisation.sol\":1083:1161  eventlist(_name, msg.sender, _date, _price, _totalnoofticket,_totalnoofticket) */\n      dup2\n      mstore\n      0x20\n      add\n        /* \"contracts/eventorganisation.sol\":1127:1143  _totalnoofticket */\n      dup3\n        /* \"contracts/eventorganisation.sol\":1083:1161  eventlist(_name, msg.sender, _date, _price, _totalnoofticket,_totalnoofticket) */\n      dup2\n      mstore\n      0x20\n      add\n        /* \"contracts/eventorganisation.sol\":1144:1160  _totalnoofticket */\n      dup3\n        /* \"contracts/eventorganisation.sol\":1083:1161  eventlist(_name, msg.sender, _date, _price, _totalnoofticket,_totalnoofticket) */\n      dup2\n      mstore\n      pop\n        /* \"contracts/eventorganisation.sol\":1059:1072  eventbynumber */\n      0x00\n        /* \"contracts/eventorganisation.sol\":1059:1080  eventbynumber[nextid] */\n      dup1\n        /* \"contracts/eventorganisation.sol\":1073:1079  nextid */\n      sload(0x02)\n        /* \"contracts/eventorganisation.sol\":1059:1080  eventbynumber[nextid] */\n      dup2\n      mstore\n      0x20\n      add\n      swap1\n      dup2\n      mstore\n      0x20\n      add\n      0x00\n      keccak256\n        /* \"contracts/eventorganisation.sol\":1059:1161  eventbynumber[nextid] = eventlist(_name, msg.sender, _date, _price, _totalnoofticket,_totalnoofticket) */\n      0x00\n      dup3\n      add\n      mload\n      dup2\n      0x00\n      add\n      swap1\n      dup2\n      tag_47\n      swap2\n      swap1\n      tag_48\n      jump\t// in\n    tag_47:\n      pop\n      0x20\n      dup3\n      add\n      mload\n      dup2\n      0x01\n      add\n      exp(0x0100, 0x00)\n      dup2\n      sload\n      dup2\n      0xffffffffffffffffffffffffffffffffffffffff\n      mul\n      not\n      and\n      swap1\n      dup4\n      0xffffffffffffffffffffffffffffffffffffffff\n      and\n      mul\n      or\n      swap1\n      sstore\n      pop\n      0x40\n      dup3\n      add\n      mload\n      dup2\n      0x02\n      add\n      sstore\n      0x60\n      dup3\n      add\n      mload\n      dup2\n      0x03\n      add\n      sstore\n      0x80\n      dup3\n      add\n      mload\n      dup2\n      0x04\n      add\n      sstore\n      0xa0\n      dup3\n      add\n      mload\n      dup2\n      0x05\n      add\n      sstore\n      swap1\n      pop\n      pop\n        /* \"contracts/eventorganisation.sol\":1172:1178  nextid */\n      0x02\n      0x00\n        /* \"contracts/eventorganisation.sol\":1172:1180  nextid++ */\n      dup2\n      sload\n      dup1\n      swap3\n      swap2\n      swap1\n      tag_49\n      swap1\n      tag_50\n      jump\t// in\n    tag_49:\n      swap2\n      swap1\n      pop\n      sstore\n      pop\n        /* \"contracts/eventorganisation.sol\":679:1188  function createEvent(string memory _name, uint _date, uint _price, uint _totalnoofticket) external {... */\n      pop\n      pop\n      pop\n      pop\n      jump\t// out\n        /* \"contracts/eventorganisation.sol\":541:559  uint public nextid */\n    tag_15:\n      sload(0x02)\n      dup2\n      jump\t// out\n        /* \"contracts/eventorganisation.sol\":1946:2491  function transferticket(uint eventid, uint quantity, address to) external  {... */\n    tag_22:\n        /* \"contracts/eventorganisation.sol\":2069:2070  0 */\n      0x00\n        /* \"contracts/eventorganisation.sol\":2040:2053  eventbynumber */\n      dup1\n        /* \"contracts/eventorganisation.sol\":2040:2062  eventbynumber[eventid] */\n      0x00\n        /* \"contracts/eventorganisation.sol\":2054:2061  eventid */\n      dup6\n        /* \"contracts/eventorganisation.sol\":2040:2062  eventbynumber[eventid] */\n      dup2\n      mstore\n      0x20\n      add\n      swap1\n      dup2\n      mstore\n      0x20\n      add\n      0x00\n      keccak256\n        /* \"contracts/eventorganisation.sol\":2040:2067  eventbynumber[eventid].date */\n      0x02\n      add\n      sload\n        /* \"contracts/eventorganisation.sol\":2040:2070  eventbynumber[eventid].date!=0 */\n      sub\n        /* \"contracts/eventorganisation.sol\":2032:2092  require(eventbynumber[eventid].date!=0, \"event date is end\") */\n      tag_52\n      jumpi\n      mload(0x40)\n      0x08c379a000000000000000000000000000000000000000000000000000000000\n      dup2\n      mstore\n      0x04\n      add\n      tag_53\n      swap1\n      tag_54\n      jump\t// in\n    tag_53:\n      mload(0x40)\n      dup1\n      swap2\n      sub\n      swap1\n      revert\n    tag_52:\n        /* \"contracts/eventorganisation.sol\":2130:2143  eventbynumber */\n      0x00\n        /* \"contracts/eventorganisation.sol\":2130:2152  eventbynumber[eventid] */\n      dup1\n        /* \"contracts/eventorganisation.sol\":2144:2151  eventid */\n      dup5\n        /* \"contracts/eventorganisation.sol\":2130:2152  eventbynumber[eventid] */\n      dup2\n      mstore\n      0x20\n      add\n      swap1\n      dup2\n      mstore\n      0x20\n      add\n      0x00\n      keccak256\n        /* \"contracts/eventorganisation.sol\":2130:2157  eventbynumber[eventid].date */\n      0x02\n      add\n      sload\n        /* \"contracts/eventorganisation.sol\":2111:2126  block.timestamp */\n      timestamp\n        /* \"contracts/eventorganisation.sol\":2111:2157  block.timestamp >= eventbynumber[eventid].date */\n      lt\n      iszero\n        /* \"contracts/eventorganisation.sol\":2103:2184  require(block.timestamp >= eventbynumber[eventid].date , \"event not started yet\") */\n      tag_55\n      jumpi\n      mload(0x40)\n      0x08c379a000000000000000000000000000000000000000000000000000000000\n      dup2\n      mstore\n      0x04\n      add\n      tag_56\n      swap1\n      tag_57\n      jump\t// in\n    tag_56:\n      mload(0x40)\n      dup1\n      swap2\n      sub\n      swap1\n      revert\n    tag_55:\n        /* \"contracts/eventorganisation.sol\":2235:2243  quantity */\n      dup2\n        /* \"contracts/eventorganisation.sol\":2203:2210  tickets */\n      0x01\n        /* \"contracts/eventorganisation.sol\":2203:2222  tickets[msg.sender] */\n      0x00\n        /* \"contracts/eventorganisation.sol\":2211:2221  msg.sender */\n      caller\n        /* \"contracts/eventorganisation.sol\":2203:2222  tickets[msg.sender] */\n      0xffffffffffffffffffffffffffffffffffffffff\n      and\n      0xffffffffffffffffffffffffffffffffffffffff\n      and\n      dup2\n      mstore\n      0x20\n      add\n      swap1\n      dup2\n      mstore\n      0x20\n      add\n      0x00\n      keccak256\n        /* \"contracts/eventorganisation.sol\":2203:2231  tickets[msg.sender][eventid] */\n      0x00\n        /* \"contracts/eventorganisation.sol\":2223:2230  eventid */\n      dup6\n        /* \"contracts/eventorganisation.sol\":2203:2231  tickets[msg.sender][eventid] */\n      dup2\n      mstore\n      0x20\n      add\n      swap1\n      dup2\n      mstore\n      0x20\n      add\n      0x00\n      keccak256\n      sload\n        /* \"contracts/eventorganisation.sol\":2203:2243  tickets[msg.sender][eventid] >= quantity */\n      lt\n      iszero\n        /* \"contracts/eventorganisation.sol\":2195:2278  require(tickets[msg.sender][eventid] >= quantity, \"you do not have enough tickets\") */\n      tag_58\n      jumpi\n      mload(0x40)\n      0x08c379a000000000000000000000000000000000000000000000000000000000\n      dup2\n      mstore\n      0x04\n      add\n      tag_59\n      swap1\n      tag_60\n      jump\t// in\n    tag_59:\n      mload(0x40)\n      dup1\n      swap2\n      sub\n      swap1\n      revert\n    tag_58:\n        /* \"contracts/eventorganisation.sol\":2371:2379  quantity */\n      dup2\n        /* \"contracts/eventorganisation.sol\":2341:2348  tickets */\n      0x01\n        /* \"contracts/eventorganisation.sol\":2341:2360  tickets[msg.sender] */\n      0x00\n        /* \"contracts/eventorganisation.sol\":2349:2359  msg.sender */\n      caller\n        /* \"contracts/eventorganisation.sol\":2341:2360  tickets[msg.sender] */\n      0xffffffffffffffffffffffffffffffffffffffff\n      and\n      0xffffffffffffffffffffffffffffffffffffffff\n      and\n      dup2\n      mstore\n      0x20\n      add\n      swap1\n      dup2\n      mstore\n      0x20\n      add\n      0x00\n      keccak256\n        /* \"contracts/eventorganisation.sol\":2341:2369  tickets[msg.sender][eventid] */\n      0x00\n        /* \"contracts/eventorganisation.sol\":2361:2368  eventid */\n      dup6\n        /* \"contracts/eventorganisation.sol\":2341:2369  tickets[msg.sender][eventid] */\n      dup2\n      mstore\n      0x20\n      add\n      swap1\n      dup2\n      mstore\n      0x20\n      add\n      0x00\n      keccak256\n      0x00\n        /* \"contracts/eventorganisation.sol\":2341:2379  tickets[msg.sender][eventid]-=quantity */\n      dup3\n      dup3\n      sload\n      tag_61\n      swap2\n      swap1\n      tag_62\n      jump\t// in\n    tag_61:\n      swap3\n      pop\n      pop\n      dup2\n      swap1\n      sstore\n      pop\n        /* \"contracts/eventorganisation.sol\":2475:2483  quantity */\n      dup2\n        /* \"contracts/eventorganisation.sol\":2453:2460  tickets */\n      0x01\n        /* \"contracts/eventorganisation.sol\":2453:2464  tickets[to] */\n      0x00\n        /* \"contracts/eventorganisation.sol\":2461:2463  to */\n      dup4\n        /* \"contracts/eventorganisation.sol\":2453:2464  tickets[to] */\n      0xffffffffffffffffffffffffffffffffffffffff\n      and\n      0xffffffffffffffffffffffffffffffffffffffff\n      and\n      dup2\n      mstore\n      0x20\n      add\n      swap1\n      dup2\n      mstore\n      0x20\n      add\n      0x00\n      keccak256\n        /* \"contracts/eventorganisation.sol\":2453:2473  tickets[to][eventid] */\n      0x00\n        /* \"contracts/eventorganisation.sol\":2465:2472  eventid */\n      dup6\n        /* \"contracts/eventorganisation.sol\":2453:2473  tickets[to][eventid] */\n      dup2\n      mstore\n      0x20\n      add\n      swap1\n      dup2\n      mstore\n      0x20\n      add\n      0x00\n      keccak256\n      0x00\n        /* \"contracts/eventorganisation.sol\":2453:2483  tickets[to][eventid]+=quantity */\n      dup3\n      dup3\n      sload\n      tag_63\n      swap2\n      swap1\n      tag_64\n      jump\t// in\n    tag_63:\n      swap3\n      pop\n      pop\n      dup2\n      swap1\n      sstore\n      pop\n        /* \"contracts/eventorganisation.sol\":1946:2491  function transferticket(uint eventid, uint quantity, address to) external  {... */\n      pop\n      pop\n      pop\n      jump\t// out\n        /* \"contracts/eventorganisation.sol\":1196:1938  function buyticket(uint id, uint quantity) external payable {... */\n    tag_26:\n        /* \"contracts/eventorganisation.sol\":1299:1300  0 */\n      0x00\n        /* \"contracts/eventorganisation.sol\":1275:1288  eventbynumber */\n      dup1\n        /* \"contracts/eventorganisation.sol\":1275:1292  eventbynumber[id] */\n      0x00\n        /* \"contracts/eventorganisation.sol\":1289:1291  id */\n      dup5\n        /* \"contracts/eventorganisation.sol\":1275:1292  eventbynumber[id] */\n      dup2\n      mstore\n      0x20\n      add\n      swap1\n      dup2\n      mstore\n      0x20\n      add\n      0x00\n      keccak256\n        /* \"contracts/eventorganisation.sol\":1275:1297  eventbynumber[id].date */\n      0x02\n      add\n      sload\n        /* \"contracts/eventorganisation.sol\":1275:1300  eventbynumber[id].date!=0 */\n      sub\n        /* \"contracts/eventorganisation.sol\":1267:1322  require(eventbynumber[id].date!=0, \"event date is end\") */\n      tag_66\n      jumpi\n      mload(0x40)\n      0x08c379a000000000000000000000000000000000000000000000000000000000\n      dup2\n      mstore\n      0x04\n      add\n      tag_67\n      swap1\n      tag_54\n      jump\t// in\n    tag_67:\n      mload(0x40)\n      dup1\n      swap2\n      sub\n      swap1\n      revert\n    tag_66:\n        /* \"contracts/eventorganisation.sol\":1360:1373  eventbynumber */\n      0x00\n        /* \"contracts/eventorganisation.sol\":1360:1377  eventbynumber[id] */\n      dup1\n        /* \"contracts/eventorganisation.sol\":1374:1376  id */\n      dup4\n        /* \"contracts/eventorganisation.sol\":1360:1377  eventbynumber[id] */\n      dup2\n      mstore\n      0x20\n      add\n      swap1\n      dup2\n      mstore\n      0x20\n      add\n      0x00\n      keccak256\n        /* \"contracts/eventorganisation.sol\":1360:1382  eventbynumber[id].date */\n      0x02\n      add\n      sload\n        /* \"contracts/eventorganisation.sol\":1341:1356  block.timestamp */\n      timestamp\n        /* \"contracts/eventorganisation.sol\":1341:1382  block.timestamp <= eventbynumber[id].date */\n      gt\n      iszero\n        /* \"contracts/eventorganisation.sol\":1333:1409  require(block.timestamp <= eventbynumber[id].date , \"event not started yet\") */\n      tag_68\n      jumpi\n      mload(0x40)\n      0x08c379a000000000000000000000000000000000000000000000000000000000\n      dup2\n      mstore\n      0x04\n      add\n      tag_69\n      swap1\n      tag_57\n      jump\t// in\n    tag_69:\n      mload(0x40)\n      dup1\n      swap2\n      sub\n      swap1\n      revert\n    tag_68:\n        /* \"contracts/eventorganisation.sol\":1420:1444  eventlist storage _event */\n      0x00\n        /* \"contracts/eventorganisation.sol\":1447:1460  eventbynumber */\n      dup1\n        /* \"contracts/eventorganisation.sol\":1447:1464  eventbynumber[id] */\n      0x00\n        /* \"contracts/eventorganisation.sol\":1461:1463  id */\n      dup5\n        /* \"contracts/eventorganisation.sol\":1447:1464  eventbynumber[id] */\n      dup2\n      mstore\n      0x20\n      add\n      swap1\n      dup2\n      mstore\n      0x20\n      add\n      0x00\n      keccak256\n        /* \"contracts/eventorganisation.sol\":1420:1464  eventlist storage _event = eventbynumber[id] */\n      swap1\n      pop\n        /* \"contracts/eventorganisation.sol\":1508:1516  quantity */\n      dup2\n        /* \"contracts/eventorganisation.sol\":1495:1501  _event */\n      dup2\n        /* \"contracts/eventorganisation.sol\":1495:1507  _event.price */\n      0x03\n      add\n      sload\n        /* \"contracts/eventorganisation.sol\":1495:1516  _event.price*quantity */\n      tag_70\n      swap2\n      swap1\n      tag_71\n      jump\t// in\n    tag_70:\n        /* \"contracts/eventorganisation.sol\":1483:1492  msg.value */\n      callvalue\n        /* \"contracts/eventorganisation.sol\":1483:1517  msg.value==(_event.price*quantity) */\n      eq\n        /* \"contracts/eventorganisation.sol\":1475:1568  require(msg.value==(_event.price*quantity),\"your amount not matching with total expenditure\") */\n      tag_72\n      jumpi\n      mload(0x40)\n      0x08c379a000000000000000000000000000000000000000000000000000000000\n      dup2\n      mstore\n      0x04\n      add\n      tag_73\n      swap1\n      tag_74\n      jump\t// in\n    tag_73:\n      mload(0x40)\n      dup1\n      swap2\n      sub\n      swap1\n      revert\n    tag_72:\n        /* \"contracts/eventorganisation.sol\":1608:1616  quantity */\n      dup2\n        /* \"contracts/eventorganisation.sol\":1587:1593  _event */\n      dup2\n        /* \"contracts/eventorganisation.sol\":1587:1606  _event.ticketremain */\n      0x05\n      add\n      sload\n        /* \"contracts/eventorganisation.sol\":1587:1616  _event.ticketremain>=quantity */\n      lt\n      iszero\n        /* \"contracts/eventorganisation.sol\":1579:1640  require(_event.ticketremain>=quantity, \" not enough tickets\") */\n      tag_75\n      jumpi\n      mload(0x40)\n      0x08c379a000000000000000000000000000000000000000000000000000000000\n      dup2\n      mstore\n      0x04\n      add\n      tag_76\n      swap1\n      tag_77\n      jump\t// in\n    tag_76:\n      mload(0x40)\n      dup1\n      swap2\n      sub\n      swap1\n      revert\n    tag_75:\n        /* \"contracts/eventorganisation.sol\":1672:1680  quantity */\n      dup2\n        /* \"contracts/eventorganisation.sol\":1651:1657  _event */\n      dup2\n        /* \"contracts/eventorganisation.sol\":1651:1670  _event.ticketremain */\n      0x05\n      add\n      0x00\n        /* \"contracts/eventorganisation.sol\":1651:1680  _event.ticketremain-=quantity */\n      dup3\n      dup3\n      sload\n      tag_78\n      swap2\n      swap1\n      tag_62\n      jump\t// in\n    tag_78:\n      swap3\n      pop\n      pop\n      dup2\n      swap1\n      sstore\n      pop\n        /* \"contracts/eventorganisation.sol\":1918:1926  quantity */\n      dup2\n        /* \"contracts/eventorganisation.sol\":1893:1900  tickets */\n      0x01\n        /* \"contracts/eventorganisation.sol\":1893:1912  tickets[msg.sender] */\n      0x00\n        /* \"contracts/eventorganisation.sol\":1901:1911  msg.sender */\n      caller\n        /* \"contracts/eventorganisation.sol\":1893:1912  tickets[msg.sender] */\n      0xffffffffffffffffffffffffffffffffffffffff\n      and\n      0xffffffffffffffffffffffffffffffffffffffff\n      and\n      dup2\n      mstore\n      0x20\n      add\n      swap1\n      dup2\n      mstore\n      0x20\n      add\n      0x00\n      keccak256\n        /* \"contracts/eventorganisation.sol\":1893:1916  tickets[msg.sender][id] */\n      0x00\n        /* \"contracts/eventorganisation.sol\":1913:1915  id */\n      dup6\n        /* \"contracts/eventorganisation.sol\":1893:1916  tickets[msg.sender][id] */\n      dup2\n      mstore\n      0x20\n      add\n      swap1\n      dup2\n      mstore\n      0x20\n      add\n      0x00\n      keccak256\n      0x00\n        /* \"contracts/eventorganisation.sol\":1893:1926  tickets[msg.sender][id]+=quantity */\n      dup3\n      dup3\n      sload\n      tag_79\n      swap2\n      swap1\n      tag_64\n      jump\t// in\n    tag_79:\n      swap3\n      pop\n      pop\n      dup2\n      swap1\n      sstore\n      pop\n        /* \"contracts/eventorganisation.sol\":1256:1938  {... */\n      pop\n        /* \"contracts/eventorganisation.sol\":1196:1938  function buyticket(uint id, uint quantity) external payable {... */\n      pop\n      pop\n      jump\t// out\n        /* \"contracts/eventorganisation.sol\":480:534  mapping (address=>mapping (uint=>uint)) public tickets */\n    tag_31:\n      mstore(0x20, 0x01)\n      dup2\n      0x00\n      mstore\n      mstore(0x20, keccak256(0x00, 0x40))\n      dup1\n      0x00\n      mstore\n      keccak256(0x00, 0x40)\n      0x00\n      swap2\n      pop\n      swap2\n      pop\n      pop\n      sload\n      dup2\n      jump\t// out\n        /* \"contracts/eventorganisation.sol\":427:473  mapping (uint=>eventlist) public eventbynumber */\n    tag_37:\n      mstore(0x20, 0x00)\n      dup1\n      0x00\n      mstore\n      keccak256(0x00, 0x40)\n      0x00\n      swap2\n      pop\n      swap1\n      pop\n      dup1\n      0x00\n      add\n      dup1\n      sload\n      tag_80\n      swap1\n      tag_81\n      jump\t// in\n    tag_80:\n      dup1\n      0x1f\n      add\n      0x20\n      dup1\n      swap2\n      div\n      mul\n      0x20\n      add\n      mload(0x40)\n      swap1\n      dup2\n      add\n      0x40\n      mstore\n      dup1\n      swap3\n      swap2\n      swap1\n      dup2\n      dup2\n      mstore\n      0x20\n      add\n      dup3\n      dup1\n      sload\n      tag_82\n      swap1\n      tag_81\n      jump\t// in\n    tag_82:\n      dup1\n      iszero\n      tag_83\n      jumpi\n      dup1\n      0x1f\n      lt\n      tag_84\n      jumpi\n      0x0100\n      dup1\n      dup4\n      sload\n      div\n      mul\n      dup4\n      mstore\n      swap2\n      0x20\n      add\n      swap2\n      jump(tag_83)\n    tag_84:\n      dup3\n      add\n      swap2\n      swap1\n      0x00\n      mstore\n      keccak256(0x00, 0x20)\n      swap1\n    tag_85:\n      dup2\n      sload\n      dup2\n      mstore\n      swap1\n      0x01\n      add\n      swap1\n      0x20\n      add\n      dup1\n      dup4\n      gt\n      tag_85\n      jumpi\n      dup3\n      swap1\n      sub\n      0x1f\n      and\n      dup3\n      add\n      swap2\n    tag_83:\n      pop\n      pop\n      pop\n      pop\n      pop\n      swap1\n      dup1\n      0x01\n      add\n      0x00\n      swap1\n      sload\n      swap1\n      0x0100\n      exp\n      swap1\n      div\n      0xffffffffffffffffffffffffffffffffffffffff\n      and\n      swap1\n      dup1\n      0x02\n      add\n      sload\n      swap1\n      dup1\n      0x03\n      add\n      sload\n      swap1\n      dup1\n      0x04\n      add\n      sload\n      swap1\n      dup1\n      0x05\n      add\n      sload\n      swap1\n      pop\n      dup7\n      jump\t// out\n        /* \"#utility.yul\":7:82   */\n    tag_86:\n        /* \"#utility.yul\":40:46   */\n      0x00\n        /* \"#utility.yul\":73:75   */\n      0x40\n        /* \"#utility.yul\":67:76   */\n      mload\n        /* \"#utility.yul\":57:76   */\n      swap1\n      pop\n        /* \"#utility.yul\":7:82   */\n      swap1\n      jump\t// out\n        /* \"#utility.yul\":88:205   */\n    tag_87:\n        /* \"#utility.yul\":197:198   */\n      0x00\n        /* \"#utility.yul\":194:195   */\n      dup1\n        /* \"#utility.yul\":187:199   */\n      revert\n        /* \"#utility.yul\":211:328   */\n    tag_88:\n        /* \"#utility.yul\":320:321   */\n      0x00\n        /* \"#utility.yul\":317:318   */\n      dup1\n        /* \"#utility.yul\":310:322   */\n      revert\n        /* \"#utility.yul\":334:451   */\n    tag_89:\n        /* \"#utility.yul\":443:444   */\n      0x00\n        /* \"#utility.yul\":440:441   */\n      dup1\n        /* \"#utility.yul\":433:445   */\n      revert\n        /* \"#utility.yul\":457:574   */\n    tag_90:\n        /* \"#utility.yul\":566:567   */\n      0x00\n        /* \"#utility.yul\":563:564   */\n      dup1\n        /* \"#utility.yul\":556:568   */\n      revert\n        /* \"#utility.yul\":580:682   */\n    tag_91:\n        /* \"#utility.yul\":621:627   */\n      0x00\n        /* \"#utility.yul\":672:674   */\n      0x1f\n        /* \"#utility.yul\":668:675   */\n      not\n        /* \"#utility.yul\":663:665   */\n      0x1f\n        /* \"#utility.yul\":656:661   */\n      dup4\n        /* \"#utility.yul\":652:666   */\n      add\n        /* \"#utility.yul\":648:676   */\n      and\n        /* \"#utility.yul\":638:676   */\n      swap1\n      pop\n        /* \"#utility.yul\":580:682   */\n      swap2\n      swap1\n      pop\n      jump\t// out\n        /* \"#utility.yul\":688:868   */\n    tag_92:\n        /* \"#utility.yul\":736:813   */\n      0x4e487b7100000000000000000000000000000000000000000000000000000000\n        /* \"#utility.yul\":733:734   */\n      0x00\n        /* \"#utility.yul\":726:814   */\n      mstore\n        /* \"#utility.yul\":833:837   */\n      0x41\n        /* \"#utility.yul\":830:831   */\n      0x04\n        /* \"#utility.yul\":823:838   */\n      mstore\n        /* \"#utility.yul\":857:861   */\n      0x24\n        /* \"#utility.yul\":854:855   */\n      0x00\n        /* \"#utility.yul\":847:862   */\n      revert\n        /* \"#utility.yul\":874:1155   */\n    tag_93:\n        /* \"#utility.yul\":957:984   */\n      tag_152\n        /* \"#utility.yul\":979:983   */\n      dup3\n        /* \"#utility.yul\":957:984   */\n      tag_91\n      jump\t// in\n    tag_152:\n        /* \"#utility.yul\":949:955   */\n      dup2\n        /* \"#utility.yul\":945:985   */\n      add\n        /* \"#utility.yul\":1087:1093   */\n      dup2\n        /* \"#utility.yul\":1075:1085   */\n      dup2\n        /* \"#utility.yul\":1072:1094   */\n      lt\n        /* \"#utility.yul\":1051:1069   */\n      0xffffffffffffffff\n        /* \"#utility.yul\":1039:1049   */\n      dup3\n        /* \"#utility.yul\":1036:1070   */\n      gt\n        /* \"#utility.yul\":1033:1095   */\n      or\n        /* \"#utility.yul\":1030:1118   */\n      iszero\n      tag_153\n      jumpi\n        /* \"#utility.yul\":1098:1116   */\n      tag_154\n      tag_92\n      jump\t// in\n    tag_154:\n        /* \"#utility.yul\":1030:1118   */\n    tag_153:\n        /* \"#utility.yul\":1138:1148   */\n      dup1\n        /* \"#utility.yul\":1134:1136   */\n      0x40\n        /* \"#utility.yul\":1127:1149   */\n      mstore\n        /* \"#utility.yul\":917:1155   */\n      pop\n        /* \"#utility.yul\":874:1155   */\n      pop\n      pop\n      jump\t// out\n        /* \"#utility.yul\":1161:1290   */\n    tag_94:\n        /* \"#utility.yul\":1195:1201   */\n      0x00\n        /* \"#utility.yul\":1222:1242   */\n      tag_156\n      tag_86\n      jump\t// in\n    tag_156:\n        /* \"#utility.yul\":1212:1242   */\n      swap1\n      pop\n        /* \"#utility.yul\":1251:1284   */\n      tag_157\n        /* \"#utility.yul\":1279:1283   */\n      dup3\n        /* \"#utility.yul\":1271:1277   */\n      dup3\n        /* \"#utility.yul\":1251:1284   */\n      tag_93\n      jump\t// in\n    tag_157:\n        /* \"#utility.yul\":1161:1290   */\n      swap2\n      swap1\n      pop\n      jump\t// out\n        /* \"#utility.yul\":1296:1604   */\n    tag_95:\n        /* \"#utility.yul\":1358:1362   */\n      0x00\n        /* \"#utility.yul\":1448:1466   */\n      0xffffffffffffffff\n        /* \"#utility.yul\":1440:1446   */\n      dup3\n        /* \"#utility.yul\":1437:1467   */\n      gt\n        /* \"#utility.yul\":1434:1490   */\n      iszero\n      tag_159\n      jumpi\n        /* \"#utility.yul\":1470:1488   */\n      tag_160\n      tag_92\n      jump\t// in\n    tag_160:\n        /* \"#utility.yul\":1434:1490   */\n    tag_159:\n        /* \"#utility.yul\":1508:1537   */\n      tag_161\n        /* \"#utility.yul\":1530:1536   */\n      dup3\n        /* \"#utility.yul\":1508:1537   */\n      tag_91\n      jump\t// in\n    tag_161:\n        /* \"#utility.yul\":1500:1537   */\n      swap1\n      pop\n        /* \"#utility.yul\":1592:1596   */\n      0x20\n        /* \"#utility.yul\":1586:1590   */\n      dup2\n        /* \"#utility.yul\":1582:1597   */\n      add\n        /* \"#utility.yul\":1574:1597   */\n      swap1\n      pop\n        /* \"#utility.yul\":1296:1604   */\n      swap2\n      swap1\n      pop\n      jump\t// out\n        /* \"#utility.yul\":1610:1756   */\n    tag_96:\n        /* \"#utility.yul\":1707:1713   */\n      dup3\n        /* \"#utility.yul\":1702:1705   */\n      dup2\n        /* \"#utility.yul\":1697:1700   */\n      dup4\n        /* \"#utility.yul\":1684:1714   */\n      calldatacopy\n        /* \"#utility.yul\":1748:1749   */\n      0x00\n        /* \"#utility.yul\":1739:1745   */\n      dup4\n        /* \"#utility.yul\":1734:1737   */\n      dup4\n        /* \"#utility.yul\":1730:1746   */\n      add\n        /* \"#utility.yul\":1723:1750   */\n      mstore\n        /* \"#utility.yul\":1610:1756   */\n      pop\n      pop\n      pop\n      jump\t// out\n        /* \"#utility.yul\":1762:2187   */\n    tag_97:\n        /* \"#utility.yul\":1840:1845   */\n      0x00\n        /* \"#utility.yul\":1865:1931   */\n      tag_164\n        /* \"#utility.yul\":1881:1930   */\n      tag_165\n        /* \"#utility.yul\":1923:1929   */\n      dup5\n        /* \"#utility.yul\":1881:1930   */\n      tag_95\n      jump\t// in\n    tag_165:\n        /* \"#utility.yul\":1865:1931   */\n      tag_94\n      jump\t// in\n    tag_164:\n        /* \"#utility.yul\":1856:1931   */\n      swap1\n      pop\n        /* \"#utility.yul\":1954:1960   */\n      dup3\n        /* \"#utility.yul\":1947:1952   */\n      dup2\n        /* \"#utility.yul\":1940:1961   */\n      mstore\n        /* \"#utility.yul\":1992:1996   */\n      0x20\n        /* \"#utility.yul\":1985:1990   */\n      dup2\n        /* \"#utility.yul\":1981:1997   */\n      add\n        /* \"#utility.yul\":2030:2033   */\n      dup5\n        /* \"#utility.yul\":2021:2027   */\n      dup5\n        /* \"#utility.yul\":2016:2019   */\n      dup5\n        /* \"#utility.yul\":2012:2028   */\n      add\n        /* \"#utility.yul\":2009:2034   */\n      gt\n        /* \"#utility.yul\":2006:2118   */\n      iszero\n      tag_166\n      jumpi\n        /* \"#utility.yul\":2037:2116   */\n      tag_167\n      tag_90\n      jump\t// in\n    tag_167:\n        /* \"#utility.yul\":2006:2118   */\n    tag_166:\n        /* \"#utility.yul\":2127:2181   */\n      tag_168\n        /* \"#utility.yul\":2174:2180   */\n      dup5\n        /* \"#utility.yul\":2169:2172   */\n      dup3\n        /* \"#utility.yul\":2164:2167   */\n      dup6\n        /* \"#utility.yul\":2127:2181   */\n      tag_96\n      jump\t// in\n    tag_168:\n        /* \"#utility.yul\":1846:2187   */\n      pop\n        /* \"#utility.yul\":1762:2187   */\n      swap4\n      swap3\n      pop\n      pop\n      pop\n      jump\t// out\n        /* \"#utility.yul\":2207:2547   */\n    tag_98:\n        /* \"#utility.yul\":2263:2268   */\n      0x00\n        /* \"#utility.yul\":2312:2315   */\n      dup3\n        /* \"#utility.yul\":2305:2309   */\n      0x1f\n        /* \"#utility.yul\":2297:2303   */\n      dup4\n        /* \"#utility.yul\":2293:2310   */\n      add\n        /* \"#utility.yul\":2289:2316   */\n      slt\n        /* \"#utility.yul\":2279:2401   */\n      tag_170\n      jumpi\n        /* \"#utility.yul\":2320:2399   */\n      tag_171\n      tag_89\n      jump\t// in\n    tag_171:\n        /* \"#utility.yul\":2279:2401   */\n    tag_170:\n        /* \"#utility.yul\":2437:2443   */\n      dup2\n        /* \"#utility.yul\":2424:2444   */\n      calldataload\n        /* \"#utility.yul\":2462:2541   */\n      tag_172\n        /* \"#utility.yul\":2537:2540   */\n      dup5\n        /* \"#utility.yul\":2529:2535   */\n      dup3\n        /* \"#utility.yul\":2522:2526   */\n      0x20\n        /* \"#utility.yul\":2514:2520   */\n      dup7\n        /* \"#utility.yul\":2510:2527   */\n      add\n        /* \"#utility.yul\":2462:2541   */\n      tag_97\n      jump\t// in\n    tag_172:\n        /* \"#utility.yul\":2453:2541   */\n      swap2\n      pop\n        /* \"#utility.yul\":2269:2547   */\n      pop\n        /* \"#utility.yul\":2207:2547   */\n      swap3\n      swap2\n      pop\n      pop\n      jump\t// out\n        /* \"#utility.yul\":2553:2630   */\n    tag_99:\n        /* \"#utility.yul\":2590:2597   */\n      0x00\n        /* \"#utility.yul\":2619:2624   */\n      dup2\n        /* \"#utility.yul\":2608:2624   */\n      swap1\n      pop\n        /* \"#utility.yul\":2553:2630   */\n      swap2\n      swap1\n      pop\n      jump\t// out\n        /* \"#utility.yul\":2636:2758   */\n    tag_100:\n        /* \"#utility.yul\":2709:2733   */\n      tag_175\n        /* \"#utility.yul\":2727:2732   */\n      dup2\n        /* \"#utility.yul\":2709:2733   */\n      tag_99\n      jump\t// in\n    tag_175:\n        /* \"#utility.yul\":2702:2707   */\n      dup2\n        /* \"#utility.yul\":2699:2734   */\n      eq\n        /* \"#utility.yul\":2689:2752   */\n      tag_176\n      jumpi\n        /* \"#utility.yul\":2748:2749   */\n      0x00\n        /* \"#utility.yul\":2745:2746   */\n      dup1\n        /* \"#utility.yul\":2738:2750   */\n      revert\n        /* \"#utility.yul\":2689:2752   */\n    tag_176:\n        /* \"#utility.yul\":2636:2758   */\n      pop\n      jump\t// out\n        /* \"#utility.yul\":2764:2903   */\n    tag_101:\n        /* \"#utility.yul\":2810:2815   */\n      0x00\n        /* \"#utility.yul\":2848:2854   */\n      dup2\n        /* \"#utility.yul\":2835:2855   */\n      calldataload\n        /* \"#utility.yul\":2826:2855   */\n      swap1\n      pop\n        /* \"#utility.yul\":2864:2897   */\n      tag_178\n        /* \"#utility.yul\":2891:2896   */\n      dup2\n        /* \"#utility.yul\":2864:2897   */\n      tag_100\n      jump\t// in\n    tag_178:\n        /* \"#utility.yul\":2764:2903   */\n      swap3\n      swap2\n      pop\n      pop\n      jump\t// out\n        /* \"#utility.yul\":2909:3854   */\n    tag_11:\n        /* \"#utility.yul\":3005:3011   */\n      0x00\n        /* \"#utility.yul\":3013:3019   */\n      dup1\n        /* \"#utility.yul\":3021:3027   */\n      0x00\n        /* \"#utility.yul\":3029:3035   */\n      dup1\n        /* \"#utility.yul\":3078:3081   */\n      0x80\n        /* \"#utility.yul\":3066:3075   */\n      dup6\n        /* \"#utility.yul\":3057:3064   */\n      dup8\n        /* \"#utility.yul\":3053:3076   */\n      sub\n        /* \"#utility.yul\":3049:3082   */\n      slt\n        /* \"#utility.yul\":3046:3166   */\n      iszero\n      tag_180\n      jumpi\n        /* \"#utility.yul\":3085:3164   */\n      tag_181\n      tag_87\n      jump\t// in\n    tag_181:\n        /* \"#utility.yul\":3046:3166   */\n    tag_180:\n        /* \"#utility.yul\":3233:3234   */\n      0x00\n        /* \"#utility.yul\":3222:3231   */\n      dup6\n        /* \"#utility.yul\":3218:3235   */\n      add\n        /* \"#utility.yul\":3205:3236   */\n      calldataload\n        /* \"#utility.yul\":3263:3281   */\n      0xffffffffffffffff\n        /* \"#utility.yul\":3255:3261   */\n      dup2\n        /* \"#utility.yul\":3252:3282   */\n      gt\n        /* \"#utility.yul\":3249:3366   */\n      iszero\n      tag_182\n      jumpi\n        /* \"#utility.yul\":3285:3364   */\n      tag_183\n      tag_88\n      jump\t// in\n    tag_183:\n        /* \"#utility.yul\":3249:3366   */\n    tag_182:\n        /* \"#utility.yul\":3390:3453   */\n      tag_184\n        /* \"#utility.yul\":3445:3452   */\n      dup8\n        /* \"#utility.yul\":3436:3442   */\n      dup3\n        /* \"#utility.yul\":3425:3434   */\n      dup9\n        /* \"#utility.yul\":3421:3443   */\n      add\n        /* \"#utility.yul\":3390:3453   */\n      tag_98\n      jump\t// in\n    tag_184:\n        /* \"#utility.yul\":3380:3453   */\n      swap5\n      pop\n        /* \"#utility.yul\":3176:3463   */\n      pop\n        /* \"#utility.yul\":3502:3504   */\n      0x20\n        /* \"#utility.yul\":3528:3581   */\n      tag_185\n        /* \"#utility.yul\":3573:3580   */\n      dup8\n        /* \"#utility.yul\":3564:3570   */\n      dup3\n        /* \"#utility.yul\":3553:3562   */\n      dup9\n        /* \"#utility.yul\":3549:3571   */\n      add\n        /* \"#utility.yul\":3528:3581   */\n      tag_101\n      jump\t// in\n    tag_185:\n        /* \"#utility.yul\":3518:3581   */\n      swap4\n      pop\n        /* \"#utility.yul\":3473:3591   */\n      pop\n        /* \"#utility.yul\":3630:3632   */\n      0x40\n        /* \"#utility.yul\":3656:3709   */\n      tag_186\n        /* \"#utility.yul\":3701:3708   */\n      dup8\n        /* \"#utility.yul\":3692:3698   */\n      dup3\n        /* \"#utility.yul\":3681:3690   */\n      dup9\n        /* \"#utility.yul\":3677:3699   */\n      add\n        /* \"#utility.yul\":3656:3709   */\n      tag_101\n      jump\t// in\n    tag_186:\n        /* \"#utility.yul\":3646:3709   */\n      swap3\n      pop\n        /* \"#utility.yul\":3601:3719   */\n      pop\n        /* \"#utility.yul\":3758:3760   */\n      0x60\n        /* \"#utility.yul\":3784:3837   */\n      tag_187\n        /* \"#utility.yul\":3829:3836   */\n      dup8\n        /* \"#utility.yul\":3820:3826   */\n      dup3\n        /* \"#utility.yul\":3809:3818   */\n      dup9\n        /* \"#utility.yul\":3805:3827   */\n      add\n        /* \"#utility.yul\":3784:3837   */\n      tag_101\n      jump\t// in\n    tag_187:\n        /* \"#utility.yul\":3774:3837   */\n      swap2\n      pop\n        /* \"#utility.yul\":3729:3847   */\n      pop\n        /* \"#utility.yul\":2909:3854   */\n      swap3\n      swap6\n      swap2\n      swap5\n      pop\n      swap3\n      pop\n      jump\t// out\n        /* \"#utility.yul\":3860:3978   */\n    tag_102:\n        /* \"#utility.yul\":3947:3971   */\n      tag_189\n        /* \"#utility.yul\":3965:3970   */\n      dup2\n        /* \"#utility.yul\":3947:3971   */\n      tag_99\n      jump\t// in\n    tag_189:\n        /* \"#utility.yul\":3942:3945   */\n      dup3\n        /* \"#utility.yul\":3935:3972   */\n      mstore\n        /* \"#utility.yul\":3860:3978   */\n      pop\n      pop\n      jump\t// out\n        /* \"#utility.yul\":3984:4206   */\n    tag_17:\n        /* \"#utility.yul\":4077:4081   */\n      0x00\n        /* \"#utility.yul\":4115:4117   */\n      0x20\n        /* \"#utility.yul\":4104:4113   */\n      dup3\n        /* \"#utility.yul\":4100:4118   */\n      add\n        /* \"#utility.yul\":4092:4118   */\n      swap1\n      pop\n        /* \"#utility.yul\":4128:4199   */\n      tag_191\n        /* \"#utility.yul\":4196:4197   */\n      0x00\n        /* \"#utility.yul\":4185:4194   */\n      dup4\n        /* \"#utility.yul\":4181:4198   */\n      add\n        /* \"#utility.yul\":4172:4178   */\n      dup5\n        /* \"#utility.yul\":4128:4199   */\n      tag_102\n      jump\t// in\n    tag_191:\n        /* \"#utility.yul\":3984:4206   */\n      swap3\n      swap2\n      pop\n      pop\n      jump\t// out\n        /* \"#utility.yul\":4212:4338   */\n    tag_103:\n        /* \"#utility.yul\":4249:4256   */\n      0x00\n        /* \"#utility.yul\":4289:4331   */\n      0xffffffffffffffffffffffffffffffffffffffff\n        /* \"#utility.yul\":4282:4287   */\n      dup3\n        /* \"#utility.yul\":4278:4332   */\n      and\n        /* \"#utility.yul\":4267:4332   */\n      swap1\n      pop\n        /* \"#utility.yul\":4212:4338   */\n      swap2\n      swap1\n      pop\n      jump\t// out\n        /* \"#utility.yul\":4344:4440   */\n    tag_104:\n        /* \"#utility.yul\":4381:4388   */\n      0x00\n        /* \"#utility.yul\":4410:4434   */\n      tag_194\n        /* \"#utility.yul\":4428:4433   */\n      dup3\n        /* \"#utility.yul\":4410:4434   */\n      tag_103\n      jump\t// in\n    tag_194:\n        /* \"#utility.yul\":4399:4434   */\n      swap1\n      pop\n        /* \"#utility.yul\":4344:4440   */\n      swap2\n      swap1\n      pop\n      jump\t// out\n        /* \"#utility.yul\":4446:4568   */\n    tag_105:\n        /* \"#utility.yul\":4519:4543   */\n      tag_196\n        /* \"#utility.yul\":4537:4542   */\n      dup2\n        /* \"#utility.yul\":4519:4543   */\n      tag_104\n      jump\t// in\n    tag_196:\n        /* \"#utility.yul\":4512:4517   */\n      dup2\n        /* \"#utility.yul\":4509:4544   */\n      eq\n        /* \"#utility.yul\":4499:4562   */\n      tag_197\n      jumpi\n        /* \"#utility.yul\":4558:4559   */\n      0x00\n        /* \"#utility.yul\":4555:4556   */\n      dup1\n        /* \"#utility.yul\":4548:4560   */\n      revert\n        /* \"#utility.yul\":4499:4562   */\n    tag_197:\n        /* \"#utility.yul\":4446:4568   */\n      pop\n      jump\t// out\n        /* \"#utility.yul\":4574:4713   */\n    tag_106:\n        /* \"#utility.yul\":4620:4625   */\n      0x00\n        /* \"#utility.yul\":4658:4664   */\n      dup2\n        /* \"#utility.yul\":4645:4665   */\n      calldataload\n        /* \"#utility.yul\":4636:4665   */\n      swap1\n      pop\n        /* \"#utility.yul\":4674:4707   */\n      tag_199\n        /* \"#utility.yul\":4701:4706   */\n      dup2\n        /* \"#utility.yul\":4674:4707   */\n      tag_105\n      jump\t// in\n    tag_199:\n        /* \"#utility.yul\":4574:4713   */\n      swap3\n      swap2\n      pop\n      pop\n      jump\t// out\n        /* \"#utility.yul\":4719:5338   */\n    tag_21:\n        /* \"#utility.yul\":4796:4802   */\n      0x00\n        /* \"#utility.yul\":4804:4810   */\n      dup1\n        /* \"#utility.yul\":4812:4818   */\n      0x00\n        /* \"#utility.yul\":4861:4863   */\n      0x60\n        /* \"#utility.yul\":4849:4858   */\n      dup5\n        /* \"#utility.yul\":4840:4847   */\n      dup7\n        /* \"#utility.yul\":4836:4859   */\n      sub\n        /* \"#utility.yul\":4832:4864   */\n      slt\n        /* \"#utility.yul\":4829:4948   */\n      iszero\n      tag_201\n      jumpi\n        /* \"#utility.yul\":4867:4946   */\n      tag_202\n      tag_87\n      jump\t// in\n    tag_202:\n        /* \"#utility.yul\":4829:4948   */\n    tag_201:\n        /* \"#utility.yul\":4987:4988   */\n      0x00\n        /* \"#utility.yul\":5012:5065   */\n      tag_203\n        /* \"#utility.yul\":5057:5064   */\n      dup7\n        /* \"#utility.yul\":5048:5054   */\n      dup3\n        /* \"#utility.yul\":5037:5046   */\n      dup8\n        /* \"#utility.yul\":5033:5055   */\n      add\n        /* \"#utility.yul\":5012:5065   */\n      tag_101\n      jump\t// in\n    tag_203:\n        /* \"#utility.yul\":5002:5065   */\n      swap4\n      pop\n        /* \"#utility.yul\":4958:5075   */\n      pop\n        /* \"#utility.yul\":5114:5116   */\n      0x20\n        /* \"#utility.yul\":5140:5193   */\n      tag_204\n        /* \"#utility.yul\":5185:5192   */\n      dup7\n        /* \"#utility.yul\":5176:5182   */\n      dup3\n        /* \"#utility.yul\":5165:5174   */\n      dup8\n        /* \"#utility.yul\":5161:5183   */\n      add\n        /* \"#utility.yul\":5140:5193   */\n      tag_101\n      jump\t// in\n    tag_204:\n        /* \"#utility.yul\":5130:5193   */\n      swap3\n      pop\n        /* \"#utility.yul\":5085:5203   */\n      pop\n        /* \"#utility.yul\":5242:5244   */\n      0x40\n        /* \"#utility.yul\":5268:5321   */\n      tag_205\n        /* \"#utility.yul\":5313:5320   */\n      dup7\n        /* \"#utility.yul\":5304:5310   */\n      dup3\n        /* \"#utility.yul\":5293:5302   */\n      dup8\n        /* \"#utility.yul\":5289:5311   */\n      add\n        /* \"#utility.yul\":5268:5321   */\n      tag_106\n      jump\t// in\n    tag_205:\n        /* \"#utility.yul\":5258:5321   */\n      swap2\n      pop\n        /* \"#utility.yul\":5213:5331   */\n      pop\n        /* \"#utility.yul\":4719:5338   */\n      swap3\n      pop\n      swap3\n      pop\n      swap3\n      jump\t// out\n        /* \"#utility.yul\":5344:5818   */\n    tag_25:\n        /* \"#utility.yul\":5412:5418   */\n      0x00\n        /* \"#utility.yul\":5420:5426   */\n      dup1\n        /* \"#utility.yul\":5469:5471   */\n      0x40\n        /* \"#utility.yul\":5457:5466   */\n      dup4\n        /* \"#utility.yul\":5448:5455   */\n      dup6\n        /* \"#utility.yul\":5444:5467   */\n      sub\n        /* \"#utility.yul\":5440:5472   */\n      slt\n        /* \"#utility.yul\":5437:5556   */\n      iszero\n      tag_207\n      jumpi\n        /* \"#utility.yul\":5475:5554   */\n      tag_208\n      tag_87\n      jump\t// in\n    tag_208:\n        /* \"#utility.yul\":5437:5556   */\n    tag_207:\n        /* \"#utility.yul\":5595:5596   */\n      0x00\n        /* \"#utility.yul\":5620:5673   */\n      tag_209\n        /* \"#utility.yul\":5665:5672   */\n      dup6\n        /* \"#utility.yul\":5656:5662   */\n      dup3\n        /* \"#utility.yul\":5645:5654   */\n      dup7\n        /* \"#utility.yul\":5641:5663   */\n      add\n        /* \"#utility.yul\":5620:5673   */\n      tag_101\n      jump\t// in\n    tag_209:\n        /* \"#utility.yul\":5610:5673   */\n      swap3\n      pop\n        /* \"#utility.yul\":5566:5683   */\n      pop\n        /* \"#utility.yul\":5722:5724   */\n      0x20\n        /* \"#utility.yul\":5748:5801   */\n      tag_210\n        /* \"#utility.yul\":5793:5800   */\n      dup6\n        /* \"#utility.yul\":5784:5790   */\n      dup3\n        /* \"#utility.yul\":5773:5782   */\n      dup7\n        /* \"#utility.yul\":5769:5791   */\n      add\n        /* \"#utility.yul\":5748:5801   */\n      tag_101\n      jump\t// in\n    tag_210:\n        /* \"#utility.yul\":5738:5801   */\n      swap2\n      pop\n        /* \"#utility.yul\":5693:5811   */\n      pop\n        /* \"#utility.yul\":5344:5818   */\n      swap3\n      pop\n      swap3\n      swap1\n      pop\n      jump\t// out\n        /* \"#utility.yul\":5824:6298   */\n    tag_30:\n        /* \"#utility.yul\":5892:5898   */\n      0x00\n        /* \"#utility.yul\":5900:5906   */\n      dup1\n        /* \"#utility.yul\":5949:5951   */\n      0x40\n        /* \"#utility.yul\":5937:5946   */\n      dup4\n        /* \"#utility.yul\":5928:5935   */\n      dup6\n        /* \"#utility.yul\":5924:5947   */\n      sub\n        /* \"#utility.yul\":5920:5952   */\n      slt\n        /* \"#utility.yul\":5917:6036   */\n      iszero\n      tag_212\n      jumpi\n        /* \"#utility.yul\":5955:6034   */\n      tag_213\n      tag_87\n      jump\t// in\n    tag_213:\n        /* \"#utility.yul\":5917:6036   */\n    tag_212:\n        /* \"#utility.yul\":6075:6076   */\n      0x00\n        /* \"#utility.yul\":6100:6153   */\n      tag_214\n        /* \"#utility.yul\":6145:6152   */\n      dup6\n        /* \"#utility.yul\":6136:6142   */\n      dup3\n        /* \"#utility.yul\":6125:6134   */\n      dup7\n        /* \"#utility.yul\":6121:6143   */\n      add\n        /* \"#utility.yul\":6100:6153   */\n      tag_106\n      jump\t// in\n    tag_214:\n        /* \"#utility.yul\":6090:6153   */\n      swap3\n      pop\n        /* \"#utility.yul\":6046:6163   */\n      pop\n        /* \"#utility.yul\":6202:6204   */\n      0x20\n        /* \"#utility.yul\":6228:6281   */\n      tag_215\n        /* \"#utility.yul\":6273:6280   */\n      dup6\n        /* \"#utility.yul\":6264:6270   */\n      dup3\n        /* \"#utility.yul\":6253:6262   */\n      dup7\n        /* \"#utility.yul\":6249:6271   */\n      add\n        /* \"#utility.yul\":6228:6281   */\n      tag_101\n      jump\t// in\n    tag_215:\n        /* \"#utility.yul\":6218:6281   */\n      swap2\n      pop\n        /* \"#utility.yul\":6173:6291   */\n      pop\n        /* \"#utility.yul\":5824:6298   */\n      swap3\n      pop\n      swap3\n      swap1\n      pop\n      jump\t// out\n        /* \"#utility.yul\":6304:6633   */\n    tag_36:\n        /* \"#utility.yul\":6363:6369   */\n      0x00\n        /* \"#utility.yul\":6412:6414   */\n      0x20\n        /* \"#utility.yul\":6400:6409   */\n      dup3\n        /* \"#utility.yul\":6391:6398   */\n      dup5\n        /* \"#utility.yul\":6387:6410   */\n      sub\n        /* \"#utility.yul\":6383:6415   */\n      slt\n        /* \"#utility.yul\":6380:6499   */\n      iszero\n      tag_217\n      jumpi\n        /* \"#utility.yul\":6418:6497   */\n      tag_218\n      tag_87\n      jump\t// in\n    tag_218:\n        /* \"#utility.yul\":6380:6499   */\n    tag_217:\n        /* \"#utility.yul\":6538:6539   */\n      0x00\n        /* \"#utility.yul\":6563:6616   */\n      tag_219\n        /* \"#utility.yul\":6608:6615   */\n      dup5\n        /* \"#utility.yul\":6599:6605   */\n      dup3\n        /* \"#utility.yul\":6588:6597   */\n      dup6\n        /* \"#utility.yul\":6584:6606   */\n      add\n        /* \"#utility.yul\":6563:6616   */\n      tag_101\n      jump\t// in\n    tag_219:\n        /* \"#utility.yul\":6553:6616   */\n      swap2\n      pop\n        /* \"#utility.yul\":6509:6626   */\n      pop\n        /* \"#utility.yul\":6304:6633   */\n      swap3\n      swap2\n      pop\n      pop\n      jump\t// out\n        /* \"#utility.yul\":6639:6738   */\n    tag_107:\n        /* \"#utility.yul\":6691:6697   */\n      0x00\n        /* \"#utility.yul\":6725:6730   */\n      dup2\n        /* \"#utility.yul\":6719:6731   */\n      mload\n        /* \"#utility.yul\":6709:6731   */\n      swap1\n      pop\n        /* \"#utility.yul\":6639:6738   */\n      swap2\n      swap1\n      pop\n      jump\t// out\n        /* \"#utility.yul\":6744:6913   */\n    tag_108:\n        /* \"#utility.yul\":6828:6839   */\n      0x00\n        /* \"#utility.yul\":6862:6868   */\n      dup3\n        /* \"#utility.yul\":6857:6860   */\n      dup3\n        /* \"#utility.yul\":6850:6869   */\n      mstore\n        /* \"#utility.yul\":6902:6906   */\n      0x20\n        /* \"#utility.yul\":6897:6900   */\n      dup3\n        /* \"#utility.yul\":6893:6907   */\n      add\n        /* \"#utility.yul\":6878:6907   */\n      swap1\n      pop\n        /* \"#utility.yul\":6744:6913   */\n      swap3\n      swap2\n      pop\n      pop\n      jump\t// out\n        /* \"#utility.yul\":6919:7165   */\n    tag_109:\n        /* \"#utility.yul\":7000:7001   */\n      0x00\n        /* \"#utility.yul\":7010:7123   */\n    tag_223:\n        /* \"#utility.yul\":7024:7030   */\n      dup4\n        /* \"#utility.yul\":7021:7022   */\n      dup2\n        /* \"#utility.yul\":7018:7031   */\n      lt\n        /* \"#utility.yul\":7010:7123   */\n      iszero\n      tag_225\n      jumpi\n        /* \"#utility.yul\":7109:7110   */\n      dup1\n        /* \"#utility.yul\":7104:7107   */\n      dup3\n        /* \"#utility.yul\":7100:7111   */\n      add\n        /* \"#utility.yul\":7094:7112   */\n      mload\n        /* \"#utility.yul\":7090:7091   */\n      dup2\n        /* \"#utility.yul\":7085:7088   */\n      dup5\n        /* \"#utility.yul\":7081:7092   */\n      add\n        /* \"#utility.yul\":7074:7113   */\n      mstore\n        /* \"#utility.yul\":7046:7048   */\n      0x20\n        /* \"#utility.yul\":7043:7044   */\n      dup2\n        /* \"#utility.yul\":7039:7049   */\n      add\n        /* \"#utility.yul\":7034:7049   */\n      swap1\n      pop\n        /* \"#utility.yul\":7010:7123   */\n      jump(tag_223)\n    tag_225:\n        /* \"#utility.yul\":7157:7158   */\n      0x00\n        /* \"#utility.yul\":7148:7154   */\n      dup5\n        /* \"#utility.yul\":7143:7146   */\n      dup5\n        /* \"#utility.yul\":7139:7155   */\n      add\n        /* \"#utility.yul\":7132:7159   */\n      mstore\n        /* \"#utility.yul\":6981:7165   */\n      pop\n        /* \"#utility.yul\":6919:7165   */\n      pop\n      pop\n      pop\n      jump\t// out\n        /* \"#utility.yul\":7171:7548   */\n    tag_110:\n        /* \"#utility.yul\":7259:7262   */\n      0x00\n        /* \"#utility.yul\":7287:7326   */\n      tag_227\n        /* \"#utility.yul\":7320:7325   */\n      dup3\n        /* \"#utility.yul\":7287:7326   */\n      tag_107\n      jump\t// in\n    tag_227:\n        /* \"#utility.yul\":7342:7413   */\n      tag_228\n        /* \"#utility.yul\":7406:7412   */\n      dup2\n        /* \"#utility.yul\":7401:7404   */\n      dup6\n        /* \"#utility.yul\":7342:7413   */\n      tag_108\n      jump\t// in\n    tag_228:\n        /* \"#utility.yul\":7335:7413   */\n      swap4\n      pop\n        /* \"#utility.yul\":7422:7487   */\n      tag_229\n        /* \"#utility.yul\":7480:7486   */\n      dup2\n        /* \"#utility.yul\":7475:7478   */\n      dup6\n        /* \"#utility.yul\":7468:7472   */\n      0x20\n        /* \"#utility.yul\":7461:7466   */\n      dup7\n        /* \"#utility.yul\":7457:7473   */\n      add\n        /* \"#utility.yul\":7422:7487   */\n      tag_109\n      jump\t// in\n    tag_229:\n        /* \"#utility.yul\":7512:7541   */\n      tag_230\n        /* \"#utility.yul\":7534:7540   */\n      dup2\n        /* \"#utility.yul\":7512:7541   */\n      tag_91\n      jump\t// in\n    tag_230:\n        /* \"#utility.yul\":7507:7510   */\n      dup5\n        /* \"#utility.yul\":7503:7542   */\n      add\n        /* \"#utility.yul\":7496:7542   */\n      swap2\n      pop\n        /* \"#utility.yul\":7263:7548   */\n      pop\n        /* \"#utility.yul\":7171:7548   */\n      swap3\n      swap2\n      pop\n      pop\n      jump\t// out\n        /* \"#utility.yul\":7554:7672   */\n    tag_111:\n        /* \"#utility.yul\":7641:7665   */\n      tag_232\n        /* \"#utility.yul\":7659:7664   */\n      dup2\n        /* \"#utility.yul\":7641:7665   */\n      tag_104\n      jump\t// in\n    tag_232:\n        /* \"#utility.yul\":7636:7639   */\n      dup3\n        /* \"#utility.yul\":7629:7666   */\n      mstore\n        /* \"#utility.yul\":7554:7672   */\n      pop\n      pop\n      jump\t// out\n        /* \"#utility.yul\":7678:8544   */\n    tag_39:\n        /* \"#utility.yul\":7931:7935   */\n      0x00\n        /* \"#utility.yul\":7969:7972   */\n      0xc0\n        /* \"#utility.yul\":7958:7967   */\n      dup3\n        /* \"#utility.yul\":7954:7973   */\n      add\n        /* \"#utility.yul\":7946:7973   */\n      swap1\n      pop\n        /* \"#utility.yul\":8019:8028   */\n      dup2\n        /* \"#utility.yul\":8013:8017   */\n      dup2\n        /* \"#utility.yul\":8009:8029   */\n      sub\n        /* \"#utility.yul\":8005:8006   */\n      0x00\n        /* \"#utility.yul\":7994:8003   */\n      dup4\n        /* \"#utility.yul\":7990:8007   */\n      add\n        /* \"#utility.yul\":7983:8030   */\n      mstore\n        /* \"#utility.yul\":8047:8125   */\n      tag_234\n        /* \"#utility.yul\":8120:8124   */\n      dup2\n        /* \"#utility.yul\":8111:8117   */\n      dup10\n        /* \"#utility.yul\":8047:8125   */\n      tag_110\n      jump\t// in\n    tag_234:\n        /* \"#utility.yul\":8039:8125   */\n      swap1\n      pop\n        /* \"#utility.yul\":8135:8207   */\n      tag_235\n        /* \"#utility.yul\":8203:8205   */\n      0x20\n        /* \"#utility.yul\":8192:8201   */\n      dup4\n        /* \"#utility.yul\":8188:8206   */\n      add\n        /* \"#utility.yul\":8179:8185   */\n      dup9\n        /* \"#utility.yul\":8135:8207   */\n      tag_111\n      jump\t// in\n    tag_235:\n        /* \"#utility.yul\":8217:8289   */\n      tag_236\n        /* \"#utility.yul\":8285:8287   */\n      0x40\n        /* \"#utility.yul\":8274:8283   */\n      dup4\n        /* \"#utility.yul\":8270:8288   */\n      add\n        /* \"#utility.yul\":8261:8267   */\n      dup8\n        /* \"#utility.yul\":8217:8289   */\n      tag_102\n      jump\t// in\n    tag_236:\n        /* \"#utility.yul\":8299:8371   */\n      tag_237\n        /* \"#utility.yul\":8367:8369   */\n      0x60\n        /* \"#utility.yul\":8356:8365   */\n      dup4\n        /* \"#utility.yul\":8352:8370   */\n      add\n        /* \"#utility.yul\":8343:8349   */\n      dup7\n        /* \"#utility.yul\":8299:8371   */\n      tag_102\n      jump\t// in\n    tag_237:\n        /* \"#utility.yul\":8381:8454   */\n      tag_238\n        /* \"#utility.yul\":8449:8452   */\n      0x80\n        /* \"#utility.yul\":8438:8447   */\n      dup4\n        /* \"#utility.yul\":8434:8453   */\n      add\n        /* \"#utility.yul\":8425:8431   */\n      dup6\n        /* \"#utility.yul\":8381:8454   */\n      tag_102\n      jump\t// in\n    tag_238:\n        /* \"#utility.yul\":8464:8537   */\n      tag_239\n        /* \"#utility.yul\":8532:8535   */\n      0xa0\n        /* \"#utility.yul\":8521:8530   */\n      dup4\n        /* \"#utility.yul\":8517:8536   */\n      add\n        /* \"#utility.yul\":8508:8514   */\n      dup5\n        /* \"#utility.yul\":8464:8537   */\n      tag_102\n      jump\t// in\n    tag_239:\n        /* \"#utility.yul\":7678:8544   */\n      swap8\n      swap7\n      pop\n      pop\n      pop\n      pop\n      pop\n      pop\n      pop\n      jump\t// out\n        /* \"#utility.yul\":8550:8719   */\n    tag_112:\n        /* \"#utility.yul\":8690:8711   */\n      0x64617461206973206e6f7420636f727265637400000000000000000000000000\n        /* \"#utility.yul\":8686:8687   */\n      0x00\n        /* \"#utility.yul\":8678:8684   */\n      dup3\n        /* \"#utility.yul\":8674:8688   */\n      add\n        /* \"#utility.yul\":8667:8712   */\n      mstore\n        /* \"#utility.yul\":8550:8719   */\n      pop\n      jump\t// out\n        /* \"#utility.yul\":8725:9091   */\n    tag_113:\n        /* \"#utility.yul\":8867:8870   */\n      0x00\n        /* \"#utility.yul\":8888:8955   */\n      tag_242\n        /* \"#utility.yul\":8952:8954   */\n      0x13\n        /* \"#utility.yul\":8947:8950   */\n      dup4\n        /* \"#utility.yul\":8888:8955   */\n      tag_108\n      jump\t// in\n    tag_242:\n        /* \"#utility.yul\":8881:8955   */\n      swap2\n      pop\n        /* \"#utility.yul\":8964:9057   */\n      tag_243\n        /* \"#utility.yul\":9053:9056   */\n      dup3\n        /* \"#utility.yul\":8964:9057   */\n      tag_112\n      jump\t// in\n    tag_243:\n        /* \"#utility.yul\":9082:9084   */\n      0x20\n        /* \"#utility.yul\":9077:9080   */\n      dup3\n        /* \"#utility.yul\":9073:9085   */\n      add\n        /* \"#utility.yul\":9066:9085   */\n      swap1\n      pop\n        /* \"#utility.yul\":8725:9091   */\n      swap2\n      swap1\n      pop\n      jump\t// out\n        /* \"#utility.yul\":9097:9516   */\n    tag_43:\n        /* \"#utility.yul\":9263:9267   */\n      0x00\n        /* \"#utility.yul\":9301:9303   */\n      0x20\n        /* \"#utility.yul\":9290:9299   */\n      dup3\n        /* \"#utility.yul\":9286:9304   */\n      add\n        /* \"#utility.yul\":9278:9304   */\n      swap1\n      pop\n        /* \"#utility.yul\":9350:9359   */\n      dup2\n        /* \"#utility.yul\":9344:9348   */\n      dup2\n        /* \"#utility.yul\":9340:9360   */\n      sub\n        /* \"#utility.yul\":9336:9337   */\n      0x00\n        /* \"#utility.yul\":9325:9334   */\n      dup4\n        /* \"#utility.yul\":9321:9338   */\n      add\n        /* \"#utility.yul\":9314:9361   */\n      mstore\n        /* \"#utility.yul\":9378:9509   */\n      tag_245\n        /* \"#utility.yul\":9504:9508   */\n      dup2\n        /* \"#utility.yul\":9378:9509   */\n      tag_113\n      jump\t// in\n    tag_245:\n        /* \"#utility.yul\":9370:9509   */\n      swap1\n      pop\n        /* \"#utility.yul\":9097:9516   */\n      swap2\n      swap1\n      pop\n      jump\t// out\n        /* \"#utility.yul\":9522:9742   */\n    tag_114:\n        /* \"#utility.yul\":9662:9696   */\n      0x706c6561736520696e6372656173652074686520746f74616c7469636b65746e\n        /* \"#utility.yul\":9658:9659   */\n      0x00\n        /* \"#utility.yul\":9650:9656   */\n      dup3\n        /* \"#utility.yul\":9646:9660   */\n      add\n        /* \"#utility.yul\":9639:9697   */\n      mstore\n        /* \"#utility.yul\":9731:9734   */\n      0x6f00000000000000000000000000000000000000000000000000000000000000\n        /* \"#utility.yul\":9726:9728   */\n      0x20\n        /* \"#utility.yul\":9718:9724   */\n      dup3\n        /* \"#utility.yul\":9714:9729   */\n      add\n        /* \"#utility.yul\":9707:9735   */\n      mstore\n        /* \"#utility.yul\":9522:9742   */\n      pop\n      jump\t// out\n        /* \"#utility.yul\":9748:10114   */\n    tag_115:\n        /* \"#utility.yul\":9890:9893   */\n      0x00\n        /* \"#utility.yul\":9911:9978   */\n      tag_248\n        /* \"#utility.yul\":9975:9977   */\n      0x21\n        /* \"#utility.yul\":9970:9973   */\n      dup4\n        /* \"#utility.yul\":9911:9978   */\n      tag_108\n      jump\t// in\n    tag_248:\n        /* \"#utility.yul\":9904:9978   */\n      swap2\n      pop\n        /* \"#utility.yul\":9987:10080   */\n      tag_249\n        /* \"#utility.yul\":10076:10079   */\n      dup3\n        /* \"#utility.yul\":9987:10080   */\n      tag_114\n      jump\t// in\n    tag_249:\n        /* \"#utility.yul\":10105:10107   */\n      0x40\n        /* \"#utility.yul\":10100:10103   */\n      dup3\n        /* \"#utility.yul\":10096:10108   */\n      add\n        /* \"#utility.yul\":10089:10108   */\n      swap1\n      pop\n        /* \"#utility.yul\":9748:10114   */\n      swap2\n      swap1\n      pop\n      jump\t// out\n        /* \"#utility.yul\":10120:10539   */\n    tag_46:\n        /* \"#utility.yul\":10286:10290   */\n      0x00\n        /* \"#utility.yul\":10324:10326   */\n      0x20\n        /* \"#utility.yul\":10313:10322   */\n      dup3\n        /* \"#utility.yul\":10309:10327   */\n      add\n        /* \"#utility.yul\":10301:10327   */\n      swap1\n      pop\n        /* \"#utility.yul\":10373:10382   */\n      dup2\n        /* \"#utility.yul\":10367:10371   */\n      dup2\n        /* \"#utility.yul\":10363:10383   */\n      sub\n        /* \"#utility.yul\":10359:10360   */\n      0x00\n        /* \"#utility.yul\":10348:10357   */\n      dup4\n        /* \"#utility.yul\":10344:10361   */\n      add\n        /* \"#utility.yul\":10337:10384   */\n      mstore\n        /* \"#utility.yul\":10401:10532   */\n      tag_251\n        /* \"#utility.yul\":10527:10531   */\n      dup2\n        /* \"#utility.yul\":10401:10532   */\n      tag_115\n      jump\t// in\n    tag_251:\n        /* \"#utility.yul\":10393:10532   */\n      swap1\n      pop\n        /* \"#utility.yul\":10120:10539   */\n      swap2\n      swap1\n      pop\n      jump\t// out\n        /* \"#utility.yul\":10545:10725   */\n    tag_116:\n        /* \"#utility.yul\":10593:10670   */\n      0x4e487b7100000000000000000000000000000000000000000000000000000000\n        /* \"#utility.yul\":10590:10591   */\n      0x00\n        /* \"#utility.yul\":10583:10671   */\n      mstore\n        /* \"#utility.yul\":10690:10694   */\n      0x22\n        /* \"#utility.yul\":10687:10688   */\n      0x04\n        /* \"#utility.yul\":10680:10695   */\n      mstore\n        /* \"#utility.yul\":10714:10718   */\n      0x24\n        /* \"#utility.yul\":10711:10712   */\n      0x00\n        /* \"#utility.yul\":10704:10719   */\n      revert\n        /* \"#utility.yul\":10731:11051   */\n    tag_81:\n        /* \"#utility.yul\":10775:10781   */\n      0x00\n        /* \"#utility.yul\":10812:10813   */\n      0x02\n        /* \"#utility.yul\":10806:10810   */\n      dup3\n        /* \"#utility.yul\":10802:10814   */\n      div\n        /* \"#utility.yul\":10792:10814   */\n      swap1\n      pop\n        /* \"#utility.yul\":10859:10860   */\n      0x01\n        /* \"#utility.yul\":10853:10857   */\n      dup3\n        /* \"#utility.yul\":10849:10861   */\n      and\n        /* \"#utility.yul\":10880:10898   */\n      dup1\n        /* \"#utility.yul\":10870:10951   */\n      tag_254\n      jumpi\n        /* \"#utility.yul\":10936:10940   */\n      0x7f\n        /* \"#utility.yul\":10928:10934   */\n      dup3\n        /* \"#utility.yul\":10924:10941   */\n      and\n        /* \"#utility.yul\":10914:10941   */\n      swap2\n      pop\n        /* \"#utility.yul\":10870:10951   */\n    tag_254:\n        /* \"#utility.yul\":10998:11000   */\n      0x20\n        /* \"#utility.yul\":10990:10996   */\n      dup3\n        /* \"#utility.yul\":10987:11001   */\n      lt\n        /* \"#utility.yul\":10967:10985   */\n      dup2\n        /* \"#utility.yul\":10964:11002   */\n      sub\n        /* \"#utility.yul\":10961:11045   */\n      tag_255\n      jumpi\n        /* \"#utility.yul\":11017:11035   */\n      tag_256\n      tag_116\n      jump\t// in\n    tag_256:\n        /* \"#utility.yul\":10961:11045   */\n    tag_255:\n        /* \"#utility.yul\":10782:11051   */\n      pop\n        /* \"#utility.yul\":10731:11051   */\n      swap2\n      swap1\n      pop\n      jump\t// out\n        /* \"#utility.yul\":11057:11198   */\n    tag_117:\n        /* \"#utility.yul\":11106:11110   */\n      0x00\n        /* \"#utility.yul\":11129:11132   */\n      dup2\n        /* \"#utility.yul\":11121:11132   */\n      swap1\n      pop\n        /* \"#utility.yul\":11152:11155   */\n      dup2\n        /* \"#utility.yul\":11149:11150   */\n      0x00\n        /* \"#utility.yul\":11142:11156   */\n      mstore\n        /* \"#utility.yul\":11186:11190   */\n      0x20\n        /* \"#utility.yul\":11183:11184   */\n      0x00\n        /* \"#utility.yul\":11173:11191   */\n      keccak256\n        /* \"#utility.yul\":11165:11191   */\n      swap1\n      pop\n        /* \"#utility.yul\":11057:11198   */\n      swap2\n      swap1\n      pop\n      jump\t// out\n        /* \"#utility.yul\":11204:11297   */\n    tag_118:\n        /* \"#utility.yul\":11241:11247   */\n      0x00\n        /* \"#utility.yul\":11288:11290   */\n      0x20\n        /* \"#utility.yul\":11283:11285   */\n      0x1f\n        /* \"#utility.yul\":11276:11281   */\n      dup4\n        /* \"#utility.yul\":11272:11286   */\n      add\n        /* \"#utility.yul\":11268:11291   */\n      div\n        /* \"#utility.yul\":11258:11291   */\n      swap1\n      pop\n        /* \"#utility.yul\":11204:11297   */\n      swap2\n      swap1\n      pop\n      jump\t// out\n        /* \"#utility.yul\":11303:11410   */\n    tag_119:\n        /* \"#utility.yul\":11347:11355   */\n      0x00\n        /* \"#utility.yul\":11397:11402   */\n      dup3\n        /* \"#utility.yul\":11391:11395   */\n      dup3\n        /* \"#utility.yul\":11387:11403   */\n      shl\n        /* \"#utility.yul\":11366:11403   */\n      swap1\n      pop\n        /* \"#utility.yul\":11303:11410   */\n      swap3\n      swap2\n      pop\n      pop\n      jump\t// out\n        /* \"#utility.yul\":11416:11809   */\n    tag_120:\n        /* \"#utility.yul\":11485:11491   */\n      0x00\n        /* \"#utility.yul\":11535:11536   */\n      0x08\n        /* \"#utility.yul\":11523:11533   */\n      dup4\n        /* \"#utility.yul\":11519:11537   */\n      mul\n        /* \"#utility.yul\":11558:11655   */\n      tag_261\n        /* \"#utility.yul\":11588:11654   */\n      0xffffffffffffffffffffffffffffffffffffffffffffffffffffffffffffffff\n        /* \"#utility.yul\":11577:11586   */\n      dup3\n        /* \"#utility.yul\":11558:11655   */\n      tag_119\n      jump\t// in\n    tag_261:\n        /* \"#utility.yul\":11676:11715   */\n      tag_262\n        /* \"#utility.yul\":11706:11714   */\n      dup7\n        /* \"#utility.yul\":11695:11704   */\n      dup4\n        /* \"#utility.yul\":11676:11715   */\n      tag_119\n      jump\t// in\n    tag_262:\n        /* \"#utility.yul\":11664:11715   */\n      swap6\n      pop\n        /* \"#utility.yul\":11748:11752   */\n      dup1\n        /* \"#utility.yul\":11744:11753   */\n      not\n        /* \"#utility.yul\":11737:11742   */\n      dup5\n        /* \"#utility.yul\":11733:11754   */\n      and\n        /* \"#utility.yul\":11724:11754   */\n      swap4\n      pop\n        /* \"#utility.yul\":11797:11801   */\n      dup1\n        /* \"#utility.yul\":11787:11795   */\n      dup7\n        /* \"#utility.yul\":11783:11802   */\n      and\n        /* \"#utility.yul\":11776:11781   */\n      dup5\n        /* \"#utility.yul\":11773:11803   */\n      or\n        /* \"#utility.yul\":11763:11803   */\n      swap3\n      pop\n        /* \"#utility.yul\":11492:11809   */\n      pop\n      pop\n        /* \"#utility.yul\":11416:11809   */\n      swap4\n      swap3\n      pop\n      pop\n      pop\n      jump\t// out\n        /* \"#utility.yul\":11815:11875   */\n    tag_121:\n        /* \"#utility.yul\":11843:11846   */\n      0x00\n        /* \"#utility.yul\":11864:11869   */\n      dup2\n        /* \"#utility.yul\":11857:11869   */\n      swap1\n      pop\n        /* \"#utility.yul\":11815:11875   */\n      swap2\n      swap1\n      pop\n      jump\t// out\n        /* \"#utility.yul\":11881:12023   */\n    tag_122:\n        /* \"#utility.yul\":11931:11940   */\n      0x00\n        /* \"#utility.yul\":11964:12017   */\n      tag_265\n        /* \"#utility.yul\":11982:12016   */\n      tag_266\n        /* \"#utility.yul\":11991:12015   */\n      tag_267\n        /* \"#utility.yul\":12009:12014   */\n      dup5\n        /* \"#utility.yul\":11991:12015   */\n      tag_99\n      jump\t// in\n    tag_267:\n        /* \"#utility.yul\":11982:12016   */\n      tag_121\n      jump\t// in\n    tag_266:\n        /* \"#utility.yul\":11964:12017   */\n      tag_99\n      jump\t// in\n    tag_265:\n        /* \"#utility.yul\":11951:12017   */\n      swap1\n      pop\n        /* \"#utility.yul\":11881:12023   */\n      swap2\n      swap1\n      pop\n      jump\t// out\n        /* \"#utility.yul\":12029:12104   */\n    tag_123:\n        /* \"#utility.yul\":12072:12075   */\n      0x00\n        /* \"#utility.yul\":12093:12098   */\n      dup2\n        /* \"#utility.yul\":12086:12098   */\n      swap1\n      pop\n        /* \"#utility.yul\":12029:12104   */\n      swap2\n      swap1\n      pop\n      jump\t// out\n        /* \"#utility.yul\":12110:12379   */\n    tag_124:\n        /* \"#utility.yul\":12220:12259   */\n      tag_270\n        /* \"#utility.yul\":12251:12258   */\n      dup4\n        /* \"#utility.yul\":12220:12259   */\n      tag_122\n      jump\t// in\n    tag_270:\n        /* \"#utility.yul\":12281:12372   */\n      tag_271\n        /* \"#utility.yul\":12330:12371   */\n      tag_272\n        /* \"#utility.yul\":12354:12370   */\n      dup3\n        /* \"#utility.yul\":12330:12371   */\n      tag_123\n      jump\t// in\n    tag_272:\n        /* \"#utility.yul\":12322:12328   */\n      dup5\n        /* \"#utility.yul\":12315:12319   */\n      dup5\n        /* \"#utility.yul\":12309:12320   */\n      sload\n        /* \"#utility.yul\":12281:12372   */\n      tag_120\n      jump\t// in\n    tag_271:\n        /* \"#utility.yul\":12275:12279   */\n      dup3\n        /* \"#utility.yul\":12268:12373   */\n      sstore\n        /* \"#utility.yul\":12186:12379   */\n      pop\n        /* \"#utility.yul\":12110:12379   */\n      pop\n      pop\n      pop\n      jump\t// out\n        /* \"#utility.yul\":12385:12458   */\n    tag_125:\n        /* \"#utility.yul\":12430:12433   */\n      0x00\n        /* \"#utility.yul\":12385:12458   */\n      swap1\n      jump\t// out\n        /* \"#utility.yul\":12464:12653   */\n    tag_126:\n        /* \"#utility.yul\":12541:12573   */\n      tag_275\n      tag_125\n      jump\t// in\n    tag_275:\n        /* \"#utility.yul\":12582:12647   */\n      tag_276\n        /* \"#utility.yul\":12640:12646   */\n      dup2\n        /* \"#utility.yul\":12632:12638   */\n      dup5\n        /* \"#utility.yul\":12626:12630   */\n      dup5\n        /* \"#utility.yul\":12582:12647   */\n      tag_124\n      jump\t// in\n    tag_276:\n        /* \"#utility.yul\":12517:12653   */\n      pop\n        /* \"#utility.yul\":12464:12653   */\n      pop\n      pop\n      jump\t// out\n        /* \"#utility.yul\":12659:12845   */\n    tag_127:\n        /* \"#utility.yul\":12719:12839   */\n    tag_278:\n        /* \"#utility.yul\":12736:12739   */\n      dup2\n        /* \"#utility.yul\":12729:12734   */\n      dup2\n        /* \"#utility.yul\":12726:12740   */\n      lt\n        /* \"#utility.yul\":12719:12839   */\n      iszero\n      tag_280\n      jumpi\n        /* \"#utility.yul\":12790:12829   */\n      tag_281\n        /* \"#utility.yul\":12827:12828   */\n      0x00\n        /* \"#utility.yul\":12820:12825   */\n      dup3\n        /* \"#utility.yul\":12790:12829   */\n      tag_126\n      jump\t// in\n    tag_281:\n        /* \"#utility.yul\":12763:12764   */\n      0x01\n        /* \"#utility.yul\":12756:12761   */\n      dup2\n        /* \"#utility.yul\":12752:12765   */\n      add\n        /* \"#utility.yul\":12743:12765   */\n      swap1\n      pop\n        /* \"#utility.yul\":12719:12839   */\n      jump(tag_278)\n    tag_280:\n        /* \"#utility.yul\":12659:12845   */\n      pop\n      pop\n      jump\t// out\n        /* \"#utility.yul\":12851:13394   */\n    tag_128:\n        /* \"#utility.yul\":12952:12954   */\n      0x1f\n        /* \"#utility.yul\":12947:12950   */\n      dup3\n        /* \"#utility.yul\":12944:12955   */\n      gt\n        /* \"#utility.yul\":12941:13387   */\n      iszero\n      tag_283\n      jumpi\n        /* \"#utility.yul\":12986:13024   */\n      tag_284\n        /* \"#utility.yul\":13018:13023   */\n      dup2\n        /* \"#utility.yul\":12986:13024   */\n      tag_117\n      jump\t// in\n    tag_284:\n        /* \"#utility.yul\":13070:13099   */\n      tag_285\n        /* \"#utility.yul\":13088:13098   */\n      dup5\n        /* \"#utility.yul\":13070:13099   */\n      tag_118\n      jump\t// in\n    tag_285:\n        /* \"#utility.yul\":13060:13068   */\n      dup2\n        /* \"#utility.yul\":13056:13100   */\n      add\n        /* \"#utility.yul\":13253:13255   */\n      0x20\n        /* \"#utility.yul\":13241:13251   */\n      dup6\n        /* \"#utility.yul\":13238:13256   */\n      lt\n        /* \"#utility.yul\":13235:13284   */\n      iszero\n      tag_286\n      jumpi\n        /* \"#utility.yul\":13274:13282   */\n      dup2\n        /* \"#utility.yul\":13259:13282   */\n      swap1\n      pop\n        /* \"#utility.yul\":13235:13284   */\n    tag_286:\n        /* \"#utility.yul\":13297:13377   */\n      tag_287\n        /* \"#utility.yul\":13353:13375   */\n      tag_288\n        /* \"#utility.yul\":13371:13374   */\n      dup6\n        /* \"#utility.yul\":13353:13375   */\n      tag_118\n      jump\t// in\n    tag_288:\n        /* \"#utility.yul\":13343:13351   */\n      dup4\n        /* \"#utility.yul\":13339:13376   */\n      add\n        /* \"#utility.yul\":13326:13337   */\n      dup3\n        /* \"#utility.yul\":13297:13377   */\n      tag_127\n      jump\t// in\n    tag_287:\n        /* \"#utility.yul\":12956:13387   */\n      pop\n      pop\n        /* \"#utility.yul\":12941:13387   */\n    tag_283:\n        /* \"#utility.yul\":12851:13394   */\n      pop\n      pop\n      pop\n      jump\t// out\n        /* \"#utility.yul\":13400:13517   */\n    tag_129:\n        /* \"#utility.yul\":13454:13462   */\n      0x00\n        /* \"#utility.yul\":13504:13509   */\n      dup3\n        /* \"#utility.yul\":13498:13502   */\n      dup3\n        /* \"#utility.yul\":13494:13510   */\n      shr\n        /* \"#utility.yul\":13473:13510   */\n      swap1\n      pop\n        /* \"#utility.yul\":13400:13517   */\n      swap3\n      swap2\n      pop\n      pop\n      jump\t// out\n        /* \"#utility.yul\":13523:13692   */\n    tag_130:\n        /* \"#utility.yul\":13567:13573   */\n      0x00\n        /* \"#utility.yul\":13600:13651   */\n      tag_291\n        /* \"#utility.yul\":13648:13649   */\n      0x00\n        /* \"#utility.yul\":13644:13650   */\n      not\n        /* \"#utility.yul\":13636:13641   */\n      dup5\n        /* \"#utility.yul\":13633:13634   */\n      0x08\n        /* \"#utility.yul\":13629:13642   */\n      mul\n        /* \"#utility.yul\":13600:13651   */\n      tag_129\n      jump\t// in\n    tag_291:\n        /* \"#utility.yul\":13596:13652   */\n      not\n        /* \"#utility.yul\":13681:13685   */\n      dup1\n        /* \"#utility.yul\":13675:13679   */\n      dup4\n        /* \"#utility.yul\":13671:13686   */\n      and\n        /* \"#utility.yul\":13661:13686   */\n      swap2\n      pop\n        /* \"#utility.yul\":13574:13692   */\n      pop\n        /* \"#utility.yul\":13523:13692   */\n      swap3\n      swap2\n      pop\n      pop\n      jump\t// out\n        /* \"#utility.yul\":13697:13992   */\n    tag_131:\n        /* \"#utility.yul\":13773:13777   */\n      0x00\n        /* \"#utility.yul\":13919:13948   */\n      tag_293\n        /* \"#utility.yul\":13944:13947   */\n      dup4\n        /* \"#utility.yul\":13938:13942   */\n      dup4\n        /* \"#utility.yul\":13919:13948   */\n      tag_130\n      jump\t// in\n    tag_293:\n        /* \"#utility.yul\":13911:13948   */\n      swap2\n      pop\n        /* \"#utility.yul\":13981:13984   */\n      dup3\n        /* \"#utility.yul\":13978:13979   */\n      0x02\n        /* \"#utility.yul\":13974:13985   */\n      mul\n        /* \"#utility.yul\":13968:13972   */\n      dup3\n        /* \"#utility.yul\":13965:13986   */\n      or\n        /* \"#utility.yul\":13957:13986   */\n      swap1\n      pop\n        /* \"#utility.yul\":13697:13992   */\n      swap3\n      swap2\n      pop\n      pop\n      jump\t// out\n        /* \"#utility.yul\":13997:15392   */\n    tag_48:\n        /* \"#utility.yul\":14114:14151   */\n      tag_295\n        /* \"#utility.yul\":14147:14150   */\n      dup3\n        /* \"#utility.yul\":14114:14151   */\n      tag_107\n      jump\t// in\n    tag_295:\n        /* \"#utility.yul\":14216:14234   */\n      0xffffffffffffffff\n        /* \"#utility.yul\":14208:14214   */\n      dup2\n        /* \"#utility.yul\":14205:14235   */\n      gt\n        /* \"#utility.yul\":14202:14258   */\n      iszero\n      tag_296\n      jumpi\n        /* \"#utility.yul\":14238:14256   */\n      tag_297\n      tag_92\n      jump\t// in\n    tag_297:\n        /* \"#utility.yul\":14202:14258   */\n    tag_296:\n        /* \"#utility.yul\":14282:14320   */\n      tag_298\n        /* \"#utility.yul\":14314:14318   */\n      dup3\n        /* \"#utility.yul\":14308:14319   */\n      sload\n        /* \"#utility.yul\":14282:14320   */\n      tag_81\n      jump\t// in\n    tag_298:\n        /* \"#utility.yul\":14367:14434   */\n      tag_299\n        /* \"#utility.yul\":14427:14433   */\n      dup3\n        /* \"#utility.yul\":14419:14425   */\n      dup3\n        /* \"#utility.yul\":14413:14417   */\n      dup6\n        /* \"#utility.yul\":14367:14434   */\n      tag_128\n      jump\t// in\n    tag_299:\n        /* \"#utility.yul\":14461:14462   */\n      0x00\n        /* \"#utility.yul\":14485:14489   */\n      0x20\n        /* \"#utility.yul\":14472:14489   */\n      swap1\n      pop\n        /* \"#utility.yul\":14517:14519   */\n      0x1f\n        /* \"#utility.yul\":14509:14515   */\n      dup4\n        /* \"#utility.yul\":14506:14520   */\n      gt\n        /* \"#utility.yul\":14534:14535   */\n      0x01\n        /* \"#utility.yul\":14529:15147   */\n      dup2\n      eq\n      tag_301\n      jumpi\n        /* \"#utility.yul\":15191:15192   */\n      0x00\n        /* \"#utility.yul\":15208:15214   */\n      dup5\n        /* \"#utility.yul\":15205:15282   */\n      iszero\n      tag_302\n      jumpi\n        /* \"#utility.yul\":15257:15266   */\n      dup3\n        /* \"#utility.yul\":15252:15255   */\n      dup8\n        /* \"#utility.yul\":15248:15267   */\n      add\n        /* \"#utility.yul\":15242:15268   */\n      mload\n        /* \"#utility.yul\":15233:15268   */\n      swap1\n      pop\n        /* \"#utility.yul\":15205:15282   */\n    tag_302:\n        /* \"#utility.yul\":15308:15375   */\n      tag_303\n        /* \"#utility.yul\":15368:15374   */\n      dup6\n        /* \"#utility.yul\":15361:15366   */\n      dup3\n        /* \"#utility.yul\":15308:15375   */\n      tag_131\n      jump\t// in\n    tag_303:\n        /* \"#utility.yul\":15302:15306   */\n      dup7\n        /* \"#utility.yul\":15295:15376   */\n      sstore\n        /* \"#utility.yul\":15164:15386   */\n      pop\n        /* \"#utility.yul\":14499:15386   */\n      jump(tag_300)\n        /* \"#utility.yul\":14529:15147   */\n    tag_301:\n        /* \"#utility.yul\":14581:14585   */\n      0x1f\n        /* \"#utility.yul\":14577:14586   */\n      not\n        /* \"#utility.yul\":14569:14575   */\n      dup5\n        /* \"#utility.yul\":14565:14587   */\n      and\n        /* \"#utility.yul\":14615:14652   */\n      tag_304\n        /* \"#utility.yul\":14647:14651   */\n      dup7\n        /* \"#utility.yul\":14615:14652   */\n      tag_117\n      jump\t// in\n    tag_304:\n        /* \"#utility.yul\":14674:14675   */\n      0x00\n        /* \"#utility.yul\":14688:14896   */\n    tag_305:\n        /* \"#utility.yul\":14702:14709   */\n      dup3\n        /* \"#utility.yul\":14699:14700   */\n      dup2\n        /* \"#utility.yul\":14696:14710   */\n      lt\n        /* \"#utility.yul\":14688:14896   */\n      iszero\n      tag_307\n      jumpi\n        /* \"#utility.yul\":14781:14790   */\n      dup5\n        /* \"#utility.yul\":14776:14779   */\n      dup10\n        /* \"#utility.yul\":14772:14791   */\n      add\n        /* \"#utility.yul\":14766:14792   */\n      mload\n        /* \"#utility.yul\":14758:14764   */\n      dup3\n        /* \"#utility.yul\":14751:14793   */\n      sstore\n        /* \"#utility.yul\":14832:14833   */\n      0x01\n        /* \"#utility.yul\":14824:14830   */\n      dup3\n        /* \"#utility.yul\":14820:14834   */\n      add\n        /* \"#utility.yul\":14810:14834   */\n      swap2\n      pop\n        /* \"#utility.yul\":14879:14881   */\n      0x20\n        /* \"#utility.yul\":14868:14877   */\n      dup6\n        /* \"#utility.yul\":14864:14882   */\n      add\n        /* \"#utility.yul\":14851:14882   */\n      swap5\n      pop\n        /* \"#utility.yul\":14725:14729   */\n      0x20\n        /* \"#utility.yul\":14722:14723   */\n      dup2\n        /* \"#utility.yul\":14718:14730   */\n      add\n        /* \"#utility.yul\":14713:14730   */\n      swap1\n      pop\n        /* \"#utility.yul\":14688:14896   */\n      jump(tag_305)\n    tag_307:\n        /* \"#utility.yul\":14924:14930   */\n      dup7\n        /* \"#utility.yul\":14915:14922   */\n      dup4\n        /* \"#utility.yul\":14912:14931   */\n      lt\n        /* \"#utility.yul\":14909:15088   */\n      iszero\n      tag_308\n      jumpi\n        /* \"#utility.yul\":14982:14991   */\n      dup5\n        /* \"#utility.yul\":14977:14980   */\n      dup10\n        /* \"#utility.yul\":14973:14992   */\n      add\n        /* \"#utility.yul\":14967:14993   */\n      mload\n        /* \"#utility.yul\":15025:15073   */\n      tag_309\n        /* \"#utility.yul\":15067:15071   */\n      0x1f\n        /* \"#utility.yul\":15059:15065   */\n      dup10\n        /* \"#utility.yul\":15055:15072   */\n      and\n        /* \"#utility.yul\":15044:15053   */\n      dup3\n        /* \"#utility.yul\":15025:15073   */\n      tag_130\n      jump\t// in\n    tag_309:\n        /* \"#utility.yul\":15017:15023   */\n      dup4\n        /* \"#utility.yul\":15010:15074   */\n      sstore\n        /* \"#utility.yul\":14932:15088   */\n      pop\n        /* \"#utility.yul\":14909:15088   */\n    tag_308:\n        /* \"#utility.yul\":15134:15135   */\n      0x01\n        /* \"#utility.yul\":15130:15131   */\n      0x02\n        /* \"#utility.yul\":15122:15128   */\n      dup9\n        /* \"#utility.yul\":15118:15132   */\n      mul\n        /* \"#utility.yul\":15114:15136   */\n      add\n        /* \"#utility.yul\":15108:15112   */\n      dup9\n        /* \"#utility.yul\":15101:15137   */\n      sstore\n        /* \"#utility.yul\":14536:15147   */\n      pop\n      pop\n      pop\n        /* \"#utility.yul\":14499:15386   */\n    tag_300:\n      pop\n        /* \"#utility.yul\":14089:15392   */\n      pop\n      pop\n      pop\n        /* \"#utility.yul\":13997:15392   */\n      pop\n      pop\n      jump\t// out\n        /* \"#utility.yul\":15398:15578   */\n    tag_132:\n        /* \"#utility.yul\":15446:15523   */\n      0x4e487b7100000000000000000000000000000000000000000000000000000000\n        /* \"#utility.yul\":15443:15444   */\n      0x00\n        /* \"#utility.yul\":15436:15524   */\n      mstore\n        /* \"#utility.yul\":15543:15547   */\n      0x11\n        /* \"#utility.yul\":15540:15541   */\n      0x04\n        /* \"#utility.yul\":15533:15548   */\n      mstore\n        /* \"#utility.yul\":15567:15571   */\n      0x24\n        /* \"#utility.yul\":15564:15565   */\n      0x00\n        /* \"#utility.yul\":15557:15572   */\n      revert\n        /* \"#utility.yul\":15584:15817   */\n    tag_50:\n        /* \"#utility.yul\":15623:15626   */\n      0x00\n        /* \"#utility.yul\":15646:15670   */\n      tag_312\n        /* \"#utility.yul\":15664:15669   */\n      dup3\n        /* \"#utility.yul\":15646:15670   */\n      tag_99\n      jump\t// in\n    tag_312:\n        /* \"#utility.yul\":15637:15670   */\n      swap2\n      pop\n        /* \"#utility.yul\":15692:15758   */\n      0xffffffffffffffffffffffffffffffffffffffffffffffffffffffffffffffff\n        /* \"#utility.yul\":15685:15690   */\n      dup3\n        /* \"#utility.yul\":15682:15759   */\n      sub\n        /* \"#utility.yul\":15679:15782   */\n      tag_313\n      jumpi\n        /* \"#utility.yul\":15762:15780   */\n      tag_314\n      tag_132\n      jump\t// in\n    tag_314:\n        /* \"#utility.yul\":15679:15782   */\n    tag_313:\n        /* \"#utility.yul\":15809:15810   */\n      0x01\n        /* \"#utility.yul\":15802:15807   */\n      dup3\n        /* \"#utility.yul\":15798:15811   */\n      add\n        /* \"#utility.yul\":15791:15811   */\n      swap1\n      pop\n        /* \"#utility.yul\":15584:15817   */\n      swap2\n      swap1\n      pop\n      jump\t// out\n        /* \"#utility.yul\":15823:15990   */\n    tag_133:\n        /* \"#utility.yul\":15963:15982   */\n      0x6576656e74206461746520697320656e64000000000000000000000000000000\n        /* \"#utility.yul\":15959:15960   */\n      0x00\n        /* \"#utility.yul\":15951:15957   */\n      dup3\n        /* \"#utility.yul\":15947:15961   */\n      add\n        /* \"#utility.yul\":15940:15983   */\n      mstore\n        /* \"#utility.yul\":15823:15990   */\n      pop\n      jump\t// out\n        /* \"#utility.yul\":15996:16362   */\n    tag_134:\n        /* \"#utility.yul\":16138:16141   */\n      0x00\n        /* \"#utility.yul\":16159:16226   */\n      tag_317\n        /* \"#utility.yul\":16223:16225   */\n      0x11\n        /* \"#utility.yul\":16218:16221   */\n      dup4\n        /* \"#utility.yul\":16159:16226   */\n      tag_108\n      jump\t// in\n    tag_317:\n        /* \"#utility.yul\":16152:16226   */\n      swap2\n      pop\n        /* \"#utility.yul\":16235:16328   */\n      tag_318\n        /* \"#utility.yul\":16324:16327   */\n      dup3\n        /* \"#utility.yul\":16235:16328   */\n      tag_133\n      jump\t// in\n    tag_318:\n        /* \"#utility.yul\":16353:16355   */\n      0x20\n        /* \"#utility.yul\":16348:16351   */\n      dup3\n        /* \"#utility.yul\":16344:16356   */\n      add\n        /* \"#utility.yul\":16337:16356   */\n      swap1\n      pop\n        /* \"#utility.yul\":15996:16362   */\n      swap2\n      swap1\n      pop\n      jump\t// out\n        /* \"#utility.yul\":16368:16787   */\n    tag_54:\n        /* \"#utility.yul\":16534:16538   */\n      0x00\n        /* \"#utility.yul\":16572:16574   */\n      0x20\n        /* \"#utility.yul\":16561:16570   */\n      dup3\n        /* \"#utility.yul\":16557:16575   */\n      add\n        /* \"#utility.yul\":16549:16575   */\n      swap1\n      pop\n        /* \"#utility.yul\":16621:16630   */\n      dup2\n        /* \"#utility.yul\":16615:16619   */\n      dup2\n        /* \"#utility.yul\":16611:16631   */\n      sub\n        /* \"#utility.yul\":16607:16608   */\n      0x00\n        /* \"#utility.yul\":16596:16605   */\n      dup4\n        /* \"#utility.yul\":16592:16609   */\n      add\n        /* \"#utility.yul\":16585:16632   */\n      mstore\n        /* \"#utility.yul\":16649:16780   */\n      tag_320\n        /* \"#utility.yul\":16775:16779   */\n      dup2\n        /* \"#utility.yul\":16649:16780   */\n      tag_134\n      jump\t// in\n    tag_320:\n        /* \"#utility.yul\":16641:16780   */\n      swap1\n      pop\n        /* \"#utility.yul\":16368:16787   */\n      swap2\n      swap1\n      pop\n      jump\t// out\n        /* \"#utility.yul\":16793:16964   */\n    tag_135:\n        /* \"#utility.yul\":16933:16956   */\n      0x6576656e74206e6f742073746172746564207965740000000000000000000000\n        /* \"#utility.yul\":16929:16930   */\n      0x00\n        /* \"#utility.yul\":16921:16927   */\n      dup3\n        /* \"#utility.yul\":16917:16931   */\n      add\n        /* \"#utility.yul\":16910:16957   */\n      mstore\n        /* \"#utility.yul\":16793:16964   */\n      pop\n      jump\t// out\n        /* \"#utility.yul\":16970:17336   */\n    tag_136:\n        /* \"#utility.yul\":17112:17115   */\n      0x00\n        /* \"#utility.yul\":17133:17200   */\n      tag_323\n        /* \"#utility.yul\":17197:17199   */\n      0x15\n        /* \"#utility.yul\":17192:17195   */\n      dup4\n        /* \"#utility.yul\":17133:17200   */\n      tag_108\n      jump\t// in\n    tag_323:\n        /* \"#utility.yul\":17126:17200   */\n      swap2\n      pop\n        /* \"#utility.yul\":17209:17302   */\n      tag_324\n        /* \"#utility.yul\":17298:17301   */\n      dup3\n        /* \"#utility.yul\":17209:17302   */\n      tag_135\n      jump\t// in\n    tag_324:\n        /* \"#utility.yul\":17327:17329   */\n      0x20\n        /* \"#utility.yul\":17322:17325   */\n      dup3\n        /* \"#utility.yul\":17318:17330   */\n      add\n        /* \"#utility.yul\":17311:17330   */\n      swap1\n      pop\n        /* \"#utility.yul\":16970:17336   */\n      swap2\n      swap1\n      pop\n      jump\t// out\n        /* \"#utility.yul\":17342:17761   */\n    tag_57:\n        /* \"#utility.yul\":17508:17512   */\n      0x00\n        /* \"#utility.yul\":17546:17548   */\n      0x20\n        /* \"#utility.yul\":17535:17544   */\n      dup3\n        /* \"#utility.yul\":17531:17549   */\n      add\n        /* \"#utility.yul\":17523:17549   */\n      swap1\n      pop\n        /* \"#utility.yul\":17595:17604   */\n      dup2\n        /* \"#utility.yul\":17589:17593   */\n      dup2\n        /* \"#utility.yul\":17585:17605   */\n      sub\n        /* \"#utility.yul\":17581:17582   */\n      0x00\n        /* \"#utility.yul\":17570:17579   */\n      dup4\n        /* \"#utility.yul\":17566:17583   */\n      add\n        /* \"#utility.yul\":17559:17606   */\n      mstore\n        /* \"#utility.yul\":17623:17754   */\n      tag_326\n        /* \"#utility.yul\":17749:17753   */\n      dup2\n        /* \"#utility.yul\":17623:17754   */\n      tag_136\n      jump\t// in\n    tag_326:\n        /* \"#utility.yul\":17615:17754   */\n      swap1\n      pop\n        /* \"#utility.yul\":17342:17761   */\n      swap2\n      swap1\n      pop\n      jump\t// out\n        /* \"#utility.yul\":17767:17947   */\n    tag_137:\n        /* \"#utility.yul\":17907:17939   */\n      0x796f7520646f206e6f74206861766520656e6f756768207469636b6574730000\n        /* \"#utility.yul\":17903:17904   */\n      0x00\n        /* \"#utility.yul\":17895:17901   */\n      dup3\n        /* \"#utility.yul\":17891:17905   */\n      add\n        /* \"#utility.yul\":17884:17940   */\n      mstore\n        /* \"#utility.yul\":17767:17947   */\n      pop\n      jump\t// out\n        /* \"#utility.yul\":17953:18319   */\n    tag_138:\n        /* \"#utility.yul\":18095:18098   */\n      0x00\n        /* \"#utility.yul\":18116:18183   */\n      tag_329\n        /* \"#utility.yul\":18180:18182   */\n      0x1e\n        /* \"#utility.yul\":18175:18178   */\n      dup4\n        /* \"#utility.yul\":18116:18183   */\n      tag_108\n      jump\t// in\n    tag_329:\n        /* \"#utility.yul\":18109:18183   */\n      swap2\n      pop\n        /* \"#utility.yul\":18192:18285   */\n      tag_330\n        /* \"#utility.yul\":18281:18284   */\n      dup3\n        /* \"#utility.yul\":18192:18285   */\n      tag_137\n      jump\t// in\n    tag_330:\n        /* \"#utility.yul\":18310:18312   */\n      0x20\n        /* \"#utility.yul\":18305:18308   */\n      dup3\n        /* \"#utility.yul\":18301:18313   */\n      add\n        /* \"#utility.yul\":18294:18313   */\n      swap1\n      pop\n        /* \"#utility.yul\":17953:18319   */\n      swap2\n      swap1\n      pop\n      jump\t// out\n        /* \"#utility.yul\":18325:18744   */\n    tag_60:\n        /* \"#utility.yul\":18491:18495   */\n      0x00\n        /* \"#utility.yul\":18529:18531   */\n      0x20\n        /* \"#utility.yul\":18518:18527   */\n      dup3\n        /* \"#utility.yul\":18514:18532   */\n      add\n        /* \"#utility.yul\":18506:18532   */\n      swap1\n      pop\n        /* \"#utility.yul\":18578:18587   */\n      dup2\n        /* \"#utility.yul\":18572:18576   */\n      dup2\n        /* \"#utility.yul\":18568:18588   */\n      sub\n        /* \"#utility.yul\":18564:18565   */\n      0x00\n        /* \"#utility.yul\":18553:18562   */\n      dup4\n        /* \"#utility.yul\":18549:18566   */\n      add\n        /* \"#utility.yul\":18542:18589   */\n      mstore\n        /* \"#utility.yul\":18606:18737   */\n      tag_332\n        /* \"#utility.yul\":18732:18736   */\n      dup2\n        /* \"#utility.yul\":18606:18737   */\n      tag_138\n      jump\t// in\n    tag_332:\n        /* \"#utility.yul\":18598:18737   */\n      swap1\n      pop\n        /* \"#utility.yul\":18325:18744   */\n      swap2\n      swap1\n      pop\n      jump\t// out\n        /* \"#utility.yul\":18750:18944   */\n    tag_62:\n        /* \"#utility.yul\":18790:18794   */\n      0x00\n        /* \"#utility.yul\":18810:18830   */\n      tag_334\n        /* \"#utility.yul\":18828:18829   */\n      dup3\n        /* \"#utility.yul\":18810:18830   */\n      tag_99\n      jump\t// in\n    tag_334:\n        /* \"#utility.yul\":18805:18830   */\n      swap2\n      pop\n        /* \"#utility.yul\":18844:18864   */\n      tag_335\n        /* \"#utility.yul\":18862:18863   */\n      dup4\n        /* \"#utility.yul\":18844:18864   */\n      tag_99\n      jump\t// in\n    tag_335:\n        /* \"#utility.yul\":18839:18864   */\n      swap3\n      pop\n        /* \"#utility.yul\":18888:18889   */\n      dup3\n        /* \"#utility.yul\":18885:18886   */\n      dup3\n        /* \"#utility.yul\":18881:18890   */\n      sub\n        /* \"#utility.yul\":18873:18890   */\n      swap1\n      pop\n        /* \"#utility.yul\":18912:18913   */\n      dup2\n        /* \"#utility.yul\":18906:18910   */\n      dup2\n        /* \"#utility.yul\":18903:18914   */\n      gt\n        /* \"#utility.yul\":18900:18937   */\n      iszero\n      tag_336\n      jumpi\n        /* \"#utility.yul\":18917:18935   */\n      tag_337\n      tag_132\n      jump\t// in\n    tag_337:\n        /* \"#utility.yul\":18900:18937   */\n    tag_336:\n        /* \"#utility.yul\":18750:18944   */\n      swap3\n      swap2\n      pop\n      pop\n      jump\t// out\n        /* \"#utility.yul\":18950:19141   */\n    tag_64:\n        /* \"#utility.yul\":18990:18993   */\n      0x00\n        /* \"#utility.yul\":19009:19029   */\n      tag_339\n        /* \"#utility.yul\":19027:19028   */\n      dup3\n        /* \"#utility.yul\":19009:19029   */\n      tag_99\n      jump\t// in\n    tag_339:\n        /* \"#utility.yul\":19004:19029   */\n      swap2\n      pop\n        /* \"#utility.yul\":19043:19063   */\n      tag_340\n        /* \"#utility.yul\":19061:19062   */\n      dup4\n        /* \"#utility.yul\":19043:19063   */\n      tag_99\n      jump\t// in\n    tag_340:\n        /* \"#utility.yul\":19038:19063   */\n      swap3\n      pop\n        /* \"#utility.yul\":19086:19087   */\n      dup3\n        /* \"#utility.yul\":19083:19084   */\n      dup3\n        /* \"#utility.yul\":19079:19088   */\n      add\n        /* \"#utility.yul\":19072:19088   */\n      swap1\n      pop\n        /* \"#utility.yul\":19107:19110   */\n      dup1\n        /* \"#utility.yul\":19104:19105   */\n      dup3\n        /* \"#utility.yul\":19101:19111   */\n      gt\n        /* \"#utility.yul\":19098:19134   */\n      iszero\n      tag_341\n      jumpi\n        /* \"#utility.yul\":19114:19132   */\n      tag_342\n      tag_132\n      jump\t// in\n    tag_342:\n        /* \"#utility.yul\":19098:19134   */\n    tag_341:\n        /* \"#utility.yul\":18950:19141   */\n      swap3\n      swap2\n      pop\n      pop\n      jump\t// out\n        /* \"#utility.yul\":19147:19557   */\n    tag_71:\n        /* \"#utility.yul\":19187:19194   */\n      0x00\n        /* \"#utility.yul\":19210:19230   */\n      tag_344\n        /* \"#utility.yul\":19228:19229   */\n      dup3\n        /* \"#utility.yul\":19210:19230   */\n      tag_99\n      jump\t// in\n    tag_344:\n        /* \"#utility.yul\":19205:19230   */\n      swap2\n      pop\n        /* \"#utility.yul\":19244:19264   */\n      tag_345\n        /* \"#utility.yul\":19262:19263   */\n      dup4\n        /* \"#utility.yul\":19244:19264   */\n      tag_99\n      jump\t// in\n    tag_345:\n        /* \"#utility.yul\":19239:19264   */\n      swap3\n      pop\n        /* \"#utility.yul\":19299:19300   */\n      dup3\n        /* \"#utility.yul\":19296:19297   */\n      dup3\n        /* \"#utility.yul\":19292:19301   */\n      mul\n        /* \"#utility.yul\":19321:19351   */\n      tag_346\n        /* \"#utility.yul\":19339:19350   */\n      dup2\n        /* \"#utility.yul\":19321:19351   */\n      tag_99\n      jump\t// in\n    tag_346:\n        /* \"#utility.yul\":19310:19351   */\n      swap2\n      pop\n        /* \"#utility.yul\":19500:19501   */\n      dup3\n        /* \"#utility.yul\":19491:19498   */\n      dup3\n        /* \"#utility.yul\":19487:19502   */\n      div\n        /* \"#utility.yul\":19484:19485   */\n      dup5\n        /* \"#utility.yul\":19481:19503   */\n      eq\n        /* \"#utility.yul\":19461:19462   */\n      dup4\n        /* \"#utility.yul\":19454:19463   */\n      iszero\n        /* \"#utility.yul\":19434:19517   */\n      or\n        /* \"#utility.yul\":19411:19550   */\n      tag_347\n      jumpi\n        /* \"#utility.yul\":19530:19548   */\n      tag_348\n      tag_132\n      jump\t// in\n    tag_348:\n        /* \"#utility.yul\":19411:19550   */\n    tag_347:\n        /* \"#utility.yul\":19195:19557   */\n      pop\n        /* \"#utility.yul\":19147:19557   */\n      swap3\n      swap2\n      pop\n      pop\n      jump\t// out\n        /* \"#utility.yul\":19563:19797   */\n    tag_139:\n        /* \"#utility.yul\":19703:19737   */\n      0x796f757220616d6f756e74206e6f74206d61746368696e67207769746820746f\n        /* \"#utility.yul\":19699:19700   */\n      0x00\n        /* \"#utility.yul\":19691:19697   */\n      dup3\n        /* \"#utility.yul\":19687:19701   */\n      add\n        /* \"#utility.yul\":19680:19738   */\n      mstore\n        /* \"#utility.yul\":19772:19789   */\n      0x74616c20657870656e6469747572650000000000000000000000000000000000\n        /* \"#utility.yul\":19767:19769   */\n      0x20\n        /* \"#utility.yul\":19759:19765   */\n      dup3\n        /* \"#utility.yul\":19755:19770   */\n      add\n        /* \"#utility.yul\":19748:19790   */\n      mstore\n        /* \"#utility.yul\":19563:19797   */\n      pop\n      jump\t// out\n        /* \"#utility.yul\":19803:20169   */\n    tag_140:\n        /* \"#utility.yul\":19945:19948   */\n      0x00\n        /* \"#utility.yul\":19966:20033   */\n      tag_351\n        /* \"#utility.yul\":20030:20032   */\n      0x2f\n        /* \"#utility.yul\":20025:20028   */\n      dup4\n        /* \"#utility.yul\":19966:20033   */\n      tag_108\n      jump\t// in\n    tag_351:\n        /* \"#utility.yul\":19959:20033   */\n      swap2\n      pop\n        /* \"#utility.yul\":20042:20135   */\n      tag_352\n        /* \"#utility.yul\":20131:20134   */\n      dup3\n        /* \"#utility.yul\":20042:20135   */\n      tag_139\n      jump\t// in\n    tag_352:\n        /* \"#utility.yul\":20160:20162   */\n      0x40\n        /* \"#utility.yul\":20155:20158   */\n      dup3\n        /* \"#utility.yul\":20151:20163   */\n      add\n        /* \"#utility.yul\":20144:20163   */\n      swap1\n      pop\n        /* \"#utility.yul\":19803:20169   */\n      swap2\n      swap1\n      pop\n      jump\t// out\n        /* \"#utility.yul\":20175:20594   */\n    tag_74:\n        /* \"#utility.yul\":20341:20345   */\n      0x00\n        /* \"#utility.yul\":20379:20381   */\n      0x20\n        /* \"#utility.yul\":20368:20377   */\n      dup3\n        /* \"#utility.yul\":20364:20382   */\n      add\n        /* \"#utility.yul\":20356:20382   */\n      swap1\n      pop\n        /* \"#utility.yul\":20428:20437   */\n      dup2\n        /* \"#utility.yul\":20422:20426   */\n      dup2\n        /* \"#utility.yul\":20418:20438   */\n      sub\n        /* \"#utility.yul\":20414:20415   */\n      0x00\n        /* \"#utility.yul\":20403:20412   */\n      dup4\n        /* \"#utility.yul\":20399:20416   */\n      add\n        /* \"#utility.yul\":20392:20439   */\n      mstore\n        /* \"#utility.yul\":20456:20587   */\n      tag_354\n        /* \"#utility.yul\":20582:20586   */\n      dup2\n        /* \"#utility.yul\":20456:20587   */\n      tag_140\n      jump\t// in\n    tag_354:\n        /* \"#utility.yul\":20448:20587   */\n      swap1\n      pop\n        /* \"#utility.yul\":20175:20594   */\n      swap2\n      swap1\n      pop\n      jump\t// out\n        /* \"#utility.yul\":20600:20769   */\n    tag_141:\n        /* \"#utility.yul\":20740:20761   */\n      0x206e6f7420656e6f756768207469636b65747300000000000000000000000000\n        /* \"#utility.yul\":20736:20737   */\n      0x00\n        /* \"#utility.yul\":20728:20734   */\n      dup3\n        /* \"#utility.yul\":20724:20738   */\n      add\n        /* \"#utility.yul\":20717:20762   */\n      mstore\n        /* \"#utility.yul\":20600:20769   */\n      pop\n      jump\t// out\n        /* \"#utility.yul\":20775:21141   */\n    tag_142:\n        /* \"#utility.yul\":20917:20920   */\n      0x00\n        /* \"#utility.yul\":20938:21005   */\n      tag_357\n        /* \"#utility.yul\":21002:21004   */\n      0x13\n        /* \"#utility.yul\":20997:21000   */\n      dup4\n        /* \"#utility.yul\":20938:21005   */\n      tag_108\n      jump\t// in\n    tag_357:\n        /* \"#utility.yul\":20931:21005   */\n      swap2\n      pop\n        /* \"#utility.yul\":21014:21107   */\n      tag_358\n        /* \"#utility.yul\":21103:21106   */\n      dup3\n        /* \"#utility.yul\":21014:21107   */\n      tag_141\n      jump\t// in\n    tag_358:\n        /* \"#utility.yul\":21132:21134   */\n      0x20\n        /* \"#utility.yul\":21127:21130   */\n      dup3\n        /* \"#utility.yul\":21123:21135   */\n      add\n        /* \"#utility.yul\":21116:21135   */\n      swap1\n      pop\n        /* \"#utility.yul\":20775:21141   */\n      swap2\n      swap1\n      pop\n      jump\t// out\n        /* \"#utility.yul\":21147:21566   */\n    tag_77:\n        /* \"#utility.yul\":21313:21317   */\n      0x00\n        /* \"#utility.yul\":21351:21353   */\n      0x20\n        /* \"#utility.yul\":21340:21349   */\n      dup3\n        /* \"#utility.yul\":21336:21354   */\n      add\n        /* \"#utility.yul\":21328:21354   */\n      swap1\n      pop\n        /* \"#utility.yul\":21400:21409   */\n      dup2\n        /* \"#utility.yul\":21394:21398   */\n      dup2\n        /* \"#utility.yul\":21390:21410   */\n      sub\n        /* \"#utility.yul\":21386:21387   */\n      0x00\n        /* \"#utility.yul\":21375:21384   */\n      dup4\n        /* \"#utility.yul\":21371:21388   */\n      add\n        /* \"#utility.yul\":21364:21411   */\n      mstore\n        /* \"#utility.yul\":21428:21559   */\n      tag_360\n        /* \"#utility.yul\":21554:21558   */\n      dup2\n        /* \"#utility.yul\":21428:21559   */\n      tag_142\n      jump\t// in\n    tag_360:\n        /* \"#utility.yul\":21420:21559   */\n      swap1\n      pop\n        /* \"#utility.yul\":21147:21566   */\n      swap2\n      swap1\n      pop\n      jump\t// out\n\n    auxdata: 0xa26469706673582212208c0ba6df30196437c4fdcc7640c864ef0452a9a952f4c30a426b0f9062028a2964736f6c63430008120033\n}\n",
				"bytecode": {
					"linkReferences": {},
					"object": "608060405234801561001057600080fd5b50611404806100206000396000f3fe6080604052600436106100555760003560e01c80630374ab0b1461005a5780635c29d40d146100835780637a5a2462146100ae578063d9e20b7c146100d7578063dae7a13c146100f3578063e3cd6c6414610130575b600080fd5b34801561006657600080fd5b50610081600480360381019061007c919061098e565b610172565b005b34801561008f57600080fd5b506100986102f4565b6040516100a59190610a20565b60405180910390f35b3480156100ba57600080fd5b506100d560048036038101906100d09190610a99565b6102fa565b005b6100f160048036038101906100ec9190610aec565b610510565b005b3480156100ff57600080fd5b5061011a60048036038101906101159190610b2c565b6106f5565b6040516101279190610a20565b60405180910390f35b34801561013c57600080fd5b5061015760048036038101906101529190610b6c565b61071a565b60405161016996959493929190610c27565b60405180910390f35b4283116101b4576040517f08c379a00000000000000000000000000000000000000000000000000000000081526004016101ab90610cdb565b60405180910390fd5b600081116101f7576040517f08c379a00000000000000000000000000000000000000000000000000000000081526004016101ee90610d6d565b60405180910390fd5b6040518060c001604052808581526020013373ffffffffffffffffffffffffffffffffffffffff16815260200184815260200183815260200182815260200182815250600080600254815260200190815260200160002060008201518160000190816102639190610f99565b5060208201518160010160006101000a81548173ffffffffffffffffffffffffffffffffffffffff021916908373ffffffffffffffffffffffffffffffffffffffff16021790555060408201518160020155606082015181600301556080820151816004015560a08201518160050155905050600260008154809291906102e99061109a565b919050555050505050565b60025481565b60008060008581526020019081526020016000206002015403610352576040517f08c379a00000000000000000000000000000000000000000000000000000000081526004016103499061112e565b60405180910390fd5b600080848152602001908152602001600020600201544210156103aa576040517f08c379a00000000000000000000000000000000000000000000000000000000081526004016103a19061119a565b60405180910390fd5b81600160003373ffffffffffffffffffffffffffffffffffffffff1673ffffffffffffffffffffffffffffffffffffffff168152602001908152602001600020600085815260200190815260200160002054101561043d576040517f08c379a000000000000000000000000000000000000000000000000000000000815260040161043490611206565b60405180910390fd5b81600160003373ffffffffffffffffffffffffffffffffffffffff1673ffffffffffffffffffffffffffffffffffffffff1681526020019081526020016000206000858152602001908152602001600020600082825461049d9190611226565b9250508190555081600160008373ffffffffffffffffffffffffffffffffffffffff1673ffffffffffffffffffffffffffffffffffffffff16815260200190815260200160002060008581526020019081526020016000206000828254610504919061125a565b92505081905550505050565b60008060008481526020019081526020016000206002015403610568576040517f08c379a000000000000000000000000000000000000000000000000000000000815260040161055f9061112e565b60405180910390fd5b600080838152602001908152602001600020600201544211156105c0576040517f08c379a00000000000000000000000000000000000000000000000000000000081526004016105b79061119a565b60405180910390fd5b600080600084815260200190815260200160002090508181600301546105e6919061128e565b3414610627576040517f08c379a000000000000000000000000000000000000000000000000000000000815260040161061e90611342565b60405180910390fd5b818160050154101561066e576040517f08c379a0000000000000000000000000000000000000000000000000000000008152600401610665906113ae565b60405180910390fd5b818160050160008282546106829190611226565b9250508190555081600160003373ffffffffffffffffffffffffffffffffffffffff1673ffffffffffffffffffffffffffffffffffffffff168152602001908152602001600020600085815260200190815260200160002060008282546106e9919061125a565b92505081905550505050565b6001602052816000526040600020602052806000526040600020600091509150505481565b600060205280600052604060002060009150905080600001805461073d90610dbc565b80601f016020809104026020016040519081016040528092919081815260200182805461076990610dbc565b80156107b65780601f1061078b576101008083540402835291602001916107b6565b820191906000526020600020905b81548152906001019060200180831161079957829003601f168201915b5050505050908060010160009054906101000a900473ffffffffffffffffffffffffffffffffffffffff16908060020154908060030154908060040154908060050154905086565b6000604051905090565b600080fd5b600080fd5b600080fd5b600080fd5b6000601f19601f8301169050919050565b7f4e487b7100000000000000000000000000000000000000000000000000000000600052604160045260246000fd5b6108658261081c565b810181811067ffffffffffffffff821117156108845761088361082d565b5b80604052505050565b60006108976107fe565b90506108a3828261085c565b919050565b600067ffffffffffffffff8211156108c3576108c261082d565b5b6108cc8261081c565b9050602081019050919050565b82818337600083830152505050565b60006108fb6108f6846108a8565b61088d565b90508281526020810184848401111561091757610916610817565b5b6109228482856108d9565b509392505050565b600082601f83011261093f5761093e610812565b5b813561094f8482602086016108e8565b91505092915050565b6000819050919050565b61096b81610958565b811461097657600080fd5b50565b60008135905061098881610962565b92915050565b600080600080608085870312156109a8576109a7610808565b5b600085013567ffffffffffffffff8111156109c6576109c561080d565b5b6109d28782880161092a565b94505060206109e387828801610979565b93505060406109f487828801610979565b9250506060610a0587828801610979565b91505092959194509250565b610a1a81610958565b82525050565b6000602082019050610a356000830184610a11565b92915050565b600073ffffffffffffffffffffffffffffffffffffffff82169050919050565b6000610a6682610a3b565b9050919050565b610a7681610a5b565b8114610a8157600080fd5b50565b600081359050610a9381610a6d565b92915050565b600080600060608486031215610ab257610ab1610808565b5b6000610ac086828701610979565b9350506020610ad186828701610979565b9250506040610ae286828701610a84565b9150509250925092565b60008060408385031215610b0357610b02610808565b5b6000610b1185828601610979565b9250506020610b2285828601610979565b9150509250929050565b60008060408385031215610b4357610b42610808565b5b6000610b5185828601610a84565b9250506020610b6285828601610979565b9150509250929050565b600060208284031215610b8257610b81610808565b5b6000610b9084828501610979565b91505092915050565b600081519050919050565b600082825260208201905092915050565b60005b83811015610bd3578082015181840152602081019050610bb8565b60008484015250505050565b6000610bea82610b99565b610bf48185610ba4565b9350610c04818560208601610bb5565b610c0d8161081c565b840191505092915050565b610c2181610a5b565b82525050565b600060c0820190508181036000830152610c418189610bdf565b9050610c506020830188610c18565b610c5d6040830187610a11565b610c6a6060830186610a11565b610c776080830185610a11565b610c8460a0830184610a11565b979650505050505050565b7f64617461206973206e6f7420636f727265637400000000000000000000000000600082015250565b6000610cc5601383610ba4565b9150610cd082610c8f565b602082019050919050565b60006020820190508181036000830152610cf481610cb8565b9050919050565b7f706c6561736520696e6372656173652074686520746f74616c7469636b65746e60008201527f6f00000000000000000000000000000000000000000000000000000000000000602082015250565b6000610d57602183610ba4565b9150610d6282610cfb565b604082019050919050565b60006020820190508181036000830152610d8681610d4a565b9050919050565b7f4e487b7100000000000000000000000000000000000000000000000000000000600052602260045260246000fd5b60006002820490506001821680610dd457607f821691505b602082108103610de757610de6610d8d565b5b50919050565b60008190508160005260206000209050919050565b60006020601f8301049050919050565b600082821b905092915050565b600060088302610e4f7fffffffffffffffffffffffffffffffffffffffffffffffffffffffffffffffff82610e12565b610e598683610e12565b95508019841693508086168417925050509392505050565b6000819050919050565b6000610e96610e91610e8c84610958565b610e71565b610958565b9050919050565b6000819050919050565b610eb083610e7b565b610ec4610ebc82610e9d565b848454610e1f565b825550505050565b600090565b610ed9610ecc565b610ee4818484610ea7565b505050565b5b81811015610f0857610efd600082610ed1565b600181019050610eea565b5050565b601f821115610f4d57610f1e81610ded565b610f2784610e02565b81016020851015610f36578190505b610f4a610f4285610e02565b830182610ee9565b50505b505050565b600082821c905092915050565b6000610f7060001984600802610f52565b1980831691505092915050565b6000610f898383610f5f565b9150826002028217905092915050565b610fa282610b99565b67ffffffffffffffff811115610fbb57610fba61082d565b5b610fc58254610dbc565b610fd0828285610f0c565b600060209050601f8311600181146110035760008415610ff1578287015190505b610ffb8582610f7d565b865550611063565b601f19841661101186610ded565b60005b8281101561103957848901518255600182019150602085019450602081019050611014565b868310156110565784890151611052601f891682610f5f565b8355505b6001600288020188555050505b505050505050565b7f4e487b7100000000000000000000000000000000000000000000000000000000600052601160045260246000fd5b60006110a582610958565b91507fffffffffffffffffffffffffffffffffffffffffffffffffffffffffffffffff82036110d7576110d661106b565b5b600182019050919050565b7f6576656e74206461746520697320656e64000000000000000000000000000000600082015250565b6000611118601183610ba4565b9150611123826110e2565b602082019050919050565b600060208201905081810360008301526111478161110b565b9050919050565b7f6576656e74206e6f742073746172746564207965740000000000000000000000600082015250565b6000611184601583610ba4565b915061118f8261114e565b602082019050919050565b600060208201905081810360008301526111b381611177565b9050919050565b7f796f7520646f206e6f74206861766520656e6f756768207469636b6574730000600082015250565b60006111f0601e83610ba4565b91506111fb826111ba565b602082019050919050565b6000602082019050818103600083015261121f816111e3565b9050919050565b600061123182610958565b915061123c83610958565b92508282039050818111156112545761125361106b565b5b92915050565b600061126582610958565b915061127083610958565b92508282019050808211156112885761128761106b565b5b92915050565b600061129982610958565b91506112a483610958565b92508282026112b281610958565b915082820484148315176112c9576112c861106b565b5b5092915050565b7f796f757220616d6f756e74206e6f74206d61746368696e67207769746820746f60008201527f74616c20657870656e6469747572650000000000000000000000000000000000602082015250565b600061132c602f83610ba4565b9150611337826112d0565b604082019050919050565b6000602082019050818103600083015261135b8161131f565b9050919050565b7f206e6f7420656e6f756768207469636b65747300000000000000000000000000600082015250565b6000611398601383610ba4565b91506113a382611362565b602082019050919050565b600060208201905081810360008301526113c78161138b565b905091905056fea26469706673582212208c0ba6df30196437c4fdcc7640c864ef0452a9a952f4c30a426b0f9062028a2964736f6c63430008120033",
					"opcodes": "PUSH1 0x80 PUSH1 0x40 MSTORE CALLVALUE DUP1 ISZERO PUSH2 0x10 JUMPI PUSH1 0x0 DUP1 REVERT JUMPDEST POP PUSH2 0x1404 DUP1 PUSH2 0x20 PUSH1 0x0 CODECOPY PUSH1 0x0 RETURN INVALID PUSH1 0x80 PUSH1 0x40 MSTORE PUSH1 0x4 CALLDATASIZE LT PUSH2 0x55 JUMPI PUSH1 0x0 CALLDATALOAD PUSH1 0xE0 SHR DUP1 PUSH4 0x374AB0B EQ PUSH2 0x5A JUMPI DUP1 PUSH4 0x5C29D40D EQ PUSH2 0x83 JUMPI DUP1 PUSH4 0x7A5A2462 EQ PUSH2 0xAE JUMPI DUP1 PUSH4 0xD9E20B7C EQ PUSH2 0xD7 JUMPI DUP1 PUSH4 0xDAE7A13C EQ PUSH2 0xF3 JUMPI DUP1 PUSH4 0xE3CD6C64 EQ PUSH2 0x130 JUMPI JUMPDEST PUSH1 0x0 DUP1 REVERT JUMPDEST CALLVALUE DUP1 ISZERO PUSH2 0x66 JUMPI PUSH1 0x0 DUP1 REVERT JUMPDEST POP PUSH2 0x81 PUSH1 0x4 DUP1 CALLDATASIZE SUB DUP2 ADD SWAP1 PUSH2 0x7C SWAP2 SWAP1 PUSH2 0x98E JUMP JUMPDEST PUSH2 0x172 JUMP JUMPDEST STOP JUMPDEST CALLVALUE DUP1 ISZERO PUSH2 0x8F JUMPI PUSH1 0x0 DUP1 REVERT JUMPDEST POP PUSH2 0x98 PUSH2 0x2F4 JUMP JUMPDEST PUSH1 0x40 MLOAD PUSH2 0xA5 SWAP2 SWAP1 PUSH2 0xA20 JUMP JUMPDEST PUSH1 0x40 MLOAD DUP1 SWAP2 SUB SWAP1 RETURN JUMPDEST CALLVALUE DUP1 ISZERO PUSH2 0xBA JUMPI PUSH1 0x0 DUP1 REVERT JUMPDEST POP PUSH2 0xD5 PUSH1 0x4 DUP1 CALLDATASIZE SUB DUP2 ADD SWAP1 PUSH2 0xD0 SWAP2 SWAP1 PUSH2 0xA99 JUMP JUMPDEST PUSH2 0x2FA JUMP JUMPDEST STOP JUMPDEST PUSH2 0xF1 PUSH1 0x4 DUP1 CALLDATASIZE SUB DUP2 ADD SWAP1 PUSH2 0xEC SWAP2 SWAP1 PUSH2 0xAEC JUMP JUMPDEST PUSH2 0x510 JUMP JUMPDEST STOP JUMPDEST CALLVALUE DUP1 ISZERO PUSH2 0xFF JUMPI PUSH1 0x0 DUP1 REVERT JUMPDEST POP PUSH2 0x11A PUSH1 0x4 DUP1 CALLDATASIZE SUB DUP2 ADD SWAP1 PUSH2 0x115 SWAP2 SWAP1 PUSH2 0xB2C JUMP JUMPDEST PUSH2 0x6F5 JUMP JUMPDEST PUSH1 0x40 MLOAD PUSH2 0x127 SWAP2 SWAP1 PUSH2 0xA20 JUMP JUMPDEST PUSH1 0x40 MLOAD DUP1 SWAP2 SUB SWAP1 RETURN JUMPDEST CALLVALUE DUP1 ISZERO PUSH2 0x13C JUMPI PUSH1 0x0 DUP1 REVERT JUMPDEST POP PUSH2 0x157 PUSH1 0x4 DUP1 CALLDATASIZE SUB DUP2 ADD SWAP1 PUSH2 0x152 SWAP2 SWAP1 PUSH2 0xB6C JUMP JUMPDEST PUSH2 0x71A JUMP JUMPDEST PUSH1 0x40 MLOAD PUSH2 0x169 SWAP7 SWAP6 SWAP5 SWAP4 SWAP3 SWAP2 SWAP1 PUSH2 0xC27 JUMP JUMPDEST PUSH1 0x40 MLOAD DUP1 SWAP2 SUB SWAP1 RETURN JUMPDEST TIMESTAMP DUP4 GT PUSH2 0x1B4 JUMPI PUSH1 0x40 MLOAD PUSH32 0x8C379A000000000000000000000000000000000000000000000000000000000 DUP2 MSTORE PUSH1 0x4 ADD PUSH2 0x1AB SWAP1 PUSH2 0xCDB JUMP JUMPDEST PUSH1 0x40 MLOAD DUP1 SWAP2 SUB SWAP1 REVERT JUMPDEST PUSH1 0x0 DUP2 GT PUSH2 0x1F7 JUMPI PUSH1 0x40 MLOAD PUSH32 0x8C379A000000000000000000000000000000000000000000000000000000000 DUP2 MSTORE PUSH1 0x4 ADD PUSH2 0x1EE SWAP1 PUSH2 0xD6D JUMP JUMPDEST PUSH1 0x40 MLOAD DUP1 SWAP2 SUB SWAP1 REVERT JUMPDEST PUSH1 0x40 MLOAD DUP1 PUSH1 0xC0 ADD PUSH1 0x40 MSTORE DUP1 DUP6 DUP2 MSTORE PUSH1 0x20 ADD CALLER PUSH20 0xFFFFFFFFFFFFFFFFFFFFFFFFFFFFFFFFFFFFFFFF AND DUP2 MSTORE PUSH1 0x20 ADD DUP5 DUP2 MSTORE PUSH1 0x20 ADD DUP4 DUP2 MSTORE PUSH1 0x20 ADD DUP3 DUP2 MSTORE PUSH1 0x20 ADD DUP3 DUP2 MSTORE POP PUSH1 0x0 DUP1 PUSH1 0x2 SLOAD DUP2 MSTORE PUSH1 0x20 ADD SWAP1 DUP2 MSTORE PUSH1 0x20 ADD PUSH1 0x0 KECCAK256 PUSH1 0x0 DUP3 ADD MLOAD DUP2 PUSH1 0x0 ADD SWAP1 DUP2 PUSH2 0x263 SWAP2 SWAP1 PUSH2 0xF99 JUMP JUMPDEST POP PUSH1 0x20 DUP3 ADD MLOAD DUP2 PUSH1 0x1 ADD PUSH1 0x0 PUSH2 0x100 EXP DUP2 SLOAD DUP2 PUSH20 0xFFFFFFFFFFFFFFFFFFFFFFFFFFFFFFFFFFFFFFFF MUL NOT AND SWAP1 DUP4 PUSH20 0xFFFFFFFFFFFFFFFFFFFFFFFFFFFFFFFFFFFFFFFF AND MUL OR SWAP1 SSTORE POP PUSH1 0x40 DUP3 ADD MLOAD DUP2 PUSH1 0x2 ADD SSTORE PUSH1 0x60 DUP3 ADD MLOAD DUP2 PUSH1 0x3 ADD SSTORE PUSH1 0x80 DUP3 ADD MLOAD DUP2 PUSH1 0x4 ADD SSTORE PUSH1 0xA0 DUP3 ADD MLOAD DUP2 PUSH1 0x5 ADD SSTORE SWAP1 POP POP PUSH1 0x2 PUSH1 0x0 DUP2 SLOAD DUP1 SWAP3 SWAP2 SWAP1 PUSH2 0x2E9 SWAP1 PUSH2 0x109A JUMP JUMPDEST SWAP2 SWAP1 POP SSTORE POP POP POP POP POP JUMP JUMPDEST PUSH1 0x2 SLOAD DUP2 JUMP JUMPDEST PUSH1 0x0 DUP1 PUSH1 0x0 DUP6 DUP2 MSTORE PUSH1 0x20 ADD SWAP1 DUP2 MSTORE PUSH1 0x20 ADD PUSH1 0x0 KECCAK256 PUSH1 0x2 ADD SLOAD SUB PUSH2 0x352 JUMPI PUSH1 0x40 MLOAD PUSH32 0x8C379A000000000000000000000000000000000000000000000000000000000 DUP2 MSTORE PUSH1 0x4 ADD PUSH2 0x349 SWAP1 PUSH2 0x112E JUMP JUMPDEST PUSH1 0x40 MLOAD DUP1 SWAP2 SUB SWAP1 REVERT JUMPDEST PUSH1 0x0 DUP1 DUP5 DUP2 MSTORE PUSH1 0x20 ADD SWAP1 DUP2 MSTORE PUSH1 0x20 ADD PUSH1 0x0 KECCAK256 PUSH1 0x2 ADD SLOAD TIMESTAMP LT ISZERO PUSH2 0x3AA JUMPI PUSH1 0x40 MLOAD PUSH32 0x8C379A000000000000000000000000000000000000000000000000000000000 DUP2 MSTORE PUSH1 0x4 ADD PUSH2 0x3A1 SWAP1 PUSH2 0x119A JUMP JUMPDEST PUSH1 0x40 MLOAD DUP1 SWAP2 SUB SWAP1 REVERT JUMPDEST DUP2 PUSH1 0x1 PUSH1 0x0 CALLER PUSH20 0xFFFFFFFFFFFFFFFFFFFFFFFFFFFFFFFFFFFFFFFF AND PUSH20 0xFFFFFFFFFFFFFFFFFFFFFFFFFFFFFFFFFFFFFFFF AND DUP2 MSTORE PUSH1 0x20 ADD SWAP1 DUP2 MSTORE PUSH1 0x20 ADD PUSH1 0x0 KECCAK256 PUSH1 0x0 DUP6 DUP2 MSTORE PUSH1 0x20 ADD SWAP1 DUP2 MSTORE PUSH1 0x20 ADD PUSH1 0x0 KECCAK256 SLOAD LT ISZERO PUSH2 0x43D JUMPI PUSH1 0x40 MLOAD PUSH32 0x8C379A000000000000000000000000000000000000000000000000000000000 DUP2 MSTORE PUSH1 0x4 ADD PUSH2 0x434 SWAP1 PUSH2 0x1206 JUMP JUMPDEST PUSH1 0x40 MLOAD DUP1 SWAP2 SUB SWAP1 REVERT JUMPDEST DUP2 PUSH1 0x1 PUSH1 0x0 CALLER PUSH20 0xFFFFFFFFFFFFFFFFFFFFFFFFFFFFFFFFFFFFFFFF AND PUSH20 0xFFFFFFFFFFFFFFFFFFFFFFFFFFFFFFFFFFFFFFFF AND DUP2 MSTORE PUSH1 0x20 ADD SWAP1 DUP2 MSTORE PUSH1 0x20 ADD PUSH1 0x0 KECCAK256 PUSH1 0x0 DUP6 DUP2 MSTORE PUSH1 0x20 ADD SWAP1 DUP2 MSTORE PUSH1 0x20 ADD PUSH1 0x0 KECCAK256 PUSH1 0x0 DUP3 DUP3 SLOAD PUSH2 0x49D SWAP2 SWAP1 PUSH2 0x1226 JUMP JUMPDEST SWAP3 POP POP DUP2 SWAP1 SSTORE POP DUP2 PUSH1 0x1 PUSH1 0x0 DUP4 PUSH20 0xFFFFFFFFFFFFFFFFFFFFFFFFFFFFFFFFFFFFFFFF AND PUSH20 0xFFFFFFFFFFFFFFFFFFFFFFFFFFFFFFFFFFFFFFFF AND DUP2 MSTORE PUSH1 0x20 ADD SWAP1 DUP2 MSTORE PUSH1 0x20 ADD PUSH1 0x0 KECCAK256 PUSH1 0x0 DUP6 DUP2 MSTORE PUSH1 0x20 ADD SWAP1 DUP2 MSTORE PUSH1 0x20 ADD PUSH1 0x0 KECCAK256 PUSH1 0x0 DUP3 DUP3 SLOAD PUSH2 0x504 SWAP2 SWAP1 PUSH2 0x125A JUMP JUMPDEST SWAP3 POP POP DUP2 SWAP1 SSTORE POP POP POP POP JUMP JUMPDEST PUSH1 0x0 DUP1 PUSH1 0x0 DUP5 DUP2 MSTORE PUSH1 0x20 ADD SWAP1 DUP2 MSTORE PUSH1 0x20 ADD PUSH1 0x0 KECCAK256 PUSH1 0x2 ADD SLOAD SUB PUSH2 0x568 JUMPI PUSH1 0x40 MLOAD PUSH32 0x8C379A000000000000000000000000000000000000000000000000000000000 DUP2 MSTORE PUSH1 0x4 ADD PUSH2 0x55F SWAP1 PUSH2 0x112E JUMP JUMPDEST PUSH1 0x40 MLOAD DUP1 SWAP2 SUB SWAP1 REVERT JUMPDEST PUSH1 0x0 DUP1 DUP4 DUP2 MSTORE PUSH1 0x20 ADD SWAP1 DUP2 MSTORE PUSH1 0x20 ADD PUSH1 0x0 KECCAK256 PUSH1 0x2 ADD SLOAD TIMESTAMP GT ISZERO PUSH2 0x5C0 JUMPI PUSH1 0x40 MLOAD PUSH32 0x8C379A000000000000000000000000000000000000000000000000000000000 DUP2 MSTORE PUSH1 0x4 ADD PUSH2 0x5B7 SWAP1 PUSH2 0x119A JUMP JUMPDEST PUSH1 0x40 MLOAD DUP1 SWAP2 SUB SWAP1 REVERT JUMPDEST PUSH1 0x0 DUP1 PUSH1 0x0 DUP5 DUP2 MSTORE PUSH1 0x20 ADD SWAP1 DUP2 MSTORE PUSH1 0x20 ADD PUSH1 0x0 KECCAK256 SWAP1 POP DUP2 DUP2 PUSH1 0x3 ADD SLOAD PUSH2 0x5E6 SWAP2 SWAP1 PUSH2 0x128E JUMP JUMPDEST CALLVALUE EQ PUSH2 0x627 JUMPI PUSH1 0x40 MLOAD PUSH32 0x8C379A000000000000000000000000000000000000000000000000000000000 DUP2 MSTORE PUSH1 0x4 ADD PUSH2 0x61E SWAP1 PUSH2 0x1342 JUMP JUMPDEST PUSH1 0x40 MLOAD DUP1 SWAP2 SUB SWAP1 REVERT JUMPDEST DUP2 DUP2 PUSH1 0x5 ADD SLOAD LT ISZERO PUSH2 0x66E JUMPI PUSH1 0x40 MLOAD PUSH32 0x8C379A000000000000000000000000000000000000000000000000000000000 DUP2 MSTORE PUSH1 0x4 ADD PUSH2 0x665 SWAP1 PUSH2 0x13AE JUMP JUMPDEST PUSH1 0x40 MLOAD DUP1 SWAP2 SUB SWAP1 REVERT JUMPDEST DUP2 DUP2 PUSH1 0x5 ADD PUSH1 0x0 DUP3 DUP3 SLOAD PUSH2 0x682 SWAP2 SWAP1 PUSH2 0x1226 JUMP JUMPDEST SWAP3 POP POP DUP2 SWAP1 SSTORE POP DUP2 PUSH1 0x1 PUSH1 0x0 CALLER PUSH20 0xFFFFFFFFFFFFFFFFFFFFFFFFFFFFFFFFFFFFFFFF AND PUSH20 0xFFFFFFFFFFFFFFFFFFFFFFFFFFFFFFFFFFFFFFFF AND DUP2 MSTORE PUSH1 0x20 ADD SWAP1 DUP2 MSTORE PUSH1 0x20 ADD PUSH1 0x0 KECCAK256 PUSH1 0x0 DUP6 DUP2 MSTORE PUSH1 0x20 ADD SWAP1 DUP2 MSTORE PUSH1 0x20 ADD PUSH1 0x0 KECCAK256 PUSH1 0x0 DUP3 DUP3 SLOAD PUSH2 0x6E9 SWAP2 SWAP1 PUSH2 0x125A JUMP JUMPDEST SWAP3 POP POP DUP2 SWAP1 SSTORE POP POP POP POP JUMP JUMPDEST PUSH1 0x1 PUSH1 0x20 MSTORE DUP2 PUSH1 0x0 MSTORE PUSH1 0x40 PUSH1 0x0 KECCAK256 PUSH1 0x20 MSTORE DUP1 PUSH1 0x0 MSTORE PUSH1 0x40 PUSH1 0x0 KECCAK256 PUSH1 0x0 SWAP2 POP SWAP2 POP POP SLOAD DUP2 JUMP JUMPDEST PUSH1 0x0 PUSH1 0x20 MSTORE DUP1 PUSH1 0x0 MSTORE PUSH1 0x40 PUSH1 0x0 KECCAK256 PUSH1 0x0 SWAP2 POP SWAP1 POP DUP1 PUSH1 0x0 ADD DUP1 SLOAD PUSH2 0x73D SWAP1 PUSH2 0xDBC JUMP JUMPDEST DUP1 PUSH1 0x1F ADD PUSH1 0x20 DUP1 SWAP2 DIV MUL PUSH1 0x20 ADD PUSH1 0x40 MLOAD SWAP1 DUP2 ADD PUSH1 0x40 MSTORE DUP1 SWAP3 SWAP2 SWAP1 DUP2 DUP2 MSTORE PUSH1 0x20 ADD DUP3 DUP1 SLOAD PUSH2 0x769 SWAP1 PUSH2 0xDBC JUMP JUMPDEST DUP1 ISZERO PUSH2 0x7B6 JUMPI DUP1 PUSH1 0x1F LT PUSH2 0x78B JUMPI PUSH2 0x100 DUP1 DUP4 SLOAD DIV MUL DUP4 MSTORE SWAP2 PUSH1 0x20 ADD SWAP2 PUSH2 0x7B6 JUMP JUMPDEST DUP3 ADD SWAP2 SWAP1 PUSH1 0x0 MSTORE PUSH1 0x20 PUSH1 0x0 KECCAK256 SWAP1 JUMPDEST DUP2 SLOAD DUP2 MSTORE SWAP1 PUSH1 0x1 ADD SWAP1 PUSH1 0x20 ADD DUP1 DUP4 GT PUSH2 0x799 JUMPI DUP3 SWAP1 SUB PUSH1 0x1F AND DUP3 ADD SWAP2 JUMPDEST POP POP POP POP POP SWAP1 DUP1 PUSH1 0x1 ADD PUSH1 0x0 SWAP1 SLOAD SWAP1 PUSH2 0x100 EXP SWAP1 DIV PUSH20 0xFFFFFFFFFFFFFFFFFFFFFFFFFFFFFFFFFFFFFFFF AND SWAP1 DUP1 PUSH1 0x2 ADD SLOAD SWAP1 DUP1 PUSH1 0x3 ADD SLOAD SWAP1 DUP1 PUSH1 0x4 ADD SLOAD SWAP1 DUP1 PUSH1 0x5 ADD SLOAD SWAP1 POP DUP7 JUMP JUMPDEST PUSH1 0x0 PUSH1 0x40 MLOAD SWAP1 POP SWAP1 JUMP JUMPDEST PUSH1 0x0 DUP1 REVERT JUMPDEST PUSH1 0x0 DUP1 REVERT JUMPDEST PUSH1 0x0 DUP1 REVERT JUMPDEST PUSH1 0x0 DUP1 REVERT JUMPDEST PUSH1 0x0 PUSH1 0x1F NOT PUSH1 0x1F DUP4 ADD AND SWAP1 POP SWAP2 SWAP1 POP JUMP JUMPDEST PUSH32 0x4E487B7100000000000000000000000000000000000000000000000000000000 PUSH1 0x0 MSTORE PUSH1 0x41 PUSH1 0x4 MSTORE PUSH1 0x24 PUSH1 0x0 REVERT JUMPDEST PUSH2 0x865 DUP3 PUSH2 0x81C JUMP JUMPDEST DUP2 ADD DUP2 DUP2 LT PUSH8 0xFFFFFFFFFFFFFFFF DUP3 GT OR ISZERO PUSH2 0x884 JUMPI PUSH2 0x883 PUSH2 0x82D JUMP JUMPDEST JUMPDEST DUP1 PUSH1 0x40 MSTORE POP POP POP JUMP JUMPDEST PUSH1 0x0 PUSH2 0x897 PUSH2 0x7FE JUMP JUMPDEST SWAP1 POP PUSH2 0x8A3 DUP3 DUP3 PUSH2 0x85C JUMP JUMPDEST SWAP2 SWAP1 POP JUMP JUMPDEST PUSH1 0x0 PUSH8 0xFFFFFFFFFFFFFFFF DUP3 GT ISZERO PUSH2 0x8C3 JUMPI PUSH2 0x8C2 PUSH2 0x82D JUMP JUMPDEST JUMPDEST PUSH2 0x8CC DUP3 PUSH2 0x81C JUMP JUMPDEST SWAP1 POP PUSH1 0x20 DUP2 ADD SWAP1 POP SWAP2 SWAP1 POP JUMP JUMPDEST DUP3 DUP2 DUP4 CALLDATACOPY PUSH1 0x0 DUP4 DUP4 ADD MSTORE POP POP POP JUMP JUMPDEST PUSH1 0x0 PUSH2 0x8FB PUSH2 0x8F6 DUP5 PUSH2 0x8A8 JUMP JUMPDEST PUSH2 0x88D JUMP JUMPDEST SWAP1 POP DUP3 DUP2 MSTORE PUSH1 0x20 DUP2 ADD DUP5 DUP5 DUP5 ADD GT ISZERO PUSH2 0x917 JUMPI PUSH2 0x916 PUSH2 0x817 JUMP JUMPDEST JUMPDEST PUSH2 0x922 DUP5 DUP3 DUP6 PUSH2 0x8D9 JUMP JUMPDEST POP SWAP4 SWAP3 POP POP POP JUMP JUMPDEST PUSH1 0x0 DUP3 PUSH1 0x1F DUP4 ADD SLT PUSH2 0x93F JUMPI PUSH2 0x93E PUSH2 0x812 JUMP JUMPDEST JUMPDEST DUP2 CALLDATALOAD PUSH2 0x94F DUP5 DUP3 PUSH1 0x20 DUP7 ADD PUSH2 0x8E8 JUMP JUMPDEST SWAP2 POP POP SWAP3 SWAP2 POP POP JUMP JUMPDEST PUSH1 0x0 DUP2 SWAP1 POP SWAP2 SWAP1 POP JUMP JUMPDEST PUSH2 0x96B DUP2 PUSH2 0x958 JUMP JUMPDEST DUP2 EQ PUSH2 0x976 JUMPI PUSH1 0x0 DUP1 REVERT JUMPDEST POP JUMP JUMPDEST PUSH1 0x0 DUP2 CALLDATALOAD SWAP1 POP PUSH2 0x988 DUP2 PUSH2 0x962 JUMP JUMPDEST SWAP3 SWAP2 POP POP JUMP JUMPDEST PUSH1 0x0 DUP1 PUSH1 0x0 DUP1 PUSH1 0x80 DUP6 DUP8 SUB SLT ISZERO PUSH2 0x9A8 JUMPI PUSH2 0x9A7 PUSH2 0x808 JUMP JUMPDEST JUMPDEST PUSH1 0x0 DUP6 ADD CALLDATALOAD PUSH8 0xFFFFFFFFFFFFFFFF DUP2 GT ISZERO PUSH2 0x9C6 JUMPI PUSH2 0x9C5 PUSH2 0x80D JUMP JUMPDEST JUMPDEST PUSH2 0x9D2 DUP8 DUP3 DUP9 ADD PUSH2 0x92A JUMP JUMPDEST SWAP5 POP POP PUSH1 0x20 PUSH2 0x9E3 DUP8 DUP3 DUP9 ADD PUSH2 0x979 JUMP JUMPDEST SWAP4 POP POP PUSH1 0x40 PUSH2 0x9F4 DUP8 DUP3 DUP9 ADD PUSH2 0x979 JUMP JUMPDEST SWAP3 POP POP PUSH1 0x60 PUSH2 0xA05 DUP8 DUP3 DUP9 ADD PUSH2 0x979 JUMP JUMPDEST SWAP2 POP POP SWAP3 SWAP6 SWAP2 SWAP5 POP SWAP3 POP JUMP JUMPDEST PUSH2 0xA1A DUP2 PUSH2 0x958 JUMP JUMPDEST DUP3 MSTORE POP POP JUMP JUMPDEST PUSH1 0x0 PUSH1 0x20 DUP3 ADD SWAP1 POP PUSH2 0xA35 PUSH1 0x0 DUP4 ADD DUP5 PUSH2 0xA11 JUMP JUMPDEST SWAP3 SWAP2 POP POP JUMP JUMPDEST PUSH1 0x0 PUSH20 0xFFFFFFFFFFFFFFFFFFFFFFFFFFFFFFFFFFFFFFFF DUP3 AND SWAP1 POP SWAP2 SWAP1 POP JUMP JUMPDEST PUSH1 0x0 PUSH2 0xA66 DUP3 PUSH2 0xA3B JUMP JUMPDEST SWAP1 POP SWAP2 SWAP1 POP JUMP JUMPDEST PUSH2 0xA76 DUP2 PUSH2 0xA5B JUMP JUMPDEST DUP2 EQ PUSH2 0xA81 JUMPI PUSH1 0x0 DUP1 REVERT JUMPDEST POP JUMP JUMPDEST PUSH1 0x0 DUP2 CALLDATALOAD SWAP1 POP PUSH2 0xA93 DUP2 PUSH2 0xA6D JUMP JUMPDEST SWAP3 SWAP2 POP POP JUMP JUMPDEST PUSH1 0x0 DUP1 PUSH1 0x0 PUSH1 0x60 DUP5 DUP7 SUB SLT ISZERO PUSH2 0xAB2 JUMPI PUSH2 0xAB1 PUSH2 0x808 JUMP JUMPDEST JUMPDEST PUSH1 0x0 PUSH2 0xAC0 DUP7 DUP3 DUP8 ADD PUSH2 0x979 JUMP JUMPDEST SWAP4 POP POP PUSH1 0x20 PUSH2 0xAD1 DUP7 DUP3 DUP8 ADD PUSH2 0x979 JUMP JUMPDEST SWAP3 POP POP PUSH1 0x40 PUSH2 0xAE2 DUP7 DUP3 DUP8 ADD PUSH2 0xA84 JUMP JUMPDEST SWAP2 POP POP SWAP3 POP SWAP3 POP SWAP3 JUMP JUMPDEST PUSH1 0x0 DUP1 PUSH1 0x40 DUP4 DUP6 SUB SLT ISZERO PUSH2 0xB03 JUMPI PUSH2 0xB02 PUSH2 0x808 JUMP JUMPDEST JUMPDEST PUSH1 0x0 PUSH2 0xB11 DUP6 DUP3 DUP7 ADD PUSH2 0x979 JUMP JUMPDEST SWAP3 POP POP PUSH1 0x20 PUSH2 0xB22 DUP6 DUP3 DUP7 ADD PUSH2 0x979 JUMP JUMPDEST SWAP2 POP POP SWAP3 POP SWAP3 SWAP1 POP JUMP JUMPDEST PUSH1 0x0 DUP1 PUSH1 0x40 DUP4 DUP6 SUB SLT ISZERO PUSH2 0xB43 JUMPI PUSH2 0xB42 PUSH2 0x808 JUMP JUMPDEST JUMPDEST PUSH1 0x0 PUSH2 0xB51 DUP6 DUP3 DUP7 ADD PUSH2 0xA84 JUMP JUMPDEST SWAP3 POP POP PUSH1 0x20 PUSH2 0xB62 DUP6 DUP3 DUP7 ADD PUSH2 0x979 JUMP JUMPDEST SWAP2 POP POP SWAP3 POP SWAP3 SWAP1 POP JUMP JUMPDEST PUSH1 0x0 PUSH1 0x20 DUP3 DUP5 SUB SLT ISZERO PUSH2 0xB82 JUMPI PUSH2 0xB81 PUSH2 0x808 JUMP JUMPDEST JUMPDEST PUSH1 0x0 PUSH2 0xB90 DUP5 DUP3 DUP6 ADD PUSH2 0x979 JUMP JUMPDEST SWAP2 POP POP SWAP3 SWAP2 POP POP JUMP JUMPDEST PUSH1 0x0 DUP2 MLOAD SWAP1 POP SWAP2 SWAP1 POP JUMP JUMPDEST PUSH1 0x0 DUP3 DUP3 MSTORE PUSH1 0x20 DUP3 ADD SWAP1 POP SWAP3 SWAP2 POP POP JUMP JUMPDEST PUSH1 0x0 JUMPDEST DUP4 DUP2 LT ISZERO PUSH2 0xBD3 JUMPI DUP1 DUP3 ADD MLOAD DUP2 DUP5 ADD MSTORE PUSH1 0x20 DUP2 ADD SWAP1 POP PUSH2 0xBB8 JUMP JUMPDEST PUSH1 0x0 DUP5 DUP5 ADD MSTORE POP POP POP POP JUMP JUMPDEST PUSH1 0x0 PUSH2 0xBEA DUP3 PUSH2 0xB99 JUMP JUMPDEST PUSH2 0xBF4 DUP2 DUP6 PUSH2 0xBA4 JUMP JUMPDEST SWAP4 POP PUSH2 0xC04 DUP2 DUP6 PUSH1 0x20 DUP7 ADD PUSH2 0xBB5 JUMP JUMPDEST PUSH2 0xC0D DUP2 PUSH2 0x81C JUMP JUMPDEST DUP5 ADD SWAP2 POP POP SWAP3 SWAP2 POP POP JUMP JUMPDEST PUSH2 0xC21 DUP2 PUSH2 0xA5B JUMP JUMPDEST DUP3 MSTORE POP POP JUMP JUMPDEST PUSH1 0x0 PUSH1 0xC0 DUP3 ADD SWAP1 POP DUP2 DUP2 SUB PUSH1 0x0 DUP4 ADD MSTORE PUSH2 0xC41 DUP2 DUP10 PUSH2 0xBDF JUMP JUMPDEST SWAP1 POP PUSH2 0xC50 PUSH1 0x20 DUP4 ADD DUP9 PUSH2 0xC18 JUMP JUMPDEST PUSH2 0xC5D PUSH1 0x40 DUP4 ADD DUP8 PUSH2 0xA11 JUMP JUMPDEST PUSH2 0xC6A PUSH1 0x60 DUP4 ADD DUP7 PUSH2 0xA11 JUMP JUMPDEST PUSH2 0xC77 PUSH1 0x80 DUP4 ADD DUP6 PUSH2 0xA11 JUMP JUMPDEST PUSH2 0xC84 PUSH1 0xA0 DUP4 ADD DUP5 PUSH2 0xA11 JUMP JUMPDEST SWAP8 SWAP7 POP POP POP POP POP POP POP JUMP JUMPDEST PUSH32 0x64617461206973206E6F7420636F727265637400000000000000000000000000 PUSH1 0x0 DUP3 ADD MSTORE POP JUMP JUMPDEST PUSH1 0x0 PUSH2 0xCC5 PUSH1 0x13 DUP4 PUSH2 0xBA4 JUMP JUMPDEST SWAP2 POP PUSH2 0xCD0 DUP3 PUSH2 0xC8F JUMP JUMPDEST PUSH1 0x20 DUP3 ADD SWAP1 POP SWAP2 SWAP1 POP JUMP JUMPDEST PUSH1 0x0 PUSH1 0x20 DUP3 ADD SWAP1 POP DUP2 DUP2 SUB PUSH1 0x0 DUP4 ADD MSTORE PUSH2 0xCF4 DUP2 PUSH2 0xCB8 JUMP JUMPDEST SWAP1 POP SWAP2 SWAP1 POP JUMP JUMPDEST PUSH32 0x706C6561736520696E6372656173652074686520746F74616C7469636B65746E PUSH1 0x0 DUP3 ADD MSTORE PUSH32 0x6F00000000000000000000000000000000000000000000000000000000000000 PUSH1 0x20 DUP3 ADD MSTORE POP JUMP JUMPDEST PUSH1 0x0 PUSH2 0xD57 PUSH1 0x21 DUP4 PUSH2 0xBA4 JUMP JUMPDEST SWAP2 POP PUSH2 0xD62 DUP3 PUSH2 0xCFB JUMP JUMPDEST PUSH1 0x40 DUP3 ADD SWAP1 POP SWAP2 SWAP1 POP JUMP JUMPDEST PUSH1 0x0 PUSH1 0x20 DUP3 ADD SWAP1 POP DUP2 DUP2 SUB PUSH1 0x0 DUP4 ADD MSTORE PUSH2 0xD86 DUP2 PUSH2 0xD4A JUMP JUMPDEST SWAP1 POP SWAP2 SWAP1 POP JUMP JUMPDEST PUSH32 0x4E487B7100000000000000000000000000000000000000000000000000000000 PUSH1 0x0 MSTORE PUSH1 0x22 PUSH1 0x4 MSTORE PUSH1 0x24 PUSH1 0x0 REVERT JUMPDEST PUSH1 0x0 PUSH1 0x2 DUP3 DIV SWAP1 POP PUSH1 0x1 DUP3 AND DUP1 PUSH2 0xDD4 JUMPI PUSH1 0x7F DUP3 AND SWAP2 POP JUMPDEST PUSH1 0x20 DUP3 LT DUP2 SUB PUSH2 0xDE7 JUMPI PUSH2 0xDE6 PUSH2 0xD8D JUMP JUMPDEST JUMPDEST POP SWAP2 SWAP1 POP JUMP JUMPDEST PUSH1 0x0 DUP2 SWAP1 POP DUP2 PUSH1 0x0 MSTORE PUSH1 0x20 PUSH1 0x0 KECCAK256 SWAP1 POP SWAP2 SWAP1 POP JUMP JUMPDEST PUSH1 0x0 PUSH1 0x20 PUSH1 0x1F DUP4 ADD DIV SWAP1 POP SWAP2 SWAP1 POP JUMP JUMPDEST PUSH1 0x0 DUP3 DUP3 SHL SWAP1 POP SWAP3 SWAP2 POP POP JUMP JUMPDEST PUSH1 0x0 PUSH1 0x8 DUP4 MUL PUSH2 0xE4F PUSH32 0xFFFFFFFFFFFFFFFFFFFFFFFFFFFFFFFFFFFFFFFFFFFFFFFFFFFFFFFFFFFFFFFF DUP3 PUSH2 0xE12 JUMP JUMPDEST PUSH2 0xE59 DUP7 DUP4 PUSH2 0xE12 JUMP JUMPDEST SWAP6 POP DUP1 NOT DUP5 AND SWAP4 POP DUP1 DUP7 AND DUP5 OR SWAP3 POP POP POP SWAP4 SWAP3 POP POP POP JUMP JUMPDEST PUSH1 0x0 DUP2 SWAP1 POP SWAP2 SWAP1 POP JUMP JUMPDEST PUSH1 0x0 PUSH2 0xE96 PUSH2 0xE91 PUSH2 0xE8C DUP5 PUSH2 0x958 JUMP JUMPDEST PUSH2 0xE71 JUMP JUMPDEST PUSH2 0x958 JUMP JUMPDEST SWAP1 POP SWAP2 SWAP1 POP JUMP JUMPDEST PUSH1 0x0 DUP2 SWAP1 POP SWAP2 SWAP1 POP JUMP JUMPDEST PUSH2 0xEB0 DUP4 PUSH2 0xE7B JUMP JUMPDEST PUSH2 0xEC4 PUSH2 0xEBC DUP3 PUSH2 0xE9D JUMP JUMPDEST DUP5 DUP5 SLOAD PUSH2 0xE1F JUMP JUMPDEST DUP3 SSTORE POP POP POP POP JUMP JUMPDEST PUSH1 0x0 SWAP1 JUMP JUMPDEST PUSH2 0xED9 PUSH2 0xECC JUMP JUMPDEST PUSH2 0xEE4 DUP2 DUP5 DUP5 PUSH2 0xEA7 JUMP JUMPDEST POP POP POP JUMP JUMPDEST JUMPDEST DUP2 DUP2 LT ISZERO PUSH2 0xF08 JUMPI PUSH2 0xEFD PUSH1 0x0 DUP3 PUSH2 0xED1 JUMP JUMPDEST PUSH1 0x1 DUP2 ADD SWAP1 POP PUSH2 0xEEA JUMP JUMPDEST POP POP JUMP JUMPDEST PUSH1 0x1F DUP3 GT ISZERO PUSH2 0xF4D JUMPI PUSH2 0xF1E DUP2 PUSH2 0xDED JUMP JUMPDEST PUSH2 0xF27 DUP5 PUSH2 0xE02 JUMP JUMPDEST DUP2 ADD PUSH1 0x20 DUP6 LT ISZERO PUSH2 0xF36 JUMPI DUP2 SWAP1 POP JUMPDEST PUSH2 0xF4A PUSH2 0xF42 DUP6 PUSH2 0xE02 JUMP JUMPDEST DUP4 ADD DUP3 PUSH2 0xEE9 JUMP JUMPDEST POP POP JUMPDEST POP POP POP JUMP JUMPDEST PUSH1 0x0 DUP3 DUP3 SHR SWAP1 POP SWAP3 SWAP2 POP POP JUMP JUMPDEST PUSH1 0x0 PUSH2 0xF70 PUSH1 0x0 NOT DUP5 PUSH1 0x8 MUL PUSH2 0xF52 JUMP JUMPDEST NOT DUP1 DUP4 AND SWAP2 POP POP SWAP3 SWAP2 POP POP JUMP JUMPDEST PUSH1 0x0 PUSH2 0xF89 DUP4 DUP4 PUSH2 0xF5F JUMP JUMPDEST SWAP2 POP DUP3 PUSH1 0x2 MUL DUP3 OR SWAP1 POP SWAP3 SWAP2 POP POP JUMP JUMPDEST PUSH2 0xFA2 DUP3 PUSH2 0xB99 JUMP JUMPDEST PUSH8 0xFFFFFFFFFFFFFFFF DUP2 GT ISZERO PUSH2 0xFBB JUMPI PUSH2 0xFBA PUSH2 0x82D JUMP JUMPDEST JUMPDEST PUSH2 0xFC5 DUP3 SLOAD PUSH2 0xDBC JUMP JUMPDEST PUSH2 0xFD0 DUP3 DUP3 DUP6 PUSH2 0xF0C JUMP JUMPDEST PUSH1 0x0 PUSH1 0x20 SWAP1 POP PUSH1 0x1F DUP4 GT PUSH1 0x1 DUP2 EQ PUSH2 0x1003 JUMPI PUSH1 0x0 DUP5 ISZERO PUSH2 0xFF1 JUMPI DUP3 DUP8 ADD MLOAD SWAP1 POP JUMPDEST PUSH2 0xFFB DUP6 DUP3 PUSH2 0xF7D JUMP JUMPDEST DUP7 SSTORE POP PUSH2 0x1063 JUMP JUMPDEST PUSH1 0x1F NOT DUP5 AND PUSH2 0x1011 DUP7 PUSH2 0xDED JUMP JUMPDEST PUSH1 0x0 JUMPDEST DUP3 DUP2 LT ISZERO PUSH2 0x1039 JUMPI DUP5 DUP10 ADD MLOAD DUP3 SSTORE PUSH1 0x1 DUP3 ADD SWAP2 POP PUSH1 0x20 DUP6 ADD SWAP5 POP PUSH1 0x20 DUP2 ADD SWAP1 POP PUSH2 0x1014 JUMP JUMPDEST DUP7 DUP4 LT ISZERO PUSH2 0x1056 JUMPI DUP5 DUP10 ADD MLOAD PUSH2 0x1052 PUSH1 0x1F DUP10 AND DUP3 PUSH2 0xF5F JUMP JUMPDEST DUP4 SSTORE POP JUMPDEST PUSH1 0x1 PUSH1 0x2 DUP9 MUL ADD DUP9 SSTORE POP POP POP JUMPDEST POP POP POP POP POP POP JUMP JUMPDEST PUSH32 0x4E487B7100000000000000000000000000000000000000000000000000000000 PUSH1 0x0 MSTORE PUSH1 0x11 PUSH1 0x4 MSTORE PUSH1 0x24 PUSH1 0x0 REVERT JUMPDEST PUSH1 0x0 PUSH2 0x10A5 DUP3 PUSH2 0x958 JUMP JUMPDEST SWAP2 POP PUSH32 0xFFFFFFFFFFFFFFFFFFFFFFFFFFFFFFFFFFFFFFFFFFFFFFFFFFFFFFFFFFFFFFFF DUP3 SUB PUSH2 0x10D7 JUMPI PUSH2 0x10D6 PUSH2 0x106B JUMP JUMPDEST JUMPDEST PUSH1 0x1 DUP3 ADD SWAP1 POP SWAP2 SWAP1 POP JUMP JUMPDEST PUSH32 0x6576656E74206461746520697320656E64000000000000000000000000000000 PUSH1 0x0 DUP3 ADD MSTORE POP JUMP JUMPDEST PUSH1 0x0 PUSH2 0x1118 PUSH1 0x11 DUP4 PUSH2 0xBA4 JUMP JUMPDEST SWAP2 POP PUSH2 0x1123 DUP3 PUSH2 0x10E2 JUMP JUMPDEST PUSH1 0x20 DUP3 ADD SWAP1 POP SWAP2 SWAP1 POP JUMP JUMPDEST PUSH1 0x0 PUSH1 0x20 DUP3 ADD SWAP1 POP DUP2 DUP2 SUB PUSH1 0x0 DUP4 ADD MSTORE PUSH2 0x1147 DUP2 PUSH2 0x110B JUMP JUMPDEST SWAP1 POP SWAP2 SWAP1 POP JUMP JUMPDEST PUSH32 0x6576656E74206E6F742073746172746564207965740000000000000000000000 PUSH1 0x0 DUP3 ADD MSTORE POP JUMP JUMPDEST PUSH1 0x0 PUSH2 0x1184 PUSH1 0x15 DUP4 PUSH2 0xBA4 JUMP JUMPDEST SWAP2 POP PUSH2 0x118F DUP3 PUSH2 0x114E JUMP JUMPDEST PUSH1 0x20 DUP3 ADD SWAP1 POP SWAP2 SWAP1 POP JUMP JUMPDEST PUSH1 0x0 PUSH1 0x20 DUP3 ADD SWAP1 POP DUP2 DUP2 SUB PUSH1 0x0 DUP4 ADD MSTORE PUSH2 0x11B3 DUP2 PUSH2 0x1177 JUMP JUMPDEST SWAP1 POP SWAP2 SWAP1 POP JUMP JUMPDEST PUSH32 0x796F7520646F206E6F74206861766520656E6F756768207469636B6574730000 PUSH1 0x0 DUP3 ADD MSTORE POP JUMP JUMPDEST PUSH1 0x0 PUSH2 0x11F0 PUSH1 0x1E DUP4 PUSH2 0xBA4 JUMP JUMPDEST SWAP2 POP PUSH2 0x11FB DUP3 PUSH2 0x11BA JUMP JUMPDEST PUSH1 0x20 DUP3 ADD SWAP1 POP SWAP2 SWAP1 POP JUMP JUMPDEST PUSH1 0x0 PUSH1 0x20 DUP3 ADD SWAP1 POP DUP2 DUP2 SUB PUSH1 0x0 DUP4 ADD MSTORE PUSH2 0x121F DUP2 PUSH2 0x11E3 JUMP JUMPDEST SWAP1 POP SWAP2 SWAP1 POP JUMP JUMPDEST PUSH1 0x0 PUSH2 0x1231 DUP3 PUSH2 0x958 JUMP JUMPDEST SWAP2 POP PUSH2 0x123C DUP4 PUSH2 0x958 JUMP JUMPDEST SWAP3 POP DUP3 DUP3 SUB SWAP1 POP DUP2 DUP2 GT ISZERO PUSH2 0x1254 JUMPI PUSH2 0x1253 PUSH2 0x106B JUMP JUMPDEST JUMPDEST SWAP3 SWAP2 POP POP JUMP JUMPDEST PUSH1 0x0 PUSH2 0x1265 DUP3 PUSH2 0x958 JUMP JUMPDEST SWAP2 POP PUSH2 0x1270 DUP4 PUSH2 0x958 JUMP JUMPDEST SWAP3 POP DUP3 DUP3 ADD SWAP1 POP DUP1 DUP3 GT ISZERO PUSH2 0x1288 JUMPI PUSH2 0x1287 PUSH2 0x106B JUMP JUMPDEST JUMPDEST SWAP3 SWAP2 POP POP JUMP JUMPDEST PUSH1 0x0 PUSH2 0x1299 DUP3 PUSH2 0x958 JUMP JUMPDEST SWAP2 POP PUSH2 0x12A4 DUP4 PUSH2 0x958 JUMP JUMPDEST SWAP3 POP DUP3 DUP3 MUL PUSH2 0x12B2 DUP2 PUSH2 0x958 JUMP JUMPDEST SWAP2 POP DUP3 DUP3 DIV DUP5 EQ DUP4 ISZERO OR PUSH2 0x12C9 JUMPI PUSH2 0x12C8 PUSH2 0x106B JUMP JUMPDEST JUMPDEST POP SWAP3 SWAP2 POP POP JUMP JUMPDEST PUSH32 0x796F757220616D6F756E74206E6F74206D61746368696E67207769746820746F PUSH1 0x0 DUP3 ADD MSTORE PUSH32 0x74616C20657870656E6469747572650000000000000000000000000000000000 PUSH1 0x20 DUP3 ADD MSTORE POP JUMP JUMPDEST PUSH1 0x0 PUSH2 0x132C PUSH1 0x2F DUP4 PUSH2 0xBA4 JUMP JUMPDEST SWAP2 POP PUSH2 0x1337 DUP3 PUSH2 0x12D0 JUMP JUMPDEST PUSH1 0x40 DUP3 ADD SWAP1 POP SWAP2 SWAP1 POP JUMP JUMPDEST PUSH1 0x0 PUSH1 0x20 DUP3 ADD SWAP1 POP DUP2 DUP2 SUB PUSH1 0x0 DUP4 ADD MSTORE PUSH2 0x135B DUP2 PUSH2 0x131F JUMP JUMPDEST SWAP1 POP SWAP2 SWAP1 POP JUMP JUMPDEST PUSH32 0x206E6F7420656E6F756768207469636B65747300000000000000000000000000 PUSH1 0x0 DUP3 ADD MSTORE POP JUMP JUMPDEST PUSH1 0x0 PUSH2 0x1398 PUSH1 0x13 DUP4 PUSH2 0xBA4 JUMP JUMPDEST SWAP2 POP PUSH2 0x13A3 DUP3 PUSH2 0x1362 JUMP JUMPDEST PUSH1 0x20 DUP3 ADD SWAP1 POP SWAP2 SWAP1 POP JUMP JUMPDEST PUSH1 0x0 PUSH1 0x20 DUP3 ADD SWAP1 POP DUP2 DUP2 SUB PUSH1 0x0 DUP4 ADD MSTORE PUSH2 0x13C7 DUP2 PUSH2 0x138B JUMP JUMPDEST SWAP1 POP SWAP2 SWAP1 POP JUMP INVALID LOG2 PUSH5 0x6970667358 0x22 SLT KECCAK256 DUP13 SIGNEXTEND 0xA6 0xDF ADDRESS NOT PUSH5 0x37C4FDCC76 BLOCKHASH 0xC8 PUSH5 0xEF0452A9A9 MSTORE DELEGATECALL 0xC3 EXP TIMESTAMP PUSH12 0xF9062028A2964736F6C6343 STOP ADDMOD SLT STOP CALLER "
				},
				"gasEstimates": {
					"creation": {
						"codeDepositCost": "1024800",
						"executionCost": "1067",
						"totalCost": "1025867"
					},
					"external": {
						"buyticket(uint256,uint256)": "infinite",
						"createEvent(string,uint256,uint256,uint256)": "infinite",
						"eventbynumber(uint256)": "infinite",
						"nextid()": "2429",
						"tickets(address,uint256)": "infinite",
						"transferticket(uint256,uint256,address)": "infinite"
					}
				},
				"methodIdentifiers": {
					"buyticket(uint256,uint256)": "d9e20b7c",
					"createEvent(string,uint256,uint256,uint256)": "0374ab0b",
					"eventbynumber(uint256)": "e3cd6c64",
					"nextid()": "5c29d40d",
					"tickets(address,uint256)": "dae7a13c",
					"transferticket(uint256,uint256,address)": "7a5a2462"
				}
			},
			"storageLayout": {
				"storage": [
					{
						"astId": 19,
						"contract": "contracts/eventorganisation.sol:Eventorganization",
						"label": "eventbynumber",
						"offset": 0,
						"slot": "0",
						"type": "t_mapping(t_uint256,t_struct(eventlist)14_storage)"
					},
					{
						"astId": 25,
						"contract": "contracts/eventorganisation.sol:Eventorganization",
						"label": "tickets",
						"offset": 0,
						"slot": "1",
						"type": "t_mapping(t_address,t_mapping(t_uint256,t_uint256))"
					},
					{
						"astId": 27,
						"contract": "contracts/eventorganisation.sol:Eventorganization",
						"label": "nextid",
						"offset": 0,
						"slot": "2",
						"type": "t_uint256"
					}
				],
				"types": {
					"t_address": {
						"encoding": "inplace",
						"label": "address",
						"numberOfBytes": "20"
					},
					"t_mapping(t_address,t_mapping(t_uint256,t_uint256))": {
						"encoding": "mapping",
						"key": "t_address",
						"label": "mapping(address => mapping(uint256 => uint256))",
						"numberOfBytes": "32",
						"value": "t_mapping(t_uint256,t_uint256)"
					},
					"t_mapping(t_uint256,t_struct(eventlist)14_storage)": {
						"encoding": "mapping",
						"key": "t_uint256",
						"label": "mapping(uint256 => struct Eventorganization.eventlist)",
						"numberOfBytes": "32",
						"value": "t_struct(eventlist)14_storage"
					},
					"t_mapping(t_uint256,t_uint256)": {
						"encoding": "mapping",
						"key": "t_uint256",
						"label": "mapping(uint256 => uint256)",
						"numberOfBytes": "32",
						"value": "t_uint256"
					},
					"t_string_storage": {
						"encoding": "bytes",
						"label": "string",
						"numberOfBytes": "32"
					},
					"t_struct(eventlist)14_storage": {
						"encoding": "inplace",
						"label": "struct Eventorganization.eventlist",
						"members": [
							{
								"astId": 3,
								"contract": "contracts/eventorganisation.sol:Eventorganization",
								"label": "eventname",
								"offset": 0,
								"slot": "0",
								"type": "t_string_storage"
							},
							{
								"astId": 5,
								"contract": "contracts/eventorganisation.sol:Eventorganization",
								"label": "organizer",
								"offset": 0,
								"slot": "1",
								"type": "t_address"
							},
							{
								"astId": 7,
								"contract": "contracts/eventorganisation.sol:Eventorganization",
								"label": "date",
								"offset": 0,
								"slot": "2",
								"type": "t_uint256"
							},
							{
								"astId": 9,
								"contract": "contracts/eventorganisation.sol:Eventorganization",
								"label": "price",
								"offset": 0,
								"slot": "3",
								"type": "t_uint256"
							},
							{
								"astId": 11,
								"contract": "contracts/eventorganisation.sol:Eventorganization",
								"label": "totalnoofticket",
								"offset": 0,
								"slot": "4",
								"type": "t_uint256"
							},
							{
								"astId": 13,
								"contract": "contracts/eventorganisation.sol:Eventorganization",
								"label": "ticketremain",
								"offset": 0,
								"slot": "5",
								"type": "t_uint256"
							}
						],
						"numberOfBytes": "192"
					},
					"t_uint256": {
						"encoding": "inplace",
						"label": "uint256",
						"numberOfBytes": "32"
					}
				}
			},
			"userdoc": {
				"kind": "user",
				"methods": {},
				"version": 1
			}
		}
	}
}