{
	"contracts/ZombieGame.sol": {
		"GetZombie": {
			"abi": [
				{
					"inputs": [
						{
							"internalType": "uint256",
							"name": "id",
							"type": "uint256"
						}
					],
					"name": "BuyOnRent",
					"outputs": [],
					"stateMutability": "nonpayable",
					"type": "function"
				},
				{
					"inputs": [
						{
							"internalType": "string",
							"name": "plan",
							"type": "string"
						},
						{
							"internalType": "string",
							"name": "name",
							"type": "string"
						}
					],
					"name": "BuyZombie",
					"outputs": [],
					"stateMutability": "nonpayable",
					"type": "function"
				},
				{
					"inputs": [
						{
							"internalType": "uint256",
							"name": "zombieID",
							"type": "uint256"
						}
					],
					"name": "Fight",
					"outputs": [],
					"stateMutability": "nonpayable",
					"type": "function"
				},
				{
					"inputs": [
						{
							"internalType": "address",
							"name": "",
							"type": "address"
						}
					],
					"name": "FreeNft",
					"outputs": [
						{
							"internalType": "bool",
							"name": "",
							"type": "bool"
						}
					],
					"stateMutability": "view",
					"type": "function"
				},
				{
					"inputs": [],
					"name": "FreeZombie",
					"outputs": [],
					"stateMutability": "nonpayable",
					"type": "function"
				},
				{
					"inputs": [
						{
							"internalType": "uint256",
							"name": "id",
							"type": "uint256"
						}
					],
					"name": "GiveOnRent",
					"outputs": [],
					"stateMutability": "nonpayable",
					"type": "function"
				},
				{
					"inputs": [
						{
							"internalType": "uint256",
							"name": "id",
							"type": "uint256"
						}
					],
					"name": "RemoveRent",
					"outputs": [],
					"stateMutability": "nonpayable",
					"type": "function"
				},
				{
					"inputs": [
						{
							"internalType": "uint256",
							"name": "",
							"type": "uint256"
						}
					],
					"name": "RentedbyID",
					"outputs": [
						{
							"internalType": "address",
							"name": "",
							"type": "address"
						}
					],
					"stateMutability": "view",
					"type": "function"
				},
				{
					"inputs": [
						{
							"internalType": "uint256",
							"name": "",
							"type": "uint256"
						}
					],
					"name": "TakenNft",
					"outputs": [
						{
							"internalType": "bool",
							"name": "",
							"type": "bool"
						}
					],
					"stateMutability": "view",
					"type": "function"
				},
				{
					"inputs": [
						{
							"internalType": "address",
							"name": "to",
							"type": "address"
						},
						{
							"internalType": "uint256",
							"name": "id",
							"type": "uint256"
						}
					],
					"name": "approve",
					"outputs": [],
					"stateMutability": "nonpayable",
					"type": "function"
				},
				{
					"inputs": [
						{
							"internalType": "address",
							"name": "",
							"type": "address"
						}
					],
					"name": "buyOnRent",
					"outputs": [
						{
							"internalType": "bool",
							"name": "",
							"type": "bool"
						}
					],
					"stateMutability": "view",
					"type": "function"
				},
				{
					"inputs": [
						{
							"internalType": "uint256",
							"name": "zombieId",
							"type": "uint256"
						}
					],
					"name": "getDetails",
					"outputs": [
						{
							"components": [
								{
									"internalType": "string",
									"name": "plan",
									"type": "string"
								},
								{
									"internalType": "string",
									"name": "name",
									"type": "string"
								},
								{
									"internalType": "uint256",
									"name": "dna",
									"type": "uint256"
								},
								{
									"internalType": "uint256",
									"name": "level",
									"type": "uint256"
								},
								{
									"internalType": "uint256",
									"name": "xp",
									"type": "uint256"
								},
								{
									"internalType": "uint256",
									"name": "TotalMatch",
									"type": "uint256"
								},
								{
									"internalType": "uint256",
									"name": "MatchLeft",
									"type": "uint256"
								},
								{
									"internalType": "uint256",
									"name": "Wins",
									"type": "uint256"
								},
								{
									"internalType": "uint256",
									"name": "Looses",
									"type": "uint256"
								}
							],
							"internalType": "struct ZombieGame.zombieDetails",
							"name": "",
							"type": "tuple"
						}
					],
					"stateMutability": "view",
					"type": "function"
				},
				{
					"inputs": [
						{
							"internalType": "address",
							"name": "_owner",
							"type": "address"
						}
					],
					"name": "ownerZombies",
					"outputs": [
						{
							"internalType": "uint256[]",
							"name": "",
							"type": "uint256[]"
						}
					],
					"stateMutability": "view",
					"type": "function"
				},
				{
					"inputs": [
						{
							"internalType": "address",
							"name": "from",
							"type": "address"
						},
						{
							"internalType": "address",
							"name": "to",
							"type": "address"
						},
						{
							"internalType": "uint256",
							"name": "id",
							"type": "uint256"
						}
					],
					"name": "tranferFrom",
					"outputs": [],
					"stateMutability": "nonpayable",
					"type": "function"
				}
			],
			"devdoc": {
				"kind": "dev",
				"methods": {},
				"version": 1
			},
			"evm": {
				"assembly": "    /* \"contracts/ZombieGame.sol\":4155:8683  contract GetZombie is ZombieGame, FightZombies {... */\n  mstore(0x40, 0x80)\n    /* \"contracts/ZombieGame.sol\":1015:1023  10 ** 16 */\n  0x2386f26fc10000\n    /* \"contracts/ZombieGame.sol\":998:1023  uint dnaLength = 10 ** 16 */\n  0x02\n  sstore\n    /* \"contracts/ZombieGame.sol\":4155:8683  contract GetZombie is ZombieGame, FightZombies {... */\n  callvalue\n  dup1\n  iszero\n  tag_1\n  jumpi\n  0x00\n  dup1\n  revert\ntag_1:\n  pop\n  dataSize(sub_0)\n  dup1\n  dataOffset(sub_0)\n  0x00\n  codecopy\n  0x00\n  return\nstop\n\nsub_0: assembly {\n        /* \"contracts/ZombieGame.sol\":4155:8683  contract GetZombie is ZombieGame, FightZombies {... */\n      mstore(0x40, 0x80)\n      callvalue\n      dup1\n      iszero\n      tag_1\n      jumpi\n      0x00\n      dup1\n      revert\n    tag_1:\n      pop\n      jumpi(tag_2, lt(calldatasize, 0x04))\n      shr(0xe0, calldataload(0x00))\n      dup1\n      0xb93a89f7\n      gt\n      tag_17\n      jumpi\n      dup1\n      0xcb9940b7\n      gt\n      tag_18\n      jumpi\n      dup1\n      0xcb9940b7\n      eq\n      tag_13\n      jumpi\n      dup1\n      0xe0c4f15e\n      eq\n      tag_14\n      jumpi\n      dup1\n      0xe70364d4\n      eq\n      tag_15\n      jumpi\n      dup1\n      0xfb052caf\n      eq\n      tag_16\n      jumpi\n      jump(tag_2)\n    tag_18:\n      dup1\n      0xb93a89f7\n      eq\n      tag_10\n      jumpi\n      dup1\n      0xc0342cb4\n      eq\n      tag_11\n      jumpi\n      dup1\n      0xc583f36a\n      eq\n      tag_12\n      jumpi\n      jump(tag_2)\n    tag_17:\n      dup1\n      0x9264a169\n      gt\n      tag_19\n      jumpi\n      dup1\n      0x9264a169\n      eq\n      tag_6\n      jumpi\n      dup1\n      0x9a861a78\n      eq\n      tag_7\n      jumpi\n      dup1\n      0x9f52f1a1\n      eq\n      tag_8\n      jumpi\n      dup1\n      0xb81c3db7\n      eq\n      tag_9\n      jumpi\n      jump(tag_2)\n    tag_19:\n      dup1\n      0x095ea7b3\n      eq\n      tag_3\n      jumpi\n      dup1\n      0x3c956b05\n      eq\n      tag_4\n      jumpi\n      dup1\n      0x7138d32d\n      eq\n      tag_5\n      jumpi\n    tag_2:\n      0x00\n      dup1\n      revert\n        /* \"contracts/ZombieGame.sol\":8094:8237  function approve(address to, uint id) public OnlyOwner(id) {... */\n    tag_3:\n      tag_20\n      0x04\n      dup1\n      calldatasize\n      sub\n      dup2\n      add\n      swap1\n      tag_21\n      swap2\n      swap1\n      tag_22\n      jump\t// in\n    tag_21:\n      tag_23\n      jump\t// in\n    tag_20:\n      stop\n        /* \"contracts/ZombieGame.sol\":6310:6810  function ownerZombies(address _owner) public view returns (uint[] memory) {... */\n    tag_4:\n      tag_24\n      0x04\n      dup1\n      calldatasize\n      sub\n      dup2\n      add\n      swap1\n      tag_25\n      swap2\n      swap1\n      tag_26\n      jump\t// in\n    tag_25:\n      tag_27\n      jump\t// in\n    tag_24:\n      mload(0x40)\n      tag_28\n      swap2\n      swap1\n      tag_29\n      jump\t// in\n    tag_28:\n      mload(0x40)\n      dup1\n      swap2\n      sub\n      swap1\n      return\n        /* \"contracts/ZombieGame.sol\":6949:7625  function Fight(uint zombieID) public {... */\n    tag_5:\n      tag_30\n      0x04\n      dup1\n      calldatasize\n      sub\n      dup2\n      add\n      swap1\n      tag_31\n      swap2\n      swap1\n      tag_32\n      jump\t// in\n    tag_31:\n      tag_33\n      jump\t// in\n    tag_30:\n      stop\n        /* \"contracts/ZombieGame.sol\":8245:8678  function tranferFrom(address from, address to, uint id) public OnlyOwner(id) {... */\n    tag_6:\n      tag_34\n      0x04\n      dup1\n      calldatasize\n      sub\n      dup2\n      add\n      swap1\n      tag_35\n      swap2\n      swap1\n      tag_36\n      jump\t// in\n    tag_35:\n      tag_37\n      jump\t// in\n    tag_34:\n      stop\n        /* \"contracts/ZombieGame.sol\":4759:4801  mapping (address => bool) public buyOnRent */\n    tag_7:\n      tag_38\n      0x04\n      dup1\n      calldatasize\n      sub\n      dup2\n      add\n      swap1\n      tag_39\n      swap2\n      swap1\n      tag_26\n      jump\t// in\n    tag_39:\n      tag_40\n      jump\t// in\n    tag_38:\n      mload(0x40)\n      tag_41\n      swap2\n      swap1\n      tag_42\n      jump\t// in\n    tag_41:\n      mload(0x40)\n      dup1\n      swap2\n      sub\n      swap1\n      return\n        /* \"contracts/ZombieGame.sol\":4661:4699  mapping (uint => bool) public TakenNft */\n    tag_8:\n      tag_43\n      0x04\n      dup1\n      calldatasize\n      sub\n      dup2\n      add\n      swap1\n      tag_44\n      swap2\n      swap1\n      tag_32\n      jump\t// in\n    tag_44:\n      tag_45\n      jump\t// in\n    tag_43:\n      mload(0x40)\n      tag_46\n      swap2\n      swap1\n      tag_42\n      jump\t// in\n    tag_46:\n      mload(0x40)\n      dup1\n      swap2\n      sub\n      swap1\n      return\n        /* \"contracts/ZombieGame.sol\":5171:5401  function FreeZombie() public {... */\n    tag_9:\n      tag_47\n      tag_48\n      jump\t// in\n    tag_47:\n      stop\n        /* \"contracts/ZombieGame.sol\":6818:6941  function getDetails(uint zombieId) public view returns(zombieDetails memory){... */\n    tag_10:\n      tag_49\n      0x04\n      dup1\n      calldatasize\n      sub\n      dup2\n      add\n      swap1\n      tag_50\n      swap2\n      swap1\n      tag_32\n      jump\t// in\n    tag_50:\n      tag_51\n      jump\t// in\n    tag_49:\n      mload(0x40)\n      tag_52\n      swap2\n      swap1\n      tag_53\n      jump\t// in\n    tag_52:\n      mload(0x40)\n      dup1\n      swap2\n      sub\n      swap1\n      return\n        /* \"contracts/ZombieGame.sol\":4211:4251  mapping (address => bool) public FreeNft */\n    tag_11:\n      tag_54\n      0x04\n      dup1\n      calldatasize\n      sub\n      dup2\n      add\n      swap1\n      tag_55\n      swap2\n      swap1\n      tag_26\n      jump\t// in\n    tag_55:\n      tag_56\n      jump\t// in\n    tag_54:\n      mload(0x40)\n      tag_57\n      swap2\n      swap1\n      tag_42\n      jump\t// in\n    tag_57:\n      mload(0x40)\n      dup1\n      swap2\n      sub\n      swap1\n      return\n        /* \"contracts/ZombieGame.sol\":4886:4929  mapping (uint => address) public RentedbyID */\n    tag_12:\n      tag_58\n      0x04\n      dup1\n      calldatasize\n      sub\n      dup2\n      add\n      swap1\n      tag_59\n      swap2\n      swap1\n      tag_32\n      jump\t// in\n    tag_59:\n      tag_60\n      jump\t// in\n    tag_58:\n      mload(0x40)\n      tag_61\n      swap2\n      swap1\n      tag_62\n      jump\t// in\n    tag_61:\n      mload(0x40)\n      dup1\n      swap2\n      sub\n      swap1\n      return\n        /* \"contracts/ZombieGame.sol\":5510:5833  function BuyZombie(string memory plan, string memory name) public {... */\n    tag_13:\n      tag_63\n      0x04\n      dup1\n      calldatasize\n      sub\n      dup2\n      add\n      swap1\n      tag_64\n      swap2\n      swap1\n      tag_65\n      jump\t// in\n    tag_64:\n      tag_66\n      jump\t// in\n    tag_63:\n      stop\n        /* \"contracts/ZombieGame.sol\":7843:8086  function RemoveRent(uint id) public OnlyOwner(id) {... */\n    tag_14:\n      tag_67\n      0x04\n      dup1\n      calldatasize\n      sub\n      dup2\n      add\n      swap1\n      tag_68\n      swap2\n      swap1\n      tag_32\n      jump\t// in\n    tag_68:\n      tag_69\n      jump\t// in\n    tag_67:\n      stop\n        /* \"contracts/ZombieGame.sol\":5881:6249  function BuyOnRent(uint id) public {... */\n    tag_15:\n      tag_70\n      0x04\n      dup1\n      calldatasize\n      sub\n      dup2\n      add\n      swap1\n      tag_71\n      swap2\n      swap1\n      tag_32\n      jump\t// in\n    tag_71:\n      tag_72\n      jump\t// in\n    tag_70:\n      stop\n        /* \"contracts/ZombieGame.sol\":7633:7835  function GiveOnRent(uint id) public OnlyOwner(id) {... */\n    tag_16:\n      tag_73\n      0x04\n      dup1\n      calldatasize\n      sub\n      dup2\n      add\n      swap1\n      tag_74\n      swap2\n      swap1\n      tag_32\n      jump\t// in\n    tag_74:\n      tag_75\n      jump\t// in\n    tag_73:\n      stop\n        /* \"contracts/ZombieGame.sol\":8094:8237  function approve(address to, uint id) public OnlyOwner(id) {... */\n    tag_23:\n        /* \"contracts/ZombieGame.sol\":8149:8151  id */\n      dup1\n        /* \"contracts/ZombieGame.sol\":5068:5078  msg.sender */\n      caller\n        /* \"contracts/ZombieGame.sol\":5043:5078  ZombieOwner[zombieId] == msg.sender */\n      0xffffffffffffffffffffffffffffffffffffffff\n      and\n        /* \"contracts/ZombieGame.sol\":5043:5054  ZombieOwner */\n      0x00\n        /* \"contracts/ZombieGame.sol\":5043:5064  ZombieOwner[zombieId] */\n      dup1\n        /* \"contracts/ZombieGame.sol\":5055:5063  zombieId */\n      dup4\n        /* \"contracts/ZombieGame.sol\":5043:5064  ZombieOwner[zombieId] */\n      dup2\n      mstore\n      0x20\n      add\n      swap1\n      dup2\n      mstore\n      0x20\n      add\n      0x00\n      keccak256\n      0x00\n      swap1\n      sload\n      swap1\n      0x0100\n      exp\n      swap1\n      div\n      0xffffffffffffffffffffffffffffffffffffffff\n      and\n        /* \"contracts/ZombieGame.sol\":5043:5078  ZombieOwner[zombieId] == msg.sender */\n      0xffffffffffffffffffffffffffffffffffffffff\n      and\n      eq\n        /* \"contracts/ZombieGame.sol\":5035:5094  require(ZombieOwner[zombieId] == msg.sender, \"Only Owner.\") */\n      tag_77\n      jumpi\n      mload(0x40)\n      0x08c379a000000000000000000000000000000000000000000000000000000000\n      dup2\n      mstore\n      0x04\n      add\n      tag_78\n      swap1\n      tag_79\n      jump\t// in\n    tag_78:\n      mload(0x40)\n      dup1\n      swap2\n      sub\n      swap1\n      revert\n    tag_77:\n        /* \"contracts/ZombieGame.sol\":8192:8194  id */\n      dup2\n        /* \"contracts/ZombieGame.sol\":8164:8173  Allowance */\n      0x06\n        /* \"contracts/ZombieGame.sol\":8164:8185  Allowance[msg.sender] */\n      0x00\n        /* \"contracts/ZombieGame.sol\":8174:8184  msg.sender */\n      caller\n        /* \"contracts/ZombieGame.sol\":8164:8185  Allowance[msg.sender] */\n      0xffffffffffffffffffffffffffffffffffffffff\n      and\n      0xffffffffffffffffffffffffffffffffffffffff\n      and\n      dup2\n      mstore\n      0x20\n      add\n      swap1\n      dup2\n      mstore\n      0x20\n      add\n      0x00\n      keccak256\n        /* \"contracts/ZombieGame.sol\":8164:8189  Allowance[msg.sender][to] */\n      0x00\n        /* \"contracts/ZombieGame.sol\":8186:8188  to */\n      dup6\n        /* \"contracts/ZombieGame.sol\":8164:8189  Allowance[msg.sender][to] */\n      0xffffffffffffffffffffffffffffffffffffffff\n      and\n      0xffffffffffffffffffffffffffffffffffffffff\n      and\n      dup2\n      mstore\n      0x20\n      add\n      swap1\n      dup2\n      mstore\n      0x20\n      add\n      0x00\n      keccak256\n        /* \"contracts/ZombieGame.sol\":8164:8194  Allowance[msg.sender][to] = id */\n      dup2\n      swap1\n      sstore\n      pop\n        /* \"contracts/ZombieGame.sol\":8227:8229  to */\n      dup3\n        /* \"contracts/ZombieGame.sol\":8205:8212  Approve */\n      0x07\n        /* \"contracts/ZombieGame.sol\":8205:8224  Approve[msg.sender] */\n      0x00\n        /* \"contracts/ZombieGame.sol\":8213:8223  msg.sender */\n      caller\n        /* \"contracts/ZombieGame.sol\":8205:8224  Approve[msg.sender] */\n      0xffffffffffffffffffffffffffffffffffffffff\n      and\n      0xffffffffffffffffffffffffffffffffffffffff\n      and\n      dup2\n      mstore\n      0x20\n      add\n      swap1\n      dup2\n      mstore\n      0x20\n      add\n      0x00\n      keccak256\n      0x00\n        /* \"contracts/ZombieGame.sol\":8205:8229  Approve[msg.sender] = to */\n      0x0100\n      exp\n      dup2\n      sload\n      dup2\n      0xffffffffffffffffffffffffffffffffffffffff\n      mul\n      not\n      and\n      swap1\n      dup4\n      0xffffffffffffffffffffffffffffffffffffffff\n      and\n      mul\n      or\n      swap1\n      sstore\n      pop\n        /* \"contracts/ZombieGame.sol\":8094:8237  function approve(address to, uint id) public OnlyOwner(id) {... */\n      pop\n      pop\n      pop\n      jump\t// out\n        /* \"contracts/ZombieGame.sol\":6310:6810  function ownerZombies(address _owner) public view returns (uint[] memory) {... */\n    tag_27:\n        /* \"contracts/ZombieGame.sol\":6369:6382  uint[] memory */\n      0x60\n        /* \"contracts/ZombieGame.sol\":6394:6422  uint[] memory OwnerZombiesId */\n      0x00\n        /* \"contracts/ZombieGame.sol\":6436:6447  ZombieCount */\n      0x01\n        /* \"contracts/ZombieGame.sol\":6436:6455  ZombieCount[_owner] */\n      0x00\n        /* \"contracts/ZombieGame.sol\":6448:6454  _owner */\n      dup5\n        /* \"contracts/ZombieGame.sol\":6436:6455  ZombieCount[_owner] */\n      0xffffffffffffffffffffffffffffffffffffffff\n      and\n      0xffffffffffffffffffffffffffffffffffffffff\n      and\n      dup2\n      mstore\n      0x20\n      add\n      swap1\n      dup2\n      mstore\n      0x20\n      add\n      0x00\n      keccak256\n      sload\n        /* \"contracts/ZombieGame.sol\":6425:6456  new uint[](ZombieCount[_owner]) */\n      0xffffffffffffffff\n      dup2\n      gt\n      iszero\n      tag_82\n      jumpi\n      tag_83\n      tag_84\n      jump\t// in\n    tag_83:\n    tag_82:\n      mload(0x40)\n      swap1\n      dup1\n      dup3\n      mstore\n      dup1\n      0x20\n      mul\n      0x20\n      add\n      dup3\n      add\n      0x40\n      mstore\n      dup1\n      iszero\n      tag_85\n      jumpi\n      dup2\n      0x20\n      add\n      0x20\n      dup3\n      mul\n      dup1\n      calldatasize\n      dup4\n      calldatacopy\n      dup1\n      dup3\n      add\n      swap2\n      pop\n      pop\n      swap1\n      pop\n    tag_85:\n      pop\n        /* \"contracts/ZombieGame.sol\":6394:6456  uint[] memory OwnerZombiesId = new uint[](ZombieCount[_owner]) */\n      swap1\n      pop\n        /* \"contracts/ZombieGame.sol\":6564:6574  uint index */\n      0x00\n        /* \"contracts/ZombieGame.sol\":6600:6606  uint i */\n      dup1\n        /* \"contracts/ZombieGame.sol\":6595:6771  for (uint i = 0; i < zombies.length; i++) {... */\n    tag_86:\n        /* \"contracts/ZombieGame.sol\":6616:6623  zombies */\n      0x03\n        /* \"contracts/ZombieGame.sol\":6616:6630  zombies.length */\n      dup1\n      sload\n      swap1\n      pop\n        /* \"contracts/ZombieGame.sol\":6612:6613  i */\n      dup2\n        /* \"contracts/ZombieGame.sol\":6612:6630  i < zombies.length */\n      lt\n        /* \"contracts/ZombieGame.sol\":6595:6771  for (uint i = 0; i < zombies.length; i++) {... */\n      iszero\n      tag_87\n      jumpi\n        /* \"contracts/ZombieGame.sol\":6674:6680  _owner */\n      dup5\n        /* \"contracts/ZombieGame.sol\":6656:6680  ZombieOwner[i] == _owner */\n      0xffffffffffffffffffffffffffffffffffffffff\n      and\n        /* \"contracts/ZombieGame.sol\":6656:6667  ZombieOwner */\n      0x00\n        /* \"contracts/ZombieGame.sol\":6656:6670  ZombieOwner[i] */\n      dup1\n        /* \"contracts/ZombieGame.sol\":6668:6669  i */\n      dup4\n        /* \"contracts/ZombieGame.sol\":6656:6670  ZombieOwner[i] */\n      dup2\n      mstore\n      0x20\n      add\n      swap1\n      dup2\n      mstore\n      0x20\n      add\n      0x00\n      keccak256\n      0x00\n      swap1\n      sload\n      swap1\n      0x0100\n      exp\n      swap1\n      div\n      0xffffffffffffffffffffffffffffffffffffffff\n      and\n        /* \"contracts/ZombieGame.sol\":6656:6680  ZombieOwner[i] == _owner */\n      0xffffffffffffffffffffffffffffffffffffffff\n      and\n      sub\n        /* \"contracts/ZombieGame.sol\":6652:6760  if (ZombieOwner[i] == _owner) {... */\n      tag_89\n      jumpi\n        /* \"contracts/ZombieGame.sol\":6721:6722  i */\n      dup1\n        /* \"contracts/ZombieGame.sol\":6697:6711  OwnerZombiesId */\n      dup4\n        /* \"contracts/ZombieGame.sol\":6712:6717  index */\n      dup4\n        /* \"contracts/ZombieGame.sol\":6697:6718  OwnerZombiesId[index] */\n      dup2\n      mload\n      dup2\n      lt\n      tag_90\n      jumpi\n      tag_91\n      tag_92\n      jump\t// in\n    tag_91:\n    tag_90:\n      0x20\n      mul\n      0x20\n      add\n      add\n        /* \"contracts/ZombieGame.sol\":6697:6722  OwnerZombiesId[index] = i */\n      dup2\n      dup2\n      mstore\n      pop\n      pop\n        /* \"contracts/ZombieGame.sol\":6737:6744  index++ */\n      dup2\n      dup1\n      tag_93\n      swap1\n      tag_94\n      jump\t// in\n    tag_93:\n      swap3\n      pop\n      pop\n        /* \"contracts/ZombieGame.sol\":6652:6760  if (ZombieOwner[i] == _owner) {... */\n    tag_89:\n        /* \"contracts/ZombieGame.sol\":6632:6635  i++ */\n      dup1\n      dup1\n      tag_95\n      swap1\n      tag_94\n      jump\t// in\n    tag_95:\n      swap2\n      pop\n      pop\n        /* \"contracts/ZombieGame.sol\":6595:6771  for (uint i = 0; i < zombies.length; i++) {... */\n      jump(tag_86)\n    tag_87:\n      pop\n        /* \"contracts/ZombieGame.sol\":6788:6802  OwnerZombiesId */\n      dup2\n        /* \"contracts/ZombieGame.sol\":6781:6802  return OwnerZombiesId */\n      swap3\n      pop\n      pop\n      pop\n        /* \"contracts/ZombieGame.sol\":6310:6810  function ownerZombies(address _owner) public view returns (uint[] memory) {... */\n      swap2\n      swap1\n      pop\n      jump\t// out\n        /* \"contracts/ZombieGame.sol\":6949:7625  function Fight(uint zombieID) public {... */\n    tag_33:\n        /* \"contracts/ZombieGame.sol\":7033:7043  msg.sender */\n      caller\n        /* \"contracts/ZombieGame.sol\":7009:7043  RentedbyID[zombieID] == msg.sender */\n      0xffffffffffffffffffffffffffffffffffffffff\n      and\n        /* \"contracts/ZombieGame.sol\":7009:7019  RentedbyID */\n      0x0b\n        /* \"contracts/ZombieGame.sol\":7009:7029  RentedbyID[zombieID] */\n      0x00\n        /* \"contracts/ZombieGame.sol\":7020:7028  zombieID */\n      dup4\n        /* \"contracts/ZombieGame.sol\":7009:7029  RentedbyID[zombieID] */\n      dup2\n      mstore\n      0x20\n      add\n      swap1\n      dup2\n      mstore\n      0x20\n      add\n      0x00\n      keccak256\n      0x00\n      swap1\n      sload\n      swap1\n      0x0100\n      exp\n      swap1\n      div\n      0xffffffffffffffffffffffffffffffffffffffff\n      and\n        /* \"contracts/ZombieGame.sol\":7009:7043  RentedbyID[zombieID] == msg.sender */\n      0xffffffffffffffffffffffffffffffffffffffff\n      and\n      eq\n        /* \"contracts/ZombieGame.sol\":7009:7074  RentedbyID[zombieID] == msg.sender || FreeNft[msg.sender] == true */\n      dup1\n      tag_97\n      jumpi\n      pop\n        /* \"contracts/ZombieGame.sol\":7070:7074  true */\n      0x01\n        /* \"contracts/ZombieGame.sol\":7047:7074  FreeNft[msg.sender] == true */\n      iszero\n      iszero\n        /* \"contracts/ZombieGame.sol\":7047:7054  FreeNft */\n      0x04\n        /* \"contracts/ZombieGame.sol\":7047:7066  FreeNft[msg.sender] */\n      0x00\n        /* \"contracts/ZombieGame.sol\":7055:7065  msg.sender */\n      caller\n        /* \"contracts/ZombieGame.sol\":7047:7066  FreeNft[msg.sender] */\n      0xffffffffffffffffffffffffffffffffffffffff\n      and\n      0xffffffffffffffffffffffffffffffffffffffff\n      and\n      dup2\n      mstore\n      0x20\n      add\n      swap1\n      dup2\n      mstore\n      0x20\n      add\n      0x00\n      keccak256\n      0x00\n      swap1\n      sload\n      swap1\n      0x0100\n      exp\n      swap1\n      div\n      0xff\n      and\n        /* \"contracts/ZombieGame.sol\":7047:7074  FreeNft[msg.sender] == true */\n      iszero\n      iszero\n      eq\n        /* \"contracts/ZombieGame.sol\":7009:7074  RentedbyID[zombieID] == msg.sender || FreeNft[msg.sender] == true */\n    tag_97:\n        /* \"contracts/ZombieGame.sol\":7005:7618  if (RentedbyID[zombieID] == msg.sender || FreeNft[msg.sender] == true) {... */\n      iszero\n      tag_98\n      jumpi\n        /* \"contracts/ZombieGame.sol\":7118:7133  block.timestamp */\n      timestamp\n        /* \"contracts/ZombieGame.sol\":7099:7105  Timing */\n      0x08\n        /* \"contracts/ZombieGame.sol\":7099:7115  Timing[zombieID] */\n      0x00\n        /* \"contracts/ZombieGame.sol\":7106:7114  zombieID */\n      dup4\n        /* \"contracts/ZombieGame.sol\":7099:7115  Timing[zombieID] */\n      dup2\n      mstore\n      0x20\n      add\n      swap1\n      dup2\n      mstore\n      0x20\n      add\n      0x00\n      keccak256\n      sload\n        /* \"contracts/ZombieGame.sol\":7099:7133  Timing[zombieID] > block.timestamp */\n      gt\n        /* \"contracts/ZombieGame.sol\":7091:7160  require(Timing[zombieID] > block.timestamp, \"Now id is not on rent.\") */\n      tag_99\n      jumpi\n      mload(0x40)\n      0x08c379a000000000000000000000000000000000000000000000000000000000\n      dup2\n      mstore\n      0x04\n      add\n      tag_100\n      swap1\n      tag_101\n      jump\t// in\n    tag_100:\n      mload(0x40)\n      dup1\n      swap2\n      sub\n      swap1\n      revert\n    tag_99:\n        /* \"contracts/ZombieGame.sol\":7171:7191  uint beforeMatchWins */\n      0x00\n        /* \"contracts/ZombieGame.sol\":7194:7201  zombies */\n      0x03\n        /* \"contracts/ZombieGame.sol\":7202:7210  zombieID */\n      dup3\n        /* \"contracts/ZombieGame.sol\":7194:7211  zombies[zombieID] */\n      dup2\n      sload\n      dup2\n      lt\n      tag_102\n      jumpi\n      tag_103\n      tag_92\n      jump\t// in\n    tag_103:\n    tag_102:\n      swap1\n      0x00\n      mstore\n      keccak256(0x00, 0x20)\n      swap1\n      0x09\n      mul\n      add\n        /* \"contracts/ZombieGame.sol\":7194:7216  zombies[zombieID].Wins */\n      0x07\n      add\n      sload\n        /* \"contracts/ZombieGame.sol\":7171:7216  uint beforeMatchWins = zombies[zombieID].Wins */\n      swap1\n      pop\n        /* \"contracts/ZombieGame.sol\":7227:7251  ZombieVsZombie(zombieID) */\n      tag_105\n        /* \"contracts/ZombieGame.sol\":7242:7250  zombieID */\n      dup3\n        /* \"contracts/ZombieGame.sol\":7227:7241  ZombieVsZombie */\n      tag_106\n        /* \"contracts/ZombieGame.sol\":7227:7251  ZombieVsZombie(zombieID) */\n      jump\t// in\n    tag_105:\n      pop\n        /* \"contracts/ZombieGame.sol\":7291:7306  beforeMatchWins */\n      dup1\n        /* \"contracts/ZombieGame.sol\":7266:7273  zombies */\n      0x03\n        /* \"contracts/ZombieGame.sol\":7274:7282  zombieID */\n      dup4\n        /* \"contracts/ZombieGame.sol\":7266:7283  zombies[zombieID] */\n      dup2\n      sload\n      dup2\n      lt\n      tag_107\n      jumpi\n      tag_108\n      tag_92\n      jump\t// in\n    tag_108:\n    tag_107:\n      swap1\n      0x00\n      mstore\n      keccak256(0x00, 0x20)\n      swap1\n      0x09\n      mul\n      add\n        /* \"contracts/ZombieGame.sol\":7266:7288  zombies[zombieID].Wins */\n      0x07\n      add\n      sload\n        /* \"contracts/ZombieGame.sol\":7266:7306  zombies[zombieID].Wins > beforeMatchWins */\n      gt\n        /* \"contracts/ZombieGame.sol\":7266:7338  zombies[zombieID].Wins > beforeMatchWins && ZombieCount[msg.sender] >= 1 */\n      dup1\n      iszero\n      tag_110\n      jumpi\n      pop\n        /* \"contracts/ZombieGame.sol\":7337:7338  1 */\n      0x01\n        /* \"contracts/ZombieGame.sol\":7310:7321  ZombieCount */\n      dup1\n        /* \"contracts/ZombieGame.sol\":7310:7333  ZombieCount[msg.sender] */\n      0x00\n        /* \"contracts/ZombieGame.sol\":7322:7332  msg.sender */\n      caller\n        /* \"contracts/ZombieGame.sol\":7310:7333  ZombieCount[msg.sender] */\n      0xffffffffffffffffffffffffffffffffffffffff\n      and\n      0xffffffffffffffffffffffffffffffffffffffff\n      and\n      dup2\n      mstore\n      0x20\n      add\n      swap1\n      dup2\n      mstore\n      0x20\n      add\n      0x00\n      keccak256\n      sload\n        /* \"contracts/ZombieGame.sol\":7310:7338  ZombieCount[msg.sender] >= 1 */\n      lt\n      iszero\n        /* \"contracts/ZombieGame.sol\":7266:7338  zombies[zombieID].Wins > beforeMatchWins && ZombieCount[msg.sender] >= 1 */\n    tag_110:\n        /* \"contracts/ZombieGame.sol\":7262:7458  if (zombies[zombieID].Wins > beforeMatchWins && ZombieCount[msg.sender] >= 1) {... */\n      iszero\n      tag_111\n      jumpi\n        /* \"contracts/ZombieGame.sol\":7351:7373  uint[] memory renterId */\n      0x00\n        /* \"contracts/ZombieGame.sol\":7376:7400  ownerZombies(msg.sender) */\n      tag_112\n        /* \"contracts/ZombieGame.sol\":7389:7399  msg.sender */\n      caller\n        /* \"contracts/ZombieGame.sol\":7376:7388  ownerZombies */\n      tag_27\n        /* \"contracts/ZombieGame.sol\":7376:7400  ownerZombies(msg.sender) */\n      jump\t// in\n    tag_112:\n        /* \"contracts/ZombieGame.sol\":7351:7400  uint[] memory renterId = ownerZombies(msg.sender) */\n      swap1\n      pop\n        /* \"contracts/ZombieGame.sol\":7441:7442  1 */\n      0x01\n        /* \"contracts/ZombieGame.sol\":7411:7418  zombies */\n      0x03\n        /* \"contracts/ZombieGame.sol\":7419:7427  renterId */\n      dup3\n        /* \"contracts/ZombieGame.sol\":7428:7429  0 */\n      0x00\n        /* \"contracts/ZombieGame.sol\":7419:7430  renterId[0] */\n      dup2\n      mload\n      dup2\n      lt\n      tag_113\n      jumpi\n      tag_114\n      tag_92\n      jump\t// in\n    tag_114:\n    tag_113:\n      0x20\n      mul\n      0x20\n      add\n      add\n      mload\n        /* \"contracts/ZombieGame.sol\":7411:7431  zombies[renterId[0]] */\n      dup2\n      sload\n      dup2\n      lt\n      tag_115\n      jumpi\n      tag_116\n      tag_92\n      jump\t// in\n    tag_116:\n    tag_115:\n      swap1\n      0x00\n      mstore\n      keccak256(0x00, 0x20)\n      swap1\n      0x09\n      mul\n      add\n        /* \"contracts/ZombieGame.sol\":7411:7437  zombies[renterId[0]].level */\n      0x03\n      add\n      0x00\n        /* \"contracts/ZombieGame.sol\":7411:7442  zombies[renterId[0]].level += 1 */\n      dup3\n      dup3\n      sload\n      tag_118\n      swap2\n      swap1\n      tag_119\n      jump\t// in\n    tag_118:\n      swap3\n      pop\n      pop\n      dup2\n      swap1\n      sstore\n      pop\n        /* \"contracts/ZombieGame.sol\":7340:7458  {... */\n      pop\n        /* \"contracts/ZombieGame.sol\":7262:7458  if (zombies[zombieID].Wins > beforeMatchWins && ZombieCount[msg.sender] >= 1) {... */\n    tag_111:\n        /* \"contracts/ZombieGame.sol\":7076:7469  {... */\n      pop\n        /* \"contracts/ZombieGame.sol\":7005:7618  if (RentedbyID[zombieID] == msg.sender || FreeNft[msg.sender] == true) {... */\n      jump(tag_120)\n    tag_98:\n        /* \"contracts/ZombieGame.sol\":7534:7544  msg.sender */\n      caller\n        /* \"contracts/ZombieGame.sol\":7509:7544  ZombieOwner[zombieID] == msg.sender */\n      0xffffffffffffffffffffffffffffffffffffffff\n      and\n        /* \"contracts/ZombieGame.sol\":7509:7520  ZombieOwner */\n      0x00\n        /* \"contracts/ZombieGame.sol\":7509:7530  ZombieOwner[zombieID] */\n      dup1\n        /* \"contracts/ZombieGame.sol\":7521:7529  zombieID */\n      dup4\n        /* \"contracts/ZombieGame.sol\":7509:7530  ZombieOwner[zombieID] */\n      dup2\n      mstore\n      0x20\n      add\n      swap1\n      dup2\n      mstore\n      0x20\n      add\n      0x00\n      keccak256\n      0x00\n      swap1\n      sload\n      swap1\n      0x0100\n      exp\n      swap1\n      div\n      0xffffffffffffffffffffffffffffffffffffffff\n      and\n        /* \"contracts/ZombieGame.sol\":7509:7544  ZombieOwner[zombieID] == msg.sender */\n      0xffffffffffffffffffffffffffffffffffffffff\n      and\n      eq\n        /* \"contracts/ZombieGame.sol\":7501:7567  require(ZombieOwner[zombieID] == msg.sender, \"You dont have nft.\") */\n      tag_121\n      jumpi\n      mload(0x40)\n      0x08c379a000000000000000000000000000000000000000000000000000000000\n      dup2\n      mstore\n      0x04\n      add\n      tag_122\n      swap1\n      tag_123\n      jump\t// in\n    tag_122:\n      mload(0x40)\n      dup1\n      swap2\n      sub\n      swap1\n      revert\n    tag_121:\n        /* \"contracts/ZombieGame.sol\":7582:7606  ZombieVsZombie(zombieID) */\n      tag_124\n        /* \"contracts/ZombieGame.sol\":7597:7605  zombieID */\n      dup2\n        /* \"contracts/ZombieGame.sol\":7582:7596  ZombieVsZombie */\n      tag_106\n        /* \"contracts/ZombieGame.sol\":7582:7606  ZombieVsZombie(zombieID) */\n      jump\t// in\n    tag_124:\n      pop\n        /* \"contracts/ZombieGame.sol\":7005:7618  if (RentedbyID[zombieID] == msg.sender || FreeNft[msg.sender] == true) {... */\n    tag_120:\n        /* \"contracts/ZombieGame.sol\":6949:7625  function Fight(uint zombieID) public {... */\n      pop\n      jump\t// out\n        /* \"contracts/ZombieGame.sol\":8245:8678  function tranferFrom(address from, address to, uint id) public OnlyOwner(id) {... */\n    tag_37:\n        /* \"contracts/ZombieGame.sol\":8318:8320  id */\n      dup1\n        /* \"contracts/ZombieGame.sol\":5068:5078  msg.sender */\n      caller\n        /* \"contracts/ZombieGame.sol\":5043:5078  ZombieOwner[zombieId] == msg.sender */\n      0xffffffffffffffffffffffffffffffffffffffff\n      and\n        /* \"contracts/ZombieGame.sol\":5043:5054  ZombieOwner */\n      0x00\n        /* \"contracts/ZombieGame.sol\":5043:5064  ZombieOwner[zombieId] */\n      dup1\n        /* \"contracts/ZombieGame.sol\":5055:5063  zombieId */\n      dup4\n        /* \"contracts/ZombieGame.sol\":5043:5064  ZombieOwner[zombieId] */\n      dup2\n      mstore\n      0x20\n      add\n      swap1\n      dup2\n      mstore\n      0x20\n      add\n      0x00\n      keccak256\n      0x00\n      swap1\n      sload\n      swap1\n      0x0100\n      exp\n      swap1\n      div\n      0xffffffffffffffffffffffffffffffffffffffff\n      and\n        /* \"contracts/ZombieGame.sol\":5043:5078  ZombieOwner[zombieId] == msg.sender */\n      0xffffffffffffffffffffffffffffffffffffffff\n      and\n      eq\n        /* \"contracts/ZombieGame.sol\":5035:5094  require(ZombieOwner[zombieId] == msg.sender, \"Only Owner.\") */\n      tag_126\n      jumpi\n      mload(0x40)\n      0x08c379a000000000000000000000000000000000000000000000000000000000\n      dup2\n      mstore\n      0x04\n      add\n      tag_127\n      swap1\n      tag_79\n      jump\t// in\n    tag_127:\n      mload(0x40)\n      dup1\n      swap2\n      sub\n      swap1\n      revert\n    tag_126:\n        /* \"contracts/ZombieGame.sol\":8389:8405  bytes(\"premium\") */\n      mload(0x40)\n      dup1\n      0x40\n      add\n      0x40\n      mstore\n      dup1\n      0x07\n      dup2\n      mstore\n      0x20\n      add\n      0x7072656d69756d00000000000000000000000000000000000000000000000000\n      dup2\n      mstore\n      pop\n        /* \"contracts/ZombieGame.sol\":8379:8406  keccak256(bytes(\"premium\")) */\n      dup1\n      mload\n      swap1\n      0x20\n      add\n      keccak256\n        /* \"contracts/ZombieGame.sol\":8357:8364  zombies */\n      0x03\n        /* \"contracts/ZombieGame.sol\":8365:8367  id */\n      dup4\n        /* \"contracts/ZombieGame.sol\":8357:8368  zombies[id] */\n      dup2\n      sload\n      dup2\n      lt\n      tag_129\n      jumpi\n      tag_130\n      tag_92\n      jump\t// in\n    tag_130:\n    tag_129:\n      swap1\n      0x00\n      mstore\n      keccak256(0x00, 0x20)\n      swap1\n      0x09\n      mul\n      add\n        /* \"contracts/ZombieGame.sol\":8357:8373  zombies[id].plan */\n      0x00\n      add\n        /* \"contracts/ZombieGame.sol\":8341:8375  keccak256(bytes(zombies[id].plan)) */\n      mload(0x40)\n      tag_132\n      swap2\n      swap1\n      tag_133\n      jump\t// in\n    tag_132:\n      mload(0x40)\n      dup1\n      swap2\n      sub\n      swap1\n      keccak256\n        /* \"contracts/ZombieGame.sol\":8341:8406  keccak256(bytes(zombies[id].plan)) == keccak256(bytes(\"premium\")) */\n      eq\n        /* \"contracts/ZombieGame.sol\":8333:8429  require(keccak256(bytes(zombies[id].plan)) == keccak256(bytes(\"premium\")), \"free nft can sell.\") */\n      tag_134\n      jumpi\n      mload(0x40)\n      0x08c379a000000000000000000000000000000000000000000000000000000000\n      dup2\n      mstore\n      0x04\n      add\n      tag_135\n      swap1\n      tag_136\n      jump\t// in\n    tag_135:\n      mload(0x40)\n      dup1\n      swap2\n      sub\n      swap1\n      revert\n    tag_134:\n        /* \"contracts/ZombieGame.sol\":8450:8456  onRent */\n      0x05\n        /* \"contracts/ZombieGame.sol\":8450:8460  onRent[id] */\n      0x00\n        /* \"contracts/ZombieGame.sol\":8457:8459  id */\n      dup4\n        /* \"contracts/ZombieGame.sol\":8450:8460  onRent[id] */\n      dup2\n      mstore\n      0x20\n      add\n      swap1\n      dup2\n      mstore\n      0x20\n      add\n      0x00\n      keccak256\n      0x00\n      swap1\n      sload\n      swap1\n      0x0100\n      exp\n      swap1\n      div\n      0xff\n      and\n        /* \"contracts/ZombieGame.sol\":8448:8460  ! onRent[id] */\n      iszero\n        /* \"contracts/ZombieGame.sol\":8440:8483  require(! onRent[id], \"This nft on rent.\" ) */\n      tag_137\n      jumpi\n      mload(0x40)\n      0x08c379a000000000000000000000000000000000000000000000000000000000\n      dup2\n      mstore\n      0x04\n      add\n      tag_138\n      swap1\n      tag_139\n      jump\t// in\n    tag_138:\n      mload(0x40)\n      dup1\n      swap2\n      sub\n      swap1\n      revert\n    tag_137:\n        /* \"contracts/ZombieGame.sol\":8521:8525  from */\n      dup4\n        /* \"contracts/ZombieGame.sol\":8502:8525  ZombieOwner[id] == from */\n      0xffffffffffffffffffffffffffffffffffffffff\n      and\n        /* \"contracts/ZombieGame.sol\":8502:8513  ZombieOwner */\n      0x00\n        /* \"contracts/ZombieGame.sol\":8502:8517  ZombieOwner[id] */\n      dup1\n        /* \"contracts/ZombieGame.sol\":8514:8516  id */\n      dup5\n        /* \"contracts/ZombieGame.sol\":8502:8517  ZombieOwner[id] */\n      dup2\n      mstore\n      0x20\n      add\n      swap1\n      dup2\n      mstore\n      0x20\n      add\n      0x00\n      keccak256\n      0x00\n      swap1\n      sload\n      swap1\n      0x0100\n      exp\n      swap1\n      div\n      0xffffffffffffffffffffffffffffffffffffffff\n      and\n        /* \"contracts/ZombieGame.sol\":8502:8525  ZombieOwner[id] == from */\n      0xffffffffffffffffffffffffffffffffffffffff\n      and\n      eq\n        /* \"contracts/ZombieGame.sol\":8502:8556  ZombieOwner[id] == from || Approve[from] == msg.sender */\n      dup1\n      tag_140\n      jumpi\n      pop\n        /* \"contracts/ZombieGame.sol\":8546:8556  msg.sender */\n      caller\n        /* \"contracts/ZombieGame.sol\":8529:8556  Approve[from] == msg.sender */\n      0xffffffffffffffffffffffffffffffffffffffff\n      and\n        /* \"contracts/ZombieGame.sol\":8529:8536  Approve */\n      0x07\n        /* \"contracts/ZombieGame.sol\":8529:8542  Approve[from] */\n      0x00\n        /* \"contracts/ZombieGame.sol\":8537:8541  from */\n      dup7\n        /* \"contracts/ZombieGame.sol\":8529:8542  Approve[from] */\n      0xffffffffffffffffffffffffffffffffffffffff\n      and\n      0xffffffffffffffffffffffffffffffffffffffff\n      and\n      dup2\n      mstore\n      0x20\n      add\n      swap1\n      dup2\n      mstore\n      0x20\n      add\n      0x00\n      keccak256\n      0x00\n      swap1\n      sload\n      swap1\n      0x0100\n      exp\n      swap1\n      div\n      0xffffffffffffffffffffffffffffffffffffffff\n      and\n        /* \"contracts/ZombieGame.sol\":8529:8556  Approve[from] == msg.sender */\n      0xffffffffffffffffffffffffffffffffffffffff\n      and\n      eq\n        /* \"contracts/ZombieGame.sol\":8502:8556  ZombieOwner[id] == from || Approve[from] == msg.sender */\n    tag_140:\n        /* \"contracts/ZombieGame.sol\":8494:8579  require(ZombieOwner[id] == from || Approve[from] == msg.sender, \"You dont have Nft.\") */\n      tag_141\n      jumpi\n      mload(0x40)\n      0x08c379a000000000000000000000000000000000000000000000000000000000\n      dup2\n      mstore\n      0x04\n      add\n      tag_142\n      swap1\n      tag_143\n      jump\t// in\n    tag_142:\n      mload(0x40)\n      dup1\n      swap2\n      sub\n      swap1\n      revert\n    tag_141:\n        /* \"contracts/ZombieGame.sol\":8608:8610  to */\n      dup3\n        /* \"contracts/ZombieGame.sol\":8590:8601  ZombieOwner */\n      0x00\n        /* \"contracts/ZombieGame.sol\":8590:8605  ZombieOwner[id] */\n      dup1\n        /* \"contracts/ZombieGame.sol\":8602:8604  id */\n      dup5\n        /* \"contracts/ZombieGame.sol\":8590:8605  ZombieOwner[id] */\n      dup2\n      mstore\n      0x20\n      add\n      swap1\n      dup2\n      mstore\n      0x20\n      add\n      0x00\n      keccak256\n      0x00\n        /* \"contracts/ZombieGame.sol\":8590:8610  ZombieOwner[id] = to */\n      0x0100\n      exp\n      dup2\n      sload\n      dup2\n      0xffffffffffffffffffffffffffffffffffffffff\n      mul\n      not\n      and\n      swap1\n      dup4\n      0xffffffffffffffffffffffffffffffffffffffff\n      and\n      mul\n      or\n      swap1\n      sstore\n      pop\n        /* \"contracts/ZombieGame.sol\":8621:8632  ZombieCount */\n      0x01\n        /* \"contracts/ZombieGame.sol\":8621:8638  ZombieCount[from] */\n      0x00\n        /* \"contracts/ZombieGame.sol\":8633:8637  from */\n      dup6\n        /* \"contracts/ZombieGame.sol\":8621:8638  ZombieCount[from] */\n      0xffffffffffffffffffffffffffffffffffffffff\n      and\n      0xffffffffffffffffffffffffffffffffffffffff\n      and\n      dup2\n      mstore\n      0x20\n      add\n      swap1\n      dup2\n      mstore\n      0x20\n      add\n      0x00\n      keccak256\n      0x00\n        /* \"contracts/ZombieGame.sol\":8621:8640  ZombieCount[from]-- */\n      dup2\n      sload\n      dup1\n      swap3\n      swap2\n      swap1\n      tag_144\n      swap1\n      tag_145\n      jump\t// in\n    tag_144:\n      swap2\n      swap1\n      pop\n      sstore\n      pop\n        /* \"contracts/ZombieGame.sol\":8651:8662  ZombieCount */\n      0x01\n        /* \"contracts/ZombieGame.sol\":8651:8666  ZombieCount[to] */\n      0x00\n        /* \"contracts/ZombieGame.sol\":8663:8665  to */\n      dup5\n        /* \"contracts/ZombieGame.sol\":8651:8666  ZombieCount[to] */\n      0xffffffffffffffffffffffffffffffffffffffff\n      and\n      0xffffffffffffffffffffffffffffffffffffffff\n      and\n      dup2\n      mstore\n      0x20\n      add\n      swap1\n      dup2\n      mstore\n      0x20\n      add\n      0x00\n      keccak256\n      0x00\n        /* \"contracts/ZombieGame.sol\":8651:8668  ZombieCount[to]++ */\n      dup2\n      sload\n      dup1\n      swap3\n      swap2\n      swap1\n      tag_146\n      swap1\n      tag_94\n      jump\t// in\n    tag_146:\n      swap2\n      swap1\n      pop\n      sstore\n      pop\n        /* \"contracts/ZombieGame.sol\":8245:8678  function tranferFrom(address from, address to, uint id) public OnlyOwner(id) {... */\n      pop\n      pop\n      pop\n      pop\n      jump\t// out\n        /* \"contracts/ZombieGame.sol\":4759:4801  mapping (address => bool) public buyOnRent */\n    tag_40:\n      mstore(0x20, 0x0a)\n      dup1\n      0x00\n      mstore\n      keccak256(0x00, 0x40)\n      0x00\n      swap2\n      pop\n      sload\n      swap1\n      0x0100\n      exp\n      swap1\n      div\n      0xff\n      and\n      dup2\n      jump\t// out\n        /* \"contracts/ZombieGame.sol\":4661:4699  mapping (uint => bool) public TakenNft */\n    tag_45:\n      mstore(0x20, 0x09)\n      dup1\n      0x00\n      mstore\n      keccak256(0x00, 0x40)\n      0x00\n      swap2\n      pop\n      sload\n      swap1\n      0x0100\n      exp\n      swap1\n      div\n      0xff\n      and\n      dup2\n      jump\t// out\n        /* \"contracts/ZombieGame.sol\":5171:5401  function FreeZombie() public {... */\n    tag_48:\n        /* \"contracts/ZombieGame.sol\":5246:5247  0 */\n      0x00\n        /* \"contracts/ZombieGame.sol\":5219:5230  ZombieCount */\n      0x01\n        /* \"contracts/ZombieGame.sol\":5219:5242  ZombieCount[msg.sender] */\n      0x00\n        /* \"contracts/ZombieGame.sol\":5231:5241  msg.sender */\n      caller\n        /* \"contracts/ZombieGame.sol\":5219:5242  ZombieCount[msg.sender] */\n      0xffffffffffffffffffffffffffffffffffffffff\n      and\n      0xffffffffffffffffffffffffffffffffffffffff\n      and\n      dup2\n      mstore\n      0x20\n      add\n      swap1\n      dup2\n      mstore\n      0x20\n      add\n      0x00\n      keccak256\n      sload\n        /* \"contracts/ZombieGame.sol\":5219:5247  ZombieCount[msg.sender] == 0 */\n      eq\n        /* \"contracts/ZombieGame.sol\":5211:5271  require(ZombieCount[msg.sender] == 0, \"Already have 1 nft.\") */\n      tag_148\n      jumpi\n      mload(0x40)\n      0x08c379a000000000000000000000000000000000000000000000000000000000\n      dup2\n      mstore\n      0x04\n      add\n      tag_149\n      swap1\n      tag_150\n      jump\t// in\n    tag_149:\n      mload(0x40)\n      dup1\n      swap2\n      sub\n      swap1\n      revert\n    tag_148:\n        /* \"contracts/ZombieGame.sol\":5304:5308  true */\n      0x01\n        /* \"contracts/ZombieGame.sol\":5282:5289  FreeNft */\n      0x04\n        /* \"contracts/ZombieGame.sol\":5282:5301  FreeNft[msg.sender] */\n      0x00\n        /* \"contracts/ZombieGame.sol\":5290:5300  msg.sender */\n      caller\n        /* \"contracts/ZombieGame.sol\":5282:5301  FreeNft[msg.sender] */\n      0xffffffffffffffffffffffffffffffffffffffff\n      and\n      0xffffffffffffffffffffffffffffffffffffffff\n      and\n      dup2\n      mstore\n      0x20\n      add\n      swap1\n      dup2\n      mstore\n      0x20\n      add\n      0x00\n      keccak256\n      0x00\n        /* \"contracts/ZombieGame.sol\":5282:5308  FreeNft[msg.sender] = true */\n      0x0100\n      exp\n      dup2\n      sload\n      dup2\n      0xff\n      mul\n      not\n      and\n      swap1\n      dup4\n      iszero\n      iszero\n      mul\n      or\n      swap1\n      sstore\n      pop\n        /* \"contracts/ZombieGame.sol\":5319:5393  createZombie(\"Free\", \"FreeZombie\", DnaGenerator(\"free\"), 1, 0, 0, 2, 0, 0) */\n      tag_151\n      mload(0x40)\n      dup1\n      0x40\n      add\n      0x40\n      mstore\n      dup1\n      0x04\n      dup2\n      mstore\n      0x20\n      add\n      0x4672656500000000000000000000000000000000000000000000000000000000\n      dup2\n      mstore\n      pop\n      mload(0x40)\n      dup1\n      0x40\n      add\n      0x40\n      mstore\n      dup1\n      0x0a\n      dup2\n      mstore\n      0x20\n      add\n      0x467265655a6f6d62696500000000000000000000000000000000000000000000\n      dup2\n      mstore\n      pop\n        /* \"contracts/ZombieGame.sol\":5354:5374  DnaGenerator(\"free\") */\n      tag_152\n      mload(0x40)\n      dup1\n      0x40\n      add\n      0x40\n      mstore\n      dup1\n      0x04\n      dup2\n      mstore\n      0x20\n      add\n      0x6672656500000000000000000000000000000000000000000000000000000000\n      dup2\n      mstore\n      pop\n        /* \"contracts/ZombieGame.sol\":5354:5366  DnaGenerator */\n      tag_153\n        /* \"contracts/ZombieGame.sol\":5354:5374  DnaGenerator(\"free\") */\n      jump\t// in\n    tag_152:\n        /* \"contracts/ZombieGame.sol\":5376:5377  1 */\n      0x01\n        /* \"contracts/ZombieGame.sol\":5379:5380  0 */\n      0x00\n        /* \"contracts/ZombieGame.sol\":5382:5383  0 */\n      dup1\n        /* \"contracts/ZombieGame.sol\":5385:5386  2 */\n      0x02\n        /* \"contracts/ZombieGame.sol\":5388:5389  0 */\n      0x00\n        /* \"contracts/ZombieGame.sol\":5391:5392  0 */\n      dup1\n        /* \"contracts/ZombieGame.sol\":5319:5331  createZombie */\n      tag_154\n        /* \"contracts/ZombieGame.sol\":5319:5393  createZombie(\"Free\", \"FreeZombie\", DnaGenerator(\"free\"), 1, 0, 0, 2, 0, 0) */\n      jump\t// in\n    tag_151:\n        /* \"contracts/ZombieGame.sol\":5171:5401  function FreeZombie() public {... */\n      jump\t// out\n        /* \"contracts/ZombieGame.sol\":6818:6941  function getDetails(uint zombieId) public view returns(zombieDetails memory){... */\n    tag_51:\n        /* \"contracts/ZombieGame.sol\":6873:6893  zombieDetails memory */\n      tag_155\n      tag_156\n      jump\t// in\n    tag_155:\n        /* \"contracts/ZombieGame.sol\":6912:6919  zombies */\n      0x03\n        /* \"contracts/ZombieGame.sol\":6920:6928  zombieId */\n      dup3\n        /* \"contracts/ZombieGame.sol\":6912:6929  zombies[zombieId] */\n      dup2\n      sload\n      dup2\n      lt\n      tag_158\n      jumpi\n      tag_159\n      tag_92\n      jump\t// in\n    tag_159:\n    tag_158:\n      swap1\n      0x00\n      mstore\n      keccak256(0x00, 0x20)\n      swap1\n      0x09\n      mul\n      add\n        /* \"contracts/ZombieGame.sol\":6905:6929  return zombies[zombieId] */\n      mload(0x40)\n      dup1\n      0x0120\n      add\n      0x40\n      mstore\n      swap1\n      dup2\n      0x00\n      dup3\n      add\n      dup1\n      sload\n      tag_161\n      swap1\n      tag_162\n      jump\t// in\n    tag_161:\n      dup1\n      0x1f\n      add\n      0x20\n      dup1\n      swap2\n      div\n      mul\n      0x20\n      add\n      mload(0x40)\n      swap1\n      dup2\n      add\n      0x40\n      mstore\n      dup1\n      swap3\n      swap2\n      swap1\n      dup2\n      dup2\n      mstore\n      0x20\n      add\n      dup3\n      dup1\n      sload\n      tag_163\n      swap1\n      tag_162\n      jump\t// in\n    tag_163:\n      dup1\n      iszero\n      tag_164\n      jumpi\n      dup1\n      0x1f\n      lt\n      tag_165\n      jumpi\n      0x0100\n      dup1\n      dup4\n      sload\n      div\n      mul\n      dup4\n      mstore\n      swap2\n      0x20\n      add\n      swap2\n      jump(tag_164)\n    tag_165:\n      dup3\n      add\n      swap2\n      swap1\n      0x00\n      mstore\n      keccak256(0x00, 0x20)\n      swap1\n    tag_166:\n      dup2\n      sload\n      dup2\n      mstore\n      swap1\n      0x01\n      add\n      swap1\n      0x20\n      add\n      dup1\n      dup4\n      gt\n      tag_166\n      jumpi\n      dup3\n      swap1\n      sub\n      0x1f\n      and\n      dup3\n      add\n      swap2\n    tag_164:\n      pop\n      pop\n      pop\n      pop\n      pop\n      dup2\n      mstore\n      0x20\n      add\n      0x01\n      dup3\n      add\n      dup1\n      sload\n      tag_167\n      swap1\n      tag_162\n      jump\t// in\n    tag_167:\n      dup1\n      0x1f\n      add\n      0x20\n      dup1\n      swap2\n      div\n      mul\n      0x20\n      add\n      mload(0x40)\n      swap1\n      dup2\n      add\n      0x40\n      mstore\n      dup1\n      swap3\n      swap2\n      swap1\n      dup2\n      dup2\n      mstore\n      0x20\n      add\n      dup3\n      dup1\n      sload\n      tag_168\n      swap1\n      tag_162\n      jump\t// in\n    tag_168:\n      dup1\n      iszero\n      tag_169\n      jumpi\n      dup1\n      0x1f\n      lt\n      tag_170\n      jumpi\n      0x0100\n      dup1\n      dup4\n      sload\n      div\n      mul\n      dup4\n      mstore\n      swap2\n      0x20\n      add\n      swap2\n      jump(tag_169)\n    tag_170:\n      dup3\n      add\n      swap2\n      swap1\n      0x00\n      mstore\n      keccak256(0x00, 0x20)\n      swap1\n    tag_171:\n      dup2\n      sload\n      dup2\n      mstore\n      swap1\n      0x01\n      add\n      swap1\n      0x20\n      add\n      dup1\n      dup4\n      gt\n      tag_171\n      jumpi\n      dup3\n      swap1\n      sub\n      0x1f\n      and\n      dup3\n      add\n      swap2\n    tag_169:\n      pop\n      pop\n      pop\n      pop\n      pop\n      dup2\n      mstore\n      0x20\n      add\n      0x02\n      dup3\n      add\n      sload\n      dup2\n      mstore\n      0x20\n      add\n      0x03\n      dup3\n      add\n      sload\n      dup2\n      mstore\n      0x20\n      add\n      0x04\n      dup3\n      add\n      sload\n      dup2\n      mstore\n      0x20\n      add\n      0x05\n      dup3\n      add\n      sload\n      dup2\n      mstore\n      0x20\n      add\n      0x06\n      dup3\n      add\n      sload\n      dup2\n      mstore\n      0x20\n      add\n      0x07\n      dup3\n      add\n      sload\n      dup2\n      mstore\n      0x20\n      add\n      0x08\n      dup3\n      add\n      sload\n      dup2\n      mstore\n      pop\n      pop\n      swap1\n      pop\n        /* \"contracts/ZombieGame.sol\":6818:6941  function getDetails(uint zombieId) public view returns(zombieDetails memory){... */\n      swap2\n      swap1\n      pop\n      jump\t// out\n        /* \"contracts/ZombieGame.sol\":4211:4251  mapping (address => bool) public FreeNft */\n    tag_56:\n      mstore(0x20, 0x04)\n      dup1\n      0x00\n      mstore\n      keccak256(0x00, 0x40)\n      0x00\n      swap2\n      pop\n      sload\n      swap1\n      0x0100\n      exp\n      swap1\n      div\n      0xff\n      and\n      dup2\n      jump\t// out\n        /* \"contracts/ZombieGame.sol\":4886:4929  mapping (uint => address) public RentedbyID */\n    tag_60:\n      mstore(0x20, 0x0b)\n      dup1\n      0x00\n      mstore\n      keccak256(0x00, 0x40)\n      0x00\n      swap2\n      pop\n      sload\n      swap1\n      0x0100\n      exp\n      swap1\n      div\n      0xffffffffffffffffffffffffffffffffffffffff\n      and\n      dup2\n      jump\t// out\n        /* \"contracts/ZombieGame.sol\":5510:5833  function BuyZombie(string memory plan, string memory name) public {... */\n    tag_66:\n        /* \"contracts/ZombieGame.sol\":5631:5647  bytes(\"premium\") */\n      mload(0x40)\n      dup1\n      0x40\n      add\n      0x40\n      mstore\n      dup1\n      0x07\n      dup2\n      mstore\n      0x20\n      add\n      0x7072656d69756d00000000000000000000000000000000000000000000000000\n      dup2\n      mstore\n      pop\n        /* \"contracts/ZombieGame.sol\":5621:5648  keccak256(bytes(\"premium\")) */\n      dup1\n      mload\n      swap1\n      0x20\n      add\n      keccak256\n        /* \"contracts/ZombieGame.sol\":5611:5615  plan */\n      dup3\n        /* \"contracts/ZombieGame.sol\":5595:5617  keccak256(bytes(plan)) */\n      dup1\n      mload\n      swap1\n      0x20\n      add\n      keccak256\n        /* \"contracts/ZombieGame.sol\":5595:5648  keccak256(bytes(plan)) == keccak256(bytes(\"premium\")) */\n      eq\n        /* \"contracts/ZombieGame.sol\":5595:5705  keccak256(bytes(plan)) == keccak256(bytes(\"premium\")) || keccak256(bytes(plan)) == keccak256(bytes(\"Diamond\")) */\n      dup1\n      tag_173\n      jumpi\n      pop\n        /* \"contracts/ZombieGame.sol\":5688:5704  bytes(\"Diamond\") */\n      mload(0x40)\n      dup1\n      0x40\n      add\n      0x40\n      mstore\n      dup1\n      0x07\n      dup2\n      mstore\n      0x20\n      add\n      0x4469616d6f6e6400000000000000000000000000000000000000000000000000\n      dup2\n      mstore\n      pop\n        /* \"contracts/ZombieGame.sol\":5678:5705  keccak256(bytes(\"Diamond\")) */\n      dup1\n      mload\n      swap1\n      0x20\n      add\n      keccak256\n        /* \"contracts/ZombieGame.sol\":5668:5672  plan */\n      dup3\n        /* \"contracts/ZombieGame.sol\":5652:5674  keccak256(bytes(plan)) */\n      dup1\n      mload\n      swap1\n      0x20\n      add\n      keccak256\n        /* \"contracts/ZombieGame.sol\":5652:5705  keccak256(bytes(plan)) == keccak256(bytes(\"Diamond\")) */\n      eq\n        /* \"contracts/ZombieGame.sol\":5595:5705  keccak256(bytes(plan)) == keccak256(bytes(\"premium\")) || keccak256(bytes(plan)) == keccak256(bytes(\"Diamond\")) */\n    tag_173:\n        /* \"contracts/ZombieGame.sol\":5587:5725  require(keccak256(bytes(plan)) == keccak256(bytes(\"premium\")) || keccak256(bytes(plan)) == keccak256(bytes(\"Diamond\")),\"Correct Spelling\") */\n      tag_174\n      jumpi\n      mload(0x40)\n      0x08c379a000000000000000000000000000000000000000000000000000000000\n      dup2\n      mstore\n      0x04\n      add\n      tag_175\n      swap1\n      tag_176\n      jump\t// in\n    tag_175:\n      mload(0x40)\n      dup1\n      swap2\n      sub\n      swap1\n      revert\n    tag_174:\n        /* \"contracts/ZombieGame.sol\":5736:5744  uint Dna */\n      0x00\n        /* \"contracts/ZombieGame.sol\":5747:5765  DnaGenerator(name) */\n      tag_177\n        /* \"contracts/ZombieGame.sol\":5760:5764  name */\n      dup3\n        /* \"contracts/ZombieGame.sol\":5747:5759  DnaGenerator */\n      tag_153\n        /* \"contracts/ZombieGame.sol\":5747:5765  DnaGenerator(name) */\n      jump\t// in\n    tag_177:\n        /* \"contracts/ZombieGame.sol\":5736:5765  uint Dna = DnaGenerator(name) */\n      swap1\n      pop\n        /* \"contracts/ZombieGame.sol\":5776:5825  createZombie(plan, name, Dna, 5, 500, 0, 5, 0, 0) */\n      tag_178\n        /* \"contracts/ZombieGame.sol\":5789:5793  plan */\n      dup4\n        /* \"contracts/ZombieGame.sol\":5795:5799  name */\n      dup4\n        /* \"contracts/ZombieGame.sol\":5801:5804  Dna */\n      dup4\n        /* \"contracts/ZombieGame.sol\":5806:5807  5 */\n      0x05\n        /* \"contracts/ZombieGame.sol\":5809:5812  500 */\n      0x01f4\n        /* \"contracts/ZombieGame.sol\":5814:5815  0 */\n      0x00\n        /* \"contracts/ZombieGame.sol\":5817:5818  5 */\n      0x05\n        /* \"contracts/ZombieGame.sol\":5820:5821  0 */\n      0x00\n        /* \"contracts/ZombieGame.sol\":5823:5824  0 */\n      dup1\n        /* \"contracts/ZombieGame.sol\":5776:5788  createZombie */\n      tag_154\n        /* \"contracts/ZombieGame.sol\":5776:5825  createZombie(plan, name, Dna, 5, 500, 0, 5, 0, 0) */\n      jump\t// in\n    tag_178:\n        /* \"contracts/ZombieGame.sol\":5576:5833  {... */\n      pop\n        /* \"contracts/ZombieGame.sol\":5510:5833  function BuyZombie(string memory plan, string memory name) public {... */\n      pop\n      pop\n      jump\t// out\n        /* \"contracts/ZombieGame.sol\":7843:8086  function RemoveRent(uint id) public OnlyOwner(id) {... */\n    tag_69:\n        /* \"contracts/ZombieGame.sol\":7889:7891  id */\n      dup1\n        /* \"contracts/ZombieGame.sol\":5068:5078  msg.sender */\n      caller\n        /* \"contracts/ZombieGame.sol\":5043:5078  ZombieOwner[zombieId] == msg.sender */\n      0xffffffffffffffffffffffffffffffffffffffff\n      and\n        /* \"contracts/ZombieGame.sol\":5043:5054  ZombieOwner */\n      0x00\n        /* \"contracts/ZombieGame.sol\":5043:5064  ZombieOwner[zombieId] */\n      dup1\n        /* \"contracts/ZombieGame.sol\":5055:5063  zombieId */\n      dup4\n        /* \"contracts/ZombieGame.sol\":5043:5064  ZombieOwner[zombieId] */\n      dup2\n      mstore\n      0x20\n      add\n      swap1\n      dup2\n      mstore\n      0x20\n      add\n      0x00\n      keccak256\n      0x00\n      swap1\n      sload\n      swap1\n      0x0100\n      exp\n      swap1\n      div\n      0xffffffffffffffffffffffffffffffffffffffff\n      and\n        /* \"contracts/ZombieGame.sol\":5043:5078  ZombieOwner[zombieId] == msg.sender */\n      0xffffffffffffffffffffffffffffffffffffffff\n      and\n      eq\n        /* \"contracts/ZombieGame.sol\":5035:5094  require(ZombieOwner[zombieId] == msg.sender, \"Only Owner.\") */\n      tag_180\n      jumpi\n      mload(0x40)\n      0x08c379a000000000000000000000000000000000000000000000000000000000\n      dup2\n      mstore\n      0x04\n      add\n      tag_181\n      swap1\n      tag_79\n      jump\t// in\n    tag_181:\n      mload(0x40)\n      dup1\n      swap2\n      sub\n      swap1\n      revert\n    tag_180:\n        /* \"contracts/ZombieGame.sol\":7926:7930  true */\n      0x01\n        /* \"contracts/ZombieGame.sol\":7912:7930  onRent[id] == true */\n      iszero\n      iszero\n        /* \"contracts/ZombieGame.sol\":7912:7918  onRent */\n      0x05\n        /* \"contracts/ZombieGame.sol\":7912:7922  onRent[id] */\n      0x00\n        /* \"contracts/ZombieGame.sol\":7919:7921  id */\n      dup5\n        /* \"contracts/ZombieGame.sol\":7912:7922  onRent[id] */\n      dup2\n      mstore\n      0x20\n      add\n      swap1\n      dup2\n      mstore\n      0x20\n      add\n      0x00\n      keccak256\n      0x00\n      swap1\n      sload\n      swap1\n      0x0100\n      exp\n      swap1\n      div\n      0xff\n      and\n        /* \"contracts/ZombieGame.sol\":7912:7930  onRent[id] == true */\n      iszero\n      iszero\n      eq\n        /* \"contracts/ZombieGame.sol\":7904:7931  require(onRent[id] == true) */\n      tag_183\n      jumpi\n      0x00\n      dup1\n      revert\n    tag_183:\n        /* \"contracts/ZombieGame.sol\":7969:7975  Timing */\n      0x08\n        /* \"contracts/ZombieGame.sol\":7969:7979  Timing[id] */\n      0x00\n        /* \"contracts/ZombieGame.sol\":7976:7978  id */\n      dup4\n        /* \"contracts/ZombieGame.sol\":7969:7979  Timing[id] */\n      dup2\n      mstore\n      0x20\n      add\n      swap1\n      dup2\n      mstore\n      0x20\n      add\n      0x00\n      keccak256\n      sload\n        /* \"contracts/ZombieGame.sol\":7950:7965  block.timestamp */\n      timestamp\n        /* \"contracts/ZombieGame.sol\":7950:7979  block.timestamp >= Timing[id] */\n      lt\n      iszero\n        /* \"contracts/ZombieGame.sol\":7942:7980  require(block.timestamp >= Timing[id]) */\n      tag_184\n      jumpi\n      0x00\n      dup1\n      revert\n    tag_184:\n        /* \"contracts/ZombieGame.sol\":8004:8009  false */\n      0x00\n        /* \"contracts/ZombieGame.sol\":7991:7997  onRent */\n      0x05\n        /* \"contracts/ZombieGame.sol\":7991:8001  onRent[id] */\n      0x00\n        /* \"contracts/ZombieGame.sol\":7998:8000  id */\n      dup5\n        /* \"contracts/ZombieGame.sol\":7991:8001  onRent[id] */\n      dup2\n      mstore\n      0x20\n      add\n      swap1\n      dup2\n      mstore\n      0x20\n      add\n      0x00\n      keccak256\n      0x00\n        /* \"contracts/ZombieGame.sol\":7991:8009  onRent[id] = false */\n      0x0100\n      exp\n      dup2\n      sload\n      dup2\n      0xff\n      mul\n      not\n      and\n      swap1\n      dup4\n      iszero\n      iszero\n      mul\n      or\n      swap1\n      sstore\n      pop\n        /* \"contracts/ZombieGame.sol\":8035:8040  false */\n      0x00\n        /* \"contracts/ZombieGame.sol\":8020:8028  TakenNft */\n      0x09\n        /* \"contracts/ZombieGame.sol\":8020:8032  TakenNft[id] */\n      0x00\n        /* \"contracts/ZombieGame.sol\":8029:8031  id */\n      dup5\n        /* \"contracts/ZombieGame.sol\":8020:8032  TakenNft[id] */\n      dup2\n      mstore\n      0x20\n      add\n      swap1\n      dup2\n      mstore\n      0x20\n      add\n      0x00\n      keccak256\n      0x00\n        /* \"contracts/ZombieGame.sol\":8020:8040  TakenNft[id] = false */\n      0x0100\n      exp\n      dup2\n      sload\n      dup2\n      0xff\n      mul\n      not\n      and\n      swap1\n      dup4\n      iszero\n      iszero\n      mul\n      or\n      swap1\n      sstore\n      pop\n        /* \"contracts/ZombieGame.sol\":8076:8077  0 */\n      0x00\n        /* \"contracts/ZombieGame.sol\":8051:8061  RentedbyID */\n      0x0b\n        /* \"contracts/ZombieGame.sol\":8051:8065  RentedbyID[id] */\n      0x00\n        /* \"contracts/ZombieGame.sol\":8062:8064  id */\n      dup5\n        /* \"contracts/ZombieGame.sol\":8051:8065  RentedbyID[id] */\n      dup2\n      mstore\n      0x20\n      add\n      swap1\n      dup2\n      mstore\n      0x20\n      add\n      0x00\n      keccak256\n      0x00\n        /* \"contracts/ZombieGame.sol\":8051:8078  RentedbyID[id] = address(0) */\n      0x0100\n      exp\n      dup2\n      sload\n      dup2\n      0xffffffffffffffffffffffffffffffffffffffff\n      mul\n      not\n      and\n      swap1\n      dup4\n      0xffffffffffffffffffffffffffffffffffffffff\n      and\n      mul\n      or\n      swap1\n      sstore\n      pop\n        /* \"contracts/ZombieGame.sol\":7843:8086  function RemoveRent(uint id) public OnlyOwner(id) {... */\n      pop\n      pop\n      jump\t// out\n        /* \"contracts/ZombieGame.sol\":5881:6249  function BuyOnRent(uint id) public {... */\n    tag_72:\n        /* \"contracts/ZombieGame.sol\":5936:5944  TakenNft */\n      0x09\n        /* \"contracts/ZombieGame.sol\":5936:5948  TakenNft[id] */\n      0x00\n        /* \"contracts/ZombieGame.sol\":5945:5947  id */\n      dup3\n        /* \"contracts/ZombieGame.sol\":5936:5948  TakenNft[id] */\n      dup2\n      mstore\n      0x20\n      add\n      swap1\n      dup2\n      mstore\n      0x20\n      add\n      0x00\n      keccak256\n      0x00\n      swap1\n      sload\n      swap1\n      0x0100\n      exp\n      swap1\n      div\n      0xff\n      and\n        /* \"contracts/ZombieGame.sol\":5935:5948  !TakenNft[id] */\n      iszero\n        /* \"contracts/ZombieGame.sol\":5935:5974  !TakenNft[id] && !buyOnRent[msg.sender] */\n      dup1\n      iszero\n      tag_186\n      jumpi\n      pop\n        /* \"contracts/ZombieGame.sol\":5953:5962  buyOnRent */\n      0x0a\n        /* \"contracts/ZombieGame.sol\":5953:5974  buyOnRent[msg.sender] */\n      0x00\n        /* \"contracts/ZombieGame.sol\":5963:5973  msg.sender */\n      caller\n        /* \"contracts/ZombieGame.sol\":5953:5974  buyOnRent[msg.sender] */\n      0xffffffffffffffffffffffffffffffffffffffff\n      and\n      0xffffffffffffffffffffffffffffffffffffffff\n      and\n      dup2\n      mstore\n      0x20\n      add\n      swap1\n      dup2\n      mstore\n      0x20\n      add\n      0x00\n      keccak256\n      0x00\n      swap1\n      sload\n      swap1\n      0x0100\n      exp\n      swap1\n      div\n      0xff\n      and\n        /* \"contracts/ZombieGame.sol\":5952:5974  !buyOnRent[msg.sender] */\n      iszero\n        /* \"contracts/ZombieGame.sol\":5935:5974  !TakenNft[id] && !buyOnRent[msg.sender] */\n    tag_186:\n        /* \"contracts/ZombieGame.sol\":5927:5997  require(!TakenNft[id] && !buyOnRent[msg.sender], \"already taken Nft.\") */\n      tag_187\n      jumpi\n      mload(0x40)\n      0x08c379a000000000000000000000000000000000000000000000000000000000\n      dup2\n      mstore\n      0x04\n      add\n      tag_188\n      swap1\n      tag_189\n      jump\t// in\n    tag_188:\n      mload(0x40)\n      dup1\n      swap2\n      sub\n      swap1\n      revert\n    tag_187:\n        /* \"contracts/ZombieGame.sol\":6035:6045  msg.sender */\n      caller\n        /* \"contracts/ZombieGame.sol\":6016:6045  ZombieOwner[id] != msg.sender */\n      0xffffffffffffffffffffffffffffffffffffffff\n      and\n        /* \"contracts/ZombieGame.sol\":6016:6027  ZombieOwner */\n      0x00\n        /* \"contracts/ZombieGame.sol\":6016:6031  ZombieOwner[id] */\n      dup1\n        /* \"contracts/ZombieGame.sol\":6028:6030  id */\n      dup4\n        /* \"contracts/ZombieGame.sol\":6016:6031  ZombieOwner[id] */\n      dup2\n      mstore\n      0x20\n      add\n      swap1\n      dup2\n      mstore\n      0x20\n      add\n      0x00\n      keccak256\n      0x00\n      swap1\n      sload\n      swap1\n      0x0100\n      exp\n      swap1\n      div\n      0xffffffffffffffffffffffffffffffffffffffff\n      and\n        /* \"contracts/ZombieGame.sol\":6016:6045  ZombieOwner[id] != msg.sender */\n      0xffffffffffffffffffffffffffffffffffffffff\n      and\n      sub\n        /* \"contracts/ZombieGame.sol\":6008:6077  require(ZombieOwner[id] != msg.sender, \"owner cant take his own id.\") */\n      tag_190\n      jumpi\n      mload(0x40)\n      0x08c379a000000000000000000000000000000000000000000000000000000000\n      dup2\n      mstore\n      0x04\n      add\n      tag_191\n      swap1\n      tag_192\n      jump\t// in\n    tag_191:\n      mload(0x40)\n      dup1\n      swap2\n      sub\n      swap1\n      revert\n    tag_190:\n        /* \"contracts/ZombieGame.sol\":6110:6114  true */\n      0x01\n        /* \"contracts/ZombieGame.sol\":6096:6114  onRent[id] == true */\n      iszero\n      iszero\n        /* \"contracts/ZombieGame.sol\":6096:6102  onRent */\n      0x05\n        /* \"contracts/ZombieGame.sol\":6096:6106  onRent[id] */\n      0x00\n        /* \"contracts/ZombieGame.sol\":6103:6105  id */\n      dup4\n        /* \"contracts/ZombieGame.sol\":6096:6106  onRent[id] */\n      dup2\n      mstore\n      0x20\n      add\n      swap1\n      dup2\n      mstore\n      0x20\n      add\n      0x00\n      keccak256\n      0x00\n      swap1\n      sload\n      swap1\n      0x0100\n      exp\n      swap1\n      div\n      0xff\n      and\n        /* \"contracts/ZombieGame.sol\":6096:6114  onRent[id] == true */\n      iszero\n      iszero\n      eq\n        /* \"contracts/ZombieGame.sol\":6088:6134  require(onRent[id] == true, \"nft not listed.\") */\n      tag_193\n      jumpi\n      mload(0x40)\n      0x08c379a000000000000000000000000000000000000000000000000000000000\n      dup2\n      mstore\n      0x04\n      add\n      tag_194\n      swap1\n      tag_195\n      jump\t// in\n    tag_194:\n      mload(0x40)\n      dup1\n      swap2\n      sub\n      swap1\n      revert\n    tag_193:\n        /* \"contracts/ZombieGame.sol\":6162:6172  msg.sender */\n      caller\n        /* \"contracts/ZombieGame.sol\":6145:6155  RentedbyID */\n      0x0b\n        /* \"contracts/ZombieGame.sol\":6145:6159  RentedbyID[id] */\n      0x00\n        /* \"contracts/ZombieGame.sol\":6156:6158  id */\n      dup4\n        /* \"contracts/ZombieGame.sol\":6145:6159  RentedbyID[id] */\n      dup2\n      mstore\n      0x20\n      add\n      swap1\n      dup2\n      mstore\n      0x20\n      add\n      0x00\n      keccak256\n      0x00\n        /* \"contracts/ZombieGame.sol\":6145:6172  RentedbyID[id] = msg.sender */\n      0x0100\n      exp\n      dup2\n      sload\n      dup2\n      0xffffffffffffffffffffffffffffffffffffffff\n      mul\n      not\n      and\n      swap1\n      dup4\n      0xffffffffffffffffffffffffffffffffffffffff\n      and\n      mul\n      or\n      swap1\n      sstore\n      pop\n        /* \"contracts/ZombieGame.sol\":6207:6211  true */\n      0x01\n        /* \"contracts/ZombieGame.sol\":6183:6192  buyOnRent */\n      0x0a\n        /* \"contracts/ZombieGame.sol\":6183:6204  buyOnRent[msg.sender] */\n      0x00\n        /* \"contracts/ZombieGame.sol\":6193:6203  msg.sender */\n      caller\n        /* \"contracts/ZombieGame.sol\":6183:6204  buyOnRent[msg.sender] */\n      0xffffffffffffffffffffffffffffffffffffffff\n      and\n      0xffffffffffffffffffffffffffffffffffffffff\n      and\n      dup2\n      mstore\n      0x20\n      add\n      swap1\n      dup2\n      mstore\n      0x20\n      add\n      0x00\n      keccak256\n      0x00\n        /* \"contracts/ZombieGame.sol\":6183:6211  buyOnRent[msg.sender] = true */\n      0x0100\n      exp\n      dup2\n      sload\n      dup2\n      0xff\n      mul\n      not\n      and\n      swap1\n      dup4\n      iszero\n      iszero\n      mul\n      or\n      swap1\n      sstore\n      pop\n        /* \"contracts/ZombieGame.sol\":6237:6241  true */\n      0x01\n        /* \"contracts/ZombieGame.sol\":6222:6230  TakenNft */\n      0x09\n        /* \"contracts/ZombieGame.sol\":6222:6234  TakenNft[id] */\n      0x00\n        /* \"contracts/ZombieGame.sol\":6231:6233  id */\n      dup4\n        /* \"contracts/ZombieGame.sol\":6222:6234  TakenNft[id] */\n      dup2\n      mstore\n      0x20\n      add\n      swap1\n      dup2\n      mstore\n      0x20\n      add\n      0x00\n      keccak256\n      0x00\n        /* \"contracts/ZombieGame.sol\":6222:6241  TakenNft[id] = true */\n      0x0100\n      exp\n      dup2\n      sload\n      dup2\n      0xff\n      mul\n      not\n      and\n      swap1\n      dup4\n      iszero\n      iszero\n      mul\n      or\n      swap1\n      sstore\n      pop\n        /* \"contracts/ZombieGame.sol\":5881:6249  function BuyOnRent(uint id) public {... */\n      pop\n      jump\t// out\n        /* \"contracts/ZombieGame.sol\":7633:7835  function GiveOnRent(uint id) public OnlyOwner(id) {... */\n    tag_75:\n        /* \"contracts/ZombieGame.sol\":7679:7681  id */\n      dup1\n        /* \"contracts/ZombieGame.sol\":5068:5078  msg.sender */\n      caller\n        /* \"contracts/ZombieGame.sol\":5043:5078  ZombieOwner[zombieId] == msg.sender */\n      0xffffffffffffffffffffffffffffffffffffffff\n      and\n        /* \"contracts/ZombieGame.sol\":5043:5054  ZombieOwner */\n      0x00\n        /* \"contracts/ZombieGame.sol\":5043:5064  ZombieOwner[zombieId] */\n      dup1\n        /* \"contracts/ZombieGame.sol\":5055:5063  zombieId */\n      dup4\n        /* \"contracts/ZombieGame.sol\":5043:5064  ZombieOwner[zombieId] */\n      dup2\n      mstore\n      0x20\n      add\n      swap1\n      dup2\n      mstore\n      0x20\n      add\n      0x00\n      keccak256\n      0x00\n      swap1\n      sload\n      swap1\n      0x0100\n      exp\n      swap1\n      div\n      0xffffffffffffffffffffffffffffffffffffffff\n      and\n        /* \"contracts/ZombieGame.sol\":5043:5078  ZombieOwner[zombieId] == msg.sender */\n      0xffffffffffffffffffffffffffffffffffffffff\n      and\n      eq\n        /* \"contracts/ZombieGame.sol\":5035:5094  require(ZombieOwner[zombieId] == msg.sender, \"Only Owner.\") */\n      tag_197\n      jumpi\n      mload(0x40)\n      0x08c379a000000000000000000000000000000000000000000000000000000000\n      dup2\n      mstore\n      0x04\n      add\n      tag_198\n      swap1\n      tag_79\n      jump\t// in\n    tag_198:\n      mload(0x40)\n      dup1\n      swap2\n      sub\n      swap1\n      revert\n    tag_197:\n        /* \"contracts/ZombieGame.sol\":7703:7709  onRent */\n      0x05\n        /* \"contracts/ZombieGame.sol\":7703:7713  onRent[id] */\n      0x00\n        /* \"contracts/ZombieGame.sol\":7710:7712  id */\n      dup4\n        /* \"contracts/ZombieGame.sol\":7703:7713  onRent[id] */\n      dup2\n      mstore\n      0x20\n      add\n      swap1\n      dup2\n      mstore\n      0x20\n      add\n      0x00\n      keccak256\n      0x00\n      swap1\n      sload\n      swap1\n      0x0100\n      exp\n      swap1\n      div\n      0xff\n      and\n        /* \"contracts/ZombieGame.sol\":7702:7713  !onRent[id] */\n      iszero\n        /* \"contracts/ZombieGame.sol\":7694:7714  require(!onRent[id]) */\n      tag_200\n      jumpi\n      0x00\n      dup1\n      revert\n    tag_200:\n        /* \"contracts/ZombieGame.sol\":7738:7742  true */\n      0x01\n        /* \"contracts/ZombieGame.sol\":7725:7731  onRent */\n      0x05\n        /* \"contracts/ZombieGame.sol\":7725:7735  onRent[id] */\n      0x00\n        /* \"contracts/ZombieGame.sol\":7732:7734  id */\n      dup5\n        /* \"contracts/ZombieGame.sol\":7725:7735  onRent[id] */\n      dup2\n      mstore\n      0x20\n      add\n      swap1\n      dup2\n      mstore\n      0x20\n      add\n      0x00\n      keccak256\n      0x00\n        /* \"contracts/ZombieGame.sol\":7725:7742  onRent[id] = true */\n      0x0100\n      exp\n      dup2\n      sload\n      dup2\n      0xff\n      mul\n      not\n      and\n      swap1\n      dup4\n      iszero\n      iszero\n      mul\n      or\n      swap1\n      sstore\n      pop\n        /* \"contracts/ZombieGame.sol\":7753:7765  uint EndTime */\n      0x00\n        /* \"contracts/ZombieGame.sol\":7786:7796  30 seconds */\n      0x1e\n        /* \"contracts/ZombieGame.sol\":7768:7783  block.timestamp */\n      timestamp\n        /* \"contracts/ZombieGame.sol\":7768:7796  block.timestamp + 30 seconds */\n      tag_201\n      swap2\n      swap1\n      tag_119\n      jump\t// in\n    tag_201:\n        /* \"contracts/ZombieGame.sol\":7753:7796  uint EndTime = block.timestamp + 30 seconds */\n      swap1\n      pop\n        /* \"contracts/ZombieGame.sol\":7820:7827  EndTime */\n      dup1\n        /* \"contracts/ZombieGame.sol\":7807:7813  Timing */\n      0x08\n        /* \"contracts/ZombieGame.sol\":7807:7817  Timing[id] */\n      0x00\n        /* \"contracts/ZombieGame.sol\":7814:7816  id */\n      dup6\n        /* \"contracts/ZombieGame.sol\":7807:7817  Timing[id] */\n      dup2\n      mstore\n      0x20\n      add\n      swap1\n      dup2\n      mstore\n      0x20\n      add\n      0x00\n      keccak256\n        /* \"contracts/ZombieGame.sol\":7807:7827  Timing[id] = EndTime */\n      dup2\n      swap1\n      sstore\n      pop\n        /* \"contracts/ZombieGame.sol\":7683:7835  {... */\n      pop\n        /* \"contracts/ZombieGame.sol\":7633:7835  function GiveOnRent(uint id) public OnlyOwner(id) {... */\n      pop\n      pop\n      jump\t// out\n        /* \"contracts/ZombieGame.sol\":2437:4114  function ZombieVsZombie(uint yourZombie) internal returns(string memory){... */\n    tag_106:\n        /* \"contracts/ZombieGame.sol\":2495:2508  string memory */\n      0x60\n        /* \"contracts/ZombieGame.sol\":2520:2536  uint enemyZombie */\n      0x00\n        /* \"contracts/ZombieGame.sol\":2539:2552  randomEnemy() */\n      tag_203\n        /* \"contracts/ZombieGame.sol\":2539:2550  randomEnemy */\n      tag_204\n        /* \"contracts/ZombieGame.sol\":2539:2552  randomEnemy() */\n      jump\t// in\n    tag_203:\n        /* \"contracts/ZombieGame.sol\":2520:2552  uint enemyZombie = randomEnemy() */\n      swap1\n      pop\n        /* \"contracts/ZombieGame.sol\":2673:2680  zombies */\n      0x03\n        /* \"contracts/ZombieGame.sol\":2681:2692  enemyZombie */\n      dup2\n        /* \"contracts/ZombieGame.sol\":2673:2693  zombies[enemyZombie] */\n      dup2\n      sload\n      dup2\n      lt\n      tag_205\n      jumpi\n      tag_206\n      tag_92\n      jump\t// in\n    tag_206:\n    tag_205:\n      swap1\n      0x00\n      mstore\n      keccak256(0x00, 0x20)\n      swap1\n      0x09\n      mul\n      add\n        /* \"contracts/ZombieGame.sol\":2673:2699  zombies[enemyZombie].level */\n      0x03\n      add\n      sload\n        /* \"contracts/ZombieGame.sol\":2645:2652  zombies */\n      0x03\n        /* \"contracts/ZombieGame.sol\":2653:2663  yourZombie */\n      dup5\n        /* \"contracts/ZombieGame.sol\":2645:2664  zombies[yourZombie] */\n      dup2\n      sload\n      dup2\n      lt\n      tag_208\n      jumpi\n      tag_209\n      tag_92\n      jump\t// in\n    tag_209:\n    tag_208:\n      swap1\n      0x00\n      mstore\n      keccak256(0x00, 0x20)\n      swap1\n      0x09\n      mul\n      add\n        /* \"contracts/ZombieGame.sol\":2645:2670  zombies[yourZombie].level */\n      0x03\n      add\n      sload\n        /* \"contracts/ZombieGame.sol\":2645:2699  zombies[yourZombie].level > zombies[enemyZombie].level */\n      gt\n        /* \"contracts/ZombieGame.sol\":2641:4107  if (zombies[yourZombie].level > zombies[enemyZombie].level) {... */\n      iszero\n      tag_211\n      jumpi\n        /* \"contracts/ZombieGame.sol\":2716:2723  zombies */\n      0x03\n        /* \"contracts/ZombieGame.sol\":2724:2734  yourZombie */\n      dup4\n        /* \"contracts/ZombieGame.sol\":2716:2735  zombies[yourZombie] */\n      dup2\n      sload\n      dup2\n      lt\n      tag_212\n      jumpi\n      tag_213\n      tag_92\n      jump\t// in\n    tag_213:\n    tag_212:\n      swap1\n      0x00\n      mstore\n      keccak256(0x00, 0x20)\n      swap1\n      0x09\n      mul\n      add\n        /* \"contracts/ZombieGame.sol\":2716:2741  zombies[yourZombie].level */\n      0x03\n      add\n      0x00\n        /* \"contracts/ZombieGame.sol\":2716:2743  zombies[yourZombie].level++ */\n      dup2\n      sload\n      dup1\n      swap3\n      swap2\n      swap1\n      tag_215\n      swap1\n      tag_94\n      jump\t// in\n    tag_215:\n      swap2\n      swap1\n      pop\n      sstore\n      pop\n        /* \"contracts/ZombieGame.sol\":2759:2766  zombies */\n      0x03\n        /* \"contracts/ZombieGame.sol\":2767:2777  yourZombie */\n      dup4\n        /* \"contracts/ZombieGame.sol\":2759:2778  zombies[yourZombie] */\n      dup2\n      sload\n      dup2\n      lt\n      tag_216\n      jumpi\n      tag_217\n      tag_92\n      jump\t// in\n    tag_217:\n    tag_216:\n      swap1\n      0x00\n      mstore\n      keccak256(0x00, 0x20)\n      swap1\n      0x09\n      mul\n      add\n        /* \"contracts/ZombieGame.sol\":2759:2789  zombies[yourZombie].TotalMatch */\n      0x05\n      add\n      0x00\n        /* \"contracts/ZombieGame.sol\":2759:2791  zombies[yourZombie].TotalMatch++ */\n      dup2\n      sload\n      dup1\n      swap3\n      swap2\n      swap1\n      tag_219\n      swap1\n      tag_94\n      jump\t// in\n    tag_219:\n      swap2\n      swap1\n      pop\n      sstore\n      pop\n        /* \"contracts/ZombieGame.sol\":2806:2813  zombies */\n      0x03\n        /* \"contracts/ZombieGame.sol\":2814:2824  yourZombie */\n      dup4\n        /* \"contracts/ZombieGame.sol\":2806:2825  zombies[yourZombie] */\n      dup2\n      sload\n      dup2\n      lt\n      tag_220\n      jumpi\n      tag_221\n      tag_92\n      jump\t// in\n    tag_221:\n    tag_220:\n      swap1\n      0x00\n      mstore\n      keccak256(0x00, 0x20)\n      swap1\n      0x09\n      mul\n      add\n        /* \"contracts/ZombieGame.sol\":2806:2835  zombies[yourZombie].MatchLeft */\n      0x06\n      add\n      0x00\n        /* \"contracts/ZombieGame.sol\":2806:2837  zombies[yourZombie].MatchLeft-- */\n      dup2\n      sload\n      dup1\n      swap3\n      swap2\n      swap1\n      tag_223\n      swap1\n      tag_145\n      jump\t// in\n    tag_223:\n      swap2\n      swap1\n      pop\n      sstore\n      pop\n        /* \"contracts/ZombieGame.sol\":2852:2859  zombies */\n      0x03\n        /* \"contracts/ZombieGame.sol\":2860:2870  yourZombie */\n      dup4\n        /* \"contracts/ZombieGame.sol\":2852:2871  zombies[yourZombie] */\n      dup2\n      sload\n      dup2\n      lt\n      tag_224\n      jumpi\n      tag_225\n      tag_92\n      jump\t// in\n    tag_225:\n    tag_224:\n      swap1\n      0x00\n      mstore\n      keccak256(0x00, 0x20)\n      swap1\n      0x09\n      mul\n      add\n        /* \"contracts/ZombieGame.sol\":2852:2876  zombies[yourZombie].Wins */\n      0x07\n      add\n      0x00\n        /* \"contracts/ZombieGame.sol\":2852:2878  zombies[yourZombie].Wins++ */\n      dup2\n      sload\n      dup1\n      swap3\n      swap2\n      swap1\n      tag_227\n      swap1\n      tag_94\n      jump\t// in\n    tag_227:\n      swap2\n      swap1\n      pop\n      sstore\n      pop\n        /* \"contracts/ZombieGame.sol\":2919:2922  100 */\n      0x64\n        /* \"contracts/ZombieGame.sol\":2893:2900  zombies */\n      0x03\n        /* \"contracts/ZombieGame.sol\":2901:2911  yourZombie */\n      dup5\n        /* \"contracts/ZombieGame.sol\":2893:2912  zombies[yourZombie] */\n      dup2\n      sload\n      dup2\n      lt\n      tag_228\n      jumpi\n      tag_229\n      tag_92\n      jump\t// in\n    tag_229:\n    tag_228:\n      swap1\n      0x00\n      mstore\n      keccak256(0x00, 0x20)\n      swap1\n      0x09\n      mul\n      add\n        /* \"contracts/ZombieGame.sol\":2893:2915  zombies[yourZombie].xp */\n      0x04\n      add\n      0x00\n        /* \"contracts/ZombieGame.sol\":2893:2922  zombies[yourZombie].xp += 100 */\n      dup3\n      dup3\n      sload\n      tag_231\n      swap2\n      swap1\n      tag_119\n      jump\t// in\n    tag_231:\n      swap3\n      pop\n      pop\n      dup2\n      swap1\n      sstore\n      pop\n        /* \"contracts/ZombieGame.sol\":2937:2944  zombies */\n      0x03\n        /* \"contracts/ZombieGame.sol\":2945:2956  enemyZombie */\n      dup2\n        /* \"contracts/ZombieGame.sol\":2937:2957  zombies[enemyZombie] */\n      dup2\n      sload\n      dup2\n      lt\n      tag_232\n      jumpi\n      tag_233\n      tag_92\n      jump\t// in\n    tag_233:\n    tag_232:\n      swap1\n      0x00\n      mstore\n      keccak256(0x00, 0x20)\n      swap1\n      0x09\n      mul\n      add\n        /* \"contracts/ZombieGame.sol\":2937:2963  zombies[enemyZombie].level */\n      0x03\n      add\n      0x00\n        /* \"contracts/ZombieGame.sol\":2937:2965  zombies[enemyZombie].level-- */\n      dup2\n      sload\n      dup1\n      swap3\n      swap2\n      swap1\n      tag_235\n      swap1\n      tag_145\n      jump\t// in\n    tag_235:\n      swap2\n      swap1\n      pop\n      sstore\n      pop\n        /* \"contracts/ZombieGame.sol\":2980:2987  zombies */\n      0x03\n        /* \"contracts/ZombieGame.sol\":2988:2999  enemyZombie */\n      dup2\n        /* \"contracts/ZombieGame.sol\":2980:3000  zombies[enemyZombie] */\n      dup2\n      sload\n      dup2\n      lt\n      tag_236\n      jumpi\n      tag_237\n      tag_92\n      jump\t// in\n    tag_237:\n    tag_236:\n      swap1\n      0x00\n      mstore\n      keccak256(0x00, 0x20)\n      swap1\n      0x09\n      mul\n      add\n        /* \"contracts/ZombieGame.sol\":2980:3011  zombies[enemyZombie].TotalMatch */\n      0x05\n      add\n      0x00\n        /* \"contracts/ZombieGame.sol\":2980:3013  zombies[enemyZombie].TotalMatch++ */\n      dup2\n      sload\n      dup1\n      swap3\n      swap2\n      swap1\n      tag_239\n      swap1\n      tag_94\n      jump\t// in\n    tag_239:\n      swap2\n      swap1\n      pop\n      sstore\n      pop\n        /* \"contracts/ZombieGame.sol\":3028:3035  zombies */\n      0x03\n        /* \"contracts/ZombieGame.sol\":3036:3047  enemyZombie */\n      dup2\n        /* \"contracts/ZombieGame.sol\":3028:3048  zombies[enemyZombie] */\n      dup2\n      sload\n      dup2\n      lt\n      tag_240\n      jumpi\n      tag_241\n      tag_92\n      jump\t// in\n    tag_241:\n    tag_240:\n      swap1\n      0x00\n      mstore\n      keccak256(0x00, 0x20)\n      swap1\n      0x09\n      mul\n      add\n        /* \"contracts/ZombieGame.sol\":3028:3058  zombies[enemyZombie].MatchLeft */\n      0x06\n      add\n      0x00\n        /* \"contracts/ZombieGame.sol\":3028:3060  zombies[enemyZombie].MatchLeft-- */\n      dup2\n      sload\n      dup1\n      swap3\n      swap2\n      swap1\n      tag_243\n      swap1\n      tag_145\n      jump\t// in\n    tag_243:\n      swap2\n      swap1\n      pop\n      sstore\n      pop\n        /* \"contracts/ZombieGame.sol\":3075:3082  zombies */\n      0x03\n        /* \"contracts/ZombieGame.sol\":3083:3094  enemyZombie */\n      dup2\n        /* \"contracts/ZombieGame.sol\":3075:3095  zombies[enemyZombie] */\n      dup2\n      sload\n      dup2\n      lt\n      tag_244\n      jumpi\n      tag_245\n      tag_92\n      jump\t// in\n    tag_245:\n    tag_244:\n      swap1\n      0x00\n      mstore\n      keccak256(0x00, 0x20)\n      swap1\n      0x09\n      mul\n      add\n        /* \"contracts/ZombieGame.sol\":3075:3102  zombies[enemyZombie].Looses */\n      0x08\n      add\n      0x00\n        /* \"contracts/ZombieGame.sol\":3075:3104  zombies[enemyZombie].Looses++ */\n      dup2\n      sload\n      dup1\n      swap3\n      swap2\n      swap1\n      tag_247\n      swap1\n      tag_94\n      jump\t// in\n    tag_247:\n      swap2\n      swap1\n      pop\n      sstore\n      pop\n        /* \"contracts/ZombieGame.sol\":3117:3140  return \"Congrats Wins.\" */\n      mload(0x40)\n      dup1\n      0x40\n      add\n      0x40\n      mstore\n      dup1\n      0x0e\n      dup2\n      mstore\n      0x20\n      add\n      0x436f6e67726174732057696e732e000000000000000000000000000000000000\n      dup2\n      mstore\n      pop\n      swap2\n      pop\n      pop\n      jump(tag_202)\n        /* \"contracts/ZombieGame.sol\":2641:4107  if (zombies[yourZombie].level > zombies[enemyZombie].level) {... */\n    tag_211:\n        /* \"contracts/ZombieGame.sol\":3271:3278  zombies */\n      0x03\n        /* \"contracts/ZombieGame.sol\":3279:3289  yourZombie */\n      dup4\n        /* \"contracts/ZombieGame.sol\":3271:3290  zombies[yourZombie] */\n      dup2\n      sload\n      dup2\n      lt\n      tag_249\n      jumpi\n      tag_250\n      tag_92\n      jump\t// in\n    tag_250:\n    tag_249:\n      swap1\n      0x00\n      mstore\n      keccak256(0x00, 0x20)\n      swap1\n      0x09\n      mul\n      add\n        /* \"contracts/ZombieGame.sol\":3271:3296  zombies[yourZombie].level */\n      0x03\n      add\n      sload\n        /* \"contracts/ZombieGame.sol\":3242:3249  zombies */\n      0x03\n        /* \"contracts/ZombieGame.sol\":3250:3261  enemyZombie */\n      dup3\n        /* \"contracts/ZombieGame.sol\":3242:3262  zombies[enemyZombie] */\n      dup2\n      sload\n      dup2\n      lt\n      tag_252\n      jumpi\n      tag_253\n      tag_92\n      jump\t// in\n    tag_253:\n    tag_252:\n      swap1\n      0x00\n      mstore\n      keccak256(0x00, 0x20)\n      swap1\n      0x09\n      mul\n      add\n        /* \"contracts/ZombieGame.sol\":3242:3268  zombies[enemyZombie].level */\n      0x03\n      add\n      sload\n        /* \"contracts/ZombieGame.sol\":3242:3296  zombies[enemyZombie].level > zombies[yourZombie].level */\n      gt\n        /* \"contracts/ZombieGame.sol\":3238:4107  if (zombies[enemyZombie].level > zombies[yourZombie].level) {... */\n      iszero\n      tag_255\n      jumpi\n        /* \"contracts/ZombieGame.sol\":3313:3320  zombies */\n      0x03\n        /* \"contracts/ZombieGame.sol\":3321:3332  enemyZombie */\n      dup2\n        /* \"contracts/ZombieGame.sol\":3313:3333  zombies[enemyZombie] */\n      dup2\n      sload\n      dup2\n      lt\n      tag_256\n      jumpi\n      tag_257\n      tag_92\n      jump\t// in\n    tag_257:\n    tag_256:\n      swap1\n      0x00\n      mstore\n      keccak256(0x00, 0x20)\n      swap1\n      0x09\n      mul\n      add\n        /* \"contracts/ZombieGame.sol\":3313:3339  zombies[enemyZombie].level */\n      0x03\n      add\n      0x00\n        /* \"contracts/ZombieGame.sol\":3313:3341  zombies[enemyZombie].level++ */\n      dup2\n      sload\n      dup1\n      swap3\n      swap2\n      swap1\n      tag_259\n      swap1\n      tag_94\n      jump\t// in\n    tag_259:\n      swap2\n      swap1\n      pop\n      sstore\n      pop\n        /* \"contracts/ZombieGame.sol\":3357:3364  zombies */\n      0x03\n        /* \"contracts/ZombieGame.sol\":3365:3376  enemyZombie */\n      dup2\n        /* \"contracts/ZombieGame.sol\":3357:3377  zombies[enemyZombie] */\n      dup2\n      sload\n      dup2\n      lt\n      tag_260\n      jumpi\n      tag_261\n      tag_92\n      jump\t// in\n    tag_261:\n    tag_260:\n      swap1\n      0x00\n      mstore\n      keccak256(0x00, 0x20)\n      swap1\n      0x09\n      mul\n      add\n        /* \"contracts/ZombieGame.sol\":3357:3388  zombies[enemyZombie].TotalMatch */\n      0x05\n      add\n      0x00\n        /* \"contracts/ZombieGame.sol\":3357:3390  zombies[enemyZombie].TotalMatch++ */\n      dup2\n      sload\n      dup1\n      swap3\n      swap2\n      swap1\n      tag_263\n      swap1\n      tag_94\n      jump\t// in\n    tag_263:\n      swap2\n      swap1\n      pop\n      sstore\n      pop\n        /* \"contracts/ZombieGame.sol\":3405:3412  zombies */\n      0x03\n        /* \"contracts/ZombieGame.sol\":3413:3424  enemyZombie */\n      dup2\n        /* \"contracts/ZombieGame.sol\":3405:3425  zombies[enemyZombie] */\n      dup2\n      sload\n      dup2\n      lt\n      tag_264\n      jumpi\n      tag_265\n      tag_92\n      jump\t// in\n    tag_265:\n    tag_264:\n      swap1\n      0x00\n      mstore\n      keccak256(0x00, 0x20)\n      swap1\n      0x09\n      mul\n      add\n        /* \"contracts/ZombieGame.sol\":3405:3435  zombies[enemyZombie].MatchLeft */\n      0x06\n      add\n      0x00\n        /* \"contracts/ZombieGame.sol\":3405:3437  zombies[enemyZombie].MatchLeft-- */\n      dup2\n      sload\n      dup1\n      swap3\n      swap2\n      swap1\n      tag_267\n      swap1\n      tag_145\n      jump\t// in\n    tag_267:\n      swap2\n      swap1\n      pop\n      sstore\n      pop\n        /* \"contracts/ZombieGame.sol\":3452:3459  zombies */\n      0x03\n        /* \"contracts/ZombieGame.sol\":3460:3471  enemyZombie */\n      dup2\n        /* \"contracts/ZombieGame.sol\":3452:3472  zombies[enemyZombie] */\n      dup2\n      sload\n      dup2\n      lt\n      tag_268\n      jumpi\n      tag_269\n      tag_92\n      jump\t// in\n    tag_269:\n    tag_268:\n      swap1\n      0x00\n      mstore\n      keccak256(0x00, 0x20)\n      swap1\n      0x09\n      mul\n      add\n        /* \"contracts/ZombieGame.sol\":3452:3477  zombies[enemyZombie].Wins */\n      0x07\n      add\n      0x00\n        /* \"contracts/ZombieGame.sol\":3452:3479  zombies[enemyZombie].Wins++ */\n      dup2\n      sload\n      dup1\n      swap3\n      swap2\n      swap1\n      tag_271\n      swap1\n      tag_94\n      jump\t// in\n    tag_271:\n      swap2\n      swap1\n      pop\n      sstore\n      pop\n        /* \"contracts/ZombieGame.sol\":3521:3524  100 */\n      0x64\n        /* \"contracts/ZombieGame.sol\":3494:3501  zombies */\n      0x03\n        /* \"contracts/ZombieGame.sol\":3502:3513  enemyZombie */\n      dup3\n        /* \"contracts/ZombieGame.sol\":3494:3514  zombies[enemyZombie] */\n      dup2\n      sload\n      dup2\n      lt\n      tag_272\n      jumpi\n      tag_273\n      tag_92\n      jump\t// in\n    tag_273:\n    tag_272:\n      swap1\n      0x00\n      mstore\n      keccak256(0x00, 0x20)\n      swap1\n      0x09\n      mul\n      add\n        /* \"contracts/ZombieGame.sol\":3494:3517  zombies[enemyZombie].xp */\n      0x04\n      add\n      0x00\n        /* \"contracts/ZombieGame.sol\":3494:3524  zombies[enemyZombie].xp += 100 */\n      dup3\n      dup3\n      sload\n      tag_275\n      swap2\n      swap1\n      tag_119\n      jump\t// in\n    tag_275:\n      swap3\n      pop\n      pop\n      dup2\n      swap1\n      sstore\n      pop\n        /* \"contracts/ZombieGame.sol\":3539:3546  zombies */\n      0x03\n        /* \"contracts/ZombieGame.sol\":3547:3557  yourZombie */\n      dup4\n        /* \"contracts/ZombieGame.sol\":3539:3558  zombies[yourZombie] */\n      dup2\n      sload\n      dup2\n      lt\n      tag_276\n      jumpi\n      tag_277\n      tag_92\n      jump\t// in\n    tag_277:\n    tag_276:\n      swap1\n      0x00\n      mstore\n      keccak256(0x00, 0x20)\n      swap1\n      0x09\n      mul\n      add\n        /* \"contracts/ZombieGame.sol\":3539:3564  zombies[yourZombie].level */\n      0x03\n      add\n      0x00\n        /* \"contracts/ZombieGame.sol\":3539:3566  zombies[yourZombie].level-- */\n      dup2\n      sload\n      dup1\n      swap3\n      swap2\n      swap1\n      tag_279\n      swap1\n      tag_145\n      jump\t// in\n    tag_279:\n      swap2\n      swap1\n      pop\n      sstore\n      pop\n        /* \"contracts/ZombieGame.sol\":3581:3588  zombies */\n      0x03\n        /* \"contracts/ZombieGame.sol\":3589:3599  yourZombie */\n      dup4\n        /* \"contracts/ZombieGame.sol\":3581:3600  zombies[yourZombie] */\n      dup2\n      sload\n      dup2\n      lt\n      tag_280\n      jumpi\n      tag_281\n      tag_92\n      jump\t// in\n    tag_281:\n    tag_280:\n      swap1\n      0x00\n      mstore\n      keccak256(0x00, 0x20)\n      swap1\n      0x09\n      mul\n      add\n        /* \"contracts/ZombieGame.sol\":3581:3611  zombies[yourZombie].TotalMatch */\n      0x05\n      add\n      0x00\n        /* \"contracts/ZombieGame.sol\":3581:3613  zombies[yourZombie].TotalMatch++ */\n      dup2\n      sload\n      dup1\n      swap3\n      swap2\n      swap1\n      tag_283\n      swap1\n      tag_94\n      jump\t// in\n    tag_283:\n      swap2\n      swap1\n      pop\n      sstore\n      pop\n        /* \"contracts/ZombieGame.sol\":3628:3635  zombies */\n      0x03\n        /* \"contracts/ZombieGame.sol\":3636:3646  yourZombie */\n      dup4\n        /* \"contracts/ZombieGame.sol\":3628:3647  zombies[yourZombie] */\n      dup2\n      sload\n      dup2\n      lt\n      tag_284\n      jumpi\n      tag_285\n      tag_92\n      jump\t// in\n    tag_285:\n    tag_284:\n      swap1\n      0x00\n      mstore\n      keccak256(0x00, 0x20)\n      swap1\n      0x09\n      mul\n      add\n        /* \"contracts/ZombieGame.sol\":3628:3657  zombies[yourZombie].MatchLeft */\n      0x06\n      add\n      0x00\n        /* \"contracts/ZombieGame.sol\":3628:3659  zombies[yourZombie].MatchLeft-- */\n      dup2\n      sload\n      dup1\n      swap3\n      swap2\n      swap1\n      tag_287\n      swap1\n      tag_145\n      jump\t// in\n    tag_287:\n      swap2\n      swap1\n      pop\n      sstore\n      pop\n        /* \"contracts/ZombieGame.sol\":3674:3681  zombies */\n      0x03\n        /* \"contracts/ZombieGame.sol\":3682:3692  yourZombie */\n      dup4\n        /* \"contracts/ZombieGame.sol\":3674:3693  zombies[yourZombie] */\n      dup2\n      sload\n      dup2\n      lt\n      tag_288\n      jumpi\n      tag_289\n      tag_92\n      jump\t// in\n    tag_289:\n    tag_288:\n      swap1\n      0x00\n      mstore\n      keccak256(0x00, 0x20)\n      swap1\n      0x09\n      mul\n      add\n        /* \"contracts/ZombieGame.sol\":3674:3700  zombies[yourZombie].Looses */\n      0x08\n      add\n      0x00\n        /* \"contracts/ZombieGame.sol\":3674:3702  zombies[yourZombie].Looses++ */\n      dup2\n      sload\n      dup1\n      swap3\n      swap2\n      swap1\n      tag_291\n      swap1\n      tag_94\n      jump\t// in\n    tag_291:\n      swap2\n      swap1\n      pop\n      sstore\n      pop\n        /* \"contracts/ZombieGame.sol\":3715:3773  return \"Win And Loose is the part of the Game.Try Again!.\" */\n      mload(0x40)\n      dup1\n      0x60\n      add\n      0x40\n      mstore\n      dup1\n      0x31\n      dup2\n      mstore\n      0x20\n      add\n      data_e0168f3fae51cf798b1321eebdaae7bc178ca214b91f59783066943e69095f12\n      0x31\n      swap2\n      codecopy\n      swap2\n      pop\n      pop\n      jump(tag_202)\n        /* \"contracts/ZombieGame.sol\":3238:4107  if (zombies[enemyZombie].level > zombies[yourZombie].level) {... */\n    tag_255:\n        /* \"contracts/ZombieGame.sol\":3880:3887  zombies */\n      0x03\n        /* \"contracts/ZombieGame.sol\":3888:3899  enemyZombie */\n      dup2\n        /* \"contracts/ZombieGame.sol\":3880:3900  zombies[enemyZombie] */\n      dup2\n      sload\n      dup2\n      lt\n      tag_293\n      jumpi\n      tag_294\n      tag_92\n      jump\t// in\n    tag_294:\n    tag_293:\n      swap1\n      0x00\n      mstore\n      keccak256(0x00, 0x20)\n      swap1\n      0x09\n      mul\n      add\n        /* \"contracts/ZombieGame.sol\":3880:3911  zombies[enemyZombie].TotalMatch */\n      0x05\n      add\n      0x00\n        /* \"contracts/ZombieGame.sol\":3880:3913  zombies[enemyZombie].TotalMatch++ */\n      dup2\n      sload\n      dup1\n      swap3\n      swap2\n      swap1\n      tag_296\n      swap1\n      tag_94\n      jump\t// in\n    tag_296:\n      swap2\n      swap1\n      pop\n      sstore\n      pop\n        /* \"contracts/ZombieGame.sol\":3928:3935  zombies */\n      0x03\n        /* \"contracts/ZombieGame.sol\":3936:3946  yourZombie */\n      dup4\n        /* \"contracts/ZombieGame.sol\":3928:3947  zombies[yourZombie] */\n      dup2\n      sload\n      dup2\n      lt\n      tag_297\n      jumpi\n      tag_298\n      tag_92\n      jump\t// in\n    tag_298:\n    tag_297:\n      swap1\n      0x00\n      mstore\n      keccak256(0x00, 0x20)\n      swap1\n      0x09\n      mul\n      add\n        /* \"contracts/ZombieGame.sol\":3928:3958  zombies[yourZombie].TotalMatch */\n      0x05\n      add\n      0x00\n        /* \"contracts/ZombieGame.sol\":3928:3960  zombies[yourZombie].TotalMatch++ */\n      dup2\n      sload\n      dup1\n      swap3\n      swap2\n      swap1\n      tag_300\n      swap1\n      tag_94\n      jump\t// in\n    tag_300:\n      swap2\n      swap1\n      pop\n      sstore\n      pop\n        /* \"contracts/ZombieGame.sol\":3975:3982  zombies */\n      0x03\n        /* \"contracts/ZombieGame.sol\":3983:3993  yourZombie */\n      dup4\n        /* \"contracts/ZombieGame.sol\":3975:3994  zombies[yourZombie] */\n      dup2\n      sload\n      dup2\n      lt\n      tag_301\n      jumpi\n      tag_302\n      tag_92\n      jump\t// in\n    tag_302:\n    tag_301:\n      swap1\n      0x00\n      mstore\n      keccak256(0x00, 0x20)\n      swap1\n      0x09\n      mul\n      add\n        /* \"contracts/ZombieGame.sol\":3975:4004  zombies[yourZombie].MatchLeft */\n      0x06\n      add\n      0x00\n        /* \"contracts/ZombieGame.sol\":3975:4006  zombies[yourZombie].MatchLeft-- */\n      dup2\n      sload\n      dup1\n      swap3\n      swap2\n      swap1\n      tag_304\n      swap1\n      tag_145\n      jump\t// in\n    tag_304:\n      swap2\n      swap1\n      pop\n      sstore\n      pop\n        /* \"contracts/ZombieGame.sol\":4021:4028  zombies */\n      0x03\n        /* \"contracts/ZombieGame.sol\":4029:4040  enemyZombie */\n      dup2\n        /* \"contracts/ZombieGame.sol\":4021:4041  zombies[enemyZombie] */\n      dup2\n      sload\n      dup2\n      lt\n      tag_305\n      jumpi\n      tag_306\n      tag_92\n      jump\t// in\n    tag_306:\n    tag_305:\n      swap1\n      0x00\n      mstore\n      keccak256(0x00, 0x20)\n      swap1\n      0x09\n      mul\n      add\n        /* \"contracts/ZombieGame.sol\":4021:4051  zombies[enemyZombie].MatchLeft */\n      0x06\n      add\n      0x00\n        /* \"contracts/ZombieGame.sol\":4021:4053  zombies[enemyZombie].MatchLeft-- */\n      dup2\n      sload\n      dup1\n      swap3\n      swap2\n      swap1\n      tag_308\n      swap1\n      tag_145\n      jump\t// in\n    tag_308:\n      swap2\n      swap1\n      pop\n      sstore\n      pop\n        /* \"contracts/ZombieGame.sol\":4066:4090  return \"Draw Try Again.\" */\n      mload(0x40)\n      dup1\n      0x40\n      add\n      0x40\n      mstore\n      dup1\n      0x0f\n      dup2\n      mstore\n      0x20\n      add\n      0x447261772054727920416761696e2e0000000000000000000000000000000000\n      dup2\n      mstore\n      pop\n      swap2\n      pop\n      pop\n        /* \"contracts/ZombieGame.sol\":2437:4114  function ZombieVsZombie(uint yourZombie) internal returns(string memory){... */\n    tag_202:\n      swap2\n      swap1\n      pop\n      jump\t// out\n        /* \"contracts/ZombieGame.sol\":1654:1825  function DnaGenerator(string memory name) internal view returns(uint){... */\n    tag_153:\n        /* \"contracts/ZombieGame.sol\":1718:1722  uint */\n      0x00\n        /* \"contracts/ZombieGame.sol\":1734:1742  uint Dna */\n      dup1\n        /* \"contracts/ZombieGame.sol\":1777:1781  name */\n      dup3\n        /* \"contracts/ZombieGame.sol\":1760:1782  abi.encodePacked(name) */\n      add(0x20, mload(0x40))\n      tag_310\n      swap2\n      swap1\n      tag_311\n      jump\t// in\n    tag_310:\n      mload(0x40)\n      0x20\n      dup2\n      dup4\n      sub\n      sub\n      dup2\n      mstore\n      swap1\n      0x40\n      mstore\n        /* \"contracts/ZombieGame.sol\":1750:1783  keccak256(abi.encodePacked(name)) */\n      dup1\n      mload\n      swap1\n      0x20\n      add\n      keccak256\n        /* \"contracts/ZombieGame.sol\":1745:1784  uint(keccak256(abi.encodePacked(name))) */\n      0x00\n      shr\n        /* \"contracts/ZombieGame.sol\":1734:1784  uint Dna = uint(keccak256(abi.encodePacked(name))) */\n      swap1\n      pop\n        /* \"contracts/ZombieGame.sol\":1808:1817  dnaLength */\n      sload(0x02)\n        /* \"contracts/ZombieGame.sol\":1802:1805  Dna */\n      dup2\n        /* \"contracts/ZombieGame.sol\":1802:1817  Dna % dnaLength */\n      tag_312\n      swap2\n      swap1\n      tag_313\n      jump\t// in\n    tag_312:\n        /* \"contracts/ZombieGame.sol\":1795:1817  return Dna % dnaLength */\n      swap2\n      pop\n      pop\n        /* \"contracts/ZombieGame.sol\":1654:1825  function DnaGenerator(string memory name) internal view returns(uint){... */\n      swap2\n      swap1\n      pop\n      jump\t// out\n        /* \"contracts/ZombieGame.sol\":1197:1599  function createZombie(string memory Plan, string memory name, uint dna, uint level, uint xp, uint TotalMatch, uint MatchLeft, uint Wins, uint Looses) internal {... */\n    tag_154:\n        /* \"contracts/ZombieGame.sol\":1367:1374  zombies */\n      0x03\n        /* \"contracts/ZombieGame.sol\":1380:1457  zombieDetails(Plan ,name ,dna ,level ,xp ,TotalMatch, MatchLeft,Wins ,Looses) */\n      mload(0x40)\n      dup1\n      0x0120\n      add\n      0x40\n      mstore\n      dup1\n        /* \"contracts/ZombieGame.sol\":1394:1398  Plan */\n      dup12\n        /* \"contracts/ZombieGame.sol\":1380:1457  zombieDetails(Plan ,name ,dna ,level ,xp ,TotalMatch, MatchLeft,Wins ,Looses) */\n      dup2\n      mstore\n      0x20\n      add\n        /* \"contracts/ZombieGame.sol\":1400:1404  name */\n      dup11\n        /* \"contracts/ZombieGame.sol\":1380:1457  zombieDetails(Plan ,name ,dna ,level ,xp ,TotalMatch, MatchLeft,Wins ,Looses) */\n      dup2\n      mstore\n      0x20\n      add\n        /* \"contracts/ZombieGame.sol\":1406:1409  dna */\n      dup10\n        /* \"contracts/ZombieGame.sol\":1380:1457  zombieDetails(Plan ,name ,dna ,level ,xp ,TotalMatch, MatchLeft,Wins ,Looses) */\n      dup2\n      mstore\n      0x20\n      add\n        /* \"contracts/ZombieGame.sol\":1411:1416  level */\n      dup9\n        /* \"contracts/ZombieGame.sol\":1380:1457  zombieDetails(Plan ,name ,dna ,level ,xp ,TotalMatch, MatchLeft,Wins ,Looses) */\n      dup2\n      mstore\n      0x20\n      add\n        /* \"contracts/ZombieGame.sol\":1418:1420  xp */\n      dup8\n        /* \"contracts/ZombieGame.sol\":1380:1457  zombieDetails(Plan ,name ,dna ,level ,xp ,TotalMatch, MatchLeft,Wins ,Looses) */\n      dup2\n      mstore\n      0x20\n      add\n        /* \"contracts/ZombieGame.sol\":1422:1432  TotalMatch */\n      dup7\n        /* \"contracts/ZombieGame.sol\":1380:1457  zombieDetails(Plan ,name ,dna ,level ,xp ,TotalMatch, MatchLeft,Wins ,Looses) */\n      dup2\n      mstore\n      0x20\n      add\n        /* \"contracts/ZombieGame.sol\":1434:1443  MatchLeft */\n      dup6\n        /* \"contracts/ZombieGame.sol\":1380:1457  zombieDetails(Plan ,name ,dna ,level ,xp ,TotalMatch, MatchLeft,Wins ,Looses) */\n      dup2\n      mstore\n      0x20\n      add\n        /* \"contracts/ZombieGame.sol\":1444:1448  Wins */\n      dup5\n        /* \"contracts/ZombieGame.sol\":1380:1457  zombieDetails(Plan ,name ,dna ,level ,xp ,TotalMatch, MatchLeft,Wins ,Looses) */\n      dup2\n      mstore\n      0x20\n      add\n        /* \"contracts/ZombieGame.sol\":1450:1456  Looses */\n      dup4\n        /* \"contracts/ZombieGame.sol\":1380:1457  zombieDetails(Plan ,name ,dna ,level ,xp ,TotalMatch, MatchLeft,Wins ,Looses) */\n      dup2\n      mstore\n      pop\n        /* \"contracts/ZombieGame.sol\":1367:1458  zombies.push(zombieDetails(Plan ,name ,dna ,level ,xp ,TotalMatch, MatchLeft,Wins ,Looses)) */\n      swap1\n      dup1\n      0x01\n      dup2\n      sload\n      add\n      dup1\n      dup3\n      sstore\n      dup1\n      swap2\n      pop\n      pop\n      0x01\n      swap1\n      sub\n      swap1\n      0x00\n      mstore\n      keccak256(0x00, 0x20)\n      swap1\n      0x09\n      mul\n      add\n      0x00\n      swap1\n      swap2\n      swap1\n      swap2\n      swap1\n      swap2\n      pop\n      0x00\n      dup3\n      add\n      mload\n      dup2\n      0x00\n      add\n      swap1\n      dup2\n      tag_316\n      swap2\n      swap1\n      tag_317\n      jump\t// in\n    tag_316:\n      pop\n      0x20\n      dup3\n      add\n      mload\n      dup2\n      0x01\n      add\n      swap1\n      dup2\n      tag_318\n      swap2\n      swap1\n      tag_317\n      jump\t// in\n    tag_318:\n      pop\n      0x40\n      dup3\n      add\n      mload\n      dup2\n      0x02\n      add\n      sstore\n      0x60\n      dup3\n      add\n      mload\n      dup2\n      0x03\n      add\n      sstore\n      0x80\n      dup3\n      add\n      mload\n      dup2\n      0x04\n      add\n      sstore\n      0xa0\n      dup3\n      add\n      mload\n      dup2\n      0x05\n      add\n      sstore\n      0xc0\n      dup3\n      add\n      mload\n      dup2\n      0x06\n      add\n      sstore\n      0xe0\n      dup3\n      add\n      mload\n      dup2\n      0x07\n      add\n      sstore\n      0x0100\n      dup3\n      add\n      mload\n      dup2\n      0x08\n      add\n      sstore\n      pop\n      pop\n        /* \"contracts/ZombieGame.sol\":1469:1486  uint currentIndex */\n      0x00\n        /* \"contracts/ZombieGame.sol\":1505:1506  1 */\n      0x01\n        /* \"contracts/ZombieGame.sol\":1489:1496  zombies */\n      0x03\n        /* \"contracts/ZombieGame.sol\":1489:1503  zombies.length */\n      dup1\n      sload\n      swap1\n      pop\n        /* \"contracts/ZombieGame.sol\":1489:1506  zombies.length -1 */\n      tag_319\n      swap2\n      swap1\n      tag_320\n      jump\t// in\n    tag_319:\n        /* \"contracts/ZombieGame.sol\":1469:1506  uint currentIndex = zombies.length -1 */\n      swap1\n      pop\n        /* \"contracts/ZombieGame.sol\":1517:1528  ZombieCount */\n      0x01\n        /* \"contracts/ZombieGame.sol\":1517:1540  ZombieCount[msg.sender] */\n      0x00\n        /* \"contracts/ZombieGame.sol\":1529:1539  msg.sender */\n      caller\n        /* \"contracts/ZombieGame.sol\":1517:1540  ZombieCount[msg.sender] */\n      0xffffffffffffffffffffffffffffffffffffffff\n      and\n      0xffffffffffffffffffffffffffffffffffffffff\n      and\n      dup2\n      mstore\n      0x20\n      add\n      swap1\n      dup2\n      mstore\n      0x20\n      add\n      0x00\n      keccak256\n      0x00\n        /* \"contracts/ZombieGame.sol\":1517:1542  ZombieCount[msg.sender]++ */\n      dup2\n      sload\n      dup1\n      swap3\n      swap2\n      swap1\n      tag_321\n      swap1\n      tag_94\n      jump\t// in\n    tag_321:\n      swap2\n      swap1\n      pop\n      sstore\n      pop\n        /* \"contracts/ZombieGame.sol\":1581:1591  msg.sender */\n      caller\n        /* \"contracts/ZombieGame.sol\":1553:1564  ZombieOwner */\n      0x00\n        /* \"contracts/ZombieGame.sol\":1553:1578  ZombieOwner[currentIndex] */\n      dup1\n        /* \"contracts/ZombieGame.sol\":1565:1577  currentIndex */\n      dup4\n        /* \"contracts/ZombieGame.sol\":1553:1578  ZombieOwner[currentIndex] */\n      dup2\n      mstore\n      0x20\n      add\n      swap1\n      dup2\n      mstore\n      0x20\n      add\n      0x00\n      keccak256\n      0x00\n        /* \"contracts/ZombieGame.sol\":1553:1591  ZombieOwner[currentIndex] = msg.sender */\n      0x0100\n      exp\n      dup2\n      sload\n      dup2\n      0xffffffffffffffffffffffffffffffffffffffff\n      mul\n      not\n      and\n      swap1\n      dup4\n      0xffffffffffffffffffffffffffffffffffffffff\n      and\n      mul\n      or\n      swap1\n      sstore\n      pop\n        /* \"contracts/ZombieGame.sol\":1356:1599  {... */\n      pop\n        /* \"contracts/ZombieGame.sol\":1197:1599  function createZombie(string memory Plan, string memory name, uint dna, uint level, uint xp, uint TotalMatch, uint MatchLeft, uint Wins, uint Looses) internal {... */\n      pop\n      pop\n      pop\n      pop\n      pop\n      pop\n      pop\n      pop\n      pop\n      jump\t// out\n        /* \"contracts/ZombieGame.sol\":2071:2299  function randomEnemy() private view returns(uint) {... */\n    tag_204:\n        /* \"contracts/ZombieGame.sol\":2115:2119  uint */\n      0x00\n        /* \"contracts/ZombieGame.sol\":2132:2147  uint TotalEnemy */\n      dup1\n        /* \"contracts/ZombieGame.sol\":2150:2157  zombies */\n      0x03\n        /* \"contracts/ZombieGame.sol\":2150:2164  zombies.length */\n      dup1\n      sload\n      swap1\n      pop\n        /* \"contracts/ZombieGame.sol\":2132:2164  uint TotalEnemy = zombies.length */\n      swap1\n      pop\n        /* \"contracts/ZombieGame.sol\":2175:2188  uint RandomId */\n      0x00\n        /* \"contracts/ZombieGame.sol\":2255:2265  TotalEnemy */\n      dup2\n        /* \"contracts/ZombieGame.sol\":2223:2233  TotalEnemy */\n      dup3\n        /* \"contracts/ZombieGame.sol\":2234:2249  block.timestamp */\n      timestamp\n        /* \"contracts/ZombieGame.sol\":2206:2250  abi.encodePacked(TotalEnemy,block.timestamp) */\n      add(0x20, mload(0x40))\n      tag_323\n      swap3\n      swap2\n      swap1\n      tag_324\n      jump\t// in\n    tag_323:\n      mload(0x40)\n      0x20\n      dup2\n      dup4\n      sub\n      sub\n      dup2\n      mstore\n      swap1\n      0x40\n      mstore\n        /* \"contracts/ZombieGame.sol\":2196:2251  keccak256(abi.encodePacked(TotalEnemy,block.timestamp)) */\n      dup1\n      mload\n      swap1\n      0x20\n      add\n      keccak256\n        /* \"contracts/ZombieGame.sol\":2191:2252  uint(keccak256(abi.encodePacked(TotalEnemy,block.timestamp))) */\n      0x00\n      shr\n        /* \"contracts/ZombieGame.sol\":2191:2265  uint(keccak256(abi.encodePacked(TotalEnemy,block.timestamp))) % TotalEnemy */\n      tag_325\n      swap2\n      swap1\n      tag_313\n      jump\t// in\n    tag_325:\n        /* \"contracts/ZombieGame.sol\":2175:2265  uint RandomId = uint(keccak256(abi.encodePacked(TotalEnemy,block.timestamp))) % TotalEnemy */\n      swap1\n      pop\n        /* \"contracts/ZombieGame.sol\":2283:2291  RandomId */\n      dup1\n        /* \"contracts/ZombieGame.sol\":2276:2291  return RandomId */\n      swap3\n      pop\n      pop\n      pop\n        /* \"contracts/ZombieGame.sol\":2071:2299  function randomEnemy() private view returns(uint) {... */\n      swap1\n      jump\t// out\n    tag_156:\n      mload(0x40)\n      dup1\n      0x0120\n      add\n      0x40\n      mstore\n      dup1\n      0x60\n      dup2\n      mstore\n      0x20\n      add\n      0x60\n      dup2\n      mstore\n      0x20\n      add\n      0x00\n      dup2\n      mstore\n      0x20\n      add\n      0x00\n      dup2\n      mstore\n      0x20\n      add\n      0x00\n      dup2\n      mstore\n      0x20\n      add\n      0x00\n      dup2\n      mstore\n      0x20\n      add\n      0x00\n      dup2\n      mstore\n      0x20\n      add\n      0x00\n      dup2\n      mstore\n      0x20\n      add\n      0x00\n      dup2\n      mstore\n      pop\n      swap1\n      jump\t// out\n        /* \"#utility.yul\":7:82   */\n    tag_326:\n        /* \"#utility.yul\":40:46   */\n      0x00\n        /* \"#utility.yul\":73:75   */\n      0x40\n        /* \"#utility.yul\":67:76   */\n      mload\n        /* \"#utility.yul\":57:76   */\n      swap1\n      pop\n        /* \"#utility.yul\":7:82   */\n      swap1\n      jump\t// out\n        /* \"#utility.yul\":88:205   */\n    tag_327:\n        /* \"#utility.yul\":197:198   */\n      0x00\n        /* \"#utility.yul\":194:195   */\n      dup1\n        /* \"#utility.yul\":187:199   */\n      revert\n        /* \"#utility.yul\":211:328   */\n    tag_328:\n        /* \"#utility.yul\":320:321   */\n      0x00\n        /* \"#utility.yul\":317:318   */\n      dup1\n        /* \"#utility.yul\":310:322   */\n      revert\n        /* \"#utility.yul\":334:460   */\n    tag_329:\n        /* \"#utility.yul\":371:378   */\n      0x00\n        /* \"#utility.yul\":411:453   */\n      0xffffffffffffffffffffffffffffffffffffffff\n        /* \"#utility.yul\":404:409   */\n      dup3\n        /* \"#utility.yul\":400:454   */\n      and\n        /* \"#utility.yul\":389:454   */\n      swap1\n      pop\n        /* \"#utility.yul\":334:460   */\n      swap2\n      swap1\n      pop\n      jump\t// out\n        /* \"#utility.yul\":466:562   */\n    tag_330:\n        /* \"#utility.yul\":503:510   */\n      0x00\n        /* \"#utility.yul\":532:556   */\n      tag_414\n        /* \"#utility.yul\":550:555   */\n      dup3\n        /* \"#utility.yul\":532:556   */\n      tag_329\n      jump\t// in\n    tag_414:\n        /* \"#utility.yul\":521:556   */\n      swap1\n      pop\n        /* \"#utility.yul\":466:562   */\n      swap2\n      swap1\n      pop\n      jump\t// out\n        /* \"#utility.yul\":568:690   */\n    tag_331:\n        /* \"#utility.yul\":641:665   */\n      tag_416\n        /* \"#utility.yul\":659:664   */\n      dup2\n        /* \"#utility.yul\":641:665   */\n      tag_330\n      jump\t// in\n    tag_416:\n        /* \"#utility.yul\":634:639   */\n      dup2\n        /* \"#utility.yul\":631:666   */\n      eq\n        /* \"#utility.yul\":621:684   */\n      tag_417\n      jumpi\n        /* \"#utility.yul\":680:681   */\n      0x00\n        /* \"#utility.yul\":677:678   */\n      dup1\n        /* \"#utility.yul\":670:682   */\n      revert\n        /* \"#utility.yul\":621:684   */\n    tag_417:\n        /* \"#utility.yul\":568:690   */\n      pop\n      jump\t// out\n        /* \"#utility.yul\":696:835   */\n    tag_332:\n        /* \"#utility.yul\":742:747   */\n      0x00\n        /* \"#utility.yul\":780:786   */\n      dup2\n        /* \"#utility.yul\":767:787   */\n      calldataload\n        /* \"#utility.yul\":758:787   */\n      swap1\n      pop\n        /* \"#utility.yul\":796:829   */\n      tag_419\n        /* \"#utility.yul\":823:828   */\n      dup2\n        /* \"#utility.yul\":796:829   */\n      tag_331\n      jump\t// in\n    tag_419:\n        /* \"#utility.yul\":696:835   */\n      swap3\n      swap2\n      pop\n      pop\n      jump\t// out\n        /* \"#utility.yul\":841:918   */\n    tag_333:\n        /* \"#utility.yul\":878:885   */\n      0x00\n        /* \"#utility.yul\":907:912   */\n      dup2\n        /* \"#utility.yul\":896:912   */\n      swap1\n      pop\n        /* \"#utility.yul\":841:918   */\n      swap2\n      swap1\n      pop\n      jump\t// out\n        /* \"#utility.yul\":924:1046   */\n    tag_334:\n        /* \"#utility.yul\":997:1021   */\n      tag_422\n        /* \"#utility.yul\":1015:1020   */\n      dup2\n        /* \"#utility.yul\":997:1021   */\n      tag_333\n      jump\t// in\n    tag_422:\n        /* \"#utility.yul\":990:995   */\n      dup2\n        /* \"#utility.yul\":987:1022   */\n      eq\n        /* \"#utility.yul\":977:1040   */\n      tag_423\n      jumpi\n        /* \"#utility.yul\":1036:1037   */\n      0x00\n        /* \"#utility.yul\":1033:1034   */\n      dup1\n        /* \"#utility.yul\":1026:1038   */\n      revert\n        /* \"#utility.yul\":977:1040   */\n    tag_423:\n        /* \"#utility.yul\":924:1046   */\n      pop\n      jump\t// out\n        /* \"#utility.yul\":1052:1191   */\n    tag_335:\n        /* \"#utility.yul\":1098:1103   */\n      0x00\n        /* \"#utility.yul\":1136:1142   */\n      dup2\n        /* \"#utility.yul\":1123:1143   */\n      calldataload\n        /* \"#utility.yul\":1114:1143   */\n      swap1\n      pop\n        /* \"#utility.yul\":1152:1185   */\n      tag_425\n        /* \"#utility.yul\":1179:1184   */\n      dup2\n        /* \"#utility.yul\":1152:1185   */\n      tag_334\n      jump\t// in\n    tag_425:\n        /* \"#utility.yul\":1052:1191   */\n      swap3\n      swap2\n      pop\n      pop\n      jump\t// out\n        /* \"#utility.yul\":1197:1671   */\n    tag_22:\n        /* \"#utility.yul\":1265:1271   */\n      0x00\n        /* \"#utility.yul\":1273:1279   */\n      dup1\n        /* \"#utility.yul\":1322:1324   */\n      0x40\n        /* \"#utility.yul\":1310:1319   */\n      dup4\n        /* \"#utility.yul\":1301:1308   */\n      dup6\n        /* \"#utility.yul\":1297:1320   */\n      sub\n        /* \"#utility.yul\":1293:1325   */\n      slt\n        /* \"#utility.yul\":1290:1409   */\n      iszero\n      tag_427\n      jumpi\n        /* \"#utility.yul\":1328:1407   */\n      tag_428\n      tag_327\n      jump\t// in\n    tag_428:\n        /* \"#utility.yul\":1290:1409   */\n    tag_427:\n        /* \"#utility.yul\":1448:1449   */\n      0x00\n        /* \"#utility.yul\":1473:1526   */\n      tag_429\n        /* \"#utility.yul\":1518:1525   */\n      dup6\n        /* \"#utility.yul\":1509:1515   */\n      dup3\n        /* \"#utility.yul\":1498:1507   */\n      dup7\n        /* \"#utility.yul\":1494:1516   */\n      add\n        /* \"#utility.yul\":1473:1526   */\n      tag_332\n      jump\t// in\n    tag_429:\n        /* \"#utility.yul\":1463:1526   */\n      swap3\n      pop\n        /* \"#utility.yul\":1419:1536   */\n      pop\n        /* \"#utility.yul\":1575:1577   */\n      0x20\n        /* \"#utility.yul\":1601:1654   */\n      tag_430\n        /* \"#utility.yul\":1646:1653   */\n      dup6\n        /* \"#utility.yul\":1637:1643   */\n      dup3\n        /* \"#utility.yul\":1626:1635   */\n      dup7\n        /* \"#utility.yul\":1622:1644   */\n      add\n        /* \"#utility.yul\":1601:1654   */\n      tag_335\n      jump\t// in\n    tag_430:\n        /* \"#utility.yul\":1591:1654   */\n      swap2\n      pop\n        /* \"#utility.yul\":1546:1664   */\n      pop\n        /* \"#utility.yul\":1197:1671   */\n      swap3\n      pop\n      swap3\n      swap1\n      pop\n      jump\t// out\n        /* \"#utility.yul\":1677:2006   */\n    tag_26:\n        /* \"#utility.yul\":1736:1742   */\n      0x00\n        /* \"#utility.yul\":1785:1787   */\n      0x20\n        /* \"#utility.yul\":1773:1782   */\n      dup3\n        /* \"#utility.yul\":1764:1771   */\n      dup5\n        /* \"#utility.yul\":1760:1783   */\n      sub\n        /* \"#utility.yul\":1756:1788   */\n      slt\n        /* \"#utility.yul\":1753:1872   */\n      iszero\n      tag_432\n      jumpi\n        /* \"#utility.yul\":1791:1870   */\n      tag_433\n      tag_327\n      jump\t// in\n    tag_433:\n        /* \"#utility.yul\":1753:1872   */\n    tag_432:\n        /* \"#utility.yul\":1911:1912   */\n      0x00\n        /* \"#utility.yul\":1936:1989   */\n      tag_434\n        /* \"#utility.yul\":1981:1988   */\n      dup5\n        /* \"#utility.yul\":1972:1978   */\n      dup3\n        /* \"#utility.yul\":1961:1970   */\n      dup6\n        /* \"#utility.yul\":1957:1979   */\n      add\n        /* \"#utility.yul\":1936:1989   */\n      tag_332\n      jump\t// in\n    tag_434:\n        /* \"#utility.yul\":1926:1989   */\n      swap2\n      pop\n        /* \"#utility.yul\":1882:1999   */\n      pop\n        /* \"#utility.yul\":1677:2006   */\n      swap3\n      swap2\n      pop\n      pop\n      jump\t// out\n        /* \"#utility.yul\":2012:2126   */\n    tag_336:\n        /* \"#utility.yul\":2079:2085   */\n      0x00\n        /* \"#utility.yul\":2113:2118   */\n      dup2\n        /* \"#utility.yul\":2107:2119   */\n      mload\n        /* \"#utility.yul\":2097:2119   */\n      swap1\n      pop\n        /* \"#utility.yul\":2012:2126   */\n      swap2\n      swap1\n      pop\n      jump\t// out\n        /* \"#utility.yul\":2132:2316   */\n    tag_337:\n        /* \"#utility.yul\":2231:2242   */\n      0x00\n        /* \"#utility.yul\":2265:2271   */\n      dup3\n        /* \"#utility.yul\":2260:2263   */\n      dup3\n        /* \"#utility.yul\":2253:2272   */\n      mstore\n        /* \"#utility.yul\":2305:2309   */\n      0x20\n        /* \"#utility.yul\":2300:2303   */\n      dup3\n        /* \"#utility.yul\":2296:2310   */\n      add\n        /* \"#utility.yul\":2281:2310   */\n      swap1\n      pop\n        /* \"#utility.yul\":2132:2316   */\n      swap3\n      swap2\n      pop\n      pop\n      jump\t// out\n        /* \"#utility.yul\":2322:2454   */\n    tag_338:\n        /* \"#utility.yul\":2389:2393   */\n      0x00\n        /* \"#utility.yul\":2412:2415   */\n      dup2\n        /* \"#utility.yul\":2404:2415   */\n      swap1\n      pop\n        /* \"#utility.yul\":2442:2446   */\n      0x20\n        /* \"#utility.yul\":2437:2440   */\n      dup3\n        /* \"#utility.yul\":2433:2447   */\n      add\n        /* \"#utility.yul\":2425:2447   */\n      swap1\n      pop\n        /* \"#utility.yul\":2322:2454   */\n      swap2\n      swap1\n      pop\n      jump\t// out\n        /* \"#utility.yul\":2460:2568   */\n    tag_339:\n        /* \"#utility.yul\":2537:2561   */\n      tag_439\n        /* \"#utility.yul\":2555:2560   */\n      dup2\n        /* \"#utility.yul\":2537:2561   */\n      tag_333\n      jump\t// in\n    tag_439:\n        /* \"#utility.yul\":2532:2535   */\n      dup3\n        /* \"#utility.yul\":2525:2562   */\n      mstore\n        /* \"#utility.yul\":2460:2568   */\n      pop\n      pop\n      jump\t// out\n        /* \"#utility.yul\":2574:2753   */\n    tag_340:\n        /* \"#utility.yul\":2643:2653   */\n      0x00\n        /* \"#utility.yul\":2664:2710   */\n      tag_441\n        /* \"#utility.yul\":2706:2709   */\n      dup4\n        /* \"#utility.yul\":2698:2704   */\n      dup4\n        /* \"#utility.yul\":2664:2710   */\n      tag_339\n      jump\t// in\n    tag_441:\n        /* \"#utility.yul\":2742:2746   */\n      0x20\n        /* \"#utility.yul\":2737:2740   */\n      dup4\n        /* \"#utility.yul\":2733:2747   */\n      add\n        /* \"#utility.yul\":2719:2747   */\n      swap1\n      pop\n        /* \"#utility.yul\":2574:2753   */\n      swap3\n      swap2\n      pop\n      pop\n      jump\t// out\n        /* \"#utility.yul\":2759:2872   */\n    tag_341:\n        /* \"#utility.yul\":2829:2833   */\n      0x00\n        /* \"#utility.yul\":2861:2865   */\n      0x20\n        /* \"#utility.yul\":2856:2859   */\n      dup3\n        /* \"#utility.yul\":2852:2866   */\n      add\n        /* \"#utility.yul\":2844:2866   */\n      swap1\n      pop\n        /* \"#utility.yul\":2759:2872   */\n      swap2\n      swap1\n      pop\n      jump\t// out\n        /* \"#utility.yul\":2908:3640   */\n    tag_342:\n        /* \"#utility.yul\":3027:3030   */\n      0x00\n        /* \"#utility.yul\":3056:3110   */\n      tag_444\n        /* \"#utility.yul\":3104:3109   */\n      dup3\n        /* \"#utility.yul\":3056:3110   */\n      tag_336\n      jump\t// in\n    tag_444:\n        /* \"#utility.yul\":3126:3212   */\n      tag_445\n        /* \"#utility.yul\":3205:3211   */\n      dup2\n        /* \"#utility.yul\":3200:3203   */\n      dup6\n        /* \"#utility.yul\":3126:3212   */\n      tag_337\n      jump\t// in\n    tag_445:\n        /* \"#utility.yul\":3119:3212   */\n      swap4\n      pop\n        /* \"#utility.yul\":3236:3292   */\n      tag_446\n        /* \"#utility.yul\":3286:3291   */\n      dup4\n        /* \"#utility.yul\":3236:3292   */\n      tag_338\n      jump\t// in\n    tag_446:\n        /* \"#utility.yul\":3315:3322   */\n      dup1\n        /* \"#utility.yul\":3346:3347   */\n      0x00\n        /* \"#utility.yul\":3331:3615   */\n    tag_447:\n        /* \"#utility.yul\":3356:3362   */\n      dup4\n        /* \"#utility.yul\":3353:3354   */\n      dup2\n        /* \"#utility.yul\":3350:3363   */\n      lt\n        /* \"#utility.yul\":3331:3615   */\n      iszero\n      tag_449\n      jumpi\n        /* \"#utility.yul\":3432:3438   */\n      dup2\n        /* \"#utility.yul\":3426:3439   */\n      mload\n        /* \"#utility.yul\":3459:3522   */\n      tag_450\n        /* \"#utility.yul\":3518:3521   */\n      dup9\n        /* \"#utility.yul\":3503:3516   */\n      dup3\n        /* \"#utility.yul\":3459:3522   */\n      tag_340\n      jump\t// in\n    tag_450:\n        /* \"#utility.yul\":3452:3522   */\n      swap8\n      pop\n        /* \"#utility.yul\":3545:3605   */\n      tag_451\n        /* \"#utility.yul\":3598:3604   */\n      dup4\n        /* \"#utility.yul\":3545:3605   */\n      tag_341\n      jump\t// in\n    tag_451:\n        /* \"#utility.yul\":3535:3605   */\n      swap3\n      pop\n        /* \"#utility.yul\":3391:3615   */\n      pop\n        /* \"#utility.yul\":3378:3379   */\n      0x01\n        /* \"#utility.yul\":3375:3376   */\n      dup2\n        /* \"#utility.yul\":3371:3380   */\n      add\n        /* \"#utility.yul\":3366:3380   */\n      swap1\n      pop\n        /* \"#utility.yul\":3331:3615   */\n      jump(tag_447)\n    tag_449:\n        /* \"#utility.yul\":3335:3349   */\n      pop\n        /* \"#utility.yul\":3631:3634   */\n      dup6\n        /* \"#utility.yul\":3624:3634   */\n      swap4\n      pop\n        /* \"#utility.yul\":3032:3640   */\n      pop\n      pop\n      pop\n        /* \"#utility.yul\":2908:3640   */\n      swap3\n      swap2\n      pop\n      pop\n      jump\t// out\n        /* \"#utility.yul\":3646:4019   */\n    tag_29:\n        /* \"#utility.yul\":3789:3793   */\n      0x00\n        /* \"#utility.yul\":3827:3829   */\n      0x20\n        /* \"#utility.yul\":3816:3825   */\n      dup3\n        /* \"#utility.yul\":3812:3830   */\n      add\n        /* \"#utility.yul\":3804:3830   */\n      swap1\n      pop\n        /* \"#utility.yul\":3876:3885   */\n      dup2\n        /* \"#utility.yul\":3870:3874   */\n      dup2\n        /* \"#utility.yul\":3866:3886   */\n      sub\n        /* \"#utility.yul\":3862:3863   */\n      0x00\n        /* \"#utility.yul\":3851:3860   */\n      dup4\n        /* \"#utility.yul\":3847:3864   */\n      add\n        /* \"#utility.yul\":3840:3887   */\n      mstore\n        /* \"#utility.yul\":3904:4012   */\n      tag_453\n        /* \"#utility.yul\":4007:4011   */\n      dup2\n        /* \"#utility.yul\":3998:4004   */\n      dup5\n        /* \"#utility.yul\":3904:4012   */\n      tag_342\n      jump\t// in\n    tag_453:\n        /* \"#utility.yul\":3896:4012   */\n      swap1\n      pop\n        /* \"#utility.yul\":3646:4019   */\n      swap3\n      swap2\n      pop\n      pop\n      jump\t// out\n        /* \"#utility.yul\":4025:4354   */\n    tag_32:\n        /* \"#utility.yul\":4084:4090   */\n      0x00\n        /* \"#utility.yul\":4133:4135   */\n      0x20\n        /* \"#utility.yul\":4121:4130   */\n      dup3\n        /* \"#utility.yul\":4112:4119   */\n      dup5\n        /* \"#utility.yul\":4108:4131   */\n      sub\n        /* \"#utility.yul\":4104:4136   */\n      slt\n        /* \"#utility.yul\":4101:4220   */\n      iszero\n      tag_455\n      jumpi\n        /* \"#utility.yul\":4139:4218   */\n      tag_456\n      tag_327\n      jump\t// in\n    tag_456:\n        /* \"#utility.yul\":4101:4220   */\n    tag_455:\n        /* \"#utility.yul\":4259:4260   */\n      0x00\n        /* \"#utility.yul\":4284:4337   */\n      tag_457\n        /* \"#utility.yul\":4329:4336   */\n      dup5\n        /* \"#utility.yul\":4320:4326   */\n      dup3\n        /* \"#utility.yul\":4309:4318   */\n      dup6\n        /* \"#utility.yul\":4305:4327   */\n      add\n        /* \"#utility.yul\":4284:4337   */\n      tag_335\n      jump\t// in\n    tag_457:\n        /* \"#utility.yul\":4274:4337   */\n      swap2\n      pop\n        /* \"#utility.yul\":4230:4347   */\n      pop\n        /* \"#utility.yul\":4025:4354   */\n      swap3\n      swap2\n      pop\n      pop\n      jump\t// out\n        /* \"#utility.yul\":4360:4979   */\n    tag_36:\n        /* \"#utility.yul\":4437:4443   */\n      0x00\n        /* \"#utility.yul\":4445:4451   */\n      dup1\n        /* \"#utility.yul\":4453:4459   */\n      0x00\n        /* \"#utility.yul\":4502:4504   */\n      0x60\n        /* \"#utility.yul\":4490:4499   */\n      dup5\n        /* \"#utility.yul\":4481:4488   */\n      dup7\n        /* \"#utility.yul\":4477:4500   */\n      sub\n        /* \"#utility.yul\":4473:4505   */\n      slt\n        /* \"#utility.yul\":4470:4589   */\n      iszero\n      tag_459\n      jumpi\n        /* \"#utility.yul\":4508:4587   */\n      tag_460\n      tag_327\n      jump\t// in\n    tag_460:\n        /* \"#utility.yul\":4470:4589   */\n    tag_459:\n        /* \"#utility.yul\":4628:4629   */\n      0x00\n        /* \"#utility.yul\":4653:4706   */\n      tag_461\n        /* \"#utility.yul\":4698:4705   */\n      dup7\n        /* \"#utility.yul\":4689:4695   */\n      dup3\n        /* \"#utility.yul\":4678:4687   */\n      dup8\n        /* \"#utility.yul\":4674:4696   */\n      add\n        /* \"#utility.yul\":4653:4706   */\n      tag_332\n      jump\t// in\n    tag_461:\n        /* \"#utility.yul\":4643:4706   */\n      swap4\n      pop\n        /* \"#utility.yul\":4599:4716   */\n      pop\n        /* \"#utility.yul\":4755:4757   */\n      0x20\n        /* \"#utility.yul\":4781:4834   */\n      tag_462\n        /* \"#utility.yul\":4826:4833   */\n      dup7\n        /* \"#utility.yul\":4817:4823   */\n      dup3\n        /* \"#utility.yul\":4806:4815   */\n      dup8\n        /* \"#utility.yul\":4802:4824   */\n      add\n        /* \"#utility.yul\":4781:4834   */\n      tag_332\n      jump\t// in\n    tag_462:\n        /* \"#utility.yul\":4771:4834   */\n      swap3\n      pop\n        /* \"#utility.yul\":4726:4844   */\n      pop\n        /* \"#utility.yul\":4883:4885   */\n      0x40\n        /* \"#utility.yul\":4909:4962   */\n      tag_463\n        /* \"#utility.yul\":4954:4961   */\n      dup7\n        /* \"#utility.yul\":4945:4951   */\n      dup3\n        /* \"#utility.yul\":4934:4943   */\n      dup8\n        /* \"#utility.yul\":4930:4952   */\n      add\n        /* \"#utility.yul\":4909:4962   */\n      tag_335\n      jump\t// in\n    tag_463:\n        /* \"#utility.yul\":4899:4962   */\n      swap2\n      pop\n        /* \"#utility.yul\":4854:4972   */\n      pop\n        /* \"#utility.yul\":4360:4979   */\n      swap3\n      pop\n      swap3\n      pop\n      swap3\n      jump\t// out\n        /* \"#utility.yul\":4985:5075   */\n    tag_343:\n        /* \"#utility.yul\":5019:5026   */\n      0x00\n        /* \"#utility.yul\":5062:5067   */\n      dup2\n        /* \"#utility.yul\":5055:5068   */\n      iszero\n        /* \"#utility.yul\":5048:5069   */\n      iszero\n        /* \"#utility.yul\":5037:5069   */\n      swap1\n      pop\n        /* \"#utility.yul\":4985:5075   */\n      swap2\n      swap1\n      pop\n      jump\t// out\n        /* \"#utility.yul\":5081:5190   */\n    tag_344:\n        /* \"#utility.yul\":5162:5183   */\n      tag_466\n        /* \"#utility.yul\":5177:5182   */\n      dup2\n        /* \"#utility.yul\":5162:5183   */\n      tag_343\n      jump\t// in\n    tag_466:\n        /* \"#utility.yul\":5157:5160   */\n      dup3\n        /* \"#utility.yul\":5150:5184   */\n      mstore\n        /* \"#utility.yul\":5081:5190   */\n      pop\n      pop\n      jump\t// out\n        /* \"#utility.yul\":5196:5406   */\n    tag_42:\n        /* \"#utility.yul\":5283:5287   */\n      0x00\n        /* \"#utility.yul\":5321:5323   */\n      0x20\n        /* \"#utility.yul\":5310:5319   */\n      dup3\n        /* \"#utility.yul\":5306:5324   */\n      add\n        /* \"#utility.yul\":5298:5324   */\n      swap1\n      pop\n        /* \"#utility.yul\":5334:5399   */\n      tag_468\n        /* \"#utility.yul\":5396:5397   */\n      0x00\n        /* \"#utility.yul\":5385:5394   */\n      dup4\n        /* \"#utility.yul\":5381:5398   */\n      add\n        /* \"#utility.yul\":5372:5378   */\n      dup5\n        /* \"#utility.yul\":5334:5399   */\n      tag_344\n      jump\t// in\n    tag_468:\n        /* \"#utility.yul\":5196:5406   */\n      swap3\n      swap2\n      pop\n      pop\n      jump\t// out\n        /* \"#utility.yul\":5412:5511   */\n    tag_345:\n        /* \"#utility.yul\":5464:5470   */\n      0x00\n        /* \"#utility.yul\":5498:5503   */\n      dup2\n        /* \"#utility.yul\":5492:5504   */\n      mload\n        /* \"#utility.yul\":5482:5504   */\n      swap1\n      pop\n        /* \"#utility.yul\":5412:5511   */\n      swap2\n      swap1\n      pop\n      jump\t// out\n        /* \"#utility.yul\":5517:5676   */\n    tag_346:\n        /* \"#utility.yul\":5591:5602   */\n      0x00\n        /* \"#utility.yul\":5625:5631   */\n      dup3\n        /* \"#utility.yul\":5620:5623   */\n      dup3\n        /* \"#utility.yul\":5613:5632   */\n      mstore\n        /* \"#utility.yul\":5665:5669   */\n      0x20\n        /* \"#utility.yul\":5660:5663   */\n      dup3\n        /* \"#utility.yul\":5656:5670   */\n      add\n        /* \"#utility.yul\":5641:5670   */\n      swap1\n      pop\n        /* \"#utility.yul\":5517:5676   */\n      swap3\n      swap2\n      pop\n      pop\n      jump\t// out\n        /* \"#utility.yul\":5682:5928   */\n    tag_347:\n        /* \"#utility.yul\":5763:5764   */\n      0x00\n        /* \"#utility.yul\":5773:5886   */\n    tag_472:\n        /* \"#utility.yul\":5787:5793   */\n      dup4\n        /* \"#utility.yul\":5784:5785   */\n      dup2\n        /* \"#utility.yul\":5781:5794   */\n      lt\n        /* \"#utility.yul\":5773:5886   */\n      iszero\n      tag_474\n      jumpi\n        /* \"#utility.yul\":5872:5873   */\n      dup1\n        /* \"#utility.yul\":5867:5870   */\n      dup3\n        /* \"#utility.yul\":5863:5874   */\n      add\n        /* \"#utility.yul\":5857:5875   */\n      mload\n        /* \"#utility.yul\":5853:5854   */\n      dup2\n        /* \"#utility.yul\":5848:5851   */\n      dup5\n        /* \"#utility.yul\":5844:5855   */\n      add\n        /* \"#utility.yul\":5837:5876   */\n      mstore\n        /* \"#utility.yul\":5809:5811   */\n      0x20\n        /* \"#utility.yul\":5806:5807   */\n      dup2\n        /* \"#utility.yul\":5802:5812   */\n      add\n        /* \"#utility.yul\":5797:5812   */\n      swap1\n      pop\n        /* \"#utility.yul\":5773:5886   */\n      jump(tag_472)\n    tag_474:\n        /* \"#utility.yul\":5920:5921   */\n      0x00\n        /* \"#utility.yul\":5911:5917   */\n      dup5\n        /* \"#utility.yul\":5906:5909   */\n      dup5\n        /* \"#utility.yul\":5902:5918   */\n      add\n        /* \"#utility.yul\":5895:5922   */\n      mstore\n        /* \"#utility.yul\":5744:5928   */\n      pop\n        /* \"#utility.yul\":5682:5928   */\n      pop\n      pop\n      pop\n      jump\t// out\n        /* \"#utility.yul\":5934:6036   */\n    tag_348:\n        /* \"#utility.yul\":5975:5981   */\n      0x00\n        /* \"#utility.yul\":6026:6028   */\n      0x1f\n        /* \"#utility.yul\":6022:6029   */\n      not\n        /* \"#utility.yul\":6017:6019   */\n      0x1f\n        /* \"#utility.yul\":6010:6015   */\n      dup4\n        /* \"#utility.yul\":6006:6020   */\n      add\n        /* \"#utility.yul\":6002:6030   */\n      and\n        /* \"#utility.yul\":5992:6030   */\n      swap1\n      pop\n        /* \"#utility.yul\":5934:6036   */\n      swap2\n      swap1\n      pop\n      jump\t// out\n        /* \"#utility.yul\":6042:6399   */\n    tag_349:\n        /* \"#utility.yul\":6120:6123   */\n      0x00\n        /* \"#utility.yul\":6148:6187   */\n      tag_477\n        /* \"#utility.yul\":6181:6186   */\n      dup3\n        /* \"#utility.yul\":6148:6187   */\n      tag_345\n      jump\t// in\n    tag_477:\n        /* \"#utility.yul\":6203:6264   */\n      tag_478\n        /* \"#utility.yul\":6257:6263   */\n      dup2\n        /* \"#utility.yul\":6252:6255   */\n      dup6\n        /* \"#utility.yul\":6203:6264   */\n      tag_346\n      jump\t// in\n    tag_478:\n        /* \"#utility.yul\":6196:6264   */\n      swap4\n      pop\n        /* \"#utility.yul\":6273:6338   */\n      tag_479\n        /* \"#utility.yul\":6331:6337   */\n      dup2\n        /* \"#utility.yul\":6326:6329   */\n      dup6\n        /* \"#utility.yul\":6319:6323   */\n      0x20\n        /* \"#utility.yul\":6312:6317   */\n      dup7\n        /* \"#utility.yul\":6308:6324   */\n      add\n        /* \"#utility.yul\":6273:6338   */\n      tag_347\n      jump\t// in\n    tag_479:\n        /* \"#utility.yul\":6363:6392   */\n      tag_480\n        /* \"#utility.yul\":6385:6391   */\n      dup2\n        /* \"#utility.yul\":6363:6392   */\n      tag_348\n      jump\t// in\n    tag_480:\n        /* \"#utility.yul\":6358:6361   */\n      dup5\n        /* \"#utility.yul\":6354:6393   */\n      add\n        /* \"#utility.yul\":6347:6393   */\n      swap2\n      pop\n        /* \"#utility.yul\":6124:6399   */\n      pop\n        /* \"#utility.yul\":6042:6399   */\n      swap3\n      swap2\n      pop\n      pop\n      jump\t// out\n        /* \"#utility.yul\":6479:8399   */\n    tag_350:\n        /* \"#utility.yul\":6606:6609   */\n      0x00\n        /* \"#utility.yul\":6642:6648   */\n      0x0120\n        /* \"#utility.yul\":6637:6640   */\n      dup4\n        /* \"#utility.yul\":6633:6649   */\n      add\n        /* \"#utility.yul\":6731:6735   */\n      0x00\n        /* \"#utility.yul\":6724:6729   */\n      dup4\n        /* \"#utility.yul\":6720:6736   */\n      add\n        /* \"#utility.yul\":6714:6737   */\n      mload\n        /* \"#utility.yul\":6784:6787   */\n      dup5\n        /* \"#utility.yul\":6778:6782   */\n      dup3\n        /* \"#utility.yul\":6774:6788   */\n      sub\n        /* \"#utility.yul\":6767:6771   */\n      0x00\n        /* \"#utility.yul\":6762:6765   */\n      dup7\n        /* \"#utility.yul\":6758:6772   */\n      add\n        /* \"#utility.yul\":6751:6789   */\n      mstore\n        /* \"#utility.yul\":6810:6883   */\n      tag_482\n        /* \"#utility.yul\":6878:6882   */\n      dup3\n        /* \"#utility.yul\":6864:6876   */\n      dup3\n        /* \"#utility.yul\":6810:6883   */\n      tag_349\n      jump\t// in\n    tag_482:\n        /* \"#utility.yul\":6802:6883   */\n      swap2\n      pop\n        /* \"#utility.yul\":6659:6894   */\n      pop\n        /* \"#utility.yul\":6976:6980   */\n      0x20\n        /* \"#utility.yul\":6969:6974   */\n      dup4\n        /* \"#utility.yul\":6965:6981   */\n      add\n        /* \"#utility.yul\":6959:6982   */\n      mload\n        /* \"#utility.yul\":7029:7032   */\n      dup5\n        /* \"#utility.yul\":7023:7027   */\n      dup3\n        /* \"#utility.yul\":7019:7033   */\n      sub\n        /* \"#utility.yul\":7012:7016   */\n      0x20\n        /* \"#utility.yul\":7007:7010   */\n      dup7\n        /* \"#utility.yul\":7003:7017   */\n      add\n        /* \"#utility.yul\":6996:7034   */\n      mstore\n        /* \"#utility.yul\":7055:7128   */\n      tag_483\n        /* \"#utility.yul\":7123:7127   */\n      dup3\n        /* \"#utility.yul\":7109:7121   */\n      dup3\n        /* \"#utility.yul\":7055:7128   */\n      tag_349\n      jump\t// in\n    tag_483:\n        /* \"#utility.yul\":7047:7128   */\n      swap2\n      pop\n        /* \"#utility.yul\":6904:7139   */\n      pop\n        /* \"#utility.yul\":7220:7224   */\n      0x40\n        /* \"#utility.yul\":7213:7218   */\n      dup4\n        /* \"#utility.yul\":7209:7225   */\n      add\n        /* \"#utility.yul\":7203:7226   */\n      mload\n        /* \"#utility.yul\":7239:7302   */\n      tag_484\n        /* \"#utility.yul\":7296:7300   */\n      0x40\n        /* \"#utility.yul\":7291:7294   */\n      dup7\n        /* \"#utility.yul\":7287:7301   */\n      add\n        /* \"#utility.yul\":7273:7285   */\n      dup3\n        /* \"#utility.yul\":7239:7302   */\n      tag_339\n      jump\t// in\n    tag_484:\n        /* \"#utility.yul\":7149:7312   */\n      pop\n        /* \"#utility.yul\":7395:7399   */\n      0x60\n        /* \"#utility.yul\":7388:7393   */\n      dup4\n        /* \"#utility.yul\":7384:7400   */\n      add\n        /* \"#utility.yul\":7378:7401   */\n      mload\n        /* \"#utility.yul\":7414:7477   */\n      tag_485\n        /* \"#utility.yul\":7471:7475   */\n      0x60\n        /* \"#utility.yul\":7466:7469   */\n      dup7\n        /* \"#utility.yul\":7462:7476   */\n      add\n        /* \"#utility.yul\":7448:7460   */\n      dup3\n        /* \"#utility.yul\":7414:7477   */\n      tag_339\n      jump\t// in\n    tag_485:\n        /* \"#utility.yul\":7322:7487   */\n      pop\n        /* \"#utility.yul\":7567:7571   */\n      0x80\n        /* \"#utility.yul\":7560:7565   */\n      dup4\n        /* \"#utility.yul\":7556:7572   */\n      add\n        /* \"#utility.yul\":7550:7573   */\n      mload\n        /* \"#utility.yul\":7586:7649   */\n      tag_486\n        /* \"#utility.yul\":7643:7647   */\n      0x80\n        /* \"#utility.yul\":7638:7641   */\n      dup7\n        /* \"#utility.yul\":7634:7648   */\n      add\n        /* \"#utility.yul\":7620:7632   */\n      dup3\n        /* \"#utility.yul\":7586:7649   */\n      tag_339\n      jump\t// in\n    tag_486:\n        /* \"#utility.yul\":7497:7659   */\n      pop\n        /* \"#utility.yul\":7747:7751   */\n      0xa0\n        /* \"#utility.yul\":7740:7745   */\n      dup4\n        /* \"#utility.yul\":7736:7752   */\n      add\n        /* \"#utility.yul\":7730:7753   */\n      mload\n        /* \"#utility.yul\":7766:7829   */\n      tag_487\n        /* \"#utility.yul\":7823:7827   */\n      0xa0\n        /* \"#utility.yul\":7818:7821   */\n      dup7\n        /* \"#utility.yul\":7814:7828   */\n      add\n        /* \"#utility.yul\":7800:7812   */\n      dup3\n        /* \"#utility.yul\":7766:7829   */\n      tag_339\n      jump\t// in\n    tag_487:\n        /* \"#utility.yul\":7669:7839   */\n      pop\n        /* \"#utility.yul\":7926:7930   */\n      0xc0\n        /* \"#utility.yul\":7919:7924   */\n      dup4\n        /* \"#utility.yul\":7915:7931   */\n      add\n        /* \"#utility.yul\":7909:7932   */\n      mload\n        /* \"#utility.yul\":7945:8008   */\n      tag_488\n        /* \"#utility.yul\":8002:8006   */\n      0xc0\n        /* \"#utility.yul\":7997:8000   */\n      dup7\n        /* \"#utility.yul\":7993:8007   */\n      add\n        /* \"#utility.yul\":7979:7991   */\n      dup3\n        /* \"#utility.yul\":7945:8008   */\n      tag_339\n      jump\t// in\n    tag_488:\n        /* \"#utility.yul\":7849:8018   */\n      pop\n        /* \"#utility.yul\":8100:8104   */\n      0xe0\n        /* \"#utility.yul\":8093:8098   */\n      dup4\n        /* \"#utility.yul\":8089:8105   */\n      add\n        /* \"#utility.yul\":8083:8106   */\n      mload\n        /* \"#utility.yul\":8119:8182   */\n      tag_489\n        /* \"#utility.yul\":8176:8180   */\n      0xe0\n        /* \"#utility.yul\":8171:8174   */\n      dup7\n        /* \"#utility.yul\":8167:8181   */\n      add\n        /* \"#utility.yul\":8153:8165   */\n      dup3\n        /* \"#utility.yul\":8119:8182   */\n      tag_339\n      jump\t// in\n    tag_489:\n        /* \"#utility.yul\":8028:8192   */\n      pop\n        /* \"#utility.yul\":8276:8282   */\n      0x0100\n        /* \"#utility.yul\":8269:8274   */\n      dup4\n        /* \"#utility.yul\":8265:8283   */\n      add\n        /* \"#utility.yul\":8259:8284   */\n      mload\n        /* \"#utility.yul\":8297:8362   */\n      tag_490\n        /* \"#utility.yul\":8354:8360   */\n      0x0100\n        /* \"#utility.yul\":8349:8352   */\n      dup7\n        /* \"#utility.yul\":8345:8361   */\n      add\n        /* \"#utility.yul\":8331:8343   */\n      dup3\n        /* \"#utility.yul\":8297:8362   */\n      tag_339\n      jump\t// in\n    tag_490:\n        /* \"#utility.yul\":8202:8372   */\n      pop\n        /* \"#utility.yul\":8389:8393   */\n      dup1\n        /* \"#utility.yul\":8382:8393   */\n      swap2\n      pop\n        /* \"#utility.yul\":6611:8399   */\n      pop\n        /* \"#utility.yul\":6479:8399   */\n      swap3\n      swap2\n      pop\n      pop\n      jump\t// out\n        /* \"#utility.yul\":8405:8794   */\n    tag_53:\n        /* \"#utility.yul\":8556:8560   */\n      0x00\n        /* \"#utility.yul\":8594:8596   */\n      0x20\n        /* \"#utility.yul\":8583:8592   */\n      dup3\n        /* \"#utility.yul\":8579:8597   */\n      add\n        /* \"#utility.yul\":8571:8597   */\n      swap1\n      pop\n        /* \"#utility.yul\":8643:8652   */\n      dup2\n        /* \"#utility.yul\":8637:8641   */\n      dup2\n        /* \"#utility.yul\":8633:8653   */\n      sub\n        /* \"#utility.yul\":8629:8630   */\n      0x00\n        /* \"#utility.yul\":8618:8627   */\n      dup4\n        /* \"#utility.yul\":8614:8631   */\n      add\n        /* \"#utility.yul\":8607:8654   */\n      mstore\n        /* \"#utility.yul\":8671:8787   */\n      tag_492\n        /* \"#utility.yul\":8782:8786   */\n      dup2\n        /* \"#utility.yul\":8773:8779   */\n      dup5\n        /* \"#utility.yul\":8671:8787   */\n      tag_350\n      jump\t// in\n    tag_492:\n        /* \"#utility.yul\":8663:8787   */\n      swap1\n      pop\n        /* \"#utility.yul\":8405:8794   */\n      swap3\n      swap2\n      pop\n      pop\n      jump\t// out\n        /* \"#utility.yul\":8800:8918   */\n    tag_351:\n        /* \"#utility.yul\":8887:8911   */\n      tag_494\n        /* \"#utility.yul\":8905:8910   */\n      dup2\n        /* \"#utility.yul\":8887:8911   */\n      tag_330\n      jump\t// in\n    tag_494:\n        /* \"#utility.yul\":8882:8885   */\n      dup3\n        /* \"#utility.yul\":8875:8912   */\n      mstore\n        /* \"#utility.yul\":8800:8918   */\n      pop\n      pop\n      jump\t// out\n        /* \"#utility.yul\":8924:9146   */\n    tag_62:\n        /* \"#utility.yul\":9017:9021   */\n      0x00\n        /* \"#utility.yul\":9055:9057   */\n      0x20\n        /* \"#utility.yul\":9044:9053   */\n      dup3\n        /* \"#utility.yul\":9040:9058   */\n      add\n        /* \"#utility.yul\":9032:9058   */\n      swap1\n      pop\n        /* \"#utility.yul\":9068:9139   */\n      tag_496\n        /* \"#utility.yul\":9136:9137   */\n      0x00\n        /* \"#utility.yul\":9125:9134   */\n      dup4\n        /* \"#utility.yul\":9121:9138   */\n      add\n        /* \"#utility.yul\":9112:9118   */\n      dup5\n        /* \"#utility.yul\":9068:9139   */\n      tag_351\n      jump\t// in\n    tag_496:\n        /* \"#utility.yul\":8924:9146   */\n      swap3\n      swap2\n      pop\n      pop\n      jump\t// out\n        /* \"#utility.yul\":9152:9269   */\n    tag_352:\n        /* \"#utility.yul\":9261:9262   */\n      0x00\n        /* \"#utility.yul\":9258:9259   */\n      dup1\n        /* \"#utility.yul\":9251:9263   */\n      revert\n        /* \"#utility.yul\":9275:9392   */\n    tag_353:\n        /* \"#utility.yul\":9384:9385   */\n      0x00\n        /* \"#utility.yul\":9381:9382   */\n      dup1\n        /* \"#utility.yul\":9374:9386   */\n      revert\n        /* \"#utility.yul\":9398:9578   */\n    tag_84:\n        /* \"#utility.yul\":9446:9523   */\n      0x4e487b7100000000000000000000000000000000000000000000000000000000\n        /* \"#utility.yul\":9443:9444   */\n      0x00\n        /* \"#utility.yul\":9436:9524   */\n      mstore\n        /* \"#utility.yul\":9543:9547   */\n      0x41\n        /* \"#utility.yul\":9540:9541   */\n      0x04\n        /* \"#utility.yul\":9533:9548   */\n      mstore\n        /* \"#utility.yul\":9567:9571   */\n      0x24\n        /* \"#utility.yul\":9564:9565   */\n      0x00\n        /* \"#utility.yul\":9557:9572   */\n      revert\n        /* \"#utility.yul\":9584:9865   */\n    tag_354:\n        /* \"#utility.yul\":9667:9694   */\n      tag_501\n        /* \"#utility.yul\":9689:9693   */\n      dup3\n        /* \"#utility.yul\":9667:9694   */\n      tag_348\n      jump\t// in\n    tag_501:\n        /* \"#utility.yul\":9659:9665   */\n      dup2\n        /* \"#utility.yul\":9655:9695   */\n      add\n        /* \"#utility.yul\":9797:9803   */\n      dup2\n        /* \"#utility.yul\":9785:9795   */\n      dup2\n        /* \"#utility.yul\":9782:9804   */\n      lt\n        /* \"#utility.yul\":9761:9779   */\n      0xffffffffffffffff\n        /* \"#utility.yul\":9749:9759   */\n      dup3\n        /* \"#utility.yul\":9746:9780   */\n      gt\n        /* \"#utility.yul\":9743:9805   */\n      or\n        /* \"#utility.yul\":9740:9828   */\n      iszero\n      tag_502\n      jumpi\n        /* \"#utility.yul\":9808:9826   */\n      tag_503\n      tag_84\n      jump\t// in\n    tag_503:\n        /* \"#utility.yul\":9740:9828   */\n    tag_502:\n        /* \"#utility.yul\":9848:9858   */\n      dup1\n        /* \"#utility.yul\":9844:9846   */\n      0x40\n        /* \"#utility.yul\":9837:9859   */\n      mstore\n        /* \"#utility.yul\":9627:9865   */\n      pop\n        /* \"#utility.yul\":9584:9865   */\n      pop\n      pop\n      jump\t// out\n        /* \"#utility.yul\":9871:10000   */\n    tag_355:\n        /* \"#utility.yul\":9905:9911   */\n      0x00\n        /* \"#utility.yul\":9932:9952   */\n      tag_505\n      tag_326\n      jump\t// in\n    tag_505:\n        /* \"#utility.yul\":9922:9952   */\n      swap1\n      pop\n        /* \"#utility.yul\":9961:9994   */\n      tag_506\n        /* \"#utility.yul\":9989:9993   */\n      dup3\n        /* \"#utility.yul\":9981:9987   */\n      dup3\n        /* \"#utility.yul\":9961:9994   */\n      tag_354\n      jump\t// in\n    tag_506:\n        /* \"#utility.yul\":9871:10000   */\n      swap2\n      swap1\n      pop\n      jump\t// out\n        /* \"#utility.yul\":10006:10314   */\n    tag_356:\n        /* \"#utility.yul\":10068:10072   */\n      0x00\n        /* \"#utility.yul\":10158:10176   */\n      0xffffffffffffffff\n        /* \"#utility.yul\":10150:10156   */\n      dup3\n        /* \"#utility.yul\":10147:10177   */\n      gt\n        /* \"#utility.yul\":10144:10200   */\n      iszero\n      tag_508\n      jumpi\n        /* \"#utility.yul\":10180:10198   */\n      tag_509\n      tag_84\n      jump\t// in\n    tag_509:\n        /* \"#utility.yul\":10144:10200   */\n    tag_508:\n        /* \"#utility.yul\":10218:10247   */\n      tag_510\n        /* \"#utility.yul\":10240:10246   */\n      dup3\n        /* \"#utility.yul\":10218:10247   */\n      tag_348\n      jump\t// in\n    tag_510:\n        /* \"#utility.yul\":10210:10247   */\n      swap1\n      pop\n        /* \"#utility.yul\":10302:10306   */\n      0x20\n        /* \"#utility.yul\":10296:10300   */\n      dup2\n        /* \"#utility.yul\":10292:10307   */\n      add\n        /* \"#utility.yul\":10284:10307   */\n      swap1\n      pop\n        /* \"#utility.yul\":10006:10314   */\n      swap2\n      swap1\n      pop\n      jump\t// out\n        /* \"#utility.yul\":10320:10466   */\n    tag_357:\n        /* \"#utility.yul\":10417:10423   */\n      dup3\n        /* \"#utility.yul\":10412:10415   */\n      dup2\n        /* \"#utility.yul\":10407:10410   */\n      dup4\n        /* \"#utility.yul\":10394:10424   */\n      calldatacopy\n        /* \"#utility.yul\":10458:10459   */\n      0x00\n        /* \"#utility.yul\":10449:10455   */\n      dup4\n        /* \"#utility.yul\":10444:10447   */\n      dup4\n        /* \"#utility.yul\":10440:10456   */\n      add\n        /* \"#utility.yul\":10433:10460   */\n      mstore\n        /* \"#utility.yul\":10320:10466   */\n      pop\n      pop\n      pop\n      jump\t// out\n        /* \"#utility.yul\":10472:10897   */\n    tag_358:\n        /* \"#utility.yul\":10550:10555   */\n      0x00\n        /* \"#utility.yul\":10575:10641   */\n      tag_513\n        /* \"#utility.yul\":10591:10640   */\n      tag_514\n        /* \"#utility.yul\":10633:10639   */\n      dup5\n        /* \"#utility.yul\":10591:10640   */\n      tag_356\n      jump\t// in\n    tag_514:\n        /* \"#utility.yul\":10575:10641   */\n      tag_355\n      jump\t// in\n    tag_513:\n        /* \"#utility.yul\":10566:10641   */\n      swap1\n      pop\n        /* \"#utility.yul\":10664:10670   */\n      dup3\n        /* \"#utility.yul\":10657:10662   */\n      dup2\n        /* \"#utility.yul\":10650:10671   */\n      mstore\n        /* \"#utility.yul\":10702:10706   */\n      0x20\n        /* \"#utility.yul\":10695:10700   */\n      dup2\n        /* \"#utility.yul\":10691:10707   */\n      add\n        /* \"#utility.yul\":10740:10743   */\n      dup5\n        /* \"#utility.yul\":10731:10737   */\n      dup5\n        /* \"#utility.yul\":10726:10729   */\n      dup5\n        /* \"#utility.yul\":10722:10738   */\n      add\n        /* \"#utility.yul\":10719:10744   */\n      gt\n        /* \"#utility.yul\":10716:10828   */\n      iszero\n      tag_515\n      jumpi\n        /* \"#utility.yul\":10747:10826   */\n      tag_516\n      tag_353\n      jump\t// in\n    tag_516:\n        /* \"#utility.yul\":10716:10828   */\n    tag_515:\n        /* \"#utility.yul\":10837:10891   */\n      tag_517\n        /* \"#utility.yul\":10884:10890   */\n      dup5\n        /* \"#utility.yul\":10879:10882   */\n      dup3\n        /* \"#utility.yul\":10874:10877   */\n      dup6\n        /* \"#utility.yul\":10837:10891   */\n      tag_357\n      jump\t// in\n    tag_517:\n        /* \"#utility.yul\":10556:10897   */\n      pop\n        /* \"#utility.yul\":10472:10897   */\n      swap4\n      swap3\n      pop\n      pop\n      pop\n      jump\t// out\n        /* \"#utility.yul\":10917:11257   */\n    tag_359:\n        /* \"#utility.yul\":10973:10978   */\n      0x00\n        /* \"#utility.yul\":11022:11025   */\n      dup3\n        /* \"#utility.yul\":11015:11019   */\n      0x1f\n        /* \"#utility.yul\":11007:11013   */\n      dup4\n        /* \"#utility.yul\":11003:11020   */\n      add\n        /* \"#utility.yul\":10999:11026   */\n      slt\n        /* \"#utility.yul\":10989:11111   */\n      tag_519\n      jumpi\n        /* \"#utility.yul\":11030:11109   */\n      tag_520\n      tag_352\n      jump\t// in\n    tag_520:\n        /* \"#utility.yul\":10989:11111   */\n    tag_519:\n        /* \"#utility.yul\":11147:11153   */\n      dup2\n        /* \"#utility.yul\":11134:11154   */\n      calldataload\n        /* \"#utility.yul\":11172:11251   */\n      tag_521\n        /* \"#utility.yul\":11247:11250   */\n      dup5\n        /* \"#utility.yul\":11239:11245   */\n      dup3\n        /* \"#utility.yul\":11232:11236   */\n      0x20\n        /* \"#utility.yul\":11224:11230   */\n      dup7\n        /* \"#utility.yul\":11220:11237   */\n      add\n        /* \"#utility.yul\":11172:11251   */\n      tag_358\n      jump\t// in\n    tag_521:\n        /* \"#utility.yul\":11163:11251   */\n      swap2\n      pop\n        /* \"#utility.yul\":10979:11257   */\n      pop\n        /* \"#utility.yul\":10917:11257   */\n      swap3\n      swap2\n      pop\n      pop\n      jump\t// out\n        /* \"#utility.yul\":11263:12097   */\n    tag_65:\n        /* \"#utility.yul\":11351:11357   */\n      0x00\n        /* \"#utility.yul\":11359:11365   */\n      dup1\n        /* \"#utility.yul\":11408:11410   */\n      0x40\n        /* \"#utility.yul\":11396:11405   */\n      dup4\n        /* \"#utility.yul\":11387:11394   */\n      dup6\n        /* \"#utility.yul\":11383:11406   */\n      sub\n        /* \"#utility.yul\":11379:11411   */\n      slt\n        /* \"#utility.yul\":11376:11495   */\n      iszero\n      tag_523\n      jumpi\n        /* \"#utility.yul\":11414:11493   */\n      tag_524\n      tag_327\n      jump\t// in\n    tag_524:\n        /* \"#utility.yul\":11376:11495   */\n    tag_523:\n        /* \"#utility.yul\":11562:11563   */\n      0x00\n        /* \"#utility.yul\":11551:11560   */\n      dup4\n        /* \"#utility.yul\":11547:11564   */\n      add\n        /* \"#utility.yul\":11534:11565   */\n      calldataload\n        /* \"#utility.yul\":11592:11610   */\n      0xffffffffffffffff\n        /* \"#utility.yul\":11584:11590   */\n      dup2\n        /* \"#utility.yul\":11581:11611   */\n      gt\n        /* \"#utility.yul\":11578:11695   */\n      iszero\n      tag_525\n      jumpi\n        /* \"#utility.yul\":11614:11693   */\n      tag_526\n      tag_328\n      jump\t// in\n    tag_526:\n        /* \"#utility.yul\":11578:11695   */\n    tag_525:\n        /* \"#utility.yul\":11719:11782   */\n      tag_527\n        /* \"#utility.yul\":11774:11781   */\n      dup6\n        /* \"#utility.yul\":11765:11771   */\n      dup3\n        /* \"#utility.yul\":11754:11763   */\n      dup7\n        /* \"#utility.yul\":11750:11772   */\n      add\n        /* \"#utility.yul\":11719:11782   */\n      tag_359\n      jump\t// in\n    tag_527:\n        /* \"#utility.yul\":11709:11782   */\n      swap3\n      pop\n        /* \"#utility.yul\":11505:11792   */\n      pop\n        /* \"#utility.yul\":11859:11861   */\n      0x20\n        /* \"#utility.yul\":11848:11857   */\n      dup4\n        /* \"#utility.yul\":11844:11862   */\n      add\n        /* \"#utility.yul\":11831:11863   */\n      calldataload\n        /* \"#utility.yul\":11890:11908   */\n      0xffffffffffffffff\n        /* \"#utility.yul\":11882:11888   */\n      dup2\n        /* \"#utility.yul\":11879:11909   */\n      gt\n        /* \"#utility.yul\":11876:11993   */\n      iszero\n      tag_528\n      jumpi\n        /* \"#utility.yul\":11912:11991   */\n      tag_529\n      tag_328\n      jump\t// in\n    tag_529:\n        /* \"#utility.yul\":11876:11993   */\n    tag_528:\n        /* \"#utility.yul\":12017:12080   */\n      tag_530\n        /* \"#utility.yul\":12072:12079   */\n      dup6\n        /* \"#utility.yul\":12063:12069   */\n      dup3\n        /* \"#utility.yul\":12052:12061   */\n      dup7\n        /* \"#utility.yul\":12048:12070   */\n      add\n        /* \"#utility.yul\":12017:12080   */\n      tag_359\n      jump\t// in\n    tag_530:\n        /* \"#utility.yul\":12007:12080   */\n      swap2\n      pop\n        /* \"#utility.yul\":11802:12090   */\n      pop\n        /* \"#utility.yul\":11263:12097   */\n      swap3\n      pop\n      swap3\n      swap1\n      pop\n      jump\t// out\n        /* \"#utility.yul\":12103:12272   */\n    tag_360:\n        /* \"#utility.yul\":12187:12198   */\n      0x00\n        /* \"#utility.yul\":12221:12227   */\n      dup3\n        /* \"#utility.yul\":12216:12219   */\n      dup3\n        /* \"#utility.yul\":12209:12228   */\n      mstore\n        /* \"#utility.yul\":12261:12265   */\n      0x20\n        /* \"#utility.yul\":12256:12259   */\n      dup3\n        /* \"#utility.yul\":12252:12266   */\n      add\n        /* \"#utility.yul\":12237:12266   */\n      swap1\n      pop\n        /* \"#utility.yul\":12103:12272   */\n      swap3\n      swap2\n      pop\n      pop\n      jump\t// out\n        /* \"#utility.yul\":12278:12439   */\n    tag_361:\n        /* \"#utility.yul\":12418:12431   */\n      0x4f6e6c79204f776e65722e000000000000000000000000000000000000000000\n        /* \"#utility.yul\":12414:12415   */\n      0x00\n        /* \"#utility.yul\":12406:12412   */\n      dup3\n        /* \"#utility.yul\":12402:12416   */\n      add\n        /* \"#utility.yul\":12395:12432   */\n      mstore\n        /* \"#utility.yul\":12278:12439   */\n      pop\n      jump\t// out\n        /* \"#utility.yul\":12445:12811   */\n    tag_362:\n        /* \"#utility.yul\":12587:12590   */\n      0x00\n        /* \"#utility.yul\":12608:12675   */\n      tag_534\n        /* \"#utility.yul\":12672:12674   */\n      0x0b\n        /* \"#utility.yul\":12667:12670   */\n      dup4\n        /* \"#utility.yul\":12608:12675   */\n      tag_360\n      jump\t// in\n    tag_534:\n        /* \"#utility.yul\":12601:12675   */\n      swap2\n      pop\n        /* \"#utility.yul\":12684:12777   */\n      tag_535\n        /* \"#utility.yul\":12773:12776   */\n      dup3\n        /* \"#utility.yul\":12684:12777   */\n      tag_361\n      jump\t// in\n    tag_535:\n        /* \"#utility.yul\":12802:12804   */\n      0x20\n        /* \"#utility.yul\":12797:12800   */\n      dup3\n        /* \"#utility.yul\":12793:12805   */\n      add\n        /* \"#utility.yul\":12786:12805   */\n      swap1\n      pop\n        /* \"#utility.yul\":12445:12811   */\n      swap2\n      swap1\n      pop\n      jump\t// out\n        /* \"#utility.yul\":12817:13236   */\n    tag_79:\n        /* \"#utility.yul\":12983:12987   */\n      0x00\n        /* \"#utility.yul\":13021:13023   */\n      0x20\n        /* \"#utility.yul\":13010:13019   */\n      dup3\n        /* \"#utility.yul\":13006:13024   */\n      add\n        /* \"#utility.yul\":12998:13024   */\n      swap1\n      pop\n        /* \"#utility.yul\":13070:13079   */\n      dup2\n        /* \"#utility.yul\":13064:13068   */\n      dup2\n        /* \"#utility.yul\":13060:13080   */\n      sub\n        /* \"#utility.yul\":13056:13057   */\n      0x00\n        /* \"#utility.yul\":13045:13054   */\n      dup4\n        /* \"#utility.yul\":13041:13058   */\n      add\n        /* \"#utility.yul\":13034:13081   */\n      mstore\n        /* \"#utility.yul\":13098:13229   */\n      tag_537\n        /* \"#utility.yul\":13224:13228   */\n      dup2\n        /* \"#utility.yul\":13098:13229   */\n      tag_362\n      jump\t// in\n    tag_537:\n        /* \"#utility.yul\":13090:13229   */\n      swap1\n      pop\n        /* \"#utility.yul\":12817:13236   */\n      swap2\n      swap1\n      pop\n      jump\t// out\n        /* \"#utility.yul\":13242:13422   */\n    tag_92:\n        /* \"#utility.yul\":13290:13367   */\n      0x4e487b7100000000000000000000000000000000000000000000000000000000\n        /* \"#utility.yul\":13287:13288   */\n      0x00\n        /* \"#utility.yul\":13280:13368   */\n      mstore\n        /* \"#utility.yul\":13387:13391   */\n      0x32\n        /* \"#utility.yul\":13384:13385   */\n      0x04\n        /* \"#utility.yul\":13377:13392   */\n      mstore\n        /* \"#utility.yul\":13411:13415   */\n      0x24\n        /* \"#utility.yul\":13408:13409   */\n      0x00\n        /* \"#utility.yul\":13401:13416   */\n      revert\n        /* \"#utility.yul\":13428:13608   */\n    tag_363:\n        /* \"#utility.yul\":13476:13553   */\n      0x4e487b7100000000000000000000000000000000000000000000000000000000\n        /* \"#utility.yul\":13473:13474   */\n      0x00\n        /* \"#utility.yul\":13466:13554   */\n      mstore\n        /* \"#utility.yul\":13573:13577   */\n      0x11\n        /* \"#utility.yul\":13570:13571   */\n      0x04\n        /* \"#utility.yul\":13563:13578   */\n      mstore\n        /* \"#utility.yul\":13597:13601   */\n      0x24\n        /* \"#utility.yul\":13594:13595   */\n      0x00\n        /* \"#utility.yul\":13587:13602   */\n      revert\n        /* \"#utility.yul\":13614:13847   */\n    tag_94:\n        /* \"#utility.yul\":13653:13656   */\n      0x00\n        /* \"#utility.yul\":13676:13700   */\n      tag_541\n        /* \"#utility.yul\":13694:13699   */\n      dup3\n        /* \"#utility.yul\":13676:13700   */\n      tag_333\n      jump\t// in\n    tag_541:\n        /* \"#utility.yul\":13667:13700   */\n      swap2\n      pop\n        /* \"#utility.yul\":13722:13788   */\n      0xffffffffffffffffffffffffffffffffffffffffffffffffffffffffffffffff\n        /* \"#utility.yul\":13715:13720   */\n      dup3\n        /* \"#utility.yul\":13712:13789   */\n      sub\n        /* \"#utility.yul\":13709:13812   */\n      tag_542\n      jumpi\n        /* \"#utility.yul\":13792:13810   */\n      tag_543\n      tag_363\n      jump\t// in\n    tag_543:\n        /* \"#utility.yul\":13709:13812   */\n    tag_542:\n        /* \"#utility.yul\":13839:13840   */\n      0x01\n        /* \"#utility.yul\":13832:13837   */\n      dup3\n        /* \"#utility.yul\":13828:13841   */\n      add\n        /* \"#utility.yul\":13821:13841   */\n      swap1\n      pop\n        /* \"#utility.yul\":13614:13847   */\n      swap2\n      swap1\n      pop\n      jump\t// out\n        /* \"#utility.yul\":13853:14025   */\n    tag_364:\n        /* \"#utility.yul\":13993:14017   */\n      0x4e6f77206964206973206e6f74206f6e2072656e742e00000000000000000000\n        /* \"#utility.yul\":13989:13990   */\n      0x00\n        /* \"#utility.yul\":13981:13987   */\n      dup3\n        /* \"#utility.yul\":13977:13991   */\n      add\n        /* \"#utility.yul\":13970:14018   */\n      mstore\n        /* \"#utility.yul\":13853:14025   */\n      pop\n      jump\t// out\n        /* \"#utility.yul\":14031:14397   */\n    tag_365:\n        /* \"#utility.yul\":14173:14176   */\n      0x00\n        /* \"#utility.yul\":14194:14261   */\n      tag_546\n        /* \"#utility.yul\":14258:14260   */\n      0x16\n        /* \"#utility.yul\":14253:14256   */\n      dup4\n        /* \"#utility.yul\":14194:14261   */\n      tag_360\n      jump\t// in\n    tag_546:\n        /* \"#utility.yul\":14187:14261   */\n      swap2\n      pop\n        /* \"#utility.yul\":14270:14363   */\n      tag_547\n        /* \"#utility.yul\":14359:14362   */\n      dup3\n        /* \"#utility.yul\":14270:14363   */\n      tag_364\n      jump\t// in\n    tag_547:\n        /* \"#utility.yul\":14388:14390   */\n      0x20\n        /* \"#utility.yul\":14383:14386   */\n      dup3\n        /* \"#utility.yul\":14379:14391   */\n      add\n        /* \"#utility.yul\":14372:14391   */\n      swap1\n      pop\n        /* \"#utility.yul\":14031:14397   */\n      swap2\n      swap1\n      pop\n      jump\t// out\n        /* \"#utility.yul\":14403:14822   */\n    tag_101:\n        /* \"#utility.yul\":14569:14573   */\n      0x00\n        /* \"#utility.yul\":14607:14609   */\n      0x20\n        /* \"#utility.yul\":14596:14605   */\n      dup3\n        /* \"#utility.yul\":14592:14610   */\n      add\n        /* \"#utility.yul\":14584:14610   */\n      swap1\n      pop\n        /* \"#utility.yul\":14656:14665   */\n      dup2\n        /* \"#utility.yul\":14650:14654   */\n      dup2\n        /* \"#utility.yul\":14646:14666   */\n      sub\n        /* \"#utility.yul\":14642:14643   */\n      0x00\n        /* \"#utility.yul\":14631:14640   */\n      dup4\n        /* \"#utility.yul\":14627:14644   */\n      add\n        /* \"#utility.yul\":14620:14667   */\n      mstore\n        /* \"#utility.yul\":14684:14815   */\n      tag_549\n        /* \"#utility.yul\":14810:14814   */\n      dup2\n        /* \"#utility.yul\":14684:14815   */\n      tag_365\n      jump\t// in\n    tag_549:\n        /* \"#utility.yul\":14676:14815   */\n      swap1\n      pop\n        /* \"#utility.yul\":14403:14822   */\n      swap2\n      swap1\n      pop\n      jump\t// out\n        /* \"#utility.yul\":14828:15019   */\n    tag_119:\n        /* \"#utility.yul\":14868:14871   */\n      0x00\n        /* \"#utility.yul\":14887:14907   */\n      tag_551\n        /* \"#utility.yul\":14905:14906   */\n      dup3\n        /* \"#utility.yul\":14887:14907   */\n      tag_333\n      jump\t// in\n    tag_551:\n        /* \"#utility.yul\":14882:14907   */\n      swap2\n      pop\n        /* \"#utility.yul\":14921:14941   */\n      tag_552\n        /* \"#utility.yul\":14939:14940   */\n      dup4\n        /* \"#utility.yul\":14921:14941   */\n      tag_333\n      jump\t// in\n    tag_552:\n        /* \"#utility.yul\":14916:14941   */\n      swap3\n      pop\n        /* \"#utility.yul\":14964:14965   */\n      dup3\n        /* \"#utility.yul\":14961:14962   */\n      dup3\n        /* \"#utility.yul\":14957:14966   */\n      add\n        /* \"#utility.yul\":14950:14966   */\n      swap1\n      pop\n        /* \"#utility.yul\":14985:14988   */\n      dup1\n        /* \"#utility.yul\":14982:14983   */\n      dup3\n        /* \"#utility.yul\":14979:14989   */\n      gt\n        /* \"#utility.yul\":14976:15012   */\n      iszero\n      tag_553\n      jumpi\n        /* \"#utility.yul\":14992:15010   */\n      tag_554\n      tag_363\n      jump\t// in\n    tag_554:\n        /* \"#utility.yul\":14976:15012   */\n    tag_553:\n        /* \"#utility.yul\":14828:15019   */\n      swap3\n      swap2\n      pop\n      pop\n      jump\t// out\n        /* \"#utility.yul\":15025:15193   */\n    tag_366:\n        /* \"#utility.yul\":15165:15185   */\n      0x596f7520646f6e742068617665206e66742e0000000000000000000000000000\n        /* \"#utility.yul\":15161:15162   */\n      0x00\n        /* \"#utility.yul\":15153:15159   */\n      dup3\n        /* \"#utility.yul\":15149:15163   */\n      add\n        /* \"#utility.yul\":15142:15186   */\n      mstore\n        /* \"#utility.yul\":15025:15193   */\n      pop\n      jump\t// out\n        /* \"#utility.yul\":15199:15565   */\n    tag_367:\n        /* \"#utility.yul\":15341:15344   */\n      0x00\n        /* \"#utility.yul\":15362:15429   */\n      tag_557\n        /* \"#utility.yul\":15426:15428   */\n      0x12\n        /* \"#utility.yul\":15421:15424   */\n      dup4\n        /* \"#utility.yul\":15362:15429   */\n      tag_360\n      jump\t// in\n    tag_557:\n        /* \"#utility.yul\":15355:15429   */\n      swap2\n      pop\n        /* \"#utility.yul\":15438:15531   */\n      tag_558\n        /* \"#utility.yul\":15527:15530   */\n      dup3\n        /* \"#utility.yul\":15438:15531   */\n      tag_366\n      jump\t// in\n    tag_558:\n        /* \"#utility.yul\":15556:15558   */\n      0x20\n        /* \"#utility.yul\":15551:15554   */\n      dup3\n        /* \"#utility.yul\":15547:15559   */\n      add\n        /* \"#utility.yul\":15540:15559   */\n      swap1\n      pop\n        /* \"#utility.yul\":15199:15565   */\n      swap2\n      swap1\n      pop\n      jump\t// out\n        /* \"#utility.yul\":15571:15990   */\n    tag_123:\n        /* \"#utility.yul\":15737:15741   */\n      0x00\n        /* \"#utility.yul\":15775:15777   */\n      0x20\n        /* \"#utility.yul\":15764:15773   */\n      dup3\n        /* \"#utility.yul\":15760:15778   */\n      add\n        /* \"#utility.yul\":15752:15778   */\n      swap1\n      pop\n        /* \"#utility.yul\":15824:15833   */\n      dup2\n        /* \"#utility.yul\":15818:15822   */\n      dup2\n        /* \"#utility.yul\":15814:15834   */\n      sub\n        /* \"#utility.yul\":15810:15811   */\n      0x00\n        /* \"#utility.yul\":15799:15808   */\n      dup4\n        /* \"#utility.yul\":15795:15812   */\n      add\n        /* \"#utility.yul\":15788:15835   */\n      mstore\n        /* \"#utility.yul\":15852:15983   */\n      tag_560\n        /* \"#utility.yul\":15978:15982   */\n      dup2\n        /* \"#utility.yul\":15852:15983   */\n      tag_367\n      jump\t// in\n    tag_560:\n        /* \"#utility.yul\":15844:15983   */\n      swap1\n      pop\n        /* \"#utility.yul\":15571:15990   */\n      swap2\n      swap1\n      pop\n      jump\t// out\n        /* \"#utility.yul\":15996:16176   */\n    tag_368:\n        /* \"#utility.yul\":16044:16121   */\n      0x4e487b7100000000000000000000000000000000000000000000000000000000\n        /* \"#utility.yul\":16041:16042   */\n      0x00\n        /* \"#utility.yul\":16034:16122   */\n      mstore\n        /* \"#utility.yul\":16141:16145   */\n      0x22\n        /* \"#utility.yul\":16138:16139   */\n      0x04\n        /* \"#utility.yul\":16131:16146   */\n      mstore\n        /* \"#utility.yul\":16165:16169   */\n      0x24\n        /* \"#utility.yul\":16162:16163   */\n      0x00\n        /* \"#utility.yul\":16155:16170   */\n      revert\n        /* \"#utility.yul\":16182:16502   */\n    tag_162:\n        /* \"#utility.yul\":16226:16232   */\n      0x00\n        /* \"#utility.yul\":16263:16264   */\n      0x02\n        /* \"#utility.yul\":16257:16261   */\n      dup3\n        /* \"#utility.yul\":16253:16265   */\n      div\n        /* \"#utility.yul\":16243:16265   */\n      swap1\n      pop\n        /* \"#utility.yul\":16310:16311   */\n      0x01\n        /* \"#utility.yul\":16304:16308   */\n      dup3\n        /* \"#utility.yul\":16300:16312   */\n      and\n        /* \"#utility.yul\":16331:16349   */\n      dup1\n        /* \"#utility.yul\":16321:16402   */\n      tag_563\n      jumpi\n        /* \"#utility.yul\":16387:16391   */\n      0x7f\n        /* \"#utility.yul\":16379:16385   */\n      dup3\n        /* \"#utility.yul\":16375:16392   */\n      and\n        /* \"#utility.yul\":16365:16392   */\n      swap2\n      pop\n        /* \"#utility.yul\":16321:16402   */\n    tag_563:\n        /* \"#utility.yul\":16449:16451   */\n      0x20\n        /* \"#utility.yul\":16441:16447   */\n      dup3\n        /* \"#utility.yul\":16438:16452   */\n      lt\n        /* \"#utility.yul\":16418:16436   */\n      dup2\n        /* \"#utility.yul\":16415:16453   */\n      sub\n        /* \"#utility.yul\":16412:16496   */\n      tag_564\n      jumpi\n        /* \"#utility.yul\":16468:16486   */\n      tag_565\n      tag_368\n      jump\t// in\n    tag_565:\n        /* \"#utility.yul\":16412:16496   */\n    tag_564:\n        /* \"#utility.yul\":16233:16502   */\n      pop\n        /* \"#utility.yul\":16182:16502   */\n      swap2\n      swap1\n      pop\n      jump\t// out\n        /* \"#utility.yul\":16508:16655   */\n    tag_369:\n        /* \"#utility.yul\":16609:16620   */\n      0x00\n        /* \"#utility.yul\":16646:16649   */\n      dup2\n        /* \"#utility.yul\":16631:16649   */\n      swap1\n      pop\n        /* \"#utility.yul\":16508:16655   */\n      swap3\n      swap2\n      pop\n      pop\n      jump\t// out\n        /* \"#utility.yul\":16661:16805   */\n    tag_370:\n        /* \"#utility.yul\":16713:16717   */\n      0x00\n        /* \"#utility.yul\":16736:16739   */\n      dup2\n        /* \"#utility.yul\":16728:16739   */\n      swap1\n      pop\n        /* \"#utility.yul\":16759:16762   */\n      dup2\n        /* \"#utility.yul\":16756:16757   */\n      0x00\n        /* \"#utility.yul\":16749:16763   */\n      mstore\n        /* \"#utility.yul\":16793:16797   */\n      0x20\n        /* \"#utility.yul\":16790:16791   */\n      0x00\n        /* \"#utility.yul\":16780:16798   */\n      keccak256\n        /* \"#utility.yul\":16772:16798   */\n      swap1\n      pop\n        /* \"#utility.yul\":16661:16805   */\n      swap2\n      swap1\n      pop\n      jump\t// out\n        /* \"#utility.yul\":16833:17711   */\n    tag_371:\n        /* \"#utility.yul\":16938:16941   */\n      0x00\n        /* \"#utility.yul\":16975:16980   */\n      dup2\n        /* \"#utility.yul\":16969:16981   */\n      sload\n        /* \"#utility.yul\":17004:17040   */\n      tag_569\n        /* \"#utility.yul\":17030:17039   */\n      dup2\n        /* \"#utility.yul\":17004:17040   */\n      tag_162\n      jump\t// in\n    tag_569:\n        /* \"#utility.yul\":17056:17144   */\n      tag_570\n        /* \"#utility.yul\":17137:17143   */\n      dup2\n        /* \"#utility.yul\":17132:17135   */\n      dup7\n        /* \"#utility.yul\":17056:17144   */\n      tag_369\n      jump\t// in\n    tag_570:\n        /* \"#utility.yul\":17049:17144   */\n      swap5\n      pop\n        /* \"#utility.yul\":17175:17176   */\n      0x01\n        /* \"#utility.yul\":17164:17173   */\n      dup3\n        /* \"#utility.yul\":17160:17177   */\n      and\n        /* \"#utility.yul\":17191:17192   */\n      0x00\n        /* \"#utility.yul\":17186:17352   */\n      dup2\n      eq\n      tag_572\n      jumpi\n        /* \"#utility.yul\":17366:17367   */\n      0x01\n        /* \"#utility.yul\":17361:17705   */\n      dup2\n      eq\n      tag_573\n      jumpi\n        /* \"#utility.yul\":17153:17705   */\n      jump(tag_571)\n        /* \"#utility.yul\":17186:17352   */\n    tag_572:\n        /* \"#utility.yul\":17270:17274   */\n      0xff\n        /* \"#utility.yul\":17266:17275   */\n      not\n        /* \"#utility.yul\":17255:17264   */\n      dup4\n        /* \"#utility.yul\":17251:17276   */\n      and\n        /* \"#utility.yul\":17246:17249   */\n      dup7\n        /* \"#utility.yul\":17239:17277   */\n      mstore\n        /* \"#utility.yul\":17332:17338   */\n      dup2\n        /* \"#utility.yul\":17325:17339   */\n      iszero\n        /* \"#utility.yul\":17318:17340   */\n      iszero\n        /* \"#utility.yul\":17310:17316   */\n      dup3\n        /* \"#utility.yul\":17306:17341   */\n      mul\n        /* \"#utility.yul\":17301:17304   */\n      dup7\n        /* \"#utility.yul\":17297:17342   */\n      add\n        /* \"#utility.yul\":17290:17342   */\n      swap4\n      pop\n        /* \"#utility.yul\":17186:17352   */\n      jump(tag_571)\n        /* \"#utility.yul\":17361:17705   */\n    tag_573:\n        /* \"#utility.yul\":17428:17469   */\n      tag_574\n        /* \"#utility.yul\":17463:17468   */\n      dup6\n        /* \"#utility.yul\":17428:17469   */\n      tag_370\n      jump\t// in\n    tag_574:\n        /* \"#utility.yul\":17491:17492   */\n      0x00\n        /* \"#utility.yul\":17505:17659   */\n    tag_575:\n        /* \"#utility.yul\":17519:17525   */\n      dup4\n        /* \"#utility.yul\":17516:17517   */\n      dup2\n        /* \"#utility.yul\":17513:17526   */\n      lt\n        /* \"#utility.yul\":17505:17659   */\n      iszero\n      tag_577\n      jumpi\n        /* \"#utility.yul\":17593:17600   */\n      dup2\n        /* \"#utility.yul\":17587:17601   */\n      sload\n        /* \"#utility.yul\":17583:17584   */\n      dup2\n        /* \"#utility.yul\":17578:17581   */\n      dup10\n        /* \"#utility.yul\":17574:17585   */\n      add\n        /* \"#utility.yul\":17567:17602   */\n      mstore\n        /* \"#utility.yul\":17643:17644   */\n      0x01\n        /* \"#utility.yul\":17634:17641   */\n      dup3\n        /* \"#utility.yul\":17630:17645   */\n      add\n        /* \"#utility.yul\":17619:17645   */\n      swap2\n      pop\n        /* \"#utility.yul\":17541:17545   */\n      0x20\n        /* \"#utility.yul\":17538:17539   */\n      dup2\n        /* \"#utility.yul\":17534:17546   */\n      add\n        /* \"#utility.yul\":17529:17546   */\n      swap1\n      pop\n        /* \"#utility.yul\":17505:17659   */\n      jump(tag_575)\n    tag_577:\n        /* \"#utility.yul\":17688:17694   */\n      dup4\n        /* \"#utility.yul\":17683:17686   */\n      dup9\n        /* \"#utility.yul\":17679:17695   */\n      add\n        /* \"#utility.yul\":17672:17695   */\n      swap6\n      pop\n        /* \"#utility.yul\":17368:17705   */\n      pop\n      pop\n        /* \"#utility.yul\":17153:17705   */\n    tag_571:\n      pop\n        /* \"#utility.yul\":16942:17711   */\n      pop\n      pop\n        /* \"#utility.yul\":16833:17711   */\n      swap3\n      swap2\n      pop\n      pop\n      jump\t// out\n        /* \"#utility.yul\":17717:17990   */\n    tag_133:\n        /* \"#utility.yul\":17848:17851   */\n      0x00\n        /* \"#utility.yul\":17870:17964   */\n      tag_579\n        /* \"#utility.yul\":17960:17963   */\n      dup3\n        /* \"#utility.yul\":17951:17957   */\n      dup5\n        /* \"#utility.yul\":17870:17964   */\n      tag_371\n      jump\t// in\n    tag_579:\n        /* \"#utility.yul\":17863:17964   */\n      swap2\n      pop\n        /* \"#utility.yul\":17981:17984   */\n      dup2\n        /* \"#utility.yul\":17974:17984   */\n      swap1\n      pop\n        /* \"#utility.yul\":17717:17990   */\n      swap3\n      swap2\n      pop\n      pop\n      jump\t// out\n        /* \"#utility.yul\":17996:18164   */\n    tag_372:\n        /* \"#utility.yul\":18136:18156   */\n      0x66726565206e66742063616e2073656c6c2e0000000000000000000000000000\n        /* \"#utility.yul\":18132:18133   */\n      0x00\n        /* \"#utility.yul\":18124:18130   */\n      dup3\n        /* \"#utility.yul\":18120:18134   */\n      add\n        /* \"#utility.yul\":18113:18157   */\n      mstore\n        /* \"#utility.yul\":17996:18164   */\n      pop\n      jump\t// out\n        /* \"#utility.yul\":18170:18536   */\n    tag_373:\n        /* \"#utility.yul\":18312:18315   */\n      0x00\n        /* \"#utility.yul\":18333:18400   */\n      tag_582\n        /* \"#utility.yul\":18397:18399   */\n      0x12\n        /* \"#utility.yul\":18392:18395   */\n      dup4\n        /* \"#utility.yul\":18333:18400   */\n      tag_360\n      jump\t// in\n    tag_582:\n        /* \"#utility.yul\":18326:18400   */\n      swap2\n      pop\n        /* \"#utility.yul\":18409:18502   */\n      tag_583\n        /* \"#utility.yul\":18498:18501   */\n      dup3\n        /* \"#utility.yul\":18409:18502   */\n      tag_372\n      jump\t// in\n    tag_583:\n        /* \"#utility.yul\":18527:18529   */\n      0x20\n        /* \"#utility.yul\":18522:18525   */\n      dup3\n        /* \"#utility.yul\":18518:18530   */\n      add\n        /* \"#utility.yul\":18511:18530   */\n      swap1\n      pop\n        /* \"#utility.yul\":18170:18536   */\n      swap2\n      swap1\n      pop\n      jump\t// out\n        /* \"#utility.yul\":18542:18961   */\n    tag_136:\n        /* \"#utility.yul\":18708:18712   */\n      0x00\n        /* \"#utility.yul\":18746:18748   */\n      0x20\n        /* \"#utility.yul\":18735:18744   */\n      dup3\n        /* \"#utility.yul\":18731:18749   */\n      add\n        /* \"#utility.yul\":18723:18749   */\n      swap1\n      pop\n        /* \"#utility.yul\":18795:18804   */\n      dup2\n        /* \"#utility.yul\":18789:18793   */\n      dup2\n        /* \"#utility.yul\":18785:18805   */\n      sub\n        /* \"#utility.yul\":18781:18782   */\n      0x00\n        /* \"#utility.yul\":18770:18779   */\n      dup4\n        /* \"#utility.yul\":18766:18783   */\n      add\n        /* \"#utility.yul\":18759:18806   */\n      mstore\n        /* \"#utility.yul\":18823:18954   */\n      tag_585\n        /* \"#utility.yul\":18949:18953   */\n      dup2\n        /* \"#utility.yul\":18823:18954   */\n      tag_373\n      jump\t// in\n    tag_585:\n        /* \"#utility.yul\":18815:18954   */\n      swap1\n      pop\n        /* \"#utility.yul\":18542:18961   */\n      swap2\n      swap1\n      pop\n      jump\t// out\n        /* \"#utility.yul\":18967:19134   */\n    tag_374:\n        /* \"#utility.yul\":19107:19126   */\n      0x54686973206e6674206f6e2072656e742e000000000000000000000000000000\n        /* \"#utility.yul\":19103:19104   */\n      0x00\n        /* \"#utility.yul\":19095:19101   */\n      dup3\n        /* \"#utility.yul\":19091:19105   */\n      add\n        /* \"#utility.yul\":19084:19127   */\n      mstore\n        /* \"#utility.yul\":18967:19134   */\n      pop\n      jump\t// out\n        /* \"#utility.yul\":19140:19506   */\n    tag_375:\n        /* \"#utility.yul\":19282:19285   */\n      0x00\n        /* \"#utility.yul\":19303:19370   */\n      tag_588\n        /* \"#utility.yul\":19367:19369   */\n      0x11\n        /* \"#utility.yul\":19362:19365   */\n      dup4\n        /* \"#utility.yul\":19303:19370   */\n      tag_360\n      jump\t// in\n    tag_588:\n        /* \"#utility.yul\":19296:19370   */\n      swap2\n      pop\n        /* \"#utility.yul\":19379:19472   */\n      tag_589\n        /* \"#utility.yul\":19468:19471   */\n      dup3\n        /* \"#utility.yul\":19379:19472   */\n      tag_374\n      jump\t// in\n    tag_589:\n        /* \"#utility.yul\":19497:19499   */\n      0x20\n        /* \"#utility.yul\":19492:19495   */\n      dup3\n        /* \"#utility.yul\":19488:19500   */\n      add\n        /* \"#utility.yul\":19481:19500   */\n      swap1\n      pop\n        /* \"#utility.yul\":19140:19506   */\n      swap2\n      swap1\n      pop\n      jump\t// out\n        /* \"#utility.yul\":19512:19931   */\n    tag_139:\n        /* \"#utility.yul\":19678:19682   */\n      0x00\n        /* \"#utility.yul\":19716:19718   */\n      0x20\n        /* \"#utility.yul\":19705:19714   */\n      dup3\n        /* \"#utility.yul\":19701:19719   */\n      add\n        /* \"#utility.yul\":19693:19719   */\n      swap1\n      pop\n        /* \"#utility.yul\":19765:19774   */\n      dup2\n        /* \"#utility.yul\":19759:19763   */\n      dup2\n        /* \"#utility.yul\":19755:19775   */\n      sub\n        /* \"#utility.yul\":19751:19752   */\n      0x00\n        /* \"#utility.yul\":19740:19749   */\n      dup4\n        /* \"#utility.yul\":19736:19753   */\n      add\n        /* \"#utility.yul\":19729:19776   */\n      mstore\n        /* \"#utility.yul\":19793:19924   */\n      tag_591\n        /* \"#utility.yul\":19919:19923   */\n      dup2\n        /* \"#utility.yul\":19793:19924   */\n      tag_375\n      jump\t// in\n    tag_591:\n        /* \"#utility.yul\":19785:19924   */\n      swap1\n      pop\n        /* \"#utility.yul\":19512:19931   */\n      swap2\n      swap1\n      pop\n      jump\t// out\n        /* \"#utility.yul\":19937:20105   */\n    tag_376:\n        /* \"#utility.yul\":20077:20097   */\n      0x596f7520646f6e742068617665204e66742e0000000000000000000000000000\n        /* \"#utility.yul\":20073:20074   */\n      0x00\n        /* \"#utility.yul\":20065:20071   */\n      dup3\n        /* \"#utility.yul\":20061:20075   */\n      add\n        /* \"#utility.yul\":20054:20098   */\n      mstore\n        /* \"#utility.yul\":19937:20105   */\n      pop\n      jump\t// out\n        /* \"#utility.yul\":20111:20477   */\n    tag_377:\n        /* \"#utility.yul\":20253:20256   */\n      0x00\n        /* \"#utility.yul\":20274:20341   */\n      tag_594\n        /* \"#utility.yul\":20338:20340   */\n      0x12\n        /* \"#utility.yul\":20333:20336   */\n      dup4\n        /* \"#utility.yul\":20274:20341   */\n      tag_360\n      jump\t// in\n    tag_594:\n        /* \"#utility.yul\":20267:20341   */\n      swap2\n      pop\n        /* \"#utility.yul\":20350:20443   */\n      tag_595\n        /* \"#utility.yul\":20439:20442   */\n      dup3\n        /* \"#utility.yul\":20350:20443   */\n      tag_376\n      jump\t// in\n    tag_595:\n        /* \"#utility.yul\":20468:20470   */\n      0x20\n        /* \"#utility.yul\":20463:20466   */\n      dup3\n        /* \"#utility.yul\":20459:20471   */\n      add\n        /* \"#utility.yul\":20452:20471   */\n      swap1\n      pop\n        /* \"#utility.yul\":20111:20477   */\n      swap2\n      swap1\n      pop\n      jump\t// out\n        /* \"#utility.yul\":20483:20902   */\n    tag_143:\n        /* \"#utility.yul\":20649:20653   */\n      0x00\n        /* \"#utility.yul\":20687:20689   */\n      0x20\n        /* \"#utility.yul\":20676:20685   */\n      dup3\n        /* \"#utility.yul\":20672:20690   */\n      add\n        /* \"#utility.yul\":20664:20690   */\n      swap1\n      pop\n        /* \"#utility.yul\":20736:20745   */\n      dup2\n        /* \"#utility.yul\":20730:20734   */\n      dup2\n        /* \"#utility.yul\":20726:20746   */\n      sub\n        /* \"#utility.yul\":20722:20723   */\n      0x00\n        /* \"#utility.yul\":20711:20720   */\n      dup4\n        /* \"#utility.yul\":20707:20724   */\n      add\n        /* \"#utility.yul\":20700:20747   */\n      mstore\n        /* \"#utility.yul\":20764:20895   */\n      tag_597\n        /* \"#utility.yul\":20890:20894   */\n      dup2\n        /* \"#utility.yul\":20764:20895   */\n      tag_377\n      jump\t// in\n    tag_597:\n        /* \"#utility.yul\":20756:20895   */\n      swap1\n      pop\n        /* \"#utility.yul\":20483:20902   */\n      swap2\n      swap1\n      pop\n      jump\t// out\n        /* \"#utility.yul\":20908:21079   */\n    tag_145:\n        /* \"#utility.yul\":20947:20950   */\n      0x00\n        /* \"#utility.yul\":20970:20994   */\n      tag_599\n        /* \"#utility.yul\":20988:20993   */\n      dup3\n        /* \"#utility.yul\":20970:20994   */\n      tag_333\n      jump\t// in\n    tag_599:\n        /* \"#utility.yul\":20961:20994   */\n      swap2\n      pop\n        /* \"#utility.yul\":21016:21020   */\n      0x00\n        /* \"#utility.yul\":21009:21014   */\n      dup3\n        /* \"#utility.yul\":21006:21021   */\n      sub\n        /* \"#utility.yul\":21003:21044   */\n      tag_600\n      jumpi\n        /* \"#utility.yul\":21024:21042   */\n      tag_601\n      tag_363\n      jump\t// in\n    tag_601:\n        /* \"#utility.yul\":21003:21044   */\n    tag_600:\n        /* \"#utility.yul\":21071:21072   */\n      0x01\n        /* \"#utility.yul\":21064:21069   */\n      dup3\n        /* \"#utility.yul\":21060:21073   */\n      sub\n        /* \"#utility.yul\":21053:21073   */\n      swap1\n      pop\n        /* \"#utility.yul\":20908:21079   */\n      swap2\n      swap1\n      pop\n      jump\t// out\n        /* \"#utility.yul\":21085:21254   */\n    tag_378:\n        /* \"#utility.yul\":21225:21246   */\n      0x416c726561647920686176652031206e66742e00000000000000000000000000\n        /* \"#utility.yul\":21221:21222   */\n      0x00\n        /* \"#utility.yul\":21213:21219   */\n      dup3\n        /* \"#utility.yul\":21209:21223   */\n      add\n        /* \"#utility.yul\":21202:21247   */\n      mstore\n        /* \"#utility.yul\":21085:21254   */\n      pop\n      jump\t// out\n        /* \"#utility.yul\":21260:21626   */\n    tag_379:\n        /* \"#utility.yul\":21402:21405   */\n      0x00\n        /* \"#utility.yul\":21423:21490   */\n      tag_604\n        /* \"#utility.yul\":21487:21489   */\n      0x13\n        /* \"#utility.yul\":21482:21485   */\n      dup4\n        /* \"#utility.yul\":21423:21490   */\n      tag_360\n      jump\t// in\n    tag_604:\n        /* \"#utility.yul\":21416:21490   */\n      swap2\n      pop\n        /* \"#utility.yul\":21499:21592   */\n      tag_605\n        /* \"#utility.yul\":21588:21591   */\n      dup3\n        /* \"#utility.yul\":21499:21592   */\n      tag_378\n      jump\t// in\n    tag_605:\n        /* \"#utility.yul\":21617:21619   */\n      0x20\n        /* \"#utility.yul\":21612:21615   */\n      dup3\n        /* \"#utility.yul\":21608:21620   */\n      add\n        /* \"#utility.yul\":21601:21620   */\n      swap1\n      pop\n        /* \"#utility.yul\":21260:21626   */\n      swap2\n      swap1\n      pop\n      jump\t// out\n        /* \"#utility.yul\":21632:22051   */\n    tag_150:\n        /* \"#utility.yul\":21798:21802   */\n      0x00\n        /* \"#utility.yul\":21836:21838   */\n      0x20\n        /* \"#utility.yul\":21825:21834   */\n      dup3\n        /* \"#utility.yul\":21821:21839   */\n      add\n        /* \"#utility.yul\":21813:21839   */\n      swap1\n      pop\n        /* \"#utility.yul\":21885:21894   */\n      dup2\n        /* \"#utility.yul\":21879:21883   */\n      dup2\n        /* \"#utility.yul\":21875:21895   */\n      sub\n        /* \"#utility.yul\":21871:21872   */\n      0x00\n        /* \"#utility.yul\":21860:21869   */\n      dup4\n        /* \"#utility.yul\":21856:21873   */\n      add\n        /* \"#utility.yul\":21849:21896   */\n      mstore\n        /* \"#utility.yul\":21913:22044   */\n      tag_607\n        /* \"#utility.yul\":22039:22043   */\n      dup2\n        /* \"#utility.yul\":21913:22044   */\n      tag_379\n      jump\t// in\n    tag_607:\n        /* \"#utility.yul\":21905:22044   */\n      swap1\n      pop\n        /* \"#utility.yul\":21632:22051   */\n      swap2\n      swap1\n      pop\n      jump\t// out\n        /* \"#utility.yul\":22057:22223   */\n    tag_380:\n        /* \"#utility.yul\":22197:22215   */\n      0x436f7272656374205370656c6c696e6700000000000000000000000000000000\n        /* \"#utility.yul\":22193:22194   */\n      0x00\n        /* \"#utility.yul\":22185:22191   */\n      dup3\n        /* \"#utility.yul\":22181:22195   */\n      add\n        /* \"#utility.yul\":22174:22216   */\n      mstore\n        /* \"#utility.yul\":22057:22223   */\n      pop\n      jump\t// out\n        /* \"#utility.yul\":22229:22595   */\n    tag_381:\n        /* \"#utility.yul\":22371:22374   */\n      0x00\n        /* \"#utility.yul\":22392:22459   */\n      tag_610\n        /* \"#utility.yul\":22456:22458   */\n      0x10\n        /* \"#utility.yul\":22451:22454   */\n      dup4\n        /* \"#utility.yul\":22392:22459   */\n      tag_360\n      jump\t// in\n    tag_610:\n        /* \"#utility.yul\":22385:22459   */\n      swap2\n      pop\n        /* \"#utility.yul\":22468:22561   */\n      tag_611\n        /* \"#utility.yul\":22557:22560   */\n      dup3\n        /* \"#utility.yul\":22468:22561   */\n      tag_380\n      jump\t// in\n    tag_611:\n        /* \"#utility.yul\":22586:22588   */\n      0x20\n        /* \"#utility.yul\":22581:22584   */\n      dup3\n        /* \"#utility.yul\":22577:22589   */\n      add\n        /* \"#utility.yul\":22570:22589   */\n      swap1\n      pop\n        /* \"#utility.yul\":22229:22595   */\n      swap2\n      swap1\n      pop\n      jump\t// out\n        /* \"#utility.yul\":22601:23020   */\n    tag_176:\n        /* \"#utility.yul\":22767:22771   */\n      0x00\n        /* \"#utility.yul\":22805:22807   */\n      0x20\n        /* \"#utility.yul\":22794:22803   */\n      dup3\n        /* \"#utility.yul\":22790:22808   */\n      add\n        /* \"#utility.yul\":22782:22808   */\n      swap1\n      pop\n        /* \"#utility.yul\":22854:22863   */\n      dup2\n        /* \"#utility.yul\":22848:22852   */\n      dup2\n        /* \"#utility.yul\":22844:22864   */\n      sub\n        /* \"#utility.yul\":22840:22841   */\n      0x00\n        /* \"#utility.yul\":22829:22838   */\n      dup4\n        /* \"#utility.yul\":22825:22842   */\n      add\n        /* \"#utility.yul\":22818:22865   */\n      mstore\n        /* \"#utility.yul\":22882:23013   */\n      tag_613\n        /* \"#utility.yul\":23008:23012   */\n      dup2\n        /* \"#utility.yul\":22882:23013   */\n      tag_381\n      jump\t// in\n    tag_613:\n        /* \"#utility.yul\":22874:23013   */\n      swap1\n      pop\n        /* \"#utility.yul\":22601:23020   */\n      swap2\n      swap1\n      pop\n      jump\t// out\n        /* \"#utility.yul\":23026:23194   */\n    tag_382:\n        /* \"#utility.yul\":23166:23186   */\n      0x616c72656164792074616b656e204e66742e0000000000000000000000000000\n        /* \"#utility.yul\":23162:23163   */\n      0x00\n        /* \"#utility.yul\":23154:23160   */\n      dup3\n        /* \"#utility.yul\":23150:23164   */\n      add\n        /* \"#utility.yul\":23143:23187   */\n      mstore\n        /* \"#utility.yul\":23026:23194   */\n      pop\n      jump\t// out\n        /* \"#utility.yul\":23200:23566   */\n    tag_383:\n        /* \"#utility.yul\":23342:23345   */\n      0x00\n        /* \"#utility.yul\":23363:23430   */\n      tag_616\n        /* \"#utility.yul\":23427:23429   */\n      0x12\n        /* \"#utility.yul\":23422:23425   */\n      dup4\n        /* \"#utility.yul\":23363:23430   */\n      tag_360\n      jump\t// in\n    tag_616:\n        /* \"#utility.yul\":23356:23430   */\n      swap2\n      pop\n        /* \"#utility.yul\":23439:23532   */\n      tag_617\n        /* \"#utility.yul\":23528:23531   */\n      dup3\n        /* \"#utility.yul\":23439:23532   */\n      tag_382\n      jump\t// in\n    tag_617:\n        /* \"#utility.yul\":23557:23559   */\n      0x20\n        /* \"#utility.yul\":23552:23555   */\n      dup3\n        /* \"#utility.yul\":23548:23560   */\n      add\n        /* \"#utility.yul\":23541:23560   */\n      swap1\n      pop\n        /* \"#utility.yul\":23200:23566   */\n      swap2\n      swap1\n      pop\n      jump\t// out\n        /* \"#utility.yul\":23572:23991   */\n    tag_189:\n        /* \"#utility.yul\":23738:23742   */\n      0x00\n        /* \"#utility.yul\":23776:23778   */\n      0x20\n        /* \"#utility.yul\":23765:23774   */\n      dup3\n        /* \"#utility.yul\":23761:23779   */\n      add\n        /* \"#utility.yul\":23753:23779   */\n      swap1\n      pop\n        /* \"#utility.yul\":23825:23834   */\n      dup2\n        /* \"#utility.yul\":23819:23823   */\n      dup2\n        /* \"#utility.yul\":23815:23835   */\n      sub\n        /* \"#utility.yul\":23811:23812   */\n      0x00\n        /* \"#utility.yul\":23800:23809   */\n      dup4\n        /* \"#utility.yul\":23796:23813   */\n      add\n        /* \"#utility.yul\":23789:23836   */\n      mstore\n        /* \"#utility.yul\":23853:23984   */\n      tag_619\n        /* \"#utility.yul\":23979:23983   */\n      dup2\n        /* \"#utility.yul\":23853:23984   */\n      tag_383\n      jump\t// in\n    tag_619:\n        /* \"#utility.yul\":23845:23984   */\n      swap1\n      pop\n        /* \"#utility.yul\":23572:23991   */\n      swap2\n      swap1\n      pop\n      jump\t// out\n        /* \"#utility.yul\":23997:24174   */\n    tag_384:\n        /* \"#utility.yul\":24137:24166   */\n      0x6f776e65722063616e742074616b6520686973206f776e2069642e0000000000\n        /* \"#utility.yul\":24133:24134   */\n      0x00\n        /* \"#utility.yul\":24125:24131   */\n      dup3\n        /* \"#utility.yul\":24121:24135   */\n      add\n        /* \"#utility.yul\":24114:24167   */\n      mstore\n        /* \"#utility.yul\":23997:24174   */\n      pop\n      jump\t// out\n        /* \"#utility.yul\":24180:24546   */\n    tag_385:\n        /* \"#utility.yul\":24322:24325   */\n      0x00\n        /* \"#utility.yul\":24343:24410   */\n      tag_622\n        /* \"#utility.yul\":24407:24409   */\n      0x1b\n        /* \"#utility.yul\":24402:24405   */\n      dup4\n        /* \"#utility.yul\":24343:24410   */\n      tag_360\n      jump\t// in\n    tag_622:\n        /* \"#utility.yul\":24336:24410   */\n      swap2\n      pop\n        /* \"#utility.yul\":24419:24512   */\n      tag_623\n        /* \"#utility.yul\":24508:24511   */\n      dup3\n        /* \"#utility.yul\":24419:24512   */\n      tag_384\n      jump\t// in\n    tag_623:\n        /* \"#utility.yul\":24537:24539   */\n      0x20\n        /* \"#utility.yul\":24532:24535   */\n      dup3\n        /* \"#utility.yul\":24528:24540   */\n      add\n        /* \"#utility.yul\":24521:24540   */\n      swap1\n      pop\n        /* \"#utility.yul\":24180:24546   */\n      swap2\n      swap1\n      pop\n      jump\t// out\n        /* \"#utility.yul\":24552:24971   */\n    tag_192:\n        /* \"#utility.yul\":24718:24722   */\n      0x00\n        /* \"#utility.yul\":24756:24758   */\n      0x20\n        /* \"#utility.yul\":24745:24754   */\n      dup3\n        /* \"#utility.yul\":24741:24759   */\n      add\n        /* \"#utility.yul\":24733:24759   */\n      swap1\n      pop\n        /* \"#utility.yul\":24805:24814   */\n      dup2\n        /* \"#utility.yul\":24799:24803   */\n      dup2\n        /* \"#utility.yul\":24795:24815   */\n      sub\n        /* \"#utility.yul\":24791:24792   */\n      0x00\n        /* \"#utility.yul\":24780:24789   */\n      dup4\n        /* \"#utility.yul\":24776:24793   */\n      add\n        /* \"#utility.yul\":24769:24816   */\n      mstore\n        /* \"#utility.yul\":24833:24964   */\n      tag_625\n        /* \"#utility.yul\":24959:24963   */\n      dup2\n        /* \"#utility.yul\":24833:24964   */\n      tag_385\n      jump\t// in\n    tag_625:\n        /* \"#utility.yul\":24825:24964   */\n      swap1\n      pop\n        /* \"#utility.yul\":24552:24971   */\n      swap2\n      swap1\n      pop\n      jump\t// out\n        /* \"#utility.yul\":24977:25142   */\n    tag_386:\n        /* \"#utility.yul\":25117:25134   */\n      0x6e6674206e6f74206c69737465642e0000000000000000000000000000000000\n        /* \"#utility.yul\":25113:25114   */\n      0x00\n        /* \"#utility.yul\":25105:25111   */\n      dup3\n        /* \"#utility.yul\":25101:25115   */\n      add\n        /* \"#utility.yul\":25094:25135   */\n      mstore\n        /* \"#utility.yul\":24977:25142   */\n      pop\n      jump\t// out\n        /* \"#utility.yul\":25148:25514   */\n    tag_387:\n        /* \"#utility.yul\":25290:25293   */\n      0x00\n        /* \"#utility.yul\":25311:25378   */\n      tag_628\n        /* \"#utility.yul\":25375:25377   */\n      0x0f\n        /* \"#utility.yul\":25370:25373   */\n      dup4\n        /* \"#utility.yul\":25311:25378   */\n      tag_360\n      jump\t// in\n    tag_628:\n        /* \"#utility.yul\":25304:25378   */\n      swap2\n      pop\n        /* \"#utility.yul\":25387:25480   */\n      tag_629\n        /* \"#utility.yul\":25476:25479   */\n      dup3\n        /* \"#utility.yul\":25387:25480   */\n      tag_386\n      jump\t// in\n    tag_629:\n        /* \"#utility.yul\":25505:25507   */\n      0x20\n        /* \"#utility.yul\":25500:25503   */\n      dup3\n        /* \"#utility.yul\":25496:25508   */\n      add\n        /* \"#utility.yul\":25489:25508   */\n      swap1\n      pop\n        /* \"#utility.yul\":25148:25514   */\n      swap2\n      swap1\n      pop\n      jump\t// out\n        /* \"#utility.yul\":25520:25939   */\n    tag_195:\n        /* \"#utility.yul\":25686:25690   */\n      0x00\n        /* \"#utility.yul\":25724:25726   */\n      0x20\n        /* \"#utility.yul\":25713:25722   */\n      dup3\n        /* \"#utility.yul\":25709:25727   */\n      add\n        /* \"#utility.yul\":25701:25727   */\n      swap1\n      pop\n        /* \"#utility.yul\":25773:25782   */\n      dup2\n        /* \"#utility.yul\":25767:25771   */\n      dup2\n        /* \"#utility.yul\":25763:25783   */\n      sub\n        /* \"#utility.yul\":25759:25760   */\n      0x00\n        /* \"#utility.yul\":25748:25757   */\n      dup4\n        /* \"#utility.yul\":25744:25761   */\n      add\n        /* \"#utility.yul\":25737:25784   */\n      mstore\n        /* \"#utility.yul\":25801:25932   */\n      tag_631\n        /* \"#utility.yul\":25927:25931   */\n      dup2\n        /* \"#utility.yul\":25801:25932   */\n      tag_387\n      jump\t// in\n    tag_631:\n        /* \"#utility.yul\":25793:25932   */\n      swap1\n      pop\n        /* \"#utility.yul\":25520:25939   */\n      swap2\n      swap1\n      pop\n      jump\t// out\n        /* \"#utility.yul\":25945:26093   */\n    tag_388:\n        /* \"#utility.yul\":26047:26058   */\n      0x00\n        /* \"#utility.yul\":26084:26087   */\n      dup2\n        /* \"#utility.yul\":26069:26087   */\n      swap1\n      pop\n        /* \"#utility.yul\":25945:26093   */\n      swap3\n      swap2\n      pop\n      pop\n      jump\t// out\n        /* \"#utility.yul\":26099:26489   */\n    tag_389:\n        /* \"#utility.yul\":26205:26208   */\n      0x00\n        /* \"#utility.yul\":26233:26272   */\n      tag_634\n        /* \"#utility.yul\":26266:26271   */\n      dup3\n        /* \"#utility.yul\":26233:26272   */\n      tag_345\n      jump\t// in\n    tag_634:\n        /* \"#utility.yul\":26288:26377   */\n      tag_635\n        /* \"#utility.yul\":26370:26376   */\n      dup2\n        /* \"#utility.yul\":26365:26368   */\n      dup6\n        /* \"#utility.yul\":26288:26377   */\n      tag_388\n      jump\t// in\n    tag_635:\n        /* \"#utility.yul\":26281:26377   */\n      swap4\n      pop\n        /* \"#utility.yul\":26386:26451   */\n      tag_636\n        /* \"#utility.yul\":26444:26450   */\n      dup2\n        /* \"#utility.yul\":26439:26442   */\n      dup6\n        /* \"#utility.yul\":26432:26436   */\n      0x20\n        /* \"#utility.yul\":26425:26430   */\n      dup7\n        /* \"#utility.yul\":26421:26437   */\n      add\n        /* \"#utility.yul\":26386:26451   */\n      tag_347\n      jump\t// in\n    tag_636:\n        /* \"#utility.yul\":26476:26482   */\n      dup1\n        /* \"#utility.yul\":26471:26474   */\n      dup5\n        /* \"#utility.yul\":26467:26483   */\n      add\n        /* \"#utility.yul\":26460:26483   */\n      swap2\n      pop\n        /* \"#utility.yul\":26209:26489   */\n      pop\n        /* \"#utility.yul\":26099:26489   */\n      swap3\n      swap2\n      pop\n      pop\n      jump\t// out\n        /* \"#utility.yul\":26495:26770   */\n    tag_311:\n        /* \"#utility.yul\":26627:26630   */\n      0x00\n        /* \"#utility.yul\":26649:26744   */\n      tag_638\n        /* \"#utility.yul\":26740:26743   */\n      dup3\n        /* \"#utility.yul\":26731:26737   */\n      dup5\n        /* \"#utility.yul\":26649:26744   */\n      tag_389\n      jump\t// in\n    tag_638:\n        /* \"#utility.yul\":26642:26744   */\n      swap2\n      pop\n        /* \"#utility.yul\":26761:26764   */\n      dup2\n        /* \"#utility.yul\":26754:26764   */\n      swap1\n      pop\n        /* \"#utility.yul\":26495:26770   */\n      swap3\n      swap2\n      pop\n      pop\n      jump\t// out\n        /* \"#utility.yul\":26776:26956   */\n    tag_390:\n        /* \"#utility.yul\":26824:26901   */\n      0x4e487b7100000000000000000000000000000000000000000000000000000000\n        /* \"#utility.yul\":26821:26822   */\n      0x00\n        /* \"#utility.yul\":26814:26902   */\n      mstore\n        /* \"#utility.yul\":26921:26925   */\n      0x12\n        /* \"#utility.yul\":26918:26919   */\n      0x04\n        /* \"#utility.yul\":26911:26926   */\n      mstore\n        /* \"#utility.yul\":26945:26949   */\n      0x24\n        /* \"#utility.yul\":26942:26943   */\n      0x00\n        /* \"#utility.yul\":26935:26950   */\n      revert\n        /* \"#utility.yul\":26962:27138   */\n    tag_313:\n        /* \"#utility.yul\":26994:26995   */\n      0x00\n        /* \"#utility.yul\":27011:27031   */\n      tag_641\n        /* \"#utility.yul\":27029:27030   */\n      dup3\n        /* \"#utility.yul\":27011:27031   */\n      tag_333\n      jump\t// in\n    tag_641:\n        /* \"#utility.yul\":27006:27031   */\n      swap2\n      pop\n        /* \"#utility.yul\":27045:27065   */\n      tag_642\n        /* \"#utility.yul\":27063:27064   */\n      dup4\n        /* \"#utility.yul\":27045:27065   */\n      tag_333\n      jump\t// in\n    tag_642:\n        /* \"#utility.yul\":27040:27065   */\n      swap3\n      pop\n        /* \"#utility.yul\":27084:27085   */\n      dup3\n        /* \"#utility.yul\":27074:27109   */\n      tag_643\n      jumpi\n        /* \"#utility.yul\":27089:27107   */\n      tag_644\n      tag_390\n      jump\t// in\n    tag_644:\n        /* \"#utility.yul\":27074:27109   */\n    tag_643:\n        /* \"#utility.yul\":27130:27131   */\n      dup3\n        /* \"#utility.yul\":27127:27128   */\n      dup3\n        /* \"#utility.yul\":27123:27132   */\n      mod\n        /* \"#utility.yul\":27118:27132   */\n      swap1\n      pop\n        /* \"#utility.yul\":26962:27138   */\n      swap3\n      swap2\n      pop\n      pop\n      jump\t// out\n        /* \"#utility.yul\":27144:27285   */\n    tag_391:\n        /* \"#utility.yul\":27193:27197   */\n      0x00\n        /* \"#utility.yul\":27216:27219   */\n      dup2\n        /* \"#utility.yul\":27208:27219   */\n      swap1\n      pop\n        /* \"#utility.yul\":27239:27242   */\n      dup2\n        /* \"#utility.yul\":27236:27237   */\n      0x00\n        /* \"#utility.yul\":27229:27243   */\n      mstore\n        /* \"#utility.yul\":27273:27277   */\n      0x20\n        /* \"#utility.yul\":27270:27271   */\n      0x00\n        /* \"#utility.yul\":27260:27278   */\n      keccak256\n        /* \"#utility.yul\":27252:27278   */\n      swap1\n      pop\n        /* \"#utility.yul\":27144:27285   */\n      swap2\n      swap1\n      pop\n      jump\t// out\n        /* \"#utility.yul\":27291:27384   */\n    tag_392:\n        /* \"#utility.yul\":27328:27334   */\n      0x00\n        /* \"#utility.yul\":27375:27377   */\n      0x20\n        /* \"#utility.yul\":27370:27372   */\n      0x1f\n        /* \"#utility.yul\":27363:27368   */\n      dup4\n        /* \"#utility.yul\":27359:27373   */\n      add\n        /* \"#utility.yul\":27355:27378   */\n      div\n        /* \"#utility.yul\":27345:27378   */\n      swap1\n      pop\n        /* \"#utility.yul\":27291:27384   */\n      swap2\n      swap1\n      pop\n      jump\t// out\n        /* \"#utility.yul\":27390:27497   */\n    tag_393:\n        /* \"#utility.yul\":27434:27442   */\n      0x00\n        /* \"#utility.yul\":27484:27489   */\n      dup3\n        /* \"#utility.yul\":27478:27482   */\n      dup3\n        /* \"#utility.yul\":27474:27490   */\n      shl\n        /* \"#utility.yul\":27453:27490   */\n      swap1\n      pop\n        /* \"#utility.yul\":27390:27497   */\n      swap3\n      swap2\n      pop\n      pop\n      jump\t// out\n        /* \"#utility.yul\":27503:27896   */\n    tag_394:\n        /* \"#utility.yul\":27572:27578   */\n      0x00\n        /* \"#utility.yul\":27622:27623   */\n      0x08\n        /* \"#utility.yul\":27610:27620   */\n      dup4\n        /* \"#utility.yul\":27606:27624   */\n      mul\n        /* \"#utility.yul\":27645:27742   */\n      tag_649\n        /* \"#utility.yul\":27675:27741   */\n      0xffffffffffffffffffffffffffffffffffffffffffffffffffffffffffffffff\n        /* \"#utility.yul\":27664:27673   */\n      dup3\n        /* \"#utility.yul\":27645:27742   */\n      tag_393\n      jump\t// in\n    tag_649:\n        /* \"#utility.yul\":27763:27802   */\n      tag_650\n        /* \"#utility.yul\":27793:27801   */\n      dup7\n        /* \"#utility.yul\":27782:27791   */\n      dup4\n        /* \"#utility.yul\":27763:27802   */\n      tag_393\n      jump\t// in\n    tag_650:\n        /* \"#utility.yul\":27751:27802   */\n      swap6\n      pop\n        /* \"#utility.yul\":27835:27839   */\n      dup1\n        /* \"#utility.yul\":27831:27840   */\n      not\n        /* \"#utility.yul\":27824:27829   */\n      dup5\n        /* \"#utility.yul\":27820:27841   */\n      and\n        /* \"#utility.yul\":27811:27841   */\n      swap4\n      pop\n        /* \"#utility.yul\":27884:27888   */\n      dup1\n        /* \"#utility.yul\":27874:27882   */\n      dup7\n        /* \"#utility.yul\":27870:27889   */\n      and\n        /* \"#utility.yul\":27863:27868   */\n      dup5\n        /* \"#utility.yul\":27860:27890   */\n      or\n        /* \"#utility.yul\":27850:27890   */\n      swap3\n      pop\n        /* \"#utility.yul\":27579:27896   */\n      pop\n      pop\n        /* \"#utility.yul\":27503:27896   */\n      swap4\n      swap3\n      pop\n      pop\n      pop\n      jump\t// out\n        /* \"#utility.yul\":27902:27962   */\n    tag_395:\n        /* \"#utility.yul\":27930:27933   */\n      0x00\n        /* \"#utility.yul\":27951:27956   */\n      dup2\n        /* \"#utility.yul\":27944:27956   */\n      swap1\n      pop\n        /* \"#utility.yul\":27902:27962   */\n      swap2\n      swap1\n      pop\n      jump\t// out\n        /* \"#utility.yul\":27968:28110   */\n    tag_396:\n        /* \"#utility.yul\":28018:28027   */\n      0x00\n        /* \"#utility.yul\":28051:28104   */\n      tag_653\n        /* \"#utility.yul\":28069:28103   */\n      tag_654\n        /* \"#utility.yul\":28078:28102   */\n      tag_655\n        /* \"#utility.yul\":28096:28101   */\n      dup5\n        /* \"#utility.yul\":28078:28102   */\n      tag_333\n      jump\t// in\n    tag_655:\n        /* \"#utility.yul\":28069:28103   */\n      tag_395\n      jump\t// in\n    tag_654:\n        /* \"#utility.yul\":28051:28104   */\n      tag_333\n      jump\t// in\n    tag_653:\n        /* \"#utility.yul\":28038:28104   */\n      swap1\n      pop\n        /* \"#utility.yul\":27968:28110   */\n      swap2\n      swap1\n      pop\n      jump\t// out\n        /* \"#utility.yul\":28116:28191   */\n    tag_397:\n        /* \"#utility.yul\":28159:28162   */\n      0x00\n        /* \"#utility.yul\":28180:28185   */\n      dup2\n        /* \"#utility.yul\":28173:28185   */\n      swap1\n      pop\n        /* \"#utility.yul\":28116:28191   */\n      swap2\n      swap1\n      pop\n      jump\t// out\n        /* \"#utility.yul\":28197:28466   */\n    tag_398:\n        /* \"#utility.yul\":28307:28346   */\n      tag_658\n        /* \"#utility.yul\":28338:28345   */\n      dup4\n        /* \"#utility.yul\":28307:28346   */\n      tag_396\n      jump\t// in\n    tag_658:\n        /* \"#utility.yul\":28368:28459   */\n      tag_659\n        /* \"#utility.yul\":28417:28458   */\n      tag_660\n        /* \"#utility.yul\":28441:28457   */\n      dup3\n        /* \"#utility.yul\":28417:28458   */\n      tag_397\n      jump\t// in\n    tag_660:\n        /* \"#utility.yul\":28409:28415   */\n      dup5\n        /* \"#utility.yul\":28402:28406   */\n      dup5\n        /* \"#utility.yul\":28396:28407   */\n      sload\n        /* \"#utility.yul\":28368:28459   */\n      tag_394\n      jump\t// in\n    tag_659:\n        /* \"#utility.yul\":28362:28366   */\n      dup3\n        /* \"#utility.yul\":28355:28460   */\n      sstore\n        /* \"#utility.yul\":28273:28466   */\n      pop\n        /* \"#utility.yul\":28197:28466   */\n      pop\n      pop\n      pop\n      jump\t// out\n        /* \"#utility.yul\":28472:28545   */\n    tag_399:\n        /* \"#utility.yul\":28517:28520   */\n      0x00\n        /* \"#utility.yul\":28472:28545   */\n      swap1\n      jump\t// out\n        /* \"#utility.yul\":28551:28740   */\n    tag_400:\n        /* \"#utility.yul\":28628:28660   */\n      tag_663\n      tag_399\n      jump\t// in\n    tag_663:\n        /* \"#utility.yul\":28669:28734   */\n      tag_664\n        /* \"#utility.yul\":28727:28733   */\n      dup2\n        /* \"#utility.yul\":28719:28725   */\n      dup5\n        /* \"#utility.yul\":28713:28717   */\n      dup5\n        /* \"#utility.yul\":28669:28734   */\n      tag_398\n      jump\t// in\n    tag_664:\n        /* \"#utility.yul\":28604:28740   */\n      pop\n        /* \"#utility.yul\":28551:28740   */\n      pop\n      pop\n      jump\t// out\n        /* \"#utility.yul\":28746:28932   */\n    tag_401:\n        /* \"#utility.yul\":28806:28926   */\n    tag_666:\n        /* \"#utility.yul\":28823:28826   */\n      dup2\n        /* \"#utility.yul\":28816:28821   */\n      dup2\n        /* \"#utility.yul\":28813:28827   */\n      lt\n        /* \"#utility.yul\":28806:28926   */\n      iszero\n      tag_668\n      jumpi\n        /* \"#utility.yul\":28877:28916   */\n      tag_669\n        /* \"#utility.yul\":28914:28915   */\n      0x00\n        /* \"#utility.yul\":28907:28912   */\n      dup3\n        /* \"#utility.yul\":28877:28916   */\n      tag_400\n      jump\t// in\n    tag_669:\n        /* \"#utility.yul\":28850:28851   */\n      0x01\n        /* \"#utility.yul\":28843:28848   */\n      dup2\n        /* \"#utility.yul\":28839:28852   */\n      add\n        /* \"#utility.yul\":28830:28852   */\n      swap1\n      pop\n        /* \"#utility.yul\":28806:28926   */\n      jump(tag_666)\n    tag_668:\n        /* \"#utility.yul\":28746:28932   */\n      pop\n      pop\n      jump\t// out\n        /* \"#utility.yul\":28938:29481   */\n    tag_402:\n        /* \"#utility.yul\":29039:29041   */\n      0x1f\n        /* \"#utility.yul\":29034:29037   */\n      dup3\n        /* \"#utility.yul\":29031:29042   */\n      gt\n        /* \"#utility.yul\":29028:29474   */\n      iszero\n      tag_671\n      jumpi\n        /* \"#utility.yul\":29073:29111   */\n      tag_672\n        /* \"#utility.yul\":29105:29110   */\n      dup2\n        /* \"#utility.yul\":29073:29111   */\n      tag_391\n      jump\t// in\n    tag_672:\n        /* \"#utility.yul\":29157:29186   */\n      tag_673\n        /* \"#utility.yul\":29175:29185   */\n      dup5\n        /* \"#utility.yul\":29157:29186   */\n      tag_392\n      jump\t// in\n    tag_673:\n        /* \"#utility.yul\":29147:29155   */\n      dup2\n        /* \"#utility.yul\":29143:29187   */\n      add\n        /* \"#utility.yul\":29340:29342   */\n      0x20\n        /* \"#utility.yul\":29328:29338   */\n      dup6\n        /* \"#utility.yul\":29325:29343   */\n      lt\n        /* \"#utility.yul\":29322:29371   */\n      iszero\n      tag_674\n      jumpi\n        /* \"#utility.yul\":29361:29369   */\n      dup2\n        /* \"#utility.yul\":29346:29369   */\n      swap1\n      pop\n        /* \"#utility.yul\":29322:29371   */\n    tag_674:\n        /* \"#utility.yul\":29384:29464   */\n      tag_675\n        /* \"#utility.yul\":29440:29462   */\n      tag_676\n        /* \"#utility.yul\":29458:29461   */\n      dup6\n        /* \"#utility.yul\":29440:29462   */\n      tag_392\n      jump\t// in\n    tag_676:\n        /* \"#utility.yul\":29430:29438   */\n      dup4\n        /* \"#utility.yul\":29426:29463   */\n      add\n        /* \"#utility.yul\":29413:29424   */\n      dup3\n        /* \"#utility.yul\":29384:29464   */\n      tag_401\n      jump\t// in\n    tag_675:\n        /* \"#utility.yul\":29043:29474   */\n      pop\n      pop\n        /* \"#utility.yul\":29028:29474   */\n    tag_671:\n        /* \"#utility.yul\":28938:29481   */\n      pop\n      pop\n      pop\n      jump\t// out\n        /* \"#utility.yul\":29487:29604   */\n    tag_403:\n        /* \"#utility.yul\":29541:29549   */\n      0x00\n        /* \"#utility.yul\":29591:29596   */\n      dup3\n        /* \"#utility.yul\":29585:29589   */\n      dup3\n        /* \"#utility.yul\":29581:29597   */\n      shr\n        /* \"#utility.yul\":29560:29597   */\n      swap1\n      pop\n        /* \"#utility.yul\":29487:29604   */\n      swap3\n      swap2\n      pop\n      pop\n      jump\t// out\n        /* \"#utility.yul\":29610:29779   */\n    tag_404:\n        /* \"#utility.yul\":29654:29660   */\n      0x00\n        /* \"#utility.yul\":29687:29738   */\n      tag_679\n        /* \"#utility.yul\":29735:29736   */\n      0x00\n        /* \"#utility.yul\":29731:29737   */\n      not\n        /* \"#utility.yul\":29723:29728   */\n      dup5\n        /* \"#utility.yul\":29720:29721   */\n      0x08\n        /* \"#utility.yul\":29716:29729   */\n      mul\n        /* \"#utility.yul\":29687:29738   */\n      tag_403\n      jump\t// in\n    tag_679:\n        /* \"#utility.yul\":29683:29739   */\n      not\n        /* \"#utility.yul\":29768:29772   */\n      dup1\n        /* \"#utility.yul\":29762:29766   */\n      dup4\n        /* \"#utility.yul\":29758:29773   */\n      and\n        /* \"#utility.yul\":29748:29773   */\n      swap2\n      pop\n        /* \"#utility.yul\":29661:29779   */\n      pop\n        /* \"#utility.yul\":29610:29779   */\n      swap3\n      swap2\n      pop\n      pop\n      jump\t// out\n        /* \"#utility.yul\":29784:30079   */\n    tag_405:\n        /* \"#utility.yul\":29860:29864   */\n      0x00\n        /* \"#utility.yul\":30006:30035   */\n      tag_681\n        /* \"#utility.yul\":30031:30034   */\n      dup4\n        /* \"#utility.yul\":30025:30029   */\n      dup4\n        /* \"#utility.yul\":30006:30035   */\n      tag_404\n      jump\t// in\n    tag_681:\n        /* \"#utility.yul\":29998:30035   */\n      swap2\n      pop\n        /* \"#utility.yul\":30068:30071   */\n      dup3\n        /* \"#utility.yul\":30065:30066   */\n      0x02\n        /* \"#utility.yul\":30061:30072   */\n      mul\n        /* \"#utility.yul\":30055:30059   */\n      dup3\n        /* \"#utility.yul\":30052:30073   */\n      or\n        /* \"#utility.yul\":30044:30073   */\n      swap1\n      pop\n        /* \"#utility.yul\":29784:30079   */\n      swap3\n      swap2\n      pop\n      pop\n      jump\t// out\n        /* \"#utility.yul\":30084:31479   */\n    tag_317:\n        /* \"#utility.yul\":30201:30238   */\n      tag_683\n        /* \"#utility.yul\":30234:30237   */\n      dup3\n        /* \"#utility.yul\":30201:30238   */\n      tag_345\n      jump\t// in\n    tag_683:\n        /* \"#utility.yul\":30303:30321   */\n      0xffffffffffffffff\n        /* \"#utility.yul\":30295:30301   */\n      dup2\n        /* \"#utility.yul\":30292:30322   */\n      gt\n        /* \"#utility.yul\":30289:30345   */\n      iszero\n      tag_684\n      jumpi\n        /* \"#utility.yul\":30325:30343   */\n      tag_685\n      tag_84\n      jump\t// in\n    tag_685:\n        /* \"#utility.yul\":30289:30345   */\n    tag_684:\n        /* \"#utility.yul\":30369:30407   */\n      tag_686\n        /* \"#utility.yul\":30401:30405   */\n      dup3\n        /* \"#utility.yul\":30395:30406   */\n      sload\n        /* \"#utility.yul\":30369:30407   */\n      tag_162\n      jump\t// in\n    tag_686:\n        /* \"#utility.yul\":30454:30521   */\n      tag_687\n        /* \"#utility.yul\":30514:30520   */\n      dup3\n        /* \"#utility.yul\":30506:30512   */\n      dup3\n        /* \"#utility.yul\":30500:30504   */\n      dup6\n        /* \"#utility.yul\":30454:30521   */\n      tag_402\n      jump\t// in\n    tag_687:\n        /* \"#utility.yul\":30548:30549   */\n      0x00\n        /* \"#utility.yul\":30572:30576   */\n      0x20\n        /* \"#utility.yul\":30559:30576   */\n      swap1\n      pop\n        /* \"#utility.yul\":30604:30606   */\n      0x1f\n        /* \"#utility.yul\":30596:30602   */\n      dup4\n        /* \"#utility.yul\":30593:30607   */\n      gt\n        /* \"#utility.yul\":30621:30622   */\n      0x01\n        /* \"#utility.yul\":30616:31234   */\n      dup2\n      eq\n      tag_689\n      jumpi\n        /* \"#utility.yul\":31278:31279   */\n      0x00\n        /* \"#utility.yul\":31295:31301   */\n      dup5\n        /* \"#utility.yul\":31292:31369   */\n      iszero\n      tag_690\n      jumpi\n        /* \"#utility.yul\":31344:31353   */\n      dup3\n        /* \"#utility.yul\":31339:31342   */\n      dup8\n        /* \"#utility.yul\":31335:31354   */\n      add\n        /* \"#utility.yul\":31329:31355   */\n      mload\n        /* \"#utility.yul\":31320:31355   */\n      swap1\n      pop\n        /* \"#utility.yul\":31292:31369   */\n    tag_690:\n        /* \"#utility.yul\":31395:31462   */\n      tag_691\n        /* \"#utility.yul\":31455:31461   */\n      dup6\n        /* \"#utility.yul\":31448:31453   */\n      dup3\n        /* \"#utility.yul\":31395:31462   */\n      tag_405\n      jump\t// in\n    tag_691:\n        /* \"#utility.yul\":31389:31393   */\n      dup7\n        /* \"#utility.yul\":31382:31463   */\n      sstore\n        /* \"#utility.yul\":31251:31473   */\n      pop\n        /* \"#utility.yul\":30586:31473   */\n      jump(tag_688)\n        /* \"#utility.yul\":30616:31234   */\n    tag_689:\n        /* \"#utility.yul\":30668:30672   */\n      0x1f\n        /* \"#utility.yul\":30664:30673   */\n      not\n        /* \"#utility.yul\":30656:30662   */\n      dup5\n        /* \"#utility.yul\":30652:30674   */\n      and\n        /* \"#utility.yul\":30702:30739   */\n      tag_692\n        /* \"#utility.yul\":30734:30738   */\n      dup7\n        /* \"#utility.yul\":30702:30739   */\n      tag_391\n      jump\t// in\n    tag_692:\n        /* \"#utility.yul\":30761:30762   */\n      0x00\n        /* \"#utility.yul\":30775:30983   */\n    tag_693:\n        /* \"#utility.yul\":30789:30796   */\n      dup3\n        /* \"#utility.yul\":30786:30787   */\n      dup2\n        /* \"#utility.yul\":30783:30797   */\n      lt\n        /* \"#utility.yul\":30775:30983   */\n      iszero\n      tag_695\n      jumpi\n        /* \"#utility.yul\":30868:30877   */\n      dup5\n        /* \"#utility.yul\":30863:30866   */\n      dup10\n        /* \"#utility.yul\":30859:30878   */\n      add\n        /* \"#utility.yul\":30853:30879   */\n      mload\n        /* \"#utility.yul\":30845:30851   */\n      dup3\n        /* \"#utility.yul\":30838:30880   */\n      sstore\n        /* \"#utility.yul\":30919:30920   */\n      0x01\n        /* \"#utility.yul\":30911:30917   */\n      dup3\n        /* \"#utility.yul\":30907:30921   */\n      add\n        /* \"#utility.yul\":30897:30921   */\n      swap2\n      pop\n        /* \"#utility.yul\":30966:30968   */\n      0x20\n        /* \"#utility.yul\":30955:30964   */\n      dup6\n        /* \"#utility.yul\":30951:30969   */\n      add\n        /* \"#utility.yul\":30938:30969   */\n      swap5\n      pop\n        /* \"#utility.yul\":30812:30816   */\n      0x20\n        /* \"#utility.yul\":30809:30810   */\n      dup2\n        /* \"#utility.yul\":30805:30817   */\n      add\n        /* \"#utility.yul\":30800:30817   */\n      swap1\n      pop\n        /* \"#utility.yul\":30775:30983   */\n      jump(tag_693)\n    tag_695:\n        /* \"#utility.yul\":31011:31017   */\n      dup7\n        /* \"#utility.yul\":31002:31009   */\n      dup4\n        /* \"#utility.yul\":30999:31018   */\n      lt\n        /* \"#utility.yul\":30996:31175   */\n      iszero\n      tag_696\n      jumpi\n        /* \"#utility.yul\":31069:31078   */\n      dup5\n        /* \"#utility.yul\":31064:31067   */\n      dup10\n        /* \"#utility.yul\":31060:31079   */\n      add\n        /* \"#utility.yul\":31054:31080   */\n      mload\n        /* \"#utility.yul\":31112:31160   */\n      tag_697\n        /* \"#utility.yul\":31154:31158   */\n      0x1f\n        /* \"#utility.yul\":31146:31152   */\n      dup10\n        /* \"#utility.yul\":31142:31159   */\n      and\n        /* \"#utility.yul\":31131:31140   */\n      dup3\n        /* \"#utility.yul\":31112:31160   */\n      tag_404\n      jump\t// in\n    tag_697:\n        /* \"#utility.yul\":31104:31110   */\n      dup4\n        /* \"#utility.yul\":31097:31161   */\n      sstore\n        /* \"#utility.yul\":31019:31175   */\n      pop\n        /* \"#utility.yul\":30996:31175   */\n    tag_696:\n        /* \"#utility.yul\":31221:31222   */\n      0x01\n        /* \"#utility.yul\":31217:31218   */\n      0x02\n        /* \"#utility.yul\":31209:31215   */\n      dup9\n        /* \"#utility.yul\":31205:31219   */\n      mul\n        /* \"#utility.yul\":31201:31223   */\n      add\n        /* \"#utility.yul\":31195:31199   */\n      dup9\n        /* \"#utility.yul\":31188:31224   */\n      sstore\n        /* \"#utility.yul\":30623:31234   */\n      pop\n      pop\n      pop\n        /* \"#utility.yul\":30586:31473   */\n    tag_688:\n      pop\n        /* \"#utility.yul\":30176:31479   */\n      pop\n      pop\n      pop\n        /* \"#utility.yul\":30084:31479   */\n      pop\n      pop\n      jump\t// out\n        /* \"#utility.yul\":31485:31679   */\n    tag_320:\n        /* \"#utility.yul\":31525:31529   */\n      0x00\n        /* \"#utility.yul\":31545:31565   */\n      tag_699\n        /* \"#utility.yul\":31563:31564   */\n      dup3\n        /* \"#utility.yul\":31545:31565   */\n      tag_333\n      jump\t// in\n    tag_699:\n        /* \"#utility.yul\":31540:31565   */\n      swap2\n      pop\n        /* \"#utility.yul\":31579:31599   */\n      tag_700\n        /* \"#utility.yul\":31597:31598   */\n      dup4\n        /* \"#utility.yul\":31579:31599   */\n      tag_333\n      jump\t// in\n    tag_700:\n        /* \"#utility.yul\":31574:31599   */\n      swap3\n      pop\n        /* \"#utility.yul\":31623:31624   */\n      dup3\n        /* \"#utility.yul\":31620:31621   */\n      dup3\n        /* \"#utility.yul\":31616:31625   */\n      sub\n        /* \"#utility.yul\":31608:31625   */\n      swap1\n      pop\n        /* \"#utility.yul\":31647:31648   */\n      dup2\n        /* \"#utility.yul\":31641:31645   */\n      dup2\n        /* \"#utility.yul\":31638:31649   */\n      gt\n        /* \"#utility.yul\":31635:31672   */\n      iszero\n      tag_701\n      jumpi\n        /* \"#utility.yul\":31652:31670   */\n      tag_702\n      tag_363\n      jump\t// in\n    tag_702:\n        /* \"#utility.yul\":31635:31672   */\n    tag_701:\n        /* \"#utility.yul\":31485:31679   */\n      swap3\n      swap2\n      pop\n      pop\n      jump\t// out\n        /* \"#utility.yul\":31685:31764   */\n    tag_406:\n        /* \"#utility.yul\":31724:31731   */\n      0x00\n        /* \"#utility.yul\":31753:31758   */\n      dup2\n        /* \"#utility.yul\":31742:31758   */\n      swap1\n      pop\n        /* \"#utility.yul\":31685:31764   */\n      swap2\n      swap1\n      pop\n      jump\t// out\n        /* \"#utility.yul\":31770:31927   */\n    tag_407:\n        /* \"#utility.yul\":31875:31920   */\n      tag_705\n        /* \"#utility.yul\":31895:31919   */\n      tag_706\n        /* \"#utility.yul\":31913:31918   */\n      dup3\n        /* \"#utility.yul\":31895:31919   */\n      tag_333\n      jump\t// in\n    tag_706:\n        /* \"#utility.yul\":31875:31920   */\n      tag_406\n      jump\t// in\n    tag_705:\n        /* \"#utility.yul\":31870:31873   */\n      dup3\n        /* \"#utility.yul\":31863:31921   */\n      mstore\n        /* \"#utility.yul\":31770:31927   */\n      pop\n      pop\n      jump\t// out\n        /* \"#utility.yul\":31933:32330   */\n    tag_324:\n        /* \"#utility.yul\":32073:32076   */\n      0x00\n        /* \"#utility.yul\":32088:32163   */\n      tag_708\n        /* \"#utility.yul\":32159:32162   */\n      dup3\n        /* \"#utility.yul\":32150:32156   */\n      dup6\n        /* \"#utility.yul\":32088:32163   */\n      tag_407\n      jump\t// in\n    tag_708:\n        /* \"#utility.yul\":32188:32190   */\n      0x20\n        /* \"#utility.yul\":32183:32186   */\n      dup3\n        /* \"#utility.yul\":32179:32191   */\n      add\n        /* \"#utility.yul\":32172:32191   */\n      swap2\n      pop\n        /* \"#utility.yul\":32201:32276   */\n      tag_709\n        /* \"#utility.yul\":32272:32275   */\n      dup3\n        /* \"#utility.yul\":32263:32269   */\n      dup5\n        /* \"#utility.yul\":32201:32276   */\n      tag_407\n      jump\t// in\n    tag_709:\n        /* \"#utility.yul\":32301:32303   */\n      0x20\n        /* \"#utility.yul\":32296:32299   */\n      dup3\n        /* \"#utility.yul\":32292:32304   */\n      add\n        /* \"#utility.yul\":32285:32304   */\n      swap2\n      pop\n        /* \"#utility.yul\":32321:32324   */\n      dup2\n        /* \"#utility.yul\":32314:32324   */\n      swap1\n      pop\n        /* \"#utility.yul\":31933:32330   */\n      swap4\n      swap3\n      pop\n      pop\n      pop\n      jump\t// out\n    stop\n    data_e0168f3fae51cf798b1321eebdaae7bc178ca214b91f59783066943e69095f12 57696e20416e64204c6f6f7365206973207468652070617274206f66207468652047616d652e54727920416761696e212e\n\n    auxdata: 0xa2646970667358221220ef6a6b93a1daf2965d59a96e10ee9ff8b6fd198b2ad1d4dec6f068e0cbcdeb1964736f6c63430008140033\n}\n",
				"bytecode": {
					"linkReferences": {},
					"object": "6080604052662386f26fc1000060025534801561001a575f80fd5b50612f15806100285f395ff3fe608060405234801561000f575f80fd5b50600436106100e8575f3560e01c8063b93a89f71161008a578063cb9940b711610064578063cb9940b71461026a578063e0c4f15e14610286578063e70364d4146102a2578063fb052caf146102be576100e8565b8063b93a89f7146101da578063c0342cb41461020a578063c583f36a1461023a576100e8565b80639264a169116100c65780639264a169146101545780639a861a78146101705780639f52f1a1146101a0578063b81c3db7146101d0576100e8565b8063095ea7b3146100ec5780633c956b05146101085780637138d32d14610138575b5f80fd5b61010660048036038101906101019190611f5a565b6102da565b005b610122600480360381019061011d9190611f98565b610475565b60405161012f919061207a565b60405180910390f35b610152600480360381019061014d919061209a565b6105bf565b005b61016e600480360381019061016991906120c5565b610886565b005b61018a60048036038101906101859190611f98565b610c5d565b604051610197919061212f565b60405180910390f35b6101ba60048036038101906101b5919061209a565b610c7a565b6040516101c7919061212f565b60405180910390f35b6101d8610c97565b005b6101f460048036038101906101ef919061209a565b610e27565b604051610201919061229b565b60405180910390f35b610224600480360381019061021f9190611f98565b610fc7565b604051610231919061212f565b60405180910390f35b610254600480360381019061024f919061209a565b610fe4565b60405161026191906122ca565b60405180910390f35b610284600480360381019061027f919061240f565b611014565b005b6102a0600480360381019061029b919061209a565b61110c565b005b6102bc60048036038101906102b7919061209a565b611297565b005b6102d860048036038101906102d3919061209a565b611519565b005b803373ffffffffffffffffffffffffffffffffffffffff165f808381526020019081526020015f205f9054906101000a900473ffffffffffffffffffffffffffffffffffffffff1673ffffffffffffffffffffffffffffffffffffffff1614610378576040517f08c379a000000000000000000000000000000000000000000000000000000000815260040161036f906124df565b60405180910390fd5b8160065f3373ffffffffffffffffffffffffffffffffffffffff1673ffffffffffffffffffffffffffffffffffffffff1681526020019081526020015f205f8573ffffffffffffffffffffffffffffffffffffffff1673ffffffffffffffffffffffffffffffffffffffff1681526020019081526020015f20819055508260075f3373ffffffffffffffffffffffffffffffffffffffff1673ffffffffffffffffffffffffffffffffffffffff1681526020019081526020015f205f6101000a81548173ffffffffffffffffffffffffffffffffffffffff021916908373ffffffffffffffffffffffffffffffffffffffff160217905550505050565b60605f60015f8473ffffffffffffffffffffffffffffffffffffffff1673ffffffffffffffffffffffffffffffffffffffff1681526020019081526020015f205467ffffffffffffffff8111156104cf576104ce6122eb565b5b6040519080825280602002602001820160405280156104fd5781602001602082028036833780820191505090505b5090505f805b6003805490508110156105b4578473ffffffffffffffffffffffffffffffffffffffff165f808381526020019081526020015f205f9054906101000a900473ffffffffffffffffffffffffffffffffffffffff1673ffffffffffffffffffffffffffffffffffffffff16036105a15780838381518110610586576105856124fd565b5b602002602001018181525050818061059d90612557565b9250505b80806105ac90612557565b915050610503565b508192505050919050565b3373ffffffffffffffffffffffffffffffffffffffff16600b5f8381526020019081526020015f205f9054906101000a900473ffffffffffffffffffffffffffffffffffffffff1673ffffffffffffffffffffffffffffffffffffffff16148061067657506001151560045f3373ffffffffffffffffffffffffffffffffffffffff1673ffffffffffffffffffffffffffffffffffffffff1681526020019081526020015f205f9054906101000a900460ff161515145b156107db574260085f8381526020019081526020015f2054116106ce576040517f08c379a00000000000000000000000000000000000000000000000000000000081526004016106c5906125e8565b60405180910390fd5b5f600382815481106106e3576106e26124fd565b5b905f5260205f2090600902016007015490506106fe82611632565b508060038381548110610714576107136124fd565b5b905f5260205f2090600902016007015411801561076e57506001805f3373ffffffffffffffffffffffffffffffffffffffff1673ffffffffffffffffffffffffffffffffffffffff1681526020019081526020015f205410155b156107d5575f61077d33610475565b905060016003825f81518110610796576107956124fd565b5b6020026020010151815481106107af576107ae6124fd565b5b905f5260205f2090600902016003015f8282546107cc9190612606565b92505081905550505b50610883565b3373ffffffffffffffffffffffffffffffffffffffff165f808381526020019081526020015f205f9054906101000a900473ffffffffffffffffffffffffffffffffffffffff1673ffffffffffffffffffffffffffffffffffffffff1614610878576040517f08c379a000000000000000000000000000000000000000000000000000000000815260040161086f90612683565b60405180910390fd5b61088181611632565b505b50565b803373ffffffffffffffffffffffffffffffffffffffff165f808381526020019081526020015f205f9054906101000a900473ffffffffffffffffffffffffffffffffffffffff1673ffffffffffffffffffffffffffffffffffffffff1614610924576040517f08c379a000000000000000000000000000000000000000000000000000000000815260040161091b906124df565b60405180910390fd5b6040518060400160405280600781526020017f7072656d69756d000000000000000000000000000000000000000000000000008152508051906020012060038381548110610975576109746124fd565b5b905f5260205f2090600902015f01604051610990919061279a565b6040518091039020146109d8576040517f08c379a00000000000000000000000000000000000000000000000000000000081526004016109cf906127fa565b60405180910390fd5b60055f8381526020019081526020015f205f9054906101000a900460ff1615610a36576040517f08c379a0000000000000000000000000000000000000000000000000000000008152600401610a2d90612862565b60405180910390fd5b8373ffffffffffffffffffffffffffffffffffffffff165f808481526020019081526020015f205f9054906101000a900473ffffffffffffffffffffffffffffffffffffffff1673ffffffffffffffffffffffffffffffffffffffff161480610b2657503373ffffffffffffffffffffffffffffffffffffffff1660075f8673ffffffffffffffffffffffffffffffffffffffff1673ffffffffffffffffffffffffffffffffffffffff1681526020019081526020015f205f9054906101000a900473ffffffffffffffffffffffffffffffffffffffff1673ffffffffffffffffffffffffffffffffffffffff16145b610b65576040517f08c379a0000000000000000000000000000000000000000000000000000000008152600401610b5c906128ca565b60405180910390fd5b825f808481526020019081526020015f205f6101000a81548173ffffffffffffffffffffffffffffffffffffffff021916908373ffffffffffffffffffffffffffffffffffffffff16021790555060015f8573ffffffffffffffffffffffffffffffffffffffff1673ffffffffffffffffffffffffffffffffffffffff1681526020019081526020015f205f815480929190610c00906128e8565b919050555060015f8473ffffffffffffffffffffffffffffffffffffffff1673ffffffffffffffffffffffffffffffffffffffff1681526020019081526020015f205f815480929190610c5290612557565b919050555050505050565b600a602052805f5260405f205f915054906101000a900460ff1681565b6009602052805f5260405f205f915054906101000a900460ff1681565b5f60015f3373ffffffffffffffffffffffffffffffffffffffff1673ffffffffffffffffffffffffffffffffffffffff1681526020019081526020015f205414610d16576040517f08c379a0000000000000000000000000000000000000000000000000000000008152600401610d0d90612959565b60405180910390fd5b600160045f3373ffffffffffffffffffffffffffffffffffffffff1673ffffffffffffffffffffffffffffffffffffffff1681526020019081526020015f205f6101000a81548160ff021916908315150217905550610e256040518060400160405280600481526020017f46726565000000000000000000000000000000000000000000000000000000008152506040518060400160405280600a81526020017f467265655a6f6d62696500000000000000000000000000000000000000000000815250610e186040518060400160405280600481526020017f6672656500000000000000000000000000000000000000000000000000000000815250611c4d565b60015f8060025f80611c90565b565b610e2f611e77565b60038281548110610e4357610e426124fd565b5b905f5260205f209060090201604051806101200160405290815f82018054610e6a906126ce565b80601f0160208091040260200160405190810160405280929190818152602001828054610e96906126ce565b8015610ee15780601f10610eb857610100808354040283529160200191610ee1565b820191905f5260205f20905b815481529060010190602001808311610ec457829003601f168201915b50505050508152602001600182018054610efa906126ce565b80601f0160208091040260200160405190810160405280929190818152602001828054610f26906126ce565b8015610f715780601f10610f4857610100808354040283529160200191610f71565b820191905f5260205f20905b815481529060010190602001808311610f5457829003601f168201915b505050505081526020016002820154815260200160038201548152602001600482015481526020016005820154815260200160068201548152602001600782015481526020016008820154815250509050919050565b6004602052805f5260405f205f915054906101000a900460ff1681565b600b602052805f5260405f205f915054906101000a900473ffffffffffffffffffffffffffffffffffffffff1681565b6040518060400160405280600781526020017f7072656d69756d0000000000000000000000000000000000000000000000000081525080519060200120828051906020012014806110a757506040518060400160405280600781526020017f4469616d6f6e6400000000000000000000000000000000000000000000000000815250805190602001208280519060200120145b6110e6576040517f08c379a00000000000000000000000000000000000000000000000000000000081526004016110dd906129c1565b60405180910390fd5b5f6110f082611c4d565b905061110783838360056101f45f60055f80611c90565b505050565b803373ffffffffffffffffffffffffffffffffffffffff165f808381526020019081526020015f205f9054906101000a900473ffffffffffffffffffffffffffffffffffffffff1673ffffffffffffffffffffffffffffffffffffffff16146111aa576040517f08c379a00000000000000000000000000000000000000000000000000000000081526004016111a1906124df565b60405180910390fd5b6001151560055f8481526020019081526020015f205f9054906101000a900460ff161515146111d7575f80fd5b60085f8381526020019081526020015f20544210156111f4575f80fd5b5f60055f8481526020019081526020015f205f6101000a81548160ff0219169083151502179055505f60095f8481526020019081526020015f205f6101000a81548160ff0219169083151502179055505f600b5f8481526020019081526020015f205f6101000a81548173ffffffffffffffffffffffffffffffffffffffff021916908373ffffffffffffffffffffffffffffffffffffffff1602179055505050565b60095f8281526020019081526020015f205f9054906101000a900460ff161580156113095750600a5f3373ffffffffffffffffffffffffffffffffffffffff1673ffffffffffffffffffffffffffffffffffffffff1681526020019081526020015f205f9054906101000a900460ff16155b611348576040517f08c379a000000000000000000000000000000000000000000000000000000000815260040161133f90612a29565b60405180910390fd5b3373ffffffffffffffffffffffffffffffffffffffff165f808381526020019081526020015f205f9054906101000a900473ffffffffffffffffffffffffffffffffffffffff1673ffffffffffffffffffffffffffffffffffffffff16036113e5576040517f08c379a00000000000000000000000000000000000000000000000000000000081526004016113dc90612a91565b60405180910390fd5b6001151560055f8381526020019081526020015f205f9054906101000a900460ff16151514611449576040517f08c379a000000000000000000000000000000000000000000000000000000000815260040161144090612af9565b60405180910390fd5b33600b5f8381526020019081526020015f205f6101000a81548173ffffffffffffffffffffffffffffffffffffffff021916908373ffffffffffffffffffffffffffffffffffffffff1602179055506001600a5f3373ffffffffffffffffffffffffffffffffffffffff1673ffffffffffffffffffffffffffffffffffffffff1681526020019081526020015f205f6101000a81548160ff021916908315150217905550600160095f8381526020019081526020015f205f6101000a81548160ff02191690831515021790555050565b803373ffffffffffffffffffffffffffffffffffffffff165f808381526020019081526020015f205f9054906101000a900473ffffffffffffffffffffffffffffffffffffffff1673ffffffffffffffffffffffffffffffffffffffff16146115b7576040517f08c379a00000000000000000000000000000000000000000000000000000000081526004016115ae906124df565b60405180910390fd5b60055f8381526020019081526020015f205f9054906101000a900460ff16156115de575f80fd5b600160055f8481526020019081526020015f205f6101000a81548160ff0219169083151502179055505f601e426116159190612606565b90508060085f8581526020019081526020015f2081905550505050565b60605f61163d611e2c565b905060038181548110611653576116526124fd565b5b905f5260205f2090600902016003015460038481548110611677576116766124fd565b5b905f5260205f2090600902016003015411156118c557600383815481106116a1576116a06124fd565b5b905f5260205f2090600902016003015f8154809291906116c090612557565b9190505550600383815481106116d9576116d86124fd565b5b905f5260205f2090600902016005015f8154809291906116f890612557565b919050555060038381548110611711576117106124fd565b5b905f5260205f2090600902016006015f815480929190611730906128e8565b919050555060038381548110611749576117486124fd565b5b905f5260205f2090600902016007015f81548092919061176890612557565b9190505550606460038481548110611783576117826124fd565b5b905f5260205f2090600902016004015f8282546117a09190612606565b92505081905550600381815481106117bb576117ba6124fd565b5b905f5260205f2090600902016003015f8154809291906117da906128e8565b9190505550600381815481106117f3576117f26124fd565b5b905f5260205f2090600902016005015f81548092919061181290612557565b91905055506003818154811061182b5761182a6124fd565b5b905f5260205f2090600902016006015f81548092919061184a906128e8565b919050555060038181548110611863576118626124fd565b5b905f5260205f2090600902016008015f81548092919061188290612557565b91905055506040518060400160405280600e81526020017f436f6e67726174732057696e732e000000000000000000000000000000000000815250915050611c48565b600383815481106118d9576118d86124fd565b5b905f5260205f20906009020160030154600382815481106118fd576118fc6124fd565b5b905f5260205f209060090201600301541115611b2e5760038181548110611927576119266124fd565b5b905f5260205f2090600902016003015f81548092919061194690612557565b91905055506003818154811061195f5761195e6124fd565b5b905f5260205f2090600902016005015f81548092919061197e90612557565b919050555060038181548110611997576119966124fd565b5b905f5260205f2090600902016006015f8154809291906119b6906128e8565b9190505550600381815481106119cf576119ce6124fd565b5b905f5260205f2090600902016007015f8154809291906119ee90612557565b9190505550606460038281548110611a0957611a086124fd565b5b905f5260205f2090600902016004015f828254611a269190612606565b9250508190555060038381548110611a4157611a406124fd565b5b905f5260205f2090600902016003015f815480929190611a60906128e8565b919050555060038381548110611a7957611a786124fd565b5b905f5260205f2090600902016005015f815480929190611a9890612557565b919050555060038381548110611ab157611ab06124fd565b5b905f5260205f2090600902016006015f815480929190611ad0906128e8565b919050555060038381548110611ae957611ae86124fd565b5b905f5260205f2090600902016008015f815480929190611b0890612557565b9190505550604051806060016040528060318152602001612eaf60319139915050611c48565b60038181548110611b4257611b416124fd565b5b905f5260205f2090600902016005015f815480929190611b6190612557565b919050555060038381548110611b7a57611b796124fd565b5b905f5260205f2090600902016005015f815480929190611b9990612557565b919050555060038381548110611bb257611bb16124fd565b5b905f5260205f2090600902016006015f815480929190611bd1906128e8565b919050555060038181548110611bea57611be96124fd565b5b905f5260205f2090600902016006015f815480929190611c09906128e8565b91905055506040518060400160405280600f81526020017f447261772054727920416761696e2e00000000000000000000000000000000008152509150505b919050565b5f8082604051602001611c609190612b51565b604051602081830303815290604052805190602001205f1c905060025481611c889190612b94565b915050919050565b60036040518061012001604052808b81526020018a815260200189815260200188815260200187815260200186815260200185815260200184815260200183815250908060018154018082558091505060019003905f5260205f2090600902015f909190919091505f820151815f019081611d0b9190612d61565b506020820151816001019081611d219190612d61565b5060408201518160020155606082015181600301556080820151816004015560a0820151816005015560c0820151816006015560e08201518160070155610100820151816008015550505f6001600380549050611d7e9190612e30565b905060015f3373ffffffffffffffffffffffffffffffffffffffff1673ffffffffffffffffffffffffffffffffffffffff1681526020019081526020015f205f815480929190611dcd90612557565b9190505550335f808381526020019081526020015f205f6101000a81548173ffffffffffffffffffffffffffffffffffffffff021916908373ffffffffffffffffffffffffffffffffffffffff16021790555050505050505050505050565b5f8060038054905090505f818242604051602001611e4b929190612e83565b604051602081830303815290604052805190602001205f1c611e6d9190612b94565b9050809250505090565b60405180610120016040528060608152602001606081526020015f81526020015f81526020015f81526020015f81526020015f81526020015f81526020015f81525090565b5f604051905090565b5f80fd5b5f80fd5b5f73ffffffffffffffffffffffffffffffffffffffff82169050919050565b5f611ef682611ecd565b9050919050565b611f0681611eec565b8114611f10575f80fd5b50565b5f81359050611f2181611efd565b92915050565b5f819050919050565b611f3981611f27565b8114611f43575f80fd5b50565b5f81359050611f5481611f30565b92915050565b5f8060408385031215611f7057611f6f611ec5565b5b5f611f7d85828601611f13565b9250506020611f8e85828601611f46565b9150509250929050565b5f60208284031215611fad57611fac611ec5565b5b5f611fba84828501611f13565b91505092915050565b5f81519050919050565b5f82825260208201905092915050565b5f819050602082019050919050565b611ff581611f27565b82525050565b5f6120068383611fec565b60208301905092915050565b5f602082019050919050565b5f61202882611fc3565b6120328185611fcd565b935061203d83611fdd565b805f5b8381101561206d5781516120548882611ffb565b975061205f83612012565b925050600181019050612040565b5085935050505092915050565b5f6020820190508181035f830152612092818461201e565b905092915050565b5f602082840312156120af576120ae611ec5565b5b5f6120bc84828501611f46565b91505092915050565b5f805f606084860312156120dc576120db611ec5565b5b5f6120e986828701611f13565b93505060206120fa86828701611f13565b925050604061210b86828701611f46565b9150509250925092565b5f8115159050919050565b61212981612115565b82525050565b5f6020820190506121425f830184612120565b92915050565b5f81519050919050565b5f82825260208201905092915050565b5f5b8381101561217f578082015181840152602081019050612164565b5f8484015250505050565b5f601f19601f8301169050919050565b5f6121a482612148565b6121ae8185612152565b93506121be818560208601612162565b6121c78161218a565b840191505092915050565b5f61012083015f8301518482035f8601526121ed828261219a565b91505060208301518482036020860152612207828261219a565b915050604083015161221c6040860182611fec565b50606083015161222f6060860182611fec565b5060808301516122426080860182611fec565b5060a083015161225560a0860182611fec565b5060c083015161226860c0860182611fec565b5060e083015161227b60e0860182611fec565b50610100830151612290610100860182611fec565b508091505092915050565b5f6020820190508181035f8301526122b381846121d2565b905092915050565b6122c481611eec565b82525050565b5f6020820190506122dd5f8301846122bb565b92915050565b5f80fd5b5f80fd5b7f4e487b71000000000000000000000000000000000000000000000000000000005f52604160045260245ffd5b6123218261218a565b810181811067ffffffffffffffff821117156123405761233f6122eb565b5b80604052505050565b5f612352611ebc565b905061235e8282612318565b919050565b5f67ffffffffffffffff82111561237d5761237c6122eb565b5b6123868261218a565b9050602081019050919050565b828183375f83830152505050565b5f6123b36123ae84612363565b612349565b9050828152602081018484840111156123cf576123ce6122e7565b5b6123da848285612393565b509392505050565b5f82601f8301126123f6576123f56122e3565b5b81356124068482602086016123a1565b91505092915050565b5f806040838503121561242557612424611ec5565b5b5f83013567ffffffffffffffff81111561244257612441611ec9565b5b61244e858286016123e2565b925050602083013567ffffffffffffffff81111561246f5761246e611ec9565b5b61247b858286016123e2565b9150509250929050565b5f82825260208201905092915050565b7f4f6e6c79204f776e65722e0000000000000000000000000000000000000000005f82015250565b5f6124c9600b83612485565b91506124d482612495565b602082019050919050565b5f6020820190508181035f8301526124f6816124bd565b9050919050565b7f4e487b71000000000000000000000000000000000000000000000000000000005f52603260045260245ffd5b7f4e487b71000000000000000000000000000000000000000000000000000000005f52601160045260245ffd5b5f61256182611f27565b91507fffffffffffffffffffffffffffffffffffffffffffffffffffffffffffffffff82036125935761259261252a565b5b600182019050919050565b7f4e6f77206964206973206e6f74206f6e2072656e742e000000000000000000005f82015250565b5f6125d2601683612485565b91506125dd8261259e565b602082019050919050565b5f6020820190508181035f8301526125ff816125c6565b9050919050565b5f61261082611f27565b915061261b83611f27565b92508282019050808211156126335761263261252a565b5b92915050565b7f596f7520646f6e742068617665206e66742e00000000000000000000000000005f82015250565b5f61266d601283612485565b915061267882612639565b602082019050919050565b5f6020820190508181035f83015261269a81612661565b9050919050565b7f4e487b71000000000000000000000000000000000000000000000000000000005f52602260045260245ffd5b5f60028204905060018216806126e557607f821691505b6020821081036126f8576126f76126a1565b5b50919050565b5f81905092915050565b5f819050815f5260205f209050919050565b5f8154612726816126ce565b61273081866126fe565b9450600182165f811461274a576001811461275f57612791565b60ff1983168652811515820286019350612791565b61276885612708565b5f5b838110156127895781548189015260018201915060208101905061276a565b838801955050505b50505092915050565b5f6127a5828461271a565b915081905092915050565b7f66726565206e66742063616e2073656c6c2e00000000000000000000000000005f82015250565b5f6127e4601283612485565b91506127ef826127b0565b602082019050919050565b5f6020820190508181035f830152612811816127d8565b9050919050565b7f54686973206e6674206f6e2072656e742e0000000000000000000000000000005f82015250565b5f61284c601183612485565b915061285782612818565b602082019050919050565b5f6020820190508181035f83015261287981612840565b9050919050565b7f596f7520646f6e742068617665204e66742e00000000000000000000000000005f82015250565b5f6128b4601283612485565b91506128bf82612880565b602082019050919050565b5f6020820190508181035f8301526128e1816128a8565b9050919050565b5f6128f282611f27565b91505f82036129045761290361252a565b5b600182039050919050565b7f416c726561647920686176652031206e66742e000000000000000000000000005f82015250565b5f612943601383612485565b915061294e8261290f565b602082019050919050565b5f6020820190508181035f83015261297081612937565b9050919050565b7f436f7272656374205370656c6c696e67000000000000000000000000000000005f82015250565b5f6129ab601083612485565b91506129b682612977565b602082019050919050565b5f6020820190508181035f8301526129d88161299f565b9050919050565b7f616c72656164792074616b656e204e66742e00000000000000000000000000005f82015250565b5f612a13601283612485565b9150612a1e826129df565b602082019050919050565b5f6020820190508181035f830152612a4081612a07565b9050919050565b7f6f776e65722063616e742074616b6520686973206f776e2069642e00000000005f82015250565b5f612a7b601b83612485565b9150612a8682612a47565b602082019050919050565b5f6020820190508181035f830152612aa881612a6f565b9050919050565b7f6e6674206e6f74206c69737465642e00000000000000000000000000000000005f82015250565b5f612ae3600f83612485565b9150612aee82612aaf565b602082019050919050565b5f6020820190508181035f830152612b1081612ad7565b9050919050565b5f81905092915050565b5f612b2b82612148565b612b358185612b17565b9350612b45818560208601612162565b80840191505092915050565b5f612b5c8284612b21565b915081905092915050565b7f4e487b71000000000000000000000000000000000000000000000000000000005f52601260045260245ffd5b5f612b9e82611f27565b9150612ba983611f27565b925082612bb957612bb8612b67565b5b828206905092915050565b5f819050815f5260205f209050919050565b5f6020601f8301049050919050565b5f82821b905092915050565b5f60088302612c207fffffffffffffffffffffffffffffffffffffffffffffffffffffffffffffffff82612be5565b612c2a8683612be5565b95508019841693508086168417925050509392505050565b5f819050919050565b5f612c65612c60612c5b84611f27565b612c42565b611f27565b9050919050565b5f819050919050565b612c7e83612c4b565b612c92612c8a82612c6c565b848454612bf1565b825550505050565b5f90565b612ca6612c9a565b612cb1818484612c75565b505050565b5b81811015612cd457612cc95f82612c9e565b600181019050612cb7565b5050565b601f821115612d1957612cea81612bc4565b612cf384612bd6565b81016020851015612d02578190505b612d16612d0e85612bd6565b830182612cb6565b50505b505050565b5f82821c905092915050565b5f612d395f1984600802612d1e565b1980831691505092915050565b5f612d518383612d2a565b9150826002028217905092915050565b612d6a82612148565b67ffffffffffffffff811115612d8357612d826122eb565b5b612d8d82546126ce565b612d98828285612cd8565b5f60209050601f831160018114612dc9575f8415612db7578287015190505b612dc18582612d46565b865550612e28565b601f198416612dd786612bc4565b5f5b82811015612dfe57848901518255600182019150602085019450602081019050612dd9565b86831015612e1b5784890151612e17601f891682612d2a565b8355505b6001600288020188555050505b505050505050565b5f612e3a82611f27565b9150612e4583611f27565b9250828203905081811115612e5d57612e5c61252a565b5b92915050565b5f819050919050565b612e7d612e7882611f27565b612e63565b82525050565b5f612e8e8285612e6c565b602082019150612e9e8284612e6c565b602082019150819050939250505056fe57696e20416e64204c6f6f7365206973207468652070617274206f66207468652047616d652e54727920416761696e212ea2646970667358221220ef6a6b93a1daf2965d59a96e10ee9ff8b6fd198b2ad1d4dec6f068e0cbcdeb1964736f6c63430008140033",
					"opcodes": "PUSH1 0x80 PUSH1 0x40 MSTORE PUSH7 0x2386F26FC10000 PUSH1 0x2 SSTORE CALLVALUE DUP1 ISZERO PUSH2 0x1A JUMPI PUSH0 DUP1 REVERT JUMPDEST POP PUSH2 0x2F15 DUP1 PUSH2 0x28 PUSH0 CODECOPY PUSH0 RETURN INVALID PUSH1 0x80 PUSH1 0x40 MSTORE CALLVALUE DUP1 ISZERO PUSH2 0xF JUMPI PUSH0 DUP1 REVERT JUMPDEST POP PUSH1 0x4 CALLDATASIZE LT PUSH2 0xE8 JUMPI PUSH0 CALLDATALOAD PUSH1 0xE0 SHR DUP1 PUSH4 0xB93A89F7 GT PUSH2 0x8A JUMPI DUP1 PUSH4 0xCB9940B7 GT PUSH2 0x64 JUMPI DUP1 PUSH4 0xCB9940B7 EQ PUSH2 0x26A JUMPI DUP1 PUSH4 0xE0C4F15E EQ PUSH2 0x286 JUMPI DUP1 PUSH4 0xE70364D4 EQ PUSH2 0x2A2 JUMPI DUP1 PUSH4 0xFB052CAF EQ PUSH2 0x2BE JUMPI PUSH2 0xE8 JUMP JUMPDEST DUP1 PUSH4 0xB93A89F7 EQ PUSH2 0x1DA JUMPI DUP1 PUSH4 0xC0342CB4 EQ PUSH2 0x20A JUMPI DUP1 PUSH4 0xC583F36A EQ PUSH2 0x23A JUMPI PUSH2 0xE8 JUMP JUMPDEST DUP1 PUSH4 0x9264A169 GT PUSH2 0xC6 JUMPI DUP1 PUSH4 0x9264A169 EQ PUSH2 0x154 JUMPI DUP1 PUSH4 0x9A861A78 EQ PUSH2 0x170 JUMPI DUP1 PUSH4 0x9F52F1A1 EQ PUSH2 0x1A0 JUMPI DUP1 PUSH4 0xB81C3DB7 EQ PUSH2 0x1D0 JUMPI PUSH2 0xE8 JUMP JUMPDEST DUP1 PUSH4 0x95EA7B3 EQ PUSH2 0xEC JUMPI DUP1 PUSH4 0x3C956B05 EQ PUSH2 0x108 JUMPI DUP1 PUSH4 0x7138D32D EQ PUSH2 0x138 JUMPI JUMPDEST PUSH0 DUP1 REVERT JUMPDEST PUSH2 0x106 PUSH1 0x4 DUP1 CALLDATASIZE SUB DUP2 ADD SWAP1 PUSH2 0x101 SWAP2 SWAP1 PUSH2 0x1F5A JUMP JUMPDEST PUSH2 0x2DA JUMP JUMPDEST STOP JUMPDEST PUSH2 0x122 PUSH1 0x4 DUP1 CALLDATASIZE SUB DUP2 ADD SWAP1 PUSH2 0x11D SWAP2 SWAP1 PUSH2 0x1F98 JUMP JUMPDEST PUSH2 0x475 JUMP JUMPDEST PUSH1 0x40 MLOAD PUSH2 0x12F SWAP2 SWAP1 PUSH2 0x207A JUMP JUMPDEST PUSH1 0x40 MLOAD DUP1 SWAP2 SUB SWAP1 RETURN JUMPDEST PUSH2 0x152 PUSH1 0x4 DUP1 CALLDATASIZE SUB DUP2 ADD SWAP1 PUSH2 0x14D SWAP2 SWAP1 PUSH2 0x209A JUMP JUMPDEST PUSH2 0x5BF JUMP JUMPDEST STOP JUMPDEST PUSH2 0x16E PUSH1 0x4 DUP1 CALLDATASIZE SUB DUP2 ADD SWAP1 PUSH2 0x169 SWAP2 SWAP1 PUSH2 0x20C5 JUMP JUMPDEST PUSH2 0x886 JUMP JUMPDEST STOP JUMPDEST PUSH2 0x18A PUSH1 0x4 DUP1 CALLDATASIZE SUB DUP2 ADD SWAP1 PUSH2 0x185 SWAP2 SWAP1 PUSH2 0x1F98 JUMP JUMPDEST PUSH2 0xC5D JUMP JUMPDEST PUSH1 0x40 MLOAD PUSH2 0x197 SWAP2 SWAP1 PUSH2 0x212F JUMP JUMPDEST PUSH1 0x40 MLOAD DUP1 SWAP2 SUB SWAP1 RETURN JUMPDEST PUSH2 0x1BA PUSH1 0x4 DUP1 CALLDATASIZE SUB DUP2 ADD SWAP1 PUSH2 0x1B5 SWAP2 SWAP1 PUSH2 0x209A JUMP JUMPDEST PUSH2 0xC7A JUMP JUMPDEST PUSH1 0x40 MLOAD PUSH2 0x1C7 SWAP2 SWAP1 PUSH2 0x212F JUMP JUMPDEST PUSH1 0x40 MLOAD DUP1 SWAP2 SUB SWAP1 RETURN JUMPDEST PUSH2 0x1D8 PUSH2 0xC97 JUMP JUMPDEST STOP JUMPDEST PUSH2 0x1F4 PUSH1 0x4 DUP1 CALLDATASIZE SUB DUP2 ADD SWAP1 PUSH2 0x1EF SWAP2 SWAP1 PUSH2 0x209A JUMP JUMPDEST PUSH2 0xE27 JUMP JUMPDEST PUSH1 0x40 MLOAD PUSH2 0x201 SWAP2 SWAP1 PUSH2 0x229B JUMP JUMPDEST PUSH1 0x40 MLOAD DUP1 SWAP2 SUB SWAP1 RETURN JUMPDEST PUSH2 0x224 PUSH1 0x4 DUP1 CALLDATASIZE SUB DUP2 ADD SWAP1 PUSH2 0x21F SWAP2 SWAP1 PUSH2 0x1F98 JUMP JUMPDEST PUSH2 0xFC7 JUMP JUMPDEST PUSH1 0x40 MLOAD PUSH2 0x231 SWAP2 SWAP1 PUSH2 0x212F JUMP JUMPDEST PUSH1 0x40 MLOAD DUP1 SWAP2 SUB SWAP1 RETURN JUMPDEST PUSH2 0x254 PUSH1 0x4 DUP1 CALLDATASIZE SUB DUP2 ADD SWAP1 PUSH2 0x24F SWAP2 SWAP1 PUSH2 0x209A JUMP JUMPDEST PUSH2 0xFE4 JUMP JUMPDEST PUSH1 0x40 MLOAD PUSH2 0x261 SWAP2 SWAP1 PUSH2 0x22CA JUMP JUMPDEST PUSH1 0x40 MLOAD DUP1 SWAP2 SUB SWAP1 RETURN JUMPDEST PUSH2 0x284 PUSH1 0x4 DUP1 CALLDATASIZE SUB DUP2 ADD SWAP1 PUSH2 0x27F SWAP2 SWAP1 PUSH2 0x240F JUMP JUMPDEST PUSH2 0x1014 JUMP JUMPDEST STOP JUMPDEST PUSH2 0x2A0 PUSH1 0x4 DUP1 CALLDATASIZE SUB DUP2 ADD SWAP1 PUSH2 0x29B SWAP2 SWAP1 PUSH2 0x209A JUMP JUMPDEST PUSH2 0x110C JUMP JUMPDEST STOP JUMPDEST PUSH2 0x2BC PUSH1 0x4 DUP1 CALLDATASIZE SUB DUP2 ADD SWAP1 PUSH2 0x2B7 SWAP2 SWAP1 PUSH2 0x209A JUMP JUMPDEST PUSH2 0x1297 JUMP JUMPDEST STOP JUMPDEST PUSH2 0x2D8 PUSH1 0x4 DUP1 CALLDATASIZE SUB DUP2 ADD SWAP1 PUSH2 0x2D3 SWAP2 SWAP1 PUSH2 0x209A JUMP JUMPDEST PUSH2 0x1519 JUMP JUMPDEST STOP JUMPDEST DUP1 CALLER PUSH20 0xFFFFFFFFFFFFFFFFFFFFFFFFFFFFFFFFFFFFFFFF AND PUSH0 DUP1 DUP4 DUP2 MSTORE PUSH1 0x20 ADD SWAP1 DUP2 MSTORE PUSH1 0x20 ADD PUSH0 KECCAK256 PUSH0 SWAP1 SLOAD SWAP1 PUSH2 0x100 EXP SWAP1 DIV PUSH20 0xFFFFFFFFFFFFFFFFFFFFFFFFFFFFFFFFFFFFFFFF AND PUSH20 0xFFFFFFFFFFFFFFFFFFFFFFFFFFFFFFFFFFFFFFFF AND EQ PUSH2 0x378 JUMPI PUSH1 0x40 MLOAD PUSH32 0x8C379A000000000000000000000000000000000000000000000000000000000 DUP2 MSTORE PUSH1 0x4 ADD PUSH2 0x36F SWAP1 PUSH2 0x24DF JUMP JUMPDEST PUSH1 0x40 MLOAD DUP1 SWAP2 SUB SWAP1 REVERT JUMPDEST DUP2 PUSH1 0x6 PUSH0 CALLER PUSH20 0xFFFFFFFFFFFFFFFFFFFFFFFFFFFFFFFFFFFFFFFF AND PUSH20 0xFFFFFFFFFFFFFFFFFFFFFFFFFFFFFFFFFFFFFFFF AND DUP2 MSTORE PUSH1 0x20 ADD SWAP1 DUP2 MSTORE PUSH1 0x20 ADD PUSH0 KECCAK256 PUSH0 DUP6 PUSH20 0xFFFFFFFFFFFFFFFFFFFFFFFFFFFFFFFFFFFFFFFF AND PUSH20 0xFFFFFFFFFFFFFFFFFFFFFFFFFFFFFFFFFFFFFFFF AND DUP2 MSTORE PUSH1 0x20 ADD SWAP1 DUP2 MSTORE PUSH1 0x20 ADD PUSH0 KECCAK256 DUP2 SWAP1 SSTORE POP DUP3 PUSH1 0x7 PUSH0 CALLER PUSH20 0xFFFFFFFFFFFFFFFFFFFFFFFFFFFFFFFFFFFFFFFF AND PUSH20 0xFFFFFFFFFFFFFFFFFFFFFFFFFFFFFFFFFFFFFFFF AND DUP2 MSTORE PUSH1 0x20 ADD SWAP1 DUP2 MSTORE PUSH1 0x20 ADD PUSH0 KECCAK256 PUSH0 PUSH2 0x100 EXP DUP2 SLOAD DUP2 PUSH20 0xFFFFFFFFFFFFFFFFFFFFFFFFFFFFFFFFFFFFFFFF MUL NOT AND SWAP1 DUP4 PUSH20 0xFFFFFFFFFFFFFFFFFFFFFFFFFFFFFFFFFFFFFFFF AND MUL OR SWAP1 SSTORE POP POP POP POP JUMP JUMPDEST PUSH1 0x60 PUSH0 PUSH1 0x1 PUSH0 DUP5 PUSH20 0xFFFFFFFFFFFFFFFFFFFFFFFFFFFFFFFFFFFFFFFF AND PUSH20 0xFFFFFFFFFFFFFFFFFFFFFFFFFFFFFFFFFFFFFFFF AND DUP2 MSTORE PUSH1 0x20 ADD SWAP1 DUP2 MSTORE PUSH1 0x20 ADD PUSH0 KECCAK256 SLOAD PUSH8 0xFFFFFFFFFFFFFFFF DUP2 GT ISZERO PUSH2 0x4CF JUMPI PUSH2 0x4CE PUSH2 0x22EB JUMP JUMPDEST JUMPDEST PUSH1 0x40 MLOAD SWAP1 DUP1 DUP3 MSTORE DUP1 PUSH1 0x20 MUL PUSH1 0x20 ADD DUP3 ADD PUSH1 0x40 MSTORE DUP1 ISZERO PUSH2 0x4FD JUMPI DUP2 PUSH1 0x20 ADD PUSH1 0x20 DUP3 MUL DUP1 CALLDATASIZE DUP4 CALLDATACOPY DUP1 DUP3 ADD SWAP2 POP POP SWAP1 POP JUMPDEST POP SWAP1 POP PUSH0 DUP1 JUMPDEST PUSH1 0x3 DUP1 SLOAD SWAP1 POP DUP2 LT ISZERO PUSH2 0x5B4 JUMPI DUP5 PUSH20 0xFFFFFFFFFFFFFFFFFFFFFFFFFFFFFFFFFFFFFFFF AND PUSH0 DUP1 DUP4 DUP2 MSTORE PUSH1 0x20 ADD SWAP1 DUP2 MSTORE PUSH1 0x20 ADD PUSH0 KECCAK256 PUSH0 SWAP1 SLOAD SWAP1 PUSH2 0x100 EXP SWAP1 DIV PUSH20 0xFFFFFFFFFFFFFFFFFFFFFFFFFFFFFFFFFFFFFFFF AND PUSH20 0xFFFFFFFFFFFFFFFFFFFFFFFFFFFFFFFFFFFFFFFF AND SUB PUSH2 0x5A1 JUMPI DUP1 DUP4 DUP4 DUP2 MLOAD DUP2 LT PUSH2 0x586 JUMPI PUSH2 0x585 PUSH2 0x24FD JUMP JUMPDEST JUMPDEST PUSH1 0x20 MUL PUSH1 0x20 ADD ADD DUP2 DUP2 MSTORE POP POP DUP2 DUP1 PUSH2 0x59D SWAP1 PUSH2 0x2557 JUMP JUMPDEST SWAP3 POP POP JUMPDEST DUP1 DUP1 PUSH2 0x5AC SWAP1 PUSH2 0x2557 JUMP JUMPDEST SWAP2 POP POP PUSH2 0x503 JUMP JUMPDEST POP DUP2 SWAP3 POP POP POP SWAP2 SWAP1 POP JUMP JUMPDEST CALLER PUSH20 0xFFFFFFFFFFFFFFFFFFFFFFFFFFFFFFFFFFFFFFFF AND PUSH1 0xB PUSH0 DUP4 DUP2 MSTORE PUSH1 0x20 ADD SWAP1 DUP2 MSTORE PUSH1 0x20 ADD PUSH0 KECCAK256 PUSH0 SWAP1 SLOAD SWAP1 PUSH2 0x100 EXP SWAP1 DIV PUSH20 0xFFFFFFFFFFFFFFFFFFFFFFFFFFFFFFFFFFFFFFFF AND PUSH20 0xFFFFFFFFFFFFFFFFFFFFFFFFFFFFFFFFFFFFFFFF AND EQ DUP1 PUSH2 0x676 JUMPI POP PUSH1 0x1 ISZERO ISZERO PUSH1 0x4 PUSH0 CALLER PUSH20 0xFFFFFFFFFFFFFFFFFFFFFFFFFFFFFFFFFFFFFFFF AND PUSH20 0xFFFFFFFFFFFFFFFFFFFFFFFFFFFFFFFFFFFFFFFF AND DUP2 MSTORE PUSH1 0x20 ADD SWAP1 DUP2 MSTORE PUSH1 0x20 ADD PUSH0 KECCAK256 PUSH0 SWAP1 SLOAD SWAP1 PUSH2 0x100 EXP SWAP1 DIV PUSH1 0xFF AND ISZERO ISZERO EQ JUMPDEST ISZERO PUSH2 0x7DB JUMPI TIMESTAMP PUSH1 0x8 PUSH0 DUP4 DUP2 MSTORE PUSH1 0x20 ADD SWAP1 DUP2 MSTORE PUSH1 0x20 ADD PUSH0 KECCAK256 SLOAD GT PUSH2 0x6CE JUMPI PUSH1 0x40 MLOAD PUSH32 0x8C379A000000000000000000000000000000000000000000000000000000000 DUP2 MSTORE PUSH1 0x4 ADD PUSH2 0x6C5 SWAP1 PUSH2 0x25E8 JUMP JUMPDEST PUSH1 0x40 MLOAD DUP1 SWAP2 SUB SWAP1 REVERT JUMPDEST PUSH0 PUSH1 0x3 DUP3 DUP2 SLOAD DUP2 LT PUSH2 0x6E3 JUMPI PUSH2 0x6E2 PUSH2 0x24FD JUMP JUMPDEST JUMPDEST SWAP1 PUSH0 MSTORE PUSH1 0x20 PUSH0 KECCAK256 SWAP1 PUSH1 0x9 MUL ADD PUSH1 0x7 ADD SLOAD SWAP1 POP PUSH2 0x6FE DUP3 PUSH2 0x1632 JUMP JUMPDEST POP DUP1 PUSH1 0x3 DUP4 DUP2 SLOAD DUP2 LT PUSH2 0x714 JUMPI PUSH2 0x713 PUSH2 0x24FD JUMP JUMPDEST JUMPDEST SWAP1 PUSH0 MSTORE PUSH1 0x20 PUSH0 KECCAK256 SWAP1 PUSH1 0x9 MUL ADD PUSH1 0x7 ADD SLOAD GT DUP1 ISZERO PUSH2 0x76E JUMPI POP PUSH1 0x1 DUP1 PUSH0 CALLER PUSH20 0xFFFFFFFFFFFFFFFFFFFFFFFFFFFFFFFFFFFFFFFF AND PUSH20 0xFFFFFFFFFFFFFFFFFFFFFFFFFFFFFFFFFFFFFFFF AND DUP2 MSTORE PUSH1 0x20 ADD SWAP1 DUP2 MSTORE PUSH1 0x20 ADD PUSH0 KECCAK256 SLOAD LT ISZERO JUMPDEST ISZERO PUSH2 0x7D5 JUMPI PUSH0 PUSH2 0x77D CALLER PUSH2 0x475 JUMP JUMPDEST SWAP1 POP PUSH1 0x1 PUSH1 0x3 DUP3 PUSH0 DUP2 MLOAD DUP2 LT PUSH2 0x796 JUMPI PUSH2 0x795 PUSH2 0x24FD JUMP JUMPDEST JUMPDEST PUSH1 0x20 MUL PUSH1 0x20 ADD ADD MLOAD DUP2 SLOAD DUP2 LT PUSH2 0x7AF JUMPI PUSH2 0x7AE PUSH2 0x24FD JUMP JUMPDEST JUMPDEST SWAP1 PUSH0 MSTORE PUSH1 0x20 PUSH0 KECCAK256 SWAP1 PUSH1 0x9 MUL ADD PUSH1 0x3 ADD PUSH0 DUP3 DUP3 SLOAD PUSH2 0x7CC SWAP2 SWAP1 PUSH2 0x2606 JUMP JUMPDEST SWAP3 POP POP DUP2 SWAP1 SSTORE POP POP JUMPDEST POP PUSH2 0x883 JUMP JUMPDEST CALLER PUSH20 0xFFFFFFFFFFFFFFFFFFFFFFFFFFFFFFFFFFFFFFFF AND PUSH0 DUP1 DUP4 DUP2 MSTORE PUSH1 0x20 ADD SWAP1 DUP2 MSTORE PUSH1 0x20 ADD PUSH0 KECCAK256 PUSH0 SWAP1 SLOAD SWAP1 PUSH2 0x100 EXP SWAP1 DIV PUSH20 0xFFFFFFFFFFFFFFFFFFFFFFFFFFFFFFFFFFFFFFFF AND PUSH20 0xFFFFFFFFFFFFFFFFFFFFFFFFFFFFFFFFFFFFFFFF AND EQ PUSH2 0x878 JUMPI PUSH1 0x40 MLOAD PUSH32 0x8C379A000000000000000000000000000000000000000000000000000000000 DUP2 MSTORE PUSH1 0x4 ADD PUSH2 0x86F SWAP1 PUSH2 0x2683 JUMP JUMPDEST PUSH1 0x40 MLOAD DUP1 SWAP2 SUB SWAP1 REVERT JUMPDEST PUSH2 0x881 DUP2 PUSH2 0x1632 JUMP JUMPDEST POP JUMPDEST POP JUMP JUMPDEST DUP1 CALLER PUSH20 0xFFFFFFFFFFFFFFFFFFFFFFFFFFFFFFFFFFFFFFFF AND PUSH0 DUP1 DUP4 DUP2 MSTORE PUSH1 0x20 ADD SWAP1 DUP2 MSTORE PUSH1 0x20 ADD PUSH0 KECCAK256 PUSH0 SWAP1 SLOAD SWAP1 PUSH2 0x100 EXP SWAP1 DIV PUSH20 0xFFFFFFFFFFFFFFFFFFFFFFFFFFFFFFFFFFFFFFFF AND PUSH20 0xFFFFFFFFFFFFFFFFFFFFFFFFFFFFFFFFFFFFFFFF AND EQ PUSH2 0x924 JUMPI PUSH1 0x40 MLOAD PUSH32 0x8C379A000000000000000000000000000000000000000000000000000000000 DUP2 MSTORE PUSH1 0x4 ADD PUSH2 0x91B SWAP1 PUSH2 0x24DF JUMP JUMPDEST PUSH1 0x40 MLOAD DUP1 SWAP2 SUB SWAP1 REVERT JUMPDEST PUSH1 0x40 MLOAD DUP1 PUSH1 0x40 ADD PUSH1 0x40 MSTORE DUP1 PUSH1 0x7 DUP2 MSTORE PUSH1 0x20 ADD PUSH32 0x7072656D69756D00000000000000000000000000000000000000000000000000 DUP2 MSTORE POP DUP1 MLOAD SWAP1 PUSH1 0x20 ADD KECCAK256 PUSH1 0x3 DUP4 DUP2 SLOAD DUP2 LT PUSH2 0x975 JUMPI PUSH2 0x974 PUSH2 0x24FD JUMP JUMPDEST JUMPDEST SWAP1 PUSH0 MSTORE PUSH1 0x20 PUSH0 KECCAK256 SWAP1 PUSH1 0x9 MUL ADD PUSH0 ADD PUSH1 0x40 MLOAD PUSH2 0x990 SWAP2 SWAP1 PUSH2 0x279A JUMP JUMPDEST PUSH1 0x40 MLOAD DUP1 SWAP2 SUB SWAP1 KECCAK256 EQ PUSH2 0x9D8 JUMPI PUSH1 0x40 MLOAD PUSH32 0x8C379A000000000000000000000000000000000000000000000000000000000 DUP2 MSTORE PUSH1 0x4 ADD PUSH2 0x9CF SWAP1 PUSH2 0x27FA JUMP JUMPDEST PUSH1 0x40 MLOAD DUP1 SWAP2 SUB SWAP1 REVERT JUMPDEST PUSH1 0x5 PUSH0 DUP4 DUP2 MSTORE PUSH1 0x20 ADD SWAP1 DUP2 MSTORE PUSH1 0x20 ADD PUSH0 KECCAK256 PUSH0 SWAP1 SLOAD SWAP1 PUSH2 0x100 EXP SWAP1 DIV PUSH1 0xFF AND ISZERO PUSH2 0xA36 JUMPI PUSH1 0x40 MLOAD PUSH32 0x8C379A000000000000000000000000000000000000000000000000000000000 DUP2 MSTORE PUSH1 0x4 ADD PUSH2 0xA2D SWAP1 PUSH2 0x2862 JUMP JUMPDEST PUSH1 0x40 MLOAD DUP1 SWAP2 SUB SWAP1 REVERT JUMPDEST DUP4 PUSH20 0xFFFFFFFFFFFFFFFFFFFFFFFFFFFFFFFFFFFFFFFF AND PUSH0 DUP1 DUP5 DUP2 MSTORE PUSH1 0x20 ADD SWAP1 DUP2 MSTORE PUSH1 0x20 ADD PUSH0 KECCAK256 PUSH0 SWAP1 SLOAD SWAP1 PUSH2 0x100 EXP SWAP1 DIV PUSH20 0xFFFFFFFFFFFFFFFFFFFFFFFFFFFFFFFFFFFFFFFF AND PUSH20 0xFFFFFFFFFFFFFFFFFFFFFFFFFFFFFFFFFFFFFFFF AND EQ DUP1 PUSH2 0xB26 JUMPI POP CALLER PUSH20 0xFFFFFFFFFFFFFFFFFFFFFFFFFFFFFFFFFFFFFFFF AND PUSH1 0x7 PUSH0 DUP7 PUSH20 0xFFFFFFFFFFFFFFFFFFFFFFFFFFFFFFFFFFFFFFFF AND PUSH20 0xFFFFFFFFFFFFFFFFFFFFFFFFFFFFFFFFFFFFFFFF AND DUP2 MSTORE PUSH1 0x20 ADD SWAP1 DUP2 MSTORE PUSH1 0x20 ADD PUSH0 KECCAK256 PUSH0 SWAP1 SLOAD SWAP1 PUSH2 0x100 EXP SWAP1 DIV PUSH20 0xFFFFFFFFFFFFFFFFFFFFFFFFFFFFFFFFFFFFFFFF AND PUSH20 0xFFFFFFFFFFFFFFFFFFFFFFFFFFFFFFFFFFFFFFFF AND EQ JUMPDEST PUSH2 0xB65 JUMPI PUSH1 0x40 MLOAD PUSH32 0x8C379A000000000000000000000000000000000000000000000000000000000 DUP2 MSTORE PUSH1 0x4 ADD PUSH2 0xB5C SWAP1 PUSH2 0x28CA JUMP JUMPDEST PUSH1 0x40 MLOAD DUP1 SWAP2 SUB SWAP1 REVERT JUMPDEST DUP3 PUSH0 DUP1 DUP5 DUP2 MSTORE PUSH1 0x20 ADD SWAP1 DUP2 MSTORE PUSH1 0x20 ADD PUSH0 KECCAK256 PUSH0 PUSH2 0x100 EXP DUP2 SLOAD DUP2 PUSH20 0xFFFFFFFFFFFFFFFFFFFFFFFFFFFFFFFFFFFFFFFF MUL NOT AND SWAP1 DUP4 PUSH20 0xFFFFFFFFFFFFFFFFFFFFFFFFFFFFFFFFFFFFFFFF AND MUL OR SWAP1 SSTORE POP PUSH1 0x1 PUSH0 DUP6 PUSH20 0xFFFFFFFFFFFFFFFFFFFFFFFFFFFFFFFFFFFFFFFF AND PUSH20 0xFFFFFFFFFFFFFFFFFFFFFFFFFFFFFFFFFFFFFFFF AND DUP2 MSTORE PUSH1 0x20 ADD SWAP1 DUP2 MSTORE PUSH1 0x20 ADD PUSH0 KECCAK256 PUSH0 DUP2 SLOAD DUP1 SWAP3 SWAP2 SWAP1 PUSH2 0xC00 SWAP1 PUSH2 0x28E8 JUMP JUMPDEST SWAP2 SWAP1 POP SSTORE POP PUSH1 0x1 PUSH0 DUP5 PUSH20 0xFFFFFFFFFFFFFFFFFFFFFFFFFFFFFFFFFFFFFFFF AND PUSH20 0xFFFFFFFFFFFFFFFFFFFFFFFFFFFFFFFFFFFFFFFF AND DUP2 MSTORE PUSH1 0x20 ADD SWAP1 DUP2 MSTORE PUSH1 0x20 ADD PUSH0 KECCAK256 PUSH0 DUP2 SLOAD DUP1 SWAP3 SWAP2 SWAP1 PUSH2 0xC52 SWAP1 PUSH2 0x2557 JUMP JUMPDEST SWAP2 SWAP1 POP SSTORE POP POP POP POP POP JUMP JUMPDEST PUSH1 0xA PUSH1 0x20 MSTORE DUP1 PUSH0 MSTORE PUSH1 0x40 PUSH0 KECCAK256 PUSH0 SWAP2 POP SLOAD SWAP1 PUSH2 0x100 EXP SWAP1 DIV PUSH1 0xFF AND DUP2 JUMP JUMPDEST PUSH1 0x9 PUSH1 0x20 MSTORE DUP1 PUSH0 MSTORE PUSH1 0x40 PUSH0 KECCAK256 PUSH0 SWAP2 POP SLOAD SWAP1 PUSH2 0x100 EXP SWAP1 DIV PUSH1 0xFF AND DUP2 JUMP JUMPDEST PUSH0 PUSH1 0x1 PUSH0 CALLER PUSH20 0xFFFFFFFFFFFFFFFFFFFFFFFFFFFFFFFFFFFFFFFF AND PUSH20 0xFFFFFFFFFFFFFFFFFFFFFFFFFFFFFFFFFFFFFFFF AND DUP2 MSTORE PUSH1 0x20 ADD SWAP1 DUP2 MSTORE PUSH1 0x20 ADD PUSH0 KECCAK256 SLOAD EQ PUSH2 0xD16 JUMPI PUSH1 0x40 MLOAD PUSH32 0x8C379A000000000000000000000000000000000000000000000000000000000 DUP2 MSTORE PUSH1 0x4 ADD PUSH2 0xD0D SWAP1 PUSH2 0x2959 JUMP JUMPDEST PUSH1 0x40 MLOAD DUP1 SWAP2 SUB SWAP1 REVERT JUMPDEST PUSH1 0x1 PUSH1 0x4 PUSH0 CALLER PUSH20 0xFFFFFFFFFFFFFFFFFFFFFFFFFFFFFFFFFFFFFFFF AND PUSH20 0xFFFFFFFFFFFFFFFFFFFFFFFFFFFFFFFFFFFFFFFF AND DUP2 MSTORE PUSH1 0x20 ADD SWAP1 DUP2 MSTORE PUSH1 0x20 ADD PUSH0 KECCAK256 PUSH0 PUSH2 0x100 EXP DUP2 SLOAD DUP2 PUSH1 0xFF MUL NOT AND SWAP1 DUP4 ISZERO ISZERO MUL OR SWAP1 SSTORE POP PUSH2 0xE25 PUSH1 0x40 MLOAD DUP1 PUSH1 0x40 ADD PUSH1 0x40 MSTORE DUP1 PUSH1 0x4 DUP2 MSTORE PUSH1 0x20 ADD PUSH32 0x4672656500000000000000000000000000000000000000000000000000000000 DUP2 MSTORE POP PUSH1 0x40 MLOAD DUP1 PUSH1 0x40 ADD PUSH1 0x40 MSTORE DUP1 PUSH1 0xA DUP2 MSTORE PUSH1 0x20 ADD PUSH32 0x467265655A6F6D62696500000000000000000000000000000000000000000000 DUP2 MSTORE POP PUSH2 0xE18 PUSH1 0x40 MLOAD DUP1 PUSH1 0x40 ADD PUSH1 0x40 MSTORE DUP1 PUSH1 0x4 DUP2 MSTORE PUSH1 0x20 ADD PUSH32 0x6672656500000000000000000000000000000000000000000000000000000000 DUP2 MSTORE POP PUSH2 0x1C4D JUMP JUMPDEST PUSH1 0x1 PUSH0 DUP1 PUSH1 0x2 PUSH0 DUP1 PUSH2 0x1C90 JUMP JUMPDEST JUMP JUMPDEST PUSH2 0xE2F PUSH2 0x1E77 JUMP JUMPDEST PUSH1 0x3 DUP3 DUP2 SLOAD DUP2 LT PUSH2 0xE43 JUMPI PUSH2 0xE42 PUSH2 0x24FD JUMP JUMPDEST JUMPDEST SWAP1 PUSH0 MSTORE PUSH1 0x20 PUSH0 KECCAK256 SWAP1 PUSH1 0x9 MUL ADD PUSH1 0x40 MLOAD DUP1 PUSH2 0x120 ADD PUSH1 0x40 MSTORE SWAP1 DUP2 PUSH0 DUP3 ADD DUP1 SLOAD PUSH2 0xE6A SWAP1 PUSH2 0x26CE JUMP JUMPDEST DUP1 PUSH1 0x1F ADD PUSH1 0x20 DUP1 SWAP2 DIV MUL PUSH1 0x20 ADD PUSH1 0x40 MLOAD SWAP1 DUP2 ADD PUSH1 0x40 MSTORE DUP1 SWAP3 SWAP2 SWAP1 DUP2 DUP2 MSTORE PUSH1 0x20 ADD DUP3 DUP1 SLOAD PUSH2 0xE96 SWAP1 PUSH2 0x26CE JUMP JUMPDEST DUP1 ISZERO PUSH2 0xEE1 JUMPI DUP1 PUSH1 0x1F LT PUSH2 0xEB8 JUMPI PUSH2 0x100 DUP1 DUP4 SLOAD DIV MUL DUP4 MSTORE SWAP2 PUSH1 0x20 ADD SWAP2 PUSH2 0xEE1 JUMP JUMPDEST DUP3 ADD SWAP2 SWAP1 PUSH0 MSTORE PUSH1 0x20 PUSH0 KECCAK256 SWAP1 JUMPDEST DUP2 SLOAD DUP2 MSTORE SWAP1 PUSH1 0x1 ADD SWAP1 PUSH1 0x20 ADD DUP1 DUP4 GT PUSH2 0xEC4 JUMPI DUP3 SWAP1 SUB PUSH1 0x1F AND DUP3 ADD SWAP2 JUMPDEST POP POP POP POP POP DUP2 MSTORE PUSH1 0x20 ADD PUSH1 0x1 DUP3 ADD DUP1 SLOAD PUSH2 0xEFA SWAP1 PUSH2 0x26CE JUMP JUMPDEST DUP1 PUSH1 0x1F ADD PUSH1 0x20 DUP1 SWAP2 DIV MUL PUSH1 0x20 ADD PUSH1 0x40 MLOAD SWAP1 DUP2 ADD PUSH1 0x40 MSTORE DUP1 SWAP3 SWAP2 SWAP1 DUP2 DUP2 MSTORE PUSH1 0x20 ADD DUP3 DUP1 SLOAD PUSH2 0xF26 SWAP1 PUSH2 0x26CE JUMP JUMPDEST DUP1 ISZERO PUSH2 0xF71 JUMPI DUP1 PUSH1 0x1F LT PUSH2 0xF48 JUMPI PUSH2 0x100 DUP1 DUP4 SLOAD DIV MUL DUP4 MSTORE SWAP2 PUSH1 0x20 ADD SWAP2 PUSH2 0xF71 JUMP JUMPDEST DUP3 ADD SWAP2 SWAP1 PUSH0 MSTORE PUSH1 0x20 PUSH0 KECCAK256 SWAP1 JUMPDEST DUP2 SLOAD DUP2 MSTORE SWAP1 PUSH1 0x1 ADD SWAP1 PUSH1 0x20 ADD DUP1 DUP4 GT PUSH2 0xF54 JUMPI DUP3 SWAP1 SUB PUSH1 0x1F AND DUP3 ADD SWAP2 JUMPDEST POP POP POP POP POP DUP2 MSTORE PUSH1 0x20 ADD PUSH1 0x2 DUP3 ADD SLOAD DUP2 MSTORE PUSH1 0x20 ADD PUSH1 0x3 DUP3 ADD SLOAD DUP2 MSTORE PUSH1 0x20 ADD PUSH1 0x4 DUP3 ADD SLOAD DUP2 MSTORE PUSH1 0x20 ADD PUSH1 0x5 DUP3 ADD SLOAD DUP2 MSTORE PUSH1 0x20 ADD PUSH1 0x6 DUP3 ADD SLOAD DUP2 MSTORE PUSH1 0x20 ADD PUSH1 0x7 DUP3 ADD SLOAD DUP2 MSTORE PUSH1 0x20 ADD PUSH1 0x8 DUP3 ADD SLOAD DUP2 MSTORE POP POP SWAP1 POP SWAP2 SWAP1 POP JUMP JUMPDEST PUSH1 0x4 PUSH1 0x20 MSTORE DUP1 PUSH0 MSTORE PUSH1 0x40 PUSH0 KECCAK256 PUSH0 SWAP2 POP SLOAD SWAP1 PUSH2 0x100 EXP SWAP1 DIV PUSH1 0xFF AND DUP2 JUMP JUMPDEST PUSH1 0xB PUSH1 0x20 MSTORE DUP1 PUSH0 MSTORE PUSH1 0x40 PUSH0 KECCAK256 PUSH0 SWAP2 POP SLOAD SWAP1 PUSH2 0x100 EXP SWAP1 DIV PUSH20 0xFFFFFFFFFFFFFFFFFFFFFFFFFFFFFFFFFFFFFFFF AND DUP2 JUMP JUMPDEST PUSH1 0x40 MLOAD DUP1 PUSH1 0x40 ADD PUSH1 0x40 MSTORE DUP1 PUSH1 0x7 DUP2 MSTORE PUSH1 0x20 ADD PUSH32 0x7072656D69756D00000000000000000000000000000000000000000000000000 DUP2 MSTORE POP DUP1 MLOAD SWAP1 PUSH1 0x20 ADD KECCAK256 DUP3 DUP1 MLOAD SWAP1 PUSH1 0x20 ADD KECCAK256 EQ DUP1 PUSH2 0x10A7 JUMPI POP PUSH1 0x40 MLOAD DUP1 PUSH1 0x40 ADD PUSH1 0x40 MSTORE DUP1 PUSH1 0x7 DUP2 MSTORE PUSH1 0x20 ADD PUSH32 0x4469616D6F6E6400000000000000000000000000000000000000000000000000 DUP2 MSTORE POP DUP1 MLOAD SWAP1 PUSH1 0x20 ADD KECCAK256 DUP3 DUP1 MLOAD SWAP1 PUSH1 0x20 ADD KECCAK256 EQ JUMPDEST PUSH2 0x10E6 JUMPI PUSH1 0x40 MLOAD PUSH32 0x8C379A000000000000000000000000000000000000000000000000000000000 DUP2 MSTORE PUSH1 0x4 ADD PUSH2 0x10DD SWAP1 PUSH2 0x29C1 JUMP JUMPDEST PUSH1 0x40 MLOAD DUP1 SWAP2 SUB SWAP1 REVERT JUMPDEST PUSH0 PUSH2 0x10F0 DUP3 PUSH2 0x1C4D JUMP JUMPDEST SWAP1 POP PUSH2 0x1107 DUP4 DUP4 DUP4 PUSH1 0x5 PUSH2 0x1F4 PUSH0 PUSH1 0x5 PUSH0 DUP1 PUSH2 0x1C90 JUMP JUMPDEST POP POP POP JUMP JUMPDEST DUP1 CALLER PUSH20 0xFFFFFFFFFFFFFFFFFFFFFFFFFFFFFFFFFFFFFFFF AND PUSH0 DUP1 DUP4 DUP2 MSTORE PUSH1 0x20 ADD SWAP1 DUP2 MSTORE PUSH1 0x20 ADD PUSH0 KECCAK256 PUSH0 SWAP1 SLOAD SWAP1 PUSH2 0x100 EXP SWAP1 DIV PUSH20 0xFFFFFFFFFFFFFFFFFFFFFFFFFFFFFFFFFFFFFFFF AND PUSH20 0xFFFFFFFFFFFFFFFFFFFFFFFFFFFFFFFFFFFFFFFF AND EQ PUSH2 0x11AA JUMPI PUSH1 0x40 MLOAD PUSH32 0x8C379A000000000000000000000000000000000000000000000000000000000 DUP2 MSTORE PUSH1 0x4 ADD PUSH2 0x11A1 SWAP1 PUSH2 0x24DF JUMP JUMPDEST PUSH1 0x40 MLOAD DUP1 SWAP2 SUB SWAP1 REVERT JUMPDEST PUSH1 0x1 ISZERO ISZERO PUSH1 0x5 PUSH0 DUP5 DUP2 MSTORE PUSH1 0x20 ADD SWAP1 DUP2 MSTORE PUSH1 0x20 ADD PUSH0 KECCAK256 PUSH0 SWAP1 SLOAD SWAP1 PUSH2 0x100 EXP SWAP1 DIV PUSH1 0xFF AND ISZERO ISZERO EQ PUSH2 0x11D7 JUMPI PUSH0 DUP1 REVERT JUMPDEST PUSH1 0x8 PUSH0 DUP4 DUP2 MSTORE PUSH1 0x20 ADD SWAP1 DUP2 MSTORE PUSH1 0x20 ADD PUSH0 KECCAK256 SLOAD TIMESTAMP LT ISZERO PUSH2 0x11F4 JUMPI PUSH0 DUP1 REVERT JUMPDEST PUSH0 PUSH1 0x5 PUSH0 DUP5 DUP2 MSTORE PUSH1 0x20 ADD SWAP1 DUP2 MSTORE PUSH1 0x20 ADD PUSH0 KECCAK256 PUSH0 PUSH2 0x100 EXP DUP2 SLOAD DUP2 PUSH1 0xFF MUL NOT AND SWAP1 DUP4 ISZERO ISZERO MUL OR SWAP1 SSTORE POP PUSH0 PUSH1 0x9 PUSH0 DUP5 DUP2 MSTORE PUSH1 0x20 ADD SWAP1 DUP2 MSTORE PUSH1 0x20 ADD PUSH0 KECCAK256 PUSH0 PUSH2 0x100 EXP DUP2 SLOAD DUP2 PUSH1 0xFF MUL NOT AND SWAP1 DUP4 ISZERO ISZERO MUL OR SWAP1 SSTORE POP PUSH0 PUSH1 0xB PUSH0 DUP5 DUP2 MSTORE PUSH1 0x20 ADD SWAP1 DUP2 MSTORE PUSH1 0x20 ADD PUSH0 KECCAK256 PUSH0 PUSH2 0x100 EXP DUP2 SLOAD DUP2 PUSH20 0xFFFFFFFFFFFFFFFFFFFFFFFFFFFFFFFFFFFFFFFF MUL NOT AND SWAP1 DUP4 PUSH20 0xFFFFFFFFFFFFFFFFFFFFFFFFFFFFFFFFFFFFFFFF AND MUL OR SWAP1 SSTORE POP POP POP JUMP JUMPDEST PUSH1 0x9 PUSH0 DUP3 DUP2 MSTORE PUSH1 0x20 ADD SWAP1 DUP2 MSTORE PUSH1 0x20 ADD PUSH0 KECCAK256 PUSH0 SWAP1 SLOAD SWAP1 PUSH2 0x100 EXP SWAP1 DIV PUSH1 0xFF AND ISZERO DUP1 ISZERO PUSH2 0x1309 JUMPI POP PUSH1 0xA PUSH0 CALLER PUSH20 0xFFFFFFFFFFFFFFFFFFFFFFFFFFFFFFFFFFFFFFFF AND PUSH20 0xFFFFFFFFFFFFFFFFFFFFFFFFFFFFFFFFFFFFFFFF AND DUP2 MSTORE PUSH1 0x20 ADD SWAP1 DUP2 MSTORE PUSH1 0x20 ADD PUSH0 KECCAK256 PUSH0 SWAP1 SLOAD SWAP1 PUSH2 0x100 EXP SWAP1 DIV PUSH1 0xFF AND ISZERO JUMPDEST PUSH2 0x1348 JUMPI PUSH1 0x40 MLOAD PUSH32 0x8C379A000000000000000000000000000000000000000000000000000000000 DUP2 MSTORE PUSH1 0x4 ADD PUSH2 0x133F SWAP1 PUSH2 0x2A29 JUMP JUMPDEST PUSH1 0x40 MLOAD DUP1 SWAP2 SUB SWAP1 REVERT JUMPDEST CALLER PUSH20 0xFFFFFFFFFFFFFFFFFFFFFFFFFFFFFFFFFFFFFFFF AND PUSH0 DUP1 DUP4 DUP2 MSTORE PUSH1 0x20 ADD SWAP1 DUP2 MSTORE PUSH1 0x20 ADD PUSH0 KECCAK256 PUSH0 SWAP1 SLOAD SWAP1 PUSH2 0x100 EXP SWAP1 DIV PUSH20 0xFFFFFFFFFFFFFFFFFFFFFFFFFFFFFFFFFFFFFFFF AND PUSH20 0xFFFFFFFFFFFFFFFFFFFFFFFFFFFFFFFFFFFFFFFF AND SUB PUSH2 0x13E5 JUMPI PUSH1 0x40 MLOAD PUSH32 0x8C379A000000000000000000000000000000000000000000000000000000000 DUP2 MSTORE PUSH1 0x4 ADD PUSH2 0x13DC SWAP1 PUSH2 0x2A91 JUMP JUMPDEST PUSH1 0x40 MLOAD DUP1 SWAP2 SUB SWAP1 REVERT JUMPDEST PUSH1 0x1 ISZERO ISZERO PUSH1 0x5 PUSH0 DUP4 DUP2 MSTORE PUSH1 0x20 ADD SWAP1 DUP2 MSTORE PUSH1 0x20 ADD PUSH0 KECCAK256 PUSH0 SWAP1 SLOAD SWAP1 PUSH2 0x100 EXP SWAP1 DIV PUSH1 0xFF AND ISZERO ISZERO EQ PUSH2 0x1449 JUMPI PUSH1 0x40 MLOAD PUSH32 0x8C379A000000000000000000000000000000000000000000000000000000000 DUP2 MSTORE PUSH1 0x4 ADD PUSH2 0x1440 SWAP1 PUSH2 0x2AF9 JUMP JUMPDEST PUSH1 0x40 MLOAD DUP1 SWAP2 SUB SWAP1 REVERT JUMPDEST CALLER PUSH1 0xB PUSH0 DUP4 DUP2 MSTORE PUSH1 0x20 ADD SWAP1 DUP2 MSTORE PUSH1 0x20 ADD PUSH0 KECCAK256 PUSH0 PUSH2 0x100 EXP DUP2 SLOAD DUP2 PUSH20 0xFFFFFFFFFFFFFFFFFFFFFFFFFFFFFFFFFFFFFFFF MUL NOT AND SWAP1 DUP4 PUSH20 0xFFFFFFFFFFFFFFFFFFFFFFFFFFFFFFFFFFFFFFFF AND MUL OR SWAP1 SSTORE POP PUSH1 0x1 PUSH1 0xA PUSH0 CALLER PUSH20 0xFFFFFFFFFFFFFFFFFFFFFFFFFFFFFFFFFFFFFFFF AND PUSH20 0xFFFFFFFFFFFFFFFFFFFFFFFFFFFFFFFFFFFFFFFF AND DUP2 MSTORE PUSH1 0x20 ADD SWAP1 DUP2 MSTORE PUSH1 0x20 ADD PUSH0 KECCAK256 PUSH0 PUSH2 0x100 EXP DUP2 SLOAD DUP2 PUSH1 0xFF MUL NOT AND SWAP1 DUP4 ISZERO ISZERO MUL OR SWAP1 SSTORE POP PUSH1 0x1 PUSH1 0x9 PUSH0 DUP4 DUP2 MSTORE PUSH1 0x20 ADD SWAP1 DUP2 MSTORE PUSH1 0x20 ADD PUSH0 KECCAK256 PUSH0 PUSH2 0x100 EXP DUP2 SLOAD DUP2 PUSH1 0xFF MUL NOT AND SWAP1 DUP4 ISZERO ISZERO MUL OR SWAP1 SSTORE POP POP JUMP JUMPDEST DUP1 CALLER PUSH20 0xFFFFFFFFFFFFFFFFFFFFFFFFFFFFFFFFFFFFFFFF AND PUSH0 DUP1 DUP4 DUP2 MSTORE PUSH1 0x20 ADD SWAP1 DUP2 MSTORE PUSH1 0x20 ADD PUSH0 KECCAK256 PUSH0 SWAP1 SLOAD SWAP1 PUSH2 0x100 EXP SWAP1 DIV PUSH20 0xFFFFFFFFFFFFFFFFFFFFFFFFFFFFFFFFFFFFFFFF AND PUSH20 0xFFFFFFFFFFFFFFFFFFFFFFFFFFFFFFFFFFFFFFFF AND EQ PUSH2 0x15B7 JUMPI PUSH1 0x40 MLOAD PUSH32 0x8C379A000000000000000000000000000000000000000000000000000000000 DUP2 MSTORE PUSH1 0x4 ADD PUSH2 0x15AE SWAP1 PUSH2 0x24DF JUMP JUMPDEST PUSH1 0x40 MLOAD DUP1 SWAP2 SUB SWAP1 REVERT JUMPDEST PUSH1 0x5 PUSH0 DUP4 DUP2 MSTORE PUSH1 0x20 ADD SWAP1 DUP2 MSTORE PUSH1 0x20 ADD PUSH0 KECCAK256 PUSH0 SWAP1 SLOAD SWAP1 PUSH2 0x100 EXP SWAP1 DIV PUSH1 0xFF AND ISZERO PUSH2 0x15DE JUMPI PUSH0 DUP1 REVERT JUMPDEST PUSH1 0x1 PUSH1 0x5 PUSH0 DUP5 DUP2 MSTORE PUSH1 0x20 ADD SWAP1 DUP2 MSTORE PUSH1 0x20 ADD PUSH0 KECCAK256 PUSH0 PUSH2 0x100 EXP DUP2 SLOAD DUP2 PUSH1 0xFF MUL NOT AND SWAP1 DUP4 ISZERO ISZERO MUL OR SWAP1 SSTORE POP PUSH0 PUSH1 0x1E TIMESTAMP PUSH2 0x1615 SWAP2 SWAP1 PUSH2 0x2606 JUMP JUMPDEST SWAP1 POP DUP1 PUSH1 0x8 PUSH0 DUP6 DUP2 MSTORE PUSH1 0x20 ADD SWAP1 DUP2 MSTORE PUSH1 0x20 ADD PUSH0 KECCAK256 DUP2 SWAP1 SSTORE POP POP POP POP JUMP JUMPDEST PUSH1 0x60 PUSH0 PUSH2 0x163D PUSH2 0x1E2C JUMP JUMPDEST SWAP1 POP PUSH1 0x3 DUP2 DUP2 SLOAD DUP2 LT PUSH2 0x1653 JUMPI PUSH2 0x1652 PUSH2 0x24FD JUMP JUMPDEST JUMPDEST SWAP1 PUSH0 MSTORE PUSH1 0x20 PUSH0 KECCAK256 SWAP1 PUSH1 0x9 MUL ADD PUSH1 0x3 ADD SLOAD PUSH1 0x3 DUP5 DUP2 SLOAD DUP2 LT PUSH2 0x1677 JUMPI PUSH2 0x1676 PUSH2 0x24FD JUMP JUMPDEST JUMPDEST SWAP1 PUSH0 MSTORE PUSH1 0x20 PUSH0 KECCAK256 SWAP1 PUSH1 0x9 MUL ADD PUSH1 0x3 ADD SLOAD GT ISZERO PUSH2 0x18C5 JUMPI PUSH1 0x3 DUP4 DUP2 SLOAD DUP2 LT PUSH2 0x16A1 JUMPI PUSH2 0x16A0 PUSH2 0x24FD JUMP JUMPDEST JUMPDEST SWAP1 PUSH0 MSTORE PUSH1 0x20 PUSH0 KECCAK256 SWAP1 PUSH1 0x9 MUL ADD PUSH1 0x3 ADD PUSH0 DUP2 SLOAD DUP1 SWAP3 SWAP2 SWAP1 PUSH2 0x16C0 SWAP1 PUSH2 0x2557 JUMP JUMPDEST SWAP2 SWAP1 POP SSTORE POP PUSH1 0x3 DUP4 DUP2 SLOAD DUP2 LT PUSH2 0x16D9 JUMPI PUSH2 0x16D8 PUSH2 0x24FD JUMP JUMPDEST JUMPDEST SWAP1 PUSH0 MSTORE PUSH1 0x20 PUSH0 KECCAK256 SWAP1 PUSH1 0x9 MUL ADD PUSH1 0x5 ADD PUSH0 DUP2 SLOAD DUP1 SWAP3 SWAP2 SWAP1 PUSH2 0x16F8 SWAP1 PUSH2 0x2557 JUMP JUMPDEST SWAP2 SWAP1 POP SSTORE POP PUSH1 0x3 DUP4 DUP2 SLOAD DUP2 LT PUSH2 0x1711 JUMPI PUSH2 0x1710 PUSH2 0x24FD JUMP JUMPDEST JUMPDEST SWAP1 PUSH0 MSTORE PUSH1 0x20 PUSH0 KECCAK256 SWAP1 PUSH1 0x9 MUL ADD PUSH1 0x6 ADD PUSH0 DUP2 SLOAD DUP1 SWAP3 SWAP2 SWAP1 PUSH2 0x1730 SWAP1 PUSH2 0x28E8 JUMP JUMPDEST SWAP2 SWAP1 POP SSTORE POP PUSH1 0x3 DUP4 DUP2 SLOAD DUP2 LT PUSH2 0x1749 JUMPI PUSH2 0x1748 PUSH2 0x24FD JUMP JUMPDEST JUMPDEST SWAP1 PUSH0 MSTORE PUSH1 0x20 PUSH0 KECCAK256 SWAP1 PUSH1 0x9 MUL ADD PUSH1 0x7 ADD PUSH0 DUP2 SLOAD DUP1 SWAP3 SWAP2 SWAP1 PUSH2 0x1768 SWAP1 PUSH2 0x2557 JUMP JUMPDEST SWAP2 SWAP1 POP SSTORE POP PUSH1 0x64 PUSH1 0x3 DUP5 DUP2 SLOAD DUP2 LT PUSH2 0x1783 JUMPI PUSH2 0x1782 PUSH2 0x24FD JUMP JUMPDEST JUMPDEST SWAP1 PUSH0 MSTORE PUSH1 0x20 PUSH0 KECCAK256 SWAP1 PUSH1 0x9 MUL ADD PUSH1 0x4 ADD PUSH0 DUP3 DUP3 SLOAD PUSH2 0x17A0 SWAP2 SWAP1 PUSH2 0x2606 JUMP JUMPDEST SWAP3 POP POP DUP2 SWAP1 SSTORE POP PUSH1 0x3 DUP2 DUP2 SLOAD DUP2 LT PUSH2 0x17BB JUMPI PUSH2 0x17BA PUSH2 0x24FD JUMP JUMPDEST JUMPDEST SWAP1 PUSH0 MSTORE PUSH1 0x20 PUSH0 KECCAK256 SWAP1 PUSH1 0x9 MUL ADD PUSH1 0x3 ADD PUSH0 DUP2 SLOAD DUP1 SWAP3 SWAP2 SWAP1 PUSH2 0x17DA SWAP1 PUSH2 0x28E8 JUMP JUMPDEST SWAP2 SWAP1 POP SSTORE POP PUSH1 0x3 DUP2 DUP2 SLOAD DUP2 LT PUSH2 0x17F3 JUMPI PUSH2 0x17F2 PUSH2 0x24FD JUMP JUMPDEST JUMPDEST SWAP1 PUSH0 MSTORE PUSH1 0x20 PUSH0 KECCAK256 SWAP1 PUSH1 0x9 MUL ADD PUSH1 0x5 ADD PUSH0 DUP2 SLOAD DUP1 SWAP3 SWAP2 SWAP1 PUSH2 0x1812 SWAP1 PUSH2 0x2557 JUMP JUMPDEST SWAP2 SWAP1 POP SSTORE POP PUSH1 0x3 DUP2 DUP2 SLOAD DUP2 LT PUSH2 0x182B JUMPI PUSH2 0x182A PUSH2 0x24FD JUMP JUMPDEST JUMPDEST SWAP1 PUSH0 MSTORE PUSH1 0x20 PUSH0 KECCAK256 SWAP1 PUSH1 0x9 MUL ADD PUSH1 0x6 ADD PUSH0 DUP2 SLOAD DUP1 SWAP3 SWAP2 SWAP1 PUSH2 0x184A SWAP1 PUSH2 0x28E8 JUMP JUMPDEST SWAP2 SWAP1 POP SSTORE POP PUSH1 0x3 DUP2 DUP2 SLOAD DUP2 LT PUSH2 0x1863 JUMPI PUSH2 0x1862 PUSH2 0x24FD JUMP JUMPDEST JUMPDEST SWAP1 PUSH0 MSTORE PUSH1 0x20 PUSH0 KECCAK256 SWAP1 PUSH1 0x9 MUL ADD PUSH1 0x8 ADD PUSH0 DUP2 SLOAD DUP1 SWAP3 SWAP2 SWAP1 PUSH2 0x1882 SWAP1 PUSH2 0x2557 JUMP JUMPDEST SWAP2 SWAP1 POP SSTORE POP PUSH1 0x40 MLOAD DUP1 PUSH1 0x40 ADD PUSH1 0x40 MSTORE DUP1 PUSH1 0xE DUP2 MSTORE PUSH1 0x20 ADD PUSH32 0x436F6E67726174732057696E732E000000000000000000000000000000000000 DUP2 MSTORE POP SWAP2 POP POP PUSH2 0x1C48 JUMP JUMPDEST PUSH1 0x3 DUP4 DUP2 SLOAD DUP2 LT PUSH2 0x18D9 JUMPI PUSH2 0x18D8 PUSH2 0x24FD JUMP JUMPDEST JUMPDEST SWAP1 PUSH0 MSTORE PUSH1 0x20 PUSH0 KECCAK256 SWAP1 PUSH1 0x9 MUL ADD PUSH1 0x3 ADD SLOAD PUSH1 0x3 DUP3 DUP2 SLOAD DUP2 LT PUSH2 0x18FD JUMPI PUSH2 0x18FC PUSH2 0x24FD JUMP JUMPDEST JUMPDEST SWAP1 PUSH0 MSTORE PUSH1 0x20 PUSH0 KECCAK256 SWAP1 PUSH1 0x9 MUL ADD PUSH1 0x3 ADD SLOAD GT ISZERO PUSH2 0x1B2E JUMPI PUSH1 0x3 DUP2 DUP2 SLOAD DUP2 LT PUSH2 0x1927 JUMPI PUSH2 0x1926 PUSH2 0x24FD JUMP JUMPDEST JUMPDEST SWAP1 PUSH0 MSTORE PUSH1 0x20 PUSH0 KECCAK256 SWAP1 PUSH1 0x9 MUL ADD PUSH1 0x3 ADD PUSH0 DUP2 SLOAD DUP1 SWAP3 SWAP2 SWAP1 PUSH2 0x1946 SWAP1 PUSH2 0x2557 JUMP JUMPDEST SWAP2 SWAP1 POP SSTORE POP PUSH1 0x3 DUP2 DUP2 SLOAD DUP2 LT PUSH2 0x195F JUMPI PUSH2 0x195E PUSH2 0x24FD JUMP JUMPDEST JUMPDEST SWAP1 PUSH0 MSTORE PUSH1 0x20 PUSH0 KECCAK256 SWAP1 PUSH1 0x9 MUL ADD PUSH1 0x5 ADD PUSH0 DUP2 SLOAD DUP1 SWAP3 SWAP2 SWAP1 PUSH2 0x197E SWAP1 PUSH2 0x2557 JUMP JUMPDEST SWAP2 SWAP1 POP SSTORE POP PUSH1 0x3 DUP2 DUP2 SLOAD DUP2 LT PUSH2 0x1997 JUMPI PUSH2 0x1996 PUSH2 0x24FD JUMP JUMPDEST JUMPDEST SWAP1 PUSH0 MSTORE PUSH1 0x20 PUSH0 KECCAK256 SWAP1 PUSH1 0x9 MUL ADD PUSH1 0x6 ADD PUSH0 DUP2 SLOAD DUP1 SWAP3 SWAP2 SWAP1 PUSH2 0x19B6 SWAP1 PUSH2 0x28E8 JUMP JUMPDEST SWAP2 SWAP1 POP SSTORE POP PUSH1 0x3 DUP2 DUP2 SLOAD DUP2 LT PUSH2 0x19CF JUMPI PUSH2 0x19CE PUSH2 0x24FD JUMP JUMPDEST JUMPDEST SWAP1 PUSH0 MSTORE PUSH1 0x20 PUSH0 KECCAK256 SWAP1 PUSH1 0x9 MUL ADD PUSH1 0x7 ADD PUSH0 DUP2 SLOAD DUP1 SWAP3 SWAP2 SWAP1 PUSH2 0x19EE SWAP1 PUSH2 0x2557 JUMP JUMPDEST SWAP2 SWAP1 POP SSTORE POP PUSH1 0x64 PUSH1 0x3 DUP3 DUP2 SLOAD DUP2 LT PUSH2 0x1A09 JUMPI PUSH2 0x1A08 PUSH2 0x24FD JUMP JUMPDEST JUMPDEST SWAP1 PUSH0 MSTORE PUSH1 0x20 PUSH0 KECCAK256 SWAP1 PUSH1 0x9 MUL ADD PUSH1 0x4 ADD PUSH0 DUP3 DUP3 SLOAD PUSH2 0x1A26 SWAP2 SWAP1 PUSH2 0x2606 JUMP JUMPDEST SWAP3 POP POP DUP2 SWAP1 SSTORE POP PUSH1 0x3 DUP4 DUP2 SLOAD DUP2 LT PUSH2 0x1A41 JUMPI PUSH2 0x1A40 PUSH2 0x24FD JUMP JUMPDEST JUMPDEST SWAP1 PUSH0 MSTORE PUSH1 0x20 PUSH0 KECCAK256 SWAP1 PUSH1 0x9 MUL ADD PUSH1 0x3 ADD PUSH0 DUP2 SLOAD DUP1 SWAP3 SWAP2 SWAP1 PUSH2 0x1A60 SWAP1 PUSH2 0x28E8 JUMP JUMPDEST SWAP2 SWAP1 POP SSTORE POP PUSH1 0x3 DUP4 DUP2 SLOAD DUP2 LT PUSH2 0x1A79 JUMPI PUSH2 0x1A78 PUSH2 0x24FD JUMP JUMPDEST JUMPDEST SWAP1 PUSH0 MSTORE PUSH1 0x20 PUSH0 KECCAK256 SWAP1 PUSH1 0x9 MUL ADD PUSH1 0x5 ADD PUSH0 DUP2 SLOAD DUP1 SWAP3 SWAP2 SWAP1 PUSH2 0x1A98 SWAP1 PUSH2 0x2557 JUMP JUMPDEST SWAP2 SWAP1 POP SSTORE POP PUSH1 0x3 DUP4 DUP2 SLOAD DUP2 LT PUSH2 0x1AB1 JUMPI PUSH2 0x1AB0 PUSH2 0x24FD JUMP JUMPDEST JUMPDEST SWAP1 PUSH0 MSTORE PUSH1 0x20 PUSH0 KECCAK256 SWAP1 PUSH1 0x9 MUL ADD PUSH1 0x6 ADD PUSH0 DUP2 SLOAD DUP1 SWAP3 SWAP2 SWAP1 PUSH2 0x1AD0 SWAP1 PUSH2 0x28E8 JUMP JUMPDEST SWAP2 SWAP1 POP SSTORE POP PUSH1 0x3 DUP4 DUP2 SLOAD DUP2 LT PUSH2 0x1AE9 JUMPI PUSH2 0x1AE8 PUSH2 0x24FD JUMP JUMPDEST JUMPDEST SWAP1 PUSH0 MSTORE PUSH1 0x20 PUSH0 KECCAK256 SWAP1 PUSH1 0x9 MUL ADD PUSH1 0x8 ADD PUSH0 DUP2 SLOAD DUP1 SWAP3 SWAP2 SWAP1 PUSH2 0x1B08 SWAP1 PUSH2 0x2557 JUMP JUMPDEST SWAP2 SWAP1 POP SSTORE POP PUSH1 0x40 MLOAD DUP1 PUSH1 0x60 ADD PUSH1 0x40 MSTORE DUP1 PUSH1 0x31 DUP2 MSTORE PUSH1 0x20 ADD PUSH2 0x2EAF PUSH1 0x31 SWAP2 CODECOPY SWAP2 POP POP PUSH2 0x1C48 JUMP JUMPDEST PUSH1 0x3 DUP2 DUP2 SLOAD DUP2 LT PUSH2 0x1B42 JUMPI PUSH2 0x1B41 PUSH2 0x24FD JUMP JUMPDEST JUMPDEST SWAP1 PUSH0 MSTORE PUSH1 0x20 PUSH0 KECCAK256 SWAP1 PUSH1 0x9 MUL ADD PUSH1 0x5 ADD PUSH0 DUP2 SLOAD DUP1 SWAP3 SWAP2 SWAP1 PUSH2 0x1B61 SWAP1 PUSH2 0x2557 JUMP JUMPDEST SWAP2 SWAP1 POP SSTORE POP PUSH1 0x3 DUP4 DUP2 SLOAD DUP2 LT PUSH2 0x1B7A JUMPI PUSH2 0x1B79 PUSH2 0x24FD JUMP JUMPDEST JUMPDEST SWAP1 PUSH0 MSTORE PUSH1 0x20 PUSH0 KECCAK256 SWAP1 PUSH1 0x9 MUL ADD PUSH1 0x5 ADD PUSH0 DUP2 SLOAD DUP1 SWAP3 SWAP2 SWAP1 PUSH2 0x1B99 SWAP1 PUSH2 0x2557 JUMP JUMPDEST SWAP2 SWAP1 POP SSTORE POP PUSH1 0x3 DUP4 DUP2 SLOAD DUP2 LT PUSH2 0x1BB2 JUMPI PUSH2 0x1BB1 PUSH2 0x24FD JUMP JUMPDEST JUMPDEST SWAP1 PUSH0 MSTORE PUSH1 0x20 PUSH0 KECCAK256 SWAP1 PUSH1 0x9 MUL ADD PUSH1 0x6 ADD PUSH0 DUP2 SLOAD DUP1 SWAP3 SWAP2 SWAP1 PUSH2 0x1BD1 SWAP1 PUSH2 0x28E8 JUMP JUMPDEST SWAP2 SWAP1 POP SSTORE POP PUSH1 0x3 DUP2 DUP2 SLOAD DUP2 LT PUSH2 0x1BEA JUMPI PUSH2 0x1BE9 PUSH2 0x24FD JUMP JUMPDEST JUMPDEST SWAP1 PUSH0 MSTORE PUSH1 0x20 PUSH0 KECCAK256 SWAP1 PUSH1 0x9 MUL ADD PUSH1 0x6 ADD PUSH0 DUP2 SLOAD DUP1 SWAP3 SWAP2 SWAP1 PUSH2 0x1C09 SWAP1 PUSH2 0x28E8 JUMP JUMPDEST SWAP2 SWAP1 POP SSTORE POP PUSH1 0x40 MLOAD DUP1 PUSH1 0x40 ADD PUSH1 0x40 MSTORE DUP1 PUSH1 0xF DUP2 MSTORE PUSH1 0x20 ADD PUSH32 0x447261772054727920416761696E2E0000000000000000000000000000000000 DUP2 MSTORE POP SWAP2 POP POP JUMPDEST SWAP2 SWAP1 POP JUMP JUMPDEST PUSH0 DUP1 DUP3 PUSH1 0x40 MLOAD PUSH1 0x20 ADD PUSH2 0x1C60 SWAP2 SWAP1 PUSH2 0x2B51 JUMP JUMPDEST PUSH1 0x40 MLOAD PUSH1 0x20 DUP2 DUP4 SUB SUB DUP2 MSTORE SWAP1 PUSH1 0x40 MSTORE DUP1 MLOAD SWAP1 PUSH1 0x20 ADD KECCAK256 PUSH0 SHR SWAP1 POP PUSH1 0x2 SLOAD DUP2 PUSH2 0x1C88 SWAP2 SWAP1 PUSH2 0x2B94 JUMP JUMPDEST SWAP2 POP POP SWAP2 SWAP1 POP JUMP JUMPDEST PUSH1 0x3 PUSH1 0x40 MLOAD DUP1 PUSH2 0x120 ADD PUSH1 0x40 MSTORE DUP1 DUP12 DUP2 MSTORE PUSH1 0x20 ADD DUP11 DUP2 MSTORE PUSH1 0x20 ADD DUP10 DUP2 MSTORE PUSH1 0x20 ADD DUP9 DUP2 MSTORE PUSH1 0x20 ADD DUP8 DUP2 MSTORE PUSH1 0x20 ADD DUP7 DUP2 MSTORE PUSH1 0x20 ADD DUP6 DUP2 MSTORE PUSH1 0x20 ADD DUP5 DUP2 MSTORE PUSH1 0x20 ADD DUP4 DUP2 MSTORE POP SWAP1 DUP1 PUSH1 0x1 DUP2 SLOAD ADD DUP1 DUP3 SSTORE DUP1 SWAP2 POP POP PUSH1 0x1 SWAP1 SUB SWAP1 PUSH0 MSTORE PUSH1 0x20 PUSH0 KECCAK256 SWAP1 PUSH1 0x9 MUL ADD PUSH0 SWAP1 SWAP2 SWAP1 SWAP2 SWAP1 SWAP2 POP PUSH0 DUP3 ADD MLOAD DUP2 PUSH0 ADD SWAP1 DUP2 PUSH2 0x1D0B SWAP2 SWAP1 PUSH2 0x2D61 JUMP JUMPDEST POP PUSH1 0x20 DUP3 ADD MLOAD DUP2 PUSH1 0x1 ADD SWAP1 DUP2 PUSH2 0x1D21 SWAP2 SWAP1 PUSH2 0x2D61 JUMP JUMPDEST POP PUSH1 0x40 DUP3 ADD MLOAD DUP2 PUSH1 0x2 ADD SSTORE PUSH1 0x60 DUP3 ADD MLOAD DUP2 PUSH1 0x3 ADD SSTORE PUSH1 0x80 DUP3 ADD MLOAD DUP2 PUSH1 0x4 ADD SSTORE PUSH1 0xA0 DUP3 ADD MLOAD DUP2 PUSH1 0x5 ADD SSTORE PUSH1 0xC0 DUP3 ADD MLOAD DUP2 PUSH1 0x6 ADD SSTORE PUSH1 0xE0 DUP3 ADD MLOAD DUP2 PUSH1 0x7 ADD SSTORE PUSH2 0x100 DUP3 ADD MLOAD DUP2 PUSH1 0x8 ADD SSTORE POP POP PUSH0 PUSH1 0x1 PUSH1 0x3 DUP1 SLOAD SWAP1 POP PUSH2 0x1D7E SWAP2 SWAP1 PUSH2 0x2E30 JUMP JUMPDEST SWAP1 POP PUSH1 0x1 PUSH0 CALLER PUSH20 0xFFFFFFFFFFFFFFFFFFFFFFFFFFFFFFFFFFFFFFFF AND PUSH20 0xFFFFFFFFFFFFFFFFFFFFFFFFFFFFFFFFFFFFFFFF AND DUP2 MSTORE PUSH1 0x20 ADD SWAP1 DUP2 MSTORE PUSH1 0x20 ADD PUSH0 KECCAK256 PUSH0 DUP2 SLOAD DUP1 SWAP3 SWAP2 SWAP1 PUSH2 0x1DCD SWAP1 PUSH2 0x2557 JUMP JUMPDEST SWAP2 SWAP1 POP SSTORE POP CALLER PUSH0 DUP1 DUP4 DUP2 MSTORE PUSH1 0x20 ADD SWAP1 DUP2 MSTORE PUSH1 0x20 ADD PUSH0 KECCAK256 PUSH0 PUSH2 0x100 EXP DUP2 SLOAD DUP2 PUSH20 0xFFFFFFFFFFFFFFFFFFFFFFFFFFFFFFFFFFFFFFFF MUL NOT AND SWAP1 DUP4 PUSH20 0xFFFFFFFFFFFFFFFFFFFFFFFFFFFFFFFFFFFFFFFF AND MUL OR SWAP1 SSTORE POP POP POP POP POP POP POP POP POP POP POP JUMP JUMPDEST PUSH0 DUP1 PUSH1 0x3 DUP1 SLOAD SWAP1 POP SWAP1 POP PUSH0 DUP2 DUP3 TIMESTAMP PUSH1 0x40 MLOAD PUSH1 0x20 ADD PUSH2 0x1E4B SWAP3 SWAP2 SWAP1 PUSH2 0x2E83 JUMP JUMPDEST PUSH1 0x40 MLOAD PUSH1 0x20 DUP2 DUP4 SUB SUB DUP2 MSTORE SWAP1 PUSH1 0x40 MSTORE DUP1 MLOAD SWAP1 PUSH1 0x20 ADD KECCAK256 PUSH0 SHR PUSH2 0x1E6D SWAP2 SWAP1 PUSH2 0x2B94 JUMP JUMPDEST SWAP1 POP DUP1 SWAP3 POP POP POP SWAP1 JUMP JUMPDEST PUSH1 0x40 MLOAD DUP1 PUSH2 0x120 ADD PUSH1 0x40 MSTORE DUP1 PUSH1 0x60 DUP2 MSTORE PUSH1 0x20 ADD PUSH1 0x60 DUP2 MSTORE PUSH1 0x20 ADD PUSH0 DUP2 MSTORE PUSH1 0x20 ADD PUSH0 DUP2 MSTORE PUSH1 0x20 ADD PUSH0 DUP2 MSTORE PUSH1 0x20 ADD PUSH0 DUP2 MSTORE PUSH1 0x20 ADD PUSH0 DUP2 MSTORE PUSH1 0x20 ADD PUSH0 DUP2 MSTORE PUSH1 0x20 ADD PUSH0 DUP2 MSTORE POP SWAP1 JUMP JUMPDEST PUSH0 PUSH1 0x40 MLOAD SWAP1 POP SWAP1 JUMP JUMPDEST PUSH0 DUP1 REVERT JUMPDEST PUSH0 DUP1 REVERT JUMPDEST PUSH0 PUSH20 0xFFFFFFFFFFFFFFFFFFFFFFFFFFFFFFFFFFFFFFFF DUP3 AND SWAP1 POP SWAP2 SWAP1 POP JUMP JUMPDEST PUSH0 PUSH2 0x1EF6 DUP3 PUSH2 0x1ECD JUMP JUMPDEST SWAP1 POP SWAP2 SWAP1 POP JUMP JUMPDEST PUSH2 0x1F06 DUP2 PUSH2 0x1EEC JUMP JUMPDEST DUP2 EQ PUSH2 0x1F10 JUMPI PUSH0 DUP1 REVERT JUMPDEST POP JUMP JUMPDEST PUSH0 DUP2 CALLDATALOAD SWAP1 POP PUSH2 0x1F21 DUP2 PUSH2 0x1EFD JUMP JUMPDEST SWAP3 SWAP2 POP POP JUMP JUMPDEST PUSH0 DUP2 SWAP1 POP SWAP2 SWAP1 POP JUMP JUMPDEST PUSH2 0x1F39 DUP2 PUSH2 0x1F27 JUMP JUMPDEST DUP2 EQ PUSH2 0x1F43 JUMPI PUSH0 DUP1 REVERT JUMPDEST POP JUMP JUMPDEST PUSH0 DUP2 CALLDATALOAD SWAP1 POP PUSH2 0x1F54 DUP2 PUSH2 0x1F30 JUMP JUMPDEST SWAP3 SWAP2 POP POP JUMP JUMPDEST PUSH0 DUP1 PUSH1 0x40 DUP4 DUP6 SUB SLT ISZERO PUSH2 0x1F70 JUMPI PUSH2 0x1F6F PUSH2 0x1EC5 JUMP JUMPDEST JUMPDEST PUSH0 PUSH2 0x1F7D DUP6 DUP3 DUP7 ADD PUSH2 0x1F13 JUMP JUMPDEST SWAP3 POP POP PUSH1 0x20 PUSH2 0x1F8E DUP6 DUP3 DUP7 ADD PUSH2 0x1F46 JUMP JUMPDEST SWAP2 POP POP SWAP3 POP SWAP3 SWAP1 POP JUMP JUMPDEST PUSH0 PUSH1 0x20 DUP3 DUP5 SUB SLT ISZERO PUSH2 0x1FAD JUMPI PUSH2 0x1FAC PUSH2 0x1EC5 JUMP JUMPDEST JUMPDEST PUSH0 PUSH2 0x1FBA DUP5 DUP3 DUP6 ADD PUSH2 0x1F13 JUMP JUMPDEST SWAP2 POP POP SWAP3 SWAP2 POP POP JUMP JUMPDEST PUSH0 DUP2 MLOAD SWAP1 POP SWAP2 SWAP1 POP JUMP JUMPDEST PUSH0 DUP3 DUP3 MSTORE PUSH1 0x20 DUP3 ADD SWAP1 POP SWAP3 SWAP2 POP POP JUMP JUMPDEST PUSH0 DUP2 SWAP1 POP PUSH1 0x20 DUP3 ADD SWAP1 POP SWAP2 SWAP1 POP JUMP JUMPDEST PUSH2 0x1FF5 DUP2 PUSH2 0x1F27 JUMP JUMPDEST DUP3 MSTORE POP POP JUMP JUMPDEST PUSH0 PUSH2 0x2006 DUP4 DUP4 PUSH2 0x1FEC JUMP JUMPDEST PUSH1 0x20 DUP4 ADD SWAP1 POP SWAP3 SWAP2 POP POP JUMP JUMPDEST PUSH0 PUSH1 0x20 DUP3 ADD SWAP1 POP SWAP2 SWAP1 POP JUMP JUMPDEST PUSH0 PUSH2 0x2028 DUP3 PUSH2 0x1FC3 JUMP JUMPDEST PUSH2 0x2032 DUP2 DUP6 PUSH2 0x1FCD JUMP JUMPDEST SWAP4 POP PUSH2 0x203D DUP4 PUSH2 0x1FDD JUMP JUMPDEST DUP1 PUSH0 JUMPDEST DUP4 DUP2 LT ISZERO PUSH2 0x206D JUMPI DUP2 MLOAD PUSH2 0x2054 DUP9 DUP3 PUSH2 0x1FFB JUMP JUMPDEST SWAP8 POP PUSH2 0x205F DUP4 PUSH2 0x2012 JUMP JUMPDEST SWAP3 POP POP PUSH1 0x1 DUP2 ADD SWAP1 POP PUSH2 0x2040 JUMP JUMPDEST POP DUP6 SWAP4 POP POP POP POP SWAP3 SWAP2 POP POP JUMP JUMPDEST PUSH0 PUSH1 0x20 DUP3 ADD SWAP1 POP DUP2 DUP2 SUB PUSH0 DUP4 ADD MSTORE PUSH2 0x2092 DUP2 DUP5 PUSH2 0x201E JUMP JUMPDEST SWAP1 POP SWAP3 SWAP2 POP POP JUMP JUMPDEST PUSH0 PUSH1 0x20 DUP3 DUP5 SUB SLT ISZERO PUSH2 0x20AF JUMPI PUSH2 0x20AE PUSH2 0x1EC5 JUMP JUMPDEST JUMPDEST PUSH0 PUSH2 0x20BC DUP5 DUP3 DUP6 ADD PUSH2 0x1F46 JUMP JUMPDEST SWAP2 POP POP SWAP3 SWAP2 POP POP JUMP JUMPDEST PUSH0 DUP1 PUSH0 PUSH1 0x60 DUP5 DUP7 SUB SLT ISZERO PUSH2 0x20DC JUMPI PUSH2 0x20DB PUSH2 0x1EC5 JUMP JUMPDEST JUMPDEST PUSH0 PUSH2 0x20E9 DUP7 DUP3 DUP8 ADD PUSH2 0x1F13 JUMP JUMPDEST SWAP4 POP POP PUSH1 0x20 PUSH2 0x20FA DUP7 DUP3 DUP8 ADD PUSH2 0x1F13 JUMP JUMPDEST SWAP3 POP POP PUSH1 0x40 PUSH2 0x210B DUP7 DUP3 DUP8 ADD PUSH2 0x1F46 JUMP JUMPDEST SWAP2 POP POP SWAP3 POP SWAP3 POP SWAP3 JUMP JUMPDEST PUSH0 DUP2 ISZERO ISZERO SWAP1 POP SWAP2 SWAP1 POP JUMP JUMPDEST PUSH2 0x2129 DUP2 PUSH2 0x2115 JUMP JUMPDEST DUP3 MSTORE POP POP JUMP JUMPDEST PUSH0 PUSH1 0x20 DUP3 ADD SWAP1 POP PUSH2 0x2142 PUSH0 DUP4 ADD DUP5 PUSH2 0x2120 JUMP JUMPDEST SWAP3 SWAP2 POP POP JUMP JUMPDEST PUSH0 DUP2 MLOAD SWAP1 POP SWAP2 SWAP1 POP JUMP JUMPDEST PUSH0 DUP3 DUP3 MSTORE PUSH1 0x20 DUP3 ADD SWAP1 POP SWAP3 SWAP2 POP POP JUMP JUMPDEST PUSH0 JUMPDEST DUP4 DUP2 LT ISZERO PUSH2 0x217F JUMPI DUP1 DUP3 ADD MLOAD DUP2 DUP5 ADD MSTORE PUSH1 0x20 DUP2 ADD SWAP1 POP PUSH2 0x2164 JUMP JUMPDEST PUSH0 DUP5 DUP5 ADD MSTORE POP POP POP POP JUMP JUMPDEST PUSH0 PUSH1 0x1F NOT PUSH1 0x1F DUP4 ADD AND SWAP1 POP SWAP2 SWAP1 POP JUMP JUMPDEST PUSH0 PUSH2 0x21A4 DUP3 PUSH2 0x2148 JUMP JUMPDEST PUSH2 0x21AE DUP2 DUP6 PUSH2 0x2152 JUMP JUMPDEST SWAP4 POP PUSH2 0x21BE DUP2 DUP6 PUSH1 0x20 DUP7 ADD PUSH2 0x2162 JUMP JUMPDEST PUSH2 0x21C7 DUP2 PUSH2 0x218A JUMP JUMPDEST DUP5 ADD SWAP2 POP POP SWAP3 SWAP2 POP POP JUMP JUMPDEST PUSH0 PUSH2 0x120 DUP4 ADD PUSH0 DUP4 ADD MLOAD DUP5 DUP3 SUB PUSH0 DUP7 ADD MSTORE PUSH2 0x21ED DUP3 DUP3 PUSH2 0x219A JUMP JUMPDEST SWAP2 POP POP PUSH1 0x20 DUP4 ADD MLOAD DUP5 DUP3 SUB PUSH1 0x20 DUP7 ADD MSTORE PUSH2 0x2207 DUP3 DUP3 PUSH2 0x219A JUMP JUMPDEST SWAP2 POP POP PUSH1 0x40 DUP4 ADD MLOAD PUSH2 0x221C PUSH1 0x40 DUP7 ADD DUP3 PUSH2 0x1FEC JUMP JUMPDEST POP PUSH1 0x60 DUP4 ADD MLOAD PUSH2 0x222F PUSH1 0x60 DUP7 ADD DUP3 PUSH2 0x1FEC JUMP JUMPDEST POP PUSH1 0x80 DUP4 ADD MLOAD PUSH2 0x2242 PUSH1 0x80 DUP7 ADD DUP3 PUSH2 0x1FEC JUMP JUMPDEST POP PUSH1 0xA0 DUP4 ADD MLOAD PUSH2 0x2255 PUSH1 0xA0 DUP7 ADD DUP3 PUSH2 0x1FEC JUMP JUMPDEST POP PUSH1 0xC0 DUP4 ADD MLOAD PUSH2 0x2268 PUSH1 0xC0 DUP7 ADD DUP3 PUSH2 0x1FEC JUMP JUMPDEST POP PUSH1 0xE0 DUP4 ADD MLOAD PUSH2 0x227B PUSH1 0xE0 DUP7 ADD DUP3 PUSH2 0x1FEC JUMP JUMPDEST POP PUSH2 0x100 DUP4 ADD MLOAD PUSH2 0x2290 PUSH2 0x100 DUP7 ADD DUP3 PUSH2 0x1FEC JUMP JUMPDEST POP DUP1 SWAP2 POP POP SWAP3 SWAP2 POP POP JUMP JUMPDEST PUSH0 PUSH1 0x20 DUP3 ADD SWAP1 POP DUP2 DUP2 SUB PUSH0 DUP4 ADD MSTORE PUSH2 0x22B3 DUP2 DUP5 PUSH2 0x21D2 JUMP JUMPDEST SWAP1 POP SWAP3 SWAP2 POP POP JUMP JUMPDEST PUSH2 0x22C4 DUP2 PUSH2 0x1EEC JUMP JUMPDEST DUP3 MSTORE POP POP JUMP JUMPDEST PUSH0 PUSH1 0x20 DUP3 ADD SWAP1 POP PUSH2 0x22DD PUSH0 DUP4 ADD DUP5 PUSH2 0x22BB JUMP JUMPDEST SWAP3 SWAP2 POP POP JUMP JUMPDEST PUSH0 DUP1 REVERT JUMPDEST PUSH0 DUP1 REVERT JUMPDEST PUSH32 0x4E487B7100000000000000000000000000000000000000000000000000000000 PUSH0 MSTORE PUSH1 0x41 PUSH1 0x4 MSTORE PUSH1 0x24 PUSH0 REVERT JUMPDEST PUSH2 0x2321 DUP3 PUSH2 0x218A JUMP JUMPDEST DUP2 ADD DUP2 DUP2 LT PUSH8 0xFFFFFFFFFFFFFFFF DUP3 GT OR ISZERO PUSH2 0x2340 JUMPI PUSH2 0x233F PUSH2 0x22EB JUMP JUMPDEST JUMPDEST DUP1 PUSH1 0x40 MSTORE POP POP POP JUMP JUMPDEST PUSH0 PUSH2 0x2352 PUSH2 0x1EBC JUMP JUMPDEST SWAP1 POP PUSH2 0x235E DUP3 DUP3 PUSH2 0x2318 JUMP JUMPDEST SWAP2 SWAP1 POP JUMP JUMPDEST PUSH0 PUSH8 0xFFFFFFFFFFFFFFFF DUP3 GT ISZERO PUSH2 0x237D JUMPI PUSH2 0x237C PUSH2 0x22EB JUMP JUMPDEST JUMPDEST PUSH2 0x2386 DUP3 PUSH2 0x218A JUMP JUMPDEST SWAP1 POP PUSH1 0x20 DUP2 ADD SWAP1 POP SWAP2 SWAP1 POP JUMP JUMPDEST DUP3 DUP2 DUP4 CALLDATACOPY PUSH0 DUP4 DUP4 ADD MSTORE POP POP POP JUMP JUMPDEST PUSH0 PUSH2 0x23B3 PUSH2 0x23AE DUP5 PUSH2 0x2363 JUMP JUMPDEST PUSH2 0x2349 JUMP JUMPDEST SWAP1 POP DUP3 DUP2 MSTORE PUSH1 0x20 DUP2 ADD DUP5 DUP5 DUP5 ADD GT ISZERO PUSH2 0x23CF JUMPI PUSH2 0x23CE PUSH2 0x22E7 JUMP JUMPDEST JUMPDEST PUSH2 0x23DA DUP5 DUP3 DUP6 PUSH2 0x2393 JUMP JUMPDEST POP SWAP4 SWAP3 POP POP POP JUMP JUMPDEST PUSH0 DUP3 PUSH1 0x1F DUP4 ADD SLT PUSH2 0x23F6 JUMPI PUSH2 0x23F5 PUSH2 0x22E3 JUMP JUMPDEST JUMPDEST DUP2 CALLDATALOAD PUSH2 0x2406 DUP5 DUP3 PUSH1 0x20 DUP7 ADD PUSH2 0x23A1 JUMP JUMPDEST SWAP2 POP POP SWAP3 SWAP2 POP POP JUMP JUMPDEST PUSH0 DUP1 PUSH1 0x40 DUP4 DUP6 SUB SLT ISZERO PUSH2 0x2425 JUMPI PUSH2 0x2424 PUSH2 0x1EC5 JUMP JUMPDEST JUMPDEST PUSH0 DUP4 ADD CALLDATALOAD PUSH8 0xFFFFFFFFFFFFFFFF DUP2 GT ISZERO PUSH2 0x2442 JUMPI PUSH2 0x2441 PUSH2 0x1EC9 JUMP JUMPDEST JUMPDEST PUSH2 0x244E DUP6 DUP3 DUP7 ADD PUSH2 0x23E2 JUMP JUMPDEST SWAP3 POP POP PUSH1 0x20 DUP4 ADD CALLDATALOAD PUSH8 0xFFFFFFFFFFFFFFFF DUP2 GT ISZERO PUSH2 0x246F JUMPI PUSH2 0x246E PUSH2 0x1EC9 JUMP JUMPDEST JUMPDEST PUSH2 0x247B DUP6 DUP3 DUP7 ADD PUSH2 0x23E2 JUMP JUMPDEST SWAP2 POP POP SWAP3 POP SWAP3 SWAP1 POP JUMP JUMPDEST PUSH0 DUP3 DUP3 MSTORE PUSH1 0x20 DUP3 ADD SWAP1 POP SWAP3 SWAP2 POP POP JUMP JUMPDEST PUSH32 0x4F6E6C79204F776E65722E000000000000000000000000000000000000000000 PUSH0 DUP3 ADD MSTORE POP JUMP JUMPDEST PUSH0 PUSH2 0x24C9 PUSH1 0xB DUP4 PUSH2 0x2485 JUMP JUMPDEST SWAP2 POP PUSH2 0x24D4 DUP3 PUSH2 0x2495 JUMP JUMPDEST PUSH1 0x20 DUP3 ADD SWAP1 POP SWAP2 SWAP1 POP JUMP JUMPDEST PUSH0 PUSH1 0x20 DUP3 ADD SWAP1 POP DUP2 DUP2 SUB PUSH0 DUP4 ADD MSTORE PUSH2 0x24F6 DUP2 PUSH2 0x24BD JUMP JUMPDEST SWAP1 POP SWAP2 SWAP1 POP JUMP JUMPDEST PUSH32 0x4E487B7100000000000000000000000000000000000000000000000000000000 PUSH0 MSTORE PUSH1 0x32 PUSH1 0x4 MSTORE PUSH1 0x24 PUSH0 REVERT JUMPDEST PUSH32 0x4E487B7100000000000000000000000000000000000000000000000000000000 PUSH0 MSTORE PUSH1 0x11 PUSH1 0x4 MSTORE PUSH1 0x24 PUSH0 REVERT JUMPDEST PUSH0 PUSH2 0x2561 DUP3 PUSH2 0x1F27 JUMP JUMPDEST SWAP2 POP PUSH32 0xFFFFFFFFFFFFFFFFFFFFFFFFFFFFFFFFFFFFFFFFFFFFFFFFFFFFFFFFFFFFFFFF DUP3 SUB PUSH2 0x2593 JUMPI PUSH2 0x2592 PUSH2 0x252A JUMP JUMPDEST JUMPDEST PUSH1 0x1 DUP3 ADD SWAP1 POP SWAP2 SWAP1 POP JUMP JUMPDEST PUSH32 0x4E6F77206964206973206E6F74206F6E2072656E742E00000000000000000000 PUSH0 DUP3 ADD MSTORE POP JUMP JUMPDEST PUSH0 PUSH2 0x25D2 PUSH1 0x16 DUP4 PUSH2 0x2485 JUMP JUMPDEST SWAP2 POP PUSH2 0x25DD DUP3 PUSH2 0x259E JUMP JUMPDEST PUSH1 0x20 DUP3 ADD SWAP1 POP SWAP2 SWAP1 POP JUMP JUMPDEST PUSH0 PUSH1 0x20 DUP3 ADD SWAP1 POP DUP2 DUP2 SUB PUSH0 DUP4 ADD MSTORE PUSH2 0x25FF DUP2 PUSH2 0x25C6 JUMP JUMPDEST SWAP1 POP SWAP2 SWAP1 POP JUMP JUMPDEST PUSH0 PUSH2 0x2610 DUP3 PUSH2 0x1F27 JUMP JUMPDEST SWAP2 POP PUSH2 0x261B DUP4 PUSH2 0x1F27 JUMP JUMPDEST SWAP3 POP DUP3 DUP3 ADD SWAP1 POP DUP1 DUP3 GT ISZERO PUSH2 0x2633 JUMPI PUSH2 0x2632 PUSH2 0x252A JUMP JUMPDEST JUMPDEST SWAP3 SWAP2 POP POP JUMP JUMPDEST PUSH32 0x596F7520646F6E742068617665206E66742E0000000000000000000000000000 PUSH0 DUP3 ADD MSTORE POP JUMP JUMPDEST PUSH0 PUSH2 0x266D PUSH1 0x12 DUP4 PUSH2 0x2485 JUMP JUMPDEST SWAP2 POP PUSH2 0x2678 DUP3 PUSH2 0x2639 JUMP JUMPDEST PUSH1 0x20 DUP3 ADD SWAP1 POP SWAP2 SWAP1 POP JUMP JUMPDEST PUSH0 PUSH1 0x20 DUP3 ADD SWAP1 POP DUP2 DUP2 SUB PUSH0 DUP4 ADD MSTORE PUSH2 0x269A DUP2 PUSH2 0x2661 JUMP JUMPDEST SWAP1 POP SWAP2 SWAP1 POP JUMP JUMPDEST PUSH32 0x4E487B7100000000000000000000000000000000000000000000000000000000 PUSH0 MSTORE PUSH1 0x22 PUSH1 0x4 MSTORE PUSH1 0x24 PUSH0 REVERT JUMPDEST PUSH0 PUSH1 0x2 DUP3 DIV SWAP1 POP PUSH1 0x1 DUP3 AND DUP1 PUSH2 0x26E5 JUMPI PUSH1 0x7F DUP3 AND SWAP2 POP JUMPDEST PUSH1 0x20 DUP3 LT DUP2 SUB PUSH2 0x26F8 JUMPI PUSH2 0x26F7 PUSH2 0x26A1 JUMP JUMPDEST JUMPDEST POP SWAP2 SWAP1 POP JUMP JUMPDEST PUSH0 DUP2 SWAP1 POP SWAP3 SWAP2 POP POP JUMP JUMPDEST PUSH0 DUP2 SWAP1 POP DUP2 PUSH0 MSTORE PUSH1 0x20 PUSH0 KECCAK256 SWAP1 POP SWAP2 SWAP1 POP JUMP JUMPDEST PUSH0 DUP2 SLOAD PUSH2 0x2726 DUP2 PUSH2 0x26CE JUMP JUMPDEST PUSH2 0x2730 DUP2 DUP7 PUSH2 0x26FE JUMP JUMPDEST SWAP5 POP PUSH1 0x1 DUP3 AND PUSH0 DUP2 EQ PUSH2 0x274A JUMPI PUSH1 0x1 DUP2 EQ PUSH2 0x275F JUMPI PUSH2 0x2791 JUMP JUMPDEST PUSH1 0xFF NOT DUP4 AND DUP7 MSTORE DUP2 ISZERO ISZERO DUP3 MUL DUP7 ADD SWAP4 POP PUSH2 0x2791 JUMP JUMPDEST PUSH2 0x2768 DUP6 PUSH2 0x2708 JUMP JUMPDEST PUSH0 JUMPDEST DUP4 DUP2 LT ISZERO PUSH2 0x2789 JUMPI DUP2 SLOAD DUP2 DUP10 ADD MSTORE PUSH1 0x1 DUP3 ADD SWAP2 POP PUSH1 0x20 DUP2 ADD SWAP1 POP PUSH2 0x276A JUMP JUMPDEST DUP4 DUP9 ADD SWAP6 POP POP POP JUMPDEST POP POP POP SWAP3 SWAP2 POP POP JUMP JUMPDEST PUSH0 PUSH2 0x27A5 DUP3 DUP5 PUSH2 0x271A JUMP JUMPDEST SWAP2 POP DUP2 SWAP1 POP SWAP3 SWAP2 POP POP JUMP JUMPDEST PUSH32 0x66726565206E66742063616E2073656C6C2E0000000000000000000000000000 PUSH0 DUP3 ADD MSTORE POP JUMP JUMPDEST PUSH0 PUSH2 0x27E4 PUSH1 0x12 DUP4 PUSH2 0x2485 JUMP JUMPDEST SWAP2 POP PUSH2 0x27EF DUP3 PUSH2 0x27B0 JUMP JUMPDEST PUSH1 0x20 DUP3 ADD SWAP1 POP SWAP2 SWAP1 POP JUMP JUMPDEST PUSH0 PUSH1 0x20 DUP3 ADD SWAP1 POP DUP2 DUP2 SUB PUSH0 DUP4 ADD MSTORE PUSH2 0x2811 DUP2 PUSH2 0x27D8 JUMP JUMPDEST SWAP1 POP SWAP2 SWAP1 POP JUMP JUMPDEST PUSH32 0x54686973206E6674206F6E2072656E742E000000000000000000000000000000 PUSH0 DUP3 ADD MSTORE POP JUMP JUMPDEST PUSH0 PUSH2 0x284C PUSH1 0x11 DUP4 PUSH2 0x2485 JUMP JUMPDEST SWAP2 POP PUSH2 0x2857 DUP3 PUSH2 0x2818 JUMP JUMPDEST PUSH1 0x20 DUP3 ADD SWAP1 POP SWAP2 SWAP1 POP JUMP JUMPDEST PUSH0 PUSH1 0x20 DUP3 ADD SWAP1 POP DUP2 DUP2 SUB PUSH0 DUP4 ADD MSTORE PUSH2 0x2879 DUP2 PUSH2 0x2840 JUMP JUMPDEST SWAP1 POP SWAP2 SWAP1 POP JUMP JUMPDEST PUSH32 0x596F7520646F6E742068617665204E66742E0000000000000000000000000000 PUSH0 DUP3 ADD MSTORE POP JUMP JUMPDEST PUSH0 PUSH2 0x28B4 PUSH1 0x12 DUP4 PUSH2 0x2485 JUMP JUMPDEST SWAP2 POP PUSH2 0x28BF DUP3 PUSH2 0x2880 JUMP JUMPDEST PUSH1 0x20 DUP3 ADD SWAP1 POP SWAP2 SWAP1 POP JUMP JUMPDEST PUSH0 PUSH1 0x20 DUP3 ADD SWAP1 POP DUP2 DUP2 SUB PUSH0 DUP4 ADD MSTORE PUSH2 0x28E1 DUP2 PUSH2 0x28A8 JUMP JUMPDEST SWAP1 POP SWAP2 SWAP1 POP JUMP JUMPDEST PUSH0 PUSH2 0x28F2 DUP3 PUSH2 0x1F27 JUMP JUMPDEST SWAP2 POP PUSH0 DUP3 SUB PUSH2 0x2904 JUMPI PUSH2 0x2903 PUSH2 0x252A JUMP JUMPDEST JUMPDEST PUSH1 0x1 DUP3 SUB SWAP1 POP SWAP2 SWAP1 POP JUMP JUMPDEST PUSH32 0x416C726561647920686176652031206E66742E00000000000000000000000000 PUSH0 DUP3 ADD MSTORE POP JUMP JUMPDEST PUSH0 PUSH2 0x2943 PUSH1 0x13 DUP4 PUSH2 0x2485 JUMP JUMPDEST SWAP2 POP PUSH2 0x294E DUP3 PUSH2 0x290F JUMP JUMPDEST PUSH1 0x20 DUP3 ADD SWAP1 POP SWAP2 SWAP1 POP JUMP JUMPDEST PUSH0 PUSH1 0x20 DUP3 ADD SWAP1 POP DUP2 DUP2 SUB PUSH0 DUP4 ADD MSTORE PUSH2 0x2970 DUP2 PUSH2 0x2937 JUMP JUMPDEST SWAP1 POP SWAP2 SWAP1 POP JUMP JUMPDEST PUSH32 0x436F7272656374205370656C6C696E6700000000000000000000000000000000 PUSH0 DUP3 ADD MSTORE POP JUMP JUMPDEST PUSH0 PUSH2 0x29AB PUSH1 0x10 DUP4 PUSH2 0x2485 JUMP JUMPDEST SWAP2 POP PUSH2 0x29B6 DUP3 PUSH2 0x2977 JUMP JUMPDEST PUSH1 0x20 DUP3 ADD SWAP1 POP SWAP2 SWAP1 POP JUMP JUMPDEST PUSH0 PUSH1 0x20 DUP3 ADD SWAP1 POP DUP2 DUP2 SUB PUSH0 DUP4 ADD MSTORE PUSH2 0x29D8 DUP2 PUSH2 0x299F JUMP JUMPDEST SWAP1 POP SWAP2 SWAP1 POP JUMP JUMPDEST PUSH32 0x616C72656164792074616B656E204E66742E0000000000000000000000000000 PUSH0 DUP3 ADD MSTORE POP JUMP JUMPDEST PUSH0 PUSH2 0x2A13 PUSH1 0x12 DUP4 PUSH2 0x2485 JUMP JUMPDEST SWAP2 POP PUSH2 0x2A1E DUP3 PUSH2 0x29DF JUMP JUMPDEST PUSH1 0x20 DUP3 ADD SWAP1 POP SWAP2 SWAP1 POP JUMP JUMPDEST PUSH0 PUSH1 0x20 DUP3 ADD SWAP1 POP DUP2 DUP2 SUB PUSH0 DUP4 ADD MSTORE PUSH2 0x2A40 DUP2 PUSH2 0x2A07 JUMP JUMPDEST SWAP1 POP SWAP2 SWAP1 POP JUMP JUMPDEST PUSH32 0x6F776E65722063616E742074616B6520686973206F776E2069642E0000000000 PUSH0 DUP3 ADD MSTORE POP JUMP JUMPDEST PUSH0 PUSH2 0x2A7B PUSH1 0x1B DUP4 PUSH2 0x2485 JUMP JUMPDEST SWAP2 POP PUSH2 0x2A86 DUP3 PUSH2 0x2A47 JUMP JUMPDEST PUSH1 0x20 DUP3 ADD SWAP1 POP SWAP2 SWAP1 POP JUMP JUMPDEST PUSH0 PUSH1 0x20 DUP3 ADD SWAP1 POP DUP2 DUP2 SUB PUSH0 DUP4 ADD MSTORE PUSH2 0x2AA8 DUP2 PUSH2 0x2A6F JUMP JUMPDEST SWAP1 POP SWAP2 SWAP1 POP JUMP JUMPDEST PUSH32 0x6E6674206E6F74206C69737465642E0000000000000000000000000000000000 PUSH0 DUP3 ADD MSTORE POP JUMP JUMPDEST PUSH0 PUSH2 0x2AE3 PUSH1 0xF DUP4 PUSH2 0x2485 JUMP JUMPDEST SWAP2 POP PUSH2 0x2AEE DUP3 PUSH2 0x2AAF JUMP JUMPDEST PUSH1 0x20 DUP3 ADD SWAP1 POP SWAP2 SWAP1 POP JUMP JUMPDEST PUSH0 PUSH1 0x20 DUP3 ADD SWAP1 POP DUP2 DUP2 SUB PUSH0 DUP4 ADD MSTORE PUSH2 0x2B10 DUP2 PUSH2 0x2AD7 JUMP JUMPDEST SWAP1 POP SWAP2 SWAP1 POP JUMP JUMPDEST PUSH0 DUP2 SWAP1 POP SWAP3 SWAP2 POP POP JUMP JUMPDEST PUSH0 PUSH2 0x2B2B DUP3 PUSH2 0x2148 JUMP JUMPDEST PUSH2 0x2B35 DUP2 DUP6 PUSH2 0x2B17 JUMP JUMPDEST SWAP4 POP PUSH2 0x2B45 DUP2 DUP6 PUSH1 0x20 DUP7 ADD PUSH2 0x2162 JUMP JUMPDEST DUP1 DUP5 ADD SWAP2 POP POP SWAP3 SWAP2 POP POP JUMP JUMPDEST PUSH0 PUSH2 0x2B5C DUP3 DUP5 PUSH2 0x2B21 JUMP JUMPDEST SWAP2 POP DUP2 SWAP1 POP SWAP3 SWAP2 POP POP JUMP JUMPDEST PUSH32 0x4E487B7100000000000000000000000000000000000000000000000000000000 PUSH0 MSTORE PUSH1 0x12 PUSH1 0x4 MSTORE PUSH1 0x24 PUSH0 REVERT JUMPDEST PUSH0 PUSH2 0x2B9E DUP3 PUSH2 0x1F27 JUMP JUMPDEST SWAP2 POP PUSH2 0x2BA9 DUP4 PUSH2 0x1F27 JUMP JUMPDEST SWAP3 POP DUP3 PUSH2 0x2BB9 JUMPI PUSH2 0x2BB8 PUSH2 0x2B67 JUMP JUMPDEST JUMPDEST DUP3 DUP3 MOD SWAP1 POP SWAP3 SWAP2 POP POP JUMP JUMPDEST PUSH0 DUP2 SWAP1 POP DUP2 PUSH0 MSTORE PUSH1 0x20 PUSH0 KECCAK256 SWAP1 POP SWAP2 SWAP1 POP JUMP JUMPDEST PUSH0 PUSH1 0x20 PUSH1 0x1F DUP4 ADD DIV SWAP1 POP SWAP2 SWAP1 POP JUMP JUMPDEST PUSH0 DUP3 DUP3 SHL SWAP1 POP SWAP3 SWAP2 POP POP JUMP JUMPDEST PUSH0 PUSH1 0x8 DUP4 MUL PUSH2 0x2C20 PUSH32 0xFFFFFFFFFFFFFFFFFFFFFFFFFFFFFFFFFFFFFFFFFFFFFFFFFFFFFFFFFFFFFFFF DUP3 PUSH2 0x2BE5 JUMP JUMPDEST PUSH2 0x2C2A DUP7 DUP4 PUSH2 0x2BE5 JUMP JUMPDEST SWAP6 POP DUP1 NOT DUP5 AND SWAP4 POP DUP1 DUP7 AND DUP5 OR SWAP3 POP POP POP SWAP4 SWAP3 POP POP POP JUMP JUMPDEST PUSH0 DUP2 SWAP1 POP SWAP2 SWAP1 POP JUMP JUMPDEST PUSH0 PUSH2 0x2C65 PUSH2 0x2C60 PUSH2 0x2C5B DUP5 PUSH2 0x1F27 JUMP JUMPDEST PUSH2 0x2C42 JUMP JUMPDEST PUSH2 0x1F27 JUMP JUMPDEST SWAP1 POP SWAP2 SWAP1 POP JUMP JUMPDEST PUSH0 DUP2 SWAP1 POP SWAP2 SWAP1 POP JUMP JUMPDEST PUSH2 0x2C7E DUP4 PUSH2 0x2C4B JUMP JUMPDEST PUSH2 0x2C92 PUSH2 0x2C8A DUP3 PUSH2 0x2C6C JUMP JUMPDEST DUP5 DUP5 SLOAD PUSH2 0x2BF1 JUMP JUMPDEST DUP3 SSTORE POP POP POP POP JUMP JUMPDEST PUSH0 SWAP1 JUMP JUMPDEST PUSH2 0x2CA6 PUSH2 0x2C9A JUMP JUMPDEST PUSH2 0x2CB1 DUP2 DUP5 DUP5 PUSH2 0x2C75 JUMP JUMPDEST POP POP POP JUMP JUMPDEST JUMPDEST DUP2 DUP2 LT ISZERO PUSH2 0x2CD4 JUMPI PUSH2 0x2CC9 PUSH0 DUP3 PUSH2 0x2C9E JUMP JUMPDEST PUSH1 0x1 DUP2 ADD SWAP1 POP PUSH2 0x2CB7 JUMP JUMPDEST POP POP JUMP JUMPDEST PUSH1 0x1F DUP3 GT ISZERO PUSH2 0x2D19 JUMPI PUSH2 0x2CEA DUP2 PUSH2 0x2BC4 JUMP JUMPDEST PUSH2 0x2CF3 DUP5 PUSH2 0x2BD6 JUMP JUMPDEST DUP2 ADD PUSH1 0x20 DUP6 LT ISZERO PUSH2 0x2D02 JUMPI DUP2 SWAP1 POP JUMPDEST PUSH2 0x2D16 PUSH2 0x2D0E DUP6 PUSH2 0x2BD6 JUMP JUMPDEST DUP4 ADD DUP3 PUSH2 0x2CB6 JUMP JUMPDEST POP POP JUMPDEST POP POP POP JUMP JUMPDEST PUSH0 DUP3 DUP3 SHR SWAP1 POP SWAP3 SWAP2 POP POP JUMP JUMPDEST PUSH0 PUSH2 0x2D39 PUSH0 NOT DUP5 PUSH1 0x8 MUL PUSH2 0x2D1E JUMP JUMPDEST NOT DUP1 DUP4 AND SWAP2 POP POP SWAP3 SWAP2 POP POP JUMP JUMPDEST PUSH0 PUSH2 0x2D51 DUP4 DUP4 PUSH2 0x2D2A JUMP JUMPDEST SWAP2 POP DUP3 PUSH1 0x2 MUL DUP3 OR SWAP1 POP SWAP3 SWAP2 POP POP JUMP JUMPDEST PUSH2 0x2D6A DUP3 PUSH2 0x2148 JUMP JUMPDEST PUSH8 0xFFFFFFFFFFFFFFFF DUP2 GT ISZERO PUSH2 0x2D83 JUMPI PUSH2 0x2D82 PUSH2 0x22EB JUMP JUMPDEST JUMPDEST PUSH2 0x2D8D DUP3 SLOAD PUSH2 0x26CE JUMP JUMPDEST PUSH2 0x2D98 DUP3 DUP3 DUP6 PUSH2 0x2CD8 JUMP JUMPDEST PUSH0 PUSH1 0x20 SWAP1 POP PUSH1 0x1F DUP4 GT PUSH1 0x1 DUP2 EQ PUSH2 0x2DC9 JUMPI PUSH0 DUP5 ISZERO PUSH2 0x2DB7 JUMPI DUP3 DUP8 ADD MLOAD SWAP1 POP JUMPDEST PUSH2 0x2DC1 DUP6 DUP3 PUSH2 0x2D46 JUMP JUMPDEST DUP7 SSTORE POP PUSH2 0x2E28 JUMP JUMPDEST PUSH1 0x1F NOT DUP5 AND PUSH2 0x2DD7 DUP7 PUSH2 0x2BC4 JUMP JUMPDEST PUSH0 JUMPDEST DUP3 DUP2 LT ISZERO PUSH2 0x2DFE JUMPI DUP5 DUP10 ADD MLOAD DUP3 SSTORE PUSH1 0x1 DUP3 ADD SWAP2 POP PUSH1 0x20 DUP6 ADD SWAP5 POP PUSH1 0x20 DUP2 ADD SWAP1 POP PUSH2 0x2DD9 JUMP JUMPDEST DUP7 DUP4 LT ISZERO PUSH2 0x2E1B JUMPI DUP5 DUP10 ADD MLOAD PUSH2 0x2E17 PUSH1 0x1F DUP10 AND DUP3 PUSH2 0x2D2A JUMP JUMPDEST DUP4 SSTORE POP JUMPDEST PUSH1 0x1 PUSH1 0x2 DUP9 MUL ADD DUP9 SSTORE POP POP POP JUMPDEST POP POP POP POP POP POP JUMP JUMPDEST PUSH0 PUSH2 0x2E3A DUP3 PUSH2 0x1F27 JUMP JUMPDEST SWAP2 POP PUSH2 0x2E45 DUP4 PUSH2 0x1F27 JUMP JUMPDEST SWAP3 POP DUP3 DUP3 SUB SWAP1 POP DUP2 DUP2 GT ISZERO PUSH2 0x2E5D JUMPI PUSH2 0x2E5C PUSH2 0x252A JUMP JUMPDEST JUMPDEST SWAP3 SWAP2 POP POP JUMP JUMPDEST PUSH0 DUP2 SWAP1 POP SWAP2 SWAP1 POP JUMP JUMPDEST PUSH2 0x2E7D PUSH2 0x2E78 DUP3 PUSH2 0x1F27 JUMP JUMPDEST PUSH2 0x2E63 JUMP JUMPDEST DUP3 MSTORE POP POP JUMP JUMPDEST PUSH0 PUSH2 0x2E8E DUP3 DUP6 PUSH2 0x2E6C JUMP JUMPDEST PUSH1 0x20 DUP3 ADD SWAP2 POP PUSH2 0x2E9E DUP3 DUP5 PUSH2 0x2E6C JUMP JUMPDEST PUSH1 0x20 DUP3 ADD SWAP2 POP DUP2 SWAP1 POP SWAP4 SWAP3 POP POP POP JUMP INVALID JUMPI PUSH10 0x6E20416E64204C6F6F73 PUSH6 0x206973207468 PUSH6 0x207061727420 PUSH16 0x66207468652047616D652E5472792041 PUSH8 0x61696E212EA26469 PUSH17 0x667358221220EF6A6B93A1DAF2965D59A9 PUSH15 0x10EE9FF8B6FD198B2AD1D4DEC6F068 0xE0 0xCB 0xCD 0xEB NOT PUSH5 0x736F6C6343 STOP ADDMOD EQ STOP CALLER "
				},
				"gasEstimates": {
					"creation": {
						"codeDepositCost": "2410600",
						"executionCost": "24694",
						"totalCost": "2435294"
					},
					"external": {
						"BuyOnRent(uint256)": "82475",
						"BuyZombie(string,string)": "infinite",
						"Fight(uint256)": "infinite",
						"FreeNft(address)": "2878",
						"FreeZombie()": "infinite",
						"GiveOnRent(uint256)": "infinite",
						"RemoveRent(uint256)": "80165",
						"RentedbyID(uint256)": "2894",
						"TakenNft(uint256)": "2852",
						"approve(address,uint256)": "49536",
						"buyOnRent(address)": "2878",
						"getDetails(uint256)": "infinite",
						"ownerZombies(address)": "infinite",
						"tranferFrom(address,address,uint256)": "infinite"
					}
				},
				"methodIdentifiers": {
					"BuyOnRent(uint256)": "e70364d4",
					"BuyZombie(string,string)": "cb9940b7",
					"Fight(uint256)": "7138d32d",
					"FreeNft(address)": "c0342cb4",
					"FreeZombie()": "b81c3db7",
					"GiveOnRent(uint256)": "fb052caf",
					"RemoveRent(uint256)": "e0c4f15e",
					"RentedbyID(uint256)": "c583f36a",
					"TakenNft(uint256)": "9f52f1a1",
					"approve(address,uint256)": "095ea7b3",
					"buyOnRent(address)": "9a861a78",
					"getDetails(uint256)": "b93a89f7",
					"ownerZombies(address)": "3c956b05",
					"tranferFrom(address,address,uint256)": "9264a169"
				}
			},
			"storageLayout": {
				"storage": [
					{
						"astId": 52,
						"contract": "contracts/ZombieGame.sol:GetZombie",
						"label": "ZombieOwner",
						"offset": 0,
						"slot": "0",
						"type": "t_mapping(t_uint256,t_address)"
					},
					{
						"astId": 56,
						"contract": "contracts/ZombieGame.sol:GetZombie",
						"label": "ZombieCount",
						"offset": 0,
						"slot": "1",
						"type": "t_mapping(t_address,t_uint256)"
					},
					{
						"astId": 80,
						"contract": "contracts/ZombieGame.sol:GetZombie",
						"label": "dnaLength",
						"offset": 0,
						"slot": "2",
						"type": "t_uint256"
					},
					{
						"astId": 84,
						"contract": "contracts/ZombieGame.sol:GetZombie",
						"label": "zombies",
						"offset": 0,
						"slot": "3",
						"type": "t_array(t_struct(zombieDetails)75_storage)dyn_storage"
					},
					{
						"astId": 383,
						"contract": "contracts/ZombieGame.sol:GetZombie",
						"label": "FreeNft",
						"offset": 0,
						"slot": "4",
						"type": "t_mapping(t_address,t_bool)"
					},
					{
						"astId": 387,
						"contract": "contracts/ZombieGame.sol:GetZombie",
						"label": "onRent",
						"offset": 0,
						"slot": "5",
						"type": "t_mapping(t_uint256,t_bool)"
					},
					{
						"astId": 393,
						"contract": "contracts/ZombieGame.sol:GetZombie",
						"label": "Allowance",
						"offset": 0,
						"slot": "6",
						"type": "t_mapping(t_address,t_mapping(t_address,t_uint256))"
					},
					{
						"astId": 397,
						"contract": "contracts/ZombieGame.sol:GetZombie",
						"label": "Approve",
						"offset": 0,
						"slot": "7",
						"type": "t_mapping(t_address,t_address)"
					},
					{
						"astId": 401,
						"contract": "contracts/ZombieGame.sol:GetZombie",
						"label": "Timing",
						"offset": 0,
						"slot": "8",
						"type": "t_mapping(t_uint256,t_uint256)"
					},
					{
						"astId": 405,
						"contract": "contracts/ZombieGame.sol:GetZombie",
						"label": "TakenNft",
						"offset": 0,
						"slot": "9",
						"type": "t_mapping(t_uint256,t_bool)"
					},
					{
						"astId": 409,
						"contract": "contracts/ZombieGame.sol:GetZombie",
						"label": "buyOnRent",
						"offset": 0,
						"slot": "10",
						"type": "t_mapping(t_address,t_bool)"
					},
					{
						"astId": 413,
						"contract": "contracts/ZombieGame.sol:GetZombie",
						"label": "RentedbyID",
						"offset": 0,
						"slot": "11",
						"type": "t_mapping(t_uint256,t_address)"
					}
				],
				"types": {
					"t_address": {
						"encoding": "inplace",
						"label": "address",
						"numberOfBytes": "20"
					},
					"t_array(t_struct(zombieDetails)75_storage)dyn_storage": {
						"base": "t_struct(zombieDetails)75_storage",
						"encoding": "dynamic_array",
						"label": "struct ZombieGame.zombieDetails[]",
						"numberOfBytes": "32"
					},
					"t_bool": {
						"encoding": "inplace",
						"label": "bool",
						"numberOfBytes": "1"
					},
					"t_mapping(t_address,t_address)": {
						"encoding": "mapping",
						"key": "t_address",
						"label": "mapping(address => address)",
						"numberOfBytes": "32",
						"value": "t_address"
					},
					"t_mapping(t_address,t_bool)": {
						"encoding": "mapping",
						"key": "t_address",
						"label": "mapping(address => bool)",
						"numberOfBytes": "32",
						"value": "t_bool"
					},
					"t_mapping(t_address,t_mapping(t_address,t_uint256))": {
						"encoding": "mapping",
						"key": "t_address",
						"label": "mapping(address => mapping(address => uint256))",
						"numberOfBytes": "32",
						"value": "t_mapping(t_address,t_uint256)"
					},
					"t_mapping(t_address,t_uint256)": {
						"encoding": "mapping",
						"key": "t_address",
						"label": "mapping(address => uint256)",
						"numberOfBytes": "32",
						"value": "t_uint256"
					},
					"t_mapping(t_uint256,t_address)": {
						"encoding": "mapping",
						"key": "t_uint256",
						"label": "mapping(uint256 => address)",
						"numberOfBytes": "32",
						"value": "t_address"
					},
					"t_mapping(t_uint256,t_bool)": {
						"encoding": "mapping",
						"key": "t_uint256",
						"label": "mapping(uint256 => bool)",
						"numberOfBytes": "32",
						"value": "t_bool"
					},
					"t_mapping(t_uint256,t_uint256)": {
						"encoding": "mapping",
						"key": "t_uint256",
						"label": "mapping(uint256 => uint256)",
						"numberOfBytes": "32",
						"value": "t_uint256"
					},
					"t_string_storage": {
						"encoding": "bytes",
						"label": "string",
						"numberOfBytes": "32"
					},
					"t_struct(zombieDetails)75_storage": {
						"encoding": "inplace",
						"label": "struct ZombieGame.zombieDetails",
						"members": [
							{
								"astId": 58,
								"contract": "contracts/ZombieGame.sol:GetZombie",
								"label": "plan",
								"offset": 0,
								"slot": "0",
								"type": "t_string_storage"
							},
							{
								"astId": 60,
								"contract": "contracts/ZombieGame.sol:GetZombie",
								"label": "name",
								"offset": 0,
								"slot": "1",
								"type": "t_string_storage"
							},
							{
								"astId": 62,
								"contract": "contracts/ZombieGame.sol:GetZombie",
								"label": "dna",
								"offset": 0,
								"slot": "2",
								"type": "t_uint256"
							},
							{
								"astId": 64,
								"contract": "contracts/ZombieGame.sol:GetZombie",
								"label": "level",
								"offset": 0,
								"slot": "3",
								"type": "t_uint256"
							},
							{
								"astId": 66,
								"contract": "contracts/ZombieGame.sol:GetZombie",
								"label": "xp",
								"offset": 0,
								"slot": "4",
								"type": "t_uint256"
							},
							{
								"astId": 68,
								"contract": "contracts/ZombieGame.sol:GetZombie",
								"label": "TotalMatch",
								"offset": 0,
								"slot": "5",
								"type": "t_uint256"
							},
							{
								"astId": 70,
								"contract": "contracts/ZombieGame.sol:GetZombie",
								"label": "MatchLeft",
								"offset": 0,
								"slot": "6",
								"type": "t_uint256"
							},
							{
								"astId": 72,
								"contract": "contracts/ZombieGame.sol:GetZombie",
								"label": "Wins",
								"offset": 0,
								"slot": "7",
								"type": "t_uint256"
							},
							{
								"astId": 74,
								"contract": "contracts/ZombieGame.sol:GetZombie",
								"label": "Looses",
								"offset": 0,
								"slot": "8",
								"type": "t_uint256"
							}
						],
						"numberOfBytes": "288"
					},
					"t_uint256": {
						"encoding": "inplace",
						"label": "uint256",
						"numberOfBytes": "32"
					}
				}
			},
			"userdoc": {
				"kind": "user",
				"methods": {},
				"version": 1
			}
		}
	}
}