{
	"contracts/crowdfunding project .sol": {
		"crowdfundind": {
			"abi": [
				{
					"inputs": [
						{
							"internalType": "uint256",
							"name": "_target",
							"type": "uint256"
						},
						{
							"internalType": "uint256",
							"name": "_deadline",
							"type": "uint256"
						}
					],
					"stateMutability": "nonpayable",
					"type": "constructor"
				},
				{
					"inputs": [
						{
							"internalType": "address",
							"name": "",
							"type": "address"
						}
					],
					"name": "contributors",
					"outputs": [
						{
							"internalType": "uint256",
							"name": "",
							"type": "uint256"
						}
					],
					"stateMutability": "view",
					"type": "function"
				},
				{
					"inputs": [
						{
							"internalType": "string",
							"name": "_discription",
							"type": "string"
						},
						{
							"internalType": "address payable",
							"name": "_receipient",
							"type": "address"
						},
						{
							"internalType": "uint256",
							"name": "_value",
							"type": "uint256"
						}
					],
					"name": "createRequests",
					"outputs": [],
					"stateMutability": "nonpayable",
					"type": "function"
				},
				{
					"inputs": [],
					"name": "deadline",
					"outputs": [
						{
							"internalType": "uint256",
							"name": "",
							"type": "uint256"
						}
					],
					"stateMutability": "view",
					"type": "function"
				},
				{
					"inputs": [],
					"name": "getcontractbalance",
					"outputs": [
						{
							"internalType": "uint256",
							"name": "",
							"type": "uint256"
						}
					],
					"stateMutability": "view",
					"type": "function"
				},
				{
					"inputs": [
						{
							"internalType": "uint256",
							"name": "_requestNo",
							"type": "uint256"
						}
					],
					"name": "makepayment",
					"outputs": [],
					"stateMutability": "nonpayable",
					"type": "function"
				},
				{
					"inputs": [],
					"name": "manager",
					"outputs": [
						{
							"internalType": "address",
							"name": "",
							"type": "address"
						}
					],
					"stateMutability": "view",
					"type": "function"
				},
				{
					"inputs": [],
					"name": "minimumcontribution",
					"outputs": [
						{
							"internalType": "uint256",
							"name": "",
							"type": "uint256"
						}
					],
					"stateMutability": "view",
					"type": "function"
				},
				{
					"inputs": [],
					"name": "noofcontributors",
					"outputs": [
						{
							"internalType": "uint256",
							"name": "",
							"type": "uint256"
						}
					],
					"stateMutability": "view",
					"type": "function"
				},
				{
					"inputs": [],
					"name": "numrequests",
					"outputs": [
						{
							"internalType": "uint256",
							"name": "",
							"type": "uint256"
						}
					],
					"stateMutability": "view",
					"type": "function"
				},
				{
					"inputs": [],
					"name": "raisedamount",
					"outputs": [
						{
							"internalType": "uint256",
							"name": "",
							"type": "uint256"
						}
					],
					"stateMutability": "view",
					"type": "function"
				},
				{
					"inputs": [],
					"name": "refund",
					"outputs": [],
					"stateMutability": "nonpayable",
					"type": "function"
				},
				{
					"inputs": [
						{
							"internalType": "uint256",
							"name": "",
							"type": "uint256"
						}
					],
					"name": "requests",
					"outputs": [
						{
							"internalType": "string",
							"name": "description",
							"type": "string"
						},
						{
							"internalType": "address payable",
							"name": "receipient",
							"type": "address"
						},
						{
							"internalType": "uint256",
							"name": "value",
							"type": "uint256"
						},
						{
							"internalType": "bool",
							"name": "votingcompleted",
							"type": "bool"
						},
						{
							"internalType": "uint256",
							"name": "noofvoters",
							"type": "uint256"
						}
					],
					"stateMutability": "view",
					"type": "function"
				},
				{
					"inputs": [],
					"name": "sendether",
					"outputs": [],
					"stateMutability": "payable",
					"type": "function"
				},
				{
					"inputs": [],
					"name": "target",
					"outputs": [
						{
							"internalType": "uint256",
							"name": "",
							"type": "uint256"
						}
					],
					"stateMutability": "view",
					"type": "function"
				},
				{
					"inputs": [
						{
							"internalType": "uint256",
							"name": "_requestNo",
							"type": "uint256"
						}
					],
					"name": "voterequest",
					"outputs": [],
					"stateMutability": "nonpayable",
					"type": "function"
				}
			],
			"devdoc": {
				"kind": "dev",
				"methods": {},
				"version": 1
			},
			"evm": {
				"assembly": "    /* \"contracts/crowdfunding project .sol\":61:6004  contract crowdfundind{... */\n  mstore(0x40, 0x80)\n    /* \"contracts/crowdfunding project .sol\":414:696  constructor(uint _target, uint _deadline){... */\n  callvalue\n  dup1\n  iszero\n  tag_1\n  jumpi\n  0x00\n  dup1\n  revert\ntag_1:\n  pop\n  mload(0x40)\n  sub(codesize, bytecodeSize)\n  dup1\n  bytecodeSize\n  dup4\n  codecopy\n  dup2\n  dup2\n  add\n  0x40\n  mstore\n  dup2\n  add\n  swap1\n  tag_2\n  swap2\n  swap1\n  tag_3\n  jump\t// in\ntag_2:\n    /* \"contracts/crowdfunding project .sol\":473:480  _target */\n  dup2\n    /* \"contracts/crowdfunding project .sol\":466:472  target */\n  0x04\n    /* \"contracts/crowdfunding project .sol\":466:480  target=_target */\n  dup2\n  swap1\n  sstore\n  pop\n    /* \"contracts/crowdfunding project .sol\":559:568  _deadline */\n  dup1\n    /* \"contracts/crowdfunding project .sol\":541:556  block.timestamp */\n  timestamp\n    /* \"contracts/crowdfunding project .sol\":541:568  block.timestamp + _deadline */\n  tag_6\n  swap2\n  swap1\n  tag_7\n  jump\t// in\ntag_6:\n    /* \"contracts/crowdfunding project .sol\":531:539  deadline */\n  0x03\n    /* \"contracts/crowdfunding project .sol\":531:568  deadline= block.timestamp + _deadline */\n  dup2\n  swap1\n  sstore\n  pop\n    /* \"contracts/crowdfunding project .sol\":652:659  100 wei */\n  0x64\n    /* \"contracts/crowdfunding project .sol\":631:650  minimumcontribution */\n  0x02\n    /* \"contracts/crowdfunding project .sol\":631:659  minimumcontribution= 100 wei */\n  dup2\n  swap1\n  sstore\n  pop\n    /* \"contracts/crowdfunding project .sol\":678:688  msg.sender */\n  caller\n    /* \"contracts/crowdfunding project .sol\":670:677  manager */\n  0x01\n  0x00\n    /* \"contracts/crowdfunding project .sol\":670:688  manager=msg.sender */\n  0x0100\n  exp\n  dup2\n  sload\n  dup2\n  0xffffffffffffffffffffffffffffffffffffffff\n  mul\n  not\n  and\n  swap1\n  dup4\n  0xffffffffffffffffffffffffffffffffffffffff\n  and\n  mul\n  or\n  swap1\n  sstore\n  pop\n    /* \"contracts/crowdfunding project .sol\":414:696  constructor(uint _target, uint _deadline){... */\n  pop\n  pop\n    /* \"contracts/crowdfunding project .sol\":61:6004  contract crowdfundind{... */\n  jump(tag_8)\n    /* \"#utility.yul\":88:205   */\ntag_10:\n    /* \"#utility.yul\":197:198   */\n  0x00\n    /* \"#utility.yul\":194:195   */\n  dup1\n    /* \"#utility.yul\":187:199   */\n  revert\n    /* \"#utility.yul\":334:411   */\ntag_12:\n    /* \"#utility.yul\":371:378   */\n  0x00\n    /* \"#utility.yul\":400:405   */\n  dup2\n    /* \"#utility.yul\":389:405   */\n  swap1\n  pop\n    /* \"#utility.yul\":334:411   */\n  swap2\n  swap1\n  pop\n  jump\t// out\n    /* \"#utility.yul\":417:539   */\ntag_13:\n    /* \"#utility.yul\":490:514   */\n  tag_22\n    /* \"#utility.yul\":508:513   */\n  dup2\n    /* \"#utility.yul\":490:514   */\n  tag_12\n  jump\t// in\ntag_22:\n    /* \"#utility.yul\":483:488   */\n  dup2\n    /* \"#utility.yul\":480:515   */\n  eq\n    /* \"#utility.yul\":470:533   */\n  tag_23\n  jumpi\n    /* \"#utility.yul\":529:530   */\n  0x00\n    /* \"#utility.yul\":526:527   */\n  dup1\n    /* \"#utility.yul\":519:531   */\n  revert\n    /* \"#utility.yul\":470:533   */\ntag_23:\n    /* \"#utility.yul\":417:539   */\n  pop\n  jump\t// out\n    /* \"#utility.yul\":545:688   */\ntag_14:\n    /* \"#utility.yul\":602:607   */\n  0x00\n    /* \"#utility.yul\":633:639   */\n  dup2\n    /* \"#utility.yul\":627:640   */\n  mload\n    /* \"#utility.yul\":618:640   */\n  swap1\n  pop\n    /* \"#utility.yul\":649:682   */\n  tag_25\n    /* \"#utility.yul\":676:681   */\n  dup2\n    /* \"#utility.yul\":649:682   */\n  tag_13\n  jump\t// in\ntag_25:\n    /* \"#utility.yul\":545:688   */\n  swap3\n  swap2\n  pop\n  pop\n  jump\t// out\n    /* \"#utility.yul\":694:1201   */\ntag_3:\n    /* \"#utility.yul\":773:779   */\n  0x00\n    /* \"#utility.yul\":781:787   */\n  dup1\n    /* \"#utility.yul\":830:832   */\n  0x40\n    /* \"#utility.yul\":818:827   */\n  dup4\n    /* \"#utility.yul\":809:816   */\n  dup6\n    /* \"#utility.yul\":805:828   */\n  sub\n    /* \"#utility.yul\":801:833   */\n  slt\n    /* \"#utility.yul\":798:917   */\n  iszero\n  tag_27\n  jumpi\n    /* \"#utility.yul\":836:915   */\n  tag_28\n  tag_10\n  jump\t// in\ntag_28:\n    /* \"#utility.yul\":798:917   */\ntag_27:\n    /* \"#utility.yul\":956:957   */\n  0x00\n    /* \"#utility.yul\":981:1045   */\n  tag_29\n    /* \"#utility.yul\":1037:1044   */\n  dup6\n    /* \"#utility.yul\":1028:1034   */\n  dup3\n    /* \"#utility.yul\":1017:1026   */\n  dup7\n    /* \"#utility.yul\":1013:1035   */\n  add\n    /* \"#utility.yul\":981:1045   */\n  tag_14\n  jump\t// in\ntag_29:\n    /* \"#utility.yul\":971:1045   */\n  swap3\n  pop\n    /* \"#utility.yul\":927:1055   */\n  pop\n    /* \"#utility.yul\":1094:1096   */\n  0x20\n    /* \"#utility.yul\":1120:1184   */\n  tag_30\n    /* \"#utility.yul\":1176:1183   */\n  dup6\n    /* \"#utility.yul\":1167:1173   */\n  dup3\n    /* \"#utility.yul\":1156:1165   */\n  dup7\n    /* \"#utility.yul\":1152:1174   */\n  add\n    /* \"#utility.yul\":1120:1184   */\n  tag_14\n  jump\t// in\ntag_30:\n    /* \"#utility.yul\":1110:1184   */\n  swap2\n  pop\n    /* \"#utility.yul\":1065:1194   */\n  pop\n    /* \"#utility.yul\":694:1201   */\n  swap3\n  pop\n  swap3\n  swap1\n  pop\n  jump\t// out\n    /* \"#utility.yul\":1207:1387   */\ntag_15:\n    /* \"#utility.yul\":1255:1332   */\n  0x4e487b7100000000000000000000000000000000000000000000000000000000\n    /* \"#utility.yul\":1252:1253   */\n  0x00\n    /* \"#utility.yul\":1245:1333   */\n  mstore\n    /* \"#utility.yul\":1352:1356   */\n  0x11\n    /* \"#utility.yul\":1349:1350   */\n  0x04\n    /* \"#utility.yul\":1342:1357   */\n  mstore\n    /* \"#utility.yul\":1376:1380   */\n  0x24\n    /* \"#utility.yul\":1373:1374   */\n  0x00\n    /* \"#utility.yul\":1366:1381   */\n  revert\n    /* \"#utility.yul\":1393:1584   */\ntag_7:\n    /* \"#utility.yul\":1433:1436   */\n  0x00\n    /* \"#utility.yul\":1452:1472   */\n  tag_33\n    /* \"#utility.yul\":1470:1471   */\n  dup3\n    /* \"#utility.yul\":1452:1472   */\n  tag_12\n  jump\t// in\ntag_33:\n    /* \"#utility.yul\":1447:1472   */\n  swap2\n  pop\n    /* \"#utility.yul\":1486:1506   */\n  tag_34\n    /* \"#utility.yul\":1504:1505   */\n  dup4\n    /* \"#utility.yul\":1486:1506   */\n  tag_12\n  jump\t// in\ntag_34:\n    /* \"#utility.yul\":1481:1506   */\n  swap3\n  pop\n    /* \"#utility.yul\":1529:1530   */\n  dup3\n    /* \"#utility.yul\":1526:1527   */\n  dup3\n    /* \"#utility.yul\":1522:1531   */\n  add\n    /* \"#utility.yul\":1515:1531   */\n  swap1\n  pop\n    /* \"#utility.yul\":1550:1553   */\n  dup1\n    /* \"#utility.yul\":1547:1548   */\n  dup3\n    /* \"#utility.yul\":1544:1554   */\n  gt\n    /* \"#utility.yul\":1541:1577   */\n  iszero\n  tag_35\n  jumpi\n    /* \"#utility.yul\":1557:1575   */\n  tag_36\n  tag_15\n  jump\t// in\ntag_36:\n    /* \"#utility.yul\":1541:1577   */\ntag_35:\n    /* \"#utility.yul\":1393:1584   */\n  swap3\n  swap2\n  pop\n  pop\n  jump\t// out\n    /* \"contracts/crowdfunding project .sol\":61:6004  contract crowdfundind{... */\ntag_8:\n  dataSize(sub_0)\n  dup1\n  dataOffset(sub_0)\n  0x00\n  codecopy\n  0x00\n  return\nstop\n\nsub_0: assembly {\n        /* \"contracts/crowdfunding project .sol\":61:6004  contract crowdfundind{... */\n      mstore(0x40, 0x80)\n      jumpi(tag_1, lt(calldatasize, 0x04))\n      shr(0xe0, calldataload(0x00))\n      dup1\n      0x81d12c58\n      gt\n      tag_17\n      jumpi\n      dup1\n      0xa8622ffe\n      gt\n      tag_18\n      jumpi\n      dup1\n      0xa8622ffe\n      eq\n      tag_13\n      jumpi\n      dup1\n      0xcbaf8671\n      eq\n      tag_14\n      jumpi\n      dup1\n      0xd4b83992\n      eq\n      tag_15\n      jumpi\n      dup1\n      0xf28bf146\n      eq\n      tag_16\n      jumpi\n      jump(tag_1)\n    tag_18:\n      dup1\n      0x81d12c58\n      eq\n      tag_9\n      jumpi\n      dup1\n      0x83238798\n      eq\n      tag_10\n      jumpi\n      dup1\n      0x967c67ce\n      eq\n      tag_11\n      jumpi\n      dup1\n      0x9e791d8b\n      eq\n      tag_12\n      jumpi\n      jump(tag_1)\n    tag_17:\n      dup1\n      0x3b644d18\n      gt\n      tag_19\n      jumpi\n      dup1\n      0x3b644d18\n      eq\n      tag_5\n      jumpi\n      dup1\n      0x3eb7647b\n      eq\n      tag_6\n      jumpi\n      dup1\n      0x481c6a75\n      eq\n      tag_7\n      jumpi\n      dup1\n      0x590e1ae3\n      eq\n      tag_8\n      jumpi\n      jump(tag_1)\n    tag_19:\n      dup1\n      0x0ae0ad71\n      eq\n      tag_2\n      jumpi\n      dup1\n      0x1f6d4942\n      eq\n      tag_3\n      jumpi\n      dup1\n      0x29dcb0cf\n      eq\n      tag_4\n      jumpi\n    tag_1:\n      0x00\n      dup1\n      revert\n        /* \"contracts/crowdfunding project .sol\":3346:3369  uint public numrequests */\n    tag_2:\n      callvalue\n      dup1\n      iszero\n      tag_20\n      jumpi\n      0x00\n      dup1\n      revert\n    tag_20:\n      pop\n      tag_21\n      tag_22\n      jump\t// in\n    tag_21:\n      mload(0x40)\n      tag_23\n      swap2\n      swap1\n      tag_24\n      jump\t// in\n    tag_23:\n      mload(0x40)\n      dup1\n      swap2\n      sub\n      swap1\n      return\n        /* \"contracts/crowdfunding project .sol\":89:133  mapping (address=>uint)  public contributors */\n    tag_3:\n      callvalue\n      dup1\n      iszero\n      tag_25\n      jumpi\n      0x00\n      dup1\n      revert\n    tag_25:\n      pop\n      tag_26\n      0x04\n      dup1\n      calldatasize\n      sub\n      dup2\n      add\n      swap1\n      tag_27\n      swap2\n      swap1\n      tag_28\n      jump\t// in\n    tag_27:\n      tag_29\n      jump\t// in\n    tag_26:\n      mload(0x40)\n      tag_30\n      swap2\n      swap1\n      tag_24\n      jump\t// in\n    tag_30:\n      mload(0x40)\n      dup1\n      swap2\n      sub\n      swap1\n      return\n        /* \"contracts/crowdfunding project .sol\":294:314  uint public deadline */\n    tag_4:\n      callvalue\n      dup1\n      iszero\n      tag_31\n      jumpi\n      0x00\n      dup1\n      revert\n    tag_31:\n      pop\n      tag_32\n      tag_33\n      jump\t// in\n    tag_32:\n      mload(0x40)\n      tag_34\n      swap2\n      swap1\n      tag_24\n      jump\t// in\n    tag_34:\n      mload(0x40)\n      dup1\n      swap2\n      sub\n      swap1\n      return\n        /* \"contracts/crowdfunding project .sol\":346:370  uint public raisedamount */\n    tag_5:\n      callvalue\n      dup1\n      iszero\n      tag_35\n      jumpi\n      0x00\n      dup1\n      revert\n    tag_35:\n      pop\n      tag_36\n      tag_37\n      jump\t// in\n    tag_36:\n      mload(0x40)\n      tag_38\n      swap2\n      swap1\n      tag_24\n      jump\t// in\n    tag_38:\n      mload(0x40)\n      dup1\n      swap2\n      sub\n      swap1\n      return\n        /* \"contracts/crowdfunding project .sol\":3491:4386  function createRequests(string memory _discription, address payable _receipient, uint _value ) public onlymanager{... */\n    tag_6:\n      callvalue\n      dup1\n      iszero\n      tag_39\n      jumpi\n      0x00\n      dup1\n      revert\n    tag_39:\n      pop\n      tag_40\n      0x04\n      dup1\n      calldatasize\n      sub\n      dup2\n      add\n      swap1\n      tag_41\n      swap2\n      swap1\n      tag_42\n      jump\t// in\n    tag_41:\n      tag_43\n      jump\t// in\n    tag_40:\n      stop\n        /* \"contracts/crowdfunding project .sol\":227:249  address public manager */\n    tag_7:\n      callvalue\n      dup1\n      iszero\n      tag_44\n      jumpi\n      0x00\n      dup1\n      revert\n    tag_44:\n      pop\n      tag_45\n      tag_46\n      jump\t// in\n    tag_45:\n      mload(0x40)\n      tag_47\n      swap2\n      swap1\n      tag_48\n      jump\t// in\n    tag_47:\n      mload(0x40)\n      dup1\n      swap2\n      sub\n      swap1\n      return\n        /* \"contracts/crowdfunding project .sol\":2211:2857  function refund() public {... */\n    tag_8:\n      callvalue\n      dup1\n      iszero\n      tag_49\n      jumpi\n      0x00\n      dup1\n      revert\n    tag_49:\n      pop\n      tag_50\n      tag_51\n      jump\t// in\n    tag_50:\n      stop\n        /* \"contracts/crowdfunding project .sol\":3298:3339  mapping (uint => Request) public requests */\n    tag_9:\n      callvalue\n      dup1\n      iszero\n      tag_52\n      jumpi\n      0x00\n      dup1\n      revert\n    tag_52:\n      pop\n      tag_53\n      0x04\n      dup1\n      calldatasize\n      sub\n      dup2\n      add\n      swap1\n      tag_54\n      swap2\n      swap1\n      tag_55\n      jump\t// in\n    tag_54:\n      tag_56\n      jump\t// in\n    tag_53:\n      mload(0x40)\n      tag_57\n      swap6\n      swap5\n      swap4\n      swap3\n      swap2\n      swap1\n      tag_58\n      jump\t// in\n    tag_57:\n      mload(0x40)\n      dup1\n      swap2\n      sub\n      swap1\n      return\n        /* \"contracts/crowdfunding project .sol\":377:405  uint public noofcontributors */\n    tag_10:\n      callvalue\n      dup1\n      iszero\n      tag_59\n      jumpi\n      0x00\n      dup1\n      revert\n    tag_59:\n      pop\n      tag_60\n      tag_61\n      jump\t// in\n    tag_60:\n      mload(0x40)\n      tag_62\n      swap2\n      swap1\n      tag_24\n      jump\t// in\n    tag_62:\n      mload(0x40)\n      dup1\n      swap2\n      sub\n      swap1\n      return\n        /* \"contracts/crowdfunding project .sol\":4394:5139  function voterequest(uint _requestNo) public  {... */\n    tag_11:\n      callvalue\n      dup1\n      iszero\n      tag_63\n      jumpi\n      0x00\n      dup1\n      revert\n    tag_63:\n      pop\n      tag_64\n      0x04\n      dup1\n      calldatasize\n      sub\n      dup2\n      add\n      swap1\n      tag_65\n      swap2\n      swap1\n      tag_55\n      jump\t// in\n    tag_65:\n      tag_66\n      jump\t// in\n    tag_64:\n      stop\n        /* \"contracts/crowdfunding project .sol\":965:2093  function sendether() public payable {... */\n    tag_12:\n      tag_67\n      tag_68\n      jump\t// in\n    tag_67:\n      stop\n        /* \"contracts/crowdfunding project .sol\":256:287  uint public minimumcontribution */\n    tag_13:\n      callvalue\n      dup1\n      iszero\n      tag_69\n      jumpi\n      0x00\n      dup1\n      revert\n    tag_69:\n      pop\n      tag_70\n      tag_71\n      jump\t// in\n    tag_70:\n      mload(0x40)\n      tag_72\n      swap2\n      swap1\n      tag_24\n      jump\t// in\n    tag_72:\n      mload(0x40)\n      dup1\n      swap2\n      sub\n      swap1\n      return\n        /* \"contracts/crowdfunding project .sol\":5145:5995  function makepayment(uint _requestNo) public onlymanager{... */\n    tag_14:\n      callvalue\n      dup1\n      iszero\n      tag_73\n      jumpi\n      0x00\n      dup1\n      revert\n    tag_73:\n      pop\n      tag_74\n      0x04\n      dup1\n      calldatasize\n      sub\n      dup2\n      add\n      swap1\n      tag_75\n      swap2\n      swap1\n      tag_55\n      jump\t// in\n    tag_75:\n      tag_76\n      jump\t// in\n    tag_74:\n      stop\n        /* \"contracts/crowdfunding project .sol\":321:339  uint public target */\n    tag_15:\n      callvalue\n      dup1\n      iszero\n      tag_77\n      jumpi\n      0x00\n      dup1\n      revert\n    tag_77:\n      pop\n      tag_78\n      tag_79\n      jump\t// in\n    tag_78:\n      mload(0x40)\n      tag_80\n      swap2\n      swap1\n      tag_24\n      jump\t// in\n    tag_80:\n      mload(0x40)\n      dup1\n      swap2\n      sub\n      swap1\n      return\n        /* \"contracts/crowdfunding project .sol\":2101:2203  function getcontractbalance() public view returns(uint){... */\n    tag_16:\n      callvalue\n      dup1\n      iszero\n      tag_81\n      jumpi\n      0x00\n      dup1\n      revert\n    tag_81:\n      pop\n      tag_82\n      tag_83\n      jump\t// in\n    tag_82:\n      mload(0x40)\n      tag_84\n      swap2\n      swap1\n      tag_24\n      jump\t// in\n    tag_84:\n      mload(0x40)\n      dup1\n      swap2\n      sub\n      swap1\n      return\n        /* \"contracts/crowdfunding project .sol\":3346:3369  uint public numrequests */\n    tag_22:\n      sload(0x08)\n      dup2\n      jump\t// out\n        /* \"contracts/crowdfunding project .sol\":89:133  mapping (address=>uint)  public contributors */\n    tag_29:\n      mstore(0x20, 0x00)\n      dup1\n      0x00\n      mstore\n      keccak256(0x00, 0x40)\n      0x00\n      swap2\n      pop\n      swap1\n      pop\n      sload\n      dup2\n      jump\t// out\n        /* \"contracts/crowdfunding project .sol\":294:314  uint public deadline */\n    tag_33:\n      sload(0x03)\n      dup2\n      jump\t// out\n        /* \"contracts/crowdfunding project .sol\":346:370  uint public raisedamount */\n    tag_37:\n      sload(0x05)\n      dup2\n      jump\t// out\n        /* \"contracts/crowdfunding project .sol\":3491:4386  function createRequests(string memory _discription, address payable _receipient, uint _value ) public onlymanager{... */\n    tag_43:\n        /* \"contracts/crowdfunding project .sol\":3431:3438  manager */\n      0x01\n      0x00\n      swap1\n      sload\n      swap1\n      0x0100\n      exp\n      swap1\n      div\n      0xffffffffffffffffffffffffffffffffffffffff\n      and\n        /* \"contracts/crowdfunding project .sol\":3419:3438  msg.sender==manager */\n      0xffffffffffffffffffffffffffffffffffffffff\n      and\n        /* \"contracts/crowdfunding project .sol\":3419:3429  msg.sender */\n      caller\n        /* \"contracts/crowdfunding project .sol\":3419:3438  msg.sender==manager */\n      0xffffffffffffffffffffffffffffffffffffffff\n      and\n      eq\n        /* \"contracts/crowdfunding project .sol\":3411:3463  require(msg.sender==manager,\"only manager can call\") */\n      tag_86\n      jumpi\n      mload(0x40)\n      0x08c379a000000000000000000000000000000000000000000000000000000000\n      dup2\n      mstore\n      0x04\n      add\n      tag_87\n      swap1\n      tag_88\n      jump\t// in\n    tag_87:\n      mload(0x40)\n      dup1\n      swap2\n      sub\n      swap1\n      revert\n    tag_86:\n        /* \"contracts/crowdfunding project .sol\":3886:3911  Request storage usestruct */\n      0x00\n        /* \"contracts/crowdfunding project .sol\":3914:3922  requests */\n      0x07\n        /* \"contracts/crowdfunding project .sol\":3914:3935  requests[numrequests] */\n      0x00\n        /* \"contracts/crowdfunding project .sol\":3923:3934  numrequests */\n      sload(0x08)\n        /* \"contracts/crowdfunding project .sol\":3914:3935  requests[numrequests] */\n      dup2\n      mstore\n      0x20\n      add\n      swap1\n      dup2\n      mstore\n      0x20\n      add\n      0x00\n      keccak256\n        /* \"contracts/crowdfunding project .sol\":3886:3935  Request storage usestruct = requests[numrequests] */\n      swap1\n      pop\n        /* \"contracts/crowdfunding project .sol\":4169:4180  numrequests */\n      0x08\n      0x00\n        /* \"contracts/crowdfunding project .sol\":4169:4182  numrequests++ */\n      dup2\n      sload\n      dup1\n      swap3\n      swap2\n      swap1\n      tag_90\n      swap1\n      tag_91\n      jump\t// in\n    tag_90:\n      swap2\n      swap1\n      pop\n      sstore\n      pop\n        /* \"contracts/crowdfunding project .sol\":4215:4227  _discription */\n      dup4\n        /* \"contracts/crowdfunding project .sol\":4193:4202  usestruct */\n      dup2\n        /* \"contracts/crowdfunding project .sol\":4193:4214  usestruct.description */\n      0x00\n      add\n        /* \"contracts/crowdfunding project .sol\":4193:4227  usestruct.description=_discription */\n      swap1\n      dup2\n      tag_92\n      swap2\n      swap1\n      tag_93\n      jump\t// in\n    tag_92:\n      pop\n        /* \"contracts/crowdfunding project .sol\":4259:4270  _receipient */\n      dup3\n        /* \"contracts/crowdfunding project .sol\":4238:4247  usestruct */\n      dup2\n        /* \"contracts/crowdfunding project .sol\":4238:4258  usestruct.receipient */\n      0x01\n      add\n      0x00\n        /* \"contracts/crowdfunding project .sol\":4238:4270  usestruct.receipient=_receipient */\n      0x0100\n      exp\n      dup2\n      sload\n      dup2\n      0xffffffffffffffffffffffffffffffffffffffff\n      mul\n      not\n      and\n      swap1\n      dup4\n      0xffffffffffffffffffffffffffffffffffffffff\n      and\n      mul\n      or\n      swap1\n      sstore\n      pop\n        /* \"contracts/crowdfunding project .sol\":4297:4303  _value */\n      dup2\n        /* \"contracts/crowdfunding project .sol\":4281:4290  usestruct */\n      dup2\n        /* \"contracts/crowdfunding project .sol\":4281:4296  usestruct.value */\n      0x02\n      add\n        /* \"contracts/crowdfunding project .sol\":4281:4303  usestruct.value=_value */\n      dup2\n      swap1\n      sstore\n      pop\n        /* \"contracts/crowdfunding project .sol\":4340:4345  false */\n      0x00\n        /* \"contracts/crowdfunding project .sol\":4314:4323  usestruct */\n      dup2\n        /* \"contracts/crowdfunding project .sol\":4314:4339  usestruct.votingcompleted */\n      0x03\n      add\n      0x00\n        /* \"contracts/crowdfunding project .sol\":4314:4345  usestruct.votingcompleted=false */\n      0x0100\n      exp\n      dup2\n      sload\n      dup2\n      0xff\n      mul\n      not\n      and\n      swap1\n      dup4\n      iszero\n      iszero\n      mul\n      or\n      swap1\n      sstore\n      pop\n        /* \"contracts/crowdfunding project .sol\":4377:4378  0 */\n      0x00\n        /* \"contracts/crowdfunding project .sol\":4356:4365  usestruct */\n      dup2\n        /* \"contracts/crowdfunding project .sol\":4356:4376  usestruct.noofvoters */\n      0x04\n      add\n        /* \"contracts/crowdfunding project .sol\":4356:4378  usestruct.noofvoters=0 */\n      dup2\n      swap1\n      sstore\n      pop\n        /* \"contracts/crowdfunding project .sol\":3604:4386  {... */\n      pop\n        /* \"contracts/crowdfunding project .sol\":3491:4386  function createRequests(string memory _discription, address payable _receipient, uint _value ) public onlymanager{... */\n      pop\n      pop\n      pop\n      jump\t// out\n        /* \"contracts/crowdfunding project .sol\":227:249  address public manager */\n    tag_46:\n      0x01\n      0x00\n      swap1\n      sload\n      swap1\n      0x0100\n      exp\n      swap1\n      div\n      0xffffffffffffffffffffffffffffffffffffffff\n      and\n      dup2\n      jump\t// out\n        /* \"contracts/crowdfunding project .sol\":2211:2857  function refund() public {... */\n    tag_51:\n        /* \"contracts/crowdfunding project .sol\":2273:2281  deadline */\n      sload(0x03)\n        /* \"contracts/crowdfunding project .sol\":2255:2270  block.timestamp */\n      timestamp\n        /* \"contracts/crowdfunding project .sol\":2255:2281  block.timestamp > deadline */\n      gt\n        /* \"contracts/crowdfunding project .sol\":2255:2305  block.timestamp > deadline && raisedamount==target */\n      dup1\n      iszero\n      tag_95\n      jumpi\n      pop\n        /* \"contracts/crowdfunding project .sol\":2299:2305  target */\n      sload(0x04)\n        /* \"contracts/crowdfunding project .sol\":2285:2297  raisedamount */\n      sload(0x05)\n        /* \"contracts/crowdfunding project .sol\":2285:2305  raisedamount==target */\n      eq\n        /* \"contracts/crowdfunding project .sol\":2255:2305  block.timestamp > deadline && raisedamount==target */\n    tag_95:\n        /* \"contracts/crowdfunding project .sol\":2247:2322  require(block.timestamp > deadline && raisedamount==target, \"you are late\") */\n      tag_96\n      jumpi\n      mload(0x40)\n      0x08c379a000000000000000000000000000000000000000000000000000000000\n      dup2\n      mstore\n      0x04\n      add\n      tag_97\n      swap1\n      tag_98\n      jump\t// in\n    tag_97:\n      mload(0x40)\n      dup1\n      swap2\n      sub\n      swap1\n      revert\n    tag_96:\n        /* \"contracts/crowdfunding project .sol\":2367:2374  100 wei */\n      0x64\n        /* \"contracts/crowdfunding project .sol\":2341:2353  contributors */\n      0x00\n        /* \"contracts/crowdfunding project .sol\":2341:2365  contributors[msg.sender] */\n      dup1\n        /* \"contracts/crowdfunding project .sol\":2354:2364  msg.sender */\n      caller\n        /* \"contracts/crowdfunding project .sol\":2341:2365  contributors[msg.sender] */\n      0xffffffffffffffffffffffffffffffffffffffff\n      and\n      0xffffffffffffffffffffffffffffffffffffffff\n      and\n      dup2\n      mstore\n      0x20\n      add\n      swap1\n      dup2\n      mstore\n      0x20\n      add\n      0x00\n      keccak256\n      sload\n        /* \"contracts/crowdfunding project .sol\":2341:2374  contributors[msg.sender]>=100 wei */\n      lt\n      iszero\n        /* \"contracts/crowdfunding project .sol\":2333:2403  require(contributors[msg.sender]>=100 wei ,\"you are not contributors\") */\n      tag_99\n      jumpi\n      mload(0x40)\n      0x08c379a000000000000000000000000000000000000000000000000000000000\n      dup2\n      mstore\n      0x04\n      add\n      tag_100\n      swap1\n      tag_101\n      jump\t// in\n    tag_100:\n      mload(0x40)\n      dup1\n      swap2\n      sub\n      swap1\n      revert\n    tag_99:\n        /* \"contracts/crowdfunding project .sol\":2510:2530  address payable user */\n      0x00\n        /* \"contracts/crowdfunding project .sol\":2542:2552  msg.sender */\n      caller\n        /* \"contracts/crowdfunding project .sol\":2510:2553  address payable user = payable (msg.sender) */\n      swap1\n      pop\n        /* \"contracts/crowdfunding project .sol\":2773:2777  user */\n      dup1\n        /* \"contracts/crowdfunding project .sol\":2773:2786  user.transfer */\n      0xffffffffffffffffffffffffffffffffffffffff\n      and\n        /* \"contracts/crowdfunding project .sol\":2773:2812  user.transfer(contributors[msg.sender]) */\n      0x08fc\n        /* \"contracts/crowdfunding project .sol\":2787:2799  contributors */\n      0x00\n        /* \"contracts/crowdfunding project .sol\":2787:2811  contributors[msg.sender] */\n      dup1\n        /* \"contracts/crowdfunding project .sol\":2800:2810  msg.sender */\n      caller\n        /* \"contracts/crowdfunding project .sol\":2787:2811  contributors[msg.sender] */\n      0xffffffffffffffffffffffffffffffffffffffff\n      and\n      0xffffffffffffffffffffffffffffffffffffffff\n      and\n      dup2\n      mstore\n      0x20\n      add\n      swap1\n      dup2\n      mstore\n      0x20\n      add\n      0x00\n      keccak256\n      sload\n        /* \"contracts/crowdfunding project .sol\":2773:2812  user.transfer(contributors[msg.sender]) */\n      swap1\n      dup2\n      iszero\n      mul\n      swap1\n      mload(0x40)\n      0x00\n      mload(0x40)\n      dup1\n      dup4\n      sub\n      dup2\n      dup6\n      dup9\n      dup9\n      call\n      swap4\n      pop\n      pop\n      pop\n      pop\n      iszero\n      dup1\n      iszero\n      tag_103\n      jumpi\n      returndatasize\n      0x00\n      dup1\n      returndatacopy\n      revert(0x00, returndatasize)\n    tag_103:\n      pop\n        /* \"contracts/crowdfunding project .sol\":2848:2849  0 */\n      0x00\n        /* \"contracts/crowdfunding project .sol\":2823:2835  contributors */\n      dup1\n        /* \"contracts/crowdfunding project .sol\":2823:2847  contributors[msg.sender] */\n      0x00\n        /* \"contracts/crowdfunding project .sol\":2836:2846  msg.sender */\n      caller\n        /* \"contracts/crowdfunding project .sol\":2823:2847  contributors[msg.sender] */\n      0xffffffffffffffffffffffffffffffffffffffff\n      and\n      0xffffffffffffffffffffffffffffffffffffffff\n      and\n      dup2\n      mstore\n      0x20\n      add\n      swap1\n      dup2\n      mstore\n      0x20\n      add\n      0x00\n      keccak256\n        /* \"contracts/crowdfunding project .sol\":2823:2849  contributors[msg.sender]=0 */\n      dup2\n      swap1\n      sstore\n      pop\n        /* \"contracts/crowdfunding project .sol\":2236:2857  {... */\n      pop\n        /* \"contracts/crowdfunding project .sol\":2211:2857  function refund() public {... */\n      jump\t// out\n        /* \"contracts/crowdfunding project .sol\":3298:3339  mapping (uint => Request) public requests */\n    tag_56:\n      mstore(0x20, 0x07)\n      dup1\n      0x00\n      mstore\n      keccak256(0x00, 0x40)\n      0x00\n      swap2\n      pop\n      swap1\n      pop\n      dup1\n      0x00\n      add\n      dup1\n      sload\n      tag_104\n      swap1\n      tag_105\n      jump\t// in\n    tag_104:\n      dup1\n      0x1f\n      add\n      0x20\n      dup1\n      swap2\n      div\n      mul\n      0x20\n      add\n      mload(0x40)\n      swap1\n      dup2\n      add\n      0x40\n      mstore\n      dup1\n      swap3\n      swap2\n      swap1\n      dup2\n      dup2\n      mstore\n      0x20\n      add\n      dup3\n      dup1\n      sload\n      tag_106\n      swap1\n      tag_105\n      jump\t// in\n    tag_106:\n      dup1\n      iszero\n      tag_107\n      jumpi\n      dup1\n      0x1f\n      lt\n      tag_108\n      jumpi\n      0x0100\n      dup1\n      dup4\n      sload\n      div\n      mul\n      dup4\n      mstore\n      swap2\n      0x20\n      add\n      swap2\n      jump(tag_107)\n    tag_108:\n      dup3\n      add\n      swap2\n      swap1\n      0x00\n      mstore\n      keccak256(0x00, 0x20)\n      swap1\n    tag_109:\n      dup2\n      sload\n      dup2\n      mstore\n      swap1\n      0x01\n      add\n      swap1\n      0x20\n      add\n      dup1\n      dup4\n      gt\n      tag_109\n      jumpi\n      dup3\n      swap1\n      sub\n      0x1f\n      and\n      dup3\n      add\n      swap2\n    tag_107:\n      pop\n      pop\n      pop\n      pop\n      pop\n      swap1\n      dup1\n      0x01\n      add\n      0x00\n      swap1\n      sload\n      swap1\n      0x0100\n      exp\n      swap1\n      div\n      0xffffffffffffffffffffffffffffffffffffffff\n      and\n      swap1\n      dup1\n      0x02\n      add\n      sload\n      swap1\n      dup1\n      0x03\n      add\n      0x00\n      swap1\n      sload\n      swap1\n      0x0100\n      exp\n      swap1\n      div\n      0xff\n      and\n      swap1\n      dup1\n      0x04\n      add\n      sload\n      swap1\n      pop\n      dup6\n      jump\t// out\n        /* \"contracts/crowdfunding project .sol\":377:405  uint public noofcontributors */\n    tag_61:\n      sload(0x06)\n      dup2\n      jump\t// out\n        /* \"contracts/crowdfunding project .sol\":4394:5139  function voterequest(uint _requestNo) public  {... */\n    tag_66:\n        /* \"contracts/crowdfunding project .sol\":4484:4485  0 */\n      0x00\n        /* \"contracts/crowdfunding project .sol\":4459:4471  contributors */\n      dup1\n        /* \"contracts/crowdfunding project .sol\":4459:4483  contributors[msg.sender] */\n      0x00\n        /* \"contracts/crowdfunding project .sol\":4472:4482  msg.sender */\n      caller\n        /* \"contracts/crowdfunding project .sol\":4459:4483  contributors[msg.sender] */\n      0xffffffffffffffffffffffffffffffffffffffff\n      and\n      0xffffffffffffffffffffffffffffffffffffffff\n      and\n      dup2\n      mstore\n      0x20\n      add\n      swap1\n      dup2\n      mstore\n      0x20\n      add\n      0x00\n      keccak256\n      sload\n        /* \"contracts/crowdfunding project .sol\":4459:4485  contributors[msg.sender]>0 */\n      gt\n        /* \"contracts/crowdfunding project .sol\":4451:4522  require(contributors[msg.sender]>0 , \"you must participate for voting\") */\n      tag_111\n      jumpi\n      mload(0x40)\n      0x08c379a000000000000000000000000000000000000000000000000000000000\n      dup2\n      mstore\n      0x04\n      add\n      tag_112\n      swap1\n      tag_113\n      jump\t// in\n    tag_112:\n      mload(0x40)\n      dup1\n      swap2\n      sub\n      swap1\n      revert\n    tag_111:\n        /* \"contracts/crowdfunding project .sol\":4555:4566  numrequests */\n      sload(0x08)\n        /* \"contracts/crowdfunding project .sol\":4542:4552  _requestNo */\n      dup2\n        /* \"contracts/crowdfunding project .sol\":4542:4566  _requestNo < numrequests */\n      lt\n        /* \"contracts/crowdfunding project .sol\":4533:4567  require( _requestNo < numrequests) */\n      tag_114\n      jumpi\n      0x00\n      dup1\n      revert\n    tag_114:\n        /* \"contracts/crowdfunding project .sol\":4708:4735  Request storage thisrequest */\n      0x00\n        /* \"contracts/crowdfunding project .sol\":4738:4746  requests */\n      0x07\n        /* \"contracts/crowdfunding project .sol\":4738:4758  requests[_requestNo] */\n      0x00\n        /* \"contracts/crowdfunding project .sol\":4747:4757  _requestNo */\n      dup4\n        /* \"contracts/crowdfunding project .sol\":4738:4758  requests[_requestNo] */\n      dup2\n      mstore\n      0x20\n      add\n      swap1\n      dup2\n      mstore\n      0x20\n      add\n      0x00\n      keccak256\n        /* \"contracts/crowdfunding project .sol\":4708:4758  Request storage thisrequest = requests[_requestNo] */\n      swap1\n      pop\n        /* \"contracts/crowdfunding project .sol\":4968:4973  false */\n      0x00\n        /* \"contracts/crowdfunding project .sol\":4936:4973  thisrequest.voters[msg.sender]==false */\n      iszero\n      iszero\n        /* \"contracts/crowdfunding project .sol\":4936:4947  thisrequest */\n      dup2\n        /* \"contracts/crowdfunding project .sol\":4936:4954  thisrequest.voters */\n      0x05\n      add\n        /* \"contracts/crowdfunding project .sol\":4936:4966  thisrequest.voters[msg.sender] */\n      0x00\n        /* \"contracts/crowdfunding project .sol\":4955:4965  msg.sender */\n      caller\n        /* \"contracts/crowdfunding project .sol\":4936:4966  thisrequest.voters[msg.sender] */\n      0xffffffffffffffffffffffffffffffffffffffff\n      and\n      0xffffffffffffffffffffffffffffffffffffffff\n      and\n      dup2\n      mstore\n      0x20\n      add\n      swap1\n      dup2\n      mstore\n      0x20\n      add\n      0x00\n      keccak256\n      0x00\n      swap1\n      sload\n      swap1\n      0x0100\n      exp\n      swap1\n      div\n      0xff\n      and\n        /* \"contracts/crowdfunding project .sol\":4936:4973  thisrequest.voters[msg.sender]==false */\n      iszero\n      iszero\n      eq\n        /* \"contracts/crowdfunding project .sol\":4928:5000  require(thisrequest.voters[msg.sender]==false, \"you have already voted\") */\n      tag_115\n      jumpi\n      mload(0x40)\n      0x08c379a000000000000000000000000000000000000000000000000000000000\n      dup2\n      mstore\n      0x04\n      add\n      tag_116\n      swap1\n      tag_117\n      jump\t// in\n    tag_116:\n      mload(0x40)\n      dup1\n      swap2\n      sub\n      swap1\n      revert\n    tag_115:\n        /* \"contracts/crowdfunding project .sol\":5094:5098  true */\n      0x01\n        /* \"contracts/crowdfunding project .sol\":5063:5074  thisrequest */\n      dup2\n        /* \"contracts/crowdfunding project .sol\":5063:5081  thisrequest.voters */\n      0x05\n      add\n        /* \"contracts/crowdfunding project .sol\":5063:5093  thisrequest.voters[msg.sender] */\n      0x00\n        /* \"contracts/crowdfunding project .sol\":5082:5092  msg.sender */\n      caller\n        /* \"contracts/crowdfunding project .sol\":5063:5093  thisrequest.voters[msg.sender] */\n      0xffffffffffffffffffffffffffffffffffffffff\n      and\n      0xffffffffffffffffffffffffffffffffffffffff\n      and\n      dup2\n      mstore\n      0x20\n      add\n      swap1\n      dup2\n      mstore\n      0x20\n      add\n      0x00\n      keccak256\n      0x00\n        /* \"contracts/crowdfunding project .sol\":5063:5098  thisrequest.voters[msg.sender]=true */\n      0x0100\n      exp\n      dup2\n      sload\n      dup2\n      0xff\n      mul\n      not\n      and\n      swap1\n      dup4\n      iszero\n      iszero\n      mul\n      or\n      swap1\n      sstore\n      pop\n        /* \"contracts/crowdfunding project .sol\":5109:5120  thisrequest */\n      dup1\n        /* \"contracts/crowdfunding project .sol\":5109:5131  thisrequest.noofvoters */\n      0x04\n      add\n      0x00\n        /* \"contracts/crowdfunding project .sol\":5109:5133  thisrequest.noofvoters++ */\n      dup2\n      sload\n      dup1\n      swap3\n      swap2\n      swap1\n      tag_118\n      swap1\n      tag_91\n      jump\t// in\n    tag_118:\n      swap2\n      swap1\n      pop\n      sstore\n      pop\n        /* \"contracts/crowdfunding project .sol\":4440:5139  {... */\n      pop\n        /* \"contracts/crowdfunding project .sol\":4394:5139  function voterequest(uint _requestNo) public  {... */\n      pop\n      jump\t// out\n        /* \"contracts/crowdfunding project .sol\":965:2093  function sendether() public payable {... */\n    tag_68:\n        /* \"contracts/crowdfunding project .sol\":1037:1045  deadline */\n      sload(0x03)\n        /* \"contracts/crowdfunding project .sol\":1020:1035  block.timestamp */\n      timestamp\n        /* \"contracts/crowdfunding project .sol\":1020:1045  block.timestamp< deadline */\n      lt\n        /* \"contracts/crowdfunding project .sol\":1012:1069  require(block.timestamp< deadline, \"deadline has passed\") */\n      tag_120\n      jumpi\n      mload(0x40)\n      0x08c379a000000000000000000000000000000000000000000000000000000000\n      dup2\n      mstore\n      0x04\n      add\n      tag_121\n      swap1\n      tag_122\n      jump\t// in\n    tag_121:\n      mload(0x40)\n      dup1\n      swap2\n      sub\n      swap1\n      revert\n    tag_120:\n        /* \"contracts/crowdfunding project .sol\":1101:1120  minimumcontribution */\n      sload(0x02)\n        /* \"contracts/crowdfunding project .sol\":1088:1097  msg.value */\n      callvalue\n        /* \"contracts/crowdfunding project .sol\":1088:1120  msg.value >= minimumcontribution */\n      lt\n      iszero\n        /* \"contracts/crowdfunding project .sol\":1080:1161  require(msg.value >= minimumcontribution, \"you need to add minimum contribution\") */\n      tag_123\n      jumpi\n      mload(0x40)\n      0x08c379a000000000000000000000000000000000000000000000000000000000\n      dup2\n      mstore\n      0x04\n      add\n      tag_124\n      swap1\n      tag_125\n      jump\t// in\n    tag_124:\n      mload(0x40)\n      dup1\n      swap2\n      sub\n      swap1\n      revert\n    tag_123:\n        /* \"contracts/crowdfunding project .sol\":1397:1398  0 */\n      0x00\n        /* \"contracts/crowdfunding project .sol\":1371:1383  contributors */\n      dup1\n        /* \"contracts/crowdfunding project .sol\":1371:1395  contributors[msg.sender] */\n      0x00\n        /* \"contracts/crowdfunding project .sol\":1384:1394  msg.sender */\n      caller\n        /* \"contracts/crowdfunding project .sol\":1371:1395  contributors[msg.sender] */\n      0xffffffffffffffffffffffffffffffffffffffff\n      and\n      0xffffffffffffffffffffffffffffffffffffffff\n      and\n      dup2\n      mstore\n      0x20\n      add\n      swap1\n      dup2\n      mstore\n      0x20\n      add\n      0x00\n      keccak256\n      sload\n        /* \"contracts/crowdfunding project .sol\":1371:1398  contributors[msg.sender]==0 */\n      sub\n        /* \"contracts/crowdfunding project .sol\":1367:1444  if (contributors[msg.sender]==0){... */\n      tag_126\n      jumpi\n        /* \"contracts/crowdfunding project .sol\":1414:1430  noofcontributors */\n      0x06\n      0x00\n        /* \"contracts/crowdfunding project .sol\":1414:1432  noofcontributors++ */\n      dup2\n      sload\n      dup1\n      swap3\n      swap2\n      swap1\n      tag_127\n      swap1\n      tag_91\n      jump\t// in\n    tag_127:\n      swap2\n      swap1\n      pop\n      sstore\n      pop\n        /* \"contracts/crowdfunding project .sol\":1367:1444  if (contributors[msg.sender]==0){... */\n    tag_126:\n        /* \"contracts/crowdfunding project .sol\":1595:1604  msg.value */\n      callvalue\n        /* \"contracts/crowdfunding project .sol\":1567:1579  contributors */\n      0x00\n        /* \"contracts/crowdfunding project .sol\":1567:1591  contributors[msg.sender] */\n      dup1\n        /* \"contracts/crowdfunding project .sol\":1580:1590  msg.sender */\n      caller\n        /* \"contracts/crowdfunding project .sol\":1567:1591  contributors[msg.sender] */\n      0xffffffffffffffffffffffffffffffffffffffff\n      and\n      0xffffffffffffffffffffffffffffffffffffffff\n      and\n      dup2\n      mstore\n      0x20\n      add\n      swap1\n      dup2\n      mstore\n      0x20\n      add\n      0x00\n      keccak256\n      0x00\n        /* \"contracts/crowdfunding project .sol\":1567:1604  contributors[msg.sender] += msg.value */\n      dup3\n      dup3\n      sload\n      tag_128\n      swap2\n      swap1\n      tag_129\n      jump\t// in\n    tag_128:\n      swap3\n      pop\n      pop\n      dup2\n      swap1\n      sstore\n      pop\n        /* \"contracts/crowdfunding project .sol\":1631:1640  msg.value */\n      callvalue\n        /* \"contracts/crowdfunding project .sol\":1615:1627  raisedamount */\n      0x05\n      0x00\n        /* \"contracts/crowdfunding project .sol\":1615:1640  raisedamount += msg.value */\n      dup3\n      dup3\n      sload\n      tag_130\n      swap2\n      swap1\n      tag_129\n      jump\t// in\n    tag_130:\n      swap3\n      pop\n      pop\n      dup2\n      swap1\n      sstore\n      pop\n        /* \"contracts/crowdfunding project .sol\":965:2093  function sendether() public payable {... */\n      jump\t// out\n        /* \"contracts/crowdfunding project .sol\":256:287  uint public minimumcontribution */\n    tag_71:\n      sload(0x02)\n      dup2\n      jump\t// out\n        /* \"contracts/crowdfunding project .sol\":5145:5995  function makepayment(uint _requestNo) public onlymanager{... */\n    tag_76:\n        /* \"contracts/crowdfunding project .sol\":3431:3438  manager */\n      0x01\n      0x00\n      swap1\n      sload\n      swap1\n      0x0100\n      exp\n      swap1\n      div\n      0xffffffffffffffffffffffffffffffffffffffff\n      and\n        /* \"contracts/crowdfunding project .sol\":3419:3438  msg.sender==manager */\n      0xffffffffffffffffffffffffffffffffffffffff\n      and\n        /* \"contracts/crowdfunding project .sol\":3419:3429  msg.sender */\n      caller\n        /* \"contracts/crowdfunding project .sol\":3419:3438  msg.sender==manager */\n      0xffffffffffffffffffffffffffffffffffffffff\n      and\n      eq\n        /* \"contracts/crowdfunding project .sol\":3411:3463  require(msg.sender==manager,\"only manager can call\") */\n      tag_132\n      jumpi\n      mload(0x40)\n      0x08c379a000000000000000000000000000000000000000000000000000000000\n      dup2\n      mstore\n      0x04\n      add\n      tag_133\n      swap1\n      tag_88\n      jump\t// in\n    tag_133:\n      mload(0x40)\n      dup1\n      swap2\n      sub\n      swap1\n      revert\n    tag_132:\n        /* \"contracts/crowdfunding project .sol\":5233:5239  target */\n      sload(0x04)\n        /* \"contracts/crowdfunding project .sol\":5218:5230  raisedamount */\n      sload(0x05)\n        /* \"contracts/crowdfunding project .sol\":5218:5239  raisedamount >=target */\n      lt\n      iszero\n        /* \"contracts/crowdfunding project .sol\":5210:5240  require(raisedamount >=target) */\n      tag_135\n      jumpi\n      0x00\n      dup1\n      revert\n    tag_135:\n        /* \"contracts/crowdfunding project .sol\":5320:5347  Request storage thisrequest */\n      0x00\n        /* \"contracts/crowdfunding project .sol\":5350:5358  requests */\n      0x07\n        /* \"contracts/crowdfunding project .sol\":5350:5370  requests[_requestNo] */\n      0x00\n        /* \"contracts/crowdfunding project .sol\":5359:5369  _requestNo */\n      dup4\n        /* \"contracts/crowdfunding project .sol\":5350:5370  requests[_requestNo] */\n      dup2\n      mstore\n      0x20\n      add\n      swap1\n      dup2\n      mstore\n      0x20\n      add\n      0x00\n      keccak256\n        /* \"contracts/crowdfunding project .sol\":5320:5370  Request storage thisrequest = requests[_requestNo] */\n      swap1\n      pop\n        /* \"contracts/crowdfunding project .sol\":5487:5492  false */\n      0x00\n        /* \"contracts/crowdfunding project .sol\":5458:5492  thisrequest.votingcompleted==false */\n      iszero\n      iszero\n        /* \"contracts/crowdfunding project .sol\":5458:5469  thisrequest */\n      dup2\n        /* \"contracts/crowdfunding project .sol\":5458:5485  thisrequest.votingcompleted */\n      0x03\n      add\n      0x00\n      swap1\n      sload\n      swap1\n      0x0100\n      exp\n      swap1\n      div\n      0xff\n      and\n        /* \"contracts/crowdfunding project .sol\":5458:5492  thisrequest.votingcompleted==false */\n      iszero\n      iszero\n      eq\n        /* \"contracts/crowdfunding project .sol\":5450:5514  require(thisrequest.votingcompleted==false, \"already completed\") */\n      tag_136\n      jumpi\n      mload(0x40)\n      0x08c379a000000000000000000000000000000000000000000000000000000000\n      dup2\n      mstore\n      0x04\n      add\n      tag_137\n      swap1\n      tag_138\n      jump\t// in\n    tag_137:\n      mload(0x40)\n      dup1\n      swap2\n      sub\n      swap1\n      revert\n    tag_136:\n        /* \"contracts/crowdfunding project .sol\":5680:5681  2 */\n      0x02\n        /* \"contracts/crowdfunding project .sol\":5663:5679  noofcontributors */\n      sload(0x06)\n        /* \"contracts/crowdfunding project .sol\":5663:5681  noofcontributors/2 */\n      tag_139\n      swap2\n      swap1\n      tag_140\n      jump\t// in\n    tag_139:\n        /* \"contracts/crowdfunding project .sol\":5639:5650  thisrequest */\n      dup2\n        /* \"contracts/crowdfunding project .sol\":5639:5661  thisrequest.noofvoters */\n      0x04\n      add\n      sload\n        /* \"contracts/crowdfunding project .sol\":5639:5681  thisrequest.noofvoters> noofcontributors/2 */\n      gt\n        /* \"contracts/crowdfunding project .sol\":5631:5734  require(thisrequest.noofvoters> noofcontributors/2,\"majority not meets more thn 50% vote not for this\") */\n      tag_141\n      jumpi\n      mload(0x40)\n      0x08c379a000000000000000000000000000000000000000000000000000000000\n      dup2\n      mstore\n      0x04\n      add\n      tag_142\n      swap1\n      tag_143\n      jump\t// in\n    tag_142:\n      mload(0x40)\n      dup1\n      swap2\n      sub\n      swap1\n      revert\n    tag_141:\n        /* \"contracts/crowdfunding project .sol\":5829:5840  thisrequest */\n      dup1\n        /* \"contracts/crowdfunding project .sol\":5829:5851  thisrequest.receipient */\n      0x01\n      add\n      0x00\n      swap1\n      sload\n      swap1\n      0x0100\n      exp\n      swap1\n      div\n      0xffffffffffffffffffffffffffffffffffffffff\n      and\n        /* \"contracts/crowdfunding project .sol\":5829:5860  thisrequest.receipient.transfer */\n      0xffffffffffffffffffffffffffffffffffffffff\n      and\n        /* \"contracts/crowdfunding project .sol\":5829:5879  thisrequest.receipient.transfer(thisrequest.value) */\n      0x08fc\n        /* \"contracts/crowdfunding project .sol\":5861:5872  thisrequest */\n      dup3\n        /* \"contracts/crowdfunding project .sol\":5861:5878  thisrequest.value */\n      0x02\n      add\n      sload\n        /* \"contracts/crowdfunding project .sol\":5829:5879  thisrequest.receipient.transfer(thisrequest.value) */\n      swap1\n      dup2\n      iszero\n      mul\n      swap1\n      mload(0x40)\n      0x00\n      mload(0x40)\n      dup1\n      dup4\n      sub\n      dup2\n      dup6\n      dup9\n      dup9\n      call\n      swap4\n      pop\n      pop\n      pop\n      pop\n      iszero\n      dup1\n      iszero\n      tag_145\n      jumpi\n      returndatasize\n      0x00\n      dup1\n      returndatacopy\n      revert(0x00, returndatasize)\n    tag_145:\n      pop\n        /* \"contracts/crowdfunding project .sol\":5916:5920  true */\n      0x01\n        /* \"contracts/crowdfunding project .sol\":5888:5899  thisrequest */\n      dup2\n        /* \"contracts/crowdfunding project .sol\":5888:5915  thisrequest.votingcompleted */\n      0x03\n      add\n      0x00\n        /* \"contracts/crowdfunding project .sol\":5888:5920  thisrequest.votingcompleted=true */\n      0x0100\n      exp\n      dup2\n      sload\n      dup2\n      0xff\n      mul\n      not\n      and\n      swap1\n      dup4\n      iszero\n      iszero\n      mul\n      or\n      swap1\n      sstore\n      pop\n        /* \"contracts/crowdfunding project .sol\":5201:5995  {... */\n      pop\n        /* \"contracts/crowdfunding project .sol\":5145:5995  function makepayment(uint _requestNo) public onlymanager{... */\n      pop\n      jump\t// out\n        /* \"contracts/crowdfunding project .sol\":321:339  uint public target */\n    tag_79:\n      sload(0x04)\n      dup2\n      jump\t// out\n        /* \"contracts/crowdfunding project .sol\":2101:2203  function getcontractbalance() public view returns(uint){... */\n    tag_83:\n        /* \"contracts/crowdfunding project .sol\":2151:2155  uint */\n      0x00\n        /* \"contracts/crowdfunding project .sol\":2174:2195  address(this).balance */\n      selfbalance\n        /* \"contracts/crowdfunding project .sol\":2167:2195  return address(this).balance */\n      swap1\n      pop\n        /* \"contracts/crowdfunding project .sol\":2101:2203  function getcontractbalance() public view returns(uint){... */\n      swap1\n      jump\t// out\n        /* \"#utility.yul\":7:84   */\n    tag_147:\n        /* \"#utility.yul\":44:51   */\n      0x00\n        /* \"#utility.yul\":73:78   */\n      dup2\n        /* \"#utility.yul\":62:78   */\n      swap1\n      pop\n        /* \"#utility.yul\":7:84   */\n      swap2\n      swap1\n      pop\n      jump\t// out\n        /* \"#utility.yul\":90:208   */\n    tag_148:\n        /* \"#utility.yul\":177:201   */\n      tag_218\n        /* \"#utility.yul\":195:200   */\n      dup2\n        /* \"#utility.yul\":177:201   */\n      tag_147\n      jump\t// in\n    tag_218:\n        /* \"#utility.yul\":172:175   */\n      dup3\n        /* \"#utility.yul\":165:202   */\n      mstore\n        /* \"#utility.yul\":90:208   */\n      pop\n      pop\n      jump\t// out\n        /* \"#utility.yul\":214:436   */\n    tag_24:\n        /* \"#utility.yul\":307:311   */\n      0x00\n        /* \"#utility.yul\":345:347   */\n      0x20\n        /* \"#utility.yul\":334:343   */\n      dup3\n        /* \"#utility.yul\":330:348   */\n      add\n        /* \"#utility.yul\":322:348   */\n      swap1\n      pop\n        /* \"#utility.yul\":358:429   */\n      tag_220\n        /* \"#utility.yul\":426:427   */\n      0x00\n        /* \"#utility.yul\":415:424   */\n      dup4\n        /* \"#utility.yul\":411:428   */\n      add\n        /* \"#utility.yul\":402:408   */\n      dup5\n        /* \"#utility.yul\":358:429   */\n      tag_148\n      jump\t// in\n    tag_220:\n        /* \"#utility.yul\":214:436   */\n      swap3\n      swap2\n      pop\n      pop\n      jump\t// out\n        /* \"#utility.yul\":442:517   */\n    tag_149:\n        /* \"#utility.yul\":475:481   */\n      0x00\n        /* \"#utility.yul\":508:510   */\n      0x40\n        /* \"#utility.yul\":502:511   */\n      mload\n        /* \"#utility.yul\":492:511   */\n      swap1\n      pop\n        /* \"#utility.yul\":442:517   */\n      swap1\n      jump\t// out\n        /* \"#utility.yul\":523:640   */\n    tag_150:\n        /* \"#utility.yul\":632:633   */\n      0x00\n        /* \"#utility.yul\":629:630   */\n      dup1\n        /* \"#utility.yul\":622:634   */\n      revert\n        /* \"#utility.yul\":646:763   */\n    tag_151:\n        /* \"#utility.yul\":755:756   */\n      0x00\n        /* \"#utility.yul\":752:753   */\n      dup1\n        /* \"#utility.yul\":745:757   */\n      revert\n        /* \"#utility.yul\":769:895   */\n    tag_152:\n        /* \"#utility.yul\":806:813   */\n      0x00\n        /* \"#utility.yul\":846:888   */\n      0xffffffffffffffffffffffffffffffffffffffff\n        /* \"#utility.yul\":839:844   */\n      dup3\n        /* \"#utility.yul\":835:889   */\n      and\n        /* \"#utility.yul\":824:889   */\n      swap1\n      pop\n        /* \"#utility.yul\":769:895   */\n      swap2\n      swap1\n      pop\n      jump\t// out\n        /* \"#utility.yul\":901:997   */\n    tag_153:\n        /* \"#utility.yul\":938:945   */\n      0x00\n        /* \"#utility.yul\":967:991   */\n      tag_226\n        /* \"#utility.yul\":985:990   */\n      dup3\n        /* \"#utility.yul\":967:991   */\n      tag_152\n      jump\t// in\n    tag_226:\n        /* \"#utility.yul\":956:991   */\n      swap1\n      pop\n        /* \"#utility.yul\":901:997   */\n      swap2\n      swap1\n      pop\n      jump\t// out\n        /* \"#utility.yul\":1003:1125   */\n    tag_154:\n        /* \"#utility.yul\":1076:1100   */\n      tag_228\n        /* \"#utility.yul\":1094:1099   */\n      dup2\n        /* \"#utility.yul\":1076:1100   */\n      tag_153\n      jump\t// in\n    tag_228:\n        /* \"#utility.yul\":1069:1074   */\n      dup2\n        /* \"#utility.yul\":1066:1101   */\n      eq\n        /* \"#utility.yul\":1056:1119   */\n      tag_229\n      jumpi\n        /* \"#utility.yul\":1115:1116   */\n      0x00\n        /* \"#utility.yul\":1112:1113   */\n      dup1\n        /* \"#utility.yul\":1105:1117   */\n      revert\n        /* \"#utility.yul\":1056:1119   */\n    tag_229:\n        /* \"#utility.yul\":1003:1125   */\n      pop\n      jump\t// out\n        /* \"#utility.yul\":1131:1270   */\n    tag_155:\n        /* \"#utility.yul\":1177:1182   */\n      0x00\n        /* \"#utility.yul\":1215:1221   */\n      dup2\n        /* \"#utility.yul\":1202:1222   */\n      calldataload\n        /* \"#utility.yul\":1193:1222   */\n      swap1\n      pop\n        /* \"#utility.yul\":1231:1264   */\n      tag_231\n        /* \"#utility.yul\":1258:1263   */\n      dup2\n        /* \"#utility.yul\":1231:1264   */\n      tag_154\n      jump\t// in\n    tag_231:\n        /* \"#utility.yul\":1131:1270   */\n      swap3\n      swap2\n      pop\n      pop\n      jump\t// out\n        /* \"#utility.yul\":1276:1605   */\n    tag_28:\n        /* \"#utility.yul\":1335:1341   */\n      0x00\n        /* \"#utility.yul\":1384:1386   */\n      0x20\n        /* \"#utility.yul\":1372:1381   */\n      dup3\n        /* \"#utility.yul\":1363:1370   */\n      dup5\n        /* \"#utility.yul\":1359:1382   */\n      sub\n        /* \"#utility.yul\":1355:1387   */\n      slt\n        /* \"#utility.yul\":1352:1471   */\n      iszero\n      tag_233\n      jumpi\n        /* \"#utility.yul\":1390:1469   */\n      tag_234\n      tag_150\n      jump\t// in\n    tag_234:\n        /* \"#utility.yul\":1352:1471   */\n    tag_233:\n        /* \"#utility.yul\":1510:1511   */\n      0x00\n        /* \"#utility.yul\":1535:1588   */\n      tag_235\n        /* \"#utility.yul\":1580:1587   */\n      dup5\n        /* \"#utility.yul\":1571:1577   */\n      dup3\n        /* \"#utility.yul\":1560:1569   */\n      dup6\n        /* \"#utility.yul\":1556:1578   */\n      add\n        /* \"#utility.yul\":1535:1588   */\n      tag_155\n      jump\t// in\n    tag_235:\n        /* \"#utility.yul\":1525:1588   */\n      swap2\n      pop\n        /* \"#utility.yul\":1481:1598   */\n      pop\n        /* \"#utility.yul\":1276:1605   */\n      swap3\n      swap2\n      pop\n      pop\n      jump\t// out\n        /* \"#utility.yul\":1611:1728   */\n    tag_156:\n        /* \"#utility.yul\":1720:1721   */\n      0x00\n        /* \"#utility.yul\":1717:1718   */\n      dup1\n        /* \"#utility.yul\":1710:1722   */\n      revert\n        /* \"#utility.yul\":1734:1851   */\n    tag_157:\n        /* \"#utility.yul\":1843:1844   */\n      0x00\n        /* \"#utility.yul\":1840:1841   */\n      dup1\n        /* \"#utility.yul\":1833:1845   */\n      revert\n        /* \"#utility.yul\":1857:1959   */\n    tag_158:\n        /* \"#utility.yul\":1898:1904   */\n      0x00\n        /* \"#utility.yul\":1949:1951   */\n      0x1f\n        /* \"#utility.yul\":1945:1952   */\n      not\n        /* \"#utility.yul\":1940:1942   */\n      0x1f\n        /* \"#utility.yul\":1933:1938   */\n      dup4\n        /* \"#utility.yul\":1929:1943   */\n      add\n        /* \"#utility.yul\":1925:1953   */\n      and\n        /* \"#utility.yul\":1915:1953   */\n      swap1\n      pop\n        /* \"#utility.yul\":1857:1959   */\n      swap2\n      swap1\n      pop\n      jump\t// out\n        /* \"#utility.yul\":1965:2145   */\n    tag_159:\n        /* \"#utility.yul\":2013:2090   */\n      0x4e487b7100000000000000000000000000000000000000000000000000000000\n        /* \"#utility.yul\":2010:2011   */\n      0x00\n        /* \"#utility.yul\":2003:2091   */\n      mstore\n        /* \"#utility.yul\":2110:2114   */\n      0x41\n        /* \"#utility.yul\":2107:2108   */\n      0x04\n        /* \"#utility.yul\":2100:2115   */\n      mstore\n        /* \"#utility.yul\":2134:2138   */\n      0x24\n        /* \"#utility.yul\":2131:2132   */\n      0x00\n        /* \"#utility.yul\":2124:2139   */\n      revert\n        /* \"#utility.yul\":2151:2432   */\n    tag_160:\n        /* \"#utility.yul\":2234:2261   */\n      tag_241\n        /* \"#utility.yul\":2256:2260   */\n      dup3\n        /* \"#utility.yul\":2234:2261   */\n      tag_158\n      jump\t// in\n    tag_241:\n        /* \"#utility.yul\":2226:2232   */\n      dup2\n        /* \"#utility.yul\":2222:2262   */\n      add\n        /* \"#utility.yul\":2364:2370   */\n      dup2\n        /* \"#utility.yul\":2352:2362   */\n      dup2\n        /* \"#utility.yul\":2349:2371   */\n      lt\n        /* \"#utility.yul\":2328:2346   */\n      0xffffffffffffffff\n        /* \"#utility.yul\":2316:2326   */\n      dup3\n        /* \"#utility.yul\":2313:2347   */\n      gt\n        /* \"#utility.yul\":2310:2372   */\n      or\n        /* \"#utility.yul\":2307:2395   */\n      iszero\n      tag_242\n      jumpi\n        /* \"#utility.yul\":2375:2393   */\n      tag_243\n      tag_159\n      jump\t// in\n    tag_243:\n        /* \"#utility.yul\":2307:2395   */\n    tag_242:\n        /* \"#utility.yul\":2415:2425   */\n      dup1\n        /* \"#utility.yul\":2411:2413   */\n      0x40\n        /* \"#utility.yul\":2404:2426   */\n      mstore\n        /* \"#utility.yul\":2194:2432   */\n      pop\n        /* \"#utility.yul\":2151:2432   */\n      pop\n      pop\n      jump\t// out\n        /* \"#utility.yul\":2438:2567   */\n    tag_161:\n        /* \"#utility.yul\":2472:2478   */\n      0x00\n        /* \"#utility.yul\":2499:2519   */\n      tag_245\n      tag_149\n      jump\t// in\n    tag_245:\n        /* \"#utility.yul\":2489:2519   */\n      swap1\n      pop\n        /* \"#utility.yul\":2528:2561   */\n      tag_246\n        /* \"#utility.yul\":2556:2560   */\n      dup3\n        /* \"#utility.yul\":2548:2554   */\n      dup3\n        /* \"#utility.yul\":2528:2561   */\n      tag_160\n      jump\t// in\n    tag_246:\n        /* \"#utility.yul\":2438:2567   */\n      swap2\n      swap1\n      pop\n      jump\t// out\n        /* \"#utility.yul\":2573:2881   */\n    tag_162:\n        /* \"#utility.yul\":2635:2639   */\n      0x00\n        /* \"#utility.yul\":2725:2743   */\n      0xffffffffffffffff\n        /* \"#utility.yul\":2717:2723   */\n      dup3\n        /* \"#utility.yul\":2714:2744   */\n      gt\n        /* \"#utility.yul\":2711:2767   */\n      iszero\n      tag_248\n      jumpi\n        /* \"#utility.yul\":2747:2765   */\n      tag_249\n      tag_159\n      jump\t// in\n    tag_249:\n        /* \"#utility.yul\":2711:2767   */\n    tag_248:\n        /* \"#utility.yul\":2785:2814   */\n      tag_250\n        /* \"#utility.yul\":2807:2813   */\n      dup3\n        /* \"#utility.yul\":2785:2814   */\n      tag_158\n      jump\t// in\n    tag_250:\n        /* \"#utility.yul\":2777:2814   */\n      swap1\n      pop\n        /* \"#utility.yul\":2869:2873   */\n      0x20\n        /* \"#utility.yul\":2863:2867   */\n      dup2\n        /* \"#utility.yul\":2859:2874   */\n      add\n        /* \"#utility.yul\":2851:2874   */\n      swap1\n      pop\n        /* \"#utility.yul\":2573:2881   */\n      swap2\n      swap1\n      pop\n      jump\t// out\n        /* \"#utility.yul\":2887:3033   */\n    tag_163:\n        /* \"#utility.yul\":2984:2990   */\n      dup3\n        /* \"#utility.yul\":2979:2982   */\n      dup2\n        /* \"#utility.yul\":2974:2977   */\n      dup4\n        /* \"#utility.yul\":2961:2991   */\n      calldatacopy\n        /* \"#utility.yul\":3025:3026   */\n      0x00\n        /* \"#utility.yul\":3016:3022   */\n      dup4\n        /* \"#utility.yul\":3011:3014   */\n      dup4\n        /* \"#utility.yul\":3007:3023   */\n      add\n        /* \"#utility.yul\":3000:3027   */\n      mstore\n        /* \"#utility.yul\":2887:3033   */\n      pop\n      pop\n      pop\n      jump\t// out\n        /* \"#utility.yul\":3039:3464   */\n    tag_164:\n        /* \"#utility.yul\":3117:3122   */\n      0x00\n        /* \"#utility.yul\":3142:3208   */\n      tag_253\n        /* \"#utility.yul\":3158:3207   */\n      tag_254\n        /* \"#utility.yul\":3200:3206   */\n      dup5\n        /* \"#utility.yul\":3158:3207   */\n      tag_162\n      jump\t// in\n    tag_254:\n        /* \"#utility.yul\":3142:3208   */\n      tag_161\n      jump\t// in\n    tag_253:\n        /* \"#utility.yul\":3133:3208   */\n      swap1\n      pop\n        /* \"#utility.yul\":3231:3237   */\n      dup3\n        /* \"#utility.yul\":3224:3229   */\n      dup2\n        /* \"#utility.yul\":3217:3238   */\n      mstore\n        /* \"#utility.yul\":3269:3273   */\n      0x20\n        /* \"#utility.yul\":3262:3267   */\n      dup2\n        /* \"#utility.yul\":3258:3274   */\n      add\n        /* \"#utility.yul\":3307:3310   */\n      dup5\n        /* \"#utility.yul\":3298:3304   */\n      dup5\n        /* \"#utility.yul\":3293:3296   */\n      dup5\n        /* \"#utility.yul\":3289:3305   */\n      add\n        /* \"#utility.yul\":3286:3311   */\n      gt\n        /* \"#utility.yul\":3283:3395   */\n      iszero\n      tag_255\n      jumpi\n        /* \"#utility.yul\":3314:3393   */\n      tag_256\n      tag_157\n      jump\t// in\n    tag_256:\n        /* \"#utility.yul\":3283:3395   */\n    tag_255:\n        /* \"#utility.yul\":3404:3458   */\n      tag_257\n        /* \"#utility.yul\":3451:3457   */\n      dup5\n        /* \"#utility.yul\":3446:3449   */\n      dup3\n        /* \"#utility.yul\":3441:3444   */\n      dup6\n        /* \"#utility.yul\":3404:3458   */\n      tag_163\n      jump\t// in\n    tag_257:\n        /* \"#utility.yul\":3123:3464   */\n      pop\n        /* \"#utility.yul\":3039:3464   */\n      swap4\n      swap3\n      pop\n      pop\n      pop\n      jump\t// out\n        /* \"#utility.yul\":3484:3824   */\n    tag_165:\n        /* \"#utility.yul\":3540:3545   */\n      0x00\n        /* \"#utility.yul\":3589:3592   */\n      dup3\n        /* \"#utility.yul\":3582:3586   */\n      0x1f\n        /* \"#utility.yul\":3574:3580   */\n      dup4\n        /* \"#utility.yul\":3570:3587   */\n      add\n        /* \"#utility.yul\":3566:3593   */\n      slt\n        /* \"#utility.yul\":3556:3678   */\n      tag_259\n      jumpi\n        /* \"#utility.yul\":3597:3676   */\n      tag_260\n      tag_156\n      jump\t// in\n    tag_260:\n        /* \"#utility.yul\":3556:3678   */\n    tag_259:\n        /* \"#utility.yul\":3714:3720   */\n      dup2\n        /* \"#utility.yul\":3701:3721   */\n      calldataload\n        /* \"#utility.yul\":3739:3818   */\n      tag_261\n        /* \"#utility.yul\":3814:3817   */\n      dup5\n        /* \"#utility.yul\":3806:3812   */\n      dup3\n        /* \"#utility.yul\":3799:3803   */\n      0x20\n        /* \"#utility.yul\":3791:3797   */\n      dup7\n        /* \"#utility.yul\":3787:3804   */\n      add\n        /* \"#utility.yul\":3739:3818   */\n      tag_164\n      jump\t// in\n    tag_261:\n        /* \"#utility.yul\":3730:3818   */\n      swap2\n      pop\n        /* \"#utility.yul\":3546:3824   */\n      pop\n        /* \"#utility.yul\":3484:3824   */\n      swap3\n      swap2\n      pop\n      pop\n      jump\t// out\n        /* \"#utility.yul\":3830:3934   */\n    tag_166:\n        /* \"#utility.yul\":3875:3882   */\n      0x00\n        /* \"#utility.yul\":3904:3928   */\n      tag_263\n        /* \"#utility.yul\":3922:3927   */\n      dup3\n        /* \"#utility.yul\":3904:3928   */\n      tag_152\n      jump\t// in\n    tag_263:\n        /* \"#utility.yul\":3893:3928   */\n      swap1\n      pop\n        /* \"#utility.yul\":3830:3934   */\n      swap2\n      swap1\n      pop\n      jump\t// out\n        /* \"#utility.yul\":3940:4078   */\n    tag_167:\n        /* \"#utility.yul\":4021:4053   */\n      tag_265\n        /* \"#utility.yul\":4047:4052   */\n      dup2\n        /* \"#utility.yul\":4021:4053   */\n      tag_166\n      jump\t// in\n    tag_265:\n        /* \"#utility.yul\":4014:4019   */\n      dup2\n        /* \"#utility.yul\":4011:4054   */\n      eq\n        /* \"#utility.yul\":4001:4072   */\n      tag_266\n      jumpi\n        /* \"#utility.yul\":4068:4069   */\n      0x00\n        /* \"#utility.yul\":4065:4066   */\n      dup1\n        /* \"#utility.yul\":4058:4070   */\n      revert\n        /* \"#utility.yul\":4001:4072   */\n    tag_266:\n        /* \"#utility.yul\":3940:4078   */\n      pop\n      jump\t// out\n        /* \"#utility.yul\":4084:4239   */\n    tag_168:\n        /* \"#utility.yul\":4138:4143   */\n      0x00\n        /* \"#utility.yul\":4176:4182   */\n      dup2\n        /* \"#utility.yul\":4163:4183   */\n      calldataload\n        /* \"#utility.yul\":4154:4183   */\n      swap1\n      pop\n        /* \"#utility.yul\":4192:4233   */\n      tag_268\n        /* \"#utility.yul\":4227:4232   */\n      dup2\n        /* \"#utility.yul\":4192:4233   */\n      tag_167\n      jump\t// in\n    tag_268:\n        /* \"#utility.yul\":4084:4239   */\n      swap3\n      swap2\n      pop\n      pop\n      jump\t// out\n        /* \"#utility.yul\":4245:4367   */\n    tag_169:\n        /* \"#utility.yul\":4318:4342   */\n      tag_270\n        /* \"#utility.yul\":4336:4341   */\n      dup2\n        /* \"#utility.yul\":4318:4342   */\n      tag_147\n      jump\t// in\n    tag_270:\n        /* \"#utility.yul\":4311:4316   */\n      dup2\n        /* \"#utility.yul\":4308:4343   */\n      eq\n        /* \"#utility.yul\":4298:4361   */\n      tag_271\n      jumpi\n        /* \"#utility.yul\":4357:4358   */\n      0x00\n        /* \"#utility.yul\":4354:4355   */\n      dup1\n        /* \"#utility.yul\":4347:4359   */\n      revert\n        /* \"#utility.yul\":4298:4361   */\n    tag_271:\n        /* \"#utility.yul\":4245:4367   */\n      pop\n      jump\t// out\n        /* \"#utility.yul\":4373:4512   */\n    tag_170:\n        /* \"#utility.yul\":4419:4424   */\n      0x00\n        /* \"#utility.yul\":4457:4463   */\n      dup2\n        /* \"#utility.yul\":4444:4464   */\n      calldataload\n        /* \"#utility.yul\":4435:4464   */\n      swap1\n      pop\n        /* \"#utility.yul\":4473:4506   */\n      tag_273\n        /* \"#utility.yul\":4500:4505   */\n      dup2\n        /* \"#utility.yul\":4473:4506   */\n      tag_169\n      jump\t// in\n    tag_273:\n        /* \"#utility.yul\":4373:4512   */\n      swap3\n      swap2\n      pop\n      pop\n      jump\t// out\n        /* \"#utility.yul\":4518:5333   */\n    tag_42:\n        /* \"#utility.yul\":4613:4619   */\n      0x00\n        /* \"#utility.yul\":4621:4627   */\n      dup1\n        /* \"#utility.yul\":4629:4635   */\n      0x00\n        /* \"#utility.yul\":4678:4680   */\n      0x60\n        /* \"#utility.yul\":4666:4675   */\n      dup5\n        /* \"#utility.yul\":4657:4664   */\n      dup7\n        /* \"#utility.yul\":4653:4676   */\n      sub\n        /* \"#utility.yul\":4649:4681   */\n      slt\n        /* \"#utility.yul\":4646:4765   */\n      iszero\n      tag_275\n      jumpi\n        /* \"#utility.yul\":4684:4763   */\n      tag_276\n      tag_150\n      jump\t// in\n    tag_276:\n        /* \"#utility.yul\":4646:4765   */\n    tag_275:\n        /* \"#utility.yul\":4832:4833   */\n      0x00\n        /* \"#utility.yul\":4821:4830   */\n      dup5\n        /* \"#utility.yul\":4817:4834   */\n      add\n        /* \"#utility.yul\":4804:4835   */\n      calldataload\n        /* \"#utility.yul\":4862:4880   */\n      0xffffffffffffffff\n        /* \"#utility.yul\":4854:4860   */\n      dup2\n        /* \"#utility.yul\":4851:4881   */\n      gt\n        /* \"#utility.yul\":4848:4965   */\n      iszero\n      tag_277\n      jumpi\n        /* \"#utility.yul\":4884:4963   */\n      tag_278\n      tag_151\n      jump\t// in\n    tag_278:\n        /* \"#utility.yul\":4848:4965   */\n    tag_277:\n        /* \"#utility.yul\":4989:5052   */\n      tag_279\n        /* \"#utility.yul\":5044:5051   */\n      dup7\n        /* \"#utility.yul\":5035:5041   */\n      dup3\n        /* \"#utility.yul\":5024:5033   */\n      dup8\n        /* \"#utility.yul\":5020:5042   */\n      add\n        /* \"#utility.yul\":4989:5052   */\n      tag_165\n      jump\t// in\n    tag_279:\n        /* \"#utility.yul\":4979:5052   */\n      swap4\n      pop\n        /* \"#utility.yul\":4775:5062   */\n      pop\n        /* \"#utility.yul\":5101:5103   */\n      0x20\n        /* \"#utility.yul\":5127:5188   */\n      tag_280\n        /* \"#utility.yul\":5180:5187   */\n      dup7\n        /* \"#utility.yul\":5171:5177   */\n      dup3\n        /* \"#utility.yul\":5160:5169   */\n      dup8\n        /* \"#utility.yul\":5156:5178   */\n      add\n        /* \"#utility.yul\":5127:5188   */\n      tag_168\n      jump\t// in\n    tag_280:\n        /* \"#utility.yul\":5117:5188   */\n      swap3\n      pop\n        /* \"#utility.yul\":5072:5198   */\n      pop\n        /* \"#utility.yul\":5237:5239   */\n      0x40\n        /* \"#utility.yul\":5263:5316   */\n      tag_281\n        /* \"#utility.yul\":5308:5315   */\n      dup7\n        /* \"#utility.yul\":5299:5305   */\n      dup3\n        /* \"#utility.yul\":5288:5297   */\n      dup8\n        /* \"#utility.yul\":5284:5306   */\n      add\n        /* \"#utility.yul\":5263:5316   */\n      tag_170\n      jump\t// in\n    tag_281:\n        /* \"#utility.yul\":5253:5316   */\n      swap2\n      pop\n        /* \"#utility.yul\":5208:5326   */\n      pop\n        /* \"#utility.yul\":4518:5333   */\n      swap3\n      pop\n      swap3\n      pop\n      swap3\n      jump\t// out\n        /* \"#utility.yul\":5339:5457   */\n    tag_171:\n        /* \"#utility.yul\":5426:5450   */\n      tag_283\n        /* \"#utility.yul\":5444:5449   */\n      dup2\n        /* \"#utility.yul\":5426:5450   */\n      tag_153\n      jump\t// in\n    tag_283:\n        /* \"#utility.yul\":5421:5424   */\n      dup3\n        /* \"#utility.yul\":5414:5451   */\n      mstore\n        /* \"#utility.yul\":5339:5457   */\n      pop\n      pop\n      jump\t// out\n        /* \"#utility.yul\":5463:5685   */\n    tag_48:\n        /* \"#utility.yul\":5556:5560   */\n      0x00\n        /* \"#utility.yul\":5594:5596   */\n      0x20\n        /* \"#utility.yul\":5583:5592   */\n      dup3\n        /* \"#utility.yul\":5579:5597   */\n      add\n        /* \"#utility.yul\":5571:5597   */\n      swap1\n      pop\n        /* \"#utility.yul\":5607:5678   */\n      tag_285\n        /* \"#utility.yul\":5675:5676   */\n      0x00\n        /* \"#utility.yul\":5664:5673   */\n      dup4\n        /* \"#utility.yul\":5660:5677   */\n      add\n        /* \"#utility.yul\":5651:5657   */\n      dup5\n        /* \"#utility.yul\":5607:5678   */\n      tag_171\n      jump\t// in\n    tag_285:\n        /* \"#utility.yul\":5463:5685   */\n      swap3\n      swap2\n      pop\n      pop\n      jump\t// out\n        /* \"#utility.yul\":5691:6020   */\n    tag_55:\n        /* \"#utility.yul\":5750:5756   */\n      0x00\n        /* \"#utility.yul\":5799:5801   */\n      0x20\n        /* \"#utility.yul\":5787:5796   */\n      dup3\n        /* \"#utility.yul\":5778:5785   */\n      dup5\n        /* \"#utility.yul\":5774:5797   */\n      sub\n        /* \"#utility.yul\":5770:5802   */\n      slt\n        /* \"#utility.yul\":5767:5886   */\n      iszero\n      tag_287\n      jumpi\n        /* \"#utility.yul\":5805:5884   */\n      tag_288\n      tag_150\n      jump\t// in\n    tag_288:\n        /* \"#utility.yul\":5767:5886   */\n    tag_287:\n        /* \"#utility.yul\":5925:5926   */\n      0x00\n        /* \"#utility.yul\":5950:6003   */\n      tag_289\n        /* \"#utility.yul\":5995:6002   */\n      dup5\n        /* \"#utility.yul\":5986:5992   */\n      dup3\n        /* \"#utility.yul\":5975:5984   */\n      dup6\n        /* \"#utility.yul\":5971:5993   */\n      add\n        /* \"#utility.yul\":5950:6003   */\n      tag_170\n      jump\t// in\n    tag_289:\n        /* \"#utility.yul\":5940:6003   */\n      swap2\n      pop\n        /* \"#utility.yul\":5896:6013   */\n      pop\n        /* \"#utility.yul\":5691:6020   */\n      swap3\n      swap2\n      pop\n      pop\n      jump\t// out\n        /* \"#utility.yul\":6026:6125   */\n    tag_172:\n        /* \"#utility.yul\":6078:6084   */\n      0x00\n        /* \"#utility.yul\":6112:6117   */\n      dup2\n        /* \"#utility.yul\":6106:6118   */\n      mload\n        /* \"#utility.yul\":6096:6118   */\n      swap1\n      pop\n        /* \"#utility.yul\":6026:6125   */\n      swap2\n      swap1\n      pop\n      jump\t// out\n        /* \"#utility.yul\":6131:6300   */\n    tag_173:\n        /* \"#utility.yul\":6215:6226   */\n      0x00\n        /* \"#utility.yul\":6249:6255   */\n      dup3\n        /* \"#utility.yul\":6244:6247   */\n      dup3\n        /* \"#utility.yul\":6237:6256   */\n      mstore\n        /* \"#utility.yul\":6289:6293   */\n      0x20\n        /* \"#utility.yul\":6284:6287   */\n      dup3\n        /* \"#utility.yul\":6280:6294   */\n      add\n        /* \"#utility.yul\":6265:6294   */\n      swap1\n      pop\n        /* \"#utility.yul\":6131:6300   */\n      swap3\n      swap2\n      pop\n      pop\n      jump\t// out\n        /* \"#utility.yul\":6306:6552   */\n    tag_174:\n        /* \"#utility.yul\":6387:6388   */\n      0x00\n        /* \"#utility.yul\":6397:6510   */\n    tag_293:\n        /* \"#utility.yul\":6411:6417   */\n      dup4\n        /* \"#utility.yul\":6408:6409   */\n      dup2\n        /* \"#utility.yul\":6405:6418   */\n      lt\n        /* \"#utility.yul\":6397:6510   */\n      iszero\n      tag_295\n      jumpi\n        /* \"#utility.yul\":6496:6497   */\n      dup1\n        /* \"#utility.yul\":6491:6494   */\n      dup3\n        /* \"#utility.yul\":6487:6498   */\n      add\n        /* \"#utility.yul\":6481:6499   */\n      mload\n        /* \"#utility.yul\":6477:6478   */\n      dup2\n        /* \"#utility.yul\":6472:6475   */\n      dup5\n        /* \"#utility.yul\":6468:6479   */\n      add\n        /* \"#utility.yul\":6461:6500   */\n      mstore\n        /* \"#utility.yul\":6433:6435   */\n      0x20\n        /* \"#utility.yul\":6430:6431   */\n      dup2\n        /* \"#utility.yul\":6426:6436   */\n      add\n        /* \"#utility.yul\":6421:6436   */\n      swap1\n      pop\n        /* \"#utility.yul\":6397:6510   */\n      jump(tag_293)\n    tag_295:\n        /* \"#utility.yul\":6544:6545   */\n      0x00\n        /* \"#utility.yul\":6535:6541   */\n      dup5\n        /* \"#utility.yul\":6530:6533   */\n      dup5\n        /* \"#utility.yul\":6526:6542   */\n      add\n        /* \"#utility.yul\":6519:6546   */\n      mstore\n        /* \"#utility.yul\":6368:6552   */\n      pop\n        /* \"#utility.yul\":6306:6552   */\n      pop\n      pop\n      pop\n      jump\t// out\n        /* \"#utility.yul\":6558:6935   */\n    tag_175:\n        /* \"#utility.yul\":6646:6649   */\n      0x00\n        /* \"#utility.yul\":6674:6713   */\n      tag_297\n        /* \"#utility.yul\":6707:6712   */\n      dup3\n        /* \"#utility.yul\":6674:6713   */\n      tag_172\n      jump\t// in\n    tag_297:\n        /* \"#utility.yul\":6729:6800   */\n      tag_298\n        /* \"#utility.yul\":6793:6799   */\n      dup2\n        /* \"#utility.yul\":6788:6791   */\n      dup6\n        /* \"#utility.yul\":6729:6800   */\n      tag_173\n      jump\t// in\n    tag_298:\n        /* \"#utility.yul\":6722:6800   */\n      swap4\n      pop\n        /* \"#utility.yul\":6809:6874   */\n      tag_299\n        /* \"#utility.yul\":6867:6873   */\n      dup2\n        /* \"#utility.yul\":6862:6865   */\n      dup6\n        /* \"#utility.yul\":6855:6859   */\n      0x20\n        /* \"#utility.yul\":6848:6853   */\n      dup7\n        /* \"#utility.yul\":6844:6860   */\n      add\n        /* \"#utility.yul\":6809:6874   */\n      tag_174\n      jump\t// in\n    tag_299:\n        /* \"#utility.yul\":6899:6928   */\n      tag_300\n        /* \"#utility.yul\":6921:6927   */\n      dup2\n        /* \"#utility.yul\":6899:6928   */\n      tag_158\n      jump\t// in\n    tag_300:\n        /* \"#utility.yul\":6894:6897   */\n      dup5\n        /* \"#utility.yul\":6890:6929   */\n      add\n        /* \"#utility.yul\":6883:6929   */\n      swap2\n      pop\n        /* \"#utility.yul\":6650:6935   */\n      pop\n        /* \"#utility.yul\":6558:6935   */\n      swap3\n      swap2\n      pop\n      pop\n      jump\t// out\n        /* \"#utility.yul\":6941:7083   */\n    tag_176:\n        /* \"#utility.yul\":7044:7076   */\n      tag_302\n        /* \"#utility.yul\":7070:7075   */\n      dup2\n        /* \"#utility.yul\":7044:7076   */\n      tag_166\n      jump\t// in\n    tag_302:\n        /* \"#utility.yul\":7039:7042   */\n      dup3\n        /* \"#utility.yul\":7032:7077   */\n      mstore\n        /* \"#utility.yul\":6941:7083   */\n      pop\n      pop\n      jump\t// out\n        /* \"#utility.yul\":7089:7179   */\n    tag_177:\n        /* \"#utility.yul\":7123:7130   */\n      0x00\n        /* \"#utility.yul\":7166:7171   */\n      dup2\n        /* \"#utility.yul\":7159:7172   */\n      iszero\n        /* \"#utility.yul\":7152:7173   */\n      iszero\n        /* \"#utility.yul\":7141:7173   */\n      swap1\n      pop\n        /* \"#utility.yul\":7089:7179   */\n      swap2\n      swap1\n      pop\n      jump\t// out\n        /* \"#utility.yul\":7185:7294   */\n    tag_178:\n        /* \"#utility.yul\":7266:7287   */\n      tag_305\n        /* \"#utility.yul\":7281:7286   */\n      dup2\n        /* \"#utility.yul\":7266:7287   */\n      tag_177\n      jump\t// in\n    tag_305:\n        /* \"#utility.yul\":7261:7264   */\n      dup3\n        /* \"#utility.yul\":7254:7288   */\n      mstore\n        /* \"#utility.yul\":7185:7294   */\n      pop\n      pop\n      jump\t// out\n        /* \"#utility.yul\":7300:8075   */\n    tag_58:\n        /* \"#utility.yul\":7535:7539   */\n      0x00\n        /* \"#utility.yul\":7573:7576   */\n      0xa0\n        /* \"#utility.yul\":7562:7571   */\n      dup3\n        /* \"#utility.yul\":7558:7577   */\n      add\n        /* \"#utility.yul\":7550:7577   */\n      swap1\n      pop\n        /* \"#utility.yul\":7623:7632   */\n      dup2\n        /* \"#utility.yul\":7617:7621   */\n      dup2\n        /* \"#utility.yul\":7613:7633   */\n      sub\n        /* \"#utility.yul\":7609:7610   */\n      0x00\n        /* \"#utility.yul\":7598:7607   */\n      dup4\n        /* \"#utility.yul\":7594:7611   */\n      add\n        /* \"#utility.yul\":7587:7634   */\n      mstore\n        /* \"#utility.yul\":7651:7729   */\n      tag_307\n        /* \"#utility.yul\":7724:7728   */\n      dup2\n        /* \"#utility.yul\":7715:7721   */\n      dup9\n        /* \"#utility.yul\":7651:7729   */\n      tag_175\n      jump\t// in\n    tag_307:\n        /* \"#utility.yul\":7643:7729   */\n      swap1\n      pop\n        /* \"#utility.yul\":7739:7827   */\n      tag_308\n        /* \"#utility.yul\":7823:7825   */\n      0x20\n        /* \"#utility.yul\":7812:7821   */\n      dup4\n        /* \"#utility.yul\":7808:7826   */\n      add\n        /* \"#utility.yul\":7799:7805   */\n      dup8\n        /* \"#utility.yul\":7739:7827   */\n      tag_176\n      jump\t// in\n    tag_308:\n        /* \"#utility.yul\":7837:7909   */\n      tag_309\n        /* \"#utility.yul\":7905:7907   */\n      0x40\n        /* \"#utility.yul\":7894:7903   */\n      dup4\n        /* \"#utility.yul\":7890:7908   */\n      add\n        /* \"#utility.yul\":7881:7887   */\n      dup7\n        /* \"#utility.yul\":7837:7909   */\n      tag_148\n      jump\t// in\n    tag_309:\n        /* \"#utility.yul\":7919:7985   */\n      tag_310\n        /* \"#utility.yul\":7981:7983   */\n      0x60\n        /* \"#utility.yul\":7970:7979   */\n      dup4\n        /* \"#utility.yul\":7966:7984   */\n      add\n        /* \"#utility.yul\":7957:7963   */\n      dup6\n        /* \"#utility.yul\":7919:7985   */\n      tag_178\n      jump\t// in\n    tag_310:\n        /* \"#utility.yul\":7995:8068   */\n      tag_311\n        /* \"#utility.yul\":8063:8066   */\n      0x80\n        /* \"#utility.yul\":8052:8061   */\n      dup4\n        /* \"#utility.yul\":8048:8067   */\n      add\n        /* \"#utility.yul\":8039:8045   */\n      dup5\n        /* \"#utility.yul\":7995:8068   */\n      tag_148\n      jump\t// in\n    tag_311:\n        /* \"#utility.yul\":7300:8075   */\n      swap7\n      swap6\n      pop\n      pop\n      pop\n      pop\n      pop\n      pop\n      jump\t// out\n        /* \"#utility.yul\":8081:8252   */\n    tag_179:\n        /* \"#utility.yul\":8221:8244   */\n      0x6f6e6c79206d616e616765722063616e2063616c6c0000000000000000000000\n        /* \"#utility.yul\":8217:8218   */\n      0x00\n        /* \"#utility.yul\":8209:8215   */\n      dup3\n        /* \"#utility.yul\":8205:8219   */\n      add\n        /* \"#utility.yul\":8198:8245   */\n      mstore\n        /* \"#utility.yul\":8081:8252   */\n      pop\n      jump\t// out\n        /* \"#utility.yul\":8258:8624   */\n    tag_180:\n        /* \"#utility.yul\":8400:8403   */\n      0x00\n        /* \"#utility.yul\":8421:8488   */\n      tag_314\n        /* \"#utility.yul\":8485:8487   */\n      0x15\n        /* \"#utility.yul\":8480:8483   */\n      dup4\n        /* \"#utility.yul\":8421:8488   */\n      tag_173\n      jump\t// in\n    tag_314:\n        /* \"#utility.yul\":8414:8488   */\n      swap2\n      pop\n        /* \"#utility.yul\":8497:8590   */\n      tag_315\n        /* \"#utility.yul\":8586:8589   */\n      dup3\n        /* \"#utility.yul\":8497:8590   */\n      tag_179\n      jump\t// in\n    tag_315:\n        /* \"#utility.yul\":8615:8617   */\n      0x20\n        /* \"#utility.yul\":8610:8613   */\n      dup3\n        /* \"#utility.yul\":8606:8618   */\n      add\n        /* \"#utility.yul\":8599:8618   */\n      swap1\n      pop\n        /* \"#utility.yul\":8258:8624   */\n      swap2\n      swap1\n      pop\n      jump\t// out\n        /* \"#utility.yul\":8630:9049   */\n    tag_88:\n        /* \"#utility.yul\":8796:8800   */\n      0x00\n        /* \"#utility.yul\":8834:8836   */\n      0x20\n        /* \"#utility.yul\":8823:8832   */\n      dup3\n        /* \"#utility.yul\":8819:8837   */\n      add\n        /* \"#utility.yul\":8811:8837   */\n      swap1\n      pop\n        /* \"#utility.yul\":8883:8892   */\n      dup2\n        /* \"#utility.yul\":8877:8881   */\n      dup2\n        /* \"#utility.yul\":8873:8893   */\n      sub\n        /* \"#utility.yul\":8869:8870   */\n      0x00\n        /* \"#utility.yul\":8858:8867   */\n      dup4\n        /* \"#utility.yul\":8854:8871   */\n      add\n        /* \"#utility.yul\":8847:8894   */\n      mstore\n        /* \"#utility.yul\":8911:9042   */\n      tag_317\n        /* \"#utility.yul\":9037:9041   */\n      dup2\n        /* \"#utility.yul\":8911:9042   */\n      tag_180\n      jump\t// in\n    tag_317:\n        /* \"#utility.yul\":8903:9042   */\n      swap1\n      pop\n        /* \"#utility.yul\":8630:9049   */\n      swap2\n      swap1\n      pop\n      jump\t// out\n        /* \"#utility.yul\":9055:9235   */\n    tag_181:\n        /* \"#utility.yul\":9103:9180   */\n      0x4e487b7100000000000000000000000000000000000000000000000000000000\n        /* \"#utility.yul\":9100:9101   */\n      0x00\n        /* \"#utility.yul\":9093:9181   */\n      mstore\n        /* \"#utility.yul\":9200:9204   */\n      0x11\n        /* \"#utility.yul\":9197:9198   */\n      0x04\n        /* \"#utility.yul\":9190:9205   */\n      mstore\n        /* \"#utility.yul\":9224:9228   */\n      0x24\n        /* \"#utility.yul\":9221:9222   */\n      0x00\n        /* \"#utility.yul\":9214:9229   */\n      revert\n        /* \"#utility.yul\":9241:9474   */\n    tag_91:\n        /* \"#utility.yul\":9280:9283   */\n      0x00\n        /* \"#utility.yul\":9303:9327   */\n      tag_320\n        /* \"#utility.yul\":9321:9326   */\n      dup3\n        /* \"#utility.yul\":9303:9327   */\n      tag_147\n      jump\t// in\n    tag_320:\n        /* \"#utility.yul\":9294:9327   */\n      swap2\n      pop\n        /* \"#utility.yul\":9349:9415   */\n      0xffffffffffffffffffffffffffffffffffffffffffffffffffffffffffffffff\n        /* \"#utility.yul\":9342:9347   */\n      dup3\n        /* \"#utility.yul\":9339:9416   */\n      sub\n        /* \"#utility.yul\":9336:9439   */\n      tag_321\n      jumpi\n        /* \"#utility.yul\":9419:9437   */\n      tag_322\n      tag_181\n      jump\t// in\n    tag_322:\n        /* \"#utility.yul\":9336:9439   */\n    tag_321:\n        /* \"#utility.yul\":9466:9467   */\n      0x01\n        /* \"#utility.yul\":9459:9464   */\n      dup3\n        /* \"#utility.yul\":9455:9468   */\n      add\n        /* \"#utility.yul\":9448:9468   */\n      swap1\n      pop\n        /* \"#utility.yul\":9241:9474   */\n      swap2\n      swap1\n      pop\n      jump\t// out\n        /* \"#utility.yul\":9480:9660   */\n    tag_182:\n        /* \"#utility.yul\":9528:9605   */\n      0x4e487b7100000000000000000000000000000000000000000000000000000000\n        /* \"#utility.yul\":9525:9526   */\n      0x00\n        /* \"#utility.yul\":9518:9606   */\n      mstore\n        /* \"#utility.yul\":9625:9629   */\n      0x22\n        /* \"#utility.yul\":9622:9623   */\n      0x04\n        /* \"#utility.yul\":9615:9630   */\n      mstore\n        /* \"#utility.yul\":9649:9653   */\n      0x24\n        /* \"#utility.yul\":9646:9647   */\n      0x00\n        /* \"#utility.yul\":9639:9654   */\n      revert\n        /* \"#utility.yul\":9666:9986   */\n    tag_105:\n        /* \"#utility.yul\":9710:9716   */\n      0x00\n        /* \"#utility.yul\":9747:9748   */\n      0x02\n        /* \"#utility.yul\":9741:9745   */\n      dup3\n        /* \"#utility.yul\":9737:9749   */\n      div\n        /* \"#utility.yul\":9727:9749   */\n      swap1\n      pop\n        /* \"#utility.yul\":9794:9795   */\n      0x01\n        /* \"#utility.yul\":9788:9792   */\n      dup3\n        /* \"#utility.yul\":9784:9796   */\n      and\n        /* \"#utility.yul\":9815:9833   */\n      dup1\n        /* \"#utility.yul\":9805:9886   */\n      tag_325\n      jumpi\n        /* \"#utility.yul\":9871:9875   */\n      0x7f\n        /* \"#utility.yul\":9863:9869   */\n      dup3\n        /* \"#utility.yul\":9859:9876   */\n      and\n        /* \"#utility.yul\":9849:9876   */\n      swap2\n      pop\n        /* \"#utility.yul\":9805:9886   */\n    tag_325:\n        /* \"#utility.yul\":9933:9935   */\n      0x20\n        /* \"#utility.yul\":9925:9931   */\n      dup3\n        /* \"#utility.yul\":9922:9936   */\n      lt\n        /* \"#utility.yul\":9902:9920   */\n      dup2\n        /* \"#utility.yul\":9899:9937   */\n      sub\n        /* \"#utility.yul\":9896:9980   */\n      tag_326\n      jumpi\n        /* \"#utility.yul\":9952:9970   */\n      tag_327\n      tag_182\n      jump\t// in\n    tag_327:\n        /* \"#utility.yul\":9896:9980   */\n    tag_326:\n        /* \"#utility.yul\":9717:9986   */\n      pop\n        /* \"#utility.yul\":9666:9986   */\n      swap2\n      swap1\n      pop\n      jump\t// out\n        /* \"#utility.yul\":9992:10133   */\n    tag_183:\n        /* \"#utility.yul\":10041:10045   */\n      0x00\n        /* \"#utility.yul\":10064:10067   */\n      dup2\n        /* \"#utility.yul\":10056:10067   */\n      swap1\n      pop\n        /* \"#utility.yul\":10087:10090   */\n      dup2\n        /* \"#utility.yul\":10084:10085   */\n      0x00\n        /* \"#utility.yul\":10077:10091   */\n      mstore\n        /* \"#utility.yul\":10121:10125   */\n      0x20\n        /* \"#utility.yul\":10118:10119   */\n      0x00\n        /* \"#utility.yul\":10108:10126   */\n      keccak256\n        /* \"#utility.yul\":10100:10126   */\n      swap1\n      pop\n        /* \"#utility.yul\":9992:10133   */\n      swap2\n      swap1\n      pop\n      jump\t// out\n        /* \"#utility.yul\":10139:10232   */\n    tag_184:\n        /* \"#utility.yul\":10176:10182   */\n      0x00\n        /* \"#utility.yul\":10223:10225   */\n      0x20\n        /* \"#utility.yul\":10218:10220   */\n      0x1f\n        /* \"#utility.yul\":10211:10216   */\n      dup4\n        /* \"#utility.yul\":10207:10221   */\n      add\n        /* \"#utility.yul\":10203:10226   */\n      div\n        /* \"#utility.yul\":10193:10226   */\n      swap1\n      pop\n        /* \"#utility.yul\":10139:10232   */\n      swap2\n      swap1\n      pop\n      jump\t// out\n        /* \"#utility.yul\":10238:10345   */\n    tag_185:\n        /* \"#utility.yul\":10282:10290   */\n      0x00\n        /* \"#utility.yul\":10332:10337   */\n      dup3\n        /* \"#utility.yul\":10326:10330   */\n      dup3\n        /* \"#utility.yul\":10322:10338   */\n      shl\n        /* \"#utility.yul\":10301:10338   */\n      swap1\n      pop\n        /* \"#utility.yul\":10238:10345   */\n      swap3\n      swap2\n      pop\n      pop\n      jump\t// out\n        /* \"#utility.yul\":10351:10744   */\n    tag_186:\n        /* \"#utility.yul\":10420:10426   */\n      0x00\n        /* \"#utility.yul\":10470:10471   */\n      0x08\n        /* \"#utility.yul\":10458:10468   */\n      dup4\n        /* \"#utility.yul\":10454:10472   */\n      mul\n        /* \"#utility.yul\":10493:10590   */\n      tag_332\n        /* \"#utility.yul\":10523:10589   */\n      0xffffffffffffffffffffffffffffffffffffffffffffffffffffffffffffffff\n        /* \"#utility.yul\":10512:10521   */\n      dup3\n        /* \"#utility.yul\":10493:10590   */\n      tag_185\n      jump\t// in\n    tag_332:\n        /* \"#utility.yul\":10611:10650   */\n      tag_333\n        /* \"#utility.yul\":10641:10649   */\n      dup7\n        /* \"#utility.yul\":10630:10639   */\n      dup4\n        /* \"#utility.yul\":10611:10650   */\n      tag_185\n      jump\t// in\n    tag_333:\n        /* \"#utility.yul\":10599:10650   */\n      swap6\n      pop\n        /* \"#utility.yul\":10683:10687   */\n      dup1\n        /* \"#utility.yul\":10679:10688   */\n      not\n        /* \"#utility.yul\":10672:10677   */\n      dup5\n        /* \"#utility.yul\":10668:10689   */\n      and\n        /* \"#utility.yul\":10659:10689   */\n      swap4\n      pop\n        /* \"#utility.yul\":10732:10736   */\n      dup1\n        /* \"#utility.yul\":10722:10730   */\n      dup7\n        /* \"#utility.yul\":10718:10737   */\n      and\n        /* \"#utility.yul\":10711:10716   */\n      dup5\n        /* \"#utility.yul\":10708:10738   */\n      or\n        /* \"#utility.yul\":10698:10738   */\n      swap3\n      pop\n        /* \"#utility.yul\":10427:10744   */\n      pop\n      pop\n        /* \"#utility.yul\":10351:10744   */\n      swap4\n      swap3\n      pop\n      pop\n      pop\n      jump\t// out\n        /* \"#utility.yul\":10750:10810   */\n    tag_187:\n        /* \"#utility.yul\":10778:10781   */\n      0x00\n        /* \"#utility.yul\":10799:10804   */\n      dup2\n        /* \"#utility.yul\":10792:10804   */\n      swap1\n      pop\n        /* \"#utility.yul\":10750:10810   */\n      swap2\n      swap1\n      pop\n      jump\t// out\n        /* \"#utility.yul\":10816:10958   */\n    tag_188:\n        /* \"#utility.yul\":10866:10875   */\n      0x00\n        /* \"#utility.yul\":10899:10952   */\n      tag_336\n        /* \"#utility.yul\":10917:10951   */\n      tag_337\n        /* \"#utility.yul\":10926:10950   */\n      tag_338\n        /* \"#utility.yul\":10944:10949   */\n      dup5\n        /* \"#utility.yul\":10926:10950   */\n      tag_147\n      jump\t// in\n    tag_338:\n        /* \"#utility.yul\":10917:10951   */\n      tag_187\n      jump\t// in\n    tag_337:\n        /* \"#utility.yul\":10899:10952   */\n      tag_147\n      jump\t// in\n    tag_336:\n        /* \"#utility.yul\":10886:10952   */\n      swap1\n      pop\n        /* \"#utility.yul\":10816:10958   */\n      swap2\n      swap1\n      pop\n      jump\t// out\n        /* \"#utility.yul\":10964:11039   */\n    tag_189:\n        /* \"#utility.yul\":11007:11010   */\n      0x00\n        /* \"#utility.yul\":11028:11033   */\n      dup2\n        /* \"#utility.yul\":11021:11033   */\n      swap1\n      pop\n        /* \"#utility.yul\":10964:11039   */\n      swap2\n      swap1\n      pop\n      jump\t// out\n        /* \"#utility.yul\":11045:11314   */\n    tag_190:\n        /* \"#utility.yul\":11155:11194   */\n      tag_341\n        /* \"#utility.yul\":11186:11193   */\n      dup4\n        /* \"#utility.yul\":11155:11194   */\n      tag_188\n      jump\t// in\n    tag_341:\n        /* \"#utility.yul\":11216:11307   */\n      tag_342\n        /* \"#utility.yul\":11265:11306   */\n      tag_343\n        /* \"#utility.yul\":11289:11305   */\n      dup3\n        /* \"#utility.yul\":11265:11306   */\n      tag_189\n      jump\t// in\n    tag_343:\n        /* \"#utility.yul\":11257:11263   */\n      dup5\n        /* \"#utility.yul\":11250:11254   */\n      dup5\n        /* \"#utility.yul\":11244:11255   */\n      sload\n        /* \"#utility.yul\":11216:11307   */\n      tag_186\n      jump\t// in\n    tag_342:\n        /* \"#utility.yul\":11210:11214   */\n      dup3\n        /* \"#utility.yul\":11203:11308   */\n      sstore\n        /* \"#utility.yul\":11121:11314   */\n      pop\n        /* \"#utility.yul\":11045:11314   */\n      pop\n      pop\n      pop\n      jump\t// out\n        /* \"#utility.yul\":11320:11393   */\n    tag_191:\n        /* \"#utility.yul\":11365:11368   */\n      0x00\n        /* \"#utility.yul\":11320:11393   */\n      swap1\n      jump\t// out\n        /* \"#utility.yul\":11399:11588   */\n    tag_192:\n        /* \"#utility.yul\":11476:11508   */\n      tag_346\n      tag_191\n      jump\t// in\n    tag_346:\n        /* \"#utility.yul\":11517:11582   */\n      tag_347\n        /* \"#utility.yul\":11575:11581   */\n      dup2\n        /* \"#utility.yul\":11567:11573   */\n      dup5\n        /* \"#utility.yul\":11561:11565   */\n      dup5\n        /* \"#utility.yul\":11517:11582   */\n      tag_190\n      jump\t// in\n    tag_347:\n        /* \"#utility.yul\":11452:11588   */\n      pop\n        /* \"#utility.yul\":11399:11588   */\n      pop\n      pop\n      jump\t// out\n        /* \"#utility.yul\":11594:11780   */\n    tag_193:\n        /* \"#utility.yul\":11654:11774   */\n    tag_349:\n        /* \"#utility.yul\":11671:11674   */\n      dup2\n        /* \"#utility.yul\":11664:11669   */\n      dup2\n        /* \"#utility.yul\":11661:11675   */\n      lt\n        /* \"#utility.yul\":11654:11774   */\n      iszero\n      tag_351\n      jumpi\n        /* \"#utility.yul\":11725:11764   */\n      tag_352\n        /* \"#utility.yul\":11762:11763   */\n      0x00\n        /* \"#utility.yul\":11755:11760   */\n      dup3\n        /* \"#utility.yul\":11725:11764   */\n      tag_192\n      jump\t// in\n    tag_352:\n        /* \"#utility.yul\":11698:11699   */\n      0x01\n        /* \"#utility.yul\":11691:11696   */\n      dup2\n        /* \"#utility.yul\":11687:11700   */\n      add\n        /* \"#utility.yul\":11678:11700   */\n      swap1\n      pop\n        /* \"#utility.yul\":11654:11774   */\n      jump(tag_349)\n    tag_351:\n        /* \"#utility.yul\":11594:11780   */\n      pop\n      pop\n      jump\t// out\n        /* \"#utility.yul\":11786:12329   */\n    tag_194:\n        /* \"#utility.yul\":11887:11889   */\n      0x1f\n        /* \"#utility.yul\":11882:11885   */\n      dup3\n        /* \"#utility.yul\":11879:11890   */\n      gt\n        /* \"#utility.yul\":11876:12322   */\n      iszero\n      tag_354\n      jumpi\n        /* \"#utility.yul\":11921:11959   */\n      tag_355\n        /* \"#utility.yul\":11953:11958   */\n      dup2\n        /* \"#utility.yul\":11921:11959   */\n      tag_183\n      jump\t// in\n    tag_355:\n        /* \"#utility.yul\":12005:12034   */\n      tag_356\n        /* \"#utility.yul\":12023:12033   */\n      dup5\n        /* \"#utility.yul\":12005:12034   */\n      tag_184\n      jump\t// in\n    tag_356:\n        /* \"#utility.yul\":11995:12003   */\n      dup2\n        /* \"#utility.yul\":11991:12035   */\n      add\n        /* \"#utility.yul\":12188:12190   */\n      0x20\n        /* \"#utility.yul\":12176:12186   */\n      dup6\n        /* \"#utility.yul\":12173:12191   */\n      lt\n        /* \"#utility.yul\":12170:12219   */\n      iszero\n      tag_357\n      jumpi\n        /* \"#utility.yul\":12209:12217   */\n      dup2\n        /* \"#utility.yul\":12194:12217   */\n      swap1\n      pop\n        /* \"#utility.yul\":12170:12219   */\n    tag_357:\n        /* \"#utility.yul\":12232:12312   */\n      tag_358\n        /* \"#utility.yul\":12288:12310   */\n      tag_359\n        /* \"#utility.yul\":12306:12309   */\n      dup6\n        /* \"#utility.yul\":12288:12310   */\n      tag_184\n      jump\t// in\n    tag_359:\n        /* \"#utility.yul\":12278:12286   */\n      dup4\n        /* \"#utility.yul\":12274:12311   */\n      add\n        /* \"#utility.yul\":12261:12272   */\n      dup3\n        /* \"#utility.yul\":12232:12312   */\n      tag_193\n      jump\t// in\n    tag_358:\n        /* \"#utility.yul\":11891:12322   */\n      pop\n      pop\n        /* \"#utility.yul\":11876:12322   */\n    tag_354:\n        /* \"#utility.yul\":11786:12329   */\n      pop\n      pop\n      pop\n      jump\t// out\n        /* \"#utility.yul\":12335:12452   */\n    tag_195:\n        /* \"#utility.yul\":12389:12397   */\n      0x00\n        /* \"#utility.yul\":12439:12444   */\n      dup3\n        /* \"#utility.yul\":12433:12437   */\n      dup3\n        /* \"#utility.yul\":12429:12445   */\n      shr\n        /* \"#utility.yul\":12408:12445   */\n      swap1\n      pop\n        /* \"#utility.yul\":12335:12452   */\n      swap3\n      swap2\n      pop\n      pop\n      jump\t// out\n        /* \"#utility.yul\":12458:12627   */\n    tag_196:\n        /* \"#utility.yul\":12502:12508   */\n      0x00\n        /* \"#utility.yul\":12535:12586   */\n      tag_362\n        /* \"#utility.yul\":12583:12584   */\n      0x00\n        /* \"#utility.yul\":12579:12585   */\n      not\n        /* \"#utility.yul\":12571:12576   */\n      dup5\n        /* \"#utility.yul\":12568:12569   */\n      0x08\n        /* \"#utility.yul\":12564:12577   */\n      mul\n        /* \"#utility.yul\":12535:12586   */\n      tag_195\n      jump\t// in\n    tag_362:\n        /* \"#utility.yul\":12531:12587   */\n      not\n        /* \"#utility.yul\":12616:12620   */\n      dup1\n        /* \"#utility.yul\":12610:12614   */\n      dup4\n        /* \"#utility.yul\":12606:12621   */\n      and\n        /* \"#utility.yul\":12596:12621   */\n      swap2\n      pop\n        /* \"#utility.yul\":12509:12627   */\n      pop\n        /* \"#utility.yul\":12458:12627   */\n      swap3\n      swap2\n      pop\n      pop\n      jump\t// out\n        /* \"#utility.yul\":12632:12927   */\n    tag_197:\n        /* \"#utility.yul\":12708:12712   */\n      0x00\n        /* \"#utility.yul\":12854:12883   */\n      tag_364\n        /* \"#utility.yul\":12879:12882   */\n      dup4\n        /* \"#utility.yul\":12873:12877   */\n      dup4\n        /* \"#utility.yul\":12854:12883   */\n      tag_196\n      jump\t// in\n    tag_364:\n        /* \"#utility.yul\":12846:12883   */\n      swap2\n      pop\n        /* \"#utility.yul\":12916:12919   */\n      dup3\n        /* \"#utility.yul\":12913:12914   */\n      0x02\n        /* \"#utility.yul\":12909:12920   */\n      mul\n        /* \"#utility.yul\":12903:12907   */\n      dup3\n        /* \"#utility.yul\":12900:12921   */\n      or\n        /* \"#utility.yul\":12892:12921   */\n      swap1\n      pop\n        /* \"#utility.yul\":12632:12927   */\n      swap3\n      swap2\n      pop\n      pop\n      jump\t// out\n        /* \"#utility.yul\":12932:14327   */\n    tag_93:\n        /* \"#utility.yul\":13049:13086   */\n      tag_366\n        /* \"#utility.yul\":13082:13085   */\n      dup3\n        /* \"#utility.yul\":13049:13086   */\n      tag_172\n      jump\t// in\n    tag_366:\n        /* \"#utility.yul\":13151:13169   */\n      0xffffffffffffffff\n        /* \"#utility.yul\":13143:13149   */\n      dup2\n        /* \"#utility.yul\":13140:13170   */\n      gt\n        /* \"#utility.yul\":13137:13193   */\n      iszero\n      tag_367\n      jumpi\n        /* \"#utility.yul\":13173:13191   */\n      tag_368\n      tag_159\n      jump\t// in\n    tag_368:\n        /* \"#utility.yul\":13137:13193   */\n    tag_367:\n        /* \"#utility.yul\":13217:13255   */\n      tag_369\n        /* \"#utility.yul\":13249:13253   */\n      dup3\n        /* \"#utility.yul\":13243:13254   */\n      sload\n        /* \"#utility.yul\":13217:13255   */\n      tag_105\n      jump\t// in\n    tag_369:\n        /* \"#utility.yul\":13302:13369   */\n      tag_370\n        /* \"#utility.yul\":13362:13368   */\n      dup3\n        /* \"#utility.yul\":13354:13360   */\n      dup3\n        /* \"#utility.yul\":13348:13352   */\n      dup6\n        /* \"#utility.yul\":13302:13369   */\n      tag_194\n      jump\t// in\n    tag_370:\n        /* \"#utility.yul\":13396:13397   */\n      0x00\n        /* \"#utility.yul\":13420:13424   */\n      0x20\n        /* \"#utility.yul\":13407:13424   */\n      swap1\n      pop\n        /* \"#utility.yul\":13452:13454   */\n      0x1f\n        /* \"#utility.yul\":13444:13450   */\n      dup4\n        /* \"#utility.yul\":13441:13455   */\n      gt\n        /* \"#utility.yul\":13469:13470   */\n      0x01\n        /* \"#utility.yul\":13464:14082   */\n      dup2\n      eq\n      tag_372\n      jumpi\n        /* \"#utility.yul\":14126:14127   */\n      0x00\n        /* \"#utility.yul\":14143:14149   */\n      dup5\n        /* \"#utility.yul\":14140:14217   */\n      iszero\n      tag_373\n      jumpi\n        /* \"#utility.yul\":14192:14201   */\n      dup3\n        /* \"#utility.yul\":14187:14190   */\n      dup8\n        /* \"#utility.yul\":14183:14202   */\n      add\n        /* \"#utility.yul\":14177:14203   */\n      mload\n        /* \"#utility.yul\":14168:14203   */\n      swap1\n      pop\n        /* \"#utility.yul\":14140:14217   */\n    tag_373:\n        /* \"#utility.yul\":14243:14310   */\n      tag_374\n        /* \"#utility.yul\":14303:14309   */\n      dup6\n        /* \"#utility.yul\":14296:14301   */\n      dup3\n        /* \"#utility.yul\":14243:14310   */\n      tag_197\n      jump\t// in\n    tag_374:\n        /* \"#utility.yul\":14237:14241   */\n      dup7\n        /* \"#utility.yul\":14230:14311   */\n      sstore\n        /* \"#utility.yul\":14099:14321   */\n      pop\n        /* \"#utility.yul\":13434:14321   */\n      jump(tag_371)\n        /* \"#utility.yul\":13464:14082   */\n    tag_372:\n        /* \"#utility.yul\":13516:13520   */\n      0x1f\n        /* \"#utility.yul\":13512:13521   */\n      not\n        /* \"#utility.yul\":13504:13510   */\n      dup5\n        /* \"#utility.yul\":13500:13522   */\n      and\n        /* \"#utility.yul\":13550:13587   */\n      tag_375\n        /* \"#utility.yul\":13582:13586   */\n      dup7\n        /* \"#utility.yul\":13550:13587   */\n      tag_183\n      jump\t// in\n    tag_375:\n        /* \"#utility.yul\":13609:13610   */\n      0x00\n        /* \"#utility.yul\":13623:13831   */\n    tag_376:\n        /* \"#utility.yul\":13637:13644   */\n      dup3\n        /* \"#utility.yul\":13634:13635   */\n      dup2\n        /* \"#utility.yul\":13631:13645   */\n      lt\n        /* \"#utility.yul\":13623:13831   */\n      iszero\n      tag_378\n      jumpi\n        /* \"#utility.yul\":13716:13725   */\n      dup5\n        /* \"#utility.yul\":13711:13714   */\n      dup10\n        /* \"#utility.yul\":13707:13726   */\n      add\n        /* \"#utility.yul\":13701:13727   */\n      mload\n        /* \"#utility.yul\":13693:13699   */\n      dup3\n        /* \"#utility.yul\":13686:13728   */\n      sstore\n        /* \"#utility.yul\":13767:13768   */\n      0x01\n        /* \"#utility.yul\":13759:13765   */\n      dup3\n        /* \"#utility.yul\":13755:13769   */\n      add\n        /* \"#utility.yul\":13745:13769   */\n      swap2\n      pop\n        /* \"#utility.yul\":13814:13816   */\n      0x20\n        /* \"#utility.yul\":13803:13812   */\n      dup6\n        /* \"#utility.yul\":13799:13817   */\n      add\n        /* \"#utility.yul\":13786:13817   */\n      swap5\n      pop\n        /* \"#utility.yul\":13660:13664   */\n      0x20\n        /* \"#utility.yul\":13657:13658   */\n      dup2\n        /* \"#utility.yul\":13653:13665   */\n      add\n        /* \"#utility.yul\":13648:13665   */\n      swap1\n      pop\n        /* \"#utility.yul\":13623:13831   */\n      jump(tag_376)\n    tag_378:\n        /* \"#utility.yul\":13859:13865   */\n      dup7\n        /* \"#utility.yul\":13850:13857   */\n      dup4\n        /* \"#utility.yul\":13847:13866   */\n      lt\n        /* \"#utility.yul\":13844:14023   */\n      iszero\n      tag_379\n      jumpi\n        /* \"#utility.yul\":13917:13926   */\n      dup5\n        /* \"#utility.yul\":13912:13915   */\n      dup10\n        /* \"#utility.yul\":13908:13927   */\n      add\n        /* \"#utility.yul\":13902:13928   */\n      mload\n        /* \"#utility.yul\":13960:14008   */\n      tag_380\n        /* \"#utility.yul\":14002:14006   */\n      0x1f\n        /* \"#utility.yul\":13994:14000   */\n      dup10\n        /* \"#utility.yul\":13990:14007   */\n      and\n        /* \"#utility.yul\":13979:13988   */\n      dup3\n        /* \"#utility.yul\":13960:14008   */\n      tag_196\n      jump\t// in\n    tag_380:\n        /* \"#utility.yul\":13952:13958   */\n      dup4\n        /* \"#utility.yul\":13945:14009   */\n      sstore\n        /* \"#utility.yul\":13867:14023   */\n      pop\n        /* \"#utility.yul\":13844:14023   */\n    tag_379:\n        /* \"#utility.yul\":14069:14070   */\n      0x01\n        /* \"#utility.yul\":14065:14066   */\n      0x02\n        /* \"#utility.yul\":14057:14063   */\n      dup9\n        /* \"#utility.yul\":14053:14067   */\n      mul\n        /* \"#utility.yul\":14049:14071   */\n      add\n        /* \"#utility.yul\":14043:14047   */\n      dup9\n        /* \"#utility.yul\":14036:14072   */\n      sstore\n        /* \"#utility.yul\":13471:14082   */\n      pop\n      pop\n      pop\n        /* \"#utility.yul\":13434:14321   */\n    tag_371:\n      pop\n        /* \"#utility.yul\":13024:14327   */\n      pop\n      pop\n      pop\n        /* \"#utility.yul\":12932:14327   */\n      pop\n      pop\n      jump\t// out\n        /* \"#utility.yul\":14333:14495   */\n    tag_198:\n        /* \"#utility.yul\":14473:14487   */\n      0x796f7520617265206c6174650000000000000000000000000000000000000000\n        /* \"#utility.yul\":14469:14470   */\n      0x00\n        /* \"#utility.yul\":14461:14467   */\n      dup3\n        /* \"#utility.yul\":14457:14471   */\n      add\n        /* \"#utility.yul\":14450:14488   */\n      mstore\n        /* \"#utility.yul\":14333:14495   */\n      pop\n      jump\t// out\n        /* \"#utility.yul\":14501:14867   */\n    tag_199:\n        /* \"#utility.yul\":14643:14646   */\n      0x00\n        /* \"#utility.yul\":14664:14731   */\n      tag_383\n        /* \"#utility.yul\":14728:14730   */\n      0x0c\n        /* \"#utility.yul\":14723:14726   */\n      dup4\n        /* \"#utility.yul\":14664:14731   */\n      tag_173\n      jump\t// in\n    tag_383:\n        /* \"#utility.yul\":14657:14731   */\n      swap2\n      pop\n        /* \"#utility.yul\":14740:14833   */\n      tag_384\n        /* \"#utility.yul\":14829:14832   */\n      dup3\n        /* \"#utility.yul\":14740:14833   */\n      tag_198\n      jump\t// in\n    tag_384:\n        /* \"#utility.yul\":14858:14860   */\n      0x20\n        /* \"#utility.yul\":14853:14856   */\n      dup3\n        /* \"#utility.yul\":14849:14861   */\n      add\n        /* \"#utility.yul\":14842:14861   */\n      swap1\n      pop\n        /* \"#utility.yul\":14501:14867   */\n      swap2\n      swap1\n      pop\n      jump\t// out\n        /* \"#utility.yul\":14873:15292   */\n    tag_98:\n        /* \"#utility.yul\":15039:15043   */\n      0x00\n        /* \"#utility.yul\":15077:15079   */\n      0x20\n        /* \"#utility.yul\":15066:15075   */\n      dup3\n        /* \"#utility.yul\":15062:15080   */\n      add\n        /* \"#utility.yul\":15054:15080   */\n      swap1\n      pop\n        /* \"#utility.yul\":15126:15135   */\n      dup2\n        /* \"#utility.yul\":15120:15124   */\n      dup2\n        /* \"#utility.yul\":15116:15136   */\n      sub\n        /* \"#utility.yul\":15112:15113   */\n      0x00\n        /* \"#utility.yul\":15101:15110   */\n      dup4\n        /* \"#utility.yul\":15097:15114   */\n      add\n        /* \"#utility.yul\":15090:15137   */\n      mstore\n        /* \"#utility.yul\":15154:15285   */\n      tag_386\n        /* \"#utility.yul\":15280:15284   */\n      dup2\n        /* \"#utility.yul\":15154:15285   */\n      tag_199\n      jump\t// in\n    tag_386:\n        /* \"#utility.yul\":15146:15285   */\n      swap1\n      pop\n        /* \"#utility.yul\":14873:15292   */\n      swap2\n      swap1\n      pop\n      jump\t// out\n        /* \"#utility.yul\":15298:15472   */\n    tag_200:\n        /* \"#utility.yul\":15438:15464   */\n      0x796f7520617265206e6f7420636f6e7472696275746f72730000000000000000\n        /* \"#utility.yul\":15434:15435   */\n      0x00\n        /* \"#utility.yul\":15426:15432   */\n      dup3\n        /* \"#utility.yul\":15422:15436   */\n      add\n        /* \"#utility.yul\":15415:15465   */\n      mstore\n        /* \"#utility.yul\":15298:15472   */\n      pop\n      jump\t// out\n        /* \"#utility.yul\":15478:15844   */\n    tag_201:\n        /* \"#utility.yul\":15620:15623   */\n      0x00\n        /* \"#utility.yul\":15641:15708   */\n      tag_389\n        /* \"#utility.yul\":15705:15707   */\n      0x18\n        /* \"#utility.yul\":15700:15703   */\n      dup4\n        /* \"#utility.yul\":15641:15708   */\n      tag_173\n      jump\t// in\n    tag_389:\n        /* \"#utility.yul\":15634:15708   */\n      swap2\n      pop\n        /* \"#utility.yul\":15717:15810   */\n      tag_390\n        /* \"#utility.yul\":15806:15809   */\n      dup3\n        /* \"#utility.yul\":15717:15810   */\n      tag_200\n      jump\t// in\n    tag_390:\n        /* \"#utility.yul\":15835:15837   */\n      0x20\n        /* \"#utility.yul\":15830:15833   */\n      dup3\n        /* \"#utility.yul\":15826:15838   */\n      add\n        /* \"#utility.yul\":15819:15838   */\n      swap1\n      pop\n        /* \"#utility.yul\":15478:15844   */\n      swap2\n      swap1\n      pop\n      jump\t// out\n        /* \"#utility.yul\":15850:16269   */\n    tag_101:\n        /* \"#utility.yul\":16016:16020   */\n      0x00\n        /* \"#utility.yul\":16054:16056   */\n      0x20\n        /* \"#utility.yul\":16043:16052   */\n      dup3\n        /* \"#utility.yul\":16039:16057   */\n      add\n        /* \"#utility.yul\":16031:16057   */\n      swap1\n      pop\n        /* \"#utility.yul\":16103:16112   */\n      dup2\n        /* \"#utility.yul\":16097:16101   */\n      dup2\n        /* \"#utility.yul\":16093:16113   */\n      sub\n        /* \"#utility.yul\":16089:16090   */\n      0x00\n        /* \"#utility.yul\":16078:16087   */\n      dup4\n        /* \"#utility.yul\":16074:16091   */\n      add\n        /* \"#utility.yul\":16067:16114   */\n      mstore\n        /* \"#utility.yul\":16131:16262   */\n      tag_392\n        /* \"#utility.yul\":16257:16261   */\n      dup2\n        /* \"#utility.yul\":16131:16262   */\n      tag_201\n      jump\t// in\n    tag_392:\n        /* \"#utility.yul\":16123:16262   */\n      swap1\n      pop\n        /* \"#utility.yul\":15850:16269   */\n      swap2\n      swap1\n      pop\n      jump\t// out\n        /* \"#utility.yul\":16275:16456   */\n    tag_202:\n        /* \"#utility.yul\":16415:16448   */\n      0x796f75206d75737420706172746963697061746520666f7220766f74696e6700\n        /* \"#utility.yul\":16411:16412   */\n      0x00\n        /* \"#utility.yul\":16403:16409   */\n      dup3\n        /* \"#utility.yul\":16399:16413   */\n      add\n        /* \"#utility.yul\":16392:16449   */\n      mstore\n        /* \"#utility.yul\":16275:16456   */\n      pop\n      jump\t// out\n        /* \"#utility.yul\":16462:16828   */\n    tag_203:\n        /* \"#utility.yul\":16604:16607   */\n      0x00\n        /* \"#utility.yul\":16625:16692   */\n      tag_395\n        /* \"#utility.yul\":16689:16691   */\n      0x1f\n        /* \"#utility.yul\":16684:16687   */\n      dup4\n        /* \"#utility.yul\":16625:16692   */\n      tag_173\n      jump\t// in\n    tag_395:\n        /* \"#utility.yul\":16618:16692   */\n      swap2\n      pop\n        /* \"#utility.yul\":16701:16794   */\n      tag_396\n        /* \"#utility.yul\":16790:16793   */\n      dup3\n        /* \"#utility.yul\":16701:16794   */\n      tag_202\n      jump\t// in\n    tag_396:\n        /* \"#utility.yul\":16819:16821   */\n      0x20\n        /* \"#utility.yul\":16814:16817   */\n      dup3\n        /* \"#utility.yul\":16810:16822   */\n      add\n        /* \"#utility.yul\":16803:16822   */\n      swap1\n      pop\n        /* \"#utility.yul\":16462:16828   */\n      swap2\n      swap1\n      pop\n      jump\t// out\n        /* \"#utility.yul\":16834:17253   */\n    tag_113:\n        /* \"#utility.yul\":17000:17004   */\n      0x00\n        /* \"#utility.yul\":17038:17040   */\n      0x20\n        /* \"#utility.yul\":17027:17036   */\n      dup3\n        /* \"#utility.yul\":17023:17041   */\n      add\n        /* \"#utility.yul\":17015:17041   */\n      swap1\n      pop\n        /* \"#utility.yul\":17087:17096   */\n      dup2\n        /* \"#utility.yul\":17081:17085   */\n      dup2\n        /* \"#utility.yul\":17077:17097   */\n      sub\n        /* \"#utility.yul\":17073:17074   */\n      0x00\n        /* \"#utility.yul\":17062:17071   */\n      dup4\n        /* \"#utility.yul\":17058:17075   */\n      add\n        /* \"#utility.yul\":17051:17098   */\n      mstore\n        /* \"#utility.yul\":17115:17246   */\n      tag_398\n        /* \"#utility.yul\":17241:17245   */\n      dup2\n        /* \"#utility.yul\":17115:17246   */\n      tag_203\n      jump\t// in\n    tag_398:\n        /* \"#utility.yul\":17107:17246   */\n      swap1\n      pop\n        /* \"#utility.yul\":16834:17253   */\n      swap2\n      swap1\n      pop\n      jump\t// out\n        /* \"#utility.yul\":17259:17431   */\n    tag_204:\n        /* \"#utility.yul\":17399:17423   */\n      0x796f75206861766520616c726561647920766f74656400000000000000000000\n        /* \"#utility.yul\":17395:17396   */\n      0x00\n        /* \"#utility.yul\":17387:17393   */\n      dup3\n        /* \"#utility.yul\":17383:17397   */\n      add\n        /* \"#utility.yul\":17376:17424   */\n      mstore\n        /* \"#utility.yul\":17259:17431   */\n      pop\n      jump\t// out\n        /* \"#utility.yul\":17437:17803   */\n    tag_205:\n        /* \"#utility.yul\":17579:17582   */\n      0x00\n        /* \"#utility.yul\":17600:17667   */\n      tag_401\n        /* \"#utility.yul\":17664:17666   */\n      0x16\n        /* \"#utility.yul\":17659:17662   */\n      dup4\n        /* \"#utility.yul\":17600:17667   */\n      tag_173\n      jump\t// in\n    tag_401:\n        /* \"#utility.yul\":17593:17667   */\n      swap2\n      pop\n        /* \"#utility.yul\":17676:17769   */\n      tag_402\n        /* \"#utility.yul\":17765:17768   */\n      dup3\n        /* \"#utility.yul\":17676:17769   */\n      tag_204\n      jump\t// in\n    tag_402:\n        /* \"#utility.yul\":17794:17796   */\n      0x20\n        /* \"#utility.yul\":17789:17792   */\n      dup3\n        /* \"#utility.yul\":17785:17797   */\n      add\n        /* \"#utility.yul\":17778:17797   */\n      swap1\n      pop\n        /* \"#utility.yul\":17437:17803   */\n      swap2\n      swap1\n      pop\n      jump\t// out\n        /* \"#utility.yul\":17809:18228   */\n    tag_117:\n        /* \"#utility.yul\":17975:17979   */\n      0x00\n        /* \"#utility.yul\":18013:18015   */\n      0x20\n        /* \"#utility.yul\":18002:18011   */\n      dup3\n        /* \"#utility.yul\":17998:18016   */\n      add\n        /* \"#utility.yul\":17990:18016   */\n      swap1\n      pop\n        /* \"#utility.yul\":18062:18071   */\n      dup2\n        /* \"#utility.yul\":18056:18060   */\n      dup2\n        /* \"#utility.yul\":18052:18072   */\n      sub\n        /* \"#utility.yul\":18048:18049   */\n      0x00\n        /* \"#utility.yul\":18037:18046   */\n      dup4\n        /* \"#utility.yul\":18033:18050   */\n      add\n        /* \"#utility.yul\":18026:18073   */\n      mstore\n        /* \"#utility.yul\":18090:18221   */\n      tag_404\n        /* \"#utility.yul\":18216:18220   */\n      dup2\n        /* \"#utility.yul\":18090:18221   */\n      tag_205\n      jump\t// in\n    tag_404:\n        /* \"#utility.yul\":18082:18221   */\n      swap1\n      pop\n        /* \"#utility.yul\":17809:18228   */\n      swap2\n      swap1\n      pop\n      jump\t// out\n        /* \"#utility.yul\":18234:18403   */\n    tag_206:\n        /* \"#utility.yul\":18374:18395   */\n      0x646561646c696e65206861732070617373656400000000000000000000000000\n        /* \"#utility.yul\":18370:18371   */\n      0x00\n        /* \"#utility.yul\":18362:18368   */\n      dup3\n        /* \"#utility.yul\":18358:18372   */\n      add\n        /* \"#utility.yul\":18351:18396   */\n      mstore\n        /* \"#utility.yul\":18234:18403   */\n      pop\n      jump\t// out\n        /* \"#utility.yul\":18409:18775   */\n    tag_207:\n        /* \"#utility.yul\":18551:18554   */\n      0x00\n        /* \"#utility.yul\":18572:18639   */\n      tag_407\n        /* \"#utility.yul\":18636:18638   */\n      0x13\n        /* \"#utility.yul\":18631:18634   */\n      dup4\n        /* \"#utility.yul\":18572:18639   */\n      tag_173\n      jump\t// in\n    tag_407:\n        /* \"#utility.yul\":18565:18639   */\n      swap2\n      pop\n        /* \"#utility.yul\":18648:18741   */\n      tag_408\n        /* \"#utility.yul\":18737:18740   */\n      dup3\n        /* \"#utility.yul\":18648:18741   */\n      tag_206\n      jump\t// in\n    tag_408:\n        /* \"#utility.yul\":18766:18768   */\n      0x20\n        /* \"#utility.yul\":18761:18764   */\n      dup3\n        /* \"#utility.yul\":18757:18769   */\n      add\n        /* \"#utility.yul\":18750:18769   */\n      swap1\n      pop\n        /* \"#utility.yul\":18409:18775   */\n      swap2\n      swap1\n      pop\n      jump\t// out\n        /* \"#utility.yul\":18781:19200   */\n    tag_122:\n        /* \"#utility.yul\":18947:18951   */\n      0x00\n        /* \"#utility.yul\":18985:18987   */\n      0x20\n        /* \"#utility.yul\":18974:18983   */\n      dup3\n        /* \"#utility.yul\":18970:18988   */\n      add\n        /* \"#utility.yul\":18962:18988   */\n      swap1\n      pop\n        /* \"#utility.yul\":19034:19043   */\n      dup2\n        /* \"#utility.yul\":19028:19032   */\n      dup2\n        /* \"#utility.yul\":19024:19044   */\n      sub\n        /* \"#utility.yul\":19020:19021   */\n      0x00\n        /* \"#utility.yul\":19009:19018   */\n      dup4\n        /* \"#utility.yul\":19005:19022   */\n      add\n        /* \"#utility.yul\":18998:19045   */\n      mstore\n        /* \"#utility.yul\":19062:19193   */\n      tag_410\n        /* \"#utility.yul\":19188:19192   */\n      dup2\n        /* \"#utility.yul\":19062:19193   */\n      tag_207\n      jump\t// in\n    tag_410:\n        /* \"#utility.yul\":19054:19193   */\n      swap1\n      pop\n        /* \"#utility.yul\":18781:19200   */\n      swap2\n      swap1\n      pop\n      jump\t// out\n        /* \"#utility.yul\":19206:19429   */\n    tag_208:\n        /* \"#utility.yul\":19346:19380   */\n      0x796f75206e65656420746f20616464206d696e696d756d20636f6e7472696275\n        /* \"#utility.yul\":19342:19343   */\n      0x00\n        /* \"#utility.yul\":19334:19340   */\n      dup3\n        /* \"#utility.yul\":19330:19344   */\n      add\n        /* \"#utility.yul\":19323:19381   */\n      mstore\n        /* \"#utility.yul\":19415:19421   */\n      0x74696f6e00000000000000000000000000000000000000000000000000000000\n        /* \"#utility.yul\":19410:19412   */\n      0x20\n        /* \"#utility.yul\":19402:19408   */\n      dup3\n        /* \"#utility.yul\":19398:19413   */\n      add\n        /* \"#utility.yul\":19391:19422   */\n      mstore\n        /* \"#utility.yul\":19206:19429   */\n      pop\n      jump\t// out\n        /* \"#utility.yul\":19435:19801   */\n    tag_209:\n        /* \"#utility.yul\":19577:19580   */\n      0x00\n        /* \"#utility.yul\":19598:19665   */\n      tag_413\n        /* \"#utility.yul\":19662:19664   */\n      0x24\n        /* \"#utility.yul\":19657:19660   */\n      dup4\n        /* \"#utility.yul\":19598:19665   */\n      tag_173\n      jump\t// in\n    tag_413:\n        /* \"#utility.yul\":19591:19665   */\n      swap2\n      pop\n        /* \"#utility.yul\":19674:19767   */\n      tag_414\n        /* \"#utility.yul\":19763:19766   */\n      dup3\n        /* \"#utility.yul\":19674:19767   */\n      tag_208\n      jump\t// in\n    tag_414:\n        /* \"#utility.yul\":19792:19794   */\n      0x40\n        /* \"#utility.yul\":19787:19790   */\n      dup3\n        /* \"#utility.yul\":19783:19795   */\n      add\n        /* \"#utility.yul\":19776:19795   */\n      swap1\n      pop\n        /* \"#utility.yul\":19435:19801   */\n      swap2\n      swap1\n      pop\n      jump\t// out\n        /* \"#utility.yul\":19807:20226   */\n    tag_125:\n        /* \"#utility.yul\":19973:19977   */\n      0x00\n        /* \"#utility.yul\":20011:20013   */\n      0x20\n        /* \"#utility.yul\":20000:20009   */\n      dup3\n        /* \"#utility.yul\":19996:20014   */\n      add\n        /* \"#utility.yul\":19988:20014   */\n      swap1\n      pop\n        /* \"#utility.yul\":20060:20069   */\n      dup2\n        /* \"#utility.yul\":20054:20058   */\n      dup2\n        /* \"#utility.yul\":20050:20070   */\n      sub\n        /* \"#utility.yul\":20046:20047   */\n      0x00\n        /* \"#utility.yul\":20035:20044   */\n      dup4\n        /* \"#utility.yul\":20031:20048   */\n      add\n        /* \"#utility.yul\":20024:20071   */\n      mstore\n        /* \"#utility.yul\":20088:20219   */\n      tag_416\n        /* \"#utility.yul\":20214:20218   */\n      dup2\n        /* \"#utility.yul\":20088:20219   */\n      tag_209\n      jump\t// in\n    tag_416:\n        /* \"#utility.yul\":20080:20219   */\n      swap1\n      pop\n        /* \"#utility.yul\":19807:20226   */\n      swap2\n      swap1\n      pop\n      jump\t// out\n        /* \"#utility.yul\":20232:20423   */\n    tag_129:\n        /* \"#utility.yul\":20272:20275   */\n      0x00\n        /* \"#utility.yul\":20291:20311   */\n      tag_418\n        /* \"#utility.yul\":20309:20310   */\n      dup3\n        /* \"#utility.yul\":20291:20311   */\n      tag_147\n      jump\t// in\n    tag_418:\n        /* \"#utility.yul\":20286:20311   */\n      swap2\n      pop\n        /* \"#utility.yul\":20325:20345   */\n      tag_419\n        /* \"#utility.yul\":20343:20344   */\n      dup4\n        /* \"#utility.yul\":20325:20345   */\n      tag_147\n      jump\t// in\n    tag_419:\n        /* \"#utility.yul\":20320:20345   */\n      swap3\n      pop\n        /* \"#utility.yul\":20368:20369   */\n      dup3\n        /* \"#utility.yul\":20365:20366   */\n      dup3\n        /* \"#utility.yul\":20361:20370   */\n      add\n        /* \"#utility.yul\":20354:20370   */\n      swap1\n      pop\n        /* \"#utility.yul\":20389:20392   */\n      dup1\n        /* \"#utility.yul\":20386:20387   */\n      dup3\n        /* \"#utility.yul\":20383:20393   */\n      gt\n        /* \"#utility.yul\":20380:20416   */\n      iszero\n      tag_420\n      jumpi\n        /* \"#utility.yul\":20396:20414   */\n      tag_421\n      tag_181\n      jump\t// in\n    tag_421:\n        /* \"#utility.yul\":20380:20416   */\n    tag_420:\n        /* \"#utility.yul\":20232:20423   */\n      swap3\n      swap2\n      pop\n      pop\n      jump\t// out\n        /* \"#utility.yul\":20429:20596   */\n    tag_210:\n        /* \"#utility.yul\":20569:20588   */\n      0x616c726561647920636f6d706c65746564000000000000000000000000000000\n        /* \"#utility.yul\":20565:20566   */\n      0x00\n        /* \"#utility.yul\":20557:20563   */\n      dup3\n        /* \"#utility.yul\":20553:20567   */\n      add\n        /* \"#utility.yul\":20546:20589   */\n      mstore\n        /* \"#utility.yul\":20429:20596   */\n      pop\n      jump\t// out\n        /* \"#utility.yul\":20602:20968   */\n    tag_211:\n        /* \"#utility.yul\":20744:20747   */\n      0x00\n        /* \"#utility.yul\":20765:20832   */\n      tag_424\n        /* \"#utility.yul\":20829:20831   */\n      0x11\n        /* \"#utility.yul\":20824:20827   */\n      dup4\n        /* \"#utility.yul\":20765:20832   */\n      tag_173\n      jump\t// in\n    tag_424:\n        /* \"#utility.yul\":20758:20832   */\n      swap2\n      pop\n        /* \"#utility.yul\":20841:20934   */\n      tag_425\n        /* \"#utility.yul\":20930:20933   */\n      dup3\n        /* \"#utility.yul\":20841:20934   */\n      tag_210\n      jump\t// in\n    tag_425:\n        /* \"#utility.yul\":20959:20961   */\n      0x20\n        /* \"#utility.yul\":20954:20957   */\n      dup3\n        /* \"#utility.yul\":20950:20962   */\n      add\n        /* \"#utility.yul\":20943:20962   */\n      swap1\n      pop\n        /* \"#utility.yul\":20602:20968   */\n      swap2\n      swap1\n      pop\n      jump\t// out\n        /* \"#utility.yul\":20974:21393   */\n    tag_138:\n        /* \"#utility.yul\":21140:21144   */\n      0x00\n        /* \"#utility.yul\":21178:21180   */\n      0x20\n        /* \"#utility.yul\":21167:21176   */\n      dup3\n        /* \"#utility.yul\":21163:21181   */\n      add\n        /* \"#utility.yul\":21155:21181   */\n      swap1\n      pop\n        /* \"#utility.yul\":21227:21236   */\n      dup2\n        /* \"#utility.yul\":21221:21225   */\n      dup2\n        /* \"#utility.yul\":21217:21237   */\n      sub\n        /* \"#utility.yul\":21213:21214   */\n      0x00\n        /* \"#utility.yul\":21202:21211   */\n      dup4\n        /* \"#utility.yul\":21198:21215   */\n      add\n        /* \"#utility.yul\":21191:21238   */\n      mstore\n        /* \"#utility.yul\":21255:21386   */\n      tag_427\n        /* \"#utility.yul\":21381:21385   */\n      dup2\n        /* \"#utility.yul\":21255:21386   */\n      tag_211\n      jump\t// in\n    tag_427:\n        /* \"#utility.yul\":21247:21386   */\n      swap1\n      pop\n        /* \"#utility.yul\":20974:21393   */\n      swap2\n      swap1\n      pop\n      jump\t// out\n        /* \"#utility.yul\":21399:21579   */\n    tag_212:\n        /* \"#utility.yul\":21447:21524   */\n      0x4e487b7100000000000000000000000000000000000000000000000000000000\n        /* \"#utility.yul\":21444:21445   */\n      0x00\n        /* \"#utility.yul\":21437:21525   */\n      mstore\n        /* \"#utility.yul\":21544:21548   */\n      0x12\n        /* \"#utility.yul\":21541:21542   */\n      0x04\n        /* \"#utility.yul\":21534:21549   */\n      mstore\n        /* \"#utility.yul\":21568:21572   */\n      0x24\n        /* \"#utility.yul\":21565:21566   */\n      0x00\n        /* \"#utility.yul\":21558:21573   */\n      revert\n        /* \"#utility.yul\":21585:21770   */\n    tag_140:\n        /* \"#utility.yul\":21625:21626   */\n      0x00\n        /* \"#utility.yul\":21642:21662   */\n      tag_430\n        /* \"#utility.yul\":21660:21661   */\n      dup3\n        /* \"#utility.yul\":21642:21662   */\n      tag_147\n      jump\t// in\n    tag_430:\n        /* \"#utility.yul\":21637:21662   */\n      swap2\n      pop\n        /* \"#utility.yul\":21676:21696   */\n      tag_431\n        /* \"#utility.yul\":21694:21695   */\n      dup4\n        /* \"#utility.yul\":21676:21696   */\n      tag_147\n      jump\t// in\n    tag_431:\n        /* \"#utility.yul\":21671:21696   */\n      swap3\n      pop\n        /* \"#utility.yul\":21715:21716   */\n      dup3\n        /* \"#utility.yul\":21705:21740   */\n      tag_432\n      jumpi\n        /* \"#utility.yul\":21720:21738   */\n      tag_433\n      tag_212\n      jump\t// in\n    tag_433:\n        /* \"#utility.yul\":21705:21740   */\n    tag_432:\n        /* \"#utility.yul\":21762:21763   */\n      dup3\n        /* \"#utility.yul\":21759:21760   */\n      dup3\n        /* \"#utility.yul\":21755:21764   */\n      div\n        /* \"#utility.yul\":21750:21764   */\n      swap1\n      pop\n        /* \"#utility.yul\":21585:21770   */\n      swap3\n      swap2\n      pop\n      pop\n      jump\t// out\n        /* \"#utility.yul\":21776:22012   */\n    tag_213:\n        /* \"#utility.yul\":21916:21950   */\n      0x6d616a6f72697479206e6f74206d65657473206d6f72652074686e2035302520\n        /* \"#utility.yul\":21912:21913   */\n      0x00\n        /* \"#utility.yul\":21904:21910   */\n      dup3\n        /* \"#utility.yul\":21900:21914   */\n      add\n        /* \"#utility.yul\":21893:21951   */\n      mstore\n        /* \"#utility.yul\":21985:22004   */\n      0x766f7465206e6f7420666f722074686973000000000000000000000000000000\n        /* \"#utility.yul\":21980:21982   */\n      0x20\n        /* \"#utility.yul\":21972:21978   */\n      dup3\n        /* \"#utility.yul\":21968:21983   */\n      add\n        /* \"#utility.yul\":21961:22005   */\n      mstore\n        /* \"#utility.yul\":21776:22012   */\n      pop\n      jump\t// out\n        /* \"#utility.yul\":22018:22384   */\n    tag_214:\n        /* \"#utility.yul\":22160:22163   */\n      0x00\n        /* \"#utility.yul\":22181:22248   */\n      tag_436\n        /* \"#utility.yul\":22245:22247   */\n      0x31\n        /* \"#utility.yul\":22240:22243   */\n      dup4\n        /* \"#utility.yul\":22181:22248   */\n      tag_173\n      jump\t// in\n    tag_436:\n        /* \"#utility.yul\":22174:22248   */\n      swap2\n      pop\n        /* \"#utility.yul\":22257:22350   */\n      tag_437\n        /* \"#utility.yul\":22346:22349   */\n      dup3\n        /* \"#utility.yul\":22257:22350   */\n      tag_213\n      jump\t// in\n    tag_437:\n        /* \"#utility.yul\":22375:22377   */\n      0x40\n        /* \"#utility.yul\":22370:22373   */\n      dup3\n        /* \"#utility.yul\":22366:22378   */\n      add\n        /* \"#utility.yul\":22359:22378   */\n      swap1\n      pop\n        /* \"#utility.yul\":22018:22384   */\n      swap2\n      swap1\n      pop\n      jump\t// out\n        /* \"#utility.yul\":22390:22809   */\n    tag_143:\n        /* \"#utility.yul\":22556:22560   */\n      0x00\n        /* \"#utility.yul\":22594:22596   */\n      0x20\n        /* \"#utility.yul\":22583:22592   */\n      dup3\n        /* \"#utility.yul\":22579:22597   */\n      add\n        /* \"#utility.yul\":22571:22597   */\n      swap1\n      pop\n        /* \"#utility.yul\":22643:22652   */\n      dup2\n        /* \"#utility.yul\":22637:22641   */\n      dup2\n        /* \"#utility.yul\":22633:22653   */\n      sub\n        /* \"#utility.yul\":22629:22630   */\n      0x00\n        /* \"#utility.yul\":22618:22627   */\n      dup4\n        /* \"#utility.yul\":22614:22631   */\n      add\n        /* \"#utility.yul\":22607:22654   */\n      mstore\n        /* \"#utility.yul\":22671:22802   */\n      tag_439\n        /* \"#utility.yul\":22797:22801   */\n      dup2\n        /* \"#utility.yul\":22671:22802   */\n      tag_214\n      jump\t// in\n    tag_439:\n        /* \"#utility.yul\":22663:22802   */\n      swap1\n      pop\n        /* \"#utility.yul\":22390:22809   */\n      swap2\n      swap1\n      pop\n      jump\t// out\n\n    auxdata: 0xa2646970667358221220c6880889c57636747b9cee33bb3bfcee9be77d7b3cd3622b8a64d4b09adecb8c64736f6c63430008120033\n}\n",
				"bytecode": {
					"linkReferences": {},
					"object": "60806040523480156200001157600080fd5b5060405162001acc38038062001acc8339818101604052810190620000379190620000e3565b8160048190555080426200004c919062000159565b600381905550606460028190555033600160006101000a81548173ffffffffffffffffffffffffffffffffffffffff021916908373ffffffffffffffffffffffffffffffffffffffff160217905550505062000194565b600080fd5b6000819050919050565b620000bd81620000a8565b8114620000c957600080fd5b50565b600081519050620000dd81620000b2565b92915050565b60008060408385031215620000fd57620000fc620000a3565b5b60006200010d85828601620000cc565b92505060206200012085828601620000cc565b9150509250929050565b7f4e487b7100000000000000000000000000000000000000000000000000000000600052601160045260246000fd5b60006200016682620000a8565b91506200017383620000a8565b92508282019050808211156200018e576200018d6200012a565b5b92915050565b61192880620001a46000396000f3fe6080604052600436106100e85760003560e01c806381d12c581161008a578063a8622ffe11610059578063a8622ffe146102b5578063cbaf8671146102e0578063d4b8399214610309578063f28bf14614610334576100e8565b806381d12c58146102165780638323879814610257578063967c67ce146102825780639e791d8b146102ab576100e8565b80633b644d18116100c65780633b644d18146101805780633eb7647b146101ab578063481c6a75146101d4578063590e1ae3146101ff576100e8565b80630ae0ad71146100ed5780631f6d49421461011857806329dcb0cf14610155575b600080fd5b3480156100f957600080fd5b5061010261035f565b60405161010f9190610cbe565b60405180910390f35b34801561012457600080fd5b5061013f600480360381019061013a9190610d4b565b610365565b60405161014c9190610cbe565b60405180910390f35b34801561016157600080fd5b5061016a61037d565b6040516101779190610cbe565b60405180910390f35b34801561018c57600080fd5b50610195610383565b6040516101a29190610cbe565b60405180910390f35b3480156101b757600080fd5b506101d260048036038101906101cd9190610f28565b610389565b005b3480156101e057600080fd5b506101e96104d5565b6040516101f69190610fa6565b60405180910390f35b34801561020b57600080fd5b506102146104fb565b005b34801561022257600080fd5b5061023d60048036038101906102389190610fc1565b6106a1565b60405161024e959493929190611097565b60405180910390f35b34801561026357600080fd5b5061026c61078c565b6040516102799190610cbe565b60405180910390f35b34801561028e57600080fd5b506102a960048036038101906102a49190610fc1565b610792565b005b6102b3610945565b005b3480156102c157600080fd5b506102ca610a9d565b6040516102d79190610cbe565b60405180910390f35b3480156102ec57600080fd5b5061030760048036038101906103029190610fc1565b610aa3565b005b34801561031557600080fd5b5061031e610c97565b60405161032b9190610cbe565b60405180910390f35b34801561034057600080fd5b50610349610c9d565b6040516103569190610cbe565b60405180910390f35b60085481565b60006020528060005260406000206000915090505481565b60035481565b60055481565b600160009054906101000a900473ffffffffffffffffffffffffffffffffffffffff1673ffffffffffffffffffffffffffffffffffffffff163373ffffffffffffffffffffffffffffffffffffffff1614610419576040517f08c379a00000000000000000000000000000000000000000000000000000000081526004016104109061113d565b60405180910390fd5b60006007600060085481526020019081526020016000209050600860008154809291906104459061118c565b91905055508381600001908161045b91906113e0565b50828160010160006101000a81548173ffffffffffffffffffffffffffffffffffffffff021916908373ffffffffffffffffffffffffffffffffffffffff16021790555081816002018190555060008160030160006101000a81548160ff0219169083151502179055506000816004018190555050505050565b600160009054906101000a900473ffffffffffffffffffffffffffffffffffffffff1681565b6003544211801561050f5750600454600554145b61054e576040517f08c379a0000000000000000000000000000000000000000000000000000000008152600401610545906114fe565b60405180910390fd5b60646000803373ffffffffffffffffffffffffffffffffffffffff1673ffffffffffffffffffffffffffffffffffffffff1681526020019081526020016000205410156105d0576040517f08c379a00000000000000000000000000000000000000000000000000000000081526004016105c79061156a565b60405180910390fd5b60003390508073ffffffffffffffffffffffffffffffffffffffff166108fc6000803373ffffffffffffffffffffffffffffffffffffffff1673ffffffffffffffffffffffffffffffffffffffff168152602001908152602001600020549081150290604051600060405180830381858888f19350505050158015610659573d6000803e3d6000fd5b5060008060003373ffffffffffffffffffffffffffffffffffffffff1673ffffffffffffffffffffffffffffffffffffffff1681526020019081526020016000208190555050565b60076020528060005260406000206000915090508060000180546106c490611203565b80601f01602080910402602001604051908101604052809291908181526020018280546106f090611203565b801561073d5780601f106107125761010080835404028352916020019161073d565b820191906000526020600020905b81548152906001019060200180831161072057829003601f168201915b5050505050908060010160009054906101000a900473ffffffffffffffffffffffffffffffffffffffff16908060020154908060030160009054906101000a900460ff16908060040154905085565b60065481565b60008060003373ffffffffffffffffffffffffffffffffffffffff1673ffffffffffffffffffffffffffffffffffffffff1681526020019081526020016000205411610813576040517f08c379a000000000000000000000000000000000000000000000000000000000815260040161080a906115d6565b60405180910390fd5b600854811061082157600080fd5b6000600760008381526020019081526020016000209050600015158160050160003373ffffffffffffffffffffffffffffffffffffffff1673ffffffffffffffffffffffffffffffffffffffff16815260200190815260200160002060009054906101000a900460ff161515146108cd576040517f08c379a00000000000000000000000000000000000000000000000000000000081526004016108c490611642565b60405180910390fd5b60018160050160003373ffffffffffffffffffffffffffffffffffffffff1673ffffffffffffffffffffffffffffffffffffffff16815260200190815260200160002060006101000a81548160ff02191690831515021790555080600401600081548092919061093c9061118c565b91905055505050565b6003544210610989576040517f08c379a0000000000000000000000000000000000000000000000000000000008152600401610980906116ae565b60405180910390fd5b6002543410156109ce576040517f08c379a00000000000000000000000000000000000000000000000000000000081526004016109c590611740565b60405180910390fd5b60008060003373ffffffffffffffffffffffffffffffffffffffff1673ffffffffffffffffffffffffffffffffffffffff1681526020019081526020016000205403610a2d5760066000815480929190610a279061118c565b91905055505b346000803373ffffffffffffffffffffffffffffffffffffffff1673ffffffffffffffffffffffffffffffffffffffff1681526020019081526020016000206000828254610a7b9190611760565b925050819055503460056000828254610a949190611760565b92505081905550565b60025481565b600160009054906101000a900473ffffffffffffffffffffffffffffffffffffffff1673ffffffffffffffffffffffffffffffffffffffff163373ffffffffffffffffffffffffffffffffffffffff1614610b33576040517f08c379a0000000000000000000000000000000000000000000000000000000008152600401610b2a9061113d565b60405180910390fd5b6004546005541015610b4457600080fd5b6000600760008381526020019081526020016000209050600015158160030160009054906101000a900460ff16151514610bb3576040517f08c379a0000000000000000000000000000000000000000000000000000000008152600401610baa906117e0565b60405180910390fd5b6002600654610bc2919061182f565b816004015411610c07576040517f08c379a0000000000000000000000000000000000000000000000000000000008152600401610bfe906118d2565b60405180910390fd5b8060010160009054906101000a900473ffffffffffffffffffffffffffffffffffffffff1673ffffffffffffffffffffffffffffffffffffffff166108fc82600201549081150290604051600060405180830381858888f19350505050158015610c75573d6000803e3d6000fd5b5060018160030160006101000a81548160ff0219169083151502179055505050565b60045481565b600047905090565b6000819050919050565b610cb881610ca5565b82525050565b6000602082019050610cd36000830184610caf565b92915050565b6000604051905090565b600080fd5b600080fd5b600073ffffffffffffffffffffffffffffffffffffffff82169050919050565b6000610d1882610ced565b9050919050565b610d2881610d0d565b8114610d3357600080fd5b50565b600081359050610d4581610d1f565b92915050565b600060208284031215610d6157610d60610ce3565b5b6000610d6f84828501610d36565b91505092915050565b600080fd5b600080fd5b6000601f19601f8301169050919050565b7f4e487b7100000000000000000000000000000000000000000000000000000000600052604160045260246000fd5b610dcb82610d82565b810181811067ffffffffffffffff82111715610dea57610de9610d93565b5b80604052505050565b6000610dfd610cd9565b9050610e098282610dc2565b919050565b600067ffffffffffffffff821115610e2957610e28610d93565b5b610e3282610d82565b9050602081019050919050565b82818337600083830152505050565b6000610e61610e5c84610e0e565b610df3565b905082815260208101848484011115610e7d57610e7c610d7d565b5b610e88848285610e3f565b509392505050565b600082601f830112610ea557610ea4610d78565b5b8135610eb5848260208601610e4e565b91505092915050565b6000610ec982610ced565b9050919050565b610ed981610ebe565b8114610ee457600080fd5b50565b600081359050610ef681610ed0565b92915050565b610f0581610ca5565b8114610f1057600080fd5b50565b600081359050610f2281610efc565b92915050565b600080600060608486031215610f4157610f40610ce3565b5b600084013567ffffffffffffffff811115610f5f57610f5e610ce8565b5b610f6b86828701610e90565b9350506020610f7c86828701610ee7565b9250506040610f8d86828701610f13565b9150509250925092565b610fa081610d0d565b82525050565b6000602082019050610fbb6000830184610f97565b92915050565b600060208284031215610fd757610fd6610ce3565b5b6000610fe584828501610f13565b91505092915050565b600081519050919050565b600082825260208201905092915050565b60005b8381101561102857808201518184015260208101905061100d565b60008484015250505050565b600061103f82610fee565b6110498185610ff9565b935061105981856020860161100a565b61106281610d82565b840191505092915050565b61107681610ebe565b82525050565b60008115159050919050565b6110918161107c565b82525050565b600060a08201905081810360008301526110b18188611034565b90506110c0602083018761106d565b6110cd6040830186610caf565b6110da6060830185611088565b6110e76080830184610caf565b9695505050505050565b7f6f6e6c79206d616e616765722063616e2063616c6c0000000000000000000000600082015250565b6000611127601583610ff9565b9150611132826110f1565b602082019050919050565b600060208201905081810360008301526111568161111a565b9050919050565b7f4e487b7100000000000000000000000000000000000000000000000000000000600052601160045260246000fd5b600061119782610ca5565b91507fffffffffffffffffffffffffffffffffffffffffffffffffffffffffffffffff82036111c9576111c861115d565b5b600182019050919050565b7f4e487b7100000000000000000000000000000000000000000000000000000000600052602260045260246000fd5b6000600282049050600182168061121b57607f821691505b60208210810361122e5761122d6111d4565b5b50919050565b60008190508160005260206000209050919050565b60006020601f8301049050919050565b600082821b905092915050565b6000600883026112967fffffffffffffffffffffffffffffffffffffffffffffffffffffffffffffffff82611259565b6112a08683611259565b95508019841693508086168417925050509392505050565b6000819050919050565b60006112dd6112d86112d384610ca5565b6112b8565b610ca5565b9050919050565b6000819050919050565b6112f7836112c2565b61130b611303826112e4565b848454611266565b825550505050565b600090565b611320611313565b61132b8184846112ee565b505050565b5b8181101561134f57611344600082611318565b600181019050611331565b5050565b601f8211156113945761136581611234565b61136e84611249565b8101602085101561137d578190505b61139161138985611249565b830182611330565b50505b505050565b600082821c905092915050565b60006113b760001984600802611399565b1980831691505092915050565b60006113d083836113a6565b9150826002028217905092915050565b6113e982610fee565b67ffffffffffffffff81111561140257611401610d93565b5b61140c8254611203565b611417828285611353565b600060209050601f83116001811461144a5760008415611438578287015190505b61144285826113c4565b8655506114aa565b601f19841661145886611234565b60005b828110156114805784890151825560018201915060208501945060208101905061145b565b8683101561149d5784890151611499601f8916826113a6565b8355505b6001600288020188555050505b505050505050565b7f796f7520617265206c6174650000000000000000000000000000000000000000600082015250565b60006114e8600c83610ff9565b91506114f3826114b2565b602082019050919050565b60006020820190508181036000830152611517816114db565b9050919050565b7f796f7520617265206e6f7420636f6e7472696275746f72730000000000000000600082015250565b6000611554601883610ff9565b915061155f8261151e565b602082019050919050565b6000602082019050818103600083015261158381611547565b9050919050565b7f796f75206d75737420706172746963697061746520666f7220766f74696e6700600082015250565b60006115c0601f83610ff9565b91506115cb8261158a565b602082019050919050565b600060208201905081810360008301526115ef816115b3565b9050919050565b7f796f75206861766520616c726561647920766f74656400000000000000000000600082015250565b600061162c601683610ff9565b9150611637826115f6565b602082019050919050565b6000602082019050818103600083015261165b8161161f565b9050919050565b7f646561646c696e65206861732070617373656400000000000000000000000000600082015250565b6000611698601383610ff9565b91506116a382611662565b602082019050919050565b600060208201905081810360008301526116c78161168b565b9050919050565b7f796f75206e65656420746f20616464206d696e696d756d20636f6e747269627560008201527f74696f6e00000000000000000000000000000000000000000000000000000000602082015250565b600061172a602483610ff9565b9150611735826116ce565b604082019050919050565b600060208201905081810360008301526117598161171d565b9050919050565b600061176b82610ca5565b915061177683610ca5565b925082820190508082111561178e5761178d61115d565b5b92915050565b7f616c726561647920636f6d706c65746564000000000000000000000000000000600082015250565b60006117ca601183610ff9565b91506117d582611794565b602082019050919050565b600060208201905081810360008301526117f9816117bd565b9050919050565b7f4e487b7100000000000000000000000000000000000000000000000000000000600052601260045260246000fd5b600061183a82610ca5565b915061184583610ca5565b92508261185557611854611800565b5b828204905092915050565b7f6d616a6f72697479206e6f74206d65657473206d6f72652074686e203530252060008201527f766f7465206e6f7420666f722074686973000000000000000000000000000000602082015250565b60006118bc603183610ff9565b91506118c782611860565b604082019050919050565b600060208201905081810360008301526118eb816118af565b905091905056fea2646970667358221220c6880889c57636747b9cee33bb3bfcee9be77d7b3cd3622b8a64d4b09adecb8c64736f6c63430008120033",
					"opcodes": "PUSH1 0x80 PUSH1 0x40 MSTORE CALLVALUE DUP1 ISZERO PUSH3 0x11 JUMPI PUSH1 0x0 DUP1 REVERT JUMPDEST POP PUSH1 0x40 MLOAD PUSH3 0x1ACC CODESIZE SUB DUP1 PUSH3 0x1ACC DUP4 CODECOPY DUP2 DUP2 ADD PUSH1 0x40 MSTORE DUP2 ADD SWAP1 PUSH3 0x37 SWAP2 SWAP1 PUSH3 0xE3 JUMP JUMPDEST DUP2 PUSH1 0x4 DUP2 SWAP1 SSTORE POP DUP1 TIMESTAMP PUSH3 0x4C SWAP2 SWAP1 PUSH3 0x159 JUMP JUMPDEST PUSH1 0x3 DUP2 SWAP1 SSTORE POP PUSH1 0x64 PUSH1 0x2 DUP2 SWAP1 SSTORE POP CALLER PUSH1 0x1 PUSH1 0x0 PUSH2 0x100 EXP DUP2 SLOAD DUP2 PUSH20 0xFFFFFFFFFFFFFFFFFFFFFFFFFFFFFFFFFFFFFFFF MUL NOT AND SWAP1 DUP4 PUSH20 0xFFFFFFFFFFFFFFFFFFFFFFFFFFFFFFFFFFFFFFFF AND MUL OR SWAP1 SSTORE POP POP POP PUSH3 0x194 JUMP JUMPDEST PUSH1 0x0 DUP1 REVERT JUMPDEST PUSH1 0x0 DUP2 SWAP1 POP SWAP2 SWAP1 POP JUMP JUMPDEST PUSH3 0xBD DUP2 PUSH3 0xA8 JUMP JUMPDEST DUP2 EQ PUSH3 0xC9 JUMPI PUSH1 0x0 DUP1 REVERT JUMPDEST POP JUMP JUMPDEST PUSH1 0x0 DUP2 MLOAD SWAP1 POP PUSH3 0xDD DUP2 PUSH3 0xB2 JUMP JUMPDEST SWAP3 SWAP2 POP POP JUMP JUMPDEST PUSH1 0x0 DUP1 PUSH1 0x40 DUP4 DUP6 SUB SLT ISZERO PUSH3 0xFD JUMPI PUSH3 0xFC PUSH3 0xA3 JUMP JUMPDEST JUMPDEST PUSH1 0x0 PUSH3 0x10D DUP6 DUP3 DUP7 ADD PUSH3 0xCC JUMP JUMPDEST SWAP3 POP POP PUSH1 0x20 PUSH3 0x120 DUP6 DUP3 DUP7 ADD PUSH3 0xCC JUMP JUMPDEST SWAP2 POP POP SWAP3 POP SWAP3 SWAP1 POP JUMP JUMPDEST PUSH32 0x4E487B7100000000000000000000000000000000000000000000000000000000 PUSH1 0x0 MSTORE PUSH1 0x11 PUSH1 0x4 MSTORE PUSH1 0x24 PUSH1 0x0 REVERT JUMPDEST PUSH1 0x0 PUSH3 0x166 DUP3 PUSH3 0xA8 JUMP JUMPDEST SWAP2 POP PUSH3 0x173 DUP4 PUSH3 0xA8 JUMP JUMPDEST SWAP3 POP DUP3 DUP3 ADD SWAP1 POP DUP1 DUP3 GT ISZERO PUSH3 0x18E JUMPI PUSH3 0x18D PUSH3 0x12A JUMP JUMPDEST JUMPDEST SWAP3 SWAP2 POP POP JUMP JUMPDEST PUSH2 0x1928 DUP1 PUSH3 0x1A4 PUSH1 0x0 CODECOPY PUSH1 0x0 RETURN INVALID PUSH1 0x80 PUSH1 0x40 MSTORE PUSH1 0x4 CALLDATASIZE LT PUSH2 0xE8 JUMPI PUSH1 0x0 CALLDATALOAD PUSH1 0xE0 SHR DUP1 PUSH4 0x81D12C58 GT PUSH2 0x8A JUMPI DUP1 PUSH4 0xA8622FFE GT PUSH2 0x59 JUMPI DUP1 PUSH4 0xA8622FFE EQ PUSH2 0x2B5 JUMPI DUP1 PUSH4 0xCBAF8671 EQ PUSH2 0x2E0 JUMPI DUP1 PUSH4 0xD4B83992 EQ PUSH2 0x309 JUMPI DUP1 PUSH4 0xF28BF146 EQ PUSH2 0x334 JUMPI PUSH2 0xE8 JUMP JUMPDEST DUP1 PUSH4 0x81D12C58 EQ PUSH2 0x216 JUMPI DUP1 PUSH4 0x83238798 EQ PUSH2 0x257 JUMPI DUP1 PUSH4 0x967C67CE EQ PUSH2 0x282 JUMPI DUP1 PUSH4 0x9E791D8B EQ PUSH2 0x2AB JUMPI PUSH2 0xE8 JUMP JUMPDEST DUP1 PUSH4 0x3B644D18 GT PUSH2 0xC6 JUMPI DUP1 PUSH4 0x3B644D18 EQ PUSH2 0x180 JUMPI DUP1 PUSH4 0x3EB7647B EQ PUSH2 0x1AB JUMPI DUP1 PUSH4 0x481C6A75 EQ PUSH2 0x1D4 JUMPI DUP1 PUSH4 0x590E1AE3 EQ PUSH2 0x1FF JUMPI PUSH2 0xE8 JUMP JUMPDEST DUP1 PUSH4 0xAE0AD71 EQ PUSH2 0xED JUMPI DUP1 PUSH4 0x1F6D4942 EQ PUSH2 0x118 JUMPI DUP1 PUSH4 0x29DCB0CF EQ PUSH2 0x155 JUMPI JUMPDEST PUSH1 0x0 DUP1 REVERT JUMPDEST CALLVALUE DUP1 ISZERO PUSH2 0xF9 JUMPI PUSH1 0x0 DUP1 REVERT JUMPDEST POP PUSH2 0x102 PUSH2 0x35F JUMP JUMPDEST PUSH1 0x40 MLOAD PUSH2 0x10F SWAP2 SWAP1 PUSH2 0xCBE JUMP JUMPDEST PUSH1 0x40 MLOAD DUP1 SWAP2 SUB SWAP1 RETURN JUMPDEST CALLVALUE DUP1 ISZERO PUSH2 0x124 JUMPI PUSH1 0x0 DUP1 REVERT JUMPDEST POP PUSH2 0x13F PUSH1 0x4 DUP1 CALLDATASIZE SUB DUP2 ADD SWAP1 PUSH2 0x13A SWAP2 SWAP1 PUSH2 0xD4B JUMP JUMPDEST PUSH2 0x365 JUMP JUMPDEST PUSH1 0x40 MLOAD PUSH2 0x14C SWAP2 SWAP1 PUSH2 0xCBE JUMP JUMPDEST PUSH1 0x40 MLOAD DUP1 SWAP2 SUB SWAP1 RETURN JUMPDEST CALLVALUE DUP1 ISZERO PUSH2 0x161 JUMPI PUSH1 0x0 DUP1 REVERT JUMPDEST POP PUSH2 0x16A PUSH2 0x37D JUMP JUMPDEST PUSH1 0x40 MLOAD PUSH2 0x177 SWAP2 SWAP1 PUSH2 0xCBE JUMP JUMPDEST PUSH1 0x40 MLOAD DUP1 SWAP2 SUB SWAP1 RETURN JUMPDEST CALLVALUE DUP1 ISZERO PUSH2 0x18C JUMPI PUSH1 0x0 DUP1 REVERT JUMPDEST POP PUSH2 0x195 PUSH2 0x383 JUMP JUMPDEST PUSH1 0x40 MLOAD PUSH2 0x1A2 SWAP2 SWAP1 PUSH2 0xCBE JUMP JUMPDEST PUSH1 0x40 MLOAD DUP1 SWAP2 SUB SWAP1 RETURN JUMPDEST CALLVALUE DUP1 ISZERO PUSH2 0x1B7 JUMPI PUSH1 0x0 DUP1 REVERT JUMPDEST POP PUSH2 0x1D2 PUSH1 0x4 DUP1 CALLDATASIZE SUB DUP2 ADD SWAP1 PUSH2 0x1CD SWAP2 SWAP1 PUSH2 0xF28 JUMP JUMPDEST PUSH2 0x389 JUMP JUMPDEST STOP JUMPDEST CALLVALUE DUP1 ISZERO PUSH2 0x1E0 JUMPI PUSH1 0x0 DUP1 REVERT JUMPDEST POP PUSH2 0x1E9 PUSH2 0x4D5 JUMP JUMPDEST PUSH1 0x40 MLOAD PUSH2 0x1F6 SWAP2 SWAP1 PUSH2 0xFA6 JUMP JUMPDEST PUSH1 0x40 MLOAD DUP1 SWAP2 SUB SWAP1 RETURN JUMPDEST CALLVALUE DUP1 ISZERO PUSH2 0x20B JUMPI PUSH1 0x0 DUP1 REVERT JUMPDEST POP PUSH2 0x214 PUSH2 0x4FB JUMP JUMPDEST STOP JUMPDEST CALLVALUE DUP1 ISZERO PUSH2 0x222 JUMPI PUSH1 0x0 DUP1 REVERT JUMPDEST POP PUSH2 0x23D PUSH1 0x4 DUP1 CALLDATASIZE SUB DUP2 ADD SWAP1 PUSH2 0x238 SWAP2 SWAP1 PUSH2 0xFC1 JUMP JUMPDEST PUSH2 0x6A1 JUMP JUMPDEST PUSH1 0x40 MLOAD PUSH2 0x24E SWAP6 SWAP5 SWAP4 SWAP3 SWAP2 SWAP1 PUSH2 0x1097 JUMP JUMPDEST PUSH1 0x40 MLOAD DUP1 SWAP2 SUB SWAP1 RETURN JUMPDEST CALLVALUE DUP1 ISZERO PUSH2 0x263 JUMPI PUSH1 0x0 DUP1 REVERT JUMPDEST POP PUSH2 0x26C PUSH2 0x78C JUMP JUMPDEST PUSH1 0x40 MLOAD PUSH2 0x279 SWAP2 SWAP1 PUSH2 0xCBE JUMP JUMPDEST PUSH1 0x40 MLOAD DUP1 SWAP2 SUB SWAP1 RETURN JUMPDEST CALLVALUE DUP1 ISZERO PUSH2 0x28E JUMPI PUSH1 0x0 DUP1 REVERT JUMPDEST POP PUSH2 0x2A9 PUSH1 0x4 DUP1 CALLDATASIZE SUB DUP2 ADD SWAP1 PUSH2 0x2A4 SWAP2 SWAP1 PUSH2 0xFC1 JUMP JUMPDEST PUSH2 0x792 JUMP JUMPDEST STOP JUMPDEST PUSH2 0x2B3 PUSH2 0x945 JUMP JUMPDEST STOP JUMPDEST CALLVALUE DUP1 ISZERO PUSH2 0x2C1 JUMPI PUSH1 0x0 DUP1 REVERT JUMPDEST POP PUSH2 0x2CA PUSH2 0xA9D JUMP JUMPDEST PUSH1 0x40 MLOAD PUSH2 0x2D7 SWAP2 SWAP1 PUSH2 0xCBE JUMP JUMPDEST PUSH1 0x40 MLOAD DUP1 SWAP2 SUB SWAP1 RETURN JUMPDEST CALLVALUE DUP1 ISZERO PUSH2 0x2EC JUMPI PUSH1 0x0 DUP1 REVERT JUMPDEST POP PUSH2 0x307 PUSH1 0x4 DUP1 CALLDATASIZE SUB DUP2 ADD SWAP1 PUSH2 0x302 SWAP2 SWAP1 PUSH2 0xFC1 JUMP JUMPDEST PUSH2 0xAA3 JUMP JUMPDEST STOP JUMPDEST CALLVALUE DUP1 ISZERO PUSH2 0x315 JUMPI PUSH1 0x0 DUP1 REVERT JUMPDEST POP PUSH2 0x31E PUSH2 0xC97 JUMP JUMPDEST PUSH1 0x40 MLOAD PUSH2 0x32B SWAP2 SWAP1 PUSH2 0xCBE JUMP JUMPDEST PUSH1 0x40 MLOAD DUP1 SWAP2 SUB SWAP1 RETURN JUMPDEST CALLVALUE DUP1 ISZERO PUSH2 0x340 JUMPI PUSH1 0x0 DUP1 REVERT JUMPDEST POP PUSH2 0x349 PUSH2 0xC9D JUMP JUMPDEST PUSH1 0x40 MLOAD PUSH2 0x356 SWAP2 SWAP1 PUSH2 0xCBE JUMP JUMPDEST PUSH1 0x40 MLOAD DUP1 SWAP2 SUB SWAP1 RETURN JUMPDEST PUSH1 0x8 SLOAD DUP2 JUMP JUMPDEST PUSH1 0x0 PUSH1 0x20 MSTORE DUP1 PUSH1 0x0 MSTORE PUSH1 0x40 PUSH1 0x0 KECCAK256 PUSH1 0x0 SWAP2 POP SWAP1 POP SLOAD DUP2 JUMP JUMPDEST PUSH1 0x3 SLOAD DUP2 JUMP JUMPDEST PUSH1 0x5 SLOAD DUP2 JUMP JUMPDEST PUSH1 0x1 PUSH1 0x0 SWAP1 SLOAD SWAP1 PUSH2 0x100 EXP SWAP1 DIV PUSH20 0xFFFFFFFFFFFFFFFFFFFFFFFFFFFFFFFFFFFFFFFF AND PUSH20 0xFFFFFFFFFFFFFFFFFFFFFFFFFFFFFFFFFFFFFFFF AND CALLER PUSH20 0xFFFFFFFFFFFFFFFFFFFFFFFFFFFFFFFFFFFFFFFF AND EQ PUSH2 0x419 JUMPI PUSH1 0x40 MLOAD PUSH32 0x8C379A000000000000000000000000000000000000000000000000000000000 DUP2 MSTORE PUSH1 0x4 ADD PUSH2 0x410 SWAP1 PUSH2 0x113D JUMP JUMPDEST PUSH1 0x40 MLOAD DUP1 SWAP2 SUB SWAP1 REVERT JUMPDEST PUSH1 0x0 PUSH1 0x7 PUSH1 0x0 PUSH1 0x8 SLOAD DUP2 MSTORE PUSH1 0x20 ADD SWAP1 DUP2 MSTORE PUSH1 0x20 ADD PUSH1 0x0 KECCAK256 SWAP1 POP PUSH1 0x8 PUSH1 0x0 DUP2 SLOAD DUP1 SWAP3 SWAP2 SWAP1 PUSH2 0x445 SWAP1 PUSH2 0x118C JUMP JUMPDEST SWAP2 SWAP1 POP SSTORE POP DUP4 DUP2 PUSH1 0x0 ADD SWAP1 DUP2 PUSH2 0x45B SWAP2 SWAP1 PUSH2 0x13E0 JUMP JUMPDEST POP DUP3 DUP2 PUSH1 0x1 ADD PUSH1 0x0 PUSH2 0x100 EXP DUP2 SLOAD DUP2 PUSH20 0xFFFFFFFFFFFFFFFFFFFFFFFFFFFFFFFFFFFFFFFF MUL NOT AND SWAP1 DUP4 PUSH20 0xFFFFFFFFFFFFFFFFFFFFFFFFFFFFFFFFFFFFFFFF AND MUL OR SWAP1 SSTORE POP DUP2 DUP2 PUSH1 0x2 ADD DUP2 SWAP1 SSTORE POP PUSH1 0x0 DUP2 PUSH1 0x3 ADD PUSH1 0x0 PUSH2 0x100 EXP DUP2 SLOAD DUP2 PUSH1 0xFF MUL NOT AND SWAP1 DUP4 ISZERO ISZERO MUL OR SWAP1 SSTORE POP PUSH1 0x0 DUP2 PUSH1 0x4 ADD DUP2 SWAP1 SSTORE POP POP POP POP POP JUMP JUMPDEST PUSH1 0x1 PUSH1 0x0 SWAP1 SLOAD SWAP1 PUSH2 0x100 EXP SWAP1 DIV PUSH20 0xFFFFFFFFFFFFFFFFFFFFFFFFFFFFFFFFFFFFFFFF AND DUP2 JUMP JUMPDEST PUSH1 0x3 SLOAD TIMESTAMP GT DUP1 ISZERO PUSH2 0x50F JUMPI POP PUSH1 0x4 SLOAD PUSH1 0x5 SLOAD EQ JUMPDEST PUSH2 0x54E JUMPI PUSH1 0x40 MLOAD PUSH32 0x8C379A000000000000000000000000000000000000000000000000000000000 DUP2 MSTORE PUSH1 0x4 ADD PUSH2 0x545 SWAP1 PUSH2 0x14FE JUMP JUMPDEST PUSH1 0x40 MLOAD DUP1 SWAP2 SUB SWAP1 REVERT JUMPDEST PUSH1 0x64 PUSH1 0x0 DUP1 CALLER PUSH20 0xFFFFFFFFFFFFFFFFFFFFFFFFFFFFFFFFFFFFFFFF AND PUSH20 0xFFFFFFFFFFFFFFFFFFFFFFFFFFFFFFFFFFFFFFFF AND DUP2 MSTORE PUSH1 0x20 ADD SWAP1 DUP2 MSTORE PUSH1 0x20 ADD PUSH1 0x0 KECCAK256 SLOAD LT ISZERO PUSH2 0x5D0 JUMPI PUSH1 0x40 MLOAD PUSH32 0x8C379A000000000000000000000000000000000000000000000000000000000 DUP2 MSTORE PUSH1 0x4 ADD PUSH2 0x5C7 SWAP1 PUSH2 0x156A JUMP JUMPDEST PUSH1 0x40 MLOAD DUP1 SWAP2 SUB SWAP1 REVERT JUMPDEST PUSH1 0x0 CALLER SWAP1 POP DUP1 PUSH20 0xFFFFFFFFFFFFFFFFFFFFFFFFFFFFFFFFFFFFFFFF AND PUSH2 0x8FC PUSH1 0x0 DUP1 CALLER PUSH20 0xFFFFFFFFFFFFFFFFFFFFFFFFFFFFFFFFFFFFFFFF AND PUSH20 0xFFFFFFFFFFFFFFFFFFFFFFFFFFFFFFFFFFFFFFFF AND DUP2 MSTORE PUSH1 0x20 ADD SWAP1 DUP2 MSTORE PUSH1 0x20 ADD PUSH1 0x0 KECCAK256 SLOAD SWAP1 DUP2 ISZERO MUL SWAP1 PUSH1 0x40 MLOAD PUSH1 0x0 PUSH1 0x40 MLOAD DUP1 DUP4 SUB DUP2 DUP6 DUP9 DUP9 CALL SWAP4 POP POP POP POP ISZERO DUP1 ISZERO PUSH2 0x659 JUMPI RETURNDATASIZE PUSH1 0x0 DUP1 RETURNDATACOPY RETURNDATASIZE PUSH1 0x0 REVERT JUMPDEST POP PUSH1 0x0 DUP1 PUSH1 0x0 CALLER PUSH20 0xFFFFFFFFFFFFFFFFFFFFFFFFFFFFFFFFFFFFFFFF AND PUSH20 0xFFFFFFFFFFFFFFFFFFFFFFFFFFFFFFFFFFFFFFFF AND DUP2 MSTORE PUSH1 0x20 ADD SWAP1 DUP2 MSTORE PUSH1 0x20 ADD PUSH1 0x0 KECCAK256 DUP2 SWAP1 SSTORE POP POP JUMP JUMPDEST PUSH1 0x7 PUSH1 0x20 MSTORE DUP1 PUSH1 0x0 MSTORE PUSH1 0x40 PUSH1 0x0 KECCAK256 PUSH1 0x0 SWAP2 POP SWAP1 POP DUP1 PUSH1 0x0 ADD DUP1 SLOAD PUSH2 0x6C4 SWAP1 PUSH2 0x1203 JUMP JUMPDEST DUP1 PUSH1 0x1F ADD PUSH1 0x20 DUP1 SWAP2 DIV MUL PUSH1 0x20 ADD PUSH1 0x40 MLOAD SWAP1 DUP2 ADD PUSH1 0x40 MSTORE DUP1 SWAP3 SWAP2 SWAP1 DUP2 DUP2 MSTORE PUSH1 0x20 ADD DUP3 DUP1 SLOAD PUSH2 0x6F0 SWAP1 PUSH2 0x1203 JUMP JUMPDEST DUP1 ISZERO PUSH2 0x73D JUMPI DUP1 PUSH1 0x1F LT PUSH2 0x712 JUMPI PUSH2 0x100 DUP1 DUP4 SLOAD DIV MUL DUP4 MSTORE SWAP2 PUSH1 0x20 ADD SWAP2 PUSH2 0x73D JUMP JUMPDEST DUP3 ADD SWAP2 SWAP1 PUSH1 0x0 MSTORE PUSH1 0x20 PUSH1 0x0 KECCAK256 SWAP1 JUMPDEST DUP2 SLOAD DUP2 MSTORE SWAP1 PUSH1 0x1 ADD SWAP1 PUSH1 0x20 ADD DUP1 DUP4 GT PUSH2 0x720 JUMPI DUP3 SWAP1 SUB PUSH1 0x1F AND DUP3 ADD SWAP2 JUMPDEST POP POP POP POP POP SWAP1 DUP1 PUSH1 0x1 ADD PUSH1 0x0 SWAP1 SLOAD SWAP1 PUSH2 0x100 EXP SWAP1 DIV PUSH20 0xFFFFFFFFFFFFFFFFFFFFFFFFFFFFFFFFFFFFFFFF AND SWAP1 DUP1 PUSH1 0x2 ADD SLOAD SWAP1 DUP1 PUSH1 0x3 ADD PUSH1 0x0 SWAP1 SLOAD SWAP1 PUSH2 0x100 EXP SWAP1 DIV PUSH1 0xFF AND SWAP1 DUP1 PUSH1 0x4 ADD SLOAD SWAP1 POP DUP6 JUMP JUMPDEST PUSH1 0x6 SLOAD DUP2 JUMP JUMPDEST PUSH1 0x0 DUP1 PUSH1 0x0 CALLER PUSH20 0xFFFFFFFFFFFFFFFFFFFFFFFFFFFFFFFFFFFFFFFF AND PUSH20 0xFFFFFFFFFFFFFFFFFFFFFFFFFFFFFFFFFFFFFFFF AND DUP2 MSTORE PUSH1 0x20 ADD SWAP1 DUP2 MSTORE PUSH1 0x20 ADD PUSH1 0x0 KECCAK256 SLOAD GT PUSH2 0x813 JUMPI PUSH1 0x40 MLOAD PUSH32 0x8C379A000000000000000000000000000000000000000000000000000000000 DUP2 MSTORE PUSH1 0x4 ADD PUSH2 0x80A SWAP1 PUSH2 0x15D6 JUMP JUMPDEST PUSH1 0x40 MLOAD DUP1 SWAP2 SUB SWAP1 REVERT JUMPDEST PUSH1 0x8 SLOAD DUP2 LT PUSH2 0x821 JUMPI PUSH1 0x0 DUP1 REVERT JUMPDEST PUSH1 0x0 PUSH1 0x7 PUSH1 0x0 DUP4 DUP2 MSTORE PUSH1 0x20 ADD SWAP1 DUP2 MSTORE PUSH1 0x20 ADD PUSH1 0x0 KECCAK256 SWAP1 POP PUSH1 0x0 ISZERO ISZERO DUP2 PUSH1 0x5 ADD PUSH1 0x0 CALLER PUSH20 0xFFFFFFFFFFFFFFFFFFFFFFFFFFFFFFFFFFFFFFFF AND PUSH20 0xFFFFFFFFFFFFFFFFFFFFFFFFFFFFFFFFFFFFFFFF AND DUP2 MSTORE PUSH1 0x20 ADD SWAP1 DUP2 MSTORE PUSH1 0x20 ADD PUSH1 0x0 KECCAK256 PUSH1 0x0 SWAP1 SLOAD SWAP1 PUSH2 0x100 EXP SWAP1 DIV PUSH1 0xFF AND ISZERO ISZERO EQ PUSH2 0x8CD JUMPI PUSH1 0x40 MLOAD PUSH32 0x8C379A000000000000000000000000000000000000000000000000000000000 DUP2 MSTORE PUSH1 0x4 ADD PUSH2 0x8C4 SWAP1 PUSH2 0x1642 JUMP JUMPDEST PUSH1 0x40 MLOAD DUP1 SWAP2 SUB SWAP1 REVERT JUMPDEST PUSH1 0x1 DUP2 PUSH1 0x5 ADD PUSH1 0x0 CALLER PUSH20 0xFFFFFFFFFFFFFFFFFFFFFFFFFFFFFFFFFFFFFFFF AND PUSH20 0xFFFFFFFFFFFFFFFFFFFFFFFFFFFFFFFFFFFFFFFF AND DUP2 MSTORE PUSH1 0x20 ADD SWAP1 DUP2 MSTORE PUSH1 0x20 ADD PUSH1 0x0 KECCAK256 PUSH1 0x0 PUSH2 0x100 EXP DUP2 SLOAD DUP2 PUSH1 0xFF MUL NOT AND SWAP1 DUP4 ISZERO ISZERO MUL OR SWAP1 SSTORE POP DUP1 PUSH1 0x4 ADD PUSH1 0x0 DUP2 SLOAD DUP1 SWAP3 SWAP2 SWAP1 PUSH2 0x93C SWAP1 PUSH2 0x118C JUMP JUMPDEST SWAP2 SWAP1 POP SSTORE POP POP POP JUMP JUMPDEST PUSH1 0x3 SLOAD TIMESTAMP LT PUSH2 0x989 JUMPI PUSH1 0x40 MLOAD PUSH32 0x8C379A000000000000000000000000000000000000000000000000000000000 DUP2 MSTORE PUSH1 0x4 ADD PUSH2 0x980 SWAP1 PUSH2 0x16AE JUMP JUMPDEST PUSH1 0x40 MLOAD DUP1 SWAP2 SUB SWAP1 REVERT JUMPDEST PUSH1 0x2 SLOAD CALLVALUE LT ISZERO PUSH2 0x9CE JUMPI PUSH1 0x40 MLOAD PUSH32 0x8C379A000000000000000000000000000000000000000000000000000000000 DUP2 MSTORE PUSH1 0x4 ADD PUSH2 0x9C5 SWAP1 PUSH2 0x1740 JUMP JUMPDEST PUSH1 0x40 MLOAD DUP1 SWAP2 SUB SWAP1 REVERT JUMPDEST PUSH1 0x0 DUP1 PUSH1 0x0 CALLER PUSH20 0xFFFFFFFFFFFFFFFFFFFFFFFFFFFFFFFFFFFFFFFF AND PUSH20 0xFFFFFFFFFFFFFFFFFFFFFFFFFFFFFFFFFFFFFFFF AND DUP2 MSTORE PUSH1 0x20 ADD SWAP1 DUP2 MSTORE PUSH1 0x20 ADD PUSH1 0x0 KECCAK256 SLOAD SUB PUSH2 0xA2D JUMPI PUSH1 0x6 PUSH1 0x0 DUP2 SLOAD DUP1 SWAP3 SWAP2 SWAP1 PUSH2 0xA27 SWAP1 PUSH2 0x118C JUMP JUMPDEST SWAP2 SWAP1 POP SSTORE POP JUMPDEST CALLVALUE PUSH1 0x0 DUP1 CALLER PUSH20 0xFFFFFFFFFFFFFFFFFFFFFFFFFFFFFFFFFFFFFFFF AND PUSH20 0xFFFFFFFFFFFFFFFFFFFFFFFFFFFFFFFFFFFFFFFF AND DUP2 MSTORE PUSH1 0x20 ADD SWAP1 DUP2 MSTORE PUSH1 0x20 ADD PUSH1 0x0 KECCAK256 PUSH1 0x0 DUP3 DUP3 SLOAD PUSH2 0xA7B SWAP2 SWAP1 PUSH2 0x1760 JUMP JUMPDEST SWAP3 POP POP DUP2 SWAP1 SSTORE POP CALLVALUE PUSH1 0x5 PUSH1 0x0 DUP3 DUP3 SLOAD PUSH2 0xA94 SWAP2 SWAP1 PUSH2 0x1760 JUMP JUMPDEST SWAP3 POP POP DUP2 SWAP1 SSTORE POP JUMP JUMPDEST PUSH1 0x2 SLOAD DUP2 JUMP JUMPDEST PUSH1 0x1 PUSH1 0x0 SWAP1 SLOAD SWAP1 PUSH2 0x100 EXP SWAP1 DIV PUSH20 0xFFFFFFFFFFFFFFFFFFFFFFFFFFFFFFFFFFFFFFFF AND PUSH20 0xFFFFFFFFFFFFFFFFFFFFFFFFFFFFFFFFFFFFFFFF AND CALLER PUSH20 0xFFFFFFFFFFFFFFFFFFFFFFFFFFFFFFFFFFFFFFFF AND EQ PUSH2 0xB33 JUMPI PUSH1 0x40 MLOAD PUSH32 0x8C379A000000000000000000000000000000000000000000000000000000000 DUP2 MSTORE PUSH1 0x4 ADD PUSH2 0xB2A SWAP1 PUSH2 0x113D JUMP JUMPDEST PUSH1 0x40 MLOAD DUP1 SWAP2 SUB SWAP1 REVERT JUMPDEST PUSH1 0x4 SLOAD PUSH1 0x5 SLOAD LT ISZERO PUSH2 0xB44 JUMPI PUSH1 0x0 DUP1 REVERT JUMPDEST PUSH1 0x0 PUSH1 0x7 PUSH1 0x0 DUP4 DUP2 MSTORE PUSH1 0x20 ADD SWAP1 DUP2 MSTORE PUSH1 0x20 ADD PUSH1 0x0 KECCAK256 SWAP1 POP PUSH1 0x0 ISZERO ISZERO DUP2 PUSH1 0x3 ADD PUSH1 0x0 SWAP1 SLOAD SWAP1 PUSH2 0x100 EXP SWAP1 DIV PUSH1 0xFF AND ISZERO ISZERO EQ PUSH2 0xBB3 JUMPI PUSH1 0x40 MLOAD PUSH32 0x8C379A000000000000000000000000000000000000000000000000000000000 DUP2 MSTORE PUSH1 0x4 ADD PUSH2 0xBAA SWAP1 PUSH2 0x17E0 JUMP JUMPDEST PUSH1 0x40 MLOAD DUP1 SWAP2 SUB SWAP1 REVERT JUMPDEST PUSH1 0x2 PUSH1 0x6 SLOAD PUSH2 0xBC2 SWAP2 SWAP1 PUSH2 0x182F JUMP JUMPDEST DUP2 PUSH1 0x4 ADD SLOAD GT PUSH2 0xC07 JUMPI PUSH1 0x40 MLOAD PUSH32 0x8C379A000000000000000000000000000000000000000000000000000000000 DUP2 MSTORE PUSH1 0x4 ADD PUSH2 0xBFE SWAP1 PUSH2 0x18D2 JUMP JUMPDEST PUSH1 0x40 MLOAD DUP1 SWAP2 SUB SWAP1 REVERT JUMPDEST DUP1 PUSH1 0x1 ADD PUSH1 0x0 SWAP1 SLOAD SWAP1 PUSH2 0x100 EXP SWAP1 DIV PUSH20 0xFFFFFFFFFFFFFFFFFFFFFFFFFFFFFFFFFFFFFFFF AND PUSH20 0xFFFFFFFFFFFFFFFFFFFFFFFFFFFFFFFFFFFFFFFF AND PUSH2 0x8FC DUP3 PUSH1 0x2 ADD SLOAD SWAP1 DUP2 ISZERO MUL SWAP1 PUSH1 0x40 MLOAD PUSH1 0x0 PUSH1 0x40 MLOAD DUP1 DUP4 SUB DUP2 DUP6 DUP9 DUP9 CALL SWAP4 POP POP POP POP ISZERO DUP1 ISZERO PUSH2 0xC75 JUMPI RETURNDATASIZE PUSH1 0x0 DUP1 RETURNDATACOPY RETURNDATASIZE PUSH1 0x0 REVERT JUMPDEST POP PUSH1 0x1 DUP2 PUSH1 0x3 ADD PUSH1 0x0 PUSH2 0x100 EXP DUP2 SLOAD DUP2 PUSH1 0xFF MUL NOT AND SWAP1 DUP4 ISZERO ISZERO MUL OR SWAP1 SSTORE POP POP POP JUMP JUMPDEST PUSH1 0x4 SLOAD DUP2 JUMP JUMPDEST PUSH1 0x0 SELFBALANCE SWAP1 POP SWAP1 JUMP JUMPDEST PUSH1 0x0 DUP2 SWAP1 POP SWAP2 SWAP1 POP JUMP JUMPDEST PUSH2 0xCB8 DUP2 PUSH2 0xCA5 JUMP JUMPDEST DUP3 MSTORE POP POP JUMP JUMPDEST PUSH1 0x0 PUSH1 0x20 DUP3 ADD SWAP1 POP PUSH2 0xCD3 PUSH1 0x0 DUP4 ADD DUP5 PUSH2 0xCAF JUMP JUMPDEST SWAP3 SWAP2 POP POP JUMP JUMPDEST PUSH1 0x0 PUSH1 0x40 MLOAD SWAP1 POP SWAP1 JUMP JUMPDEST PUSH1 0x0 DUP1 REVERT JUMPDEST PUSH1 0x0 DUP1 REVERT JUMPDEST PUSH1 0x0 PUSH20 0xFFFFFFFFFFFFFFFFFFFFFFFFFFFFFFFFFFFFFFFF DUP3 AND SWAP1 POP SWAP2 SWAP1 POP JUMP JUMPDEST PUSH1 0x0 PUSH2 0xD18 DUP3 PUSH2 0xCED JUMP JUMPDEST SWAP1 POP SWAP2 SWAP1 POP JUMP JUMPDEST PUSH2 0xD28 DUP2 PUSH2 0xD0D JUMP JUMPDEST DUP2 EQ PUSH2 0xD33 JUMPI PUSH1 0x0 DUP1 REVERT JUMPDEST POP JUMP JUMPDEST PUSH1 0x0 DUP2 CALLDATALOAD SWAP1 POP PUSH2 0xD45 DUP2 PUSH2 0xD1F JUMP JUMPDEST SWAP3 SWAP2 POP POP JUMP JUMPDEST PUSH1 0x0 PUSH1 0x20 DUP3 DUP5 SUB SLT ISZERO PUSH2 0xD61 JUMPI PUSH2 0xD60 PUSH2 0xCE3 JUMP JUMPDEST JUMPDEST PUSH1 0x0 PUSH2 0xD6F DUP5 DUP3 DUP6 ADD PUSH2 0xD36 JUMP JUMPDEST SWAP2 POP POP SWAP3 SWAP2 POP POP JUMP JUMPDEST PUSH1 0x0 DUP1 REVERT JUMPDEST PUSH1 0x0 DUP1 REVERT JUMPDEST PUSH1 0x0 PUSH1 0x1F NOT PUSH1 0x1F DUP4 ADD AND SWAP1 POP SWAP2 SWAP1 POP JUMP JUMPDEST PUSH32 0x4E487B7100000000000000000000000000000000000000000000000000000000 PUSH1 0x0 MSTORE PUSH1 0x41 PUSH1 0x4 MSTORE PUSH1 0x24 PUSH1 0x0 REVERT JUMPDEST PUSH2 0xDCB DUP3 PUSH2 0xD82 JUMP JUMPDEST DUP2 ADD DUP2 DUP2 LT PUSH8 0xFFFFFFFFFFFFFFFF DUP3 GT OR ISZERO PUSH2 0xDEA JUMPI PUSH2 0xDE9 PUSH2 0xD93 JUMP JUMPDEST JUMPDEST DUP1 PUSH1 0x40 MSTORE POP POP POP JUMP JUMPDEST PUSH1 0x0 PUSH2 0xDFD PUSH2 0xCD9 JUMP JUMPDEST SWAP1 POP PUSH2 0xE09 DUP3 DUP3 PUSH2 0xDC2 JUMP JUMPDEST SWAP2 SWAP1 POP JUMP JUMPDEST PUSH1 0x0 PUSH8 0xFFFFFFFFFFFFFFFF DUP3 GT ISZERO PUSH2 0xE29 JUMPI PUSH2 0xE28 PUSH2 0xD93 JUMP JUMPDEST JUMPDEST PUSH2 0xE32 DUP3 PUSH2 0xD82 JUMP JUMPDEST SWAP1 POP PUSH1 0x20 DUP2 ADD SWAP1 POP SWAP2 SWAP1 POP JUMP JUMPDEST DUP3 DUP2 DUP4 CALLDATACOPY PUSH1 0x0 DUP4 DUP4 ADD MSTORE POP POP POP JUMP JUMPDEST PUSH1 0x0 PUSH2 0xE61 PUSH2 0xE5C DUP5 PUSH2 0xE0E JUMP JUMPDEST PUSH2 0xDF3 JUMP JUMPDEST SWAP1 POP DUP3 DUP2 MSTORE PUSH1 0x20 DUP2 ADD DUP5 DUP5 DUP5 ADD GT ISZERO PUSH2 0xE7D JUMPI PUSH2 0xE7C PUSH2 0xD7D JUMP JUMPDEST JUMPDEST PUSH2 0xE88 DUP5 DUP3 DUP6 PUSH2 0xE3F JUMP JUMPDEST POP SWAP4 SWAP3 POP POP POP JUMP JUMPDEST PUSH1 0x0 DUP3 PUSH1 0x1F DUP4 ADD SLT PUSH2 0xEA5 JUMPI PUSH2 0xEA4 PUSH2 0xD78 JUMP JUMPDEST JUMPDEST DUP2 CALLDATALOAD PUSH2 0xEB5 DUP5 DUP3 PUSH1 0x20 DUP7 ADD PUSH2 0xE4E JUMP JUMPDEST SWAP2 POP POP SWAP3 SWAP2 POP POP JUMP JUMPDEST PUSH1 0x0 PUSH2 0xEC9 DUP3 PUSH2 0xCED JUMP JUMPDEST SWAP1 POP SWAP2 SWAP1 POP JUMP JUMPDEST PUSH2 0xED9 DUP2 PUSH2 0xEBE JUMP JUMPDEST DUP2 EQ PUSH2 0xEE4 JUMPI PUSH1 0x0 DUP1 REVERT JUMPDEST POP JUMP JUMPDEST PUSH1 0x0 DUP2 CALLDATALOAD SWAP1 POP PUSH2 0xEF6 DUP2 PUSH2 0xED0 JUMP JUMPDEST SWAP3 SWAP2 POP POP JUMP JUMPDEST PUSH2 0xF05 DUP2 PUSH2 0xCA5 JUMP JUMPDEST DUP2 EQ PUSH2 0xF10 JUMPI PUSH1 0x0 DUP1 REVERT JUMPDEST POP JUMP JUMPDEST PUSH1 0x0 DUP2 CALLDATALOAD SWAP1 POP PUSH2 0xF22 DUP2 PUSH2 0xEFC JUMP JUMPDEST SWAP3 SWAP2 POP POP JUMP JUMPDEST PUSH1 0x0 DUP1 PUSH1 0x0 PUSH1 0x60 DUP5 DUP7 SUB SLT ISZERO PUSH2 0xF41 JUMPI PUSH2 0xF40 PUSH2 0xCE3 JUMP JUMPDEST JUMPDEST PUSH1 0x0 DUP5 ADD CALLDATALOAD PUSH8 0xFFFFFFFFFFFFFFFF DUP2 GT ISZERO PUSH2 0xF5F JUMPI PUSH2 0xF5E PUSH2 0xCE8 JUMP JUMPDEST JUMPDEST PUSH2 0xF6B DUP7 DUP3 DUP8 ADD PUSH2 0xE90 JUMP JUMPDEST SWAP4 POP POP PUSH1 0x20 PUSH2 0xF7C DUP7 DUP3 DUP8 ADD PUSH2 0xEE7 JUMP JUMPDEST SWAP3 POP POP PUSH1 0x40 PUSH2 0xF8D DUP7 DUP3 DUP8 ADD PUSH2 0xF13 JUMP JUMPDEST SWAP2 POP POP SWAP3 POP SWAP3 POP SWAP3 JUMP JUMPDEST PUSH2 0xFA0 DUP2 PUSH2 0xD0D JUMP JUMPDEST DUP3 MSTORE POP POP JUMP JUMPDEST PUSH1 0x0 PUSH1 0x20 DUP3 ADD SWAP1 POP PUSH2 0xFBB PUSH1 0x0 DUP4 ADD DUP5 PUSH2 0xF97 JUMP JUMPDEST SWAP3 SWAP2 POP POP JUMP JUMPDEST PUSH1 0x0 PUSH1 0x20 DUP3 DUP5 SUB SLT ISZERO PUSH2 0xFD7 JUMPI PUSH2 0xFD6 PUSH2 0xCE3 JUMP JUMPDEST JUMPDEST PUSH1 0x0 PUSH2 0xFE5 DUP5 DUP3 DUP6 ADD PUSH2 0xF13 JUMP JUMPDEST SWAP2 POP POP SWAP3 SWAP2 POP POP JUMP JUMPDEST PUSH1 0x0 DUP2 MLOAD SWAP1 POP SWAP2 SWAP1 POP JUMP JUMPDEST PUSH1 0x0 DUP3 DUP3 MSTORE PUSH1 0x20 DUP3 ADD SWAP1 POP SWAP3 SWAP2 POP POP JUMP JUMPDEST PUSH1 0x0 JUMPDEST DUP4 DUP2 LT ISZERO PUSH2 0x1028 JUMPI DUP1 DUP3 ADD MLOAD DUP2 DUP5 ADD MSTORE PUSH1 0x20 DUP2 ADD SWAP1 POP PUSH2 0x100D JUMP JUMPDEST PUSH1 0x0 DUP5 DUP5 ADD MSTORE POP POP POP POP JUMP JUMPDEST PUSH1 0x0 PUSH2 0x103F DUP3 PUSH2 0xFEE JUMP JUMPDEST PUSH2 0x1049 DUP2 DUP6 PUSH2 0xFF9 JUMP JUMPDEST SWAP4 POP PUSH2 0x1059 DUP2 DUP6 PUSH1 0x20 DUP7 ADD PUSH2 0x100A JUMP JUMPDEST PUSH2 0x1062 DUP2 PUSH2 0xD82 JUMP JUMPDEST DUP5 ADD SWAP2 POP POP SWAP3 SWAP2 POP POP JUMP JUMPDEST PUSH2 0x1076 DUP2 PUSH2 0xEBE JUMP JUMPDEST DUP3 MSTORE POP POP JUMP JUMPDEST PUSH1 0x0 DUP2 ISZERO ISZERO SWAP1 POP SWAP2 SWAP1 POP JUMP JUMPDEST PUSH2 0x1091 DUP2 PUSH2 0x107C JUMP JUMPDEST DUP3 MSTORE POP POP JUMP JUMPDEST PUSH1 0x0 PUSH1 0xA0 DUP3 ADD SWAP1 POP DUP2 DUP2 SUB PUSH1 0x0 DUP4 ADD MSTORE PUSH2 0x10B1 DUP2 DUP9 PUSH2 0x1034 JUMP JUMPDEST SWAP1 POP PUSH2 0x10C0 PUSH1 0x20 DUP4 ADD DUP8 PUSH2 0x106D JUMP JUMPDEST PUSH2 0x10CD PUSH1 0x40 DUP4 ADD DUP7 PUSH2 0xCAF JUMP JUMPDEST PUSH2 0x10DA PUSH1 0x60 DUP4 ADD DUP6 PUSH2 0x1088 JUMP JUMPDEST PUSH2 0x10E7 PUSH1 0x80 DUP4 ADD DUP5 PUSH2 0xCAF JUMP JUMPDEST SWAP7 SWAP6 POP POP POP POP POP POP JUMP JUMPDEST PUSH32 0x6F6E6C79206D616E616765722063616E2063616C6C0000000000000000000000 PUSH1 0x0 DUP3 ADD MSTORE POP JUMP JUMPDEST PUSH1 0x0 PUSH2 0x1127 PUSH1 0x15 DUP4 PUSH2 0xFF9 JUMP JUMPDEST SWAP2 POP PUSH2 0x1132 DUP3 PUSH2 0x10F1 JUMP JUMPDEST PUSH1 0x20 DUP3 ADD SWAP1 POP SWAP2 SWAP1 POP JUMP JUMPDEST PUSH1 0x0 PUSH1 0x20 DUP3 ADD SWAP1 POP DUP2 DUP2 SUB PUSH1 0x0 DUP4 ADD MSTORE PUSH2 0x1156 DUP2 PUSH2 0x111A JUMP JUMPDEST SWAP1 POP SWAP2 SWAP1 POP JUMP JUMPDEST PUSH32 0x4E487B7100000000000000000000000000000000000000000000000000000000 PUSH1 0x0 MSTORE PUSH1 0x11 PUSH1 0x4 MSTORE PUSH1 0x24 PUSH1 0x0 REVERT JUMPDEST PUSH1 0x0 PUSH2 0x1197 DUP3 PUSH2 0xCA5 JUMP JUMPDEST SWAP2 POP PUSH32 0xFFFFFFFFFFFFFFFFFFFFFFFFFFFFFFFFFFFFFFFFFFFFFFFFFFFFFFFFFFFFFFFF DUP3 SUB PUSH2 0x11C9 JUMPI PUSH2 0x11C8 PUSH2 0x115D JUMP JUMPDEST JUMPDEST PUSH1 0x1 DUP3 ADD SWAP1 POP SWAP2 SWAP1 POP JUMP JUMPDEST PUSH32 0x4E487B7100000000000000000000000000000000000000000000000000000000 PUSH1 0x0 MSTORE PUSH1 0x22 PUSH1 0x4 MSTORE PUSH1 0x24 PUSH1 0x0 REVERT JUMPDEST PUSH1 0x0 PUSH1 0x2 DUP3 DIV SWAP1 POP PUSH1 0x1 DUP3 AND DUP1 PUSH2 0x121B JUMPI PUSH1 0x7F DUP3 AND SWAP2 POP JUMPDEST PUSH1 0x20 DUP3 LT DUP2 SUB PUSH2 0x122E JUMPI PUSH2 0x122D PUSH2 0x11D4 JUMP JUMPDEST JUMPDEST POP SWAP2 SWAP1 POP JUMP JUMPDEST PUSH1 0x0 DUP2 SWAP1 POP DUP2 PUSH1 0x0 MSTORE PUSH1 0x20 PUSH1 0x0 KECCAK256 SWAP1 POP SWAP2 SWAP1 POP JUMP JUMPDEST PUSH1 0x0 PUSH1 0x20 PUSH1 0x1F DUP4 ADD DIV SWAP1 POP SWAP2 SWAP1 POP JUMP JUMPDEST PUSH1 0x0 DUP3 DUP3 SHL SWAP1 POP SWAP3 SWAP2 POP POP JUMP JUMPDEST PUSH1 0x0 PUSH1 0x8 DUP4 MUL PUSH2 0x1296 PUSH32 0xFFFFFFFFFFFFFFFFFFFFFFFFFFFFFFFFFFFFFFFFFFFFFFFFFFFFFFFFFFFFFFFF DUP3 PUSH2 0x1259 JUMP JUMPDEST PUSH2 0x12A0 DUP7 DUP4 PUSH2 0x1259 JUMP JUMPDEST SWAP6 POP DUP1 NOT DUP5 AND SWAP4 POP DUP1 DUP7 AND DUP5 OR SWAP3 POP POP POP SWAP4 SWAP3 POP POP POP JUMP JUMPDEST PUSH1 0x0 DUP2 SWAP1 POP SWAP2 SWAP1 POP JUMP JUMPDEST PUSH1 0x0 PUSH2 0x12DD PUSH2 0x12D8 PUSH2 0x12D3 DUP5 PUSH2 0xCA5 JUMP JUMPDEST PUSH2 0x12B8 JUMP JUMPDEST PUSH2 0xCA5 JUMP JUMPDEST SWAP1 POP SWAP2 SWAP1 POP JUMP JUMPDEST PUSH1 0x0 DUP2 SWAP1 POP SWAP2 SWAP1 POP JUMP JUMPDEST PUSH2 0x12F7 DUP4 PUSH2 0x12C2 JUMP JUMPDEST PUSH2 0x130B PUSH2 0x1303 DUP3 PUSH2 0x12E4 JUMP JUMPDEST DUP5 DUP5 SLOAD PUSH2 0x1266 JUMP JUMPDEST DUP3 SSTORE POP POP POP POP JUMP JUMPDEST PUSH1 0x0 SWAP1 JUMP JUMPDEST PUSH2 0x1320 PUSH2 0x1313 JUMP JUMPDEST PUSH2 0x132B DUP2 DUP5 DUP5 PUSH2 0x12EE JUMP JUMPDEST POP POP POP JUMP JUMPDEST JUMPDEST DUP2 DUP2 LT ISZERO PUSH2 0x134F JUMPI PUSH2 0x1344 PUSH1 0x0 DUP3 PUSH2 0x1318 JUMP JUMPDEST PUSH1 0x1 DUP2 ADD SWAP1 POP PUSH2 0x1331 JUMP JUMPDEST POP POP JUMP JUMPDEST PUSH1 0x1F DUP3 GT ISZERO PUSH2 0x1394 JUMPI PUSH2 0x1365 DUP2 PUSH2 0x1234 JUMP JUMPDEST PUSH2 0x136E DUP5 PUSH2 0x1249 JUMP JUMPDEST DUP2 ADD PUSH1 0x20 DUP6 LT ISZERO PUSH2 0x137D JUMPI DUP2 SWAP1 POP JUMPDEST PUSH2 0x1391 PUSH2 0x1389 DUP6 PUSH2 0x1249 JUMP JUMPDEST DUP4 ADD DUP3 PUSH2 0x1330 JUMP JUMPDEST POP POP JUMPDEST POP POP POP JUMP JUMPDEST PUSH1 0x0 DUP3 DUP3 SHR SWAP1 POP SWAP3 SWAP2 POP POP JUMP JUMPDEST PUSH1 0x0 PUSH2 0x13B7 PUSH1 0x0 NOT DUP5 PUSH1 0x8 MUL PUSH2 0x1399 JUMP JUMPDEST NOT DUP1 DUP4 AND SWAP2 POP POP SWAP3 SWAP2 POP POP JUMP JUMPDEST PUSH1 0x0 PUSH2 0x13D0 DUP4 DUP4 PUSH2 0x13A6 JUMP JUMPDEST SWAP2 POP DUP3 PUSH1 0x2 MUL DUP3 OR SWAP1 POP SWAP3 SWAP2 POP POP JUMP JUMPDEST PUSH2 0x13E9 DUP3 PUSH2 0xFEE JUMP JUMPDEST PUSH8 0xFFFFFFFFFFFFFFFF DUP2 GT ISZERO PUSH2 0x1402 JUMPI PUSH2 0x1401 PUSH2 0xD93 JUMP JUMPDEST JUMPDEST PUSH2 0x140C DUP3 SLOAD PUSH2 0x1203 JUMP JUMPDEST PUSH2 0x1417 DUP3 DUP3 DUP6 PUSH2 0x1353 JUMP JUMPDEST PUSH1 0x0 PUSH1 0x20 SWAP1 POP PUSH1 0x1F DUP4 GT PUSH1 0x1 DUP2 EQ PUSH2 0x144A JUMPI PUSH1 0x0 DUP5 ISZERO PUSH2 0x1438 JUMPI DUP3 DUP8 ADD MLOAD SWAP1 POP JUMPDEST PUSH2 0x1442 DUP6 DUP3 PUSH2 0x13C4 JUMP JUMPDEST DUP7 SSTORE POP PUSH2 0x14AA JUMP JUMPDEST PUSH1 0x1F NOT DUP5 AND PUSH2 0x1458 DUP7 PUSH2 0x1234 JUMP JUMPDEST PUSH1 0x0 JUMPDEST DUP3 DUP2 LT ISZERO PUSH2 0x1480 JUMPI DUP5 DUP10 ADD MLOAD DUP3 SSTORE PUSH1 0x1 DUP3 ADD SWAP2 POP PUSH1 0x20 DUP6 ADD SWAP5 POP PUSH1 0x20 DUP2 ADD SWAP1 POP PUSH2 0x145B JUMP JUMPDEST DUP7 DUP4 LT ISZERO PUSH2 0x149D JUMPI DUP5 DUP10 ADD MLOAD PUSH2 0x1499 PUSH1 0x1F DUP10 AND DUP3 PUSH2 0x13A6 JUMP JUMPDEST DUP4 SSTORE POP JUMPDEST PUSH1 0x1 PUSH1 0x2 DUP9 MUL ADD DUP9 SSTORE POP POP POP JUMPDEST POP POP POP POP POP POP JUMP JUMPDEST PUSH32 0x796F7520617265206C6174650000000000000000000000000000000000000000 PUSH1 0x0 DUP3 ADD MSTORE POP JUMP JUMPDEST PUSH1 0x0 PUSH2 0x14E8 PUSH1 0xC DUP4 PUSH2 0xFF9 JUMP JUMPDEST SWAP2 POP PUSH2 0x14F3 DUP3 PUSH2 0x14B2 JUMP JUMPDEST PUSH1 0x20 DUP3 ADD SWAP1 POP SWAP2 SWAP1 POP JUMP JUMPDEST PUSH1 0x0 PUSH1 0x20 DUP3 ADD SWAP1 POP DUP2 DUP2 SUB PUSH1 0x0 DUP4 ADD MSTORE PUSH2 0x1517 DUP2 PUSH2 0x14DB JUMP JUMPDEST SWAP1 POP SWAP2 SWAP1 POP JUMP JUMPDEST PUSH32 0x796F7520617265206E6F7420636F6E7472696275746F72730000000000000000 PUSH1 0x0 DUP3 ADD MSTORE POP JUMP JUMPDEST PUSH1 0x0 PUSH2 0x1554 PUSH1 0x18 DUP4 PUSH2 0xFF9 JUMP JUMPDEST SWAP2 POP PUSH2 0x155F DUP3 PUSH2 0x151E JUMP JUMPDEST PUSH1 0x20 DUP3 ADD SWAP1 POP SWAP2 SWAP1 POP JUMP JUMPDEST PUSH1 0x0 PUSH1 0x20 DUP3 ADD SWAP1 POP DUP2 DUP2 SUB PUSH1 0x0 DUP4 ADD MSTORE PUSH2 0x1583 DUP2 PUSH2 0x1547 JUMP JUMPDEST SWAP1 POP SWAP2 SWAP1 POP JUMP JUMPDEST PUSH32 0x796F75206D75737420706172746963697061746520666F7220766F74696E6700 PUSH1 0x0 DUP3 ADD MSTORE POP JUMP JUMPDEST PUSH1 0x0 PUSH2 0x15C0 PUSH1 0x1F DUP4 PUSH2 0xFF9 JUMP JUMPDEST SWAP2 POP PUSH2 0x15CB DUP3 PUSH2 0x158A JUMP JUMPDEST PUSH1 0x20 DUP3 ADD SWAP1 POP SWAP2 SWAP1 POP JUMP JUMPDEST PUSH1 0x0 PUSH1 0x20 DUP3 ADD SWAP1 POP DUP2 DUP2 SUB PUSH1 0x0 DUP4 ADD MSTORE PUSH2 0x15EF DUP2 PUSH2 0x15B3 JUMP JUMPDEST SWAP1 POP SWAP2 SWAP1 POP JUMP JUMPDEST PUSH32 0x796F75206861766520616C726561647920766F74656400000000000000000000 PUSH1 0x0 DUP3 ADD MSTORE POP JUMP JUMPDEST PUSH1 0x0 PUSH2 0x162C PUSH1 0x16 DUP4 PUSH2 0xFF9 JUMP JUMPDEST SWAP2 POP PUSH2 0x1637 DUP3 PUSH2 0x15F6 JUMP JUMPDEST PUSH1 0x20 DUP3 ADD SWAP1 POP SWAP2 SWAP1 POP JUMP JUMPDEST PUSH1 0x0 PUSH1 0x20 DUP3 ADD SWAP1 POP DUP2 DUP2 SUB PUSH1 0x0 DUP4 ADD MSTORE PUSH2 0x165B DUP2 PUSH2 0x161F JUMP JUMPDEST SWAP1 POP SWAP2 SWAP1 POP JUMP JUMPDEST PUSH32 0x646561646C696E65206861732070617373656400000000000000000000000000 PUSH1 0x0 DUP3 ADD MSTORE POP JUMP JUMPDEST PUSH1 0x0 PUSH2 0x1698 PUSH1 0x13 DUP4 PUSH2 0xFF9 JUMP JUMPDEST SWAP2 POP PUSH2 0x16A3 DUP3 PUSH2 0x1662 JUMP JUMPDEST PUSH1 0x20 DUP3 ADD SWAP1 POP SWAP2 SWAP1 POP JUMP JUMPDEST PUSH1 0x0 PUSH1 0x20 DUP3 ADD SWAP1 POP DUP2 DUP2 SUB PUSH1 0x0 DUP4 ADD MSTORE PUSH2 0x16C7 DUP2 PUSH2 0x168B JUMP JUMPDEST SWAP1 POP SWAP2 SWAP1 POP JUMP JUMPDEST PUSH32 0x796F75206E65656420746F20616464206D696E696D756D20636F6E7472696275 PUSH1 0x0 DUP3 ADD MSTORE PUSH32 0x74696F6E00000000000000000000000000000000000000000000000000000000 PUSH1 0x20 DUP3 ADD MSTORE POP JUMP JUMPDEST PUSH1 0x0 PUSH2 0x172A PUSH1 0x24 DUP4 PUSH2 0xFF9 JUMP JUMPDEST SWAP2 POP PUSH2 0x1735 DUP3 PUSH2 0x16CE JUMP JUMPDEST PUSH1 0x40 DUP3 ADD SWAP1 POP SWAP2 SWAP1 POP JUMP JUMPDEST PUSH1 0x0 PUSH1 0x20 DUP3 ADD SWAP1 POP DUP2 DUP2 SUB PUSH1 0x0 DUP4 ADD MSTORE PUSH2 0x1759 DUP2 PUSH2 0x171D JUMP JUMPDEST SWAP1 POP SWAP2 SWAP1 POP JUMP JUMPDEST PUSH1 0x0 PUSH2 0x176B DUP3 PUSH2 0xCA5 JUMP JUMPDEST SWAP2 POP PUSH2 0x1776 DUP4 PUSH2 0xCA5 JUMP JUMPDEST SWAP3 POP DUP3 DUP3 ADD SWAP1 POP DUP1 DUP3 GT ISZERO PUSH2 0x178E JUMPI PUSH2 0x178D PUSH2 0x115D JUMP JUMPDEST JUMPDEST SWAP3 SWAP2 POP POP JUMP JUMPDEST PUSH32 0x616C726561647920636F6D706C65746564000000000000000000000000000000 PUSH1 0x0 DUP3 ADD MSTORE POP JUMP JUMPDEST PUSH1 0x0 PUSH2 0x17CA PUSH1 0x11 DUP4 PUSH2 0xFF9 JUMP JUMPDEST SWAP2 POP PUSH2 0x17D5 DUP3 PUSH2 0x1794 JUMP JUMPDEST PUSH1 0x20 DUP3 ADD SWAP1 POP SWAP2 SWAP1 POP JUMP JUMPDEST PUSH1 0x0 PUSH1 0x20 DUP3 ADD SWAP1 POP DUP2 DUP2 SUB PUSH1 0x0 DUP4 ADD MSTORE PUSH2 0x17F9 DUP2 PUSH2 0x17BD JUMP JUMPDEST SWAP1 POP SWAP2 SWAP1 POP JUMP JUMPDEST PUSH32 0x4E487B7100000000000000000000000000000000000000000000000000000000 PUSH1 0x0 MSTORE PUSH1 0x12 PUSH1 0x4 MSTORE PUSH1 0x24 PUSH1 0x0 REVERT JUMPDEST PUSH1 0x0 PUSH2 0x183A DUP3 PUSH2 0xCA5 JUMP JUMPDEST SWAP2 POP PUSH2 0x1845 DUP4 PUSH2 0xCA5 JUMP JUMPDEST SWAP3 POP DUP3 PUSH2 0x1855 JUMPI PUSH2 0x1854 PUSH2 0x1800 JUMP JUMPDEST JUMPDEST DUP3 DUP3 DIV SWAP1 POP SWAP3 SWAP2 POP POP JUMP JUMPDEST PUSH32 0x6D616A6F72697479206E6F74206D65657473206D6F72652074686E2035302520 PUSH1 0x0 DUP3 ADD MSTORE PUSH32 0x766F7465206E6F7420666F722074686973000000000000000000000000000000 PUSH1 0x20 DUP3 ADD MSTORE POP JUMP JUMPDEST PUSH1 0x0 PUSH2 0x18BC PUSH1 0x31 DUP4 PUSH2 0xFF9 JUMP JUMPDEST SWAP2 POP PUSH2 0x18C7 DUP3 PUSH2 0x1860 JUMP JUMPDEST PUSH1 0x40 DUP3 ADD SWAP1 POP SWAP2 SWAP1 POP JUMP JUMPDEST PUSH1 0x0 PUSH1 0x20 DUP3 ADD SWAP1 POP DUP2 DUP2 SUB PUSH1 0x0 DUP4 ADD MSTORE PUSH2 0x18EB DUP2 PUSH2 0x18AF JUMP JUMPDEST SWAP1 POP SWAP2 SWAP1 POP JUMP INVALID LOG2 PUSH5 0x6970667358 0x22 SLT KECCAK256 0xC6 DUP9 ADDMOD DUP10 0xC5 PUSH23 0x36747B9CEE33BB3BFCEE9BE77D7B3CD3622B8A64D4B09A 0xDE 0xCB DUP13 PUSH5 0x736F6C6343 STOP ADDMOD SLT STOP CALLER "
				},
				"gasEstimates": {
					"creation": {
						"codeDepositCost": "1288000",
						"executionCost": "infinite",
						"totalCost": "infinite"
					},
					"external": {
						"contributors(address)": "2860",
						"createRequests(string,address,uint256)": "infinite",
						"deadline()": "2497",
						"getcontractbalance()": "427",
						"makepayment(uint256)": "infinite",
						"manager()": "2581",
						"minimumcontribution()": "2451",
						"noofcontributors()": "2474",
						"numrequests()": "2453",
						"raisedamount()": "2452",
						"refund()": "infinite",
						"requests(uint256)": "infinite",
						"sendether()": "infinite",
						"target()": "2495",
						"voterequest(uint256)": "infinite"
					}
				},
				"methodIdentifiers": {
					"contributors(address)": "1f6d4942",
					"createRequests(string,address,uint256)": "3eb7647b",
					"deadline()": "29dcb0cf",
					"getcontractbalance()": "f28bf146",
					"makepayment(uint256)": "cbaf8671",
					"manager()": "481c6a75",
					"minimumcontribution()": "a8622ffe",
					"noofcontributors()": "83238798",
					"numrequests()": "0ae0ad71",
					"raisedamount()": "3b644d18",
					"refund()": "590e1ae3",
					"requests(uint256)": "81d12c58",
					"sendether()": "9e791d8b",
					"target()": "d4b83992",
					"voterequest(uint256)": "967c67ce"
				}
			},
			"storageLayout": {
				"storage": [
					{
						"astId": 5,
						"contract": "contracts/crowdfunding project .sol:crowdfundind",
						"label": "contributors",
						"offset": 0,
						"slot": "0",
						"type": "t_mapping(t_address,t_uint256)"
					},
					{
						"astId": 7,
						"contract": "contracts/crowdfunding project .sol:crowdfundind",
						"label": "manager",
						"offset": 0,
						"slot": "1",
						"type": "t_address"
					},
					{
						"astId": 9,
						"contract": "contracts/crowdfunding project .sol:crowdfundind",
						"label": "minimumcontribution",
						"offset": 0,
						"slot": "2",
						"type": "t_uint256"
					},
					{
						"astId": 11,
						"contract": "contracts/crowdfunding project .sol:crowdfundind",
						"label": "deadline",
						"offset": 0,
						"slot": "3",
						"type": "t_uint256"
					},
					{
						"astId": 13,
						"contract": "contracts/crowdfunding project .sol:crowdfundind",
						"label": "target",
						"offset": 0,
						"slot": "4",
						"type": "t_uint256"
					},
					{
						"astId": 15,
						"contract": "contracts/crowdfunding project .sol:crowdfundind",
						"label": "raisedamount",
						"offset": 0,
						"slot": "5",
						"type": "t_uint256"
					},
					{
						"astId": 17,
						"contract": "contracts/crowdfunding project .sol:crowdfundind",
						"label": "noofcontributors",
						"offset": 0,
						"slot": "6",
						"type": "t_uint256"
					},
					{
						"astId": 171,
						"contract": "contracts/crowdfunding project .sol:crowdfundind",
						"label": "requests",
						"offset": 0,
						"slot": "7",
						"type": "t_mapping(t_uint256,t_struct(Request)166_storage)"
					},
					{
						"astId": 173,
						"contract": "contracts/crowdfunding project .sol:crowdfundind",
						"label": "numrequests",
						"offset": 0,
						"slot": "8",
						"type": "t_uint256"
					}
				],
				"types": {
					"t_address": {
						"encoding": "inplace",
						"label": "address",
						"numberOfBytes": "20"
					},
					"t_address_payable": {
						"encoding": "inplace",
						"label": "address payable",
						"numberOfBytes": "20"
					},
					"t_bool": {
						"encoding": "inplace",
						"label": "bool",
						"numberOfBytes": "1"
					},
					"t_mapping(t_address,t_bool)": {
						"encoding": "mapping",
						"key": "t_address",
						"label": "mapping(address => bool)",
						"numberOfBytes": "32",
						"value": "t_bool"
					},
					"t_mapping(t_address,t_uint256)": {
						"encoding": "mapping",
						"key": "t_address",
						"label": "mapping(address => uint256)",
						"numberOfBytes": "32",
						"value": "t_uint256"
					},
					"t_mapping(t_uint256,t_struct(Request)166_storage)": {
						"encoding": "mapping",
						"key": "t_uint256",
						"label": "mapping(uint256 => struct crowdfundind.Request)",
						"numberOfBytes": "32",
						"value": "t_struct(Request)166_storage"
					},
					"t_string_storage": {
						"encoding": "bytes",
						"label": "string",
						"numberOfBytes": "32"
					},
					"t_struct(Request)166_storage": {
						"encoding": "inplace",
						"label": "struct crowdfundind.Request",
						"members": [
							{
								"astId": 153,
								"contract": "contracts/crowdfunding project .sol:crowdfundind",
								"label": "description",
								"offset": 0,
								"slot": "0",
								"type": "t_string_storage"
							},
							{
								"astId": 155,
								"contract": "contracts/crowdfunding project .sol:crowdfundind",
								"label": "receipient",
								"offset": 0,
								"slot": "1",
								"type": "t_address_payable"
							},
							{
								"astId": 157,
								"contract": "contracts/crowdfunding project .sol:crowdfundind",
								"label": "value",
								"offset": 0,
								"slot": "2",
								"type": "t_uint256"
							},
							{
								"astId": 159,
								"contract": "contracts/crowdfunding project .sol:crowdfundind",
								"label": "votingcompleted",
								"offset": 0,
								"slot": "3",
								"type": "t_bool"
							},
							{
								"astId": 161,
								"contract": "contracts/crowdfunding project .sol:crowdfundind",
								"label": "noofvoters",
								"offset": 0,
								"slot": "4",
								"type": "t_uint256"
							},
							{
								"astId": 165,
								"contract": "contracts/crowdfunding project .sol:crowdfundind",
								"label": "voters",
								"offset": 0,
								"slot": "5",
								"type": "t_mapping(t_address,t_bool)"
							}
						],
						"numberOfBytes": "192"
					},
					"t_uint256": {
						"encoding": "inplace",
						"label": "uint256",
						"numberOfBytes": "32"
					}
				}
			},
			"userdoc": {
				"kind": "user",
				"methods": {},
				"version": 1
			}
		}
	}
}