{
	"contracts/event.sol": {
		"Event": {
			"abi": [
				{
					"anonymous": false,
					"inputs": [
						{
							"indexed": false,
							"internalType": "address",
							"name": "account",
							"type": "address"
						},
						{
							"indexed": false,
							"internalType": "string",
							"name": "message",
							"type": "string"
						},
						{
							"indexed": false,
							"internalType": "uint256",
							"name": "value",
							"type": "uint256"
						}
					],
					"name": "balance",
					"type": "event"
				},
				{
					"inputs": [
						{
							"internalType": "uint256",
							"name": "_value",
							"type": "uint256"
						}
					],
					"name": "setdata",
					"outputs": [],
					"stateMutability": "nonpayable",
					"type": "function"
				}
			],
			"devdoc": {
				"kind": "dev",
				"methods": {},
				"version": 1
			},
			"evm": {
				"assembly": "    /* \"contracts/event.sol\":358:991  contract Event{... */\n  mstore(0x40, 0x80)\n  callvalue\n  dup1\n  iszero\n  tag_1\n  jumpi\n  0x00\n  dup1\n  revert\ntag_1:\n  pop\n  dataSize(sub_0)\n  dup1\n  dataOffset(sub_0)\n  0x00\n  codecopy\n  0x00\n  return\nstop\n\nsub_0: assembly {\n        /* \"contracts/event.sol\":358:991  contract Event{... */\n      mstore(0x40, 0x80)\n      callvalue\n      dup1\n      iszero\n      tag_1\n      jumpi\n      0x00\n      dup1\n      revert\n    tag_1:\n      pop\n      jumpi(tag_2, lt(calldatasize, 0x04))\n      shr(0xe0, calldataload(0x00))\n      dup1\n      0x30debb42\n      eq\n      tag_3\n      jumpi\n    tag_2:\n      0x00\n      dup1\n      revert\n        /* \"contracts/event.sol\":509:620  function setdata(uint _value) public {... */\n    tag_3:\n      tag_4\n      0x04\n      dup1\n      calldatasize\n      sub\n      dup2\n      add\n      swap1\n      tag_5\n      swap2\n      swap1\n      tag_6\n      jump\t// in\n    tag_5:\n      tag_7\n      jump\t// in\n    tag_4:\n      stop\n    tag_7:\n        /* \"contracts/event.sol\":562:602  balance(msg.sender, \"has value\", _value) */\n      0x3028aee09e5f7149e98b3f7f8faa7e2cc5b353de720db250726b7c64d38b5f9c\n        /* \"contracts/event.sol\":570:580  msg.sender */\n      caller\n        /* \"contracts/event.sol\":595:601  _value */\n      dup3\n        /* \"contracts/event.sol\":562:602  balance(msg.sender, \"has value\", _value) */\n      mload(0x40)\n      tag_9\n      swap3\n      swap2\n      swap1\n      tag_10\n      jump\t// in\n    tag_9:\n      mload(0x40)\n      dup1\n      swap2\n      sub\n      swap1\n      log1\n        /* \"contracts/event.sol\":509:620  function setdata(uint _value) public {... */\n      pop\n      jump\t// out\n        /* \"#utility.yul\":88:205   */\n    tag_12:\n        /* \"#utility.yul\":197:198   */\n      0x00\n        /* \"#utility.yul\":194:195   */\n      dup1\n        /* \"#utility.yul\":187:199   */\n      revert\n        /* \"#utility.yul\":334:411   */\n    tag_14:\n        /* \"#utility.yul\":371:378   */\n      0x00\n        /* \"#utility.yul\":400:405   */\n      dup2\n        /* \"#utility.yul\":389:405   */\n      swap1\n      pop\n        /* \"#utility.yul\":334:411   */\n      swap2\n      swap1\n      pop\n      jump\t// out\n        /* \"#utility.yul\":417:539   */\n    tag_15:\n        /* \"#utility.yul\":490:514   */\n      tag_30\n        /* \"#utility.yul\":508:513   */\n      dup2\n        /* \"#utility.yul\":490:514   */\n      tag_14\n      jump\t// in\n    tag_30:\n        /* \"#utility.yul\":483:488   */\n      dup2\n        /* \"#utility.yul\":480:515   */\n      eq\n        /* \"#utility.yul\":470:533   */\n      tag_31\n      jumpi\n        /* \"#utility.yul\":529:530   */\n      0x00\n        /* \"#utility.yul\":526:527   */\n      dup1\n        /* \"#utility.yul\":519:531   */\n      revert\n        /* \"#utility.yul\":470:533   */\n    tag_31:\n        /* \"#utility.yul\":417:539   */\n      pop\n      jump\t// out\n        /* \"#utility.yul\":545:684   */\n    tag_16:\n        /* \"#utility.yul\":591:596   */\n      0x00\n        /* \"#utility.yul\":629:635   */\n      dup2\n        /* \"#utility.yul\":616:636   */\n      calldataload\n        /* \"#utility.yul\":607:636   */\n      swap1\n      pop\n        /* \"#utility.yul\":645:678   */\n      tag_33\n        /* \"#utility.yul\":672:677   */\n      dup2\n        /* \"#utility.yul\":645:678   */\n      tag_15\n      jump\t// in\n    tag_33:\n        /* \"#utility.yul\":545:684   */\n      swap3\n      swap2\n      pop\n      pop\n      jump\t// out\n        /* \"#utility.yul\":690:1019   */\n    tag_6:\n        /* \"#utility.yul\":749:755   */\n      0x00\n        /* \"#utility.yul\":798:800   */\n      0x20\n        /* \"#utility.yul\":786:795   */\n      dup3\n        /* \"#utility.yul\":777:784   */\n      dup5\n        /* \"#utility.yul\":773:796   */\n      sub\n        /* \"#utility.yul\":769:801   */\n      slt\n        /* \"#utility.yul\":766:885   */\n      iszero\n      tag_35\n      jumpi\n        /* \"#utility.yul\":804:883   */\n      tag_36\n      tag_12\n      jump\t// in\n    tag_36:\n        /* \"#utility.yul\":766:885   */\n    tag_35:\n        /* \"#utility.yul\":924:925   */\n      0x00\n        /* \"#utility.yul\":949:1002   */\n      tag_37\n        /* \"#utility.yul\":994:1001   */\n      dup5\n        /* \"#utility.yul\":985:991   */\n      dup3\n        /* \"#utility.yul\":974:983   */\n      dup6\n        /* \"#utility.yul\":970:992   */\n      add\n        /* \"#utility.yul\":949:1002   */\n      tag_16\n      jump\t// in\n    tag_37:\n        /* \"#utility.yul\":939:1002   */\n      swap2\n      pop\n        /* \"#utility.yul\":895:1012   */\n      pop\n        /* \"#utility.yul\":690:1019   */\n      swap3\n      swap2\n      pop\n      pop\n      jump\t// out\n        /* \"#utility.yul\":1025:1151   */\n    tag_17:\n        /* \"#utility.yul\":1062:1069   */\n      0x00\n        /* \"#utility.yul\":1102:1144   */\n      0xffffffffffffffffffffffffffffffffffffffff\n        /* \"#utility.yul\":1095:1100   */\n      dup3\n        /* \"#utility.yul\":1091:1145   */\n      and\n        /* \"#utility.yul\":1080:1145   */\n      swap1\n      pop\n        /* \"#utility.yul\":1025:1151   */\n      swap2\n      swap1\n      pop\n      jump\t// out\n        /* \"#utility.yul\":1157:1253   */\n    tag_18:\n        /* \"#utility.yul\":1194:1201   */\n      0x00\n        /* \"#utility.yul\":1223:1247   */\n      tag_40\n        /* \"#utility.yul\":1241:1246   */\n      dup3\n        /* \"#utility.yul\":1223:1247   */\n      tag_17\n      jump\t// in\n    tag_40:\n        /* \"#utility.yul\":1212:1247   */\n      swap1\n      pop\n        /* \"#utility.yul\":1157:1253   */\n      swap2\n      swap1\n      pop\n      jump\t// out\n        /* \"#utility.yul\":1259:1377   */\n    tag_19:\n        /* \"#utility.yul\":1346:1370   */\n      tag_42\n        /* \"#utility.yul\":1364:1369   */\n      dup2\n        /* \"#utility.yul\":1346:1370   */\n      tag_18\n      jump\t// in\n    tag_42:\n        /* \"#utility.yul\":1341:1344   */\n      dup3\n        /* \"#utility.yul\":1334:1371   */\n      mstore\n        /* \"#utility.yul\":1259:1377   */\n      pop\n      pop\n      jump\t// out\n        /* \"#utility.yul\":1383:1552   */\n    tag_20:\n        /* \"#utility.yul\":1467:1478   */\n      0x00\n        /* \"#utility.yul\":1501:1507   */\n      dup3\n        /* \"#utility.yul\":1496:1499   */\n      dup3\n        /* \"#utility.yul\":1489:1508   */\n      mstore\n        /* \"#utility.yul\":1541:1545   */\n      0x20\n        /* \"#utility.yul\":1536:1539   */\n      dup3\n        /* \"#utility.yul\":1532:1546   */\n      add\n        /* \"#utility.yul\":1517:1546   */\n      swap1\n      pop\n        /* \"#utility.yul\":1383:1552   */\n      swap3\n      swap2\n      pop\n      pop\n      jump\t// out\n        /* \"#utility.yul\":1558:1717   */\n    tag_21:\n        /* \"#utility.yul\":1698:1709   */\n      0x6861732076616c75650000000000000000000000000000000000000000000000\n        /* \"#utility.yul\":1694:1695   */\n      0x00\n        /* \"#utility.yul\":1686:1692   */\n      dup3\n        /* \"#utility.yul\":1682:1696   */\n      add\n        /* \"#utility.yul\":1675:1710   */\n      mstore\n        /* \"#utility.yul\":1558:1717   */\n      pop\n      jump\t// out\n        /* \"#utility.yul\":1723:2088   */\n    tag_22:\n        /* \"#utility.yul\":1865:1868   */\n      0x00\n        /* \"#utility.yul\":1886:1952   */\n      tag_46\n        /* \"#utility.yul\":1950:1951   */\n      0x09\n        /* \"#utility.yul\":1945:1948   */\n      dup4\n        /* \"#utility.yul\":1886:1952   */\n      tag_20\n      jump\t// in\n    tag_46:\n        /* \"#utility.yul\":1879:1952   */\n      swap2\n      pop\n        /* \"#utility.yul\":1961:2054   */\n      tag_47\n        /* \"#utility.yul\":2050:2053   */\n      dup3\n        /* \"#utility.yul\":1961:2054   */\n      tag_21\n      jump\t// in\n    tag_47:\n        /* \"#utility.yul\":2079:2081   */\n      0x20\n        /* \"#utility.yul\":2074:2077   */\n      dup3\n        /* \"#utility.yul\":2070:2082   */\n      add\n        /* \"#utility.yul\":2063:2082   */\n      swap1\n      pop\n        /* \"#utility.yul\":1723:2088   */\n      swap2\n      swap1\n      pop\n      jump\t// out\n        /* \"#utility.yul\":2094:2212   */\n    tag_23:\n        /* \"#utility.yul\":2181:2205   */\n      tag_49\n        /* \"#utility.yul\":2199:2204   */\n      dup2\n        /* \"#utility.yul\":2181:2205   */\n      tag_14\n      jump\t// in\n    tag_49:\n        /* \"#utility.yul\":2176:2179   */\n      dup3\n        /* \"#utility.yul\":2169:2206   */\n      mstore\n        /* \"#utility.yul\":2094:2212   */\n      pop\n      pop\n      jump\t// out\n        /* \"#utility.yul\":2218:2857   */\n    tag_10:\n        /* \"#utility.yul\":2440:2444   */\n      0x00\n        /* \"#utility.yul\":2478:2480   */\n      0x60\n        /* \"#utility.yul\":2467:2476   */\n      dup3\n        /* \"#utility.yul\":2463:2481   */\n      add\n        /* \"#utility.yul\":2455:2481   */\n      swap1\n      pop\n        /* \"#utility.yul\":2491:2562   */\n      tag_51\n        /* \"#utility.yul\":2559:2560   */\n      0x00\n        /* \"#utility.yul\":2548:2557   */\n      dup4\n        /* \"#utility.yul\":2544:2561   */\n      add\n        /* \"#utility.yul\":2535:2541   */\n      dup6\n        /* \"#utility.yul\":2491:2562   */\n      tag_19\n      jump\t// in\n    tag_51:\n        /* \"#utility.yul\":2609:2618   */\n      dup2\n        /* \"#utility.yul\":2603:2607   */\n      dup2\n        /* \"#utility.yul\":2599:2619   */\n      sub\n        /* \"#utility.yul\":2594:2596   */\n      0x20\n        /* \"#utility.yul\":2583:2592   */\n      dup4\n        /* \"#utility.yul\":2579:2597   */\n      add\n        /* \"#utility.yul\":2572:2620   */\n      mstore\n        /* \"#utility.yul\":2637:2768   */\n      tag_52\n        /* \"#utility.yul\":2763:2767   */\n      dup2\n        /* \"#utility.yul\":2637:2768   */\n      tag_22\n      jump\t// in\n    tag_52:\n        /* \"#utility.yul\":2629:2768   */\n      swap1\n      pop\n        /* \"#utility.yul\":2778:2850   */\n      tag_53\n        /* \"#utility.yul\":2846:2848   */\n      0x40\n        /* \"#utility.yul\":2835:2844   */\n      dup4\n        /* \"#utility.yul\":2831:2849   */\n      add\n        /* \"#utility.yul\":2822:2828   */\n      dup5\n        /* \"#utility.yul\":2778:2850   */\n      tag_23\n      jump\t// in\n    tag_53:\n        /* \"#utility.yul\":2218:2857   */\n      swap4\n      swap3\n      pop\n      pop\n      pop\n      jump\t// out\n\n    auxdata: 0xa2646970667358221220a7cab9ead1cc69575a5a667efe73a0f3924fab78fefaf2f6ac237726911ee95264736f6c63430008120033\n}\n",
				"bytecode": {
					"linkReferences": {},
					"object": "608060405234801561001057600080fd5b5061020f806100206000396000f3fe608060405234801561001057600080fd5b506004361061002b5760003560e01c806330debb4214610030575b600080fd5b61004a600480360381019061004591906100c3565b61004c565b005b7f3028aee09e5f7149e98b3f7f8faa7e2cc5b353de720db250726b7c64d38b5f9c338260405161007d92919061019d565b60405180910390a150565b600080fd5b6000819050919050565b6100a08161008d565b81146100ab57600080fd5b50565b6000813590506100bd81610097565b92915050565b6000602082840312156100d9576100d8610088565b5b60006100e7848285016100ae565b91505092915050565b600073ffffffffffffffffffffffffffffffffffffffff82169050919050565b600061011b826100f0565b9050919050565b61012b81610110565b82525050565b600082825260208201905092915050565b7f6861732076616c75650000000000000000000000000000000000000000000000600082015250565b6000610178600983610131565b915061018382610142565b602082019050919050565b6101978161008d565b82525050565b60006060820190506101b26000830185610122565b81810360208301526101c38161016b565b90506101d2604083018461018e565b939250505056fea2646970667358221220a7cab9ead1cc69575a5a667efe73a0f3924fab78fefaf2f6ac237726911ee95264736f6c63430008120033",
					"opcodes": "PUSH1 0x80 PUSH1 0x40 MSTORE CALLVALUE DUP1 ISZERO PUSH2 0x10 JUMPI PUSH1 0x0 DUP1 REVERT JUMPDEST POP PUSH2 0x20F DUP1 PUSH2 0x20 PUSH1 0x0 CODECOPY PUSH1 0x0 RETURN INVALID PUSH1 0x80 PUSH1 0x40 MSTORE CALLVALUE DUP1 ISZERO PUSH2 0x10 JUMPI PUSH1 0x0 DUP1 REVERT JUMPDEST POP PUSH1 0x4 CALLDATASIZE LT PUSH2 0x2B JUMPI PUSH1 0x0 CALLDATALOAD PUSH1 0xE0 SHR DUP1 PUSH4 0x30DEBB42 EQ PUSH2 0x30 JUMPI JUMPDEST PUSH1 0x0 DUP1 REVERT JUMPDEST PUSH2 0x4A PUSH1 0x4 DUP1 CALLDATASIZE SUB DUP2 ADD SWAP1 PUSH2 0x45 SWAP2 SWAP1 PUSH2 0xC3 JUMP JUMPDEST PUSH2 0x4C JUMP JUMPDEST STOP JUMPDEST PUSH32 0x3028AEE09E5F7149E98B3F7F8FAA7E2CC5B353DE720DB250726B7C64D38B5F9C CALLER DUP3 PUSH1 0x40 MLOAD PUSH2 0x7D SWAP3 SWAP2 SWAP1 PUSH2 0x19D JUMP JUMPDEST PUSH1 0x40 MLOAD DUP1 SWAP2 SUB SWAP1 LOG1 POP JUMP JUMPDEST PUSH1 0x0 DUP1 REVERT JUMPDEST PUSH1 0x0 DUP2 SWAP1 POP SWAP2 SWAP1 POP JUMP JUMPDEST PUSH2 0xA0 DUP2 PUSH2 0x8D JUMP JUMPDEST DUP2 EQ PUSH2 0xAB JUMPI PUSH1 0x0 DUP1 REVERT JUMPDEST POP JUMP JUMPDEST PUSH1 0x0 DUP2 CALLDATALOAD SWAP1 POP PUSH2 0xBD DUP2 PUSH2 0x97 JUMP JUMPDEST SWAP3 SWAP2 POP POP JUMP JUMPDEST PUSH1 0x0 PUSH1 0x20 DUP3 DUP5 SUB SLT ISZERO PUSH2 0xD9 JUMPI PUSH2 0xD8 PUSH2 0x88 JUMP JUMPDEST JUMPDEST PUSH1 0x0 PUSH2 0xE7 DUP5 DUP3 DUP6 ADD PUSH2 0xAE JUMP JUMPDEST SWAP2 POP POP SWAP3 SWAP2 POP POP JUMP JUMPDEST PUSH1 0x0 PUSH20 0xFFFFFFFFFFFFFFFFFFFFFFFFFFFFFFFFFFFFFFFF DUP3 AND SWAP1 POP SWAP2 SWAP1 POP JUMP JUMPDEST PUSH1 0x0 PUSH2 0x11B DUP3 PUSH2 0xF0 JUMP JUMPDEST SWAP1 POP SWAP2 SWAP1 POP JUMP JUMPDEST PUSH2 0x12B DUP2 PUSH2 0x110 JUMP JUMPDEST DUP3 MSTORE POP POP JUMP JUMPDEST PUSH1 0x0 DUP3 DUP3 MSTORE PUSH1 0x20 DUP3 ADD SWAP1 POP SWAP3 SWAP2 POP POP JUMP JUMPDEST PUSH32 0x6861732076616C75650000000000000000000000000000000000000000000000 PUSH1 0x0 DUP3 ADD MSTORE POP JUMP JUMPDEST PUSH1 0x0 PUSH2 0x178 PUSH1 0x9 DUP4 PUSH2 0x131 JUMP JUMPDEST SWAP2 POP PUSH2 0x183 DUP3 PUSH2 0x142 JUMP JUMPDEST PUSH1 0x20 DUP3 ADD SWAP1 POP SWAP2 SWAP1 POP JUMP JUMPDEST PUSH2 0x197 DUP2 PUSH2 0x8D JUMP JUMPDEST DUP3 MSTORE POP POP JUMP JUMPDEST PUSH1 0x0 PUSH1 0x60 DUP3 ADD SWAP1 POP PUSH2 0x1B2 PUSH1 0x0 DUP4 ADD DUP6 PUSH2 0x122 JUMP JUMPDEST DUP2 DUP2 SUB PUSH1 0x20 DUP4 ADD MSTORE PUSH2 0x1C3 DUP2 PUSH2 0x16B JUMP JUMPDEST SWAP1 POP PUSH2 0x1D2 PUSH1 0x40 DUP4 ADD DUP5 PUSH2 0x18E JUMP JUMPDEST SWAP4 SWAP3 POP POP POP JUMP INVALID LOG2 PUSH5 0x6970667358 0x22 SLT KECCAK256 0xA7 0xCA 0xB9 0xEA 0xD1 0xCC PUSH10 0x575A5A667EFE73A0F392 0x4F 0xAB PUSH25 0xFEFAF2F6AC237726911EE95264736F6C634300081200330000 "
				},
				"gasEstimates": {
					"creation": {
						"codeDepositCost": "105400",
						"executionCost": "153",
						"totalCost": "105553"
					},
					"external": {
						"setdata(uint256)": "infinite"
					}
				},
				"methodIdentifiers": {
					"setdata(uint256)": "30debb42"
				}
			},
			"storageLayout": {
				"storage": [],
				"types": null
			},
			"userdoc": {
				"kind": "user",
				"methods": {},
				"version": 1
			}
		}
	}
}