{
	"contracts/event.sol": {
		"chatapp": {
			"abi": [
				{
					"anonymous": false,
					"inputs": [
						{
							"indexed": true,
							"internalType": "address",
							"name": "_from",
							"type": "address"
						},
						{
							"indexed": false,
							"internalType": "address",
							"name": "_to",
							"type": "address"
						},
						{
							"indexed": true,
							"internalType": "string",
							"name": "message",
							"type": "string"
						},
						{
							"indexed": false,
							"internalType": "uint256",
							"name": "value",
							"type": "uint256"
						},
						{
							"indexed": false,
							"internalType": "uint256",
							"name": "_total",
							"type": "uint256"
						}
					],
					"name": "chat",
					"type": "event"
				},
				{
					"inputs": [
						{
							"internalType": "address",
							"name": "to_",
							"type": "address"
						},
						{
							"internalType": "string",
							"name": "message_",
							"type": "string"
						}
					],
					"name": "sendMessage",
					"outputs": [],
					"stateMutability": "nonpayable",
					"type": "function"
				}
			],
			"devdoc": {
				"kind": "dev",
				"methods": {},
				"version": 1
			},
			"evm": {
				"assembly": "    /* \"contracts/event.sol\":995:1659  contract chatapp{... */\n  mstore(0x40, 0x80)\n  callvalue\n  dup1\n  iszero\n  tag_1\n  jumpi\n  0x00\n  dup1\n  revert\ntag_1:\n  pop\n  dataSize(sub_0)\n  dup1\n  dataOffset(sub_0)\n  0x00\n  codecopy\n  0x00\n  return\nstop\n\nsub_0: assembly {\n        /* \"contracts/event.sol\":995:1659  contract chatapp{... */\n      mstore(0x40, 0x80)\n      callvalue\n      dup1\n      iszero\n      tag_1\n      jumpi\n      0x00\n      dup1\n      revert\n    tag_1:\n      pop\n      jumpi(tag_2, lt(calldatasize, 0x04))\n      shr(0xe0, calldataload(0x00))\n      dup1\n      0xde6f24bb\n      eq\n      tag_3\n      jumpi\n    tag_2:\n      0x00\n      dup1\n      revert\n        /* \"contracts/event.sol\":1127:1253  function sendMessage(address to_ , string memory message_) public {... */\n    tag_3:\n      tag_4\n      0x04\n      dup1\n      calldatasize\n      sub\n      dup2\n      add\n      swap1\n      tag_5\n      swap2\n      swap1\n      tag_6\n      jump\t// in\n    tag_5:\n      tag_7\n      jump\t// in\n    tag_4:\n      stop\n    tag_7:\n        /* \"contracts/event.sol\":1231:1239  message_ */\n      dup1\n        /* \"contracts/event.sol\":1209:1245  chat(msg.sender, to_, message_ ,4,7) */\n      mload(0x40)\n      tag_9\n      swap2\n      swap1\n      tag_10\n      jump\t// in\n    tag_9:\n      mload(0x40)\n      dup1\n      swap2\n      sub\n      swap1\n      keccak256\n        /* \"contracts/event.sol\":1214:1224  msg.sender */\n      caller\n        /* \"contracts/event.sol\":1209:1245  chat(msg.sender, to_, message_ ,4,7) */\n      0xffffffffffffffffffffffffffffffffffffffff\n      and\n      0x350270bbb677c97a721c5ef176d01d2e8cb5477bceed19bd0dcc8ba6dc356de1\n        /* \"contracts/event.sol\":1226:1229  to_ */\n      dup5\n        /* \"contracts/event.sol\":1241:1242  4 */\n      0x04\n        /* \"contracts/event.sol\":1243:1244  7 */\n      0x07\n        /* \"contracts/event.sol\":1209:1245  chat(msg.sender, to_, message_ ,4,7) */\n      mload(0x40)\n      tag_11\n      swap4\n      swap3\n      swap2\n      swap1\n      tag_12\n      jump\t// in\n    tag_11:\n      mload(0x40)\n      dup1\n      swap2\n      sub\n      swap1\n      log3\n        /* \"contracts/event.sol\":1127:1253  function sendMessage(address to_ , string memory message_) public {... */\n      pop\n      pop\n      jump\t// out\n        /* \"#utility.yul\":7:82   */\n    tag_13:\n        /* \"#utility.yul\":40:46   */\n      0x00\n        /* \"#utility.yul\":73:75   */\n      0x40\n        /* \"#utility.yul\":67:76   */\n      mload\n        /* \"#utility.yul\":57:76   */\n      swap1\n      pop\n        /* \"#utility.yul\":7:82   */\n      swap1\n      jump\t// out\n        /* \"#utility.yul\":88:205   */\n    tag_14:\n        /* \"#utility.yul\":197:198   */\n      0x00\n        /* \"#utility.yul\":194:195   */\n      dup1\n        /* \"#utility.yul\":187:199   */\n      revert\n        /* \"#utility.yul\":211:328   */\n    tag_15:\n        /* \"#utility.yul\":320:321   */\n      0x00\n        /* \"#utility.yul\":317:318   */\n      dup1\n        /* \"#utility.yul\":310:322   */\n      revert\n        /* \"#utility.yul\":334:460   */\n    tag_16:\n        /* \"#utility.yul\":371:378   */\n      0x00\n        /* \"#utility.yul\":411:453   */\n      0xffffffffffffffffffffffffffffffffffffffff\n        /* \"#utility.yul\":404:409   */\n      dup3\n        /* \"#utility.yul\":400:454   */\n      and\n        /* \"#utility.yul\":389:454   */\n      swap1\n      pop\n        /* \"#utility.yul\":334:460   */\n      swap2\n      swap1\n      pop\n      jump\t// out\n        /* \"#utility.yul\":466:562   */\n    tag_17:\n        /* \"#utility.yul\":503:510   */\n      0x00\n        /* \"#utility.yul\":532:556   */\n      tag_49\n        /* \"#utility.yul\":550:555   */\n      dup3\n        /* \"#utility.yul\":532:556   */\n      tag_16\n      jump\t// in\n    tag_49:\n        /* \"#utility.yul\":521:556   */\n      swap1\n      pop\n        /* \"#utility.yul\":466:562   */\n      swap2\n      swap1\n      pop\n      jump\t// out\n        /* \"#utility.yul\":568:690   */\n    tag_18:\n        /* \"#utility.yul\":641:665   */\n      tag_51\n        /* \"#utility.yul\":659:664   */\n      dup2\n        /* \"#utility.yul\":641:665   */\n      tag_17\n      jump\t// in\n    tag_51:\n        /* \"#utility.yul\":634:639   */\n      dup2\n        /* \"#utility.yul\":631:666   */\n      eq\n        /* \"#utility.yul\":621:684   */\n      tag_52\n      jumpi\n        /* \"#utility.yul\":680:681   */\n      0x00\n        /* \"#utility.yul\":677:678   */\n      dup1\n        /* \"#utility.yul\":670:682   */\n      revert\n        /* \"#utility.yul\":621:684   */\n    tag_52:\n        /* \"#utility.yul\":568:690   */\n      pop\n      jump\t// out\n        /* \"#utility.yul\":696:835   */\n    tag_19:\n        /* \"#utility.yul\":742:747   */\n      0x00\n        /* \"#utility.yul\":780:786   */\n      dup2\n        /* \"#utility.yul\":767:787   */\n      calldataload\n        /* \"#utility.yul\":758:787   */\n      swap1\n      pop\n        /* \"#utility.yul\":796:829   */\n      tag_54\n        /* \"#utility.yul\":823:828   */\n      dup2\n        /* \"#utility.yul\":796:829   */\n      tag_18\n      jump\t// in\n    tag_54:\n        /* \"#utility.yul\":696:835   */\n      swap3\n      swap2\n      pop\n      pop\n      jump\t// out\n        /* \"#utility.yul\":841:958   */\n    tag_20:\n        /* \"#utility.yul\":950:951   */\n      0x00\n        /* \"#utility.yul\":947:948   */\n      dup1\n        /* \"#utility.yul\":940:952   */\n      revert\n        /* \"#utility.yul\":964:1081   */\n    tag_21:\n        /* \"#utility.yul\":1073:1074   */\n      0x00\n        /* \"#utility.yul\":1070:1071   */\n      dup1\n        /* \"#utility.yul\":1063:1075   */\n      revert\n        /* \"#utility.yul\":1087:1189   */\n    tag_22:\n        /* \"#utility.yul\":1128:1134   */\n      0x00\n        /* \"#utility.yul\":1179:1181   */\n      0x1f\n        /* \"#utility.yul\":1175:1182   */\n      not\n        /* \"#utility.yul\":1170:1172   */\n      0x1f\n        /* \"#utility.yul\":1163:1168   */\n      dup4\n        /* \"#utility.yul\":1159:1173   */\n      add\n        /* \"#utility.yul\":1155:1183   */\n      and\n        /* \"#utility.yul\":1145:1183   */\n      swap1\n      pop\n        /* \"#utility.yul\":1087:1189   */\n      swap2\n      swap1\n      pop\n      jump\t// out\n        /* \"#utility.yul\":1195:1375   */\n    tag_23:\n        /* \"#utility.yul\":1243:1320   */\n      0x4e487b7100000000000000000000000000000000000000000000000000000000\n        /* \"#utility.yul\":1240:1241   */\n      0x00\n        /* \"#utility.yul\":1233:1321   */\n      mstore\n        /* \"#utility.yul\":1340:1344   */\n      0x41\n        /* \"#utility.yul\":1337:1338   */\n      0x04\n        /* \"#utility.yul\":1330:1345   */\n      mstore\n        /* \"#utility.yul\":1364:1368   */\n      0x24\n        /* \"#utility.yul\":1361:1362   */\n      0x00\n        /* \"#utility.yul\":1354:1369   */\n      revert\n        /* \"#utility.yul\":1381:1662   */\n    tag_24:\n        /* \"#utility.yul\":1464:1491   */\n      tag_60\n        /* \"#utility.yul\":1486:1490   */\n      dup3\n        /* \"#utility.yul\":1464:1491   */\n      tag_22\n      jump\t// in\n    tag_60:\n        /* \"#utility.yul\":1456:1462   */\n      dup2\n        /* \"#utility.yul\":1452:1492   */\n      add\n        /* \"#utility.yul\":1594:1600   */\n      dup2\n        /* \"#utility.yul\":1582:1592   */\n      dup2\n        /* \"#utility.yul\":1579:1601   */\n      lt\n        /* \"#utility.yul\":1558:1576   */\n      0xffffffffffffffff\n        /* \"#utility.yul\":1546:1556   */\n      dup3\n        /* \"#utility.yul\":1543:1577   */\n      gt\n        /* \"#utility.yul\":1540:1602   */\n      or\n        /* \"#utility.yul\":1537:1625   */\n      iszero\n      tag_61\n      jumpi\n        /* \"#utility.yul\":1605:1623   */\n      tag_62\n      tag_23\n      jump\t// in\n    tag_62:\n        /* \"#utility.yul\":1537:1625   */\n    tag_61:\n        /* \"#utility.yul\":1645:1655   */\n      dup1\n        /* \"#utility.yul\":1641:1643   */\n      0x40\n        /* \"#utility.yul\":1634:1656   */\n      mstore\n        /* \"#utility.yul\":1424:1662   */\n      pop\n        /* \"#utility.yul\":1381:1662   */\n      pop\n      pop\n      jump\t// out\n        /* \"#utility.yul\":1668:1797   */\n    tag_25:\n        /* \"#utility.yul\":1702:1708   */\n      0x00\n        /* \"#utility.yul\":1729:1749   */\n      tag_64\n      tag_13\n      jump\t// in\n    tag_64:\n        /* \"#utility.yul\":1719:1749   */\n      swap1\n      pop\n        /* \"#utility.yul\":1758:1791   */\n      tag_65\n        /* \"#utility.yul\":1786:1790   */\n      dup3\n        /* \"#utility.yul\":1778:1784   */\n      dup3\n        /* \"#utility.yul\":1758:1791   */\n      tag_24\n      jump\t// in\n    tag_65:\n        /* \"#utility.yul\":1668:1797   */\n      swap2\n      swap1\n      pop\n      jump\t// out\n        /* \"#utility.yul\":1803:2111   */\n    tag_26:\n        /* \"#utility.yul\":1865:1869   */\n      0x00\n        /* \"#utility.yul\":1955:1973   */\n      0xffffffffffffffff\n        /* \"#utility.yul\":1947:1953   */\n      dup3\n        /* \"#utility.yul\":1944:1974   */\n      gt\n        /* \"#utility.yul\":1941:1997   */\n      iszero\n      tag_67\n      jumpi\n        /* \"#utility.yul\":1977:1995   */\n      tag_68\n      tag_23\n      jump\t// in\n    tag_68:\n        /* \"#utility.yul\":1941:1997   */\n    tag_67:\n        /* \"#utility.yul\":2015:2044   */\n      tag_69\n        /* \"#utility.yul\":2037:2043   */\n      dup3\n        /* \"#utility.yul\":2015:2044   */\n      tag_22\n      jump\t// in\n    tag_69:\n        /* \"#utility.yul\":2007:2044   */\n      swap1\n      pop\n        /* \"#utility.yul\":2099:2103   */\n      0x20\n        /* \"#utility.yul\":2093:2097   */\n      dup2\n        /* \"#utility.yul\":2089:2104   */\n      add\n        /* \"#utility.yul\":2081:2104   */\n      swap1\n      pop\n        /* \"#utility.yul\":1803:2111   */\n      swap2\n      swap1\n      pop\n      jump\t// out\n        /* \"#utility.yul\":2117:2263   */\n    tag_27:\n        /* \"#utility.yul\":2214:2220   */\n      dup3\n        /* \"#utility.yul\":2209:2212   */\n      dup2\n        /* \"#utility.yul\":2204:2207   */\n      dup4\n        /* \"#utility.yul\":2191:2221   */\n      calldatacopy\n        /* \"#utility.yul\":2255:2256   */\n      0x00\n        /* \"#utility.yul\":2246:2252   */\n      dup4\n        /* \"#utility.yul\":2241:2244   */\n      dup4\n        /* \"#utility.yul\":2237:2253   */\n      add\n        /* \"#utility.yul\":2230:2257   */\n      mstore\n        /* \"#utility.yul\":2117:2263   */\n      pop\n      pop\n      pop\n      jump\t// out\n        /* \"#utility.yul\":2269:2694   */\n    tag_28:\n        /* \"#utility.yul\":2347:2352   */\n      0x00\n        /* \"#utility.yul\":2372:2438   */\n      tag_72\n        /* \"#utility.yul\":2388:2437   */\n      tag_73\n        /* \"#utility.yul\":2430:2436   */\n      dup5\n        /* \"#utility.yul\":2388:2437   */\n      tag_26\n      jump\t// in\n    tag_73:\n        /* \"#utility.yul\":2372:2438   */\n      tag_25\n      jump\t// in\n    tag_72:\n        /* \"#utility.yul\":2363:2438   */\n      swap1\n      pop\n        /* \"#utility.yul\":2461:2467   */\n      dup3\n        /* \"#utility.yul\":2454:2459   */\n      dup2\n        /* \"#utility.yul\":2447:2468   */\n      mstore\n        /* \"#utility.yul\":2499:2503   */\n      0x20\n        /* \"#utility.yul\":2492:2497   */\n      dup2\n        /* \"#utility.yul\":2488:2504   */\n      add\n        /* \"#utility.yul\":2537:2540   */\n      dup5\n        /* \"#utility.yul\":2528:2534   */\n      dup5\n        /* \"#utility.yul\":2523:2526   */\n      dup5\n        /* \"#utility.yul\":2519:2535   */\n      add\n        /* \"#utility.yul\":2516:2541   */\n      gt\n        /* \"#utility.yul\":2513:2625   */\n      iszero\n      tag_74\n      jumpi\n        /* \"#utility.yul\":2544:2623   */\n      tag_75\n      tag_21\n      jump\t// in\n    tag_75:\n        /* \"#utility.yul\":2513:2625   */\n    tag_74:\n        /* \"#utility.yul\":2634:2688   */\n      tag_76\n        /* \"#utility.yul\":2681:2687   */\n      dup5\n        /* \"#utility.yul\":2676:2679   */\n      dup3\n        /* \"#utility.yul\":2671:2674   */\n      dup6\n        /* \"#utility.yul\":2634:2688   */\n      tag_27\n      jump\t// in\n    tag_76:\n        /* \"#utility.yul\":2353:2694   */\n      pop\n        /* \"#utility.yul\":2269:2694   */\n      swap4\n      swap3\n      pop\n      pop\n      pop\n      jump\t// out\n        /* \"#utility.yul\":2714:3054   */\n    tag_29:\n        /* \"#utility.yul\":2770:2775   */\n      0x00\n        /* \"#utility.yul\":2819:2822   */\n      dup3\n        /* \"#utility.yul\":2812:2816   */\n      0x1f\n        /* \"#utility.yul\":2804:2810   */\n      dup4\n        /* \"#utility.yul\":2800:2817   */\n      add\n        /* \"#utility.yul\":2796:2823   */\n      slt\n        /* \"#utility.yul\":2786:2908   */\n      tag_78\n      jumpi\n        /* \"#utility.yul\":2827:2906   */\n      tag_79\n      tag_20\n      jump\t// in\n    tag_79:\n        /* \"#utility.yul\":2786:2908   */\n    tag_78:\n        /* \"#utility.yul\":2944:2950   */\n      dup2\n        /* \"#utility.yul\":2931:2951   */\n      calldataload\n        /* \"#utility.yul\":2969:3048   */\n      tag_80\n        /* \"#utility.yul\":3044:3047   */\n      dup5\n        /* \"#utility.yul\":3036:3042   */\n      dup3\n        /* \"#utility.yul\":3029:3033   */\n      0x20\n        /* \"#utility.yul\":3021:3027   */\n      dup7\n        /* \"#utility.yul\":3017:3034   */\n      add\n        /* \"#utility.yul\":2969:3048   */\n      tag_28\n      jump\t// in\n    tag_80:\n        /* \"#utility.yul\":2960:3048   */\n      swap2\n      pop\n        /* \"#utility.yul\":2776:3054   */\n      pop\n        /* \"#utility.yul\":2714:3054   */\n      swap3\n      swap2\n      pop\n      pop\n      jump\t// out\n        /* \"#utility.yul\":3060:3714   */\n    tag_6:\n        /* \"#utility.yul\":3138:3144   */\n      0x00\n        /* \"#utility.yul\":3146:3152   */\n      dup1\n        /* \"#utility.yul\":3195:3197   */\n      0x40\n        /* \"#utility.yul\":3183:3192   */\n      dup4\n        /* \"#utility.yul\":3174:3181   */\n      dup6\n        /* \"#utility.yul\":3170:3193   */\n      sub\n        /* \"#utility.yul\":3166:3198   */\n      slt\n        /* \"#utility.yul\":3163:3282   */\n      iszero\n      tag_82\n      jumpi\n        /* \"#utility.yul\":3201:3280   */\n      tag_83\n      tag_14\n      jump\t// in\n    tag_83:\n        /* \"#utility.yul\":3163:3282   */\n    tag_82:\n        /* \"#utility.yul\":3321:3322   */\n      0x00\n        /* \"#utility.yul\":3346:3399   */\n      tag_84\n        /* \"#utility.yul\":3391:3398   */\n      dup6\n        /* \"#utility.yul\":3382:3388   */\n      dup3\n        /* \"#utility.yul\":3371:3380   */\n      dup7\n        /* \"#utility.yul\":3367:3389   */\n      add\n        /* \"#utility.yul\":3346:3399   */\n      tag_19\n      jump\t// in\n    tag_84:\n        /* \"#utility.yul\":3336:3399   */\n      swap3\n      pop\n        /* \"#utility.yul\":3292:3409   */\n      pop\n        /* \"#utility.yul\":3476:3478   */\n      0x20\n        /* \"#utility.yul\":3465:3474   */\n      dup4\n        /* \"#utility.yul\":3461:3479   */\n      add\n        /* \"#utility.yul\":3448:3480   */\n      calldataload\n        /* \"#utility.yul\":3507:3525   */\n      0xffffffffffffffff\n        /* \"#utility.yul\":3499:3505   */\n      dup2\n        /* \"#utility.yul\":3496:3526   */\n      gt\n        /* \"#utility.yul\":3493:3610   */\n      iszero\n      tag_85\n      jumpi\n        /* \"#utility.yul\":3529:3608   */\n      tag_86\n      tag_15\n      jump\t// in\n    tag_86:\n        /* \"#utility.yul\":3493:3610   */\n    tag_85:\n        /* \"#utility.yul\":3634:3697   */\n      tag_87\n        /* \"#utility.yul\":3689:3696   */\n      dup6\n        /* \"#utility.yul\":3680:3686   */\n      dup3\n        /* \"#utility.yul\":3669:3678   */\n      dup7\n        /* \"#utility.yul\":3665:3687   */\n      add\n        /* \"#utility.yul\":3634:3697   */\n      tag_29\n      jump\t// in\n    tag_87:\n        /* \"#utility.yul\":3624:3697   */\n      swap2\n      pop\n        /* \"#utility.yul\":3419:3707   */\n      pop\n        /* \"#utility.yul\":3060:3714   */\n      swap3\n      pop\n      swap3\n      swap1\n      pop\n      jump\t// out\n        /* \"#utility.yul\":3720:3819   */\n    tag_30:\n        /* \"#utility.yul\":3772:3778   */\n      0x00\n        /* \"#utility.yul\":3806:3811   */\n      dup2\n        /* \"#utility.yul\":3800:3812   */\n      mload\n        /* \"#utility.yul\":3790:3812   */\n      swap1\n      pop\n        /* \"#utility.yul\":3720:3819   */\n      swap2\n      swap1\n      pop\n      jump\t// out\n        /* \"#utility.yul\":3825:3973   */\n    tag_31:\n        /* \"#utility.yul\":3927:3938   */\n      0x00\n        /* \"#utility.yul\":3964:3967   */\n      dup2\n        /* \"#utility.yul\":3949:3967   */\n      swap1\n      pop\n        /* \"#utility.yul\":3825:3973   */\n      swap3\n      swap2\n      pop\n      pop\n      jump\t// out\n        /* \"#utility.yul\":3979:4225   */\n    tag_32:\n        /* \"#utility.yul\":4060:4061   */\n      0x00\n        /* \"#utility.yul\":4070:4183   */\n    tag_91:\n        /* \"#utility.yul\":4084:4090   */\n      dup4\n        /* \"#utility.yul\":4081:4082   */\n      dup2\n        /* \"#utility.yul\":4078:4091   */\n      lt\n        /* \"#utility.yul\":4070:4183   */\n      iszero\n      tag_93\n      jumpi\n        /* \"#utility.yul\":4169:4170   */\n      dup1\n        /* \"#utility.yul\":4164:4167   */\n      dup3\n        /* \"#utility.yul\":4160:4171   */\n      add\n        /* \"#utility.yul\":4154:4172   */\n      mload\n        /* \"#utility.yul\":4150:4151   */\n      dup2\n        /* \"#utility.yul\":4145:4148   */\n      dup5\n        /* \"#utility.yul\":4141:4152   */\n      add\n        /* \"#utility.yul\":4134:4173   */\n      mstore\n        /* \"#utility.yul\":4106:4108   */\n      0x20\n        /* \"#utility.yul\":4103:4104   */\n      dup2\n        /* \"#utility.yul\":4099:4109   */\n      add\n        /* \"#utility.yul\":4094:4109   */\n      swap1\n      pop\n        /* \"#utility.yul\":4070:4183   */\n      jump(tag_91)\n    tag_93:\n        /* \"#utility.yul\":4217:4218   */\n      0x00\n        /* \"#utility.yul\":4208:4214   */\n      dup5\n        /* \"#utility.yul\":4203:4206   */\n      dup5\n        /* \"#utility.yul\":4199:4215   */\n      add\n        /* \"#utility.yul\":4192:4219   */\n      mstore\n        /* \"#utility.yul\":4041:4225   */\n      pop\n        /* \"#utility.yul\":3979:4225   */\n      pop\n      pop\n      pop\n      jump\t// out\n        /* \"#utility.yul\":4231:4621   */\n    tag_33:\n        /* \"#utility.yul\":4337:4340   */\n      0x00\n        /* \"#utility.yul\":4365:4404   */\n      tag_95\n        /* \"#utility.yul\":4398:4403   */\n      dup3\n        /* \"#utility.yul\":4365:4404   */\n      tag_30\n      jump\t// in\n    tag_95:\n        /* \"#utility.yul\":4420:4509   */\n      tag_96\n        /* \"#utility.yul\":4502:4508   */\n      dup2\n        /* \"#utility.yul\":4497:4500   */\n      dup6\n        /* \"#utility.yul\":4420:4509   */\n      tag_31\n      jump\t// in\n    tag_96:\n        /* \"#utility.yul\":4413:4509   */\n      swap4\n      pop\n        /* \"#utility.yul\":4518:4583   */\n      tag_97\n        /* \"#utility.yul\":4576:4582   */\n      dup2\n        /* \"#utility.yul\":4571:4574   */\n      dup6\n        /* \"#utility.yul\":4564:4568   */\n      0x20\n        /* \"#utility.yul\":4557:4562   */\n      dup7\n        /* \"#utility.yul\":4553:4569   */\n      add\n        /* \"#utility.yul\":4518:4583   */\n      tag_32\n      jump\t// in\n    tag_97:\n        /* \"#utility.yul\":4608:4614   */\n      dup1\n        /* \"#utility.yul\":4603:4606   */\n      dup5\n        /* \"#utility.yul\":4599:4615   */\n      add\n        /* \"#utility.yul\":4592:4615   */\n      swap2\n      pop\n        /* \"#utility.yul\":4341:4621   */\n      pop\n        /* \"#utility.yul\":4231:4621   */\n      swap3\n      swap2\n      pop\n      pop\n      jump\t// out\n        /* \"#utility.yul\":4627:4902   */\n    tag_10:\n        /* \"#utility.yul\":4759:4762   */\n      0x00\n        /* \"#utility.yul\":4781:4876   */\n      tag_99\n        /* \"#utility.yul\":4872:4875   */\n      dup3\n        /* \"#utility.yul\":4863:4869   */\n      dup5\n        /* \"#utility.yul\":4781:4876   */\n      tag_33\n      jump\t// in\n    tag_99:\n        /* \"#utility.yul\":4774:4876   */\n      swap2\n      pop\n        /* \"#utility.yul\":4893:4896   */\n      dup2\n        /* \"#utility.yul\":4886:4896   */\n      swap1\n      pop\n        /* \"#utility.yul\":4627:4902   */\n      swap3\n      swap2\n      pop\n      pop\n      jump\t// out\n        /* \"#utility.yul\":4908:5026   */\n    tag_34:\n        /* \"#utility.yul\":4995:5019   */\n      tag_101\n        /* \"#utility.yul\":5013:5018   */\n      dup2\n        /* \"#utility.yul\":4995:5019   */\n      tag_17\n      jump\t// in\n    tag_101:\n        /* \"#utility.yul\":4990:4993   */\n      dup3\n        /* \"#utility.yul\":4983:5020   */\n      mstore\n        /* \"#utility.yul\":4908:5026   */\n      pop\n      pop\n      jump\t// out\n        /* \"#utility.yul\":5032:5117   */\n    tag_35:\n        /* \"#utility.yul\":5077:5084   */\n      0x00\n        /* \"#utility.yul\":5106:5111   */\n      dup2\n        /* \"#utility.yul\":5095:5111   */\n      swap1\n      pop\n        /* \"#utility.yul\":5032:5117   */\n      swap2\n      swap1\n      pop\n      jump\t// out\n        /* \"#utility.yul\":5123:5200   */\n    tag_36:\n        /* \"#utility.yul\":5160:5167   */\n      0x00\n        /* \"#utility.yul\":5189:5194   */\n      dup2\n        /* \"#utility.yul\":5178:5194   */\n      swap1\n      pop\n        /* \"#utility.yul\":5123:5200   */\n      swap2\n      swap1\n      pop\n      jump\t// out\n        /* \"#utility.yul\":5206:5266   */\n    tag_37:\n        /* \"#utility.yul\":5234:5237   */\n      0x00\n        /* \"#utility.yul\":5255:5260   */\n      dup2\n        /* \"#utility.yul\":5248:5260   */\n      swap1\n      pop\n        /* \"#utility.yul\":5206:5266   */\n      swap2\n      swap1\n      pop\n      jump\t// out\n        /* \"#utility.yul\":5272:5430   */\n    tag_38:\n        /* \"#utility.yul\":5330:5339   */\n      0x00\n        /* \"#utility.yul\":5363:5424   */\n      tag_106\n        /* \"#utility.yul\":5381:5423   */\n      tag_107\n        /* \"#utility.yul\":5390:5422   */\n      tag_108\n        /* \"#utility.yul\":5416:5421   */\n      dup5\n        /* \"#utility.yul\":5390:5422   */\n      tag_35\n      jump\t// in\n    tag_108:\n        /* \"#utility.yul\":5381:5423   */\n      tag_37\n      jump\t// in\n    tag_107:\n        /* \"#utility.yul\":5363:5424   */\n      tag_36\n      jump\t// in\n    tag_106:\n        /* \"#utility.yul\":5350:5424   */\n      swap1\n      pop\n        /* \"#utility.yul\":5272:5430   */\n      swap2\n      swap1\n      pop\n      jump\t// out\n        /* \"#utility.yul\":5436:5583   */\n    tag_39:\n        /* \"#utility.yul\":5531:5576   */\n      tag_110\n        /* \"#utility.yul\":5570:5575   */\n      dup2\n        /* \"#utility.yul\":5531:5576   */\n      tag_38\n      jump\t// in\n    tag_110:\n        /* \"#utility.yul\":5526:5529   */\n      dup3\n        /* \"#utility.yul\":5519:5577   */\n      mstore\n        /* \"#utility.yul\":5436:5583   */\n      pop\n      pop\n      jump\t// out\n        /* \"#utility.yul\":5589:5674   */\n    tag_40:\n        /* \"#utility.yul\":5634:5641   */\n      0x00\n        /* \"#utility.yul\":5663:5668   */\n      dup2\n        /* \"#utility.yul\":5652:5668   */\n      swap1\n      pop\n        /* \"#utility.yul\":5589:5674   */\n      swap2\n      swap1\n      pop\n      jump\t// out\n        /* \"#utility.yul\":5680:5838   */\n    tag_41:\n        /* \"#utility.yul\":5738:5747   */\n      0x00\n        /* \"#utility.yul\":5771:5832   */\n      tag_113\n        /* \"#utility.yul\":5789:5831   */\n      tag_114\n        /* \"#utility.yul\":5798:5830   */\n      tag_115\n        /* \"#utility.yul\":5824:5829   */\n      dup5\n        /* \"#utility.yul\":5798:5830   */\n      tag_40\n      jump\t// in\n    tag_115:\n        /* \"#utility.yul\":5789:5831   */\n      tag_37\n      jump\t// in\n    tag_114:\n        /* \"#utility.yul\":5771:5832   */\n      tag_36\n      jump\t// in\n    tag_113:\n        /* \"#utility.yul\":5758:5832   */\n      swap1\n      pop\n        /* \"#utility.yul\":5680:5838   */\n      swap2\n      swap1\n      pop\n      jump\t// out\n        /* \"#utility.yul\":5844:5991   */\n    tag_42:\n        /* \"#utility.yul\":5939:5984   */\n      tag_117\n        /* \"#utility.yul\":5978:5983   */\n      dup2\n        /* \"#utility.yul\":5939:5984   */\n      tag_41\n      jump\t// in\n    tag_117:\n        /* \"#utility.yul\":5934:5937   */\n      dup3\n        /* \"#utility.yul\":5927:5985   */\n      mstore\n        /* \"#utility.yul\":5844:5991   */\n      pop\n      pop\n      jump\t// out\n        /* \"#utility.yul\":5997:6471   */\n    tag_12:\n        /* \"#utility.yul\":6162:6166   */\n      0x00\n        /* \"#utility.yul\":6200:6202   */\n      0x60\n        /* \"#utility.yul\":6189:6198   */\n      dup3\n        /* \"#utility.yul\":6185:6203   */\n      add\n        /* \"#utility.yul\":6177:6203   */\n      swap1\n      pop\n        /* \"#utility.yul\":6213:6284   */\n      tag_119\n        /* \"#utility.yul\":6281:6282   */\n      0x00\n        /* \"#utility.yul\":6270:6279   */\n      dup4\n        /* \"#utility.yul\":6266:6283   */\n      add\n        /* \"#utility.yul\":6257:6263   */\n      dup7\n        /* \"#utility.yul\":6213:6284   */\n      tag_34\n      jump\t// in\n    tag_119:\n        /* \"#utility.yul\":6294:6374   */\n      tag_120\n        /* \"#utility.yul\":6370:6372   */\n      0x20\n        /* \"#utility.yul\":6359:6368   */\n      dup4\n        /* \"#utility.yul\":6355:6373   */\n      add\n        /* \"#utility.yul\":6346:6352   */\n      dup6\n        /* \"#utility.yul\":6294:6374   */\n      tag_39\n      jump\t// in\n    tag_120:\n        /* \"#utility.yul\":6384:6464   */\n      tag_121\n        /* \"#utility.yul\":6460:6462   */\n      0x40\n        /* \"#utility.yul\":6449:6458   */\n      dup4\n        /* \"#utility.yul\":6445:6463   */\n      add\n        /* \"#utility.yul\":6436:6442   */\n      dup5\n        /* \"#utility.yul\":6384:6464   */\n      tag_42\n      jump\t// in\n    tag_121:\n        /* \"#utility.yul\":5997:6471   */\n      swap5\n      swap4\n      pop\n      pop\n      pop\n      pop\n      jump\t// out\n\n    auxdata: 0xa264697066735822122017848f44fec7e0baf025b427c90005083ce4eac414325fd942cde10a25c6095964736f6c63430008120033\n}\n",
				"bytecode": {
					"linkReferences": {},
					"object": "608060405234801561001057600080fd5b5061045c806100206000396000f3fe608060405234801561001057600080fd5b506004361061002b5760003560e01c8063de6f24bb14610030575b600080fd5b61004a60048036038101906100459190610272565b61004c565b005b8060405161005a919061033f565b60405180910390203373ffffffffffffffffffffffffffffffffffffffff167f350270bbb677c97a721c5ef176d01d2e8cb5477bceed19bd0dcc8ba6dc356de184600460076040516100ae939291906103ef565b60405180910390a35050565b6000604051905090565b600080fd5b600080fd5b600073ffffffffffffffffffffffffffffffffffffffff82169050919050565b60006100f9826100ce565b9050919050565b610109816100ee565b811461011457600080fd5b50565b60008135905061012681610100565b92915050565b600080fd5b600080fd5b6000601f19601f8301169050919050565b7f4e487b7100000000000000000000000000000000000000000000000000000000600052604160045260246000fd5b61017f82610136565b810181811067ffffffffffffffff8211171561019e5761019d610147565b5b80604052505050565b60006101b16100ba565b90506101bd8282610176565b919050565b600067ffffffffffffffff8211156101dd576101dc610147565b5b6101e682610136565b9050602081019050919050565b82818337600083830152505050565b6000610215610210846101c2565b6101a7565b90508281526020810184848401111561023157610230610131565b5b61023c8482856101f3565b509392505050565b600082601f8301126102595761025861012c565b5b8135610269848260208601610202565b91505092915050565b60008060408385031215610289576102886100c4565b5b600061029785828601610117565b925050602083013567ffffffffffffffff8111156102b8576102b76100c9565b5b6102c485828601610244565b9150509250929050565b600081519050919050565b600081905092915050565b60005b838110156103025780820151818401526020810190506102e7565b60008484015250505050565b6000610319826102ce565b61032381856102d9565b93506103338185602086016102e4565b80840191505092915050565b600061034b828461030e565b915081905092915050565b61035f816100ee565b82525050565b6000819050919050565b6000819050919050565b6000819050919050565b600061039e61039961039484610365565b610379565b61036f565b9050919050565b6103ae81610383565b82525050565b6000819050919050565b60006103d96103d46103cf846103b4565b610379565b61036f565b9050919050565b6103e9816103be565b82525050565b60006060820190506104046000830186610356565b61041160208301856103a5565b61041e60408301846103e0565b94935050505056fea264697066735822122017848f44fec7e0baf025b427c90005083ce4eac414325fd942cde10a25c6095964736f6c63430008120033",
					"opcodes": "PUSH1 0x80 PUSH1 0x40 MSTORE CALLVALUE DUP1 ISZERO PUSH2 0x10 JUMPI PUSH1 0x0 DUP1 REVERT JUMPDEST POP PUSH2 0x45C DUP1 PUSH2 0x20 PUSH1 0x0 CODECOPY PUSH1 0x0 RETURN INVALID PUSH1 0x80 PUSH1 0x40 MSTORE CALLVALUE DUP1 ISZERO PUSH2 0x10 JUMPI PUSH1 0x0 DUP1 REVERT JUMPDEST POP PUSH1 0x4 CALLDATASIZE LT PUSH2 0x2B JUMPI PUSH1 0x0 CALLDATALOAD PUSH1 0xE0 SHR DUP1 PUSH4 0xDE6F24BB EQ PUSH2 0x30 JUMPI JUMPDEST PUSH1 0x0 DUP1 REVERT JUMPDEST PUSH2 0x4A PUSH1 0x4 DUP1 CALLDATASIZE SUB DUP2 ADD SWAP1 PUSH2 0x45 SWAP2 SWAP1 PUSH2 0x272 JUMP JUMPDEST PUSH2 0x4C JUMP JUMPDEST STOP JUMPDEST DUP1 PUSH1 0x40 MLOAD PUSH2 0x5A SWAP2 SWAP1 PUSH2 0x33F JUMP JUMPDEST PUSH1 0x40 MLOAD DUP1 SWAP2 SUB SWAP1 KECCAK256 CALLER PUSH20 0xFFFFFFFFFFFFFFFFFFFFFFFFFFFFFFFFFFFFFFFF AND PUSH32 0x350270BBB677C97A721C5EF176D01D2E8CB5477BCEED19BD0DCC8BA6DC356DE1 DUP5 PUSH1 0x4 PUSH1 0x7 PUSH1 0x40 MLOAD PUSH2 0xAE SWAP4 SWAP3 SWAP2 SWAP1 PUSH2 0x3EF JUMP JUMPDEST PUSH1 0x40 MLOAD DUP1 SWAP2 SUB SWAP1 LOG3 POP POP JUMP JUMPDEST PUSH1 0x0 PUSH1 0x40 MLOAD SWAP1 POP SWAP1 JUMP JUMPDEST PUSH1 0x0 DUP1 REVERT JUMPDEST PUSH1 0x0 DUP1 REVERT JUMPDEST PUSH1 0x0 PUSH20 0xFFFFFFFFFFFFFFFFFFFFFFFFFFFFFFFFFFFFFFFF DUP3 AND SWAP1 POP SWAP2 SWAP1 POP JUMP JUMPDEST PUSH1 0x0 PUSH2 0xF9 DUP3 PUSH2 0xCE JUMP JUMPDEST SWAP1 POP SWAP2 SWAP1 POP JUMP JUMPDEST PUSH2 0x109 DUP2 PUSH2 0xEE JUMP JUMPDEST DUP2 EQ PUSH2 0x114 JUMPI PUSH1 0x0 DUP1 REVERT JUMPDEST POP JUMP JUMPDEST PUSH1 0x0 DUP2 CALLDATALOAD SWAP1 POP PUSH2 0x126 DUP2 PUSH2 0x100 JUMP JUMPDEST SWAP3 SWAP2 POP POP JUMP JUMPDEST PUSH1 0x0 DUP1 REVERT JUMPDEST PUSH1 0x0 DUP1 REVERT JUMPDEST PUSH1 0x0 PUSH1 0x1F NOT PUSH1 0x1F DUP4 ADD AND SWAP1 POP SWAP2 SWAP1 POP JUMP JUMPDEST PUSH32 0x4E487B7100000000000000000000000000000000000000000000000000000000 PUSH1 0x0 MSTORE PUSH1 0x41 PUSH1 0x4 MSTORE PUSH1 0x24 PUSH1 0x0 REVERT JUMPDEST PUSH2 0x17F DUP3 PUSH2 0x136 JUMP JUMPDEST DUP2 ADD DUP2 DUP2 LT PUSH8 0xFFFFFFFFFFFFFFFF DUP3 GT OR ISZERO PUSH2 0x19E JUMPI PUSH2 0x19D PUSH2 0x147 JUMP JUMPDEST JUMPDEST DUP1 PUSH1 0x40 MSTORE POP POP POP JUMP JUMPDEST PUSH1 0x0 PUSH2 0x1B1 PUSH2 0xBA JUMP JUMPDEST SWAP1 POP PUSH2 0x1BD DUP3 DUP3 PUSH2 0x176 JUMP JUMPDEST SWAP2 SWAP1 POP JUMP JUMPDEST PUSH1 0x0 PUSH8 0xFFFFFFFFFFFFFFFF DUP3 GT ISZERO PUSH2 0x1DD JUMPI PUSH2 0x1DC PUSH2 0x147 JUMP JUMPDEST JUMPDEST PUSH2 0x1E6 DUP3 PUSH2 0x136 JUMP JUMPDEST SWAP1 POP PUSH1 0x20 DUP2 ADD SWAP1 POP SWAP2 SWAP1 POP JUMP JUMPDEST DUP3 DUP2 DUP4 CALLDATACOPY PUSH1 0x0 DUP4 DUP4 ADD MSTORE POP POP POP JUMP JUMPDEST PUSH1 0x0 PUSH2 0x215 PUSH2 0x210 DUP5 PUSH2 0x1C2 JUMP JUMPDEST PUSH2 0x1A7 JUMP JUMPDEST SWAP1 POP DUP3 DUP2 MSTORE PUSH1 0x20 DUP2 ADD DUP5 DUP5 DUP5 ADD GT ISZERO PUSH2 0x231 JUMPI PUSH2 0x230 PUSH2 0x131 JUMP JUMPDEST JUMPDEST PUSH2 0x23C DUP5 DUP3 DUP6 PUSH2 0x1F3 JUMP JUMPDEST POP SWAP4 SWAP3 POP POP POP JUMP JUMPDEST PUSH1 0x0 DUP3 PUSH1 0x1F DUP4 ADD SLT PUSH2 0x259 JUMPI PUSH2 0x258 PUSH2 0x12C JUMP JUMPDEST JUMPDEST DUP2 CALLDATALOAD PUSH2 0x269 DUP5 DUP3 PUSH1 0x20 DUP7 ADD PUSH2 0x202 JUMP JUMPDEST SWAP2 POP POP SWAP3 SWAP2 POP POP JUMP JUMPDEST PUSH1 0x0 DUP1 PUSH1 0x40 DUP4 DUP6 SUB SLT ISZERO PUSH2 0x289 JUMPI PUSH2 0x288 PUSH2 0xC4 JUMP JUMPDEST JUMPDEST PUSH1 0x0 PUSH2 0x297 DUP6 DUP3 DUP7 ADD PUSH2 0x117 JUMP JUMPDEST SWAP3 POP POP PUSH1 0x20 DUP4 ADD CALLDATALOAD PUSH8 0xFFFFFFFFFFFFFFFF DUP2 GT ISZERO PUSH2 0x2B8 JUMPI PUSH2 0x2B7 PUSH2 0xC9 JUMP JUMPDEST JUMPDEST PUSH2 0x2C4 DUP6 DUP3 DUP7 ADD PUSH2 0x244 JUMP JUMPDEST SWAP2 POP POP SWAP3 POP SWAP3 SWAP1 POP JUMP JUMPDEST PUSH1 0x0 DUP2 MLOAD SWAP1 POP SWAP2 SWAP1 POP JUMP JUMPDEST PUSH1 0x0 DUP2 SWAP1 POP SWAP3 SWAP2 POP POP JUMP JUMPDEST PUSH1 0x0 JUMPDEST DUP4 DUP2 LT ISZERO PUSH2 0x302 JUMPI DUP1 DUP3 ADD MLOAD DUP2 DUP5 ADD MSTORE PUSH1 0x20 DUP2 ADD SWAP1 POP PUSH2 0x2E7 JUMP JUMPDEST PUSH1 0x0 DUP5 DUP5 ADD MSTORE POP POP POP POP JUMP JUMPDEST PUSH1 0x0 PUSH2 0x319 DUP3 PUSH2 0x2CE JUMP JUMPDEST PUSH2 0x323 DUP2 DUP6 PUSH2 0x2D9 JUMP JUMPDEST SWAP4 POP PUSH2 0x333 DUP2 DUP6 PUSH1 0x20 DUP7 ADD PUSH2 0x2E4 JUMP JUMPDEST DUP1 DUP5 ADD SWAP2 POP POP SWAP3 SWAP2 POP POP JUMP JUMPDEST PUSH1 0x0 PUSH2 0x34B DUP3 DUP5 PUSH2 0x30E JUMP JUMPDEST SWAP2 POP DUP2 SWAP1 POP SWAP3 SWAP2 POP POP JUMP JUMPDEST PUSH2 0x35F DUP2 PUSH2 0xEE JUMP JUMPDEST DUP3 MSTORE POP POP JUMP JUMPDEST PUSH1 0x0 DUP2 SWAP1 POP SWAP2 SWAP1 POP JUMP JUMPDEST PUSH1 0x0 DUP2 SWAP1 POP SWAP2 SWAP1 POP JUMP JUMPDEST PUSH1 0x0 DUP2 SWAP1 POP SWAP2 SWAP1 POP JUMP JUMPDEST PUSH1 0x0 PUSH2 0x39E PUSH2 0x399 PUSH2 0x394 DUP5 PUSH2 0x365 JUMP JUMPDEST PUSH2 0x379 JUMP JUMPDEST PUSH2 0x36F JUMP JUMPDEST SWAP1 POP SWAP2 SWAP1 POP JUMP JUMPDEST PUSH2 0x3AE DUP2 PUSH2 0x383 JUMP JUMPDEST DUP3 MSTORE POP POP JUMP JUMPDEST PUSH1 0x0 DUP2 SWAP1 POP SWAP2 SWAP1 POP JUMP JUMPDEST PUSH1 0x0 PUSH2 0x3D9 PUSH2 0x3D4 PUSH2 0x3CF DUP5 PUSH2 0x3B4 JUMP JUMPDEST PUSH2 0x379 JUMP JUMPDEST PUSH2 0x36F JUMP JUMPDEST SWAP1 POP SWAP2 SWAP1 POP JUMP JUMPDEST PUSH2 0x3E9 DUP2 PUSH2 0x3BE JUMP JUMPDEST DUP3 MSTORE POP POP JUMP JUMPDEST PUSH1 0x0 PUSH1 0x60 DUP3 ADD SWAP1 POP PUSH2 0x404 PUSH1 0x0 DUP4 ADD DUP7 PUSH2 0x356 JUMP JUMPDEST PUSH2 0x411 PUSH1 0x20 DUP4 ADD DUP6 PUSH2 0x3A5 JUMP JUMPDEST PUSH2 0x41E PUSH1 0x40 DUP4 ADD DUP5 PUSH2 0x3E0 JUMP JUMPDEST SWAP5 SWAP4 POP POP POP POP JUMP INVALID LOG2 PUSH5 0x6970667358 0x22 SLT KECCAK256 OR DUP5 DUP16 PREVRANDAO INVALID 0xC7 0xE0 0xBA CREATE 0x25 0xB4 0x27 0xC9 STOP SDIV ADDMOD EXTCODECOPY 0xE4 0xEA 0xC4 EQ ORIGIN 0x5F 0xD9 TIMESTAMP 0xCD 0xE1 EXP 0x25 0xC6 MULMOD MSIZE PUSH5 0x736F6C6343 STOP ADDMOD SLT STOP CALLER "
				},
				"gasEstimates": {
					"creation": {
						"codeDepositCost": "223200",
						"executionCost": "263",
						"totalCost": "223463"
					},
					"external": {
						"sendMessage(address,string)": "infinite"
					}
				},
				"methodIdentifiers": {
					"sendMessage(address,string)": "de6f24bb"
				}
			},
			"storageLayout": {
				"storage": [],
				"types": null
			},
			"userdoc": {
				"kind": "user",
				"methods": {},
				"version": 1
			}
		}
	}
}