{
	"contracts/event.sol": {
		"secondevent": {
			"abi": [
				{
					"anonymous": false,
					"inputs": [
						{
							"indexed": false,
							"internalType": "address",
							"name": "_sender",
							"type": "address"
						},
						{
							"indexed": false,
							"internalType": "string",
							"name": "message",
							"type": "string"
						}
					],
					"name": "event2",
					"type": "event"
				},
				{
					"anonymous": false,
					"inputs": [],
					"name": "event3",
					"type": "event"
				},
				{
					"inputs": [],
					"name": "testevent",
					"outputs": [],
					"stateMutability": "nonpayable",
					"type": "function"
				}
			],
			"devdoc": {
				"kind": "dev",
				"methods": {},
				"version": 1
			},
			"evm": {
				"assembly": "    /* \"contracts/event.sol\":1663:1962  contract secondevent{... */\n  mstore(0x40, 0x80)\n  callvalue\n  dup1\n  iszero\n  tag_1\n  jumpi\n  0x00\n  dup1\n  revert\ntag_1:\n  pop\n  dataSize(sub_0)\n  dup1\n  dataOffset(sub_0)\n  0x00\n  codecopy\n  0x00\n  return\nstop\n\nsub_0: assembly {\n        /* \"contracts/event.sol\":1663:1962  contract secondevent{... */\n      mstore(0x40, 0x80)\n      callvalue\n      dup1\n      iszero\n      tag_1\n      jumpi\n      0x00\n      dup1\n      revert\n    tag_1:\n      pop\n      jumpi(tag_2, lt(calldatasize, 0x04))\n      shr(0xe0, calldataload(0x00))\n      dup1\n      0x8a79d80c\n      eq\n      tag_3\n      jumpi\n    tag_2:\n      0x00\n      dup1\n      revert\n        /* \"contracts/event.sol\":1767:1910  function testevent() public {... */\n    tag_3:\n      tag_4\n      tag_5\n      jump\t// in\n    tag_4:\n      stop\n    tag_5:\n        /* \"contracts/event.sol\":1810:1836  event2(msg.sender,\"check\") */\n      0x1b21412e1541693f9dd4eba9af84eb1871539d4108bc167fc63836a877a500f0\n        /* \"contracts/event.sol\":1817:1827  msg.sender */\n      caller\n        /* \"contracts/event.sol\":1810:1836  event2(msg.sender,\"check\") */\n      mload(0x40)\n      tag_7\n      swap2\n      swap1\n      tag_8\n      jump\t// in\n    tag_7:\n      mload(0x40)\n      dup1\n      swap2\n      sub\n      swap1\n      log1\n        /* \"contracts/event.sol\":1851:1879  event2(msg.sender, \"check2\") */\n      0x1b21412e1541693f9dd4eba9af84eb1871539d4108bc167fc63836a877a500f0\n        /* \"contracts/event.sol\":1858:1868  msg.sender */\n      caller\n        /* \"contracts/event.sol\":1851:1879  event2(msg.sender, \"check2\") */\n      mload(0x40)\n      tag_9\n      swap2\n      swap1\n      tag_10\n      jump\t// in\n    tag_9:\n      mload(0x40)\n      dup1\n      swap2\n      sub\n      swap1\n      log1\n        /* \"contracts/event.sol\":1894:1902  event3() */\n      0xf609b9204c72bdc3dc78c1e6c9d04dc98eff14040c92b5ddcd1cf7ca5a5b8441\n      mload(0x40)\n      mload(0x40)\n      dup1\n      swap2\n      sub\n      swap1\n      log1\n        /* \"contracts/event.sol\":1767:1910  function testevent() public {... */\n      jump\t// out\n        /* \"#utility.yul\":7:133   */\n    tag_11:\n        /* \"#utility.yul\":44:51   */\n      0x00\n        /* \"#utility.yul\":84:126   */\n      0xffffffffffffffffffffffffffffffffffffffff\n        /* \"#utility.yul\":77:82   */\n      dup3\n        /* \"#utility.yul\":73:127   */\n      and\n        /* \"#utility.yul\":62:127   */\n      swap1\n      pop\n        /* \"#utility.yul\":7:133   */\n      swap2\n      swap1\n      pop\n      jump\t// out\n        /* \"#utility.yul\":139:235   */\n    tag_12:\n        /* \"#utility.yul\":176:183   */\n      0x00\n        /* \"#utility.yul\":205:229   */\n      tag_22\n        /* \"#utility.yul\":223:228   */\n      dup3\n        /* \"#utility.yul\":205:229   */\n      tag_11\n      jump\t// in\n    tag_22:\n        /* \"#utility.yul\":194:229   */\n      swap1\n      pop\n        /* \"#utility.yul\":139:235   */\n      swap2\n      swap1\n      pop\n      jump\t// out\n        /* \"#utility.yul\":241:359   */\n    tag_13:\n        /* \"#utility.yul\":328:352   */\n      tag_24\n        /* \"#utility.yul\":346:351   */\n      dup2\n        /* \"#utility.yul\":328:352   */\n      tag_12\n      jump\t// in\n    tag_24:\n        /* \"#utility.yul\":323:326   */\n      dup3\n        /* \"#utility.yul\":316:353   */\n      mstore\n        /* \"#utility.yul\":241:359   */\n      pop\n      pop\n      jump\t// out\n        /* \"#utility.yul\":365:534   */\n    tag_14:\n        /* \"#utility.yul\":449:460   */\n      0x00\n        /* \"#utility.yul\":483:489   */\n      dup3\n        /* \"#utility.yul\":478:481   */\n      dup3\n        /* \"#utility.yul\":471:490   */\n      mstore\n        /* \"#utility.yul\":523:527   */\n      0x20\n        /* \"#utility.yul\":518:521   */\n      dup3\n        /* \"#utility.yul\":514:528   */\n      add\n        /* \"#utility.yul\":499:528   */\n      swap1\n      pop\n        /* \"#utility.yul\":365:534   */\n      swap3\n      swap2\n      pop\n      pop\n      jump\t// out\n        /* \"#utility.yul\":540:695   */\n    tag_15:\n        /* \"#utility.yul\":680:687   */\n      0x636865636b000000000000000000000000000000000000000000000000000000\n        /* \"#utility.yul\":676:677   */\n      0x00\n        /* \"#utility.yul\":668:674   */\n      dup3\n        /* \"#utility.yul\":664:678   */\n      add\n        /* \"#utility.yul\":657:688   */\n      mstore\n        /* \"#utility.yul\":540:695   */\n      pop\n      jump\t// out\n        /* \"#utility.yul\":701:1066   */\n    tag_16:\n        /* \"#utility.yul\":843:846   */\n      0x00\n        /* \"#utility.yul\":864:930   */\n      tag_28\n        /* \"#utility.yul\":928:929   */\n      0x05\n        /* \"#utility.yul\":923:926   */\n      dup4\n        /* \"#utility.yul\":864:930   */\n      tag_14\n      jump\t// in\n    tag_28:\n        /* \"#utility.yul\":857:930   */\n      swap2\n      pop\n        /* \"#utility.yul\":939:1032   */\n      tag_29\n        /* \"#utility.yul\":1028:1031   */\n      dup3\n        /* \"#utility.yul\":939:1032   */\n      tag_15\n      jump\t// in\n    tag_29:\n        /* \"#utility.yul\":1057:1059   */\n      0x20\n        /* \"#utility.yul\":1052:1055   */\n      dup3\n        /* \"#utility.yul\":1048:1060   */\n      add\n        /* \"#utility.yul\":1041:1060   */\n      swap1\n      pop\n        /* \"#utility.yul\":701:1066   */\n      swap2\n      swap1\n      pop\n      jump\t// out\n        /* \"#utility.yul\":1072:1601   */\n    tag_8:\n        /* \"#utility.yul\":1266:1270   */\n      0x00\n        /* \"#utility.yul\":1304:1306   */\n      0x40\n        /* \"#utility.yul\":1293:1302   */\n      dup3\n        /* \"#utility.yul\":1289:1307   */\n      add\n        /* \"#utility.yul\":1281:1307   */\n      swap1\n      pop\n        /* \"#utility.yul\":1317:1388   */\n      tag_31\n        /* \"#utility.yul\":1385:1386   */\n      0x00\n        /* \"#utility.yul\":1374:1383   */\n      dup4\n        /* \"#utility.yul\":1370:1387   */\n      add\n        /* \"#utility.yul\":1361:1367   */\n      dup5\n        /* \"#utility.yul\":1317:1388   */\n      tag_13\n      jump\t// in\n    tag_31:\n        /* \"#utility.yul\":1435:1444   */\n      dup2\n        /* \"#utility.yul\":1429:1433   */\n      dup2\n        /* \"#utility.yul\":1425:1445   */\n      sub\n        /* \"#utility.yul\":1420:1422   */\n      0x20\n        /* \"#utility.yul\":1409:1418   */\n      dup4\n        /* \"#utility.yul\":1405:1423   */\n      add\n        /* \"#utility.yul\":1398:1446   */\n      mstore\n        /* \"#utility.yul\":1463:1594   */\n      tag_32\n        /* \"#utility.yul\":1589:1593   */\n      dup2\n        /* \"#utility.yul\":1463:1594   */\n      tag_16\n      jump\t// in\n    tag_32:\n        /* \"#utility.yul\":1455:1594   */\n      swap1\n      pop\n        /* \"#utility.yul\":1072:1601   */\n      swap3\n      swap2\n      pop\n      pop\n      jump\t// out\n        /* \"#utility.yul\":1607:1763   */\n    tag_17:\n        /* \"#utility.yul\":1747:1755   */\n      0x636865636b320000000000000000000000000000000000000000000000000000\n        /* \"#utility.yul\":1743:1744   */\n      0x00\n        /* \"#utility.yul\":1735:1741   */\n      dup3\n        /* \"#utility.yul\":1731:1745   */\n      add\n        /* \"#utility.yul\":1724:1756   */\n      mstore\n        /* \"#utility.yul\":1607:1763   */\n      pop\n      jump\t// out\n        /* \"#utility.yul\":1769:2134   */\n    tag_18:\n        /* \"#utility.yul\":1911:1914   */\n      0x00\n        /* \"#utility.yul\":1932:1998   */\n      tag_35\n        /* \"#utility.yul\":1996:1997   */\n      0x06\n        /* \"#utility.yul\":1991:1994   */\n      dup4\n        /* \"#utility.yul\":1932:1998   */\n      tag_14\n      jump\t// in\n    tag_35:\n        /* \"#utility.yul\":1925:1998   */\n      swap2\n      pop\n        /* \"#utility.yul\":2007:2100   */\n      tag_36\n        /* \"#utility.yul\":2096:2099   */\n      dup3\n        /* \"#utility.yul\":2007:2100   */\n      tag_17\n      jump\t// in\n    tag_36:\n        /* \"#utility.yul\":2125:2127   */\n      0x20\n        /* \"#utility.yul\":2120:2123   */\n      dup3\n        /* \"#utility.yul\":2116:2128   */\n      add\n        /* \"#utility.yul\":2109:2128   */\n      swap1\n      pop\n        /* \"#utility.yul\":1769:2134   */\n      swap2\n      swap1\n      pop\n      jump\t// out\n        /* \"#utility.yul\":2140:2669   */\n    tag_10:\n        /* \"#utility.yul\":2334:2338   */\n      0x00\n        /* \"#utility.yul\":2372:2374   */\n      0x40\n        /* \"#utility.yul\":2361:2370   */\n      dup3\n        /* \"#utility.yul\":2357:2375   */\n      add\n        /* \"#utility.yul\":2349:2375   */\n      swap1\n      pop\n        /* \"#utility.yul\":2385:2456   */\n      tag_38\n        /* \"#utility.yul\":2453:2454   */\n      0x00\n        /* \"#utility.yul\":2442:2451   */\n      dup4\n        /* \"#utility.yul\":2438:2455   */\n      add\n        /* \"#utility.yul\":2429:2435   */\n      dup5\n        /* \"#utility.yul\":2385:2456   */\n      tag_13\n      jump\t// in\n    tag_38:\n        /* \"#utility.yul\":2503:2512   */\n      dup2\n        /* \"#utility.yul\":2497:2501   */\n      dup2\n        /* \"#utility.yul\":2493:2513   */\n      sub\n        /* \"#utility.yul\":2488:2490   */\n      0x20\n        /* \"#utility.yul\":2477:2486   */\n      dup4\n        /* \"#utility.yul\":2473:2491   */\n      add\n        /* \"#utility.yul\":2466:2514   */\n      mstore\n        /* \"#utility.yul\":2531:2662   */\n      tag_39\n        /* \"#utility.yul\":2657:2661   */\n      dup2\n        /* \"#utility.yul\":2531:2662   */\n      tag_18\n      jump\t// in\n    tag_39:\n        /* \"#utility.yul\":2523:2662   */\n      swap1\n      pop\n        /* \"#utility.yul\":2140:2669   */\n      swap3\n      swap2\n      pop\n      pop\n      jump\t// out\n\n    auxdata: 0xa264697066735822122052e08feb8bc6eefa5dc97ea67cadf30751aaa95ff9e0da0acaabba6dbbca9ac264736f6c63430008120033\n}\n",
				"bytecode": {
					"linkReferences": {},
					"object": "608060405234801561001057600080fd5b50610252806100206000396000f3fe608060405234801561001057600080fd5b506004361061002b5760003560e01c80638a79d80c14610030575b600080fd5b61003861003a565b005b7f1b21412e1541693f9dd4eba9af84eb1871539d4108bc167fc63836a877a500f0336040516100699190610174565b60405180910390a17f1b21412e1541693f9dd4eba9af84eb1871539d4108bc167fc63836a877a500f0336040516100a091906101ee565b60405180910390a17ff609b9204c72bdc3dc78c1e6c9d04dc98eff14040c92b5ddcd1cf7ca5a5b844160405160405180910390a1565b600073ffffffffffffffffffffffffffffffffffffffff82169050919050565b6000610101826100d6565b9050919050565b610111816100f6565b82525050565b600082825260208201905092915050565b7f636865636b000000000000000000000000000000000000000000000000000000600082015250565b600061015e600583610117565b915061016982610128565b602082019050919050565b60006040820190506101896000830184610108565b818103602083015261019a81610151565b905092915050565b7f636865636b320000000000000000000000000000000000000000000000000000600082015250565b60006101d8600683610117565b91506101e3826101a2565b602082019050919050565b60006040820190506102036000830184610108565b8181036020830152610214816101cb565b90509291505056fea264697066735822122052e08feb8bc6eefa5dc97ea67cadf30751aaa95ff9e0da0acaabba6dbbca9ac264736f6c63430008120033",
					"opcodes": "PUSH1 0x80 PUSH1 0x40 MSTORE CALLVALUE DUP1 ISZERO PUSH2 0x10 JUMPI PUSH1 0x0 DUP1 REVERT JUMPDEST POP PUSH2 0x252 DUP1 PUSH2 0x20 PUSH1 0x0 CODECOPY PUSH1 0x0 RETURN INVALID PUSH1 0x80 PUSH1 0x40 MSTORE CALLVALUE DUP1 ISZERO PUSH2 0x10 JUMPI PUSH1 0x0 DUP1 REVERT JUMPDEST POP PUSH1 0x4 CALLDATASIZE LT PUSH2 0x2B JUMPI PUSH1 0x0 CALLDATALOAD PUSH1 0xE0 SHR DUP1 PUSH4 0x8A79D80C EQ PUSH2 0x30 JUMPI JUMPDEST PUSH1 0x0 DUP1 REVERT JUMPDEST PUSH2 0x38 PUSH2 0x3A JUMP JUMPDEST STOP JUMPDEST PUSH32 0x1B21412E1541693F9DD4EBA9AF84EB1871539D4108BC167FC63836A877A500F0 CALLER PUSH1 0x40 MLOAD PUSH2 0x69 SWAP2 SWAP1 PUSH2 0x174 JUMP JUMPDEST PUSH1 0x40 MLOAD DUP1 SWAP2 SUB SWAP1 LOG1 PUSH32 0x1B21412E1541693F9DD4EBA9AF84EB1871539D4108BC167FC63836A877A500F0 CALLER PUSH1 0x40 MLOAD PUSH2 0xA0 SWAP2 SWAP1 PUSH2 0x1EE JUMP JUMPDEST PUSH1 0x40 MLOAD DUP1 SWAP2 SUB SWAP1 LOG1 PUSH32 0xF609B9204C72BDC3DC78C1E6C9D04DC98EFF14040C92B5DDCD1CF7CA5A5B8441 PUSH1 0x40 MLOAD PUSH1 0x40 MLOAD DUP1 SWAP2 SUB SWAP1 LOG1 JUMP JUMPDEST PUSH1 0x0 PUSH20 0xFFFFFFFFFFFFFFFFFFFFFFFFFFFFFFFFFFFFFFFF DUP3 AND SWAP1 POP SWAP2 SWAP1 POP JUMP JUMPDEST PUSH1 0x0 PUSH2 0x101 DUP3 PUSH2 0xD6 JUMP JUMPDEST SWAP1 POP SWAP2 SWAP1 POP JUMP JUMPDEST PUSH2 0x111 DUP2 PUSH2 0xF6 JUMP JUMPDEST DUP3 MSTORE POP POP JUMP JUMPDEST PUSH1 0x0 DUP3 DUP3 MSTORE PUSH1 0x20 DUP3 ADD SWAP1 POP SWAP3 SWAP2 POP POP JUMP JUMPDEST PUSH32 0x636865636B000000000000000000000000000000000000000000000000000000 PUSH1 0x0 DUP3 ADD MSTORE POP JUMP JUMPDEST PUSH1 0x0 PUSH2 0x15E PUSH1 0x5 DUP4 PUSH2 0x117 JUMP JUMPDEST SWAP2 POP PUSH2 0x169 DUP3 PUSH2 0x128 JUMP JUMPDEST PUSH1 0x20 DUP3 ADD SWAP1 POP SWAP2 SWAP1 POP JUMP JUMPDEST PUSH1 0x0 PUSH1 0x40 DUP3 ADD SWAP1 POP PUSH2 0x189 PUSH1 0x0 DUP4 ADD DUP5 PUSH2 0x108 JUMP JUMPDEST DUP2 DUP2 SUB PUSH1 0x20 DUP4 ADD MSTORE PUSH2 0x19A DUP2 PUSH2 0x151 JUMP JUMPDEST SWAP1 POP SWAP3 SWAP2 POP POP JUMP JUMPDEST PUSH32 0x636865636B320000000000000000000000000000000000000000000000000000 PUSH1 0x0 DUP3 ADD MSTORE POP JUMP JUMPDEST PUSH1 0x0 PUSH2 0x1D8 PUSH1 0x6 DUP4 PUSH2 0x117 JUMP JUMPDEST SWAP2 POP PUSH2 0x1E3 DUP3 PUSH2 0x1A2 JUMP JUMPDEST PUSH1 0x20 DUP3 ADD SWAP1 POP SWAP2 SWAP1 POP JUMP JUMPDEST PUSH1 0x0 PUSH1 0x40 DUP3 ADD SWAP1 POP PUSH2 0x203 PUSH1 0x0 DUP4 ADD DUP5 PUSH2 0x108 JUMP JUMPDEST DUP2 DUP2 SUB PUSH1 0x20 DUP4 ADD MSTORE PUSH2 0x214 DUP2 PUSH2 0x1CB JUMP JUMPDEST SWAP1 POP SWAP3 SWAP2 POP POP JUMP INVALID LOG2 PUSH5 0x6970667358 0x22 SLT KECCAK256 MSTORE 0xE0 DUP16 0xEB DUP12 0xC6 0xEE STATICCALL 0x5D 0xC9 PUSH31 0xA67CADF30751AAA95FF9E0DA0ACAABBA6DBBCA9AC264736F6C634300081200 CALLER "
				},
				"gasEstimates": {
					"creation": {
						"codeDepositCost": "118800",
						"executionCost": "165",
						"totalCost": "118965"
					},
					"external": {
						"testevent()": "infinite"
					}
				},
				"methodIdentifiers": {
					"testevent()": "8a79d80c"
				}
			},
			"storageLayout": {
				"storage": [],
				"types": null
			},
			"userdoc": {
				"kind": "user",
				"methods": {},
				"version": 1
			}
		}
	}
}