{
	"contracts/d.sol": {
		"MainContract": {
			"abi": [
				{
					"inputs": [],
					"stateMutability": "nonpayable",
					"type": "constructor"
				},
				{
					"inputs": [],
					"name": "interactWithCounters",
					"outputs": [],
					"stateMutability": "nonpayable",
					"type": "function"
				}
			],
			"devdoc": {
				"kind": "dev",
				"methods": {},
				"version": 1
			},
			"evm": {
				"assembly": "    /* \"contracts/d.sol\":833:1456  contract MainContract {... */\n  mstore(0x40, 0x80)\n    /* \"contracts/d.sol\":941:1076  constructor() {... */\n  callvalue\n  dup1\n  iszero\n  tag_1\n  jumpi\n  0x00\n  dup1\n  revert\ntag_1:\n  pop\n    /* \"contracts/d.sol\":977:991  new CounterA() */\n  mload(0x40)\n  tag_4\n  swap1\n  tag_5\n  jump\t// in\ntag_4:\n  mload(0x40)\n  dup1\n  swap2\n  sub\n  swap1\n  0x00\n  create\n  dup1\n  iszero\n  dup1\n  iszero\n  tag_6\n  jumpi\n  returndatasize\n  0x00\n  dup1\n  returndatacopy\n  revert(0x00, returndatasize)\ntag_6:\n  pop\n    /* \"contracts/d.sol\":966:974  counterA */\n  0x00\n  dup1\n    /* \"contracts/d.sol\":966:991  counterA = new CounterA() */\n  0x0100\n  exp\n  dup2\n  sload\n  dup2\n  0xffffffffffffffffffffffffffffffffffffffff\n  mul\n  not\n  and\n  swap1\n  dup4\n  0xffffffffffffffffffffffffffffffffffffffff\n  and\n  mul\n  or\n  swap1\n  sstore\n  pop\n    /* \"contracts/d.sol\":1013:1027  new CounterB() */\n  mload(0x40)\n  tag_7\n  swap1\n  tag_8\n  jump\t// in\ntag_7:\n  mload(0x40)\n  dup1\n  swap2\n  sub\n  swap1\n  0x00\n  create\n  dup1\n  iszero\n  dup1\n  iszero\n  tag_9\n  jumpi\n  returndatasize\n  0x00\n  dup1\n  returndatacopy\n  revert(0x00, returndatasize)\ntag_9:\n  pop\n    /* \"contracts/d.sol\":1002:1010  counterB */\n  0x01\n  0x00\n    /* \"contracts/d.sol\":1002:1027  counterB = new CounterB() */\n  0x0100\n  exp\n  dup2\n  sload\n  dup2\n  0xffffffffffffffffffffffffffffffffffffffff\n  mul\n  not\n  and\n  swap1\n  dup4\n  0xffffffffffffffffffffffffffffffffffffffff\n  and\n  mul\n  or\n  swap1\n  sstore\n  pop\n    /* \"contracts/d.sol\":1048:1068  new CounterManager() */\n  mload(0x40)\n  tag_10\n  swap1\n  tag_11\n  jump\t// in\ntag_10:\n  mload(0x40)\n  dup1\n  swap2\n  sub\n  swap1\n  0x00\n  create\n  dup1\n  iszero\n  dup1\n  iszero\n  tag_12\n  jumpi\n  returndatasize\n  0x00\n  dup1\n  returndatacopy\n  revert(0x00, returndatasize)\ntag_12:\n  pop\n    /* \"contracts/d.sol\":1038:1045  manager */\n  0x02\n  0x00\n    /* \"contracts/d.sol\":1038:1068  manager = new CounterManager() */\n  0x0100\n  exp\n  dup2\n  sload\n  dup2\n  0xffffffffffffffffffffffffffffffffffffffff\n  mul\n  not\n  and\n  swap1\n  dup4\n  0xffffffffffffffffffffffffffffffffffffffff\n  and\n  mul\n  or\n  swap1\n  sstore\n  pop\n    /* \"contracts/d.sol\":833:1456  contract MainContract {... */\n  jump(tag_13)\ntag_5:\n  dataSize(sub_1)\n  dup1\n  dataOffset(sub_1)\n  dup4\n  codecopy\n  add\n  swap1\n  jump\t// out\ntag_8:\n  dataSize(sub_2)\n  dup1\n  dataOffset(sub_2)\n  dup4\n  codecopy\n  add\n  swap1\n  jump\t// out\ntag_11:\n  dataSize(sub_3)\n  dup1\n  dataOffset(sub_3)\n  dup4\n  codecopy\n  add\n  swap1\n  jump\t// out\ntag_13:\n  dataSize(sub_0)\n  dup1\n  dataOffset(sub_0)\n  0x00\n  codecopy\n  0x00\n  return\nstop\n\nsub_0: assembly {\n        /* \"contracts/d.sol\":833:1456  contract MainContract {... */\n      mstore(0x40, 0x80)\n      callvalue\n      dup1\n      iszero\n      tag_1\n      jumpi\n      0x00\n      dup1\n      revert\n    tag_1:\n      pop\n      jumpi(tag_2, lt(calldatasize, 0x04))\n      shr(0xe0, calldataload(0x00))\n      dup1\n      0x7d6b9813\n      eq\n      tag_3\n      jumpi\n    tag_2:\n      0x00\n      dup1\n      revert\n        /* \"contracts/d.sol\":1084:1453  function interactWithCounters() external {... */\n    tag_3:\n      tag_4\n      tag_5\n      jump\t// in\n    tag_4:\n      stop\n    tag_5:\n        /* \"contracts/d.sol\":1136:1143  manager */\n      0x02\n      0x00\n      swap1\n      sload\n      swap1\n      0x0100\n      exp\n      swap1\n      div\n      0xffffffffffffffffffffffffffffffffffffffff\n      and\n        /* \"contracts/d.sol\":1136:1160  manager.incrementCounter */\n      0xffffffffffffffffffffffffffffffffffffffff\n      and\n      0xe5910ae7\n        /* \"contracts/d.sol\":1178:1186  counterA */\n      0x00\n      dup1\n      sload\n      swap1\n      0x0100\n      exp\n      swap1\n      div\n      0xffffffffffffffffffffffffffffffffffffffff\n      and\n        /* \"contracts/d.sol\":1136:1189  manager.incrementCounter(icounter(address(counterA))) */\n      mload(0x40)\n      dup3\n      0xffffffff\n      and\n      0xe0\n      shl\n      dup2\n      mstore\n      0x04\n      add\n      tag_7\n      swap2\n      swap1\n      tag_8\n      jump\t// in\n    tag_7:\n      0x00\n      mload(0x40)\n      dup1\n      dup4\n      sub\n      dup2\n      0x00\n      dup8\n      dup1\n      extcodesize\n      iszero\n      dup1\n      iszero\n      tag_9\n      jumpi\n      0x00\n      dup1\n      revert\n    tag_9:\n      pop\n      gas\n      call\n      iszero\n      dup1\n      iszero\n      tag_11\n      jumpi\n      returndatasize\n      0x00\n      dup1\n      returndatacopy\n      revert(0x00, returndatasize)\n    tag_11:\n      pop\n      pop\n      pop\n      pop\n        /* \"contracts/d.sol\":1200:1207  manager */\n      0x02\n      0x00\n      swap1\n      sload\n      swap1\n      0x0100\n      exp\n      swap1\n      div\n      0xffffffffffffffffffffffffffffffffffffffff\n      and\n        /* \"contracts/d.sol\":1200:1224  manager.incrementCounter */\n      0xffffffffffffffffffffffffffffffffffffffff\n      and\n      0xe5910ae7\n        /* \"contracts/d.sol\":1242:1250  counterB */\n      0x01\n      0x00\n      swap1\n      sload\n      swap1\n      0x0100\n      exp\n      swap1\n      div\n      0xffffffffffffffffffffffffffffffffffffffff\n      and\n        /* \"contracts/d.sol\":1200:1253  manager.incrementCounter(icounter(address(counterB))) */\n      mload(0x40)\n      dup3\n      0xffffffff\n      and\n      0xe0\n      shl\n      dup2\n      mstore\n      0x04\n      add\n      tag_12\n      swap2\n      swap1\n      tag_8\n      jump\t// in\n    tag_12:\n      0x00\n      mload(0x40)\n      dup1\n      dup4\n      sub\n      dup2\n      0x00\n      dup8\n      dup1\n      extcodesize\n      iszero\n      dup1\n      iszero\n      tag_13\n      jumpi\n      0x00\n      dup1\n      revert\n    tag_13:\n      pop\n      gas\n      call\n      iszero\n      dup1\n      iszero\n      tag_15\n      jumpi\n      returndatasize\n      0x00\n      dup1\n      returndatacopy\n      revert(0x00, returndatasize)\n    tag_15:\n      pop\n      pop\n      pop\n      pop\n        /* \"contracts/d.sol\":1266:1277  uint countA */\n      0x00\n        /* \"contracts/d.sol\":1280:1287  manager */\n      0x02\n      0x00\n      swap1\n      sload\n      swap1\n      0x0100\n      exp\n      swap1\n      div\n      0xffffffffffffffffffffffffffffffffffffffff\n      and\n        /* \"contracts/d.sol\":1280:1296  manager.getCount */\n      0xffffffffffffffffffffffffffffffffffffffff\n      and\n      0x4f0cd27b\n        /* \"contracts/d.sol\":1314:1322  counterA */\n      0x00\n      dup1\n      sload\n      swap1\n      0x0100\n      exp\n      swap1\n      div\n      0xffffffffffffffffffffffffffffffffffffffff\n      and\n        /* \"contracts/d.sol\":1280:1325  manager.getCount(icounter(address(counterA))) */\n      mload(0x40)\n      dup3\n      0xffffffff\n      and\n      0xe0\n      shl\n      dup2\n      mstore\n      0x04\n      add\n      tag_16\n      swap2\n      swap1\n      tag_8\n      jump\t// in\n    tag_16:\n      0x20\n      mload(0x40)\n      dup1\n      dup4\n      sub\n      dup2\n      dup7\n      gas\n      staticcall\n      iszero\n      dup1\n      iszero\n      tag_18\n      jumpi\n      returndatasize\n      0x00\n      dup1\n      returndatacopy\n      revert(0x00, returndatasize)\n    tag_18:\n      pop\n      pop\n      pop\n      pop\n      mload(0x40)\n      returndatasize\n      not(0x1f)\n      0x1f\n      dup3\n      add\n      and\n      dup3\n      add\n      dup1\n      0x40\n      mstore\n      pop\n      dup2\n      add\n      swap1\n      tag_19\n      swap2\n      swap1\n      tag_20\n      jump\t// in\n    tag_19:\n        /* \"contracts/d.sol\":1266:1325  uint countA = manager.getCount(icounter(address(counterA))) */\n      swap1\n      pop\n        /* \"contracts/d.sol\":1336:1347  uint countB */\n      0x00\n        /* \"contracts/d.sol\":1350:1357  manager */\n      0x02\n      0x00\n      swap1\n      sload\n      swap1\n      0x0100\n      exp\n      swap1\n      div\n      0xffffffffffffffffffffffffffffffffffffffff\n      and\n        /* \"contracts/d.sol\":1350:1366  manager.getCount */\n      0xffffffffffffffffffffffffffffffffffffffff\n      and\n      0x4f0cd27b\n        /* \"contracts/d.sol\":1384:1392  counterB */\n      0x01\n      0x00\n      swap1\n      sload\n      swap1\n      0x0100\n      exp\n      swap1\n      div\n      0xffffffffffffffffffffffffffffffffffffffff\n      and\n        /* \"contracts/d.sol\":1350:1395  manager.getCount(icounter(address(counterB))) */\n      mload(0x40)\n      dup3\n      0xffffffff\n      and\n      0xe0\n      shl\n      dup2\n      mstore\n      0x04\n      add\n      tag_21\n      swap2\n      swap1\n      tag_8\n      jump\t// in\n    tag_21:\n      0x20\n      mload(0x40)\n      dup1\n      dup4\n      sub\n      dup2\n      dup7\n      gas\n      staticcall\n      iszero\n      dup1\n      iszero\n      tag_23\n      jumpi\n      returndatasize\n      0x00\n      dup1\n      returndatacopy\n      revert(0x00, returndatasize)\n    tag_23:\n      pop\n      pop\n      pop\n      pop\n      mload(0x40)\n      returndatasize\n      not(0x1f)\n      0x1f\n      dup3\n      add\n      and\n      dup3\n      add\n      dup1\n      0x40\n      mstore\n      pop\n      dup2\n      add\n      swap1\n      tag_24\n      swap2\n      swap1\n      tag_20\n      jump\t// in\n    tag_24:\n        /* \"contracts/d.sol\":1336:1395  uint countB = manager.getCount(icounter(address(counterB))) */\n      swap1\n      pop\n        /* \"contracts/d.sol\":1125:1453  {... */\n      pop\n      pop\n        /* \"contracts/d.sol\":1084:1453  function interactWithCounters() external {... */\n      jump\t// out\n        /* \"#utility.yul\":7:133   */\n    tag_25:\n        /* \"#utility.yul\":44:51   */\n      0x00\n        /* \"#utility.yul\":84:126   */\n      0xffffffffffffffffffffffffffffffffffffffff\n        /* \"#utility.yul\":77:82   */\n      dup3\n        /* \"#utility.yul\":73:127   */\n      and\n        /* \"#utility.yul\":62:127   */\n      swap1\n      pop\n        /* \"#utility.yul\":7:133   */\n      swap2\n      swap1\n      pop\n      jump\t// out\n        /* \"#utility.yul\":139:199   */\n    tag_26:\n        /* \"#utility.yul\":167:170   */\n      0x00\n        /* \"#utility.yul\":188:193   */\n      dup2\n        /* \"#utility.yul\":181:193   */\n      swap1\n      pop\n        /* \"#utility.yul\":139:199   */\n      swap2\n      swap1\n      pop\n      jump\t// out\n        /* \"#utility.yul\":205:347   */\n    tag_27:\n        /* \"#utility.yul\":255:264   */\n      0x00\n        /* \"#utility.yul\":288:341   */\n      tag_41\n        /* \"#utility.yul\":306:340   */\n      tag_42\n        /* \"#utility.yul\":315:339   */\n      tag_43\n        /* \"#utility.yul\":333:338   */\n      dup5\n        /* \"#utility.yul\":315:339   */\n      tag_25\n      jump\t// in\n    tag_43:\n        /* \"#utility.yul\":306:340   */\n      tag_26\n      jump\t// in\n    tag_42:\n        /* \"#utility.yul\":288:341   */\n      tag_25\n      jump\t// in\n    tag_41:\n        /* \"#utility.yul\":275:341   */\n      swap1\n      pop\n        /* \"#utility.yul\":205:347   */\n      swap2\n      swap1\n      pop\n      jump\t// out\n        /* \"#utility.yul\":353:479   */\n    tag_28:\n        /* \"#utility.yul\":403:412   */\n      0x00\n        /* \"#utility.yul\":436:473   */\n      tag_45\n        /* \"#utility.yul\":467:472   */\n      dup3\n        /* \"#utility.yul\":436:473   */\n      tag_27\n      jump\t// in\n    tag_45:\n        /* \"#utility.yul\":423:473   */\n      swap1\n      pop\n        /* \"#utility.yul\":353:479   */\n      swap2\n      swap1\n      pop\n      jump\t// out\n        /* \"#utility.yul\":485:626   */\n    tag_29:\n        /* \"#utility.yul\":550:559   */\n      0x00\n        /* \"#utility.yul\":583:620   */\n      tag_47\n        /* \"#utility.yul\":614:619   */\n      dup3\n        /* \"#utility.yul\":583:620   */\n      tag_28\n      jump\t// in\n    tag_47:\n        /* \"#utility.yul\":570:620   */\n      swap1\n      pop\n        /* \"#utility.yul\":485:626   */\n      swap2\n      swap1\n      pop\n      jump\t// out\n        /* \"#utility.yul\":632:793   */\n    tag_30:\n        /* \"#utility.yul\":734:786   */\n      tag_49\n        /* \"#utility.yul\":780:785   */\n      dup2\n        /* \"#utility.yul\":734:786   */\n      tag_29\n      jump\t// in\n    tag_49:\n        /* \"#utility.yul\":729:732   */\n      dup3\n        /* \"#utility.yul\":722:787   */\n      mstore\n        /* \"#utility.yul\":632:793   */\n      pop\n      pop\n      jump\t// out\n        /* \"#utility.yul\":799:1051   */\n    tag_8:\n        /* \"#utility.yul\":907:911   */\n      0x00\n        /* \"#utility.yul\":945:947   */\n      0x20\n        /* \"#utility.yul\":934:943   */\n      dup3\n        /* \"#utility.yul\":930:948   */\n      add\n        /* \"#utility.yul\":922:948   */\n      swap1\n      pop\n        /* \"#utility.yul\":958:1044   */\n      tag_51\n        /* \"#utility.yul\":1041:1042   */\n      0x00\n        /* \"#utility.yul\":1030:1039   */\n      dup4\n        /* \"#utility.yul\":1026:1043   */\n      add\n        /* \"#utility.yul\":1017:1023   */\n      dup5\n        /* \"#utility.yul\":958:1044   */\n      tag_30\n      jump\t// in\n    tag_51:\n        /* \"#utility.yul\":799:1051   */\n      swap3\n      swap2\n      pop\n      pop\n      jump\t// out\n        /* \"#utility.yul\":1138:1255   */\n    tag_32:\n        /* \"#utility.yul\":1247:1248   */\n      0x00\n        /* \"#utility.yul\":1244:1245   */\n      dup1\n        /* \"#utility.yul\":1237:1249   */\n      revert\n        /* \"#utility.yul\":1384:1461   */\n    tag_34:\n        /* \"#utility.yul\":1421:1428   */\n      0x00\n        /* \"#utility.yul\":1450:1455   */\n      dup2\n        /* \"#utility.yul\":1439:1455   */\n      swap1\n      pop\n        /* \"#utility.yul\":1384:1461   */\n      swap2\n      swap1\n      pop\n      jump\t// out\n        /* \"#utility.yul\":1467:1589   */\n    tag_35:\n        /* \"#utility.yul\":1540:1564   */\n      tag_57\n        /* \"#utility.yul\":1558:1563   */\n      dup2\n        /* \"#utility.yul\":1540:1564   */\n      tag_34\n      jump\t// in\n    tag_57:\n        /* \"#utility.yul\":1533:1538   */\n      dup2\n        /* \"#utility.yul\":1530:1565   */\n      eq\n        /* \"#utility.yul\":1520:1583   */\n      tag_58\n      jumpi\n        /* \"#utility.yul\":1579:1580   */\n      0x00\n        /* \"#utility.yul\":1576:1577   */\n      dup1\n        /* \"#utility.yul\":1569:1581   */\n      revert\n        /* \"#utility.yul\":1520:1583   */\n    tag_58:\n        /* \"#utility.yul\":1467:1589   */\n      pop\n      jump\t// out\n        /* \"#utility.yul\":1595:1738   */\n    tag_36:\n        /* \"#utility.yul\":1652:1657   */\n      0x00\n        /* \"#utility.yul\":1683:1689   */\n      dup2\n        /* \"#utility.yul\":1677:1690   */\n      mload\n        /* \"#utility.yul\":1668:1690   */\n      swap1\n      pop\n        /* \"#utility.yul\":1699:1732   */\n      tag_60\n        /* \"#utility.yul\":1726:1731   */\n      dup2\n        /* \"#utility.yul\":1699:1732   */\n      tag_35\n      jump\t// in\n    tag_60:\n        /* \"#utility.yul\":1595:1738   */\n      swap3\n      swap2\n      pop\n      pop\n      jump\t// out\n        /* \"#utility.yul\":1744:2095   */\n    tag_20:\n        /* \"#utility.yul\":1814:1820   */\n      0x00\n        /* \"#utility.yul\":1863:1865   */\n      0x20\n        /* \"#utility.yul\":1851:1860   */\n      dup3\n        /* \"#utility.yul\":1842:1849   */\n      dup5\n        /* \"#utility.yul\":1838:1861   */\n      sub\n        /* \"#utility.yul\":1834:1866   */\n      slt\n        /* \"#utility.yul\":1831:1950   */\n      iszero\n      tag_62\n      jumpi\n        /* \"#utility.yul\":1869:1948   */\n      tag_63\n      tag_32\n      jump\t// in\n    tag_63:\n        /* \"#utility.yul\":1831:1950   */\n    tag_62:\n        /* \"#utility.yul\":1989:1990   */\n      0x00\n        /* \"#utility.yul\":2014:2078   */\n      tag_64\n        /* \"#utility.yul\":2070:2077   */\n      dup5\n        /* \"#utility.yul\":2061:2067   */\n      dup3\n        /* \"#utility.yul\":2050:2059   */\n      dup6\n        /* \"#utility.yul\":2046:2068   */\n      add\n        /* \"#utility.yul\":2014:2078   */\n      tag_36\n      jump\t// in\n    tag_64:\n        /* \"#utility.yul\":2004:2078   */\n      swap2\n      pop\n        /* \"#utility.yul\":1960:2088   */\n      pop\n        /* \"#utility.yul\":1744:2095   */\n      swap3\n      swap2\n      pop\n      pop\n      jump\t// out\n\n    auxdata: 0xa264697066735822122023d7f8ea22d00a849d480ab960d3afed95c77fc75173211577c9c352c759cde164736f6c63430008120033\n}\n\nsub_1: assembly {\n        /* \"contracts/d.sol\":176:377  contract CounterA {... */\n      mstore(0x40, 0x80)\n      callvalue\n      dup1\n      iszero\n      tag_1\n      jumpi\n      0x00\n      dup1\n      revert\n    tag_1:\n      pop\n      dataSize(sub_0)\n      dup1\n      dataOffset(sub_0)\n      0x00\n      codecopy\n      0x00\n      return\n    stop\n\n    sub_0: assembly {\n            /* \"contracts/d.sol\":176:377  contract CounterA {... */\n          mstore(0x40, 0x80)\n          callvalue\n          dup1\n          iszero\n          tag_1\n          jumpi\n          0x00\n          dup1\n          revert\n        tag_1:\n          pop\n          jumpi(tag_2, lt(calldatasize, 0x04))\n          shr(0xe0, calldataload(0x00))\n          dup1\n          0x06661abd\n          eq\n          tag_3\n          jumpi\n          dup1\n          0xa87d942c\n          eq\n          tag_4\n          jumpi\n          dup1\n          0xd09de08a\n          eq\n          tag_5\n          jumpi\n        tag_2:\n          0x00\n          dup1\n          revert\n            /* \"contracts/d.sol\":201:218  uint public count */\n        tag_3:\n          tag_6\n          tag_7\n          jump\t// in\n        tag_6:\n          mload(0x40)\n          tag_8\n          swap2\n          swap1\n          tag_9\n          jump\t// in\n        tag_8:\n          mload(0x40)\n          dup1\n          swap2\n          sub\n          swap1\n          return\n            /* \"contracts/d.sol\":294:374  function getCount() external view returns (uint) {... */\n        tag_4:\n          tag_10\n          tag_11\n          jump\t// in\n        tag_10:\n          mload(0x40)\n          tag_12\n          swap2\n          swap1\n          tag_9\n          jump\t// in\n        tag_12:\n          mload(0x40)\n          dup1\n          swap2\n          sub\n          swap1\n          return\n            /* \"contracts/d.sol\":227:286  function increment() external {... */\n        tag_5:\n          tag_13\n          tag_14\n          jump\t// in\n        tag_13:\n          stop\n            /* \"contracts/d.sol\":201:218  uint public count */\n        tag_7:\n          sload(0x00)\n          dup2\n          jump\t// out\n            /* \"contracts/d.sol\":294:374  function getCount() external view returns (uint) {... */\n        tag_11:\n            /* \"contracts/d.sol\":337:341  uint */\n          0x00\n            /* \"contracts/d.sol\":361:366  count */\n          dup1\n          sload\n            /* \"contracts/d.sol\":354:366  return count */\n          swap1\n          pop\n            /* \"contracts/d.sol\":294:374  function getCount() external view returns (uint) {... */\n          swap1\n          jump\t// out\n            /* \"contracts/d.sol\":227:286  function increment() external {... */\n        tag_14:\n            /* \"contracts/d.sol\":277:278  1 */\n          0x01\n            /* \"contracts/d.sol\":268:273  count */\n          0x00\n          dup1\n            /* \"contracts/d.sol\":268:278  count += 1 */\n          dup3\n          dup3\n          sload\n          tag_17\n          swap2\n          swap1\n          tag_18\n          jump\t// in\n        tag_17:\n          swap3\n          pop\n          pop\n          dup2\n          swap1\n          sstore\n          pop\n            /* \"contracts/d.sol\":227:286  function increment() external {... */\n          jump\t// out\n            /* \"#utility.yul\":7:84   */\n        tag_19:\n            /* \"#utility.yul\":44:51   */\n          0x00\n            /* \"#utility.yul\":73:78   */\n          dup2\n            /* \"#utility.yul\":62:78   */\n          swap1\n          pop\n            /* \"#utility.yul\":7:84   */\n          swap2\n          swap1\n          pop\n          jump\t// out\n            /* \"#utility.yul\":90:208   */\n        tag_20:\n            /* \"#utility.yul\":177:201   */\n          tag_25\n            /* \"#utility.yul\":195:200   */\n          dup2\n            /* \"#utility.yul\":177:201   */\n          tag_19\n          jump\t// in\n        tag_25:\n            /* \"#utility.yul\":172:175   */\n          dup3\n            /* \"#utility.yul\":165:202   */\n          mstore\n            /* \"#utility.yul\":90:208   */\n          pop\n          pop\n          jump\t// out\n            /* \"#utility.yul\":214:436   */\n        tag_9:\n            /* \"#utility.yul\":307:311   */\n          0x00\n            /* \"#utility.yul\":345:347   */\n          0x20\n            /* \"#utility.yul\":334:343   */\n          dup3\n            /* \"#utility.yul\":330:348   */\n          add\n            /* \"#utility.yul\":322:348   */\n          swap1\n          pop\n            /* \"#utility.yul\":358:429   */\n          tag_27\n            /* \"#utility.yul\":426:427   */\n          0x00\n            /* \"#utility.yul\":415:424   */\n          dup4\n            /* \"#utility.yul\":411:428   */\n          add\n            /* \"#utility.yul\":402:408   */\n          dup5\n            /* \"#utility.yul\":358:429   */\n          tag_20\n          jump\t// in\n        tag_27:\n            /* \"#utility.yul\":214:436   */\n          swap3\n          swap2\n          pop\n          pop\n          jump\t// out\n            /* \"#utility.yul\":442:622   */\n        tag_21:\n            /* \"#utility.yul\":490:567   */\n          0x4e487b7100000000000000000000000000000000000000000000000000000000\n            /* \"#utility.yul\":487:488   */\n          0x00\n            /* \"#utility.yul\":480:568   */\n          mstore\n            /* \"#utility.yul\":587:591   */\n          0x11\n            /* \"#utility.yul\":584:585   */\n          0x04\n            /* \"#utility.yul\":577:592   */\n          mstore\n            /* \"#utility.yul\":611:615   */\n          0x24\n            /* \"#utility.yul\":608:609   */\n          0x00\n            /* \"#utility.yul\":601:616   */\n          revert\n            /* \"#utility.yul\":628:819   */\n        tag_18:\n            /* \"#utility.yul\":668:671   */\n          0x00\n            /* \"#utility.yul\":687:707   */\n          tag_30\n            /* \"#utility.yul\":705:706   */\n          dup3\n            /* \"#utility.yul\":687:707   */\n          tag_19\n          jump\t// in\n        tag_30:\n            /* \"#utility.yul\":682:707   */\n          swap2\n          pop\n            /* \"#utility.yul\":721:741   */\n          tag_31\n            /* \"#utility.yul\":739:740   */\n          dup4\n            /* \"#utility.yul\":721:741   */\n          tag_19\n          jump\t// in\n        tag_31:\n            /* \"#utility.yul\":716:741   */\n          swap3\n          pop\n            /* \"#utility.yul\":764:765   */\n          dup3\n            /* \"#utility.yul\":761:762   */\n          dup3\n            /* \"#utility.yul\":757:766   */\n          add\n            /* \"#utility.yul\":750:766   */\n          swap1\n          pop\n            /* \"#utility.yul\":785:788   */\n          dup1\n            /* \"#utility.yul\":782:783   */\n          dup3\n            /* \"#utility.yul\":779:789   */\n          gt\n            /* \"#utility.yul\":776:812   */\n          iszero\n          tag_32\n          jumpi\n            /* \"#utility.yul\":792:810   */\n          tag_33\n          tag_21\n          jump\t// in\n        tag_33:\n            /* \"#utility.yul\":776:812   */\n        tag_32:\n            /* \"#utility.yul\":628:819   */\n          swap3\n          swap2\n          pop\n          pop\n          jump\t// out\n\n        auxdata: 0xa2646970667358221220385c8793f664033cb8bf0d9712d9408e17f6bc4409edd916c1da10ba4b8151ac64736f6c63430008120033\n    }\n}\n\nsub_2: assembly {\n        /* \"contracts/d.sol\":381:582  contract CounterB {... */\n      mstore(0x40, 0x80)\n      callvalue\n      dup1\n      iszero\n      tag_1\n      jumpi\n      0x00\n      dup1\n      revert\n    tag_1:\n      pop\n      dataSize(sub_0)\n      dup1\n      dataOffset(sub_0)\n      0x00\n      codecopy\n      0x00\n      return\n    stop\n\n    sub_0: assembly {\n            /* \"contracts/d.sol\":381:582  contract CounterB {... */\n          mstore(0x40, 0x80)\n          callvalue\n          dup1\n          iszero\n          tag_1\n          jumpi\n          0x00\n          dup1\n          revert\n        tag_1:\n          pop\n          jumpi(tag_2, lt(calldatasize, 0x04))\n          shr(0xe0, calldataload(0x00))\n          dup1\n          0x06661abd\n          eq\n          tag_3\n          jumpi\n          dup1\n          0xa87d942c\n          eq\n          tag_4\n          jumpi\n          dup1\n          0xd09de08a\n          eq\n          tag_5\n          jumpi\n        tag_2:\n          0x00\n          dup1\n          revert\n            /* \"contracts/d.sol\":406:423  uint public count */\n        tag_3:\n          tag_6\n          tag_7\n          jump\t// in\n        tag_6:\n          mload(0x40)\n          tag_8\n          swap2\n          swap1\n          tag_9\n          jump\t// in\n        tag_8:\n          mload(0x40)\n          dup1\n          swap2\n          sub\n          swap1\n          return\n            /* \"contracts/d.sol\":499:579  function getCount() external view returns (uint) {... */\n        tag_4:\n          tag_10\n          tag_11\n          jump\t// in\n        tag_10:\n          mload(0x40)\n          tag_12\n          swap2\n          swap1\n          tag_9\n          jump\t// in\n        tag_12:\n          mload(0x40)\n          dup1\n          swap2\n          sub\n          swap1\n          return\n            /* \"contracts/d.sol\":432:491  function increment() external {... */\n        tag_5:\n          tag_13\n          tag_14\n          jump\t// in\n        tag_13:\n          stop\n            /* \"contracts/d.sol\":406:423  uint public count */\n        tag_7:\n          sload(0x00)\n          dup2\n          jump\t// out\n            /* \"contracts/d.sol\":499:579  function getCount() external view returns (uint) {... */\n        tag_11:\n            /* \"contracts/d.sol\":542:546  uint */\n          0x00\n            /* \"contracts/d.sol\":566:571  count */\n          dup1\n          sload\n            /* \"contracts/d.sol\":559:571  return count */\n          swap1\n          pop\n            /* \"contracts/d.sol\":499:579  function getCount() external view returns (uint) {... */\n          swap1\n          jump\t// out\n            /* \"contracts/d.sol\":432:491  function increment() external {... */\n        tag_14:\n            /* \"contracts/d.sol\":482:483  2 */\n          0x02\n            /* \"contracts/d.sol\":473:478  count */\n          0x00\n          dup1\n            /* \"contracts/d.sol\":473:483  count += 2 */\n          dup3\n          dup3\n          sload\n          tag_17\n          swap2\n          swap1\n          tag_18\n          jump\t// in\n        tag_17:\n          swap3\n          pop\n          pop\n          dup2\n          swap1\n          sstore\n          pop\n            /* \"contracts/d.sol\":432:491  function increment() external {... */\n          jump\t// out\n            /* \"#utility.yul\":7:84   */\n        tag_19:\n            /* \"#utility.yul\":44:51   */\n          0x00\n            /* \"#utility.yul\":73:78   */\n          dup2\n            /* \"#utility.yul\":62:78   */\n          swap1\n          pop\n            /* \"#utility.yul\":7:84   */\n          swap2\n          swap1\n          pop\n          jump\t// out\n            /* \"#utility.yul\":90:208   */\n        tag_20:\n            /* \"#utility.yul\":177:201   */\n          tag_25\n            /* \"#utility.yul\":195:200   */\n          dup2\n            /* \"#utility.yul\":177:201   */\n          tag_19\n          jump\t// in\n        tag_25:\n            /* \"#utility.yul\":172:175   */\n          dup3\n            /* \"#utility.yul\":165:202   */\n          mstore\n            /* \"#utility.yul\":90:208   */\n          pop\n          pop\n          jump\t// out\n            /* \"#utility.yul\":214:436   */\n        tag_9:\n            /* \"#utility.yul\":307:311   */\n          0x00\n            /* \"#utility.yul\":345:347   */\n          0x20\n            /* \"#utility.yul\":334:343   */\n          dup3\n            /* \"#utility.yul\":330:348   */\n          add\n            /* \"#utility.yul\":322:348   */\n          swap1\n          pop\n            /* \"#utility.yul\":358:429   */\n          tag_27\n            /* \"#utility.yul\":426:427   */\n          0x00\n            /* \"#utility.yul\":415:424   */\n          dup4\n            /* \"#utility.yul\":411:428   */\n          add\n            /* \"#utility.yul\":402:408   */\n          dup5\n            /* \"#utility.yul\":358:429   */\n          tag_20\n          jump\t// in\n        tag_27:\n            /* \"#utility.yul\":214:436   */\n          swap3\n          swap2\n          pop\n          pop\n          jump\t// out\n            /* \"#utility.yul\":442:622   */\n        tag_21:\n            /* \"#utility.yul\":490:567   */\n          0x4e487b7100000000000000000000000000000000000000000000000000000000\n            /* \"#utility.yul\":487:488   */\n          0x00\n            /* \"#utility.yul\":480:568   */\n          mstore\n            /* \"#utility.yul\":587:591   */\n          0x11\n            /* \"#utility.yul\":584:585   */\n          0x04\n            /* \"#utility.yul\":577:592   */\n          mstore\n            /* \"#utility.yul\":611:615   */\n          0x24\n            /* \"#utility.yul\":608:609   */\n          0x00\n            /* \"#utility.yul\":601:616   */\n          revert\n            /* \"#utility.yul\":628:819   */\n        tag_18:\n            /* \"#utility.yul\":668:671   */\n          0x00\n            /* \"#utility.yul\":687:707   */\n          tag_30\n            /* \"#utility.yul\":705:706   */\n          dup3\n            /* \"#utility.yul\":687:707   */\n          tag_19\n          jump\t// in\n        tag_30:\n            /* \"#utility.yul\":682:707   */\n          swap2\n          pop\n            /* \"#utility.yul\":721:741   */\n          tag_31\n            /* \"#utility.yul\":739:740   */\n          dup4\n            /* \"#utility.yul\":721:741   */\n          tag_19\n          jump\t// in\n        tag_31:\n            /* \"#utility.yul\":716:741   */\n          swap3\n          pop\n            /* \"#utility.yul\":764:765   */\n          dup3\n            /* \"#utility.yul\":761:762   */\n          dup3\n            /* \"#utility.yul\":757:766   */\n          add\n            /* \"#utility.yul\":750:766   */\n          swap1\n          pop\n            /* \"#utility.yul\":785:788   */\n          dup1\n            /* \"#utility.yul\":782:783   */\n          dup3\n            /* \"#utility.yul\":779:789   */\n          gt\n            /* \"#utility.yul\":776:812   */\n          iszero\n          tag_32\n          jumpi\n            /* \"#utility.yul\":792:810   */\n          tag_33\n          tag_21\n          jump\t// in\n        tag_33:\n            /* \"#utility.yul\":776:812   */\n        tag_32:\n            /* \"#utility.yul\":628:819   */\n          swap3\n          swap2\n          pop\n          pop\n          jump\t// out\n\n        auxdata: 0xa264697066735822122005e7a5d926391ca1e5ec2d9291b388f43c0a0335ccb508a7e4fcb8108e65be2964736f6c63430008120033\n    }\n}\n\nsub_3: assembly {\n        /* \"contracts/d.sol\":586:829  contract CounterManager {... */\n      mstore(0x40, 0x80)\n      callvalue\n      dup1\n      iszero\n      tag_1\n      jumpi\n      0x00\n      dup1\n      revert\n    tag_1:\n      pop\n      dataSize(sub_0)\n      dup1\n      dataOffset(sub_0)\n      0x00\n      codecopy\n      0x00\n      return\n    stop\n\n    sub_0: assembly {\n            /* \"contracts/d.sol\":586:829  contract CounterManager {... */\n          mstore(0x40, 0x80)\n          callvalue\n          dup1\n          iszero\n          tag_1\n          jumpi\n          0x00\n          dup1\n          revert\n        tag_1:\n          pop\n          jumpi(tag_2, lt(calldatasize, 0x04))\n          shr(0xe0, calldataload(0x00))\n          dup1\n          0x4f0cd27b\n          eq\n          tag_3\n          jumpi\n          dup1\n          0xe5910ae7\n          eq\n          tag_4\n          jumpi\n        tag_2:\n          0x00\n          dup1\n          revert\n            /* \"contracts/d.sol\":718:826  function getCount(icounter _counter) external view returns (uint) {... */\n        tag_3:\n          tag_5\n          0x04\n          dup1\n          calldatasize\n          sub\n          dup2\n          add\n          swap1\n          tag_6\n          swap2\n          swap1\n          tag_7\n          jump\t// in\n        tag_6:\n          tag_8\n          jump\t// in\n        tag_5:\n          mload(0x40)\n          tag_9\n          swap2\n          swap1\n          tag_10\n          jump\t// in\n        tag_9:\n          mload(0x40)\n          dup1\n          swap2\n          sub\n          swap1\n          return\n            /* \"contracts/d.sol\":617:710  function incrementCounter(icounter _counter) external {... */\n        tag_4:\n          tag_11\n          0x04\n          dup1\n          calldatasize\n          sub\n          dup2\n          add\n          swap1\n          tag_12\n          swap2\n          swap1\n          tag_7\n          jump\t// in\n        tag_12:\n          tag_13\n          jump\t// in\n        tag_11:\n          stop\n            /* \"contracts/d.sol\":718:826  function getCount(icounter _counter) external view returns (uint) {... */\n        tag_8:\n            /* \"contracts/d.sol\":778:782  uint */\n          0x00\n            /* \"contracts/d.sol\":802:810  _counter */\n          dup2\n            /* \"contracts/d.sol\":802:816  _counter.count */\n          0xffffffffffffffffffffffffffffffffffffffff\n          and\n          0x06661abd\n            /* \"contracts/d.sol\":802:818  _counter.count() */\n          mload(0x40)\n          dup2\n          0xffffffff\n          and\n          0xe0\n          shl\n          dup2\n          mstore\n          0x04\n          add\n          0x20\n          mload(0x40)\n          dup1\n          dup4\n          sub\n          dup2\n          dup7\n          gas\n          staticcall\n          iszero\n          dup1\n          iszero\n          tag_16\n          jumpi\n          returndatasize\n          0x00\n          dup1\n          returndatacopy\n          revert(0x00, returndatasize)\n        tag_16:\n          pop\n          pop\n          pop\n          pop\n          mload(0x40)\n          returndatasize\n          not(0x1f)\n          0x1f\n          dup3\n          add\n          and\n          dup3\n          add\n          dup1\n          0x40\n          mstore\n          pop\n          dup2\n          add\n          swap1\n          tag_17\n          swap2\n          swap1\n          tag_18\n          jump\t// in\n        tag_17:\n            /* \"contracts/d.sol\":795:818  return _counter.count() */\n          swap1\n          pop\n            /* \"contracts/d.sol\":718:826  function getCount(icounter _counter) external view returns (uint) {... */\n          swap2\n          swap1\n          pop\n          jump\t// out\n            /* \"contracts/d.sol\":617:710  function incrementCounter(icounter _counter) external {... */\n        tag_13:\n            /* \"contracts/d.sol\":682:690  _counter */\n          dup1\n            /* \"contracts/d.sol\":682:700  _counter.increment */\n          0xffffffffffffffffffffffffffffffffffffffff\n          and\n          0xd09de08a\n            /* \"contracts/d.sol\":682:702  _counter.increment() */\n          mload(0x40)\n          dup2\n          0xffffffff\n          and\n          0xe0\n          shl\n          dup2\n          mstore\n          0x04\n          add\n          0x00\n          mload(0x40)\n          dup1\n          dup4\n          sub\n          dup2\n          0x00\n          dup8\n          dup1\n          extcodesize\n          iszero\n          dup1\n          iszero\n          tag_20\n          jumpi\n          0x00\n          dup1\n          revert\n        tag_20:\n          pop\n          gas\n          call\n          iszero\n          dup1\n          iszero\n          tag_22\n          jumpi\n          returndatasize\n          0x00\n          dup1\n          returndatacopy\n          revert(0x00, returndatasize)\n        tag_22:\n          pop\n          pop\n          pop\n          pop\n            /* \"contracts/d.sol\":617:710  function incrementCounter(icounter _counter) external {... */\n          pop\n          jump\t// out\n            /* \"#utility.yul\":88:205   */\n        tag_24:\n            /* \"#utility.yul\":197:198   */\n          0x00\n            /* \"#utility.yul\":194:195   */\n          dup1\n            /* \"#utility.yul\":187:199   */\n          revert\n            /* \"#utility.yul\":334:460   */\n        tag_26:\n            /* \"#utility.yul\":371:378   */\n          0x00\n            /* \"#utility.yul\":411:453   */\n          0xffffffffffffffffffffffffffffffffffffffff\n            /* \"#utility.yul\":404:409   */\n          dup3\n            /* \"#utility.yul\":400:454   */\n          and\n            /* \"#utility.yul\":389:454   */\n          swap1\n          pop\n            /* \"#utility.yul\":334:460   */\n          swap2\n          swap1\n          pop\n          jump\t// out\n            /* \"#utility.yul\":466:562   */\n        tag_27:\n            /* \"#utility.yul\":503:510   */\n          0x00\n            /* \"#utility.yul\":532:556   */\n          tag_41\n            /* \"#utility.yul\":550:555   */\n          dup3\n            /* \"#utility.yul\":532:556   */\n          tag_26\n          jump\t// in\n        tag_41:\n            /* \"#utility.yul\":521:556   */\n          swap1\n          pop\n            /* \"#utility.yul\":466:562   */\n          swap2\n          swap1\n          pop\n          jump\t// out\n            /* \"#utility.yul\":568:679   */\n        tag_28:\n            /* \"#utility.yul\":620:627   */\n          0x00\n            /* \"#utility.yul\":649:673   */\n          tag_43\n            /* \"#utility.yul\":667:672   */\n          dup3\n            /* \"#utility.yul\":649:673   */\n          tag_27\n          jump\t// in\n        tag_43:\n            /* \"#utility.yul\":638:673   */\n          swap1\n          pop\n            /* \"#utility.yul\":568:679   */\n          swap2\n          swap1\n          pop\n          jump\t// out\n            /* \"#utility.yul\":685:837   */\n        tag_29:\n            /* \"#utility.yul\":773:812   */\n          tag_45\n            /* \"#utility.yul\":806:811   */\n          dup2\n            /* \"#utility.yul\":773:812   */\n          tag_28\n          jump\t// in\n        tag_45:\n            /* \"#utility.yul\":766:771   */\n          dup2\n            /* \"#utility.yul\":763:813   */\n          eq\n            /* \"#utility.yul\":753:831   */\n          tag_46\n          jumpi\n            /* \"#utility.yul\":827:828   */\n          0x00\n            /* \"#utility.yul\":824:825   */\n          dup1\n            /* \"#utility.yul\":817:829   */\n          revert\n            /* \"#utility.yul\":753:831   */\n        tag_46:\n            /* \"#utility.yul\":685:837   */\n          pop\n          jump\t// out\n            /* \"#utility.yul\":843:1012   */\n        tag_30:\n            /* \"#utility.yul\":904:909   */\n          0x00\n            /* \"#utility.yul\":942:948   */\n          dup2\n            /* \"#utility.yul\":929:949   */\n          calldataload\n            /* \"#utility.yul\":920:949   */\n          swap1\n          pop\n            /* \"#utility.yul\":958:1006   */\n          tag_48\n            /* \"#utility.yul\":1000:1005   */\n          dup2\n            /* \"#utility.yul\":958:1006   */\n          tag_29\n          jump\t// in\n        tag_48:\n            /* \"#utility.yul\":843:1012   */\n          swap3\n          swap2\n          pop\n          pop\n          jump\t// out\n            /* \"#utility.yul\":1018:1377   */\n        tag_7:\n            /* \"#utility.yul\":1092:1098   */\n          0x00\n            /* \"#utility.yul\":1141:1143   */\n          0x20\n            /* \"#utility.yul\":1129:1138   */\n          dup3\n            /* \"#utility.yul\":1120:1127   */\n          dup5\n            /* \"#utility.yul\":1116:1139   */\n          sub\n            /* \"#utility.yul\":1112:1144   */\n          slt\n            /* \"#utility.yul\":1109:1228   */\n          iszero\n          tag_50\n          jumpi\n            /* \"#utility.yul\":1147:1226   */\n          tag_51\n          tag_24\n          jump\t// in\n        tag_51:\n            /* \"#utility.yul\":1109:1228   */\n        tag_50:\n            /* \"#utility.yul\":1267:1268   */\n          0x00\n            /* \"#utility.yul\":1292:1360   */\n          tag_52\n            /* \"#utility.yul\":1352:1359   */\n          dup5\n            /* \"#utility.yul\":1343:1349   */\n          dup3\n            /* \"#utility.yul\":1332:1341   */\n          dup6\n            /* \"#utility.yul\":1328:1350   */\n          add\n            /* \"#utility.yul\":1292:1360   */\n          tag_30\n          jump\t// in\n        tag_52:\n            /* \"#utility.yul\":1282:1360   */\n          swap2\n          pop\n            /* \"#utility.yul\":1238:1370   */\n          pop\n            /* \"#utility.yul\":1018:1377   */\n          swap3\n          swap2\n          pop\n          pop\n          jump\t// out\n            /* \"#utility.yul\":1383:1460   */\n        tag_31:\n            /* \"#utility.yul\":1420:1427   */\n          0x00\n            /* \"#utility.yul\":1449:1454   */\n          dup2\n            /* \"#utility.yul\":1438:1454   */\n          swap1\n          pop\n            /* \"#utility.yul\":1383:1460   */\n          swap2\n          swap1\n          pop\n          jump\t// out\n            /* \"#utility.yul\":1466:1584   */\n        tag_32:\n            /* \"#utility.yul\":1553:1577   */\n          tag_55\n            /* \"#utility.yul\":1571:1576   */\n          dup2\n            /* \"#utility.yul\":1553:1577   */\n          tag_31\n          jump\t// in\n        tag_55:\n            /* \"#utility.yul\":1548:1551   */\n          dup3\n            /* \"#utility.yul\":1541:1578   */\n          mstore\n            /* \"#utility.yul\":1466:1584   */\n          pop\n          pop\n          jump\t// out\n            /* \"#utility.yul\":1590:1812   */\n        tag_10:\n            /* \"#utility.yul\":1683:1687   */\n          0x00\n            /* \"#utility.yul\":1721:1723   */\n          0x20\n            /* \"#utility.yul\":1710:1719   */\n          dup3\n            /* \"#utility.yul\":1706:1724   */\n          add\n            /* \"#utility.yul\":1698:1724   */\n          swap1\n          pop\n            /* \"#utility.yul\":1734:1805   */\n          tag_57\n            /* \"#utility.yul\":1802:1803   */\n          0x00\n            /* \"#utility.yul\":1791:1800   */\n          dup4\n            /* \"#utility.yul\":1787:1804   */\n          add\n            /* \"#utility.yul\":1778:1784   */\n          dup5\n            /* \"#utility.yul\":1734:1805   */\n          tag_32\n          jump\t// in\n        tag_57:\n            /* \"#utility.yul\":1590:1812   */\n          swap3\n          swap2\n          pop\n          pop\n          jump\t// out\n            /* \"#utility.yul\":1818:1940   */\n        tag_33:\n            /* \"#utility.yul\":1891:1915   */\n          tag_59\n            /* \"#utility.yul\":1909:1914   */\n          dup2\n            /* \"#utility.yul\":1891:1915   */\n          tag_31\n          jump\t// in\n        tag_59:\n            /* \"#utility.yul\":1884:1889   */\n          dup2\n            /* \"#utility.yul\":1881:1916   */\n          eq\n            /* \"#utility.yul\":1871:1934   */\n          tag_60\n          jumpi\n            /* \"#utility.yul\":1930:1931   */\n          0x00\n            /* \"#utility.yul\":1927:1928   */\n          dup1\n            /* \"#utility.yul\":1920:1932   */\n          revert\n            /* \"#utility.yul\":1871:1934   */\n        tag_60:\n            /* \"#utility.yul\":1818:1940   */\n          pop\n          jump\t// out\n            /* \"#utility.yul\":1946:2089   */\n        tag_34:\n            /* \"#utility.yul\":2003:2008   */\n          0x00\n            /* \"#utility.yul\":2034:2040   */\n          dup2\n            /* \"#utility.yul\":2028:2041   */\n          mload\n            /* \"#utility.yul\":2019:2041   */\n          swap1\n          pop\n            /* \"#utility.yul\":2050:2083   */\n          tag_62\n            /* \"#utility.yul\":2077:2082   */\n          dup2\n            /* \"#utility.yul\":2050:2083   */\n          tag_33\n          jump\t// in\n        tag_62:\n            /* \"#utility.yul\":1946:2089   */\n          swap3\n          swap2\n          pop\n          pop\n          jump\t// out\n            /* \"#utility.yul\":2095:2446   */\n        tag_18:\n            /* \"#utility.yul\":2165:2171   */\n          0x00\n            /* \"#utility.yul\":2214:2216   */\n          0x20\n            /* \"#utility.yul\":2202:2211   */\n          dup3\n            /* \"#utility.yul\":2193:2200   */\n          dup5\n            /* \"#utility.yul\":2189:2212   */\n          sub\n            /* \"#utility.yul\":2185:2217   */\n          slt\n            /* \"#utility.yul\":2182:2301   */\n          iszero\n          tag_64\n          jumpi\n            /* \"#utility.yul\":2220:2299   */\n          tag_65\n          tag_24\n          jump\t// in\n        tag_65:\n            /* \"#utility.yul\":2182:2301   */\n        tag_64:\n            /* \"#utility.yul\":2340:2341   */\n          0x00\n            /* \"#utility.yul\":2365:2429   */\n          tag_66\n            /* \"#utility.yul\":2421:2428   */\n          dup5\n            /* \"#utility.yul\":2412:2418   */\n          dup3\n            /* \"#utility.yul\":2401:2410   */\n          dup6\n            /* \"#utility.yul\":2397:2419   */\n          add\n            /* \"#utility.yul\":2365:2429   */\n          tag_34\n          jump\t// in\n        tag_66:\n            /* \"#utility.yul\":2355:2429   */\n          swap2\n          pop\n            /* \"#utility.yul\":2311:2439   */\n          pop\n            /* \"#utility.yul\":2095:2446   */\n          swap3\n          swap2\n          pop\n          pop\n          jump\t// out\n\n        auxdata: 0xa264697066735822122034f5c7cc0c9bef9780d8a0f886688c8c7371973039e8ac932191f44e319c7a8c64736f6c63430008120033\n    }\n}\n",
				"bytecode": {
					"linkReferences": {},
					"object": "608060405234801561001057600080fd5b5060405161001d90610150565b604051809103906000f080158015610039573d6000803e3d6000fd5b506000806101000a81548173ffffffffffffffffffffffffffffffffffffffff021916908373ffffffffffffffffffffffffffffffffffffffff1602179055506040516100859061015d565b604051809103906000f0801580156100a1573d6000803e3d6000fd5b50600160006101000a81548173ffffffffffffffffffffffffffffffffffffffff021916908373ffffffffffffffffffffffffffffffffffffffff1602179055506040516100ee9061016a565b604051809103906000f08015801561010a573d6000803e3d6000fd5b50600260006101000a81548173ffffffffffffffffffffffffffffffffffffffff021916908373ffffffffffffffffffffffffffffffffffffffff160217905550610177565b6101a3806105da83390190565b6101a38061077d83390190565b6102e78061092083390190565b610454806101866000396000f3fe608060405234801561001057600080fd5b506004361061002b5760003560e01c80637d6b981314610030575b600080fd5b61003861003a565b005b600260009054906101000a900473ffffffffffffffffffffffffffffffffffffffff1673ffffffffffffffffffffffffffffffffffffffff1663e5910ae760008054906101000a900473ffffffffffffffffffffffffffffffffffffffff166040518263ffffffff1660e01b81526004016100b5919061039b565b600060405180830381600087803b1580156100cf57600080fd5b505af11580156100e3573d6000803e3d6000fd5b50505050600260009054906101000a900473ffffffffffffffffffffffffffffffffffffffff1673ffffffffffffffffffffffffffffffffffffffff1663e5910ae7600160009054906101000a900473ffffffffffffffffffffffffffffffffffffffff166040518263ffffffff1660e01b8152600401610164919061039b565b600060405180830381600087803b15801561017e57600080fd5b505af1158015610192573d6000803e3d6000fd5b505050506000600260009054906101000a900473ffffffffffffffffffffffffffffffffffffffff1673ffffffffffffffffffffffffffffffffffffffff16634f0cd27b60008054906101000a900473ffffffffffffffffffffffffffffffffffffffff166040518263ffffffff1660e01b8152600401610213919061039b565b602060405180830381865afa158015610230573d6000803e3d6000fd5b505050506040513d601f19601f8201168201806040525081019061025491906103f1565b90506000600260009054906101000a900473ffffffffffffffffffffffffffffffffffffffff1673ffffffffffffffffffffffffffffffffffffffff16634f0cd27b600160009054906101000a900473ffffffffffffffffffffffffffffffffffffffff166040518263ffffffff1660e01b81526004016102d5919061039b565b602060405180830381865afa1580156102f2573d6000803e3d6000fd5b505050506040513d601f19601f8201168201806040525081019061031691906103f1565b90505050565b600073ffffffffffffffffffffffffffffffffffffffff82169050919050565b6000819050919050565b600061036161035c6103578461031c565b61033c565b61031c565b9050919050565b600061037382610346565b9050919050565b600061038582610368565b9050919050565b6103958161037a565b82525050565b60006020820190506103b0600083018461038c565b92915050565b600080fd5b6000819050919050565b6103ce816103bb565b81146103d957600080fd5b50565b6000815190506103eb816103c5565b92915050565b600060208284031215610407576104066103b6565b5b6000610415848285016103dc565b9150509291505056fea264697066735822122023d7f8ea22d00a849d480ab960d3afed95c77fc75173211577c9c352c759cde164736f6c63430008120033608060405234801561001057600080fd5b50610183806100206000396000f3fe608060405234801561001057600080fd5b50600436106100415760003560e01c806306661abd14610046578063a87d942c14610064578063d09de08a14610082575b600080fd5b61004e61008c565b60405161005b91906100cf565b60405180910390f35b61006c610092565b60405161007991906100cf565b60405180910390f35b61008a61009b565b005b60005481565b60008054905090565b60016000808282546100ad9190610119565b92505081905550565b6000819050919050565b6100c9816100b6565b82525050565b60006020820190506100e460008301846100c0565b92915050565b7f4e487b7100000000000000000000000000000000000000000000000000000000600052601160045260246000fd5b6000610124826100b6565b915061012f836100b6565b9250828201905080821115610147576101466100ea565b5b9291505056fea2646970667358221220385c8793f664033cb8bf0d9712d9408e17f6bc4409edd916c1da10ba4b8151ac64736f6c63430008120033608060405234801561001057600080fd5b50610183806100206000396000f3fe608060405234801561001057600080fd5b50600436106100415760003560e01c806306661abd14610046578063a87d942c14610064578063d09de08a14610082575b600080fd5b61004e61008c565b60405161005b91906100cf565b60405180910390f35b61006c610092565b60405161007991906100cf565b60405180910390f35b61008a61009b565b005b60005481565b60008054905090565b60026000808282546100ad9190610119565b92505081905550565b6000819050919050565b6100c9816100b6565b82525050565b60006020820190506100e460008301846100c0565b92915050565b7f4e487b7100000000000000000000000000000000000000000000000000000000600052601160045260246000fd5b6000610124826100b6565b915061012f836100b6565b9250828201905080821115610147576101466100ea565b5b9291505056fea264697066735822122005e7a5d926391ca1e5ec2d9291b388f43c0a0335ccb508a7e4fcb8108e65be2964736f6c63430008120033608060405234801561001057600080fd5b506102c7806100206000396000f3fe608060405234801561001057600080fd5b50600436106100365760003560e01c80634f0cd27b1461003b578063e5910ae71461006b575b600080fd5b610055600480360381019061005091906101d7565b610087565b604051610062919061021d565b60405180910390f35b610085600480360381019061008091906101d7565b6100ff565b005b60008173ffffffffffffffffffffffffffffffffffffffff166306661abd6040518163ffffffff1660e01b8152600401602060405180830381865afa1580156100d4573d6000803e3d6000fd5b505050506040513d601f19601f820116820180604052508101906100f89190610264565b9050919050565b8073ffffffffffffffffffffffffffffffffffffffff1663d09de08a6040518163ffffffff1660e01b8152600401600060405180830381600087803b15801561014757600080fd5b505af115801561015b573d6000803e3d6000fd5b5050505050565b600080fd5b600073ffffffffffffffffffffffffffffffffffffffff82169050919050565b600061019282610167565b9050919050565b60006101a482610187565b9050919050565b6101b481610199565b81146101bf57600080fd5b50565b6000813590506101d1816101ab565b92915050565b6000602082840312156101ed576101ec610162565b5b60006101fb848285016101c2565b91505092915050565b6000819050919050565b61021781610204565b82525050565b6000602082019050610232600083018461020e565b92915050565b61024181610204565b811461024c57600080fd5b50565b60008151905061025e81610238565b92915050565b60006020828403121561027a57610279610162565b5b60006102888482850161024f565b9150509291505056fea264697066735822122034f5c7cc0c9bef9780d8a0f886688c8c7371973039e8ac932191f44e319c7a8c64736f6c63430008120033",
					"opcodes": "PUSH1 0x80 PUSH1 0x40 MSTORE CALLVALUE DUP1 ISZERO PUSH2 0x10 JUMPI PUSH1 0x0 DUP1 REVERT JUMPDEST POP PUSH1 0x40 MLOAD PUSH2 0x1D SWAP1 PUSH2 0x150 JUMP JUMPDEST PUSH1 0x40 MLOAD DUP1 SWAP2 SUB SWAP1 PUSH1 0x0 CREATE DUP1 ISZERO DUP1 ISZERO PUSH2 0x39 JUMPI RETURNDATASIZE PUSH1 0x0 DUP1 RETURNDATACOPY RETURNDATASIZE PUSH1 0x0 REVERT JUMPDEST POP PUSH1 0x0 DUP1 PUSH2 0x100 EXP DUP2 SLOAD DUP2 PUSH20 0xFFFFFFFFFFFFFFFFFFFFFFFFFFFFFFFFFFFFFFFF MUL NOT AND SWAP1 DUP4 PUSH20 0xFFFFFFFFFFFFFFFFFFFFFFFFFFFFFFFFFFFFFFFF AND MUL OR SWAP1 SSTORE POP PUSH1 0x40 MLOAD PUSH2 0x85 SWAP1 PUSH2 0x15D JUMP JUMPDEST PUSH1 0x40 MLOAD DUP1 SWAP2 SUB SWAP1 PUSH1 0x0 CREATE DUP1 ISZERO DUP1 ISZERO PUSH2 0xA1 JUMPI RETURNDATASIZE PUSH1 0x0 DUP1 RETURNDATACOPY RETURNDATASIZE PUSH1 0x0 REVERT JUMPDEST POP PUSH1 0x1 PUSH1 0x0 PUSH2 0x100 EXP DUP2 SLOAD DUP2 PUSH20 0xFFFFFFFFFFFFFFFFFFFFFFFFFFFFFFFFFFFFFFFF MUL NOT AND SWAP1 DUP4 PUSH20 0xFFFFFFFFFFFFFFFFFFFFFFFFFFFFFFFFFFFFFFFF AND MUL OR SWAP1 SSTORE POP PUSH1 0x40 MLOAD PUSH2 0xEE SWAP1 PUSH2 0x16A JUMP JUMPDEST PUSH1 0x40 MLOAD DUP1 SWAP2 SUB SWAP1 PUSH1 0x0 CREATE DUP1 ISZERO DUP1 ISZERO PUSH2 0x10A JUMPI RETURNDATASIZE PUSH1 0x0 DUP1 RETURNDATACOPY RETURNDATASIZE PUSH1 0x0 REVERT JUMPDEST POP PUSH1 0x2 PUSH1 0x0 PUSH2 0x100 EXP DUP2 SLOAD DUP2 PUSH20 0xFFFFFFFFFFFFFFFFFFFFFFFFFFFFFFFFFFFFFFFF MUL NOT AND SWAP1 DUP4 PUSH20 0xFFFFFFFFFFFFFFFFFFFFFFFFFFFFFFFFFFFFFFFF AND MUL OR SWAP1 SSTORE POP PUSH2 0x177 JUMP JUMPDEST PUSH2 0x1A3 DUP1 PUSH2 0x5DA DUP4 CODECOPY ADD SWAP1 JUMP JUMPDEST PUSH2 0x1A3 DUP1 PUSH2 0x77D DUP4 CODECOPY ADD SWAP1 JUMP JUMPDEST PUSH2 0x2E7 DUP1 PUSH2 0x920 DUP4 CODECOPY ADD SWAP1 JUMP JUMPDEST PUSH2 0x454 DUP1 PUSH2 0x186 PUSH1 0x0 CODECOPY PUSH1 0x0 RETURN INVALID PUSH1 0x80 PUSH1 0x40 MSTORE CALLVALUE DUP1 ISZERO PUSH2 0x10 JUMPI PUSH1 0x0 DUP1 REVERT JUMPDEST POP PUSH1 0x4 CALLDATASIZE LT PUSH2 0x2B JUMPI PUSH1 0x0 CALLDATALOAD PUSH1 0xE0 SHR DUP1 PUSH4 0x7D6B9813 EQ PUSH2 0x30 JUMPI JUMPDEST PUSH1 0x0 DUP1 REVERT JUMPDEST PUSH2 0x38 PUSH2 0x3A JUMP JUMPDEST STOP JUMPDEST PUSH1 0x2 PUSH1 0x0 SWAP1 SLOAD SWAP1 PUSH2 0x100 EXP SWAP1 DIV PUSH20 0xFFFFFFFFFFFFFFFFFFFFFFFFFFFFFFFFFFFFFFFF AND PUSH20 0xFFFFFFFFFFFFFFFFFFFFFFFFFFFFFFFFFFFFFFFF AND PUSH4 0xE5910AE7 PUSH1 0x0 DUP1 SLOAD SWAP1 PUSH2 0x100 EXP SWAP1 DIV PUSH20 0xFFFFFFFFFFFFFFFFFFFFFFFFFFFFFFFFFFFFFFFF AND PUSH1 0x40 MLOAD DUP3 PUSH4 0xFFFFFFFF AND PUSH1 0xE0 SHL DUP2 MSTORE PUSH1 0x4 ADD PUSH2 0xB5 SWAP2 SWAP1 PUSH2 0x39B JUMP JUMPDEST PUSH1 0x0 PUSH1 0x40 MLOAD DUP1 DUP4 SUB DUP2 PUSH1 0x0 DUP8 DUP1 EXTCODESIZE ISZERO DUP1 ISZERO PUSH2 0xCF JUMPI PUSH1 0x0 DUP1 REVERT JUMPDEST POP GAS CALL ISZERO DUP1 ISZERO PUSH2 0xE3 JUMPI RETURNDATASIZE PUSH1 0x0 DUP1 RETURNDATACOPY RETURNDATASIZE PUSH1 0x0 REVERT JUMPDEST POP POP POP POP PUSH1 0x2 PUSH1 0x0 SWAP1 SLOAD SWAP1 PUSH2 0x100 EXP SWAP1 DIV PUSH20 0xFFFFFFFFFFFFFFFFFFFFFFFFFFFFFFFFFFFFFFFF AND PUSH20 0xFFFFFFFFFFFFFFFFFFFFFFFFFFFFFFFFFFFFFFFF AND PUSH4 0xE5910AE7 PUSH1 0x1 PUSH1 0x0 SWAP1 SLOAD SWAP1 PUSH2 0x100 EXP SWAP1 DIV PUSH20 0xFFFFFFFFFFFFFFFFFFFFFFFFFFFFFFFFFFFFFFFF AND PUSH1 0x40 MLOAD DUP3 PUSH4 0xFFFFFFFF AND PUSH1 0xE0 SHL DUP2 MSTORE PUSH1 0x4 ADD PUSH2 0x164 SWAP2 SWAP1 PUSH2 0x39B JUMP JUMPDEST PUSH1 0x0 PUSH1 0x40 MLOAD DUP1 DUP4 SUB DUP2 PUSH1 0x0 DUP8 DUP1 EXTCODESIZE ISZERO DUP1 ISZERO PUSH2 0x17E JUMPI PUSH1 0x0 DUP1 REVERT JUMPDEST POP GAS CALL ISZERO DUP1 ISZERO PUSH2 0x192 JUMPI RETURNDATASIZE PUSH1 0x0 DUP1 RETURNDATACOPY RETURNDATASIZE PUSH1 0x0 REVERT JUMPDEST POP POP POP POP PUSH1 0x0 PUSH1 0x2 PUSH1 0x0 SWAP1 SLOAD SWAP1 PUSH2 0x100 EXP SWAP1 DIV PUSH20 0xFFFFFFFFFFFFFFFFFFFFFFFFFFFFFFFFFFFFFFFF AND PUSH20 0xFFFFFFFFFFFFFFFFFFFFFFFFFFFFFFFFFFFFFFFF AND PUSH4 0x4F0CD27B PUSH1 0x0 DUP1 SLOAD SWAP1 PUSH2 0x100 EXP SWAP1 DIV PUSH20 0xFFFFFFFFFFFFFFFFFFFFFFFFFFFFFFFFFFFFFFFF AND PUSH1 0x40 MLOAD DUP3 PUSH4 0xFFFFFFFF AND PUSH1 0xE0 SHL DUP2 MSTORE PUSH1 0x4 ADD PUSH2 0x213 SWAP2 SWAP1 PUSH2 0x39B JUMP JUMPDEST PUSH1 0x20 PUSH1 0x40 MLOAD DUP1 DUP4 SUB DUP2 DUP7 GAS STATICCALL ISZERO DUP1 ISZERO PUSH2 0x230 JUMPI RETURNDATASIZE PUSH1 0x0 DUP1 RETURNDATACOPY RETURNDATASIZE PUSH1 0x0 REVERT JUMPDEST POP POP POP POP PUSH1 0x40 MLOAD RETURNDATASIZE PUSH1 0x1F NOT PUSH1 0x1F DUP3 ADD AND DUP3 ADD DUP1 PUSH1 0x40 MSTORE POP DUP2 ADD SWAP1 PUSH2 0x254 SWAP2 SWAP1 PUSH2 0x3F1 JUMP JUMPDEST SWAP1 POP PUSH1 0x0 PUSH1 0x2 PUSH1 0x0 SWAP1 SLOAD SWAP1 PUSH2 0x100 EXP SWAP1 DIV PUSH20 0xFFFFFFFFFFFFFFFFFFFFFFFFFFFFFFFFFFFFFFFF AND PUSH20 0xFFFFFFFFFFFFFFFFFFFFFFFFFFFFFFFFFFFFFFFF AND PUSH4 0x4F0CD27B PUSH1 0x1 PUSH1 0x0 SWAP1 SLOAD SWAP1 PUSH2 0x100 EXP SWAP1 DIV PUSH20 0xFFFFFFFFFFFFFFFFFFFFFFFFFFFFFFFFFFFFFFFF AND PUSH1 0x40 MLOAD DUP3 PUSH4 0xFFFFFFFF AND PUSH1 0xE0 SHL DUP2 MSTORE PUSH1 0x4 ADD PUSH2 0x2D5 SWAP2 SWAP1 PUSH2 0x39B JUMP JUMPDEST PUSH1 0x20 PUSH1 0x40 MLOAD DUP1 DUP4 SUB DUP2 DUP7 GAS STATICCALL ISZERO DUP1 ISZERO PUSH2 0x2F2 JUMPI RETURNDATASIZE PUSH1 0x0 DUP1 RETURNDATACOPY RETURNDATASIZE PUSH1 0x0 REVERT JUMPDEST POP POP POP POP PUSH1 0x40 MLOAD RETURNDATASIZE PUSH1 0x1F NOT PUSH1 0x1F DUP3 ADD AND DUP3 ADD DUP1 PUSH1 0x40 MSTORE POP DUP2 ADD SWAP1 PUSH2 0x316 SWAP2 SWAP1 PUSH2 0x3F1 JUMP JUMPDEST SWAP1 POP POP POP JUMP JUMPDEST PUSH1 0x0 PUSH20 0xFFFFFFFFFFFFFFFFFFFFFFFFFFFFFFFFFFFFFFFF DUP3 AND SWAP1 POP SWAP2 SWAP1 POP JUMP JUMPDEST PUSH1 0x0 DUP2 SWAP1 POP SWAP2 SWAP1 POP JUMP JUMPDEST PUSH1 0x0 PUSH2 0x361 PUSH2 0x35C PUSH2 0x357 DUP5 PUSH2 0x31C JUMP JUMPDEST PUSH2 0x33C JUMP JUMPDEST PUSH2 0x31C JUMP JUMPDEST SWAP1 POP SWAP2 SWAP1 POP JUMP JUMPDEST PUSH1 0x0 PUSH2 0x373 DUP3 PUSH2 0x346 JUMP JUMPDEST SWAP1 POP SWAP2 SWAP1 POP JUMP JUMPDEST PUSH1 0x0 PUSH2 0x385 DUP3 PUSH2 0x368 JUMP JUMPDEST SWAP1 POP SWAP2 SWAP1 POP JUMP JUMPDEST PUSH2 0x395 DUP2 PUSH2 0x37A JUMP JUMPDEST DUP3 MSTORE POP POP JUMP JUMPDEST PUSH1 0x0 PUSH1 0x20 DUP3 ADD SWAP1 POP PUSH2 0x3B0 PUSH1 0x0 DUP4 ADD DUP5 PUSH2 0x38C JUMP JUMPDEST SWAP3 SWAP2 POP POP JUMP JUMPDEST PUSH1 0x0 DUP1 REVERT JUMPDEST PUSH1 0x0 DUP2 SWAP1 POP SWAP2 SWAP1 POP JUMP JUMPDEST PUSH2 0x3CE DUP2 PUSH2 0x3BB JUMP JUMPDEST DUP2 EQ PUSH2 0x3D9 JUMPI PUSH1 0x0 DUP1 REVERT JUMPDEST POP JUMP JUMPDEST PUSH1 0x0 DUP2 MLOAD SWAP1 POP PUSH2 0x3EB DUP2 PUSH2 0x3C5 JUMP JUMPDEST SWAP3 SWAP2 POP POP JUMP JUMPDEST PUSH1 0x0 PUSH1 0x20 DUP3 DUP5 SUB SLT ISZERO PUSH2 0x407 JUMPI PUSH2 0x406 PUSH2 0x3B6 JUMP JUMPDEST JUMPDEST PUSH1 0x0 PUSH2 0x415 DUP5 DUP3 DUP6 ADD PUSH2 0x3DC JUMP JUMPDEST SWAP2 POP POP SWAP3 SWAP2 POP POP JUMP INVALID LOG2 PUSH5 0x6970667358 0x22 SLT KECCAK256 0x23 0xD7 0xF8 0xEA 0x22 0xD0 EXP DUP5 SWAP14 BASEFEE EXP 0xB9 PUSH1 0xD3 0xAF 0xED SWAP6 0xC7 PUSH32 0xC75173211577C9C352C759CDE164736F6C634300081200336080604052348015 PUSH2 0x10 JUMPI PUSH1 0x0 DUP1 REVERT JUMPDEST POP PUSH2 0x183 DUP1 PUSH2 0x20 PUSH1 0x0 CODECOPY PUSH1 0x0 RETURN INVALID PUSH1 0x80 PUSH1 0x40 MSTORE CALLVALUE DUP1 ISZERO PUSH2 0x10 JUMPI PUSH1 0x0 DUP1 REVERT JUMPDEST POP PUSH1 0x4 CALLDATASIZE LT PUSH2 0x41 JUMPI PUSH1 0x0 CALLDATALOAD PUSH1 0xE0 SHR DUP1 PUSH4 0x6661ABD EQ PUSH2 0x46 JUMPI DUP1 PUSH4 0xA87D942C EQ PUSH2 0x64 JUMPI DUP1 PUSH4 0xD09DE08A EQ PUSH2 0x82 JUMPI JUMPDEST PUSH1 0x0 DUP1 REVERT JUMPDEST PUSH2 0x4E PUSH2 0x8C JUMP JUMPDEST PUSH1 0x40 MLOAD PUSH2 0x5B SWAP2 SWAP1 PUSH2 0xCF JUMP JUMPDEST PUSH1 0x40 MLOAD DUP1 SWAP2 SUB SWAP1 RETURN JUMPDEST PUSH2 0x6C PUSH2 0x92 JUMP JUMPDEST PUSH1 0x40 MLOAD PUSH2 0x79 SWAP2 SWAP1 PUSH2 0xCF JUMP JUMPDEST PUSH1 0x40 MLOAD DUP1 SWAP2 SUB SWAP1 RETURN JUMPDEST PUSH2 0x8A PUSH2 0x9B JUMP JUMPDEST STOP JUMPDEST PUSH1 0x0 SLOAD DUP2 JUMP JUMPDEST PUSH1 0x0 DUP1 SLOAD SWAP1 POP SWAP1 JUMP JUMPDEST PUSH1 0x1 PUSH1 0x0 DUP1 DUP3 DUP3 SLOAD PUSH2 0xAD SWAP2 SWAP1 PUSH2 0x119 JUMP JUMPDEST SWAP3 POP POP DUP2 SWAP1 SSTORE POP JUMP JUMPDEST PUSH1 0x0 DUP2 SWAP1 POP SWAP2 SWAP1 POP JUMP JUMPDEST PUSH2 0xC9 DUP2 PUSH2 0xB6 JUMP JUMPDEST DUP3 MSTORE POP POP JUMP JUMPDEST PUSH1 0x0 PUSH1 0x20 DUP3 ADD SWAP1 POP PUSH2 0xE4 PUSH1 0x0 DUP4 ADD DUP5 PUSH2 0xC0 JUMP JUMPDEST SWAP3 SWAP2 POP POP JUMP JUMPDEST PUSH32 0x4E487B7100000000000000000000000000000000000000000000000000000000 PUSH1 0x0 MSTORE PUSH1 0x11 PUSH1 0x4 MSTORE PUSH1 0x24 PUSH1 0x0 REVERT JUMPDEST PUSH1 0x0 PUSH2 0x124 DUP3 PUSH2 0xB6 JUMP JUMPDEST SWAP2 POP PUSH2 0x12F DUP4 PUSH2 0xB6 JUMP JUMPDEST SWAP3 POP DUP3 DUP3 ADD SWAP1 POP DUP1 DUP3 GT ISZERO PUSH2 0x147 JUMPI PUSH2 0x146 PUSH2 0xEA JUMP JUMPDEST JUMPDEST SWAP3 SWAP2 POP POP JUMP INVALID LOG2 PUSH5 0x6970667358 0x22 SLT KECCAK256 CODESIZE 0x5C DUP8 SWAP4 0xF6 PUSH5 0x33CB8BF0D SWAP8 SLT 0xD9 BLOCKHASH DUP15 OR 0xF6 0xBC PREVRANDAO MULMOD 0xED 0xD9 AND 0xC1 0xDA LT 0xBA 0x4B DUP2 MLOAD 0xAC PUSH5 0x736F6C6343 STOP ADDMOD SLT STOP CALLER PUSH1 0x80 PUSH1 0x40 MSTORE CALLVALUE DUP1 ISZERO PUSH2 0x10 JUMPI PUSH1 0x0 DUP1 REVERT JUMPDEST POP PUSH2 0x183 DUP1 PUSH2 0x20 PUSH1 0x0 CODECOPY PUSH1 0x0 RETURN INVALID PUSH1 0x80 PUSH1 0x40 MSTORE CALLVALUE DUP1 ISZERO PUSH2 0x10 JUMPI PUSH1 0x0 DUP1 REVERT JUMPDEST POP PUSH1 0x4 CALLDATASIZE LT PUSH2 0x41 JUMPI PUSH1 0x0 CALLDATALOAD PUSH1 0xE0 SHR DUP1 PUSH4 0x6661ABD EQ PUSH2 0x46 JUMPI DUP1 PUSH4 0xA87D942C EQ PUSH2 0x64 JUMPI DUP1 PUSH4 0xD09DE08A EQ PUSH2 0x82 JUMPI JUMPDEST PUSH1 0x0 DUP1 REVERT JUMPDEST PUSH2 0x4E PUSH2 0x8C JUMP JUMPDEST PUSH1 0x40 MLOAD PUSH2 0x5B SWAP2 SWAP1 PUSH2 0xCF JUMP JUMPDEST PUSH1 0x40 MLOAD DUP1 SWAP2 SUB SWAP1 RETURN JUMPDEST PUSH2 0x6C PUSH2 0x92 JUMP JUMPDEST PUSH1 0x40 MLOAD PUSH2 0x79 SWAP2 SWAP1 PUSH2 0xCF JUMP JUMPDEST PUSH1 0x40 MLOAD DUP1 SWAP2 SUB SWAP1 RETURN JUMPDEST PUSH2 0x8A PUSH2 0x9B JUMP JUMPDEST STOP JUMPDEST PUSH1 0x0 SLOAD DUP2 JUMP JUMPDEST PUSH1 0x0 DUP1 SLOAD SWAP1 POP SWAP1 JUMP JUMPDEST PUSH1 0x2 PUSH1 0x0 DUP1 DUP3 DUP3 SLOAD PUSH2 0xAD SWAP2 SWAP1 PUSH2 0x119 JUMP JUMPDEST SWAP3 POP POP DUP2 SWAP1 SSTORE POP JUMP JUMPDEST PUSH1 0x0 DUP2 SWAP1 POP SWAP2 SWAP1 POP JUMP JUMPDEST PUSH2 0xC9 DUP2 PUSH2 0xB6 JUMP JUMPDEST DUP3 MSTORE POP POP JUMP JUMPDEST PUSH1 0x0 PUSH1 0x20 DUP3 ADD SWAP1 POP PUSH2 0xE4 PUSH1 0x0 DUP4 ADD DUP5 PUSH2 0xC0 JUMP JUMPDEST SWAP3 SWAP2 POP POP JUMP JUMPDEST PUSH32 0x4E487B7100000000000000000000000000000000000000000000000000000000 PUSH1 0x0 MSTORE PUSH1 0x11 PUSH1 0x4 MSTORE PUSH1 0x24 PUSH1 0x0 REVERT JUMPDEST PUSH1 0x0 PUSH2 0x124 DUP3 PUSH2 0xB6 JUMP JUMPDEST SWAP2 POP PUSH2 0x12F DUP4 PUSH2 0xB6 JUMP JUMPDEST SWAP3 POP DUP3 DUP3 ADD SWAP1 POP DUP1 DUP3 GT ISZERO PUSH2 0x147 JUMPI PUSH2 0x146 PUSH2 0xEA JUMP JUMPDEST JUMPDEST SWAP3 SWAP2 POP POP JUMP INVALID LOG2 PUSH5 0x6970667358 0x22 SLT KECCAK256 SDIV 0xE7 0xA5 0xD9 0x26 CODECOPY SHR LOG1 0xE5 0xEC 0x2D SWAP3 SWAP2 0xB3 DUP9 DELEGATECALL EXTCODECOPY EXP SUB CALLDATALOAD 0xCC 0xB5 ADDMOD 0xA7 0xE4 0xFC 0xB8 LT DUP15 PUSH6 0xBE2964736F6C PUSH4 0x43000812 STOP CALLER PUSH1 0x80 PUSH1 0x40 MSTORE CALLVALUE DUP1 ISZERO PUSH2 0x10 JUMPI PUSH1 0x0 DUP1 REVERT JUMPDEST POP PUSH2 0x2C7 DUP1 PUSH2 0x20 PUSH1 0x0 CODECOPY PUSH1 0x0 RETURN INVALID PUSH1 0x80 PUSH1 0x40 MSTORE CALLVALUE DUP1 ISZERO PUSH2 0x10 JUMPI PUSH1 0x0 DUP1 REVERT JUMPDEST POP PUSH1 0x4 CALLDATASIZE LT PUSH2 0x36 JUMPI PUSH1 0x0 CALLDATALOAD PUSH1 0xE0 SHR DUP1 PUSH4 0x4F0CD27B EQ PUSH2 0x3B JUMPI DUP1 PUSH4 0xE5910AE7 EQ PUSH2 0x6B JUMPI JUMPDEST PUSH1 0x0 DUP1 REVERT JUMPDEST PUSH2 0x55 PUSH1 0x4 DUP1 CALLDATASIZE SUB DUP2 ADD SWAP1 PUSH2 0x50 SWAP2 SWAP1 PUSH2 0x1D7 JUMP JUMPDEST PUSH2 0x87 JUMP JUMPDEST PUSH1 0x40 MLOAD PUSH2 0x62 SWAP2 SWAP1 PUSH2 0x21D JUMP JUMPDEST PUSH1 0x40 MLOAD DUP1 SWAP2 SUB SWAP1 RETURN JUMPDEST PUSH2 0x85 PUSH1 0x4 DUP1 CALLDATASIZE SUB DUP2 ADD SWAP1 PUSH2 0x80 SWAP2 SWAP1 PUSH2 0x1D7 JUMP JUMPDEST PUSH2 0xFF JUMP JUMPDEST STOP JUMPDEST PUSH1 0x0 DUP2 PUSH20 0xFFFFFFFFFFFFFFFFFFFFFFFFFFFFFFFFFFFFFFFF AND PUSH4 0x6661ABD PUSH1 0x40 MLOAD DUP2 PUSH4 0xFFFFFFFF AND PUSH1 0xE0 SHL DUP2 MSTORE PUSH1 0x4 ADD PUSH1 0x20 PUSH1 0x40 MLOAD DUP1 DUP4 SUB DUP2 DUP7 GAS STATICCALL ISZERO DUP1 ISZERO PUSH2 0xD4 JUMPI RETURNDATASIZE PUSH1 0x0 DUP1 RETURNDATACOPY RETURNDATASIZE PUSH1 0x0 REVERT JUMPDEST POP POP POP POP PUSH1 0x40 MLOAD RETURNDATASIZE PUSH1 0x1F NOT PUSH1 0x1F DUP3 ADD AND DUP3 ADD DUP1 PUSH1 0x40 MSTORE POP DUP2 ADD SWAP1 PUSH2 0xF8 SWAP2 SWAP1 PUSH2 0x264 JUMP JUMPDEST SWAP1 POP SWAP2 SWAP1 POP JUMP JUMPDEST DUP1 PUSH20 0xFFFFFFFFFFFFFFFFFFFFFFFFFFFFFFFFFFFFFFFF AND PUSH4 0xD09DE08A PUSH1 0x40 MLOAD DUP2 PUSH4 0xFFFFFFFF AND PUSH1 0xE0 SHL DUP2 MSTORE PUSH1 0x4 ADD PUSH1 0x0 PUSH1 0x40 MLOAD DUP1 DUP4 SUB DUP2 PUSH1 0x0 DUP8 DUP1 EXTCODESIZE ISZERO DUP1 ISZERO PUSH2 0x147 JUMPI PUSH1 0x0 DUP1 REVERT JUMPDEST POP GAS CALL ISZERO DUP1 ISZERO PUSH2 0x15B JUMPI RETURNDATASIZE PUSH1 0x0 DUP1 RETURNDATACOPY RETURNDATASIZE PUSH1 0x0 REVERT JUMPDEST POP POP POP POP POP JUMP JUMPDEST PUSH1 0x0 DUP1 REVERT JUMPDEST PUSH1 0x0 PUSH20 0xFFFFFFFFFFFFFFFFFFFFFFFFFFFFFFFFFFFFFFFF DUP3 AND SWAP1 POP SWAP2 SWAP1 POP JUMP JUMPDEST PUSH1 0x0 PUSH2 0x192 DUP3 PUSH2 0x167 JUMP JUMPDEST SWAP1 POP SWAP2 SWAP1 POP JUMP JUMPDEST PUSH1 0x0 PUSH2 0x1A4 DUP3 PUSH2 0x187 JUMP JUMPDEST SWAP1 POP SWAP2 SWAP1 POP JUMP JUMPDEST PUSH2 0x1B4 DUP2 PUSH2 0x199 JUMP JUMPDEST DUP2 EQ PUSH2 0x1BF JUMPI PUSH1 0x0 DUP1 REVERT JUMPDEST POP JUMP JUMPDEST PUSH1 0x0 DUP2 CALLDATALOAD SWAP1 POP PUSH2 0x1D1 DUP2 PUSH2 0x1AB JUMP JUMPDEST SWAP3 SWAP2 POP POP JUMP JUMPDEST PUSH1 0x0 PUSH1 0x20 DUP3 DUP5 SUB SLT ISZERO PUSH2 0x1ED JUMPI PUSH2 0x1EC PUSH2 0x162 JUMP JUMPDEST JUMPDEST PUSH1 0x0 PUSH2 0x1FB DUP5 DUP3 DUP6 ADD PUSH2 0x1C2 JUMP JUMPDEST SWAP2 POP POP SWAP3 SWAP2 POP POP JUMP JUMPDEST PUSH1 0x0 DUP2 SWAP1 POP SWAP2 SWAP1 POP JUMP JUMPDEST PUSH2 0x217 DUP2 PUSH2 0x204 JUMP JUMPDEST DUP3 MSTORE POP POP JUMP JUMPDEST PUSH1 0x0 PUSH1 0x20 DUP3 ADD SWAP1 POP PUSH2 0x232 PUSH1 0x0 DUP4 ADD DUP5 PUSH2 0x20E JUMP JUMPDEST SWAP3 SWAP2 POP POP JUMP JUMPDEST PUSH2 0x241 DUP2 PUSH2 0x204 JUMP JUMPDEST DUP2 EQ PUSH2 0x24C JUMPI PUSH1 0x0 DUP1 REVERT JUMPDEST POP JUMP JUMPDEST PUSH1 0x0 DUP2 MLOAD SWAP1 POP PUSH2 0x25E DUP2 PUSH2 0x238 JUMP JUMPDEST SWAP3 SWAP2 POP POP JUMP JUMPDEST PUSH1 0x0 PUSH1 0x20 DUP3 DUP5 SUB SLT ISZERO PUSH2 0x27A JUMPI PUSH2 0x279 PUSH2 0x162 JUMP JUMPDEST JUMPDEST PUSH1 0x0 PUSH2 0x288 DUP5 DUP3 DUP6 ADD PUSH2 0x24F JUMP JUMPDEST SWAP2 POP POP SWAP3 SWAP2 POP POP JUMP INVALID LOG2 PUSH5 0x6970667358 0x22 SLT KECCAK256 CALLVALUE CREATE2 0xC7 0xCC 0xC SWAP12 0xEF SWAP8 DUP1 0xD8 LOG0 0xF8 DUP7 PUSH9 0x8C8C7371973039E8AC SWAP4 0x21 SWAP2 DELEGATECALL 0x4E BALANCE SWAP13 PUSH27 0x8C64736F6C63430008120033000000000000000000000000000000 "
				},
				"gasEstimates": {
					"creation": {
						"codeDepositCost": "221600",
						"executionCost": "infinite",
						"totalCost": "infinite"
					},
					"external": {
						"interactWithCounters()": "infinite"
					}
				},
				"methodIdentifiers": {
					"interactWithCounters()": "7d6b9813"
				}
			},
			"storageLayout": {
				"storage": [
					{
						"astId": 77,
						"contract": "contracts/d.sol:MainContract",
						"label": "counterA",
						"offset": 0,
						"slot": "0",
						"type": "t_contract(CounterA)29"
					},
					{
						"astId": 80,
						"contract": "contracts/d.sol:MainContract",
						"label": "counterB",
						"offset": 0,
						"slot": "1",
						"type": "t_contract(CounterB)48"
					},
					{
						"astId": 83,
						"contract": "contracts/d.sol:MainContract",
						"label": "manager",
						"offset": 0,
						"slot": "2",
						"type": "t_contract(CounterManager)74"
					}
				],
				"types": {
					"t_contract(CounterA)29": {
						"encoding": "inplace",
						"label": "contract CounterA",
						"numberOfBytes": "20"
					},
					"t_contract(CounterB)48": {
						"encoding": "inplace",
						"label": "contract CounterB",
						"numberOfBytes": "20"
					},
					"t_contract(CounterManager)74": {
						"encoding": "inplace",
						"label": "contract CounterManager",
						"numberOfBytes": "20"
					}
				}
			},
			"userdoc": {
				"kind": "user",
				"methods": {},
				"version": 1
			}
		}
	}
}