{
	"contracts/lockedcrypto.sol": {
		"lockedcrypto": {
			"abi": [
				{
					"anonymous": false,
					"inputs": [
						{
							"indexed": false,
							"internalType": "address",
							"name": "user",
							"type": "address"
						},
						{
							"indexed": false,
							"internalType": "uint256",
							"name": "depositamount",
							"type": "uint256"
						},
						{
							"indexed": false,
							"internalType": "uint256",
							"name": "lockdate",
							"type": "uint256"
						},
						{
							"indexed": false,
							"internalType": "uint256",
							"name": "userid",
							"type": "uint256"
						},
						{
							"indexed": false,
							"internalType": "uint256",
							"name": "orderid",
							"type": "uint256"
						}
					],
					"name": "userdetailss",
					"type": "event"
				},
				{
					"inputs": [
						{
							"internalType": "uint256",
							"name": "",
							"type": "uint256"
						}
					],
					"name": "Alldetails",
					"outputs": [
						{
							"internalType": "address payable",
							"name": "user",
							"type": "address"
						},
						{
							"internalType": "uint256",
							"name": "amount",
							"type": "uint256"
						},
						{
							"internalType": "uint256",
							"name": "lockedperoid",
							"type": "uint256"
						},
						{
							"internalType": "uint256",
							"name": "id",
							"type": "uint256"
						},
						{
							"internalType": "uint256",
							"name": "orderid",
							"type": "uint256"
						}
					],
					"stateMutability": "view",
					"type": "function"
				},
				{
					"inputs": [
						{
							"internalType": "uint256",
							"name": "_lockedperoid",
							"type": "uint256"
						}
					],
					"name": "deposit",
					"outputs": [],
					"stateMutability": "payable",
					"type": "function"
				},
				{
					"inputs": [
						{
							"internalType": "address",
							"name": "userAddress",
							"type": "address"
						}
					],
					"name": "getUserOrders",
					"outputs": [
						{
							"internalType": "uint256[]",
							"name": "",
							"type": "uint256[]"
						}
					],
					"stateMutability": "view",
					"type": "function"
				},
				{
					"inputs": [
						{
							"internalType": "address",
							"name": "userAddress",
							"type": "address"
						}
					],
					"name": "getUserid",
					"outputs": [
						{
							"internalType": "uint256[]",
							"name": "",
							"type": "uint256[]"
						}
					],
					"stateMutability": "view",
					"type": "function"
				},
				{
					"inputs": [
						{
							"internalType": "address",
							"name": "",
							"type": "address"
						},
						{
							"internalType": "uint256",
							"name": "",
							"type": "uint256"
						}
					],
					"name": "lockedtime",
					"outputs": [
						{
							"internalType": "uint256",
							"name": "",
							"type": "uint256"
						}
					],
					"stateMutability": "view",
					"type": "function"
				},
				{
					"inputs": [
						{
							"internalType": "address",
							"name": "",
							"type": "address"
						},
						{
							"internalType": "uint256",
							"name": "",
							"type": "uint256"
						}
					],
					"name": "usersamount",
					"outputs": [
						{
							"internalType": "uint256",
							"name": "",
							"type": "uint256"
						}
					],
					"stateMutability": "view",
					"type": "function"
				},
				{
					"inputs": [
						{
							"internalType": "uint256",
							"name": "orderid",
							"type": "uint256"
						}
					],
					"name": "withdraw",
					"outputs": [],
					"stateMutability": "payable",
					"type": "function"
				}
			],
			"devdoc": {
				"kind": "dev",
				"methods": {},
				"version": 1
			},
			"evm": {
				"assembly": "    /* \"contracts/lockedcrypto.sol\":61:2103  contract lockedcrypto{... */\n  mstore(0x40, 0x80)\n  callvalue\n  dup1\n  iszero\n  tag_1\n  jumpi\n  0x00\n  dup1\n  revert\ntag_1:\n  pop\n  dataSize(sub_0)\n  dup1\n  dataOffset(sub_0)\n  0x00\n  codecopy\n  0x00\n  return\nstop\n\nsub_0: assembly {\n        /* \"contracts/lockedcrypto.sol\":61:2103  contract lockedcrypto{... */\n      mstore(0x40, 0x80)\n      jumpi(tag_1, lt(calldatasize, 0x04))\n      shr(0xe0, calldataload(0x00))\n      dup1\n      0x5ad82148\n      gt\n      tag_9\n      jumpi\n      dup1\n      0x5ad82148\n      eq\n      tag_5\n      jumpi\n      dup1\n      0x63c69f08\n      eq\n      tag_6\n      jumpi\n      dup1\n      0x87f0d044\n      eq\n      tag_7\n      jumpi\n      dup1\n      0xb6b55f25\n      eq\n      tag_8\n      jumpi\n      jump(tag_1)\n    tag_9:\n      dup1\n      0x1918ba36\n      eq\n      tag_2\n      jumpi\n      dup1\n      0x1e579b6d\n      eq\n      tag_3\n      jumpi\n      dup1\n      0x2e1a7d4d\n      eq\n      tag_4\n      jumpi\n    tag_1:\n      0x00\n      dup1\n      revert\n        /* \"contracts/lockedcrypto.sol\":247:306  mapping (address => mapping(uint=> uint)) public lockedtime */\n    tag_2:\n      callvalue\n      dup1\n      iszero\n      tag_10\n      jumpi\n      0x00\n      dup1\n      revert\n    tag_10:\n      pop\n      tag_11\n      0x04\n      dup1\n      calldatasize\n      sub\n      dup2\n      add\n      swap1\n      tag_12\n      swap2\n      swap1\n      tag_13\n      jump\t// in\n    tag_12:\n      tag_14\n      jump\t// in\n    tag_11:\n      mload(0x40)\n      tag_15\n      swap2\n      swap1\n      tag_16\n      jump\t// in\n    tag_15:\n      mload(0x40)\n      dup1\n      swap2\n      sub\n      swap1\n      return\n        /* \"contracts/lockedcrypto.sol\":313:373  mapping (address => mapping(uint=> uint)) public usersamount */\n    tag_3:\n      callvalue\n      dup1\n      iszero\n      tag_17\n      jumpi\n      0x00\n      dup1\n      revert\n    tag_17:\n      pop\n      tag_18\n      0x04\n      dup1\n      calldatasize\n      sub\n      dup2\n      add\n      swap1\n      tag_19\n      swap2\n      swap1\n      tag_13\n      jump\t// in\n    tag_19:\n      tag_20\n      jump\t// in\n    tag_18:\n      mload(0x40)\n      tag_21\n      swap2\n      swap1\n      tag_16\n      jump\t// in\n    tag_21:\n      mload(0x40)\n      dup1\n      swap2\n      sub\n      swap1\n      return\n        /* \"contracts/lockedcrypto.sol\":1482:1831  function withdraw(uint orderid) public payable  {... */\n    tag_4:\n      tag_22\n      0x04\n      dup1\n      calldatasize\n      sub\n      dup2\n      add\n      swap1\n      tag_23\n      swap2\n      swap1\n      tag_24\n      jump\t// in\n    tag_23:\n      tag_25\n      jump\t// in\n    tag_22:\n      stop\n        /* \"contracts/lockedcrypto.sol\":1974:2096  function getUserid(address userAddress) public view returns (uint[] memory) {... */\n    tag_5:\n      callvalue\n      dup1\n      iszero\n      tag_26\n      jumpi\n      0x00\n      dup1\n      revert\n    tag_26:\n      pop\n      tag_27\n      0x04\n      dup1\n      calldatasize\n      sub\n      dup2\n      add\n      swap1\n      tag_28\n      swap2\n      swap1\n      tag_29\n      jump\t// in\n    tag_28:\n      tag_30\n      jump\t// in\n    tag_27:\n      mload(0x40)\n      tag_31\n      swap2\n      swap1\n      tag_32\n      jump\t// in\n    tag_31:\n      mload(0x40)\n      dup1\n      swap2\n      sub\n      swap1\n      return\n        /* \"contracts/lockedcrypto.sol\":1839:1966  function getUserOrders(address userAddress) public view returns (uint[] memory) {... */\n    tag_6:\n      callvalue\n      dup1\n      iszero\n      tag_33\n      jumpi\n      0x00\n      dup1\n      revert\n    tag_33:\n      pop\n      tag_34\n      0x04\n      dup1\n      calldatasize\n      sub\n      dup2\n      add\n      swap1\n      tag_35\n      swap2\n      swap1\n      tag_29\n      jump\t// in\n    tag_35:\n      tag_36\n      jump\t// in\n    tag_34:\n      mload(0x40)\n      tag_37\n      swap2\n      swap1\n      tag_32\n      jump\t// in\n    tag_37:\n      mload(0x40)\n      dup1\n      swap2\n      sub\n      swap1\n      return\n        /* \"contracts/lockedcrypto.sol\":467:498  userdetails[] public Alldetails */\n    tag_7:\n      callvalue\n      dup1\n      iszero\n      tag_38\n      jumpi\n      0x00\n      dup1\n      revert\n    tag_38:\n      pop\n      tag_39\n      0x04\n      dup1\n      calldatasize\n      sub\n      dup2\n      add\n      swap1\n      tag_40\n      swap2\n      swap1\n      tag_24\n      jump\t// in\n    tag_40:\n      tag_41\n      jump\t// in\n    tag_39:\n      mload(0x40)\n      tag_42\n      swap6\n      swap5\n      swap4\n      swap3\n      swap2\n      swap1\n      tag_43\n      jump\t// in\n    tag_42:\n      mload(0x40)\n      dup1\n      swap2\n      sub\n      swap1\n      return\n        /* \"contracts/lockedcrypto.sol\":770:1474  function deposit(uint _lockedperoid) public payable { ... */\n    tag_8:\n      tag_44\n      0x04\n      dup1\n      calldatasize\n      sub\n      dup2\n      add\n      swap1\n      tag_45\n      swap2\n      swap1\n      tag_24\n      jump\t// in\n    tag_45:\n      tag_46\n      jump\t// in\n    tag_44:\n      stop\n        /* \"contracts/lockedcrypto.sol\":247:306  mapping (address => mapping(uint=> uint)) public lockedtime */\n    tag_14:\n      mstore(0x20, 0x00)\n      dup2\n      0x00\n      mstore\n      mstore(0x20, keccak256(0x00, 0x40))\n      dup1\n      0x00\n      mstore\n      keccak256(0x00, 0x40)\n      0x00\n      swap2\n      pop\n      swap2\n      pop\n      pop\n      sload\n      dup2\n      jump\t// out\n        /* \"contracts/lockedcrypto.sol\":313:373  mapping (address => mapping(uint=> uint)) public usersamount */\n    tag_20:\n      mstore(0x20, 0x01)\n      dup2\n      0x00\n      mstore\n      mstore(0x20, keccak256(0x00, 0x40))\n      dup1\n      0x00\n      mstore\n      keccak256(0x00, 0x40)\n      0x00\n      swap2\n      pop\n      swap2\n      pop\n      pop\n      sload\n      dup2\n      jump\t// out\n        /* \"contracts/lockedcrypto.sol\":1482:1831  function withdraw(uint orderid) public payable  {... */\n    tag_25:\n        /* \"contracts/lockedcrypto.sol\":1584:1585  0 */\n      0x00\n        /* \"contracts/lockedcrypto.sol\":1549:1560  usersamount */\n      0x01\n        /* \"contracts/lockedcrypto.sol\":1549:1572  usersamount[msg.sender] */\n      0x00\n        /* \"contracts/lockedcrypto.sol\":1561:1571  msg.sender */\n      caller\n        /* \"contracts/lockedcrypto.sol\":1549:1572  usersamount[msg.sender] */\n      0xffffffffffffffffffffffffffffffffffffffff\n      and\n      0xffffffffffffffffffffffffffffffffffffffff\n      and\n      dup2\n      mstore\n      0x20\n      add\n      swap1\n      dup2\n      mstore\n      0x20\n      add\n      0x00\n      keccak256\n        /* \"contracts/lockedcrypto.sol\":1549:1581  usersamount[msg.sender][orderid] */\n      0x00\n        /* \"contracts/lockedcrypto.sol\":1573:1580  orderid */\n      dup4\n        /* \"contracts/lockedcrypto.sol\":1549:1581  usersamount[msg.sender][orderid] */\n      dup2\n      mstore\n      0x20\n      add\n      swap1\n      dup2\n      mstore\n      0x20\n      add\n      0x00\n      keccak256\n      sload\n        /* \"contracts/lockedcrypto.sol\":1549:1585  usersamount[msg.sender][orderid] > 0 */\n      gt\n        /* \"contracts/lockedcrypto.sol\":1541:1610  require(usersamount[msg.sender][orderid] > 0, \"you are not a member\") */\n      tag_48\n      jumpi\n      mload(0x40)\n      0x08c379a000000000000000000000000000000000000000000000000000000000\n      dup2\n      mstore\n      0x04\n      add\n      tag_49\n      swap1\n      tag_50\n      jump\t// in\n    tag_49:\n      mload(0x40)\n      dup1\n      swap2\n      sub\n      swap1\n      revert\n    tag_48:\n        /* \"contracts/lockedcrypto.sol\":1648:1658  lockedtime */\n      0x00\n        /* \"contracts/lockedcrypto.sol\":1648:1670  lockedtime[msg.sender] */\n      dup1\n        /* \"contracts/lockedcrypto.sol\":1659:1669  msg.sender */\n      caller\n        /* \"contracts/lockedcrypto.sol\":1648:1670  lockedtime[msg.sender] */\n      0xffffffffffffffffffffffffffffffffffffffff\n      and\n      0xffffffffffffffffffffffffffffffffffffffff\n      and\n      dup2\n      mstore\n      0x20\n      add\n      swap1\n      dup2\n      mstore\n      0x20\n      add\n      0x00\n      keccak256\n        /* \"contracts/lockedcrypto.sol\":1648:1679  lockedtime[msg.sender][orderid] */\n      0x00\n        /* \"contracts/lockedcrypto.sol\":1671:1678  orderid */\n      dup3\n        /* \"contracts/lockedcrypto.sol\":1648:1679  lockedtime[msg.sender][orderid] */\n      dup2\n      mstore\n      0x20\n      add\n      swap1\n      dup2\n      mstore\n      0x20\n      add\n      0x00\n      keccak256\n      sload\n        /* \"contracts/lockedcrypto.sol\":1629:1644  block.timestamp */\n      timestamp\n        /* \"contracts/lockedcrypto.sol\":1629:1679  block.timestamp >= lockedtime[msg.sender][orderid] */\n      lt\n      iszero\n        /* \"contracts/lockedcrypto.sol\":1621:1713  require(block.timestamp >= lockedtime[msg.sender][orderid], \"locked time remains right now\") */\n      tag_51\n      jumpi\n      mload(0x40)\n      0x08c379a000000000000000000000000000000000000000000000000000000000\n      dup2\n      mstore\n      0x04\n      add\n      tag_52\n      swap1\n      tag_53\n      jump\t// in\n    tag_52:\n      mload(0x40)\n      dup1\n      swap2\n      sub\n      swap1\n      revert\n    tag_51:\n        /* \"contracts/lockedcrypto.sol\":1732:1742  msg.sender */\n      caller\n        /* \"contracts/lockedcrypto.sol\":1724:1752  payable(msg.sender).transfer */\n      0xffffffffffffffffffffffffffffffffffffffff\n      and\n        /* \"contracts/lockedcrypto.sol\":1724:1786  payable(msg.sender).transfer(usersamount[msg.sender][orderid]) */\n      0x08fc\n        /* \"contracts/lockedcrypto.sol\":1753:1764  usersamount */\n      0x01\n        /* \"contracts/lockedcrypto.sol\":1753:1776  usersamount[msg.sender] */\n      0x00\n        /* \"contracts/lockedcrypto.sol\":1765:1775  msg.sender */\n      caller\n        /* \"contracts/lockedcrypto.sol\":1753:1776  usersamount[msg.sender] */\n      0xffffffffffffffffffffffffffffffffffffffff\n      and\n      0xffffffffffffffffffffffffffffffffffffffff\n      and\n      dup2\n      mstore\n      0x20\n      add\n      swap1\n      dup2\n      mstore\n      0x20\n      add\n      0x00\n      keccak256\n        /* \"contracts/lockedcrypto.sol\":1753:1785  usersamount[msg.sender][orderid] */\n      0x00\n        /* \"contracts/lockedcrypto.sol\":1777:1784  orderid */\n      dup5\n        /* \"contracts/lockedcrypto.sol\":1753:1785  usersamount[msg.sender][orderid] */\n      dup2\n      mstore\n      0x20\n      add\n      swap1\n      dup2\n      mstore\n      0x20\n      add\n      0x00\n      keccak256\n      sload\n        /* \"contracts/lockedcrypto.sol\":1724:1786  payable(msg.sender).transfer(usersamount[msg.sender][orderid]) */\n      swap1\n      dup2\n      iszero\n      mul\n      swap1\n      mload(0x40)\n      0x00\n      mload(0x40)\n      dup1\n      dup4\n      sub\n      dup2\n      dup6\n      dup9\n      dup9\n      call\n      swap4\n      pop\n      pop\n      pop\n      pop\n      iszero\n      dup1\n      iszero\n      tag_55\n      jumpi\n      returndatasize\n      0x00\n      dup1\n      returndatacopy\n      revert(0x00, returndatasize)\n    tag_55:\n      pop\n        /* \"contracts/lockedcrypto.sol\":1804:1814  Alldetails */\n      0x04\n        /* \"contracts/lockedcrypto.sol\":1815:1822  orderid */\n      dup2\n        /* \"contracts/lockedcrypto.sol\":1804:1823  Alldetails[orderid] */\n      dup2\n      sload\n      dup2\n      lt\n      tag_56\n      jumpi\n      tag_57\n      tag_58\n      jump\t// in\n    tag_57:\n    tag_56:\n      swap1\n      0x00\n      mstore\n      keccak256(0x00, 0x20)\n      swap1\n      0x05\n      mul\n      add\n      0x00\n        /* \"contracts/lockedcrypto.sol\":1797:1823  delete Alldetails[orderid] */\n      dup1\n      dup3\n      add\n      exp(0x0100, 0x00)\n      dup2\n      sload\n      swap1\n      0xffffffffffffffffffffffffffffffffffffffff\n      mul\n      not\n      and\n      swap1\n      sstore\n      0x01\n      dup3\n      add\n      0x00\n      swap1\n      sstore\n      0x02\n      dup3\n      add\n      0x00\n      swap1\n      sstore\n      0x03\n      dup3\n      add\n      0x00\n      swap1\n      sstore\n      0x04\n      dup3\n      add\n      0x00\n      swap1\n      sstore\n      pop\n      pop\n        /* \"contracts/lockedcrypto.sol\":1482:1831  function withdraw(uint orderid) public payable  {... */\n      pop\n      jump\t// out\n        /* \"contracts/lockedcrypto.sol\":1974:2096  function getUserid(address userAddress) public view returns (uint[] memory) {... */\n    tag_30:\n        /* \"contracts/lockedcrypto.sol\":2035:2048  uint[] memory */\n      0x60\n        /* \"contracts/lockedcrypto.sol\":2068:2075  usersid */\n      0x02\n        /* \"contracts/lockedcrypto.sol\":2068:2088  usersid[userAddress] */\n      0x00\n        /* \"contracts/lockedcrypto.sol\":2076:2087  userAddress */\n      dup4\n        /* \"contracts/lockedcrypto.sol\":2068:2088  usersid[userAddress] */\n      0xffffffffffffffffffffffffffffffffffffffff\n      and\n      0xffffffffffffffffffffffffffffffffffffffff\n      and\n      dup2\n      mstore\n      0x20\n      add\n      swap1\n      dup2\n      mstore\n      0x20\n      add\n      0x00\n      keccak256\n        /* \"contracts/lockedcrypto.sol\":2061:2088  return usersid[userAddress] */\n      dup1\n      sload\n      dup1\n      0x20\n      mul\n      0x20\n      add\n      mload(0x40)\n      swap1\n      dup2\n      add\n      0x40\n      mstore\n      dup1\n      swap3\n      swap2\n      swap1\n      dup2\n      dup2\n      mstore\n      0x20\n      add\n      dup3\n      dup1\n      sload\n      dup1\n      iszero\n      tag_61\n      jumpi\n      0x20\n      mul\n      dup3\n      add\n      swap2\n      swap1\n      0x00\n      mstore\n      keccak256(0x00, 0x20)\n      swap1\n    tag_62:\n      dup2\n      sload\n      dup2\n      mstore\n      0x20\n      add\n      swap1\n      0x01\n      add\n      swap1\n      dup1\n      dup4\n      gt\n      tag_62\n      jumpi\n    tag_61:\n      pop\n      pop\n      pop\n      pop\n      pop\n      swap1\n      pop\n        /* \"contracts/lockedcrypto.sol\":1974:2096  function getUserid(address userAddress) public view returns (uint[] memory) {... */\n      swap2\n      swap1\n      pop\n      jump\t// out\n        /* \"contracts/lockedcrypto.sol\":1839:1966  function getUserOrders(address userAddress) public view returns (uint[] memory) {... */\n    tag_36:\n        /* \"contracts/lockedcrypto.sol\":1904:1917  uint[] memory */\n      0x60\n        /* \"contracts/lockedcrypto.sol\":1937:1945  ordersid */\n      0x03\n        /* \"contracts/lockedcrypto.sol\":1937:1958  ordersid[userAddress] */\n      0x00\n        /* \"contracts/lockedcrypto.sol\":1946:1957  userAddress */\n      dup4\n        /* \"contracts/lockedcrypto.sol\":1937:1958  ordersid[userAddress] */\n      0xffffffffffffffffffffffffffffffffffffffff\n      and\n      0xffffffffffffffffffffffffffffffffffffffff\n      and\n      dup2\n      mstore\n      0x20\n      add\n      swap1\n      dup2\n      mstore\n      0x20\n      add\n      0x00\n      keccak256\n        /* \"contracts/lockedcrypto.sol\":1930:1958  return ordersid[userAddress] */\n      dup1\n      sload\n      dup1\n      0x20\n      mul\n      0x20\n      add\n      mload(0x40)\n      swap1\n      dup2\n      add\n      0x40\n      mstore\n      dup1\n      swap3\n      swap2\n      swap1\n      dup2\n      dup2\n      mstore\n      0x20\n      add\n      dup3\n      dup1\n      sload\n      dup1\n      iszero\n      tag_64\n      jumpi\n      0x20\n      mul\n      dup3\n      add\n      swap2\n      swap1\n      0x00\n      mstore\n      keccak256(0x00, 0x20)\n      swap1\n    tag_65:\n      dup2\n      sload\n      dup2\n      mstore\n      0x20\n      add\n      swap1\n      0x01\n      add\n      swap1\n      dup1\n      dup4\n      gt\n      tag_65\n      jumpi\n    tag_64:\n      pop\n      pop\n      pop\n      pop\n      pop\n      swap1\n      pop\n        /* \"contracts/lockedcrypto.sol\":1839:1966  function getUserOrders(address userAddress) public view returns (uint[] memory) {... */\n      swap2\n      swap1\n      pop\n      jump\t// out\n        /* \"contracts/lockedcrypto.sol\":467:498  userdetails[] public Alldetails */\n    tag_41:\n      0x04\n      dup2\n      dup2\n      sload\n      dup2\n      lt\n      tag_66\n      jumpi\n      0x00\n      dup1\n      revert\n    tag_66:\n      swap1\n      0x00\n      mstore\n      keccak256(0x00, 0x20)\n      swap1\n      0x05\n      mul\n      add\n      0x00\n      swap2\n      pop\n      swap1\n      pop\n      dup1\n      0x00\n      add\n      0x00\n      swap1\n      sload\n      swap1\n      0x0100\n      exp\n      swap1\n      div\n      0xffffffffffffffffffffffffffffffffffffffff\n      and\n      swap1\n      dup1\n      0x01\n      add\n      sload\n      swap1\n      dup1\n      0x02\n      add\n      sload\n      swap1\n      dup1\n      0x03\n      add\n      sload\n      swap1\n      dup1\n      0x04\n      add\n      sload\n      swap1\n      pop\n      dup6\n      jump\t// out\n        /* \"contracts/lockedcrypto.sol\":770:1474  function deposit(uint _lockedperoid) public payable { ... */\n    tag_46:\n        /* \"contracts/lockedcrypto.sol\":854:861  0 ether */\n      0x00\n        /* \"contracts/lockedcrypto.sol\":842:851  msg.value */\n      callvalue\n        /* \"contracts/lockedcrypto.sol\":842:861  msg.value > 0 ether */\n      gt\n        /* \"contracts/lockedcrypto.sol\":834:899  require(msg.value > 0 ether, \"deposit must be more than 0 ether\") */\n      tag_69\n      jumpi\n      mload(0x40)\n      0x08c379a000000000000000000000000000000000000000000000000000000000\n      dup2\n      mstore\n      0x04\n      add\n      tag_70\n      swap1\n      tag_71\n      jump\t// in\n    tag_70:\n      mload(0x40)\n      dup1\n      swap2\n      sub\n      swap1\n      revert\n    tag_69:\n        /* \"contracts/lockedcrypto.sol\":910:920  Alldetails */\n      0x04\n        /* \"contracts/lockedcrypto.sol\":926:1053  userdetails({user: payable(msg.sender), amount: msg.value, lockedperoid: _lockedperoid, id: latestusers, orderid: latestorder}) */\n      mload(0x40)\n      dup1\n      0xa0\n      add\n      0x40\n      mstore\n      dup1\n        /* \"contracts/lockedcrypto.sol\":953:963  msg.sender */\n      caller\n        /* \"contracts/lockedcrypto.sol\":926:1053  userdetails({user: payable(msg.sender), amount: msg.value, lockedperoid: _lockedperoid, id: latestusers, orderid: latestorder}) */\n      0xffffffffffffffffffffffffffffffffffffffff\n      and\n      dup2\n      mstore\n      0x20\n      add\n        /* \"contracts/lockedcrypto.sol\":974:983  msg.value */\n      callvalue\n        /* \"contracts/lockedcrypto.sol\":926:1053  userdetails({user: payable(msg.sender), amount: msg.value, lockedperoid: _lockedperoid, id: latestusers, orderid: latestorder}) */\n      dup2\n      mstore\n      0x20\n      add\n        /* \"contracts/lockedcrypto.sol\":999:1012  _lockedperoid */\n      dup4\n        /* \"contracts/lockedcrypto.sol\":926:1053  userdetails({user: payable(msg.sender), amount: msg.value, lockedperoid: _lockedperoid, id: latestusers, orderid: latestorder}) */\n      dup2\n      mstore\n      0x20\n      add\n        /* \"contracts/lockedcrypto.sol\":1018:1029  latestusers */\n      sload(0x05)\n        /* \"contracts/lockedcrypto.sol\":926:1053  userdetails({user: payable(msg.sender), amount: msg.value, lockedperoid: _lockedperoid, id: latestusers, orderid: latestorder}) */\n      dup2\n      mstore\n      0x20\n      add\n        /* \"contracts/lockedcrypto.sol\":1040:1051  latestorder */\n      sload(0x06)\n        /* \"contracts/lockedcrypto.sol\":926:1053  userdetails({user: payable(msg.sender), amount: msg.value, lockedperoid: _lockedperoid, id: latestusers, orderid: latestorder}) */\n      dup2\n      mstore\n      pop\n        /* \"contracts/lockedcrypto.sol\":910:1054  Alldetails.push(userdetails({user: payable(msg.sender), amount: msg.value, lockedperoid: _lockedperoid, id: latestusers, orderid: latestorder})) */\n      swap1\n      dup1\n      0x01\n      dup2\n      sload\n      add\n      dup1\n      dup3\n      sstore\n      dup1\n      swap2\n      pop\n      pop\n      0x01\n      swap1\n      sub\n      swap1\n      0x00\n      mstore\n      keccak256(0x00, 0x20)\n      swap1\n      0x05\n      mul\n      add\n      0x00\n      swap1\n      swap2\n      swap1\n      swap2\n      swap1\n      swap2\n      pop\n      0x00\n      dup3\n      add\n      mload\n      dup2\n      0x00\n      add\n      exp(0x0100, 0x00)\n      dup2\n      sload\n      dup2\n      0xffffffffffffffffffffffffffffffffffffffff\n      mul\n      not\n      and\n      swap1\n      dup4\n      0xffffffffffffffffffffffffffffffffffffffff\n      and\n      mul\n      or\n      swap1\n      sstore\n      pop\n      0x20\n      dup3\n      add\n      mload\n      dup2\n      0x01\n      add\n      sstore\n      0x40\n      dup3\n      add\n      mload\n      dup2\n      0x02\n      add\n      sstore\n      0x60\n      dup3\n      add\n      mload\n      dup2\n      0x03\n      add\n      sstore\n      0x80\n      dup3\n      add\n      mload\n      dup2\n      0x04\n      add\n      sstore\n      pop\n      pop\n        /* \"contracts/lockedcrypto.sol\":1140:1150  30 seconds */\n      0x1e\n        /* \"contracts/lockedcrypto.sol\":1124:1137  _lockedperoid */\n      dup2\n        /* \"contracts/lockedcrypto.sol\":1124:1150  _lockedperoid + 30 seconds */\n      tag_73\n      swap2\n      swap1\n      tag_74\n      jump\t// in\n    tag_73:\n        /* \"contracts/lockedcrypto.sol\":1105:1120  block.timestamp */\n      timestamp\n        /* \"contracts/lockedcrypto.sol\":1105:1151  block.timestamp + (_lockedperoid + 30 seconds) */\n      tag_75\n      swap2\n      swap1\n      tag_74\n      jump\t// in\n    tag_75:\n        /* \"contracts/lockedcrypto.sol\":1067:1077  lockedtime */\n      0x00\n        /* \"contracts/lockedcrypto.sol\":1067:1089  lockedtime[msg.sender] */\n      dup1\n        /* \"contracts/lockedcrypto.sol\":1078:1088  msg.sender */\n      caller\n        /* \"contracts/lockedcrypto.sol\":1067:1089  lockedtime[msg.sender] */\n      0xffffffffffffffffffffffffffffffffffffffff\n      and\n      0xffffffffffffffffffffffffffffffffffffffff\n      and\n      dup2\n      mstore\n      0x20\n      add\n      swap1\n      dup2\n      mstore\n      0x20\n      add\n      0x00\n      keccak256\n        /* \"contracts/lockedcrypto.sol\":1067:1102  lockedtime[msg.sender][latestorder] */\n      0x00\n        /* \"contracts/lockedcrypto.sol\":1090:1101  latestorder */\n      sload(0x06)\n        /* \"contracts/lockedcrypto.sol\":1067:1102  lockedtime[msg.sender][latestorder] */\n      dup2\n      mstore\n      0x20\n      add\n      swap1\n      dup2\n      mstore\n      0x20\n      add\n      0x00\n      keccak256\n        /* \"contracts/lockedcrypto.sol\":1067:1151  lockedtime[msg.sender][latestorder] = block.timestamp + (_lockedperoid + 30 seconds) */\n      dup2\n      swap1\n      sstore\n      pop\n        /* \"contracts/lockedcrypto.sol\":1200:1209  msg.value */\n      callvalue\n        /* \"contracts/lockedcrypto.sol\":1162:1173  usersamount */\n      0x01\n        /* \"contracts/lockedcrypto.sol\":1162:1185  usersamount[msg.sender] */\n      0x00\n        /* \"contracts/lockedcrypto.sol\":1174:1184  msg.sender */\n      caller\n        /* \"contracts/lockedcrypto.sol\":1162:1185  usersamount[msg.sender] */\n      0xffffffffffffffffffffffffffffffffffffffff\n      and\n      0xffffffffffffffffffffffffffffffffffffffff\n      and\n      dup2\n      mstore\n      0x20\n      add\n      swap1\n      dup2\n      mstore\n      0x20\n      add\n      0x00\n      keccak256\n        /* \"contracts/lockedcrypto.sol\":1162:1198  usersamount[msg.sender][latestorder] */\n      0x00\n        /* \"contracts/lockedcrypto.sol\":1186:1197  latestorder */\n      sload(0x06)\n        /* \"contracts/lockedcrypto.sol\":1162:1198  usersamount[msg.sender][latestorder] */\n      dup2\n      mstore\n      0x20\n      add\n      swap1\n      dup2\n      mstore\n      0x20\n      add\n      0x00\n      keccak256\n        /* \"contracts/lockedcrypto.sol\":1162:1209  usersamount[msg.sender][latestorder]= msg.value */\n      dup2\n      swap1\n      sstore\n      pop\n        /* \"contracts/lockedcrypto.sol\":1220:1227  usersid */\n      0x02\n        /* \"contracts/lockedcrypto.sol\":1220:1239  usersid[msg.sender] */\n      0x00\n        /* \"contracts/lockedcrypto.sol\":1228:1238  msg.sender */\n      caller\n        /* \"contracts/lockedcrypto.sol\":1220:1239  usersid[msg.sender] */\n      0xffffffffffffffffffffffffffffffffffffffff\n      and\n      0xffffffffffffffffffffffffffffffffffffffff\n      and\n      dup2\n      mstore\n      0x20\n      add\n      swap1\n      dup2\n      mstore\n      0x20\n      add\n      0x00\n      keccak256\n        /* \"contracts/lockedcrypto.sol\":1245:1256  latestusers */\n      sload(0x05)\n        /* \"contracts/lockedcrypto.sol\":1220:1257  usersid[msg.sender].push(latestusers) */\n      swap1\n      dup1\n      0x01\n      dup2\n      sload\n      add\n      dup1\n      dup3\n      sstore\n      dup1\n      swap2\n      pop\n      pop\n      0x01\n      swap1\n      sub\n      swap1\n      0x00\n      mstore\n      keccak256(0x00, 0x20)\n      add\n      0x00\n      swap1\n      swap2\n      swap1\n      swap2\n      swap1\n      swap2\n      pop\n      sstore\n        /* \"contracts/lockedcrypto.sol\":1268:1276  ordersid */\n      0x03\n        /* \"contracts/lockedcrypto.sol\":1268:1288  ordersid[msg.sender] */\n      0x00\n        /* \"contracts/lockedcrypto.sol\":1277:1287  msg.sender */\n      caller\n        /* \"contracts/lockedcrypto.sol\":1268:1288  ordersid[msg.sender] */\n      0xffffffffffffffffffffffffffffffffffffffff\n      and\n      0xffffffffffffffffffffffffffffffffffffffff\n      and\n      dup2\n      mstore\n      0x20\n      add\n      swap1\n      dup2\n      mstore\n      0x20\n      add\n      0x00\n      keccak256\n        /* \"contracts/lockedcrypto.sol\":1294:1305  latestorder */\n      sload(0x06)\n        /* \"contracts/lockedcrypto.sol\":1268:1306  ordersid[msg.sender].push(latestorder) */\n      swap1\n      dup1\n      0x01\n      dup2\n      sload\n      add\n      dup1\n      dup3\n      sstore\n      dup1\n      swap2\n      pop\n      pop\n      0x01\n      swap1\n      sub\n      swap1\n      0x00\n      mstore\n      keccak256(0x00, 0x20)\n      add\n      0x00\n      swap1\n      swap2\n      swap1\n      swap2\n      swap1\n      swap2\n      pop\n      sstore\n        /* \"contracts/lockedcrypto.sol\":1324:1400  userdetailss(msg.sender, msg.value, _lockedperoid, latestusers, latestorder) */\n      0xba83add69b6ba79c9a28c85fb5f02b2e57556157869b56714bdce8701897e589\n        /* \"contracts/lockedcrypto.sol\":1337:1347  msg.sender */\n      caller\n        /* \"contracts/lockedcrypto.sol\":1349:1358  msg.value */\n      callvalue\n        /* \"contracts/lockedcrypto.sol\":1360:1373  _lockedperoid */\n      dup4\n        /* \"contracts/lockedcrypto.sol\":1375:1386  latestusers */\n      sload(0x05)\n        /* \"contracts/lockedcrypto.sol\":1388:1399  latestorder */\n      sload(0x06)\n        /* \"contracts/lockedcrypto.sol\":1324:1400  userdetailss(msg.sender, msg.value, _lockedperoid, latestusers, latestorder) */\n      mload(0x40)\n      tag_78\n      swap6\n      swap5\n      swap4\n      swap3\n      swap2\n      swap1\n      tag_79\n      jump\t// in\n    tag_78:\n      mload(0x40)\n      dup1\n      swap2\n      sub\n      swap1\n      log1\n        /* \"contracts/lockedcrypto.sol\":1426:1427  1 */\n      0x01\n        /* \"contracts/lockedcrypto.sol\":1411:1422  latestusers */\n      0x05\n      0x00\n        /* \"contracts/lockedcrypto.sol\":1411:1427  latestusers += 1 */\n      dup3\n      dup3\n      sload\n      tag_80\n      swap2\n      swap1\n      tag_74\n      jump\t// in\n    tag_80:\n      swap3\n      pop\n      pop\n      dup2\n      swap1\n      sstore\n      pop\n        /* \"contracts/lockedcrypto.sol\":1458:1459  1 */\n      0x01\n        /* \"contracts/lockedcrypto.sol\":1444:1455  latestorder */\n      0x06\n      0x00\n        /* \"contracts/lockedcrypto.sol\":1444:1459  latestorder +=1 */\n      dup3\n      dup3\n      sload\n      tag_81\n      swap2\n      swap1\n      tag_74\n      jump\t// in\n    tag_81:\n      swap3\n      pop\n      pop\n      dup2\n      swap1\n      sstore\n      pop\n        /* \"contracts/lockedcrypto.sol\":770:1474  function deposit(uint _lockedperoid) public payable { ... */\n      pop\n      jump\t// out\n        /* \"#utility.yul\":88:205   */\n    tag_83:\n        /* \"#utility.yul\":197:198   */\n      0x00\n        /* \"#utility.yul\":194:195   */\n      dup1\n        /* \"#utility.yul\":187:199   */\n      revert\n        /* \"#utility.yul\":334:460   */\n    tag_85:\n        /* \"#utility.yul\":371:378   */\n      0x00\n        /* \"#utility.yul\":411:453   */\n      0xffffffffffffffffffffffffffffffffffffffff\n        /* \"#utility.yul\":404:409   */\n      dup3\n        /* \"#utility.yul\":400:454   */\n      and\n        /* \"#utility.yul\":389:454   */\n      swap1\n      pop\n        /* \"#utility.yul\":334:460   */\n      swap2\n      swap1\n      pop\n      jump\t// out\n        /* \"#utility.yul\":466:562   */\n    tag_86:\n        /* \"#utility.yul\":503:510   */\n      0x00\n        /* \"#utility.yul\":532:556   */\n      tag_117\n        /* \"#utility.yul\":550:555   */\n      dup3\n        /* \"#utility.yul\":532:556   */\n      tag_85\n      jump\t// in\n    tag_117:\n        /* \"#utility.yul\":521:556   */\n      swap1\n      pop\n        /* \"#utility.yul\":466:562   */\n      swap2\n      swap1\n      pop\n      jump\t// out\n        /* \"#utility.yul\":568:690   */\n    tag_87:\n        /* \"#utility.yul\":641:665   */\n      tag_119\n        /* \"#utility.yul\":659:664   */\n      dup2\n        /* \"#utility.yul\":641:665   */\n      tag_86\n      jump\t// in\n    tag_119:\n        /* \"#utility.yul\":634:639   */\n      dup2\n        /* \"#utility.yul\":631:666   */\n      eq\n        /* \"#utility.yul\":621:684   */\n      tag_120\n      jumpi\n        /* \"#utility.yul\":680:681   */\n      0x00\n        /* \"#utility.yul\":677:678   */\n      dup1\n        /* \"#utility.yul\":670:682   */\n      revert\n        /* \"#utility.yul\":621:684   */\n    tag_120:\n        /* \"#utility.yul\":568:690   */\n      pop\n      jump\t// out\n        /* \"#utility.yul\":696:835   */\n    tag_88:\n        /* \"#utility.yul\":742:747   */\n      0x00\n        /* \"#utility.yul\":780:786   */\n      dup2\n        /* \"#utility.yul\":767:787   */\n      calldataload\n        /* \"#utility.yul\":758:787   */\n      swap1\n      pop\n        /* \"#utility.yul\":796:829   */\n      tag_122\n        /* \"#utility.yul\":823:828   */\n      dup2\n        /* \"#utility.yul\":796:829   */\n      tag_87\n      jump\t// in\n    tag_122:\n        /* \"#utility.yul\":696:835   */\n      swap3\n      swap2\n      pop\n      pop\n      jump\t// out\n        /* \"#utility.yul\":841:918   */\n    tag_89:\n        /* \"#utility.yul\":878:885   */\n      0x00\n        /* \"#utility.yul\":907:912   */\n      dup2\n        /* \"#utility.yul\":896:912   */\n      swap1\n      pop\n        /* \"#utility.yul\":841:918   */\n      swap2\n      swap1\n      pop\n      jump\t// out\n        /* \"#utility.yul\":924:1046   */\n    tag_90:\n        /* \"#utility.yul\":997:1021   */\n      tag_125\n        /* \"#utility.yul\":1015:1020   */\n      dup2\n        /* \"#utility.yul\":997:1021   */\n      tag_89\n      jump\t// in\n    tag_125:\n        /* \"#utility.yul\":990:995   */\n      dup2\n        /* \"#utility.yul\":987:1022   */\n      eq\n        /* \"#utility.yul\":977:1040   */\n      tag_126\n      jumpi\n        /* \"#utility.yul\":1036:1037   */\n      0x00\n        /* \"#utility.yul\":1033:1034   */\n      dup1\n        /* \"#utility.yul\":1026:1038   */\n      revert\n        /* \"#utility.yul\":977:1040   */\n    tag_126:\n        /* \"#utility.yul\":924:1046   */\n      pop\n      jump\t// out\n        /* \"#utility.yul\":1052:1191   */\n    tag_91:\n        /* \"#utility.yul\":1098:1103   */\n      0x00\n        /* \"#utility.yul\":1136:1142   */\n      dup2\n        /* \"#utility.yul\":1123:1143   */\n      calldataload\n        /* \"#utility.yul\":1114:1143   */\n      swap1\n      pop\n        /* \"#utility.yul\":1152:1185   */\n      tag_128\n        /* \"#utility.yul\":1179:1184   */\n      dup2\n        /* \"#utility.yul\":1152:1185   */\n      tag_90\n      jump\t// in\n    tag_128:\n        /* \"#utility.yul\":1052:1191   */\n      swap3\n      swap2\n      pop\n      pop\n      jump\t// out\n        /* \"#utility.yul\":1197:1671   */\n    tag_13:\n        /* \"#utility.yul\":1265:1271   */\n      0x00\n        /* \"#utility.yul\":1273:1279   */\n      dup1\n        /* \"#utility.yul\":1322:1324   */\n      0x40\n        /* \"#utility.yul\":1310:1319   */\n      dup4\n        /* \"#utility.yul\":1301:1308   */\n      dup6\n        /* \"#utility.yul\":1297:1320   */\n      sub\n        /* \"#utility.yul\":1293:1325   */\n      slt\n        /* \"#utility.yul\":1290:1409   */\n      iszero\n      tag_130\n      jumpi\n        /* \"#utility.yul\":1328:1407   */\n      tag_131\n      tag_83\n      jump\t// in\n    tag_131:\n        /* \"#utility.yul\":1290:1409   */\n    tag_130:\n        /* \"#utility.yul\":1448:1449   */\n      0x00\n        /* \"#utility.yul\":1473:1526   */\n      tag_132\n        /* \"#utility.yul\":1518:1525   */\n      dup6\n        /* \"#utility.yul\":1509:1515   */\n      dup3\n        /* \"#utility.yul\":1498:1507   */\n      dup7\n        /* \"#utility.yul\":1494:1516   */\n      add\n        /* \"#utility.yul\":1473:1526   */\n      tag_88\n      jump\t// in\n    tag_132:\n        /* \"#utility.yul\":1463:1526   */\n      swap3\n      pop\n        /* \"#utility.yul\":1419:1536   */\n      pop\n        /* \"#utility.yul\":1575:1577   */\n      0x20\n        /* \"#utility.yul\":1601:1654   */\n      tag_133\n        /* \"#utility.yul\":1646:1653   */\n      dup6\n        /* \"#utility.yul\":1637:1643   */\n      dup3\n        /* \"#utility.yul\":1626:1635   */\n      dup7\n        /* \"#utility.yul\":1622:1644   */\n      add\n        /* \"#utility.yul\":1601:1654   */\n      tag_91\n      jump\t// in\n    tag_133:\n        /* \"#utility.yul\":1591:1654   */\n      swap2\n      pop\n        /* \"#utility.yul\":1546:1664   */\n      pop\n        /* \"#utility.yul\":1197:1671   */\n      swap3\n      pop\n      swap3\n      swap1\n      pop\n      jump\t// out\n        /* \"#utility.yul\":1677:1795   */\n    tag_92:\n        /* \"#utility.yul\":1764:1788   */\n      tag_135\n        /* \"#utility.yul\":1782:1787   */\n      dup2\n        /* \"#utility.yul\":1764:1788   */\n      tag_89\n      jump\t// in\n    tag_135:\n        /* \"#utility.yul\":1759:1762   */\n      dup3\n        /* \"#utility.yul\":1752:1789   */\n      mstore\n        /* \"#utility.yul\":1677:1795   */\n      pop\n      pop\n      jump\t// out\n        /* \"#utility.yul\":1801:2023   */\n    tag_16:\n        /* \"#utility.yul\":1894:1898   */\n      0x00\n        /* \"#utility.yul\":1932:1934   */\n      0x20\n        /* \"#utility.yul\":1921:1930   */\n      dup3\n        /* \"#utility.yul\":1917:1935   */\n      add\n        /* \"#utility.yul\":1909:1935   */\n      swap1\n      pop\n        /* \"#utility.yul\":1945:2016   */\n      tag_137\n        /* \"#utility.yul\":2013:2014   */\n      0x00\n        /* \"#utility.yul\":2002:2011   */\n      dup4\n        /* \"#utility.yul\":1998:2015   */\n      add\n        /* \"#utility.yul\":1989:1995   */\n      dup5\n        /* \"#utility.yul\":1945:2016   */\n      tag_92\n      jump\t// in\n    tag_137:\n        /* \"#utility.yul\":1801:2023   */\n      swap3\n      swap2\n      pop\n      pop\n      jump\t// out\n        /* \"#utility.yul\":2029:2358   */\n    tag_24:\n        /* \"#utility.yul\":2088:2094   */\n      0x00\n        /* \"#utility.yul\":2137:2139   */\n      0x20\n        /* \"#utility.yul\":2125:2134   */\n      dup3\n        /* \"#utility.yul\":2116:2123   */\n      dup5\n        /* \"#utility.yul\":2112:2135   */\n      sub\n        /* \"#utility.yul\":2108:2140   */\n      slt\n        /* \"#utility.yul\":2105:2224   */\n      iszero\n      tag_139\n      jumpi\n        /* \"#utility.yul\":2143:2222   */\n      tag_140\n      tag_83\n      jump\t// in\n    tag_140:\n        /* \"#utility.yul\":2105:2224   */\n    tag_139:\n        /* \"#utility.yul\":2263:2264   */\n      0x00\n        /* \"#utility.yul\":2288:2341   */\n      tag_141\n        /* \"#utility.yul\":2333:2340   */\n      dup5\n        /* \"#utility.yul\":2324:2330   */\n      dup3\n        /* \"#utility.yul\":2313:2322   */\n      dup6\n        /* \"#utility.yul\":2309:2331   */\n      add\n        /* \"#utility.yul\":2288:2341   */\n      tag_91\n      jump\t// in\n    tag_141:\n        /* \"#utility.yul\":2278:2341   */\n      swap2\n      pop\n        /* \"#utility.yul\":2234:2351   */\n      pop\n        /* \"#utility.yul\":2029:2358   */\n      swap3\n      swap2\n      pop\n      pop\n      jump\t// out\n        /* \"#utility.yul\":2364:2693   */\n    tag_29:\n        /* \"#utility.yul\":2423:2429   */\n      0x00\n        /* \"#utility.yul\":2472:2474   */\n      0x20\n        /* \"#utility.yul\":2460:2469   */\n      dup3\n        /* \"#utility.yul\":2451:2458   */\n      dup5\n        /* \"#utility.yul\":2447:2470   */\n      sub\n        /* \"#utility.yul\":2443:2475   */\n      slt\n        /* \"#utility.yul\":2440:2559   */\n      iszero\n      tag_143\n      jumpi\n        /* \"#utility.yul\":2478:2557   */\n      tag_144\n      tag_83\n      jump\t// in\n    tag_144:\n        /* \"#utility.yul\":2440:2559   */\n    tag_143:\n        /* \"#utility.yul\":2598:2599   */\n      0x00\n        /* \"#utility.yul\":2623:2676   */\n      tag_145\n        /* \"#utility.yul\":2668:2675   */\n      dup5\n        /* \"#utility.yul\":2659:2665   */\n      dup3\n        /* \"#utility.yul\":2648:2657   */\n      dup6\n        /* \"#utility.yul\":2644:2666   */\n      add\n        /* \"#utility.yul\":2623:2676   */\n      tag_88\n      jump\t// in\n    tag_145:\n        /* \"#utility.yul\":2613:2676   */\n      swap2\n      pop\n        /* \"#utility.yul\":2569:2686   */\n      pop\n        /* \"#utility.yul\":2364:2693   */\n      swap3\n      swap2\n      pop\n      pop\n      jump\t// out\n        /* \"#utility.yul\":2699:2813   */\n    tag_93:\n        /* \"#utility.yul\":2766:2772   */\n      0x00\n        /* \"#utility.yul\":2800:2805   */\n      dup2\n        /* \"#utility.yul\":2794:2806   */\n      mload\n        /* \"#utility.yul\":2784:2806   */\n      swap1\n      pop\n        /* \"#utility.yul\":2699:2813   */\n      swap2\n      swap1\n      pop\n      jump\t// out\n        /* \"#utility.yul\":2819:3003   */\n    tag_94:\n        /* \"#utility.yul\":2918:2929   */\n      0x00\n        /* \"#utility.yul\":2952:2958   */\n      dup3\n        /* \"#utility.yul\":2947:2950   */\n      dup3\n        /* \"#utility.yul\":2940:2959   */\n      mstore\n        /* \"#utility.yul\":2992:2996   */\n      0x20\n        /* \"#utility.yul\":2987:2990   */\n      dup3\n        /* \"#utility.yul\":2983:2997   */\n      add\n        /* \"#utility.yul\":2968:2997   */\n      swap1\n      pop\n        /* \"#utility.yul\":2819:3003   */\n      swap3\n      swap2\n      pop\n      pop\n      jump\t// out\n        /* \"#utility.yul\":3009:3141   */\n    tag_95:\n        /* \"#utility.yul\":3076:3080   */\n      0x00\n        /* \"#utility.yul\":3099:3102   */\n      dup2\n        /* \"#utility.yul\":3091:3102   */\n      swap1\n      pop\n        /* \"#utility.yul\":3129:3133   */\n      0x20\n        /* \"#utility.yul\":3124:3127   */\n      dup3\n        /* \"#utility.yul\":3120:3134   */\n      add\n        /* \"#utility.yul\":3112:3134   */\n      swap1\n      pop\n        /* \"#utility.yul\":3009:3141   */\n      swap2\n      swap1\n      pop\n      jump\t// out\n        /* \"#utility.yul\":3147:3255   */\n    tag_96:\n        /* \"#utility.yul\":3224:3248   */\n      tag_150\n        /* \"#utility.yul\":3242:3247   */\n      dup2\n        /* \"#utility.yul\":3224:3248   */\n      tag_89\n      jump\t// in\n    tag_150:\n        /* \"#utility.yul\":3219:3222   */\n      dup3\n        /* \"#utility.yul\":3212:3249   */\n      mstore\n        /* \"#utility.yul\":3147:3255   */\n      pop\n      pop\n      jump\t// out\n        /* \"#utility.yul\":3261:3440   */\n    tag_97:\n        /* \"#utility.yul\":3330:3340   */\n      0x00\n        /* \"#utility.yul\":3351:3397   */\n      tag_152\n        /* \"#utility.yul\":3393:3396   */\n      dup4\n        /* \"#utility.yul\":3385:3391   */\n      dup4\n        /* \"#utility.yul\":3351:3397   */\n      tag_96\n      jump\t// in\n    tag_152:\n        /* \"#utility.yul\":3429:3433   */\n      0x20\n        /* \"#utility.yul\":3424:3427   */\n      dup4\n        /* \"#utility.yul\":3420:3434   */\n      add\n        /* \"#utility.yul\":3406:3434   */\n      swap1\n      pop\n        /* \"#utility.yul\":3261:3440   */\n      swap3\n      swap2\n      pop\n      pop\n      jump\t// out\n        /* \"#utility.yul\":3446:3559   */\n    tag_98:\n        /* \"#utility.yul\":3516:3520   */\n      0x00\n        /* \"#utility.yul\":3548:3552   */\n      0x20\n        /* \"#utility.yul\":3543:3546   */\n      dup3\n        /* \"#utility.yul\":3539:3553   */\n      add\n        /* \"#utility.yul\":3531:3553   */\n      swap1\n      pop\n        /* \"#utility.yul\":3446:3559   */\n      swap2\n      swap1\n      pop\n      jump\t// out\n        /* \"#utility.yul\":3595:4327   */\n    tag_99:\n        /* \"#utility.yul\":3714:3717   */\n      0x00\n        /* \"#utility.yul\":3743:3797   */\n      tag_155\n        /* \"#utility.yul\":3791:3796   */\n      dup3\n        /* \"#utility.yul\":3743:3797   */\n      tag_93\n      jump\t// in\n    tag_155:\n        /* \"#utility.yul\":3813:3899   */\n      tag_156\n        /* \"#utility.yul\":3892:3898   */\n      dup2\n        /* \"#utility.yul\":3887:3890   */\n      dup6\n        /* \"#utility.yul\":3813:3899   */\n      tag_94\n      jump\t// in\n    tag_156:\n        /* \"#utility.yul\":3806:3899   */\n      swap4\n      pop\n        /* \"#utility.yul\":3923:3979   */\n      tag_157\n        /* \"#utility.yul\":3973:3978   */\n      dup4\n        /* \"#utility.yul\":3923:3979   */\n      tag_95\n      jump\t// in\n    tag_157:\n        /* \"#utility.yul\":4002:4009   */\n      dup1\n        /* \"#utility.yul\":4033:4034   */\n      0x00\n        /* \"#utility.yul\":4018:4302   */\n    tag_158:\n        /* \"#utility.yul\":4043:4049   */\n      dup4\n        /* \"#utility.yul\":4040:4041   */\n      dup2\n        /* \"#utility.yul\":4037:4050   */\n      lt\n        /* \"#utility.yul\":4018:4302   */\n      iszero\n      tag_160\n      jumpi\n        /* \"#utility.yul\":4119:4125   */\n      dup2\n        /* \"#utility.yul\":4113:4126   */\n      mload\n        /* \"#utility.yul\":4146:4209   */\n      tag_161\n        /* \"#utility.yul\":4205:4208   */\n      dup9\n        /* \"#utility.yul\":4190:4203   */\n      dup3\n        /* \"#utility.yul\":4146:4209   */\n      tag_97\n      jump\t// in\n    tag_161:\n        /* \"#utility.yul\":4139:4209   */\n      swap8\n      pop\n        /* \"#utility.yul\":4232:4292   */\n      tag_162\n        /* \"#utility.yul\":4285:4291   */\n      dup4\n        /* \"#utility.yul\":4232:4292   */\n      tag_98\n      jump\t// in\n    tag_162:\n        /* \"#utility.yul\":4222:4292   */\n      swap3\n      pop\n        /* \"#utility.yul\":4078:4302   */\n      pop\n        /* \"#utility.yul\":4065:4066   */\n      0x01\n        /* \"#utility.yul\":4062:4063   */\n      dup2\n        /* \"#utility.yul\":4058:4067   */\n      add\n        /* \"#utility.yul\":4053:4067   */\n      swap1\n      pop\n        /* \"#utility.yul\":4018:4302   */\n      jump(tag_158)\n    tag_160:\n        /* \"#utility.yul\":4022:4036   */\n      pop\n        /* \"#utility.yul\":4318:4321   */\n      dup6\n        /* \"#utility.yul\":4311:4321   */\n      swap4\n      pop\n        /* \"#utility.yul\":3719:4327   */\n      pop\n      pop\n      pop\n        /* \"#utility.yul\":3595:4327   */\n      swap3\n      swap2\n      pop\n      pop\n      jump\t// out\n        /* \"#utility.yul\":4333:4706   */\n    tag_32:\n        /* \"#utility.yul\":4476:4480   */\n      0x00\n        /* \"#utility.yul\":4514:4516   */\n      0x20\n        /* \"#utility.yul\":4503:4512   */\n      dup3\n        /* \"#utility.yul\":4499:4517   */\n      add\n        /* \"#utility.yul\":4491:4517   */\n      swap1\n      pop\n        /* \"#utility.yul\":4563:4572   */\n      dup2\n        /* \"#utility.yul\":4557:4561   */\n      dup2\n        /* \"#utility.yul\":4553:4573   */\n      sub\n        /* \"#utility.yul\":4549:4550   */\n      0x00\n        /* \"#utility.yul\":4538:4547   */\n      dup4\n        /* \"#utility.yul\":4534:4551   */\n      add\n        /* \"#utility.yul\":4527:4574   */\n      mstore\n        /* \"#utility.yul\":4591:4699   */\n      tag_164\n        /* \"#utility.yul\":4694:4698   */\n      dup2\n        /* \"#utility.yul\":4685:4691   */\n      dup5\n        /* \"#utility.yul\":4591:4699   */\n      tag_99\n      jump\t// in\n    tag_164:\n        /* \"#utility.yul\":4583:4699   */\n      swap1\n      pop\n        /* \"#utility.yul\":4333:4706   */\n      swap3\n      swap2\n      pop\n      pop\n      jump\t// out\n        /* \"#utility.yul\":4712:4816   */\n    tag_100:\n        /* \"#utility.yul\":4757:4764   */\n      0x00\n        /* \"#utility.yul\":4786:4810   */\n      tag_166\n        /* \"#utility.yul\":4804:4809   */\n      dup3\n        /* \"#utility.yul\":4786:4810   */\n      tag_85\n      jump\t// in\n    tag_166:\n        /* \"#utility.yul\":4775:4810   */\n      swap1\n      pop\n        /* \"#utility.yul\":4712:4816   */\n      swap2\n      swap1\n      pop\n      jump\t// out\n        /* \"#utility.yul\":4822:4964   */\n    tag_101:\n        /* \"#utility.yul\":4925:4957   */\n      tag_168\n        /* \"#utility.yul\":4951:4956   */\n      dup2\n        /* \"#utility.yul\":4925:4957   */\n      tag_100\n      jump\t// in\n    tag_168:\n        /* \"#utility.yul\":4920:4923   */\n      dup3\n        /* \"#utility.yul\":4913:4958   */\n      mstore\n        /* \"#utility.yul\":4822:4964   */\n      pop\n      pop\n      jump\t// out\n        /* \"#utility.yul\":4970:5666   */\n    tag_43:\n        /* \"#utility.yul\":5191:5195   */\n      0x00\n        /* \"#utility.yul\":5229:5232   */\n      0xa0\n        /* \"#utility.yul\":5218:5227   */\n      dup3\n        /* \"#utility.yul\":5214:5233   */\n      add\n        /* \"#utility.yul\":5206:5233   */\n      swap1\n      pop\n        /* \"#utility.yul\":5243:5330   */\n      tag_170\n        /* \"#utility.yul\":5327:5328   */\n      0x00\n        /* \"#utility.yul\":5316:5325   */\n      dup4\n        /* \"#utility.yul\":5312:5329   */\n      add\n        /* \"#utility.yul\":5303:5309   */\n      dup9\n        /* \"#utility.yul\":5243:5330   */\n      tag_101\n      jump\t// in\n    tag_170:\n        /* \"#utility.yul\":5340:5412   */\n      tag_171\n        /* \"#utility.yul\":5408:5410   */\n      0x20\n        /* \"#utility.yul\":5397:5406   */\n      dup4\n        /* \"#utility.yul\":5393:5411   */\n      add\n        /* \"#utility.yul\":5384:5390   */\n      dup8\n        /* \"#utility.yul\":5340:5412   */\n      tag_92\n      jump\t// in\n    tag_171:\n        /* \"#utility.yul\":5422:5494   */\n      tag_172\n        /* \"#utility.yul\":5490:5492   */\n      0x40\n        /* \"#utility.yul\":5479:5488   */\n      dup4\n        /* \"#utility.yul\":5475:5493   */\n      add\n        /* \"#utility.yul\":5466:5472   */\n      dup7\n        /* \"#utility.yul\":5422:5494   */\n      tag_92\n      jump\t// in\n    tag_172:\n        /* \"#utility.yul\":5504:5576   */\n      tag_173\n        /* \"#utility.yul\":5572:5574   */\n      0x60\n        /* \"#utility.yul\":5561:5570   */\n      dup4\n        /* \"#utility.yul\":5557:5575   */\n      add\n        /* \"#utility.yul\":5548:5554   */\n      dup6\n        /* \"#utility.yul\":5504:5576   */\n      tag_92\n      jump\t// in\n    tag_173:\n        /* \"#utility.yul\":5586:5659   */\n      tag_174\n        /* \"#utility.yul\":5654:5657   */\n      0x80\n        /* \"#utility.yul\":5643:5652   */\n      dup4\n        /* \"#utility.yul\":5639:5658   */\n      add\n        /* \"#utility.yul\":5630:5636   */\n      dup5\n        /* \"#utility.yul\":5586:5659   */\n      tag_92\n      jump\t// in\n    tag_174:\n        /* \"#utility.yul\":4970:5666   */\n      swap7\n      swap6\n      pop\n      pop\n      pop\n      pop\n      pop\n      pop\n      jump\t// out\n        /* \"#utility.yul\":5672:5841   */\n    tag_102:\n        /* \"#utility.yul\":5756:5767   */\n      0x00\n        /* \"#utility.yul\":5790:5796   */\n      dup3\n        /* \"#utility.yul\":5785:5788   */\n      dup3\n        /* \"#utility.yul\":5778:5797   */\n      mstore\n        /* \"#utility.yul\":5830:5834   */\n      0x20\n        /* \"#utility.yul\":5825:5828   */\n      dup3\n        /* \"#utility.yul\":5821:5835   */\n      add\n        /* \"#utility.yul\":5806:5835   */\n      swap1\n      pop\n        /* \"#utility.yul\":5672:5841   */\n      swap3\n      swap2\n      pop\n      pop\n      jump\t// out\n        /* \"#utility.yul\":5847:6017   */\n    tag_103:\n        /* \"#utility.yul\":5987:6009   */\n      0x796f7520617265206e6f742061206d656d626572000000000000000000000000\n        /* \"#utility.yul\":5983:5984   */\n      0x00\n        /* \"#utility.yul\":5975:5981   */\n      dup3\n        /* \"#utility.yul\":5971:5985   */\n      add\n        /* \"#utility.yul\":5964:6010   */\n      mstore\n        /* \"#utility.yul\":5847:6017   */\n      pop\n      jump\t// out\n        /* \"#utility.yul\":6023:6389   */\n    tag_104:\n        /* \"#utility.yul\":6165:6168   */\n      0x00\n        /* \"#utility.yul\":6186:6253   */\n      tag_178\n        /* \"#utility.yul\":6250:6252   */\n      0x14\n        /* \"#utility.yul\":6245:6248   */\n      dup4\n        /* \"#utility.yul\":6186:6253   */\n      tag_102\n      jump\t// in\n    tag_178:\n        /* \"#utility.yul\":6179:6253   */\n      swap2\n      pop\n        /* \"#utility.yul\":6262:6355   */\n      tag_179\n        /* \"#utility.yul\":6351:6354   */\n      dup3\n        /* \"#utility.yul\":6262:6355   */\n      tag_103\n      jump\t// in\n    tag_179:\n        /* \"#utility.yul\":6380:6382   */\n      0x20\n        /* \"#utility.yul\":6375:6378   */\n      dup3\n        /* \"#utility.yul\":6371:6383   */\n      add\n        /* \"#utility.yul\":6364:6383   */\n      swap1\n      pop\n        /* \"#utility.yul\":6023:6389   */\n      swap2\n      swap1\n      pop\n      jump\t// out\n        /* \"#utility.yul\":6395:6814   */\n    tag_50:\n        /* \"#utility.yul\":6561:6565   */\n      0x00\n        /* \"#utility.yul\":6599:6601   */\n      0x20\n        /* \"#utility.yul\":6588:6597   */\n      dup3\n        /* \"#utility.yul\":6584:6602   */\n      add\n        /* \"#utility.yul\":6576:6602   */\n      swap1\n      pop\n        /* \"#utility.yul\":6648:6657   */\n      dup2\n        /* \"#utility.yul\":6642:6646   */\n      dup2\n        /* \"#utility.yul\":6638:6658   */\n      sub\n        /* \"#utility.yul\":6634:6635   */\n      0x00\n        /* \"#utility.yul\":6623:6632   */\n      dup4\n        /* \"#utility.yul\":6619:6636   */\n      add\n        /* \"#utility.yul\":6612:6659   */\n      mstore\n        /* \"#utility.yul\":6676:6807   */\n      tag_181\n        /* \"#utility.yul\":6802:6806   */\n      dup2\n        /* \"#utility.yul\":6676:6807   */\n      tag_104\n      jump\t// in\n    tag_181:\n        /* \"#utility.yul\":6668:6807   */\n      swap1\n      pop\n        /* \"#utility.yul\":6395:6814   */\n      swap2\n      swap1\n      pop\n      jump\t// out\n        /* \"#utility.yul\":6820:6999   */\n    tag_105:\n        /* \"#utility.yul\":6960:6991   */\n      0x6c6f636b65642074696d652072656d61696e73207269676874206e6f77000000\n        /* \"#utility.yul\":6956:6957   */\n      0x00\n        /* \"#utility.yul\":6948:6954   */\n      dup3\n        /* \"#utility.yul\":6944:6958   */\n      add\n        /* \"#utility.yul\":6937:6992   */\n      mstore\n        /* \"#utility.yul\":6820:6999   */\n      pop\n      jump\t// out\n        /* \"#utility.yul\":7005:7371   */\n    tag_106:\n        /* \"#utility.yul\":7147:7150   */\n      0x00\n        /* \"#utility.yul\":7168:7235   */\n      tag_184\n        /* \"#utility.yul\":7232:7234   */\n      0x1d\n        /* \"#utility.yul\":7227:7230   */\n      dup4\n        /* \"#utility.yul\":7168:7235   */\n      tag_102\n      jump\t// in\n    tag_184:\n        /* \"#utility.yul\":7161:7235   */\n      swap2\n      pop\n        /* \"#utility.yul\":7244:7337   */\n      tag_185\n        /* \"#utility.yul\":7333:7336   */\n      dup3\n        /* \"#utility.yul\":7244:7337   */\n      tag_105\n      jump\t// in\n    tag_185:\n        /* \"#utility.yul\":7362:7364   */\n      0x20\n        /* \"#utility.yul\":7357:7360   */\n      dup3\n        /* \"#utility.yul\":7353:7365   */\n      add\n        /* \"#utility.yul\":7346:7365   */\n      swap1\n      pop\n        /* \"#utility.yul\":7005:7371   */\n      swap2\n      swap1\n      pop\n      jump\t// out\n        /* \"#utility.yul\":7377:7796   */\n    tag_53:\n        /* \"#utility.yul\":7543:7547   */\n      0x00\n        /* \"#utility.yul\":7581:7583   */\n      0x20\n        /* \"#utility.yul\":7570:7579   */\n      dup3\n        /* \"#utility.yul\":7566:7584   */\n      add\n        /* \"#utility.yul\":7558:7584   */\n      swap1\n      pop\n        /* \"#utility.yul\":7630:7639   */\n      dup2\n        /* \"#utility.yul\":7624:7628   */\n      dup2\n        /* \"#utility.yul\":7620:7640   */\n      sub\n        /* \"#utility.yul\":7616:7617   */\n      0x00\n        /* \"#utility.yul\":7605:7614   */\n      dup4\n        /* \"#utility.yul\":7601:7618   */\n      add\n        /* \"#utility.yul\":7594:7641   */\n      mstore\n        /* \"#utility.yul\":7658:7789   */\n      tag_187\n        /* \"#utility.yul\":7784:7788   */\n      dup2\n        /* \"#utility.yul\":7658:7789   */\n      tag_106\n      jump\t// in\n    tag_187:\n        /* \"#utility.yul\":7650:7789   */\n      swap1\n      pop\n        /* \"#utility.yul\":7377:7796   */\n      swap2\n      swap1\n      pop\n      jump\t// out\n        /* \"#utility.yul\":7802:7982   */\n    tag_58:\n        /* \"#utility.yul\":7850:7927   */\n      0x4e487b7100000000000000000000000000000000000000000000000000000000\n        /* \"#utility.yul\":7847:7848   */\n      0x00\n        /* \"#utility.yul\":7840:7928   */\n      mstore\n        /* \"#utility.yul\":7947:7951   */\n      0x32\n        /* \"#utility.yul\":7944:7945   */\n      0x04\n        /* \"#utility.yul\":7937:7952   */\n      mstore\n        /* \"#utility.yul\":7971:7975   */\n      0x24\n        /* \"#utility.yul\":7968:7969   */\n      0x00\n        /* \"#utility.yul\":7961:7976   */\n      revert\n        /* \"#utility.yul\":7988:8208   */\n    tag_107:\n        /* \"#utility.yul\":8128:8162   */\n      0x6465706f736974206d757374206265206d6f7265207468616e20302065746865\n        /* \"#utility.yul\":8124:8125   */\n      0x00\n        /* \"#utility.yul\":8116:8122   */\n      dup3\n        /* \"#utility.yul\":8112:8126   */\n      add\n        /* \"#utility.yul\":8105:8163   */\n      mstore\n        /* \"#utility.yul\":8197:8200   */\n      0x7200000000000000000000000000000000000000000000000000000000000000\n        /* \"#utility.yul\":8192:8194   */\n      0x20\n        /* \"#utility.yul\":8184:8190   */\n      dup3\n        /* \"#utility.yul\":8180:8195   */\n      add\n        /* \"#utility.yul\":8173:8201   */\n      mstore\n        /* \"#utility.yul\":7988:8208   */\n      pop\n      jump\t// out\n        /* \"#utility.yul\":8214:8580   */\n    tag_108:\n        /* \"#utility.yul\":8356:8359   */\n      0x00\n        /* \"#utility.yul\":8377:8444   */\n      tag_191\n        /* \"#utility.yul\":8441:8443   */\n      0x21\n        /* \"#utility.yul\":8436:8439   */\n      dup4\n        /* \"#utility.yul\":8377:8444   */\n      tag_102\n      jump\t// in\n    tag_191:\n        /* \"#utility.yul\":8370:8444   */\n      swap2\n      pop\n        /* \"#utility.yul\":8453:8546   */\n      tag_192\n        /* \"#utility.yul\":8542:8545   */\n      dup3\n        /* \"#utility.yul\":8453:8546   */\n      tag_107\n      jump\t// in\n    tag_192:\n        /* \"#utility.yul\":8571:8573   */\n      0x40\n        /* \"#utility.yul\":8566:8569   */\n      dup3\n        /* \"#utility.yul\":8562:8574   */\n      add\n        /* \"#utility.yul\":8555:8574   */\n      swap1\n      pop\n        /* \"#utility.yul\":8214:8580   */\n      swap2\n      swap1\n      pop\n      jump\t// out\n        /* \"#utility.yul\":8586:9005   */\n    tag_71:\n        /* \"#utility.yul\":8752:8756   */\n      0x00\n        /* \"#utility.yul\":8790:8792   */\n      0x20\n        /* \"#utility.yul\":8779:8788   */\n      dup3\n        /* \"#utility.yul\":8775:8793   */\n      add\n        /* \"#utility.yul\":8767:8793   */\n      swap1\n      pop\n        /* \"#utility.yul\":8839:8848   */\n      dup2\n        /* \"#utility.yul\":8833:8837   */\n      dup2\n        /* \"#utility.yul\":8829:8849   */\n      sub\n        /* \"#utility.yul\":8825:8826   */\n      0x00\n        /* \"#utility.yul\":8814:8823   */\n      dup4\n        /* \"#utility.yul\":8810:8827   */\n      add\n        /* \"#utility.yul\":8803:8850   */\n      mstore\n        /* \"#utility.yul\":8867:8998   */\n      tag_194\n        /* \"#utility.yul\":8993:8997   */\n      dup2\n        /* \"#utility.yul\":8867:8998   */\n      tag_108\n      jump\t// in\n    tag_194:\n        /* \"#utility.yul\":8859:8998   */\n      swap1\n      pop\n        /* \"#utility.yul\":8586:9005   */\n      swap2\n      swap1\n      pop\n      jump\t// out\n        /* \"#utility.yul\":9011:9191   */\n    tag_109:\n        /* \"#utility.yul\":9059:9136   */\n      0x4e487b7100000000000000000000000000000000000000000000000000000000\n        /* \"#utility.yul\":9056:9057   */\n      0x00\n        /* \"#utility.yul\":9049:9137   */\n      mstore\n        /* \"#utility.yul\":9156:9160   */\n      0x11\n        /* \"#utility.yul\":9153:9154   */\n      0x04\n        /* \"#utility.yul\":9146:9161   */\n      mstore\n        /* \"#utility.yul\":9180:9184   */\n      0x24\n        /* \"#utility.yul\":9177:9178   */\n      0x00\n        /* \"#utility.yul\":9170:9185   */\n      revert\n        /* \"#utility.yul\":9197:9388   */\n    tag_74:\n        /* \"#utility.yul\":9237:9240   */\n      0x00\n        /* \"#utility.yul\":9256:9276   */\n      tag_197\n        /* \"#utility.yul\":9274:9275   */\n      dup3\n        /* \"#utility.yul\":9256:9276   */\n      tag_89\n      jump\t// in\n    tag_197:\n        /* \"#utility.yul\":9251:9276   */\n      swap2\n      pop\n        /* \"#utility.yul\":9290:9310   */\n      tag_198\n        /* \"#utility.yul\":9308:9309   */\n      dup4\n        /* \"#utility.yul\":9290:9310   */\n      tag_89\n      jump\t// in\n    tag_198:\n        /* \"#utility.yul\":9285:9310   */\n      swap3\n      pop\n        /* \"#utility.yul\":9333:9334   */\n      dup3\n        /* \"#utility.yul\":9330:9331   */\n      dup3\n        /* \"#utility.yul\":9326:9335   */\n      add\n        /* \"#utility.yul\":9319:9335   */\n      swap1\n      pop\n        /* \"#utility.yul\":9354:9357   */\n      dup1\n        /* \"#utility.yul\":9351:9352   */\n      dup3\n        /* \"#utility.yul\":9348:9358   */\n      gt\n        /* \"#utility.yul\":9345:9381   */\n      iszero\n      tag_199\n      jumpi\n        /* \"#utility.yul\":9361:9379   */\n      tag_200\n      tag_109\n      jump\t// in\n    tag_200:\n        /* \"#utility.yul\":9345:9381   */\n    tag_199:\n        /* \"#utility.yul\":9197:9388   */\n      swap3\n      swap2\n      pop\n      pop\n      jump\t// out\n        /* \"#utility.yul\":9394:9512   */\n    tag_110:\n        /* \"#utility.yul\":9481:9505   */\n      tag_202\n        /* \"#utility.yul\":9499:9504   */\n      dup2\n        /* \"#utility.yul\":9481:9505   */\n      tag_86\n      jump\t// in\n    tag_202:\n        /* \"#utility.yul\":9476:9479   */\n      dup3\n        /* \"#utility.yul\":9469:9506   */\n      mstore\n        /* \"#utility.yul\":9394:9512   */\n      pop\n      pop\n      jump\t// out\n        /* \"#utility.yul\":9518:10182   */\n    tag_79:\n        /* \"#utility.yul\":9723:9727   */\n      0x00\n        /* \"#utility.yul\":9761:9764   */\n      0xa0\n        /* \"#utility.yul\":9750:9759   */\n      dup3\n        /* \"#utility.yul\":9746:9765   */\n      add\n        /* \"#utility.yul\":9738:9765   */\n      swap1\n      pop\n        /* \"#utility.yul\":9775:9846   */\n      tag_204\n        /* \"#utility.yul\":9843:9844   */\n      0x00\n        /* \"#utility.yul\":9832:9841   */\n      dup4\n        /* \"#utility.yul\":9828:9845   */\n      add\n        /* \"#utility.yul\":9819:9825   */\n      dup9\n        /* \"#utility.yul\":9775:9846   */\n      tag_110\n      jump\t// in\n    tag_204:\n        /* \"#utility.yul\":9856:9928   */\n      tag_205\n        /* \"#utility.yul\":9924:9926   */\n      0x20\n        /* \"#utility.yul\":9913:9922   */\n      dup4\n        /* \"#utility.yul\":9909:9927   */\n      add\n        /* \"#utility.yul\":9900:9906   */\n      dup8\n        /* \"#utility.yul\":9856:9928   */\n      tag_92\n      jump\t// in\n    tag_205:\n        /* \"#utility.yul\":9938:10010   */\n      tag_206\n        /* \"#utility.yul\":10006:10008   */\n      0x40\n        /* \"#utility.yul\":9995:10004   */\n      dup4\n        /* \"#utility.yul\":9991:10009   */\n      add\n        /* \"#utility.yul\":9982:9988   */\n      dup7\n        /* \"#utility.yul\":9938:10010   */\n      tag_92\n      jump\t// in\n    tag_206:\n        /* \"#utility.yul\":10020:10092   */\n      tag_207\n        /* \"#utility.yul\":10088:10090   */\n      0x60\n        /* \"#utility.yul\":10077:10086   */\n      dup4\n        /* \"#utility.yul\":10073:10091   */\n      add\n        /* \"#utility.yul\":10064:10070   */\n      dup6\n        /* \"#utility.yul\":10020:10092   */\n      tag_92\n      jump\t// in\n    tag_207:\n        /* \"#utility.yul\":10102:10175   */\n      tag_208\n        /* \"#utility.yul\":10170:10173   */\n      0x80\n        /* \"#utility.yul\":10159:10168   */\n      dup4\n        /* \"#utility.yul\":10155:10174   */\n      add\n        /* \"#utility.yul\":10146:10152   */\n      dup5\n        /* \"#utility.yul\":10102:10175   */\n      tag_92\n      jump\t// in\n    tag_208:\n        /* \"#utility.yul\":9518:10182   */\n      swap7\n      swap6\n      pop\n      pop\n      pop\n      pop\n      pop\n      pop\n      jump\t// out\n\n    auxdata: 0xa26469706673582212205981b7de1ff7d27c6b2d58ee3a9d6526bc61358e52472ddc55b42dd3f41e1b3564736f6c63430008120033\n}\n",
				"bytecode": {
					"linkReferences": {},
					"object": "608060405234801561001057600080fd5b50610e6f806100206000396000f3fe6080604052600436106100705760003560e01c80635ad821481161004e5780635ad821481461010b57806363c69f081461014857806387f0d04414610185578063b6b55f25146101c657610070565b80631918ba36146100755780631e579b6d146100b25780632e1a7d4d146100ef575b600080fd5b34801561008157600080fd5b5061009c600480360381019061009791906109b2565b6101e2565b6040516100a99190610a01565b60405180910390f35b3480156100be57600080fd5b506100d960048036038101906100d491906109b2565b610207565b6040516100e69190610a01565b60405180910390f35b61010960048036038101906101049190610a1c565b61022c565b005b34801561011757600080fd5b50610132600480360381019061012d9190610a49565b610457565b60405161013f9190610b34565b60405180910390f35b34801561015457600080fd5b5061016f600480360381019061016a9190610a49565b6104ee565b60405161017c9190610b34565b60405180910390f35b34801561019157600080fd5b506101ac60048036038101906101a79190610a1c565b610585565b6040516101bd959493929190610b77565b60405180910390f35b6101e060048036038101906101db9190610a1c565b6105eb565b005b6000602052816000526040600020602052806000526040600020600091509150505481565b6001602052816000526040600020602052806000526040600020600091509150505481565b6000600160003373ffffffffffffffffffffffffffffffffffffffff1673ffffffffffffffffffffffffffffffffffffffff168152602001908152602001600020600083815260200190815260200160002054116102bf576040517f08c379a00000000000000000000000000000000000000000000000000000000081526004016102b690610c27565b60405180910390fd5b6000803373ffffffffffffffffffffffffffffffffffffffff1673ffffffffffffffffffffffffffffffffffffffff168152602001908152602001600020600082815260200190815260200160002054421015610351576040517f08c379a000000000000000000000000000000000000000000000000000000000815260040161034890610c93565b60405180910390fd5b3373ffffffffffffffffffffffffffffffffffffffff166108fc600160003373ffffffffffffffffffffffffffffffffffffffff1673ffffffffffffffffffffffffffffffffffffffff1681526020019081526020016000206000848152602001908152602001600020549081150290604051600060405180830381858888f193505050501580156103e7573d6000803e3d6000fd5b50600481815481106103fc576103fb610cb3565b5b9060005260206000209060050201600080820160006101000a81549073ffffffffffffffffffffffffffffffffffffffff02191690556001820160009055600282016000905560038201600090556004820160009055505050565b6060600260008373ffffffffffffffffffffffffffffffffffffffff1673ffffffffffffffffffffffffffffffffffffffff1681526020019081526020016000208054806020026020016040519081016040528092919081815260200182805480156104e257602002820191906000526020600020905b8154815260200190600101908083116104ce575b50505050509050919050565b6060600360008373ffffffffffffffffffffffffffffffffffffffff1673ffffffffffffffffffffffffffffffffffffffff16815260200190815260200160002080548060200260200160405190810160405280929190818152602001828054801561057957602002820191906000526020600020905b815481526020019060010190808311610565575b50505050509050919050565b6004818154811061059557600080fd5b90600052602060002090600502016000915090508060000160009054906101000a900473ffffffffffffffffffffffffffffffffffffffff16908060010154908060020154908060030154908060040154905085565b6000341161062e576040517f08c379a000000000000000000000000000000000000000000000000000000000815260040161062590610d54565b60405180910390fd5b60046040518060a001604052803373ffffffffffffffffffffffffffffffffffffffff1681526020013481526020018381526020016005548152602001600654815250908060018154018082558091505060019003906000526020600020906005020160009091909190915060008201518160000160006101000a81548173ffffffffffffffffffffffffffffffffffffffff021916908373ffffffffffffffffffffffffffffffffffffffff160217905550602082015181600101556040820151816002015560608201518160030155608082015181600401555050601e816107189190610da3565b426107239190610da3565b6000803373ffffffffffffffffffffffffffffffffffffffff1673ffffffffffffffffffffffffffffffffffffffff168152602001908152602001600020600060065481526020019081526020016000208190555034600160003373ffffffffffffffffffffffffffffffffffffffff1673ffffffffffffffffffffffffffffffffffffffff1681526020019081526020016000206000600654815260200190815260200160002081905550600260003373ffffffffffffffffffffffffffffffffffffffff1673ffffffffffffffffffffffffffffffffffffffff1681526020019081526020016000206005549080600181540180825580915050600190039060005260206000200160009091909190915055600360003373ffffffffffffffffffffffffffffffffffffffff1673ffffffffffffffffffffffffffffffffffffffff16815260200190815260200160002060065490806001815401808255809150506001900390600052602060002001600090919091909150557fba83add69b6ba79c9a28c85fb5f02b2e57556157869b56714bdce8701897e5893334836005546006546040516108da959493929190610de6565b60405180910390a16001600560008282546108f59190610da3565b9250508190555060016006600082825461090f9190610da3565b9250508190555050565b600080fd5b600073ffffffffffffffffffffffffffffffffffffffff82169050919050565b60006109498261091e565b9050919050565b6109598161093e565b811461096457600080fd5b50565b60008135905061097681610950565b92915050565b6000819050919050565b61098f8161097c565b811461099a57600080fd5b50565b6000813590506109ac81610986565b92915050565b600080604083850312156109c9576109c8610919565b5b60006109d785828601610967565b92505060206109e88582860161099d565b9150509250929050565b6109fb8161097c565b82525050565b6000602082019050610a1660008301846109f2565b92915050565b600060208284031215610a3257610a31610919565b5b6000610a408482850161099d565b91505092915050565b600060208284031215610a5f57610a5e610919565b5b6000610a6d84828501610967565b91505092915050565b600081519050919050565b600082825260208201905092915050565b6000819050602082019050919050565b610aab8161097c565b82525050565b6000610abd8383610aa2565b60208301905092915050565b6000602082019050919050565b6000610ae182610a76565b610aeb8185610a81565b9350610af683610a92565b8060005b83811015610b27578151610b0e8882610ab1565b9750610b1983610ac9565b925050600181019050610afa565b5085935050505092915050565b60006020820190508181036000830152610b4e8184610ad6565b905092915050565b6000610b618261091e565b9050919050565b610b7181610b56565b82525050565b600060a082019050610b8c6000830188610b68565b610b9960208301876109f2565b610ba660408301866109f2565b610bb360608301856109f2565b610bc060808301846109f2565b9695505050505050565b600082825260208201905092915050565b7f796f7520617265206e6f742061206d656d626572000000000000000000000000600082015250565b6000610c11601483610bca565b9150610c1c82610bdb565b602082019050919050565b60006020820190508181036000830152610c4081610c04565b9050919050565b7f6c6f636b65642074696d652072656d61696e73207269676874206e6f77000000600082015250565b6000610c7d601d83610bca565b9150610c8882610c47565b602082019050919050565b60006020820190508181036000830152610cac81610c70565b9050919050565b7f4e487b7100000000000000000000000000000000000000000000000000000000600052603260045260246000fd5b7f6465706f736974206d757374206265206d6f7265207468616e2030206574686560008201527f7200000000000000000000000000000000000000000000000000000000000000602082015250565b6000610d3e602183610bca565b9150610d4982610ce2565b604082019050919050565b60006020820190508181036000830152610d6d81610d31565b9050919050565b7f4e487b7100000000000000000000000000000000000000000000000000000000600052601160045260246000fd5b6000610dae8261097c565b9150610db98361097c565b9250828201905080821115610dd157610dd0610d74565b5b92915050565b610de08161093e565b82525050565b600060a082019050610dfb6000830188610dd7565b610e0860208301876109f2565b610e1560408301866109f2565b610e2260608301856109f2565b610e2f60808301846109f2565b969550505050505056fea26469706673582212205981b7de1ff7d27c6b2d58ee3a9d6526bc61358e52472ddc55b42dd3f41e1b3564736f6c63430008120033",
					"opcodes": "PUSH1 0x80 PUSH1 0x40 MSTORE CALLVALUE DUP1 ISZERO PUSH2 0x10 JUMPI PUSH1 0x0 DUP1 REVERT JUMPDEST POP PUSH2 0xE6F DUP1 PUSH2 0x20 PUSH1 0x0 CODECOPY PUSH1 0x0 RETURN INVALID PUSH1 0x80 PUSH1 0x40 MSTORE PUSH1 0x4 CALLDATASIZE LT PUSH2 0x70 JUMPI PUSH1 0x0 CALLDATALOAD PUSH1 0xE0 SHR DUP1 PUSH4 0x5AD82148 GT PUSH2 0x4E JUMPI DUP1 PUSH4 0x5AD82148 EQ PUSH2 0x10B JUMPI DUP1 PUSH4 0x63C69F08 EQ PUSH2 0x148 JUMPI DUP1 PUSH4 0x87F0D044 EQ PUSH2 0x185 JUMPI DUP1 PUSH4 0xB6B55F25 EQ PUSH2 0x1C6 JUMPI PUSH2 0x70 JUMP JUMPDEST DUP1 PUSH4 0x1918BA36 EQ PUSH2 0x75 JUMPI DUP1 PUSH4 0x1E579B6D EQ PUSH2 0xB2 JUMPI DUP1 PUSH4 0x2E1A7D4D EQ PUSH2 0xEF JUMPI JUMPDEST PUSH1 0x0 DUP1 REVERT JUMPDEST CALLVALUE DUP1 ISZERO PUSH2 0x81 JUMPI PUSH1 0x0 DUP1 REVERT JUMPDEST POP PUSH2 0x9C PUSH1 0x4 DUP1 CALLDATASIZE SUB DUP2 ADD SWAP1 PUSH2 0x97 SWAP2 SWAP1 PUSH2 0x9B2 JUMP JUMPDEST PUSH2 0x1E2 JUMP JUMPDEST PUSH1 0x40 MLOAD PUSH2 0xA9 SWAP2 SWAP1 PUSH2 0xA01 JUMP JUMPDEST PUSH1 0x40 MLOAD DUP1 SWAP2 SUB SWAP1 RETURN JUMPDEST CALLVALUE DUP1 ISZERO PUSH2 0xBE JUMPI PUSH1 0x0 DUP1 REVERT JUMPDEST POP PUSH2 0xD9 PUSH1 0x4 DUP1 CALLDATASIZE SUB DUP2 ADD SWAP1 PUSH2 0xD4 SWAP2 SWAP1 PUSH2 0x9B2 JUMP JUMPDEST PUSH2 0x207 JUMP JUMPDEST PUSH1 0x40 MLOAD PUSH2 0xE6 SWAP2 SWAP1 PUSH2 0xA01 JUMP JUMPDEST PUSH1 0x40 MLOAD DUP1 SWAP2 SUB SWAP1 RETURN JUMPDEST PUSH2 0x109 PUSH1 0x4 DUP1 CALLDATASIZE SUB DUP2 ADD SWAP1 PUSH2 0x104 SWAP2 SWAP1 PUSH2 0xA1C JUMP JUMPDEST PUSH2 0x22C JUMP JUMPDEST STOP JUMPDEST CALLVALUE DUP1 ISZERO PUSH2 0x117 JUMPI PUSH1 0x0 DUP1 REVERT JUMPDEST POP PUSH2 0x132 PUSH1 0x4 DUP1 CALLDATASIZE SUB DUP2 ADD SWAP1 PUSH2 0x12D SWAP2 SWAP1 PUSH2 0xA49 JUMP JUMPDEST PUSH2 0x457 JUMP JUMPDEST PUSH1 0x40 MLOAD PUSH2 0x13F SWAP2 SWAP1 PUSH2 0xB34 JUMP JUMPDEST PUSH1 0x40 MLOAD DUP1 SWAP2 SUB SWAP1 RETURN JUMPDEST CALLVALUE DUP1 ISZERO PUSH2 0x154 JUMPI PUSH1 0x0 DUP1 REVERT JUMPDEST POP PUSH2 0x16F PUSH1 0x4 DUP1 CALLDATASIZE SUB DUP2 ADD SWAP1 PUSH2 0x16A SWAP2 SWAP1 PUSH2 0xA49 JUMP JUMPDEST PUSH2 0x4EE JUMP JUMPDEST PUSH1 0x40 MLOAD PUSH2 0x17C SWAP2 SWAP1 PUSH2 0xB34 JUMP JUMPDEST PUSH1 0x40 MLOAD DUP1 SWAP2 SUB SWAP1 RETURN JUMPDEST CALLVALUE DUP1 ISZERO PUSH2 0x191 JUMPI PUSH1 0x0 DUP1 REVERT JUMPDEST POP PUSH2 0x1AC PUSH1 0x4 DUP1 CALLDATASIZE SUB DUP2 ADD SWAP1 PUSH2 0x1A7 SWAP2 SWAP1 PUSH2 0xA1C JUMP JUMPDEST PUSH2 0x585 JUMP JUMPDEST PUSH1 0x40 MLOAD PUSH2 0x1BD SWAP6 SWAP5 SWAP4 SWAP3 SWAP2 SWAP1 PUSH2 0xB77 JUMP JUMPDEST PUSH1 0x40 MLOAD DUP1 SWAP2 SUB SWAP1 RETURN JUMPDEST PUSH2 0x1E0 PUSH1 0x4 DUP1 CALLDATASIZE SUB DUP2 ADD SWAP1 PUSH2 0x1DB SWAP2 SWAP1 PUSH2 0xA1C JUMP JUMPDEST PUSH2 0x5EB JUMP JUMPDEST STOP JUMPDEST PUSH1 0x0 PUSH1 0x20 MSTORE DUP2 PUSH1 0x0 MSTORE PUSH1 0x40 PUSH1 0x0 KECCAK256 PUSH1 0x20 MSTORE DUP1 PUSH1 0x0 MSTORE PUSH1 0x40 PUSH1 0x0 KECCAK256 PUSH1 0x0 SWAP2 POP SWAP2 POP POP SLOAD DUP2 JUMP JUMPDEST PUSH1 0x1 PUSH1 0x20 MSTORE DUP2 PUSH1 0x0 MSTORE PUSH1 0x40 PUSH1 0x0 KECCAK256 PUSH1 0x20 MSTORE DUP1 PUSH1 0x0 MSTORE PUSH1 0x40 PUSH1 0x0 KECCAK256 PUSH1 0x0 SWAP2 POP SWAP2 POP POP SLOAD DUP2 JUMP JUMPDEST PUSH1 0x0 PUSH1 0x1 PUSH1 0x0 CALLER PUSH20 0xFFFFFFFFFFFFFFFFFFFFFFFFFFFFFFFFFFFFFFFF AND PUSH20 0xFFFFFFFFFFFFFFFFFFFFFFFFFFFFFFFFFFFFFFFF AND DUP2 MSTORE PUSH1 0x20 ADD SWAP1 DUP2 MSTORE PUSH1 0x20 ADD PUSH1 0x0 KECCAK256 PUSH1 0x0 DUP4 DUP2 MSTORE PUSH1 0x20 ADD SWAP1 DUP2 MSTORE PUSH1 0x20 ADD PUSH1 0x0 KECCAK256 SLOAD GT PUSH2 0x2BF JUMPI PUSH1 0x40 MLOAD PUSH32 0x8C379A000000000000000000000000000000000000000000000000000000000 DUP2 MSTORE PUSH1 0x4 ADD PUSH2 0x2B6 SWAP1 PUSH2 0xC27 JUMP JUMPDEST PUSH1 0x40 MLOAD DUP1 SWAP2 SUB SWAP1 REVERT JUMPDEST PUSH1 0x0 DUP1 CALLER PUSH20 0xFFFFFFFFFFFFFFFFFFFFFFFFFFFFFFFFFFFFFFFF AND PUSH20 0xFFFFFFFFFFFFFFFFFFFFFFFFFFFFFFFFFFFFFFFF AND DUP2 MSTORE PUSH1 0x20 ADD SWAP1 DUP2 MSTORE PUSH1 0x20 ADD PUSH1 0x0 KECCAK256 PUSH1 0x0 DUP3 DUP2 MSTORE PUSH1 0x20 ADD SWAP1 DUP2 MSTORE PUSH1 0x20 ADD PUSH1 0x0 KECCAK256 SLOAD TIMESTAMP LT ISZERO PUSH2 0x351 JUMPI PUSH1 0x40 MLOAD PUSH32 0x8C379A000000000000000000000000000000000000000000000000000000000 DUP2 MSTORE PUSH1 0x4 ADD PUSH2 0x348 SWAP1 PUSH2 0xC93 JUMP JUMPDEST PUSH1 0x40 MLOAD DUP1 SWAP2 SUB SWAP1 REVERT JUMPDEST CALLER PUSH20 0xFFFFFFFFFFFFFFFFFFFFFFFFFFFFFFFFFFFFFFFF AND PUSH2 0x8FC PUSH1 0x1 PUSH1 0x0 CALLER PUSH20 0xFFFFFFFFFFFFFFFFFFFFFFFFFFFFFFFFFFFFFFFF AND PUSH20 0xFFFFFFFFFFFFFFFFFFFFFFFFFFFFFFFFFFFFFFFF AND DUP2 MSTORE PUSH1 0x20 ADD SWAP1 DUP2 MSTORE PUSH1 0x20 ADD PUSH1 0x0 KECCAK256 PUSH1 0x0 DUP5 DUP2 MSTORE PUSH1 0x20 ADD SWAP1 DUP2 MSTORE PUSH1 0x20 ADD PUSH1 0x0 KECCAK256 SLOAD SWAP1 DUP2 ISZERO MUL SWAP1 PUSH1 0x40 MLOAD PUSH1 0x0 PUSH1 0x40 MLOAD DUP1 DUP4 SUB DUP2 DUP6 DUP9 DUP9 CALL SWAP4 POP POP POP POP ISZERO DUP1 ISZERO PUSH2 0x3E7 JUMPI RETURNDATASIZE PUSH1 0x0 DUP1 RETURNDATACOPY RETURNDATASIZE PUSH1 0x0 REVERT JUMPDEST POP PUSH1 0x4 DUP2 DUP2 SLOAD DUP2 LT PUSH2 0x3FC JUMPI PUSH2 0x3FB PUSH2 0xCB3 JUMP JUMPDEST JUMPDEST SWAP1 PUSH1 0x0 MSTORE PUSH1 0x20 PUSH1 0x0 KECCAK256 SWAP1 PUSH1 0x5 MUL ADD PUSH1 0x0 DUP1 DUP3 ADD PUSH1 0x0 PUSH2 0x100 EXP DUP2 SLOAD SWAP1 PUSH20 0xFFFFFFFFFFFFFFFFFFFFFFFFFFFFFFFFFFFFFFFF MUL NOT AND SWAP1 SSTORE PUSH1 0x1 DUP3 ADD PUSH1 0x0 SWAP1 SSTORE PUSH1 0x2 DUP3 ADD PUSH1 0x0 SWAP1 SSTORE PUSH1 0x3 DUP3 ADD PUSH1 0x0 SWAP1 SSTORE PUSH1 0x4 DUP3 ADD PUSH1 0x0 SWAP1 SSTORE POP POP POP JUMP JUMPDEST PUSH1 0x60 PUSH1 0x2 PUSH1 0x0 DUP4 PUSH20 0xFFFFFFFFFFFFFFFFFFFFFFFFFFFFFFFFFFFFFFFF AND PUSH20 0xFFFFFFFFFFFFFFFFFFFFFFFFFFFFFFFFFFFFFFFF AND DUP2 MSTORE PUSH1 0x20 ADD SWAP1 DUP2 MSTORE PUSH1 0x20 ADD PUSH1 0x0 KECCAK256 DUP1 SLOAD DUP1 PUSH1 0x20 MUL PUSH1 0x20 ADD PUSH1 0x40 MLOAD SWAP1 DUP2 ADD PUSH1 0x40 MSTORE DUP1 SWAP3 SWAP2 SWAP1 DUP2 DUP2 MSTORE PUSH1 0x20 ADD DUP3 DUP1 SLOAD DUP1 ISZERO PUSH2 0x4E2 JUMPI PUSH1 0x20 MUL DUP3 ADD SWAP2 SWAP1 PUSH1 0x0 MSTORE PUSH1 0x20 PUSH1 0x0 KECCAK256 SWAP1 JUMPDEST DUP2 SLOAD DUP2 MSTORE PUSH1 0x20 ADD SWAP1 PUSH1 0x1 ADD SWAP1 DUP1 DUP4 GT PUSH2 0x4CE JUMPI JUMPDEST POP POP POP POP POP SWAP1 POP SWAP2 SWAP1 POP JUMP JUMPDEST PUSH1 0x60 PUSH1 0x3 PUSH1 0x0 DUP4 PUSH20 0xFFFFFFFFFFFFFFFFFFFFFFFFFFFFFFFFFFFFFFFF AND PUSH20 0xFFFFFFFFFFFFFFFFFFFFFFFFFFFFFFFFFFFFFFFF AND DUP2 MSTORE PUSH1 0x20 ADD SWAP1 DUP2 MSTORE PUSH1 0x20 ADD PUSH1 0x0 KECCAK256 DUP1 SLOAD DUP1 PUSH1 0x20 MUL PUSH1 0x20 ADD PUSH1 0x40 MLOAD SWAP1 DUP2 ADD PUSH1 0x40 MSTORE DUP1 SWAP3 SWAP2 SWAP1 DUP2 DUP2 MSTORE PUSH1 0x20 ADD DUP3 DUP1 SLOAD DUP1 ISZERO PUSH2 0x579 JUMPI PUSH1 0x20 MUL DUP3 ADD SWAP2 SWAP1 PUSH1 0x0 MSTORE PUSH1 0x20 PUSH1 0x0 KECCAK256 SWAP1 JUMPDEST DUP2 SLOAD DUP2 MSTORE PUSH1 0x20 ADD SWAP1 PUSH1 0x1 ADD SWAP1 DUP1 DUP4 GT PUSH2 0x565 JUMPI JUMPDEST POP POP POP POP POP SWAP1 POP SWAP2 SWAP1 POP JUMP JUMPDEST PUSH1 0x4 DUP2 DUP2 SLOAD DUP2 LT PUSH2 0x595 JUMPI PUSH1 0x0 DUP1 REVERT JUMPDEST SWAP1 PUSH1 0x0 MSTORE PUSH1 0x20 PUSH1 0x0 KECCAK256 SWAP1 PUSH1 0x5 MUL ADD PUSH1 0x0 SWAP2 POP SWAP1 POP DUP1 PUSH1 0x0 ADD PUSH1 0x0 SWAP1 SLOAD SWAP1 PUSH2 0x100 EXP SWAP1 DIV PUSH20 0xFFFFFFFFFFFFFFFFFFFFFFFFFFFFFFFFFFFFFFFF AND SWAP1 DUP1 PUSH1 0x1 ADD SLOAD SWAP1 DUP1 PUSH1 0x2 ADD SLOAD SWAP1 DUP1 PUSH1 0x3 ADD SLOAD SWAP1 DUP1 PUSH1 0x4 ADD SLOAD SWAP1 POP DUP6 JUMP JUMPDEST PUSH1 0x0 CALLVALUE GT PUSH2 0x62E JUMPI PUSH1 0x40 MLOAD PUSH32 0x8C379A000000000000000000000000000000000000000000000000000000000 DUP2 MSTORE PUSH1 0x4 ADD PUSH2 0x625 SWAP1 PUSH2 0xD54 JUMP JUMPDEST PUSH1 0x40 MLOAD DUP1 SWAP2 SUB SWAP1 REVERT JUMPDEST PUSH1 0x4 PUSH1 0x40 MLOAD DUP1 PUSH1 0xA0 ADD PUSH1 0x40 MSTORE DUP1 CALLER PUSH20 0xFFFFFFFFFFFFFFFFFFFFFFFFFFFFFFFFFFFFFFFF AND DUP2 MSTORE PUSH1 0x20 ADD CALLVALUE DUP2 MSTORE PUSH1 0x20 ADD DUP4 DUP2 MSTORE PUSH1 0x20 ADD PUSH1 0x5 SLOAD DUP2 MSTORE PUSH1 0x20 ADD PUSH1 0x6 SLOAD DUP2 MSTORE POP SWAP1 DUP1 PUSH1 0x1 DUP2 SLOAD ADD DUP1 DUP3 SSTORE DUP1 SWAP2 POP POP PUSH1 0x1 SWAP1 SUB SWAP1 PUSH1 0x0 MSTORE PUSH1 0x20 PUSH1 0x0 KECCAK256 SWAP1 PUSH1 0x5 MUL ADD PUSH1 0x0 SWAP1 SWAP2 SWAP1 SWAP2 SWAP1 SWAP2 POP PUSH1 0x0 DUP3 ADD MLOAD DUP2 PUSH1 0x0 ADD PUSH1 0x0 PUSH2 0x100 EXP DUP2 SLOAD DUP2 PUSH20 0xFFFFFFFFFFFFFFFFFFFFFFFFFFFFFFFFFFFFFFFF MUL NOT AND SWAP1 DUP4 PUSH20 0xFFFFFFFFFFFFFFFFFFFFFFFFFFFFFFFFFFFFFFFF AND MUL OR SWAP1 SSTORE POP PUSH1 0x20 DUP3 ADD MLOAD DUP2 PUSH1 0x1 ADD SSTORE PUSH1 0x40 DUP3 ADD MLOAD DUP2 PUSH1 0x2 ADD SSTORE PUSH1 0x60 DUP3 ADD MLOAD DUP2 PUSH1 0x3 ADD SSTORE PUSH1 0x80 DUP3 ADD MLOAD DUP2 PUSH1 0x4 ADD SSTORE POP POP PUSH1 0x1E DUP2 PUSH2 0x718 SWAP2 SWAP1 PUSH2 0xDA3 JUMP JUMPDEST TIMESTAMP PUSH2 0x723 SWAP2 SWAP1 PUSH2 0xDA3 JUMP JUMPDEST PUSH1 0x0 DUP1 CALLER PUSH20 0xFFFFFFFFFFFFFFFFFFFFFFFFFFFFFFFFFFFFFFFF AND PUSH20 0xFFFFFFFFFFFFFFFFFFFFFFFFFFFFFFFFFFFFFFFF AND DUP2 MSTORE PUSH1 0x20 ADD SWAP1 DUP2 MSTORE PUSH1 0x20 ADD PUSH1 0x0 KECCAK256 PUSH1 0x0 PUSH1 0x6 SLOAD DUP2 MSTORE PUSH1 0x20 ADD SWAP1 DUP2 MSTORE PUSH1 0x20 ADD PUSH1 0x0 KECCAK256 DUP2 SWAP1 SSTORE POP CALLVALUE PUSH1 0x1 PUSH1 0x0 CALLER PUSH20 0xFFFFFFFFFFFFFFFFFFFFFFFFFFFFFFFFFFFFFFFF AND PUSH20 0xFFFFFFFFFFFFFFFFFFFFFFFFFFFFFFFFFFFFFFFF AND DUP2 MSTORE PUSH1 0x20 ADD SWAP1 DUP2 MSTORE PUSH1 0x20 ADD PUSH1 0x0 KECCAK256 PUSH1 0x0 PUSH1 0x6 SLOAD DUP2 MSTORE PUSH1 0x20 ADD SWAP1 DUP2 MSTORE PUSH1 0x20 ADD PUSH1 0x0 KECCAK256 DUP2 SWAP1 SSTORE POP PUSH1 0x2 PUSH1 0x0 CALLER PUSH20 0xFFFFFFFFFFFFFFFFFFFFFFFFFFFFFFFFFFFFFFFF AND PUSH20 0xFFFFFFFFFFFFFFFFFFFFFFFFFFFFFFFFFFFFFFFF AND DUP2 MSTORE PUSH1 0x20 ADD SWAP1 DUP2 MSTORE PUSH1 0x20 ADD PUSH1 0x0 KECCAK256 PUSH1 0x5 SLOAD SWAP1 DUP1 PUSH1 0x1 DUP2 SLOAD ADD DUP1 DUP3 SSTORE DUP1 SWAP2 POP POP PUSH1 0x1 SWAP1 SUB SWAP1 PUSH1 0x0 MSTORE PUSH1 0x20 PUSH1 0x0 KECCAK256 ADD PUSH1 0x0 SWAP1 SWAP2 SWAP1 SWAP2 SWAP1 SWAP2 POP SSTORE PUSH1 0x3 PUSH1 0x0 CALLER PUSH20 0xFFFFFFFFFFFFFFFFFFFFFFFFFFFFFFFFFFFFFFFF AND PUSH20 0xFFFFFFFFFFFFFFFFFFFFFFFFFFFFFFFFFFFFFFFF AND DUP2 MSTORE PUSH1 0x20 ADD SWAP1 DUP2 MSTORE PUSH1 0x20 ADD PUSH1 0x0 KECCAK256 PUSH1 0x6 SLOAD SWAP1 DUP1 PUSH1 0x1 DUP2 SLOAD ADD DUP1 DUP3 SSTORE DUP1 SWAP2 POP POP PUSH1 0x1 SWAP1 SUB SWAP1 PUSH1 0x0 MSTORE PUSH1 0x20 PUSH1 0x0 KECCAK256 ADD PUSH1 0x0 SWAP1 SWAP2 SWAP1 SWAP2 SWAP1 SWAP2 POP SSTORE PUSH32 0xBA83ADD69B6BA79C9A28C85FB5F02B2E57556157869B56714BDCE8701897E589 CALLER CALLVALUE DUP4 PUSH1 0x5 SLOAD PUSH1 0x6 SLOAD PUSH1 0x40 MLOAD PUSH2 0x8DA SWAP6 SWAP5 SWAP4 SWAP3 SWAP2 SWAP1 PUSH2 0xDE6 JUMP JUMPDEST PUSH1 0x40 MLOAD DUP1 SWAP2 SUB SWAP1 LOG1 PUSH1 0x1 PUSH1 0x5 PUSH1 0x0 DUP3 DUP3 SLOAD PUSH2 0x8F5 SWAP2 SWAP1 PUSH2 0xDA3 JUMP JUMPDEST SWAP3 POP POP DUP2 SWAP1 SSTORE POP PUSH1 0x1 PUSH1 0x6 PUSH1 0x0 DUP3 DUP3 SLOAD PUSH2 0x90F SWAP2 SWAP1 PUSH2 0xDA3 JUMP JUMPDEST SWAP3 POP POP DUP2 SWAP1 SSTORE POP POP JUMP JUMPDEST PUSH1 0x0 DUP1 REVERT JUMPDEST PUSH1 0x0 PUSH20 0xFFFFFFFFFFFFFFFFFFFFFFFFFFFFFFFFFFFFFFFF DUP3 AND SWAP1 POP SWAP2 SWAP1 POP JUMP JUMPDEST PUSH1 0x0 PUSH2 0x949 DUP3 PUSH2 0x91E JUMP JUMPDEST SWAP1 POP SWAP2 SWAP1 POP JUMP JUMPDEST PUSH2 0x959 DUP2 PUSH2 0x93E JUMP JUMPDEST DUP2 EQ PUSH2 0x964 JUMPI PUSH1 0x0 DUP1 REVERT JUMPDEST POP JUMP JUMPDEST PUSH1 0x0 DUP2 CALLDATALOAD SWAP1 POP PUSH2 0x976 DUP2 PUSH2 0x950 JUMP JUMPDEST SWAP3 SWAP2 POP POP JUMP JUMPDEST PUSH1 0x0 DUP2 SWAP1 POP SWAP2 SWAP1 POP JUMP JUMPDEST PUSH2 0x98F DUP2 PUSH2 0x97C JUMP JUMPDEST DUP2 EQ PUSH2 0x99A JUMPI PUSH1 0x0 DUP1 REVERT JUMPDEST POP JUMP JUMPDEST PUSH1 0x0 DUP2 CALLDATALOAD SWAP1 POP PUSH2 0x9AC DUP2 PUSH2 0x986 JUMP JUMPDEST SWAP3 SWAP2 POP POP JUMP JUMPDEST PUSH1 0x0 DUP1 PUSH1 0x40 DUP4 DUP6 SUB SLT ISZERO PUSH2 0x9C9 JUMPI PUSH2 0x9C8 PUSH2 0x919 JUMP JUMPDEST JUMPDEST PUSH1 0x0 PUSH2 0x9D7 DUP6 DUP3 DUP7 ADD PUSH2 0x967 JUMP JUMPDEST SWAP3 POP POP PUSH1 0x20 PUSH2 0x9E8 DUP6 DUP3 DUP7 ADD PUSH2 0x99D JUMP JUMPDEST SWAP2 POP POP SWAP3 POP SWAP3 SWAP1 POP JUMP JUMPDEST PUSH2 0x9FB DUP2 PUSH2 0x97C JUMP JUMPDEST DUP3 MSTORE POP POP JUMP JUMPDEST PUSH1 0x0 PUSH1 0x20 DUP3 ADD SWAP1 POP PUSH2 0xA16 PUSH1 0x0 DUP4 ADD DUP5 PUSH2 0x9F2 JUMP JUMPDEST SWAP3 SWAP2 POP POP JUMP JUMPDEST PUSH1 0x0 PUSH1 0x20 DUP3 DUP5 SUB SLT ISZERO PUSH2 0xA32 JUMPI PUSH2 0xA31 PUSH2 0x919 JUMP JUMPDEST JUMPDEST PUSH1 0x0 PUSH2 0xA40 DUP5 DUP3 DUP6 ADD PUSH2 0x99D JUMP JUMPDEST SWAP2 POP POP SWAP3 SWAP2 POP POP JUMP JUMPDEST PUSH1 0x0 PUSH1 0x20 DUP3 DUP5 SUB SLT ISZERO PUSH2 0xA5F JUMPI PUSH2 0xA5E PUSH2 0x919 JUMP JUMPDEST JUMPDEST PUSH1 0x0 PUSH2 0xA6D DUP5 DUP3 DUP6 ADD PUSH2 0x967 JUMP JUMPDEST SWAP2 POP POP SWAP3 SWAP2 POP POP JUMP JUMPDEST PUSH1 0x0 DUP2 MLOAD SWAP1 POP SWAP2 SWAP1 POP JUMP JUMPDEST PUSH1 0x0 DUP3 DUP3 MSTORE PUSH1 0x20 DUP3 ADD SWAP1 POP SWAP3 SWAP2 POP POP JUMP JUMPDEST PUSH1 0x0 DUP2 SWAP1 POP PUSH1 0x20 DUP3 ADD SWAP1 POP SWAP2 SWAP1 POP JUMP JUMPDEST PUSH2 0xAAB DUP2 PUSH2 0x97C JUMP JUMPDEST DUP3 MSTORE POP POP JUMP JUMPDEST PUSH1 0x0 PUSH2 0xABD DUP4 DUP4 PUSH2 0xAA2 JUMP JUMPDEST PUSH1 0x20 DUP4 ADD SWAP1 POP SWAP3 SWAP2 POP POP JUMP JUMPDEST PUSH1 0x0 PUSH1 0x20 DUP3 ADD SWAP1 POP SWAP2 SWAP1 POP JUMP JUMPDEST PUSH1 0x0 PUSH2 0xAE1 DUP3 PUSH2 0xA76 JUMP JUMPDEST PUSH2 0xAEB DUP2 DUP6 PUSH2 0xA81 JUMP JUMPDEST SWAP4 POP PUSH2 0xAF6 DUP4 PUSH2 0xA92 JUMP JUMPDEST DUP1 PUSH1 0x0 JUMPDEST DUP4 DUP2 LT ISZERO PUSH2 0xB27 JUMPI DUP2 MLOAD PUSH2 0xB0E DUP9 DUP3 PUSH2 0xAB1 JUMP JUMPDEST SWAP8 POP PUSH2 0xB19 DUP4 PUSH2 0xAC9 JUMP JUMPDEST SWAP3 POP POP PUSH1 0x1 DUP2 ADD SWAP1 POP PUSH2 0xAFA JUMP JUMPDEST POP DUP6 SWAP4 POP POP POP POP SWAP3 SWAP2 POP POP JUMP JUMPDEST PUSH1 0x0 PUSH1 0x20 DUP3 ADD SWAP1 POP DUP2 DUP2 SUB PUSH1 0x0 DUP4 ADD MSTORE PUSH2 0xB4E DUP2 DUP5 PUSH2 0xAD6 JUMP JUMPDEST SWAP1 POP SWAP3 SWAP2 POP POP JUMP JUMPDEST PUSH1 0x0 PUSH2 0xB61 DUP3 PUSH2 0x91E JUMP JUMPDEST SWAP1 POP SWAP2 SWAP1 POP JUMP JUMPDEST PUSH2 0xB71 DUP2 PUSH2 0xB56 JUMP JUMPDEST DUP3 MSTORE POP POP JUMP JUMPDEST PUSH1 0x0 PUSH1 0xA0 DUP3 ADD SWAP1 POP PUSH2 0xB8C PUSH1 0x0 DUP4 ADD DUP9 PUSH2 0xB68 JUMP JUMPDEST PUSH2 0xB99 PUSH1 0x20 DUP4 ADD DUP8 PUSH2 0x9F2 JUMP JUMPDEST PUSH2 0xBA6 PUSH1 0x40 DUP4 ADD DUP7 PUSH2 0x9F2 JUMP JUMPDEST PUSH2 0xBB3 PUSH1 0x60 DUP4 ADD DUP6 PUSH2 0x9F2 JUMP JUMPDEST PUSH2 0xBC0 PUSH1 0x80 DUP4 ADD DUP5 PUSH2 0x9F2 JUMP JUMPDEST SWAP7 SWAP6 POP POP POP POP POP POP JUMP JUMPDEST PUSH1 0x0 DUP3 DUP3 MSTORE PUSH1 0x20 DUP3 ADD SWAP1 POP SWAP3 SWAP2 POP POP JUMP JUMPDEST PUSH32 0x796F7520617265206E6F742061206D656D626572000000000000000000000000 PUSH1 0x0 DUP3 ADD MSTORE POP JUMP JUMPDEST PUSH1 0x0 PUSH2 0xC11 PUSH1 0x14 DUP4 PUSH2 0xBCA JUMP JUMPDEST SWAP2 POP PUSH2 0xC1C DUP3 PUSH2 0xBDB JUMP JUMPDEST PUSH1 0x20 DUP3 ADD SWAP1 POP SWAP2 SWAP1 POP JUMP JUMPDEST PUSH1 0x0 PUSH1 0x20 DUP3 ADD SWAP1 POP DUP2 DUP2 SUB PUSH1 0x0 DUP4 ADD MSTORE PUSH2 0xC40 DUP2 PUSH2 0xC04 JUMP JUMPDEST SWAP1 POP SWAP2 SWAP1 POP JUMP JUMPDEST PUSH32 0x6C6F636B65642074696D652072656D61696E73207269676874206E6F77000000 PUSH1 0x0 DUP3 ADD MSTORE POP JUMP JUMPDEST PUSH1 0x0 PUSH2 0xC7D PUSH1 0x1D DUP4 PUSH2 0xBCA JUMP JUMPDEST SWAP2 POP PUSH2 0xC88 DUP3 PUSH2 0xC47 JUMP JUMPDEST PUSH1 0x20 DUP3 ADD SWAP1 POP SWAP2 SWAP1 POP JUMP JUMPDEST PUSH1 0x0 PUSH1 0x20 DUP3 ADD SWAP1 POP DUP2 DUP2 SUB PUSH1 0x0 DUP4 ADD MSTORE PUSH2 0xCAC DUP2 PUSH2 0xC70 JUMP JUMPDEST SWAP1 POP SWAP2 SWAP1 POP JUMP JUMPDEST PUSH32 0x4E487B7100000000000000000000000000000000000000000000000000000000 PUSH1 0x0 MSTORE PUSH1 0x32 PUSH1 0x4 MSTORE PUSH1 0x24 PUSH1 0x0 REVERT JUMPDEST PUSH32 0x6465706F736974206D757374206265206D6F7265207468616E20302065746865 PUSH1 0x0 DUP3 ADD MSTORE PUSH32 0x7200000000000000000000000000000000000000000000000000000000000000 PUSH1 0x20 DUP3 ADD MSTORE POP JUMP JUMPDEST PUSH1 0x0 PUSH2 0xD3E PUSH1 0x21 DUP4 PUSH2 0xBCA JUMP JUMPDEST SWAP2 POP PUSH2 0xD49 DUP3 PUSH2 0xCE2 JUMP JUMPDEST PUSH1 0x40 DUP3 ADD SWAP1 POP SWAP2 SWAP1 POP JUMP JUMPDEST PUSH1 0x0 PUSH1 0x20 DUP3 ADD SWAP1 POP DUP2 DUP2 SUB PUSH1 0x0 DUP4 ADD MSTORE PUSH2 0xD6D DUP2 PUSH2 0xD31 JUMP JUMPDEST SWAP1 POP SWAP2 SWAP1 POP JUMP JUMPDEST PUSH32 0x4E487B7100000000000000000000000000000000000000000000000000000000 PUSH1 0x0 MSTORE PUSH1 0x11 PUSH1 0x4 MSTORE PUSH1 0x24 PUSH1 0x0 REVERT JUMPDEST PUSH1 0x0 PUSH2 0xDAE DUP3 PUSH2 0x97C JUMP JUMPDEST SWAP2 POP PUSH2 0xDB9 DUP4 PUSH2 0x97C JUMP JUMPDEST SWAP3 POP DUP3 DUP3 ADD SWAP1 POP DUP1 DUP3 GT ISZERO PUSH2 0xDD1 JUMPI PUSH2 0xDD0 PUSH2 0xD74 JUMP JUMPDEST JUMPDEST SWAP3 SWAP2 POP POP JUMP JUMPDEST PUSH2 0xDE0 DUP2 PUSH2 0x93E JUMP JUMPDEST DUP3 MSTORE POP POP JUMP JUMPDEST PUSH1 0x0 PUSH1 0xA0 DUP3 ADD SWAP1 POP PUSH2 0xDFB PUSH1 0x0 DUP4 ADD DUP9 PUSH2 0xDD7 JUMP JUMPDEST PUSH2 0xE08 PUSH1 0x20 DUP4 ADD DUP8 PUSH2 0x9F2 JUMP JUMPDEST PUSH2 0xE15 PUSH1 0x40 DUP4 ADD DUP7 PUSH2 0x9F2 JUMP JUMPDEST PUSH2 0xE22 PUSH1 0x60 DUP4 ADD DUP6 PUSH2 0x9F2 JUMP JUMPDEST PUSH2 0xE2F PUSH1 0x80 DUP4 ADD DUP5 PUSH2 0x9F2 JUMP JUMPDEST SWAP7 SWAP6 POP POP POP POP POP POP JUMP INVALID LOG2 PUSH5 0x6970667358 0x22 SLT KECCAK256 MSIZE DUP2 0xB7 0xDE 0x1F 0xF7 0xD2 PUSH29 0x6B2D58EE3A9D6526BC61358E52472DDC55B42DD3F41E1B3564736F6C63 NUMBER STOP ADDMOD SLT STOP CALLER "
				},
				"gasEstimates": {
					"creation": {
						"codeDepositCost": "739000",
						"executionCost": "773",
						"totalCost": "739773"
					},
					"external": {
						"Alldetails(uint256)": "infinite",
						"deposit(uint256)": "infinite",
						"getUserOrders(address)": "infinite",
						"getUserid(address)": "infinite",
						"lockedtime(address,uint256)": "infinite",
						"usersamount(address,uint256)": "infinite",
						"withdraw(uint256)": "infinite"
					}
				},
				"methodIdentifiers": {
					"Alldetails(uint256)": "87f0d044",
					"deposit(uint256)": "b6b55f25",
					"getUserOrders(address)": "63c69f08",
					"getUserid(address)": "5ad82148",
					"lockedtime(address,uint256)": "1918ba36",
					"usersamount(address,uint256)": "1e579b6d",
					"withdraw(uint256)": "2e1a7d4d"
				}
			},
			"storageLayout": {
				"storage": [
					{
						"astId": 18,
						"contract": "contracts/lockedcrypto.sol:lockedcrypto",
						"label": "lockedtime",
						"offset": 0,
						"slot": "0",
						"type": "t_mapping(t_address,t_mapping(t_uint256,t_uint256))"
					},
					{
						"astId": 24,
						"contract": "contracts/lockedcrypto.sol:lockedcrypto",
						"label": "usersamount",
						"offset": 0,
						"slot": "1",
						"type": "t_mapping(t_address,t_mapping(t_uint256,t_uint256))"
					},
					{
						"astId": 29,
						"contract": "contracts/lockedcrypto.sol:lockedcrypto",
						"label": "usersid",
						"offset": 0,
						"slot": "2",
						"type": "t_mapping(t_address,t_array(t_uint256)dyn_storage)"
					},
					{
						"astId": 34,
						"contract": "contracts/lockedcrypto.sol:lockedcrypto",
						"label": "ordersid",
						"offset": 0,
						"slot": "3",
						"type": "t_mapping(t_address,t_array(t_uint256)dyn_storage)"
					},
					{
						"astId": 38,
						"contract": "contracts/lockedcrypto.sol:lockedcrypto",
						"label": "Alldetails",
						"offset": 0,
						"slot": "4",
						"type": "t_array(t_struct(userdetails)12_storage)dyn_storage"
					},
					{
						"astId": 40,
						"contract": "contracts/lockedcrypto.sol:lockedcrypto",
						"label": "latestusers",
						"offset": 0,
						"slot": "5",
						"type": "t_uint256"
					},
					{
						"astId": 42,
						"contract": "contracts/lockedcrypto.sol:lockedcrypto",
						"label": "latestorder",
						"offset": 0,
						"slot": "6",
						"type": "t_uint256"
					}
				],
				"types": {
					"t_address": {
						"encoding": "inplace",
						"label": "address",
						"numberOfBytes": "20"
					},
					"t_address_payable": {
						"encoding": "inplace",
						"label": "address payable",
						"numberOfBytes": "20"
					},
					"t_array(t_struct(userdetails)12_storage)dyn_storage": {
						"base": "t_struct(userdetails)12_storage",
						"encoding": "dynamic_array",
						"label": "struct lockedcrypto.userdetails[]",
						"numberOfBytes": "32"
					},
					"t_array(t_uint256)dyn_storage": {
						"base": "t_uint256",
						"encoding": "dynamic_array",
						"label": "uint256[]",
						"numberOfBytes": "32"
					},
					"t_mapping(t_address,t_array(t_uint256)dyn_storage)": {
						"encoding": "mapping",
						"key": "t_address",
						"label": "mapping(address => uint256[])",
						"numberOfBytes": "32",
						"value": "t_array(t_uint256)dyn_storage"
					},
					"t_mapping(t_address,t_mapping(t_uint256,t_uint256))": {
						"encoding": "mapping",
						"key": "t_address",
						"label": "mapping(address => mapping(uint256 => uint256))",
						"numberOfBytes": "32",
						"value": "t_mapping(t_uint256,t_uint256)"
					},
					"t_mapping(t_uint256,t_uint256)": {
						"encoding": "mapping",
						"key": "t_uint256",
						"label": "mapping(uint256 => uint256)",
						"numberOfBytes": "32",
						"value": "t_uint256"
					},
					"t_struct(userdetails)12_storage": {
						"encoding": "inplace",
						"label": "struct lockedcrypto.userdetails",
						"members": [
							{
								"astId": 3,
								"contract": "contracts/lockedcrypto.sol:lockedcrypto",
								"label": "user",
								"offset": 0,
								"slot": "0",
								"type": "t_address_payable"
							},
							{
								"astId": 5,
								"contract": "contracts/lockedcrypto.sol:lockedcrypto",
								"label": "amount",
								"offset": 0,
								"slot": "1",
								"type": "t_uint256"
							},
							{
								"astId": 7,
								"contract": "contracts/lockedcrypto.sol:lockedcrypto",
								"label": "lockedperoid",
								"offset": 0,
								"slot": "2",
								"type": "t_uint256"
							},
							{
								"astId": 9,
								"contract": "contracts/lockedcrypto.sol:lockedcrypto",
								"label": "id",
								"offset": 0,
								"slot": "3",
								"type": "t_uint256"
							},
							{
								"astId": 11,
								"contract": "contracts/lockedcrypto.sol:lockedcrypto",
								"label": "orderid",
								"offset": 0,
								"slot": "4",
								"type": "t_uint256"
							}
						],
						"numberOfBytes": "160"
					},
					"t_uint256": {
						"encoding": "inplace",
						"label": "uint256",
						"numberOfBytes": "32"
					}
				}
			},
			"userdoc": {
				"kind": "user",
				"methods": {},
				"version": 1
			}
		}
	}
}