{
	"contracts/ICO.sol": {
		"ICO": {
			"abi": [
				{
					"inputs": [
						{
							"internalType": "address",
							"name": "Tokenaddress",
							"type": "address"
						}
					],
					"stateMutability": "nonpayable",
					"type": "constructor"
				},
				{
					"inputs": [],
					"name": "DepositEther",
					"outputs": [
						{
							"internalType": "bool",
							"name": "",
							"type": "bool"
						}
					],
					"stateMutability": "payable",
					"type": "function"
				},
				{
					"inputs": [],
					"name": "IcoStatus",
					"outputs": [],
					"stateMutability": "nonpayable",
					"type": "function"
				},
				{
					"inputs": [],
					"name": "avaiableToken",
					"outputs": [
						{
							"internalType": "uint256",
							"name": "",
							"type": "uint256"
						}
					],
					"stateMutability": "view",
					"type": "function"
				},
				{
					"inputs": [],
					"name": "claimToken",
					"outputs": [],
					"stateMutability": "nonpayable",
					"type": "function"
				},
				{
					"inputs": [],
					"name": "icoStatus",
					"outputs": [
						{
							"internalType": "string",
							"name": "",
							"type": "string"
						}
					],
					"stateMutability": "view",
					"type": "function"
				},
				{
					"inputs": [],
					"name": "token",
					"outputs": [
						{
							"internalType": "contract Token",
							"name": "",
							"type": "address"
						}
					],
					"stateMutability": "view",
					"type": "function"
				},
				{
					"inputs": [
						{
							"internalType": "address",
							"name": "buyer",
							"type": "address"
						}
					],
					"name": "users",
					"outputs": [
						{
							"internalType": "uint256",
							"name": "token",
							"type": "uint256"
						}
					],
					"stateMutability": "view",
					"type": "function"
				}
			],
			"devdoc": {
				"kind": "dev",
				"methods": {},
				"version": 1
			},
			"evm": {
				"assembly": "    /* \"contracts/ICO.sol\":91:1458  contract ICO {... */\n  mstore(0x40, 0x80)\n    /* \"contracts/ICO.sol\":166:170  1000 */\n  0x03e8\n    /* \"contracts/ICO.sol\":138:170  uint public avaiableToken = 1000 */\n  0x01\n  sstore\n    /* \"contracts/ICO.sol\":177:218  string public icoStatus = \"upcoming soon\" */\n  mload(0x40)\n  dup1\n  0x40\n  add\n  0x40\n  mstore\n  dup1\n  0x0d\n  dup2\n  mstore\n  0x20\n  add\n  0x7570636f6d696e6720736f6f6e00000000000000000000000000000000000000\n  dup2\n  mstore\n  pop\n  0x02\n  swap1\n  dup2\n  tag_1\n  swap2\n  swap1\n  tag_2\n  jump\t// in\ntag_1:\n  pop\n    /* \"contracts/ICO.sol\":340:503  constructor(address Tokenaddress){... */\n  callvalue\n  dup1\n  iszero\n  tag_3\n  jumpi\n  0x00\n  dup1\n  revert\ntag_3:\n  pop\n  mload(0x40)\n  sub(codesize, bytecodeSize)\n  dup1\n  bytecodeSize\n  dup4\n  codecopy\n  dup2\n  dup2\n  add\n  0x40\n  mstore\n  dup2\n  add\n  swap1\n  tag_4\n  swap2\n  swap1\n  tag_5\n  jump\t// in\ntag_4:\n    /* \"contracts/ICO.sol\":398:410  Tokenaddress */\n  dup1\n    /* \"contracts/ICO.sol\":384:389  token */\n  0x00\n  dup1\n    /* \"contracts/ICO.sol\":384:411  token = Token(Tokenaddress) */\n  0x0100\n  exp\n  dup2\n  sload\n  dup2\n  0xffffffffffffffffffffffffffffffffffffffff\n  mul\n  not\n  and\n  swap1\n  dup4\n  0xffffffffffffffffffffffffffffffffffffffff\n  and\n  mul\n  or\n  swap1\n  sstore\n  pop\n    /* \"contracts/ICO.sol\":434:449  block.timestamp */\n  timestamp\n    /* \"contracts/ICO.sol\":422:431  startTime */\n  0x03\n    /* \"contracts/ICO.sol\":422:449  startTime = block.timestamp */\n  dup2\n  swap1\n  sstore\n  pop\n    /* \"contracts/ICO.sol\":484:494  30 seconds */\n  0x1e\n    /* \"contracts/ICO.sol\":471:480  startTime */\n  sload(0x03)\n    /* \"contracts/ICO.sol\":471:494  startTime +  30 seconds */\n  tag_8\n  swap2\n  swap1\n  tag_9\n  jump\t// in\ntag_8:\n    /* \"contracts/ICO.sol\":461:468  endTime */\n  0x04\n    /* \"contracts/ICO.sol\":461:494  endTime = startTime +  30 seconds */\n  dup2\n  swap1\n  sstore\n  pop\n    /* \"contracts/ICO.sol\":340:503  constructor(address Tokenaddress){... */\n  pop\n    /* \"contracts/ICO.sol\":91:1458  contract ICO {... */\n  jump(tag_10)\n    /* \"#utility.yul\":7:106   */\ntag_11:\n    /* \"#utility.yul\":59:65   */\n  0x00\n    /* \"#utility.yul\":93:98   */\n  dup2\n    /* \"#utility.yul\":87:99   */\n  mload\n    /* \"#utility.yul\":77:99   */\n  swap1\n  pop\n    /* \"#utility.yul\":7:106   */\n  swap2\n  swap1\n  pop\n  jump\t// out\n    /* \"#utility.yul\":112:292   */\ntag_12:\n    /* \"#utility.yul\":160:237   */\n  0x4e487b7100000000000000000000000000000000000000000000000000000000\n    /* \"#utility.yul\":157:158   */\n  0x00\n    /* \"#utility.yul\":150:238   */\n  mstore\n    /* \"#utility.yul\":257:261   */\n  0x41\n    /* \"#utility.yul\":254:255   */\n  0x04\n    /* \"#utility.yul\":247:262   */\n  mstore\n    /* \"#utility.yul\":281:285   */\n  0x24\n    /* \"#utility.yul\":278:279   */\n  0x00\n    /* \"#utility.yul\":271:286   */\n  revert\n    /* \"#utility.yul\":298:478   */\ntag_13:\n    /* \"#utility.yul\":346:423   */\n  0x4e487b7100000000000000000000000000000000000000000000000000000000\n    /* \"#utility.yul\":343:344   */\n  0x00\n    /* \"#utility.yul\":336:424   */\n  mstore\n    /* \"#utility.yul\":443:447   */\n  0x22\n    /* \"#utility.yul\":440:441   */\n  0x04\n    /* \"#utility.yul\":433:448   */\n  mstore\n    /* \"#utility.yul\":467:471   */\n  0x24\n    /* \"#utility.yul\":464:465   */\n  0x00\n    /* \"#utility.yul\":457:472   */\n  revert\n    /* \"#utility.yul\":484:804   */\ntag_14:\n    /* \"#utility.yul\":528:534   */\n  0x00\n    /* \"#utility.yul\":565:566   */\n  0x02\n    /* \"#utility.yul\":559:563   */\n  dup3\n    /* \"#utility.yul\":555:567   */\n  div\n    /* \"#utility.yul\":545:567   */\n  swap1\n  pop\n    /* \"#utility.yul\":612:613   */\n  0x01\n    /* \"#utility.yul\":606:610   */\n  dup3\n    /* \"#utility.yul\":602:614   */\n  and\n    /* \"#utility.yul\":633:651   */\n  dup1\n    /* \"#utility.yul\":623:704   */\n  tag_44\n  jumpi\n    /* \"#utility.yul\":689:693   */\n  0x7f\n    /* \"#utility.yul\":681:687   */\n  dup3\n    /* \"#utility.yul\":677:694   */\n  and\n    /* \"#utility.yul\":667:694   */\n  swap2\n  pop\n    /* \"#utility.yul\":623:704   */\ntag_44:\n    /* \"#utility.yul\":751:753   */\n  0x20\n    /* \"#utility.yul\":743:749   */\n  dup3\n    /* \"#utility.yul\":740:754   */\n  lt\n    /* \"#utility.yul\":720:738   */\n  dup2\n    /* \"#utility.yul\":717:755   */\n  sub\n    /* \"#utility.yul\":714:798   */\n  tag_45\n  jumpi\n    /* \"#utility.yul\":770:788   */\n  tag_46\n  tag_13\n  jump\t// in\ntag_46:\n    /* \"#utility.yul\":714:798   */\ntag_45:\n    /* \"#utility.yul\":535:804   */\n  pop\n    /* \"#utility.yul\":484:804   */\n  swap2\n  swap1\n  pop\n  jump\t// out\n    /* \"#utility.yul\":810:951   */\ntag_15:\n    /* \"#utility.yul\":859:863   */\n  0x00\n    /* \"#utility.yul\":882:885   */\n  dup2\n    /* \"#utility.yul\":874:885   */\n  swap1\n  pop\n    /* \"#utility.yul\":905:908   */\n  dup2\n    /* \"#utility.yul\":902:903   */\n  0x00\n    /* \"#utility.yul\":895:909   */\n  mstore\n    /* \"#utility.yul\":939:943   */\n  0x20\n    /* \"#utility.yul\":936:937   */\n  0x00\n    /* \"#utility.yul\":926:944   */\n  keccak256\n    /* \"#utility.yul\":918:944   */\n  swap1\n  pop\n    /* \"#utility.yul\":810:951   */\n  swap2\n  swap1\n  pop\n  jump\t// out\n    /* \"#utility.yul\":957:1050   */\ntag_16:\n    /* \"#utility.yul\":994:1000   */\n  0x00\n    /* \"#utility.yul\":1041:1043   */\n  0x20\n    /* \"#utility.yul\":1036:1038   */\n  0x1f\n    /* \"#utility.yul\":1029:1034   */\n  dup4\n    /* \"#utility.yul\":1025:1039   */\n  add\n    /* \"#utility.yul\":1021:1044   */\n  div\n    /* \"#utility.yul\":1011:1044   */\n  swap1\n  pop\n    /* \"#utility.yul\":957:1050   */\n  swap2\n  swap1\n  pop\n  jump\t// out\n    /* \"#utility.yul\":1056:1163   */\ntag_17:\n    /* \"#utility.yul\":1100:1108   */\n  0x00\n    /* \"#utility.yul\":1150:1155   */\n  dup3\n    /* \"#utility.yul\":1144:1148   */\n  dup3\n    /* \"#utility.yul\":1140:1156   */\n  shl\n    /* \"#utility.yul\":1119:1156   */\n  swap1\n  pop\n    /* \"#utility.yul\":1056:1163   */\n  swap3\n  swap2\n  pop\n  pop\n  jump\t// out\n    /* \"#utility.yul\":1169:1562   */\ntag_18:\n    /* \"#utility.yul\":1238:1244   */\n  0x00\n    /* \"#utility.yul\":1288:1289   */\n  0x08\n    /* \"#utility.yul\":1276:1286   */\n  dup4\n    /* \"#utility.yul\":1272:1290   */\n  mul\n    /* \"#utility.yul\":1311:1408   */\n  tag_51\n    /* \"#utility.yul\":1341:1407   */\n  0xffffffffffffffffffffffffffffffffffffffffffffffffffffffffffffffff\n    /* \"#utility.yul\":1330:1339   */\n  dup3\n    /* \"#utility.yul\":1311:1408   */\n  tag_17\n  jump\t// in\ntag_51:\n    /* \"#utility.yul\":1429:1468   */\n  tag_52\n    /* \"#utility.yul\":1459:1467   */\n  dup7\n    /* \"#utility.yul\":1448:1457   */\n  dup4\n    /* \"#utility.yul\":1429:1468   */\n  tag_17\n  jump\t// in\ntag_52:\n    /* \"#utility.yul\":1417:1468   */\n  swap6\n  pop\n    /* \"#utility.yul\":1501:1505   */\n  dup1\n    /* \"#utility.yul\":1497:1506   */\n  not\n    /* \"#utility.yul\":1490:1495   */\n  dup5\n    /* \"#utility.yul\":1486:1507   */\n  and\n    /* \"#utility.yul\":1477:1507   */\n  swap4\n  pop\n    /* \"#utility.yul\":1550:1554   */\n  dup1\n    /* \"#utility.yul\":1540:1548   */\n  dup7\n    /* \"#utility.yul\":1536:1555   */\n  and\n    /* \"#utility.yul\":1529:1534   */\n  dup5\n    /* \"#utility.yul\":1526:1556   */\n  or\n    /* \"#utility.yul\":1516:1556   */\n  swap3\n  pop\n    /* \"#utility.yul\":1245:1562   */\n  pop\n  pop\n    /* \"#utility.yul\":1169:1562   */\n  swap4\n  swap3\n  pop\n  pop\n  pop\n  jump\t// out\n    /* \"#utility.yul\":1568:1645   */\ntag_19:\n    /* \"#utility.yul\":1605:1612   */\n  0x00\n    /* \"#utility.yul\":1634:1639   */\n  dup2\n    /* \"#utility.yul\":1623:1639   */\n  swap1\n  pop\n    /* \"#utility.yul\":1568:1645   */\n  swap2\n  swap1\n  pop\n  jump\t// out\n    /* \"#utility.yul\":1651:1711   */\ntag_20:\n    /* \"#utility.yul\":1679:1682   */\n  0x00\n    /* \"#utility.yul\":1700:1705   */\n  dup2\n    /* \"#utility.yul\":1693:1705   */\n  swap1\n  pop\n    /* \"#utility.yul\":1651:1711   */\n  swap2\n  swap1\n  pop\n  jump\t// out\n    /* \"#utility.yul\":1717:1859   */\ntag_21:\n    /* \"#utility.yul\":1767:1776   */\n  0x00\n    /* \"#utility.yul\":1800:1853   */\n  tag_56\n    /* \"#utility.yul\":1818:1852   */\n  tag_57\n    /* \"#utility.yul\":1827:1851   */\n  tag_58\n    /* \"#utility.yul\":1845:1850   */\n  dup5\n    /* \"#utility.yul\":1827:1851   */\n  tag_19\n  jump\t// in\ntag_58:\n    /* \"#utility.yul\":1818:1852   */\n  tag_20\n  jump\t// in\ntag_57:\n    /* \"#utility.yul\":1800:1853   */\n  tag_19\n  jump\t// in\ntag_56:\n    /* \"#utility.yul\":1787:1853   */\n  swap1\n  pop\n    /* \"#utility.yul\":1717:1859   */\n  swap2\n  swap1\n  pop\n  jump\t// out\n    /* \"#utility.yul\":1865:1940   */\ntag_22:\n    /* \"#utility.yul\":1908:1911   */\n  0x00\n    /* \"#utility.yul\":1929:1934   */\n  dup2\n    /* \"#utility.yul\":1922:1934   */\n  swap1\n  pop\n    /* \"#utility.yul\":1865:1940   */\n  swap2\n  swap1\n  pop\n  jump\t// out\n    /* \"#utility.yul\":1946:2215   */\ntag_23:\n    /* \"#utility.yul\":2056:2095   */\n  tag_61\n    /* \"#utility.yul\":2087:2094   */\n  dup4\n    /* \"#utility.yul\":2056:2095   */\n  tag_21\n  jump\t// in\ntag_61:\n    /* \"#utility.yul\":2117:2208   */\n  tag_62\n    /* \"#utility.yul\":2166:2207   */\n  tag_63\n    /* \"#utility.yul\":2190:2206   */\n  dup3\n    /* \"#utility.yul\":2166:2207   */\n  tag_22\n  jump\t// in\ntag_63:\n    /* \"#utility.yul\":2158:2164   */\n  dup5\n    /* \"#utility.yul\":2151:2155   */\n  dup5\n    /* \"#utility.yul\":2145:2156   */\n  sload\n    /* \"#utility.yul\":2117:2208   */\n  tag_18\n  jump\t// in\ntag_62:\n    /* \"#utility.yul\":2111:2115   */\n  dup3\n    /* \"#utility.yul\":2104:2209   */\n  sstore\n    /* \"#utility.yul\":2022:2215   */\n  pop\n    /* \"#utility.yul\":1946:2215   */\n  pop\n  pop\n  pop\n  jump\t// out\n    /* \"#utility.yul\":2221:2294   */\ntag_24:\n    /* \"#utility.yul\":2266:2269   */\n  0x00\n    /* \"#utility.yul\":2221:2294   */\n  swap1\n  jump\t// out\n    /* \"#utility.yul\":2300:2489   */\ntag_25:\n    /* \"#utility.yul\":2377:2409   */\n  tag_66\n  tag_24\n  jump\t// in\ntag_66:\n    /* \"#utility.yul\":2418:2483   */\n  tag_67\n    /* \"#utility.yul\":2476:2482   */\n  dup2\n    /* \"#utility.yul\":2468:2474   */\n  dup5\n    /* \"#utility.yul\":2462:2466   */\n  dup5\n    /* \"#utility.yul\":2418:2483   */\n  tag_23\n  jump\t// in\ntag_67:\n    /* \"#utility.yul\":2353:2489   */\n  pop\n    /* \"#utility.yul\":2300:2489   */\n  pop\n  pop\n  jump\t// out\n    /* \"#utility.yul\":2495:2681   */\ntag_26:\n    /* \"#utility.yul\":2555:2675   */\ntag_69:\n    /* \"#utility.yul\":2572:2575   */\n  dup2\n    /* \"#utility.yul\":2565:2570   */\n  dup2\n    /* \"#utility.yul\":2562:2576   */\n  lt\n    /* \"#utility.yul\":2555:2675   */\n  iszero\n  tag_71\n  jumpi\n    /* \"#utility.yul\":2626:2665   */\n  tag_72\n    /* \"#utility.yul\":2663:2664   */\n  0x00\n    /* \"#utility.yul\":2656:2661   */\n  dup3\n    /* \"#utility.yul\":2626:2665   */\n  tag_25\n  jump\t// in\ntag_72:\n    /* \"#utility.yul\":2599:2600   */\n  0x01\n    /* \"#utility.yul\":2592:2597   */\n  dup2\n    /* \"#utility.yul\":2588:2601   */\n  add\n    /* \"#utility.yul\":2579:2601   */\n  swap1\n  pop\n    /* \"#utility.yul\":2555:2675   */\n  jump(tag_69)\ntag_71:\n    /* \"#utility.yul\":2495:2681   */\n  pop\n  pop\n  jump\t// out\n    /* \"#utility.yul\":2687:3230   */\ntag_27:\n    /* \"#utility.yul\":2788:2790   */\n  0x1f\n    /* \"#utility.yul\":2783:2786   */\n  dup3\n    /* \"#utility.yul\":2780:2791   */\n  gt\n    /* \"#utility.yul\":2777:3223   */\n  iszero\n  tag_74\n  jumpi\n    /* \"#utility.yul\":2822:2860   */\n  tag_75\n    /* \"#utility.yul\":2854:2859   */\n  dup2\n    /* \"#utility.yul\":2822:2860   */\n  tag_15\n  jump\t// in\ntag_75:\n    /* \"#utility.yul\":2906:2935   */\n  tag_76\n    /* \"#utility.yul\":2924:2934   */\n  dup5\n    /* \"#utility.yul\":2906:2935   */\n  tag_16\n  jump\t// in\ntag_76:\n    /* \"#utility.yul\":2896:2904   */\n  dup2\n    /* \"#utility.yul\":2892:2936   */\n  add\n    /* \"#utility.yul\":3089:3091   */\n  0x20\n    /* \"#utility.yul\":3077:3087   */\n  dup6\n    /* \"#utility.yul\":3074:3092   */\n  lt\n    /* \"#utility.yul\":3071:3120   */\n  iszero\n  tag_77\n  jumpi\n    /* \"#utility.yul\":3110:3118   */\n  dup2\n    /* \"#utility.yul\":3095:3118   */\n  swap1\n  pop\n    /* \"#utility.yul\":3071:3120   */\ntag_77:\n    /* \"#utility.yul\":3133:3213   */\n  tag_78\n    /* \"#utility.yul\":3189:3211   */\n  tag_79\n    /* \"#utility.yul\":3207:3210   */\n  dup6\n    /* \"#utility.yul\":3189:3211   */\n  tag_16\n  jump\t// in\ntag_79:\n    /* \"#utility.yul\":3179:3187   */\n  dup4\n    /* \"#utility.yul\":3175:3212   */\n  add\n    /* \"#utility.yul\":3162:3173   */\n  dup3\n    /* \"#utility.yul\":3133:3213   */\n  tag_26\n  jump\t// in\ntag_78:\n    /* \"#utility.yul\":2792:3223   */\n  pop\n  pop\n    /* \"#utility.yul\":2777:3223   */\ntag_74:\n    /* \"#utility.yul\":2687:3230   */\n  pop\n  pop\n  pop\n  jump\t// out\n    /* \"#utility.yul\":3236:3353   */\ntag_28:\n    /* \"#utility.yul\":3290:3298   */\n  0x00\n    /* \"#utility.yul\":3340:3345   */\n  dup3\n    /* \"#utility.yul\":3334:3338   */\n  dup3\n    /* \"#utility.yul\":3330:3346   */\n  shr\n    /* \"#utility.yul\":3309:3346   */\n  swap1\n  pop\n    /* \"#utility.yul\":3236:3353   */\n  swap3\n  swap2\n  pop\n  pop\n  jump\t// out\n    /* \"#utility.yul\":3359:3528   */\ntag_29:\n    /* \"#utility.yul\":3403:3409   */\n  0x00\n    /* \"#utility.yul\":3436:3487   */\n  tag_82\n    /* \"#utility.yul\":3484:3485   */\n  0x00\n    /* \"#utility.yul\":3480:3486   */\n  not\n    /* \"#utility.yul\":3472:3477   */\n  dup5\n    /* \"#utility.yul\":3469:3470   */\n  0x08\n    /* \"#utility.yul\":3465:3478   */\n  mul\n    /* \"#utility.yul\":3436:3487   */\n  tag_28\n  jump\t// in\ntag_82:\n    /* \"#utility.yul\":3432:3488   */\n  not\n    /* \"#utility.yul\":3517:3521   */\n  dup1\n    /* \"#utility.yul\":3511:3515   */\n  dup4\n    /* \"#utility.yul\":3507:3522   */\n  and\n    /* \"#utility.yul\":3497:3522   */\n  swap2\n  pop\n    /* \"#utility.yul\":3410:3528   */\n  pop\n    /* \"#utility.yul\":3359:3528   */\n  swap3\n  swap2\n  pop\n  pop\n  jump\t// out\n    /* \"#utility.yul\":3533:3828   */\ntag_30:\n    /* \"#utility.yul\":3609:3613   */\n  0x00\n    /* \"#utility.yul\":3755:3784   */\n  tag_84\n    /* \"#utility.yul\":3780:3783   */\n  dup4\n    /* \"#utility.yul\":3774:3778   */\n  dup4\n    /* \"#utility.yul\":3755:3784   */\n  tag_29\n  jump\t// in\ntag_84:\n    /* \"#utility.yul\":3747:3784   */\n  swap2\n  pop\n    /* \"#utility.yul\":3817:3820   */\n  dup3\n    /* \"#utility.yul\":3814:3815   */\n  0x02\n    /* \"#utility.yul\":3810:3821   */\n  mul\n    /* \"#utility.yul\":3804:3808   */\n  dup3\n    /* \"#utility.yul\":3801:3822   */\n  or\n    /* \"#utility.yul\":3793:3822   */\n  swap1\n  pop\n    /* \"#utility.yul\":3533:3828   */\n  swap3\n  swap2\n  pop\n  pop\n  jump\t// out\n    /* \"#utility.yul\":3833:5228   */\ntag_2:\n    /* \"#utility.yul\":3950:3987   */\n  tag_86\n    /* \"#utility.yul\":3983:3986   */\n  dup3\n    /* \"#utility.yul\":3950:3987   */\n  tag_11\n  jump\t// in\ntag_86:\n    /* \"#utility.yul\":4052:4070   */\n  0xffffffffffffffff\n    /* \"#utility.yul\":4044:4050   */\n  dup2\n    /* \"#utility.yul\":4041:4071   */\n  gt\n    /* \"#utility.yul\":4038:4094   */\n  iszero\n  tag_87\n  jumpi\n    /* \"#utility.yul\":4074:4092   */\n  tag_88\n  tag_12\n  jump\t// in\ntag_88:\n    /* \"#utility.yul\":4038:4094   */\ntag_87:\n    /* \"#utility.yul\":4118:4156   */\n  tag_89\n    /* \"#utility.yul\":4150:4154   */\n  dup3\n    /* \"#utility.yul\":4144:4155   */\n  sload\n    /* \"#utility.yul\":4118:4156   */\n  tag_14\n  jump\t// in\ntag_89:\n    /* \"#utility.yul\":4203:4270   */\n  tag_90\n    /* \"#utility.yul\":4263:4269   */\n  dup3\n    /* \"#utility.yul\":4255:4261   */\n  dup3\n    /* \"#utility.yul\":4249:4253   */\n  dup6\n    /* \"#utility.yul\":4203:4270   */\n  tag_27\n  jump\t// in\ntag_90:\n    /* \"#utility.yul\":4297:4298   */\n  0x00\n    /* \"#utility.yul\":4321:4325   */\n  0x20\n    /* \"#utility.yul\":4308:4325   */\n  swap1\n  pop\n    /* \"#utility.yul\":4353:4355   */\n  0x1f\n    /* \"#utility.yul\":4345:4351   */\n  dup4\n    /* \"#utility.yul\":4342:4356   */\n  gt\n    /* \"#utility.yul\":4370:4371   */\n  0x01\n    /* \"#utility.yul\":4365:4983   */\n  dup2\n  eq\n  tag_92\n  jumpi\n    /* \"#utility.yul\":5027:5028   */\n  0x00\n    /* \"#utility.yul\":5044:5050   */\n  dup5\n    /* \"#utility.yul\":5041:5118   */\n  iszero\n  tag_93\n  jumpi\n    /* \"#utility.yul\":5093:5102   */\n  dup3\n    /* \"#utility.yul\":5088:5091   */\n  dup8\n    /* \"#utility.yul\":5084:5103   */\n  add\n    /* \"#utility.yul\":5078:5104   */\n  mload\n    /* \"#utility.yul\":5069:5104   */\n  swap1\n  pop\n    /* \"#utility.yul\":5041:5118   */\ntag_93:\n    /* \"#utility.yul\":5144:5211   */\n  tag_94\n    /* \"#utility.yul\":5204:5210   */\n  dup6\n    /* \"#utility.yul\":5197:5202   */\n  dup3\n    /* \"#utility.yul\":5144:5211   */\n  tag_30\n  jump\t// in\ntag_94:\n    /* \"#utility.yul\":5138:5142   */\n  dup7\n    /* \"#utility.yul\":5131:5212   */\n  sstore\n    /* \"#utility.yul\":5000:5222   */\n  pop\n    /* \"#utility.yul\":4335:5222   */\n  jump(tag_91)\n    /* \"#utility.yul\":4365:4983   */\ntag_92:\n    /* \"#utility.yul\":4417:4421   */\n  0x1f\n    /* \"#utility.yul\":4413:4422   */\n  not\n    /* \"#utility.yul\":4405:4411   */\n  dup5\n    /* \"#utility.yul\":4401:4423   */\n  and\n    /* \"#utility.yul\":4451:4488   */\n  tag_95\n    /* \"#utility.yul\":4483:4487   */\n  dup7\n    /* \"#utility.yul\":4451:4488   */\n  tag_15\n  jump\t// in\ntag_95:\n    /* \"#utility.yul\":4510:4511   */\n  0x00\n    /* \"#utility.yul\":4524:4732   */\ntag_96:\n    /* \"#utility.yul\":4538:4545   */\n  dup3\n    /* \"#utility.yul\":4535:4536   */\n  dup2\n    /* \"#utility.yul\":4532:4546   */\n  lt\n    /* \"#utility.yul\":4524:4732   */\n  iszero\n  tag_98\n  jumpi\n    /* \"#utility.yul\":4617:4626   */\n  dup5\n    /* \"#utility.yul\":4612:4615   */\n  dup10\n    /* \"#utility.yul\":4608:4627   */\n  add\n    /* \"#utility.yul\":4602:4628   */\n  mload\n    /* \"#utility.yul\":4594:4600   */\n  dup3\n    /* \"#utility.yul\":4587:4629   */\n  sstore\n    /* \"#utility.yul\":4668:4669   */\n  0x01\n    /* \"#utility.yul\":4660:4666   */\n  dup3\n    /* \"#utility.yul\":4656:4670   */\n  add\n    /* \"#utility.yul\":4646:4670   */\n  swap2\n  pop\n    /* \"#utility.yul\":4715:4717   */\n  0x20\n    /* \"#utility.yul\":4704:4713   */\n  dup6\n    /* \"#utility.yul\":4700:4718   */\n  add\n    /* \"#utility.yul\":4687:4718   */\n  swap5\n  pop\n    /* \"#utility.yul\":4561:4565   */\n  0x20\n    /* \"#utility.yul\":4558:4559   */\n  dup2\n    /* \"#utility.yul\":4554:4566   */\n  add\n    /* \"#utility.yul\":4549:4566   */\n  swap1\n  pop\n    /* \"#utility.yul\":4524:4732   */\n  jump(tag_96)\ntag_98:\n    /* \"#utility.yul\":4760:4766   */\n  dup7\n    /* \"#utility.yul\":4751:4758   */\n  dup4\n    /* \"#utility.yul\":4748:4767   */\n  lt\n    /* \"#utility.yul\":4745:4924   */\n  iszero\n  tag_99\n  jumpi\n    /* \"#utility.yul\":4818:4827   */\n  dup5\n    /* \"#utility.yul\":4813:4816   */\n  dup10\n    /* \"#utility.yul\":4809:4828   */\n  add\n    /* \"#utility.yul\":4803:4829   */\n  mload\n    /* \"#utility.yul\":4861:4909   */\n  tag_100\n    /* \"#utility.yul\":4903:4907   */\n  0x1f\n    /* \"#utility.yul\":4895:4901   */\n  dup10\n    /* \"#utility.yul\":4891:4908   */\n  and\n    /* \"#utility.yul\":4880:4889   */\n  dup3\n    /* \"#utility.yul\":4861:4909   */\n  tag_29\n  jump\t// in\ntag_100:\n    /* \"#utility.yul\":4853:4859   */\n  dup4\n    /* \"#utility.yul\":4846:4910   */\n  sstore\n    /* \"#utility.yul\":4768:4924   */\n  pop\n    /* \"#utility.yul\":4745:4924   */\ntag_99:\n    /* \"#utility.yul\":4970:4971   */\n  0x01\n    /* \"#utility.yul\":4966:4967   */\n  0x02\n    /* \"#utility.yul\":4958:4964   */\n  dup9\n    /* \"#utility.yul\":4954:4968   */\n  mul\n    /* \"#utility.yul\":4950:4972   */\n  add\n    /* \"#utility.yul\":4944:4948   */\n  dup9\n    /* \"#utility.yul\":4937:4973   */\n  sstore\n    /* \"#utility.yul\":4372:4983   */\n  pop\n  pop\n  pop\n    /* \"#utility.yul\":4335:5222   */\ntag_91:\n  pop\n    /* \"#utility.yul\":3925:5228   */\n  pop\n  pop\n  pop\n    /* \"#utility.yul\":3833:5228   */\n  pop\n  pop\n  jump\t// out\n    /* \"#utility.yul\":5315:5432   */\ntag_32:\n    /* \"#utility.yul\":5424:5425   */\n  0x00\n    /* \"#utility.yul\":5421:5422   */\n  dup1\n    /* \"#utility.yul\":5414:5426   */\n  revert\n    /* \"#utility.yul\":5561:5687   */\ntag_34:\n    /* \"#utility.yul\":5598:5605   */\n  0x00\n    /* \"#utility.yul\":5638:5680   */\n  0xffffffffffffffffffffffffffffffffffffffff\n    /* \"#utility.yul\":5631:5636   */\n  dup3\n    /* \"#utility.yul\":5627:5681   */\n  and\n    /* \"#utility.yul\":5616:5681   */\n  swap1\n  pop\n    /* \"#utility.yul\":5561:5687   */\n  swap2\n  swap1\n  pop\n  jump\t// out\n    /* \"#utility.yul\":5693:5789   */\ntag_35:\n    /* \"#utility.yul\":5730:5737   */\n  0x00\n    /* \"#utility.yul\":5759:5783   */\n  tag_106\n    /* \"#utility.yul\":5777:5782   */\n  dup3\n    /* \"#utility.yul\":5759:5783   */\n  tag_34\n  jump\t// in\ntag_106:\n    /* \"#utility.yul\":5748:5783   */\n  swap1\n  pop\n    /* \"#utility.yul\":5693:5789   */\n  swap2\n  swap1\n  pop\n  jump\t// out\n    /* \"#utility.yul\":5795:5917   */\ntag_36:\n    /* \"#utility.yul\":5868:5892   */\n  tag_108\n    /* \"#utility.yul\":5886:5891   */\n  dup2\n    /* \"#utility.yul\":5868:5892   */\n  tag_35\n  jump\t// in\ntag_108:\n    /* \"#utility.yul\":5861:5866   */\n  dup2\n    /* \"#utility.yul\":5858:5893   */\n  eq\n    /* \"#utility.yul\":5848:5911   */\n  tag_109\n  jumpi\n    /* \"#utility.yul\":5907:5908   */\n  0x00\n    /* \"#utility.yul\":5904:5905   */\n  dup1\n    /* \"#utility.yul\":5897:5909   */\n  revert\n    /* \"#utility.yul\":5848:5911   */\ntag_109:\n    /* \"#utility.yul\":5795:5917   */\n  pop\n  jump\t// out\n    /* \"#utility.yul\":5923:6066   */\ntag_37:\n    /* \"#utility.yul\":5980:5985   */\n  0x00\n    /* \"#utility.yul\":6011:6017   */\n  dup2\n    /* \"#utility.yul\":6005:6018   */\n  mload\n    /* \"#utility.yul\":5996:6018   */\n  swap1\n  pop\n    /* \"#utility.yul\":6027:6060   */\n  tag_111\n    /* \"#utility.yul\":6054:6059   */\n  dup2\n    /* \"#utility.yul\":6027:6060   */\n  tag_36\n  jump\t// in\ntag_111:\n    /* \"#utility.yul\":5923:6066   */\n  swap3\n  swap2\n  pop\n  pop\n  jump\t// out\n    /* \"#utility.yul\":6072:6423   */\ntag_5:\n    /* \"#utility.yul\":6142:6148   */\n  0x00\n    /* \"#utility.yul\":6191:6193   */\n  0x20\n    /* \"#utility.yul\":6179:6188   */\n  dup3\n    /* \"#utility.yul\":6170:6177   */\n  dup5\n    /* \"#utility.yul\":6166:6189   */\n  sub\n    /* \"#utility.yul\":6162:6194   */\n  slt\n    /* \"#utility.yul\":6159:6278   */\n  iszero\n  tag_113\n  jumpi\n    /* \"#utility.yul\":6197:6276   */\n  tag_114\n  tag_32\n  jump\t// in\ntag_114:\n    /* \"#utility.yul\":6159:6278   */\ntag_113:\n    /* \"#utility.yul\":6317:6318   */\n  0x00\n    /* \"#utility.yul\":6342:6406   */\n  tag_115\n    /* \"#utility.yul\":6398:6405   */\n  dup5\n    /* \"#utility.yul\":6389:6395   */\n  dup3\n    /* \"#utility.yul\":6378:6387   */\n  dup6\n    /* \"#utility.yul\":6374:6396   */\n  add\n    /* \"#utility.yul\":6342:6406   */\n  tag_37\n  jump\t// in\ntag_115:\n    /* \"#utility.yul\":6332:6406   */\n  swap2\n  pop\n    /* \"#utility.yul\":6288:6416   */\n  pop\n    /* \"#utility.yul\":6072:6423   */\n  swap3\n  swap2\n  pop\n  pop\n  jump\t// out\n    /* \"#utility.yul\":6429:6609   */\ntag_38:\n    /* \"#utility.yul\":6477:6554   */\n  0x4e487b7100000000000000000000000000000000000000000000000000000000\n    /* \"#utility.yul\":6474:6475   */\n  0x00\n    /* \"#utility.yul\":6467:6555   */\n  mstore\n    /* \"#utility.yul\":6574:6578   */\n  0x11\n    /* \"#utility.yul\":6571:6572   */\n  0x04\n    /* \"#utility.yul\":6564:6579   */\n  mstore\n    /* \"#utility.yul\":6598:6602   */\n  0x24\n    /* \"#utility.yul\":6595:6596   */\n  0x00\n    /* \"#utility.yul\":6588:6603   */\n  revert\n    /* \"#utility.yul\":6615:6806   */\ntag_9:\n    /* \"#utility.yul\":6655:6658   */\n  0x00\n    /* \"#utility.yul\":6674:6694   */\n  tag_118\n    /* \"#utility.yul\":6692:6693   */\n  dup3\n    /* \"#utility.yul\":6674:6694   */\n  tag_19\n  jump\t// in\ntag_118:\n    /* \"#utility.yul\":6669:6694   */\n  swap2\n  pop\n    /* \"#utility.yul\":6708:6728   */\n  tag_119\n    /* \"#utility.yul\":6726:6727   */\n  dup4\n    /* \"#utility.yul\":6708:6728   */\n  tag_19\n  jump\t// in\ntag_119:\n    /* \"#utility.yul\":6703:6728   */\n  swap3\n  pop\n    /* \"#utility.yul\":6751:6752   */\n  dup3\n    /* \"#utility.yul\":6748:6749   */\n  dup3\n    /* \"#utility.yul\":6744:6753   */\n  add\n    /* \"#utility.yul\":6737:6753   */\n  swap1\n  pop\n    /* \"#utility.yul\":6772:6775   */\n  dup1\n    /* \"#utility.yul\":6769:6770   */\n  dup3\n    /* \"#utility.yul\":6766:6776   */\n  gt\n    /* \"#utility.yul\":6763:6799   */\n  iszero\n  tag_120\n  jumpi\n    /* \"#utility.yul\":6779:6797   */\n  tag_121\n  tag_38\n  jump\t// in\ntag_121:\n    /* \"#utility.yul\":6763:6799   */\ntag_120:\n    /* \"#utility.yul\":6615:6806   */\n  swap3\n  swap2\n  pop\n  pop\n  jump\t// out\n    /* \"contracts/ICO.sol\":91:1458  contract ICO {... */\ntag_10:\n  dataSize(sub_0)\n  dup1\n  dataOffset(sub_0)\n  0x00\n  codecopy\n  0x00\n  return\nstop\n\nsub_0: assembly {\n        /* \"contracts/ICO.sol\":91:1458  contract ICO {... */\n      mstore(0x40, 0x80)\n      jumpi(tag_1, lt(calldatasize, 0x04))\n      shr(0xe0, calldataload(0x00))\n      dup1\n      0x647ae08c\n      gt\n      tag_9\n      jumpi\n      dup1\n      0x647ae08c\n      eq\n      tag_5\n      jumpi\n      dup1\n      0xa87430ba\n      eq\n      tag_6\n      jumpi\n      dup1\n      0xd96e1f76\n      eq\n      tag_7\n      jumpi\n      dup1\n      0xfc0c546a\n      eq\n      tag_8\n      jumpi\n      jump(tag_1)\n    tag_9:\n      dup1\n      0x1c2ac5ac\n      eq\n      tag_2\n      jumpi\n      dup1\n      0x253a96e9\n      eq\n      tag_3\n      jumpi\n      dup1\n      0x4451d89f\n      eq\n      tag_4\n      jumpi\n    tag_1:\n      0x00\n      dup1\n      revert\n        /* \"contracts/ICO.sol\":511:704  function IcoStatus() public {... */\n    tag_2:\n      callvalue\n      dup1\n      iszero\n      tag_10\n      jumpi\n      0x00\n      dup1\n      revert\n    tag_10:\n      pop\n      tag_11\n      tag_12\n      jump\t// in\n    tag_11:\n      stop\n        /* \"contracts/ICO.sol\":712:1220  function DepositEther() public payable returns(bool){... */\n    tag_3:\n      tag_13\n      tag_14\n      jump\t// in\n    tag_13:\n      mload(0x40)\n      tag_15\n      swap2\n      swap1\n      tag_16\n      jump\t// in\n    tag_15:\n      mload(0x40)\n      dup1\n      swap2\n      sub\n      swap1\n      return\n        /* \"contracts/ICO.sol\":1229:1455  function claimToken() public {... */\n    tag_4:\n      callvalue\n      dup1\n      iszero\n      tag_17\n      jumpi\n      0x00\n      dup1\n      revert\n    tag_17:\n      pop\n      tag_18\n      tag_19\n      jump\t// in\n    tag_18:\n      stop\n        /* \"contracts/ICO.sol\":138:170  uint public avaiableToken = 1000 */\n    tag_5:\n      callvalue\n      dup1\n      iszero\n      tag_20\n      jumpi\n      0x00\n      dup1\n      revert\n    tag_20:\n      pop\n      tag_21\n      tag_22\n      jump\t// in\n    tag_21:\n      mload(0x40)\n      tag_23\n      swap2\n      swap1\n      tag_24\n      jump\t// in\n    tag_23:\n      mload(0x40)\n      dup1\n      swap2\n      sub\n      swap1\n      return\n        /* \"contracts/ICO.sol\":281:331  mapping (address buyer => uint token) public users */\n    tag_6:\n      callvalue\n      dup1\n      iszero\n      tag_25\n      jumpi\n      0x00\n      dup1\n      revert\n    tag_25:\n      pop\n      tag_26\n      0x04\n      dup1\n      calldatasize\n      sub\n      dup2\n      add\n      swap1\n      tag_27\n      swap2\n      swap1\n      tag_28\n      jump\t// in\n    tag_27:\n      tag_29\n      jump\t// in\n    tag_26:\n      mload(0x40)\n      tag_30\n      swap2\n      swap1\n      tag_24\n      jump\t// in\n    tag_30:\n      mload(0x40)\n      dup1\n      swap2\n      sub\n      swap1\n      return\n        /* \"contracts/ICO.sol\":177:218  string public icoStatus = \"upcoming soon\" */\n    tag_7:\n      callvalue\n      dup1\n      iszero\n      tag_31\n      jumpi\n      0x00\n      dup1\n      revert\n    tag_31:\n      pop\n      tag_32\n      tag_33\n      jump\t// in\n    tag_32:\n      mload(0x40)\n      tag_34\n      swap2\n      swap1\n      tag_35\n      jump\t// in\n    tag_34:\n      mload(0x40)\n      dup1\n      swap2\n      sub\n      swap1\n      return\n        /* \"contracts/ICO.sol\":113:131  Token public token */\n    tag_8:\n      callvalue\n      dup1\n      iszero\n      tag_36\n      jumpi\n      0x00\n      dup1\n      revert\n    tag_36:\n      pop\n      tag_37\n      tag_38\n      jump\t// in\n    tag_37:\n      mload(0x40)\n      tag_39\n      swap2\n      swap1\n      tag_40\n      jump\t// in\n    tag_39:\n      mload(0x40)\n      dup1\n      swap2\n      sub\n      swap1\n      return\n        /* \"contracts/ICO.sol\":511:704  function IcoStatus() public {... */\n    tag_12:\n        /* \"contracts/ICO.sol\":572:581  startTime */\n      sload(0x03)\n        /* \"contracts/ICO.sol\":554:569  block.timestamp */\n      timestamp\n        /* \"contracts/ICO.sol\":554:581  block.timestamp > startTime */\n      gt\n        /* \"contracts/ICO.sol\":554:610  block.timestamp > startTime && block.timestamp < endTime */\n      dup1\n      iszero\n      tag_42\n      jumpi\n      pop\n        /* \"contracts/ICO.sol\":603:610  endTime */\n      sload(0x04)\n        /* \"contracts/ICO.sol\":585:600  block.timestamp */\n      timestamp\n        /* \"contracts/ICO.sol\":585:610  block.timestamp < endTime */\n      lt\n        /* \"contracts/ICO.sol\":554:610  block.timestamp > startTime && block.timestamp < endTime */\n    tag_42:\n        /* \"contracts/ICO.sol\":550:697  if (block.timestamp > startTime && block.timestamp < endTime){... */\n      iszero\n      tag_43\n      jumpi\n        /* \"contracts/ICO.sol\":622:644  icoStatus = \"Star Now\" */\n      mload(0x40)\n      dup1\n      0x40\n      add\n      0x40\n      mstore\n      dup1\n      0x08\n      dup2\n      mstore\n      0x20\n      add\n      0x53746172204e6f77000000000000000000000000000000000000000000000000\n      dup2\n      mstore\n      pop\n        /* \"contracts/ICO.sol\":622:631  icoStatus */\n      0x02\n        /* \"contracts/ICO.sol\":622:644  icoStatus = \"Star Now\" */\n      swap1\n      dup2\n      tag_44\n      swap2\n      swap1\n      tag_45\n      jump\t// in\n    tag_44:\n      pop\n        /* \"contracts/ICO.sol\":550:697  if (block.timestamp > startTime && block.timestamp < endTime){... */\n      jump(tag_46)\n    tag_43:\n        /* \"contracts/ICO.sol\":673:694  icoStatus = \"End Now\" */\n      mload(0x40)\n      dup1\n      0x40\n      add\n      0x40\n      mstore\n      dup1\n      0x07\n      dup2\n      mstore\n      0x20\n      add\n      0x456e64204e6f7700000000000000000000000000000000000000000000000000\n      dup2\n      mstore\n      pop\n        /* \"contracts/ICO.sol\":673:682  icoStatus */\n      0x02\n        /* \"contracts/ICO.sol\":673:694  icoStatus = \"End Now\" */\n      swap1\n      dup2\n      tag_47\n      swap2\n      swap1\n      tag_45\n      jump\t// in\n    tag_47:\n      pop\n        /* \"contracts/ICO.sol\":550:697  if (block.timestamp > startTime && block.timestamp < endTime){... */\n    tag_46:\n        /* \"contracts/ICO.sol\":511:704  function IcoStatus() public {... */\n      jump\t// out\n        /* \"contracts/ICO.sol\":712:1220  function DepositEther() public payable returns(bool){... */\n    tag_14:\n        /* \"contracts/ICO.sol\":759:763  bool */\n      0x00\n        /* \"contracts/ICO.sol\":801:810  startTime */\n      sload(0x03)\n        /* \"contracts/ICO.sol\":783:798  block.timestamp */\n      timestamp\n        /* \"contracts/ICO.sol\":783:810  block.timestamp > startTime */\n      gt\n        /* \"contracts/ICO.sol\":783:839  block.timestamp > startTime && block.timestamp < endTime */\n      dup1\n      iszero\n      tag_49\n      jumpi\n      pop\n        /* \"contracts/ICO.sol\":832:839  endTime */\n      sload(0x04)\n        /* \"contracts/ICO.sol\":814:829  block.timestamp */\n      timestamp\n        /* \"contracts/ICO.sol\":814:839  block.timestamp < endTime */\n      lt\n        /* \"contracts/ICO.sol\":783:839  block.timestamp > startTime && block.timestamp < endTime */\n    tag_49:\n        /* \"contracts/ICO.sol\":775:861  require(block.timestamp > startTime && block.timestamp < endTime, \"check ico status.\") */\n      tag_50\n      jumpi\n      mload(0x40)\n      0x08c379a000000000000000000000000000000000000000000000000000000000\n      dup2\n      mstore\n      0x04\n      add\n      tag_51\n      swap1\n      tag_52\n      jump\t// in\n    tag_51:\n      mload(0x40)\n      dup1\n      swap2\n      sub\n      swap1\n      revert\n    tag_50:\n        /* \"contracts/ICO.sol\":894:901  1 ether */\n      0x0de0b6b3a7640000\n        /* \"contracts/ICO.sol\":881:890  msg.value */\n      callvalue\n        /* \"contracts/ICO.sol\":881:901  msg.value >= 1 ether */\n      lt\n      iszero\n        /* \"contracts/ICO.sol\":872:923  require( msg.value >= 1 ether ,\"min.1 can deposit\") */\n      tag_53\n      jumpi\n      mload(0x40)\n      0x08c379a000000000000000000000000000000000000000000000000000000000\n      dup2\n      mstore\n      0x04\n      add\n      tag_54\n      swap1\n      tag_55\n      jump\t// in\n    tag_54:\n      mload(0x40)\n      dup1\n      swap2\n      sub\n      swap1\n      revert\n    tag_53:\n        /* \"contracts/ICO.sol\":974:981  1 ether */\n      0x0de0b6b3a7640000\n        /* \"contracts/ICO.sol\":968:970  50 */\n      0x32\n        /* \"contracts/ICO.sol\":956:965  msg.value */\n      callvalue\n        /* \"contracts/ICO.sol\":956:970  msg.value * 50 */\n      tag_56\n      swap2\n      swap1\n      tag_57\n      jump\t// in\n    tag_56:\n        /* \"contracts/ICO.sol\":955:981  (msg.value * 50) / 1 ether */\n      tag_58\n      swap2\n      swap1\n      tag_59\n      jump\t// in\n    tag_58:\n        /* \"contracts/ICO.sol\":934:939  users */\n      0x05\n        /* \"contracts/ICO.sol\":934:951  users[msg.sender] */\n      0x00\n        /* \"contracts/ICO.sol\":940:950  msg.sender */\n      caller\n        /* \"contracts/ICO.sol\":934:951  users[msg.sender] */\n      0xffffffffffffffffffffffffffffffffffffffff\n      and\n      0xffffffffffffffffffffffffffffffffffffffff\n      and\n      dup2\n      mstore\n      0x20\n      add\n      swap1\n      dup2\n      mstore\n      0x20\n      add\n      0x00\n      keccak256\n      0x00\n        /* \"contracts/ICO.sol\":934:981  users[msg.sender] += (msg.value * 50) / 1 ether */\n      dup3\n      dup3\n      sload\n      tag_60\n      swap2\n      swap1\n      tag_61\n      jump\t// in\n    tag_60:\n      swap3\n      pop\n      pop\n      dup2\n      swap1\n      sstore\n      pop\n        /* \"contracts/ICO.sol\":1030:1043  avaiableToken */\n      sload(0x01)\n        /* \"contracts/ICO.sol\":1019:1026  1 ether */\n      0x0de0b6b3a7640000\n        /* \"contracts/ICO.sol\":1013:1015  50 */\n      0x32\n        /* \"contracts/ICO.sol\":1001:1010  msg.value */\n      callvalue\n        /* \"contracts/ICO.sol\":1001:1015  msg.value * 50 */\n      tag_62\n      swap2\n      swap1\n      tag_57\n      jump\t// in\n    tag_62:\n        /* \"contracts/ICO.sol\":1000:1026  (msg.value * 50) / 1 ether */\n      tag_63\n      swap2\n      swap1\n      tag_59\n      jump\t// in\n    tag_63:\n        /* \"contracts/ICO.sol\":1000:1043  (msg.value * 50) / 1 ether <= avaiableToken */\n      gt\n      iszero\n        /* \"contracts/ICO.sol\":992:1067  require((msg.value * 50) / 1 ether <= avaiableToken, \"max supply reached.\") */\n      tag_64\n      jumpi\n      mload(0x40)\n      0x08c379a000000000000000000000000000000000000000000000000000000000\n      dup2\n      mstore\n      0x04\n      add\n      tag_65\n      swap1\n      tag_66\n      jump\t// in\n    tag_65:\n      mload(0x40)\n      dup1\n      swap2\n      sub\n      swap1\n      revert\n    tag_64:\n        /* \"contracts/ICO.sol\":1114:1121  1 ether */\n      0x0de0b6b3a7640000\n        /* \"contracts/ICO.sol\":1108:1110  50 */\n      0x32\n        /* \"contracts/ICO.sol\":1096:1105  msg.value */\n      callvalue\n        /* \"contracts/ICO.sol\":1096:1110  msg.value * 50 */\n      tag_67\n      swap2\n      swap1\n      tag_57\n      jump\t// in\n    tag_67:\n        /* \"contracts/ICO.sol\":1095:1121  (msg.value * 50) / 1 ether */\n      tag_68\n      swap2\n      swap1\n      tag_59\n      jump\t// in\n    tag_68:\n        /* \"contracts/ICO.sol\":1078:1091  avaiableToken */\n      0x01\n      0x00\n        /* \"contracts/ICO.sol\":1078:1121  avaiableToken -= (msg.value * 50) / 1 ether */\n      dup3\n      dup3\n      sload\n      tag_69\n      swap2\n      swap1\n      tag_70\n      jump\t// in\n    tag_69:\n      swap3\n      pop\n      pop\n      dup2\n      swap1\n      sstore\n      pop\n        /* \"contracts/ICO.sol\":1161:1164  200 */\n      0xc8\n        /* \"contracts/ICO.sol\":1140:1145  users */\n      0x05\n        /* \"contracts/ICO.sol\":1140:1157  users[msg.sender] */\n      0x00\n        /* \"contracts/ICO.sol\":1146:1156  msg.sender */\n      caller\n        /* \"contracts/ICO.sol\":1140:1157  users[msg.sender] */\n      0xffffffffffffffffffffffffffffffffffffffff\n      and\n      0xffffffffffffffffffffffffffffffffffffffff\n      and\n      dup2\n      mstore\n      0x20\n      add\n      swap1\n      dup2\n      mstore\n      0x20\n      add\n      0x00\n      keccak256\n      sload\n        /* \"contracts/ICO.sol\":1140:1164  users[msg.sender] <= 200 */\n      gt\n      iszero\n        /* \"contracts/ICO.sol\":1132:1190  require(users[msg.sender] <= 200, \"max 200 token allows.\") */\n      tag_71\n      jumpi\n      mload(0x40)\n      0x08c379a000000000000000000000000000000000000000000000000000000000\n      dup2\n      mstore\n      0x04\n      add\n      tag_72\n      swap1\n      tag_73\n      jump\t// in\n    tag_72:\n      mload(0x40)\n      dup1\n      swap2\n      sub\n      swap1\n      revert\n    tag_71:\n        /* \"contracts/ICO.sol\":1208:1212  true */\n      0x01\n        /* \"contracts/ICO.sol\":1201:1212  return true */\n      swap1\n      pop\n        /* \"contracts/ICO.sol\":712:1220  function DepositEther() public payable returns(bool){... */\n      swap1\n      jump\t// out\n        /* \"contracts/ICO.sol\":1229:1455  function claimToken() public {... */\n    tag_19:\n        /* \"contracts/ICO.sol\":1297:1299  49 */\n      0x31\n        /* \"contracts/ICO.sol\":1277:1282  users */\n      0x05\n        /* \"contracts/ICO.sol\":1277:1294  users[msg.sender] */\n      0x00\n        /* \"contracts/ICO.sol\":1283:1293  msg.sender */\n      caller\n        /* \"contracts/ICO.sol\":1277:1294  users[msg.sender] */\n      0xffffffffffffffffffffffffffffffffffffffff\n      and\n      0xffffffffffffffffffffffffffffffffffffffff\n      and\n      dup2\n      mstore\n      0x20\n      add\n      swap1\n      dup2\n      mstore\n      0x20\n      add\n      0x00\n      keccak256\n      sload\n        /* \"contracts/ICO.sol\":1277:1299  users[msg.sender] > 49 */\n      gt\n        /* \"contracts/ICO.sol\":1277:1328  users[msg.sender] > 49 && block.timestamp > endTime */\n      dup1\n      iszero\n      tag_75\n      jumpi\n      pop\n        /* \"contracts/ICO.sol\":1321:1328  endTime */\n      sload(0x04)\n        /* \"contracts/ICO.sol\":1303:1318  block.timestamp */\n      timestamp\n        /* \"contracts/ICO.sol\":1303:1328  block.timestamp > endTime */\n      gt\n        /* \"contracts/ICO.sol\":1277:1328  users[msg.sender] > 49 && block.timestamp > endTime */\n    tag_75:\n        /* \"contracts/ICO.sol\":1269:1359  require(users[msg.sender] > 49 && block.timestamp > endTime, \"0 balance, wait for claim\" ) */\n      tag_76\n      jumpi\n      mload(0x40)\n      0x08c379a000000000000000000000000000000000000000000000000000000000\n      dup2\n      mstore\n      0x04\n      add\n      tag_77\n      swap1\n      tag_78\n      jump\t// in\n    tag_77:\n      mload(0x40)\n      dup1\n      swap2\n      sub\n      swap1\n      revert\n    tag_76:\n        /* \"contracts/ICO.sol\":1370:1375  token */\n      0x00\n      dup1\n      sload\n      swap1\n      0x0100\n      exp\n      swap1\n      div\n      0xffffffffffffffffffffffffffffffffffffffff\n      and\n        /* \"contracts/ICO.sol\":1370:1384  token.transfer */\n      0xffffffffffffffffffffffffffffffffffffffff\n      and\n      0xa9059cbb\n        /* \"contracts/ICO.sol\":1385:1395  msg.sender */\n      caller\n        /* \"contracts/ICO.sol\":1397:1402  users */\n      0x05\n        /* \"contracts/ICO.sol\":1397:1414  users[msg.sender] */\n      0x00\n        /* \"contracts/ICO.sol\":1403:1413  msg.sender */\n      caller\n        /* \"contracts/ICO.sol\":1397:1414  users[msg.sender] */\n      0xffffffffffffffffffffffffffffffffffffffff\n      and\n      0xffffffffffffffffffffffffffffffffffffffff\n      and\n      dup2\n      mstore\n      0x20\n      add\n      swap1\n      dup2\n      mstore\n      0x20\n      add\n      0x00\n      keccak256\n      sload\n        /* \"contracts/ICO.sol\":1370:1415  token.transfer(msg.sender, users[msg.sender]) */\n      mload(0x40)\n      dup4\n      0xffffffff\n      and\n      0xe0\n      shl\n      dup2\n      mstore\n      0x04\n      add\n      tag_79\n      swap3\n      swap2\n      swap1\n      tag_80\n      jump\t// in\n    tag_79:\n      0x20\n      mload(0x40)\n      dup1\n      dup4\n      sub\n      dup2\n      0x00\n      dup8\n      gas\n      call\n      iszero\n      dup1\n      iszero\n      tag_82\n      jumpi\n      returndatasize\n      0x00\n      dup1\n      returndatacopy\n      revert(0x00, returndatasize)\n    tag_82:\n      pop\n      pop\n      pop\n      pop\n      mload(0x40)\n      returndatasize\n      not(0x1f)\n      0x1f\n      dup3\n      add\n      and\n      dup3\n      add\n      dup1\n      0x40\n      mstore\n      pop\n      dup2\n      add\n      swap1\n      tag_83\n      swap2\n      swap1\n      tag_84\n      jump\t// in\n    tag_83:\n      pop\n        /* \"contracts/ICO.sol\":1446:1447  0 */\n      0x00\n        /* \"contracts/ICO.sol\":1426:1431  users */\n      0x05\n        /* \"contracts/ICO.sol\":1426:1443  users[msg.sender] */\n      0x00\n        /* \"contracts/ICO.sol\":1432:1442  msg.sender */\n      caller\n        /* \"contracts/ICO.sol\":1426:1443  users[msg.sender] */\n      0xffffffffffffffffffffffffffffffffffffffff\n      and\n      0xffffffffffffffffffffffffffffffffffffffff\n      and\n      dup2\n      mstore\n      0x20\n      add\n      swap1\n      dup2\n      mstore\n      0x20\n      add\n      0x00\n      keccak256\n        /* \"contracts/ICO.sol\":1426:1447  users[msg.sender] = 0 */\n      dup2\n      swap1\n      sstore\n      pop\n        /* \"contracts/ICO.sol\":1229:1455  function claimToken() public {... */\n      jump\t// out\n        /* \"contracts/ICO.sol\":138:170  uint public avaiableToken = 1000 */\n    tag_22:\n      sload(0x01)\n      dup2\n      jump\t// out\n        /* \"contracts/ICO.sol\":281:331  mapping (address buyer => uint token) public users */\n    tag_29:\n      mstore(0x20, 0x05)\n      dup1\n      0x00\n      mstore\n      keccak256(0x00, 0x40)\n      0x00\n      swap2\n      pop\n      swap1\n      pop\n      sload\n      dup2\n      jump\t// out\n        /* \"contracts/ICO.sol\":177:218  string public icoStatus = \"upcoming soon\" */\n    tag_33:\n      0x02\n      dup1\n      sload\n      tag_85\n      swap1\n      tag_86\n      jump\t// in\n    tag_85:\n      dup1\n      0x1f\n      add\n      0x20\n      dup1\n      swap2\n      div\n      mul\n      0x20\n      add\n      mload(0x40)\n      swap1\n      dup2\n      add\n      0x40\n      mstore\n      dup1\n      swap3\n      swap2\n      swap1\n      dup2\n      dup2\n      mstore\n      0x20\n      add\n      dup3\n      dup1\n      sload\n      tag_87\n      swap1\n      tag_86\n      jump\t// in\n    tag_87:\n      dup1\n      iszero\n      tag_88\n      jumpi\n      dup1\n      0x1f\n      lt\n      tag_89\n      jumpi\n      0x0100\n      dup1\n      dup4\n      sload\n      div\n      mul\n      dup4\n      mstore\n      swap2\n      0x20\n      add\n      swap2\n      jump(tag_88)\n    tag_89:\n      dup3\n      add\n      swap2\n      swap1\n      0x00\n      mstore\n      keccak256(0x00, 0x20)\n      swap1\n    tag_90:\n      dup2\n      sload\n      dup2\n      mstore\n      swap1\n      0x01\n      add\n      swap1\n      0x20\n      add\n      dup1\n      dup4\n      gt\n      tag_90\n      jumpi\n      dup3\n      swap1\n      sub\n      0x1f\n      and\n      dup3\n      add\n      swap2\n    tag_88:\n      pop\n      pop\n      pop\n      pop\n      pop\n      dup2\n      jump\t// out\n        /* \"contracts/ICO.sol\":113:131  Token public token */\n    tag_38:\n      0x00\n      dup1\n      sload\n      swap1\n      0x0100\n      exp\n      swap1\n      div\n      0xffffffffffffffffffffffffffffffffffffffff\n      and\n      dup2\n      jump\t// out\n        /* \"#utility.yul\":7:97   */\n    tag_91:\n        /* \"#utility.yul\":41:48   */\n      0x00\n        /* \"#utility.yul\":84:89   */\n      dup2\n        /* \"#utility.yul\":77:90   */\n      iszero\n        /* \"#utility.yul\":70:91   */\n      iszero\n        /* \"#utility.yul\":59:91   */\n      swap1\n      pop\n        /* \"#utility.yul\":7:97   */\n      swap2\n      swap1\n      pop\n      jump\t// out\n        /* \"#utility.yul\":103:212   */\n    tag_92:\n        /* \"#utility.yul\":184:205   */\n      tag_146\n        /* \"#utility.yul\":199:204   */\n      dup2\n        /* \"#utility.yul\":184:205   */\n      tag_91\n      jump\t// in\n    tag_146:\n        /* \"#utility.yul\":179:182   */\n      dup3\n        /* \"#utility.yul\":172:206   */\n      mstore\n        /* \"#utility.yul\":103:212   */\n      pop\n      pop\n      jump\t// out\n        /* \"#utility.yul\":218:428   */\n    tag_16:\n        /* \"#utility.yul\":305:309   */\n      0x00\n        /* \"#utility.yul\":343:345   */\n      0x20\n        /* \"#utility.yul\":332:341   */\n      dup3\n        /* \"#utility.yul\":328:346   */\n      add\n        /* \"#utility.yul\":320:346   */\n      swap1\n      pop\n        /* \"#utility.yul\":356:421   */\n      tag_148\n        /* \"#utility.yul\":418:419   */\n      0x00\n        /* \"#utility.yul\":407:416   */\n      dup4\n        /* \"#utility.yul\":403:420   */\n      add\n        /* \"#utility.yul\":394:400   */\n      dup5\n        /* \"#utility.yul\":356:421   */\n      tag_92\n      jump\t// in\n    tag_148:\n        /* \"#utility.yul\":218:428   */\n      swap3\n      swap2\n      pop\n      pop\n      jump\t// out\n        /* \"#utility.yul\":434:511   */\n    tag_93:\n        /* \"#utility.yul\":471:478   */\n      0x00\n        /* \"#utility.yul\":500:505   */\n      dup2\n        /* \"#utility.yul\":489:505   */\n      swap1\n      pop\n        /* \"#utility.yul\":434:511   */\n      swap2\n      swap1\n      pop\n      jump\t// out\n        /* \"#utility.yul\":517:635   */\n    tag_94:\n        /* \"#utility.yul\":604:628   */\n      tag_151\n        /* \"#utility.yul\":622:627   */\n      dup2\n        /* \"#utility.yul\":604:628   */\n      tag_93\n      jump\t// in\n    tag_151:\n        /* \"#utility.yul\":599:602   */\n      dup3\n        /* \"#utility.yul\":592:629   */\n      mstore\n        /* \"#utility.yul\":517:635   */\n      pop\n      pop\n      jump\t// out\n        /* \"#utility.yul\":641:863   */\n    tag_24:\n        /* \"#utility.yul\":734:738   */\n      0x00\n        /* \"#utility.yul\":772:774   */\n      0x20\n        /* \"#utility.yul\":761:770   */\n      dup3\n        /* \"#utility.yul\":757:775   */\n      add\n        /* \"#utility.yul\":749:775   */\n      swap1\n      pop\n        /* \"#utility.yul\":785:856   */\n      tag_153\n        /* \"#utility.yul\":853:854   */\n      0x00\n        /* \"#utility.yul\":842:851   */\n      dup4\n        /* \"#utility.yul\":838:855   */\n      add\n        /* \"#utility.yul\":829:835   */\n      dup5\n        /* \"#utility.yul\":785:856   */\n      tag_94\n      jump\t// in\n    tag_153:\n        /* \"#utility.yul\":641:863   */\n      swap3\n      swap2\n      pop\n      pop\n      jump\t// out\n        /* \"#utility.yul\":950:1067   */\n    tag_96:\n        /* \"#utility.yul\":1059:1060   */\n      0x00\n        /* \"#utility.yul\":1056:1057   */\n      dup1\n        /* \"#utility.yul\":1049:1061   */\n      revert\n        /* \"#utility.yul\":1196:1322   */\n    tag_98:\n        /* \"#utility.yul\":1233:1240   */\n      0x00\n        /* \"#utility.yul\":1273:1315   */\n      0xffffffffffffffffffffffffffffffffffffffff\n        /* \"#utility.yul\":1266:1271   */\n      dup3\n        /* \"#utility.yul\":1262:1316   */\n      and\n        /* \"#utility.yul\":1251:1316   */\n      swap1\n      pop\n        /* \"#utility.yul\":1196:1322   */\n      swap2\n      swap1\n      pop\n      jump\t// out\n        /* \"#utility.yul\":1328:1424   */\n    tag_99:\n        /* \"#utility.yul\":1365:1372   */\n      0x00\n        /* \"#utility.yul\":1394:1418   */\n      tag_159\n        /* \"#utility.yul\":1412:1417   */\n      dup3\n        /* \"#utility.yul\":1394:1418   */\n      tag_98\n      jump\t// in\n    tag_159:\n        /* \"#utility.yul\":1383:1418   */\n      swap1\n      pop\n        /* \"#utility.yul\":1328:1424   */\n      swap2\n      swap1\n      pop\n      jump\t// out\n        /* \"#utility.yul\":1430:1552   */\n    tag_100:\n        /* \"#utility.yul\":1503:1527   */\n      tag_161\n        /* \"#utility.yul\":1521:1526   */\n      dup2\n        /* \"#utility.yul\":1503:1527   */\n      tag_99\n      jump\t// in\n    tag_161:\n        /* \"#utility.yul\":1496:1501   */\n      dup2\n        /* \"#utility.yul\":1493:1528   */\n      eq\n        /* \"#utility.yul\":1483:1546   */\n      tag_162\n      jumpi\n        /* \"#utility.yul\":1542:1543   */\n      0x00\n        /* \"#utility.yul\":1539:1540   */\n      dup1\n        /* \"#utility.yul\":1532:1544   */\n      revert\n        /* \"#utility.yul\":1483:1546   */\n    tag_162:\n        /* \"#utility.yul\":1430:1552   */\n      pop\n      jump\t// out\n        /* \"#utility.yul\":1558:1697   */\n    tag_101:\n        /* \"#utility.yul\":1604:1609   */\n      0x00\n        /* \"#utility.yul\":1642:1648   */\n      dup2\n        /* \"#utility.yul\":1629:1649   */\n      calldataload\n        /* \"#utility.yul\":1620:1649   */\n      swap1\n      pop\n        /* \"#utility.yul\":1658:1691   */\n      tag_164\n        /* \"#utility.yul\":1685:1690   */\n      dup2\n        /* \"#utility.yul\":1658:1691   */\n      tag_100\n      jump\t// in\n    tag_164:\n        /* \"#utility.yul\":1558:1697   */\n      swap3\n      swap2\n      pop\n      pop\n      jump\t// out\n        /* \"#utility.yul\":1703:2032   */\n    tag_28:\n        /* \"#utility.yul\":1762:1768   */\n      0x00\n        /* \"#utility.yul\":1811:1813   */\n      0x20\n        /* \"#utility.yul\":1799:1808   */\n      dup3\n        /* \"#utility.yul\":1790:1797   */\n      dup5\n        /* \"#utility.yul\":1786:1809   */\n      sub\n        /* \"#utility.yul\":1782:1814   */\n      slt\n        /* \"#utility.yul\":1779:1898   */\n      iszero\n      tag_166\n      jumpi\n        /* \"#utility.yul\":1817:1896   */\n      tag_167\n      tag_96\n      jump\t// in\n    tag_167:\n        /* \"#utility.yul\":1779:1898   */\n    tag_166:\n        /* \"#utility.yul\":1937:1938   */\n      0x00\n        /* \"#utility.yul\":1962:2015   */\n      tag_168\n        /* \"#utility.yul\":2007:2014   */\n      dup5\n        /* \"#utility.yul\":1998:2004   */\n      dup3\n        /* \"#utility.yul\":1987:1996   */\n      dup6\n        /* \"#utility.yul\":1983:2005   */\n      add\n        /* \"#utility.yul\":1962:2015   */\n      tag_101\n      jump\t// in\n    tag_168:\n        /* \"#utility.yul\":1952:2015   */\n      swap2\n      pop\n        /* \"#utility.yul\":1908:2025   */\n      pop\n        /* \"#utility.yul\":1703:2032   */\n      swap3\n      swap2\n      pop\n      pop\n      jump\t// out\n        /* \"#utility.yul\":2038:2137   */\n    tag_102:\n        /* \"#utility.yul\":2090:2096   */\n      0x00\n        /* \"#utility.yul\":2124:2129   */\n      dup2\n        /* \"#utility.yul\":2118:2130   */\n      mload\n        /* \"#utility.yul\":2108:2130   */\n      swap1\n      pop\n        /* \"#utility.yul\":2038:2137   */\n      swap2\n      swap1\n      pop\n      jump\t// out\n        /* \"#utility.yul\":2143:2312   */\n    tag_103:\n        /* \"#utility.yul\":2227:2238   */\n      0x00\n        /* \"#utility.yul\":2261:2267   */\n      dup3\n        /* \"#utility.yul\":2256:2259   */\n      dup3\n        /* \"#utility.yul\":2249:2268   */\n      mstore\n        /* \"#utility.yul\":2301:2305   */\n      0x20\n        /* \"#utility.yul\":2296:2299   */\n      dup3\n        /* \"#utility.yul\":2292:2306   */\n      add\n        /* \"#utility.yul\":2277:2306   */\n      swap1\n      pop\n        /* \"#utility.yul\":2143:2312   */\n      swap3\n      swap2\n      pop\n      pop\n      jump\t// out\n        /* \"#utility.yul\":2318:2564   */\n    tag_104:\n        /* \"#utility.yul\":2399:2400   */\n      0x00\n        /* \"#utility.yul\":2409:2522   */\n    tag_172:\n        /* \"#utility.yul\":2423:2429   */\n      dup4\n        /* \"#utility.yul\":2420:2421   */\n      dup2\n        /* \"#utility.yul\":2417:2430   */\n      lt\n        /* \"#utility.yul\":2409:2522   */\n      iszero\n      tag_174\n      jumpi\n        /* \"#utility.yul\":2508:2509   */\n      dup1\n        /* \"#utility.yul\":2503:2506   */\n      dup3\n        /* \"#utility.yul\":2499:2510   */\n      add\n        /* \"#utility.yul\":2493:2511   */\n      mload\n        /* \"#utility.yul\":2489:2490   */\n      dup2\n        /* \"#utility.yul\":2484:2487   */\n      dup5\n        /* \"#utility.yul\":2480:2491   */\n      add\n        /* \"#utility.yul\":2473:2512   */\n      mstore\n        /* \"#utility.yul\":2445:2447   */\n      0x20\n        /* \"#utility.yul\":2442:2443   */\n      dup2\n        /* \"#utility.yul\":2438:2448   */\n      add\n        /* \"#utility.yul\":2433:2448   */\n      swap1\n      pop\n        /* \"#utility.yul\":2409:2522   */\n      jump(tag_172)\n    tag_174:\n        /* \"#utility.yul\":2556:2557   */\n      0x00\n        /* \"#utility.yul\":2547:2553   */\n      dup5\n        /* \"#utility.yul\":2542:2545   */\n      dup5\n        /* \"#utility.yul\":2538:2554   */\n      add\n        /* \"#utility.yul\":2531:2558   */\n      mstore\n        /* \"#utility.yul\":2380:2564   */\n      pop\n        /* \"#utility.yul\":2318:2564   */\n      pop\n      pop\n      pop\n      jump\t// out\n        /* \"#utility.yul\":2570:2672   */\n    tag_105:\n        /* \"#utility.yul\":2611:2617   */\n      0x00\n        /* \"#utility.yul\":2662:2664   */\n      0x1f\n        /* \"#utility.yul\":2658:2665   */\n      not\n        /* \"#utility.yul\":2653:2655   */\n      0x1f\n        /* \"#utility.yul\":2646:2651   */\n      dup4\n        /* \"#utility.yul\":2642:2656   */\n      add\n        /* \"#utility.yul\":2638:2666   */\n      and\n        /* \"#utility.yul\":2628:2666   */\n      swap1\n      pop\n        /* \"#utility.yul\":2570:2672   */\n      swap2\n      swap1\n      pop\n      jump\t// out\n        /* \"#utility.yul\":2678:3055   */\n    tag_106:\n        /* \"#utility.yul\":2766:2769   */\n      0x00\n        /* \"#utility.yul\":2794:2833   */\n      tag_177\n        /* \"#utility.yul\":2827:2832   */\n      dup3\n        /* \"#utility.yul\":2794:2833   */\n      tag_102\n      jump\t// in\n    tag_177:\n        /* \"#utility.yul\":2849:2920   */\n      tag_178\n        /* \"#utility.yul\":2913:2919   */\n      dup2\n        /* \"#utility.yul\":2908:2911   */\n      dup6\n        /* \"#utility.yul\":2849:2920   */\n      tag_103\n      jump\t// in\n    tag_178:\n        /* \"#utility.yul\":2842:2920   */\n      swap4\n      pop\n        /* \"#utility.yul\":2929:2994   */\n      tag_179\n        /* \"#utility.yul\":2987:2993   */\n      dup2\n        /* \"#utility.yul\":2982:2985   */\n      dup6\n        /* \"#utility.yul\":2975:2979   */\n      0x20\n        /* \"#utility.yul\":2968:2973   */\n      dup7\n        /* \"#utility.yul\":2964:2980   */\n      add\n        /* \"#utility.yul\":2929:2994   */\n      tag_104\n      jump\t// in\n    tag_179:\n        /* \"#utility.yul\":3019:3048   */\n      tag_180\n        /* \"#utility.yul\":3041:3047   */\n      dup2\n        /* \"#utility.yul\":3019:3048   */\n      tag_105\n      jump\t// in\n    tag_180:\n        /* \"#utility.yul\":3014:3017   */\n      dup5\n        /* \"#utility.yul\":3010:3049   */\n      add\n        /* \"#utility.yul\":3003:3049   */\n      swap2\n      pop\n        /* \"#utility.yul\":2770:3055   */\n      pop\n        /* \"#utility.yul\":2678:3055   */\n      swap3\n      swap2\n      pop\n      pop\n      jump\t// out\n        /* \"#utility.yul\":3061:3374   */\n    tag_35:\n        /* \"#utility.yul\":3174:3178   */\n      0x00\n        /* \"#utility.yul\":3212:3214   */\n      0x20\n        /* \"#utility.yul\":3201:3210   */\n      dup3\n        /* \"#utility.yul\":3197:3215   */\n      add\n        /* \"#utility.yul\":3189:3215   */\n      swap1\n      pop\n        /* \"#utility.yul\":3261:3270   */\n      dup2\n        /* \"#utility.yul\":3255:3259   */\n      dup2\n        /* \"#utility.yul\":3251:3271   */\n      sub\n        /* \"#utility.yul\":3247:3248   */\n      0x00\n        /* \"#utility.yul\":3236:3245   */\n      dup4\n        /* \"#utility.yul\":3232:3249   */\n      add\n        /* \"#utility.yul\":3225:3272   */\n      mstore\n        /* \"#utility.yul\":3289:3367   */\n      tag_182\n        /* \"#utility.yul\":3362:3366   */\n      dup2\n        /* \"#utility.yul\":3353:3359   */\n      dup5\n        /* \"#utility.yul\":3289:3367   */\n      tag_106\n      jump\t// in\n    tag_182:\n        /* \"#utility.yul\":3281:3367   */\n      swap1\n      pop\n        /* \"#utility.yul\":3061:3374   */\n      swap3\n      swap2\n      pop\n      pop\n      jump\t// out\n        /* \"#utility.yul\":3380:3440   */\n    tag_107:\n        /* \"#utility.yul\":3408:3411   */\n      0x00\n        /* \"#utility.yul\":3429:3434   */\n      dup2\n        /* \"#utility.yul\":3422:3434   */\n      swap1\n      pop\n        /* \"#utility.yul\":3380:3440   */\n      swap2\n      swap1\n      pop\n      jump\t// out\n        /* \"#utility.yul\":3446:3588   */\n    tag_108:\n        /* \"#utility.yul\":3496:3505   */\n      0x00\n        /* \"#utility.yul\":3529:3582   */\n      tag_185\n        /* \"#utility.yul\":3547:3581   */\n      tag_186\n        /* \"#utility.yul\":3556:3580   */\n      tag_187\n        /* \"#utility.yul\":3574:3579   */\n      dup5\n        /* \"#utility.yul\":3556:3580   */\n      tag_98\n      jump\t// in\n    tag_187:\n        /* \"#utility.yul\":3547:3581   */\n      tag_107\n      jump\t// in\n    tag_186:\n        /* \"#utility.yul\":3529:3582   */\n      tag_98\n      jump\t// in\n    tag_185:\n        /* \"#utility.yul\":3516:3582   */\n      swap1\n      pop\n        /* \"#utility.yul\":3446:3588   */\n      swap2\n      swap1\n      pop\n      jump\t// out\n        /* \"#utility.yul\":3594:3720   */\n    tag_109:\n        /* \"#utility.yul\":3644:3653   */\n      0x00\n        /* \"#utility.yul\":3677:3714   */\n      tag_189\n        /* \"#utility.yul\":3708:3713   */\n      dup3\n        /* \"#utility.yul\":3677:3714   */\n      tag_108\n      jump\t// in\n    tag_189:\n        /* \"#utility.yul\":3664:3714   */\n      swap1\n      pop\n        /* \"#utility.yul\":3594:3720   */\n      swap2\n      swap1\n      pop\n      jump\t// out\n        /* \"#utility.yul\":3726:3865   */\n    tag_110:\n        /* \"#utility.yul\":3789:3798   */\n      0x00\n        /* \"#utility.yul\":3822:3859   */\n      tag_191\n        /* \"#utility.yul\":3853:3858   */\n      dup3\n        /* \"#utility.yul\":3822:3859   */\n      tag_109\n      jump\t// in\n    tag_191:\n        /* \"#utility.yul\":3809:3859   */\n      swap1\n      pop\n        /* \"#utility.yul\":3726:3865   */\n      swap2\n      swap1\n      pop\n      jump\t// out\n        /* \"#utility.yul\":3871:4028   */\n    tag_111:\n        /* \"#utility.yul\":3971:4021   */\n      tag_193\n        /* \"#utility.yul\":4015:4020   */\n      dup2\n        /* \"#utility.yul\":3971:4021   */\n      tag_110\n      jump\t// in\n    tag_193:\n        /* \"#utility.yul\":3966:3969   */\n      dup3\n        /* \"#utility.yul\":3959:4022   */\n      mstore\n        /* \"#utility.yul\":3871:4028   */\n      pop\n      pop\n      jump\t// out\n        /* \"#utility.yul\":4034:4282   */\n    tag_40:\n        /* \"#utility.yul\":4140:4144   */\n      0x00\n        /* \"#utility.yul\":4178:4180   */\n      0x20\n        /* \"#utility.yul\":4167:4176   */\n      dup3\n        /* \"#utility.yul\":4163:4181   */\n      add\n        /* \"#utility.yul\":4155:4181   */\n      swap1\n      pop\n        /* \"#utility.yul\":4191:4275   */\n      tag_195\n        /* \"#utility.yul\":4272:4273   */\n      0x00\n        /* \"#utility.yul\":4261:4270   */\n      dup4\n        /* \"#utility.yul\":4257:4274   */\n      add\n        /* \"#utility.yul\":4248:4254   */\n      dup5\n        /* \"#utility.yul\":4191:4275   */\n      tag_111\n      jump\t// in\n    tag_195:\n        /* \"#utility.yul\":4034:4282   */\n      swap3\n      swap2\n      pop\n      pop\n      jump\t// out\n        /* \"#utility.yul\":4288:4468   */\n    tag_112:\n        /* \"#utility.yul\":4336:4413   */\n      0x4e487b7100000000000000000000000000000000000000000000000000000000\n        /* \"#utility.yul\":4333:4334   */\n      0x00\n        /* \"#utility.yul\":4326:4414   */\n      mstore\n        /* \"#utility.yul\":4433:4437   */\n      0x41\n        /* \"#utility.yul\":4430:4431   */\n      0x04\n        /* \"#utility.yul\":4423:4438   */\n      mstore\n        /* \"#utility.yul\":4457:4461   */\n      0x24\n        /* \"#utility.yul\":4454:4455   */\n      0x00\n        /* \"#utility.yul\":4447:4462   */\n      revert\n        /* \"#utility.yul\":4474:4654   */\n    tag_113:\n        /* \"#utility.yul\":4522:4599   */\n      0x4e487b7100000000000000000000000000000000000000000000000000000000\n        /* \"#utility.yul\":4519:4520   */\n      0x00\n        /* \"#utility.yul\":4512:4600   */\n      mstore\n        /* \"#utility.yul\":4619:4623   */\n      0x22\n        /* \"#utility.yul\":4616:4617   */\n      0x04\n        /* \"#utility.yul\":4609:4624   */\n      mstore\n        /* \"#utility.yul\":4643:4647   */\n      0x24\n        /* \"#utility.yul\":4640:4641   */\n      0x00\n        /* \"#utility.yul\":4633:4648   */\n      revert\n        /* \"#utility.yul\":4660:4980   */\n    tag_86:\n        /* \"#utility.yul\":4704:4710   */\n      0x00\n        /* \"#utility.yul\":4741:4742   */\n      0x02\n        /* \"#utility.yul\":4735:4739   */\n      dup3\n        /* \"#utility.yul\":4731:4743   */\n      div\n        /* \"#utility.yul\":4721:4743   */\n      swap1\n      pop\n        /* \"#utility.yul\":4788:4789   */\n      0x01\n        /* \"#utility.yul\":4782:4786   */\n      dup3\n        /* \"#utility.yul\":4778:4790   */\n      and\n        /* \"#utility.yul\":4809:4827   */\n      dup1\n        /* \"#utility.yul\":4799:4880   */\n      tag_199\n      jumpi\n        /* \"#utility.yul\":4865:4869   */\n      0x7f\n        /* \"#utility.yul\":4857:4863   */\n      dup3\n        /* \"#utility.yul\":4853:4870   */\n      and\n        /* \"#utility.yul\":4843:4870   */\n      swap2\n      pop\n        /* \"#utility.yul\":4799:4880   */\n    tag_199:\n        /* \"#utility.yul\":4927:4929   */\n      0x20\n        /* \"#utility.yul\":4919:4925   */\n      dup3\n        /* \"#utility.yul\":4916:4930   */\n      lt\n        /* \"#utility.yul\":4896:4914   */\n      dup2\n        /* \"#utility.yul\":4893:4931   */\n      sub\n        /* \"#utility.yul\":4890:4974   */\n      tag_200\n      jumpi\n        /* \"#utility.yul\":4946:4964   */\n      tag_201\n      tag_113\n      jump\t// in\n    tag_201:\n        /* \"#utility.yul\":4890:4974   */\n    tag_200:\n        /* \"#utility.yul\":4711:4980   */\n      pop\n        /* \"#utility.yul\":4660:4980   */\n      swap2\n      swap1\n      pop\n      jump\t// out\n        /* \"#utility.yul\":4986:5127   */\n    tag_114:\n        /* \"#utility.yul\":5035:5039   */\n      0x00\n        /* \"#utility.yul\":5058:5061   */\n      dup2\n        /* \"#utility.yul\":5050:5061   */\n      swap1\n      pop\n        /* \"#utility.yul\":5081:5084   */\n      dup2\n        /* \"#utility.yul\":5078:5079   */\n      0x00\n        /* \"#utility.yul\":5071:5085   */\n      mstore\n        /* \"#utility.yul\":5115:5119   */\n      0x20\n        /* \"#utility.yul\":5112:5113   */\n      0x00\n        /* \"#utility.yul\":5102:5120   */\n      keccak256\n        /* \"#utility.yul\":5094:5120   */\n      swap1\n      pop\n        /* \"#utility.yul\":4986:5127   */\n      swap2\n      swap1\n      pop\n      jump\t// out\n        /* \"#utility.yul\":5133:5226   */\n    tag_115:\n        /* \"#utility.yul\":5170:5176   */\n      0x00\n        /* \"#utility.yul\":5217:5219   */\n      0x20\n        /* \"#utility.yul\":5212:5214   */\n      0x1f\n        /* \"#utility.yul\":5205:5210   */\n      dup4\n        /* \"#utility.yul\":5201:5215   */\n      add\n        /* \"#utility.yul\":5197:5220   */\n      div\n        /* \"#utility.yul\":5187:5220   */\n      swap1\n      pop\n        /* \"#utility.yul\":5133:5226   */\n      swap2\n      swap1\n      pop\n      jump\t// out\n        /* \"#utility.yul\":5232:5339   */\n    tag_116:\n        /* \"#utility.yul\":5276:5284   */\n      0x00\n        /* \"#utility.yul\":5326:5331   */\n      dup3\n        /* \"#utility.yul\":5320:5324   */\n      dup3\n        /* \"#utility.yul\":5316:5332   */\n      shl\n        /* \"#utility.yul\":5295:5332   */\n      swap1\n      pop\n        /* \"#utility.yul\":5232:5339   */\n      swap3\n      swap2\n      pop\n      pop\n      jump\t// out\n        /* \"#utility.yul\":5345:5738   */\n    tag_117:\n        /* \"#utility.yul\":5414:5420   */\n      0x00\n        /* \"#utility.yul\":5464:5465   */\n      0x08\n        /* \"#utility.yul\":5452:5462   */\n      dup4\n        /* \"#utility.yul\":5448:5466   */\n      mul\n        /* \"#utility.yul\":5487:5584   */\n      tag_206\n        /* \"#utility.yul\":5517:5583   */\n      0xffffffffffffffffffffffffffffffffffffffffffffffffffffffffffffffff\n        /* \"#utility.yul\":5506:5515   */\n      dup3\n        /* \"#utility.yul\":5487:5584   */\n      tag_116\n      jump\t// in\n    tag_206:\n        /* \"#utility.yul\":5605:5644   */\n      tag_207\n        /* \"#utility.yul\":5635:5643   */\n      dup7\n        /* \"#utility.yul\":5624:5633   */\n      dup4\n        /* \"#utility.yul\":5605:5644   */\n      tag_116\n      jump\t// in\n    tag_207:\n        /* \"#utility.yul\":5593:5644   */\n      swap6\n      pop\n        /* \"#utility.yul\":5677:5681   */\n      dup1\n        /* \"#utility.yul\":5673:5682   */\n      not\n        /* \"#utility.yul\":5666:5671   */\n      dup5\n        /* \"#utility.yul\":5662:5683   */\n      and\n        /* \"#utility.yul\":5653:5683   */\n      swap4\n      pop\n        /* \"#utility.yul\":5726:5730   */\n      dup1\n        /* \"#utility.yul\":5716:5724   */\n      dup7\n        /* \"#utility.yul\":5712:5731   */\n      and\n        /* \"#utility.yul\":5705:5710   */\n      dup5\n        /* \"#utility.yul\":5702:5732   */\n      or\n        /* \"#utility.yul\":5692:5732   */\n      swap3\n      pop\n        /* \"#utility.yul\":5421:5738   */\n      pop\n      pop\n        /* \"#utility.yul\":5345:5738   */\n      swap4\n      swap3\n      pop\n      pop\n      pop\n      jump\t// out\n        /* \"#utility.yul\":5744:5886   */\n    tag_118:\n        /* \"#utility.yul\":5794:5803   */\n      0x00\n        /* \"#utility.yul\":5827:5880   */\n      tag_209\n        /* \"#utility.yul\":5845:5879   */\n      tag_210\n        /* \"#utility.yul\":5854:5878   */\n      tag_211\n        /* \"#utility.yul\":5872:5877   */\n      dup5\n        /* \"#utility.yul\":5854:5878   */\n      tag_93\n      jump\t// in\n    tag_211:\n        /* \"#utility.yul\":5845:5879   */\n      tag_107\n      jump\t// in\n    tag_210:\n        /* \"#utility.yul\":5827:5880   */\n      tag_93\n      jump\t// in\n    tag_209:\n        /* \"#utility.yul\":5814:5880   */\n      swap1\n      pop\n        /* \"#utility.yul\":5744:5886   */\n      swap2\n      swap1\n      pop\n      jump\t// out\n        /* \"#utility.yul\":5892:5967   */\n    tag_119:\n        /* \"#utility.yul\":5935:5938   */\n      0x00\n        /* \"#utility.yul\":5956:5961   */\n      dup2\n        /* \"#utility.yul\":5949:5961   */\n      swap1\n      pop\n        /* \"#utility.yul\":5892:5967   */\n      swap2\n      swap1\n      pop\n      jump\t// out\n        /* \"#utility.yul\":5973:6242   */\n    tag_120:\n        /* \"#utility.yul\":6083:6122   */\n      tag_214\n        /* \"#utility.yul\":6114:6121   */\n      dup4\n        /* \"#utility.yul\":6083:6122   */\n      tag_118\n      jump\t// in\n    tag_214:\n        /* \"#utility.yul\":6144:6235   */\n      tag_215\n        /* \"#utility.yul\":6193:6234   */\n      tag_216\n        /* \"#utility.yul\":6217:6233   */\n      dup3\n        /* \"#utility.yul\":6193:6234   */\n      tag_119\n      jump\t// in\n    tag_216:\n        /* \"#utility.yul\":6185:6191   */\n      dup5\n        /* \"#utility.yul\":6178:6182   */\n      dup5\n        /* \"#utility.yul\":6172:6183   */\n      sload\n        /* \"#utility.yul\":6144:6235   */\n      tag_117\n      jump\t// in\n    tag_215:\n        /* \"#utility.yul\":6138:6142   */\n      dup3\n        /* \"#utility.yul\":6131:6236   */\n      sstore\n        /* \"#utility.yul\":6049:6242   */\n      pop\n        /* \"#utility.yul\":5973:6242   */\n      pop\n      pop\n      pop\n      jump\t// out\n        /* \"#utility.yul\":6248:6321   */\n    tag_121:\n        /* \"#utility.yul\":6293:6296   */\n      0x00\n        /* \"#utility.yul\":6248:6321   */\n      swap1\n      jump\t// out\n        /* \"#utility.yul\":6327:6516   */\n    tag_122:\n        /* \"#utility.yul\":6404:6436   */\n      tag_219\n      tag_121\n      jump\t// in\n    tag_219:\n        /* \"#utility.yul\":6445:6510   */\n      tag_220\n        /* \"#utility.yul\":6503:6509   */\n      dup2\n        /* \"#utility.yul\":6495:6501   */\n      dup5\n        /* \"#utility.yul\":6489:6493   */\n      dup5\n        /* \"#utility.yul\":6445:6510   */\n      tag_120\n      jump\t// in\n    tag_220:\n        /* \"#utility.yul\":6380:6516   */\n      pop\n        /* \"#utility.yul\":6327:6516   */\n      pop\n      pop\n      jump\t// out\n        /* \"#utility.yul\":6522:6708   */\n    tag_123:\n        /* \"#utility.yul\":6582:6702   */\n    tag_222:\n        /* \"#utility.yul\":6599:6602   */\n      dup2\n        /* \"#utility.yul\":6592:6597   */\n      dup2\n        /* \"#utility.yul\":6589:6603   */\n      lt\n        /* \"#utility.yul\":6582:6702   */\n      iszero\n      tag_224\n      jumpi\n        /* \"#utility.yul\":6653:6692   */\n      tag_225\n        /* \"#utility.yul\":6690:6691   */\n      0x00\n        /* \"#utility.yul\":6683:6688   */\n      dup3\n        /* \"#utility.yul\":6653:6692   */\n      tag_122\n      jump\t// in\n    tag_225:\n        /* \"#utility.yul\":6626:6627   */\n      0x01\n        /* \"#utility.yul\":6619:6624   */\n      dup2\n        /* \"#utility.yul\":6615:6628   */\n      add\n        /* \"#utility.yul\":6606:6628   */\n      swap1\n      pop\n        /* \"#utility.yul\":6582:6702   */\n      jump(tag_222)\n    tag_224:\n        /* \"#utility.yul\":6522:6708   */\n      pop\n      pop\n      jump\t// out\n        /* \"#utility.yul\":6714:7257   */\n    tag_124:\n        /* \"#utility.yul\":6815:6817   */\n      0x1f\n        /* \"#utility.yul\":6810:6813   */\n      dup3\n        /* \"#utility.yul\":6807:6818   */\n      gt\n        /* \"#utility.yul\":6804:7250   */\n      iszero\n      tag_227\n      jumpi\n        /* \"#utility.yul\":6849:6887   */\n      tag_228\n        /* \"#utility.yul\":6881:6886   */\n      dup2\n        /* \"#utility.yul\":6849:6887   */\n      tag_114\n      jump\t// in\n    tag_228:\n        /* \"#utility.yul\":6933:6962   */\n      tag_229\n        /* \"#utility.yul\":6951:6961   */\n      dup5\n        /* \"#utility.yul\":6933:6962   */\n      tag_115\n      jump\t// in\n    tag_229:\n        /* \"#utility.yul\":6923:6931   */\n      dup2\n        /* \"#utility.yul\":6919:6963   */\n      add\n        /* \"#utility.yul\":7116:7118   */\n      0x20\n        /* \"#utility.yul\":7104:7114   */\n      dup6\n        /* \"#utility.yul\":7101:7119   */\n      lt\n        /* \"#utility.yul\":7098:7147   */\n      iszero\n      tag_230\n      jumpi\n        /* \"#utility.yul\":7137:7145   */\n      dup2\n        /* \"#utility.yul\":7122:7145   */\n      swap1\n      pop\n        /* \"#utility.yul\":7098:7147   */\n    tag_230:\n        /* \"#utility.yul\":7160:7240   */\n      tag_231\n        /* \"#utility.yul\":7216:7238   */\n      tag_232\n        /* \"#utility.yul\":7234:7237   */\n      dup6\n        /* \"#utility.yul\":7216:7238   */\n      tag_115\n      jump\t// in\n    tag_232:\n        /* \"#utility.yul\":7206:7214   */\n      dup4\n        /* \"#utility.yul\":7202:7239   */\n      add\n        /* \"#utility.yul\":7189:7200   */\n      dup3\n        /* \"#utility.yul\":7160:7240   */\n      tag_123\n      jump\t// in\n    tag_231:\n        /* \"#utility.yul\":6819:7250   */\n      pop\n      pop\n        /* \"#utility.yul\":6804:7250   */\n    tag_227:\n        /* \"#utility.yul\":6714:7257   */\n      pop\n      pop\n      pop\n      jump\t// out\n        /* \"#utility.yul\":7263:7380   */\n    tag_125:\n        /* \"#utility.yul\":7317:7325   */\n      0x00\n        /* \"#utility.yul\":7367:7372   */\n      dup3\n        /* \"#utility.yul\":7361:7365   */\n      dup3\n        /* \"#utility.yul\":7357:7373   */\n      shr\n        /* \"#utility.yul\":7336:7373   */\n      swap1\n      pop\n        /* \"#utility.yul\":7263:7380   */\n      swap3\n      swap2\n      pop\n      pop\n      jump\t// out\n        /* \"#utility.yul\":7386:7555   */\n    tag_126:\n        /* \"#utility.yul\":7430:7436   */\n      0x00\n        /* \"#utility.yul\":7463:7514   */\n      tag_235\n        /* \"#utility.yul\":7511:7512   */\n      0x00\n        /* \"#utility.yul\":7507:7513   */\n      not\n        /* \"#utility.yul\":7499:7504   */\n      dup5\n        /* \"#utility.yul\":7496:7497   */\n      0x08\n        /* \"#utility.yul\":7492:7505   */\n      mul\n        /* \"#utility.yul\":7463:7514   */\n      tag_125\n      jump\t// in\n    tag_235:\n        /* \"#utility.yul\":7459:7515   */\n      not\n        /* \"#utility.yul\":7544:7548   */\n      dup1\n        /* \"#utility.yul\":7538:7542   */\n      dup4\n        /* \"#utility.yul\":7534:7549   */\n      and\n        /* \"#utility.yul\":7524:7549   */\n      swap2\n      pop\n        /* \"#utility.yul\":7437:7555   */\n      pop\n        /* \"#utility.yul\":7386:7555   */\n      swap3\n      swap2\n      pop\n      pop\n      jump\t// out\n        /* \"#utility.yul\":7560:7855   */\n    tag_127:\n        /* \"#utility.yul\":7636:7640   */\n      0x00\n        /* \"#utility.yul\":7782:7811   */\n      tag_237\n        /* \"#utility.yul\":7807:7810   */\n      dup4\n        /* \"#utility.yul\":7801:7805   */\n      dup4\n        /* \"#utility.yul\":7782:7811   */\n      tag_126\n      jump\t// in\n    tag_237:\n        /* \"#utility.yul\":7774:7811   */\n      swap2\n      pop\n        /* \"#utility.yul\":7844:7847   */\n      dup3\n        /* \"#utility.yul\":7841:7842   */\n      0x02\n        /* \"#utility.yul\":7837:7848   */\n      mul\n        /* \"#utility.yul\":7831:7835   */\n      dup3\n        /* \"#utility.yul\":7828:7849   */\n      or\n        /* \"#utility.yul\":7820:7849   */\n      swap1\n      pop\n        /* \"#utility.yul\":7560:7855   */\n      swap3\n      swap2\n      pop\n      pop\n      jump\t// out\n        /* \"#utility.yul\":7860:9255   */\n    tag_45:\n        /* \"#utility.yul\":7977:8014   */\n      tag_239\n        /* \"#utility.yul\":8010:8013   */\n      dup3\n        /* \"#utility.yul\":7977:8014   */\n      tag_102\n      jump\t// in\n    tag_239:\n        /* \"#utility.yul\":8079:8097   */\n      0xffffffffffffffff\n        /* \"#utility.yul\":8071:8077   */\n      dup2\n        /* \"#utility.yul\":8068:8098   */\n      gt\n        /* \"#utility.yul\":8065:8121   */\n      iszero\n      tag_240\n      jumpi\n        /* \"#utility.yul\":8101:8119   */\n      tag_241\n      tag_112\n      jump\t// in\n    tag_241:\n        /* \"#utility.yul\":8065:8121   */\n    tag_240:\n        /* \"#utility.yul\":8145:8183   */\n      tag_242\n        /* \"#utility.yul\":8177:8181   */\n      dup3\n        /* \"#utility.yul\":8171:8182   */\n      sload\n        /* \"#utility.yul\":8145:8183   */\n      tag_86\n      jump\t// in\n    tag_242:\n        /* \"#utility.yul\":8230:8297   */\n      tag_243\n        /* \"#utility.yul\":8290:8296   */\n      dup3\n        /* \"#utility.yul\":8282:8288   */\n      dup3\n        /* \"#utility.yul\":8276:8280   */\n      dup6\n        /* \"#utility.yul\":8230:8297   */\n      tag_124\n      jump\t// in\n    tag_243:\n        /* \"#utility.yul\":8324:8325   */\n      0x00\n        /* \"#utility.yul\":8348:8352   */\n      0x20\n        /* \"#utility.yul\":8335:8352   */\n      swap1\n      pop\n        /* \"#utility.yul\":8380:8382   */\n      0x1f\n        /* \"#utility.yul\":8372:8378   */\n      dup4\n        /* \"#utility.yul\":8369:8383   */\n      gt\n        /* \"#utility.yul\":8397:8398   */\n      0x01\n        /* \"#utility.yul\":8392:9010   */\n      dup2\n      eq\n      tag_245\n      jumpi\n        /* \"#utility.yul\":9054:9055   */\n      0x00\n        /* \"#utility.yul\":9071:9077   */\n      dup5\n        /* \"#utility.yul\":9068:9145   */\n      iszero\n      tag_246\n      jumpi\n        /* \"#utility.yul\":9120:9129   */\n      dup3\n        /* \"#utility.yul\":9115:9118   */\n      dup8\n        /* \"#utility.yul\":9111:9130   */\n      add\n        /* \"#utility.yul\":9105:9131   */\n      mload\n        /* \"#utility.yul\":9096:9131   */\n      swap1\n      pop\n        /* \"#utility.yul\":9068:9145   */\n    tag_246:\n        /* \"#utility.yul\":9171:9238   */\n      tag_247\n        /* \"#utility.yul\":9231:9237   */\n      dup6\n        /* \"#utility.yul\":9224:9229   */\n      dup3\n        /* \"#utility.yul\":9171:9238   */\n      tag_127\n      jump\t// in\n    tag_247:\n        /* \"#utility.yul\":9165:9169   */\n      dup7\n        /* \"#utility.yul\":9158:9239   */\n      sstore\n        /* \"#utility.yul\":9027:9249   */\n      pop\n        /* \"#utility.yul\":8362:9249   */\n      jump(tag_244)\n        /* \"#utility.yul\":8392:9010   */\n    tag_245:\n        /* \"#utility.yul\":8444:8448   */\n      0x1f\n        /* \"#utility.yul\":8440:8449   */\n      not\n        /* \"#utility.yul\":8432:8438   */\n      dup5\n        /* \"#utility.yul\":8428:8450   */\n      and\n        /* \"#utility.yul\":8478:8515   */\n      tag_248\n        /* \"#utility.yul\":8510:8514   */\n      dup7\n        /* \"#utility.yul\":8478:8515   */\n      tag_114\n      jump\t// in\n    tag_248:\n        /* \"#utility.yul\":8537:8538   */\n      0x00\n        /* \"#utility.yul\":8551:8759   */\n    tag_249:\n        /* \"#utility.yul\":8565:8572   */\n      dup3\n        /* \"#utility.yul\":8562:8563   */\n      dup2\n        /* \"#utility.yul\":8559:8573   */\n      lt\n        /* \"#utility.yul\":8551:8759   */\n      iszero\n      tag_251\n      jumpi\n        /* \"#utility.yul\":8644:8653   */\n      dup5\n        /* \"#utility.yul\":8639:8642   */\n      dup10\n        /* \"#utility.yul\":8635:8654   */\n      add\n        /* \"#utility.yul\":8629:8655   */\n      mload\n        /* \"#utility.yul\":8621:8627   */\n      dup3\n        /* \"#utility.yul\":8614:8656   */\n      sstore\n        /* \"#utility.yul\":8695:8696   */\n      0x01\n        /* \"#utility.yul\":8687:8693   */\n      dup3\n        /* \"#utility.yul\":8683:8697   */\n      add\n        /* \"#utility.yul\":8673:8697   */\n      swap2\n      pop\n        /* \"#utility.yul\":8742:8744   */\n      0x20\n        /* \"#utility.yul\":8731:8740   */\n      dup6\n        /* \"#utility.yul\":8727:8745   */\n      add\n        /* \"#utility.yul\":8714:8745   */\n      swap5\n      pop\n        /* \"#utility.yul\":8588:8592   */\n      0x20\n        /* \"#utility.yul\":8585:8586   */\n      dup2\n        /* \"#utility.yul\":8581:8593   */\n      add\n        /* \"#utility.yul\":8576:8593   */\n      swap1\n      pop\n        /* \"#utility.yul\":8551:8759   */\n      jump(tag_249)\n    tag_251:\n        /* \"#utility.yul\":8787:8793   */\n      dup7\n        /* \"#utility.yul\":8778:8785   */\n      dup4\n        /* \"#utility.yul\":8775:8794   */\n      lt\n        /* \"#utility.yul\":8772:8951   */\n      iszero\n      tag_252\n      jumpi\n        /* \"#utility.yul\":8845:8854   */\n      dup5\n        /* \"#utility.yul\":8840:8843   */\n      dup10\n        /* \"#utility.yul\":8836:8855   */\n      add\n        /* \"#utility.yul\":8830:8856   */\n      mload\n        /* \"#utility.yul\":8888:8936   */\n      tag_253\n        /* \"#utility.yul\":8930:8934   */\n      0x1f\n        /* \"#utility.yul\":8922:8928   */\n      dup10\n        /* \"#utility.yul\":8918:8935   */\n      and\n        /* \"#utility.yul\":8907:8916   */\n      dup3\n        /* \"#utility.yul\":8888:8936   */\n      tag_126\n      jump\t// in\n    tag_253:\n        /* \"#utility.yul\":8880:8886   */\n      dup4\n        /* \"#utility.yul\":8873:8937   */\n      sstore\n        /* \"#utility.yul\":8795:8951   */\n      pop\n        /* \"#utility.yul\":8772:8951   */\n    tag_252:\n        /* \"#utility.yul\":8997:8998   */\n      0x01\n        /* \"#utility.yul\":8993:8994   */\n      0x02\n        /* \"#utility.yul\":8985:8991   */\n      dup9\n        /* \"#utility.yul\":8981:8995   */\n      mul\n        /* \"#utility.yul\":8977:8999   */\n      add\n        /* \"#utility.yul\":8971:8975   */\n      dup9\n        /* \"#utility.yul\":8964:9000   */\n      sstore\n        /* \"#utility.yul\":8399:9010   */\n      pop\n      pop\n      pop\n        /* \"#utility.yul\":8362:9249   */\n    tag_244:\n      pop\n        /* \"#utility.yul\":7952:9255   */\n      pop\n      pop\n      pop\n        /* \"#utility.yul\":7860:9255   */\n      pop\n      pop\n      jump\t// out\n        /* \"#utility.yul\":9261:9428   */\n    tag_128:\n        /* \"#utility.yul\":9401:9420   */\n      0x636865636b2069636f207374617475732e000000000000000000000000000000\n        /* \"#utility.yul\":9397:9398   */\n      0x00\n        /* \"#utility.yul\":9389:9395   */\n      dup3\n        /* \"#utility.yul\":9385:9399   */\n      add\n        /* \"#utility.yul\":9378:9421   */\n      mstore\n        /* \"#utility.yul\":9261:9428   */\n      pop\n      jump\t// out\n        /* \"#utility.yul\":9434:9800   */\n    tag_129:\n        /* \"#utility.yul\":9576:9579   */\n      0x00\n        /* \"#utility.yul\":9597:9664   */\n      tag_256\n        /* \"#utility.yul\":9661:9663   */\n      0x11\n        /* \"#utility.yul\":9656:9659   */\n      dup4\n        /* \"#utility.yul\":9597:9664   */\n      tag_103\n      jump\t// in\n    tag_256:\n        /* \"#utility.yul\":9590:9664   */\n      swap2\n      pop\n        /* \"#utility.yul\":9673:9766   */\n      tag_257\n        /* \"#utility.yul\":9762:9765   */\n      dup3\n        /* \"#utility.yul\":9673:9766   */\n      tag_128\n      jump\t// in\n    tag_257:\n        /* \"#utility.yul\":9791:9793   */\n      0x20\n        /* \"#utility.yul\":9786:9789   */\n      dup3\n        /* \"#utility.yul\":9782:9794   */\n      add\n        /* \"#utility.yul\":9775:9794   */\n      swap1\n      pop\n        /* \"#utility.yul\":9434:9800   */\n      swap2\n      swap1\n      pop\n      jump\t// out\n        /* \"#utility.yul\":9806:10225   */\n    tag_52:\n        /* \"#utility.yul\":9972:9976   */\n      0x00\n        /* \"#utility.yul\":10010:10012   */\n      0x20\n        /* \"#utility.yul\":9999:10008   */\n      dup3\n        /* \"#utility.yul\":9995:10013   */\n      add\n        /* \"#utility.yul\":9987:10013   */\n      swap1\n      pop\n        /* \"#utility.yul\":10059:10068   */\n      dup2\n        /* \"#utility.yul\":10053:10057   */\n      dup2\n        /* \"#utility.yul\":10049:10069   */\n      sub\n        /* \"#utility.yul\":10045:10046   */\n      0x00\n        /* \"#utility.yul\":10034:10043   */\n      dup4\n        /* \"#utility.yul\":10030:10047   */\n      add\n        /* \"#utility.yul\":10023:10070   */\n      mstore\n        /* \"#utility.yul\":10087:10218   */\n      tag_259\n        /* \"#utility.yul\":10213:10217   */\n      dup2\n        /* \"#utility.yul\":10087:10218   */\n      tag_129\n      jump\t// in\n    tag_259:\n        /* \"#utility.yul\":10079:10218   */\n      swap1\n      pop\n        /* \"#utility.yul\":9806:10225   */\n      swap2\n      swap1\n      pop\n      jump\t// out\n        /* \"#utility.yul\":10231:10398   */\n    tag_130:\n        /* \"#utility.yul\":10371:10390   */\n      0x6d696e2e312063616e206465706f736974000000000000000000000000000000\n        /* \"#utility.yul\":10367:10368   */\n      0x00\n        /* \"#utility.yul\":10359:10365   */\n      dup3\n        /* \"#utility.yul\":10355:10369   */\n      add\n        /* \"#utility.yul\":10348:10391   */\n      mstore\n        /* \"#utility.yul\":10231:10398   */\n      pop\n      jump\t// out\n        /* \"#utility.yul\":10404:10770   */\n    tag_131:\n        /* \"#utility.yul\":10546:10549   */\n      0x00\n        /* \"#utility.yul\":10567:10634   */\n      tag_262\n        /* \"#utility.yul\":10631:10633   */\n      0x11\n        /* \"#utility.yul\":10626:10629   */\n      dup4\n        /* \"#utility.yul\":10567:10634   */\n      tag_103\n      jump\t// in\n    tag_262:\n        /* \"#utility.yul\":10560:10634   */\n      swap2\n      pop\n        /* \"#utility.yul\":10643:10736   */\n      tag_263\n        /* \"#utility.yul\":10732:10735   */\n      dup3\n        /* \"#utility.yul\":10643:10736   */\n      tag_130\n      jump\t// in\n    tag_263:\n        /* \"#utility.yul\":10761:10763   */\n      0x20\n        /* \"#utility.yul\":10756:10759   */\n      dup3\n        /* \"#utility.yul\":10752:10764   */\n      add\n        /* \"#utility.yul\":10745:10764   */\n      swap1\n      pop\n        /* \"#utility.yul\":10404:10770   */\n      swap2\n      swap1\n      pop\n      jump\t// out\n        /* \"#utility.yul\":10776:11195   */\n    tag_55:\n        /* \"#utility.yul\":10942:10946   */\n      0x00\n        /* \"#utility.yul\":10980:10982   */\n      0x20\n        /* \"#utility.yul\":10969:10978   */\n      dup3\n        /* \"#utility.yul\":10965:10983   */\n      add\n        /* \"#utility.yul\":10957:10983   */\n      swap1\n      pop\n        /* \"#utility.yul\":11029:11038   */\n      dup2\n        /* \"#utility.yul\":11023:11027   */\n      dup2\n        /* \"#utility.yul\":11019:11039   */\n      sub\n        /* \"#utility.yul\":11015:11016   */\n      0x00\n        /* \"#utility.yul\":11004:11013   */\n      dup4\n        /* \"#utility.yul\":11000:11017   */\n      add\n        /* \"#utility.yul\":10993:11040   */\n      mstore\n        /* \"#utility.yul\":11057:11188   */\n      tag_265\n        /* \"#utility.yul\":11183:11187   */\n      dup2\n        /* \"#utility.yul\":11057:11188   */\n      tag_131\n      jump\t// in\n    tag_265:\n        /* \"#utility.yul\":11049:11188   */\n      swap1\n      pop\n        /* \"#utility.yul\":10776:11195   */\n      swap2\n      swap1\n      pop\n      jump\t// out\n        /* \"#utility.yul\":11201:11381   */\n    tag_132:\n        /* \"#utility.yul\":11249:11326   */\n      0x4e487b7100000000000000000000000000000000000000000000000000000000\n        /* \"#utility.yul\":11246:11247   */\n      0x00\n        /* \"#utility.yul\":11239:11327   */\n      mstore\n        /* \"#utility.yul\":11346:11350   */\n      0x11\n        /* \"#utility.yul\":11343:11344   */\n      0x04\n        /* \"#utility.yul\":11336:11351   */\n      mstore\n        /* \"#utility.yul\":11370:11374   */\n      0x24\n        /* \"#utility.yul\":11367:11368   */\n      0x00\n        /* \"#utility.yul\":11360:11375   */\n      revert\n        /* \"#utility.yul\":11387:11797   */\n    tag_57:\n        /* \"#utility.yul\":11427:11434   */\n      0x00\n        /* \"#utility.yul\":11450:11470   */\n      tag_268\n        /* \"#utility.yul\":11468:11469   */\n      dup3\n        /* \"#utility.yul\":11450:11470   */\n      tag_93\n      jump\t// in\n    tag_268:\n        /* \"#utility.yul\":11445:11470   */\n      swap2\n      pop\n        /* \"#utility.yul\":11484:11504   */\n      tag_269\n        /* \"#utility.yul\":11502:11503   */\n      dup4\n        /* \"#utility.yul\":11484:11504   */\n      tag_93\n      jump\t// in\n    tag_269:\n        /* \"#utility.yul\":11479:11504   */\n      swap3\n      pop\n        /* \"#utility.yul\":11539:11540   */\n      dup3\n        /* \"#utility.yul\":11536:11537   */\n      dup3\n        /* \"#utility.yul\":11532:11541   */\n      mul\n        /* \"#utility.yul\":11561:11591   */\n      tag_270\n        /* \"#utility.yul\":11579:11590   */\n      dup2\n        /* \"#utility.yul\":11561:11591   */\n      tag_93\n      jump\t// in\n    tag_270:\n        /* \"#utility.yul\":11550:11591   */\n      swap2\n      pop\n        /* \"#utility.yul\":11740:11741   */\n      dup3\n        /* \"#utility.yul\":11731:11738   */\n      dup3\n        /* \"#utility.yul\":11727:11742   */\n      div\n        /* \"#utility.yul\":11724:11725   */\n      dup5\n        /* \"#utility.yul\":11721:11743   */\n      eq\n        /* \"#utility.yul\":11701:11702   */\n      dup4\n        /* \"#utility.yul\":11694:11703   */\n      iszero\n        /* \"#utility.yul\":11674:11757   */\n      or\n        /* \"#utility.yul\":11651:11790   */\n      tag_271\n      jumpi\n        /* \"#utility.yul\":11770:11788   */\n      tag_272\n      tag_132\n      jump\t// in\n    tag_272:\n        /* \"#utility.yul\":11651:11790   */\n    tag_271:\n        /* \"#utility.yul\":11435:11797   */\n      pop\n        /* \"#utility.yul\":11387:11797   */\n      swap3\n      swap2\n      pop\n      pop\n      jump\t// out\n        /* \"#utility.yul\":11803:11983   */\n    tag_133:\n        /* \"#utility.yul\":11851:11928   */\n      0x4e487b7100000000000000000000000000000000000000000000000000000000\n        /* \"#utility.yul\":11848:11849   */\n      0x00\n        /* \"#utility.yul\":11841:11929   */\n      mstore\n        /* \"#utility.yul\":11948:11952   */\n      0x12\n        /* \"#utility.yul\":11945:11946   */\n      0x04\n        /* \"#utility.yul\":11938:11953   */\n      mstore\n        /* \"#utility.yul\":11972:11976   */\n      0x24\n        /* \"#utility.yul\":11969:11970   */\n      0x00\n        /* \"#utility.yul\":11962:11977   */\n      revert\n        /* \"#utility.yul\":11989:12174   */\n    tag_59:\n        /* \"#utility.yul\":12029:12030   */\n      0x00\n        /* \"#utility.yul\":12046:12066   */\n      tag_275\n        /* \"#utility.yul\":12064:12065   */\n      dup3\n        /* \"#utility.yul\":12046:12066   */\n      tag_93\n      jump\t// in\n    tag_275:\n        /* \"#utility.yul\":12041:12066   */\n      swap2\n      pop\n        /* \"#utility.yul\":12080:12100   */\n      tag_276\n        /* \"#utility.yul\":12098:12099   */\n      dup4\n        /* \"#utility.yul\":12080:12100   */\n      tag_93\n      jump\t// in\n    tag_276:\n        /* \"#utility.yul\":12075:12100   */\n      swap3\n      pop\n        /* \"#utility.yul\":12119:12120   */\n      dup3\n        /* \"#utility.yul\":12109:12144   */\n      tag_277\n      jumpi\n        /* \"#utility.yul\":12124:12142   */\n      tag_278\n      tag_133\n      jump\t// in\n    tag_278:\n        /* \"#utility.yul\":12109:12144   */\n    tag_277:\n        /* \"#utility.yul\":12166:12167   */\n      dup3\n        /* \"#utility.yul\":12163:12164   */\n      dup3\n        /* \"#utility.yul\":12159:12168   */\n      div\n        /* \"#utility.yul\":12154:12168   */\n      swap1\n      pop\n        /* \"#utility.yul\":11989:12174   */\n      swap3\n      swap2\n      pop\n      pop\n      jump\t// out\n        /* \"#utility.yul\":12180:12371   */\n    tag_61:\n        /* \"#utility.yul\":12220:12223   */\n      0x00\n        /* \"#utility.yul\":12239:12259   */\n      tag_280\n        /* \"#utility.yul\":12257:12258   */\n      dup3\n        /* \"#utility.yul\":12239:12259   */\n      tag_93\n      jump\t// in\n    tag_280:\n        /* \"#utility.yul\":12234:12259   */\n      swap2\n      pop\n        /* \"#utility.yul\":12273:12293   */\n      tag_281\n        /* \"#utility.yul\":12291:12292   */\n      dup4\n        /* \"#utility.yul\":12273:12293   */\n      tag_93\n      jump\t// in\n    tag_281:\n        /* \"#utility.yul\":12268:12293   */\n      swap3\n      pop\n        /* \"#utility.yul\":12316:12317   */\n      dup3\n        /* \"#utility.yul\":12313:12314   */\n      dup3\n        /* \"#utility.yul\":12309:12318   */\n      add\n        /* \"#utility.yul\":12302:12318   */\n      swap1\n      pop\n        /* \"#utility.yul\":12337:12340   */\n      dup1\n        /* \"#utility.yul\":12334:12335   */\n      dup3\n        /* \"#utility.yul\":12331:12341   */\n      gt\n        /* \"#utility.yul\":12328:12364   */\n      iszero\n      tag_282\n      jumpi\n        /* \"#utility.yul\":12344:12362   */\n      tag_283\n      tag_132\n      jump\t// in\n    tag_283:\n        /* \"#utility.yul\":12328:12364   */\n    tag_282:\n        /* \"#utility.yul\":12180:12371   */\n      swap3\n      swap2\n      pop\n      pop\n      jump\t// out\n        /* \"#utility.yul\":12377:12546   */\n    tag_134:\n        /* \"#utility.yul\":12517:12538   */\n      0x6d617820737570706c7920726561636865642e00000000000000000000000000\n        /* \"#utility.yul\":12513:12514   */\n      0x00\n        /* \"#utility.yul\":12505:12511   */\n      dup3\n        /* \"#utility.yul\":12501:12515   */\n      add\n        /* \"#utility.yul\":12494:12539   */\n      mstore\n        /* \"#utility.yul\":12377:12546   */\n      pop\n      jump\t// out\n        /* \"#utility.yul\":12552:12918   */\n    tag_135:\n        /* \"#utility.yul\":12694:12697   */\n      0x00\n        /* \"#utility.yul\":12715:12782   */\n      tag_286\n        /* \"#utility.yul\":12779:12781   */\n      0x13\n        /* \"#utility.yul\":12774:12777   */\n      dup4\n        /* \"#utility.yul\":12715:12782   */\n      tag_103\n      jump\t// in\n    tag_286:\n        /* \"#utility.yul\":12708:12782   */\n      swap2\n      pop\n        /* \"#utility.yul\":12791:12884   */\n      tag_287\n        /* \"#utility.yul\":12880:12883   */\n      dup3\n        /* \"#utility.yul\":12791:12884   */\n      tag_134\n      jump\t// in\n    tag_287:\n        /* \"#utility.yul\":12909:12911   */\n      0x20\n        /* \"#utility.yul\":12904:12907   */\n      dup3\n        /* \"#utility.yul\":12900:12912   */\n      add\n        /* \"#utility.yul\":12893:12912   */\n      swap1\n      pop\n        /* \"#utility.yul\":12552:12918   */\n      swap2\n      swap1\n      pop\n      jump\t// out\n        /* \"#utility.yul\":12924:13343   */\n    tag_66:\n        /* \"#utility.yul\":13090:13094   */\n      0x00\n        /* \"#utility.yul\":13128:13130   */\n      0x20\n        /* \"#utility.yul\":13117:13126   */\n      dup3\n        /* \"#utility.yul\":13113:13131   */\n      add\n        /* \"#utility.yul\":13105:13131   */\n      swap1\n      pop\n        /* \"#utility.yul\":13177:13186   */\n      dup2\n        /* \"#utility.yul\":13171:13175   */\n      dup2\n        /* \"#utility.yul\":13167:13187   */\n      sub\n        /* \"#utility.yul\":13163:13164   */\n      0x00\n        /* \"#utility.yul\":13152:13161   */\n      dup4\n        /* \"#utility.yul\":13148:13165   */\n      add\n        /* \"#utility.yul\":13141:13188   */\n      mstore\n        /* \"#utility.yul\":13205:13336   */\n      tag_289\n        /* \"#utility.yul\":13331:13335   */\n      dup2\n        /* \"#utility.yul\":13205:13336   */\n      tag_135\n      jump\t// in\n    tag_289:\n        /* \"#utility.yul\":13197:13336   */\n      swap1\n      pop\n        /* \"#utility.yul\":12924:13343   */\n      swap2\n      swap1\n      pop\n      jump\t// out\n        /* \"#utility.yul\":13349:13543   */\n    tag_70:\n        /* \"#utility.yul\":13389:13393   */\n      0x00\n        /* \"#utility.yul\":13409:13429   */\n      tag_291\n        /* \"#utility.yul\":13427:13428   */\n      dup3\n        /* \"#utility.yul\":13409:13429   */\n      tag_93\n      jump\t// in\n    tag_291:\n        /* \"#utility.yul\":13404:13429   */\n      swap2\n      pop\n        /* \"#utility.yul\":13443:13463   */\n      tag_292\n        /* \"#utility.yul\":13461:13462   */\n      dup4\n        /* \"#utility.yul\":13443:13463   */\n      tag_93\n      jump\t// in\n    tag_292:\n        /* \"#utility.yul\":13438:13463   */\n      swap3\n      pop\n        /* \"#utility.yul\":13487:13488   */\n      dup3\n        /* \"#utility.yul\":13484:13485   */\n      dup3\n        /* \"#utility.yul\":13480:13489   */\n      sub\n        /* \"#utility.yul\":13472:13489   */\n      swap1\n      pop\n        /* \"#utility.yul\":13511:13512   */\n      dup2\n        /* \"#utility.yul\":13505:13509   */\n      dup2\n        /* \"#utility.yul\":13502:13513   */\n      gt\n        /* \"#utility.yul\":13499:13536   */\n      iszero\n      tag_293\n      jumpi\n        /* \"#utility.yul\":13516:13534   */\n      tag_294\n      tag_132\n      jump\t// in\n    tag_294:\n        /* \"#utility.yul\":13499:13536   */\n    tag_293:\n        /* \"#utility.yul\":13349:13543   */\n      swap3\n      swap2\n      pop\n      pop\n      jump\t// out\n        /* \"#utility.yul\":13549:13720   */\n    tag_136:\n        /* \"#utility.yul\":13689:13712   */\n      0x6d61782032303020746f6b656e20616c6c6f77732e0000000000000000000000\n        /* \"#utility.yul\":13685:13686   */\n      0x00\n        /* \"#utility.yul\":13677:13683   */\n      dup3\n        /* \"#utility.yul\":13673:13687   */\n      add\n        /* \"#utility.yul\":13666:13713   */\n      mstore\n        /* \"#utility.yul\":13549:13720   */\n      pop\n      jump\t// out\n        /* \"#utility.yul\":13726:14092   */\n    tag_137:\n        /* \"#utility.yul\":13868:13871   */\n      0x00\n        /* \"#utility.yul\":13889:13956   */\n      tag_297\n        /* \"#utility.yul\":13953:13955   */\n      0x15\n        /* \"#utility.yul\":13948:13951   */\n      dup4\n        /* \"#utility.yul\":13889:13956   */\n      tag_103\n      jump\t// in\n    tag_297:\n        /* \"#utility.yul\":13882:13956   */\n      swap2\n      pop\n        /* \"#utility.yul\":13965:14058   */\n      tag_298\n        /* \"#utility.yul\":14054:14057   */\n      dup3\n        /* \"#utility.yul\":13965:14058   */\n      tag_136\n      jump\t// in\n    tag_298:\n        /* \"#utility.yul\":14083:14085   */\n      0x20\n        /* \"#utility.yul\":14078:14081   */\n      dup3\n        /* \"#utility.yul\":14074:14086   */\n      add\n        /* \"#utility.yul\":14067:14086   */\n      swap1\n      pop\n        /* \"#utility.yul\":13726:14092   */\n      swap2\n      swap1\n      pop\n      jump\t// out\n        /* \"#utility.yul\":14098:14517   */\n    tag_73:\n        /* \"#utility.yul\":14264:14268   */\n      0x00\n        /* \"#utility.yul\":14302:14304   */\n      0x20\n        /* \"#utility.yul\":14291:14300   */\n      dup3\n        /* \"#utility.yul\":14287:14305   */\n      add\n        /* \"#utility.yul\":14279:14305   */\n      swap1\n      pop\n        /* \"#utility.yul\":14351:14360   */\n      dup2\n        /* \"#utility.yul\":14345:14349   */\n      dup2\n        /* \"#utility.yul\":14341:14361   */\n      sub\n        /* \"#utility.yul\":14337:14338   */\n      0x00\n        /* \"#utility.yul\":14326:14335   */\n      dup4\n        /* \"#utility.yul\":14322:14339   */\n      add\n        /* \"#utility.yul\":14315:14362   */\n      mstore\n        /* \"#utility.yul\":14379:14510   */\n      tag_300\n        /* \"#utility.yul\":14505:14509   */\n      dup2\n        /* \"#utility.yul\":14379:14510   */\n      tag_137\n      jump\t// in\n    tag_300:\n        /* \"#utility.yul\":14371:14510   */\n      swap1\n      pop\n        /* \"#utility.yul\":14098:14517   */\n      swap2\n      swap1\n      pop\n      jump\t// out\n        /* \"#utility.yul\":14523:14698   */\n    tag_138:\n        /* \"#utility.yul\":14663:14690   */\n      0x302062616c616e63652c207761697420666f7220636c61696d00000000000000\n        /* \"#utility.yul\":14659:14660   */\n      0x00\n        /* \"#utility.yul\":14651:14657   */\n      dup3\n        /* \"#utility.yul\":14647:14661   */\n      add\n        /* \"#utility.yul\":14640:14691   */\n      mstore\n        /* \"#utility.yul\":14523:14698   */\n      pop\n      jump\t// out\n        /* \"#utility.yul\":14704:15070   */\n    tag_139:\n        /* \"#utility.yul\":14846:14849   */\n      0x00\n        /* \"#utility.yul\":14867:14934   */\n      tag_303\n        /* \"#utility.yul\":14931:14933   */\n      0x19\n        /* \"#utility.yul\":14926:14929   */\n      dup4\n        /* \"#utility.yul\":14867:14934   */\n      tag_103\n      jump\t// in\n    tag_303:\n        /* \"#utility.yul\":14860:14934   */\n      swap2\n      pop\n        /* \"#utility.yul\":14943:15036   */\n      tag_304\n        /* \"#utility.yul\":15032:15035   */\n      dup3\n        /* \"#utility.yul\":14943:15036   */\n      tag_138\n      jump\t// in\n    tag_304:\n        /* \"#utility.yul\":15061:15063   */\n      0x20\n        /* \"#utility.yul\":15056:15059   */\n      dup3\n        /* \"#utility.yul\":15052:15064   */\n      add\n        /* \"#utility.yul\":15045:15064   */\n      swap1\n      pop\n        /* \"#utility.yul\":14704:15070   */\n      swap2\n      swap1\n      pop\n      jump\t// out\n        /* \"#utility.yul\":15076:15495   */\n    tag_78:\n        /* \"#utility.yul\":15242:15246   */\n      0x00\n        /* \"#utility.yul\":15280:15282   */\n      0x20\n        /* \"#utility.yul\":15269:15278   */\n      dup3\n        /* \"#utility.yul\":15265:15283   */\n      add\n        /* \"#utility.yul\":15257:15283   */\n      swap1\n      pop\n        /* \"#utility.yul\":15329:15338   */\n      dup2\n        /* \"#utility.yul\":15323:15327   */\n      dup2\n        /* \"#utility.yul\":15319:15339   */\n      sub\n        /* \"#utility.yul\":15315:15316   */\n      0x00\n        /* \"#utility.yul\":15304:15313   */\n      dup4\n        /* \"#utility.yul\":15300:15317   */\n      add\n        /* \"#utility.yul\":15293:15340   */\n      mstore\n        /* \"#utility.yul\":15357:15488   */\n      tag_306\n        /* \"#utility.yul\":15483:15487   */\n      dup2\n        /* \"#utility.yul\":15357:15488   */\n      tag_139\n      jump\t// in\n    tag_306:\n        /* \"#utility.yul\":15349:15488   */\n      swap1\n      pop\n        /* \"#utility.yul\":15076:15495   */\n      swap2\n      swap1\n      pop\n      jump\t// out\n        /* \"#utility.yul\":15501:15619   */\n    tag_140:\n        /* \"#utility.yul\":15588:15612   */\n      tag_308\n        /* \"#utility.yul\":15606:15611   */\n      dup2\n        /* \"#utility.yul\":15588:15612   */\n      tag_99\n      jump\t// in\n    tag_308:\n        /* \"#utility.yul\":15583:15586   */\n      dup3\n        /* \"#utility.yul\":15576:15613   */\n      mstore\n        /* \"#utility.yul\":15501:15619   */\n      pop\n      pop\n      jump\t// out\n        /* \"#utility.yul\":15625:15957   */\n    tag_80:\n        /* \"#utility.yul\":15746:15750   */\n      0x00\n        /* \"#utility.yul\":15784:15786   */\n      0x40\n        /* \"#utility.yul\":15773:15782   */\n      dup3\n        /* \"#utility.yul\":15769:15787   */\n      add\n        /* \"#utility.yul\":15761:15787   */\n      swap1\n      pop\n        /* \"#utility.yul\":15797:15868   */\n      tag_310\n        /* \"#utility.yul\":15865:15866   */\n      0x00\n        /* \"#utility.yul\":15854:15863   */\n      dup4\n        /* \"#utility.yul\":15850:15867   */\n      add\n        /* \"#utility.yul\":15841:15847   */\n      dup6\n        /* \"#utility.yul\":15797:15868   */\n      tag_140\n      jump\t// in\n    tag_310:\n        /* \"#utility.yul\":15878:15950   */\n      tag_311\n        /* \"#utility.yul\":15946:15948   */\n      0x20\n        /* \"#utility.yul\":15935:15944   */\n      dup4\n        /* \"#utility.yul\":15931:15949   */\n      add\n        /* \"#utility.yul\":15922:15928   */\n      dup5\n        /* \"#utility.yul\":15878:15950   */\n      tag_94\n      jump\t// in\n    tag_311:\n        /* \"#utility.yul\":15625:15957   */\n      swap4\n      swap3\n      pop\n      pop\n      pop\n      jump\t// out\n        /* \"#utility.yul\":15963:16079   */\n    tag_141:\n        /* \"#utility.yul\":16033:16054   */\n      tag_313\n        /* \"#utility.yul\":16048:16053   */\n      dup2\n        /* \"#utility.yul\":16033:16054   */\n      tag_91\n      jump\t// in\n    tag_313:\n        /* \"#utility.yul\":16026:16031   */\n      dup2\n        /* \"#utility.yul\":16023:16055   */\n      eq\n        /* \"#utility.yul\":16013:16073   */\n      tag_314\n      jumpi\n        /* \"#utility.yul\":16069:16070   */\n      0x00\n        /* \"#utility.yul\":16066:16067   */\n      dup1\n        /* \"#utility.yul\":16059:16071   */\n      revert\n        /* \"#utility.yul\":16013:16073   */\n    tag_314:\n        /* \"#utility.yul\":15963:16079   */\n      pop\n      jump\t// out\n        /* \"#utility.yul\":16085:16222   */\n    tag_142:\n        /* \"#utility.yul\":16139:16144   */\n      0x00\n        /* \"#utility.yul\":16170:16176   */\n      dup2\n        /* \"#utility.yul\":16164:16177   */\n      mload\n        /* \"#utility.yul\":16155:16177   */\n      swap1\n      pop\n        /* \"#utility.yul\":16186:16216   */\n      tag_316\n        /* \"#utility.yul\":16210:16215   */\n      dup2\n        /* \"#utility.yul\":16186:16216   */\n      tag_141\n      jump\t// in\n    tag_316:\n        /* \"#utility.yul\":16085:16222   */\n      swap3\n      swap2\n      pop\n      pop\n      jump\t// out\n        /* \"#utility.yul\":16228:16573   */\n    tag_84:\n        /* \"#utility.yul\":16295:16301   */\n      0x00\n        /* \"#utility.yul\":16344:16346   */\n      0x20\n        /* \"#utility.yul\":16332:16341   */\n      dup3\n        /* \"#utility.yul\":16323:16330   */\n      dup5\n        /* \"#utility.yul\":16319:16342   */\n      sub\n        /* \"#utility.yul\":16315:16347   */\n      slt\n        /* \"#utility.yul\":16312:16431   */\n      iszero\n      tag_318\n      jumpi\n        /* \"#utility.yul\":16350:16429   */\n      tag_319\n      tag_96\n      jump\t// in\n    tag_319:\n        /* \"#utility.yul\":16312:16431   */\n    tag_318:\n        /* \"#utility.yul\":16470:16471   */\n      0x00\n        /* \"#utility.yul\":16495:16556   */\n      tag_320\n        /* \"#utility.yul\":16548:16555   */\n      dup5\n        /* \"#utility.yul\":16539:16545   */\n      dup3\n        /* \"#utility.yul\":16528:16537   */\n      dup6\n        /* \"#utility.yul\":16524:16546   */\n      add\n        /* \"#utility.yul\":16495:16556   */\n      tag_142\n      jump\t// in\n    tag_320:\n        /* \"#utility.yul\":16485:16556   */\n      swap2\n      pop\n        /* \"#utility.yul\":16441:16566   */\n      pop\n        /* \"#utility.yul\":16228:16573   */\n      swap3\n      swap2\n      pop\n      pop\n      jump\t// out\n\n    auxdata: 0xa2646970667358221220678781db6de58f8ede1a400b625bc8c9ac282fb602ec6a050e7be3c9404ea90e64736f6c63430008120033\n}\n",
				"bytecode": {
					"linkReferences": {},
					"object": "60806040526103e86001556040518060400160405280600d81526020017f7570636f6d696e6720736f6f6e000000000000000000000000000000000000008152506002908162000050919062000363565b503480156200005e57600080fd5b506040516200158a3803806200158a8339818101604052810190620000849190620004b4565b806000806101000a81548173ffffffffffffffffffffffffffffffffffffffff021916908373ffffffffffffffffffffffffffffffffffffffff16021790555042600381905550601e600354620000dc919062000515565b6004819055505062000550565b600081519050919050565b7f4e487b7100000000000000000000000000000000000000000000000000000000600052604160045260246000fd5b7f4e487b7100000000000000000000000000000000000000000000000000000000600052602260045260246000fd5b600060028204905060018216806200016b57607f821691505b60208210810362000181576200018062000123565b5b50919050565b60008190508160005260206000209050919050565b60006020601f8301049050919050565b600082821b905092915050565b600060088302620001eb7fffffffffffffffffffffffffffffffffffffffffffffffffffffffffffffffff82620001ac565b620001f78683620001ac565b95508019841693508086168417925050509392505050565b6000819050919050565b6000819050919050565b6000620002446200023e62000238846200020f565b62000219565b6200020f565b9050919050565b6000819050919050565b620002608362000223565b620002786200026f826200024b565b848454620001b9565b825550505050565b600090565b6200028f62000280565b6200029c81848462000255565b505050565b5b81811015620002c457620002b860008262000285565b600181019050620002a2565b5050565b601f8211156200031357620002dd8162000187565b620002e8846200019c565b81016020851015620002f8578190505b6200031062000307856200019c565b830182620002a1565b50505b505050565b600082821c905092915050565b6000620003386000198460080262000318565b1980831691505092915050565b600062000353838362000325565b9150826002028217905092915050565b6200036e82620000e9565b67ffffffffffffffff8111156200038a5762000389620000f4565b5b62000396825462000152565b620003a3828285620002c8565b600060209050601f831160018114620003db5760008415620003c6578287015190505b620003d2858262000345565b86555062000442565b601f198416620003eb8662000187565b60005b828110156200041557848901518255600182019150602085019450602081019050620003ee565b8683101562000435578489015162000431601f89168262000325565b8355505b6001600288020188555050505b505050505050565b600080fd5b600073ffffffffffffffffffffffffffffffffffffffff82169050919050565b60006200047c826200044f565b9050919050565b6200048e816200046f565b81146200049a57600080fd5b50565b600081519050620004ae8162000483565b92915050565b600060208284031215620004cd57620004cc6200044a565b5b6000620004dd848285016200049d565b91505092915050565b7f4e487b7100000000000000000000000000000000000000000000000000000000600052601160045260246000fd5b600062000522826200020f565b91506200052f836200020f565b92508282019050808211156200054a5762000549620004e6565b5b92915050565b61102a80620005606000396000f3fe6080604052600436106100705760003560e01c8063647ae08c1161004e578063647ae08c146100c1578063a87430ba146100ec578063d96e1f7614610129578063fc0c546a1461015457610070565b80631c2ac5ac14610075578063253a96e91461008c5780634451d89f146100aa575b600080fd5b34801561008157600080fd5b5061008a61017f565b005b610094610228565b6040516100a19190610700565b60405180910390f35b3480156100b657600080fd5b506100bf610461565b005b3480156100cd57600080fd5b506100d6610615565b6040516100e39190610734565b60405180910390f35b3480156100f857600080fd5b50610113600480360381019061010e91906107b2565b61061b565b6040516101209190610734565b60405180910390f35b34801561013557600080fd5b5061013e610633565b60405161014b919061086f565b60405180910390f35b34801561016057600080fd5b506101696106c1565b60405161017691906108f0565b60405180910390f35b60035442118015610191575060045442105b156101e0576040518060400160405280600881526020017f53746172204e6f77000000000000000000000000000000000000000000000000815250600290816101da9190610b3c565b50610226565b6040518060400160405280600781526020017f456e64204e6f7700000000000000000000000000000000000000000000000000815250600290816102249190610b3c565b505b565b60006003544211801561023c575060045442105b61027b576040517f08c379a000000000000000000000000000000000000000000000000000000000815260040161027290610c5a565b60405180910390fd5b670de0b6b3a76400003410156102c6576040517f08c379a00000000000000000000000000000000000000000000000000000000081526004016102bd90610cc6565b60405180910390fd5b670de0b6b3a76400006032346102dc9190610d15565b6102e69190610d86565b600560003373ffffffffffffffffffffffffffffffffffffffff1673ffffffffffffffffffffffffffffffffffffffff16815260200190815260200160002060008282546103349190610db7565b92505081905550600154670de0b6b3a76400006032346103549190610d15565b61035e9190610d86565b111561039f576040517f08c379a000000000000000000000000000000000000000000000000000000000815260040161039690610e37565b60405180910390fd5b670de0b6b3a76400006032346103b59190610d15565b6103bf9190610d86565b600160008282546103d09190610e57565b9250508190555060c8600560003373ffffffffffffffffffffffffffffffffffffffff1673ffffffffffffffffffffffffffffffffffffffff16815260200190815260200160002054111561045a576040517f08c379a000000000000000000000000000000000000000000000000000000000815260040161045190610ed7565b60405180910390fd5b6001905090565b6031600560003373ffffffffffffffffffffffffffffffffffffffff1673ffffffffffffffffffffffffffffffffffffffff168152602001908152602001600020541180156104b1575060045442115b6104f0576040517f08c379a00000000000000000000000000000000000000000000000000000000081526004016104e790610f43565b60405180910390fd5b60008054906101000a900473ffffffffffffffffffffffffffffffffffffffff1673ffffffffffffffffffffffffffffffffffffffff1663a9059cbb33600560003373ffffffffffffffffffffffffffffffffffffffff1673ffffffffffffffffffffffffffffffffffffffff168152602001908152602001600020546040518363ffffffff1660e01b815260040161058a929190610f72565b6020604051808303816000875af11580156105a9573d6000803e3d6000fd5b505050506040513d601f19601f820116820180604052508101906105cd9190610fc7565b506000600560003373ffffffffffffffffffffffffffffffffffffffff1673ffffffffffffffffffffffffffffffffffffffff16815260200190815260200160002081905550565b60015481565b60056020528060005260406000206000915090505481565b6002805461064090610969565b80601f016020809104026020016040519081016040528092919081815260200182805461066c90610969565b80156106b95780601f1061068e576101008083540402835291602001916106b9565b820191906000526020600020905b81548152906001019060200180831161069c57829003601f168201915b505050505081565b60008054906101000a900473ffffffffffffffffffffffffffffffffffffffff1681565b60008115159050919050565b6106fa816106e5565b82525050565b600060208201905061071560008301846106f1565b92915050565b6000819050919050565b61072e8161071b565b82525050565b60006020820190506107496000830184610725565b92915050565b600080fd5b600073ffffffffffffffffffffffffffffffffffffffff82169050919050565b600061077f82610754565b9050919050565b61078f81610774565b811461079a57600080fd5b50565b6000813590506107ac81610786565b92915050565b6000602082840312156107c8576107c761074f565b5b60006107d68482850161079d565b91505092915050565b600081519050919050565b600082825260208201905092915050565b60005b838110156108195780820151818401526020810190506107fe565b60008484015250505050565b6000601f19601f8301169050919050565b6000610841826107df565b61084b81856107ea565b935061085b8185602086016107fb565b61086481610825565b840191505092915050565b600060208201905081810360008301526108898184610836565b905092915050565b6000819050919050565b60006108b66108b16108ac84610754565b610891565b610754565b9050919050565b60006108c88261089b565b9050919050565b60006108da826108bd565b9050919050565b6108ea816108cf565b82525050565b600060208201905061090560008301846108e1565b92915050565b7f4e487b7100000000000000000000000000000000000000000000000000000000600052604160045260246000fd5b7f4e487b7100000000000000000000000000000000000000000000000000000000600052602260045260246000fd5b6000600282049050600182168061098157607f821691505b6020821081036109945761099361093a565b5b50919050565b60008190508160005260206000209050919050565b60006020601f8301049050919050565b600082821b905092915050565b6000600883026109fc7fffffffffffffffffffffffffffffffffffffffffffffffffffffffffffffffff826109bf565b610a0686836109bf565b95508019841693508086168417925050509392505050565b6000610a39610a34610a2f8461071b565b610891565b61071b565b9050919050565b6000819050919050565b610a5383610a1e565b610a67610a5f82610a40565b8484546109cc565b825550505050565b600090565b610a7c610a6f565b610a87818484610a4a565b505050565b5b81811015610aab57610aa0600082610a74565b600181019050610a8d565b5050565b601f821115610af057610ac18161099a565b610aca846109af565b81016020851015610ad9578190505b610aed610ae5856109af565b830182610a8c565b50505b505050565b600082821c905092915050565b6000610b1360001984600802610af5565b1980831691505092915050565b6000610b2c8383610b02565b9150826002028217905092915050565b610b45826107df565b67ffffffffffffffff811115610b5e57610b5d61090b565b5b610b688254610969565b610b73828285610aaf565b600060209050601f831160018114610ba65760008415610b94578287015190505b610b9e8582610b20565b865550610c06565b601f198416610bb48661099a565b60005b82811015610bdc57848901518255600182019150602085019450602081019050610bb7565b86831015610bf95784890151610bf5601f891682610b02565b8355505b6001600288020188555050505b505050505050565b7f636865636b2069636f207374617475732e000000000000000000000000000000600082015250565b6000610c446011836107ea565b9150610c4f82610c0e565b602082019050919050565b60006020820190508181036000830152610c7381610c37565b9050919050565b7f6d696e2e312063616e206465706f736974000000000000000000000000000000600082015250565b6000610cb06011836107ea565b9150610cbb82610c7a565b602082019050919050565b60006020820190508181036000830152610cdf81610ca3565b9050919050565b7f4e487b7100000000000000000000000000000000000000000000000000000000600052601160045260246000fd5b6000610d208261071b565b9150610d2b8361071b565b9250828202610d398161071b565b91508282048414831517610d5057610d4f610ce6565b5b5092915050565b7f4e487b7100000000000000000000000000000000000000000000000000000000600052601260045260246000fd5b6000610d918261071b565b9150610d9c8361071b565b925082610dac57610dab610d57565b5b828204905092915050565b6000610dc28261071b565b9150610dcd8361071b565b9250828201905080821115610de557610de4610ce6565b5b92915050565b7f6d617820737570706c7920726561636865642e00000000000000000000000000600082015250565b6000610e216013836107ea565b9150610e2c82610deb565b602082019050919050565b60006020820190508181036000830152610e5081610e14565b9050919050565b6000610e628261071b565b9150610e6d8361071b565b9250828203905081811115610e8557610e84610ce6565b5b92915050565b7f6d61782032303020746f6b656e20616c6c6f77732e0000000000000000000000600082015250565b6000610ec16015836107ea565b9150610ecc82610e8b565b602082019050919050565b60006020820190508181036000830152610ef081610eb4565b9050919050565b7f302062616c616e63652c207761697420666f7220636c61696d00000000000000600082015250565b6000610f2d6019836107ea565b9150610f3882610ef7565b602082019050919050565b60006020820190508181036000830152610f5c81610f20565b9050919050565b610f6c81610774565b82525050565b6000604082019050610f876000830185610f63565b610f946020830184610725565b9392505050565b610fa4816106e5565b8114610faf57600080fd5b50565b600081519050610fc181610f9b565b92915050565b600060208284031215610fdd57610fdc61074f565b5b6000610feb84828501610fb2565b9150509291505056fea2646970667358221220678781db6de58f8ede1a400b625bc8c9ac282fb602ec6a050e7be3c9404ea90e64736f6c63430008120033",
					"opcodes": "PUSH1 0x80 PUSH1 0x40 MSTORE PUSH2 0x3E8 PUSH1 0x1 SSTORE PUSH1 0x40 MLOAD DUP1 PUSH1 0x40 ADD PUSH1 0x40 MSTORE DUP1 PUSH1 0xD DUP2 MSTORE PUSH1 0x20 ADD PUSH32 0x7570636F6D696E6720736F6F6E00000000000000000000000000000000000000 DUP2 MSTORE POP PUSH1 0x2 SWAP1 DUP2 PUSH3 0x50 SWAP2 SWAP1 PUSH3 0x363 JUMP JUMPDEST POP CALLVALUE DUP1 ISZERO PUSH3 0x5E JUMPI PUSH1 0x0 DUP1 REVERT JUMPDEST POP PUSH1 0x40 MLOAD PUSH3 0x158A CODESIZE SUB DUP1 PUSH3 0x158A DUP4 CODECOPY DUP2 DUP2 ADD PUSH1 0x40 MSTORE DUP2 ADD SWAP1 PUSH3 0x84 SWAP2 SWAP1 PUSH3 0x4B4 JUMP JUMPDEST DUP1 PUSH1 0x0 DUP1 PUSH2 0x100 EXP DUP2 SLOAD DUP2 PUSH20 0xFFFFFFFFFFFFFFFFFFFFFFFFFFFFFFFFFFFFFFFF MUL NOT AND SWAP1 DUP4 PUSH20 0xFFFFFFFFFFFFFFFFFFFFFFFFFFFFFFFFFFFFFFFF AND MUL OR SWAP1 SSTORE POP TIMESTAMP PUSH1 0x3 DUP2 SWAP1 SSTORE POP PUSH1 0x1E PUSH1 0x3 SLOAD PUSH3 0xDC SWAP2 SWAP1 PUSH3 0x515 JUMP JUMPDEST PUSH1 0x4 DUP2 SWAP1 SSTORE POP POP PUSH3 0x550 JUMP JUMPDEST PUSH1 0x0 DUP2 MLOAD SWAP1 POP SWAP2 SWAP1 POP JUMP JUMPDEST PUSH32 0x4E487B7100000000000000000000000000000000000000000000000000000000 PUSH1 0x0 MSTORE PUSH1 0x41 PUSH1 0x4 MSTORE PUSH1 0x24 PUSH1 0x0 REVERT JUMPDEST PUSH32 0x4E487B7100000000000000000000000000000000000000000000000000000000 PUSH1 0x0 MSTORE PUSH1 0x22 PUSH1 0x4 MSTORE PUSH1 0x24 PUSH1 0x0 REVERT JUMPDEST PUSH1 0x0 PUSH1 0x2 DUP3 DIV SWAP1 POP PUSH1 0x1 DUP3 AND DUP1 PUSH3 0x16B JUMPI PUSH1 0x7F DUP3 AND SWAP2 POP JUMPDEST PUSH1 0x20 DUP3 LT DUP2 SUB PUSH3 0x181 JUMPI PUSH3 0x180 PUSH3 0x123 JUMP JUMPDEST JUMPDEST POP SWAP2 SWAP1 POP JUMP JUMPDEST PUSH1 0x0 DUP2 SWAP1 POP DUP2 PUSH1 0x0 MSTORE PUSH1 0x20 PUSH1 0x0 KECCAK256 SWAP1 POP SWAP2 SWAP1 POP JUMP JUMPDEST PUSH1 0x0 PUSH1 0x20 PUSH1 0x1F DUP4 ADD DIV SWAP1 POP SWAP2 SWAP1 POP JUMP JUMPDEST PUSH1 0x0 DUP3 DUP3 SHL SWAP1 POP SWAP3 SWAP2 POP POP JUMP JUMPDEST PUSH1 0x0 PUSH1 0x8 DUP4 MUL PUSH3 0x1EB PUSH32 0xFFFFFFFFFFFFFFFFFFFFFFFFFFFFFFFFFFFFFFFFFFFFFFFFFFFFFFFFFFFFFFFF DUP3 PUSH3 0x1AC JUMP JUMPDEST PUSH3 0x1F7 DUP7 DUP4 PUSH3 0x1AC JUMP JUMPDEST SWAP6 POP DUP1 NOT DUP5 AND SWAP4 POP DUP1 DUP7 AND DUP5 OR SWAP3 POP POP POP SWAP4 SWAP3 POP POP POP JUMP JUMPDEST PUSH1 0x0 DUP2 SWAP1 POP SWAP2 SWAP1 POP JUMP JUMPDEST PUSH1 0x0 DUP2 SWAP1 POP SWAP2 SWAP1 POP JUMP JUMPDEST PUSH1 0x0 PUSH3 0x244 PUSH3 0x23E PUSH3 0x238 DUP5 PUSH3 0x20F JUMP JUMPDEST PUSH3 0x219 JUMP JUMPDEST PUSH3 0x20F JUMP JUMPDEST SWAP1 POP SWAP2 SWAP1 POP JUMP JUMPDEST PUSH1 0x0 DUP2 SWAP1 POP SWAP2 SWAP1 POP JUMP JUMPDEST PUSH3 0x260 DUP4 PUSH3 0x223 JUMP JUMPDEST PUSH3 0x278 PUSH3 0x26F DUP3 PUSH3 0x24B JUMP JUMPDEST DUP5 DUP5 SLOAD PUSH3 0x1B9 JUMP JUMPDEST DUP3 SSTORE POP POP POP POP JUMP JUMPDEST PUSH1 0x0 SWAP1 JUMP JUMPDEST PUSH3 0x28F PUSH3 0x280 JUMP JUMPDEST PUSH3 0x29C DUP2 DUP5 DUP5 PUSH3 0x255 JUMP JUMPDEST POP POP POP JUMP JUMPDEST JUMPDEST DUP2 DUP2 LT ISZERO PUSH3 0x2C4 JUMPI PUSH3 0x2B8 PUSH1 0x0 DUP3 PUSH3 0x285 JUMP JUMPDEST PUSH1 0x1 DUP2 ADD SWAP1 POP PUSH3 0x2A2 JUMP JUMPDEST POP POP JUMP JUMPDEST PUSH1 0x1F DUP3 GT ISZERO PUSH3 0x313 JUMPI PUSH3 0x2DD DUP2 PUSH3 0x187 JUMP JUMPDEST PUSH3 0x2E8 DUP5 PUSH3 0x19C JUMP JUMPDEST DUP2 ADD PUSH1 0x20 DUP6 LT ISZERO PUSH3 0x2F8 JUMPI DUP2 SWAP1 POP JUMPDEST PUSH3 0x310 PUSH3 0x307 DUP6 PUSH3 0x19C JUMP JUMPDEST DUP4 ADD DUP3 PUSH3 0x2A1 JUMP JUMPDEST POP POP JUMPDEST POP POP POP JUMP JUMPDEST PUSH1 0x0 DUP3 DUP3 SHR SWAP1 POP SWAP3 SWAP2 POP POP JUMP JUMPDEST PUSH1 0x0 PUSH3 0x338 PUSH1 0x0 NOT DUP5 PUSH1 0x8 MUL PUSH3 0x318 JUMP JUMPDEST NOT DUP1 DUP4 AND SWAP2 POP POP SWAP3 SWAP2 POP POP JUMP JUMPDEST PUSH1 0x0 PUSH3 0x353 DUP4 DUP4 PUSH3 0x325 JUMP JUMPDEST SWAP2 POP DUP3 PUSH1 0x2 MUL DUP3 OR SWAP1 POP SWAP3 SWAP2 POP POP JUMP JUMPDEST PUSH3 0x36E DUP3 PUSH3 0xE9 JUMP JUMPDEST PUSH8 0xFFFFFFFFFFFFFFFF DUP2 GT ISZERO PUSH3 0x38A JUMPI PUSH3 0x389 PUSH3 0xF4 JUMP JUMPDEST JUMPDEST PUSH3 0x396 DUP3 SLOAD PUSH3 0x152 JUMP JUMPDEST PUSH3 0x3A3 DUP3 DUP3 DUP6 PUSH3 0x2C8 JUMP JUMPDEST PUSH1 0x0 PUSH1 0x20 SWAP1 POP PUSH1 0x1F DUP4 GT PUSH1 0x1 DUP2 EQ PUSH3 0x3DB JUMPI PUSH1 0x0 DUP5 ISZERO PUSH3 0x3C6 JUMPI DUP3 DUP8 ADD MLOAD SWAP1 POP JUMPDEST PUSH3 0x3D2 DUP6 DUP3 PUSH3 0x345 JUMP JUMPDEST DUP7 SSTORE POP PUSH3 0x442 JUMP JUMPDEST PUSH1 0x1F NOT DUP5 AND PUSH3 0x3EB DUP7 PUSH3 0x187 JUMP JUMPDEST PUSH1 0x0 JUMPDEST DUP3 DUP2 LT ISZERO PUSH3 0x415 JUMPI DUP5 DUP10 ADD MLOAD DUP3 SSTORE PUSH1 0x1 DUP3 ADD SWAP2 POP PUSH1 0x20 DUP6 ADD SWAP5 POP PUSH1 0x20 DUP2 ADD SWAP1 POP PUSH3 0x3EE JUMP JUMPDEST DUP7 DUP4 LT ISZERO PUSH3 0x435 JUMPI DUP5 DUP10 ADD MLOAD PUSH3 0x431 PUSH1 0x1F DUP10 AND DUP3 PUSH3 0x325 JUMP JUMPDEST DUP4 SSTORE POP JUMPDEST PUSH1 0x1 PUSH1 0x2 DUP9 MUL ADD DUP9 SSTORE POP POP POP JUMPDEST POP POP POP POP POP POP JUMP JUMPDEST PUSH1 0x0 DUP1 REVERT JUMPDEST PUSH1 0x0 PUSH20 0xFFFFFFFFFFFFFFFFFFFFFFFFFFFFFFFFFFFFFFFF DUP3 AND SWAP1 POP SWAP2 SWAP1 POP JUMP JUMPDEST PUSH1 0x0 PUSH3 0x47C DUP3 PUSH3 0x44F JUMP JUMPDEST SWAP1 POP SWAP2 SWAP1 POP JUMP JUMPDEST PUSH3 0x48E DUP2 PUSH3 0x46F JUMP JUMPDEST DUP2 EQ PUSH3 0x49A JUMPI PUSH1 0x0 DUP1 REVERT JUMPDEST POP JUMP JUMPDEST PUSH1 0x0 DUP2 MLOAD SWAP1 POP PUSH3 0x4AE DUP2 PUSH3 0x483 JUMP JUMPDEST SWAP3 SWAP2 POP POP JUMP JUMPDEST PUSH1 0x0 PUSH1 0x20 DUP3 DUP5 SUB SLT ISZERO PUSH3 0x4CD JUMPI PUSH3 0x4CC PUSH3 0x44A JUMP JUMPDEST JUMPDEST PUSH1 0x0 PUSH3 0x4DD DUP5 DUP3 DUP6 ADD PUSH3 0x49D JUMP JUMPDEST SWAP2 POP POP SWAP3 SWAP2 POP POP JUMP JUMPDEST PUSH32 0x4E487B7100000000000000000000000000000000000000000000000000000000 PUSH1 0x0 MSTORE PUSH1 0x11 PUSH1 0x4 MSTORE PUSH1 0x24 PUSH1 0x0 REVERT JUMPDEST PUSH1 0x0 PUSH3 0x522 DUP3 PUSH3 0x20F JUMP JUMPDEST SWAP2 POP PUSH3 0x52F DUP4 PUSH3 0x20F JUMP JUMPDEST SWAP3 POP DUP3 DUP3 ADD SWAP1 POP DUP1 DUP3 GT ISZERO PUSH3 0x54A JUMPI PUSH3 0x549 PUSH3 0x4E6 JUMP JUMPDEST JUMPDEST SWAP3 SWAP2 POP POP JUMP JUMPDEST PUSH2 0x102A DUP1 PUSH3 0x560 PUSH1 0x0 CODECOPY PUSH1 0x0 RETURN INVALID PUSH1 0x80 PUSH1 0x40 MSTORE PUSH1 0x4 CALLDATASIZE LT PUSH2 0x70 JUMPI PUSH1 0x0 CALLDATALOAD PUSH1 0xE0 SHR DUP1 PUSH4 0x647AE08C GT PUSH2 0x4E JUMPI DUP1 PUSH4 0x647AE08C EQ PUSH2 0xC1 JUMPI DUP1 PUSH4 0xA87430BA EQ PUSH2 0xEC JUMPI DUP1 PUSH4 0xD96E1F76 EQ PUSH2 0x129 JUMPI DUP1 PUSH4 0xFC0C546A EQ PUSH2 0x154 JUMPI PUSH2 0x70 JUMP JUMPDEST DUP1 PUSH4 0x1C2AC5AC EQ PUSH2 0x75 JUMPI DUP1 PUSH4 0x253A96E9 EQ PUSH2 0x8C JUMPI DUP1 PUSH4 0x4451D89F EQ PUSH2 0xAA JUMPI JUMPDEST PUSH1 0x0 DUP1 REVERT JUMPDEST CALLVALUE DUP1 ISZERO PUSH2 0x81 JUMPI PUSH1 0x0 DUP1 REVERT JUMPDEST POP PUSH2 0x8A PUSH2 0x17F JUMP JUMPDEST STOP JUMPDEST PUSH2 0x94 PUSH2 0x228 JUMP JUMPDEST PUSH1 0x40 MLOAD PUSH2 0xA1 SWAP2 SWAP1 PUSH2 0x700 JUMP JUMPDEST PUSH1 0x40 MLOAD DUP1 SWAP2 SUB SWAP1 RETURN JUMPDEST CALLVALUE DUP1 ISZERO PUSH2 0xB6 JUMPI PUSH1 0x0 DUP1 REVERT JUMPDEST POP PUSH2 0xBF PUSH2 0x461 JUMP JUMPDEST STOP JUMPDEST CALLVALUE DUP1 ISZERO PUSH2 0xCD JUMPI PUSH1 0x0 DUP1 REVERT JUMPDEST POP PUSH2 0xD6 PUSH2 0x615 JUMP JUMPDEST PUSH1 0x40 MLOAD PUSH2 0xE3 SWAP2 SWAP1 PUSH2 0x734 JUMP JUMPDEST PUSH1 0x40 MLOAD DUP1 SWAP2 SUB SWAP1 RETURN JUMPDEST CALLVALUE DUP1 ISZERO PUSH2 0xF8 JUMPI PUSH1 0x0 DUP1 REVERT JUMPDEST POP PUSH2 0x113 PUSH1 0x4 DUP1 CALLDATASIZE SUB DUP2 ADD SWAP1 PUSH2 0x10E SWAP2 SWAP1 PUSH2 0x7B2 JUMP JUMPDEST PUSH2 0x61B JUMP JUMPDEST PUSH1 0x40 MLOAD PUSH2 0x120 SWAP2 SWAP1 PUSH2 0x734 JUMP JUMPDEST PUSH1 0x40 MLOAD DUP1 SWAP2 SUB SWAP1 RETURN JUMPDEST CALLVALUE DUP1 ISZERO PUSH2 0x135 JUMPI PUSH1 0x0 DUP1 REVERT JUMPDEST POP PUSH2 0x13E PUSH2 0x633 JUMP JUMPDEST PUSH1 0x40 MLOAD PUSH2 0x14B SWAP2 SWAP1 PUSH2 0x86F JUMP JUMPDEST PUSH1 0x40 MLOAD DUP1 SWAP2 SUB SWAP1 RETURN JUMPDEST CALLVALUE DUP1 ISZERO PUSH2 0x160 JUMPI PUSH1 0x0 DUP1 REVERT JUMPDEST POP PUSH2 0x169 PUSH2 0x6C1 JUMP JUMPDEST PUSH1 0x40 MLOAD PUSH2 0x176 SWAP2 SWAP1 PUSH2 0x8F0 JUMP JUMPDEST PUSH1 0x40 MLOAD DUP1 SWAP2 SUB SWAP1 RETURN JUMPDEST PUSH1 0x3 SLOAD TIMESTAMP GT DUP1 ISZERO PUSH2 0x191 JUMPI POP PUSH1 0x4 SLOAD TIMESTAMP LT JUMPDEST ISZERO PUSH2 0x1E0 JUMPI PUSH1 0x40 MLOAD DUP1 PUSH1 0x40 ADD PUSH1 0x40 MSTORE DUP1 PUSH1 0x8 DUP2 MSTORE PUSH1 0x20 ADD PUSH32 0x53746172204E6F77000000000000000000000000000000000000000000000000 DUP2 MSTORE POP PUSH1 0x2 SWAP1 DUP2 PUSH2 0x1DA SWAP2 SWAP1 PUSH2 0xB3C JUMP JUMPDEST POP PUSH2 0x226 JUMP JUMPDEST PUSH1 0x40 MLOAD DUP1 PUSH1 0x40 ADD PUSH1 0x40 MSTORE DUP1 PUSH1 0x7 DUP2 MSTORE PUSH1 0x20 ADD PUSH32 0x456E64204E6F7700000000000000000000000000000000000000000000000000 DUP2 MSTORE POP PUSH1 0x2 SWAP1 DUP2 PUSH2 0x224 SWAP2 SWAP1 PUSH2 0xB3C JUMP JUMPDEST POP JUMPDEST JUMP JUMPDEST PUSH1 0x0 PUSH1 0x3 SLOAD TIMESTAMP GT DUP1 ISZERO PUSH2 0x23C JUMPI POP PUSH1 0x4 SLOAD TIMESTAMP LT JUMPDEST PUSH2 0x27B JUMPI PUSH1 0x40 MLOAD PUSH32 0x8C379A000000000000000000000000000000000000000000000000000000000 DUP2 MSTORE PUSH1 0x4 ADD PUSH2 0x272 SWAP1 PUSH2 0xC5A JUMP JUMPDEST PUSH1 0x40 MLOAD DUP1 SWAP2 SUB SWAP1 REVERT JUMPDEST PUSH8 0xDE0B6B3A7640000 CALLVALUE LT ISZERO PUSH2 0x2C6 JUMPI PUSH1 0x40 MLOAD PUSH32 0x8C379A000000000000000000000000000000000000000000000000000000000 DUP2 MSTORE PUSH1 0x4 ADD PUSH2 0x2BD SWAP1 PUSH2 0xCC6 JUMP JUMPDEST PUSH1 0x40 MLOAD DUP1 SWAP2 SUB SWAP1 REVERT JUMPDEST PUSH8 0xDE0B6B3A7640000 PUSH1 0x32 CALLVALUE PUSH2 0x2DC SWAP2 SWAP1 PUSH2 0xD15 JUMP JUMPDEST PUSH2 0x2E6 SWAP2 SWAP1 PUSH2 0xD86 JUMP JUMPDEST PUSH1 0x5 PUSH1 0x0 CALLER PUSH20 0xFFFFFFFFFFFFFFFFFFFFFFFFFFFFFFFFFFFFFFFF AND PUSH20 0xFFFFFFFFFFFFFFFFFFFFFFFFFFFFFFFFFFFFFFFF AND DUP2 MSTORE PUSH1 0x20 ADD SWAP1 DUP2 MSTORE PUSH1 0x20 ADD PUSH1 0x0 KECCAK256 PUSH1 0x0 DUP3 DUP3 SLOAD PUSH2 0x334 SWAP2 SWAP1 PUSH2 0xDB7 JUMP JUMPDEST SWAP3 POP POP DUP2 SWAP1 SSTORE POP PUSH1 0x1 SLOAD PUSH8 0xDE0B6B3A7640000 PUSH1 0x32 CALLVALUE PUSH2 0x354 SWAP2 SWAP1 PUSH2 0xD15 JUMP JUMPDEST PUSH2 0x35E SWAP2 SWAP1 PUSH2 0xD86 JUMP JUMPDEST GT ISZERO PUSH2 0x39F JUMPI PUSH1 0x40 MLOAD PUSH32 0x8C379A000000000000000000000000000000000000000000000000000000000 DUP2 MSTORE PUSH1 0x4 ADD PUSH2 0x396 SWAP1 PUSH2 0xE37 JUMP JUMPDEST PUSH1 0x40 MLOAD DUP1 SWAP2 SUB SWAP1 REVERT JUMPDEST PUSH8 0xDE0B6B3A7640000 PUSH1 0x32 CALLVALUE PUSH2 0x3B5 SWAP2 SWAP1 PUSH2 0xD15 JUMP JUMPDEST PUSH2 0x3BF SWAP2 SWAP1 PUSH2 0xD86 JUMP JUMPDEST PUSH1 0x1 PUSH1 0x0 DUP3 DUP3 SLOAD PUSH2 0x3D0 SWAP2 SWAP1 PUSH2 0xE57 JUMP JUMPDEST SWAP3 POP POP DUP2 SWAP1 SSTORE POP PUSH1 0xC8 PUSH1 0x5 PUSH1 0x0 CALLER PUSH20 0xFFFFFFFFFFFFFFFFFFFFFFFFFFFFFFFFFFFFFFFF AND PUSH20 0xFFFFFFFFFFFFFFFFFFFFFFFFFFFFFFFFFFFFFFFF AND DUP2 MSTORE PUSH1 0x20 ADD SWAP1 DUP2 MSTORE PUSH1 0x20 ADD PUSH1 0x0 KECCAK256 SLOAD GT ISZERO PUSH2 0x45A JUMPI PUSH1 0x40 MLOAD PUSH32 0x8C379A000000000000000000000000000000000000000000000000000000000 DUP2 MSTORE PUSH1 0x4 ADD PUSH2 0x451 SWAP1 PUSH2 0xED7 JUMP JUMPDEST PUSH1 0x40 MLOAD DUP1 SWAP2 SUB SWAP1 REVERT JUMPDEST PUSH1 0x1 SWAP1 POP SWAP1 JUMP JUMPDEST PUSH1 0x31 PUSH1 0x5 PUSH1 0x0 CALLER PUSH20 0xFFFFFFFFFFFFFFFFFFFFFFFFFFFFFFFFFFFFFFFF AND PUSH20 0xFFFFFFFFFFFFFFFFFFFFFFFFFFFFFFFFFFFFFFFF AND DUP2 MSTORE PUSH1 0x20 ADD SWAP1 DUP2 MSTORE PUSH1 0x20 ADD PUSH1 0x0 KECCAK256 SLOAD GT DUP1 ISZERO PUSH2 0x4B1 JUMPI POP PUSH1 0x4 SLOAD TIMESTAMP GT JUMPDEST PUSH2 0x4F0 JUMPI PUSH1 0x40 MLOAD PUSH32 0x8C379A000000000000000000000000000000000000000000000000000000000 DUP2 MSTORE PUSH1 0x4 ADD PUSH2 0x4E7 SWAP1 PUSH2 0xF43 JUMP JUMPDEST PUSH1 0x40 MLOAD DUP1 SWAP2 SUB SWAP1 REVERT JUMPDEST PUSH1 0x0 DUP1 SLOAD SWAP1 PUSH2 0x100 EXP SWAP1 DIV PUSH20 0xFFFFFFFFFFFFFFFFFFFFFFFFFFFFFFFFFFFFFFFF AND PUSH20 0xFFFFFFFFFFFFFFFFFFFFFFFFFFFFFFFFFFFFFFFF AND PUSH4 0xA9059CBB CALLER PUSH1 0x5 PUSH1 0x0 CALLER PUSH20 0xFFFFFFFFFFFFFFFFFFFFFFFFFFFFFFFFFFFFFFFF AND PUSH20 0xFFFFFFFFFFFFFFFFFFFFFFFFFFFFFFFFFFFFFFFF AND DUP2 MSTORE PUSH1 0x20 ADD SWAP1 DUP2 MSTORE PUSH1 0x20 ADD PUSH1 0x0 KECCAK256 SLOAD PUSH1 0x40 MLOAD DUP4 PUSH4 0xFFFFFFFF AND PUSH1 0xE0 SHL DUP2 MSTORE PUSH1 0x4 ADD PUSH2 0x58A SWAP3 SWAP2 SWAP1 PUSH2 0xF72 JUMP JUMPDEST PUSH1 0x20 PUSH1 0x40 MLOAD DUP1 DUP4 SUB DUP2 PUSH1 0x0 DUP8 GAS CALL ISZERO DUP1 ISZERO PUSH2 0x5A9 JUMPI RETURNDATASIZE PUSH1 0x0 DUP1 RETURNDATACOPY RETURNDATASIZE PUSH1 0x0 REVERT JUMPDEST POP POP POP POP PUSH1 0x40 MLOAD RETURNDATASIZE PUSH1 0x1F NOT PUSH1 0x1F DUP3 ADD AND DUP3 ADD DUP1 PUSH1 0x40 MSTORE POP DUP2 ADD SWAP1 PUSH2 0x5CD SWAP2 SWAP1 PUSH2 0xFC7 JUMP JUMPDEST POP PUSH1 0x0 PUSH1 0x5 PUSH1 0x0 CALLER PUSH20 0xFFFFFFFFFFFFFFFFFFFFFFFFFFFFFFFFFFFFFFFF AND PUSH20 0xFFFFFFFFFFFFFFFFFFFFFFFFFFFFFFFFFFFFFFFF AND DUP2 MSTORE PUSH1 0x20 ADD SWAP1 DUP2 MSTORE PUSH1 0x20 ADD PUSH1 0x0 KECCAK256 DUP2 SWAP1 SSTORE POP JUMP JUMPDEST PUSH1 0x1 SLOAD DUP2 JUMP JUMPDEST PUSH1 0x5 PUSH1 0x20 MSTORE DUP1 PUSH1 0x0 MSTORE PUSH1 0x40 PUSH1 0x0 KECCAK256 PUSH1 0x0 SWAP2 POP SWAP1 POP SLOAD DUP2 JUMP JUMPDEST PUSH1 0x2 DUP1 SLOAD PUSH2 0x640 SWAP1 PUSH2 0x969 JUMP JUMPDEST DUP1 PUSH1 0x1F ADD PUSH1 0x20 DUP1 SWAP2 DIV MUL PUSH1 0x20 ADD PUSH1 0x40 MLOAD SWAP1 DUP2 ADD PUSH1 0x40 MSTORE DUP1 SWAP3 SWAP2 SWAP1 DUP2 DUP2 MSTORE PUSH1 0x20 ADD DUP3 DUP1 SLOAD PUSH2 0x66C SWAP1 PUSH2 0x969 JUMP JUMPDEST DUP1 ISZERO PUSH2 0x6B9 JUMPI DUP1 PUSH1 0x1F LT PUSH2 0x68E JUMPI PUSH2 0x100 DUP1 DUP4 SLOAD DIV MUL DUP4 MSTORE SWAP2 PUSH1 0x20 ADD SWAP2 PUSH2 0x6B9 JUMP JUMPDEST DUP3 ADD SWAP2 SWAP1 PUSH1 0x0 MSTORE PUSH1 0x20 PUSH1 0x0 KECCAK256 SWAP1 JUMPDEST DUP2 SLOAD DUP2 MSTORE SWAP1 PUSH1 0x1 ADD SWAP1 PUSH1 0x20 ADD DUP1 DUP4 GT PUSH2 0x69C JUMPI DUP3 SWAP1 SUB PUSH1 0x1F AND DUP3 ADD SWAP2 JUMPDEST POP POP POP POP POP DUP2 JUMP JUMPDEST PUSH1 0x0 DUP1 SLOAD SWAP1 PUSH2 0x100 EXP SWAP1 DIV PUSH20 0xFFFFFFFFFFFFFFFFFFFFFFFFFFFFFFFFFFFFFFFF AND DUP2 JUMP JUMPDEST PUSH1 0x0 DUP2 ISZERO ISZERO SWAP1 POP SWAP2 SWAP1 POP JUMP JUMPDEST PUSH2 0x6FA DUP2 PUSH2 0x6E5 JUMP JUMPDEST DUP3 MSTORE POP POP JUMP JUMPDEST PUSH1 0x0 PUSH1 0x20 DUP3 ADD SWAP1 POP PUSH2 0x715 PUSH1 0x0 DUP4 ADD DUP5 PUSH2 0x6F1 JUMP JUMPDEST SWAP3 SWAP2 POP POP JUMP JUMPDEST PUSH1 0x0 DUP2 SWAP1 POP SWAP2 SWAP1 POP JUMP JUMPDEST PUSH2 0x72E DUP2 PUSH2 0x71B JUMP JUMPDEST DUP3 MSTORE POP POP JUMP JUMPDEST PUSH1 0x0 PUSH1 0x20 DUP3 ADD SWAP1 POP PUSH2 0x749 PUSH1 0x0 DUP4 ADD DUP5 PUSH2 0x725 JUMP JUMPDEST SWAP3 SWAP2 POP POP JUMP JUMPDEST PUSH1 0x0 DUP1 REVERT JUMPDEST PUSH1 0x0 PUSH20 0xFFFFFFFFFFFFFFFFFFFFFFFFFFFFFFFFFFFFFFFF DUP3 AND SWAP1 POP SWAP2 SWAP1 POP JUMP JUMPDEST PUSH1 0x0 PUSH2 0x77F DUP3 PUSH2 0x754 JUMP JUMPDEST SWAP1 POP SWAP2 SWAP1 POP JUMP JUMPDEST PUSH2 0x78F DUP2 PUSH2 0x774 JUMP JUMPDEST DUP2 EQ PUSH2 0x79A JUMPI PUSH1 0x0 DUP1 REVERT JUMPDEST POP JUMP JUMPDEST PUSH1 0x0 DUP2 CALLDATALOAD SWAP1 POP PUSH2 0x7AC DUP2 PUSH2 0x786 JUMP JUMPDEST SWAP3 SWAP2 POP POP JUMP JUMPDEST PUSH1 0x0 PUSH1 0x20 DUP3 DUP5 SUB SLT ISZERO PUSH2 0x7C8 JUMPI PUSH2 0x7C7 PUSH2 0x74F JUMP JUMPDEST JUMPDEST PUSH1 0x0 PUSH2 0x7D6 DUP5 DUP3 DUP6 ADD PUSH2 0x79D JUMP JUMPDEST SWAP2 POP POP SWAP3 SWAP2 POP POP JUMP JUMPDEST PUSH1 0x0 DUP2 MLOAD SWAP1 POP SWAP2 SWAP1 POP JUMP JUMPDEST PUSH1 0x0 DUP3 DUP3 MSTORE PUSH1 0x20 DUP3 ADD SWAP1 POP SWAP3 SWAP2 POP POP JUMP JUMPDEST PUSH1 0x0 JUMPDEST DUP4 DUP2 LT ISZERO PUSH2 0x819 JUMPI DUP1 DUP3 ADD MLOAD DUP2 DUP5 ADD MSTORE PUSH1 0x20 DUP2 ADD SWAP1 POP PUSH2 0x7FE JUMP JUMPDEST PUSH1 0x0 DUP5 DUP5 ADD MSTORE POP POP POP POP JUMP JUMPDEST PUSH1 0x0 PUSH1 0x1F NOT PUSH1 0x1F DUP4 ADD AND SWAP1 POP SWAP2 SWAP1 POP JUMP JUMPDEST PUSH1 0x0 PUSH2 0x841 DUP3 PUSH2 0x7DF JUMP JUMPDEST PUSH2 0x84B DUP2 DUP6 PUSH2 0x7EA JUMP JUMPDEST SWAP4 POP PUSH2 0x85B DUP2 DUP6 PUSH1 0x20 DUP7 ADD PUSH2 0x7FB JUMP JUMPDEST PUSH2 0x864 DUP2 PUSH2 0x825 JUMP JUMPDEST DUP5 ADD SWAP2 POP POP SWAP3 SWAP2 POP POP JUMP JUMPDEST PUSH1 0x0 PUSH1 0x20 DUP3 ADD SWAP1 POP DUP2 DUP2 SUB PUSH1 0x0 DUP4 ADD MSTORE PUSH2 0x889 DUP2 DUP5 PUSH2 0x836 JUMP JUMPDEST SWAP1 POP SWAP3 SWAP2 POP POP JUMP JUMPDEST PUSH1 0x0 DUP2 SWAP1 POP SWAP2 SWAP1 POP JUMP JUMPDEST PUSH1 0x0 PUSH2 0x8B6 PUSH2 0x8B1 PUSH2 0x8AC DUP5 PUSH2 0x754 JUMP JUMPDEST PUSH2 0x891 JUMP JUMPDEST PUSH2 0x754 JUMP JUMPDEST SWAP1 POP SWAP2 SWAP1 POP JUMP JUMPDEST PUSH1 0x0 PUSH2 0x8C8 DUP3 PUSH2 0x89B JUMP JUMPDEST SWAP1 POP SWAP2 SWAP1 POP JUMP JUMPDEST PUSH1 0x0 PUSH2 0x8DA DUP3 PUSH2 0x8BD JUMP JUMPDEST SWAP1 POP SWAP2 SWAP1 POP JUMP JUMPDEST PUSH2 0x8EA DUP2 PUSH2 0x8CF JUMP JUMPDEST DUP3 MSTORE POP POP JUMP JUMPDEST PUSH1 0x0 PUSH1 0x20 DUP3 ADD SWAP1 POP PUSH2 0x905 PUSH1 0x0 DUP4 ADD DUP5 PUSH2 0x8E1 JUMP JUMPDEST SWAP3 SWAP2 POP POP JUMP JUMPDEST PUSH32 0x4E487B7100000000000000000000000000000000000000000000000000000000 PUSH1 0x0 MSTORE PUSH1 0x41 PUSH1 0x4 MSTORE PUSH1 0x24 PUSH1 0x0 REVERT JUMPDEST PUSH32 0x4E487B7100000000000000000000000000000000000000000000000000000000 PUSH1 0x0 MSTORE PUSH1 0x22 PUSH1 0x4 MSTORE PUSH1 0x24 PUSH1 0x0 REVERT JUMPDEST PUSH1 0x0 PUSH1 0x2 DUP3 DIV SWAP1 POP PUSH1 0x1 DUP3 AND DUP1 PUSH2 0x981 JUMPI PUSH1 0x7F DUP3 AND SWAP2 POP JUMPDEST PUSH1 0x20 DUP3 LT DUP2 SUB PUSH2 0x994 JUMPI PUSH2 0x993 PUSH2 0x93A JUMP JUMPDEST JUMPDEST POP SWAP2 SWAP1 POP JUMP JUMPDEST PUSH1 0x0 DUP2 SWAP1 POP DUP2 PUSH1 0x0 MSTORE PUSH1 0x20 PUSH1 0x0 KECCAK256 SWAP1 POP SWAP2 SWAP1 POP JUMP JUMPDEST PUSH1 0x0 PUSH1 0x20 PUSH1 0x1F DUP4 ADD DIV SWAP1 POP SWAP2 SWAP1 POP JUMP JUMPDEST PUSH1 0x0 DUP3 DUP3 SHL SWAP1 POP SWAP3 SWAP2 POP POP JUMP JUMPDEST PUSH1 0x0 PUSH1 0x8 DUP4 MUL PUSH2 0x9FC PUSH32 0xFFFFFFFFFFFFFFFFFFFFFFFFFFFFFFFFFFFFFFFFFFFFFFFFFFFFFFFFFFFFFFFF DUP3 PUSH2 0x9BF JUMP JUMPDEST PUSH2 0xA06 DUP7 DUP4 PUSH2 0x9BF JUMP JUMPDEST SWAP6 POP DUP1 NOT DUP5 AND SWAP4 POP DUP1 DUP7 AND DUP5 OR SWAP3 POP POP POP SWAP4 SWAP3 POP POP POP JUMP JUMPDEST PUSH1 0x0 PUSH2 0xA39 PUSH2 0xA34 PUSH2 0xA2F DUP5 PUSH2 0x71B JUMP JUMPDEST PUSH2 0x891 JUMP JUMPDEST PUSH2 0x71B JUMP JUMPDEST SWAP1 POP SWAP2 SWAP1 POP JUMP JUMPDEST PUSH1 0x0 DUP2 SWAP1 POP SWAP2 SWAP1 POP JUMP JUMPDEST PUSH2 0xA53 DUP4 PUSH2 0xA1E JUMP JUMPDEST PUSH2 0xA67 PUSH2 0xA5F DUP3 PUSH2 0xA40 JUMP JUMPDEST DUP5 DUP5 SLOAD PUSH2 0x9CC JUMP JUMPDEST DUP3 SSTORE POP POP POP POP JUMP JUMPDEST PUSH1 0x0 SWAP1 JUMP JUMPDEST PUSH2 0xA7C PUSH2 0xA6F JUMP JUMPDEST PUSH2 0xA87 DUP2 DUP5 DUP5 PUSH2 0xA4A JUMP JUMPDEST POP POP POP JUMP JUMPDEST JUMPDEST DUP2 DUP2 LT ISZERO PUSH2 0xAAB JUMPI PUSH2 0xAA0 PUSH1 0x0 DUP3 PUSH2 0xA74 JUMP JUMPDEST PUSH1 0x1 DUP2 ADD SWAP1 POP PUSH2 0xA8D JUMP JUMPDEST POP POP JUMP JUMPDEST PUSH1 0x1F DUP3 GT ISZERO PUSH2 0xAF0 JUMPI PUSH2 0xAC1 DUP2 PUSH2 0x99A JUMP JUMPDEST PUSH2 0xACA DUP5 PUSH2 0x9AF JUMP JUMPDEST DUP2 ADD PUSH1 0x20 DUP6 LT ISZERO PUSH2 0xAD9 JUMPI DUP2 SWAP1 POP JUMPDEST PUSH2 0xAED PUSH2 0xAE5 DUP6 PUSH2 0x9AF JUMP JUMPDEST DUP4 ADD DUP3 PUSH2 0xA8C JUMP JUMPDEST POP POP JUMPDEST POP POP POP JUMP JUMPDEST PUSH1 0x0 DUP3 DUP3 SHR SWAP1 POP SWAP3 SWAP2 POP POP JUMP JUMPDEST PUSH1 0x0 PUSH2 0xB13 PUSH1 0x0 NOT DUP5 PUSH1 0x8 MUL PUSH2 0xAF5 JUMP JUMPDEST NOT DUP1 DUP4 AND SWAP2 POP POP SWAP3 SWAP2 POP POP JUMP JUMPDEST PUSH1 0x0 PUSH2 0xB2C DUP4 DUP4 PUSH2 0xB02 JUMP JUMPDEST SWAP2 POP DUP3 PUSH1 0x2 MUL DUP3 OR SWAP1 POP SWAP3 SWAP2 POP POP JUMP JUMPDEST PUSH2 0xB45 DUP3 PUSH2 0x7DF JUMP JUMPDEST PUSH8 0xFFFFFFFFFFFFFFFF DUP2 GT ISZERO PUSH2 0xB5E JUMPI PUSH2 0xB5D PUSH2 0x90B JUMP JUMPDEST JUMPDEST PUSH2 0xB68 DUP3 SLOAD PUSH2 0x969 JUMP JUMPDEST PUSH2 0xB73 DUP3 DUP3 DUP6 PUSH2 0xAAF JUMP JUMPDEST PUSH1 0x0 PUSH1 0x20 SWAP1 POP PUSH1 0x1F DUP4 GT PUSH1 0x1 DUP2 EQ PUSH2 0xBA6 JUMPI PUSH1 0x0 DUP5 ISZERO PUSH2 0xB94 JUMPI DUP3 DUP8 ADD MLOAD SWAP1 POP JUMPDEST PUSH2 0xB9E DUP6 DUP3 PUSH2 0xB20 JUMP JUMPDEST DUP7 SSTORE POP PUSH2 0xC06 JUMP JUMPDEST PUSH1 0x1F NOT DUP5 AND PUSH2 0xBB4 DUP7 PUSH2 0x99A JUMP JUMPDEST PUSH1 0x0 JUMPDEST DUP3 DUP2 LT ISZERO PUSH2 0xBDC JUMPI DUP5 DUP10 ADD MLOAD DUP3 SSTORE PUSH1 0x1 DUP3 ADD SWAP2 POP PUSH1 0x20 DUP6 ADD SWAP5 POP PUSH1 0x20 DUP2 ADD SWAP1 POP PUSH2 0xBB7 JUMP JUMPDEST DUP7 DUP4 LT ISZERO PUSH2 0xBF9 JUMPI DUP5 DUP10 ADD MLOAD PUSH2 0xBF5 PUSH1 0x1F DUP10 AND DUP3 PUSH2 0xB02 JUMP JUMPDEST DUP4 SSTORE POP JUMPDEST PUSH1 0x1 PUSH1 0x2 DUP9 MUL ADD DUP9 SSTORE POP POP POP JUMPDEST POP POP POP POP POP POP JUMP JUMPDEST PUSH32 0x636865636B2069636F207374617475732E000000000000000000000000000000 PUSH1 0x0 DUP3 ADD MSTORE POP JUMP JUMPDEST PUSH1 0x0 PUSH2 0xC44 PUSH1 0x11 DUP4 PUSH2 0x7EA JUMP JUMPDEST SWAP2 POP PUSH2 0xC4F DUP3 PUSH2 0xC0E JUMP JUMPDEST PUSH1 0x20 DUP3 ADD SWAP1 POP SWAP2 SWAP1 POP JUMP JUMPDEST PUSH1 0x0 PUSH1 0x20 DUP3 ADD SWAP1 POP DUP2 DUP2 SUB PUSH1 0x0 DUP4 ADD MSTORE PUSH2 0xC73 DUP2 PUSH2 0xC37 JUMP JUMPDEST SWAP1 POP SWAP2 SWAP1 POP JUMP JUMPDEST PUSH32 0x6D696E2E312063616E206465706F736974000000000000000000000000000000 PUSH1 0x0 DUP3 ADD MSTORE POP JUMP JUMPDEST PUSH1 0x0 PUSH2 0xCB0 PUSH1 0x11 DUP4 PUSH2 0x7EA JUMP JUMPDEST SWAP2 POP PUSH2 0xCBB DUP3 PUSH2 0xC7A JUMP JUMPDEST PUSH1 0x20 DUP3 ADD SWAP1 POP SWAP2 SWAP1 POP JUMP JUMPDEST PUSH1 0x0 PUSH1 0x20 DUP3 ADD SWAP1 POP DUP2 DUP2 SUB PUSH1 0x0 DUP4 ADD MSTORE PUSH2 0xCDF DUP2 PUSH2 0xCA3 JUMP JUMPDEST SWAP1 POP SWAP2 SWAP1 POP JUMP JUMPDEST PUSH32 0x4E487B7100000000000000000000000000000000000000000000000000000000 PUSH1 0x0 MSTORE PUSH1 0x11 PUSH1 0x4 MSTORE PUSH1 0x24 PUSH1 0x0 REVERT JUMPDEST PUSH1 0x0 PUSH2 0xD20 DUP3 PUSH2 0x71B JUMP JUMPDEST SWAP2 POP PUSH2 0xD2B DUP4 PUSH2 0x71B JUMP JUMPDEST SWAP3 POP DUP3 DUP3 MUL PUSH2 0xD39 DUP2 PUSH2 0x71B JUMP JUMPDEST SWAP2 POP DUP3 DUP3 DIV DUP5 EQ DUP4 ISZERO OR PUSH2 0xD50 JUMPI PUSH2 0xD4F PUSH2 0xCE6 JUMP JUMPDEST JUMPDEST POP SWAP3 SWAP2 POP POP JUMP JUMPDEST PUSH32 0x4E487B7100000000000000000000000000000000000000000000000000000000 PUSH1 0x0 MSTORE PUSH1 0x12 PUSH1 0x4 MSTORE PUSH1 0x24 PUSH1 0x0 REVERT JUMPDEST PUSH1 0x0 PUSH2 0xD91 DUP3 PUSH2 0x71B JUMP JUMPDEST SWAP2 POP PUSH2 0xD9C DUP4 PUSH2 0x71B JUMP JUMPDEST SWAP3 POP DUP3 PUSH2 0xDAC JUMPI PUSH2 0xDAB PUSH2 0xD57 JUMP JUMPDEST JUMPDEST DUP3 DUP3 DIV SWAP1 POP SWAP3 SWAP2 POP POP JUMP JUMPDEST PUSH1 0x0 PUSH2 0xDC2 DUP3 PUSH2 0x71B JUMP JUMPDEST SWAP2 POP PUSH2 0xDCD DUP4 PUSH2 0x71B JUMP JUMPDEST SWAP3 POP DUP3 DUP3 ADD SWAP1 POP DUP1 DUP3 GT ISZERO PUSH2 0xDE5 JUMPI PUSH2 0xDE4 PUSH2 0xCE6 JUMP JUMPDEST JUMPDEST SWAP3 SWAP2 POP POP JUMP JUMPDEST PUSH32 0x6D617820737570706C7920726561636865642E00000000000000000000000000 PUSH1 0x0 DUP3 ADD MSTORE POP JUMP JUMPDEST PUSH1 0x0 PUSH2 0xE21 PUSH1 0x13 DUP4 PUSH2 0x7EA JUMP JUMPDEST SWAP2 POP PUSH2 0xE2C DUP3 PUSH2 0xDEB JUMP JUMPDEST PUSH1 0x20 DUP3 ADD SWAP1 POP SWAP2 SWAP1 POP JUMP JUMPDEST PUSH1 0x0 PUSH1 0x20 DUP3 ADD SWAP1 POP DUP2 DUP2 SUB PUSH1 0x0 DUP4 ADD MSTORE PUSH2 0xE50 DUP2 PUSH2 0xE14 JUMP JUMPDEST SWAP1 POP SWAP2 SWAP1 POP JUMP JUMPDEST PUSH1 0x0 PUSH2 0xE62 DUP3 PUSH2 0x71B JUMP JUMPDEST SWAP2 POP PUSH2 0xE6D DUP4 PUSH2 0x71B JUMP JUMPDEST SWAP3 POP DUP3 DUP3 SUB SWAP1 POP DUP2 DUP2 GT ISZERO PUSH2 0xE85 JUMPI PUSH2 0xE84 PUSH2 0xCE6 JUMP JUMPDEST JUMPDEST SWAP3 SWAP2 POP POP JUMP JUMPDEST PUSH32 0x6D61782032303020746F6B656E20616C6C6F77732E0000000000000000000000 PUSH1 0x0 DUP3 ADD MSTORE POP JUMP JUMPDEST PUSH1 0x0 PUSH2 0xEC1 PUSH1 0x15 DUP4 PUSH2 0x7EA JUMP JUMPDEST SWAP2 POP PUSH2 0xECC DUP3 PUSH2 0xE8B JUMP JUMPDEST PUSH1 0x20 DUP3 ADD SWAP1 POP SWAP2 SWAP1 POP JUMP JUMPDEST PUSH1 0x0 PUSH1 0x20 DUP3 ADD SWAP1 POP DUP2 DUP2 SUB PUSH1 0x0 DUP4 ADD MSTORE PUSH2 0xEF0 DUP2 PUSH2 0xEB4 JUMP JUMPDEST SWAP1 POP SWAP2 SWAP1 POP JUMP JUMPDEST PUSH32 0x302062616C616E63652C207761697420666F7220636C61696D00000000000000 PUSH1 0x0 DUP3 ADD MSTORE POP JUMP JUMPDEST PUSH1 0x0 PUSH2 0xF2D PUSH1 0x19 DUP4 PUSH2 0x7EA JUMP JUMPDEST SWAP2 POP PUSH2 0xF38 DUP3 PUSH2 0xEF7 JUMP JUMPDEST PUSH1 0x20 DUP3 ADD SWAP1 POP SWAP2 SWAP1 POP JUMP JUMPDEST PUSH1 0x0 PUSH1 0x20 DUP3 ADD SWAP1 POP DUP2 DUP2 SUB PUSH1 0x0 DUP4 ADD MSTORE PUSH2 0xF5C DUP2 PUSH2 0xF20 JUMP JUMPDEST SWAP1 POP SWAP2 SWAP1 POP JUMP JUMPDEST PUSH2 0xF6C DUP2 PUSH2 0x774 JUMP JUMPDEST DUP3 MSTORE POP POP JUMP JUMPDEST PUSH1 0x0 PUSH1 0x40 DUP3 ADD SWAP1 POP PUSH2 0xF87 PUSH1 0x0 DUP4 ADD DUP6 PUSH2 0xF63 JUMP JUMPDEST PUSH2 0xF94 PUSH1 0x20 DUP4 ADD DUP5 PUSH2 0x725 JUMP JUMPDEST SWAP4 SWAP3 POP POP POP JUMP JUMPDEST PUSH2 0xFA4 DUP2 PUSH2 0x6E5 JUMP JUMPDEST DUP2 EQ PUSH2 0xFAF JUMPI PUSH1 0x0 DUP1 REVERT JUMPDEST POP JUMP JUMPDEST PUSH1 0x0 DUP2 MLOAD SWAP1 POP PUSH2 0xFC1 DUP2 PUSH2 0xF9B JUMP JUMPDEST SWAP3 SWAP2 POP POP JUMP JUMPDEST PUSH1 0x0 PUSH1 0x20 DUP3 DUP5 SUB SLT ISZERO PUSH2 0xFDD JUMPI PUSH2 0xFDC PUSH2 0x74F JUMP JUMPDEST JUMPDEST PUSH1 0x0 PUSH2 0xFEB DUP5 DUP3 DUP6 ADD PUSH2 0xFB2 JUMP JUMPDEST SWAP2 POP POP SWAP3 SWAP2 POP POP JUMP INVALID LOG2 PUSH5 0x6970667358 0x22 SLT KECCAK256 PUSH8 0x8781DB6DE58F8EDE BYTE BLOCKHASH SIGNEXTEND PUSH3 0x5BC8C9 0xAC 0x28 0x2F 0xB6 MUL 0xEC PUSH11 0x50E7BE3C9404EA90E6473 PUSH16 0x6C634300081200330000000000000000 "
				},
				"gasEstimates": {
					"creation": {
						"codeDepositCost": "827600",
						"executionCost": "infinite",
						"totalCost": "infinite"
					},
					"external": {
						"DepositEther()": "infinite",
						"IcoStatus()": "infinite",
						"avaiableToken()": "2429",
						"claimToken()": "infinite",
						"icoStatus()": "infinite",
						"token()": "infinite",
						"users(address)": "2836"
					}
				},
				"methodIdentifiers": {
					"DepositEther()": "253a96e9",
					"IcoStatus()": "1c2ac5ac",
					"avaiableToken()": "647ae08c",
					"claimToken()": "4451d89f",
					"icoStatus()": "d96e1f76",
					"token()": "fc0c546a",
					"users(address)": "a87430ba"
				}
			},
			"storageLayout": {
				"storage": [
					{
						"astId": 5,
						"contract": "contracts/ICO.sol:ICO",
						"label": "token",
						"offset": 0,
						"slot": "0",
						"type": "t_contract(Token)821"
					},
					{
						"astId": 8,
						"contract": "contracts/ICO.sol:ICO",
						"label": "avaiableToken",
						"offset": 0,
						"slot": "1",
						"type": "t_uint256"
					},
					{
						"astId": 11,
						"contract": "contracts/ICO.sol:ICO",
						"label": "icoStatus",
						"offset": 0,
						"slot": "2",
						"type": "t_string_storage"
					},
					{
						"astId": 13,
						"contract": "contracts/ICO.sol:ICO",
						"label": "startTime",
						"offset": 0,
						"slot": "3",
						"type": "t_uint256"
					},
					{
						"astId": 15,
						"contract": "contracts/ICO.sol:ICO",
						"label": "endTime",
						"offset": 0,
						"slot": "4",
						"type": "t_uint256"
					},
					{
						"astId": 19,
						"contract": "contracts/ICO.sol:ICO",
						"label": "users",
						"offset": 0,
						"slot": "5",
						"type": "t_mapping(t_address,t_uint256)"
					}
				],
				"types": {
					"t_address": {
						"encoding": "inplace",
						"label": "address",
						"numberOfBytes": "20"
					},
					"t_contract(Token)821": {
						"encoding": "inplace",
						"label": "contract Token",
						"numberOfBytes": "20"
					},
					"t_mapping(t_address,t_uint256)": {
						"encoding": "mapping",
						"key": "t_address",
						"label": "mapping(address => uint256)",
						"numberOfBytes": "32",
						"value": "t_uint256"
					},
					"t_string_storage": {
						"encoding": "bytes",
						"label": "string",
						"numberOfBytes": "32"
					},
					"t_uint256": {
						"encoding": "inplace",
						"label": "uint256",
						"numberOfBytes": "32"
					}
				}
			},
			"userdoc": {
				"kind": "user",
				"methods": {},
				"version": 1
			}
		}
	}
}