{
	"contracts/call.sol": {
		"receiver": {
			"abi": [
				{
					"anonymous": false,
					"inputs": [
						{
							"indexed": false,
							"internalType": "address",
							"name": "caller",
							"type": "address"
						},
						{
							"indexed": false,
							"internalType": "uint256",
							"name": "amount",
							"type": "uint256"
						},
						{
							"indexed": false,
							"internalType": "string",
							"name": "message",
							"type": "string"
						}
					],
					"name": "received",
					"type": "event"
				},
				{
					"stateMutability": "payable",
					"type": "fallback"
				},
				{
					"inputs": [
						{
							"internalType": "string",
							"name": "_message",
							"type": "string"
						},
						{
							"internalType": "uint256",
							"name": "_x",
							"type": "uint256"
						}
					],
					"name": "foo",
					"outputs": [
						{
							"internalType": "uint256",
							"name": "",
							"type": "uint256"
						}
					],
					"stateMutability": "payable",
					"type": "function"
				}
			],
			"devdoc": {
				"kind": "dev",
				"methods": {},
				"version": 1
			},
			"evm": {
				"assembly": "    /* \"contracts/call.sol\":61:481  contract receiver{... */\n  mstore(0x40, 0x80)\n  callvalue\n  dup1\n  iszero\n  tag_1\n  jumpi\n  0x00\n  dup1\n  revert\ntag_1:\n  pop\n  dataSize(sub_0)\n  dup1\n  dataOffset(sub_0)\n  0x00\n  codecopy\n  0x00\n  return\nstop\n\nsub_0: assembly {\n        /* \"contracts/call.sol\":61:481  contract receiver{... */\n      mstore(0x40, 0x80)\n      jumpi(tag_1, lt(calldatasize, 0x04))\n      shr(0xe0, calldataload(0x00))\n      dup1\n      0x24ccab8f\n      eq\n      tag_3\n      jumpi\n      jump(tag_2)\n    tag_1:\n    tag_2:\n        /* \"contracts/call.sol\":198:247  received(msg.sender, msg.value, \"fallbackcalled\") */\n      0x4ea43b897a5f947a4940ce8fc2485d2854dcf256c52754394f1804723a091a21\n        /* \"contracts/call.sol\":207:217  msg.sender */\n      caller\n        /* \"contracts/call.sol\":219:228  msg.value */\n      callvalue\n        /* \"contracts/call.sol\":198:247  received(msg.sender, msg.value, \"fallbackcalled\") */\n      mload(0x40)\n      tag_6\n      swap3\n      swap2\n      swap1\n      tag_7\n      jump\t// in\n    tag_6:\n      mload(0x40)\n      dup1\n      swap2\n      sub\n      swap1\n      log1\n        /* \"contracts/call.sol\":61:481  contract receiver{... */\n      stop\n        /* \"contracts/call.sol\":263:425  function foo(string memory _message, uint _x) public payable returns (uint){... */\n    tag_3:\n      tag_8\n      0x04\n      dup1\n      calldatasize\n      sub\n      dup2\n      add\n      swap1\n      tag_9\n      swap2\n      swap1\n      tag_10\n      jump\t// in\n    tag_9:\n      tag_11\n      jump\t// in\n    tag_8:\n      mload(0x40)\n      tag_12\n      swap2\n      swap1\n      tag_13\n      jump\t// in\n    tag_12:\n      mload(0x40)\n      dup1\n      swap2\n      sub\n      swap1\n      return\n    tag_11:\n        /* \"contracts/call.sol\":333:337  uint */\n      0x00\n        /* \"contracts/call.sol\":354:395  received(msg.sender, msg.value, _message) */\n      0x4ea43b897a5f947a4940ce8fc2485d2854dcf256c52754394f1804723a091a21\n        /* \"contracts/call.sol\":363:373  msg.sender */\n      caller\n        /* \"contracts/call.sol\":375:384  msg.value */\n      callvalue\n        /* \"contracts/call.sol\":386:394  _message */\n      dup6\n        /* \"contracts/call.sol\":354:395  received(msg.sender, msg.value, _message) */\n      mload(0x40)\n      tag_15\n      swap4\n      swap3\n      swap2\n      swap1\n      tag_16\n      jump\t// in\n    tag_15:\n      mload(0x40)\n      dup1\n      swap2\n      sub\n      swap1\n      log1\n        /* \"contracts/call.sol\":416:417  1 */\n      0x01\n        /* \"contracts/call.sol\":413:415  _x */\n      dup3\n        /* \"contracts/call.sol\":413:417  _x+1 */\n      tag_17\n      swap2\n      swap1\n      tag_18\n      jump\t// in\n    tag_17:\n        /* \"contracts/call.sol\":406:417  return _x+1 */\n      swap1\n      pop\n        /* \"contracts/call.sol\":263:425  function foo(string memory _message, uint _x) public payable returns (uint){... */\n      swap3\n      swap2\n      pop\n      pop\n      jump\t// out\n        /* \"#utility.yul\":7:133   */\n    tag_19:\n        /* \"#utility.yul\":44:51   */\n      0x00\n        /* \"#utility.yul\":84:126   */\n      0xffffffffffffffffffffffffffffffffffffffff\n        /* \"#utility.yul\":77:82   */\n      dup3\n        /* \"#utility.yul\":73:127   */\n      and\n        /* \"#utility.yul\":62:127   */\n      swap1\n      pop\n        /* \"#utility.yul\":7:133   */\n      swap2\n      swap1\n      pop\n      jump\t// out\n        /* \"#utility.yul\":139:235   */\n    tag_20:\n        /* \"#utility.yul\":176:183   */\n      0x00\n        /* \"#utility.yul\":205:229   */\n      tag_49\n        /* \"#utility.yul\":223:228   */\n      dup3\n        /* \"#utility.yul\":205:229   */\n      tag_19\n      jump\t// in\n    tag_49:\n        /* \"#utility.yul\":194:229   */\n      swap1\n      pop\n        /* \"#utility.yul\":139:235   */\n      swap2\n      swap1\n      pop\n      jump\t// out\n        /* \"#utility.yul\":241:359   */\n    tag_21:\n        /* \"#utility.yul\":328:352   */\n      tag_51\n        /* \"#utility.yul\":346:351   */\n      dup2\n        /* \"#utility.yul\":328:352   */\n      tag_20\n      jump\t// in\n    tag_51:\n        /* \"#utility.yul\":323:326   */\n      dup3\n        /* \"#utility.yul\":316:353   */\n      mstore\n        /* \"#utility.yul\":241:359   */\n      pop\n      pop\n      jump\t// out\n        /* \"#utility.yul\":365:442   */\n    tag_22:\n        /* \"#utility.yul\":402:409   */\n      0x00\n        /* \"#utility.yul\":431:436   */\n      dup2\n        /* \"#utility.yul\":420:436   */\n      swap1\n      pop\n        /* \"#utility.yul\":365:442   */\n      swap2\n      swap1\n      pop\n      jump\t// out\n        /* \"#utility.yul\":448:566   */\n    tag_23:\n        /* \"#utility.yul\":535:559   */\n      tag_54\n        /* \"#utility.yul\":553:558   */\n      dup2\n        /* \"#utility.yul\":535:559   */\n      tag_22\n      jump\t// in\n    tag_54:\n        /* \"#utility.yul\":530:533   */\n      dup3\n        /* \"#utility.yul\":523:560   */\n      mstore\n        /* \"#utility.yul\":448:566   */\n      pop\n      pop\n      jump\t// out\n        /* \"#utility.yul\":572:741   */\n    tag_24:\n        /* \"#utility.yul\":656:667   */\n      0x00\n        /* \"#utility.yul\":690:696   */\n      dup3\n        /* \"#utility.yul\":685:688   */\n      dup3\n        /* \"#utility.yul\":678:697   */\n      mstore\n        /* \"#utility.yul\":730:734   */\n      0x20\n        /* \"#utility.yul\":725:728   */\n      dup3\n        /* \"#utility.yul\":721:735   */\n      add\n        /* \"#utility.yul\":706:735   */\n      swap1\n      pop\n        /* \"#utility.yul\":572:741   */\n      swap3\n      swap2\n      pop\n      pop\n      jump\t// out\n        /* \"#utility.yul\":747:911   */\n    tag_25:\n        /* \"#utility.yul\":887:903   */\n      0x66616c6c6261636b63616c6c6564000000000000000000000000000000000000\n        /* \"#utility.yul\":883:884   */\n      0x00\n        /* \"#utility.yul\":875:881   */\n      dup3\n        /* \"#utility.yul\":871:885   */\n      add\n        /* \"#utility.yul\":864:904   */\n      mstore\n        /* \"#utility.yul\":747:911   */\n      pop\n      jump\t// out\n        /* \"#utility.yul\":917:1283   */\n    tag_26:\n        /* \"#utility.yul\":1059:1062   */\n      0x00\n        /* \"#utility.yul\":1080:1147   */\n      tag_58\n        /* \"#utility.yul\":1144:1146   */\n      0x0e\n        /* \"#utility.yul\":1139:1142   */\n      dup4\n        /* \"#utility.yul\":1080:1147   */\n      tag_24\n      jump\t// in\n    tag_58:\n        /* \"#utility.yul\":1073:1147   */\n      swap2\n      pop\n        /* \"#utility.yul\":1156:1249   */\n      tag_59\n        /* \"#utility.yul\":1245:1248   */\n      dup3\n        /* \"#utility.yul\":1156:1249   */\n      tag_25\n      jump\t// in\n    tag_59:\n        /* \"#utility.yul\":1274:1276   */\n      0x20\n        /* \"#utility.yul\":1269:1272   */\n      dup3\n        /* \"#utility.yul\":1265:1277   */\n      add\n        /* \"#utility.yul\":1258:1277   */\n      swap1\n      pop\n        /* \"#utility.yul\":917:1283   */\n      swap2\n      swap1\n      pop\n      jump\t// out\n        /* \"#utility.yul\":1289:1928   */\n    tag_7:\n        /* \"#utility.yul\":1511:1515   */\n      0x00\n        /* \"#utility.yul\":1549:1551   */\n      0x60\n        /* \"#utility.yul\":1538:1547   */\n      dup3\n        /* \"#utility.yul\":1534:1552   */\n      add\n        /* \"#utility.yul\":1526:1552   */\n      swap1\n      pop\n        /* \"#utility.yul\":1562:1633   */\n      tag_61\n        /* \"#utility.yul\":1630:1631   */\n      0x00\n        /* \"#utility.yul\":1619:1628   */\n      dup4\n        /* \"#utility.yul\":1615:1632   */\n      add\n        /* \"#utility.yul\":1606:1612   */\n      dup6\n        /* \"#utility.yul\":1562:1633   */\n      tag_21\n      jump\t// in\n    tag_61:\n        /* \"#utility.yul\":1643:1715   */\n      tag_62\n        /* \"#utility.yul\":1711:1713   */\n      0x20\n        /* \"#utility.yul\":1700:1709   */\n      dup4\n        /* \"#utility.yul\":1696:1714   */\n      add\n        /* \"#utility.yul\":1687:1693   */\n      dup5\n        /* \"#utility.yul\":1643:1715   */\n      tag_23\n      jump\t// in\n    tag_62:\n        /* \"#utility.yul\":1762:1771   */\n      dup2\n        /* \"#utility.yul\":1756:1760   */\n      dup2\n        /* \"#utility.yul\":1752:1772   */\n      sub\n        /* \"#utility.yul\":1747:1749   */\n      0x40\n        /* \"#utility.yul\":1736:1745   */\n      dup4\n        /* \"#utility.yul\":1732:1750   */\n      add\n        /* \"#utility.yul\":1725:1773   */\n      mstore\n        /* \"#utility.yul\":1790:1921   */\n      tag_63\n        /* \"#utility.yul\":1916:1920   */\n      dup2\n        /* \"#utility.yul\":1790:1921   */\n      tag_26\n      jump\t// in\n    tag_63:\n        /* \"#utility.yul\":1782:1921   */\n      swap1\n      pop\n        /* \"#utility.yul\":1289:1928   */\n      swap4\n      swap3\n      pop\n      pop\n      pop\n      jump\t// out\n        /* \"#utility.yul\":1934:2009   */\n    tag_27:\n        /* \"#utility.yul\":1967:1973   */\n      0x00\n        /* \"#utility.yul\":2000:2002   */\n      0x40\n        /* \"#utility.yul\":1994:2003   */\n      mload\n        /* \"#utility.yul\":1984:2003   */\n      swap1\n      pop\n        /* \"#utility.yul\":1934:2009   */\n      swap1\n      jump\t// out\n        /* \"#utility.yul\":2015:2132   */\n    tag_28:\n        /* \"#utility.yul\":2124:2125   */\n      0x00\n        /* \"#utility.yul\":2121:2122   */\n      dup1\n        /* \"#utility.yul\":2114:2126   */\n      revert\n        /* \"#utility.yul\":2138:2255   */\n    tag_29:\n        /* \"#utility.yul\":2247:2248   */\n      0x00\n        /* \"#utility.yul\":2244:2245   */\n      dup1\n        /* \"#utility.yul\":2237:2249   */\n      revert\n        /* \"#utility.yul\":2261:2378   */\n    tag_30:\n        /* \"#utility.yul\":2370:2371   */\n      0x00\n        /* \"#utility.yul\":2367:2368   */\n      dup1\n        /* \"#utility.yul\":2360:2372   */\n      revert\n        /* \"#utility.yul\":2384:2501   */\n    tag_31:\n        /* \"#utility.yul\":2493:2494   */\n      0x00\n        /* \"#utility.yul\":2490:2491   */\n      dup1\n        /* \"#utility.yul\":2483:2495   */\n      revert\n        /* \"#utility.yul\":2507:2609   */\n    tag_32:\n        /* \"#utility.yul\":2548:2554   */\n      0x00\n        /* \"#utility.yul\":2599:2601   */\n      0x1f\n        /* \"#utility.yul\":2595:2602   */\n      not\n        /* \"#utility.yul\":2590:2592   */\n      0x1f\n        /* \"#utility.yul\":2583:2588   */\n      dup4\n        /* \"#utility.yul\":2579:2593   */\n      add\n        /* \"#utility.yul\":2575:2603   */\n      and\n        /* \"#utility.yul\":2565:2603   */\n      swap1\n      pop\n        /* \"#utility.yul\":2507:2609   */\n      swap2\n      swap1\n      pop\n      jump\t// out\n        /* \"#utility.yul\":2615:2795   */\n    tag_33:\n        /* \"#utility.yul\":2663:2740   */\n      0x4e487b7100000000000000000000000000000000000000000000000000000000\n        /* \"#utility.yul\":2660:2661   */\n      0x00\n        /* \"#utility.yul\":2653:2741   */\n      mstore\n        /* \"#utility.yul\":2760:2764   */\n      0x41\n        /* \"#utility.yul\":2757:2758   */\n      0x04\n        /* \"#utility.yul\":2750:2765   */\n      mstore\n        /* \"#utility.yul\":2784:2788   */\n      0x24\n        /* \"#utility.yul\":2781:2782   */\n      0x00\n        /* \"#utility.yul\":2774:2789   */\n      revert\n        /* \"#utility.yul\":2801:3082   */\n    tag_34:\n        /* \"#utility.yul\":2884:2911   */\n      tag_72\n        /* \"#utility.yul\":2906:2910   */\n      dup3\n        /* \"#utility.yul\":2884:2911   */\n      tag_32\n      jump\t// in\n    tag_72:\n        /* \"#utility.yul\":2876:2882   */\n      dup2\n        /* \"#utility.yul\":2872:2912   */\n      add\n        /* \"#utility.yul\":3014:3020   */\n      dup2\n        /* \"#utility.yul\":3002:3012   */\n      dup2\n        /* \"#utility.yul\":2999:3021   */\n      lt\n        /* \"#utility.yul\":2978:2996   */\n      0xffffffffffffffff\n        /* \"#utility.yul\":2966:2976   */\n      dup3\n        /* \"#utility.yul\":2963:2997   */\n      gt\n        /* \"#utility.yul\":2960:3022   */\n      or\n        /* \"#utility.yul\":2957:3045   */\n      iszero\n      tag_73\n      jumpi\n        /* \"#utility.yul\":3025:3043   */\n      tag_74\n      tag_33\n      jump\t// in\n    tag_74:\n        /* \"#utility.yul\":2957:3045   */\n    tag_73:\n        /* \"#utility.yul\":3065:3075   */\n      dup1\n        /* \"#utility.yul\":3061:3063   */\n      0x40\n        /* \"#utility.yul\":3054:3076   */\n      mstore\n        /* \"#utility.yul\":2844:3082   */\n      pop\n        /* \"#utility.yul\":2801:3082   */\n      pop\n      pop\n      jump\t// out\n        /* \"#utility.yul\":3088:3217   */\n    tag_35:\n        /* \"#utility.yul\":3122:3128   */\n      0x00\n        /* \"#utility.yul\":3149:3169   */\n      tag_76\n      tag_27\n      jump\t// in\n    tag_76:\n        /* \"#utility.yul\":3139:3169   */\n      swap1\n      pop\n        /* \"#utility.yul\":3178:3211   */\n      tag_77\n        /* \"#utility.yul\":3206:3210   */\n      dup3\n        /* \"#utility.yul\":3198:3204   */\n      dup3\n        /* \"#utility.yul\":3178:3211   */\n      tag_34\n      jump\t// in\n    tag_77:\n        /* \"#utility.yul\":3088:3217   */\n      swap2\n      swap1\n      pop\n      jump\t// out\n        /* \"#utility.yul\":3223:3531   */\n    tag_36:\n        /* \"#utility.yul\":3285:3289   */\n      0x00\n        /* \"#utility.yul\":3375:3393   */\n      0xffffffffffffffff\n        /* \"#utility.yul\":3367:3373   */\n      dup3\n        /* \"#utility.yul\":3364:3394   */\n      gt\n        /* \"#utility.yul\":3361:3417   */\n      iszero\n      tag_79\n      jumpi\n        /* \"#utility.yul\":3397:3415   */\n      tag_80\n      tag_33\n      jump\t// in\n    tag_80:\n        /* \"#utility.yul\":3361:3417   */\n    tag_79:\n        /* \"#utility.yul\":3435:3464   */\n      tag_81\n        /* \"#utility.yul\":3457:3463   */\n      dup3\n        /* \"#utility.yul\":3435:3464   */\n      tag_32\n      jump\t// in\n    tag_81:\n        /* \"#utility.yul\":3427:3464   */\n      swap1\n      pop\n        /* \"#utility.yul\":3519:3523   */\n      0x20\n        /* \"#utility.yul\":3513:3517   */\n      dup2\n        /* \"#utility.yul\":3509:3524   */\n      add\n        /* \"#utility.yul\":3501:3524   */\n      swap1\n      pop\n        /* \"#utility.yul\":3223:3531   */\n      swap2\n      swap1\n      pop\n      jump\t// out\n        /* \"#utility.yul\":3537:3683   */\n    tag_37:\n        /* \"#utility.yul\":3634:3640   */\n      dup3\n        /* \"#utility.yul\":3629:3632   */\n      dup2\n        /* \"#utility.yul\":3624:3627   */\n      dup4\n        /* \"#utility.yul\":3611:3641   */\n      calldatacopy\n        /* \"#utility.yul\":3675:3676   */\n      0x00\n        /* \"#utility.yul\":3666:3672   */\n      dup4\n        /* \"#utility.yul\":3661:3664   */\n      dup4\n        /* \"#utility.yul\":3657:3673   */\n      add\n        /* \"#utility.yul\":3650:3677   */\n      mstore\n        /* \"#utility.yul\":3537:3683   */\n      pop\n      pop\n      pop\n      jump\t// out\n        /* \"#utility.yul\":3689:4114   */\n    tag_38:\n        /* \"#utility.yul\":3767:3772   */\n      0x00\n        /* \"#utility.yul\":3792:3858   */\n      tag_84\n        /* \"#utility.yul\":3808:3857   */\n      tag_85\n        /* \"#utility.yul\":3850:3856   */\n      dup5\n        /* \"#utility.yul\":3808:3857   */\n      tag_36\n      jump\t// in\n    tag_85:\n        /* \"#utility.yul\":3792:3858   */\n      tag_35\n      jump\t// in\n    tag_84:\n        /* \"#utility.yul\":3783:3858   */\n      swap1\n      pop\n        /* \"#utility.yul\":3881:3887   */\n      dup3\n        /* \"#utility.yul\":3874:3879   */\n      dup2\n        /* \"#utility.yul\":3867:3888   */\n      mstore\n        /* \"#utility.yul\":3919:3923   */\n      0x20\n        /* \"#utility.yul\":3912:3917   */\n      dup2\n        /* \"#utility.yul\":3908:3924   */\n      add\n        /* \"#utility.yul\":3957:3960   */\n      dup5\n        /* \"#utility.yul\":3948:3954   */\n      dup5\n        /* \"#utility.yul\":3943:3946   */\n      dup5\n        /* \"#utility.yul\":3939:3955   */\n      add\n        /* \"#utility.yul\":3936:3961   */\n      gt\n        /* \"#utility.yul\":3933:4045   */\n      iszero\n      tag_86\n      jumpi\n        /* \"#utility.yul\":3964:4043   */\n      tag_87\n      tag_31\n      jump\t// in\n    tag_87:\n        /* \"#utility.yul\":3933:4045   */\n    tag_86:\n        /* \"#utility.yul\":4054:4108   */\n      tag_88\n        /* \"#utility.yul\":4101:4107   */\n      dup5\n        /* \"#utility.yul\":4096:4099   */\n      dup3\n        /* \"#utility.yul\":4091:4094   */\n      dup6\n        /* \"#utility.yul\":4054:4108   */\n      tag_37\n      jump\t// in\n    tag_88:\n        /* \"#utility.yul\":3773:4114   */\n      pop\n        /* \"#utility.yul\":3689:4114   */\n      swap4\n      swap3\n      pop\n      pop\n      pop\n      jump\t// out\n        /* \"#utility.yul\":4134:4474   */\n    tag_39:\n        /* \"#utility.yul\":4190:4195   */\n      0x00\n        /* \"#utility.yul\":4239:4242   */\n      dup3\n        /* \"#utility.yul\":4232:4236   */\n      0x1f\n        /* \"#utility.yul\":4224:4230   */\n      dup4\n        /* \"#utility.yul\":4220:4237   */\n      add\n        /* \"#utility.yul\":4216:4243   */\n      slt\n        /* \"#utility.yul\":4206:4328   */\n      tag_90\n      jumpi\n        /* \"#utility.yul\":4247:4326   */\n      tag_91\n      tag_30\n      jump\t// in\n    tag_91:\n        /* \"#utility.yul\":4206:4328   */\n    tag_90:\n        /* \"#utility.yul\":4364:4370   */\n      dup2\n        /* \"#utility.yul\":4351:4371   */\n      calldataload\n        /* \"#utility.yul\":4389:4468   */\n      tag_92\n        /* \"#utility.yul\":4464:4467   */\n      dup5\n        /* \"#utility.yul\":4456:4462   */\n      dup3\n        /* \"#utility.yul\":4449:4453   */\n      0x20\n        /* \"#utility.yul\":4441:4447   */\n      dup7\n        /* \"#utility.yul\":4437:4454   */\n      add\n        /* \"#utility.yul\":4389:4468   */\n      tag_38\n      jump\t// in\n    tag_92:\n        /* \"#utility.yul\":4380:4468   */\n      swap2\n      pop\n        /* \"#utility.yul\":4196:4474   */\n      pop\n        /* \"#utility.yul\":4134:4474   */\n      swap3\n      swap2\n      pop\n      pop\n      jump\t// out\n        /* \"#utility.yul\":4480:4602   */\n    tag_40:\n        /* \"#utility.yul\":4553:4577   */\n      tag_94\n        /* \"#utility.yul\":4571:4576   */\n      dup2\n        /* \"#utility.yul\":4553:4577   */\n      tag_22\n      jump\t// in\n    tag_94:\n        /* \"#utility.yul\":4546:4551   */\n      dup2\n        /* \"#utility.yul\":4543:4578   */\n      eq\n        /* \"#utility.yul\":4533:4596   */\n      tag_95\n      jumpi\n        /* \"#utility.yul\":4592:4593   */\n      0x00\n        /* \"#utility.yul\":4589:4590   */\n      dup1\n        /* \"#utility.yul\":4582:4594   */\n      revert\n        /* \"#utility.yul\":4533:4596   */\n    tag_95:\n        /* \"#utility.yul\":4480:4602   */\n      pop\n      jump\t// out\n        /* \"#utility.yul\":4608:4747   */\n    tag_41:\n        /* \"#utility.yul\":4654:4659   */\n      0x00\n        /* \"#utility.yul\":4692:4698   */\n      dup2\n        /* \"#utility.yul\":4679:4699   */\n      calldataload\n        /* \"#utility.yul\":4670:4699   */\n      swap1\n      pop\n        /* \"#utility.yul\":4708:4741   */\n      tag_97\n        /* \"#utility.yul\":4735:4740   */\n      dup2\n        /* \"#utility.yul\":4708:4741   */\n      tag_40\n      jump\t// in\n    tag_97:\n        /* \"#utility.yul\":4608:4747   */\n      swap3\n      swap2\n      pop\n      pop\n      jump\t// out\n        /* \"#utility.yul\":4753:5407   */\n    tag_10:\n        /* \"#utility.yul\":4831:4837   */\n      0x00\n        /* \"#utility.yul\":4839:4845   */\n      dup1\n        /* \"#utility.yul\":4888:4890   */\n      0x40\n        /* \"#utility.yul\":4876:4885   */\n      dup4\n        /* \"#utility.yul\":4867:4874   */\n      dup6\n        /* \"#utility.yul\":4863:4886   */\n      sub\n        /* \"#utility.yul\":4859:4891   */\n      slt\n        /* \"#utility.yul\":4856:4975   */\n      iszero\n      tag_99\n      jumpi\n        /* \"#utility.yul\":4894:4973   */\n      tag_100\n      tag_28\n      jump\t// in\n    tag_100:\n        /* \"#utility.yul\":4856:4975   */\n    tag_99:\n        /* \"#utility.yul\":5042:5043   */\n      0x00\n        /* \"#utility.yul\":5031:5040   */\n      dup4\n        /* \"#utility.yul\":5027:5044   */\n      add\n        /* \"#utility.yul\":5014:5045   */\n      calldataload\n        /* \"#utility.yul\":5072:5090   */\n      0xffffffffffffffff\n        /* \"#utility.yul\":5064:5070   */\n      dup2\n        /* \"#utility.yul\":5061:5091   */\n      gt\n        /* \"#utility.yul\":5058:5175   */\n      iszero\n      tag_101\n      jumpi\n        /* \"#utility.yul\":5094:5173   */\n      tag_102\n      tag_29\n      jump\t// in\n    tag_102:\n        /* \"#utility.yul\":5058:5175   */\n    tag_101:\n        /* \"#utility.yul\":5199:5262   */\n      tag_103\n        /* \"#utility.yul\":5254:5261   */\n      dup6\n        /* \"#utility.yul\":5245:5251   */\n      dup3\n        /* \"#utility.yul\":5234:5243   */\n      dup7\n        /* \"#utility.yul\":5230:5252   */\n      add\n        /* \"#utility.yul\":5199:5262   */\n      tag_39\n      jump\t// in\n    tag_103:\n        /* \"#utility.yul\":5189:5262   */\n      swap3\n      pop\n        /* \"#utility.yul\":4985:5272   */\n      pop\n        /* \"#utility.yul\":5311:5313   */\n      0x20\n        /* \"#utility.yul\":5337:5390   */\n      tag_104\n        /* \"#utility.yul\":5382:5389   */\n      dup6\n        /* \"#utility.yul\":5373:5379   */\n      dup3\n        /* \"#utility.yul\":5362:5371   */\n      dup7\n        /* \"#utility.yul\":5358:5380   */\n      add\n        /* \"#utility.yul\":5337:5390   */\n      tag_41\n      jump\t// in\n    tag_104:\n        /* \"#utility.yul\":5327:5390   */\n      swap2\n      pop\n        /* \"#utility.yul\":5282:5400   */\n      pop\n        /* \"#utility.yul\":4753:5407   */\n      swap3\n      pop\n      swap3\n      swap1\n      pop\n      jump\t// out\n        /* \"#utility.yul\":5413:5635   */\n    tag_13:\n        /* \"#utility.yul\":5506:5510   */\n      0x00\n        /* \"#utility.yul\":5544:5546   */\n      0x20\n        /* \"#utility.yul\":5533:5542   */\n      dup3\n        /* \"#utility.yul\":5529:5547   */\n      add\n        /* \"#utility.yul\":5521:5547   */\n      swap1\n      pop\n        /* \"#utility.yul\":5557:5628   */\n      tag_106\n        /* \"#utility.yul\":5625:5626   */\n      0x00\n        /* \"#utility.yul\":5614:5623   */\n      dup4\n        /* \"#utility.yul\":5610:5627   */\n      add\n        /* \"#utility.yul\":5601:5607   */\n      dup5\n        /* \"#utility.yul\":5557:5628   */\n      tag_23\n      jump\t// in\n    tag_106:\n        /* \"#utility.yul\":5413:5635   */\n      swap3\n      swap2\n      pop\n      pop\n      jump\t// out\n        /* \"#utility.yul\":5641:5740   */\n    tag_42:\n        /* \"#utility.yul\":5693:5699   */\n      0x00\n        /* \"#utility.yul\":5727:5732   */\n      dup2\n        /* \"#utility.yul\":5721:5733   */\n      mload\n        /* \"#utility.yul\":5711:5733   */\n      swap1\n      pop\n        /* \"#utility.yul\":5641:5740   */\n      swap2\n      swap1\n      pop\n      jump\t// out\n        /* \"#utility.yul\":5746:5992   */\n    tag_43:\n        /* \"#utility.yul\":5827:5828   */\n      0x00\n        /* \"#utility.yul\":5837:5950   */\n    tag_109:\n        /* \"#utility.yul\":5851:5857   */\n      dup4\n        /* \"#utility.yul\":5848:5849   */\n      dup2\n        /* \"#utility.yul\":5845:5858   */\n      lt\n        /* \"#utility.yul\":5837:5950   */\n      iszero\n      tag_111\n      jumpi\n        /* \"#utility.yul\":5936:5937   */\n      dup1\n        /* \"#utility.yul\":5931:5934   */\n      dup3\n        /* \"#utility.yul\":5927:5938   */\n      add\n        /* \"#utility.yul\":5921:5939   */\n      mload\n        /* \"#utility.yul\":5917:5918   */\n      dup2\n        /* \"#utility.yul\":5912:5915   */\n      dup5\n        /* \"#utility.yul\":5908:5919   */\n      add\n        /* \"#utility.yul\":5901:5940   */\n      mstore\n        /* \"#utility.yul\":5873:5875   */\n      0x20\n        /* \"#utility.yul\":5870:5871   */\n      dup2\n        /* \"#utility.yul\":5866:5876   */\n      add\n        /* \"#utility.yul\":5861:5876   */\n      swap1\n      pop\n        /* \"#utility.yul\":5837:5950   */\n      jump(tag_109)\n    tag_111:\n        /* \"#utility.yul\":5984:5985   */\n      0x00\n        /* \"#utility.yul\":5975:5981   */\n      dup5\n        /* \"#utility.yul\":5970:5973   */\n      dup5\n        /* \"#utility.yul\":5966:5982   */\n      add\n        /* \"#utility.yul\":5959:5986   */\n      mstore\n        /* \"#utility.yul\":5808:5992   */\n      pop\n        /* \"#utility.yul\":5746:5992   */\n      pop\n      pop\n      pop\n      jump\t// out\n        /* \"#utility.yul\":5998:6375   */\n    tag_44:\n        /* \"#utility.yul\":6086:6089   */\n      0x00\n        /* \"#utility.yul\":6114:6153   */\n      tag_113\n        /* \"#utility.yul\":6147:6152   */\n      dup3\n        /* \"#utility.yul\":6114:6153   */\n      tag_42\n      jump\t// in\n    tag_113:\n        /* \"#utility.yul\":6169:6240   */\n      tag_114\n        /* \"#utility.yul\":6233:6239   */\n      dup2\n        /* \"#utility.yul\":6228:6231   */\n      dup6\n        /* \"#utility.yul\":6169:6240   */\n      tag_24\n      jump\t// in\n    tag_114:\n        /* \"#utility.yul\":6162:6240   */\n      swap4\n      pop\n        /* \"#utility.yul\":6249:6314   */\n      tag_115\n        /* \"#utility.yul\":6307:6313   */\n      dup2\n        /* \"#utility.yul\":6302:6305   */\n      dup6\n        /* \"#utility.yul\":6295:6299   */\n      0x20\n        /* \"#utility.yul\":6288:6293   */\n      dup7\n        /* \"#utility.yul\":6284:6300   */\n      add\n        /* \"#utility.yul\":6249:6314   */\n      tag_43\n      jump\t// in\n    tag_115:\n        /* \"#utility.yul\":6339:6368   */\n      tag_116\n        /* \"#utility.yul\":6361:6367   */\n      dup2\n        /* \"#utility.yul\":6339:6368   */\n      tag_32\n      jump\t// in\n    tag_116:\n        /* \"#utility.yul\":6334:6337   */\n      dup5\n        /* \"#utility.yul\":6330:6369   */\n      add\n        /* \"#utility.yul\":6323:6369   */\n      swap2\n      pop\n        /* \"#utility.yul\":6090:6375   */\n      pop\n        /* \"#utility.yul\":5998:6375   */\n      swap3\n      swap2\n      pop\n      pop\n      jump\t// out\n        /* \"#utility.yul\":6381:6914   */\n    tag_16:\n        /* \"#utility.yul\":6550:6554   */\n      0x00\n        /* \"#utility.yul\":6588:6590   */\n      0x60\n        /* \"#utility.yul\":6577:6586   */\n      dup3\n        /* \"#utility.yul\":6573:6591   */\n      add\n        /* \"#utility.yul\":6565:6591   */\n      swap1\n      pop\n        /* \"#utility.yul\":6601:6672   */\n      tag_118\n        /* \"#utility.yul\":6669:6670   */\n      0x00\n        /* \"#utility.yul\":6658:6667   */\n      dup4\n        /* \"#utility.yul\":6654:6671   */\n      add\n        /* \"#utility.yul\":6645:6651   */\n      dup7\n        /* \"#utility.yul\":6601:6672   */\n      tag_21\n      jump\t// in\n    tag_118:\n        /* \"#utility.yul\":6682:6754   */\n      tag_119\n        /* \"#utility.yul\":6750:6752   */\n      0x20\n        /* \"#utility.yul\":6739:6748   */\n      dup4\n        /* \"#utility.yul\":6735:6753   */\n      add\n        /* \"#utility.yul\":6726:6732   */\n      dup6\n        /* \"#utility.yul\":6682:6754   */\n      tag_23\n      jump\t// in\n    tag_119:\n        /* \"#utility.yul\":6801:6810   */\n      dup2\n        /* \"#utility.yul\":6795:6799   */\n      dup2\n        /* \"#utility.yul\":6791:6811   */\n      sub\n        /* \"#utility.yul\":6786:6788   */\n      0x40\n        /* \"#utility.yul\":6775:6784   */\n      dup4\n        /* \"#utility.yul\":6771:6789   */\n      add\n        /* \"#utility.yul\":6764:6812   */\n      mstore\n        /* \"#utility.yul\":6829:6907   */\n      tag_120\n        /* \"#utility.yul\":6902:6906   */\n      dup2\n        /* \"#utility.yul\":6893:6899   */\n      dup5\n        /* \"#utility.yul\":6829:6907   */\n      tag_44\n      jump\t// in\n    tag_120:\n        /* \"#utility.yul\":6821:6907   */\n      swap1\n      pop\n        /* \"#utility.yul\":6381:6914   */\n      swap5\n      swap4\n      pop\n      pop\n      pop\n      pop\n      jump\t// out\n        /* \"#utility.yul\":6920:7100   */\n    tag_45:\n        /* \"#utility.yul\":6968:7045   */\n      0x4e487b7100000000000000000000000000000000000000000000000000000000\n        /* \"#utility.yul\":6965:6966   */\n      0x00\n        /* \"#utility.yul\":6958:7046   */\n      mstore\n        /* \"#utility.yul\":7065:7069   */\n      0x11\n        /* \"#utility.yul\":7062:7063   */\n      0x04\n        /* \"#utility.yul\":7055:7070   */\n      mstore\n        /* \"#utility.yul\":7089:7093   */\n      0x24\n        /* \"#utility.yul\":7086:7087   */\n      0x00\n        /* \"#utility.yul\":7079:7094   */\n      revert\n        /* \"#utility.yul\":7106:7297   */\n    tag_18:\n        /* \"#utility.yul\":7146:7149   */\n      0x00\n        /* \"#utility.yul\":7165:7185   */\n      tag_123\n        /* \"#utility.yul\":7183:7184   */\n      dup3\n        /* \"#utility.yul\":7165:7185   */\n      tag_22\n      jump\t// in\n    tag_123:\n        /* \"#utility.yul\":7160:7185   */\n      swap2\n      pop\n        /* \"#utility.yul\":7199:7219   */\n      tag_124\n        /* \"#utility.yul\":7217:7218   */\n      dup4\n        /* \"#utility.yul\":7199:7219   */\n      tag_22\n      jump\t// in\n    tag_124:\n        /* \"#utility.yul\":7194:7219   */\n      swap3\n      pop\n        /* \"#utility.yul\":7242:7243   */\n      dup3\n        /* \"#utility.yul\":7239:7240   */\n      dup3\n        /* \"#utility.yul\":7235:7244   */\n      add\n        /* \"#utility.yul\":7228:7244   */\n      swap1\n      pop\n        /* \"#utility.yul\":7263:7266   */\n      dup1\n        /* \"#utility.yul\":7260:7261   */\n      dup3\n        /* \"#utility.yul\":7257:7267   */\n      gt\n        /* \"#utility.yul\":7254:7290   */\n      iszero\n      tag_125\n      jumpi\n        /* \"#utility.yul\":7270:7288   */\n      tag_126\n      tag_45\n      jump\t// in\n    tag_126:\n        /* \"#utility.yul\":7254:7290   */\n    tag_125:\n        /* \"#utility.yul\":7106:7297   */\n      swap3\n      swap2\n      pop\n      pop\n      jump\t// out\n\n    auxdata: 0xa2646970667358221220f53005d9d7f6567b08656742b7859169d58633a8c37b71e411deee0268a291d364736f6c63430008120033\n}\n",
				"bytecode": {
					"linkReferences": {},
					"object": "608060405234801561001057600080fd5b50610515806100206000396000f3fe6080604052600436106100225760003560e01c806324ccab8f1461005e57610023565b5b7f4ea43b897a5f947a4940ce8fc2485d2854dcf256c52754394f1804723a091a213334604051610054929190610197565b60405180910390a1005b61007860048036038101906100739190610359565b61008e565b60405161008591906103b5565b60405180910390f35b60007f4ea43b897a5f947a4940ce8fc2485d2854dcf256c52754394f1804723a091a213334856040516100c39392919061043e565b60405180910390a16001826100d891906104ab565b905092915050565b600073ffffffffffffffffffffffffffffffffffffffff82169050919050565b600061010b826100e0565b9050919050565b61011b81610100565b82525050565b6000819050919050565b61013481610121565b82525050565b600082825260208201905092915050565b7f66616c6c6261636b63616c6c6564000000000000000000000000000000000000600082015250565b6000610181600e8361013a565b915061018c8261014b565b602082019050919050565b60006060820190506101ac6000830185610112565b6101b9602083018461012b565b81810360408301526101ca81610174565b90509392505050565b6000604051905090565b600080fd5b600080fd5b600080fd5b600080fd5b6000601f19601f8301169050919050565b7f4e487b7100000000000000000000000000000000000000000000000000000000600052604160045260246000fd5b61023a826101f1565b810181811067ffffffffffffffff8211171561025957610258610202565b5b80604052505050565b600061026c6101d3565b90506102788282610231565b919050565b600067ffffffffffffffff82111561029857610297610202565b5b6102a1826101f1565b9050602081019050919050565b82818337600083830152505050565b60006102d06102cb8461027d565b610262565b9050828152602081018484840111156102ec576102eb6101ec565b5b6102f78482856102ae565b509392505050565b600082601f830112610314576103136101e7565b5b81356103248482602086016102bd565b91505092915050565b61033681610121565b811461034157600080fd5b50565b6000813590506103538161032d565b92915050565b600080604083850312156103705761036f6101dd565b5b600083013567ffffffffffffffff81111561038e5761038d6101e2565b5b61039a858286016102ff565b92505060206103ab85828601610344565b9150509250929050565b60006020820190506103ca600083018461012b565b92915050565b600081519050919050565b60005b838110156103f95780820151818401526020810190506103de565b60008484015250505050565b6000610410826103d0565b61041a818561013a565b935061042a8185602086016103db565b610433816101f1565b840191505092915050565b60006060820190506104536000830186610112565b610460602083018561012b565b81810360408301526104728184610405565b9050949350505050565b7f4e487b7100000000000000000000000000000000000000000000000000000000600052601160045260246000fd5b60006104b682610121565b91506104c183610121565b92508282019050808211156104d9576104d861047c565b5b9291505056fea2646970667358221220f53005d9d7f6567b08656742b7859169d58633a8c37b71e411deee0268a291d364736f6c63430008120033",
					"opcodes": "PUSH1 0x80 PUSH1 0x40 MSTORE CALLVALUE DUP1 ISZERO PUSH2 0x10 JUMPI PUSH1 0x0 DUP1 REVERT JUMPDEST POP PUSH2 0x515 DUP1 PUSH2 0x20 PUSH1 0x0 CODECOPY PUSH1 0x0 RETURN INVALID PUSH1 0x80 PUSH1 0x40 MSTORE PUSH1 0x4 CALLDATASIZE LT PUSH2 0x22 JUMPI PUSH1 0x0 CALLDATALOAD PUSH1 0xE0 SHR DUP1 PUSH4 0x24CCAB8F EQ PUSH2 0x5E JUMPI PUSH2 0x23 JUMP JUMPDEST JUMPDEST PUSH32 0x4EA43B897A5F947A4940CE8FC2485D2854DCF256C52754394F1804723A091A21 CALLER CALLVALUE PUSH1 0x40 MLOAD PUSH2 0x54 SWAP3 SWAP2 SWAP1 PUSH2 0x197 JUMP JUMPDEST PUSH1 0x40 MLOAD DUP1 SWAP2 SUB SWAP1 LOG1 STOP JUMPDEST PUSH2 0x78 PUSH1 0x4 DUP1 CALLDATASIZE SUB DUP2 ADD SWAP1 PUSH2 0x73 SWAP2 SWAP1 PUSH2 0x359 JUMP JUMPDEST PUSH2 0x8E JUMP JUMPDEST PUSH1 0x40 MLOAD PUSH2 0x85 SWAP2 SWAP1 PUSH2 0x3B5 JUMP JUMPDEST PUSH1 0x40 MLOAD DUP1 SWAP2 SUB SWAP1 RETURN JUMPDEST PUSH1 0x0 PUSH32 0x4EA43B897A5F947A4940CE8FC2485D2854DCF256C52754394F1804723A091A21 CALLER CALLVALUE DUP6 PUSH1 0x40 MLOAD PUSH2 0xC3 SWAP4 SWAP3 SWAP2 SWAP1 PUSH2 0x43E JUMP JUMPDEST PUSH1 0x40 MLOAD DUP1 SWAP2 SUB SWAP1 LOG1 PUSH1 0x1 DUP3 PUSH2 0xD8 SWAP2 SWAP1 PUSH2 0x4AB JUMP JUMPDEST SWAP1 POP SWAP3 SWAP2 POP POP JUMP JUMPDEST PUSH1 0x0 PUSH20 0xFFFFFFFFFFFFFFFFFFFFFFFFFFFFFFFFFFFFFFFF DUP3 AND SWAP1 POP SWAP2 SWAP1 POP JUMP JUMPDEST PUSH1 0x0 PUSH2 0x10B DUP3 PUSH2 0xE0 JUMP JUMPDEST SWAP1 POP SWAP2 SWAP1 POP JUMP JUMPDEST PUSH2 0x11B DUP2 PUSH2 0x100 JUMP JUMPDEST DUP3 MSTORE POP POP JUMP JUMPDEST PUSH1 0x0 DUP2 SWAP1 POP SWAP2 SWAP1 POP JUMP JUMPDEST PUSH2 0x134 DUP2 PUSH2 0x121 JUMP JUMPDEST DUP3 MSTORE POP POP JUMP JUMPDEST PUSH1 0x0 DUP3 DUP3 MSTORE PUSH1 0x20 DUP3 ADD SWAP1 POP SWAP3 SWAP2 POP POP JUMP JUMPDEST PUSH32 0x66616C6C6261636B63616C6C6564000000000000000000000000000000000000 PUSH1 0x0 DUP3 ADD MSTORE POP JUMP JUMPDEST PUSH1 0x0 PUSH2 0x181 PUSH1 0xE DUP4 PUSH2 0x13A JUMP JUMPDEST SWAP2 POP PUSH2 0x18C DUP3 PUSH2 0x14B JUMP JUMPDEST PUSH1 0x20 DUP3 ADD SWAP1 POP SWAP2 SWAP1 POP JUMP JUMPDEST PUSH1 0x0 PUSH1 0x60 DUP3 ADD SWAP1 POP PUSH2 0x1AC PUSH1 0x0 DUP4 ADD DUP6 PUSH2 0x112 JUMP JUMPDEST PUSH2 0x1B9 PUSH1 0x20 DUP4 ADD DUP5 PUSH2 0x12B JUMP JUMPDEST DUP2 DUP2 SUB PUSH1 0x40 DUP4 ADD MSTORE PUSH2 0x1CA DUP2 PUSH2 0x174 JUMP JUMPDEST SWAP1 POP SWAP4 SWAP3 POP POP POP JUMP JUMPDEST PUSH1 0x0 PUSH1 0x40 MLOAD SWAP1 POP SWAP1 JUMP JUMPDEST PUSH1 0x0 DUP1 REVERT JUMPDEST PUSH1 0x0 DUP1 REVERT JUMPDEST PUSH1 0x0 DUP1 REVERT JUMPDEST PUSH1 0x0 DUP1 REVERT JUMPDEST PUSH1 0x0 PUSH1 0x1F NOT PUSH1 0x1F DUP4 ADD AND SWAP1 POP SWAP2 SWAP1 POP JUMP JUMPDEST PUSH32 0x4E487B7100000000000000000000000000000000000000000000000000000000 PUSH1 0x0 MSTORE PUSH1 0x41 PUSH1 0x4 MSTORE PUSH1 0x24 PUSH1 0x0 REVERT JUMPDEST PUSH2 0x23A DUP3 PUSH2 0x1F1 JUMP JUMPDEST DUP2 ADD DUP2 DUP2 LT PUSH8 0xFFFFFFFFFFFFFFFF DUP3 GT OR ISZERO PUSH2 0x259 JUMPI PUSH2 0x258 PUSH2 0x202 JUMP JUMPDEST JUMPDEST DUP1 PUSH1 0x40 MSTORE POP POP POP JUMP JUMPDEST PUSH1 0x0 PUSH2 0x26C PUSH2 0x1D3 JUMP JUMPDEST SWAP1 POP PUSH2 0x278 DUP3 DUP3 PUSH2 0x231 JUMP JUMPDEST SWAP2 SWAP1 POP JUMP JUMPDEST PUSH1 0x0 PUSH8 0xFFFFFFFFFFFFFFFF DUP3 GT ISZERO PUSH2 0x298 JUMPI PUSH2 0x297 PUSH2 0x202 JUMP JUMPDEST JUMPDEST PUSH2 0x2A1 DUP3 PUSH2 0x1F1 JUMP JUMPDEST SWAP1 POP PUSH1 0x20 DUP2 ADD SWAP1 POP SWAP2 SWAP1 POP JUMP JUMPDEST DUP3 DUP2 DUP4 CALLDATACOPY PUSH1 0x0 DUP4 DUP4 ADD MSTORE POP POP POP JUMP JUMPDEST PUSH1 0x0 PUSH2 0x2D0 PUSH2 0x2CB DUP5 PUSH2 0x27D JUMP JUMPDEST PUSH2 0x262 JUMP JUMPDEST SWAP1 POP DUP3 DUP2 MSTORE PUSH1 0x20 DUP2 ADD DUP5 DUP5 DUP5 ADD GT ISZERO PUSH2 0x2EC JUMPI PUSH2 0x2EB PUSH2 0x1EC JUMP JUMPDEST JUMPDEST PUSH2 0x2F7 DUP5 DUP3 DUP6 PUSH2 0x2AE JUMP JUMPDEST POP SWAP4 SWAP3 POP POP POP JUMP JUMPDEST PUSH1 0x0 DUP3 PUSH1 0x1F DUP4 ADD SLT PUSH2 0x314 JUMPI PUSH2 0x313 PUSH2 0x1E7 JUMP JUMPDEST JUMPDEST DUP2 CALLDATALOAD PUSH2 0x324 DUP5 DUP3 PUSH1 0x20 DUP7 ADD PUSH2 0x2BD JUMP JUMPDEST SWAP2 POP POP SWAP3 SWAP2 POP POP JUMP JUMPDEST PUSH2 0x336 DUP2 PUSH2 0x121 JUMP JUMPDEST DUP2 EQ PUSH2 0x341 JUMPI PUSH1 0x0 DUP1 REVERT JUMPDEST POP JUMP JUMPDEST PUSH1 0x0 DUP2 CALLDATALOAD SWAP1 POP PUSH2 0x353 DUP2 PUSH2 0x32D JUMP JUMPDEST SWAP3 SWAP2 POP POP JUMP JUMPDEST PUSH1 0x0 DUP1 PUSH1 0x40 DUP4 DUP6 SUB SLT ISZERO PUSH2 0x370 JUMPI PUSH2 0x36F PUSH2 0x1DD JUMP JUMPDEST JUMPDEST PUSH1 0x0 DUP4 ADD CALLDATALOAD PUSH8 0xFFFFFFFFFFFFFFFF DUP2 GT ISZERO PUSH2 0x38E JUMPI PUSH2 0x38D PUSH2 0x1E2 JUMP JUMPDEST JUMPDEST PUSH2 0x39A DUP6 DUP3 DUP7 ADD PUSH2 0x2FF JUMP JUMPDEST SWAP3 POP POP PUSH1 0x20 PUSH2 0x3AB DUP6 DUP3 DUP7 ADD PUSH2 0x344 JUMP JUMPDEST SWAP2 POP POP SWAP3 POP SWAP3 SWAP1 POP JUMP JUMPDEST PUSH1 0x0 PUSH1 0x20 DUP3 ADD SWAP1 POP PUSH2 0x3CA PUSH1 0x0 DUP4 ADD DUP5 PUSH2 0x12B JUMP JUMPDEST SWAP3 SWAP2 POP POP JUMP JUMPDEST PUSH1 0x0 DUP2 MLOAD SWAP1 POP SWAP2 SWAP1 POP JUMP JUMPDEST PUSH1 0x0 JUMPDEST DUP4 DUP2 LT ISZERO PUSH2 0x3F9 JUMPI DUP1 DUP3 ADD MLOAD DUP2 DUP5 ADD MSTORE PUSH1 0x20 DUP2 ADD SWAP1 POP PUSH2 0x3DE JUMP JUMPDEST PUSH1 0x0 DUP5 DUP5 ADD MSTORE POP POP POP POP JUMP JUMPDEST PUSH1 0x0 PUSH2 0x410 DUP3 PUSH2 0x3D0 JUMP JUMPDEST PUSH2 0x41A DUP2 DUP6 PUSH2 0x13A JUMP JUMPDEST SWAP4 POP PUSH2 0x42A DUP2 DUP6 PUSH1 0x20 DUP7 ADD PUSH2 0x3DB JUMP JUMPDEST PUSH2 0x433 DUP2 PUSH2 0x1F1 JUMP JUMPDEST DUP5 ADD SWAP2 POP POP SWAP3 SWAP2 POP POP JUMP JUMPDEST PUSH1 0x0 PUSH1 0x60 DUP3 ADD SWAP1 POP PUSH2 0x453 PUSH1 0x0 DUP4 ADD DUP7 PUSH2 0x112 JUMP JUMPDEST PUSH2 0x460 PUSH1 0x20 DUP4 ADD DUP6 PUSH2 0x12B JUMP JUMPDEST DUP2 DUP2 SUB PUSH1 0x40 DUP4 ADD MSTORE PUSH2 0x472 DUP2 DUP5 PUSH2 0x405 JUMP JUMPDEST SWAP1 POP SWAP5 SWAP4 POP POP POP POP JUMP JUMPDEST PUSH32 0x4E487B7100000000000000000000000000000000000000000000000000000000 PUSH1 0x0 MSTORE PUSH1 0x11 PUSH1 0x4 MSTORE PUSH1 0x24 PUSH1 0x0 REVERT JUMPDEST PUSH1 0x0 PUSH2 0x4B6 DUP3 PUSH2 0x121 JUMP JUMPDEST SWAP2 POP PUSH2 0x4C1 DUP4 PUSH2 0x121 JUMP JUMPDEST SWAP3 POP DUP3 DUP3 ADD SWAP1 POP DUP1 DUP3 GT ISZERO PUSH2 0x4D9 JUMPI PUSH2 0x4D8 PUSH2 0x47C JUMP JUMPDEST JUMPDEST SWAP3 SWAP2 POP POP JUMP INVALID LOG2 PUSH5 0x6970667358 0x22 SLT KECCAK256 CREATE2 ADDRESS SDIV 0xD9 0xD7 0xF6 JUMP PUSH28 0x8656742B7859169D58633A8C37B71E411DEEE0268A291D364736F6C PUSH4 0x43000812 STOP CALLER "
				},
				"gasEstimates": {
					"creation": {
						"codeDepositCost": "260200",
						"executionCost": "300",
						"totalCost": "260500"
					},
					"external": {
						"": "2652",
						"foo(string,uint256)": "infinite"
					}
				},
				"methodIdentifiers": {
					"foo(string,uint256)": "24ccab8f"
				}
			},
			"storageLayout": {
				"storage": [],
				"types": null
			},
			"userdoc": {
				"kind": "user",
				"methods": {},
				"version": 1
			}
		}
	}
}