{
	"contracts/ZombieGame.sol": {
		"GetZombie": {
			"abi": [
				{
					"inputs": [
						{
							"internalType": "uint256",
							"name": "id",
							"type": "uint256"
						}
					],
					"name": "BuyOnRent",
					"outputs": [],
					"stateMutability": "nonpayable",
					"type": "function"
				},
				{
					"inputs": [
						{
							"internalType": "string",
							"name": "plan",
							"type": "string"
						},
						{
							"internalType": "string",
							"name": "name",
							"type": "string"
						}
					],
					"name": "BuyZombie",
					"outputs": [],
					"stateMutability": "nonpayable",
					"type": "function"
				},
				{
					"inputs": [],
					"name": "FreeZombie",
					"outputs": [],
					"stateMutability": "nonpayable",
					"type": "function"
				},
				{
					"inputs": [
						{
							"internalType": "address",
							"name": "_owner",
							"type": "address"
						}
					],
					"name": "ownerZombies",
					"outputs": [
						{
							"internalType": "uint256[]",
							"name": "",
							"type": "uint256[]"
						}
					],
					"stateMutability": "view",
					"type": "function"
				}
			],
			"devdoc": {
				"kind": "dev",
				"methods": {},
				"version": 1
			},
			"evm": {
				"assembly": "    /* \"contracts/ZombieGame.sol\":1096:2237  contract GetZombie is ZombieGame {... */\n  mstore(0x40, 0x80)\n    /* \"contracts/ZombieGame.sol\":446:454  10 ** 16 */\n  0x2386f26fc10000\n    /* \"contracts/ZombieGame.sol\":429:454  uint dnaLength = 10 ** 16 */\n  0x02\n  sstore\n    /* \"contracts/ZombieGame.sol\":1096:2237  contract GetZombie is ZombieGame {... */\n  callvalue\n  dup1\n  iszero\n  tag_1\n  jumpi\n  0x00\n  dup1\n  revert\ntag_1:\n  pop\n  dataSize(sub_0)\n  dup1\n  dataOffset(sub_0)\n  0x00\n  codecopy\n  0x00\n  return\nstop\n\nsub_0: assembly {\n        /* \"contracts/ZombieGame.sol\":1096:2237  contract GetZombie is ZombieGame {... */\n      mstore(0x40, 0x80)\n      callvalue\n      dup1\n      iszero\n      tag_1\n      jumpi\n      0x00\n      dup1\n      revert\n    tag_1:\n      pop\n      jumpi(tag_2, lt(calldatasize, 0x04))\n      shr(0xe0, calldataload(0x00))\n      dup1\n      0x3c956b05\n      eq\n      tag_3\n      jumpi\n      dup1\n      0xb81c3db7\n      eq\n      tag_4\n      jumpi\n      dup1\n      0xcb9940b7\n      eq\n      tag_5\n      jumpi\n      dup1\n      0xe70364d4\n      eq\n      tag_6\n      jumpi\n    tag_2:\n      0x00\n      dup1\n      revert\n        /* \"contracts/ZombieGame.sol\":1732:2232  function ownerZombies(address _owner) public view returns (uint[] memory) {... */\n    tag_3:\n      tag_7\n      0x04\n      dup1\n      calldatasize\n      sub\n      dup2\n      add\n      swap1\n      tag_8\n      swap2\n      swap1\n      tag_9\n      jump\t// in\n    tag_8:\n      tag_10\n      jump\t// in\n    tag_7:\n      mload(0x40)\n      tag_11\n      swap2\n      swap1\n      tag_12\n      jump\t// in\n    tag_11:\n      mload(0x40)\n      dup1\n      swap2\n      sub\n      swap1\n      return\n        /* \"contracts/ZombieGame.sol\":1138:1341  function FreeZombie() public {... */\n    tag_4:\n      tag_13\n      tag_14\n      jump\t// in\n    tag_13:\n      stop\n        /* \"contracts/ZombieGame.sol\":1349:1672  function BuyZombie(string memory plan, string memory name) public {... */\n    tag_5:\n      tag_15\n      0x04\n      dup1\n      calldatasize\n      sub\n      dup2\n      add\n      swap1\n      tag_16\n      swap2\n      swap1\n      tag_17\n      jump\t// in\n    tag_16:\n      tag_18\n      jump\t// in\n    tag_15:\n      stop\n        /* \"contracts/ZombieGame.sol\":1680:1725  function BuyOnRent(uint id) public {... */\n    tag_6:\n      tag_19\n      0x04\n      dup1\n      calldatasize\n      sub\n      dup2\n      add\n      swap1\n      tag_20\n      swap2\n      swap1\n      tag_21\n      jump\t// in\n    tag_20:\n      tag_22\n      jump\t// in\n    tag_19:\n      stop\n        /* \"contracts/ZombieGame.sol\":1732:2232  function ownerZombies(address _owner) public view returns (uint[] memory) {... */\n    tag_10:\n        /* \"contracts/ZombieGame.sol\":1791:1804  uint[] memory */\n      0x60\n        /* \"contracts/ZombieGame.sol\":1816:1844  uint[] memory OwnerZombiesId */\n      0x00\n        /* \"contracts/ZombieGame.sol\":1858:1869  ZombieCount */\n      0x01\n        /* \"contracts/ZombieGame.sol\":1858:1877  ZombieCount[_owner] */\n      0x00\n        /* \"contracts/ZombieGame.sol\":1870:1876  _owner */\n      dup5\n        /* \"contracts/ZombieGame.sol\":1858:1877  ZombieCount[_owner] */\n      0xffffffffffffffffffffffffffffffffffffffff\n      and\n      0xffffffffffffffffffffffffffffffffffffffff\n      and\n      dup2\n      mstore\n      0x20\n      add\n      swap1\n      dup2\n      mstore\n      0x20\n      add\n      0x00\n      keccak256\n      sload\n        /* \"contracts/ZombieGame.sol\":1847:1878  new uint[](ZombieCount[_owner]) */\n      0xffffffffffffffff\n      dup2\n      gt\n      iszero\n      tag_24\n      jumpi\n      tag_25\n      tag_26\n      jump\t// in\n    tag_25:\n    tag_24:\n      mload(0x40)\n      swap1\n      dup1\n      dup3\n      mstore\n      dup1\n      0x20\n      mul\n      0x20\n      add\n      dup3\n      add\n      0x40\n      mstore\n      dup1\n      iszero\n      tag_27\n      jumpi\n      dup2\n      0x20\n      add\n      0x20\n      dup3\n      mul\n      dup1\n      calldatasize\n      dup4\n      calldatacopy\n      dup1\n      dup3\n      add\n      swap2\n      pop\n      pop\n      swap1\n      pop\n    tag_27:\n      pop\n        /* \"contracts/ZombieGame.sol\":1816:1878  uint[] memory OwnerZombiesId = new uint[](ZombieCount[_owner]) */\n      swap1\n      pop\n        /* \"contracts/ZombieGame.sol\":1986:1996  uint index */\n      0x00\n        /* \"contracts/ZombieGame.sol\":2022:2028  uint i */\n      dup1\n        /* \"contracts/ZombieGame.sol\":2017:2193  for (uint i = 0; i < zombies.length; i++) {... */\n    tag_28:\n        /* \"contracts/ZombieGame.sol\":2038:2045  zombies */\n      0x03\n        /* \"contracts/ZombieGame.sol\":2038:2052  zombies.length */\n      dup1\n      sload\n      swap1\n      pop\n        /* \"contracts/ZombieGame.sol\":2034:2035  i */\n      dup2\n        /* \"contracts/ZombieGame.sol\":2034:2052  i < zombies.length */\n      lt\n        /* \"contracts/ZombieGame.sol\":2017:2193  for (uint i = 0; i < zombies.length; i++) {... */\n      iszero\n      tag_29\n      jumpi\n        /* \"contracts/ZombieGame.sol\":2096:2102  _owner */\n      dup5\n        /* \"contracts/ZombieGame.sol\":2078:2102  ZombieOwner[i] == _owner */\n      0xffffffffffffffffffffffffffffffffffffffff\n      and\n        /* \"contracts/ZombieGame.sol\":2078:2089  ZombieOwner */\n      0x00\n        /* \"contracts/ZombieGame.sol\":2078:2092  ZombieOwner[i] */\n      dup1\n        /* \"contracts/ZombieGame.sol\":2090:2091  i */\n      dup4\n        /* \"contracts/ZombieGame.sol\":2078:2092  ZombieOwner[i] */\n      dup2\n      mstore\n      0x20\n      add\n      swap1\n      dup2\n      mstore\n      0x20\n      add\n      0x00\n      keccak256\n      0x00\n      swap1\n      sload\n      swap1\n      0x0100\n      exp\n      swap1\n      div\n      0xffffffffffffffffffffffffffffffffffffffff\n      and\n        /* \"contracts/ZombieGame.sol\":2078:2102  ZombieOwner[i] == _owner */\n      0xffffffffffffffffffffffffffffffffffffffff\n      and\n      sub\n        /* \"contracts/ZombieGame.sol\":2074:2182  if (ZombieOwner[i] == _owner) {... */\n      tag_31\n      jumpi\n        /* \"contracts/ZombieGame.sol\":2143:2144  i */\n      dup1\n        /* \"contracts/ZombieGame.sol\":2119:2133  OwnerZombiesId */\n      dup4\n        /* \"contracts/ZombieGame.sol\":2134:2139  index */\n      dup4\n        /* \"contracts/ZombieGame.sol\":2119:2140  OwnerZombiesId[index] */\n      dup2\n      mload\n      dup2\n      lt\n      tag_32\n      jumpi\n      tag_33\n      tag_34\n      jump\t// in\n    tag_33:\n    tag_32:\n      0x20\n      mul\n      0x20\n      add\n      add\n        /* \"contracts/ZombieGame.sol\":2119:2144  OwnerZombiesId[index] = i */\n      dup2\n      dup2\n      mstore\n      pop\n      pop\n        /* \"contracts/ZombieGame.sol\":2159:2166  index++ */\n      dup2\n      dup1\n      tag_35\n      swap1\n      tag_36\n      jump\t// in\n    tag_35:\n      swap3\n      pop\n      pop\n        /* \"contracts/ZombieGame.sol\":2074:2182  if (ZombieOwner[i] == _owner) {... */\n    tag_31:\n        /* \"contracts/ZombieGame.sol\":2054:2057  i++ */\n      dup1\n      dup1\n      tag_37\n      swap1\n      tag_36\n      jump\t// in\n    tag_37:\n      swap2\n      pop\n      pop\n        /* \"contracts/ZombieGame.sol\":2017:2193  for (uint i = 0; i < zombies.length; i++) {... */\n      jump(tag_28)\n    tag_29:\n      pop\n        /* \"contracts/ZombieGame.sol\":2210:2224  OwnerZombiesId */\n      dup2\n        /* \"contracts/ZombieGame.sol\":2203:2224  return OwnerZombiesId */\n      swap3\n      pop\n      pop\n      pop\n        /* \"contracts/ZombieGame.sol\":1732:2232  function ownerZombies(address _owner) public view returns (uint[] memory) {... */\n      swap2\n      swap1\n      pop\n      jump\t// out\n        /* \"contracts/ZombieGame.sol\":1138:1341  function FreeZombie() public {... */\n    tag_14:\n        /* \"contracts/ZombieGame.sol\":1213:1214  0 */\n      0x00\n        /* \"contracts/ZombieGame.sol\":1186:1197  ZombieCount */\n      0x01\n        /* \"contracts/ZombieGame.sol\":1186:1209  ZombieCount[msg.sender] */\n      0x00\n        /* \"contracts/ZombieGame.sol\":1198:1208  msg.sender */\n      caller\n        /* \"contracts/ZombieGame.sol\":1186:1209  ZombieCount[msg.sender] */\n      0xffffffffffffffffffffffffffffffffffffffff\n      and\n      0xffffffffffffffffffffffffffffffffffffffff\n      and\n      dup2\n      mstore\n      0x20\n      add\n      swap1\n      dup2\n      mstore\n      0x20\n      add\n      0x00\n      keccak256\n      sload\n        /* \"contracts/ZombieGame.sol\":1186:1214  ZombieCount[msg.sender] == 0 */\n      eq\n        /* \"contracts/ZombieGame.sol\":1178:1238  require(ZombieCount[msg.sender] == 0, \"Already have 1 nft.\") */\n      tag_39\n      jumpi\n      mload(0x40)\n      0x08c379a000000000000000000000000000000000000000000000000000000000\n      dup2\n      mstore\n      0x04\n      add\n      tag_40\n      swap1\n      tag_41\n      jump\t// in\n    tag_40:\n      mload(0x40)\n      dup1\n      swap2\n      sub\n      swap1\n      revert\n    tag_39:\n        /* \"contracts/ZombieGame.sol\":1249:1323  createZombie(\"Free\", \"FreeZombie\", DnaGenerator(\"free\"), 1, 0, 0, 2, 0, 0) */\n      tag_42\n      mload(0x40)\n      dup1\n      0x40\n      add\n      0x40\n      mstore\n      dup1\n      0x04\n      dup2\n      mstore\n      0x20\n      add\n      0x4672656500000000000000000000000000000000000000000000000000000000\n      dup2\n      mstore\n      pop\n      mload(0x40)\n      dup1\n      0x40\n      add\n      0x40\n      mstore\n      dup1\n      0x0a\n      dup2\n      mstore\n      0x20\n      add\n      0x467265655a6f6d62696500000000000000000000000000000000000000000000\n      dup2\n      mstore\n      pop\n        /* \"contracts/ZombieGame.sol\":1284:1304  DnaGenerator(\"free\") */\n      tag_43\n      mload(0x40)\n      dup1\n      0x40\n      add\n      0x40\n      mstore\n      dup1\n      0x04\n      dup2\n      mstore\n      0x20\n      add\n      0x6672656500000000000000000000000000000000000000000000000000000000\n      dup2\n      mstore\n      pop\n        /* \"contracts/ZombieGame.sol\":1284:1296  DnaGenerator */\n      tag_44\n        /* \"contracts/ZombieGame.sol\":1284:1304  DnaGenerator(\"free\") */\n      jump\t// in\n    tag_43:\n        /* \"contracts/ZombieGame.sol\":1306:1307  1 */\n      0x01\n        /* \"contracts/ZombieGame.sol\":1309:1310  0 */\n      0x00\n        /* \"contracts/ZombieGame.sol\":1312:1313  0 */\n      dup1\n        /* \"contracts/ZombieGame.sol\":1315:1316  2 */\n      0x02\n        /* \"contracts/ZombieGame.sol\":1318:1319  0 */\n      0x00\n        /* \"contracts/ZombieGame.sol\":1321:1322  0 */\n      dup1\n        /* \"contracts/ZombieGame.sol\":1249:1261  createZombie */\n      tag_45\n        /* \"contracts/ZombieGame.sol\":1249:1323  createZombie(\"Free\", \"FreeZombie\", DnaGenerator(\"free\"), 1, 0, 0, 2, 0, 0) */\n      jump\t// in\n    tag_42:\n        /* \"contracts/ZombieGame.sol\":1138:1341  function FreeZombie() public {... */\n      jump\t// out\n        /* \"contracts/ZombieGame.sol\":1349:1672  function BuyZombie(string memory plan, string memory name) public {... */\n    tag_18:\n        /* \"contracts/ZombieGame.sol\":1470:1486  bytes(\"premium\") */\n      mload(0x40)\n      dup1\n      0x40\n      add\n      0x40\n      mstore\n      dup1\n      0x07\n      dup2\n      mstore\n      0x20\n      add\n      0x7072656d69756d00000000000000000000000000000000000000000000000000\n      dup2\n      mstore\n      pop\n        /* \"contracts/ZombieGame.sol\":1460:1487  keccak256(bytes(\"premium\")) */\n      dup1\n      mload\n      swap1\n      0x20\n      add\n      keccak256\n        /* \"contracts/ZombieGame.sol\":1450:1454  plan */\n      dup3\n        /* \"contracts/ZombieGame.sol\":1434:1456  keccak256(bytes(plan)) */\n      dup1\n      mload\n      swap1\n      0x20\n      add\n      keccak256\n        /* \"contracts/ZombieGame.sol\":1434:1487  keccak256(bytes(plan)) == keccak256(bytes(\"premium\")) */\n      eq\n        /* \"contracts/ZombieGame.sol\":1434:1544  keccak256(bytes(plan)) == keccak256(bytes(\"premium\")) || keccak256(bytes(plan)) == keccak256(bytes(\"Diamond\")) */\n      dup1\n      tag_47\n      jumpi\n      pop\n        /* \"contracts/ZombieGame.sol\":1527:1543  bytes(\"Diamond\") */\n      mload(0x40)\n      dup1\n      0x40\n      add\n      0x40\n      mstore\n      dup1\n      0x07\n      dup2\n      mstore\n      0x20\n      add\n      0x4469616d6f6e6400000000000000000000000000000000000000000000000000\n      dup2\n      mstore\n      pop\n        /* \"contracts/ZombieGame.sol\":1517:1544  keccak256(bytes(\"Diamond\")) */\n      dup1\n      mload\n      swap1\n      0x20\n      add\n      keccak256\n        /* \"contracts/ZombieGame.sol\":1507:1511  plan */\n      dup3\n        /* \"contracts/ZombieGame.sol\":1491:1513  keccak256(bytes(plan)) */\n      dup1\n      mload\n      swap1\n      0x20\n      add\n      keccak256\n        /* \"contracts/ZombieGame.sol\":1491:1544  keccak256(bytes(plan)) == keccak256(bytes(\"Diamond\")) */\n      eq\n        /* \"contracts/ZombieGame.sol\":1434:1544  keccak256(bytes(plan)) == keccak256(bytes(\"premium\")) || keccak256(bytes(plan)) == keccak256(bytes(\"Diamond\")) */\n    tag_47:\n        /* \"contracts/ZombieGame.sol\":1426:1564  require(keccak256(bytes(plan)) == keccak256(bytes(\"premium\")) || keccak256(bytes(plan)) == keccak256(bytes(\"Diamond\")),\"Correct Spelling\") */\n      tag_48\n      jumpi\n      mload(0x40)\n      0x08c379a000000000000000000000000000000000000000000000000000000000\n      dup2\n      mstore\n      0x04\n      add\n      tag_49\n      swap1\n      tag_50\n      jump\t// in\n    tag_49:\n      mload(0x40)\n      dup1\n      swap2\n      sub\n      swap1\n      revert\n    tag_48:\n        /* \"contracts/ZombieGame.sol\":1575:1583  uint Dna */\n      0x00\n        /* \"contracts/ZombieGame.sol\":1586:1604  DnaGenerator(name) */\n      tag_51\n        /* \"contracts/ZombieGame.sol\":1599:1603  name */\n      dup3\n        /* \"contracts/ZombieGame.sol\":1586:1598  DnaGenerator */\n      tag_44\n        /* \"contracts/ZombieGame.sol\":1586:1604  DnaGenerator(name) */\n      jump\t// in\n    tag_51:\n        /* \"contracts/ZombieGame.sol\":1575:1604  uint Dna = DnaGenerator(name) */\n      swap1\n      pop\n        /* \"contracts/ZombieGame.sol\":1615:1664  createZombie(plan, name, Dna, 5, 500, 0, 5, 0, 0) */\n      tag_52\n        /* \"contracts/ZombieGame.sol\":1628:1632  plan */\n      dup4\n        /* \"contracts/ZombieGame.sol\":1634:1638  name */\n      dup4\n        /* \"contracts/ZombieGame.sol\":1640:1643  Dna */\n      dup4\n        /* \"contracts/ZombieGame.sol\":1645:1646  5 */\n      0x05\n        /* \"contracts/ZombieGame.sol\":1648:1651  500 */\n      0x01f4\n        /* \"contracts/ZombieGame.sol\":1653:1654  0 */\n      0x00\n        /* \"contracts/ZombieGame.sol\":1656:1657  5 */\n      0x05\n        /* \"contracts/ZombieGame.sol\":1659:1660  0 */\n      0x00\n        /* \"contracts/ZombieGame.sol\":1662:1663  0 */\n      dup1\n        /* \"contracts/ZombieGame.sol\":1615:1627  createZombie */\n      tag_45\n        /* \"contracts/ZombieGame.sol\":1615:1664  createZombie(plan, name, Dna, 5, 500, 0, 5, 0, 0) */\n      jump\t// in\n    tag_52:\n        /* \"contracts/ZombieGame.sol\":1415:1672  {... */\n      pop\n        /* \"contracts/ZombieGame.sol\":1349:1672  function BuyZombie(string memory plan, string memory name) public {... */\n      pop\n      pop\n      jump\t// out\n        /* \"contracts/ZombieGame.sol\":1680:1725  function BuyOnRent(uint id) public {... */\n    tag_22:\n      pop\n      jump\t// out\n        /* \"contracts/ZombieGame.sol\":914:1085  function DnaGenerator(string memory name) internal view returns(uint){... */\n    tag_44:\n        /* \"contracts/ZombieGame.sol\":978:982  uint */\n      0x00\n        /* \"contracts/ZombieGame.sol\":994:1002  uint Dna */\n      dup1\n        /* \"contracts/ZombieGame.sol\":1037:1041  name */\n      dup3\n        /* \"contracts/ZombieGame.sol\":1020:1042  abi.encodePacked(name) */\n      add(0x20, mload(0x40))\n      tag_55\n      swap2\n      swap1\n      tag_56\n      jump\t// in\n    tag_55:\n      mload(0x40)\n      0x20\n      dup2\n      dup4\n      sub\n      sub\n      dup2\n      mstore\n      swap1\n      0x40\n      mstore\n        /* \"contracts/ZombieGame.sol\":1010:1043  keccak256(abi.encodePacked(name)) */\n      dup1\n      mload\n      swap1\n      0x20\n      add\n      keccak256\n        /* \"contracts/ZombieGame.sol\":1005:1044  uint(keccak256(abi.encodePacked(name))) */\n      0x00\n      shr\n        /* \"contracts/ZombieGame.sol\":994:1044  uint Dna = uint(keccak256(abi.encodePacked(name))) */\n      swap1\n      pop\n        /* \"contracts/ZombieGame.sol\":1068:1077  dnaLength */\n      sload(0x02)\n        /* \"contracts/ZombieGame.sol\":1062:1065  Dna */\n      dup2\n        /* \"contracts/ZombieGame.sol\":1062:1077  Dna % dnaLength */\n      tag_57\n      swap2\n      swap1\n      tag_58\n      jump\t// in\n    tag_57:\n        /* \"contracts/ZombieGame.sol\":1055:1077  return Dna % dnaLength */\n      swap2\n      pop\n      pop\n        /* \"contracts/ZombieGame.sol\":914:1085  function DnaGenerator(string memory name) internal view returns(uint){... */\n      swap2\n      swap1\n      pop\n      jump\t// out\n        /* \"contracts/ZombieGame.sol\":504:906  function createZombie(string memory Plan, string memory name, uint dna, uint level, uint xp, uint TotalMatch, uint MatchLeft, uint Wins, uint Looses) internal {... */\n    tag_45:\n        /* \"contracts/ZombieGame.sol\":674:681  zombies */\n      0x03\n        /* \"contracts/ZombieGame.sol\":687:764  zombieDetails(Plan ,name ,dna ,level ,xp ,TotalMatch, MatchLeft,Wins ,Looses) */\n      mload(0x40)\n      dup1\n      0x0120\n      add\n      0x40\n      mstore\n      dup1\n        /* \"contracts/ZombieGame.sol\":701:705  Plan */\n      dup12\n        /* \"contracts/ZombieGame.sol\":687:764  zombieDetails(Plan ,name ,dna ,level ,xp ,TotalMatch, MatchLeft,Wins ,Looses) */\n      dup2\n      mstore\n      0x20\n      add\n        /* \"contracts/ZombieGame.sol\":707:711  name */\n      dup11\n        /* \"contracts/ZombieGame.sol\":687:764  zombieDetails(Plan ,name ,dna ,level ,xp ,TotalMatch, MatchLeft,Wins ,Looses) */\n      dup2\n      mstore\n      0x20\n      add\n        /* \"contracts/ZombieGame.sol\":713:716  dna */\n      dup10\n        /* \"contracts/ZombieGame.sol\":687:764  zombieDetails(Plan ,name ,dna ,level ,xp ,TotalMatch, MatchLeft,Wins ,Looses) */\n      dup2\n      mstore\n      0x20\n      add\n        /* \"contracts/ZombieGame.sol\":718:723  level */\n      dup9\n        /* \"contracts/ZombieGame.sol\":687:764  zombieDetails(Plan ,name ,dna ,level ,xp ,TotalMatch, MatchLeft,Wins ,Looses) */\n      dup2\n      mstore\n      0x20\n      add\n        /* \"contracts/ZombieGame.sol\":725:727  xp */\n      dup8\n        /* \"contracts/ZombieGame.sol\":687:764  zombieDetails(Plan ,name ,dna ,level ,xp ,TotalMatch, MatchLeft,Wins ,Looses) */\n      dup2\n      mstore\n      0x20\n      add\n        /* \"contracts/ZombieGame.sol\":729:739  TotalMatch */\n      dup7\n        /* \"contracts/ZombieGame.sol\":687:764  zombieDetails(Plan ,name ,dna ,level ,xp ,TotalMatch, MatchLeft,Wins ,Looses) */\n      dup2\n      mstore\n      0x20\n      add\n        /* \"contracts/ZombieGame.sol\":741:750  MatchLeft */\n      dup6\n        /* \"contracts/ZombieGame.sol\":687:764  zombieDetails(Plan ,name ,dna ,level ,xp ,TotalMatch, MatchLeft,Wins ,Looses) */\n      dup2\n      mstore\n      0x20\n      add\n        /* \"contracts/ZombieGame.sol\":751:755  Wins */\n      dup5\n        /* \"contracts/ZombieGame.sol\":687:764  zombieDetails(Plan ,name ,dna ,level ,xp ,TotalMatch, MatchLeft,Wins ,Looses) */\n      dup2\n      mstore\n      0x20\n      add\n        /* \"contracts/ZombieGame.sol\":757:763  Looses */\n      dup4\n        /* \"contracts/ZombieGame.sol\":687:764  zombieDetails(Plan ,name ,dna ,level ,xp ,TotalMatch, MatchLeft,Wins ,Looses) */\n      dup2\n      mstore\n      pop\n        /* \"contracts/ZombieGame.sol\":674:765  zombies.push(zombieDetails(Plan ,name ,dna ,level ,xp ,TotalMatch, MatchLeft,Wins ,Looses)) */\n      swap1\n      dup1\n      0x01\n      dup2\n      sload\n      add\n      dup1\n      dup3\n      sstore\n      dup1\n      swap2\n      pop\n      pop\n      0x01\n      swap1\n      sub\n      swap1\n      0x00\n      mstore\n      keccak256(0x00, 0x20)\n      swap1\n      0x09\n      mul\n      add\n      0x00\n      swap1\n      swap2\n      swap1\n      swap2\n      swap1\n      swap2\n      pop\n      0x00\n      dup3\n      add\n      mload\n      dup2\n      0x00\n      add\n      swap1\n      dup2\n      tag_61\n      swap2\n      swap1\n      tag_62\n      jump\t// in\n    tag_61:\n      pop\n      0x20\n      dup3\n      add\n      mload\n      dup2\n      0x01\n      add\n      swap1\n      dup2\n      tag_63\n      swap2\n      swap1\n      tag_62\n      jump\t// in\n    tag_63:\n      pop\n      0x40\n      dup3\n      add\n      mload\n      dup2\n      0x02\n      add\n      sstore\n      0x60\n      dup3\n      add\n      mload\n      dup2\n      0x03\n      add\n      sstore\n      0x80\n      dup3\n      add\n      mload\n      dup2\n      0x04\n      add\n      sstore\n      0xa0\n      dup3\n      add\n      mload\n      dup2\n      0x05\n      add\n      sstore\n      0xc0\n      dup3\n      add\n      mload\n      dup2\n      0x06\n      add\n      sstore\n      0xe0\n      dup3\n      add\n      mload\n      dup2\n      0x07\n      add\n      sstore\n      0x0100\n      dup3\n      add\n      mload\n      dup2\n      0x08\n      add\n      sstore\n      pop\n      pop\n        /* \"contracts/ZombieGame.sol\":776:793  uint currentIndex */\n      0x00\n        /* \"contracts/ZombieGame.sol\":812:813  1 */\n      0x01\n        /* \"contracts/ZombieGame.sol\":796:803  zombies */\n      0x03\n        /* \"contracts/ZombieGame.sol\":796:810  zombies.length */\n      dup1\n      sload\n      swap1\n      pop\n        /* \"contracts/ZombieGame.sol\":796:813  zombies.length -1 */\n      tag_64\n      swap2\n      swap1\n      tag_65\n      jump\t// in\n    tag_64:\n        /* \"contracts/ZombieGame.sol\":776:813  uint currentIndex = zombies.length -1 */\n      swap1\n      pop\n        /* \"contracts/ZombieGame.sol\":824:835  ZombieCount */\n      0x01\n        /* \"contracts/ZombieGame.sol\":824:847  ZombieCount[msg.sender] */\n      0x00\n        /* \"contracts/ZombieGame.sol\":836:846  msg.sender */\n      caller\n        /* \"contracts/ZombieGame.sol\":824:847  ZombieCount[msg.sender] */\n      0xffffffffffffffffffffffffffffffffffffffff\n      and\n      0xffffffffffffffffffffffffffffffffffffffff\n      and\n      dup2\n      mstore\n      0x20\n      add\n      swap1\n      dup2\n      mstore\n      0x20\n      add\n      0x00\n      keccak256\n      0x00\n        /* \"contracts/ZombieGame.sol\":824:849  ZombieCount[msg.sender]++ */\n      dup2\n      sload\n      dup1\n      swap3\n      swap2\n      swap1\n      tag_66\n      swap1\n      tag_36\n      jump\t// in\n    tag_66:\n      swap2\n      swap1\n      pop\n      sstore\n      pop\n        /* \"contracts/ZombieGame.sol\":888:898  msg.sender */\n      caller\n        /* \"contracts/ZombieGame.sol\":860:871  ZombieOwner */\n      0x00\n        /* \"contracts/ZombieGame.sol\":860:885  ZombieOwner[currentIndex] */\n      dup1\n        /* \"contracts/ZombieGame.sol\":872:884  currentIndex */\n      dup4\n        /* \"contracts/ZombieGame.sol\":860:885  ZombieOwner[currentIndex] */\n      dup2\n      mstore\n      0x20\n      add\n      swap1\n      dup2\n      mstore\n      0x20\n      add\n      0x00\n      keccak256\n      0x00\n        /* \"contracts/ZombieGame.sol\":860:898  ZombieOwner[currentIndex] = msg.sender */\n      0x0100\n      exp\n      dup2\n      sload\n      dup2\n      0xffffffffffffffffffffffffffffffffffffffff\n      mul\n      not\n      and\n      swap1\n      dup4\n      0xffffffffffffffffffffffffffffffffffffffff\n      and\n      mul\n      or\n      swap1\n      sstore\n      pop\n        /* \"contracts/ZombieGame.sol\":663:906  {... */\n      pop\n        /* \"contracts/ZombieGame.sol\":504:906  function createZombie(string memory Plan, string memory name, uint dna, uint level, uint xp, uint TotalMatch, uint MatchLeft, uint Wins, uint Looses) internal {... */\n      pop\n      pop\n      pop\n      pop\n      pop\n      pop\n      pop\n      pop\n      pop\n      jump\t// out\n        /* \"#utility.yul\":7:82   */\n    tag_67:\n        /* \"#utility.yul\":40:46   */\n      0x00\n        /* \"#utility.yul\":73:75   */\n      0x40\n        /* \"#utility.yul\":67:76   */\n      mload\n        /* \"#utility.yul\":57:76   */\n      swap1\n      pop\n        /* \"#utility.yul\":7:82   */\n      swap1\n      jump\t// out\n        /* \"#utility.yul\":88:205   */\n    tag_68:\n        /* \"#utility.yul\":197:198   */\n      0x00\n        /* \"#utility.yul\":194:195   */\n      dup1\n        /* \"#utility.yul\":187:199   */\n      revert\n        /* \"#utility.yul\":211:328   */\n    tag_69:\n        /* \"#utility.yul\":320:321   */\n      0x00\n        /* \"#utility.yul\":317:318   */\n      dup1\n        /* \"#utility.yul\":310:322   */\n      revert\n        /* \"#utility.yul\":334:460   */\n    tag_70:\n        /* \"#utility.yul\":371:378   */\n      0x00\n        /* \"#utility.yul\":411:453   */\n      0xffffffffffffffffffffffffffffffffffffffff\n        /* \"#utility.yul\":404:409   */\n      dup3\n        /* \"#utility.yul\":400:454   */\n      and\n        /* \"#utility.yul\":389:454   */\n      swap1\n      pop\n        /* \"#utility.yul\":334:460   */\n      swap2\n      swap1\n      pop\n      jump\t// out\n        /* \"#utility.yul\":466:562   */\n    tag_71:\n        /* \"#utility.yul\":503:510   */\n      0x00\n        /* \"#utility.yul\":532:556   */\n      tag_127\n        /* \"#utility.yul\":550:555   */\n      dup3\n        /* \"#utility.yul\":532:556   */\n      tag_70\n      jump\t// in\n    tag_127:\n        /* \"#utility.yul\":521:556   */\n      swap1\n      pop\n        /* \"#utility.yul\":466:562   */\n      swap2\n      swap1\n      pop\n      jump\t// out\n        /* \"#utility.yul\":568:690   */\n    tag_72:\n        /* \"#utility.yul\":641:665   */\n      tag_129\n        /* \"#utility.yul\":659:664   */\n      dup2\n        /* \"#utility.yul\":641:665   */\n      tag_71\n      jump\t// in\n    tag_129:\n        /* \"#utility.yul\":634:639   */\n      dup2\n        /* \"#utility.yul\":631:666   */\n      eq\n        /* \"#utility.yul\":621:684   */\n      tag_130\n      jumpi\n        /* \"#utility.yul\":680:681   */\n      0x00\n        /* \"#utility.yul\":677:678   */\n      dup1\n        /* \"#utility.yul\":670:682   */\n      revert\n        /* \"#utility.yul\":621:684   */\n    tag_130:\n        /* \"#utility.yul\":568:690   */\n      pop\n      jump\t// out\n        /* \"#utility.yul\":696:835   */\n    tag_73:\n        /* \"#utility.yul\":742:747   */\n      0x00\n        /* \"#utility.yul\":780:786   */\n      dup2\n        /* \"#utility.yul\":767:787   */\n      calldataload\n        /* \"#utility.yul\":758:787   */\n      swap1\n      pop\n        /* \"#utility.yul\":796:829   */\n      tag_132\n        /* \"#utility.yul\":823:828   */\n      dup2\n        /* \"#utility.yul\":796:829   */\n      tag_72\n      jump\t// in\n    tag_132:\n        /* \"#utility.yul\":696:835   */\n      swap3\n      swap2\n      pop\n      pop\n      jump\t// out\n        /* \"#utility.yul\":841:1170   */\n    tag_9:\n        /* \"#utility.yul\":900:906   */\n      0x00\n        /* \"#utility.yul\":949:951   */\n      0x20\n        /* \"#utility.yul\":937:946   */\n      dup3\n        /* \"#utility.yul\":928:935   */\n      dup5\n        /* \"#utility.yul\":924:947   */\n      sub\n        /* \"#utility.yul\":920:952   */\n      slt\n        /* \"#utility.yul\":917:1036   */\n      iszero\n      tag_134\n      jumpi\n        /* \"#utility.yul\":955:1034   */\n      tag_135\n      tag_68\n      jump\t// in\n    tag_135:\n        /* \"#utility.yul\":917:1036   */\n    tag_134:\n        /* \"#utility.yul\":1075:1076   */\n      0x00\n        /* \"#utility.yul\":1100:1153   */\n      tag_136\n        /* \"#utility.yul\":1145:1152   */\n      dup5\n        /* \"#utility.yul\":1136:1142   */\n      dup3\n        /* \"#utility.yul\":1125:1134   */\n      dup6\n        /* \"#utility.yul\":1121:1143   */\n      add\n        /* \"#utility.yul\":1100:1153   */\n      tag_73\n      jump\t// in\n    tag_136:\n        /* \"#utility.yul\":1090:1153   */\n      swap2\n      pop\n        /* \"#utility.yul\":1046:1163   */\n      pop\n        /* \"#utility.yul\":841:1170   */\n      swap3\n      swap2\n      pop\n      pop\n      jump\t// out\n        /* \"#utility.yul\":1176:1290   */\n    tag_74:\n        /* \"#utility.yul\":1243:1249   */\n      0x00\n        /* \"#utility.yul\":1277:1282   */\n      dup2\n        /* \"#utility.yul\":1271:1283   */\n      mload\n        /* \"#utility.yul\":1261:1283   */\n      swap1\n      pop\n        /* \"#utility.yul\":1176:1290   */\n      swap2\n      swap1\n      pop\n      jump\t// out\n        /* \"#utility.yul\":1296:1480   */\n    tag_75:\n        /* \"#utility.yul\":1395:1406   */\n      0x00\n        /* \"#utility.yul\":1429:1435   */\n      dup3\n        /* \"#utility.yul\":1424:1427   */\n      dup3\n        /* \"#utility.yul\":1417:1436   */\n      mstore\n        /* \"#utility.yul\":1469:1473   */\n      0x20\n        /* \"#utility.yul\":1464:1467   */\n      dup3\n        /* \"#utility.yul\":1460:1474   */\n      add\n        /* \"#utility.yul\":1445:1474   */\n      swap1\n      pop\n        /* \"#utility.yul\":1296:1480   */\n      swap3\n      swap2\n      pop\n      pop\n      jump\t// out\n        /* \"#utility.yul\":1486:1618   */\n    tag_76:\n        /* \"#utility.yul\":1553:1557   */\n      0x00\n        /* \"#utility.yul\":1576:1579   */\n      dup2\n        /* \"#utility.yul\":1568:1579   */\n      swap1\n      pop\n        /* \"#utility.yul\":1606:1610   */\n      0x20\n        /* \"#utility.yul\":1601:1604   */\n      dup3\n        /* \"#utility.yul\":1597:1611   */\n      add\n        /* \"#utility.yul\":1589:1611   */\n      swap1\n      pop\n        /* \"#utility.yul\":1486:1618   */\n      swap2\n      swap1\n      pop\n      jump\t// out\n        /* \"#utility.yul\":1624:1701   */\n    tag_77:\n        /* \"#utility.yul\":1661:1668   */\n      0x00\n        /* \"#utility.yul\":1690:1695   */\n      dup2\n        /* \"#utility.yul\":1679:1695   */\n      swap1\n      pop\n        /* \"#utility.yul\":1624:1701   */\n      swap2\n      swap1\n      pop\n      jump\t// out\n        /* \"#utility.yul\":1707:1815   */\n    tag_78:\n        /* \"#utility.yul\":1784:1808   */\n      tag_142\n        /* \"#utility.yul\":1802:1807   */\n      dup2\n        /* \"#utility.yul\":1784:1808   */\n      tag_77\n      jump\t// in\n    tag_142:\n        /* \"#utility.yul\":1779:1782   */\n      dup3\n        /* \"#utility.yul\":1772:1809   */\n      mstore\n        /* \"#utility.yul\":1707:1815   */\n      pop\n      pop\n      jump\t// out\n        /* \"#utility.yul\":1821:2000   */\n    tag_79:\n        /* \"#utility.yul\":1890:1900   */\n      0x00\n        /* \"#utility.yul\":1911:1957   */\n      tag_144\n        /* \"#utility.yul\":1953:1956   */\n      dup4\n        /* \"#utility.yul\":1945:1951   */\n      dup4\n        /* \"#utility.yul\":1911:1957   */\n      tag_78\n      jump\t// in\n    tag_144:\n        /* \"#utility.yul\":1989:1993   */\n      0x20\n        /* \"#utility.yul\":1984:1987   */\n      dup4\n        /* \"#utility.yul\":1980:1994   */\n      add\n        /* \"#utility.yul\":1966:1994   */\n      swap1\n      pop\n        /* \"#utility.yul\":1821:2000   */\n      swap3\n      swap2\n      pop\n      pop\n      jump\t// out\n        /* \"#utility.yul\":2006:2119   */\n    tag_80:\n        /* \"#utility.yul\":2076:2080   */\n      0x00\n        /* \"#utility.yul\":2108:2112   */\n      0x20\n        /* \"#utility.yul\":2103:2106   */\n      dup3\n        /* \"#utility.yul\":2099:2113   */\n      add\n        /* \"#utility.yul\":2091:2113   */\n      swap1\n      pop\n        /* \"#utility.yul\":2006:2119   */\n      swap2\n      swap1\n      pop\n      jump\t// out\n        /* \"#utility.yul\":2155:2887   */\n    tag_81:\n        /* \"#utility.yul\":2274:2277   */\n      0x00\n        /* \"#utility.yul\":2303:2357   */\n      tag_147\n        /* \"#utility.yul\":2351:2356   */\n      dup3\n        /* \"#utility.yul\":2303:2357   */\n      tag_74\n      jump\t// in\n    tag_147:\n        /* \"#utility.yul\":2373:2459   */\n      tag_148\n        /* \"#utility.yul\":2452:2458   */\n      dup2\n        /* \"#utility.yul\":2447:2450   */\n      dup6\n        /* \"#utility.yul\":2373:2459   */\n      tag_75\n      jump\t// in\n    tag_148:\n        /* \"#utility.yul\":2366:2459   */\n      swap4\n      pop\n        /* \"#utility.yul\":2483:2539   */\n      tag_149\n        /* \"#utility.yul\":2533:2538   */\n      dup4\n        /* \"#utility.yul\":2483:2539   */\n      tag_76\n      jump\t// in\n    tag_149:\n        /* \"#utility.yul\":2562:2569   */\n      dup1\n        /* \"#utility.yul\":2593:2594   */\n      0x00\n        /* \"#utility.yul\":2578:2862   */\n    tag_150:\n        /* \"#utility.yul\":2603:2609   */\n      dup4\n        /* \"#utility.yul\":2600:2601   */\n      dup2\n        /* \"#utility.yul\":2597:2610   */\n      lt\n        /* \"#utility.yul\":2578:2862   */\n      iszero\n      tag_152\n      jumpi\n        /* \"#utility.yul\":2679:2685   */\n      dup2\n        /* \"#utility.yul\":2673:2686   */\n      mload\n        /* \"#utility.yul\":2706:2769   */\n      tag_153\n        /* \"#utility.yul\":2765:2768   */\n      dup9\n        /* \"#utility.yul\":2750:2763   */\n      dup3\n        /* \"#utility.yul\":2706:2769   */\n      tag_79\n      jump\t// in\n    tag_153:\n        /* \"#utility.yul\":2699:2769   */\n      swap8\n      pop\n        /* \"#utility.yul\":2792:2852   */\n      tag_154\n        /* \"#utility.yul\":2845:2851   */\n      dup4\n        /* \"#utility.yul\":2792:2852   */\n      tag_80\n      jump\t// in\n    tag_154:\n        /* \"#utility.yul\":2782:2852   */\n      swap3\n      pop\n        /* \"#utility.yul\":2638:2862   */\n      pop\n        /* \"#utility.yul\":2625:2626   */\n      0x01\n        /* \"#utility.yul\":2622:2623   */\n      dup2\n        /* \"#utility.yul\":2618:2627   */\n      add\n        /* \"#utility.yul\":2613:2627   */\n      swap1\n      pop\n        /* \"#utility.yul\":2578:2862   */\n      jump(tag_150)\n    tag_152:\n        /* \"#utility.yul\":2582:2596   */\n      pop\n        /* \"#utility.yul\":2878:2881   */\n      dup6\n        /* \"#utility.yul\":2871:2881   */\n      swap4\n      pop\n        /* \"#utility.yul\":2279:2887   */\n      pop\n      pop\n      pop\n        /* \"#utility.yul\":2155:2887   */\n      swap3\n      swap2\n      pop\n      pop\n      jump\t// out\n        /* \"#utility.yul\":2893:3266   */\n    tag_12:\n        /* \"#utility.yul\":3036:3040   */\n      0x00\n        /* \"#utility.yul\":3074:3076   */\n      0x20\n        /* \"#utility.yul\":3063:3072   */\n      dup3\n        /* \"#utility.yul\":3059:3077   */\n      add\n        /* \"#utility.yul\":3051:3077   */\n      swap1\n      pop\n        /* \"#utility.yul\":3123:3132   */\n      dup2\n        /* \"#utility.yul\":3117:3121   */\n      dup2\n        /* \"#utility.yul\":3113:3133   */\n      sub\n        /* \"#utility.yul\":3109:3110   */\n      0x00\n        /* \"#utility.yul\":3098:3107   */\n      dup4\n        /* \"#utility.yul\":3094:3111   */\n      add\n        /* \"#utility.yul\":3087:3134   */\n      mstore\n        /* \"#utility.yul\":3151:3259   */\n      tag_156\n        /* \"#utility.yul\":3254:3258   */\n      dup2\n        /* \"#utility.yul\":3245:3251   */\n      dup5\n        /* \"#utility.yul\":3151:3259   */\n      tag_81\n      jump\t// in\n    tag_156:\n        /* \"#utility.yul\":3143:3259   */\n      swap1\n      pop\n        /* \"#utility.yul\":2893:3266   */\n      swap3\n      swap2\n      pop\n      pop\n      jump\t// out\n        /* \"#utility.yul\":3272:3389   */\n    tag_82:\n        /* \"#utility.yul\":3381:3382   */\n      0x00\n        /* \"#utility.yul\":3378:3379   */\n      dup1\n        /* \"#utility.yul\":3371:3383   */\n      revert\n        /* \"#utility.yul\":3395:3512   */\n    tag_83:\n        /* \"#utility.yul\":3504:3505   */\n      0x00\n        /* \"#utility.yul\":3501:3502   */\n      dup1\n        /* \"#utility.yul\":3494:3506   */\n      revert\n        /* \"#utility.yul\":3518:3620   */\n    tag_84:\n        /* \"#utility.yul\":3559:3565   */\n      0x00\n        /* \"#utility.yul\":3610:3612   */\n      0x1f\n        /* \"#utility.yul\":3606:3613   */\n      not\n        /* \"#utility.yul\":3601:3603   */\n      0x1f\n        /* \"#utility.yul\":3594:3599   */\n      dup4\n        /* \"#utility.yul\":3590:3604   */\n      add\n        /* \"#utility.yul\":3586:3614   */\n      and\n        /* \"#utility.yul\":3576:3614   */\n      swap1\n      pop\n        /* \"#utility.yul\":3518:3620   */\n      swap2\n      swap1\n      pop\n      jump\t// out\n        /* \"#utility.yul\":3626:3806   */\n    tag_26:\n        /* \"#utility.yul\":3674:3751   */\n      0x4e487b7100000000000000000000000000000000000000000000000000000000\n        /* \"#utility.yul\":3671:3672   */\n      0x00\n        /* \"#utility.yul\":3664:3752   */\n      mstore\n        /* \"#utility.yul\":3771:3775   */\n      0x41\n        /* \"#utility.yul\":3768:3769   */\n      0x04\n        /* \"#utility.yul\":3761:3776   */\n      mstore\n        /* \"#utility.yul\":3795:3799   */\n      0x24\n        /* \"#utility.yul\":3792:3793   */\n      0x00\n        /* \"#utility.yul\":3785:3800   */\n      revert\n        /* \"#utility.yul\":3812:4093   */\n    tag_85:\n        /* \"#utility.yul\":3895:3922   */\n      tag_162\n        /* \"#utility.yul\":3917:3921   */\n      dup3\n        /* \"#utility.yul\":3895:3922   */\n      tag_84\n      jump\t// in\n    tag_162:\n        /* \"#utility.yul\":3887:3893   */\n      dup2\n        /* \"#utility.yul\":3883:3923   */\n      add\n        /* \"#utility.yul\":4025:4031   */\n      dup2\n        /* \"#utility.yul\":4013:4023   */\n      dup2\n        /* \"#utility.yul\":4010:4032   */\n      lt\n        /* \"#utility.yul\":3989:4007   */\n      0xffffffffffffffff\n        /* \"#utility.yul\":3977:3987   */\n      dup3\n        /* \"#utility.yul\":3974:4008   */\n      gt\n        /* \"#utility.yul\":3971:4033   */\n      or\n        /* \"#utility.yul\":3968:4056   */\n      iszero\n      tag_163\n      jumpi\n        /* \"#utility.yul\":4036:4054   */\n      tag_164\n      tag_26\n      jump\t// in\n    tag_164:\n        /* \"#utility.yul\":3968:4056   */\n    tag_163:\n        /* \"#utility.yul\":4076:4086   */\n      dup1\n        /* \"#utility.yul\":4072:4074   */\n      0x40\n        /* \"#utility.yul\":4065:4087   */\n      mstore\n        /* \"#utility.yul\":3855:4093   */\n      pop\n        /* \"#utility.yul\":3812:4093   */\n      pop\n      pop\n      jump\t// out\n        /* \"#utility.yul\":4099:4228   */\n    tag_86:\n        /* \"#utility.yul\":4133:4139   */\n      0x00\n        /* \"#utility.yul\":4160:4180   */\n      tag_166\n      tag_67\n      jump\t// in\n    tag_166:\n        /* \"#utility.yul\":4150:4180   */\n      swap1\n      pop\n        /* \"#utility.yul\":4189:4222   */\n      tag_167\n        /* \"#utility.yul\":4217:4221   */\n      dup3\n        /* \"#utility.yul\":4209:4215   */\n      dup3\n        /* \"#utility.yul\":4189:4222   */\n      tag_85\n      jump\t// in\n    tag_167:\n        /* \"#utility.yul\":4099:4228   */\n      swap2\n      swap1\n      pop\n      jump\t// out\n        /* \"#utility.yul\":4234:4542   */\n    tag_87:\n        /* \"#utility.yul\":4296:4300   */\n      0x00\n        /* \"#utility.yul\":4386:4404   */\n      0xffffffffffffffff\n        /* \"#utility.yul\":4378:4384   */\n      dup3\n        /* \"#utility.yul\":4375:4405   */\n      gt\n        /* \"#utility.yul\":4372:4428   */\n      iszero\n      tag_169\n      jumpi\n        /* \"#utility.yul\":4408:4426   */\n      tag_170\n      tag_26\n      jump\t// in\n    tag_170:\n        /* \"#utility.yul\":4372:4428   */\n    tag_169:\n        /* \"#utility.yul\":4446:4475   */\n      tag_171\n        /* \"#utility.yul\":4468:4474   */\n      dup3\n        /* \"#utility.yul\":4446:4475   */\n      tag_84\n      jump\t// in\n    tag_171:\n        /* \"#utility.yul\":4438:4475   */\n      swap1\n      pop\n        /* \"#utility.yul\":4530:4534   */\n      0x20\n        /* \"#utility.yul\":4524:4528   */\n      dup2\n        /* \"#utility.yul\":4520:4535   */\n      add\n        /* \"#utility.yul\":4512:4535   */\n      swap1\n      pop\n        /* \"#utility.yul\":4234:4542   */\n      swap2\n      swap1\n      pop\n      jump\t// out\n        /* \"#utility.yul\":4548:4694   */\n    tag_88:\n        /* \"#utility.yul\":4645:4651   */\n      dup3\n        /* \"#utility.yul\":4640:4643   */\n      dup2\n        /* \"#utility.yul\":4635:4638   */\n      dup4\n        /* \"#utility.yul\":4622:4652   */\n      calldatacopy\n        /* \"#utility.yul\":4686:4687   */\n      0x00\n        /* \"#utility.yul\":4677:4683   */\n      dup4\n        /* \"#utility.yul\":4672:4675   */\n      dup4\n        /* \"#utility.yul\":4668:4684   */\n      add\n        /* \"#utility.yul\":4661:4688   */\n      mstore\n        /* \"#utility.yul\":4548:4694   */\n      pop\n      pop\n      pop\n      jump\t// out\n        /* \"#utility.yul\":4700:5125   */\n    tag_89:\n        /* \"#utility.yul\":4778:4783   */\n      0x00\n        /* \"#utility.yul\":4803:4869   */\n      tag_174\n        /* \"#utility.yul\":4819:4868   */\n      tag_175\n        /* \"#utility.yul\":4861:4867   */\n      dup5\n        /* \"#utility.yul\":4819:4868   */\n      tag_87\n      jump\t// in\n    tag_175:\n        /* \"#utility.yul\":4803:4869   */\n      tag_86\n      jump\t// in\n    tag_174:\n        /* \"#utility.yul\":4794:4869   */\n      swap1\n      pop\n        /* \"#utility.yul\":4892:4898   */\n      dup3\n        /* \"#utility.yul\":4885:4890   */\n      dup2\n        /* \"#utility.yul\":4878:4899   */\n      mstore\n        /* \"#utility.yul\":4930:4934   */\n      0x20\n        /* \"#utility.yul\":4923:4928   */\n      dup2\n        /* \"#utility.yul\":4919:4935   */\n      add\n        /* \"#utility.yul\":4968:4971   */\n      dup5\n        /* \"#utility.yul\":4959:4965   */\n      dup5\n        /* \"#utility.yul\":4954:4957   */\n      dup5\n        /* \"#utility.yul\":4950:4966   */\n      add\n        /* \"#utility.yul\":4947:4972   */\n      gt\n        /* \"#utility.yul\":4944:5056   */\n      iszero\n      tag_176\n      jumpi\n        /* \"#utility.yul\":4975:5054   */\n      tag_177\n      tag_83\n      jump\t// in\n    tag_177:\n        /* \"#utility.yul\":4944:5056   */\n    tag_176:\n        /* \"#utility.yul\":5065:5119   */\n      tag_178\n        /* \"#utility.yul\":5112:5118   */\n      dup5\n        /* \"#utility.yul\":5107:5110   */\n      dup3\n        /* \"#utility.yul\":5102:5105   */\n      dup6\n        /* \"#utility.yul\":5065:5119   */\n      tag_88\n      jump\t// in\n    tag_178:\n        /* \"#utility.yul\":4784:5125   */\n      pop\n        /* \"#utility.yul\":4700:5125   */\n      swap4\n      swap3\n      pop\n      pop\n      pop\n      jump\t// out\n        /* \"#utility.yul\":5145:5485   */\n    tag_90:\n        /* \"#utility.yul\":5201:5206   */\n      0x00\n        /* \"#utility.yul\":5250:5253   */\n      dup3\n        /* \"#utility.yul\":5243:5247   */\n      0x1f\n        /* \"#utility.yul\":5235:5241   */\n      dup4\n        /* \"#utility.yul\":5231:5248   */\n      add\n        /* \"#utility.yul\":5227:5254   */\n      slt\n        /* \"#utility.yul\":5217:5339   */\n      tag_180\n      jumpi\n        /* \"#utility.yul\":5258:5337   */\n      tag_181\n      tag_82\n      jump\t// in\n    tag_181:\n        /* \"#utility.yul\":5217:5339   */\n    tag_180:\n        /* \"#utility.yul\":5375:5381   */\n      dup2\n        /* \"#utility.yul\":5362:5382   */\n      calldataload\n        /* \"#utility.yul\":5400:5479   */\n      tag_182\n        /* \"#utility.yul\":5475:5478   */\n      dup5\n        /* \"#utility.yul\":5467:5473   */\n      dup3\n        /* \"#utility.yul\":5460:5464   */\n      0x20\n        /* \"#utility.yul\":5452:5458   */\n      dup7\n        /* \"#utility.yul\":5448:5465   */\n      add\n        /* \"#utility.yul\":5400:5479   */\n      tag_89\n      jump\t// in\n    tag_182:\n        /* \"#utility.yul\":5391:5479   */\n      swap2\n      pop\n        /* \"#utility.yul\":5207:5485   */\n      pop\n        /* \"#utility.yul\":5145:5485   */\n      swap3\n      swap2\n      pop\n      pop\n      jump\t// out\n        /* \"#utility.yul\":5491:6325   */\n    tag_17:\n        /* \"#utility.yul\":5579:5585   */\n      0x00\n        /* \"#utility.yul\":5587:5593   */\n      dup1\n        /* \"#utility.yul\":5636:5638   */\n      0x40\n        /* \"#utility.yul\":5624:5633   */\n      dup4\n        /* \"#utility.yul\":5615:5622   */\n      dup6\n        /* \"#utility.yul\":5611:5634   */\n      sub\n        /* \"#utility.yul\":5607:5639   */\n      slt\n        /* \"#utility.yul\":5604:5723   */\n      iszero\n      tag_184\n      jumpi\n        /* \"#utility.yul\":5642:5721   */\n      tag_185\n      tag_68\n      jump\t// in\n    tag_185:\n        /* \"#utility.yul\":5604:5723   */\n    tag_184:\n        /* \"#utility.yul\":5790:5791   */\n      0x00\n        /* \"#utility.yul\":5779:5788   */\n      dup4\n        /* \"#utility.yul\":5775:5792   */\n      add\n        /* \"#utility.yul\":5762:5793   */\n      calldataload\n        /* \"#utility.yul\":5820:5838   */\n      0xffffffffffffffff\n        /* \"#utility.yul\":5812:5818   */\n      dup2\n        /* \"#utility.yul\":5809:5839   */\n      gt\n        /* \"#utility.yul\":5806:5923   */\n      iszero\n      tag_186\n      jumpi\n        /* \"#utility.yul\":5842:5921   */\n      tag_187\n      tag_69\n      jump\t// in\n    tag_187:\n        /* \"#utility.yul\":5806:5923   */\n    tag_186:\n        /* \"#utility.yul\":5947:6010   */\n      tag_188\n        /* \"#utility.yul\":6002:6009   */\n      dup6\n        /* \"#utility.yul\":5993:5999   */\n      dup3\n        /* \"#utility.yul\":5982:5991   */\n      dup7\n        /* \"#utility.yul\":5978:6000   */\n      add\n        /* \"#utility.yul\":5947:6010   */\n      tag_90\n      jump\t// in\n    tag_188:\n        /* \"#utility.yul\":5937:6010   */\n      swap3\n      pop\n        /* \"#utility.yul\":5733:6020   */\n      pop\n        /* \"#utility.yul\":6087:6089   */\n      0x20\n        /* \"#utility.yul\":6076:6085   */\n      dup4\n        /* \"#utility.yul\":6072:6090   */\n      add\n        /* \"#utility.yul\":6059:6091   */\n      calldataload\n        /* \"#utility.yul\":6118:6136   */\n      0xffffffffffffffff\n        /* \"#utility.yul\":6110:6116   */\n      dup2\n        /* \"#utility.yul\":6107:6137   */\n      gt\n        /* \"#utility.yul\":6104:6221   */\n      iszero\n      tag_189\n      jumpi\n        /* \"#utility.yul\":6140:6219   */\n      tag_190\n      tag_69\n      jump\t// in\n    tag_190:\n        /* \"#utility.yul\":6104:6221   */\n    tag_189:\n        /* \"#utility.yul\":6245:6308   */\n      tag_191\n        /* \"#utility.yul\":6300:6307   */\n      dup6\n        /* \"#utility.yul\":6291:6297   */\n      dup3\n        /* \"#utility.yul\":6280:6289   */\n      dup7\n        /* \"#utility.yul\":6276:6298   */\n      add\n        /* \"#utility.yul\":6245:6308   */\n      tag_90\n      jump\t// in\n    tag_191:\n        /* \"#utility.yul\":6235:6308   */\n      swap2\n      pop\n        /* \"#utility.yul\":6030:6318   */\n      pop\n        /* \"#utility.yul\":5491:6325   */\n      swap3\n      pop\n      swap3\n      swap1\n      pop\n      jump\t// out\n        /* \"#utility.yul\":6331:6453   */\n    tag_91:\n        /* \"#utility.yul\":6404:6428   */\n      tag_193\n        /* \"#utility.yul\":6422:6427   */\n      dup2\n        /* \"#utility.yul\":6404:6428   */\n      tag_77\n      jump\t// in\n    tag_193:\n        /* \"#utility.yul\":6397:6402   */\n      dup2\n        /* \"#utility.yul\":6394:6429   */\n      eq\n        /* \"#utility.yul\":6384:6447   */\n      tag_194\n      jumpi\n        /* \"#utility.yul\":6443:6444   */\n      0x00\n        /* \"#utility.yul\":6440:6441   */\n      dup1\n        /* \"#utility.yul\":6433:6445   */\n      revert\n        /* \"#utility.yul\":6384:6447   */\n    tag_194:\n        /* \"#utility.yul\":6331:6453   */\n      pop\n      jump\t// out\n        /* \"#utility.yul\":6459:6598   */\n    tag_92:\n        /* \"#utility.yul\":6505:6510   */\n      0x00\n        /* \"#utility.yul\":6543:6549   */\n      dup2\n        /* \"#utility.yul\":6530:6550   */\n      calldataload\n        /* \"#utility.yul\":6521:6550   */\n      swap1\n      pop\n        /* \"#utility.yul\":6559:6592   */\n      tag_196\n        /* \"#utility.yul\":6586:6591   */\n      dup2\n        /* \"#utility.yul\":6559:6592   */\n      tag_91\n      jump\t// in\n    tag_196:\n        /* \"#utility.yul\":6459:6598   */\n      swap3\n      swap2\n      pop\n      pop\n      jump\t// out\n        /* \"#utility.yul\":6604:6933   */\n    tag_21:\n        /* \"#utility.yul\":6663:6669   */\n      0x00\n        /* \"#utility.yul\":6712:6714   */\n      0x20\n        /* \"#utility.yul\":6700:6709   */\n      dup3\n        /* \"#utility.yul\":6691:6698   */\n      dup5\n        /* \"#utility.yul\":6687:6710   */\n      sub\n        /* \"#utility.yul\":6683:6715   */\n      slt\n        /* \"#utility.yul\":6680:6799   */\n      iszero\n      tag_198\n      jumpi\n        /* \"#utility.yul\":6718:6797   */\n      tag_199\n      tag_68\n      jump\t// in\n    tag_199:\n        /* \"#utility.yul\":6680:6799   */\n    tag_198:\n        /* \"#utility.yul\":6838:6839   */\n      0x00\n        /* \"#utility.yul\":6863:6916   */\n      tag_200\n        /* \"#utility.yul\":6908:6915   */\n      dup5\n        /* \"#utility.yul\":6899:6905   */\n      dup3\n        /* \"#utility.yul\":6888:6897   */\n      dup6\n        /* \"#utility.yul\":6884:6906   */\n      add\n        /* \"#utility.yul\":6863:6916   */\n      tag_92\n      jump\t// in\n    tag_200:\n        /* \"#utility.yul\":6853:6916   */\n      swap2\n      pop\n        /* \"#utility.yul\":6809:6926   */\n      pop\n        /* \"#utility.yul\":6604:6933   */\n      swap3\n      swap2\n      pop\n      pop\n      jump\t// out\n        /* \"#utility.yul\":6939:7119   */\n    tag_34:\n        /* \"#utility.yul\":6987:7064   */\n      0x4e487b7100000000000000000000000000000000000000000000000000000000\n        /* \"#utility.yul\":6984:6985   */\n      0x00\n        /* \"#utility.yul\":6977:7065   */\n      mstore\n        /* \"#utility.yul\":7084:7088   */\n      0x32\n        /* \"#utility.yul\":7081:7082   */\n      0x04\n        /* \"#utility.yul\":7074:7089   */\n      mstore\n        /* \"#utility.yul\":7108:7112   */\n      0x24\n        /* \"#utility.yul\":7105:7106   */\n      0x00\n        /* \"#utility.yul\":7098:7113   */\n      revert\n        /* \"#utility.yul\":7125:7305   */\n    tag_93:\n        /* \"#utility.yul\":7173:7250   */\n      0x4e487b7100000000000000000000000000000000000000000000000000000000\n        /* \"#utility.yul\":7170:7171   */\n      0x00\n        /* \"#utility.yul\":7163:7251   */\n      mstore\n        /* \"#utility.yul\":7270:7274   */\n      0x11\n        /* \"#utility.yul\":7267:7268   */\n      0x04\n        /* \"#utility.yul\":7260:7275   */\n      mstore\n        /* \"#utility.yul\":7294:7298   */\n      0x24\n        /* \"#utility.yul\":7291:7292   */\n      0x00\n        /* \"#utility.yul\":7284:7299   */\n      revert\n        /* \"#utility.yul\":7311:7544   */\n    tag_36:\n        /* \"#utility.yul\":7350:7353   */\n      0x00\n        /* \"#utility.yul\":7373:7397   */\n      tag_204\n        /* \"#utility.yul\":7391:7396   */\n      dup3\n        /* \"#utility.yul\":7373:7397   */\n      tag_77\n      jump\t// in\n    tag_204:\n        /* \"#utility.yul\":7364:7397   */\n      swap2\n      pop\n        /* \"#utility.yul\":7419:7485   */\n      0xffffffffffffffffffffffffffffffffffffffffffffffffffffffffffffffff\n        /* \"#utility.yul\":7412:7417   */\n      dup3\n        /* \"#utility.yul\":7409:7486   */\n      sub\n        /* \"#utility.yul\":7406:7509   */\n      tag_205\n      jumpi\n        /* \"#utility.yul\":7489:7507   */\n      tag_206\n      tag_93\n      jump\t// in\n    tag_206:\n        /* \"#utility.yul\":7406:7509   */\n    tag_205:\n        /* \"#utility.yul\":7536:7537   */\n      0x01\n        /* \"#utility.yul\":7529:7534   */\n      dup3\n        /* \"#utility.yul\":7525:7538   */\n      add\n        /* \"#utility.yul\":7518:7538   */\n      swap1\n      pop\n        /* \"#utility.yul\":7311:7544   */\n      swap2\n      swap1\n      pop\n      jump\t// out\n        /* \"#utility.yul\":7550:7719   */\n    tag_94:\n        /* \"#utility.yul\":7634:7645   */\n      0x00\n        /* \"#utility.yul\":7668:7674   */\n      dup3\n        /* \"#utility.yul\":7663:7666   */\n      dup3\n        /* \"#utility.yul\":7656:7675   */\n      mstore\n        /* \"#utility.yul\":7708:7712   */\n      0x20\n        /* \"#utility.yul\":7703:7706   */\n      dup3\n        /* \"#utility.yul\":7699:7713   */\n      add\n        /* \"#utility.yul\":7684:7713   */\n      swap1\n      pop\n        /* \"#utility.yul\":7550:7719   */\n      swap3\n      swap2\n      pop\n      pop\n      jump\t// out\n        /* \"#utility.yul\":7725:7894   */\n    tag_95:\n        /* \"#utility.yul\":7865:7886   */\n      0x416c726561647920686176652031206e66742e00000000000000000000000000\n        /* \"#utility.yul\":7861:7862   */\n      0x00\n        /* \"#utility.yul\":7853:7859   */\n      dup3\n        /* \"#utility.yul\":7849:7863   */\n      add\n        /* \"#utility.yul\":7842:7887   */\n      mstore\n        /* \"#utility.yul\":7725:7894   */\n      pop\n      jump\t// out\n        /* \"#utility.yul\":7900:8266   */\n    tag_96:\n        /* \"#utility.yul\":8042:8045   */\n      0x00\n        /* \"#utility.yul\":8063:8130   */\n      tag_210\n        /* \"#utility.yul\":8127:8129   */\n      0x13\n        /* \"#utility.yul\":8122:8125   */\n      dup4\n        /* \"#utility.yul\":8063:8130   */\n      tag_94\n      jump\t// in\n    tag_210:\n        /* \"#utility.yul\":8056:8130   */\n      swap2\n      pop\n        /* \"#utility.yul\":8139:8232   */\n      tag_211\n        /* \"#utility.yul\":8228:8231   */\n      dup3\n        /* \"#utility.yul\":8139:8232   */\n      tag_95\n      jump\t// in\n    tag_211:\n        /* \"#utility.yul\":8257:8259   */\n      0x20\n        /* \"#utility.yul\":8252:8255   */\n      dup3\n        /* \"#utility.yul\":8248:8260   */\n      add\n        /* \"#utility.yul\":8241:8260   */\n      swap1\n      pop\n        /* \"#utility.yul\":7900:8266   */\n      swap2\n      swap1\n      pop\n      jump\t// out\n        /* \"#utility.yul\":8272:8691   */\n    tag_41:\n        /* \"#utility.yul\":8438:8442   */\n      0x00\n        /* \"#utility.yul\":8476:8478   */\n      0x20\n        /* \"#utility.yul\":8465:8474   */\n      dup3\n        /* \"#utility.yul\":8461:8479   */\n      add\n        /* \"#utility.yul\":8453:8479   */\n      swap1\n      pop\n        /* \"#utility.yul\":8525:8534   */\n      dup2\n        /* \"#utility.yul\":8519:8523   */\n      dup2\n        /* \"#utility.yul\":8515:8535   */\n      sub\n        /* \"#utility.yul\":8511:8512   */\n      0x00\n        /* \"#utility.yul\":8500:8509   */\n      dup4\n        /* \"#utility.yul\":8496:8513   */\n      add\n        /* \"#utility.yul\":8489:8536   */\n      mstore\n        /* \"#utility.yul\":8553:8684   */\n      tag_213\n        /* \"#utility.yul\":8679:8683   */\n      dup2\n        /* \"#utility.yul\":8553:8684   */\n      tag_96\n      jump\t// in\n    tag_213:\n        /* \"#utility.yul\":8545:8684   */\n      swap1\n      pop\n        /* \"#utility.yul\":8272:8691   */\n      swap2\n      swap1\n      pop\n      jump\t// out\n        /* \"#utility.yul\":8697:8863   */\n    tag_97:\n        /* \"#utility.yul\":8837:8855   */\n      0x436f7272656374205370656c6c696e6700000000000000000000000000000000\n        /* \"#utility.yul\":8833:8834   */\n      0x00\n        /* \"#utility.yul\":8825:8831   */\n      dup3\n        /* \"#utility.yul\":8821:8835   */\n      add\n        /* \"#utility.yul\":8814:8856   */\n      mstore\n        /* \"#utility.yul\":8697:8863   */\n      pop\n      jump\t// out\n        /* \"#utility.yul\":8869:9235   */\n    tag_98:\n        /* \"#utility.yul\":9011:9014   */\n      0x00\n        /* \"#utility.yul\":9032:9099   */\n      tag_216\n        /* \"#utility.yul\":9096:9098   */\n      0x10\n        /* \"#utility.yul\":9091:9094   */\n      dup4\n        /* \"#utility.yul\":9032:9099   */\n      tag_94\n      jump\t// in\n    tag_216:\n        /* \"#utility.yul\":9025:9099   */\n      swap2\n      pop\n        /* \"#utility.yul\":9108:9201   */\n      tag_217\n        /* \"#utility.yul\":9197:9200   */\n      dup3\n        /* \"#utility.yul\":9108:9201   */\n      tag_97\n      jump\t// in\n    tag_217:\n        /* \"#utility.yul\":9226:9228   */\n      0x20\n        /* \"#utility.yul\":9221:9224   */\n      dup3\n        /* \"#utility.yul\":9217:9229   */\n      add\n        /* \"#utility.yul\":9210:9229   */\n      swap1\n      pop\n        /* \"#utility.yul\":8869:9235   */\n      swap2\n      swap1\n      pop\n      jump\t// out\n        /* \"#utility.yul\":9241:9660   */\n    tag_50:\n        /* \"#utility.yul\":9407:9411   */\n      0x00\n        /* \"#utility.yul\":9445:9447   */\n      0x20\n        /* \"#utility.yul\":9434:9443   */\n      dup3\n        /* \"#utility.yul\":9430:9448   */\n      add\n        /* \"#utility.yul\":9422:9448   */\n      swap1\n      pop\n        /* \"#utility.yul\":9494:9503   */\n      dup2\n        /* \"#utility.yul\":9488:9492   */\n      dup2\n        /* \"#utility.yul\":9484:9504   */\n      sub\n        /* \"#utility.yul\":9480:9481   */\n      0x00\n        /* \"#utility.yul\":9469:9478   */\n      dup4\n        /* \"#utility.yul\":9465:9482   */\n      add\n        /* \"#utility.yul\":9458:9505   */\n      mstore\n        /* \"#utility.yul\":9522:9653   */\n      tag_219\n        /* \"#utility.yul\":9648:9652   */\n      dup2\n        /* \"#utility.yul\":9522:9653   */\n      tag_98\n      jump\t// in\n    tag_219:\n        /* \"#utility.yul\":9514:9653   */\n      swap1\n      pop\n        /* \"#utility.yul\":9241:9660   */\n      swap2\n      swap1\n      pop\n      jump\t// out\n        /* \"#utility.yul\":9666:9765   */\n    tag_99:\n        /* \"#utility.yul\":9718:9724   */\n      0x00\n        /* \"#utility.yul\":9752:9757   */\n      dup2\n        /* \"#utility.yul\":9746:9758   */\n      mload\n        /* \"#utility.yul\":9736:9758   */\n      swap1\n      pop\n        /* \"#utility.yul\":9666:9765   */\n      swap2\n      swap1\n      pop\n      jump\t// out\n        /* \"#utility.yul\":9771:9919   */\n    tag_100:\n        /* \"#utility.yul\":9873:9884   */\n      0x00\n        /* \"#utility.yul\":9910:9913   */\n      dup2\n        /* \"#utility.yul\":9895:9913   */\n      swap1\n      pop\n        /* \"#utility.yul\":9771:9919   */\n      swap3\n      swap2\n      pop\n      pop\n      jump\t// out\n        /* \"#utility.yul\":9925:10171   */\n    tag_101:\n        /* \"#utility.yul\":10006:10007   */\n      0x00\n        /* \"#utility.yul\":10016:10129   */\n    tag_223:\n        /* \"#utility.yul\":10030:10036   */\n      dup4\n        /* \"#utility.yul\":10027:10028   */\n      dup2\n        /* \"#utility.yul\":10024:10037   */\n      lt\n        /* \"#utility.yul\":10016:10129   */\n      iszero\n      tag_225\n      jumpi\n        /* \"#utility.yul\":10115:10116   */\n      dup1\n        /* \"#utility.yul\":10110:10113   */\n      dup3\n        /* \"#utility.yul\":10106:10117   */\n      add\n        /* \"#utility.yul\":10100:10118   */\n      mload\n        /* \"#utility.yul\":10096:10097   */\n      dup2\n        /* \"#utility.yul\":10091:10094   */\n      dup5\n        /* \"#utility.yul\":10087:10098   */\n      add\n        /* \"#utility.yul\":10080:10119   */\n      mstore\n        /* \"#utility.yul\":10052:10054   */\n      0x20\n        /* \"#utility.yul\":10049:10050   */\n      dup2\n        /* \"#utility.yul\":10045:10055   */\n      add\n        /* \"#utility.yul\":10040:10055   */\n      swap1\n      pop\n        /* \"#utility.yul\":10016:10129   */\n      jump(tag_223)\n    tag_225:\n        /* \"#utility.yul\":10163:10164   */\n      0x00\n        /* \"#utility.yul\":10154:10160   */\n      dup5\n        /* \"#utility.yul\":10149:10152   */\n      dup5\n        /* \"#utility.yul\":10145:10161   */\n      add\n        /* \"#utility.yul\":10138:10165   */\n      mstore\n        /* \"#utility.yul\":9987:10171   */\n      pop\n        /* \"#utility.yul\":9925:10171   */\n      pop\n      pop\n      pop\n      jump\t// out\n        /* \"#utility.yul\":10177:10567   */\n    tag_102:\n        /* \"#utility.yul\":10283:10286   */\n      0x00\n        /* \"#utility.yul\":10311:10350   */\n      tag_227\n        /* \"#utility.yul\":10344:10349   */\n      dup3\n        /* \"#utility.yul\":10311:10350   */\n      tag_99\n      jump\t// in\n    tag_227:\n        /* \"#utility.yul\":10366:10455   */\n      tag_228\n        /* \"#utility.yul\":10448:10454   */\n      dup2\n        /* \"#utility.yul\":10443:10446   */\n      dup6\n        /* \"#utility.yul\":10366:10455   */\n      tag_100\n      jump\t// in\n    tag_228:\n        /* \"#utility.yul\":10359:10455   */\n      swap4\n      pop\n        /* \"#utility.yul\":10464:10529   */\n      tag_229\n        /* \"#utility.yul\":10522:10528   */\n      dup2\n        /* \"#utility.yul\":10517:10520   */\n      dup6\n        /* \"#utility.yul\":10510:10514   */\n      0x20\n        /* \"#utility.yul\":10503:10508   */\n      dup7\n        /* \"#utility.yul\":10499:10515   */\n      add\n        /* \"#utility.yul\":10464:10529   */\n      tag_101\n      jump\t// in\n    tag_229:\n        /* \"#utility.yul\":10554:10560   */\n      dup1\n        /* \"#utility.yul\":10549:10552   */\n      dup5\n        /* \"#utility.yul\":10545:10561   */\n      add\n        /* \"#utility.yul\":10538:10561   */\n      swap2\n      pop\n        /* \"#utility.yul\":10287:10567   */\n      pop\n        /* \"#utility.yul\":10177:10567   */\n      swap3\n      swap2\n      pop\n      pop\n      jump\t// out\n        /* \"#utility.yul\":10573:10848   */\n    tag_56:\n        /* \"#utility.yul\":10705:10708   */\n      0x00\n        /* \"#utility.yul\":10727:10822   */\n      tag_231\n        /* \"#utility.yul\":10818:10821   */\n      dup3\n        /* \"#utility.yul\":10809:10815   */\n      dup5\n        /* \"#utility.yul\":10727:10822   */\n      tag_102\n      jump\t// in\n    tag_231:\n        /* \"#utility.yul\":10720:10822   */\n      swap2\n      pop\n        /* \"#utility.yul\":10839:10842   */\n      dup2\n        /* \"#utility.yul\":10832:10842   */\n      swap1\n      pop\n        /* \"#utility.yul\":10573:10848   */\n      swap3\n      swap2\n      pop\n      pop\n      jump\t// out\n        /* \"#utility.yul\":10854:11034   */\n    tag_103:\n        /* \"#utility.yul\":10902:10979   */\n      0x4e487b7100000000000000000000000000000000000000000000000000000000\n        /* \"#utility.yul\":10899:10900   */\n      0x00\n        /* \"#utility.yul\":10892:10980   */\n      mstore\n        /* \"#utility.yul\":10999:11003   */\n      0x12\n        /* \"#utility.yul\":10996:10997   */\n      0x04\n        /* \"#utility.yul\":10989:11004   */\n      mstore\n        /* \"#utility.yul\":11023:11027   */\n      0x24\n        /* \"#utility.yul\":11020:11021   */\n      0x00\n        /* \"#utility.yul\":11013:11028   */\n      revert\n        /* \"#utility.yul\":11040:11216   */\n    tag_58:\n        /* \"#utility.yul\":11072:11073   */\n      0x00\n        /* \"#utility.yul\":11089:11109   */\n      tag_234\n        /* \"#utility.yul\":11107:11108   */\n      dup3\n        /* \"#utility.yul\":11089:11109   */\n      tag_77\n      jump\t// in\n    tag_234:\n        /* \"#utility.yul\":11084:11109   */\n      swap2\n      pop\n        /* \"#utility.yul\":11123:11143   */\n      tag_235\n        /* \"#utility.yul\":11141:11142   */\n      dup4\n        /* \"#utility.yul\":11123:11143   */\n      tag_77\n      jump\t// in\n    tag_235:\n        /* \"#utility.yul\":11118:11143   */\n      swap3\n      pop\n        /* \"#utility.yul\":11162:11163   */\n      dup3\n        /* \"#utility.yul\":11152:11187   */\n      tag_236\n      jumpi\n        /* \"#utility.yul\":11167:11185   */\n      tag_237\n      tag_103\n      jump\t// in\n    tag_237:\n        /* \"#utility.yul\":11152:11187   */\n    tag_236:\n        /* \"#utility.yul\":11208:11209   */\n      dup3\n        /* \"#utility.yul\":11205:11206   */\n      dup3\n        /* \"#utility.yul\":11201:11210   */\n      mod\n        /* \"#utility.yul\":11196:11210   */\n      swap1\n      pop\n        /* \"#utility.yul\":11040:11216   */\n      swap3\n      swap2\n      pop\n      pop\n      jump\t// out\n        /* \"#utility.yul\":11222:11402   */\n    tag_104:\n        /* \"#utility.yul\":11270:11347   */\n      0x4e487b7100000000000000000000000000000000000000000000000000000000\n        /* \"#utility.yul\":11267:11268   */\n      0x00\n        /* \"#utility.yul\":11260:11348   */\n      mstore\n        /* \"#utility.yul\":11367:11371   */\n      0x22\n        /* \"#utility.yul\":11364:11365   */\n      0x04\n        /* \"#utility.yul\":11357:11372   */\n      mstore\n        /* \"#utility.yul\":11391:11395   */\n      0x24\n        /* \"#utility.yul\":11388:11389   */\n      0x00\n        /* \"#utility.yul\":11381:11396   */\n      revert\n        /* \"#utility.yul\":11408:11728   */\n    tag_105:\n        /* \"#utility.yul\":11452:11458   */\n      0x00\n        /* \"#utility.yul\":11489:11490   */\n      0x02\n        /* \"#utility.yul\":11483:11487   */\n      dup3\n        /* \"#utility.yul\":11479:11491   */\n      div\n        /* \"#utility.yul\":11469:11491   */\n      swap1\n      pop\n        /* \"#utility.yul\":11536:11537   */\n      0x01\n        /* \"#utility.yul\":11530:11534   */\n      dup3\n        /* \"#utility.yul\":11526:11538   */\n      and\n        /* \"#utility.yul\":11557:11575   */\n      dup1\n        /* \"#utility.yul\":11547:11628   */\n      tag_240\n      jumpi\n        /* \"#utility.yul\":11613:11617   */\n      0x7f\n        /* \"#utility.yul\":11605:11611   */\n      dup3\n        /* \"#utility.yul\":11601:11618   */\n      and\n        /* \"#utility.yul\":11591:11618   */\n      swap2\n      pop\n        /* \"#utility.yul\":11547:11628   */\n    tag_240:\n        /* \"#utility.yul\":11675:11677   */\n      0x20\n        /* \"#utility.yul\":11667:11673   */\n      dup3\n        /* \"#utility.yul\":11664:11678   */\n      lt\n        /* \"#utility.yul\":11644:11662   */\n      dup2\n        /* \"#utility.yul\":11641:11679   */\n      sub\n        /* \"#utility.yul\":11638:11722   */\n      tag_241\n      jumpi\n        /* \"#utility.yul\":11694:11712   */\n      tag_242\n      tag_104\n      jump\t// in\n    tag_242:\n        /* \"#utility.yul\":11638:11722   */\n    tag_241:\n        /* \"#utility.yul\":11459:11728   */\n      pop\n        /* \"#utility.yul\":11408:11728   */\n      swap2\n      swap1\n      pop\n      jump\t// out\n        /* \"#utility.yul\":11734:11875   */\n    tag_106:\n        /* \"#utility.yul\":11783:11787   */\n      0x00\n        /* \"#utility.yul\":11806:11809   */\n      dup2\n        /* \"#utility.yul\":11798:11809   */\n      swap1\n      pop\n        /* \"#utility.yul\":11829:11832   */\n      dup2\n        /* \"#utility.yul\":11826:11827   */\n      0x00\n        /* \"#utility.yul\":11819:11833   */\n      mstore\n        /* \"#utility.yul\":11863:11867   */\n      0x20\n        /* \"#utility.yul\":11860:11861   */\n      0x00\n        /* \"#utility.yul\":11850:11868   */\n      keccak256\n        /* \"#utility.yul\":11842:11868   */\n      swap1\n      pop\n        /* \"#utility.yul\":11734:11875   */\n      swap2\n      swap1\n      pop\n      jump\t// out\n        /* \"#utility.yul\":11881:11974   */\n    tag_107:\n        /* \"#utility.yul\":11918:11924   */\n      0x00\n        /* \"#utility.yul\":11965:11967   */\n      0x20\n        /* \"#utility.yul\":11960:11962   */\n      0x1f\n        /* \"#utility.yul\":11953:11958   */\n      dup4\n        /* \"#utility.yul\":11949:11963   */\n      add\n        /* \"#utility.yul\":11945:11968   */\n      div\n        /* \"#utility.yul\":11935:11968   */\n      swap1\n      pop\n        /* \"#utility.yul\":11881:11974   */\n      swap2\n      swap1\n      pop\n      jump\t// out\n        /* \"#utility.yul\":11980:12087   */\n    tag_108:\n        /* \"#utility.yul\":12024:12032   */\n      0x00\n        /* \"#utility.yul\":12074:12079   */\n      dup3\n        /* \"#utility.yul\":12068:12072   */\n      dup3\n        /* \"#utility.yul\":12064:12080   */\n      shl\n        /* \"#utility.yul\":12043:12080   */\n      swap1\n      pop\n        /* \"#utility.yul\":11980:12087   */\n      swap3\n      swap2\n      pop\n      pop\n      jump\t// out\n        /* \"#utility.yul\":12093:12486   */\n    tag_109:\n        /* \"#utility.yul\":12162:12168   */\n      0x00\n        /* \"#utility.yul\":12212:12213   */\n      0x08\n        /* \"#utility.yul\":12200:12210   */\n      dup4\n        /* \"#utility.yul\":12196:12214   */\n      mul\n        /* \"#utility.yul\":12235:12332   */\n      tag_247\n        /* \"#utility.yul\":12265:12331   */\n      0xffffffffffffffffffffffffffffffffffffffffffffffffffffffffffffffff\n        /* \"#utility.yul\":12254:12263   */\n      dup3\n        /* \"#utility.yul\":12235:12332   */\n      tag_108\n      jump\t// in\n    tag_247:\n        /* \"#utility.yul\":12353:12392   */\n      tag_248\n        /* \"#utility.yul\":12383:12391   */\n      dup7\n        /* \"#utility.yul\":12372:12381   */\n      dup4\n        /* \"#utility.yul\":12353:12392   */\n      tag_108\n      jump\t// in\n    tag_248:\n        /* \"#utility.yul\":12341:12392   */\n      swap6\n      pop\n        /* \"#utility.yul\":12425:12429   */\n      dup1\n        /* \"#utility.yul\":12421:12430   */\n      not\n        /* \"#utility.yul\":12414:12419   */\n      dup5\n        /* \"#utility.yul\":12410:12431   */\n      and\n        /* \"#utility.yul\":12401:12431   */\n      swap4\n      pop\n        /* \"#utility.yul\":12474:12478   */\n      dup1\n        /* \"#utility.yul\":12464:12472   */\n      dup7\n        /* \"#utility.yul\":12460:12479   */\n      and\n        /* \"#utility.yul\":12453:12458   */\n      dup5\n        /* \"#utility.yul\":12450:12480   */\n      or\n        /* \"#utility.yul\":12440:12480   */\n      swap3\n      pop\n        /* \"#utility.yul\":12169:12486   */\n      pop\n      pop\n        /* \"#utility.yul\":12093:12486   */\n      swap4\n      swap3\n      pop\n      pop\n      pop\n      jump\t// out\n        /* \"#utility.yul\":12492:12552   */\n    tag_110:\n        /* \"#utility.yul\":12520:12523   */\n      0x00\n        /* \"#utility.yul\":12541:12546   */\n      dup2\n        /* \"#utility.yul\":12534:12546   */\n      swap1\n      pop\n        /* \"#utility.yul\":12492:12552   */\n      swap2\n      swap1\n      pop\n      jump\t// out\n        /* \"#utility.yul\":12558:12700   */\n    tag_111:\n        /* \"#utility.yul\":12608:12617   */\n      0x00\n        /* \"#utility.yul\":12641:12694   */\n      tag_251\n        /* \"#utility.yul\":12659:12693   */\n      tag_252\n        /* \"#utility.yul\":12668:12692   */\n      tag_253\n        /* \"#utility.yul\":12686:12691   */\n      dup5\n        /* \"#utility.yul\":12668:12692   */\n      tag_77\n      jump\t// in\n    tag_253:\n        /* \"#utility.yul\":12659:12693   */\n      tag_110\n      jump\t// in\n    tag_252:\n        /* \"#utility.yul\":12641:12694   */\n      tag_77\n      jump\t// in\n    tag_251:\n        /* \"#utility.yul\":12628:12694   */\n      swap1\n      pop\n        /* \"#utility.yul\":12558:12700   */\n      swap2\n      swap1\n      pop\n      jump\t// out\n        /* \"#utility.yul\":12706:12781   */\n    tag_112:\n        /* \"#utility.yul\":12749:12752   */\n      0x00\n        /* \"#utility.yul\":12770:12775   */\n      dup2\n        /* \"#utility.yul\":12763:12775   */\n      swap1\n      pop\n        /* \"#utility.yul\":12706:12781   */\n      swap2\n      swap1\n      pop\n      jump\t// out\n        /* \"#utility.yul\":12787:13056   */\n    tag_113:\n        /* \"#utility.yul\":12897:12936   */\n      tag_256\n        /* \"#utility.yul\":12928:12935   */\n      dup4\n        /* \"#utility.yul\":12897:12936   */\n      tag_111\n      jump\t// in\n    tag_256:\n        /* \"#utility.yul\":12958:13049   */\n      tag_257\n        /* \"#utility.yul\":13007:13048   */\n      tag_258\n        /* \"#utility.yul\":13031:13047   */\n      dup3\n        /* \"#utility.yul\":13007:13048   */\n      tag_112\n      jump\t// in\n    tag_258:\n        /* \"#utility.yul\":12999:13005   */\n      dup5\n        /* \"#utility.yul\":12992:12996   */\n      dup5\n        /* \"#utility.yul\":12986:12997   */\n      sload\n        /* \"#utility.yul\":12958:13049   */\n      tag_109\n      jump\t// in\n    tag_257:\n        /* \"#utility.yul\":12952:12956   */\n      dup3\n        /* \"#utility.yul\":12945:13050   */\n      sstore\n        /* \"#utility.yul\":12863:13056   */\n      pop\n        /* \"#utility.yul\":12787:13056   */\n      pop\n      pop\n      pop\n      jump\t// out\n        /* \"#utility.yul\":13062:13135   */\n    tag_114:\n        /* \"#utility.yul\":13107:13110   */\n      0x00\n        /* \"#utility.yul\":13062:13135   */\n      swap1\n      jump\t// out\n        /* \"#utility.yul\":13141:13330   */\n    tag_115:\n        /* \"#utility.yul\":13218:13250   */\n      tag_261\n      tag_114\n      jump\t// in\n    tag_261:\n        /* \"#utility.yul\":13259:13324   */\n      tag_262\n        /* \"#utility.yul\":13317:13323   */\n      dup2\n        /* \"#utility.yul\":13309:13315   */\n      dup5\n        /* \"#utility.yul\":13303:13307   */\n      dup5\n        /* \"#utility.yul\":13259:13324   */\n      tag_113\n      jump\t// in\n    tag_262:\n        /* \"#utility.yul\":13194:13330   */\n      pop\n        /* \"#utility.yul\":13141:13330   */\n      pop\n      pop\n      jump\t// out\n        /* \"#utility.yul\":13336:13522   */\n    tag_116:\n        /* \"#utility.yul\":13396:13516   */\n    tag_264:\n        /* \"#utility.yul\":13413:13416   */\n      dup2\n        /* \"#utility.yul\":13406:13411   */\n      dup2\n        /* \"#utility.yul\":13403:13417   */\n      lt\n        /* \"#utility.yul\":13396:13516   */\n      iszero\n      tag_266\n      jumpi\n        /* \"#utility.yul\":13467:13506   */\n      tag_267\n        /* \"#utility.yul\":13504:13505   */\n      0x00\n        /* \"#utility.yul\":13497:13502   */\n      dup3\n        /* \"#utility.yul\":13467:13506   */\n      tag_115\n      jump\t// in\n    tag_267:\n        /* \"#utility.yul\":13440:13441   */\n      0x01\n        /* \"#utility.yul\":13433:13438   */\n      dup2\n        /* \"#utility.yul\":13429:13442   */\n      add\n        /* \"#utility.yul\":13420:13442   */\n      swap1\n      pop\n        /* \"#utility.yul\":13396:13516   */\n      jump(tag_264)\n    tag_266:\n        /* \"#utility.yul\":13336:13522   */\n      pop\n      pop\n      jump\t// out\n        /* \"#utility.yul\":13528:14071   */\n    tag_117:\n        /* \"#utility.yul\":13629:13631   */\n      0x1f\n        /* \"#utility.yul\":13624:13627   */\n      dup3\n        /* \"#utility.yul\":13621:13632   */\n      gt\n        /* \"#utility.yul\":13618:14064   */\n      iszero\n      tag_269\n      jumpi\n        /* \"#utility.yul\":13663:13701   */\n      tag_270\n        /* \"#utility.yul\":13695:13700   */\n      dup2\n        /* \"#utility.yul\":13663:13701   */\n      tag_106\n      jump\t// in\n    tag_270:\n        /* \"#utility.yul\":13747:13776   */\n      tag_271\n        /* \"#utility.yul\":13765:13775   */\n      dup5\n        /* \"#utility.yul\":13747:13776   */\n      tag_107\n      jump\t// in\n    tag_271:\n        /* \"#utility.yul\":13737:13745   */\n      dup2\n        /* \"#utility.yul\":13733:13777   */\n      add\n        /* \"#utility.yul\":13930:13932   */\n      0x20\n        /* \"#utility.yul\":13918:13928   */\n      dup6\n        /* \"#utility.yul\":13915:13933   */\n      lt\n        /* \"#utility.yul\":13912:13961   */\n      iszero\n      tag_272\n      jumpi\n        /* \"#utility.yul\":13951:13959   */\n      dup2\n        /* \"#utility.yul\":13936:13959   */\n      swap1\n      pop\n        /* \"#utility.yul\":13912:13961   */\n    tag_272:\n        /* \"#utility.yul\":13974:14054   */\n      tag_273\n        /* \"#utility.yul\":14030:14052   */\n      tag_274\n        /* \"#utility.yul\":14048:14051   */\n      dup6\n        /* \"#utility.yul\":14030:14052   */\n      tag_107\n      jump\t// in\n    tag_274:\n        /* \"#utility.yul\":14020:14028   */\n      dup4\n        /* \"#utility.yul\":14016:14053   */\n      add\n        /* \"#utility.yul\":14003:14014   */\n      dup3\n        /* \"#utility.yul\":13974:14054   */\n      tag_116\n      jump\t// in\n    tag_273:\n        /* \"#utility.yul\":13633:14064   */\n      pop\n      pop\n        /* \"#utility.yul\":13618:14064   */\n    tag_269:\n        /* \"#utility.yul\":13528:14071   */\n      pop\n      pop\n      pop\n      jump\t// out\n        /* \"#utility.yul\":14077:14194   */\n    tag_118:\n        /* \"#utility.yul\":14131:14139   */\n      0x00\n        /* \"#utility.yul\":14181:14186   */\n      dup3\n        /* \"#utility.yul\":14175:14179   */\n      dup3\n        /* \"#utility.yul\":14171:14187   */\n      shr\n        /* \"#utility.yul\":14150:14187   */\n      swap1\n      pop\n        /* \"#utility.yul\":14077:14194   */\n      swap3\n      swap2\n      pop\n      pop\n      jump\t// out\n        /* \"#utility.yul\":14200:14369   */\n    tag_119:\n        /* \"#utility.yul\":14244:14250   */\n      0x00\n        /* \"#utility.yul\":14277:14328   */\n      tag_277\n        /* \"#utility.yul\":14325:14326   */\n      0x00\n        /* \"#utility.yul\":14321:14327   */\n      not\n        /* \"#utility.yul\":14313:14318   */\n      dup5\n        /* \"#utility.yul\":14310:14311   */\n      0x08\n        /* \"#utility.yul\":14306:14319   */\n      mul\n        /* \"#utility.yul\":14277:14328   */\n      tag_118\n      jump\t// in\n    tag_277:\n        /* \"#utility.yul\":14273:14329   */\n      not\n        /* \"#utility.yul\":14358:14362   */\n      dup1\n        /* \"#utility.yul\":14352:14356   */\n      dup4\n        /* \"#utility.yul\":14348:14363   */\n      and\n        /* \"#utility.yul\":14338:14363   */\n      swap2\n      pop\n        /* \"#utility.yul\":14251:14369   */\n      pop\n        /* \"#utility.yul\":14200:14369   */\n      swap3\n      swap2\n      pop\n      pop\n      jump\t// out\n        /* \"#utility.yul\":14374:14669   */\n    tag_120:\n        /* \"#utility.yul\":14450:14454   */\n      0x00\n        /* \"#utility.yul\":14596:14625   */\n      tag_279\n        /* \"#utility.yul\":14621:14624   */\n      dup4\n        /* \"#utility.yul\":14615:14619   */\n      dup4\n        /* \"#utility.yul\":14596:14625   */\n      tag_119\n      jump\t// in\n    tag_279:\n        /* \"#utility.yul\":14588:14625   */\n      swap2\n      pop\n        /* \"#utility.yul\":14658:14661   */\n      dup3\n        /* \"#utility.yul\":14655:14656   */\n      0x02\n        /* \"#utility.yul\":14651:14662   */\n      mul\n        /* \"#utility.yul\":14645:14649   */\n      dup3\n        /* \"#utility.yul\":14642:14663   */\n      or\n        /* \"#utility.yul\":14634:14663   */\n      swap1\n      pop\n        /* \"#utility.yul\":14374:14669   */\n      swap3\n      swap2\n      pop\n      pop\n      jump\t// out\n        /* \"#utility.yul\":14674:16069   */\n    tag_62:\n        /* \"#utility.yul\":14791:14828   */\n      tag_281\n        /* \"#utility.yul\":14824:14827   */\n      dup3\n        /* \"#utility.yul\":14791:14828   */\n      tag_99\n      jump\t// in\n    tag_281:\n        /* \"#utility.yul\":14893:14911   */\n      0xffffffffffffffff\n        /* \"#utility.yul\":14885:14891   */\n      dup2\n        /* \"#utility.yul\":14882:14912   */\n      gt\n        /* \"#utility.yul\":14879:14935   */\n      iszero\n      tag_282\n      jumpi\n        /* \"#utility.yul\":14915:14933   */\n      tag_283\n      tag_26\n      jump\t// in\n    tag_283:\n        /* \"#utility.yul\":14879:14935   */\n    tag_282:\n        /* \"#utility.yul\":14959:14997   */\n      tag_284\n        /* \"#utility.yul\":14991:14995   */\n      dup3\n        /* \"#utility.yul\":14985:14996   */\n      sload\n        /* \"#utility.yul\":14959:14997   */\n      tag_105\n      jump\t// in\n    tag_284:\n        /* \"#utility.yul\":15044:15111   */\n      tag_285\n        /* \"#utility.yul\":15104:15110   */\n      dup3\n        /* \"#utility.yul\":15096:15102   */\n      dup3\n        /* \"#utility.yul\":15090:15094   */\n      dup6\n        /* \"#utility.yul\":15044:15111   */\n      tag_117\n      jump\t// in\n    tag_285:\n        /* \"#utility.yul\":15138:15139   */\n      0x00\n        /* \"#utility.yul\":15162:15166   */\n      0x20\n        /* \"#utility.yul\":15149:15166   */\n      swap1\n      pop\n        /* \"#utility.yul\":15194:15196   */\n      0x1f\n        /* \"#utility.yul\":15186:15192   */\n      dup4\n        /* \"#utility.yul\":15183:15197   */\n      gt\n        /* \"#utility.yul\":15211:15212   */\n      0x01\n        /* \"#utility.yul\":15206:15824   */\n      dup2\n      eq\n      tag_287\n      jumpi\n        /* \"#utility.yul\":15868:15869   */\n      0x00\n        /* \"#utility.yul\":15885:15891   */\n      dup5\n        /* \"#utility.yul\":15882:15959   */\n      iszero\n      tag_288\n      jumpi\n        /* \"#utility.yul\":15934:15943   */\n      dup3\n        /* \"#utility.yul\":15929:15932   */\n      dup8\n        /* \"#utility.yul\":15925:15944   */\n      add\n        /* \"#utility.yul\":15919:15945   */\n      mload\n        /* \"#utility.yul\":15910:15945   */\n      swap1\n      pop\n        /* \"#utility.yul\":15882:15959   */\n    tag_288:\n        /* \"#utility.yul\":15985:16052   */\n      tag_289\n        /* \"#utility.yul\":16045:16051   */\n      dup6\n        /* \"#utility.yul\":16038:16043   */\n      dup3\n        /* \"#utility.yul\":15985:16052   */\n      tag_120\n      jump\t// in\n    tag_289:\n        /* \"#utility.yul\":15979:15983   */\n      dup7\n        /* \"#utility.yul\":15972:16053   */\n      sstore\n        /* \"#utility.yul\":15841:16063   */\n      pop\n        /* \"#utility.yul\":15176:16063   */\n      jump(tag_286)\n        /* \"#utility.yul\":15206:15824   */\n    tag_287:\n        /* \"#utility.yul\":15258:15262   */\n      0x1f\n        /* \"#utility.yul\":15254:15263   */\n      not\n        /* \"#utility.yul\":15246:15252   */\n      dup5\n        /* \"#utility.yul\":15242:15264   */\n      and\n        /* \"#utility.yul\":15292:15329   */\n      tag_290\n        /* \"#utility.yul\":15324:15328   */\n      dup7\n        /* \"#utility.yul\":15292:15329   */\n      tag_106\n      jump\t// in\n    tag_290:\n        /* \"#utility.yul\":15351:15352   */\n      0x00\n        /* \"#utility.yul\":15365:15573   */\n    tag_291:\n        /* \"#utility.yul\":15379:15386   */\n      dup3\n        /* \"#utility.yul\":15376:15377   */\n      dup2\n        /* \"#utility.yul\":15373:15387   */\n      lt\n        /* \"#utility.yul\":15365:15573   */\n      iszero\n      tag_293\n      jumpi\n        /* \"#utility.yul\":15458:15467   */\n      dup5\n        /* \"#utility.yul\":15453:15456   */\n      dup10\n        /* \"#utility.yul\":15449:15468   */\n      add\n        /* \"#utility.yul\":15443:15469   */\n      mload\n        /* \"#utility.yul\":15435:15441   */\n      dup3\n        /* \"#utility.yul\":15428:15470   */\n      sstore\n        /* \"#utility.yul\":15509:15510   */\n      0x01\n        /* \"#utility.yul\":15501:15507   */\n      dup3\n        /* \"#utility.yul\":15497:15511   */\n      add\n        /* \"#utility.yul\":15487:15511   */\n      swap2\n      pop\n        /* \"#utility.yul\":15556:15558   */\n      0x20\n        /* \"#utility.yul\":15545:15554   */\n      dup6\n        /* \"#utility.yul\":15541:15559   */\n      add\n        /* \"#utility.yul\":15528:15559   */\n      swap5\n      pop\n        /* \"#utility.yul\":15402:15406   */\n      0x20\n        /* \"#utility.yul\":15399:15400   */\n      dup2\n        /* \"#utility.yul\":15395:15407   */\n      add\n        /* \"#utility.yul\":15390:15407   */\n      swap1\n      pop\n        /* \"#utility.yul\":15365:15573   */\n      jump(tag_291)\n    tag_293:\n        /* \"#utility.yul\":15601:15607   */\n      dup7\n        /* \"#utility.yul\":15592:15599   */\n      dup4\n        /* \"#utility.yul\":15589:15608   */\n      lt\n        /* \"#utility.yul\":15586:15765   */\n      iszero\n      tag_294\n      jumpi\n        /* \"#utility.yul\":15659:15668   */\n      dup5\n        /* \"#utility.yul\":15654:15657   */\n      dup10\n        /* \"#utility.yul\":15650:15669   */\n      add\n        /* \"#utility.yul\":15644:15670   */\n      mload\n        /* \"#utility.yul\":15702:15750   */\n      tag_295\n        /* \"#utility.yul\":15744:15748   */\n      0x1f\n        /* \"#utility.yul\":15736:15742   */\n      dup10\n        /* \"#utility.yul\":15732:15749   */\n      and\n        /* \"#utility.yul\":15721:15730   */\n      dup3\n        /* \"#utility.yul\":15702:15750   */\n      tag_119\n      jump\t// in\n    tag_295:\n        /* \"#utility.yul\":15694:15700   */\n      dup4\n        /* \"#utility.yul\":15687:15751   */\n      sstore\n        /* \"#utility.yul\":15609:15765   */\n      pop\n        /* \"#utility.yul\":15586:15765   */\n    tag_294:\n        /* \"#utility.yul\":15811:15812   */\n      0x01\n        /* \"#utility.yul\":15807:15808   */\n      0x02\n        /* \"#utility.yul\":15799:15805   */\n      dup9\n        /* \"#utility.yul\":15795:15809   */\n      mul\n        /* \"#utility.yul\":15791:15813   */\n      add\n        /* \"#utility.yul\":15785:15789   */\n      dup9\n        /* \"#utility.yul\":15778:15814   */\n      sstore\n        /* \"#utility.yul\":15213:15824   */\n      pop\n      pop\n      pop\n        /* \"#utility.yul\":15176:16063   */\n    tag_286:\n      pop\n        /* \"#utility.yul\":14766:16069   */\n      pop\n      pop\n      pop\n        /* \"#utility.yul\":14674:16069   */\n      pop\n      pop\n      jump\t// out\n        /* \"#utility.yul\":16075:16269   */\n    tag_65:\n        /* \"#utility.yul\":16115:16119   */\n      0x00\n        /* \"#utility.yul\":16135:16155   */\n      tag_297\n        /* \"#utility.yul\":16153:16154   */\n      dup3\n        /* \"#utility.yul\":16135:16155   */\n      tag_77\n      jump\t// in\n    tag_297:\n        /* \"#utility.yul\":16130:16155   */\n      swap2\n      pop\n        /* \"#utility.yul\":16169:16189   */\n      tag_298\n        /* \"#utility.yul\":16187:16188   */\n      dup4\n        /* \"#utility.yul\":16169:16189   */\n      tag_77\n      jump\t// in\n    tag_298:\n        /* \"#utility.yul\":16164:16189   */\n      swap3\n      pop\n        /* \"#utility.yul\":16213:16214   */\n      dup3\n        /* \"#utility.yul\":16210:16211   */\n      dup3\n        /* \"#utility.yul\":16206:16215   */\n      sub\n        /* \"#utility.yul\":16198:16215   */\n      swap1\n      pop\n        /* \"#utility.yul\":16237:16238   */\n      dup2\n        /* \"#utility.yul\":16231:16235   */\n      dup2\n        /* \"#utility.yul\":16228:16239   */\n      gt\n        /* \"#utility.yul\":16225:16262   */\n      iszero\n      tag_299\n      jumpi\n        /* \"#utility.yul\":16242:16260   */\n      tag_300\n      tag_93\n      jump\t// in\n    tag_300:\n        /* \"#utility.yul\":16225:16262   */\n    tag_299:\n        /* \"#utility.yul\":16075:16269   */\n      swap3\n      swap2\n      pop\n      pop\n      jump\t// out\n\n    auxdata: 0xa2646970667358221220f5dbc2357fe22082936a6e1b9eb83897f0e33dd327515aac2a6c998322ebd7d264736f6c63430008140033\n}\n",
				"bytecode": {
					"linkReferences": {},
					"object": "6080604052662386f26fc1000060025534801561001a575f80fd5b50610f2e806100285f395ff3fe608060405234801561000f575f80fd5b506004361061004a575f3560e01c80633c956b051461004e578063b81c3db71461007e578063cb9940b714610088578063e70364d4146100a4575b5f80fd5b6100686004803603810190610063919061068a565b6100c0565b6040516100759190610775565b60405180910390f35b61008661020a565b005b6100a2600480360381019061009d91906108d1565b610345565b005b6100be60048036038101906100b99190610971565b61043d565b005b60605f60015f8473ffffffffffffffffffffffffffffffffffffffff1673ffffffffffffffffffffffffffffffffffffffff1681526020019081526020015f205467ffffffffffffffff81111561011a576101196107ad565b5b6040519080825280602002602001820160405280156101485781602001602082028036833780820191505090505b5090505f805b6003805490508110156101ff578473ffffffffffffffffffffffffffffffffffffffff165f808381526020019081526020015f205f9054906101000a900473ffffffffffffffffffffffffffffffffffffffff1673ffffffffffffffffffffffffffffffffffffffff16036101ec57808383815181106101d1576101d061099c565b5b60200260200101818152505081806101e8906109f6565b9250505b80806101f7906109f6565b91505061014e565b508192505050919050565b5f60015f3373ffffffffffffffffffffffffffffffffffffffff1673ffffffffffffffffffffffffffffffffffffffff1681526020019081526020015f205414610289576040517f08c379a000000000000000000000000000000000000000000000000000000000815260040161028090610a97565b60405180910390fd5b6103436040518060400160405280600481526020017f46726565000000000000000000000000000000000000000000000000000000008152506040518060400160405280600a81526020017f467265655a6f6d626965000000000000000000000000000000000000000000008152506103366040518060400160405280600481526020017f6672656500000000000000000000000000000000000000000000000000000000815250610440565b60015f8060025f80610483565b565b6040518060400160405280600781526020017f7072656d69756d0000000000000000000000000000000000000000000000000081525080519060200120828051906020012014806103d857506040518060400160405280600781526020017f4469616d6f6e6400000000000000000000000000000000000000000000000000815250805190602001208280519060200120145b610417576040517f08c379a000000000000000000000000000000000000000000000000000000000815260040161040e90610aff565b60405180910390fd5b5f61042182610440565b905061043883838360056101f45f60055f80610483565b505050565b50565b5f80826040516020016104539190610b89565b604051602081830303815290604052805190602001205f1c90506002548161047b9190610bcc565b915050919050565b60036040518061012001604052808b81526020018a815260200189815260200188815260200187815260200186815260200185815260200184815260200183815250908060018154018082558091505060019003905f5260205f2090600902015f909190919091505f820151815f0190816104fe9190610df6565b5060208201518160010190816105149190610df6565b5060408201518160020155606082015181600301556080820151816004015560a0820151816005015560c0820151816006015560e08201518160070155610100820151816008015550505f60016003805490506105719190610ec5565b905060015f3373ffffffffffffffffffffffffffffffffffffffff1673ffffffffffffffffffffffffffffffffffffffff1681526020019081526020015f205f8154809291906105c0906109f6565b9190505550335f808381526020019081526020015f205f6101000a81548173ffffffffffffffffffffffffffffffffffffffff021916908373ffffffffffffffffffffffffffffffffffffffff16021790555050505050505050505050565b5f604051905090565b5f80fd5b5f80fd5b5f73ffffffffffffffffffffffffffffffffffffffff82169050919050565b5f61065982610630565b9050919050565b6106698161064f565b8114610673575f80fd5b50565b5f8135905061068481610660565b92915050565b5f6020828403121561069f5761069e610628565b5b5f6106ac84828501610676565b91505092915050565b5f81519050919050565b5f82825260208201905092915050565b5f819050602082019050919050565b5f819050919050565b6106f0816106de565b82525050565b5f61070183836106e7565b60208301905092915050565b5f602082019050919050565b5f610723826106b5565b61072d81856106bf565b9350610738836106cf565b805f5b8381101561076857815161074f88826106f6565b975061075a8361070d565b92505060018101905061073b565b5085935050505092915050565b5f6020820190508181035f83015261078d8184610719565b905092915050565b5f80fd5b5f80fd5b5f601f19601f8301169050919050565b7f4e487b71000000000000000000000000000000000000000000000000000000005f52604160045260245ffd5b6107e38261079d565b810181811067ffffffffffffffff82111715610802576108016107ad565b5b80604052505050565b5f61081461061f565b905061082082826107da565b919050565b5f67ffffffffffffffff82111561083f5761083e6107ad565b5b6108488261079d565b9050602081019050919050565b828183375f83830152505050565b5f61087561087084610825565b61080b565b90508281526020810184848401111561089157610890610799565b5b61089c848285610855565b509392505050565b5f82601f8301126108b8576108b7610795565b5b81356108c8848260208601610863565b91505092915050565b5f80604083850312156108e7576108e6610628565b5b5f83013567ffffffffffffffff8111156109045761090361062c565b5b610910858286016108a4565b925050602083013567ffffffffffffffff8111156109315761093061062c565b5b61093d858286016108a4565b9150509250929050565b610950816106de565b811461095a575f80fd5b50565b5f8135905061096b81610947565b92915050565b5f6020828403121561098657610985610628565b5b5f6109938482850161095d565b91505092915050565b7f4e487b71000000000000000000000000000000000000000000000000000000005f52603260045260245ffd5b7f4e487b71000000000000000000000000000000000000000000000000000000005f52601160045260245ffd5b5f610a00826106de565b91507fffffffffffffffffffffffffffffffffffffffffffffffffffffffffffffffff8203610a3257610a316109c9565b5b600182019050919050565b5f82825260208201905092915050565b7f416c726561647920686176652031206e66742e000000000000000000000000005f82015250565b5f610a81601383610a3d565b9150610a8c82610a4d565b602082019050919050565b5f6020820190508181035f830152610aae81610a75565b9050919050565b7f436f7272656374205370656c6c696e67000000000000000000000000000000005f82015250565b5f610ae9601083610a3d565b9150610af482610ab5565b602082019050919050565b5f6020820190508181035f830152610b1681610add565b9050919050565b5f81519050919050565b5f81905092915050565b5f5b83811015610b4e578082015181840152602081019050610b33565b5f8484015250505050565b5f610b6382610b1d565b610b6d8185610b27565b9350610b7d818560208601610b31565b80840191505092915050565b5f610b948284610b59565b915081905092915050565b7f4e487b71000000000000000000000000000000000000000000000000000000005f52601260045260245ffd5b5f610bd6826106de565b9150610be1836106de565b925082610bf157610bf0610b9f565b5b828206905092915050565b7f4e487b71000000000000000000000000000000000000000000000000000000005f52602260045260245ffd5b5f6002820490506001821680610c4057607f821691505b602082108103610c5357610c52610bfc565b5b50919050565b5f819050815f5260205f209050919050565b5f6020601f8301049050919050565b5f82821b905092915050565b5f60088302610cb57fffffffffffffffffffffffffffffffffffffffffffffffffffffffffffffffff82610c7a565b610cbf8683610c7a565b95508019841693508086168417925050509392505050565b5f819050919050565b5f610cfa610cf5610cf0846106de565b610cd7565b6106de565b9050919050565b5f819050919050565b610d1383610ce0565b610d27610d1f82610d01565b848454610c86565b825550505050565b5f90565b610d3b610d2f565b610d46818484610d0a565b505050565b5b81811015610d6957610d5e5f82610d33565b600181019050610d4c565b5050565b601f821115610dae57610d7f81610c59565b610d8884610c6b565b81016020851015610d97578190505b610dab610da385610c6b565b830182610d4b565b50505b505050565b5f82821c905092915050565b5f610dce5f1984600802610db3565b1980831691505092915050565b5f610de68383610dbf565b9150826002028217905092915050565b610dff82610b1d565b67ffffffffffffffff811115610e1857610e176107ad565b5b610e228254610c29565b610e2d828285610d6d565b5f60209050601f831160018114610e5e575f8415610e4c578287015190505b610e568582610ddb565b865550610ebd565b601f198416610e6c86610c59565b5f5b82811015610e9357848901518255600182019150602085019450602081019050610e6e565b86831015610eb05784890151610eac601f891682610dbf565b8355505b6001600288020188555050505b505050505050565b5f610ecf826106de565b9150610eda836106de565b9250828203905081811115610ef257610ef16109c9565b5b9291505056fea2646970667358221220f5dbc2357fe22082936a6e1b9eb83897f0e33dd327515aac2a6c998322ebd7d264736f6c63430008140033",
					"opcodes": "PUSH1 0x80 PUSH1 0x40 MSTORE PUSH7 0x2386F26FC10000 PUSH1 0x2 SSTORE CALLVALUE DUP1 ISZERO PUSH2 0x1A JUMPI PUSH0 DUP1 REVERT JUMPDEST POP PUSH2 0xF2E DUP1 PUSH2 0x28 PUSH0 CODECOPY PUSH0 RETURN INVALID PUSH1 0x80 PUSH1 0x40 MSTORE CALLVALUE DUP1 ISZERO PUSH2 0xF JUMPI PUSH0 DUP1 REVERT JUMPDEST POP PUSH1 0x4 CALLDATASIZE LT PUSH2 0x4A JUMPI PUSH0 CALLDATALOAD PUSH1 0xE0 SHR DUP1 PUSH4 0x3C956B05 EQ PUSH2 0x4E JUMPI DUP1 PUSH4 0xB81C3DB7 EQ PUSH2 0x7E JUMPI DUP1 PUSH4 0xCB9940B7 EQ PUSH2 0x88 JUMPI DUP1 PUSH4 0xE70364D4 EQ PUSH2 0xA4 JUMPI JUMPDEST PUSH0 DUP1 REVERT JUMPDEST PUSH2 0x68 PUSH1 0x4 DUP1 CALLDATASIZE SUB DUP2 ADD SWAP1 PUSH2 0x63 SWAP2 SWAP1 PUSH2 0x68A JUMP JUMPDEST PUSH2 0xC0 JUMP JUMPDEST PUSH1 0x40 MLOAD PUSH2 0x75 SWAP2 SWAP1 PUSH2 0x775 JUMP JUMPDEST PUSH1 0x40 MLOAD DUP1 SWAP2 SUB SWAP1 RETURN JUMPDEST PUSH2 0x86 PUSH2 0x20A JUMP JUMPDEST STOP JUMPDEST PUSH2 0xA2 PUSH1 0x4 DUP1 CALLDATASIZE SUB DUP2 ADD SWAP1 PUSH2 0x9D SWAP2 SWAP1 PUSH2 0x8D1 JUMP JUMPDEST PUSH2 0x345 JUMP JUMPDEST STOP JUMPDEST PUSH2 0xBE PUSH1 0x4 DUP1 CALLDATASIZE SUB DUP2 ADD SWAP1 PUSH2 0xB9 SWAP2 SWAP1 PUSH2 0x971 JUMP JUMPDEST PUSH2 0x43D JUMP JUMPDEST STOP JUMPDEST PUSH1 0x60 PUSH0 PUSH1 0x1 PUSH0 DUP5 PUSH20 0xFFFFFFFFFFFFFFFFFFFFFFFFFFFFFFFFFFFFFFFF AND PUSH20 0xFFFFFFFFFFFFFFFFFFFFFFFFFFFFFFFFFFFFFFFF AND DUP2 MSTORE PUSH1 0x20 ADD SWAP1 DUP2 MSTORE PUSH1 0x20 ADD PUSH0 KECCAK256 SLOAD PUSH8 0xFFFFFFFFFFFFFFFF DUP2 GT ISZERO PUSH2 0x11A JUMPI PUSH2 0x119 PUSH2 0x7AD JUMP JUMPDEST JUMPDEST PUSH1 0x40 MLOAD SWAP1 DUP1 DUP3 MSTORE DUP1 PUSH1 0x20 MUL PUSH1 0x20 ADD DUP3 ADD PUSH1 0x40 MSTORE DUP1 ISZERO PUSH2 0x148 JUMPI DUP2 PUSH1 0x20 ADD PUSH1 0x20 DUP3 MUL DUP1 CALLDATASIZE DUP4 CALLDATACOPY DUP1 DUP3 ADD SWAP2 POP POP SWAP1 POP JUMPDEST POP SWAP1 POP PUSH0 DUP1 JUMPDEST PUSH1 0x3 DUP1 SLOAD SWAP1 POP DUP2 LT ISZERO PUSH2 0x1FF JUMPI DUP5 PUSH20 0xFFFFFFFFFFFFFFFFFFFFFFFFFFFFFFFFFFFFFFFF AND PUSH0 DUP1 DUP4 DUP2 MSTORE PUSH1 0x20 ADD SWAP1 DUP2 MSTORE PUSH1 0x20 ADD PUSH0 KECCAK256 PUSH0 SWAP1 SLOAD SWAP1 PUSH2 0x100 EXP SWAP1 DIV PUSH20 0xFFFFFFFFFFFFFFFFFFFFFFFFFFFFFFFFFFFFFFFF AND PUSH20 0xFFFFFFFFFFFFFFFFFFFFFFFFFFFFFFFFFFFFFFFF AND SUB PUSH2 0x1EC JUMPI DUP1 DUP4 DUP4 DUP2 MLOAD DUP2 LT PUSH2 0x1D1 JUMPI PUSH2 0x1D0 PUSH2 0x99C JUMP JUMPDEST JUMPDEST PUSH1 0x20 MUL PUSH1 0x20 ADD ADD DUP2 DUP2 MSTORE POP POP DUP2 DUP1 PUSH2 0x1E8 SWAP1 PUSH2 0x9F6 JUMP JUMPDEST SWAP3 POP POP JUMPDEST DUP1 DUP1 PUSH2 0x1F7 SWAP1 PUSH2 0x9F6 JUMP JUMPDEST SWAP2 POP POP PUSH2 0x14E JUMP JUMPDEST POP DUP2 SWAP3 POP POP POP SWAP2 SWAP1 POP JUMP JUMPDEST PUSH0 PUSH1 0x1 PUSH0 CALLER PUSH20 0xFFFFFFFFFFFFFFFFFFFFFFFFFFFFFFFFFFFFFFFF AND PUSH20 0xFFFFFFFFFFFFFFFFFFFFFFFFFFFFFFFFFFFFFFFF AND DUP2 MSTORE PUSH1 0x20 ADD SWAP1 DUP2 MSTORE PUSH1 0x20 ADD PUSH0 KECCAK256 SLOAD EQ PUSH2 0x289 JUMPI PUSH1 0x40 MLOAD PUSH32 0x8C379A000000000000000000000000000000000000000000000000000000000 DUP2 MSTORE PUSH1 0x4 ADD PUSH2 0x280 SWAP1 PUSH2 0xA97 JUMP JUMPDEST PUSH1 0x40 MLOAD DUP1 SWAP2 SUB SWAP1 REVERT JUMPDEST PUSH2 0x343 PUSH1 0x40 MLOAD DUP1 PUSH1 0x40 ADD PUSH1 0x40 MSTORE DUP1 PUSH1 0x4 DUP2 MSTORE PUSH1 0x20 ADD PUSH32 0x4672656500000000000000000000000000000000000000000000000000000000 DUP2 MSTORE POP PUSH1 0x40 MLOAD DUP1 PUSH1 0x40 ADD PUSH1 0x40 MSTORE DUP1 PUSH1 0xA DUP2 MSTORE PUSH1 0x20 ADD PUSH32 0x467265655A6F6D62696500000000000000000000000000000000000000000000 DUP2 MSTORE POP PUSH2 0x336 PUSH1 0x40 MLOAD DUP1 PUSH1 0x40 ADD PUSH1 0x40 MSTORE DUP1 PUSH1 0x4 DUP2 MSTORE PUSH1 0x20 ADD PUSH32 0x6672656500000000000000000000000000000000000000000000000000000000 DUP2 MSTORE POP PUSH2 0x440 JUMP JUMPDEST PUSH1 0x1 PUSH0 DUP1 PUSH1 0x2 PUSH0 DUP1 PUSH2 0x483 JUMP JUMPDEST JUMP JUMPDEST PUSH1 0x40 MLOAD DUP1 PUSH1 0x40 ADD PUSH1 0x40 MSTORE DUP1 PUSH1 0x7 DUP2 MSTORE PUSH1 0x20 ADD PUSH32 0x7072656D69756D00000000000000000000000000000000000000000000000000 DUP2 MSTORE POP DUP1 MLOAD SWAP1 PUSH1 0x20 ADD KECCAK256 DUP3 DUP1 MLOAD SWAP1 PUSH1 0x20 ADD KECCAK256 EQ DUP1 PUSH2 0x3D8 JUMPI POP PUSH1 0x40 MLOAD DUP1 PUSH1 0x40 ADD PUSH1 0x40 MSTORE DUP1 PUSH1 0x7 DUP2 MSTORE PUSH1 0x20 ADD PUSH32 0x4469616D6F6E6400000000000000000000000000000000000000000000000000 DUP2 MSTORE POP DUP1 MLOAD SWAP1 PUSH1 0x20 ADD KECCAK256 DUP3 DUP1 MLOAD SWAP1 PUSH1 0x20 ADD KECCAK256 EQ JUMPDEST PUSH2 0x417 JUMPI PUSH1 0x40 MLOAD PUSH32 0x8C379A000000000000000000000000000000000000000000000000000000000 DUP2 MSTORE PUSH1 0x4 ADD PUSH2 0x40E SWAP1 PUSH2 0xAFF JUMP JUMPDEST PUSH1 0x40 MLOAD DUP1 SWAP2 SUB SWAP1 REVERT JUMPDEST PUSH0 PUSH2 0x421 DUP3 PUSH2 0x440 JUMP JUMPDEST SWAP1 POP PUSH2 0x438 DUP4 DUP4 DUP4 PUSH1 0x5 PUSH2 0x1F4 PUSH0 PUSH1 0x5 PUSH0 DUP1 PUSH2 0x483 JUMP JUMPDEST POP POP POP JUMP JUMPDEST POP JUMP JUMPDEST PUSH0 DUP1 DUP3 PUSH1 0x40 MLOAD PUSH1 0x20 ADD PUSH2 0x453 SWAP2 SWAP1 PUSH2 0xB89 JUMP JUMPDEST PUSH1 0x40 MLOAD PUSH1 0x20 DUP2 DUP4 SUB SUB DUP2 MSTORE SWAP1 PUSH1 0x40 MSTORE DUP1 MLOAD SWAP1 PUSH1 0x20 ADD KECCAK256 PUSH0 SHR SWAP1 POP PUSH1 0x2 SLOAD DUP2 PUSH2 0x47B SWAP2 SWAP1 PUSH2 0xBCC JUMP JUMPDEST SWAP2 POP POP SWAP2 SWAP1 POP JUMP JUMPDEST PUSH1 0x3 PUSH1 0x40 MLOAD DUP1 PUSH2 0x120 ADD PUSH1 0x40 MSTORE DUP1 DUP12 DUP2 MSTORE PUSH1 0x20 ADD DUP11 DUP2 MSTORE PUSH1 0x20 ADD DUP10 DUP2 MSTORE PUSH1 0x20 ADD DUP9 DUP2 MSTORE PUSH1 0x20 ADD DUP8 DUP2 MSTORE PUSH1 0x20 ADD DUP7 DUP2 MSTORE PUSH1 0x20 ADD DUP6 DUP2 MSTORE PUSH1 0x20 ADD DUP5 DUP2 MSTORE PUSH1 0x20 ADD DUP4 DUP2 MSTORE POP SWAP1 DUP1 PUSH1 0x1 DUP2 SLOAD ADD DUP1 DUP3 SSTORE DUP1 SWAP2 POP POP PUSH1 0x1 SWAP1 SUB SWAP1 PUSH0 MSTORE PUSH1 0x20 PUSH0 KECCAK256 SWAP1 PUSH1 0x9 MUL ADD PUSH0 SWAP1 SWAP2 SWAP1 SWAP2 SWAP1 SWAP2 POP PUSH0 DUP3 ADD MLOAD DUP2 PUSH0 ADD SWAP1 DUP2 PUSH2 0x4FE SWAP2 SWAP1 PUSH2 0xDF6 JUMP JUMPDEST POP PUSH1 0x20 DUP3 ADD MLOAD DUP2 PUSH1 0x1 ADD SWAP1 DUP2 PUSH2 0x514 SWAP2 SWAP1 PUSH2 0xDF6 JUMP JUMPDEST POP PUSH1 0x40 DUP3 ADD MLOAD DUP2 PUSH1 0x2 ADD SSTORE PUSH1 0x60 DUP3 ADD MLOAD DUP2 PUSH1 0x3 ADD SSTORE PUSH1 0x80 DUP3 ADD MLOAD DUP2 PUSH1 0x4 ADD SSTORE PUSH1 0xA0 DUP3 ADD MLOAD DUP2 PUSH1 0x5 ADD SSTORE PUSH1 0xC0 DUP3 ADD MLOAD DUP2 PUSH1 0x6 ADD SSTORE PUSH1 0xE0 DUP3 ADD MLOAD DUP2 PUSH1 0x7 ADD SSTORE PUSH2 0x100 DUP3 ADD MLOAD DUP2 PUSH1 0x8 ADD SSTORE POP POP PUSH0 PUSH1 0x1 PUSH1 0x3 DUP1 SLOAD SWAP1 POP PUSH2 0x571 SWAP2 SWAP1 PUSH2 0xEC5 JUMP JUMPDEST SWAP1 POP PUSH1 0x1 PUSH0 CALLER PUSH20 0xFFFFFFFFFFFFFFFFFFFFFFFFFFFFFFFFFFFFFFFF AND PUSH20 0xFFFFFFFFFFFFFFFFFFFFFFFFFFFFFFFFFFFFFFFF AND DUP2 MSTORE PUSH1 0x20 ADD SWAP1 DUP2 MSTORE PUSH1 0x20 ADD PUSH0 KECCAK256 PUSH0 DUP2 SLOAD DUP1 SWAP3 SWAP2 SWAP1 PUSH2 0x5C0 SWAP1 PUSH2 0x9F6 JUMP JUMPDEST SWAP2 SWAP1 POP SSTORE POP CALLER PUSH0 DUP1 DUP4 DUP2 MSTORE PUSH1 0x20 ADD SWAP1 DUP2 MSTORE PUSH1 0x20 ADD PUSH0 KECCAK256 PUSH0 PUSH2 0x100 EXP DUP2 SLOAD DUP2 PUSH20 0xFFFFFFFFFFFFFFFFFFFFFFFFFFFFFFFFFFFFFFFF MUL NOT AND SWAP1 DUP4 PUSH20 0xFFFFFFFFFFFFFFFFFFFFFFFFFFFFFFFFFFFFFFFF AND MUL OR SWAP1 SSTORE POP POP POP POP POP POP POP POP POP POP POP JUMP JUMPDEST PUSH0 PUSH1 0x40 MLOAD SWAP1 POP SWAP1 JUMP JUMPDEST PUSH0 DUP1 REVERT JUMPDEST PUSH0 DUP1 REVERT JUMPDEST PUSH0 PUSH20 0xFFFFFFFFFFFFFFFFFFFFFFFFFFFFFFFFFFFFFFFF DUP3 AND SWAP1 POP SWAP2 SWAP1 POP JUMP JUMPDEST PUSH0 PUSH2 0x659 DUP3 PUSH2 0x630 JUMP JUMPDEST SWAP1 POP SWAP2 SWAP1 POP JUMP JUMPDEST PUSH2 0x669 DUP2 PUSH2 0x64F JUMP JUMPDEST DUP2 EQ PUSH2 0x673 JUMPI PUSH0 DUP1 REVERT JUMPDEST POP JUMP JUMPDEST PUSH0 DUP2 CALLDATALOAD SWAP1 POP PUSH2 0x684 DUP2 PUSH2 0x660 JUMP JUMPDEST SWAP3 SWAP2 POP POP JUMP JUMPDEST PUSH0 PUSH1 0x20 DUP3 DUP5 SUB SLT ISZERO PUSH2 0x69F JUMPI PUSH2 0x69E PUSH2 0x628 JUMP JUMPDEST JUMPDEST PUSH0 PUSH2 0x6AC DUP5 DUP3 DUP6 ADD PUSH2 0x676 JUMP JUMPDEST SWAP2 POP POP SWAP3 SWAP2 POP POP JUMP JUMPDEST PUSH0 DUP2 MLOAD SWAP1 POP SWAP2 SWAP1 POP JUMP JUMPDEST PUSH0 DUP3 DUP3 MSTORE PUSH1 0x20 DUP3 ADD SWAP1 POP SWAP3 SWAP2 POP POP JUMP JUMPDEST PUSH0 DUP2 SWAP1 POP PUSH1 0x20 DUP3 ADD SWAP1 POP SWAP2 SWAP1 POP JUMP JUMPDEST PUSH0 DUP2 SWAP1 POP SWAP2 SWAP1 POP JUMP JUMPDEST PUSH2 0x6F0 DUP2 PUSH2 0x6DE JUMP JUMPDEST DUP3 MSTORE POP POP JUMP JUMPDEST PUSH0 PUSH2 0x701 DUP4 DUP4 PUSH2 0x6E7 JUMP JUMPDEST PUSH1 0x20 DUP4 ADD SWAP1 POP SWAP3 SWAP2 POP POP JUMP JUMPDEST PUSH0 PUSH1 0x20 DUP3 ADD SWAP1 POP SWAP2 SWAP1 POP JUMP JUMPDEST PUSH0 PUSH2 0x723 DUP3 PUSH2 0x6B5 JUMP JUMPDEST PUSH2 0x72D DUP2 DUP6 PUSH2 0x6BF JUMP JUMPDEST SWAP4 POP PUSH2 0x738 DUP4 PUSH2 0x6CF JUMP JUMPDEST DUP1 PUSH0 JUMPDEST DUP4 DUP2 LT ISZERO PUSH2 0x768 JUMPI DUP2 MLOAD PUSH2 0x74F DUP9 DUP3 PUSH2 0x6F6 JUMP JUMPDEST SWAP8 POP PUSH2 0x75A DUP4 PUSH2 0x70D JUMP JUMPDEST SWAP3 POP POP PUSH1 0x1 DUP2 ADD SWAP1 POP PUSH2 0x73B JUMP JUMPDEST POP DUP6 SWAP4 POP POP POP POP SWAP3 SWAP2 POP POP JUMP JUMPDEST PUSH0 PUSH1 0x20 DUP3 ADD SWAP1 POP DUP2 DUP2 SUB PUSH0 DUP4 ADD MSTORE PUSH2 0x78D DUP2 DUP5 PUSH2 0x719 JUMP JUMPDEST SWAP1 POP SWAP3 SWAP2 POP POP JUMP JUMPDEST PUSH0 DUP1 REVERT JUMPDEST PUSH0 DUP1 REVERT JUMPDEST PUSH0 PUSH1 0x1F NOT PUSH1 0x1F DUP4 ADD AND SWAP1 POP SWAP2 SWAP1 POP JUMP JUMPDEST PUSH32 0x4E487B7100000000000000000000000000000000000000000000000000000000 PUSH0 MSTORE PUSH1 0x41 PUSH1 0x4 MSTORE PUSH1 0x24 PUSH0 REVERT JUMPDEST PUSH2 0x7E3 DUP3 PUSH2 0x79D JUMP JUMPDEST DUP2 ADD DUP2 DUP2 LT PUSH8 0xFFFFFFFFFFFFFFFF DUP3 GT OR ISZERO PUSH2 0x802 JUMPI PUSH2 0x801 PUSH2 0x7AD JUMP JUMPDEST JUMPDEST DUP1 PUSH1 0x40 MSTORE POP POP POP JUMP JUMPDEST PUSH0 PUSH2 0x814 PUSH2 0x61F JUMP JUMPDEST SWAP1 POP PUSH2 0x820 DUP3 DUP3 PUSH2 0x7DA JUMP JUMPDEST SWAP2 SWAP1 POP JUMP JUMPDEST PUSH0 PUSH8 0xFFFFFFFFFFFFFFFF DUP3 GT ISZERO PUSH2 0x83F JUMPI PUSH2 0x83E PUSH2 0x7AD JUMP JUMPDEST JUMPDEST PUSH2 0x848 DUP3 PUSH2 0x79D JUMP JUMPDEST SWAP1 POP PUSH1 0x20 DUP2 ADD SWAP1 POP SWAP2 SWAP1 POP JUMP JUMPDEST DUP3 DUP2 DUP4 CALLDATACOPY PUSH0 DUP4 DUP4 ADD MSTORE POP POP POP JUMP JUMPDEST PUSH0 PUSH2 0x875 PUSH2 0x870 DUP5 PUSH2 0x825 JUMP JUMPDEST PUSH2 0x80B JUMP JUMPDEST SWAP1 POP DUP3 DUP2 MSTORE PUSH1 0x20 DUP2 ADD DUP5 DUP5 DUP5 ADD GT ISZERO PUSH2 0x891 JUMPI PUSH2 0x890 PUSH2 0x799 JUMP JUMPDEST JUMPDEST PUSH2 0x89C DUP5 DUP3 DUP6 PUSH2 0x855 JUMP JUMPDEST POP SWAP4 SWAP3 POP POP POP JUMP JUMPDEST PUSH0 DUP3 PUSH1 0x1F DUP4 ADD SLT PUSH2 0x8B8 JUMPI PUSH2 0x8B7 PUSH2 0x795 JUMP JUMPDEST JUMPDEST DUP2 CALLDATALOAD PUSH2 0x8C8 DUP5 DUP3 PUSH1 0x20 DUP7 ADD PUSH2 0x863 JUMP JUMPDEST SWAP2 POP POP SWAP3 SWAP2 POP POP JUMP JUMPDEST PUSH0 DUP1 PUSH1 0x40 DUP4 DUP6 SUB SLT ISZERO PUSH2 0x8E7 JUMPI PUSH2 0x8E6 PUSH2 0x628 JUMP JUMPDEST JUMPDEST PUSH0 DUP4 ADD CALLDATALOAD PUSH8 0xFFFFFFFFFFFFFFFF DUP2 GT ISZERO PUSH2 0x904 JUMPI PUSH2 0x903 PUSH2 0x62C JUMP JUMPDEST JUMPDEST PUSH2 0x910 DUP6 DUP3 DUP7 ADD PUSH2 0x8A4 JUMP JUMPDEST SWAP3 POP POP PUSH1 0x20 DUP4 ADD CALLDATALOAD PUSH8 0xFFFFFFFFFFFFFFFF DUP2 GT ISZERO PUSH2 0x931 JUMPI PUSH2 0x930 PUSH2 0x62C JUMP JUMPDEST JUMPDEST PUSH2 0x93D DUP6 DUP3 DUP7 ADD PUSH2 0x8A4 JUMP JUMPDEST SWAP2 POP POP SWAP3 POP SWAP3 SWAP1 POP JUMP JUMPDEST PUSH2 0x950 DUP2 PUSH2 0x6DE JUMP JUMPDEST DUP2 EQ PUSH2 0x95A JUMPI PUSH0 DUP1 REVERT JUMPDEST POP JUMP JUMPDEST PUSH0 DUP2 CALLDATALOAD SWAP1 POP PUSH2 0x96B DUP2 PUSH2 0x947 JUMP JUMPDEST SWAP3 SWAP2 POP POP JUMP JUMPDEST PUSH0 PUSH1 0x20 DUP3 DUP5 SUB SLT ISZERO PUSH2 0x986 JUMPI PUSH2 0x985 PUSH2 0x628 JUMP JUMPDEST JUMPDEST PUSH0 PUSH2 0x993 DUP5 DUP3 DUP6 ADD PUSH2 0x95D JUMP JUMPDEST SWAP2 POP POP SWAP3 SWAP2 POP POP JUMP JUMPDEST PUSH32 0x4E487B7100000000000000000000000000000000000000000000000000000000 PUSH0 MSTORE PUSH1 0x32 PUSH1 0x4 MSTORE PUSH1 0x24 PUSH0 REVERT JUMPDEST PUSH32 0x4E487B7100000000000000000000000000000000000000000000000000000000 PUSH0 MSTORE PUSH1 0x11 PUSH1 0x4 MSTORE PUSH1 0x24 PUSH0 REVERT JUMPDEST PUSH0 PUSH2 0xA00 DUP3 PUSH2 0x6DE JUMP JUMPDEST SWAP2 POP PUSH32 0xFFFFFFFFFFFFFFFFFFFFFFFFFFFFFFFFFFFFFFFFFFFFFFFFFFFFFFFFFFFFFFFF DUP3 SUB PUSH2 0xA32 JUMPI PUSH2 0xA31 PUSH2 0x9C9 JUMP JUMPDEST JUMPDEST PUSH1 0x1 DUP3 ADD SWAP1 POP SWAP2 SWAP1 POP JUMP JUMPDEST PUSH0 DUP3 DUP3 MSTORE PUSH1 0x20 DUP3 ADD SWAP1 POP SWAP3 SWAP2 POP POP JUMP JUMPDEST PUSH32 0x416C726561647920686176652031206E66742E00000000000000000000000000 PUSH0 DUP3 ADD MSTORE POP JUMP JUMPDEST PUSH0 PUSH2 0xA81 PUSH1 0x13 DUP4 PUSH2 0xA3D JUMP JUMPDEST SWAP2 POP PUSH2 0xA8C DUP3 PUSH2 0xA4D JUMP JUMPDEST PUSH1 0x20 DUP3 ADD SWAP1 POP SWAP2 SWAP1 POP JUMP JUMPDEST PUSH0 PUSH1 0x20 DUP3 ADD SWAP1 POP DUP2 DUP2 SUB PUSH0 DUP4 ADD MSTORE PUSH2 0xAAE DUP2 PUSH2 0xA75 JUMP JUMPDEST SWAP1 POP SWAP2 SWAP1 POP JUMP JUMPDEST PUSH32 0x436F7272656374205370656C6C696E6700000000000000000000000000000000 PUSH0 DUP3 ADD MSTORE POP JUMP JUMPDEST PUSH0 PUSH2 0xAE9 PUSH1 0x10 DUP4 PUSH2 0xA3D JUMP JUMPDEST SWAP2 POP PUSH2 0xAF4 DUP3 PUSH2 0xAB5 JUMP JUMPDEST PUSH1 0x20 DUP3 ADD SWAP1 POP SWAP2 SWAP1 POP JUMP JUMPDEST PUSH0 PUSH1 0x20 DUP3 ADD SWAP1 POP DUP2 DUP2 SUB PUSH0 DUP4 ADD MSTORE PUSH2 0xB16 DUP2 PUSH2 0xADD JUMP JUMPDEST SWAP1 POP SWAP2 SWAP1 POP JUMP JUMPDEST PUSH0 DUP2 MLOAD SWAP1 POP SWAP2 SWAP1 POP JUMP JUMPDEST PUSH0 DUP2 SWAP1 POP SWAP3 SWAP2 POP POP JUMP JUMPDEST PUSH0 JUMPDEST DUP4 DUP2 LT ISZERO PUSH2 0xB4E JUMPI DUP1 DUP3 ADD MLOAD DUP2 DUP5 ADD MSTORE PUSH1 0x20 DUP2 ADD SWAP1 POP PUSH2 0xB33 JUMP JUMPDEST PUSH0 DUP5 DUP5 ADD MSTORE POP POP POP POP JUMP JUMPDEST PUSH0 PUSH2 0xB63 DUP3 PUSH2 0xB1D JUMP JUMPDEST PUSH2 0xB6D DUP2 DUP6 PUSH2 0xB27 JUMP JUMPDEST SWAP4 POP PUSH2 0xB7D DUP2 DUP6 PUSH1 0x20 DUP7 ADD PUSH2 0xB31 JUMP JUMPDEST DUP1 DUP5 ADD SWAP2 POP POP SWAP3 SWAP2 POP POP JUMP JUMPDEST PUSH0 PUSH2 0xB94 DUP3 DUP5 PUSH2 0xB59 JUMP JUMPDEST SWAP2 POP DUP2 SWAP1 POP SWAP3 SWAP2 POP POP JUMP JUMPDEST PUSH32 0x4E487B7100000000000000000000000000000000000000000000000000000000 PUSH0 MSTORE PUSH1 0x12 PUSH1 0x4 MSTORE PUSH1 0x24 PUSH0 REVERT JUMPDEST PUSH0 PUSH2 0xBD6 DUP3 PUSH2 0x6DE JUMP JUMPDEST SWAP2 POP PUSH2 0xBE1 DUP4 PUSH2 0x6DE JUMP JUMPDEST SWAP3 POP DUP3 PUSH2 0xBF1 JUMPI PUSH2 0xBF0 PUSH2 0xB9F JUMP JUMPDEST JUMPDEST DUP3 DUP3 MOD SWAP1 POP SWAP3 SWAP2 POP POP JUMP JUMPDEST PUSH32 0x4E487B7100000000000000000000000000000000000000000000000000000000 PUSH0 MSTORE PUSH1 0x22 PUSH1 0x4 MSTORE PUSH1 0x24 PUSH0 REVERT JUMPDEST PUSH0 PUSH1 0x2 DUP3 DIV SWAP1 POP PUSH1 0x1 DUP3 AND DUP1 PUSH2 0xC40 JUMPI PUSH1 0x7F DUP3 AND SWAP2 POP JUMPDEST PUSH1 0x20 DUP3 LT DUP2 SUB PUSH2 0xC53 JUMPI PUSH2 0xC52 PUSH2 0xBFC JUMP JUMPDEST JUMPDEST POP SWAP2 SWAP1 POP JUMP JUMPDEST PUSH0 DUP2 SWAP1 POP DUP2 PUSH0 MSTORE PUSH1 0x20 PUSH0 KECCAK256 SWAP1 POP SWAP2 SWAP1 POP JUMP JUMPDEST PUSH0 PUSH1 0x20 PUSH1 0x1F DUP4 ADD DIV SWAP1 POP SWAP2 SWAP1 POP JUMP JUMPDEST PUSH0 DUP3 DUP3 SHL SWAP1 POP SWAP3 SWAP2 POP POP JUMP JUMPDEST PUSH0 PUSH1 0x8 DUP4 MUL PUSH2 0xCB5 PUSH32 0xFFFFFFFFFFFFFFFFFFFFFFFFFFFFFFFFFFFFFFFFFFFFFFFFFFFFFFFFFFFFFFFF DUP3 PUSH2 0xC7A JUMP JUMPDEST PUSH2 0xCBF DUP7 DUP4 PUSH2 0xC7A JUMP JUMPDEST SWAP6 POP DUP1 NOT DUP5 AND SWAP4 POP DUP1 DUP7 AND DUP5 OR SWAP3 POP POP POP SWAP4 SWAP3 POP POP POP JUMP JUMPDEST PUSH0 DUP2 SWAP1 POP SWAP2 SWAP1 POP JUMP JUMPDEST PUSH0 PUSH2 0xCFA PUSH2 0xCF5 PUSH2 0xCF0 DUP5 PUSH2 0x6DE JUMP JUMPDEST PUSH2 0xCD7 JUMP JUMPDEST PUSH2 0x6DE JUMP JUMPDEST SWAP1 POP SWAP2 SWAP1 POP JUMP JUMPDEST PUSH0 DUP2 SWAP1 POP SWAP2 SWAP1 POP JUMP JUMPDEST PUSH2 0xD13 DUP4 PUSH2 0xCE0 JUMP JUMPDEST PUSH2 0xD27 PUSH2 0xD1F DUP3 PUSH2 0xD01 JUMP JUMPDEST DUP5 DUP5 SLOAD PUSH2 0xC86 JUMP JUMPDEST DUP3 SSTORE POP POP POP POP JUMP JUMPDEST PUSH0 SWAP1 JUMP JUMPDEST PUSH2 0xD3B PUSH2 0xD2F JUMP JUMPDEST PUSH2 0xD46 DUP2 DUP5 DUP5 PUSH2 0xD0A JUMP JUMPDEST POP POP POP JUMP JUMPDEST JUMPDEST DUP2 DUP2 LT ISZERO PUSH2 0xD69 JUMPI PUSH2 0xD5E PUSH0 DUP3 PUSH2 0xD33 JUMP JUMPDEST PUSH1 0x1 DUP2 ADD SWAP1 POP PUSH2 0xD4C JUMP JUMPDEST POP POP JUMP JUMPDEST PUSH1 0x1F DUP3 GT ISZERO PUSH2 0xDAE JUMPI PUSH2 0xD7F DUP2 PUSH2 0xC59 JUMP JUMPDEST PUSH2 0xD88 DUP5 PUSH2 0xC6B JUMP JUMPDEST DUP2 ADD PUSH1 0x20 DUP6 LT ISZERO PUSH2 0xD97 JUMPI DUP2 SWAP1 POP JUMPDEST PUSH2 0xDAB PUSH2 0xDA3 DUP6 PUSH2 0xC6B JUMP JUMPDEST DUP4 ADD DUP3 PUSH2 0xD4B JUMP JUMPDEST POP POP JUMPDEST POP POP POP JUMP JUMPDEST PUSH0 DUP3 DUP3 SHR SWAP1 POP SWAP3 SWAP2 POP POP JUMP JUMPDEST PUSH0 PUSH2 0xDCE PUSH0 NOT DUP5 PUSH1 0x8 MUL PUSH2 0xDB3 JUMP JUMPDEST NOT DUP1 DUP4 AND SWAP2 POP POP SWAP3 SWAP2 POP POP JUMP JUMPDEST PUSH0 PUSH2 0xDE6 DUP4 DUP4 PUSH2 0xDBF JUMP JUMPDEST SWAP2 POP DUP3 PUSH1 0x2 MUL DUP3 OR SWAP1 POP SWAP3 SWAP2 POP POP JUMP JUMPDEST PUSH2 0xDFF DUP3 PUSH2 0xB1D JUMP JUMPDEST PUSH8 0xFFFFFFFFFFFFFFFF DUP2 GT ISZERO PUSH2 0xE18 JUMPI PUSH2 0xE17 PUSH2 0x7AD JUMP JUMPDEST JUMPDEST PUSH2 0xE22 DUP3 SLOAD PUSH2 0xC29 JUMP JUMPDEST PUSH2 0xE2D DUP3 DUP3 DUP6 PUSH2 0xD6D JUMP JUMPDEST PUSH0 PUSH1 0x20 SWAP1 POP PUSH1 0x1F DUP4 GT PUSH1 0x1 DUP2 EQ PUSH2 0xE5E JUMPI PUSH0 DUP5 ISZERO PUSH2 0xE4C JUMPI DUP3 DUP8 ADD MLOAD SWAP1 POP JUMPDEST PUSH2 0xE56 DUP6 DUP3 PUSH2 0xDDB JUMP JUMPDEST DUP7 SSTORE POP PUSH2 0xEBD JUMP JUMPDEST PUSH1 0x1F NOT DUP5 AND PUSH2 0xE6C DUP7 PUSH2 0xC59 JUMP JUMPDEST PUSH0 JUMPDEST DUP3 DUP2 LT ISZERO PUSH2 0xE93 JUMPI DUP5 DUP10 ADD MLOAD DUP3 SSTORE PUSH1 0x1 DUP3 ADD SWAP2 POP PUSH1 0x20 DUP6 ADD SWAP5 POP PUSH1 0x20 DUP2 ADD SWAP1 POP PUSH2 0xE6E JUMP JUMPDEST DUP7 DUP4 LT ISZERO PUSH2 0xEB0 JUMPI DUP5 DUP10 ADD MLOAD PUSH2 0xEAC PUSH1 0x1F DUP10 AND DUP3 PUSH2 0xDBF JUMP JUMPDEST DUP4 SSTORE POP JUMPDEST PUSH1 0x1 PUSH1 0x2 DUP9 MUL ADD DUP9 SSTORE POP POP POP JUMPDEST POP POP POP POP POP POP JUMP JUMPDEST PUSH0 PUSH2 0xECF DUP3 PUSH2 0x6DE JUMP JUMPDEST SWAP2 POP PUSH2 0xEDA DUP4 PUSH2 0x6DE JUMP JUMPDEST SWAP3 POP DUP3 DUP3 SUB SWAP1 POP DUP2 DUP2 GT ISZERO PUSH2 0xEF2 JUMPI PUSH2 0xEF1 PUSH2 0x9C9 JUMP JUMPDEST JUMPDEST SWAP3 SWAP2 POP POP JUMP INVALID LOG2 PUSH5 0x6970667358 0x22 SLT KECCAK256 CREATE2 0xDB 0xC2 CALLDATALOAD PUSH32 0xE22082936A6E1B9EB83897F0E33DD327515AAC2A6C998322EBD7D264736F6C63 NUMBER STOP ADDMOD EQ STOP CALLER "
				},
				"gasEstimates": {
					"creation": {
						"codeDepositCost": "777200",
						"executionCost": "22916",
						"totalCost": "800116"
					},
					"external": {
						"BuyOnRent(uint256)": "445",
						"BuyZombie(string,string)": "infinite",
						"FreeZombie()": "infinite",
						"ownerZombies(address)": "infinite"
					}
				},
				"methodIdentifiers": {
					"BuyOnRent(uint256)": "e70364d4",
					"BuyZombie(string,string)": "cb9940b7",
					"FreeZombie()": "b81c3db7",
					"ownerZombies(address)": "3c956b05"
				}
			},
			"storageLayout": {
				"storage": [
					{
						"astId": 5,
						"contract": "contracts/ZombieGame.sol:GetZombie",
						"label": "ZombieOwner",
						"offset": 0,
						"slot": "0",
						"type": "t_mapping(t_uint256,t_address)"
					},
					{
						"astId": 9,
						"contract": "contracts/ZombieGame.sol:GetZombie",
						"label": "ZombieCount",
						"offset": 0,
						"slot": "1",
						"type": "t_mapping(t_address,t_uint256)"
					},
					{
						"astId": 33,
						"contract": "contracts/ZombieGame.sol:GetZombie",
						"label": "dnaLength",
						"offset": 0,
						"slot": "2",
						"type": "t_uint256"
					},
					{
						"astId": 37,
						"contract": "contracts/ZombieGame.sol:GetZombie",
						"label": "zombies",
						"offset": 0,
						"slot": "3",
						"type": "t_array(t_struct(zombieDetails)28_storage)dyn_storage"
					}
				],
				"types": {
					"t_address": {
						"encoding": "inplace",
						"label": "address",
						"numberOfBytes": "20"
					},
					"t_array(t_struct(zombieDetails)28_storage)dyn_storage": {
						"base": "t_struct(zombieDetails)28_storage",
						"encoding": "dynamic_array",
						"label": "struct ZombieGame.zombieDetails[]",
						"numberOfBytes": "32"
					},
					"t_mapping(t_address,t_uint256)": {
						"encoding": "mapping",
						"key": "t_address",
						"label": "mapping(address => uint256)",
						"numberOfBytes": "32",
						"value": "t_uint256"
					},
					"t_mapping(t_uint256,t_address)": {
						"encoding": "mapping",
						"key": "t_uint256",
						"label": "mapping(uint256 => address)",
						"numberOfBytes": "32",
						"value": "t_address"
					},
					"t_string_storage": {
						"encoding": "bytes",
						"label": "string",
						"numberOfBytes": "32"
					},
					"t_struct(zombieDetails)28_storage": {
						"encoding": "inplace",
						"label": "struct ZombieGame.zombieDetails",
						"members": [
							{
								"astId": 11,
								"contract": "contracts/ZombieGame.sol:GetZombie",
								"label": "plan",
								"offset": 0,
								"slot": "0",
								"type": "t_string_storage"
							},
							{
								"astId": 13,
								"contract": "contracts/ZombieGame.sol:GetZombie",
								"label": "name",
								"offset": 0,
								"slot": "1",
								"type": "t_string_storage"
							},
							{
								"astId": 15,
								"contract": "contracts/ZombieGame.sol:GetZombie",
								"label": "dna",
								"offset": 0,
								"slot": "2",
								"type": "t_uint256"
							},
							{
								"astId": 17,
								"contract": "contracts/ZombieGame.sol:GetZombie",
								"label": "level",
								"offset": 0,
								"slot": "3",
								"type": "t_uint256"
							},
							{
								"astId": 19,
								"contract": "contracts/ZombieGame.sol:GetZombie",
								"label": "xp",
								"offset": 0,
								"slot": "4",
								"type": "t_uint256"
							},
							{
								"astId": 21,
								"contract": "contracts/ZombieGame.sol:GetZombie",
								"label": "TotalMatch",
								"offset": 0,
								"slot": "5",
								"type": "t_uint256"
							},
							{
								"astId": 23,
								"contract": "contracts/ZombieGame.sol:GetZombie",
								"label": "MatchLeft",
								"offset": 0,
								"slot": "6",
								"type": "t_uint256"
							},
							{
								"astId": 25,
								"contract": "contracts/ZombieGame.sol:GetZombie",
								"label": "Wins",
								"offset": 0,
								"slot": "7",
								"type": "t_uint256"
							},
							{
								"astId": 27,
								"contract": "contracts/ZombieGame.sol:GetZombie",
								"label": "Looses",
								"offset": 0,
								"slot": "8",
								"type": "t_uint256"
							}
						],
						"numberOfBytes": "288"
					},
					"t_uint256": {
						"encoding": "inplace",
						"label": "uint256",
						"numberOfBytes": "32"
					}
				}
			},
			"userdoc": {
				"kind": "user",
				"methods": {},
				"version": 1
			}
		}
	}
}