{
	"contracts/crowdfunding project .sol": {
		"crowdfundind": {
			"abi": [
				{
					"inputs": [
						{
							"internalType": "uint256",
							"name": "_target",
							"type": "uint256"
						},
						{
							"internalType": "uint256",
							"name": "_deadline",
							"type": "uint256"
						}
					],
					"stateMutability": "nonpayable",
					"type": "constructor"
				},
				{
					"inputs": [
						{
							"internalType": "address",
							"name": "",
							"type": "address"
						}
					],
					"name": "contributors",
					"outputs": [
						{
							"internalType": "uint256",
							"name": "",
							"type": "uint256"
						}
					],
					"stateMutability": "view",
					"type": "function"
				},
				{
					"inputs": [
						{
							"internalType": "string",
							"name": "_discription",
							"type": "string"
						},
						{
							"internalType": "address payable",
							"name": "_receipient",
							"type": "address"
						},
						{
							"internalType": "uint256",
							"name": "_value",
							"type": "uint256"
						}
					],
					"name": "createRequests",
					"outputs": [],
					"stateMutability": "nonpayable",
					"type": "function"
				},
				{
					"inputs": [],
					"name": "deadline",
					"outputs": [
						{
							"internalType": "uint256",
							"name": "",
							"type": "uint256"
						}
					],
					"stateMutability": "view",
					"type": "function"
				},
				{
					"inputs": [],
					"name": "getcontractbalance",
					"outputs": [
						{
							"internalType": "uint256",
							"name": "",
							"type": "uint256"
						}
					],
					"stateMutability": "view",
					"type": "function"
				},
				{
					"inputs": [
						{
							"internalType": "uint256",
							"name": "_requestNo",
							"type": "uint256"
						}
					],
					"name": "makepayment",
					"outputs": [],
					"stateMutability": "nonpayable",
					"type": "function"
				},
				{
					"inputs": [],
					"name": "manager",
					"outputs": [
						{
							"internalType": "address",
							"name": "",
							"type": "address"
						}
					],
					"stateMutability": "view",
					"type": "function"
				},
				{
					"inputs": [],
					"name": "minimumcontribution",
					"outputs": [
						{
							"internalType": "uint256",
							"name": "",
							"type": "uint256"
						}
					],
					"stateMutability": "view",
					"type": "function"
				},
				{
					"inputs": [],
					"name": "noofcontributors",
					"outputs": [
						{
							"internalType": "uint256",
							"name": "",
							"type": "uint256"
						}
					],
					"stateMutability": "view",
					"type": "function"
				},
				{
					"inputs": [],
					"name": "numrequests",
					"outputs": [
						{
							"internalType": "uint256",
							"name": "",
							"type": "uint256"
						}
					],
					"stateMutability": "view",
					"type": "function"
				},
				{
					"inputs": [],
					"name": "raisedamount",
					"outputs": [
						{
							"internalType": "uint256",
							"name": "",
							"type": "uint256"
						}
					],
					"stateMutability": "view",
					"type": "function"
				},
				{
					"inputs": [],
					"name": "refund",
					"outputs": [],
					"stateMutability": "nonpayable",
					"type": "function"
				},
				{
					"inputs": [
						{
							"internalType": "uint256",
							"name": "",
							"type": "uint256"
						}
					],
					"name": "requests",
					"outputs": [
						{
							"internalType": "string",
							"name": "description",
							"type": "string"
						},
						{
							"internalType": "address payable",
							"name": "receipient",
							"type": "address"
						},
						{
							"internalType": "uint256",
							"name": "value",
							"type": "uint256"
						},
						{
							"internalType": "bool",
							"name": "votingcompleted",
							"type": "bool"
						},
						{
							"internalType": "uint256",
							"name": "noofvoters",
							"type": "uint256"
						}
					],
					"stateMutability": "view",
					"type": "function"
				},
				{
					"inputs": [],
					"name": "sendether",
					"outputs": [],
					"stateMutability": "payable",
					"type": "function"
				},
				{
					"inputs": [],
					"name": "target",
					"outputs": [
						{
							"internalType": "uint256",
							"name": "",
							"type": "uint256"
						}
					],
					"stateMutability": "view",
					"type": "function"
				},
				{
					"inputs": [
						{
							"internalType": "uint256",
							"name": "_requestNo",
							"type": "uint256"
						}
					],
					"name": "voterequest",
					"outputs": [],
					"stateMutability": "nonpayable",
					"type": "function"
				}
			],
			"devdoc": {
				"kind": "dev",
				"methods": {},
				"version": 1
			},
			"evm": {
				"assembly": "    /* \"contracts/crowdfunding project .sol\":327:6430  contract crowdfundind{... */\n  mstore(0x40, 0x80)\n    /* \"contracts/crowdfunding project .sol\":680:962  constructor(uint _target, uint _deadline){... */\n  callvalue\n  dup1\n  iszero\n  tag_1\n  jumpi\n  0x00\n  dup1\n  revert\ntag_1:\n  pop\n  mload(0x40)\n  sub(codesize, bytecodeSize)\n  dup1\n  bytecodeSize\n  dup4\n  codecopy\n  dup2\n  dup2\n  add\n  0x40\n  mstore\n  dup2\n  add\n  swap1\n  tag_2\n  swap2\n  swap1\n  tag_3\n  jump\t// in\ntag_2:\n    /* \"contracts/crowdfunding project .sol\":739:746  _target */\n  dup2\n    /* \"contracts/crowdfunding project .sol\":732:738  target */\n  0x04\n    /* \"contracts/crowdfunding project .sol\":732:746  target=_target */\n  dup2\n  swap1\n  sstore\n  pop\n    /* \"contracts/crowdfunding project .sol\":825:834  _deadline */\n  dup1\n    /* \"contracts/crowdfunding project .sol\":807:822  block.timestamp */\n  timestamp\n    /* \"contracts/crowdfunding project .sol\":807:834  block.timestamp + _deadline */\n  tag_6\n  swap2\n  swap1\n  tag_7\n  jump\t// in\ntag_6:\n    /* \"contracts/crowdfunding project .sol\":797:805  deadline */\n  0x03\n    /* \"contracts/crowdfunding project .sol\":797:834  deadline= block.timestamp + _deadline */\n  dup2\n  swap1\n  sstore\n  pop\n    /* \"contracts/crowdfunding project .sol\":918:925  100 wei */\n  0x64\n    /* \"contracts/crowdfunding project .sol\":897:916  minimumcontribution */\n  0x02\n    /* \"contracts/crowdfunding project .sol\":897:925  minimumcontribution= 100 wei */\n  dup2\n  swap1\n  sstore\n  pop\n    /* \"contracts/crowdfunding project .sol\":944:954  msg.sender */\n  caller\n    /* \"contracts/crowdfunding project .sol\":936:943  manager */\n  0x01\n  0x00\n    /* \"contracts/crowdfunding project .sol\":936:954  manager=msg.sender */\n  0x0100\n  exp\n  dup2\n  sload\n  dup2\n  0xffffffffffffffffffffffffffffffffffffffff\n  mul\n  not\n  and\n  swap1\n  dup4\n  0xffffffffffffffffffffffffffffffffffffffff\n  and\n  mul\n  or\n  swap1\n  sstore\n  pop\n    /* \"contracts/crowdfunding project .sol\":680:962  constructor(uint _target, uint _deadline){... */\n  pop\n  pop\n    /* \"contracts/crowdfunding project .sol\":327:6430  contract crowdfundind{... */\n  jump(tag_8)\n    /* \"#utility.yul\":88:205   */\ntag_10:\n    /* \"#utility.yul\":197:198   */\n  0x00\n    /* \"#utility.yul\":194:195   */\n  dup1\n    /* \"#utility.yul\":187:199   */\n  revert\n    /* \"#utility.yul\":334:411   */\ntag_12:\n    /* \"#utility.yul\":371:378   */\n  0x00\n    /* \"#utility.yul\":400:405   */\n  dup2\n    /* \"#utility.yul\":389:405   */\n  swap1\n  pop\n    /* \"#utility.yul\":334:411   */\n  swap2\n  swap1\n  pop\n  jump\t// out\n    /* \"#utility.yul\":417:539   */\ntag_13:\n    /* \"#utility.yul\":490:514   */\n  tag_22\n    /* \"#utility.yul\":508:513   */\n  dup2\n    /* \"#utility.yul\":490:514   */\n  tag_12\n  jump\t// in\ntag_22:\n    /* \"#utility.yul\":483:488   */\n  dup2\n    /* \"#utility.yul\":480:515   */\n  eq\n    /* \"#utility.yul\":470:533   */\n  tag_23\n  jumpi\n    /* \"#utility.yul\":529:530   */\n  0x00\n    /* \"#utility.yul\":526:527   */\n  dup1\n    /* \"#utility.yul\":519:531   */\n  revert\n    /* \"#utility.yul\":470:533   */\ntag_23:\n    /* \"#utility.yul\":417:539   */\n  pop\n  jump\t// out\n    /* \"#utility.yul\":545:688   */\ntag_14:\n    /* \"#utility.yul\":602:607   */\n  0x00\n    /* \"#utility.yul\":633:639   */\n  dup2\n    /* \"#utility.yul\":627:640   */\n  mload\n    /* \"#utility.yul\":618:640   */\n  swap1\n  pop\n    /* \"#utility.yul\":649:682   */\n  tag_25\n    /* \"#utility.yul\":676:681   */\n  dup2\n    /* \"#utility.yul\":649:682   */\n  tag_13\n  jump\t// in\ntag_25:\n    /* \"#utility.yul\":545:688   */\n  swap3\n  swap2\n  pop\n  pop\n  jump\t// out\n    /* \"#utility.yul\":694:1201   */\ntag_3:\n    /* \"#utility.yul\":773:779   */\n  0x00\n    /* \"#utility.yul\":781:787   */\n  dup1\n    /* \"#utility.yul\":830:832   */\n  0x40\n    /* \"#utility.yul\":818:827   */\n  dup4\n    /* \"#utility.yul\":809:816   */\n  dup6\n    /* \"#utility.yul\":805:828   */\n  sub\n    /* \"#utility.yul\":801:833   */\n  slt\n    /* \"#utility.yul\":798:917   */\n  iszero\n  tag_27\n  jumpi\n    /* \"#utility.yul\":836:915   */\n  tag_28\n  tag_10\n  jump\t// in\ntag_28:\n    /* \"#utility.yul\":798:917   */\ntag_27:\n    /* \"#utility.yul\":956:957   */\n  0x00\n    /* \"#utility.yul\":981:1045   */\n  tag_29\n    /* \"#utility.yul\":1037:1044   */\n  dup6\n    /* \"#utility.yul\":1028:1034   */\n  dup3\n    /* \"#utility.yul\":1017:1026   */\n  dup7\n    /* \"#utility.yul\":1013:1035   */\n  add\n    /* \"#utility.yul\":981:1045   */\n  tag_14\n  jump\t// in\ntag_29:\n    /* \"#utility.yul\":971:1045   */\n  swap3\n  pop\n    /* \"#utility.yul\":927:1055   */\n  pop\n    /* \"#utility.yul\":1094:1096   */\n  0x20\n    /* \"#utility.yul\":1120:1184   */\n  tag_30\n    /* \"#utility.yul\":1176:1183   */\n  dup6\n    /* \"#utility.yul\":1167:1173   */\n  dup3\n    /* \"#utility.yul\":1156:1165   */\n  dup7\n    /* \"#utility.yul\":1152:1174   */\n  add\n    /* \"#utility.yul\":1120:1184   */\n  tag_14\n  jump\t// in\ntag_30:\n    /* \"#utility.yul\":1110:1184   */\n  swap2\n  pop\n    /* \"#utility.yul\":1065:1194   */\n  pop\n    /* \"#utility.yul\":694:1201   */\n  swap3\n  pop\n  swap3\n  swap1\n  pop\n  jump\t// out\n    /* \"#utility.yul\":1207:1387   */\ntag_15:\n    /* \"#utility.yul\":1255:1332   */\n  0x4e487b7100000000000000000000000000000000000000000000000000000000\n    /* \"#utility.yul\":1252:1253   */\n  0x00\n    /* \"#utility.yul\":1245:1333   */\n  mstore\n    /* \"#utility.yul\":1352:1356   */\n  0x11\n    /* \"#utility.yul\":1349:1350   */\n  0x04\n    /* \"#utility.yul\":1342:1357   */\n  mstore\n    /* \"#utility.yul\":1376:1380   */\n  0x24\n    /* \"#utility.yul\":1373:1374   */\n  0x00\n    /* \"#utility.yul\":1366:1381   */\n  revert\n    /* \"#utility.yul\":1393:1584   */\ntag_7:\n    /* \"#utility.yul\":1433:1436   */\n  0x00\n    /* \"#utility.yul\":1452:1472   */\n  tag_33\n    /* \"#utility.yul\":1470:1471   */\n  dup3\n    /* \"#utility.yul\":1452:1472   */\n  tag_12\n  jump\t// in\ntag_33:\n    /* \"#utility.yul\":1447:1472   */\n  swap2\n  pop\n    /* \"#utility.yul\":1486:1506   */\n  tag_34\n    /* \"#utility.yul\":1504:1505   */\n  dup4\n    /* \"#utility.yul\":1486:1506   */\n  tag_12\n  jump\t// in\ntag_34:\n    /* \"#utility.yul\":1481:1506   */\n  swap3\n  pop\n    /* \"#utility.yul\":1529:1530   */\n  dup3\n    /* \"#utility.yul\":1526:1527   */\n  dup3\n    /* \"#utility.yul\":1522:1531   */\n  add\n    /* \"#utility.yul\":1515:1531   */\n  swap1\n  pop\n    /* \"#utility.yul\":1550:1553   */\n  dup1\n    /* \"#utility.yul\":1547:1548   */\n  dup3\n    /* \"#utility.yul\":1544:1554   */\n  gt\n    /* \"#utility.yul\":1541:1577   */\n  iszero\n  tag_35\n  jumpi\n    /* \"#utility.yul\":1557:1575   */\n  tag_36\n  tag_15\n  jump\t// in\ntag_36:\n    /* \"#utility.yul\":1541:1577   */\ntag_35:\n    /* \"#utility.yul\":1393:1584   */\n  swap3\n  swap2\n  pop\n  pop\n  jump\t// out\n    /* \"contracts/crowdfunding project .sol\":327:6430  contract crowdfundind{... */\ntag_8:\n  dataSize(sub_0)\n  dup1\n  dataOffset(sub_0)\n  0x00\n  codecopy\n  0x00\n  return\nstop\n\nsub_0: assembly {\n        /* \"contracts/crowdfunding project .sol\":327:6430  contract crowdfundind{... */\n      mstore(0x40, 0x80)\n      jumpi(tag_1, lt(calldatasize, 0x04))\n      shr(0xe0, calldataload(0x00))\n      dup1\n      0x81d12c58\n      gt\n      tag_17\n      jumpi\n      dup1\n      0xa8622ffe\n      gt\n      tag_18\n      jumpi\n      dup1\n      0xa8622ffe\n      eq\n      tag_13\n      jumpi\n      dup1\n      0xcbaf8671\n      eq\n      tag_14\n      jumpi\n      dup1\n      0xd4b83992\n      eq\n      tag_15\n      jumpi\n      dup1\n      0xf28bf146\n      eq\n      tag_16\n      jumpi\n      jump(tag_1)\n    tag_18:\n      dup1\n      0x81d12c58\n      eq\n      tag_9\n      jumpi\n      dup1\n      0x83238798\n      eq\n      tag_10\n      jumpi\n      dup1\n      0x967c67ce\n      eq\n      tag_11\n      jumpi\n      dup1\n      0x9e791d8b\n      eq\n      tag_12\n      jumpi\n      jump(tag_1)\n    tag_17:\n      dup1\n      0x3b644d18\n      gt\n      tag_19\n      jumpi\n      dup1\n      0x3b644d18\n      eq\n      tag_5\n      jumpi\n      dup1\n      0x3eb7647b\n      eq\n      tag_6\n      jumpi\n      dup1\n      0x481c6a75\n      eq\n      tag_7\n      jumpi\n      dup1\n      0x590e1ae3\n      eq\n      tag_8\n      jumpi\n      jump(tag_1)\n    tag_19:\n      dup1\n      0x0ae0ad71\n      eq\n      tag_2\n      jumpi\n      dup1\n      0x1f6d4942\n      eq\n      tag_3\n      jumpi\n      dup1\n      0x29dcb0cf\n      eq\n      tag_4\n      jumpi\n    tag_1:\n      0x00\n      dup1\n      revert\n        /* \"contracts/crowdfunding project .sol\":3695:3718  uint public numrequests */\n    tag_2:\n      callvalue\n      dup1\n      iszero\n      tag_20\n      jumpi\n      0x00\n      dup1\n      revert\n    tag_20:\n      pop\n      tag_21\n      tag_22\n      jump\t// in\n    tag_21:\n      mload(0x40)\n      tag_23\n      swap2\n      swap1\n      tag_24\n      jump\t// in\n    tag_23:\n      mload(0x40)\n      dup1\n      swap2\n      sub\n      swap1\n      return\n        /* \"contracts/crowdfunding project .sol\":355:399  mapping (address=>uint)  public contributors */\n    tag_3:\n      callvalue\n      dup1\n      iszero\n      tag_25\n      jumpi\n      0x00\n      dup1\n      revert\n    tag_25:\n      pop\n      tag_26\n      0x04\n      dup1\n      calldatasize\n      sub\n      dup2\n      add\n      swap1\n      tag_27\n      swap2\n      swap1\n      tag_28\n      jump\t// in\n    tag_27:\n      tag_29\n      jump\t// in\n    tag_26:\n      mload(0x40)\n      tag_30\n      swap2\n      swap1\n      tag_24\n      jump\t// in\n    tag_30:\n      mload(0x40)\n      dup1\n      swap2\n      sub\n      swap1\n      return\n        /* \"contracts/crowdfunding project .sol\":560:580  uint public deadline */\n    tag_4:\n      callvalue\n      dup1\n      iszero\n      tag_31\n      jumpi\n      0x00\n      dup1\n      revert\n    tag_31:\n      pop\n      tag_32\n      tag_33\n      jump\t// in\n    tag_32:\n      mload(0x40)\n      tag_34\n      swap2\n      swap1\n      tag_24\n      jump\t// in\n    tag_34:\n      mload(0x40)\n      dup1\n      swap2\n      sub\n      swap1\n      return\n        /* \"contracts/crowdfunding project .sol\":612:636  uint public raisedamount */\n    tag_5:\n      callvalue\n      dup1\n      iszero\n      tag_35\n      jumpi\n      0x00\n      dup1\n      revert\n    tag_35:\n      pop\n      tag_36\n      tag_37\n      jump\t// in\n    tag_36:\n      mload(0x40)\n      tag_38\n      swap2\n      swap1\n      tag_24\n      jump\t// in\n    tag_38:\n      mload(0x40)\n      dup1\n      swap2\n      sub\n      swap1\n      return\n        /* \"contracts/crowdfunding project .sol\":3840:4735  function createRequests(string memory _discription, address payable _receipient, uint _value ) public onlymanager{... */\n    tag_6:\n      callvalue\n      dup1\n      iszero\n      tag_39\n      jumpi\n      0x00\n      dup1\n      revert\n    tag_39:\n      pop\n      tag_40\n      0x04\n      dup1\n      calldatasize\n      sub\n      dup2\n      add\n      swap1\n      tag_41\n      swap2\n      swap1\n      tag_42\n      jump\t// in\n    tag_41:\n      tag_43\n      jump\t// in\n    tag_40:\n      stop\n        /* \"contracts/crowdfunding project .sol\":493:515  address public manager */\n    tag_7:\n      callvalue\n      dup1\n      iszero\n      tag_44\n      jumpi\n      0x00\n      dup1\n      revert\n    tag_44:\n      pop\n      tag_45\n      tag_46\n      jump\t// in\n    tag_45:\n      mload(0x40)\n      tag_47\n      swap2\n      swap1\n      tag_48\n      jump\t// in\n    tag_47:\n      mload(0x40)\n      dup1\n      swap2\n      sub\n      swap1\n      return\n        /* \"contracts/crowdfunding project .sol\":2477:3206  function refund() public {... */\n    tag_8:\n      callvalue\n      dup1\n      iszero\n      tag_49\n      jumpi\n      0x00\n      dup1\n      revert\n    tag_49:\n      pop\n      tag_50\n      tag_51\n      jump\t// in\n    tag_50:\n      stop\n        /* \"contracts/crowdfunding project .sol\":3647:3688  mapping (uint => Request) public requests */\n    tag_9:\n      callvalue\n      dup1\n      iszero\n      tag_52\n      jumpi\n      0x00\n      dup1\n      revert\n    tag_52:\n      pop\n      tag_53\n      0x04\n      dup1\n      calldatasize\n      sub\n      dup2\n      add\n      swap1\n      tag_54\n      swap2\n      swap1\n      tag_55\n      jump\t// in\n    tag_54:\n      tag_56\n      jump\t// in\n    tag_53:\n      mload(0x40)\n      tag_57\n      swap6\n      swap5\n      swap4\n      swap3\n      swap2\n      swap1\n      tag_58\n      jump\t// in\n    tag_57:\n      mload(0x40)\n      dup1\n      swap2\n      sub\n      swap1\n      return\n        /* \"contracts/crowdfunding project .sol\":643:671  uint public noofcontributors */\n    tag_10:\n      callvalue\n      dup1\n      iszero\n      tag_59\n      jumpi\n      0x00\n      dup1\n      revert\n    tag_59:\n      pop\n      tag_60\n      tag_61\n      jump\t// in\n    tag_60:\n      mload(0x40)\n      tag_62\n      swap2\n      swap1\n      tag_24\n      jump\t// in\n    tag_62:\n      mload(0x40)\n      dup1\n      swap2\n      sub\n      swap1\n      return\n        /* \"contracts/crowdfunding project .sol\":4743:5487  function voterequest(uint _requestNo) public  {... */\n    tag_11:\n      callvalue\n      dup1\n      iszero\n      tag_63\n      jumpi\n      0x00\n      dup1\n      revert\n    tag_63:\n      pop\n      tag_64\n      0x04\n      dup1\n      calldatasize\n      sub\n      dup2\n      add\n      swap1\n      tag_65\n      swap2\n      swap1\n      tag_55\n      jump\t// in\n    tag_65:\n      tag_66\n      jump\t// in\n    tag_64:\n      stop\n        /* \"contracts/crowdfunding project .sol\":1231:2359  function sendether() public payable {... */\n    tag_12:\n      tag_67\n      tag_68\n      jump\t// in\n    tag_67:\n      stop\n        /* \"contracts/crowdfunding project .sol\":522:553  uint public minimumcontribution */\n    tag_13:\n      callvalue\n      dup1\n      iszero\n      tag_69\n      jumpi\n      0x00\n      dup1\n      revert\n    tag_69:\n      pop\n      tag_70\n      tag_71\n      jump\t// in\n    tag_70:\n      mload(0x40)\n      tag_72\n      swap2\n      swap1\n      tag_24\n      jump\t// in\n    tag_72:\n      mload(0x40)\n      dup1\n      swap2\n      sub\n      swap1\n      return\n        /* \"contracts/crowdfunding project .sol\":5493:6421  function makepayment(uint _requestNo) public onlymanager{... */\n    tag_14:\n      callvalue\n      dup1\n      iszero\n      tag_73\n      jumpi\n      0x00\n      dup1\n      revert\n    tag_73:\n      pop\n      tag_74\n      0x04\n      dup1\n      calldatasize\n      sub\n      dup2\n      add\n      swap1\n      tag_75\n      swap2\n      swap1\n      tag_55\n      jump\t// in\n    tag_75:\n      tag_76\n      jump\t// in\n    tag_74:\n      stop\n        /* \"contracts/crowdfunding project .sol\":587:605  uint public target */\n    tag_15:\n      callvalue\n      dup1\n      iszero\n      tag_77\n      jumpi\n      0x00\n      dup1\n      revert\n    tag_77:\n      pop\n      tag_78\n      tag_79\n      jump\t// in\n    tag_78:\n      mload(0x40)\n      tag_80\n      swap2\n      swap1\n      tag_24\n      jump\t// in\n    tag_80:\n      mload(0x40)\n      dup1\n      swap2\n      sub\n      swap1\n      return\n        /* \"contracts/crowdfunding project .sol\":2367:2469  function getcontractbalance() public view returns(uint){... */\n    tag_16:\n      callvalue\n      dup1\n      iszero\n      tag_81\n      jumpi\n      0x00\n      dup1\n      revert\n    tag_81:\n      pop\n      tag_82\n      tag_83\n      jump\t// in\n    tag_82:\n      mload(0x40)\n      tag_84\n      swap2\n      swap1\n      tag_24\n      jump\t// in\n    tag_84:\n      mload(0x40)\n      dup1\n      swap2\n      sub\n      swap1\n      return\n        /* \"contracts/crowdfunding project .sol\":3695:3718  uint public numrequests */\n    tag_22:\n      sload(0x08)\n      dup2\n      jump\t// out\n        /* \"contracts/crowdfunding project .sol\":355:399  mapping (address=>uint)  public contributors */\n    tag_29:\n      mstore(0x20, 0x00)\n      dup1\n      0x00\n      mstore\n      keccak256(0x00, 0x40)\n      0x00\n      swap2\n      pop\n      swap1\n      pop\n      sload\n      dup2\n      jump\t// out\n        /* \"contracts/crowdfunding project .sol\":560:580  uint public deadline */\n    tag_33:\n      sload(0x03)\n      dup2\n      jump\t// out\n        /* \"contracts/crowdfunding project .sol\":612:636  uint public raisedamount */\n    tag_37:\n      sload(0x05)\n      dup2\n      jump\t// out\n        /* \"contracts/crowdfunding project .sol\":3840:4735  function createRequests(string memory _discription, address payable _receipient, uint _value ) public onlymanager{... */\n    tag_43:\n        /* \"contracts/crowdfunding project .sol\":3780:3787  manager */\n      0x01\n      0x00\n      swap1\n      sload\n      swap1\n      0x0100\n      exp\n      swap1\n      div\n      0xffffffffffffffffffffffffffffffffffffffff\n      and\n        /* \"contracts/crowdfunding project .sol\":3768:3787  msg.sender==manager */\n      0xffffffffffffffffffffffffffffffffffffffff\n      and\n        /* \"contracts/crowdfunding project .sol\":3768:3778  msg.sender */\n      caller\n        /* \"contracts/crowdfunding project .sol\":3768:3787  msg.sender==manager */\n      0xffffffffffffffffffffffffffffffffffffffff\n      and\n      eq\n        /* \"contracts/crowdfunding project .sol\":3760:3812  require(msg.sender==manager,\"only manager can call\") */\n      tag_86\n      jumpi\n      mload(0x40)\n      0x08c379a000000000000000000000000000000000000000000000000000000000\n      dup2\n      mstore\n      0x04\n      add\n      tag_87\n      swap1\n      tag_88\n      jump\t// in\n    tag_87:\n      mload(0x40)\n      dup1\n      swap2\n      sub\n      swap1\n      revert\n    tag_86:\n        /* \"contracts/crowdfunding project .sol\":4235:4260  Request storage usestruct */\n      0x00\n        /* \"contracts/crowdfunding project .sol\":4263:4271  requests */\n      0x07\n        /* \"contracts/crowdfunding project .sol\":4263:4284  requests[numrequests] */\n      0x00\n        /* \"contracts/crowdfunding project .sol\":4272:4283  numrequests */\n      sload(0x08)\n        /* \"contracts/crowdfunding project .sol\":4263:4284  requests[numrequests] */\n      dup2\n      mstore\n      0x20\n      add\n      swap1\n      dup2\n      mstore\n      0x20\n      add\n      0x00\n      keccak256\n        /* \"contracts/crowdfunding project .sol\":4235:4284  Request storage usestruct = requests[numrequests] */\n      swap1\n      pop\n        /* \"contracts/crowdfunding project .sol\":4518:4529  numrequests */\n      0x08\n      0x00\n        /* \"contracts/crowdfunding project .sol\":4518:4531  numrequests++ */\n      dup2\n      sload\n      dup1\n      swap3\n      swap2\n      swap1\n      tag_90\n      swap1\n      tag_91\n      jump\t// in\n    tag_90:\n      swap2\n      swap1\n      pop\n      sstore\n      pop\n        /* \"contracts/crowdfunding project .sol\":4564:4576  _discription */\n      dup4\n        /* \"contracts/crowdfunding project .sol\":4542:4551  usestruct */\n      dup2\n        /* \"contracts/crowdfunding project .sol\":4542:4563  usestruct.description */\n      0x00\n      add\n        /* \"contracts/crowdfunding project .sol\":4542:4576  usestruct.description=_discription */\n      swap1\n      dup2\n      tag_92\n      swap2\n      swap1\n      tag_93\n      jump\t// in\n    tag_92:\n      pop\n        /* \"contracts/crowdfunding project .sol\":4608:4619  _receipient */\n      dup3\n        /* \"contracts/crowdfunding project .sol\":4587:4596  usestruct */\n      dup2\n        /* \"contracts/crowdfunding project .sol\":4587:4607  usestruct.receipient */\n      0x01\n      add\n      0x00\n        /* \"contracts/crowdfunding project .sol\":4587:4619  usestruct.receipient=_receipient */\n      0x0100\n      exp\n      dup2\n      sload\n      dup2\n      0xffffffffffffffffffffffffffffffffffffffff\n      mul\n      not\n      and\n      swap1\n      dup4\n      0xffffffffffffffffffffffffffffffffffffffff\n      and\n      mul\n      or\n      swap1\n      sstore\n      pop\n        /* \"contracts/crowdfunding project .sol\":4646:4652  _value */\n      dup2\n        /* \"contracts/crowdfunding project .sol\":4630:4639  usestruct */\n      dup2\n        /* \"contracts/crowdfunding project .sol\":4630:4645  usestruct.value */\n      0x02\n      add\n        /* \"contracts/crowdfunding project .sol\":4630:4652  usestruct.value=_value */\n      dup2\n      swap1\n      sstore\n      pop\n        /* \"contracts/crowdfunding project .sol\":4689:4694  false */\n      0x00\n        /* \"contracts/crowdfunding project .sol\":4663:4672  usestruct */\n      dup2\n        /* \"contracts/crowdfunding project .sol\":4663:4688  usestruct.votingcompleted */\n      0x03\n      add\n      0x00\n        /* \"contracts/crowdfunding project .sol\":4663:4694  usestruct.votingcompleted=false */\n      0x0100\n      exp\n      dup2\n      sload\n      dup2\n      0xff\n      mul\n      not\n      and\n      swap1\n      dup4\n      iszero\n      iszero\n      mul\n      or\n      swap1\n      sstore\n      pop\n        /* \"contracts/crowdfunding project .sol\":4726:4727  0 */\n      0x00\n        /* \"contracts/crowdfunding project .sol\":4705:4714  usestruct */\n      dup2\n        /* \"contracts/crowdfunding project .sol\":4705:4725  usestruct.noofvoters */\n      0x04\n      add\n        /* \"contracts/crowdfunding project .sol\":4705:4727  usestruct.noofvoters=0 */\n      dup2\n      swap1\n      sstore\n      pop\n        /* \"contracts/crowdfunding project .sol\":3953:4735  {... */\n      pop\n        /* \"contracts/crowdfunding project .sol\":3840:4735  function createRequests(string memory _discription, address payable _receipient, uint _value ) public onlymanager{... */\n      pop\n      pop\n      pop\n      jump\t// out\n        /* \"contracts/crowdfunding project .sol\":493:515  address public manager */\n    tag_46:\n      0x01\n      0x00\n      swap1\n      sload\n      swap1\n      0x0100\n      exp\n      swap1\n      div\n      0xffffffffffffffffffffffffffffffffffffffff\n      and\n      dup2\n      jump\t// out\n        /* \"contracts/crowdfunding project .sol\":2477:3206  function refund() public {... */\n    tag_51:\n        /* \"contracts/crowdfunding project .sol\":2539:2547  deadline */\n      sload(0x03)\n        /* \"contracts/crowdfunding project .sol\":2521:2536  block.timestamp */\n      timestamp\n        /* \"contracts/crowdfunding project .sol\":2521:2547  block.timestamp > deadline */\n      gt\n        /* \"contracts/crowdfunding project .sol\":2521:2570  block.timestamp > deadline && raisedamount<target */\n      dup1\n      iszero\n      tag_95\n      jumpi\n      pop\n        /* \"contracts/crowdfunding project .sol\":2564:2570  target */\n      sload(0x04)\n        /* \"contracts/crowdfunding project .sol\":2551:2563  raisedamount */\n      sload(0x05)\n        /* \"contracts/crowdfunding project .sol\":2551:2570  raisedamount<target */\n      lt\n        /* \"contracts/crowdfunding project .sol\":2521:2570  block.timestamp > deadline && raisedamount<target */\n    tag_95:\n        /* \"contracts/crowdfunding project .sol\":2513:2587  require(block.timestamp > deadline && raisedamount<target, \"you are late\") */\n      tag_96\n      jumpi\n      mload(0x40)\n      0x08c379a000000000000000000000000000000000000000000000000000000000\n      dup2\n      mstore\n      0x04\n      add\n      tag_97\n      swap1\n      tag_98\n      jump\t// in\n    tag_97:\n      mload(0x40)\n      dup1\n      swap2\n      sub\n      swap1\n      revert\n    tag_96:\n        /* \"contracts/crowdfunding project .sol\":2632:2639  100 wei */\n      0x64\n        /* \"contracts/crowdfunding project .sol\":2606:2618  contributors */\n      0x00\n        /* \"contracts/crowdfunding project .sol\":2606:2630  contributors[msg.sender] */\n      dup1\n        /* \"contracts/crowdfunding project .sol\":2619:2629  msg.sender */\n      caller\n        /* \"contracts/crowdfunding project .sol\":2606:2630  contributors[msg.sender] */\n      0xffffffffffffffffffffffffffffffffffffffff\n      and\n      0xffffffffffffffffffffffffffffffffffffffff\n      and\n      dup2\n      mstore\n      0x20\n      add\n      swap1\n      dup2\n      mstore\n      0x20\n      add\n      0x00\n      keccak256\n      sload\n        /* \"contracts/crowdfunding project .sol\":2606:2639  contributors[msg.sender]>=100 wei */\n      lt\n      iszero\n        /* \"contracts/crowdfunding project .sol\":2598:2668  require(contributors[msg.sender]>=100 wei ,\"you are not contributors\") */\n      tag_99\n      jumpi\n      mload(0x40)\n      0x08c379a000000000000000000000000000000000000000000000000000000000\n      dup2\n      mstore\n      0x04\n      add\n      tag_100\n      swap1\n      tag_101\n      jump\t// in\n    tag_100:\n      mload(0x40)\n      dup1\n      swap2\n      sub\n      swap1\n      revert\n    tag_99:\n        /* \"contracts/crowdfunding project .sol\":2775:2795  address payable user */\n      0x00\n        /* \"contracts/crowdfunding project .sol\":2807:2817  msg.sender */\n      caller\n        /* \"contracts/crowdfunding project .sol\":2775:2818  address payable user = payable (msg.sender) */\n      swap1\n      pop\n        /* \"contracts/crowdfunding project .sol\":3038:3042  user */\n      dup1\n        /* \"contracts/crowdfunding project .sol\":3038:3051  user.transfer */\n      0xffffffffffffffffffffffffffffffffffffffff\n      and\n        /* \"contracts/crowdfunding project .sol\":3038:3077  user.transfer(contributors[msg.sender]) */\n      0x08fc\n        /* \"contracts/crowdfunding project .sol\":3052:3064  contributors */\n      0x00\n        /* \"contracts/crowdfunding project .sol\":3052:3076  contributors[msg.sender] */\n      dup1\n        /* \"contracts/crowdfunding project .sol\":3065:3075  msg.sender */\n      caller\n        /* \"contracts/crowdfunding project .sol\":3052:3076  contributors[msg.sender] */\n      0xffffffffffffffffffffffffffffffffffffffff\n      and\n      0xffffffffffffffffffffffffffffffffffffffff\n      and\n      dup2\n      mstore\n      0x20\n      add\n      swap1\n      dup2\n      mstore\n      0x20\n      add\n      0x00\n      keccak256\n      sload\n        /* \"contracts/crowdfunding project .sol\":3038:3077  user.transfer(contributors[msg.sender]) */\n      swap1\n      dup2\n      iszero\n      mul\n      swap1\n      mload(0x40)\n      0x00\n      mload(0x40)\n      dup1\n      dup4\n      sub\n      dup2\n      dup6\n      dup9\n      dup9\n      call\n      swap4\n      pop\n      pop\n      pop\n      pop\n      iszero\n      dup1\n      iszero\n      tag_103\n      jumpi\n      returndatasize\n      0x00\n      dup1\n      returndatacopy\n      revert(0x00, returndatasize)\n    tag_103:\n      pop\n        /* \"contracts/crowdfunding project .sol\":3104:3116  contributors */\n      0x00\n        /* \"contracts/crowdfunding project .sol\":3104:3128  contributors[msg.sender] */\n      dup1\n        /* \"contracts/crowdfunding project .sol\":3117:3127  msg.sender */\n      caller\n        /* \"contracts/crowdfunding project .sol\":3104:3128  contributors[msg.sender] */\n      0xffffffffffffffffffffffffffffffffffffffff\n      and\n      0xffffffffffffffffffffffffffffffffffffffff\n      and\n      dup2\n      mstore\n      0x20\n      add\n      swap1\n      dup2\n      mstore\n      0x20\n      add\n      0x00\n      keccak256\n      sload\n        /* \"contracts/crowdfunding project .sol\":3088:3100  raisedamount */\n      0x05\n      0x00\n        /* \"contracts/crowdfunding project .sol\":3088:3128  raisedamount -= contributors[msg.sender] */\n      dup3\n      dup3\n      sload\n      tag_104\n      swap2\n      swap1\n      tag_105\n      jump\t// in\n    tag_104:\n      swap3\n      pop\n      pop\n      dup2\n      swap1\n      sstore\n      pop\n        /* \"contracts/crowdfunding project .sol\":3158:3159  1 */\n      0x01\n        /* \"contracts/crowdfunding project .sol\":3139:3155  noofcontributors */\n      0x06\n      0x00\n        /* \"contracts/crowdfunding project .sol\":3139:3159  noofcontributors -=1 */\n      dup3\n      dup3\n      sload\n      tag_106\n      swap2\n      swap1\n      tag_105\n      jump\t// in\n    tag_106:\n      swap3\n      pop\n      pop\n      dup2\n      swap1\n      sstore\n      pop\n        /* \"contracts/crowdfunding project .sol\":3195:3196  0 */\n      0x00\n        /* \"contracts/crowdfunding project .sol\":3170:3182  contributors */\n      dup1\n        /* \"contracts/crowdfunding project .sol\":3170:3194  contributors[msg.sender] */\n      0x00\n        /* \"contracts/crowdfunding project .sol\":3183:3193  msg.sender */\n      caller\n        /* \"contracts/crowdfunding project .sol\":3170:3194  contributors[msg.sender] */\n      0xffffffffffffffffffffffffffffffffffffffff\n      and\n      0xffffffffffffffffffffffffffffffffffffffff\n      and\n      dup2\n      mstore\n      0x20\n      add\n      swap1\n      dup2\n      mstore\n      0x20\n      add\n      0x00\n      keccak256\n        /* \"contracts/crowdfunding project .sol\":3170:3196  contributors[msg.sender]=0 */\n      dup2\n      swap1\n      sstore\n      pop\n        /* \"contracts/crowdfunding project .sol\":2502:3206  {... */\n      pop\n        /* \"contracts/crowdfunding project .sol\":2477:3206  function refund() public {... */\n      jump\t// out\n        /* \"contracts/crowdfunding project .sol\":3647:3688  mapping (uint => Request) public requests */\n    tag_56:\n      mstore(0x20, 0x07)\n      dup1\n      0x00\n      mstore\n      keccak256(0x00, 0x40)\n      0x00\n      swap2\n      pop\n      swap1\n      pop\n      dup1\n      0x00\n      add\n      dup1\n      sload\n      tag_107\n      swap1\n      tag_108\n      jump\t// in\n    tag_107:\n      dup1\n      0x1f\n      add\n      0x20\n      dup1\n      swap2\n      div\n      mul\n      0x20\n      add\n      mload(0x40)\n      swap1\n      dup2\n      add\n      0x40\n      mstore\n      dup1\n      swap3\n      swap2\n      swap1\n      dup2\n      dup2\n      mstore\n      0x20\n      add\n      dup3\n      dup1\n      sload\n      tag_109\n      swap1\n      tag_108\n      jump\t// in\n    tag_109:\n      dup1\n      iszero\n      tag_110\n      jumpi\n      dup1\n      0x1f\n      lt\n      tag_111\n      jumpi\n      0x0100\n      dup1\n      dup4\n      sload\n      div\n      mul\n      dup4\n      mstore\n      swap2\n      0x20\n      add\n      swap2\n      jump(tag_110)\n    tag_111:\n      dup3\n      add\n      swap2\n      swap1\n      0x00\n      mstore\n      keccak256(0x00, 0x20)\n      swap1\n    tag_112:\n      dup2\n      sload\n      dup2\n      mstore\n      swap1\n      0x01\n      add\n      swap1\n      0x20\n      add\n      dup1\n      dup4\n      gt\n      tag_112\n      jumpi\n      dup3\n      swap1\n      sub\n      0x1f\n      and\n      dup3\n      add\n      swap2\n    tag_110:\n      pop\n      pop\n      pop\n      pop\n      pop\n      swap1\n      dup1\n      0x01\n      add\n      0x00\n      swap1\n      sload\n      swap1\n      0x0100\n      exp\n      swap1\n      div\n      0xffffffffffffffffffffffffffffffffffffffff\n      and\n      swap1\n      dup1\n      0x02\n      add\n      sload\n      swap1\n      dup1\n      0x03\n      add\n      0x00\n      swap1\n      sload\n      swap1\n      0x0100\n      exp\n      swap1\n      div\n      0xff\n      and\n      swap1\n      dup1\n      0x04\n      add\n      sload\n      swap1\n      pop\n      dup6\n      jump\t// out\n        /* \"contracts/crowdfunding project .sol\":643:671  uint public noofcontributors */\n    tag_61:\n      sload(0x06)\n      dup2\n      jump\t// out\n        /* \"contracts/crowdfunding project .sol\":4743:5487  function voterequest(uint _requestNo) public  {... */\n    tag_66:\n        /* \"contracts/crowdfunding project .sol\":4833:4834  0 */\n      0x00\n        /* \"contracts/crowdfunding project .sol\":4808:4820  contributors */\n      dup1\n        /* \"contracts/crowdfunding project .sol\":4808:4832  contributors[msg.sender] */\n      0x00\n        /* \"contracts/crowdfunding project .sol\":4821:4831  msg.sender */\n      caller\n        /* \"contracts/crowdfunding project .sol\":4808:4832  contributors[msg.sender] */\n      0xffffffffffffffffffffffffffffffffffffffff\n      and\n      0xffffffffffffffffffffffffffffffffffffffff\n      and\n      dup2\n      mstore\n      0x20\n      add\n      swap1\n      dup2\n      mstore\n      0x20\n      add\n      0x00\n      keccak256\n      sload\n        /* \"contracts/crowdfunding project .sol\":4808:4834  contributors[msg.sender]>0 */\n      gt\n        /* \"contracts/crowdfunding project .sol\":4800:4871  require(contributors[msg.sender]>0 , \"you must participate for voting\") */\n      tag_114\n      jumpi\n      mload(0x40)\n      0x08c379a000000000000000000000000000000000000000000000000000000000\n      dup2\n      mstore\n      0x04\n      add\n      tag_115\n      swap1\n      tag_116\n      jump\t// in\n    tag_115:\n      mload(0x40)\n      dup1\n      swap2\n      sub\n      swap1\n      revert\n    tag_114:\n        /* \"contracts/crowdfunding project .sol\":4903:4914  numrequests */\n      sload(0x08)\n        /* \"contracts/crowdfunding project .sol\":4890:4900  _requestNo */\n      dup2\n        /* \"contracts/crowdfunding project .sol\":4890:4914  _requestNo < numrequests */\n      lt\n        /* \"contracts/crowdfunding project .sol\":4882:4915  require(_requestNo < numrequests) */\n      tag_117\n      jumpi\n      0x00\n      dup1\n      revert\n    tag_117:\n        /* \"contracts/crowdfunding project .sol\":5056:5083  Request storage thisrequest */\n      0x00\n        /* \"contracts/crowdfunding project .sol\":5086:5094  requests */\n      0x07\n        /* \"contracts/crowdfunding project .sol\":5086:5106  requests[_requestNo] */\n      0x00\n        /* \"contracts/crowdfunding project .sol\":5095:5105  _requestNo */\n      dup4\n        /* \"contracts/crowdfunding project .sol\":5086:5106  requests[_requestNo] */\n      dup2\n      mstore\n      0x20\n      add\n      swap1\n      dup2\n      mstore\n      0x20\n      add\n      0x00\n      keccak256\n        /* \"contracts/crowdfunding project .sol\":5056:5106  Request storage thisrequest = requests[_requestNo] */\n      swap1\n      pop\n        /* \"contracts/crowdfunding project .sol\":5316:5321  false */\n      0x00\n        /* \"contracts/crowdfunding project .sol\":5284:5321  thisrequest.voters[msg.sender]==false */\n      iszero\n      iszero\n        /* \"contracts/crowdfunding project .sol\":5284:5295  thisrequest */\n      dup2\n        /* \"contracts/crowdfunding project .sol\":5284:5302  thisrequest.voters */\n      0x05\n      add\n        /* \"contracts/crowdfunding project .sol\":5284:5314  thisrequest.voters[msg.sender] */\n      0x00\n        /* \"contracts/crowdfunding project .sol\":5303:5313  msg.sender */\n      caller\n        /* \"contracts/crowdfunding project .sol\":5284:5314  thisrequest.voters[msg.sender] */\n      0xffffffffffffffffffffffffffffffffffffffff\n      and\n      0xffffffffffffffffffffffffffffffffffffffff\n      and\n      dup2\n      mstore\n      0x20\n      add\n      swap1\n      dup2\n      mstore\n      0x20\n      add\n      0x00\n      keccak256\n      0x00\n      swap1\n      sload\n      swap1\n      0x0100\n      exp\n      swap1\n      div\n      0xff\n      and\n        /* \"contracts/crowdfunding project .sol\":5284:5321  thisrequest.voters[msg.sender]==false */\n      iszero\n      iszero\n      eq\n        /* \"contracts/crowdfunding project .sol\":5276:5348  require(thisrequest.voters[msg.sender]==false, \"you have already voted\") */\n      tag_118\n      jumpi\n      mload(0x40)\n      0x08c379a000000000000000000000000000000000000000000000000000000000\n      dup2\n      mstore\n      0x04\n      add\n      tag_119\n      swap1\n      tag_120\n      jump\t// in\n    tag_119:\n      mload(0x40)\n      dup1\n      swap2\n      sub\n      swap1\n      revert\n    tag_118:\n        /* \"contracts/crowdfunding project .sol\":5442:5446  true */\n      0x01\n        /* \"contracts/crowdfunding project .sol\":5411:5422  thisrequest */\n      dup2\n        /* \"contracts/crowdfunding project .sol\":5411:5429  thisrequest.voters */\n      0x05\n      add\n        /* \"contracts/crowdfunding project .sol\":5411:5441  thisrequest.voters[msg.sender] */\n      0x00\n        /* \"contracts/crowdfunding project .sol\":5430:5440  msg.sender */\n      caller\n        /* \"contracts/crowdfunding project .sol\":5411:5441  thisrequest.voters[msg.sender] */\n      0xffffffffffffffffffffffffffffffffffffffff\n      and\n      0xffffffffffffffffffffffffffffffffffffffff\n      and\n      dup2\n      mstore\n      0x20\n      add\n      swap1\n      dup2\n      mstore\n      0x20\n      add\n      0x00\n      keccak256\n      0x00\n        /* \"contracts/crowdfunding project .sol\":5411:5446  thisrequest.voters[msg.sender]=true */\n      0x0100\n      exp\n      dup2\n      sload\n      dup2\n      0xff\n      mul\n      not\n      and\n      swap1\n      dup4\n      iszero\n      iszero\n      mul\n      or\n      swap1\n      sstore\n      pop\n        /* \"contracts/crowdfunding project .sol\":5457:5468  thisrequest */\n      dup1\n        /* \"contracts/crowdfunding project .sol\":5457:5479  thisrequest.noofvoters */\n      0x04\n      add\n      0x00\n        /* \"contracts/crowdfunding project .sol\":5457:5481  thisrequest.noofvoters++ */\n      dup2\n      sload\n      dup1\n      swap3\n      swap2\n      swap1\n      tag_121\n      swap1\n      tag_91\n      jump\t// in\n    tag_121:\n      swap2\n      swap1\n      pop\n      sstore\n      pop\n        /* \"contracts/crowdfunding project .sol\":4789:5487  {... */\n      pop\n        /* \"contracts/crowdfunding project .sol\":4743:5487  function voterequest(uint _requestNo) public  {... */\n      pop\n      jump\t// out\n        /* \"contracts/crowdfunding project .sol\":1231:2359  function sendether() public payable {... */\n    tag_68:\n        /* \"contracts/crowdfunding project .sol\":1303:1311  deadline */\n      sload(0x03)\n        /* \"contracts/crowdfunding project .sol\":1286:1301  block.timestamp */\n      timestamp\n        /* \"contracts/crowdfunding project .sol\":1286:1311  block.timestamp< deadline */\n      lt\n        /* \"contracts/crowdfunding project .sol\":1278:1335  require(block.timestamp< deadline, \"deadline has passed\") */\n      tag_123\n      jumpi\n      mload(0x40)\n      0x08c379a000000000000000000000000000000000000000000000000000000000\n      dup2\n      mstore\n      0x04\n      add\n      tag_124\n      swap1\n      tag_125\n      jump\t// in\n    tag_124:\n      mload(0x40)\n      dup1\n      swap2\n      sub\n      swap1\n      revert\n    tag_123:\n        /* \"contracts/crowdfunding project .sol\":1367:1386  minimumcontribution */\n      sload(0x02)\n        /* \"contracts/crowdfunding project .sol\":1354:1363  msg.value */\n      callvalue\n        /* \"contracts/crowdfunding project .sol\":1354:1386  msg.value >= minimumcontribution */\n      lt\n      iszero\n        /* \"contracts/crowdfunding project .sol\":1346:1427  require(msg.value >= minimumcontribution, \"you need to add minimum contribution\") */\n      tag_126\n      jumpi\n      mload(0x40)\n      0x08c379a000000000000000000000000000000000000000000000000000000000\n      dup2\n      mstore\n      0x04\n      add\n      tag_127\n      swap1\n      tag_128\n      jump\t// in\n    tag_127:\n      mload(0x40)\n      dup1\n      swap2\n      sub\n      swap1\n      revert\n    tag_126:\n        /* \"contracts/crowdfunding project .sol\":1663:1664  0 */\n      0x00\n        /* \"contracts/crowdfunding project .sol\":1637:1649  contributors */\n      dup1\n        /* \"contracts/crowdfunding project .sol\":1637:1661  contributors[msg.sender] */\n      0x00\n        /* \"contracts/crowdfunding project .sol\":1650:1660  msg.sender */\n      caller\n        /* \"contracts/crowdfunding project .sol\":1637:1661  contributors[msg.sender] */\n      0xffffffffffffffffffffffffffffffffffffffff\n      and\n      0xffffffffffffffffffffffffffffffffffffffff\n      and\n      dup2\n      mstore\n      0x20\n      add\n      swap1\n      dup2\n      mstore\n      0x20\n      add\n      0x00\n      keccak256\n      sload\n        /* \"contracts/crowdfunding project .sol\":1637:1664  contributors[msg.sender]==0 */\n      sub\n        /* \"contracts/crowdfunding project .sol\":1633:1710  if (contributors[msg.sender]==0){... */\n      tag_129\n      jumpi\n        /* \"contracts/crowdfunding project .sol\":1680:1696  noofcontributors */\n      0x06\n      0x00\n        /* \"contracts/crowdfunding project .sol\":1680:1698  noofcontributors++ */\n      dup2\n      sload\n      dup1\n      swap3\n      swap2\n      swap1\n      tag_130\n      swap1\n      tag_91\n      jump\t// in\n    tag_130:\n      swap2\n      swap1\n      pop\n      sstore\n      pop\n        /* \"contracts/crowdfunding project .sol\":1633:1710  if (contributors[msg.sender]==0){... */\n    tag_129:\n        /* \"contracts/crowdfunding project .sol\":1861:1870  msg.value */\n      callvalue\n        /* \"contracts/crowdfunding project .sol\":1833:1845  contributors */\n      0x00\n        /* \"contracts/crowdfunding project .sol\":1833:1857  contributors[msg.sender] */\n      dup1\n        /* \"contracts/crowdfunding project .sol\":1846:1856  msg.sender */\n      caller\n        /* \"contracts/crowdfunding project .sol\":1833:1857  contributors[msg.sender] */\n      0xffffffffffffffffffffffffffffffffffffffff\n      and\n      0xffffffffffffffffffffffffffffffffffffffff\n      and\n      dup2\n      mstore\n      0x20\n      add\n      swap1\n      dup2\n      mstore\n      0x20\n      add\n      0x00\n      keccak256\n      0x00\n        /* \"contracts/crowdfunding project .sol\":1833:1870  contributors[msg.sender] += msg.value */\n      dup3\n      dup3\n      sload\n      tag_131\n      swap2\n      swap1\n      tag_132\n      jump\t// in\n    tag_131:\n      swap3\n      pop\n      pop\n      dup2\n      swap1\n      sstore\n      pop\n        /* \"contracts/crowdfunding project .sol\":1897:1906  msg.value */\n      callvalue\n        /* \"contracts/crowdfunding project .sol\":1881:1893  raisedamount */\n      0x05\n      0x00\n        /* \"contracts/crowdfunding project .sol\":1881:1906  raisedamount += msg.value */\n      dup3\n      dup3\n      sload\n      tag_133\n      swap2\n      swap1\n      tag_132\n      jump\t// in\n    tag_133:\n      swap3\n      pop\n      pop\n      dup2\n      swap1\n      sstore\n      pop\n        /* \"contracts/crowdfunding project .sol\":1231:2359  function sendether() public payable {... */\n      jump\t// out\n        /* \"contracts/crowdfunding project .sol\":522:553  uint public minimumcontribution */\n    tag_71:\n      sload(0x02)\n      dup2\n      jump\t// out\n        /* \"contracts/crowdfunding project .sol\":5493:6421  function makepayment(uint _requestNo) public onlymanager{... */\n    tag_76:\n        /* \"contracts/crowdfunding project .sol\":3780:3787  manager */\n      0x01\n      0x00\n      swap1\n      sload\n      swap1\n      0x0100\n      exp\n      swap1\n      div\n      0xffffffffffffffffffffffffffffffffffffffff\n      and\n        /* \"contracts/crowdfunding project .sol\":3768:3787  msg.sender==manager */\n      0xffffffffffffffffffffffffffffffffffffffff\n      and\n        /* \"contracts/crowdfunding project .sol\":3768:3778  msg.sender */\n      caller\n        /* \"contracts/crowdfunding project .sol\":3768:3787  msg.sender==manager */\n      0xffffffffffffffffffffffffffffffffffffffff\n      and\n      eq\n        /* \"contracts/crowdfunding project .sol\":3760:3812  require(msg.sender==manager,\"only manager can call\") */\n      tag_135\n      jumpi\n      mload(0x40)\n      0x08c379a000000000000000000000000000000000000000000000000000000000\n      dup2\n      mstore\n      0x04\n      add\n      tag_136\n      swap1\n      tag_88\n      jump\t// in\n    tag_136:\n      mload(0x40)\n      dup1\n      swap2\n      sub\n      swap1\n      revert\n    tag_135:\n        /* \"contracts/crowdfunding project .sol\":5585:5593  deadline */\n      sload(0x03)\n        /* \"contracts/crowdfunding project .sol\":5566:5581  block.timestamp */\n      timestamp\n        /* \"contracts/crowdfunding project .sol\":5566:5593  block.timestamp >= deadline */\n      lt\n      iszero\n        /* \"contracts/crowdfunding project .sol\":5566:5619  block.timestamp >= deadline  && raisedamount >=target */\n      dup1\n      iszero\n      tag_138\n      jumpi\n      pop\n        /* \"contracts/crowdfunding project .sol\":5613:5619  target */\n      sload(0x04)\n        /* \"contracts/crowdfunding project .sol\":5598:5610  raisedamount */\n      sload(0x05)\n        /* \"contracts/crowdfunding project .sol\":5598:5619  raisedamount >=target */\n      lt\n      iszero\n        /* \"contracts/crowdfunding project .sol\":5566:5619  block.timestamp >= deadline  && raisedamount >=target */\n    tag_138:\n        /* \"contracts/crowdfunding project .sol\":5558:5665  require(block.timestamp >= deadline  && raisedamount >=target , \"wait for time end or target not reached.\") */\n      tag_139\n      jumpi\n      mload(0x40)\n      0x08c379a000000000000000000000000000000000000000000000000000000000\n      dup2\n      mstore\n      0x04\n      add\n      tag_140\n      swap1\n      tag_141\n      jump\t// in\n    tag_140:\n      mload(0x40)\n      dup1\n      swap2\n      sub\n      swap1\n      revert\n    tag_139:\n        /* \"contracts/crowdfunding project .sol\":5745:5772  Request storage thisrequest */\n      0x00\n        /* \"contracts/crowdfunding project .sol\":5775:5783  requests */\n      0x07\n        /* \"contracts/crowdfunding project .sol\":5775:5795  requests[_requestNo] */\n      0x00\n        /* \"contracts/crowdfunding project .sol\":5784:5794  _requestNo */\n      dup4\n        /* \"contracts/crowdfunding project .sol\":5775:5795  requests[_requestNo] */\n      dup2\n      mstore\n      0x20\n      add\n      swap1\n      dup2\n      mstore\n      0x20\n      add\n      0x00\n      keccak256\n        /* \"contracts/crowdfunding project .sol\":5745:5795  Request storage thisrequest = requests[_requestNo] */\n      swap1\n      pop\n        /* \"contracts/crowdfunding project .sol\":5912:5917  false */\n      0x00\n        /* \"contracts/crowdfunding project .sol\":5883:5917  thisrequest.votingcompleted==false */\n      iszero\n      iszero\n        /* \"contracts/crowdfunding project .sol\":5883:5894  thisrequest */\n      dup2\n        /* \"contracts/crowdfunding project .sol\":5883:5910  thisrequest.votingcompleted */\n      0x03\n      add\n      0x00\n      swap1\n      sload\n      swap1\n      0x0100\n      exp\n      swap1\n      div\n      0xff\n      and\n        /* \"contracts/crowdfunding project .sol\":5883:5917  thisrequest.votingcompleted==false */\n      iszero\n      iszero\n      eq\n        /* \"contracts/crowdfunding project .sol\":5875:5939  require(thisrequest.votingcompleted==false, \"already completed\") */\n      tag_142\n      jumpi\n      mload(0x40)\n      0x08c379a000000000000000000000000000000000000000000000000000000000\n      dup2\n      mstore\n      0x04\n      add\n      tag_143\n      swap1\n      tag_144\n      jump\t// in\n    tag_143:\n      mload(0x40)\n      dup1\n      swap2\n      sub\n      swap1\n      revert\n    tag_142:\n        /* \"contracts/crowdfunding project .sol\":6106:6107  2 */\n      0x02\n        /* \"contracts/crowdfunding project .sol\":6089:6105  noofcontributors */\n      sload(0x06)\n        /* \"contracts/crowdfunding project .sol\":6089:6107  noofcontributors/2 */\n      tag_145\n      swap2\n      swap1\n      tag_146\n      jump\t// in\n    tag_145:\n        /* \"contracts/crowdfunding project .sol\":6064:6075  thisrequest */\n      dup2\n        /* \"contracts/crowdfunding project .sol\":6064:6086  thisrequest.noofvoters */\n      0x04\n      add\n      sload\n        /* \"contracts/crowdfunding project .sol\":6064:6107  thisrequest.noofvoters>= noofcontributors/2 */\n      lt\n      iszero\n        /* \"contracts/crowdfunding project .sol\":6056:6160  require(thisrequest.noofvoters>= noofcontributors/2,\"majority not meets more thn 50% vote not for this\") */\n      tag_147\n      jumpi\n      mload(0x40)\n      0x08c379a000000000000000000000000000000000000000000000000000000000\n      dup2\n      mstore\n      0x04\n      add\n      tag_148\n      swap1\n      tag_149\n      jump\t// in\n    tag_148:\n      mload(0x40)\n      dup1\n      swap2\n      sub\n      swap1\n      revert\n    tag_147:\n        /* \"contracts/crowdfunding project .sol\":6255:6266  thisrequest */\n      dup1\n        /* \"contracts/crowdfunding project .sol\":6255:6277  thisrequest.receipient */\n      0x01\n      add\n      0x00\n      swap1\n      sload\n      swap1\n      0x0100\n      exp\n      swap1\n      div\n      0xffffffffffffffffffffffffffffffffffffffff\n      and\n        /* \"contracts/crowdfunding project .sol\":6255:6286  thisrequest.receipient.transfer */\n      0xffffffffffffffffffffffffffffffffffffffff\n      and\n        /* \"contracts/crowdfunding project .sol\":6255:6305  thisrequest.receipient.transfer(thisrequest.value) */\n      0x08fc\n        /* \"contracts/crowdfunding project .sol\":6287:6298  thisrequest */\n      dup3\n        /* \"contracts/crowdfunding project .sol\":6287:6304  thisrequest.value */\n      0x02\n      add\n      sload\n        /* \"contracts/crowdfunding project .sol\":6255:6305  thisrequest.receipient.transfer(thisrequest.value) */\n      swap1\n      dup2\n      iszero\n      mul\n      swap1\n      mload(0x40)\n      0x00\n      mload(0x40)\n      dup1\n      dup4\n      sub\n      dup2\n      dup6\n      dup9\n      dup9\n      call\n      swap4\n      pop\n      pop\n      pop\n      pop\n      iszero\n      dup1\n      iszero\n      tag_151\n      jumpi\n      returndatasize\n      0x00\n      dup1\n      returndatacopy\n      revert(0x00, returndatasize)\n    tag_151:\n      pop\n        /* \"contracts/crowdfunding project .sol\":6342:6346  true */\n      0x01\n        /* \"contracts/crowdfunding project .sol\":6314:6325  thisrequest */\n      dup2\n        /* \"contracts/crowdfunding project .sol\":6314:6341  thisrequest.votingcompleted */\n      0x03\n      add\n      0x00\n        /* \"contracts/crowdfunding project .sol\":6314:6346  thisrequest.votingcompleted=true */\n      0x0100\n      exp\n      dup2\n      sload\n      dup2\n      0xff\n      mul\n      not\n      and\n      swap1\n      dup4\n      iszero\n      iszero\n      mul\n      or\n      swap1\n      sstore\n      pop\n        /* \"contracts/crowdfunding project .sol\":5549:6421  {... */\n      pop\n        /* \"contracts/crowdfunding project .sol\":5493:6421  function makepayment(uint _requestNo) public onlymanager{... */\n      pop\n      jump\t// out\n        /* \"contracts/crowdfunding project .sol\":587:605  uint public target */\n    tag_79:\n      sload(0x04)\n      dup2\n      jump\t// out\n        /* \"contracts/crowdfunding project .sol\":2367:2469  function getcontractbalance() public view returns(uint){... */\n    tag_83:\n        /* \"contracts/crowdfunding project .sol\":2417:2421  uint */\n      0x00\n        /* \"contracts/crowdfunding project .sol\":2440:2461  address(this).balance */\n      selfbalance\n        /* \"contracts/crowdfunding project .sol\":2433:2461  return address(this).balance */\n      swap1\n      pop\n        /* \"contracts/crowdfunding project .sol\":2367:2469  function getcontractbalance() public view returns(uint){... */\n      swap1\n      jump\t// out\n        /* \"#utility.yul\":7:84   */\n    tag_153:\n        /* \"#utility.yul\":44:51   */\n      0x00\n        /* \"#utility.yul\":73:78   */\n      dup2\n        /* \"#utility.yul\":62:78   */\n      swap1\n      pop\n        /* \"#utility.yul\":7:84   */\n      swap2\n      swap1\n      pop\n      jump\t// out\n        /* \"#utility.yul\":90:208   */\n    tag_154:\n        /* \"#utility.yul\":177:201   */\n      tag_226\n        /* \"#utility.yul\":195:200   */\n      dup2\n        /* \"#utility.yul\":177:201   */\n      tag_153\n      jump\t// in\n    tag_226:\n        /* \"#utility.yul\":172:175   */\n      dup3\n        /* \"#utility.yul\":165:202   */\n      mstore\n        /* \"#utility.yul\":90:208   */\n      pop\n      pop\n      jump\t// out\n        /* \"#utility.yul\":214:436   */\n    tag_24:\n        /* \"#utility.yul\":307:311   */\n      0x00\n        /* \"#utility.yul\":345:347   */\n      0x20\n        /* \"#utility.yul\":334:343   */\n      dup3\n        /* \"#utility.yul\":330:348   */\n      add\n        /* \"#utility.yul\":322:348   */\n      swap1\n      pop\n        /* \"#utility.yul\":358:429   */\n      tag_228\n        /* \"#utility.yul\":426:427   */\n      0x00\n        /* \"#utility.yul\":415:424   */\n      dup4\n        /* \"#utility.yul\":411:428   */\n      add\n        /* \"#utility.yul\":402:408   */\n      dup5\n        /* \"#utility.yul\":358:429   */\n      tag_154\n      jump\t// in\n    tag_228:\n        /* \"#utility.yul\":214:436   */\n      swap3\n      swap2\n      pop\n      pop\n      jump\t// out\n        /* \"#utility.yul\":442:517   */\n    tag_155:\n        /* \"#utility.yul\":475:481   */\n      0x00\n        /* \"#utility.yul\":508:510   */\n      0x40\n        /* \"#utility.yul\":502:511   */\n      mload\n        /* \"#utility.yul\":492:511   */\n      swap1\n      pop\n        /* \"#utility.yul\":442:517   */\n      swap1\n      jump\t// out\n        /* \"#utility.yul\":523:640   */\n    tag_156:\n        /* \"#utility.yul\":632:633   */\n      0x00\n        /* \"#utility.yul\":629:630   */\n      dup1\n        /* \"#utility.yul\":622:634   */\n      revert\n        /* \"#utility.yul\":646:763   */\n    tag_157:\n        /* \"#utility.yul\":755:756   */\n      0x00\n        /* \"#utility.yul\":752:753   */\n      dup1\n        /* \"#utility.yul\":745:757   */\n      revert\n        /* \"#utility.yul\":769:895   */\n    tag_158:\n        /* \"#utility.yul\":806:813   */\n      0x00\n        /* \"#utility.yul\":846:888   */\n      0xffffffffffffffffffffffffffffffffffffffff\n        /* \"#utility.yul\":839:844   */\n      dup3\n        /* \"#utility.yul\":835:889   */\n      and\n        /* \"#utility.yul\":824:889   */\n      swap1\n      pop\n        /* \"#utility.yul\":769:895   */\n      swap2\n      swap1\n      pop\n      jump\t// out\n        /* \"#utility.yul\":901:997   */\n    tag_159:\n        /* \"#utility.yul\":938:945   */\n      0x00\n        /* \"#utility.yul\":967:991   */\n      tag_234\n        /* \"#utility.yul\":985:990   */\n      dup3\n        /* \"#utility.yul\":967:991   */\n      tag_158\n      jump\t// in\n    tag_234:\n        /* \"#utility.yul\":956:991   */\n      swap1\n      pop\n        /* \"#utility.yul\":901:997   */\n      swap2\n      swap1\n      pop\n      jump\t// out\n        /* \"#utility.yul\":1003:1125   */\n    tag_160:\n        /* \"#utility.yul\":1076:1100   */\n      tag_236\n        /* \"#utility.yul\":1094:1099   */\n      dup2\n        /* \"#utility.yul\":1076:1100   */\n      tag_159\n      jump\t// in\n    tag_236:\n        /* \"#utility.yul\":1069:1074   */\n      dup2\n        /* \"#utility.yul\":1066:1101   */\n      eq\n        /* \"#utility.yul\":1056:1119   */\n      tag_237\n      jumpi\n        /* \"#utility.yul\":1115:1116   */\n      0x00\n        /* \"#utility.yul\":1112:1113   */\n      dup1\n        /* \"#utility.yul\":1105:1117   */\n      revert\n        /* \"#utility.yul\":1056:1119   */\n    tag_237:\n        /* \"#utility.yul\":1003:1125   */\n      pop\n      jump\t// out\n        /* \"#utility.yul\":1131:1270   */\n    tag_161:\n        /* \"#utility.yul\":1177:1182   */\n      0x00\n        /* \"#utility.yul\":1215:1221   */\n      dup2\n        /* \"#utility.yul\":1202:1222   */\n      calldataload\n        /* \"#utility.yul\":1193:1222   */\n      swap1\n      pop\n        /* \"#utility.yul\":1231:1264   */\n      tag_239\n        /* \"#utility.yul\":1258:1263   */\n      dup2\n        /* \"#utility.yul\":1231:1264   */\n      tag_160\n      jump\t// in\n    tag_239:\n        /* \"#utility.yul\":1131:1270   */\n      swap3\n      swap2\n      pop\n      pop\n      jump\t// out\n        /* \"#utility.yul\":1276:1605   */\n    tag_28:\n        /* \"#utility.yul\":1335:1341   */\n      0x00\n        /* \"#utility.yul\":1384:1386   */\n      0x20\n        /* \"#utility.yul\":1372:1381   */\n      dup3\n        /* \"#utility.yul\":1363:1370   */\n      dup5\n        /* \"#utility.yul\":1359:1382   */\n      sub\n        /* \"#utility.yul\":1355:1387   */\n      slt\n        /* \"#utility.yul\":1352:1471   */\n      iszero\n      tag_241\n      jumpi\n        /* \"#utility.yul\":1390:1469   */\n      tag_242\n      tag_156\n      jump\t// in\n    tag_242:\n        /* \"#utility.yul\":1352:1471   */\n    tag_241:\n        /* \"#utility.yul\":1510:1511   */\n      0x00\n        /* \"#utility.yul\":1535:1588   */\n      tag_243\n        /* \"#utility.yul\":1580:1587   */\n      dup5\n        /* \"#utility.yul\":1571:1577   */\n      dup3\n        /* \"#utility.yul\":1560:1569   */\n      dup6\n        /* \"#utility.yul\":1556:1578   */\n      add\n        /* \"#utility.yul\":1535:1588   */\n      tag_161\n      jump\t// in\n    tag_243:\n        /* \"#utility.yul\":1525:1588   */\n      swap2\n      pop\n        /* \"#utility.yul\":1481:1598   */\n      pop\n        /* \"#utility.yul\":1276:1605   */\n      swap3\n      swap2\n      pop\n      pop\n      jump\t// out\n        /* \"#utility.yul\":1611:1728   */\n    tag_162:\n        /* \"#utility.yul\":1720:1721   */\n      0x00\n        /* \"#utility.yul\":1717:1718   */\n      dup1\n        /* \"#utility.yul\":1710:1722   */\n      revert\n        /* \"#utility.yul\":1734:1851   */\n    tag_163:\n        /* \"#utility.yul\":1843:1844   */\n      0x00\n        /* \"#utility.yul\":1840:1841   */\n      dup1\n        /* \"#utility.yul\":1833:1845   */\n      revert\n        /* \"#utility.yul\":1857:1959   */\n    tag_164:\n        /* \"#utility.yul\":1898:1904   */\n      0x00\n        /* \"#utility.yul\":1949:1951   */\n      0x1f\n        /* \"#utility.yul\":1945:1952   */\n      not\n        /* \"#utility.yul\":1940:1942   */\n      0x1f\n        /* \"#utility.yul\":1933:1938   */\n      dup4\n        /* \"#utility.yul\":1929:1943   */\n      add\n        /* \"#utility.yul\":1925:1953   */\n      and\n        /* \"#utility.yul\":1915:1953   */\n      swap1\n      pop\n        /* \"#utility.yul\":1857:1959   */\n      swap2\n      swap1\n      pop\n      jump\t// out\n        /* \"#utility.yul\":1965:2145   */\n    tag_165:\n        /* \"#utility.yul\":2013:2090   */\n      0x4e487b7100000000000000000000000000000000000000000000000000000000\n        /* \"#utility.yul\":2010:2011   */\n      0x00\n        /* \"#utility.yul\":2003:2091   */\n      mstore\n        /* \"#utility.yul\":2110:2114   */\n      0x41\n        /* \"#utility.yul\":2107:2108   */\n      0x04\n        /* \"#utility.yul\":2100:2115   */\n      mstore\n        /* \"#utility.yul\":2134:2138   */\n      0x24\n        /* \"#utility.yul\":2131:2132   */\n      0x00\n        /* \"#utility.yul\":2124:2139   */\n      revert\n        /* \"#utility.yul\":2151:2432   */\n    tag_166:\n        /* \"#utility.yul\":2234:2261   */\n      tag_249\n        /* \"#utility.yul\":2256:2260   */\n      dup3\n        /* \"#utility.yul\":2234:2261   */\n      tag_164\n      jump\t// in\n    tag_249:\n        /* \"#utility.yul\":2226:2232   */\n      dup2\n        /* \"#utility.yul\":2222:2262   */\n      add\n        /* \"#utility.yul\":2364:2370   */\n      dup2\n        /* \"#utility.yul\":2352:2362   */\n      dup2\n        /* \"#utility.yul\":2349:2371   */\n      lt\n        /* \"#utility.yul\":2328:2346   */\n      0xffffffffffffffff\n        /* \"#utility.yul\":2316:2326   */\n      dup3\n        /* \"#utility.yul\":2313:2347   */\n      gt\n        /* \"#utility.yul\":2310:2372   */\n      or\n        /* \"#utility.yul\":2307:2395   */\n      iszero\n      tag_250\n      jumpi\n        /* \"#utility.yul\":2375:2393   */\n      tag_251\n      tag_165\n      jump\t// in\n    tag_251:\n        /* \"#utility.yul\":2307:2395   */\n    tag_250:\n        /* \"#utility.yul\":2415:2425   */\n      dup1\n        /* \"#utility.yul\":2411:2413   */\n      0x40\n        /* \"#utility.yul\":2404:2426   */\n      mstore\n        /* \"#utility.yul\":2194:2432   */\n      pop\n        /* \"#utility.yul\":2151:2432   */\n      pop\n      pop\n      jump\t// out\n        /* \"#utility.yul\":2438:2567   */\n    tag_167:\n        /* \"#utility.yul\":2472:2478   */\n      0x00\n        /* \"#utility.yul\":2499:2519   */\n      tag_253\n      tag_155\n      jump\t// in\n    tag_253:\n        /* \"#utility.yul\":2489:2519   */\n      swap1\n      pop\n        /* \"#utility.yul\":2528:2561   */\n      tag_254\n        /* \"#utility.yul\":2556:2560   */\n      dup3\n        /* \"#utility.yul\":2548:2554   */\n      dup3\n        /* \"#utility.yul\":2528:2561   */\n      tag_166\n      jump\t// in\n    tag_254:\n        /* \"#utility.yul\":2438:2567   */\n      swap2\n      swap1\n      pop\n      jump\t// out\n        /* \"#utility.yul\":2573:2881   */\n    tag_168:\n        /* \"#utility.yul\":2635:2639   */\n      0x00\n        /* \"#utility.yul\":2725:2743   */\n      0xffffffffffffffff\n        /* \"#utility.yul\":2717:2723   */\n      dup3\n        /* \"#utility.yul\":2714:2744   */\n      gt\n        /* \"#utility.yul\":2711:2767   */\n      iszero\n      tag_256\n      jumpi\n        /* \"#utility.yul\":2747:2765   */\n      tag_257\n      tag_165\n      jump\t// in\n    tag_257:\n        /* \"#utility.yul\":2711:2767   */\n    tag_256:\n        /* \"#utility.yul\":2785:2814   */\n      tag_258\n        /* \"#utility.yul\":2807:2813   */\n      dup3\n        /* \"#utility.yul\":2785:2814   */\n      tag_164\n      jump\t// in\n    tag_258:\n        /* \"#utility.yul\":2777:2814   */\n      swap1\n      pop\n        /* \"#utility.yul\":2869:2873   */\n      0x20\n        /* \"#utility.yul\":2863:2867   */\n      dup2\n        /* \"#utility.yul\":2859:2874   */\n      add\n        /* \"#utility.yul\":2851:2874   */\n      swap1\n      pop\n        /* \"#utility.yul\":2573:2881   */\n      swap2\n      swap1\n      pop\n      jump\t// out\n        /* \"#utility.yul\":2887:3033   */\n    tag_169:\n        /* \"#utility.yul\":2984:2990   */\n      dup3\n        /* \"#utility.yul\":2979:2982   */\n      dup2\n        /* \"#utility.yul\":2974:2977   */\n      dup4\n        /* \"#utility.yul\":2961:2991   */\n      calldatacopy\n        /* \"#utility.yul\":3025:3026   */\n      0x00\n        /* \"#utility.yul\":3016:3022   */\n      dup4\n        /* \"#utility.yul\":3011:3014   */\n      dup4\n        /* \"#utility.yul\":3007:3023   */\n      add\n        /* \"#utility.yul\":3000:3027   */\n      mstore\n        /* \"#utility.yul\":2887:3033   */\n      pop\n      pop\n      pop\n      jump\t// out\n        /* \"#utility.yul\":3039:3464   */\n    tag_170:\n        /* \"#utility.yul\":3117:3122   */\n      0x00\n        /* \"#utility.yul\":3142:3208   */\n      tag_261\n        /* \"#utility.yul\":3158:3207   */\n      tag_262\n        /* \"#utility.yul\":3200:3206   */\n      dup5\n        /* \"#utility.yul\":3158:3207   */\n      tag_168\n      jump\t// in\n    tag_262:\n        /* \"#utility.yul\":3142:3208   */\n      tag_167\n      jump\t// in\n    tag_261:\n        /* \"#utility.yul\":3133:3208   */\n      swap1\n      pop\n        /* \"#utility.yul\":3231:3237   */\n      dup3\n        /* \"#utility.yul\":3224:3229   */\n      dup2\n        /* \"#utility.yul\":3217:3238   */\n      mstore\n        /* \"#utility.yul\":3269:3273   */\n      0x20\n        /* \"#utility.yul\":3262:3267   */\n      dup2\n        /* \"#utility.yul\":3258:3274   */\n      add\n        /* \"#utility.yul\":3307:3310   */\n      dup5\n        /* \"#utility.yul\":3298:3304   */\n      dup5\n        /* \"#utility.yul\":3293:3296   */\n      dup5\n        /* \"#utility.yul\":3289:3305   */\n      add\n        /* \"#utility.yul\":3286:3311   */\n      gt\n        /* \"#utility.yul\":3283:3395   */\n      iszero\n      tag_263\n      jumpi\n        /* \"#utility.yul\":3314:3393   */\n      tag_264\n      tag_163\n      jump\t// in\n    tag_264:\n        /* \"#utility.yul\":3283:3395   */\n    tag_263:\n        /* \"#utility.yul\":3404:3458   */\n      tag_265\n        /* \"#utility.yul\":3451:3457   */\n      dup5\n        /* \"#utility.yul\":3446:3449   */\n      dup3\n        /* \"#utility.yul\":3441:3444   */\n      dup6\n        /* \"#utility.yul\":3404:3458   */\n      tag_169\n      jump\t// in\n    tag_265:\n        /* \"#utility.yul\":3123:3464   */\n      pop\n        /* \"#utility.yul\":3039:3464   */\n      swap4\n      swap3\n      pop\n      pop\n      pop\n      jump\t// out\n        /* \"#utility.yul\":3484:3824   */\n    tag_171:\n        /* \"#utility.yul\":3540:3545   */\n      0x00\n        /* \"#utility.yul\":3589:3592   */\n      dup3\n        /* \"#utility.yul\":3582:3586   */\n      0x1f\n        /* \"#utility.yul\":3574:3580   */\n      dup4\n        /* \"#utility.yul\":3570:3587   */\n      add\n        /* \"#utility.yul\":3566:3593   */\n      slt\n        /* \"#utility.yul\":3556:3678   */\n      tag_267\n      jumpi\n        /* \"#utility.yul\":3597:3676   */\n      tag_268\n      tag_162\n      jump\t// in\n    tag_268:\n        /* \"#utility.yul\":3556:3678   */\n    tag_267:\n        /* \"#utility.yul\":3714:3720   */\n      dup2\n        /* \"#utility.yul\":3701:3721   */\n      calldataload\n        /* \"#utility.yul\":3739:3818   */\n      tag_269\n        /* \"#utility.yul\":3814:3817   */\n      dup5\n        /* \"#utility.yul\":3806:3812   */\n      dup3\n        /* \"#utility.yul\":3799:3803   */\n      0x20\n        /* \"#utility.yul\":3791:3797   */\n      dup7\n        /* \"#utility.yul\":3787:3804   */\n      add\n        /* \"#utility.yul\":3739:3818   */\n      tag_170\n      jump\t// in\n    tag_269:\n        /* \"#utility.yul\":3730:3818   */\n      swap2\n      pop\n        /* \"#utility.yul\":3546:3824   */\n      pop\n        /* \"#utility.yul\":3484:3824   */\n      swap3\n      swap2\n      pop\n      pop\n      jump\t// out\n        /* \"#utility.yul\":3830:3934   */\n    tag_172:\n        /* \"#utility.yul\":3875:3882   */\n      0x00\n        /* \"#utility.yul\":3904:3928   */\n      tag_271\n        /* \"#utility.yul\":3922:3927   */\n      dup3\n        /* \"#utility.yul\":3904:3928   */\n      tag_158\n      jump\t// in\n    tag_271:\n        /* \"#utility.yul\":3893:3928   */\n      swap1\n      pop\n        /* \"#utility.yul\":3830:3934   */\n      swap2\n      swap1\n      pop\n      jump\t// out\n        /* \"#utility.yul\":3940:4078   */\n    tag_173:\n        /* \"#utility.yul\":4021:4053   */\n      tag_273\n        /* \"#utility.yul\":4047:4052   */\n      dup2\n        /* \"#utility.yul\":4021:4053   */\n      tag_172\n      jump\t// in\n    tag_273:\n        /* \"#utility.yul\":4014:4019   */\n      dup2\n        /* \"#utility.yul\":4011:4054   */\n      eq\n        /* \"#utility.yul\":4001:4072   */\n      tag_274\n      jumpi\n        /* \"#utility.yul\":4068:4069   */\n      0x00\n        /* \"#utility.yul\":4065:4066   */\n      dup1\n        /* \"#utility.yul\":4058:4070   */\n      revert\n        /* \"#utility.yul\":4001:4072   */\n    tag_274:\n        /* \"#utility.yul\":3940:4078   */\n      pop\n      jump\t// out\n        /* \"#utility.yul\":4084:4239   */\n    tag_174:\n        /* \"#utility.yul\":4138:4143   */\n      0x00\n        /* \"#utility.yul\":4176:4182   */\n      dup2\n        /* \"#utility.yul\":4163:4183   */\n      calldataload\n        /* \"#utility.yul\":4154:4183   */\n      swap1\n      pop\n        /* \"#utility.yul\":4192:4233   */\n      tag_276\n        /* \"#utility.yul\":4227:4232   */\n      dup2\n        /* \"#utility.yul\":4192:4233   */\n      tag_173\n      jump\t// in\n    tag_276:\n        /* \"#utility.yul\":4084:4239   */\n      swap3\n      swap2\n      pop\n      pop\n      jump\t// out\n        /* \"#utility.yul\":4245:4367   */\n    tag_175:\n        /* \"#utility.yul\":4318:4342   */\n      tag_278\n        /* \"#utility.yul\":4336:4341   */\n      dup2\n        /* \"#utility.yul\":4318:4342   */\n      tag_153\n      jump\t// in\n    tag_278:\n        /* \"#utility.yul\":4311:4316   */\n      dup2\n        /* \"#utility.yul\":4308:4343   */\n      eq\n        /* \"#utility.yul\":4298:4361   */\n      tag_279\n      jumpi\n        /* \"#utility.yul\":4357:4358   */\n      0x00\n        /* \"#utility.yul\":4354:4355   */\n      dup1\n        /* \"#utility.yul\":4347:4359   */\n      revert\n        /* \"#utility.yul\":4298:4361   */\n    tag_279:\n        /* \"#utility.yul\":4245:4367   */\n      pop\n      jump\t// out\n        /* \"#utility.yul\":4373:4512   */\n    tag_176:\n        /* \"#utility.yul\":4419:4424   */\n      0x00\n        /* \"#utility.yul\":4457:4463   */\n      dup2\n        /* \"#utility.yul\":4444:4464   */\n      calldataload\n        /* \"#utility.yul\":4435:4464   */\n      swap1\n      pop\n        /* \"#utility.yul\":4473:4506   */\n      tag_281\n        /* \"#utility.yul\":4500:4505   */\n      dup2\n        /* \"#utility.yul\":4473:4506   */\n      tag_175\n      jump\t// in\n    tag_281:\n        /* \"#utility.yul\":4373:4512   */\n      swap3\n      swap2\n      pop\n      pop\n      jump\t// out\n        /* \"#utility.yul\":4518:5333   */\n    tag_42:\n        /* \"#utility.yul\":4613:4619   */\n      0x00\n        /* \"#utility.yul\":4621:4627   */\n      dup1\n        /* \"#utility.yul\":4629:4635   */\n      0x00\n        /* \"#utility.yul\":4678:4680   */\n      0x60\n        /* \"#utility.yul\":4666:4675   */\n      dup5\n        /* \"#utility.yul\":4657:4664   */\n      dup7\n        /* \"#utility.yul\":4653:4676   */\n      sub\n        /* \"#utility.yul\":4649:4681   */\n      slt\n        /* \"#utility.yul\":4646:4765   */\n      iszero\n      tag_283\n      jumpi\n        /* \"#utility.yul\":4684:4763   */\n      tag_284\n      tag_156\n      jump\t// in\n    tag_284:\n        /* \"#utility.yul\":4646:4765   */\n    tag_283:\n        /* \"#utility.yul\":4832:4833   */\n      0x00\n        /* \"#utility.yul\":4821:4830   */\n      dup5\n        /* \"#utility.yul\":4817:4834   */\n      add\n        /* \"#utility.yul\":4804:4835   */\n      calldataload\n        /* \"#utility.yul\":4862:4880   */\n      0xffffffffffffffff\n        /* \"#utility.yul\":4854:4860   */\n      dup2\n        /* \"#utility.yul\":4851:4881   */\n      gt\n        /* \"#utility.yul\":4848:4965   */\n      iszero\n      tag_285\n      jumpi\n        /* \"#utility.yul\":4884:4963   */\n      tag_286\n      tag_157\n      jump\t// in\n    tag_286:\n        /* \"#utility.yul\":4848:4965   */\n    tag_285:\n        /* \"#utility.yul\":4989:5052   */\n      tag_287\n        /* \"#utility.yul\":5044:5051   */\n      dup7\n        /* \"#utility.yul\":5035:5041   */\n      dup3\n        /* \"#utility.yul\":5024:5033   */\n      dup8\n        /* \"#utility.yul\":5020:5042   */\n      add\n        /* \"#utility.yul\":4989:5052   */\n      tag_171\n      jump\t// in\n    tag_287:\n        /* \"#utility.yul\":4979:5052   */\n      swap4\n      pop\n        /* \"#utility.yul\":4775:5062   */\n      pop\n        /* \"#utility.yul\":5101:5103   */\n      0x20\n        /* \"#utility.yul\":5127:5188   */\n      tag_288\n        /* \"#utility.yul\":5180:5187   */\n      dup7\n        /* \"#utility.yul\":5171:5177   */\n      dup3\n        /* \"#utility.yul\":5160:5169   */\n      dup8\n        /* \"#utility.yul\":5156:5178   */\n      add\n        /* \"#utility.yul\":5127:5188   */\n      tag_174\n      jump\t// in\n    tag_288:\n        /* \"#utility.yul\":5117:5188   */\n      swap3\n      pop\n        /* \"#utility.yul\":5072:5198   */\n      pop\n        /* \"#utility.yul\":5237:5239   */\n      0x40\n        /* \"#utility.yul\":5263:5316   */\n      tag_289\n        /* \"#utility.yul\":5308:5315   */\n      dup7\n        /* \"#utility.yul\":5299:5305   */\n      dup3\n        /* \"#utility.yul\":5288:5297   */\n      dup8\n        /* \"#utility.yul\":5284:5306   */\n      add\n        /* \"#utility.yul\":5263:5316   */\n      tag_176\n      jump\t// in\n    tag_289:\n        /* \"#utility.yul\":5253:5316   */\n      swap2\n      pop\n        /* \"#utility.yul\":5208:5326   */\n      pop\n        /* \"#utility.yul\":4518:5333   */\n      swap3\n      pop\n      swap3\n      pop\n      swap3\n      jump\t// out\n        /* \"#utility.yul\":5339:5457   */\n    tag_177:\n        /* \"#utility.yul\":5426:5450   */\n      tag_291\n        /* \"#utility.yul\":5444:5449   */\n      dup2\n        /* \"#utility.yul\":5426:5450   */\n      tag_159\n      jump\t// in\n    tag_291:\n        /* \"#utility.yul\":5421:5424   */\n      dup3\n        /* \"#utility.yul\":5414:5451   */\n      mstore\n        /* \"#utility.yul\":5339:5457   */\n      pop\n      pop\n      jump\t// out\n        /* \"#utility.yul\":5463:5685   */\n    tag_48:\n        /* \"#utility.yul\":5556:5560   */\n      0x00\n        /* \"#utility.yul\":5594:5596   */\n      0x20\n        /* \"#utility.yul\":5583:5592   */\n      dup3\n        /* \"#utility.yul\":5579:5597   */\n      add\n        /* \"#utility.yul\":5571:5597   */\n      swap1\n      pop\n        /* \"#utility.yul\":5607:5678   */\n      tag_293\n        /* \"#utility.yul\":5675:5676   */\n      0x00\n        /* \"#utility.yul\":5664:5673   */\n      dup4\n        /* \"#utility.yul\":5660:5677   */\n      add\n        /* \"#utility.yul\":5651:5657   */\n      dup5\n        /* \"#utility.yul\":5607:5678   */\n      tag_177\n      jump\t// in\n    tag_293:\n        /* \"#utility.yul\":5463:5685   */\n      swap3\n      swap2\n      pop\n      pop\n      jump\t// out\n        /* \"#utility.yul\":5691:6020   */\n    tag_55:\n        /* \"#utility.yul\":5750:5756   */\n      0x00\n        /* \"#utility.yul\":5799:5801   */\n      0x20\n        /* \"#utility.yul\":5787:5796   */\n      dup3\n        /* \"#utility.yul\":5778:5785   */\n      dup5\n        /* \"#utility.yul\":5774:5797   */\n      sub\n        /* \"#utility.yul\":5770:5802   */\n      slt\n        /* \"#utility.yul\":5767:5886   */\n      iszero\n      tag_295\n      jumpi\n        /* \"#utility.yul\":5805:5884   */\n      tag_296\n      tag_156\n      jump\t// in\n    tag_296:\n        /* \"#utility.yul\":5767:5886   */\n    tag_295:\n        /* \"#utility.yul\":5925:5926   */\n      0x00\n        /* \"#utility.yul\":5950:6003   */\n      tag_297\n        /* \"#utility.yul\":5995:6002   */\n      dup5\n        /* \"#utility.yul\":5986:5992   */\n      dup3\n        /* \"#utility.yul\":5975:5984   */\n      dup6\n        /* \"#utility.yul\":5971:5993   */\n      add\n        /* \"#utility.yul\":5950:6003   */\n      tag_176\n      jump\t// in\n    tag_297:\n        /* \"#utility.yul\":5940:6003   */\n      swap2\n      pop\n        /* \"#utility.yul\":5896:6013   */\n      pop\n        /* \"#utility.yul\":5691:6020   */\n      swap3\n      swap2\n      pop\n      pop\n      jump\t// out\n        /* \"#utility.yul\":6026:6125   */\n    tag_178:\n        /* \"#utility.yul\":6078:6084   */\n      0x00\n        /* \"#utility.yul\":6112:6117   */\n      dup2\n        /* \"#utility.yul\":6106:6118   */\n      mload\n        /* \"#utility.yul\":6096:6118   */\n      swap1\n      pop\n        /* \"#utility.yul\":6026:6125   */\n      swap2\n      swap1\n      pop\n      jump\t// out\n        /* \"#utility.yul\":6131:6300   */\n    tag_179:\n        /* \"#utility.yul\":6215:6226   */\n      0x00\n        /* \"#utility.yul\":6249:6255   */\n      dup3\n        /* \"#utility.yul\":6244:6247   */\n      dup3\n        /* \"#utility.yul\":6237:6256   */\n      mstore\n        /* \"#utility.yul\":6289:6293   */\n      0x20\n        /* \"#utility.yul\":6284:6287   */\n      dup3\n        /* \"#utility.yul\":6280:6294   */\n      add\n        /* \"#utility.yul\":6265:6294   */\n      swap1\n      pop\n        /* \"#utility.yul\":6131:6300   */\n      swap3\n      swap2\n      pop\n      pop\n      jump\t// out\n        /* \"#utility.yul\":6306:6552   */\n    tag_180:\n        /* \"#utility.yul\":6387:6388   */\n      0x00\n        /* \"#utility.yul\":6397:6510   */\n    tag_301:\n        /* \"#utility.yul\":6411:6417   */\n      dup4\n        /* \"#utility.yul\":6408:6409   */\n      dup2\n        /* \"#utility.yul\":6405:6418   */\n      lt\n        /* \"#utility.yul\":6397:6510   */\n      iszero\n      tag_303\n      jumpi\n        /* \"#utility.yul\":6496:6497   */\n      dup1\n        /* \"#utility.yul\":6491:6494   */\n      dup3\n        /* \"#utility.yul\":6487:6498   */\n      add\n        /* \"#utility.yul\":6481:6499   */\n      mload\n        /* \"#utility.yul\":6477:6478   */\n      dup2\n        /* \"#utility.yul\":6472:6475   */\n      dup5\n        /* \"#utility.yul\":6468:6479   */\n      add\n        /* \"#utility.yul\":6461:6500   */\n      mstore\n        /* \"#utility.yul\":6433:6435   */\n      0x20\n        /* \"#utility.yul\":6430:6431   */\n      dup2\n        /* \"#utility.yul\":6426:6436   */\n      add\n        /* \"#utility.yul\":6421:6436   */\n      swap1\n      pop\n        /* \"#utility.yul\":6397:6510   */\n      jump(tag_301)\n    tag_303:\n        /* \"#utility.yul\":6544:6545   */\n      0x00\n        /* \"#utility.yul\":6535:6541   */\n      dup5\n        /* \"#utility.yul\":6530:6533   */\n      dup5\n        /* \"#utility.yul\":6526:6542   */\n      add\n        /* \"#utility.yul\":6519:6546   */\n      mstore\n        /* \"#utility.yul\":6368:6552   */\n      pop\n        /* \"#utility.yul\":6306:6552   */\n      pop\n      pop\n      pop\n      jump\t// out\n        /* \"#utility.yul\":6558:6935   */\n    tag_181:\n        /* \"#utility.yul\":6646:6649   */\n      0x00\n        /* \"#utility.yul\":6674:6713   */\n      tag_305\n        /* \"#utility.yul\":6707:6712   */\n      dup3\n        /* \"#utility.yul\":6674:6713   */\n      tag_178\n      jump\t// in\n    tag_305:\n        /* \"#utility.yul\":6729:6800   */\n      tag_306\n        /* \"#utility.yul\":6793:6799   */\n      dup2\n        /* \"#utility.yul\":6788:6791   */\n      dup6\n        /* \"#utility.yul\":6729:6800   */\n      tag_179\n      jump\t// in\n    tag_306:\n        /* \"#utility.yul\":6722:6800   */\n      swap4\n      pop\n        /* \"#utility.yul\":6809:6874   */\n      tag_307\n        /* \"#utility.yul\":6867:6873   */\n      dup2\n        /* \"#utility.yul\":6862:6865   */\n      dup6\n        /* \"#utility.yul\":6855:6859   */\n      0x20\n        /* \"#utility.yul\":6848:6853   */\n      dup7\n        /* \"#utility.yul\":6844:6860   */\n      add\n        /* \"#utility.yul\":6809:6874   */\n      tag_180\n      jump\t// in\n    tag_307:\n        /* \"#utility.yul\":6899:6928   */\n      tag_308\n        /* \"#utility.yul\":6921:6927   */\n      dup2\n        /* \"#utility.yul\":6899:6928   */\n      tag_164\n      jump\t// in\n    tag_308:\n        /* \"#utility.yul\":6894:6897   */\n      dup5\n        /* \"#utility.yul\":6890:6929   */\n      add\n        /* \"#utility.yul\":6883:6929   */\n      swap2\n      pop\n        /* \"#utility.yul\":6650:6935   */\n      pop\n        /* \"#utility.yul\":6558:6935   */\n      swap3\n      swap2\n      pop\n      pop\n      jump\t// out\n        /* \"#utility.yul\":6941:7083   */\n    tag_182:\n        /* \"#utility.yul\":7044:7076   */\n      tag_310\n        /* \"#utility.yul\":7070:7075   */\n      dup2\n        /* \"#utility.yul\":7044:7076   */\n      tag_172\n      jump\t// in\n    tag_310:\n        /* \"#utility.yul\":7039:7042   */\n      dup3\n        /* \"#utility.yul\":7032:7077   */\n      mstore\n        /* \"#utility.yul\":6941:7083   */\n      pop\n      pop\n      jump\t// out\n        /* \"#utility.yul\":7089:7179   */\n    tag_183:\n        /* \"#utility.yul\":7123:7130   */\n      0x00\n        /* \"#utility.yul\":7166:7171   */\n      dup2\n        /* \"#utility.yul\":7159:7172   */\n      iszero\n        /* \"#utility.yul\":7152:7173   */\n      iszero\n        /* \"#utility.yul\":7141:7173   */\n      swap1\n      pop\n        /* \"#utility.yul\":7089:7179   */\n      swap2\n      swap1\n      pop\n      jump\t// out\n        /* \"#utility.yul\":7185:7294   */\n    tag_184:\n        /* \"#utility.yul\":7266:7287   */\n      tag_313\n        /* \"#utility.yul\":7281:7286   */\n      dup2\n        /* \"#utility.yul\":7266:7287   */\n      tag_183\n      jump\t// in\n    tag_313:\n        /* \"#utility.yul\":7261:7264   */\n      dup3\n        /* \"#utility.yul\":7254:7288   */\n      mstore\n        /* \"#utility.yul\":7185:7294   */\n      pop\n      pop\n      jump\t// out\n        /* \"#utility.yul\":7300:8075   */\n    tag_58:\n        /* \"#utility.yul\":7535:7539   */\n      0x00\n        /* \"#utility.yul\":7573:7576   */\n      0xa0\n        /* \"#utility.yul\":7562:7571   */\n      dup3\n        /* \"#utility.yul\":7558:7577   */\n      add\n        /* \"#utility.yul\":7550:7577   */\n      swap1\n      pop\n        /* \"#utility.yul\":7623:7632   */\n      dup2\n        /* \"#utility.yul\":7617:7621   */\n      dup2\n        /* \"#utility.yul\":7613:7633   */\n      sub\n        /* \"#utility.yul\":7609:7610   */\n      0x00\n        /* \"#utility.yul\":7598:7607   */\n      dup4\n        /* \"#utility.yul\":7594:7611   */\n      add\n        /* \"#utility.yul\":7587:7634   */\n      mstore\n        /* \"#utility.yul\":7651:7729   */\n      tag_315\n        /* \"#utility.yul\":7724:7728   */\n      dup2\n        /* \"#utility.yul\":7715:7721   */\n      dup9\n        /* \"#utility.yul\":7651:7729   */\n      tag_181\n      jump\t// in\n    tag_315:\n        /* \"#utility.yul\":7643:7729   */\n      swap1\n      pop\n        /* \"#utility.yul\":7739:7827   */\n      tag_316\n        /* \"#utility.yul\":7823:7825   */\n      0x20\n        /* \"#utility.yul\":7812:7821   */\n      dup4\n        /* \"#utility.yul\":7808:7826   */\n      add\n        /* \"#utility.yul\":7799:7805   */\n      dup8\n        /* \"#utility.yul\":7739:7827   */\n      tag_182\n      jump\t// in\n    tag_316:\n        /* \"#utility.yul\":7837:7909   */\n      tag_317\n        /* \"#utility.yul\":7905:7907   */\n      0x40\n        /* \"#utility.yul\":7894:7903   */\n      dup4\n        /* \"#utility.yul\":7890:7908   */\n      add\n        /* \"#utility.yul\":7881:7887   */\n      dup7\n        /* \"#utility.yul\":7837:7909   */\n      tag_154\n      jump\t// in\n    tag_317:\n        /* \"#utility.yul\":7919:7985   */\n      tag_318\n        /* \"#utility.yul\":7981:7983   */\n      0x60\n        /* \"#utility.yul\":7970:7979   */\n      dup4\n        /* \"#utility.yul\":7966:7984   */\n      add\n        /* \"#utility.yul\":7957:7963   */\n      dup6\n        /* \"#utility.yul\":7919:7985   */\n      tag_184\n      jump\t// in\n    tag_318:\n        /* \"#utility.yul\":7995:8068   */\n      tag_319\n        /* \"#utility.yul\":8063:8066   */\n      0x80\n        /* \"#utility.yul\":8052:8061   */\n      dup4\n        /* \"#utility.yul\":8048:8067   */\n      add\n        /* \"#utility.yul\":8039:8045   */\n      dup5\n        /* \"#utility.yul\":7995:8068   */\n      tag_154\n      jump\t// in\n    tag_319:\n        /* \"#utility.yul\":7300:8075   */\n      swap7\n      swap6\n      pop\n      pop\n      pop\n      pop\n      pop\n      pop\n      jump\t// out\n        /* \"#utility.yul\":8081:8252   */\n    tag_185:\n        /* \"#utility.yul\":8221:8244   */\n      0x6f6e6c79206d616e616765722063616e2063616c6c0000000000000000000000\n        /* \"#utility.yul\":8217:8218   */\n      0x00\n        /* \"#utility.yul\":8209:8215   */\n      dup3\n        /* \"#utility.yul\":8205:8219   */\n      add\n        /* \"#utility.yul\":8198:8245   */\n      mstore\n        /* \"#utility.yul\":8081:8252   */\n      pop\n      jump\t// out\n        /* \"#utility.yul\":8258:8624   */\n    tag_186:\n        /* \"#utility.yul\":8400:8403   */\n      0x00\n        /* \"#utility.yul\":8421:8488   */\n      tag_322\n        /* \"#utility.yul\":8485:8487   */\n      0x15\n        /* \"#utility.yul\":8480:8483   */\n      dup4\n        /* \"#utility.yul\":8421:8488   */\n      tag_179\n      jump\t// in\n    tag_322:\n        /* \"#utility.yul\":8414:8488   */\n      swap2\n      pop\n        /* \"#utility.yul\":8497:8590   */\n      tag_323\n        /* \"#utility.yul\":8586:8589   */\n      dup3\n        /* \"#utility.yul\":8497:8590   */\n      tag_185\n      jump\t// in\n    tag_323:\n        /* \"#utility.yul\":8615:8617   */\n      0x20\n        /* \"#utility.yul\":8610:8613   */\n      dup3\n        /* \"#utility.yul\":8606:8618   */\n      add\n        /* \"#utility.yul\":8599:8618   */\n      swap1\n      pop\n        /* \"#utility.yul\":8258:8624   */\n      swap2\n      swap1\n      pop\n      jump\t// out\n        /* \"#utility.yul\":8630:9049   */\n    tag_88:\n        /* \"#utility.yul\":8796:8800   */\n      0x00\n        /* \"#utility.yul\":8834:8836   */\n      0x20\n        /* \"#utility.yul\":8823:8832   */\n      dup3\n        /* \"#utility.yul\":8819:8837   */\n      add\n        /* \"#utility.yul\":8811:8837   */\n      swap1\n      pop\n        /* \"#utility.yul\":8883:8892   */\n      dup2\n        /* \"#utility.yul\":8877:8881   */\n      dup2\n        /* \"#utility.yul\":8873:8893   */\n      sub\n        /* \"#utility.yul\":8869:8870   */\n      0x00\n        /* \"#utility.yul\":8858:8867   */\n      dup4\n        /* \"#utility.yul\":8854:8871   */\n      add\n        /* \"#utility.yul\":8847:8894   */\n      mstore\n        /* \"#utility.yul\":8911:9042   */\n      tag_325\n        /* \"#utility.yul\":9037:9041   */\n      dup2\n        /* \"#utility.yul\":8911:9042   */\n      tag_186\n      jump\t// in\n    tag_325:\n        /* \"#utility.yul\":8903:9042   */\n      swap1\n      pop\n        /* \"#utility.yul\":8630:9049   */\n      swap2\n      swap1\n      pop\n      jump\t// out\n        /* \"#utility.yul\":9055:9235   */\n    tag_187:\n        /* \"#utility.yul\":9103:9180   */\n      0x4e487b7100000000000000000000000000000000000000000000000000000000\n        /* \"#utility.yul\":9100:9101   */\n      0x00\n        /* \"#utility.yul\":9093:9181   */\n      mstore\n        /* \"#utility.yul\":9200:9204   */\n      0x11\n        /* \"#utility.yul\":9197:9198   */\n      0x04\n        /* \"#utility.yul\":9190:9205   */\n      mstore\n        /* \"#utility.yul\":9224:9228   */\n      0x24\n        /* \"#utility.yul\":9221:9222   */\n      0x00\n        /* \"#utility.yul\":9214:9229   */\n      revert\n        /* \"#utility.yul\":9241:9474   */\n    tag_91:\n        /* \"#utility.yul\":9280:9283   */\n      0x00\n        /* \"#utility.yul\":9303:9327   */\n      tag_328\n        /* \"#utility.yul\":9321:9326   */\n      dup3\n        /* \"#utility.yul\":9303:9327   */\n      tag_153\n      jump\t// in\n    tag_328:\n        /* \"#utility.yul\":9294:9327   */\n      swap2\n      pop\n        /* \"#utility.yul\":9349:9415   */\n      0xffffffffffffffffffffffffffffffffffffffffffffffffffffffffffffffff\n        /* \"#utility.yul\":9342:9347   */\n      dup3\n        /* \"#utility.yul\":9339:9416   */\n      sub\n        /* \"#utility.yul\":9336:9439   */\n      tag_329\n      jumpi\n        /* \"#utility.yul\":9419:9437   */\n      tag_330\n      tag_187\n      jump\t// in\n    tag_330:\n        /* \"#utility.yul\":9336:9439   */\n    tag_329:\n        /* \"#utility.yul\":9466:9467   */\n      0x01\n        /* \"#utility.yul\":9459:9464   */\n      dup3\n        /* \"#utility.yul\":9455:9468   */\n      add\n        /* \"#utility.yul\":9448:9468   */\n      swap1\n      pop\n        /* \"#utility.yul\":9241:9474   */\n      swap2\n      swap1\n      pop\n      jump\t// out\n        /* \"#utility.yul\":9480:9660   */\n    tag_188:\n        /* \"#utility.yul\":9528:9605   */\n      0x4e487b7100000000000000000000000000000000000000000000000000000000\n        /* \"#utility.yul\":9525:9526   */\n      0x00\n        /* \"#utility.yul\":9518:9606   */\n      mstore\n        /* \"#utility.yul\":9625:9629   */\n      0x22\n        /* \"#utility.yul\":9622:9623   */\n      0x04\n        /* \"#utility.yul\":9615:9630   */\n      mstore\n        /* \"#utility.yul\":9649:9653   */\n      0x24\n        /* \"#utility.yul\":9646:9647   */\n      0x00\n        /* \"#utility.yul\":9639:9654   */\n      revert\n        /* \"#utility.yul\":9666:9986   */\n    tag_108:\n        /* \"#utility.yul\":9710:9716   */\n      0x00\n        /* \"#utility.yul\":9747:9748   */\n      0x02\n        /* \"#utility.yul\":9741:9745   */\n      dup3\n        /* \"#utility.yul\":9737:9749   */\n      div\n        /* \"#utility.yul\":9727:9749   */\n      swap1\n      pop\n        /* \"#utility.yul\":9794:9795   */\n      0x01\n        /* \"#utility.yul\":9788:9792   */\n      dup3\n        /* \"#utility.yul\":9784:9796   */\n      and\n        /* \"#utility.yul\":9815:9833   */\n      dup1\n        /* \"#utility.yul\":9805:9886   */\n      tag_333\n      jumpi\n        /* \"#utility.yul\":9871:9875   */\n      0x7f\n        /* \"#utility.yul\":9863:9869   */\n      dup3\n        /* \"#utility.yul\":9859:9876   */\n      and\n        /* \"#utility.yul\":9849:9876   */\n      swap2\n      pop\n        /* \"#utility.yul\":9805:9886   */\n    tag_333:\n        /* \"#utility.yul\":9933:9935   */\n      0x20\n        /* \"#utility.yul\":9925:9931   */\n      dup3\n        /* \"#utility.yul\":9922:9936   */\n      lt\n        /* \"#utility.yul\":9902:9920   */\n      dup2\n        /* \"#utility.yul\":9899:9937   */\n      sub\n        /* \"#utility.yul\":9896:9980   */\n      tag_334\n      jumpi\n        /* \"#utility.yul\":9952:9970   */\n      tag_335\n      tag_188\n      jump\t// in\n    tag_335:\n        /* \"#utility.yul\":9896:9980   */\n    tag_334:\n        /* \"#utility.yul\":9717:9986   */\n      pop\n        /* \"#utility.yul\":9666:9986   */\n      swap2\n      swap1\n      pop\n      jump\t// out\n        /* \"#utility.yul\":9992:10133   */\n    tag_189:\n        /* \"#utility.yul\":10041:10045   */\n      0x00\n        /* \"#utility.yul\":10064:10067   */\n      dup2\n        /* \"#utility.yul\":10056:10067   */\n      swap1\n      pop\n        /* \"#utility.yul\":10087:10090   */\n      dup2\n        /* \"#utility.yul\":10084:10085   */\n      0x00\n        /* \"#utility.yul\":10077:10091   */\n      mstore\n        /* \"#utility.yul\":10121:10125   */\n      0x20\n        /* \"#utility.yul\":10118:10119   */\n      0x00\n        /* \"#utility.yul\":10108:10126   */\n      keccak256\n        /* \"#utility.yul\":10100:10126   */\n      swap1\n      pop\n        /* \"#utility.yul\":9992:10133   */\n      swap2\n      swap1\n      pop\n      jump\t// out\n        /* \"#utility.yul\":10139:10232   */\n    tag_190:\n        /* \"#utility.yul\":10176:10182   */\n      0x00\n        /* \"#utility.yul\":10223:10225   */\n      0x20\n        /* \"#utility.yul\":10218:10220   */\n      0x1f\n        /* \"#utility.yul\":10211:10216   */\n      dup4\n        /* \"#utility.yul\":10207:10221   */\n      add\n        /* \"#utility.yul\":10203:10226   */\n      div\n        /* \"#utility.yul\":10193:10226   */\n      swap1\n      pop\n        /* \"#utility.yul\":10139:10232   */\n      swap2\n      swap1\n      pop\n      jump\t// out\n        /* \"#utility.yul\":10238:10345   */\n    tag_191:\n        /* \"#utility.yul\":10282:10290   */\n      0x00\n        /* \"#utility.yul\":10332:10337   */\n      dup3\n        /* \"#utility.yul\":10326:10330   */\n      dup3\n        /* \"#utility.yul\":10322:10338   */\n      shl\n        /* \"#utility.yul\":10301:10338   */\n      swap1\n      pop\n        /* \"#utility.yul\":10238:10345   */\n      swap3\n      swap2\n      pop\n      pop\n      jump\t// out\n        /* \"#utility.yul\":10351:10744   */\n    tag_192:\n        /* \"#utility.yul\":10420:10426   */\n      0x00\n        /* \"#utility.yul\":10470:10471   */\n      0x08\n        /* \"#utility.yul\":10458:10468   */\n      dup4\n        /* \"#utility.yul\":10454:10472   */\n      mul\n        /* \"#utility.yul\":10493:10590   */\n      tag_340\n        /* \"#utility.yul\":10523:10589   */\n      0xffffffffffffffffffffffffffffffffffffffffffffffffffffffffffffffff\n        /* \"#utility.yul\":10512:10521   */\n      dup3\n        /* \"#utility.yul\":10493:10590   */\n      tag_191\n      jump\t// in\n    tag_340:\n        /* \"#utility.yul\":10611:10650   */\n      tag_341\n        /* \"#utility.yul\":10641:10649   */\n      dup7\n        /* \"#utility.yul\":10630:10639   */\n      dup4\n        /* \"#utility.yul\":10611:10650   */\n      tag_191\n      jump\t// in\n    tag_341:\n        /* \"#utility.yul\":10599:10650   */\n      swap6\n      pop\n        /* \"#utility.yul\":10683:10687   */\n      dup1\n        /* \"#utility.yul\":10679:10688   */\n      not\n        /* \"#utility.yul\":10672:10677   */\n      dup5\n        /* \"#utility.yul\":10668:10689   */\n      and\n        /* \"#utility.yul\":10659:10689   */\n      swap4\n      pop\n        /* \"#utility.yul\":10732:10736   */\n      dup1\n        /* \"#utility.yul\":10722:10730   */\n      dup7\n        /* \"#utility.yul\":10718:10737   */\n      and\n        /* \"#utility.yul\":10711:10716   */\n      dup5\n        /* \"#utility.yul\":10708:10738   */\n      or\n        /* \"#utility.yul\":10698:10738   */\n      swap3\n      pop\n        /* \"#utility.yul\":10427:10744   */\n      pop\n      pop\n        /* \"#utility.yul\":10351:10744   */\n      swap4\n      swap3\n      pop\n      pop\n      pop\n      jump\t// out\n        /* \"#utility.yul\":10750:10810   */\n    tag_193:\n        /* \"#utility.yul\":10778:10781   */\n      0x00\n        /* \"#utility.yul\":10799:10804   */\n      dup2\n        /* \"#utility.yul\":10792:10804   */\n      swap1\n      pop\n        /* \"#utility.yul\":10750:10810   */\n      swap2\n      swap1\n      pop\n      jump\t// out\n        /* \"#utility.yul\":10816:10958   */\n    tag_194:\n        /* \"#utility.yul\":10866:10875   */\n      0x00\n        /* \"#utility.yul\":10899:10952   */\n      tag_344\n        /* \"#utility.yul\":10917:10951   */\n      tag_345\n        /* \"#utility.yul\":10926:10950   */\n      tag_346\n        /* \"#utility.yul\":10944:10949   */\n      dup5\n        /* \"#utility.yul\":10926:10950   */\n      tag_153\n      jump\t// in\n    tag_346:\n        /* \"#utility.yul\":10917:10951   */\n      tag_193\n      jump\t// in\n    tag_345:\n        /* \"#utility.yul\":10899:10952   */\n      tag_153\n      jump\t// in\n    tag_344:\n        /* \"#utility.yul\":10886:10952   */\n      swap1\n      pop\n        /* \"#utility.yul\":10816:10958   */\n      swap2\n      swap1\n      pop\n      jump\t// out\n        /* \"#utility.yul\":10964:11039   */\n    tag_195:\n        /* \"#utility.yul\":11007:11010   */\n      0x00\n        /* \"#utility.yul\":11028:11033   */\n      dup2\n        /* \"#utility.yul\":11021:11033   */\n      swap1\n      pop\n        /* \"#utility.yul\":10964:11039   */\n      swap2\n      swap1\n      pop\n      jump\t// out\n        /* \"#utility.yul\":11045:11314   */\n    tag_196:\n        /* \"#utility.yul\":11155:11194   */\n      tag_349\n        /* \"#utility.yul\":11186:11193   */\n      dup4\n        /* \"#utility.yul\":11155:11194   */\n      tag_194\n      jump\t// in\n    tag_349:\n        /* \"#utility.yul\":11216:11307   */\n      tag_350\n        /* \"#utility.yul\":11265:11306   */\n      tag_351\n        /* \"#utility.yul\":11289:11305   */\n      dup3\n        /* \"#utility.yul\":11265:11306   */\n      tag_195\n      jump\t// in\n    tag_351:\n        /* \"#utility.yul\":11257:11263   */\n      dup5\n        /* \"#utility.yul\":11250:11254   */\n      dup5\n        /* \"#utility.yul\":11244:11255   */\n      sload\n        /* \"#utility.yul\":11216:11307   */\n      tag_192\n      jump\t// in\n    tag_350:\n        /* \"#utility.yul\":11210:11214   */\n      dup3\n        /* \"#utility.yul\":11203:11308   */\n      sstore\n        /* \"#utility.yul\":11121:11314   */\n      pop\n        /* \"#utility.yul\":11045:11314   */\n      pop\n      pop\n      pop\n      jump\t// out\n        /* \"#utility.yul\":11320:11393   */\n    tag_197:\n        /* \"#utility.yul\":11365:11368   */\n      0x00\n        /* \"#utility.yul\":11320:11393   */\n      swap1\n      jump\t// out\n        /* \"#utility.yul\":11399:11588   */\n    tag_198:\n        /* \"#utility.yul\":11476:11508   */\n      tag_354\n      tag_197\n      jump\t// in\n    tag_354:\n        /* \"#utility.yul\":11517:11582   */\n      tag_355\n        /* \"#utility.yul\":11575:11581   */\n      dup2\n        /* \"#utility.yul\":11567:11573   */\n      dup5\n        /* \"#utility.yul\":11561:11565   */\n      dup5\n        /* \"#utility.yul\":11517:11582   */\n      tag_196\n      jump\t// in\n    tag_355:\n        /* \"#utility.yul\":11452:11588   */\n      pop\n        /* \"#utility.yul\":11399:11588   */\n      pop\n      pop\n      jump\t// out\n        /* \"#utility.yul\":11594:11780   */\n    tag_199:\n        /* \"#utility.yul\":11654:11774   */\n    tag_357:\n        /* \"#utility.yul\":11671:11674   */\n      dup2\n        /* \"#utility.yul\":11664:11669   */\n      dup2\n        /* \"#utility.yul\":11661:11675   */\n      lt\n        /* \"#utility.yul\":11654:11774   */\n      iszero\n      tag_359\n      jumpi\n        /* \"#utility.yul\":11725:11764   */\n      tag_360\n        /* \"#utility.yul\":11762:11763   */\n      0x00\n        /* \"#utility.yul\":11755:11760   */\n      dup3\n        /* \"#utility.yul\":11725:11764   */\n      tag_198\n      jump\t// in\n    tag_360:\n        /* \"#utility.yul\":11698:11699   */\n      0x01\n        /* \"#utility.yul\":11691:11696   */\n      dup2\n        /* \"#utility.yul\":11687:11700   */\n      add\n        /* \"#utility.yul\":11678:11700   */\n      swap1\n      pop\n        /* \"#utility.yul\":11654:11774   */\n      jump(tag_357)\n    tag_359:\n        /* \"#utility.yul\":11594:11780   */\n      pop\n      pop\n      jump\t// out\n        /* \"#utility.yul\":11786:12329   */\n    tag_200:\n        /* \"#utility.yul\":11887:11889   */\n      0x1f\n        /* \"#utility.yul\":11882:11885   */\n      dup3\n        /* \"#utility.yul\":11879:11890   */\n      gt\n        /* \"#utility.yul\":11876:12322   */\n      iszero\n      tag_362\n      jumpi\n        /* \"#utility.yul\":11921:11959   */\n      tag_363\n        /* \"#utility.yul\":11953:11958   */\n      dup2\n        /* \"#utility.yul\":11921:11959   */\n      tag_189\n      jump\t// in\n    tag_363:\n        /* \"#utility.yul\":12005:12034   */\n      tag_364\n        /* \"#utility.yul\":12023:12033   */\n      dup5\n        /* \"#utility.yul\":12005:12034   */\n      tag_190\n      jump\t// in\n    tag_364:\n        /* \"#utility.yul\":11995:12003   */\n      dup2\n        /* \"#utility.yul\":11991:12035   */\n      add\n        /* \"#utility.yul\":12188:12190   */\n      0x20\n        /* \"#utility.yul\":12176:12186   */\n      dup6\n        /* \"#utility.yul\":12173:12191   */\n      lt\n        /* \"#utility.yul\":12170:12219   */\n      iszero\n      tag_365\n      jumpi\n        /* \"#utility.yul\":12209:12217   */\n      dup2\n        /* \"#utility.yul\":12194:12217   */\n      swap1\n      pop\n        /* \"#utility.yul\":12170:12219   */\n    tag_365:\n        /* \"#utility.yul\":12232:12312   */\n      tag_366\n        /* \"#utility.yul\":12288:12310   */\n      tag_367\n        /* \"#utility.yul\":12306:12309   */\n      dup6\n        /* \"#utility.yul\":12288:12310   */\n      tag_190\n      jump\t// in\n    tag_367:\n        /* \"#utility.yul\":12278:12286   */\n      dup4\n        /* \"#utility.yul\":12274:12311   */\n      add\n        /* \"#utility.yul\":12261:12272   */\n      dup3\n        /* \"#utility.yul\":12232:12312   */\n      tag_199\n      jump\t// in\n    tag_366:\n        /* \"#utility.yul\":11891:12322   */\n      pop\n      pop\n        /* \"#utility.yul\":11876:12322   */\n    tag_362:\n        /* \"#utility.yul\":11786:12329   */\n      pop\n      pop\n      pop\n      jump\t// out\n        /* \"#utility.yul\":12335:12452   */\n    tag_201:\n        /* \"#utility.yul\":12389:12397   */\n      0x00\n        /* \"#utility.yul\":12439:12444   */\n      dup3\n        /* \"#utility.yul\":12433:12437   */\n      dup3\n        /* \"#utility.yul\":12429:12445   */\n      shr\n        /* \"#utility.yul\":12408:12445   */\n      swap1\n      pop\n        /* \"#utility.yul\":12335:12452   */\n      swap3\n      swap2\n      pop\n      pop\n      jump\t// out\n        /* \"#utility.yul\":12458:12627   */\n    tag_202:\n        /* \"#utility.yul\":12502:12508   */\n      0x00\n        /* \"#utility.yul\":12535:12586   */\n      tag_370\n        /* \"#utility.yul\":12583:12584   */\n      0x00\n        /* \"#utility.yul\":12579:12585   */\n      not\n        /* \"#utility.yul\":12571:12576   */\n      dup5\n        /* \"#utility.yul\":12568:12569   */\n      0x08\n        /* \"#utility.yul\":12564:12577   */\n      mul\n        /* \"#utility.yul\":12535:12586   */\n      tag_201\n      jump\t// in\n    tag_370:\n        /* \"#utility.yul\":12531:12587   */\n      not\n        /* \"#utility.yul\":12616:12620   */\n      dup1\n        /* \"#utility.yul\":12610:12614   */\n      dup4\n        /* \"#utility.yul\":12606:12621   */\n      and\n        /* \"#utility.yul\":12596:12621   */\n      swap2\n      pop\n        /* \"#utility.yul\":12509:12627   */\n      pop\n        /* \"#utility.yul\":12458:12627   */\n      swap3\n      swap2\n      pop\n      pop\n      jump\t// out\n        /* \"#utility.yul\":12632:12927   */\n    tag_203:\n        /* \"#utility.yul\":12708:12712   */\n      0x00\n        /* \"#utility.yul\":12854:12883   */\n      tag_372\n        /* \"#utility.yul\":12879:12882   */\n      dup4\n        /* \"#utility.yul\":12873:12877   */\n      dup4\n        /* \"#utility.yul\":12854:12883   */\n      tag_202\n      jump\t// in\n    tag_372:\n        /* \"#utility.yul\":12846:12883   */\n      swap2\n      pop\n        /* \"#utility.yul\":12916:12919   */\n      dup3\n        /* \"#utility.yul\":12913:12914   */\n      0x02\n        /* \"#utility.yul\":12909:12920   */\n      mul\n        /* \"#utility.yul\":12903:12907   */\n      dup3\n        /* \"#utility.yul\":12900:12921   */\n      or\n        /* \"#utility.yul\":12892:12921   */\n      swap1\n      pop\n        /* \"#utility.yul\":12632:12927   */\n      swap3\n      swap2\n      pop\n      pop\n      jump\t// out\n        /* \"#utility.yul\":12932:14327   */\n    tag_93:\n        /* \"#utility.yul\":13049:13086   */\n      tag_374\n        /* \"#utility.yul\":13082:13085   */\n      dup3\n        /* \"#utility.yul\":13049:13086   */\n      tag_178\n      jump\t// in\n    tag_374:\n        /* \"#utility.yul\":13151:13169   */\n      0xffffffffffffffff\n        /* \"#utility.yul\":13143:13149   */\n      dup2\n        /* \"#utility.yul\":13140:13170   */\n      gt\n        /* \"#utility.yul\":13137:13193   */\n      iszero\n      tag_375\n      jumpi\n        /* \"#utility.yul\":13173:13191   */\n      tag_376\n      tag_165\n      jump\t// in\n    tag_376:\n        /* \"#utility.yul\":13137:13193   */\n    tag_375:\n        /* \"#utility.yul\":13217:13255   */\n      tag_377\n        /* \"#utility.yul\":13249:13253   */\n      dup3\n        /* \"#utility.yul\":13243:13254   */\n      sload\n        /* \"#utility.yul\":13217:13255   */\n      tag_108\n      jump\t// in\n    tag_377:\n        /* \"#utility.yul\":13302:13369   */\n      tag_378\n        /* \"#utility.yul\":13362:13368   */\n      dup3\n        /* \"#utility.yul\":13354:13360   */\n      dup3\n        /* \"#utility.yul\":13348:13352   */\n      dup6\n        /* \"#utility.yul\":13302:13369   */\n      tag_200\n      jump\t// in\n    tag_378:\n        /* \"#utility.yul\":13396:13397   */\n      0x00\n        /* \"#utility.yul\":13420:13424   */\n      0x20\n        /* \"#utility.yul\":13407:13424   */\n      swap1\n      pop\n        /* \"#utility.yul\":13452:13454   */\n      0x1f\n        /* \"#utility.yul\":13444:13450   */\n      dup4\n        /* \"#utility.yul\":13441:13455   */\n      gt\n        /* \"#utility.yul\":13469:13470   */\n      0x01\n        /* \"#utility.yul\":13464:14082   */\n      dup2\n      eq\n      tag_380\n      jumpi\n        /* \"#utility.yul\":14126:14127   */\n      0x00\n        /* \"#utility.yul\":14143:14149   */\n      dup5\n        /* \"#utility.yul\":14140:14217   */\n      iszero\n      tag_381\n      jumpi\n        /* \"#utility.yul\":14192:14201   */\n      dup3\n        /* \"#utility.yul\":14187:14190   */\n      dup8\n        /* \"#utility.yul\":14183:14202   */\n      add\n        /* \"#utility.yul\":14177:14203   */\n      mload\n        /* \"#utility.yul\":14168:14203   */\n      swap1\n      pop\n        /* \"#utility.yul\":14140:14217   */\n    tag_381:\n        /* \"#utility.yul\":14243:14310   */\n      tag_382\n        /* \"#utility.yul\":14303:14309   */\n      dup6\n        /* \"#utility.yul\":14296:14301   */\n      dup3\n        /* \"#utility.yul\":14243:14310   */\n      tag_203\n      jump\t// in\n    tag_382:\n        /* \"#utility.yul\":14237:14241   */\n      dup7\n        /* \"#utility.yul\":14230:14311   */\n      sstore\n        /* \"#utility.yul\":14099:14321   */\n      pop\n        /* \"#utility.yul\":13434:14321   */\n      jump(tag_379)\n        /* \"#utility.yul\":13464:14082   */\n    tag_380:\n        /* \"#utility.yul\":13516:13520   */\n      0x1f\n        /* \"#utility.yul\":13512:13521   */\n      not\n        /* \"#utility.yul\":13504:13510   */\n      dup5\n        /* \"#utility.yul\":13500:13522   */\n      and\n        /* \"#utility.yul\":13550:13587   */\n      tag_383\n        /* \"#utility.yul\":13582:13586   */\n      dup7\n        /* \"#utility.yul\":13550:13587   */\n      tag_189\n      jump\t// in\n    tag_383:\n        /* \"#utility.yul\":13609:13610   */\n      0x00\n        /* \"#utility.yul\":13623:13831   */\n    tag_384:\n        /* \"#utility.yul\":13637:13644   */\n      dup3\n        /* \"#utility.yul\":13634:13635   */\n      dup2\n        /* \"#utility.yul\":13631:13645   */\n      lt\n        /* \"#utility.yul\":13623:13831   */\n      iszero\n      tag_386\n      jumpi\n        /* \"#utility.yul\":13716:13725   */\n      dup5\n        /* \"#utility.yul\":13711:13714   */\n      dup10\n        /* \"#utility.yul\":13707:13726   */\n      add\n        /* \"#utility.yul\":13701:13727   */\n      mload\n        /* \"#utility.yul\":13693:13699   */\n      dup3\n        /* \"#utility.yul\":13686:13728   */\n      sstore\n        /* \"#utility.yul\":13767:13768   */\n      0x01\n        /* \"#utility.yul\":13759:13765   */\n      dup3\n        /* \"#utility.yul\":13755:13769   */\n      add\n        /* \"#utility.yul\":13745:13769   */\n      swap2\n      pop\n        /* \"#utility.yul\":13814:13816   */\n      0x20\n        /* \"#utility.yul\":13803:13812   */\n      dup6\n        /* \"#utility.yul\":13799:13817   */\n      add\n        /* \"#utility.yul\":13786:13817   */\n      swap5\n      pop\n        /* \"#utility.yul\":13660:13664   */\n      0x20\n        /* \"#utility.yul\":13657:13658   */\n      dup2\n        /* \"#utility.yul\":13653:13665   */\n      add\n        /* \"#utility.yul\":13648:13665   */\n      swap1\n      pop\n        /* \"#utility.yul\":13623:13831   */\n      jump(tag_384)\n    tag_386:\n        /* \"#utility.yul\":13859:13865   */\n      dup7\n        /* \"#utility.yul\":13850:13857   */\n      dup4\n        /* \"#utility.yul\":13847:13866   */\n      lt\n        /* \"#utility.yul\":13844:14023   */\n      iszero\n      tag_387\n      jumpi\n        /* \"#utility.yul\":13917:13926   */\n      dup5\n        /* \"#utility.yul\":13912:13915   */\n      dup10\n        /* \"#utility.yul\":13908:13927   */\n      add\n        /* \"#utility.yul\":13902:13928   */\n      mload\n        /* \"#utility.yul\":13960:14008   */\n      tag_388\n        /* \"#utility.yul\":14002:14006   */\n      0x1f\n        /* \"#utility.yul\":13994:14000   */\n      dup10\n        /* \"#utility.yul\":13990:14007   */\n      and\n        /* \"#utility.yul\":13979:13988   */\n      dup3\n        /* \"#utility.yul\":13960:14008   */\n      tag_202\n      jump\t// in\n    tag_388:\n        /* \"#utility.yul\":13952:13958   */\n      dup4\n        /* \"#utility.yul\":13945:14009   */\n      sstore\n        /* \"#utility.yul\":13867:14023   */\n      pop\n        /* \"#utility.yul\":13844:14023   */\n    tag_387:\n        /* \"#utility.yul\":14069:14070   */\n      0x01\n        /* \"#utility.yul\":14065:14066   */\n      0x02\n        /* \"#utility.yul\":14057:14063   */\n      dup9\n        /* \"#utility.yul\":14053:14067   */\n      mul\n        /* \"#utility.yul\":14049:14071   */\n      add\n        /* \"#utility.yul\":14043:14047   */\n      dup9\n        /* \"#utility.yul\":14036:14072   */\n      sstore\n        /* \"#utility.yul\":13471:14082   */\n      pop\n      pop\n      pop\n        /* \"#utility.yul\":13434:14321   */\n    tag_379:\n      pop\n        /* \"#utility.yul\":13024:14327   */\n      pop\n      pop\n      pop\n        /* \"#utility.yul\":12932:14327   */\n      pop\n      pop\n      jump\t// out\n        /* \"#utility.yul\":14333:14495   */\n    tag_204:\n        /* \"#utility.yul\":14473:14487   */\n      0x796f7520617265206c6174650000000000000000000000000000000000000000\n        /* \"#utility.yul\":14469:14470   */\n      0x00\n        /* \"#utility.yul\":14461:14467   */\n      dup3\n        /* \"#utility.yul\":14457:14471   */\n      add\n        /* \"#utility.yul\":14450:14488   */\n      mstore\n        /* \"#utility.yul\":14333:14495   */\n      pop\n      jump\t// out\n        /* \"#utility.yul\":14501:14867   */\n    tag_205:\n        /* \"#utility.yul\":14643:14646   */\n      0x00\n        /* \"#utility.yul\":14664:14731   */\n      tag_391\n        /* \"#utility.yul\":14728:14730   */\n      0x0c\n        /* \"#utility.yul\":14723:14726   */\n      dup4\n        /* \"#utility.yul\":14664:14731   */\n      tag_179\n      jump\t// in\n    tag_391:\n        /* \"#utility.yul\":14657:14731   */\n      swap2\n      pop\n        /* \"#utility.yul\":14740:14833   */\n      tag_392\n        /* \"#utility.yul\":14829:14832   */\n      dup3\n        /* \"#utility.yul\":14740:14833   */\n      tag_204\n      jump\t// in\n    tag_392:\n        /* \"#utility.yul\":14858:14860   */\n      0x20\n        /* \"#utility.yul\":14853:14856   */\n      dup3\n        /* \"#utility.yul\":14849:14861   */\n      add\n        /* \"#utility.yul\":14842:14861   */\n      swap1\n      pop\n        /* \"#utility.yul\":14501:14867   */\n      swap2\n      swap1\n      pop\n      jump\t// out\n        /* \"#utility.yul\":14873:15292   */\n    tag_98:\n        /* \"#utility.yul\":15039:15043   */\n      0x00\n        /* \"#utility.yul\":15077:15079   */\n      0x20\n        /* \"#utility.yul\":15066:15075   */\n      dup3\n        /* \"#utility.yul\":15062:15080   */\n      add\n        /* \"#utility.yul\":15054:15080   */\n      swap1\n      pop\n        /* \"#utility.yul\":15126:15135   */\n      dup2\n        /* \"#utility.yul\":15120:15124   */\n      dup2\n        /* \"#utility.yul\":15116:15136   */\n      sub\n        /* \"#utility.yul\":15112:15113   */\n      0x00\n        /* \"#utility.yul\":15101:15110   */\n      dup4\n        /* \"#utility.yul\":15097:15114   */\n      add\n        /* \"#utility.yul\":15090:15137   */\n      mstore\n        /* \"#utility.yul\":15154:15285   */\n      tag_394\n        /* \"#utility.yul\":15280:15284   */\n      dup2\n        /* \"#utility.yul\":15154:15285   */\n      tag_205\n      jump\t// in\n    tag_394:\n        /* \"#utility.yul\":15146:15285   */\n      swap1\n      pop\n        /* \"#utility.yul\":14873:15292   */\n      swap2\n      swap1\n      pop\n      jump\t// out\n        /* \"#utility.yul\":15298:15472   */\n    tag_206:\n        /* \"#utility.yul\":15438:15464   */\n      0x796f7520617265206e6f7420636f6e7472696275746f72730000000000000000\n        /* \"#utility.yul\":15434:15435   */\n      0x00\n        /* \"#utility.yul\":15426:15432   */\n      dup3\n        /* \"#utility.yul\":15422:15436   */\n      add\n        /* \"#utility.yul\":15415:15465   */\n      mstore\n        /* \"#utility.yul\":15298:15472   */\n      pop\n      jump\t// out\n        /* \"#utility.yul\":15478:15844   */\n    tag_207:\n        /* \"#utility.yul\":15620:15623   */\n      0x00\n        /* \"#utility.yul\":15641:15708   */\n      tag_397\n        /* \"#utility.yul\":15705:15707   */\n      0x18\n        /* \"#utility.yul\":15700:15703   */\n      dup4\n        /* \"#utility.yul\":15641:15708   */\n      tag_179\n      jump\t// in\n    tag_397:\n        /* \"#utility.yul\":15634:15708   */\n      swap2\n      pop\n        /* \"#utility.yul\":15717:15810   */\n      tag_398\n        /* \"#utility.yul\":15806:15809   */\n      dup3\n        /* \"#utility.yul\":15717:15810   */\n      tag_206\n      jump\t// in\n    tag_398:\n        /* \"#utility.yul\":15835:15837   */\n      0x20\n        /* \"#utility.yul\":15830:15833   */\n      dup3\n        /* \"#utility.yul\":15826:15838   */\n      add\n        /* \"#utility.yul\":15819:15838   */\n      swap1\n      pop\n        /* \"#utility.yul\":15478:15844   */\n      swap2\n      swap1\n      pop\n      jump\t// out\n        /* \"#utility.yul\":15850:16269   */\n    tag_101:\n        /* \"#utility.yul\":16016:16020   */\n      0x00\n        /* \"#utility.yul\":16054:16056   */\n      0x20\n        /* \"#utility.yul\":16043:16052   */\n      dup3\n        /* \"#utility.yul\":16039:16057   */\n      add\n        /* \"#utility.yul\":16031:16057   */\n      swap1\n      pop\n        /* \"#utility.yul\":16103:16112   */\n      dup2\n        /* \"#utility.yul\":16097:16101   */\n      dup2\n        /* \"#utility.yul\":16093:16113   */\n      sub\n        /* \"#utility.yul\":16089:16090   */\n      0x00\n        /* \"#utility.yul\":16078:16087   */\n      dup4\n        /* \"#utility.yul\":16074:16091   */\n      add\n        /* \"#utility.yul\":16067:16114   */\n      mstore\n        /* \"#utility.yul\":16131:16262   */\n      tag_400\n        /* \"#utility.yul\":16257:16261   */\n      dup2\n        /* \"#utility.yul\":16131:16262   */\n      tag_207\n      jump\t// in\n    tag_400:\n        /* \"#utility.yul\":16123:16262   */\n      swap1\n      pop\n        /* \"#utility.yul\":15850:16269   */\n      swap2\n      swap1\n      pop\n      jump\t// out\n        /* \"#utility.yul\":16275:16469   */\n    tag_105:\n        /* \"#utility.yul\":16315:16319   */\n      0x00\n        /* \"#utility.yul\":16335:16355   */\n      tag_402\n        /* \"#utility.yul\":16353:16354   */\n      dup3\n        /* \"#utility.yul\":16335:16355   */\n      tag_153\n      jump\t// in\n    tag_402:\n        /* \"#utility.yul\":16330:16355   */\n      swap2\n      pop\n        /* \"#utility.yul\":16369:16389   */\n      tag_403\n        /* \"#utility.yul\":16387:16388   */\n      dup4\n        /* \"#utility.yul\":16369:16389   */\n      tag_153\n      jump\t// in\n    tag_403:\n        /* \"#utility.yul\":16364:16389   */\n      swap3\n      pop\n        /* \"#utility.yul\":16413:16414   */\n      dup3\n        /* \"#utility.yul\":16410:16411   */\n      dup3\n        /* \"#utility.yul\":16406:16415   */\n      sub\n        /* \"#utility.yul\":16398:16415   */\n      swap1\n      pop\n        /* \"#utility.yul\":16437:16438   */\n      dup2\n        /* \"#utility.yul\":16431:16435   */\n      dup2\n        /* \"#utility.yul\":16428:16439   */\n      gt\n        /* \"#utility.yul\":16425:16462   */\n      iszero\n      tag_404\n      jumpi\n        /* \"#utility.yul\":16442:16460   */\n      tag_405\n      tag_187\n      jump\t// in\n    tag_405:\n        /* \"#utility.yul\":16425:16462   */\n    tag_404:\n        /* \"#utility.yul\":16275:16469   */\n      swap3\n      swap2\n      pop\n      pop\n      jump\t// out\n        /* \"#utility.yul\":16475:16656   */\n    tag_208:\n        /* \"#utility.yul\":16615:16648   */\n      0x796f75206d75737420706172746963697061746520666f7220766f74696e6700\n        /* \"#utility.yul\":16611:16612   */\n      0x00\n        /* \"#utility.yul\":16603:16609   */\n      dup3\n        /* \"#utility.yul\":16599:16613   */\n      add\n        /* \"#utility.yul\":16592:16649   */\n      mstore\n        /* \"#utility.yul\":16475:16656   */\n      pop\n      jump\t// out\n        /* \"#utility.yul\":16662:17028   */\n    tag_209:\n        /* \"#utility.yul\":16804:16807   */\n      0x00\n        /* \"#utility.yul\":16825:16892   */\n      tag_408\n        /* \"#utility.yul\":16889:16891   */\n      0x1f\n        /* \"#utility.yul\":16884:16887   */\n      dup4\n        /* \"#utility.yul\":16825:16892   */\n      tag_179\n      jump\t// in\n    tag_408:\n        /* \"#utility.yul\":16818:16892   */\n      swap2\n      pop\n        /* \"#utility.yul\":16901:16994   */\n      tag_409\n        /* \"#utility.yul\":16990:16993   */\n      dup3\n        /* \"#utility.yul\":16901:16994   */\n      tag_208\n      jump\t// in\n    tag_409:\n        /* \"#utility.yul\":17019:17021   */\n      0x20\n        /* \"#utility.yul\":17014:17017   */\n      dup3\n        /* \"#utility.yul\":17010:17022   */\n      add\n        /* \"#utility.yul\":17003:17022   */\n      swap1\n      pop\n        /* \"#utility.yul\":16662:17028   */\n      swap2\n      swap1\n      pop\n      jump\t// out\n        /* \"#utility.yul\":17034:17453   */\n    tag_116:\n        /* \"#utility.yul\":17200:17204   */\n      0x00\n        /* \"#utility.yul\":17238:17240   */\n      0x20\n        /* \"#utility.yul\":17227:17236   */\n      dup3\n        /* \"#utility.yul\":17223:17241   */\n      add\n        /* \"#utility.yul\":17215:17241   */\n      swap1\n      pop\n        /* \"#utility.yul\":17287:17296   */\n      dup2\n        /* \"#utility.yul\":17281:17285   */\n      dup2\n        /* \"#utility.yul\":17277:17297   */\n      sub\n        /* \"#utility.yul\":17273:17274   */\n      0x00\n        /* \"#utility.yul\":17262:17271   */\n      dup4\n        /* \"#utility.yul\":17258:17275   */\n      add\n        /* \"#utility.yul\":17251:17298   */\n      mstore\n        /* \"#utility.yul\":17315:17446   */\n      tag_411\n        /* \"#utility.yul\":17441:17445   */\n      dup2\n        /* \"#utility.yul\":17315:17446   */\n      tag_209\n      jump\t// in\n    tag_411:\n        /* \"#utility.yul\":17307:17446   */\n      swap1\n      pop\n        /* \"#utility.yul\":17034:17453   */\n      swap2\n      swap1\n      pop\n      jump\t// out\n        /* \"#utility.yul\":17459:17631   */\n    tag_210:\n        /* \"#utility.yul\":17599:17623   */\n      0x796f75206861766520616c726561647920766f74656400000000000000000000\n        /* \"#utility.yul\":17595:17596   */\n      0x00\n        /* \"#utility.yul\":17587:17593   */\n      dup3\n        /* \"#utility.yul\":17583:17597   */\n      add\n        /* \"#utility.yul\":17576:17624   */\n      mstore\n        /* \"#utility.yul\":17459:17631   */\n      pop\n      jump\t// out\n        /* \"#utility.yul\":17637:18003   */\n    tag_211:\n        /* \"#utility.yul\":17779:17782   */\n      0x00\n        /* \"#utility.yul\":17800:17867   */\n      tag_414\n        /* \"#utility.yul\":17864:17866   */\n      0x16\n        /* \"#utility.yul\":17859:17862   */\n      dup4\n        /* \"#utility.yul\":17800:17867   */\n      tag_179\n      jump\t// in\n    tag_414:\n        /* \"#utility.yul\":17793:17867   */\n      swap2\n      pop\n        /* \"#utility.yul\":17876:17969   */\n      tag_415\n        /* \"#utility.yul\":17965:17968   */\n      dup3\n        /* \"#utility.yul\":17876:17969   */\n      tag_210\n      jump\t// in\n    tag_415:\n        /* \"#utility.yul\":17994:17996   */\n      0x20\n        /* \"#utility.yul\":17989:17992   */\n      dup3\n        /* \"#utility.yul\":17985:17997   */\n      add\n        /* \"#utility.yul\":17978:17997   */\n      swap1\n      pop\n        /* \"#utility.yul\":17637:18003   */\n      swap2\n      swap1\n      pop\n      jump\t// out\n        /* \"#utility.yul\":18009:18428   */\n    tag_120:\n        /* \"#utility.yul\":18175:18179   */\n      0x00\n        /* \"#utility.yul\":18213:18215   */\n      0x20\n        /* \"#utility.yul\":18202:18211   */\n      dup3\n        /* \"#utility.yul\":18198:18216   */\n      add\n        /* \"#utility.yul\":18190:18216   */\n      swap1\n      pop\n        /* \"#utility.yul\":18262:18271   */\n      dup2\n        /* \"#utility.yul\":18256:18260   */\n      dup2\n        /* \"#utility.yul\":18252:18272   */\n      sub\n        /* \"#utility.yul\":18248:18249   */\n      0x00\n        /* \"#utility.yul\":18237:18246   */\n      dup4\n        /* \"#utility.yul\":18233:18250   */\n      add\n        /* \"#utility.yul\":18226:18273   */\n      mstore\n        /* \"#utility.yul\":18290:18421   */\n      tag_417\n        /* \"#utility.yul\":18416:18420   */\n      dup2\n        /* \"#utility.yul\":18290:18421   */\n      tag_211\n      jump\t// in\n    tag_417:\n        /* \"#utility.yul\":18282:18421   */\n      swap1\n      pop\n        /* \"#utility.yul\":18009:18428   */\n      swap2\n      swap1\n      pop\n      jump\t// out\n        /* \"#utility.yul\":18434:18603   */\n    tag_212:\n        /* \"#utility.yul\":18574:18595   */\n      0x646561646c696e65206861732070617373656400000000000000000000000000\n        /* \"#utility.yul\":18570:18571   */\n      0x00\n        /* \"#utility.yul\":18562:18568   */\n      dup3\n        /* \"#utility.yul\":18558:18572   */\n      add\n        /* \"#utility.yul\":18551:18596   */\n      mstore\n        /* \"#utility.yul\":18434:18603   */\n      pop\n      jump\t// out\n        /* \"#utility.yul\":18609:18975   */\n    tag_213:\n        /* \"#utility.yul\":18751:18754   */\n      0x00\n        /* \"#utility.yul\":18772:18839   */\n      tag_420\n        /* \"#utility.yul\":18836:18838   */\n      0x13\n        /* \"#utility.yul\":18831:18834   */\n      dup4\n        /* \"#utility.yul\":18772:18839   */\n      tag_179\n      jump\t// in\n    tag_420:\n        /* \"#utility.yul\":18765:18839   */\n      swap2\n      pop\n        /* \"#utility.yul\":18848:18941   */\n      tag_421\n        /* \"#utility.yul\":18937:18940   */\n      dup3\n        /* \"#utility.yul\":18848:18941   */\n      tag_212\n      jump\t// in\n    tag_421:\n        /* \"#utility.yul\":18966:18968   */\n      0x20\n        /* \"#utility.yul\":18961:18964   */\n      dup3\n        /* \"#utility.yul\":18957:18969   */\n      add\n        /* \"#utility.yul\":18950:18969   */\n      swap1\n      pop\n        /* \"#utility.yul\":18609:18975   */\n      swap2\n      swap1\n      pop\n      jump\t// out\n        /* \"#utility.yul\":18981:19400   */\n    tag_125:\n        /* \"#utility.yul\":19147:19151   */\n      0x00\n        /* \"#utility.yul\":19185:19187   */\n      0x20\n        /* \"#utility.yul\":19174:19183   */\n      dup3\n        /* \"#utility.yul\":19170:19188   */\n      add\n        /* \"#utility.yul\":19162:19188   */\n      swap1\n      pop\n        /* \"#utility.yul\":19234:19243   */\n      dup2\n        /* \"#utility.yul\":19228:19232   */\n      dup2\n        /* \"#utility.yul\":19224:19244   */\n      sub\n        /* \"#utility.yul\":19220:19221   */\n      0x00\n        /* \"#utility.yul\":19209:19218   */\n      dup4\n        /* \"#utility.yul\":19205:19222   */\n      add\n        /* \"#utility.yul\":19198:19245   */\n      mstore\n        /* \"#utility.yul\":19262:19393   */\n      tag_423\n        /* \"#utility.yul\":19388:19392   */\n      dup2\n        /* \"#utility.yul\":19262:19393   */\n      tag_213\n      jump\t// in\n    tag_423:\n        /* \"#utility.yul\":19254:19393   */\n      swap1\n      pop\n        /* \"#utility.yul\":18981:19400   */\n      swap2\n      swap1\n      pop\n      jump\t// out\n        /* \"#utility.yul\":19406:19629   */\n    tag_214:\n        /* \"#utility.yul\":19546:19580   */\n      0x796f75206e65656420746f20616464206d696e696d756d20636f6e7472696275\n        /* \"#utility.yul\":19542:19543   */\n      0x00\n        /* \"#utility.yul\":19534:19540   */\n      dup3\n        /* \"#utility.yul\":19530:19544   */\n      add\n        /* \"#utility.yul\":19523:19581   */\n      mstore\n        /* \"#utility.yul\":19615:19621   */\n      0x74696f6e00000000000000000000000000000000000000000000000000000000\n        /* \"#utility.yul\":19610:19612   */\n      0x20\n        /* \"#utility.yul\":19602:19608   */\n      dup3\n        /* \"#utility.yul\":19598:19613   */\n      add\n        /* \"#utility.yul\":19591:19622   */\n      mstore\n        /* \"#utility.yul\":19406:19629   */\n      pop\n      jump\t// out\n        /* \"#utility.yul\":19635:20001   */\n    tag_215:\n        /* \"#utility.yul\":19777:19780   */\n      0x00\n        /* \"#utility.yul\":19798:19865   */\n      tag_426\n        /* \"#utility.yul\":19862:19864   */\n      0x24\n        /* \"#utility.yul\":19857:19860   */\n      dup4\n        /* \"#utility.yul\":19798:19865   */\n      tag_179\n      jump\t// in\n    tag_426:\n        /* \"#utility.yul\":19791:19865   */\n      swap2\n      pop\n        /* \"#utility.yul\":19874:19967   */\n      tag_427\n        /* \"#utility.yul\":19963:19966   */\n      dup3\n        /* \"#utility.yul\":19874:19967   */\n      tag_214\n      jump\t// in\n    tag_427:\n        /* \"#utility.yul\":19992:19994   */\n      0x40\n        /* \"#utility.yul\":19987:19990   */\n      dup3\n        /* \"#utility.yul\":19983:19995   */\n      add\n        /* \"#utility.yul\":19976:19995   */\n      swap1\n      pop\n        /* \"#utility.yul\":19635:20001   */\n      swap2\n      swap1\n      pop\n      jump\t// out\n        /* \"#utility.yul\":20007:20426   */\n    tag_128:\n        /* \"#utility.yul\":20173:20177   */\n      0x00\n        /* \"#utility.yul\":20211:20213   */\n      0x20\n        /* \"#utility.yul\":20200:20209   */\n      dup3\n        /* \"#utility.yul\":20196:20214   */\n      add\n        /* \"#utility.yul\":20188:20214   */\n      swap1\n      pop\n        /* \"#utility.yul\":20260:20269   */\n      dup2\n        /* \"#utility.yul\":20254:20258   */\n      dup2\n        /* \"#utility.yul\":20250:20270   */\n      sub\n        /* \"#utility.yul\":20246:20247   */\n      0x00\n        /* \"#utility.yul\":20235:20244   */\n      dup4\n        /* \"#utility.yul\":20231:20248   */\n      add\n        /* \"#utility.yul\":20224:20271   */\n      mstore\n        /* \"#utility.yul\":20288:20419   */\n      tag_429\n        /* \"#utility.yul\":20414:20418   */\n      dup2\n        /* \"#utility.yul\":20288:20419   */\n      tag_215\n      jump\t// in\n    tag_429:\n        /* \"#utility.yul\":20280:20419   */\n      swap1\n      pop\n        /* \"#utility.yul\":20007:20426   */\n      swap2\n      swap1\n      pop\n      jump\t// out\n        /* \"#utility.yul\":20432:20623   */\n    tag_132:\n        /* \"#utility.yul\":20472:20475   */\n      0x00\n        /* \"#utility.yul\":20491:20511   */\n      tag_431\n        /* \"#utility.yul\":20509:20510   */\n      dup3\n        /* \"#utility.yul\":20491:20511   */\n      tag_153\n      jump\t// in\n    tag_431:\n        /* \"#utility.yul\":20486:20511   */\n      swap2\n      pop\n        /* \"#utility.yul\":20525:20545   */\n      tag_432\n        /* \"#utility.yul\":20543:20544   */\n      dup4\n        /* \"#utility.yul\":20525:20545   */\n      tag_153\n      jump\t// in\n    tag_432:\n        /* \"#utility.yul\":20520:20545   */\n      swap3\n      pop\n        /* \"#utility.yul\":20568:20569   */\n      dup3\n        /* \"#utility.yul\":20565:20566   */\n      dup3\n        /* \"#utility.yul\":20561:20570   */\n      add\n        /* \"#utility.yul\":20554:20570   */\n      swap1\n      pop\n        /* \"#utility.yul\":20589:20592   */\n      dup1\n        /* \"#utility.yul\":20586:20587   */\n      dup3\n        /* \"#utility.yul\":20583:20593   */\n      gt\n        /* \"#utility.yul\":20580:20616   */\n      iszero\n      tag_433\n      jumpi\n        /* \"#utility.yul\":20596:20614   */\n      tag_434\n      tag_187\n      jump\t// in\n    tag_434:\n        /* \"#utility.yul\":20580:20616   */\n    tag_433:\n        /* \"#utility.yul\":20432:20623   */\n      swap3\n      swap2\n      pop\n      pop\n      jump\t// out\n        /* \"#utility.yul\":20629:20856   */\n    tag_216:\n        /* \"#utility.yul\":20769:20803   */\n      0x7761697420666f722074696d6520656e64206f7220746172676574206e6f7420\n        /* \"#utility.yul\":20765:20766   */\n      0x00\n        /* \"#utility.yul\":20757:20763   */\n      dup3\n        /* \"#utility.yul\":20753:20767   */\n      add\n        /* \"#utility.yul\":20746:20804   */\n      mstore\n        /* \"#utility.yul\":20838:20848   */\n      0x726561636865642e000000000000000000000000000000000000000000000000\n        /* \"#utility.yul\":20833:20835   */\n      0x20\n        /* \"#utility.yul\":20825:20831   */\n      dup3\n        /* \"#utility.yul\":20821:20836   */\n      add\n        /* \"#utility.yul\":20814:20849   */\n      mstore\n        /* \"#utility.yul\":20629:20856   */\n      pop\n      jump\t// out\n        /* \"#utility.yul\":20862:21228   */\n    tag_217:\n        /* \"#utility.yul\":21004:21007   */\n      0x00\n        /* \"#utility.yul\":21025:21092   */\n      tag_437\n        /* \"#utility.yul\":21089:21091   */\n      0x28\n        /* \"#utility.yul\":21084:21087   */\n      dup4\n        /* \"#utility.yul\":21025:21092   */\n      tag_179\n      jump\t// in\n    tag_437:\n        /* \"#utility.yul\":21018:21092   */\n      swap2\n      pop\n        /* \"#utility.yul\":21101:21194   */\n      tag_438\n        /* \"#utility.yul\":21190:21193   */\n      dup3\n        /* \"#utility.yul\":21101:21194   */\n      tag_216\n      jump\t// in\n    tag_438:\n        /* \"#utility.yul\":21219:21221   */\n      0x40\n        /* \"#utility.yul\":21214:21217   */\n      dup3\n        /* \"#utility.yul\":21210:21222   */\n      add\n        /* \"#utility.yul\":21203:21222   */\n      swap1\n      pop\n        /* \"#utility.yul\":20862:21228   */\n      swap2\n      swap1\n      pop\n      jump\t// out\n        /* \"#utility.yul\":21234:21653   */\n    tag_141:\n        /* \"#utility.yul\":21400:21404   */\n      0x00\n        /* \"#utility.yul\":21438:21440   */\n      0x20\n        /* \"#utility.yul\":21427:21436   */\n      dup3\n        /* \"#utility.yul\":21423:21441   */\n      add\n        /* \"#utility.yul\":21415:21441   */\n      swap1\n      pop\n        /* \"#utility.yul\":21487:21496   */\n      dup2\n        /* \"#utility.yul\":21481:21485   */\n      dup2\n        /* \"#utility.yul\":21477:21497   */\n      sub\n        /* \"#utility.yul\":21473:21474   */\n      0x00\n        /* \"#utility.yul\":21462:21471   */\n      dup4\n        /* \"#utility.yul\":21458:21475   */\n      add\n        /* \"#utility.yul\":21451:21498   */\n      mstore\n        /* \"#utility.yul\":21515:21646   */\n      tag_440\n        /* \"#utility.yul\":21641:21645   */\n      dup2\n        /* \"#utility.yul\":21515:21646   */\n      tag_217\n      jump\t// in\n    tag_440:\n        /* \"#utility.yul\":21507:21646   */\n      swap1\n      pop\n        /* \"#utility.yul\":21234:21653   */\n      swap2\n      swap1\n      pop\n      jump\t// out\n        /* \"#utility.yul\":21659:21826   */\n    tag_218:\n        /* \"#utility.yul\":21799:21818   */\n      0x616c726561647920636f6d706c65746564000000000000000000000000000000\n        /* \"#utility.yul\":21795:21796   */\n      0x00\n        /* \"#utility.yul\":21787:21793   */\n      dup3\n        /* \"#utility.yul\":21783:21797   */\n      add\n        /* \"#utility.yul\":21776:21819   */\n      mstore\n        /* \"#utility.yul\":21659:21826   */\n      pop\n      jump\t// out\n        /* \"#utility.yul\":21832:22198   */\n    tag_219:\n        /* \"#utility.yul\":21974:21977   */\n      0x00\n        /* \"#utility.yul\":21995:22062   */\n      tag_443\n        /* \"#utility.yul\":22059:22061   */\n      0x11\n        /* \"#utility.yul\":22054:22057   */\n      dup4\n        /* \"#utility.yul\":21995:22062   */\n      tag_179\n      jump\t// in\n    tag_443:\n        /* \"#utility.yul\":21988:22062   */\n      swap2\n      pop\n        /* \"#utility.yul\":22071:22164   */\n      tag_444\n        /* \"#utility.yul\":22160:22163   */\n      dup3\n        /* \"#utility.yul\":22071:22164   */\n      tag_218\n      jump\t// in\n    tag_444:\n        /* \"#utility.yul\":22189:22191   */\n      0x20\n        /* \"#utility.yul\":22184:22187   */\n      dup3\n        /* \"#utility.yul\":22180:22192   */\n      add\n        /* \"#utility.yul\":22173:22192   */\n      swap1\n      pop\n        /* \"#utility.yul\":21832:22198   */\n      swap2\n      swap1\n      pop\n      jump\t// out\n        /* \"#utility.yul\":22204:22623   */\n    tag_144:\n        /* \"#utility.yul\":22370:22374   */\n      0x00\n        /* \"#utility.yul\":22408:22410   */\n      0x20\n        /* \"#utility.yul\":22397:22406   */\n      dup3\n        /* \"#utility.yul\":22393:22411   */\n      add\n        /* \"#utility.yul\":22385:22411   */\n      swap1\n      pop\n        /* \"#utility.yul\":22457:22466   */\n      dup2\n        /* \"#utility.yul\":22451:22455   */\n      dup2\n        /* \"#utility.yul\":22447:22467   */\n      sub\n        /* \"#utility.yul\":22443:22444   */\n      0x00\n        /* \"#utility.yul\":22432:22441   */\n      dup4\n        /* \"#utility.yul\":22428:22445   */\n      add\n        /* \"#utility.yul\":22421:22468   */\n      mstore\n        /* \"#utility.yul\":22485:22616   */\n      tag_446\n        /* \"#utility.yul\":22611:22615   */\n      dup2\n        /* \"#utility.yul\":22485:22616   */\n      tag_219\n      jump\t// in\n    tag_446:\n        /* \"#utility.yul\":22477:22616   */\n      swap1\n      pop\n        /* \"#utility.yul\":22204:22623   */\n      swap2\n      swap1\n      pop\n      jump\t// out\n        /* \"#utility.yul\":22629:22809   */\n    tag_220:\n        /* \"#utility.yul\":22677:22754   */\n      0x4e487b7100000000000000000000000000000000000000000000000000000000\n        /* \"#utility.yul\":22674:22675   */\n      0x00\n        /* \"#utility.yul\":22667:22755   */\n      mstore\n        /* \"#utility.yul\":22774:22778   */\n      0x12\n        /* \"#utility.yul\":22771:22772   */\n      0x04\n        /* \"#utility.yul\":22764:22779   */\n      mstore\n        /* \"#utility.yul\":22798:22802   */\n      0x24\n        /* \"#utility.yul\":22795:22796   */\n      0x00\n        /* \"#utility.yul\":22788:22803   */\n      revert\n        /* \"#utility.yul\":22815:23000   */\n    tag_146:\n        /* \"#utility.yul\":22855:22856   */\n      0x00\n        /* \"#utility.yul\":22872:22892   */\n      tag_449\n        /* \"#utility.yul\":22890:22891   */\n      dup3\n        /* \"#utility.yul\":22872:22892   */\n      tag_153\n      jump\t// in\n    tag_449:\n        /* \"#utility.yul\":22867:22892   */\n      swap2\n      pop\n        /* \"#utility.yul\":22906:22926   */\n      tag_450\n        /* \"#utility.yul\":22924:22925   */\n      dup4\n        /* \"#utility.yul\":22906:22926   */\n      tag_153\n      jump\t// in\n    tag_450:\n        /* \"#utility.yul\":22901:22926   */\n      swap3\n      pop\n        /* \"#utility.yul\":22945:22946   */\n      dup3\n        /* \"#utility.yul\":22935:22970   */\n      tag_451\n      jumpi\n        /* \"#utility.yul\":22950:22968   */\n      tag_452\n      tag_220\n      jump\t// in\n    tag_452:\n        /* \"#utility.yul\":22935:22970   */\n    tag_451:\n        /* \"#utility.yul\":22992:22993   */\n      dup3\n        /* \"#utility.yul\":22989:22990   */\n      dup3\n        /* \"#utility.yul\":22985:22994   */\n      div\n        /* \"#utility.yul\":22980:22994   */\n      swap1\n      pop\n        /* \"#utility.yul\":22815:23000   */\n      swap3\n      swap2\n      pop\n      pop\n      jump\t// out\n        /* \"#utility.yul\":23006:23242   */\n    tag_221:\n        /* \"#utility.yul\":23146:23180   */\n      0x6d616a6f72697479206e6f74206d65657473206d6f72652074686e2035302520\n        /* \"#utility.yul\":23142:23143   */\n      0x00\n        /* \"#utility.yul\":23134:23140   */\n      dup3\n        /* \"#utility.yul\":23130:23144   */\n      add\n        /* \"#utility.yul\":23123:23181   */\n      mstore\n        /* \"#utility.yul\":23215:23234   */\n      0x766f7465206e6f7420666f722074686973000000000000000000000000000000\n        /* \"#utility.yul\":23210:23212   */\n      0x20\n        /* \"#utility.yul\":23202:23208   */\n      dup3\n        /* \"#utility.yul\":23198:23213   */\n      add\n        /* \"#utility.yul\":23191:23235   */\n      mstore\n        /* \"#utility.yul\":23006:23242   */\n      pop\n      jump\t// out\n        /* \"#utility.yul\":23248:23614   */\n    tag_222:\n        /* \"#utility.yul\":23390:23393   */\n      0x00\n        /* \"#utility.yul\":23411:23478   */\n      tag_455\n        /* \"#utility.yul\":23475:23477   */\n      0x31\n        /* \"#utility.yul\":23470:23473   */\n      dup4\n        /* \"#utility.yul\":23411:23478   */\n      tag_179\n      jump\t// in\n    tag_455:\n        /* \"#utility.yul\":23404:23478   */\n      swap2\n      pop\n        /* \"#utility.yul\":23487:23580   */\n      tag_456\n        /* \"#utility.yul\":23576:23579   */\n      dup3\n        /* \"#utility.yul\":23487:23580   */\n      tag_221\n      jump\t// in\n    tag_456:\n        /* \"#utility.yul\":23605:23607   */\n      0x40\n        /* \"#utility.yul\":23600:23603   */\n      dup3\n        /* \"#utility.yul\":23596:23608   */\n      add\n        /* \"#utility.yul\":23589:23608   */\n      swap1\n      pop\n        /* \"#utility.yul\":23248:23614   */\n      swap2\n      swap1\n      pop\n      jump\t// out\n        /* \"#utility.yul\":23620:24039   */\n    tag_149:\n        /* \"#utility.yul\":23786:23790   */\n      0x00\n        /* \"#utility.yul\":23824:23826   */\n      0x20\n        /* \"#utility.yul\":23813:23822   */\n      dup3\n        /* \"#utility.yul\":23809:23827   */\n      add\n        /* \"#utility.yul\":23801:23827   */\n      swap1\n      pop\n        /* \"#utility.yul\":23873:23882   */\n      dup2\n        /* \"#utility.yul\":23867:23871   */\n      dup2\n        /* \"#utility.yul\":23863:23883   */\n      sub\n        /* \"#utility.yul\":23859:23860   */\n      0x00\n        /* \"#utility.yul\":23848:23857   */\n      dup4\n        /* \"#utility.yul\":23844:23861   */\n      add\n        /* \"#utility.yul\":23837:23884   */\n      mstore\n        /* \"#utility.yul\":23901:24032   */\n      tag_458\n        /* \"#utility.yul\":24027:24031   */\n      dup2\n        /* \"#utility.yul\":23901:24032   */\n      tag_222\n      jump\t// in\n    tag_458:\n        /* \"#utility.yul\":23893:24032   */\n      swap1\n      pop\n        /* \"#utility.yul\":23620:24039   */\n      swap2\n      swap1\n      pop\n      jump\t// out\n\n    auxdata: 0xa264697066735822122093a4e3468d36b54275203ddd6e3a3a6032ccb7767626f3775f708ff3d46794a664736f6c63430008120033\n}\n",
				"bytecode": {
					"linkReferences": {},
					"object": "60806040523480156200001157600080fd5b5060405162001c4838038062001c488339818101604052810190620000379190620000e3565b8160048190555080426200004c919062000159565b600381905550606460028190555033600160006101000a81548173ffffffffffffffffffffffffffffffffffffffff021916908373ffffffffffffffffffffffffffffffffffffffff160217905550505062000194565b600080fd5b6000819050919050565b620000bd81620000a8565b8114620000c957600080fd5b50565b600081519050620000dd81620000b2565b92915050565b60008060408385031215620000fd57620000fc620000a3565b5b60006200010d85828601620000cc565b92505060206200012085828601620000cc565b9150509250929050565b7f4e487b7100000000000000000000000000000000000000000000000000000000600052601160045260246000fd5b60006200016682620000a8565b91506200017383620000a8565b92508282019050808211156200018e576200018d6200012a565b5b92915050565b611aa480620001a46000396000f3fe6080604052600436106100e85760003560e01c806381d12c581161008a578063a8622ffe11610059578063a8622ffe146102b5578063cbaf8671146102e0578063d4b8399214610309578063f28bf14614610334576100e8565b806381d12c58146102165780638323879814610257578063967c67ce146102825780639e791d8b146102ab576100e8565b80633b644d18116100c65780633b644d18146101805780633eb7647b146101ab578063481c6a75146101d4578063590e1ae3146101ff576100e8565b80630ae0ad71146100ed5780631f6d49421461011857806329dcb0cf14610155575b600080fd5b3480156100f957600080fd5b5061010261035f565b60405161010f9190610d74565b60405180910390f35b34801561012457600080fd5b5061013f600480360381019061013a9190610e01565b610365565b60405161014c9190610d74565b60405180910390f35b34801561016157600080fd5b5061016a61037d565b6040516101779190610d74565b60405180910390f35b34801561018c57600080fd5b50610195610383565b6040516101a29190610d74565b60405180910390f35b3480156101b757600080fd5b506101d260048036038101906101cd9190610fde565b610389565b005b3480156101e057600080fd5b506101e96104d5565b6040516101f6919061105c565b60405180910390f35b34801561020b57600080fd5b506102146104fb565b005b34801561022257600080fd5b5061023d60048036038101906102389190611077565b610712565b60405161024e95949392919061114d565b60405180910390f35b34801561026357600080fd5b5061026c6107fd565b6040516102799190610d74565b60405180910390f35b34801561028e57600080fd5b506102a960048036038101906102a49190611077565b610803565b005b6102b36109b6565b005b3480156102c157600080fd5b506102ca610b0e565b6040516102d79190610d74565b60405180910390f35b3480156102ec57600080fd5b5061030760048036038101906103029190611077565b610b14565b005b34801561031557600080fd5b5061031e610d4d565b60405161032b9190610d74565b60405180910390f35b34801561034057600080fd5b50610349610d53565b6040516103569190610d74565b60405180910390f35b60085481565b60006020528060005260406000206000915090505481565b60035481565b60055481565b600160009054906101000a900473ffffffffffffffffffffffffffffffffffffffff1673ffffffffffffffffffffffffffffffffffffffff163373ffffffffffffffffffffffffffffffffffffffff1614610419576040517f08c379a0000000000000000000000000000000000000000000000000000000008152600401610410906111f3565b60405180910390fd5b600060076000600854815260200190815260200160002090506008600081548092919061044590611242565b91905055508381600001908161045b9190611496565b50828160010160006101000a81548173ffffffffffffffffffffffffffffffffffffffff021916908373ffffffffffffffffffffffffffffffffffffffff16021790555081816002018190555060008160030160006101000a81548160ff0219169083151502179055506000816004018190555050505050565b600160009054906101000a900473ffffffffffffffffffffffffffffffffffffffff1681565b6003544211801561050f5750600454600554105b61054e576040517f08c379a0000000000000000000000000000000000000000000000000000000008152600401610545906115b4565b60405180910390fd5b60646000803373ffffffffffffffffffffffffffffffffffffffff1673ffffffffffffffffffffffffffffffffffffffff1681526020019081526020016000205410156105d0576040517f08c379a00000000000000000000000000000000000000000000000000000000081526004016105c790611620565b60405180910390fd5b60003390508073ffffffffffffffffffffffffffffffffffffffff166108fc6000803373ffffffffffffffffffffffffffffffffffffffff1673ffffffffffffffffffffffffffffffffffffffff168152602001908152602001600020549081150290604051600060405180830381858888f19350505050158015610659573d6000803e3d6000fd5b506000803373ffffffffffffffffffffffffffffffffffffffff1673ffffffffffffffffffffffffffffffffffffffff16815260200190815260200160002054600560008282546106aa9190611640565b925050819055506001600660008282546106c49190611640565b9250508190555060008060003373ffffffffffffffffffffffffffffffffffffffff1673ffffffffffffffffffffffffffffffffffffffff1681526020019081526020016000208190555050565b6007602052806000526040600020600091509050806000018054610735906112b9565b80601f0160208091040260200160405190810160405280929190818152602001828054610761906112b9565b80156107ae5780601f10610783576101008083540402835291602001916107ae565b820191906000526020600020905b81548152906001019060200180831161079157829003601f168201915b5050505050908060010160009054906101000a900473ffffffffffffffffffffffffffffffffffffffff16908060020154908060030160009054906101000a900460ff16908060040154905085565b60065481565b60008060003373ffffffffffffffffffffffffffffffffffffffff1673ffffffffffffffffffffffffffffffffffffffff1681526020019081526020016000205411610884576040517f08c379a000000000000000000000000000000000000000000000000000000000815260040161087b906116c0565b60405180910390fd5b600854811061089257600080fd5b6000600760008381526020019081526020016000209050600015158160050160003373ffffffffffffffffffffffffffffffffffffffff1673ffffffffffffffffffffffffffffffffffffffff16815260200190815260200160002060009054906101000a900460ff1615151461093e576040517f08c379a00000000000000000000000000000000000000000000000000000000081526004016109359061172c565b60405180910390fd5b60018160050160003373ffffffffffffffffffffffffffffffffffffffff1673ffffffffffffffffffffffffffffffffffffffff16815260200190815260200160002060006101000a81548160ff0219169083151502179055508060040160008154809291906109ad90611242565b91905055505050565b60035442106109fa576040517f08c379a00000000000000000000000000000000000000000000000000000000081526004016109f190611798565b60405180910390fd5b600254341015610a3f576040517f08c379a0000000000000000000000000000000000000000000000000000000008152600401610a369061182a565b60405180910390fd5b60008060003373ffffffffffffffffffffffffffffffffffffffff1673ffffffffffffffffffffffffffffffffffffffff1681526020019081526020016000205403610a9e5760066000815480929190610a9890611242565b91905055505b346000803373ffffffffffffffffffffffffffffffffffffffff1673ffffffffffffffffffffffffffffffffffffffff1681526020019081526020016000206000828254610aec919061184a565b925050819055503460056000828254610b05919061184a565b92505081905550565b60025481565b600160009054906101000a900473ffffffffffffffffffffffffffffffffffffffff1673ffffffffffffffffffffffffffffffffffffffff163373ffffffffffffffffffffffffffffffffffffffff1614610ba4576040517f08c379a0000000000000000000000000000000000000000000000000000000008152600401610b9b906111f3565b60405180910390fd5b6003544210158015610bba575060045460055410155b610bf9576040517f08c379a0000000000000000000000000000000000000000000000000000000008152600401610bf0906118f0565b60405180910390fd5b6000600760008381526020019081526020016000209050600015158160030160009054906101000a900460ff16151514610c68576040517f08c379a0000000000000000000000000000000000000000000000000000000008152600401610c5f9061195c565b60405180910390fd5b6002600654610c7791906119ab565b81600401541015610cbd576040517f08c379a0000000000000000000000000000000000000000000000000000000008152600401610cb490611a4e565b60405180910390fd5b8060010160009054906101000a900473ffffffffffffffffffffffffffffffffffffffff1673ffffffffffffffffffffffffffffffffffffffff166108fc82600201549081150290604051600060405180830381858888f19350505050158015610d2b573d6000803e3d6000fd5b5060018160030160006101000a81548160ff0219169083151502179055505050565b60045481565b600047905090565b6000819050919050565b610d6e81610d5b565b82525050565b6000602082019050610d896000830184610d65565b92915050565b6000604051905090565b600080fd5b600080fd5b600073ffffffffffffffffffffffffffffffffffffffff82169050919050565b6000610dce82610da3565b9050919050565b610dde81610dc3565b8114610de957600080fd5b50565b600081359050610dfb81610dd5565b92915050565b600060208284031215610e1757610e16610d99565b5b6000610e2584828501610dec565b91505092915050565b600080fd5b600080fd5b6000601f19601f8301169050919050565b7f4e487b7100000000000000000000000000000000000000000000000000000000600052604160045260246000fd5b610e8182610e38565b810181811067ffffffffffffffff82111715610ea057610e9f610e49565b5b80604052505050565b6000610eb3610d8f565b9050610ebf8282610e78565b919050565b600067ffffffffffffffff821115610edf57610ede610e49565b5b610ee882610e38565b9050602081019050919050565b82818337600083830152505050565b6000610f17610f1284610ec4565b610ea9565b905082815260208101848484011115610f3357610f32610e33565b5b610f3e848285610ef5565b509392505050565b600082601f830112610f5b57610f5a610e2e565b5b8135610f6b848260208601610f04565b91505092915050565b6000610f7f82610da3565b9050919050565b610f8f81610f74565b8114610f9a57600080fd5b50565b600081359050610fac81610f86565b92915050565b610fbb81610d5b565b8114610fc657600080fd5b50565b600081359050610fd881610fb2565b92915050565b600080600060608486031215610ff757610ff6610d99565b5b600084013567ffffffffffffffff81111561101557611014610d9e565b5b61102186828701610f46565b935050602061103286828701610f9d565b925050604061104386828701610fc9565b9150509250925092565b61105681610dc3565b82525050565b6000602082019050611071600083018461104d565b92915050565b60006020828403121561108d5761108c610d99565b5b600061109b84828501610fc9565b91505092915050565b600081519050919050565b600082825260208201905092915050565b60005b838110156110de5780820151818401526020810190506110c3565b60008484015250505050565b60006110f5826110a4565b6110ff81856110af565b935061110f8185602086016110c0565b61111881610e38565b840191505092915050565b61112c81610f74565b82525050565b60008115159050919050565b61114781611132565b82525050565b600060a082019050818103600083015261116781886110ea565b90506111766020830187611123565b6111836040830186610d65565b611190606083018561113e565b61119d6080830184610d65565b9695505050505050565b7f6f6e6c79206d616e616765722063616e2063616c6c0000000000000000000000600082015250565b60006111dd6015836110af565b91506111e8826111a7565b602082019050919050565b6000602082019050818103600083015261120c816111d0565b9050919050565b7f4e487b7100000000000000000000000000000000000000000000000000000000600052601160045260246000fd5b600061124d82610d5b565b91507fffffffffffffffffffffffffffffffffffffffffffffffffffffffffffffffff820361127f5761127e611213565b5b600182019050919050565b7f4e487b7100000000000000000000000000000000000000000000000000000000600052602260045260246000fd5b600060028204905060018216806112d157607f821691505b6020821081036112e4576112e361128a565b5b50919050565b60008190508160005260206000209050919050565b60006020601f8301049050919050565b600082821b905092915050565b60006008830261134c7fffffffffffffffffffffffffffffffffffffffffffffffffffffffffffffffff8261130f565b611356868361130f565b95508019841693508086168417925050509392505050565b6000819050919050565b600061139361138e61138984610d5b565b61136e565b610d5b565b9050919050565b6000819050919050565b6113ad83611378565b6113c16113b98261139a565b84845461131c565b825550505050565b600090565b6113d66113c9565b6113e18184846113a4565b505050565b5b81811015611405576113fa6000826113ce565b6001810190506113e7565b5050565b601f82111561144a5761141b816112ea565b611424846112ff565b81016020851015611433578190505b61144761143f856112ff565b8301826113e6565b50505b505050565b600082821c905092915050565b600061146d6000198460080261144f565b1980831691505092915050565b6000611486838361145c565b9150826002028217905092915050565b61149f826110a4565b67ffffffffffffffff8111156114b8576114b7610e49565b5b6114c282546112b9565b6114cd828285611409565b600060209050601f83116001811461150057600084156114ee578287015190505b6114f8858261147a565b865550611560565b601f19841661150e866112ea565b60005b8281101561153657848901518255600182019150602085019450602081019050611511565b86831015611553578489015161154f601f89168261145c565b8355505b6001600288020188555050505b505050505050565b7f796f7520617265206c6174650000000000000000000000000000000000000000600082015250565b600061159e600c836110af565b91506115a982611568565b602082019050919050565b600060208201905081810360008301526115cd81611591565b9050919050565b7f796f7520617265206e6f7420636f6e7472696275746f72730000000000000000600082015250565b600061160a6018836110af565b9150611615826115d4565b602082019050919050565b60006020820190508181036000830152611639816115fd565b9050919050565b600061164b82610d5b565b915061165683610d5b565b925082820390508181111561166e5761166d611213565b5b92915050565b7f796f75206d75737420706172746963697061746520666f7220766f74696e6700600082015250565b60006116aa601f836110af565b91506116b582611674565b602082019050919050565b600060208201905081810360008301526116d98161169d565b9050919050565b7f796f75206861766520616c726561647920766f74656400000000000000000000600082015250565b60006117166016836110af565b9150611721826116e0565b602082019050919050565b6000602082019050818103600083015261174581611709565b9050919050565b7f646561646c696e65206861732070617373656400000000000000000000000000600082015250565b60006117826013836110af565b915061178d8261174c565b602082019050919050565b600060208201905081810360008301526117b181611775565b9050919050565b7f796f75206e65656420746f20616464206d696e696d756d20636f6e747269627560008201527f74696f6e00000000000000000000000000000000000000000000000000000000602082015250565b60006118146024836110af565b915061181f826117b8565b604082019050919050565b6000602082019050818103600083015261184381611807565b9050919050565b600061185582610d5b565b915061186083610d5b565b925082820190508082111561187857611877611213565b5b92915050565b7f7761697420666f722074696d6520656e64206f7220746172676574206e6f742060008201527f726561636865642e000000000000000000000000000000000000000000000000602082015250565b60006118da6028836110af565b91506118e58261187e565b604082019050919050565b60006020820190508181036000830152611909816118cd565b9050919050565b7f616c726561647920636f6d706c65746564000000000000000000000000000000600082015250565b60006119466011836110af565b915061195182611910565b602082019050919050565b6000602082019050818103600083015261197581611939565b9050919050565b7f4e487b7100000000000000000000000000000000000000000000000000000000600052601260045260246000fd5b60006119b682610d5b565b91506119c183610d5b565b9250826119d1576119d061197c565b5b828204905092915050565b7f6d616a6f72697479206e6f74206d65657473206d6f72652074686e203530252060008201527f766f7465206e6f7420666f722074686973000000000000000000000000000000602082015250565b6000611a386031836110af565b9150611a43826119dc565b604082019050919050565b60006020820190508181036000830152611a6781611a2b565b905091905056fea264697066735822122093a4e3468d36b54275203ddd6e3a3a6032ccb7767626f3775f708ff3d46794a664736f6c63430008120033",
					"opcodes": "PUSH1 0x80 PUSH1 0x40 MSTORE CALLVALUE DUP1 ISZERO PUSH3 0x11 JUMPI PUSH1 0x0 DUP1 REVERT JUMPDEST POP PUSH1 0x40 MLOAD PUSH3 0x1C48 CODESIZE SUB DUP1 PUSH3 0x1C48 DUP4 CODECOPY DUP2 DUP2 ADD PUSH1 0x40 MSTORE DUP2 ADD SWAP1 PUSH3 0x37 SWAP2 SWAP1 PUSH3 0xE3 JUMP JUMPDEST DUP2 PUSH1 0x4 DUP2 SWAP1 SSTORE POP DUP1 TIMESTAMP PUSH3 0x4C SWAP2 SWAP1 PUSH3 0x159 JUMP JUMPDEST PUSH1 0x3 DUP2 SWAP1 SSTORE POP PUSH1 0x64 PUSH1 0x2 DUP2 SWAP1 SSTORE POP CALLER PUSH1 0x1 PUSH1 0x0 PUSH2 0x100 EXP DUP2 SLOAD DUP2 PUSH20 0xFFFFFFFFFFFFFFFFFFFFFFFFFFFFFFFFFFFFFFFF MUL NOT AND SWAP1 DUP4 PUSH20 0xFFFFFFFFFFFFFFFFFFFFFFFFFFFFFFFFFFFFFFFF AND MUL OR SWAP1 SSTORE POP POP POP PUSH3 0x194 JUMP JUMPDEST PUSH1 0x0 DUP1 REVERT JUMPDEST PUSH1 0x0 DUP2 SWAP1 POP SWAP2 SWAP1 POP JUMP JUMPDEST PUSH3 0xBD DUP2 PUSH3 0xA8 JUMP JUMPDEST DUP2 EQ PUSH3 0xC9 JUMPI PUSH1 0x0 DUP1 REVERT JUMPDEST POP JUMP JUMPDEST PUSH1 0x0 DUP2 MLOAD SWAP1 POP PUSH3 0xDD DUP2 PUSH3 0xB2 JUMP JUMPDEST SWAP3 SWAP2 POP POP JUMP JUMPDEST PUSH1 0x0 DUP1 PUSH1 0x40 DUP4 DUP6 SUB SLT ISZERO PUSH3 0xFD JUMPI PUSH3 0xFC PUSH3 0xA3 JUMP JUMPDEST JUMPDEST PUSH1 0x0 PUSH3 0x10D DUP6 DUP3 DUP7 ADD PUSH3 0xCC JUMP JUMPDEST SWAP3 POP POP PUSH1 0x20 PUSH3 0x120 DUP6 DUP3 DUP7 ADD PUSH3 0xCC JUMP JUMPDEST SWAP2 POP POP SWAP3 POP SWAP3 SWAP1 POP JUMP JUMPDEST PUSH32 0x4E487B7100000000000000000000000000000000000000000000000000000000 PUSH1 0x0 MSTORE PUSH1 0x11 PUSH1 0x4 MSTORE PUSH1 0x24 PUSH1 0x0 REVERT JUMPDEST PUSH1 0x0 PUSH3 0x166 DUP3 PUSH3 0xA8 JUMP JUMPDEST SWAP2 POP PUSH3 0x173 DUP4 PUSH3 0xA8 JUMP JUMPDEST SWAP3 POP DUP3 DUP3 ADD SWAP1 POP DUP1 DUP3 GT ISZERO PUSH3 0x18E JUMPI PUSH3 0x18D PUSH3 0x12A JUMP JUMPDEST JUMPDEST SWAP3 SWAP2 POP POP JUMP JUMPDEST PUSH2 0x1AA4 DUP1 PUSH3 0x1A4 PUSH1 0x0 CODECOPY PUSH1 0x0 RETURN INVALID PUSH1 0x80 PUSH1 0x40 MSTORE PUSH1 0x4 CALLDATASIZE LT PUSH2 0xE8 JUMPI PUSH1 0x0 CALLDATALOAD PUSH1 0xE0 SHR DUP1 PUSH4 0x81D12C58 GT PUSH2 0x8A JUMPI DUP1 PUSH4 0xA8622FFE GT PUSH2 0x59 JUMPI DUP1 PUSH4 0xA8622FFE EQ PUSH2 0x2B5 JUMPI DUP1 PUSH4 0xCBAF8671 EQ PUSH2 0x2E0 JUMPI DUP1 PUSH4 0xD4B83992 EQ PUSH2 0x309 JUMPI DUP1 PUSH4 0xF28BF146 EQ PUSH2 0x334 JUMPI PUSH2 0xE8 JUMP JUMPDEST DUP1 PUSH4 0x81D12C58 EQ PUSH2 0x216 JUMPI DUP1 PUSH4 0x83238798 EQ PUSH2 0x257 JUMPI DUP1 PUSH4 0x967C67CE EQ PUSH2 0x282 JUMPI DUP1 PUSH4 0x9E791D8B EQ PUSH2 0x2AB JUMPI PUSH2 0xE8 JUMP JUMPDEST DUP1 PUSH4 0x3B644D18 GT PUSH2 0xC6 JUMPI DUP1 PUSH4 0x3B644D18 EQ PUSH2 0x180 JUMPI DUP1 PUSH4 0x3EB7647B EQ PUSH2 0x1AB JUMPI DUP1 PUSH4 0x481C6A75 EQ PUSH2 0x1D4 JUMPI DUP1 PUSH4 0x590E1AE3 EQ PUSH2 0x1FF JUMPI PUSH2 0xE8 JUMP JUMPDEST DUP1 PUSH4 0xAE0AD71 EQ PUSH2 0xED JUMPI DUP1 PUSH4 0x1F6D4942 EQ PUSH2 0x118 JUMPI DUP1 PUSH4 0x29DCB0CF EQ PUSH2 0x155 JUMPI JUMPDEST PUSH1 0x0 DUP1 REVERT JUMPDEST CALLVALUE DUP1 ISZERO PUSH2 0xF9 JUMPI PUSH1 0x0 DUP1 REVERT JUMPDEST POP PUSH2 0x102 PUSH2 0x35F JUMP JUMPDEST PUSH1 0x40 MLOAD PUSH2 0x10F SWAP2 SWAP1 PUSH2 0xD74 JUMP JUMPDEST PUSH1 0x40 MLOAD DUP1 SWAP2 SUB SWAP1 RETURN JUMPDEST CALLVALUE DUP1 ISZERO PUSH2 0x124 JUMPI PUSH1 0x0 DUP1 REVERT JUMPDEST POP PUSH2 0x13F PUSH1 0x4 DUP1 CALLDATASIZE SUB DUP2 ADD SWAP1 PUSH2 0x13A SWAP2 SWAP1 PUSH2 0xE01 JUMP JUMPDEST PUSH2 0x365 JUMP JUMPDEST PUSH1 0x40 MLOAD PUSH2 0x14C SWAP2 SWAP1 PUSH2 0xD74 JUMP JUMPDEST PUSH1 0x40 MLOAD DUP1 SWAP2 SUB SWAP1 RETURN JUMPDEST CALLVALUE DUP1 ISZERO PUSH2 0x161 JUMPI PUSH1 0x0 DUP1 REVERT JUMPDEST POP PUSH2 0x16A PUSH2 0x37D JUMP JUMPDEST PUSH1 0x40 MLOAD PUSH2 0x177 SWAP2 SWAP1 PUSH2 0xD74 JUMP JUMPDEST PUSH1 0x40 MLOAD DUP1 SWAP2 SUB SWAP1 RETURN JUMPDEST CALLVALUE DUP1 ISZERO PUSH2 0x18C JUMPI PUSH1 0x0 DUP1 REVERT JUMPDEST POP PUSH2 0x195 PUSH2 0x383 JUMP JUMPDEST PUSH1 0x40 MLOAD PUSH2 0x1A2 SWAP2 SWAP1 PUSH2 0xD74 JUMP JUMPDEST PUSH1 0x40 MLOAD DUP1 SWAP2 SUB SWAP1 RETURN JUMPDEST CALLVALUE DUP1 ISZERO PUSH2 0x1B7 JUMPI PUSH1 0x0 DUP1 REVERT JUMPDEST POP PUSH2 0x1D2 PUSH1 0x4 DUP1 CALLDATASIZE SUB DUP2 ADD SWAP1 PUSH2 0x1CD SWAP2 SWAP1 PUSH2 0xFDE JUMP JUMPDEST PUSH2 0x389 JUMP JUMPDEST STOP JUMPDEST CALLVALUE DUP1 ISZERO PUSH2 0x1E0 JUMPI PUSH1 0x0 DUP1 REVERT JUMPDEST POP PUSH2 0x1E9 PUSH2 0x4D5 JUMP JUMPDEST PUSH1 0x40 MLOAD PUSH2 0x1F6 SWAP2 SWAP1 PUSH2 0x105C JUMP JUMPDEST PUSH1 0x40 MLOAD DUP1 SWAP2 SUB SWAP1 RETURN JUMPDEST CALLVALUE DUP1 ISZERO PUSH2 0x20B JUMPI PUSH1 0x0 DUP1 REVERT JUMPDEST POP PUSH2 0x214 PUSH2 0x4FB JUMP JUMPDEST STOP JUMPDEST CALLVALUE DUP1 ISZERO PUSH2 0x222 JUMPI PUSH1 0x0 DUP1 REVERT JUMPDEST POP PUSH2 0x23D PUSH1 0x4 DUP1 CALLDATASIZE SUB DUP2 ADD SWAP1 PUSH2 0x238 SWAP2 SWAP1 PUSH2 0x1077 JUMP JUMPDEST PUSH2 0x712 JUMP JUMPDEST PUSH1 0x40 MLOAD PUSH2 0x24E SWAP6 SWAP5 SWAP4 SWAP3 SWAP2 SWAP1 PUSH2 0x114D JUMP JUMPDEST PUSH1 0x40 MLOAD DUP1 SWAP2 SUB SWAP1 RETURN JUMPDEST CALLVALUE DUP1 ISZERO PUSH2 0x263 JUMPI PUSH1 0x0 DUP1 REVERT JUMPDEST POP PUSH2 0x26C PUSH2 0x7FD JUMP JUMPDEST PUSH1 0x40 MLOAD PUSH2 0x279 SWAP2 SWAP1 PUSH2 0xD74 JUMP JUMPDEST PUSH1 0x40 MLOAD DUP1 SWAP2 SUB SWAP1 RETURN JUMPDEST CALLVALUE DUP1 ISZERO PUSH2 0x28E JUMPI PUSH1 0x0 DUP1 REVERT JUMPDEST POP PUSH2 0x2A9 PUSH1 0x4 DUP1 CALLDATASIZE SUB DUP2 ADD SWAP1 PUSH2 0x2A4 SWAP2 SWAP1 PUSH2 0x1077 JUMP JUMPDEST PUSH2 0x803 JUMP JUMPDEST STOP JUMPDEST PUSH2 0x2B3 PUSH2 0x9B6 JUMP JUMPDEST STOP JUMPDEST CALLVALUE DUP1 ISZERO PUSH2 0x2C1 JUMPI PUSH1 0x0 DUP1 REVERT JUMPDEST POP PUSH2 0x2CA PUSH2 0xB0E JUMP JUMPDEST PUSH1 0x40 MLOAD PUSH2 0x2D7 SWAP2 SWAP1 PUSH2 0xD74 JUMP JUMPDEST PUSH1 0x40 MLOAD DUP1 SWAP2 SUB SWAP1 RETURN JUMPDEST CALLVALUE DUP1 ISZERO PUSH2 0x2EC JUMPI PUSH1 0x0 DUP1 REVERT JUMPDEST POP PUSH2 0x307 PUSH1 0x4 DUP1 CALLDATASIZE SUB DUP2 ADD SWAP1 PUSH2 0x302 SWAP2 SWAP1 PUSH2 0x1077 JUMP JUMPDEST PUSH2 0xB14 JUMP JUMPDEST STOP JUMPDEST CALLVALUE DUP1 ISZERO PUSH2 0x315 JUMPI PUSH1 0x0 DUP1 REVERT JUMPDEST POP PUSH2 0x31E PUSH2 0xD4D JUMP JUMPDEST PUSH1 0x40 MLOAD PUSH2 0x32B SWAP2 SWAP1 PUSH2 0xD74 JUMP JUMPDEST PUSH1 0x40 MLOAD DUP1 SWAP2 SUB SWAP1 RETURN JUMPDEST CALLVALUE DUP1 ISZERO PUSH2 0x340 JUMPI PUSH1 0x0 DUP1 REVERT JUMPDEST POP PUSH2 0x349 PUSH2 0xD53 JUMP JUMPDEST PUSH1 0x40 MLOAD PUSH2 0x356 SWAP2 SWAP1 PUSH2 0xD74 JUMP JUMPDEST PUSH1 0x40 MLOAD DUP1 SWAP2 SUB SWAP1 RETURN JUMPDEST PUSH1 0x8 SLOAD DUP2 JUMP JUMPDEST PUSH1 0x0 PUSH1 0x20 MSTORE DUP1 PUSH1 0x0 MSTORE PUSH1 0x40 PUSH1 0x0 KECCAK256 PUSH1 0x0 SWAP2 POP SWAP1 POP SLOAD DUP2 JUMP JUMPDEST PUSH1 0x3 SLOAD DUP2 JUMP JUMPDEST PUSH1 0x5 SLOAD DUP2 JUMP JUMPDEST PUSH1 0x1 PUSH1 0x0 SWAP1 SLOAD SWAP1 PUSH2 0x100 EXP SWAP1 DIV PUSH20 0xFFFFFFFFFFFFFFFFFFFFFFFFFFFFFFFFFFFFFFFF AND PUSH20 0xFFFFFFFFFFFFFFFFFFFFFFFFFFFFFFFFFFFFFFFF AND CALLER PUSH20 0xFFFFFFFFFFFFFFFFFFFFFFFFFFFFFFFFFFFFFFFF AND EQ PUSH2 0x419 JUMPI PUSH1 0x40 MLOAD PUSH32 0x8C379A000000000000000000000000000000000000000000000000000000000 DUP2 MSTORE PUSH1 0x4 ADD PUSH2 0x410 SWAP1 PUSH2 0x11F3 JUMP JUMPDEST PUSH1 0x40 MLOAD DUP1 SWAP2 SUB SWAP1 REVERT JUMPDEST PUSH1 0x0 PUSH1 0x7 PUSH1 0x0 PUSH1 0x8 SLOAD DUP2 MSTORE PUSH1 0x20 ADD SWAP1 DUP2 MSTORE PUSH1 0x20 ADD PUSH1 0x0 KECCAK256 SWAP1 POP PUSH1 0x8 PUSH1 0x0 DUP2 SLOAD DUP1 SWAP3 SWAP2 SWAP1 PUSH2 0x445 SWAP1 PUSH2 0x1242 JUMP JUMPDEST SWAP2 SWAP1 POP SSTORE POP DUP4 DUP2 PUSH1 0x0 ADD SWAP1 DUP2 PUSH2 0x45B SWAP2 SWAP1 PUSH2 0x1496 JUMP JUMPDEST POP DUP3 DUP2 PUSH1 0x1 ADD PUSH1 0x0 PUSH2 0x100 EXP DUP2 SLOAD DUP2 PUSH20 0xFFFFFFFFFFFFFFFFFFFFFFFFFFFFFFFFFFFFFFFF MUL NOT AND SWAP1 DUP4 PUSH20 0xFFFFFFFFFFFFFFFFFFFFFFFFFFFFFFFFFFFFFFFF AND MUL OR SWAP1 SSTORE POP DUP2 DUP2 PUSH1 0x2 ADD DUP2 SWAP1 SSTORE POP PUSH1 0x0 DUP2 PUSH1 0x3 ADD PUSH1 0x0 PUSH2 0x100 EXP DUP2 SLOAD DUP2 PUSH1 0xFF MUL NOT AND SWAP1 DUP4 ISZERO ISZERO MUL OR SWAP1 SSTORE POP PUSH1 0x0 DUP2 PUSH1 0x4 ADD DUP2 SWAP1 SSTORE POP POP POP POP POP JUMP JUMPDEST PUSH1 0x1 PUSH1 0x0 SWAP1 SLOAD SWAP1 PUSH2 0x100 EXP SWAP1 DIV PUSH20 0xFFFFFFFFFFFFFFFFFFFFFFFFFFFFFFFFFFFFFFFF AND DUP2 JUMP JUMPDEST PUSH1 0x3 SLOAD TIMESTAMP GT DUP1 ISZERO PUSH2 0x50F JUMPI POP PUSH1 0x4 SLOAD PUSH1 0x5 SLOAD LT JUMPDEST PUSH2 0x54E JUMPI PUSH1 0x40 MLOAD PUSH32 0x8C379A000000000000000000000000000000000000000000000000000000000 DUP2 MSTORE PUSH1 0x4 ADD PUSH2 0x545 SWAP1 PUSH2 0x15B4 JUMP JUMPDEST PUSH1 0x40 MLOAD DUP1 SWAP2 SUB SWAP1 REVERT JUMPDEST PUSH1 0x64 PUSH1 0x0 DUP1 CALLER PUSH20 0xFFFFFFFFFFFFFFFFFFFFFFFFFFFFFFFFFFFFFFFF AND PUSH20 0xFFFFFFFFFFFFFFFFFFFFFFFFFFFFFFFFFFFFFFFF AND DUP2 MSTORE PUSH1 0x20 ADD SWAP1 DUP2 MSTORE PUSH1 0x20 ADD PUSH1 0x0 KECCAK256 SLOAD LT ISZERO PUSH2 0x5D0 JUMPI PUSH1 0x40 MLOAD PUSH32 0x8C379A000000000000000000000000000000000000000000000000000000000 DUP2 MSTORE PUSH1 0x4 ADD PUSH2 0x5C7 SWAP1 PUSH2 0x1620 JUMP JUMPDEST PUSH1 0x40 MLOAD DUP1 SWAP2 SUB SWAP1 REVERT JUMPDEST PUSH1 0x0 CALLER SWAP1 POP DUP1 PUSH20 0xFFFFFFFFFFFFFFFFFFFFFFFFFFFFFFFFFFFFFFFF AND PUSH2 0x8FC PUSH1 0x0 DUP1 CALLER PUSH20 0xFFFFFFFFFFFFFFFFFFFFFFFFFFFFFFFFFFFFFFFF AND PUSH20 0xFFFFFFFFFFFFFFFFFFFFFFFFFFFFFFFFFFFFFFFF AND DUP2 MSTORE PUSH1 0x20 ADD SWAP1 DUP2 MSTORE PUSH1 0x20 ADD PUSH1 0x0 KECCAK256 SLOAD SWAP1 DUP2 ISZERO MUL SWAP1 PUSH1 0x40 MLOAD PUSH1 0x0 PUSH1 0x40 MLOAD DUP1 DUP4 SUB DUP2 DUP6 DUP9 DUP9 CALL SWAP4 POP POP POP POP ISZERO DUP1 ISZERO PUSH2 0x659 JUMPI RETURNDATASIZE PUSH1 0x0 DUP1 RETURNDATACOPY RETURNDATASIZE PUSH1 0x0 REVERT JUMPDEST POP PUSH1 0x0 DUP1 CALLER PUSH20 0xFFFFFFFFFFFFFFFFFFFFFFFFFFFFFFFFFFFFFFFF AND PUSH20 0xFFFFFFFFFFFFFFFFFFFFFFFFFFFFFFFFFFFFFFFF AND DUP2 MSTORE PUSH1 0x20 ADD SWAP1 DUP2 MSTORE PUSH1 0x20 ADD PUSH1 0x0 KECCAK256 SLOAD PUSH1 0x5 PUSH1 0x0 DUP3 DUP3 SLOAD PUSH2 0x6AA SWAP2 SWAP1 PUSH2 0x1640 JUMP JUMPDEST SWAP3 POP POP DUP2 SWAP1 SSTORE POP PUSH1 0x1 PUSH1 0x6 PUSH1 0x0 DUP3 DUP3 SLOAD PUSH2 0x6C4 SWAP2 SWAP1 PUSH2 0x1640 JUMP JUMPDEST SWAP3 POP POP DUP2 SWAP1 SSTORE POP PUSH1 0x0 DUP1 PUSH1 0x0 CALLER PUSH20 0xFFFFFFFFFFFFFFFFFFFFFFFFFFFFFFFFFFFFFFFF AND PUSH20 0xFFFFFFFFFFFFFFFFFFFFFFFFFFFFFFFFFFFFFFFF AND DUP2 MSTORE PUSH1 0x20 ADD SWAP1 DUP2 MSTORE PUSH1 0x20 ADD PUSH1 0x0 KECCAK256 DUP2 SWAP1 SSTORE POP POP JUMP JUMPDEST PUSH1 0x7 PUSH1 0x20 MSTORE DUP1 PUSH1 0x0 MSTORE PUSH1 0x40 PUSH1 0x0 KECCAK256 PUSH1 0x0 SWAP2 POP SWAP1 POP DUP1 PUSH1 0x0 ADD DUP1 SLOAD PUSH2 0x735 SWAP1 PUSH2 0x12B9 JUMP JUMPDEST DUP1 PUSH1 0x1F ADD PUSH1 0x20 DUP1 SWAP2 DIV MUL PUSH1 0x20 ADD PUSH1 0x40 MLOAD SWAP1 DUP2 ADD PUSH1 0x40 MSTORE DUP1 SWAP3 SWAP2 SWAP1 DUP2 DUP2 MSTORE PUSH1 0x20 ADD DUP3 DUP1 SLOAD PUSH2 0x761 SWAP1 PUSH2 0x12B9 JUMP JUMPDEST DUP1 ISZERO PUSH2 0x7AE JUMPI DUP1 PUSH1 0x1F LT PUSH2 0x783 JUMPI PUSH2 0x100 DUP1 DUP4 SLOAD DIV MUL DUP4 MSTORE SWAP2 PUSH1 0x20 ADD SWAP2 PUSH2 0x7AE JUMP JUMPDEST DUP3 ADD SWAP2 SWAP1 PUSH1 0x0 MSTORE PUSH1 0x20 PUSH1 0x0 KECCAK256 SWAP1 JUMPDEST DUP2 SLOAD DUP2 MSTORE SWAP1 PUSH1 0x1 ADD SWAP1 PUSH1 0x20 ADD DUP1 DUP4 GT PUSH2 0x791 JUMPI DUP3 SWAP1 SUB PUSH1 0x1F AND DUP3 ADD SWAP2 JUMPDEST POP POP POP POP POP SWAP1 DUP1 PUSH1 0x1 ADD PUSH1 0x0 SWAP1 SLOAD SWAP1 PUSH2 0x100 EXP SWAP1 DIV PUSH20 0xFFFFFFFFFFFFFFFFFFFFFFFFFFFFFFFFFFFFFFFF AND SWAP1 DUP1 PUSH1 0x2 ADD SLOAD SWAP1 DUP1 PUSH1 0x3 ADD PUSH1 0x0 SWAP1 SLOAD SWAP1 PUSH2 0x100 EXP SWAP1 DIV PUSH1 0xFF AND SWAP1 DUP1 PUSH1 0x4 ADD SLOAD SWAP1 POP DUP6 JUMP JUMPDEST PUSH1 0x6 SLOAD DUP2 JUMP JUMPDEST PUSH1 0x0 DUP1 PUSH1 0x0 CALLER PUSH20 0xFFFFFFFFFFFFFFFFFFFFFFFFFFFFFFFFFFFFFFFF AND PUSH20 0xFFFFFFFFFFFFFFFFFFFFFFFFFFFFFFFFFFFFFFFF AND DUP2 MSTORE PUSH1 0x20 ADD SWAP1 DUP2 MSTORE PUSH1 0x20 ADD PUSH1 0x0 KECCAK256 SLOAD GT PUSH2 0x884 JUMPI PUSH1 0x40 MLOAD PUSH32 0x8C379A000000000000000000000000000000000000000000000000000000000 DUP2 MSTORE PUSH1 0x4 ADD PUSH2 0x87B SWAP1 PUSH2 0x16C0 JUMP JUMPDEST PUSH1 0x40 MLOAD DUP1 SWAP2 SUB SWAP1 REVERT JUMPDEST PUSH1 0x8 SLOAD DUP2 LT PUSH2 0x892 JUMPI PUSH1 0x0 DUP1 REVERT JUMPDEST PUSH1 0x0 PUSH1 0x7 PUSH1 0x0 DUP4 DUP2 MSTORE PUSH1 0x20 ADD SWAP1 DUP2 MSTORE PUSH1 0x20 ADD PUSH1 0x0 KECCAK256 SWAP1 POP PUSH1 0x0 ISZERO ISZERO DUP2 PUSH1 0x5 ADD PUSH1 0x0 CALLER PUSH20 0xFFFFFFFFFFFFFFFFFFFFFFFFFFFFFFFFFFFFFFFF AND PUSH20 0xFFFFFFFFFFFFFFFFFFFFFFFFFFFFFFFFFFFFFFFF AND DUP2 MSTORE PUSH1 0x20 ADD SWAP1 DUP2 MSTORE PUSH1 0x20 ADD PUSH1 0x0 KECCAK256 PUSH1 0x0 SWAP1 SLOAD SWAP1 PUSH2 0x100 EXP SWAP1 DIV PUSH1 0xFF AND ISZERO ISZERO EQ PUSH2 0x93E JUMPI PUSH1 0x40 MLOAD PUSH32 0x8C379A000000000000000000000000000000000000000000000000000000000 DUP2 MSTORE PUSH1 0x4 ADD PUSH2 0x935 SWAP1 PUSH2 0x172C JUMP JUMPDEST PUSH1 0x40 MLOAD DUP1 SWAP2 SUB SWAP1 REVERT JUMPDEST PUSH1 0x1 DUP2 PUSH1 0x5 ADD PUSH1 0x0 CALLER PUSH20 0xFFFFFFFFFFFFFFFFFFFFFFFFFFFFFFFFFFFFFFFF AND PUSH20 0xFFFFFFFFFFFFFFFFFFFFFFFFFFFFFFFFFFFFFFFF AND DUP2 MSTORE PUSH1 0x20 ADD SWAP1 DUP2 MSTORE PUSH1 0x20 ADD PUSH1 0x0 KECCAK256 PUSH1 0x0 PUSH2 0x100 EXP DUP2 SLOAD DUP2 PUSH1 0xFF MUL NOT AND SWAP1 DUP4 ISZERO ISZERO MUL OR SWAP1 SSTORE POP DUP1 PUSH1 0x4 ADD PUSH1 0x0 DUP2 SLOAD DUP1 SWAP3 SWAP2 SWAP1 PUSH2 0x9AD SWAP1 PUSH2 0x1242 JUMP JUMPDEST SWAP2 SWAP1 POP SSTORE POP POP POP JUMP JUMPDEST PUSH1 0x3 SLOAD TIMESTAMP LT PUSH2 0x9FA JUMPI PUSH1 0x40 MLOAD PUSH32 0x8C379A000000000000000000000000000000000000000000000000000000000 DUP2 MSTORE PUSH1 0x4 ADD PUSH2 0x9F1 SWAP1 PUSH2 0x1798 JUMP JUMPDEST PUSH1 0x40 MLOAD DUP1 SWAP2 SUB SWAP1 REVERT JUMPDEST PUSH1 0x2 SLOAD CALLVALUE LT ISZERO PUSH2 0xA3F JUMPI PUSH1 0x40 MLOAD PUSH32 0x8C379A000000000000000000000000000000000000000000000000000000000 DUP2 MSTORE PUSH1 0x4 ADD PUSH2 0xA36 SWAP1 PUSH2 0x182A JUMP JUMPDEST PUSH1 0x40 MLOAD DUP1 SWAP2 SUB SWAP1 REVERT JUMPDEST PUSH1 0x0 DUP1 PUSH1 0x0 CALLER PUSH20 0xFFFFFFFFFFFFFFFFFFFFFFFFFFFFFFFFFFFFFFFF AND PUSH20 0xFFFFFFFFFFFFFFFFFFFFFFFFFFFFFFFFFFFFFFFF AND DUP2 MSTORE PUSH1 0x20 ADD SWAP1 DUP2 MSTORE PUSH1 0x20 ADD PUSH1 0x0 KECCAK256 SLOAD SUB PUSH2 0xA9E JUMPI PUSH1 0x6 PUSH1 0x0 DUP2 SLOAD DUP1 SWAP3 SWAP2 SWAP1 PUSH2 0xA98 SWAP1 PUSH2 0x1242 JUMP JUMPDEST SWAP2 SWAP1 POP SSTORE POP JUMPDEST CALLVALUE PUSH1 0x0 DUP1 CALLER PUSH20 0xFFFFFFFFFFFFFFFFFFFFFFFFFFFFFFFFFFFFFFFF AND PUSH20 0xFFFFFFFFFFFFFFFFFFFFFFFFFFFFFFFFFFFFFFFF AND DUP2 MSTORE PUSH1 0x20 ADD SWAP1 DUP2 MSTORE PUSH1 0x20 ADD PUSH1 0x0 KECCAK256 PUSH1 0x0 DUP3 DUP3 SLOAD PUSH2 0xAEC SWAP2 SWAP1 PUSH2 0x184A JUMP JUMPDEST SWAP3 POP POP DUP2 SWAP1 SSTORE POP CALLVALUE PUSH1 0x5 PUSH1 0x0 DUP3 DUP3 SLOAD PUSH2 0xB05 SWAP2 SWAP1 PUSH2 0x184A JUMP JUMPDEST SWAP3 POP POP DUP2 SWAP1 SSTORE POP JUMP JUMPDEST PUSH1 0x2 SLOAD DUP2 JUMP JUMPDEST PUSH1 0x1 PUSH1 0x0 SWAP1 SLOAD SWAP1 PUSH2 0x100 EXP SWAP1 DIV PUSH20 0xFFFFFFFFFFFFFFFFFFFFFFFFFFFFFFFFFFFFFFFF AND PUSH20 0xFFFFFFFFFFFFFFFFFFFFFFFFFFFFFFFFFFFFFFFF AND CALLER PUSH20 0xFFFFFFFFFFFFFFFFFFFFFFFFFFFFFFFFFFFFFFFF AND EQ PUSH2 0xBA4 JUMPI PUSH1 0x40 MLOAD PUSH32 0x8C379A000000000000000000000000000000000000000000000000000000000 DUP2 MSTORE PUSH1 0x4 ADD PUSH2 0xB9B SWAP1 PUSH2 0x11F3 JUMP JUMPDEST PUSH1 0x40 MLOAD DUP1 SWAP2 SUB SWAP1 REVERT JUMPDEST PUSH1 0x3 SLOAD TIMESTAMP LT ISZERO DUP1 ISZERO PUSH2 0xBBA JUMPI POP PUSH1 0x4 SLOAD PUSH1 0x5 SLOAD LT ISZERO JUMPDEST PUSH2 0xBF9 JUMPI PUSH1 0x40 MLOAD PUSH32 0x8C379A000000000000000000000000000000000000000000000000000000000 DUP2 MSTORE PUSH1 0x4 ADD PUSH2 0xBF0 SWAP1 PUSH2 0x18F0 JUMP JUMPDEST PUSH1 0x40 MLOAD DUP1 SWAP2 SUB SWAP1 REVERT JUMPDEST PUSH1 0x0 PUSH1 0x7 PUSH1 0x0 DUP4 DUP2 MSTORE PUSH1 0x20 ADD SWAP1 DUP2 MSTORE PUSH1 0x20 ADD PUSH1 0x0 KECCAK256 SWAP1 POP PUSH1 0x0 ISZERO ISZERO DUP2 PUSH1 0x3 ADD PUSH1 0x0 SWAP1 SLOAD SWAP1 PUSH2 0x100 EXP SWAP1 DIV PUSH1 0xFF AND ISZERO ISZERO EQ PUSH2 0xC68 JUMPI PUSH1 0x40 MLOAD PUSH32 0x8C379A000000000000000000000000000000000000000000000000000000000 DUP2 MSTORE PUSH1 0x4 ADD PUSH2 0xC5F SWAP1 PUSH2 0x195C JUMP JUMPDEST PUSH1 0x40 MLOAD DUP1 SWAP2 SUB SWAP1 REVERT JUMPDEST PUSH1 0x2 PUSH1 0x6 SLOAD PUSH2 0xC77 SWAP2 SWAP1 PUSH2 0x19AB JUMP JUMPDEST DUP2 PUSH1 0x4 ADD SLOAD LT ISZERO PUSH2 0xCBD JUMPI PUSH1 0x40 MLOAD PUSH32 0x8C379A000000000000000000000000000000000000000000000000000000000 DUP2 MSTORE PUSH1 0x4 ADD PUSH2 0xCB4 SWAP1 PUSH2 0x1A4E JUMP JUMPDEST PUSH1 0x40 MLOAD DUP1 SWAP2 SUB SWAP1 REVERT JUMPDEST DUP1 PUSH1 0x1 ADD PUSH1 0x0 SWAP1 SLOAD SWAP1 PUSH2 0x100 EXP SWAP1 DIV PUSH20 0xFFFFFFFFFFFFFFFFFFFFFFFFFFFFFFFFFFFFFFFF AND PUSH20 0xFFFFFFFFFFFFFFFFFFFFFFFFFFFFFFFFFFFFFFFF AND PUSH2 0x8FC DUP3 PUSH1 0x2 ADD SLOAD SWAP1 DUP2 ISZERO MUL SWAP1 PUSH1 0x40 MLOAD PUSH1 0x0 PUSH1 0x40 MLOAD DUP1 DUP4 SUB DUP2 DUP6 DUP9 DUP9 CALL SWAP4 POP POP POP POP ISZERO DUP1 ISZERO PUSH2 0xD2B JUMPI RETURNDATASIZE PUSH1 0x0 DUP1 RETURNDATACOPY RETURNDATASIZE PUSH1 0x0 REVERT JUMPDEST POP PUSH1 0x1 DUP2 PUSH1 0x3 ADD PUSH1 0x0 PUSH2 0x100 EXP DUP2 SLOAD DUP2 PUSH1 0xFF MUL NOT AND SWAP1 DUP4 ISZERO ISZERO MUL OR SWAP1 SSTORE POP POP POP JUMP JUMPDEST PUSH1 0x4 SLOAD DUP2 JUMP JUMPDEST PUSH1 0x0 SELFBALANCE SWAP1 POP SWAP1 JUMP JUMPDEST PUSH1 0x0 DUP2 SWAP1 POP SWAP2 SWAP1 POP JUMP JUMPDEST PUSH2 0xD6E DUP2 PUSH2 0xD5B JUMP JUMPDEST DUP3 MSTORE POP POP JUMP JUMPDEST PUSH1 0x0 PUSH1 0x20 DUP3 ADD SWAP1 POP PUSH2 0xD89 PUSH1 0x0 DUP4 ADD DUP5 PUSH2 0xD65 JUMP JUMPDEST SWAP3 SWAP2 POP POP JUMP JUMPDEST PUSH1 0x0 PUSH1 0x40 MLOAD SWAP1 POP SWAP1 JUMP JUMPDEST PUSH1 0x0 DUP1 REVERT JUMPDEST PUSH1 0x0 DUP1 REVERT JUMPDEST PUSH1 0x0 PUSH20 0xFFFFFFFFFFFFFFFFFFFFFFFFFFFFFFFFFFFFFFFF DUP3 AND SWAP1 POP SWAP2 SWAP1 POP JUMP JUMPDEST PUSH1 0x0 PUSH2 0xDCE DUP3 PUSH2 0xDA3 JUMP JUMPDEST SWAP1 POP SWAP2 SWAP1 POP JUMP JUMPDEST PUSH2 0xDDE DUP2 PUSH2 0xDC3 JUMP JUMPDEST DUP2 EQ PUSH2 0xDE9 JUMPI PUSH1 0x0 DUP1 REVERT JUMPDEST POP JUMP JUMPDEST PUSH1 0x0 DUP2 CALLDATALOAD SWAP1 POP PUSH2 0xDFB DUP2 PUSH2 0xDD5 JUMP JUMPDEST SWAP3 SWAP2 POP POP JUMP JUMPDEST PUSH1 0x0 PUSH1 0x20 DUP3 DUP5 SUB SLT ISZERO PUSH2 0xE17 JUMPI PUSH2 0xE16 PUSH2 0xD99 JUMP JUMPDEST JUMPDEST PUSH1 0x0 PUSH2 0xE25 DUP5 DUP3 DUP6 ADD PUSH2 0xDEC JUMP JUMPDEST SWAP2 POP POP SWAP3 SWAP2 POP POP JUMP JUMPDEST PUSH1 0x0 DUP1 REVERT JUMPDEST PUSH1 0x0 DUP1 REVERT JUMPDEST PUSH1 0x0 PUSH1 0x1F NOT PUSH1 0x1F DUP4 ADD AND SWAP1 POP SWAP2 SWAP1 POP JUMP JUMPDEST PUSH32 0x4E487B7100000000000000000000000000000000000000000000000000000000 PUSH1 0x0 MSTORE PUSH1 0x41 PUSH1 0x4 MSTORE PUSH1 0x24 PUSH1 0x0 REVERT JUMPDEST PUSH2 0xE81 DUP3 PUSH2 0xE38 JUMP JUMPDEST DUP2 ADD DUP2 DUP2 LT PUSH8 0xFFFFFFFFFFFFFFFF DUP3 GT OR ISZERO PUSH2 0xEA0 JUMPI PUSH2 0xE9F PUSH2 0xE49 JUMP JUMPDEST JUMPDEST DUP1 PUSH1 0x40 MSTORE POP POP POP JUMP JUMPDEST PUSH1 0x0 PUSH2 0xEB3 PUSH2 0xD8F JUMP JUMPDEST SWAP1 POP PUSH2 0xEBF DUP3 DUP3 PUSH2 0xE78 JUMP JUMPDEST SWAP2 SWAP1 POP JUMP JUMPDEST PUSH1 0x0 PUSH8 0xFFFFFFFFFFFFFFFF DUP3 GT ISZERO PUSH2 0xEDF JUMPI PUSH2 0xEDE PUSH2 0xE49 JUMP JUMPDEST JUMPDEST PUSH2 0xEE8 DUP3 PUSH2 0xE38 JUMP JUMPDEST SWAP1 POP PUSH1 0x20 DUP2 ADD SWAP1 POP SWAP2 SWAP1 POP JUMP JUMPDEST DUP3 DUP2 DUP4 CALLDATACOPY PUSH1 0x0 DUP4 DUP4 ADD MSTORE POP POP POP JUMP JUMPDEST PUSH1 0x0 PUSH2 0xF17 PUSH2 0xF12 DUP5 PUSH2 0xEC4 JUMP JUMPDEST PUSH2 0xEA9 JUMP JUMPDEST SWAP1 POP DUP3 DUP2 MSTORE PUSH1 0x20 DUP2 ADD DUP5 DUP5 DUP5 ADD GT ISZERO PUSH2 0xF33 JUMPI PUSH2 0xF32 PUSH2 0xE33 JUMP JUMPDEST JUMPDEST PUSH2 0xF3E DUP5 DUP3 DUP6 PUSH2 0xEF5 JUMP JUMPDEST POP SWAP4 SWAP3 POP POP POP JUMP JUMPDEST PUSH1 0x0 DUP3 PUSH1 0x1F DUP4 ADD SLT PUSH2 0xF5B JUMPI PUSH2 0xF5A PUSH2 0xE2E JUMP JUMPDEST JUMPDEST DUP2 CALLDATALOAD PUSH2 0xF6B DUP5 DUP3 PUSH1 0x20 DUP7 ADD PUSH2 0xF04 JUMP JUMPDEST SWAP2 POP POP SWAP3 SWAP2 POP POP JUMP JUMPDEST PUSH1 0x0 PUSH2 0xF7F DUP3 PUSH2 0xDA3 JUMP JUMPDEST SWAP1 POP SWAP2 SWAP1 POP JUMP JUMPDEST PUSH2 0xF8F DUP2 PUSH2 0xF74 JUMP JUMPDEST DUP2 EQ PUSH2 0xF9A JUMPI PUSH1 0x0 DUP1 REVERT JUMPDEST POP JUMP JUMPDEST PUSH1 0x0 DUP2 CALLDATALOAD SWAP1 POP PUSH2 0xFAC DUP2 PUSH2 0xF86 JUMP JUMPDEST SWAP3 SWAP2 POP POP JUMP JUMPDEST PUSH2 0xFBB DUP2 PUSH2 0xD5B JUMP JUMPDEST DUP2 EQ PUSH2 0xFC6 JUMPI PUSH1 0x0 DUP1 REVERT JUMPDEST POP JUMP JUMPDEST PUSH1 0x0 DUP2 CALLDATALOAD SWAP1 POP PUSH2 0xFD8 DUP2 PUSH2 0xFB2 JUMP JUMPDEST SWAP3 SWAP2 POP POP JUMP JUMPDEST PUSH1 0x0 DUP1 PUSH1 0x0 PUSH1 0x60 DUP5 DUP7 SUB SLT ISZERO PUSH2 0xFF7 JUMPI PUSH2 0xFF6 PUSH2 0xD99 JUMP JUMPDEST JUMPDEST PUSH1 0x0 DUP5 ADD CALLDATALOAD PUSH8 0xFFFFFFFFFFFFFFFF DUP2 GT ISZERO PUSH2 0x1015 JUMPI PUSH2 0x1014 PUSH2 0xD9E JUMP JUMPDEST JUMPDEST PUSH2 0x1021 DUP7 DUP3 DUP8 ADD PUSH2 0xF46 JUMP JUMPDEST SWAP4 POP POP PUSH1 0x20 PUSH2 0x1032 DUP7 DUP3 DUP8 ADD PUSH2 0xF9D JUMP JUMPDEST SWAP3 POP POP PUSH1 0x40 PUSH2 0x1043 DUP7 DUP3 DUP8 ADD PUSH2 0xFC9 JUMP JUMPDEST SWAP2 POP POP SWAP3 POP SWAP3 POP SWAP3 JUMP JUMPDEST PUSH2 0x1056 DUP2 PUSH2 0xDC3 JUMP JUMPDEST DUP3 MSTORE POP POP JUMP JUMPDEST PUSH1 0x0 PUSH1 0x20 DUP3 ADD SWAP1 POP PUSH2 0x1071 PUSH1 0x0 DUP4 ADD DUP5 PUSH2 0x104D JUMP JUMPDEST SWAP3 SWAP2 POP POP JUMP JUMPDEST PUSH1 0x0 PUSH1 0x20 DUP3 DUP5 SUB SLT ISZERO PUSH2 0x108D JUMPI PUSH2 0x108C PUSH2 0xD99 JUMP JUMPDEST JUMPDEST PUSH1 0x0 PUSH2 0x109B DUP5 DUP3 DUP6 ADD PUSH2 0xFC9 JUMP JUMPDEST SWAP2 POP POP SWAP3 SWAP2 POP POP JUMP JUMPDEST PUSH1 0x0 DUP2 MLOAD SWAP1 POP SWAP2 SWAP1 POP JUMP JUMPDEST PUSH1 0x0 DUP3 DUP3 MSTORE PUSH1 0x20 DUP3 ADD SWAP1 POP SWAP3 SWAP2 POP POP JUMP JUMPDEST PUSH1 0x0 JUMPDEST DUP4 DUP2 LT ISZERO PUSH2 0x10DE JUMPI DUP1 DUP3 ADD MLOAD DUP2 DUP5 ADD MSTORE PUSH1 0x20 DUP2 ADD SWAP1 POP PUSH2 0x10C3 JUMP JUMPDEST PUSH1 0x0 DUP5 DUP5 ADD MSTORE POP POP POP POP JUMP JUMPDEST PUSH1 0x0 PUSH2 0x10F5 DUP3 PUSH2 0x10A4 JUMP JUMPDEST PUSH2 0x10FF DUP2 DUP6 PUSH2 0x10AF JUMP JUMPDEST SWAP4 POP PUSH2 0x110F DUP2 DUP6 PUSH1 0x20 DUP7 ADD PUSH2 0x10C0 JUMP JUMPDEST PUSH2 0x1118 DUP2 PUSH2 0xE38 JUMP JUMPDEST DUP5 ADD SWAP2 POP POP SWAP3 SWAP2 POP POP JUMP JUMPDEST PUSH2 0x112C DUP2 PUSH2 0xF74 JUMP JUMPDEST DUP3 MSTORE POP POP JUMP JUMPDEST PUSH1 0x0 DUP2 ISZERO ISZERO SWAP1 POP SWAP2 SWAP1 POP JUMP JUMPDEST PUSH2 0x1147 DUP2 PUSH2 0x1132 JUMP JUMPDEST DUP3 MSTORE POP POP JUMP JUMPDEST PUSH1 0x0 PUSH1 0xA0 DUP3 ADD SWAP1 POP DUP2 DUP2 SUB PUSH1 0x0 DUP4 ADD MSTORE PUSH2 0x1167 DUP2 DUP9 PUSH2 0x10EA JUMP JUMPDEST SWAP1 POP PUSH2 0x1176 PUSH1 0x20 DUP4 ADD DUP8 PUSH2 0x1123 JUMP JUMPDEST PUSH2 0x1183 PUSH1 0x40 DUP4 ADD DUP7 PUSH2 0xD65 JUMP JUMPDEST PUSH2 0x1190 PUSH1 0x60 DUP4 ADD DUP6 PUSH2 0x113E JUMP JUMPDEST PUSH2 0x119D PUSH1 0x80 DUP4 ADD DUP5 PUSH2 0xD65 JUMP JUMPDEST SWAP7 SWAP6 POP POP POP POP POP POP JUMP JUMPDEST PUSH32 0x6F6E6C79206D616E616765722063616E2063616C6C0000000000000000000000 PUSH1 0x0 DUP3 ADD MSTORE POP JUMP JUMPDEST PUSH1 0x0 PUSH2 0x11DD PUSH1 0x15 DUP4 PUSH2 0x10AF JUMP JUMPDEST SWAP2 POP PUSH2 0x11E8 DUP3 PUSH2 0x11A7 JUMP JUMPDEST PUSH1 0x20 DUP3 ADD SWAP1 POP SWAP2 SWAP1 POP JUMP JUMPDEST PUSH1 0x0 PUSH1 0x20 DUP3 ADD SWAP1 POP DUP2 DUP2 SUB PUSH1 0x0 DUP4 ADD MSTORE PUSH2 0x120C DUP2 PUSH2 0x11D0 JUMP JUMPDEST SWAP1 POP SWAP2 SWAP1 POP JUMP JUMPDEST PUSH32 0x4E487B7100000000000000000000000000000000000000000000000000000000 PUSH1 0x0 MSTORE PUSH1 0x11 PUSH1 0x4 MSTORE PUSH1 0x24 PUSH1 0x0 REVERT JUMPDEST PUSH1 0x0 PUSH2 0x124D DUP3 PUSH2 0xD5B JUMP JUMPDEST SWAP2 POP PUSH32 0xFFFFFFFFFFFFFFFFFFFFFFFFFFFFFFFFFFFFFFFFFFFFFFFFFFFFFFFFFFFFFFFF DUP3 SUB PUSH2 0x127F JUMPI PUSH2 0x127E PUSH2 0x1213 JUMP JUMPDEST JUMPDEST PUSH1 0x1 DUP3 ADD SWAP1 POP SWAP2 SWAP1 POP JUMP JUMPDEST PUSH32 0x4E487B7100000000000000000000000000000000000000000000000000000000 PUSH1 0x0 MSTORE PUSH1 0x22 PUSH1 0x4 MSTORE PUSH1 0x24 PUSH1 0x0 REVERT JUMPDEST PUSH1 0x0 PUSH1 0x2 DUP3 DIV SWAP1 POP PUSH1 0x1 DUP3 AND DUP1 PUSH2 0x12D1 JUMPI PUSH1 0x7F DUP3 AND SWAP2 POP JUMPDEST PUSH1 0x20 DUP3 LT DUP2 SUB PUSH2 0x12E4 JUMPI PUSH2 0x12E3 PUSH2 0x128A JUMP JUMPDEST JUMPDEST POP SWAP2 SWAP1 POP JUMP JUMPDEST PUSH1 0x0 DUP2 SWAP1 POP DUP2 PUSH1 0x0 MSTORE PUSH1 0x20 PUSH1 0x0 KECCAK256 SWAP1 POP SWAP2 SWAP1 POP JUMP JUMPDEST PUSH1 0x0 PUSH1 0x20 PUSH1 0x1F DUP4 ADD DIV SWAP1 POP SWAP2 SWAP1 POP JUMP JUMPDEST PUSH1 0x0 DUP3 DUP3 SHL SWAP1 POP SWAP3 SWAP2 POP POP JUMP JUMPDEST PUSH1 0x0 PUSH1 0x8 DUP4 MUL PUSH2 0x134C PUSH32 0xFFFFFFFFFFFFFFFFFFFFFFFFFFFFFFFFFFFFFFFFFFFFFFFFFFFFFFFFFFFFFFFF DUP3 PUSH2 0x130F JUMP JUMPDEST PUSH2 0x1356 DUP7 DUP4 PUSH2 0x130F JUMP JUMPDEST SWAP6 POP DUP1 NOT DUP5 AND SWAP4 POP DUP1 DUP7 AND DUP5 OR SWAP3 POP POP POP SWAP4 SWAP3 POP POP POP JUMP JUMPDEST PUSH1 0x0 DUP2 SWAP1 POP SWAP2 SWAP1 POP JUMP JUMPDEST PUSH1 0x0 PUSH2 0x1393 PUSH2 0x138E PUSH2 0x1389 DUP5 PUSH2 0xD5B JUMP JUMPDEST PUSH2 0x136E JUMP JUMPDEST PUSH2 0xD5B JUMP JUMPDEST SWAP1 POP SWAP2 SWAP1 POP JUMP JUMPDEST PUSH1 0x0 DUP2 SWAP1 POP SWAP2 SWAP1 POP JUMP JUMPDEST PUSH2 0x13AD DUP4 PUSH2 0x1378 JUMP JUMPDEST PUSH2 0x13C1 PUSH2 0x13B9 DUP3 PUSH2 0x139A JUMP JUMPDEST DUP5 DUP5 SLOAD PUSH2 0x131C JUMP JUMPDEST DUP3 SSTORE POP POP POP POP JUMP JUMPDEST PUSH1 0x0 SWAP1 JUMP JUMPDEST PUSH2 0x13D6 PUSH2 0x13C9 JUMP JUMPDEST PUSH2 0x13E1 DUP2 DUP5 DUP5 PUSH2 0x13A4 JUMP JUMPDEST POP POP POP JUMP JUMPDEST JUMPDEST DUP2 DUP2 LT ISZERO PUSH2 0x1405 JUMPI PUSH2 0x13FA PUSH1 0x0 DUP3 PUSH2 0x13CE JUMP JUMPDEST PUSH1 0x1 DUP2 ADD SWAP1 POP PUSH2 0x13E7 JUMP JUMPDEST POP POP JUMP JUMPDEST PUSH1 0x1F DUP3 GT ISZERO PUSH2 0x144A JUMPI PUSH2 0x141B DUP2 PUSH2 0x12EA JUMP JUMPDEST PUSH2 0x1424 DUP5 PUSH2 0x12FF JUMP JUMPDEST DUP2 ADD PUSH1 0x20 DUP6 LT ISZERO PUSH2 0x1433 JUMPI DUP2 SWAP1 POP JUMPDEST PUSH2 0x1447 PUSH2 0x143F DUP6 PUSH2 0x12FF JUMP JUMPDEST DUP4 ADD DUP3 PUSH2 0x13E6 JUMP JUMPDEST POP POP JUMPDEST POP POP POP JUMP JUMPDEST PUSH1 0x0 DUP3 DUP3 SHR SWAP1 POP SWAP3 SWAP2 POP POP JUMP JUMPDEST PUSH1 0x0 PUSH2 0x146D PUSH1 0x0 NOT DUP5 PUSH1 0x8 MUL PUSH2 0x144F JUMP JUMPDEST NOT DUP1 DUP4 AND SWAP2 POP POP SWAP3 SWAP2 POP POP JUMP JUMPDEST PUSH1 0x0 PUSH2 0x1486 DUP4 DUP4 PUSH2 0x145C JUMP JUMPDEST SWAP2 POP DUP3 PUSH1 0x2 MUL DUP3 OR SWAP1 POP SWAP3 SWAP2 POP POP JUMP JUMPDEST PUSH2 0x149F DUP3 PUSH2 0x10A4 JUMP JUMPDEST PUSH8 0xFFFFFFFFFFFFFFFF DUP2 GT ISZERO PUSH2 0x14B8 JUMPI PUSH2 0x14B7 PUSH2 0xE49 JUMP JUMPDEST JUMPDEST PUSH2 0x14C2 DUP3 SLOAD PUSH2 0x12B9 JUMP JUMPDEST PUSH2 0x14CD DUP3 DUP3 DUP6 PUSH2 0x1409 JUMP JUMPDEST PUSH1 0x0 PUSH1 0x20 SWAP1 POP PUSH1 0x1F DUP4 GT PUSH1 0x1 DUP2 EQ PUSH2 0x1500 JUMPI PUSH1 0x0 DUP5 ISZERO PUSH2 0x14EE JUMPI DUP3 DUP8 ADD MLOAD SWAP1 POP JUMPDEST PUSH2 0x14F8 DUP6 DUP3 PUSH2 0x147A JUMP JUMPDEST DUP7 SSTORE POP PUSH2 0x1560 JUMP JUMPDEST PUSH1 0x1F NOT DUP5 AND PUSH2 0x150E DUP7 PUSH2 0x12EA JUMP JUMPDEST PUSH1 0x0 JUMPDEST DUP3 DUP2 LT ISZERO PUSH2 0x1536 JUMPI DUP5 DUP10 ADD MLOAD DUP3 SSTORE PUSH1 0x1 DUP3 ADD SWAP2 POP PUSH1 0x20 DUP6 ADD SWAP5 POP PUSH1 0x20 DUP2 ADD SWAP1 POP PUSH2 0x1511 JUMP JUMPDEST DUP7 DUP4 LT ISZERO PUSH2 0x1553 JUMPI DUP5 DUP10 ADD MLOAD PUSH2 0x154F PUSH1 0x1F DUP10 AND DUP3 PUSH2 0x145C JUMP JUMPDEST DUP4 SSTORE POP JUMPDEST PUSH1 0x1 PUSH1 0x2 DUP9 MUL ADD DUP9 SSTORE POP POP POP JUMPDEST POP POP POP POP POP POP JUMP JUMPDEST PUSH32 0x796F7520617265206C6174650000000000000000000000000000000000000000 PUSH1 0x0 DUP3 ADD MSTORE POP JUMP JUMPDEST PUSH1 0x0 PUSH2 0x159E PUSH1 0xC DUP4 PUSH2 0x10AF JUMP JUMPDEST SWAP2 POP PUSH2 0x15A9 DUP3 PUSH2 0x1568 JUMP JUMPDEST PUSH1 0x20 DUP3 ADD SWAP1 POP SWAP2 SWAP1 POP JUMP JUMPDEST PUSH1 0x0 PUSH1 0x20 DUP3 ADD SWAP1 POP DUP2 DUP2 SUB PUSH1 0x0 DUP4 ADD MSTORE PUSH2 0x15CD DUP2 PUSH2 0x1591 JUMP JUMPDEST SWAP1 POP SWAP2 SWAP1 POP JUMP JUMPDEST PUSH32 0x796F7520617265206E6F7420636F6E7472696275746F72730000000000000000 PUSH1 0x0 DUP3 ADD MSTORE POP JUMP JUMPDEST PUSH1 0x0 PUSH2 0x160A PUSH1 0x18 DUP4 PUSH2 0x10AF JUMP JUMPDEST SWAP2 POP PUSH2 0x1615 DUP3 PUSH2 0x15D4 JUMP JUMPDEST PUSH1 0x20 DUP3 ADD SWAP1 POP SWAP2 SWAP1 POP JUMP JUMPDEST PUSH1 0x0 PUSH1 0x20 DUP3 ADD SWAP1 POP DUP2 DUP2 SUB PUSH1 0x0 DUP4 ADD MSTORE PUSH2 0x1639 DUP2 PUSH2 0x15FD JUMP JUMPDEST SWAP1 POP SWAP2 SWAP1 POP JUMP JUMPDEST PUSH1 0x0 PUSH2 0x164B DUP3 PUSH2 0xD5B JUMP JUMPDEST SWAP2 POP PUSH2 0x1656 DUP4 PUSH2 0xD5B JUMP JUMPDEST SWAP3 POP DUP3 DUP3 SUB SWAP1 POP DUP2 DUP2 GT ISZERO PUSH2 0x166E JUMPI PUSH2 0x166D PUSH2 0x1213 JUMP JUMPDEST JUMPDEST SWAP3 SWAP2 POP POP JUMP JUMPDEST PUSH32 0x796F75206D75737420706172746963697061746520666F7220766F74696E6700 PUSH1 0x0 DUP3 ADD MSTORE POP JUMP JUMPDEST PUSH1 0x0 PUSH2 0x16AA PUSH1 0x1F DUP4 PUSH2 0x10AF JUMP JUMPDEST SWAP2 POP PUSH2 0x16B5 DUP3 PUSH2 0x1674 JUMP JUMPDEST PUSH1 0x20 DUP3 ADD SWAP1 POP SWAP2 SWAP1 POP JUMP JUMPDEST PUSH1 0x0 PUSH1 0x20 DUP3 ADD SWAP1 POP DUP2 DUP2 SUB PUSH1 0x0 DUP4 ADD MSTORE PUSH2 0x16D9 DUP2 PUSH2 0x169D JUMP JUMPDEST SWAP1 POP SWAP2 SWAP1 POP JUMP JUMPDEST PUSH32 0x796F75206861766520616C726561647920766F74656400000000000000000000 PUSH1 0x0 DUP3 ADD MSTORE POP JUMP JUMPDEST PUSH1 0x0 PUSH2 0x1716 PUSH1 0x16 DUP4 PUSH2 0x10AF JUMP JUMPDEST SWAP2 POP PUSH2 0x1721 DUP3 PUSH2 0x16E0 JUMP JUMPDEST PUSH1 0x20 DUP3 ADD SWAP1 POP SWAP2 SWAP1 POP JUMP JUMPDEST PUSH1 0x0 PUSH1 0x20 DUP3 ADD SWAP1 POP DUP2 DUP2 SUB PUSH1 0x0 DUP4 ADD MSTORE PUSH2 0x1745 DUP2 PUSH2 0x1709 JUMP JUMPDEST SWAP1 POP SWAP2 SWAP1 POP JUMP JUMPDEST PUSH32 0x646561646C696E65206861732070617373656400000000000000000000000000 PUSH1 0x0 DUP3 ADD MSTORE POP JUMP JUMPDEST PUSH1 0x0 PUSH2 0x1782 PUSH1 0x13 DUP4 PUSH2 0x10AF JUMP JUMPDEST SWAP2 POP PUSH2 0x178D DUP3 PUSH2 0x174C JUMP JUMPDEST PUSH1 0x20 DUP3 ADD SWAP1 POP SWAP2 SWAP1 POP JUMP JUMPDEST PUSH1 0x0 PUSH1 0x20 DUP3 ADD SWAP1 POP DUP2 DUP2 SUB PUSH1 0x0 DUP4 ADD MSTORE PUSH2 0x17B1 DUP2 PUSH2 0x1775 JUMP JUMPDEST SWAP1 POP SWAP2 SWAP1 POP JUMP JUMPDEST PUSH32 0x796F75206E65656420746F20616464206D696E696D756D20636F6E7472696275 PUSH1 0x0 DUP3 ADD MSTORE PUSH32 0x74696F6E00000000000000000000000000000000000000000000000000000000 PUSH1 0x20 DUP3 ADD MSTORE POP JUMP JUMPDEST PUSH1 0x0 PUSH2 0x1814 PUSH1 0x24 DUP4 PUSH2 0x10AF JUMP JUMPDEST SWAP2 POP PUSH2 0x181F DUP3 PUSH2 0x17B8 JUMP JUMPDEST PUSH1 0x40 DUP3 ADD SWAP1 POP SWAP2 SWAP1 POP JUMP JUMPDEST PUSH1 0x0 PUSH1 0x20 DUP3 ADD SWAP1 POP DUP2 DUP2 SUB PUSH1 0x0 DUP4 ADD MSTORE PUSH2 0x1843 DUP2 PUSH2 0x1807 JUMP JUMPDEST SWAP1 POP SWAP2 SWAP1 POP JUMP JUMPDEST PUSH1 0x0 PUSH2 0x1855 DUP3 PUSH2 0xD5B JUMP JUMPDEST SWAP2 POP PUSH2 0x1860 DUP4 PUSH2 0xD5B JUMP JUMPDEST SWAP3 POP DUP3 DUP3 ADD SWAP1 POP DUP1 DUP3 GT ISZERO PUSH2 0x1878 JUMPI PUSH2 0x1877 PUSH2 0x1213 JUMP JUMPDEST JUMPDEST SWAP3 SWAP2 POP POP JUMP JUMPDEST PUSH32 0x7761697420666F722074696D6520656E64206F7220746172676574206E6F7420 PUSH1 0x0 DUP3 ADD MSTORE PUSH32 0x726561636865642E000000000000000000000000000000000000000000000000 PUSH1 0x20 DUP3 ADD MSTORE POP JUMP JUMPDEST PUSH1 0x0 PUSH2 0x18DA PUSH1 0x28 DUP4 PUSH2 0x10AF JUMP JUMPDEST SWAP2 POP PUSH2 0x18E5 DUP3 PUSH2 0x187E JUMP JUMPDEST PUSH1 0x40 DUP3 ADD SWAP1 POP SWAP2 SWAP1 POP JUMP JUMPDEST PUSH1 0x0 PUSH1 0x20 DUP3 ADD SWAP1 POP DUP2 DUP2 SUB PUSH1 0x0 DUP4 ADD MSTORE PUSH2 0x1909 DUP2 PUSH2 0x18CD JUMP JUMPDEST SWAP1 POP SWAP2 SWAP1 POP JUMP JUMPDEST PUSH32 0x616C726561647920636F6D706C65746564000000000000000000000000000000 PUSH1 0x0 DUP3 ADD MSTORE POP JUMP JUMPDEST PUSH1 0x0 PUSH2 0x1946 PUSH1 0x11 DUP4 PUSH2 0x10AF JUMP JUMPDEST SWAP2 POP PUSH2 0x1951 DUP3 PUSH2 0x1910 JUMP JUMPDEST PUSH1 0x20 DUP3 ADD SWAP1 POP SWAP2 SWAP1 POP JUMP JUMPDEST PUSH1 0x0 PUSH1 0x20 DUP3 ADD SWAP1 POP DUP2 DUP2 SUB PUSH1 0x0 DUP4 ADD MSTORE PUSH2 0x1975 DUP2 PUSH2 0x1939 JUMP JUMPDEST SWAP1 POP SWAP2 SWAP1 POP JUMP JUMPDEST PUSH32 0x4E487B7100000000000000000000000000000000000000000000000000000000 PUSH1 0x0 MSTORE PUSH1 0x12 PUSH1 0x4 MSTORE PUSH1 0x24 PUSH1 0x0 REVERT JUMPDEST PUSH1 0x0 PUSH2 0x19B6 DUP3 PUSH2 0xD5B JUMP JUMPDEST SWAP2 POP PUSH2 0x19C1 DUP4 PUSH2 0xD5B JUMP JUMPDEST SWAP3 POP DUP3 PUSH2 0x19D1 JUMPI PUSH2 0x19D0 PUSH2 0x197C JUMP JUMPDEST JUMPDEST DUP3 DUP3 DIV SWAP1 POP SWAP3 SWAP2 POP POP JUMP JUMPDEST PUSH32 0x6D616A6F72697479206E6F74206D65657473206D6F72652074686E2035302520 PUSH1 0x0 DUP3 ADD MSTORE PUSH32 0x766F7465206E6F7420666F722074686973000000000000000000000000000000 PUSH1 0x20 DUP3 ADD MSTORE POP JUMP JUMPDEST PUSH1 0x0 PUSH2 0x1A38 PUSH1 0x31 DUP4 PUSH2 0x10AF JUMP JUMPDEST SWAP2 POP PUSH2 0x1A43 DUP3 PUSH2 0x19DC JUMP JUMPDEST PUSH1 0x40 DUP3 ADD SWAP1 POP SWAP2 SWAP1 POP JUMP JUMPDEST PUSH1 0x0 PUSH1 0x20 DUP3 ADD SWAP1 POP DUP2 DUP2 SUB PUSH1 0x0 DUP4 ADD MSTORE PUSH2 0x1A67 DUP2 PUSH2 0x1A2B JUMP JUMPDEST SWAP1 POP SWAP2 SWAP1 POP JUMP INVALID LOG2 PUSH5 0x6970667358 0x22 SLT KECCAK256 SWAP4 LOG4 0xE3 CHAINID DUP14 CALLDATASIZE 0xB5 TIMESTAMP PUSH22 0x203DDD6E3A3A6032CCB7767626F3775F708FF3D46794 0xA6 PUSH5 0x736F6C6343 STOP ADDMOD SLT STOP CALLER "
				},
				"gasEstimates": {
					"creation": {
						"codeDepositCost": "1364000",
						"executionCost": "infinite",
						"totalCost": "infinite"
					},
					"external": {
						"contributors(address)": "2860",
						"createRequests(string,address,uint256)": "infinite",
						"deadline()": "2497",
						"getcontractbalance()": "427",
						"makepayment(uint256)": "infinite",
						"manager()": "2581",
						"minimumcontribution()": "2451",
						"noofcontributors()": "2474",
						"numrequests()": "2453",
						"raisedamount()": "2452",
						"refund()": "infinite",
						"requests(uint256)": "infinite",
						"sendether()": "infinite",
						"target()": "2495",
						"voterequest(uint256)": "infinite"
					}
				},
				"methodIdentifiers": {
					"contributors(address)": "1f6d4942",
					"createRequests(string,address,uint256)": "3eb7647b",
					"deadline()": "29dcb0cf",
					"getcontractbalance()": "f28bf146",
					"makepayment(uint256)": "cbaf8671",
					"manager()": "481c6a75",
					"minimumcontribution()": "a8622ffe",
					"noofcontributors()": "83238798",
					"numrequests()": "0ae0ad71",
					"raisedamount()": "3b644d18",
					"refund()": "590e1ae3",
					"requests(uint256)": "81d12c58",
					"sendether()": "9e791d8b",
					"target()": "d4b83992",
					"voterequest(uint256)": "967c67ce"
				}
			},
			"storageLayout": {
				"storage": [
					{
						"astId": 5,
						"contract": "contracts/crowdfunding project .sol:crowdfundind",
						"label": "contributors",
						"offset": 0,
						"slot": "0",
						"type": "t_mapping(t_address,t_uint256)"
					},
					{
						"astId": 7,
						"contract": "contracts/crowdfunding project .sol:crowdfundind",
						"label": "manager",
						"offset": 0,
						"slot": "1",
						"type": "t_address"
					},
					{
						"astId": 9,
						"contract": "contracts/crowdfunding project .sol:crowdfundind",
						"label": "minimumcontribution",
						"offset": 0,
						"slot": "2",
						"type": "t_uint256"
					},
					{
						"astId": 11,
						"contract": "contracts/crowdfunding project .sol:crowdfundind",
						"label": "deadline",
						"offset": 0,
						"slot": "3",
						"type": "t_uint256"
					},
					{
						"astId": 13,
						"contract": "contracts/crowdfunding project .sol:crowdfundind",
						"label": "target",
						"offset": 0,
						"slot": "4",
						"type": "t_uint256"
					},
					{
						"astId": 15,
						"contract": "contracts/crowdfunding project .sol:crowdfundind",
						"label": "raisedamount",
						"offset": 0,
						"slot": "5",
						"type": "t_uint256"
					},
					{
						"astId": 17,
						"contract": "contracts/crowdfunding project .sol:crowdfundind",
						"label": "noofcontributors",
						"offset": 0,
						"slot": "6",
						"type": "t_uint256"
					},
					{
						"astId": 182,
						"contract": "contracts/crowdfunding project .sol:crowdfundind",
						"label": "requests",
						"offset": 0,
						"slot": "7",
						"type": "t_mapping(t_uint256,t_struct(Request)177_storage)"
					},
					{
						"astId": 184,
						"contract": "contracts/crowdfunding project .sol:crowdfundind",
						"label": "numrequests",
						"offset": 0,
						"slot": "8",
						"type": "t_uint256"
					}
				],
				"types": {
					"t_address": {
						"encoding": "inplace",
						"label": "address",
						"numberOfBytes": "20"
					},
					"t_address_payable": {
						"encoding": "inplace",
						"label": "address payable",
						"numberOfBytes": "20"
					},
					"t_bool": {
						"encoding": "inplace",
						"label": "bool",
						"numberOfBytes": "1"
					},
					"t_mapping(t_address,t_bool)": {
						"encoding": "mapping",
						"key": "t_address",
						"label": "mapping(address => bool)",
						"numberOfBytes": "32",
						"value": "t_bool"
					},
					"t_mapping(t_address,t_uint256)": {
						"encoding": "mapping",
						"key": "t_address",
						"label": "mapping(address => uint256)",
						"numberOfBytes": "32",
						"value": "t_uint256"
					},
					"t_mapping(t_uint256,t_struct(Request)177_storage)": {
						"encoding": "mapping",
						"key": "t_uint256",
						"label": "mapping(uint256 => struct crowdfundind.Request)",
						"numberOfBytes": "32",
						"value": "t_struct(Request)177_storage"
					},
					"t_string_storage": {
						"encoding": "bytes",
						"label": "string",
						"numberOfBytes": "32"
					},
					"t_struct(Request)177_storage": {
						"encoding": "inplace",
						"label": "struct crowdfundind.Request",
						"members": [
							{
								"astId": 164,
								"contract": "contracts/crowdfunding project .sol:crowdfundind",
								"label": "description",
								"offset": 0,
								"slot": "0",
								"type": "t_string_storage"
							},
							{
								"astId": 166,
								"contract": "contracts/crowdfunding project .sol:crowdfundind",
								"label": "receipient",
								"offset": 0,
								"slot": "1",
								"type": "t_address_payable"
							},
							{
								"astId": 168,
								"contract": "contracts/crowdfunding project .sol:crowdfundind",
								"label": "value",
								"offset": 0,
								"slot": "2",
								"type": "t_uint256"
							},
							{
								"astId": 170,
								"contract": "contracts/crowdfunding project .sol:crowdfundind",
								"label": "votingcompleted",
								"offset": 0,
								"slot": "3",
								"type": "t_bool"
							},
							{
								"astId": 172,
								"contract": "contracts/crowdfunding project .sol:crowdfundind",
								"label": "noofvoters",
								"offset": 0,
								"slot": "4",
								"type": "t_uint256"
							},
							{
								"astId": 176,
								"contract": "contracts/crowdfunding project .sol:crowdfundind",
								"label": "voters",
								"offset": 0,
								"slot": "5",
								"type": "t_mapping(t_address,t_bool)"
							}
						],
						"numberOfBytes": "192"
					},
					"t_uint256": {
						"encoding": "inplace",
						"label": "uint256",
						"numberOfBytes": "32"
					}
				}
			},
			"userdoc": {
				"kind": "user",
				"methods": {},
				"version": 1
			}
		}
	}
}