{
	"contracts/sendingether.sol": {
		"receiveether": {
			"abi": [
				{
					"anonymous": false,
					"inputs": [
						{
							"indexed": false,
							"internalType": "string",
							"name": "text",
							"type": "string"
						},
						{
							"indexed": false,
							"internalType": "address",
							"name": "sender",
							"type": "address"
						},
						{
							"indexed": false,
							"internalType": "uint256",
							"name": "value",
							"type": "uint256"
						},
						{
							"indexed": false,
							"internalType": "bytes",
							"name": "data",
							"type": "bytes"
						}
					],
					"name": "bottomlog",
					"type": "event"
				},
				{
					"stateMutability": "payable",
					"type": "fallback"
				},
				{
					"inputs": [],
					"name": "getbalance",
					"outputs": [
						{
							"internalType": "uint256",
							"name": "",
							"type": "uint256"
						}
					],
					"stateMutability": "view",
					"type": "function"
				},
				{
					"stateMutability": "payable",
					"type": "receive"
				}
			],
			"devdoc": {
				"kind": "dev",
				"methods": {},
				"version": 1
			},
			"evm": {
				"assembly": "    /* \"contracts/sendingether.sol\":227:1038  contract receiveether{... */\n  mstore(0x40, 0x80)\n  callvalue\n  dup1\n  iszero\n  tag_1\n  jumpi\n  0x00\n  dup1\n  revert\ntag_1:\n  pop\n  dataSize(sub_0)\n  dup1\n  dataOffset(sub_0)\n  0x00\n  codecopy\n  0x00\n  return\nstop\n\nsub_0: assembly {\n        /* \"contracts/sendingether.sol\":227:1038  contract receiveether{... */\n      mstore(0x40, 0x80)\n      jumpi(tag_1, lt(calldatasize, 0x04))\n      shr(0xe0, calldataload(0x00))\n      dup1\n      0x4d9b3d5d\n      eq\n      tag_3\n      jumpi\n      jump(tag_2)\n    tag_1:\n      jumpi(tag_2, calldatasize)\n      stop\n    tag_2:\n        /* \"contracts/sendingether.sol\":868:922  bottomlog(\"fallback\", msg.sender, msg.value, msg.data) */\n      0x5acd798d03cfcdfc9627c5b604fa0408db756157aa2fb734773de4d34ab8fc1c\n        /* \"contracts/sendingether.sol\":890:900  msg.sender */\n      caller\n        /* \"contracts/sendingether.sol\":902:911  msg.value */\n      callvalue\n        /* \"contracts/sendingether.sol\":913:921  msg.data */\n      0x00\n      calldatasize\n        /* \"contracts/sendingether.sol\":868:922  bottomlog(\"fallback\", msg.sender, msg.value, msg.data) */\n      mload(0x40)\n      tag_8\n      swap5\n      swap4\n      swap3\n      swap2\n      swap1\n      tag_9\n      jump\t// in\n    tag_8:\n      mload(0x40)\n      dup1\n      swap2\n      sub\n      swap1\n      log1\n        /* \"contracts/sendingether.sol\":227:1038  contract receiveether{... */\n      stop\n        /* \"contracts/sendingether.sol\":938:1033  function getbalance() public view returns (uint){... */\n    tag_3:\n      callvalue\n      dup1\n      iszero\n      tag_10\n      jumpi\n      0x00\n      dup1\n      revert\n    tag_10:\n      pop\n      tag_11\n      tag_12\n      jump\t// in\n    tag_11:\n      mload(0x40)\n      tag_13\n      swap2\n      swap1\n      tag_14\n      jump\t// in\n    tag_13:\n      mload(0x40)\n      dup1\n      swap2\n      sub\n      swap1\n      return\n    tag_12:\n        /* \"contracts/sendingether.sol\":981:985  uint */\n      0x00\n        /* \"contracts/sendingether.sol\":1004:1025  address(this).balance */\n      selfbalance\n        /* \"contracts/sendingether.sol\":997:1025  return address(this).balance */\n      swap1\n      pop\n        /* \"contracts/sendingether.sol\":938:1033  function getbalance() public view returns (uint){... */\n      swap1\n      jump\t// out\n        /* \"#utility.yul\":7:176   */\n    tag_16:\n        /* \"#utility.yul\":91:102   */\n      0x00\n        /* \"#utility.yul\":125:131   */\n      dup3\n        /* \"#utility.yul\":120:123   */\n      dup3\n        /* \"#utility.yul\":113:132   */\n      mstore\n        /* \"#utility.yul\":165:169   */\n      0x20\n        /* \"#utility.yul\":160:163   */\n      dup3\n        /* \"#utility.yul\":156:170   */\n      add\n        /* \"#utility.yul\":141:170   */\n      swap1\n      pop\n        /* \"#utility.yul\":7:176   */\n      swap3\n      swap2\n      pop\n      pop\n      jump\t// out\n        /* \"#utility.yul\":182:340   */\n    tag_17:\n        /* \"#utility.yul\":322:332   */\n      0x66616c6c6261636b000000000000000000000000000000000000000000000000\n        /* \"#utility.yul\":318:319   */\n      0x00\n        /* \"#utility.yul\":310:316   */\n      dup3\n        /* \"#utility.yul\":306:320   */\n      add\n        /* \"#utility.yul\":299:333   */\n      mstore\n        /* \"#utility.yul\":182:340   */\n      pop\n      jump\t// out\n        /* \"#utility.yul\":346:711   */\n    tag_18:\n        /* \"#utility.yul\":488:491   */\n      0x00\n        /* \"#utility.yul\":509:575   */\n      tag_32\n        /* \"#utility.yul\":573:574   */\n      0x08\n        /* \"#utility.yul\":568:571   */\n      dup4\n        /* \"#utility.yul\":509:575   */\n      tag_16\n      jump\t// in\n    tag_32:\n        /* \"#utility.yul\":502:575   */\n      swap2\n      pop\n        /* \"#utility.yul\":584:677   */\n      tag_33\n        /* \"#utility.yul\":673:676   */\n      dup3\n        /* \"#utility.yul\":584:677   */\n      tag_17\n      jump\t// in\n    tag_33:\n        /* \"#utility.yul\":702:704   */\n      0x20\n        /* \"#utility.yul\":697:700   */\n      dup3\n        /* \"#utility.yul\":693:705   */\n      add\n        /* \"#utility.yul\":686:705   */\n      swap1\n      pop\n        /* \"#utility.yul\":346:711   */\n      swap2\n      swap1\n      pop\n      jump\t// out\n        /* \"#utility.yul\":717:843   */\n    tag_19:\n        /* \"#utility.yul\":754:761   */\n      0x00\n        /* \"#utility.yul\":794:836   */\n      0xffffffffffffffffffffffffffffffffffffffff\n        /* \"#utility.yul\":787:792   */\n      dup3\n        /* \"#utility.yul\":783:837   */\n      and\n        /* \"#utility.yul\":772:837   */\n      swap1\n      pop\n        /* \"#utility.yul\":717:843   */\n      swap2\n      swap1\n      pop\n      jump\t// out\n        /* \"#utility.yul\":849:945   */\n    tag_20:\n        /* \"#utility.yul\":886:893   */\n      0x00\n        /* \"#utility.yul\":915:939   */\n      tag_36\n        /* \"#utility.yul\":933:938   */\n      dup3\n        /* \"#utility.yul\":915:939   */\n      tag_19\n      jump\t// in\n    tag_36:\n        /* \"#utility.yul\":904:939   */\n      swap1\n      pop\n        /* \"#utility.yul\":849:945   */\n      swap2\n      swap1\n      pop\n      jump\t// out\n        /* \"#utility.yul\":951:1069   */\n    tag_21:\n        /* \"#utility.yul\":1038:1062   */\n      tag_38\n        /* \"#utility.yul\":1056:1061   */\n      dup2\n        /* \"#utility.yul\":1038:1062   */\n      tag_20\n      jump\t// in\n    tag_38:\n        /* \"#utility.yul\":1033:1036   */\n      dup3\n        /* \"#utility.yul\":1026:1063   */\n      mstore\n        /* \"#utility.yul\":951:1069   */\n      pop\n      pop\n      jump\t// out\n        /* \"#utility.yul\":1075:1152   */\n    tag_22:\n        /* \"#utility.yul\":1112:1119   */\n      0x00\n        /* \"#utility.yul\":1141:1146   */\n      dup2\n        /* \"#utility.yul\":1130:1146   */\n      swap1\n      pop\n        /* \"#utility.yul\":1075:1152   */\n      swap2\n      swap1\n      pop\n      jump\t// out\n        /* \"#utility.yul\":1158:1276   */\n    tag_23:\n        /* \"#utility.yul\":1245:1269   */\n      tag_41\n        /* \"#utility.yul\":1263:1268   */\n      dup2\n        /* \"#utility.yul\":1245:1269   */\n      tag_22\n      jump\t// in\n    tag_41:\n        /* \"#utility.yul\":1240:1243   */\n      dup3\n        /* \"#utility.yul\":1233:1270   */\n      mstore\n        /* \"#utility.yul\":1158:1276   */\n      pop\n      pop\n      jump\t// out\n        /* \"#utility.yul\":1282:1450   */\n    tag_24:\n        /* \"#utility.yul\":1365:1376   */\n      0x00\n        /* \"#utility.yul\":1399:1405   */\n      dup3\n        /* \"#utility.yul\":1394:1397   */\n      dup3\n        /* \"#utility.yul\":1387:1406   */\n      mstore\n        /* \"#utility.yul\":1439:1443   */\n      0x20\n        /* \"#utility.yul\":1434:1437   */\n      dup3\n        /* \"#utility.yul\":1430:1444   */\n      add\n        /* \"#utility.yul\":1415:1444   */\n      swap1\n      pop\n        /* \"#utility.yul\":1282:1450   */\n      swap3\n      swap2\n      pop\n      pop\n      jump\t// out\n        /* \"#utility.yul\":1456:1602   */\n    tag_25:\n        /* \"#utility.yul\":1553:1559   */\n      dup3\n        /* \"#utility.yul\":1548:1551   */\n      dup2\n        /* \"#utility.yul\":1543:1546   */\n      dup4\n        /* \"#utility.yul\":1530:1560   */\n      calldatacopy\n        /* \"#utility.yul\":1594:1595   */\n      0x00\n        /* \"#utility.yul\":1585:1591   */\n      dup4\n        /* \"#utility.yul\":1580:1583   */\n      dup4\n        /* \"#utility.yul\":1576:1592   */\n      add\n        /* \"#utility.yul\":1569:1596   */\n      mstore\n        /* \"#utility.yul\":1456:1602   */\n      pop\n      pop\n      pop\n      jump\t// out\n        /* \"#utility.yul\":1608:1710   */\n    tag_26:\n        /* \"#utility.yul\":1649:1655   */\n      0x00\n        /* \"#utility.yul\":1700:1702   */\n      0x1f\n        /* \"#utility.yul\":1696:1703   */\n      not\n        /* \"#utility.yul\":1691:1693   */\n      0x1f\n        /* \"#utility.yul\":1684:1689   */\n      dup4\n        /* \"#utility.yul\":1680:1694   */\n      add\n        /* \"#utility.yul\":1676:1704   */\n      and\n        /* \"#utility.yul\":1666:1704   */\n      swap1\n      pop\n        /* \"#utility.yul\":1608:1710   */\n      swap2\n      swap1\n      pop\n      jump\t// out\n        /* \"#utility.yul\":1738:2052   */\n    tag_27:\n        /* \"#utility.yul\":1834:1837   */\n      0x00\n        /* \"#utility.yul\":1855:1925   */\n      tag_46\n        /* \"#utility.yul\":1918:1924   */\n      dup4\n        /* \"#utility.yul\":1913:1916   */\n      dup6\n        /* \"#utility.yul\":1855:1925   */\n      tag_24\n      jump\t// in\n    tag_46:\n        /* \"#utility.yul\":1848:1925   */\n      swap4\n      pop\n        /* \"#utility.yul\":1935:1991   */\n      tag_47\n        /* \"#utility.yul\":1984:1990   */\n      dup4\n        /* \"#utility.yul\":1979:1982   */\n      dup6\n        /* \"#utility.yul\":1972:1977   */\n      dup5\n        /* \"#utility.yul\":1935:1991   */\n      tag_25\n      jump\t// in\n    tag_47:\n        /* \"#utility.yul\":2016:2045   */\n      tag_48\n        /* \"#utility.yul\":2038:2044   */\n      dup4\n        /* \"#utility.yul\":2016:2045   */\n      tag_26\n      jump\t// in\n    tag_48:\n        /* \"#utility.yul\":2011:2014   */\n      dup5\n        /* \"#utility.yul\":2007:2046   */\n      add\n        /* \"#utility.yul\":2000:2046   */\n      swap1\n      pop\n        /* \"#utility.yul\":1738:2052   */\n      swap4\n      swap3\n      pop\n      pop\n      pop\n      jump\t// out\n        /* \"#utility.yul\":2058:2915   */\n    tag_9:\n        /* \"#utility.yul\":2336:2340   */\n      0x00\n        /* \"#utility.yul\":2374:2377   */\n      0x80\n        /* \"#utility.yul\":2363:2372   */\n      dup3\n        /* \"#utility.yul\":2359:2378   */\n      add\n        /* \"#utility.yul\":2351:2378   */\n      swap1\n      pop\n        /* \"#utility.yul\":2424:2433   */\n      dup2\n        /* \"#utility.yul\":2418:2422   */\n      dup2\n        /* \"#utility.yul\":2414:2434   */\n      sub\n        /* \"#utility.yul\":2410:2411   */\n      0x00\n        /* \"#utility.yul\":2399:2408   */\n      dup4\n        /* \"#utility.yul\":2395:2412   */\n      add\n        /* \"#utility.yul\":2388:2435   */\n      mstore\n        /* \"#utility.yul\":2452:2583   */\n      tag_50\n        /* \"#utility.yul\":2578:2582   */\n      dup2\n        /* \"#utility.yul\":2452:2583   */\n      tag_18\n      jump\t// in\n    tag_50:\n        /* \"#utility.yul\":2444:2583   */\n      swap1\n      pop\n        /* \"#utility.yul\":2593:2665   */\n      tag_51\n        /* \"#utility.yul\":2661:2663   */\n      0x20\n        /* \"#utility.yul\":2650:2659   */\n      dup4\n        /* \"#utility.yul\":2646:2664   */\n      add\n        /* \"#utility.yul\":2637:2643   */\n      dup8\n        /* \"#utility.yul\":2593:2665   */\n      tag_21\n      jump\t// in\n    tag_51:\n        /* \"#utility.yul\":2675:2747   */\n      tag_52\n        /* \"#utility.yul\":2743:2745   */\n      0x40\n        /* \"#utility.yul\":2732:2741   */\n      dup4\n        /* \"#utility.yul\":2728:2746   */\n      add\n        /* \"#utility.yul\":2719:2725   */\n      dup7\n        /* \"#utility.yul\":2675:2747   */\n      tag_23\n      jump\t// in\n    tag_52:\n        /* \"#utility.yul\":2794:2803   */\n      dup2\n        /* \"#utility.yul\":2788:2792   */\n      dup2\n        /* \"#utility.yul\":2784:2804   */\n      sub\n        /* \"#utility.yul\":2779:2781   */\n      0x60\n        /* \"#utility.yul\":2768:2777   */\n      dup4\n        /* \"#utility.yul\":2764:2782   */\n      add\n        /* \"#utility.yul\":2757:2805   */\n      mstore\n        /* \"#utility.yul\":2822:2908   */\n      tag_53\n        /* \"#utility.yul\":2903:2907   */\n      dup2\n        /* \"#utility.yul\":2894:2900   */\n      dup5\n        /* \"#utility.yul\":2886:2892   */\n      dup7\n        /* \"#utility.yul\":2822:2908   */\n      tag_27\n      jump\t// in\n    tag_53:\n        /* \"#utility.yul\":2814:2908   */\n      swap1\n      pop\n        /* \"#utility.yul\":2058:2915   */\n      swap6\n      swap5\n      pop\n      pop\n      pop\n      pop\n      pop\n      jump\t// out\n        /* \"#utility.yul\":2921:3143   */\n    tag_14:\n        /* \"#utility.yul\":3014:3018   */\n      0x00\n        /* \"#utility.yul\":3052:3054   */\n      0x20\n        /* \"#utility.yul\":3041:3050   */\n      dup3\n        /* \"#utility.yul\":3037:3055   */\n      add\n        /* \"#utility.yul\":3029:3055   */\n      swap1\n      pop\n        /* \"#utility.yul\":3065:3136   */\n      tag_55\n        /* \"#utility.yul\":3133:3134   */\n      0x00\n        /* \"#utility.yul\":3122:3131   */\n      dup4\n        /* \"#utility.yul\":3118:3135   */\n      add\n        /* \"#utility.yul\":3109:3115   */\n      dup5\n        /* \"#utility.yul\":3065:3136   */\n      tag_23\n      jump\t// in\n    tag_55:\n        /* \"#utility.yul\":2921:3143   */\n      swap3\n      swap2\n      pop\n      pop\n      jump\t// out\n\n    auxdata: 0xa26469706673582212200929e722791b14fdd3f89637dc9fdbfeb718f27207e19eae100e0caf359a81ac64736f6c63430008120033\n}\n",
				"bytecode": {
					"linkReferences": {},
					"object": "608060405234801561001057600080fd5b50610255806100206000396000f3fe6080604052600436106100225760003560e01c80634d9b3d5d1461006957610029565b3661002957005b7f5acd798d03cfcdfc9627c5b604fa0408db756157aa2fb734773de4d34ab8fc1c333460003660405161005f94939291906101b1565b60405180910390a1005b34801561007557600080fd5b5061007e610094565b60405161008b9190610204565b60405180910390f35b600047905090565b600082825260208201905092915050565b7f66616c6c6261636b000000000000000000000000000000000000000000000000600082015250565b60006100e360088361009c565b91506100ee826100ad565b602082019050919050565b600073ffffffffffffffffffffffffffffffffffffffff82169050919050565b6000610124826100f9565b9050919050565b61013481610119565b82525050565b6000819050919050565b61014d8161013a565b82525050565b600082825260208201905092915050565b82818337600083830152505050565b6000601f19601f8301169050919050565b60006101908385610153565b935061019d838584610164565b6101a683610173565b840190509392505050565b600060808201905081810360008301526101ca816100d6565b90506101d9602083018761012b565b6101e66040830186610144565b81810360608301526101f9818486610184565b905095945050505050565b60006020820190506102196000830184610144565b9291505056fea26469706673582212200929e722791b14fdd3f89637dc9fdbfeb718f27207e19eae100e0caf359a81ac64736f6c63430008120033",
					"opcodes": "PUSH1 0x80 PUSH1 0x40 MSTORE CALLVALUE DUP1 ISZERO PUSH2 0x10 JUMPI PUSH1 0x0 DUP1 REVERT JUMPDEST POP PUSH2 0x255 DUP1 PUSH2 0x20 PUSH1 0x0 CODECOPY PUSH1 0x0 RETURN INVALID PUSH1 0x80 PUSH1 0x40 MSTORE PUSH1 0x4 CALLDATASIZE LT PUSH2 0x22 JUMPI PUSH1 0x0 CALLDATALOAD PUSH1 0xE0 SHR DUP1 PUSH4 0x4D9B3D5D EQ PUSH2 0x69 JUMPI PUSH2 0x29 JUMP JUMPDEST CALLDATASIZE PUSH2 0x29 JUMPI STOP JUMPDEST PUSH32 0x5ACD798D03CFCDFC9627C5B604FA0408DB756157AA2FB734773DE4D34AB8FC1C CALLER CALLVALUE PUSH1 0x0 CALLDATASIZE PUSH1 0x40 MLOAD PUSH2 0x5F SWAP5 SWAP4 SWAP3 SWAP2 SWAP1 PUSH2 0x1B1 JUMP JUMPDEST PUSH1 0x40 MLOAD DUP1 SWAP2 SUB SWAP1 LOG1 STOP JUMPDEST CALLVALUE DUP1 ISZERO PUSH2 0x75 JUMPI PUSH1 0x0 DUP1 REVERT JUMPDEST POP PUSH2 0x7E PUSH2 0x94 JUMP JUMPDEST PUSH1 0x40 MLOAD PUSH2 0x8B SWAP2 SWAP1 PUSH2 0x204 JUMP JUMPDEST PUSH1 0x40 MLOAD DUP1 SWAP2 SUB SWAP1 RETURN JUMPDEST PUSH1 0x0 SELFBALANCE SWAP1 POP SWAP1 JUMP JUMPDEST PUSH1 0x0 DUP3 DUP3 MSTORE PUSH1 0x20 DUP3 ADD SWAP1 POP SWAP3 SWAP2 POP POP JUMP JUMPDEST PUSH32 0x66616C6C6261636B000000000000000000000000000000000000000000000000 PUSH1 0x0 DUP3 ADD MSTORE POP JUMP JUMPDEST PUSH1 0x0 PUSH2 0xE3 PUSH1 0x8 DUP4 PUSH2 0x9C JUMP JUMPDEST SWAP2 POP PUSH2 0xEE DUP3 PUSH2 0xAD JUMP JUMPDEST PUSH1 0x20 DUP3 ADD SWAP1 POP SWAP2 SWAP1 POP JUMP JUMPDEST PUSH1 0x0 PUSH20 0xFFFFFFFFFFFFFFFFFFFFFFFFFFFFFFFFFFFFFFFF DUP3 AND SWAP1 POP SWAP2 SWAP1 POP JUMP JUMPDEST PUSH1 0x0 PUSH2 0x124 DUP3 PUSH2 0xF9 JUMP JUMPDEST SWAP1 POP SWAP2 SWAP1 POP JUMP JUMPDEST PUSH2 0x134 DUP2 PUSH2 0x119 JUMP JUMPDEST DUP3 MSTORE POP POP JUMP JUMPDEST PUSH1 0x0 DUP2 SWAP1 POP SWAP2 SWAP1 POP JUMP JUMPDEST PUSH2 0x14D DUP2 PUSH2 0x13A JUMP JUMPDEST DUP3 MSTORE POP POP JUMP JUMPDEST PUSH1 0x0 DUP3 DUP3 MSTORE PUSH1 0x20 DUP3 ADD SWAP1 POP SWAP3 SWAP2 POP POP JUMP JUMPDEST DUP3 DUP2 DUP4 CALLDATACOPY PUSH1 0x0 DUP4 DUP4 ADD MSTORE POP POP POP JUMP JUMPDEST PUSH1 0x0 PUSH1 0x1F NOT PUSH1 0x1F DUP4 ADD AND SWAP1 POP SWAP2 SWAP1 POP JUMP JUMPDEST PUSH1 0x0 PUSH2 0x190 DUP4 DUP6 PUSH2 0x153 JUMP JUMPDEST SWAP4 POP PUSH2 0x19D DUP4 DUP6 DUP5 PUSH2 0x164 JUMP JUMPDEST PUSH2 0x1A6 DUP4 PUSH2 0x173 JUMP JUMPDEST DUP5 ADD SWAP1 POP SWAP4 SWAP3 POP POP POP JUMP JUMPDEST PUSH1 0x0 PUSH1 0x80 DUP3 ADD SWAP1 POP DUP2 DUP2 SUB PUSH1 0x0 DUP4 ADD MSTORE PUSH2 0x1CA DUP2 PUSH2 0xD6 JUMP JUMPDEST SWAP1 POP PUSH2 0x1D9 PUSH1 0x20 DUP4 ADD DUP8 PUSH2 0x12B JUMP JUMPDEST PUSH2 0x1E6 PUSH1 0x40 DUP4 ADD DUP7 PUSH2 0x144 JUMP JUMPDEST DUP2 DUP2 SUB PUSH1 0x60 DUP4 ADD MSTORE PUSH2 0x1F9 DUP2 DUP5 DUP7 PUSH2 0x184 JUMP JUMPDEST SWAP1 POP SWAP6 SWAP5 POP POP POP POP POP JUMP JUMPDEST PUSH1 0x0 PUSH1 0x20 DUP3 ADD SWAP1 POP PUSH2 0x219 PUSH1 0x0 DUP4 ADD DUP5 PUSH2 0x144 JUMP JUMPDEST SWAP3 SWAP2 POP POP JUMP INVALID LOG2 PUSH5 0x6970667358 0x22 SLT KECCAK256 MULMOD 0x29 0xE7 0x22 PUSH26 0x1B14FDD3F89637DC9FDBFEB718F27207E19EAE100E0CAF359A81 0xAC PUSH5 0x736F6C6343 STOP ADDMOD SLT STOP CALLER "
				},
				"gasEstimates": {
					"creation": {
						"codeDepositCost": "119400",
						"executionCost": "165",
						"totalCost": "119565"
					},
					"external": {
						"": "infinite",
						"getbalance()": "317"
					}
				},
				"methodIdentifiers": {
					"getbalance()": "4d9b3d5d"
				}
			},
			"storageLayout": {
				"storage": [],
				"types": null
			},
			"userdoc": {
				"kind": "user",
				"methods": {},
				"version": 1
			}
		}
	}
}