{
	"contracts/ZombieGame.sol": {
		"GetZombie": {
			"abi": [
				{
					"inputs": [
						{
							"internalType": "address",
							"name": "",
							"type": "address"
						},
						{
							"internalType": "address",
							"name": "",
							"type": "address"
						}
					],
					"name": "Allowance",
					"outputs": [
						{
							"internalType": "uint256",
							"name": "",
							"type": "uint256"
						}
					],
					"stateMutability": "view",
					"type": "function"
				},
				{
					"inputs": [
						{
							"internalType": "uint256",
							"name": "id",
							"type": "uint256"
						}
					],
					"name": "BuyOnRent",
					"outputs": [
						{
							"internalType": "bool",
							"name": "",
							"type": "bool"
						}
					],
					"stateMutability": "payable",
					"type": "function"
				},
				{
					"inputs": [
						{
							"internalType": "string",
							"name": "plan",
							"type": "string"
						},
						{
							"internalType": "string",
							"name": "name",
							"type": "string"
						}
					],
					"name": "BuyZombie",
					"outputs": [
						{
							"internalType": "bool",
							"name": "",
							"type": "bool"
						}
					],
					"stateMutability": "payable",
					"type": "function"
				},
				{
					"inputs": [
						{
							"internalType": "uint256",
							"name": "YourZombieId",
							"type": "uint256"
						}
					],
					"name": "FightWithBot",
					"outputs": [],
					"stateMutability": "nonpayable",
					"type": "function"
				},
				{
					"inputs": [
						{
							"internalType": "uint256",
							"name": "zombieID",
							"type": "uint256"
						}
					],
					"name": "FightWithZombie",
					"outputs": [],
					"stateMutability": "nonpayable",
					"type": "function"
				},
				{
					"inputs": [
						{
							"internalType": "address",
							"name": "",
							"type": "address"
						}
					],
					"name": "FreeNft",
					"outputs": [
						{
							"internalType": "bool",
							"name": "",
							"type": "bool"
						}
					],
					"stateMutability": "view",
					"type": "function"
				},
				{
					"inputs": [],
					"name": "FreeZombie",
					"outputs": [],
					"stateMutability": "nonpayable",
					"type": "function"
				},
				{
					"inputs": [
						{
							"internalType": "uint256",
							"name": "id",
							"type": "uint256"
						},
						{
							"internalType": "uint256",
							"name": "RentAmount",
							"type": "uint256"
						}
					],
					"name": "GiveOnRent",
					"outputs": [],
					"stateMutability": "nonpayable",
					"type": "function"
				},
				{
					"inputs": [
						{
							"internalType": "uint256",
							"name": "",
							"type": "uint256"
						}
					],
					"name": "MintTime",
					"outputs": [
						{
							"internalType": "uint256",
							"name": "",
							"type": "uint256"
						}
					],
					"stateMutability": "view",
					"type": "function"
				},
				{
					"inputs": [
						{
							"internalType": "uint256",
							"name": "id",
							"type": "uint256"
						}
					],
					"name": "RemoveRent",
					"outputs": [],
					"stateMutability": "nonpayable",
					"type": "function"
				},
				{
					"inputs": [
						{
							"internalType": "uint256",
							"name": "",
							"type": "uint256"
						}
					],
					"name": "RentedbyID",
					"outputs": [
						{
							"internalType": "address",
							"name": "",
							"type": "address"
						}
					],
					"stateMutability": "view",
					"type": "function"
				},
				{
					"inputs": [
						{
							"internalType": "uint256",
							"name": "",
							"type": "uint256"
						}
					],
					"name": "TakenNft",
					"outputs": [
						{
							"internalType": "bool",
							"name": "",
							"type": "bool"
						}
					],
					"stateMutability": "view",
					"type": "function"
				},
				{
					"inputs": [
						{
							"internalType": "uint256",
							"name": "",
							"type": "uint256"
						}
					],
					"name": "Timing",
					"outputs": [
						{
							"internalType": "uint256",
							"name": "",
							"type": "uint256"
						}
					],
					"stateMutability": "view",
					"type": "function"
				},
				{
					"inputs": [
						{
							"internalType": "address",
							"name": "to",
							"type": "address"
						},
						{
							"internalType": "uint256",
							"name": "id",
							"type": "uint256"
						}
					],
					"name": "approve",
					"outputs": [],
					"stateMutability": "nonpayable",
					"type": "function"
				},
				{
					"inputs": [
						{
							"internalType": "address",
							"name": "",
							"type": "address"
						}
					],
					"name": "buyOnRent",
					"outputs": [
						{
							"internalType": "bool",
							"name": "",
							"type": "bool"
						}
					],
					"stateMutability": "view",
					"type": "function"
				},
				{
					"inputs": [
						{
							"internalType": "uint256",
							"name": "id",
							"type": "uint256"
						}
					],
					"name": "convertXP",
					"outputs": [],
					"stateMutability": "nonpayable",
					"type": "function"
				},
				{
					"inputs": [
						{
							"internalType": "uint256",
							"name": "zombieId",
							"type": "uint256"
						}
					],
					"name": "getDetails",
					"outputs": [
						{
							"components": [
								{
									"internalType": "string",
									"name": "plan",
									"type": "string"
								},
								{
									"internalType": "string",
									"name": "name",
									"type": "string"
								},
								{
									"internalType": "uint256",
									"name": "dna",
									"type": "uint256"
								},
								{
									"internalType": "uint256",
									"name": "level",
									"type": "uint256"
								},
								{
									"internalType": "uint256",
									"name": "xp",
									"type": "uint256"
								},
								{
									"internalType": "uint256",
									"name": "TotalMatch",
									"type": "uint256"
								},
								{
									"internalType": "uint256",
									"name": "MatchLeft",
									"type": "uint256"
								},
								{
									"internalType": "uint256",
									"name": "Wins",
									"type": "uint256"
								},
								{
									"internalType": "uint256",
									"name": "Looses",
									"type": "uint256"
								}
							],
							"internalType": "struct ZombieGame.zombieDetails",
							"name": "",
							"type": "tuple"
						}
					],
					"stateMutability": "view",
					"type": "function"
				},
				{
					"inputs": [
						{
							"internalType": "uint256",
							"name": "id",
							"type": "uint256"
						}
					],
					"name": "mineTotalMatch",
					"outputs": [
						{
							"internalType": "bool",
							"name": "",
							"type": "bool"
						}
					],
					"stateMutability": "nonpayable",
					"type": "function"
				},
				{
					"inputs": [
						{
							"internalType": "uint256",
							"name": "",
							"type": "uint256"
						}
					],
					"name": "onRent",
					"outputs": [
						{
							"internalType": "bool",
							"name": "",
							"type": "bool"
						}
					],
					"stateMutability": "view",
					"type": "function"
				},
				{
					"inputs": [
						{
							"internalType": "address",
							"name": "_owner",
							"type": "address"
						}
					],
					"name": "ownerZombies",
					"outputs": [
						{
							"internalType": "uint256[]",
							"name": "",
							"type": "uint256[]"
						}
					],
					"stateMutability": "view",
					"type": "function"
				},
				{
					"inputs": [
						{
							"internalType": "uint256",
							"name": "",
							"type": "uint256"
						}
					],
					"name": "rentAmount",
					"outputs": [
						{
							"internalType": "uint256",
							"name": "",
							"type": "uint256"
						}
					],
					"stateMutability": "view",
					"type": "function"
				},
				{
					"inputs": [
						{
							"internalType": "address",
							"name": "from",
							"type": "address"
						},
						{
							"internalType": "address",
							"name": "to",
							"type": "address"
						},
						{
							"internalType": "uint256",
							"name": "id",
							"type": "uint256"
						}
					],
					"name": "tranferFrom",
					"outputs": [],
					"stateMutability": "nonpayable",
					"type": "function"
				}
			],
			"devdoc": {
				"kind": "dev",
				"methods": {},
				"version": 1
			},
			"evm": {
				"assembly": "    /* \"contracts/ZombieGame.sol\":4143:10735  contract GetZombie is ZombieGame, FightZombies {... */\n  mstore(0x40, 0x80)\n    /* \"contracts/ZombieGame.sol\":501:509  10 ** 16 */\n  0x2386f26fc10000\n    /* \"contracts/ZombieGame.sol\":484:509  uint dnaLength = 10 ** 16 */\n  0x02\n  sstore\n    /* \"contracts/ZombieGame.sol\":4143:10735  contract GetZombie is ZombieGame, FightZombies {... */\n  callvalue\n  dup1\n  iszero\n  tag_1\n  jumpi\n  0x00\n  dup1\n  revert\ntag_1:\n  pop\n  dataSize(sub_0)\n  dup1\n  dataOffset(sub_0)\n  0x00\n  codecopy\n  0x00\n  return\nstop\n\nsub_0: assembly {\n        /* \"contracts/ZombieGame.sol\":4143:10735  contract GetZombie is ZombieGame, FightZombies {... */\n      mstore(0x40, 0x80)\n      jumpi(tag_1, lt(calldatasize, 0x04))\n      shr(0xe0, calldataload(0x00))\n      dup1\n      0xb93a89f7\n      gt\n      tag_24\n      jumpi\n      dup1\n      0xcbc7d367\n      gt\n      tag_25\n      jumpi\n      dup1\n      0xcbc7d367\n      eq\n      tag_18\n      jumpi\n      dup1\n      0xd41b93b1\n      eq\n      tag_19\n      jumpi\n      dup1\n      0xe0c4f15e\n      eq\n      tag_20\n      jumpi\n      dup1\n      0xe70364d4\n      eq\n      tag_21\n      jumpi\n      dup1\n      0xe871d8f3\n      eq\n      tag_22\n      jumpi\n      dup1\n      0xef65bc97\n      eq\n      tag_23\n      jumpi\n      jump(tag_1)\n    tag_25:\n      dup1\n      0xb93a89f7\n      eq\n      tag_13\n      jumpi\n      dup1\n      0xc0342cb4\n      eq\n      tag_14\n      jumpi\n      dup1\n      0xc224f388\n      eq\n      tag_15\n      jumpi\n      dup1\n      0xc583f36a\n      eq\n      tag_16\n      jumpi\n      dup1\n      0xcb9940b7\n      eq\n      tag_17\n      jumpi\n      jump(tag_1)\n    tag_24:\n      dup1\n      0x6dcdd00f\n      gt\n      tag_26\n      jumpi\n      dup1\n      0x6dcdd00f\n      eq\n      tag_7\n      jumpi\n      dup1\n      0x901ac159\n      eq\n      tag_8\n      jumpi\n      dup1\n      0x9264a169\n      eq\n      tag_9\n      jumpi\n      dup1\n      0x9a861a78\n      eq\n      tag_10\n      jumpi\n      dup1\n      0x9f52f1a1\n      eq\n      tag_11\n      jumpi\n      dup1\n      0xb81c3db7\n      eq\n      tag_12\n      jumpi\n      jump(tag_1)\n    tag_26:\n      dup1\n      0x095ea7b3\n      eq\n      tag_2\n      jumpi\n      dup1\n      0x10f9ec13\n      eq\n      tag_3\n      jumpi\n      dup1\n      0x35e1d33c\n      eq\n      tag_4\n      jumpi\n      dup1\n      0x37e14e65\n      eq\n      tag_5\n      jumpi\n      dup1\n      0x3c956b05\n      eq\n      tag_6\n      jumpi\n    tag_1:\n      0x00\n      dup1\n      revert\n        /* \"contracts/ZombieGame.sol\":10091:10236  function approve(address to, uint id) external OnlyOwner(id) {... */\n    tag_2:\n      callvalue\n      dup1\n      iszero\n      tag_27\n      jumpi\n      0x00\n      dup1\n      revert\n    tag_27:\n      pop\n      tag_28\n      0x04\n      dup1\n      calldatasize\n      sub\n      dup2\n      add\n      swap1\n      tag_29\n      swap2\n      swap1\n      tag_30\n      jump\t// in\n    tag_29:\n      tag_31\n      jump\t// in\n    tag_28:\n      stop\n        /* \"contracts/ZombieGame.sol\":4535:4571  mapping (uint => uint) public Timing */\n    tag_3:\n      callvalue\n      dup1\n      iszero\n      tag_32\n      jumpi\n      0x00\n      dup1\n      revert\n    tag_32:\n      pop\n      tag_33\n      0x04\n      dup1\n      calldatasize\n      sub\n      dup2\n      add\n      swap1\n      tag_34\n      swap2\n      swap1\n      tag_35\n      jump\t// in\n    tag_34:\n      tag_36\n      jump\t// in\n    tag_33:\n      mload(0x40)\n      tag_37\n      swap2\n      swap1\n      tag_38\n      jump\t// in\n    tag_37:\n      mload(0x40)\n      dup1\n      swap2\n      sub\n      swap1\n      return\n        /* \"contracts/ZombieGame.sol\":9292:9659  function GiveOnRent(uint id, uint RentAmount) external OnlyOwner(id) {... */\n    tag_4:\n      callvalue\n      dup1\n      iszero\n      tag_39\n      jumpi\n      0x00\n      dup1\n      revert\n    tag_39:\n      pop\n      tag_40\n      0x04\n      dup1\n      calldatasize\n      sub\n      dup2\n      add\n      swap1\n      tag_41\n      swap2\n      swap1\n      tag_42\n      jump\t// in\n    tag_41:\n      tag_43\n      jump\t// in\n    tag_40:\n      stop\n        /* \"contracts/ZombieGame.sol\":5079:5117  mapping (uint => uint) public MintTime */\n    tag_5:\n      callvalue\n      dup1\n      iszero\n      tag_44\n      jumpi\n      0x00\n      dup1\n      revert\n    tag_44:\n      pop\n      tag_45\n      0x04\n      dup1\n      calldatasize\n      sub\n      dup2\n      add\n      swap1\n      tag_46\n      swap2\n      swap1\n      tag_35\n      jump\t// in\n    tag_46:\n      tag_47\n      jump\t// in\n    tag_45:\n      mload(0x40)\n      tag_48\n      swap2\n      swap1\n      tag_38\n      jump\t// in\n    tag_48:\n      mload(0x40)\n      dup1\n      swap2\n      sub\n      swap1\n      return\n        /* \"contracts/ZombieGame.sol\":7140:7640  function ownerZombies(address _owner) public view returns (uint[] memory) {... */\n    tag_6:\n      callvalue\n      dup1\n      iszero\n      tag_49\n      jumpi\n      0x00\n      dup1\n      revert\n    tag_49:\n      pop\n      tag_50\n      0x04\n      dup1\n      calldatasize\n      sub\n      dup2\n      add\n      swap1\n      tag_51\n      swap2\n      swap1\n      tag_52\n      jump\t// in\n    tag_51:\n      tag_53\n      jump\t// in\n    tag_50:\n      mload(0x40)\n      tag_54\n      swap2\n      swap1\n      tag_55\n      jump\t// in\n    tag_54:\n      mload(0x40)\n      dup1\n      swap2\n      sub\n      swap1\n      return\n        /* \"contracts/ZombieGame.sol\":4328:4391  mapping (address => mapping (address => uint)) public Allowance */\n    tag_7:\n      callvalue\n      dup1\n      iszero\n      tag_56\n      jumpi\n      0x00\n      dup1\n      revert\n    tag_56:\n      pop\n      tag_57\n      0x04\n      dup1\n      calldatasize\n      sub\n      dup2\n      add\n      swap1\n      tag_58\n      swap2\n      swap1\n      tag_59\n      jump\t// in\n    tag_58:\n      tag_60\n      jump\t// in\n    tag_57:\n      mload(0x40)\n      tag_61\n      swap2\n      swap1\n      tag_38\n      jump\t// in\n    tag_61:\n      mload(0x40)\n      dup1\n      swap2\n      sub\n      swap1\n      return\n        /* \"contracts/ZombieGame.sol\":4997:5037  mapping (uint => uint) public rentAmount */\n    tag_8:\n      callvalue\n      dup1\n      iszero\n      tag_62\n      jumpi\n      0x00\n      dup1\n      revert\n    tag_62:\n      pop\n      tag_63\n      0x04\n      dup1\n      calldatasize\n      sub\n      dup2\n      add\n      swap1\n      tag_64\n      swap2\n      swap1\n      tag_35\n      jump\t// in\n    tag_64:\n      tag_65\n      jump\t// in\n    tag_63:\n      mload(0x40)\n      tag_66\n      swap2\n      swap1\n      tag_38\n      jump\t// in\n    tag_66:\n      mload(0x40)\n      dup1\n      swap2\n      sub\n      swap1\n      return\n        /* \"contracts/ZombieGame.sol\":10297:10730  function tranferFrom(address from, address to, uint id) external OnlyOwner(id) {... */\n    tag_9:\n      callvalue\n      dup1\n      iszero\n      tag_67\n      jumpi\n      0x00\n      dup1\n      revert\n    tag_67:\n      pop\n      tag_68\n      0x04\n      dup1\n      calldatasize\n      sub\n      dup2\n      add\n      swap1\n      tag_69\n      swap2\n      swap1\n      tag_70\n      jump\t// in\n    tag_69:\n      tag_71\n      jump\t// in\n    tag_68:\n      stop\n        /* \"contracts/ZombieGame.sol\":4768:4810  mapping (address => bool) public buyOnRent */\n    tag_10:\n      callvalue\n      dup1\n      iszero\n      tag_72\n      jumpi\n      0x00\n      dup1\n      revert\n    tag_72:\n      pop\n      tag_73\n      0x04\n      dup1\n      calldatasize\n      sub\n      dup2\n      add\n      swap1\n      tag_74\n      swap2\n      swap1\n      tag_52\n      jump\t// in\n    tag_74:\n      tag_75\n      jump\t// in\n    tag_73:\n      mload(0x40)\n      tag_76\n      swap2\n      swap1\n      tag_77\n      jump\t// in\n    tag_76:\n      mload(0x40)\n      dup1\n      swap2\n      sub\n      swap1\n      return\n        /* \"contracts/ZombieGame.sol\":4670:4708  mapping (uint => bool) public TakenNft */\n    tag_11:\n      callvalue\n      dup1\n      iszero\n      tag_78\n      jumpi\n      0x00\n      dup1\n      revert\n    tag_78:\n      pop\n      tag_79\n      0x04\n      dup1\n      calldatasize\n      sub\n      dup2\n      add\n      swap1\n      tag_80\n      swap2\n      swap1\n      tag_35\n      jump\t// in\n    tag_80:\n      tag_81\n      jump\t// in\n    tag_79:\n      mload(0x40)\n      tag_82\n      swap2\n      swap1\n      tag_77\n      jump\t// in\n    tag_82:\n      mload(0x40)\n      dup1\n      swap2\n      sub\n      swap1\n      return\n        /* \"contracts/ZombieGame.sol\":5675:5915  function FreeZombie() external {... */\n    tag_12:\n      callvalue\n      dup1\n      iszero\n      tag_83\n      jumpi\n      0x00\n      dup1\n      revert\n    tag_83:\n      pop\n      tag_84\n      tag_85\n      jump\t// in\n    tag_84:\n      stop\n        /* \"contracts/ZombieGame.sol\":7726:7851  function getDetails(uint zombieId) external view returns(zombieDetails memory){... */\n    tag_13:\n      callvalue\n      dup1\n      iszero\n      tag_86\n      jumpi\n      0x00\n      dup1\n      revert\n    tag_86:\n      pop\n      tag_87\n      0x04\n      dup1\n      calldatasize\n      sub\n      dup2\n      add\n      swap1\n      tag_88\n      swap2\n      swap1\n      tag_35\n      jump\t// in\n    tag_88:\n      tag_89\n      jump\t// in\n    tag_87:\n      mload(0x40)\n      tag_90\n      swap2\n      swap1\n      tag_91\n      jump\t// in\n    tag_90:\n      mload(0x40)\n      dup1\n      swap2\n      sub\n      swap1\n      return\n        /* \"contracts/ZombieGame.sol\":4199:4239  mapping (address => bool) public FreeNft */\n    tag_14:\n      callvalue\n      dup1\n      iszero\n      tag_92\n      jumpi\n      0x00\n      dup1\n      revert\n    tag_92:\n      pop\n      tag_93\n      0x04\n      dup1\n      calldatasize\n      sub\n      dup2\n      add\n      swap1\n      tag_94\n      swap2\n      swap1\n      tag_52\n      jump\t// in\n    tag_94:\n      tag_95\n      jump\t// in\n    tag_93:\n      mload(0x40)\n      tag_96\n      swap2\n      swap1\n      tag_77\n      jump\t// in\n    tag_96:\n      mload(0x40)\n      dup1\n      swap2\n      sub\n      swap1\n      return\n        /* \"contracts/ZombieGame.sol\":8293:8974  function FightWithZombie(uint zombieID) external {... */\n    tag_15:\n      callvalue\n      dup1\n      iszero\n      tag_97\n      jumpi\n      0x00\n      dup1\n      revert\n    tag_97:\n      pop\n      tag_98\n      0x04\n      dup1\n      calldatasize\n      sub\n      dup2\n      add\n      swap1\n      tag_99\n      swap2\n      swap1\n      tag_35\n      jump\t// in\n    tag_99:\n      tag_100\n      jump\t// in\n    tag_98:\n      stop\n        /* \"contracts/ZombieGame.sol\":4895:4938  mapping (uint => address) public RentedbyID */\n    tag_16:\n      callvalue\n      dup1\n      iszero\n      tag_101\n      jumpi\n      0x00\n      dup1\n      revert\n    tag_101:\n      pop\n      tag_102\n      0x04\n      dup1\n      calldatasize\n      sub\n      dup2\n      add\n      swap1\n      tag_103\n      swap2\n      swap1\n      tag_35\n      jump\t// in\n    tag_103:\n      tag_104\n      jump\t// in\n    tag_102:\n      mload(0x40)\n      tag_105\n      swap2\n      swap1\n      tag_106\n      jump\t// in\n    tag_105:\n      mload(0x40)\n      dup1\n      swap2\n      sub\n      swap1\n      return\n        /* \"contracts/ZombieGame.sol\":6024:6403  function BuyZombie(string memory plan, string memory name) external payable returns(bool) {... */\n    tag_17:\n      tag_107\n      0x04\n      dup1\n      calldatasize\n      sub\n      dup2\n      add\n      swap1\n      tag_108\n      swap2\n      swap1\n      tag_109\n      jump\t// in\n    tag_108:\n      tag_110\n      jump\t// in\n    tag_107:\n      mload(0x40)\n      tag_111\n      swap2\n      swap1\n      tag_77\n      jump\t// in\n    tag_111:\n      mload(0x40)\n      dup1\n      swap2\n      sub\n      swap1\n      return\n        /* \"contracts/ZombieGame.sol\":7859:8207  function FightWithBot(uint YourZombieId) public {... */\n    tag_18:\n      callvalue\n      dup1\n      iszero\n      tag_112\n      jumpi\n      0x00\n      dup1\n      revert\n    tag_112:\n      pop\n      tag_113\n      0x04\n      dup1\n      calldatasize\n      sub\n      dup2\n      add\n      swap1\n      tag_114\n      swap2\n      swap1\n      tag_35\n      jump\t// in\n    tag_114:\n      tag_115\n      jump\t// in\n    tag_113:\n      stop\n        /* \"contracts/ZombieGame.sol\":9060:9244  function convertXP(uint id) external OnlyOwner(id) {... */\n    tag_19:\n      callvalue\n      dup1\n      iszero\n      tag_116\n      jumpi\n      0x00\n      dup1\n      revert\n    tag_116:\n      pop\n      tag_117\n      0x04\n      dup1\n      calldatasize\n      sub\n      dup2\n      add\n      swap1\n      tag_118\n      swap2\n      swap1\n      tag_35\n      jump\t// in\n    tag_118:\n      tag_119\n      jump\t// in\n    tag_117:\n      stop\n        /* \"contracts/ZombieGame.sol\":9733:10011  function RemoveRent(uint id) external OnlyOwner(id) {... */\n    tag_20:\n      callvalue\n      dup1\n      iszero\n      tag_120\n      jumpi\n      0x00\n      dup1\n      revert\n    tag_120:\n      pop\n      tag_121\n      0x04\n      dup1\n      calldatasize\n      sub\n      dup2\n      add\n      swap1\n      tag_122\n      swap2\n      swap1\n      tag_35\n      jump\t// in\n    tag_122:\n      tag_123\n      jump\t// in\n    tag_121:\n      stop\n        /* \"contracts/ZombieGame.sol\":6451:7079  function BuyOnRent(uint id) external payable returns(bool) {... */\n    tag_21:\n      tag_124\n      0x04\n      dup1\n      calldatasize\n      sub\n      dup2\n      add\n      swap1\n      tag_125\n      swap2\n      swap1\n      tag_35\n      jump\t// in\n    tag_125:\n      tag_126\n      jump\t// in\n    tag_124:\n      mload(0x40)\n      tag_127\n      swap2\n      swap1\n      tag_77\n      jump\t// in\n    tag_127:\n      mload(0x40)\n      dup1\n      swap2\n      sub\n      swap1\n      return\n        /* \"contracts/ZombieGame.sol\":5258:5618  function mineTotalMatch(uint id) external OnlyOwner(id) returns(bool) {... */\n    tag_22:\n      callvalue\n      dup1\n      iszero\n      tag_128\n      jumpi\n      0x00\n      dup1\n      revert\n    tag_128:\n      pop\n      tag_129\n      0x04\n      dup1\n      calldatasize\n      sub\n      dup2\n      add\n      swap1\n      tag_130\n      swap2\n      swap1\n      tag_35\n      jump\t// in\n    tag_130:\n      tag_131\n      jump\t// in\n    tag_129:\n      mload(0x40)\n      tag_132\n      swap2\n      swap1\n      tag_77\n      jump\t// in\n    tag_132:\n      mload(0x40)\n      dup1\n      swap2\n      sub\n      swap1\n      return\n        /* \"contracts/ZombieGame.sol\":4246:4282  mapping (uint => bool) public onRent */\n    tag_23:\n      callvalue\n      dup1\n      iszero\n      tag_133\n      jumpi\n      0x00\n      dup1\n      revert\n    tag_133:\n      pop\n      tag_134\n      0x04\n      dup1\n      calldatasize\n      sub\n      dup2\n      add\n      swap1\n      tag_135\n      swap2\n      swap1\n      tag_35\n      jump\t// in\n    tag_135:\n      tag_136\n      jump\t// in\n    tag_134:\n      mload(0x40)\n      tag_137\n      swap2\n      swap1\n      tag_77\n      jump\t// in\n    tag_137:\n      mload(0x40)\n      dup1\n      swap2\n      sub\n      swap1\n      return\n        /* \"contracts/ZombieGame.sol\":10091:10236  function approve(address to, uint id) external OnlyOwner(id) {... */\n    tag_31:\n        /* \"contracts/ZombieGame.sol\":10148:10150  id */\n      dup1\n        /* \"contracts/ZombieGame.sol\":5204:5214  msg.sender */\n      caller\n        /* \"contracts/ZombieGame.sol\":5179:5214  ZombieOwner[zombieId] == msg.sender */\n      0xffffffffffffffffffffffffffffffffffffffff\n      and\n        /* \"contracts/ZombieGame.sol\":5179:5190  ZombieOwner */\n      0x00\n        /* \"contracts/ZombieGame.sol\":5179:5200  ZombieOwner[zombieId] */\n      dup1\n        /* \"contracts/ZombieGame.sol\":5191:5199  zombieId */\n      dup4\n        /* \"contracts/ZombieGame.sol\":5179:5200  ZombieOwner[zombieId] */\n      dup2\n      mstore\n      0x20\n      add\n      swap1\n      dup2\n      mstore\n      0x20\n      add\n      0x00\n      keccak256\n      0x00\n      swap1\n      sload\n      swap1\n      0x0100\n      exp\n      swap1\n      div\n      0xffffffffffffffffffffffffffffffffffffffff\n      and\n        /* \"contracts/ZombieGame.sol\":5179:5214  ZombieOwner[zombieId] == msg.sender */\n      0xffffffffffffffffffffffffffffffffffffffff\n      and\n      eq\n        /* \"contracts/ZombieGame.sol\":5171:5230  require(ZombieOwner[zombieId] == msg.sender, \"Only Owner.\") */\n      tag_139\n      jumpi\n      mload(0x40)\n      0x08c379a000000000000000000000000000000000000000000000000000000000\n      dup2\n      mstore\n      0x04\n      add\n      tag_140\n      swap1\n      tag_141\n      jump\t// in\n    tag_140:\n      mload(0x40)\n      dup1\n      swap2\n      sub\n      swap1\n      revert\n    tag_139:\n        /* \"contracts/ZombieGame.sol\":10191:10193  id */\n      dup2\n        /* \"contracts/ZombieGame.sol\":10163:10172  Allowance */\n      0x07\n        /* \"contracts/ZombieGame.sol\":10163:10184  Allowance[msg.sender] */\n      0x00\n        /* \"contracts/ZombieGame.sol\":10173:10183  msg.sender */\n      caller\n        /* \"contracts/ZombieGame.sol\":10163:10184  Allowance[msg.sender] */\n      0xffffffffffffffffffffffffffffffffffffffff\n      and\n      0xffffffffffffffffffffffffffffffffffffffff\n      and\n      dup2\n      mstore\n      0x20\n      add\n      swap1\n      dup2\n      mstore\n      0x20\n      add\n      0x00\n      keccak256\n        /* \"contracts/ZombieGame.sol\":10163:10188  Allowance[msg.sender][to] */\n      0x00\n        /* \"contracts/ZombieGame.sol\":10185:10187  to */\n      dup6\n        /* \"contracts/ZombieGame.sol\":10163:10188  Allowance[msg.sender][to] */\n      0xffffffffffffffffffffffffffffffffffffffff\n      and\n      0xffffffffffffffffffffffffffffffffffffffff\n      and\n      dup2\n      mstore\n      0x20\n      add\n      swap1\n      dup2\n      mstore\n      0x20\n      add\n      0x00\n      keccak256\n        /* \"contracts/ZombieGame.sol\":10163:10193  Allowance[msg.sender][to] = id */\n      dup2\n      swap1\n      sstore\n      pop\n        /* \"contracts/ZombieGame.sol\":10226:10228  to */\n      dup3\n        /* \"contracts/ZombieGame.sol\":10204:10211  Approve */\n      0x08\n        /* \"contracts/ZombieGame.sol\":10204:10223  Approve[msg.sender] */\n      0x00\n        /* \"contracts/ZombieGame.sol\":10212:10222  msg.sender */\n      caller\n        /* \"contracts/ZombieGame.sol\":10204:10223  Approve[msg.sender] */\n      0xffffffffffffffffffffffffffffffffffffffff\n      and\n      0xffffffffffffffffffffffffffffffffffffffff\n      and\n      dup2\n      mstore\n      0x20\n      add\n      swap1\n      dup2\n      mstore\n      0x20\n      add\n      0x00\n      keccak256\n      0x00\n        /* \"contracts/ZombieGame.sol\":10204:10228  Approve[msg.sender] = to */\n      0x0100\n      exp\n      dup2\n      sload\n      dup2\n      0xffffffffffffffffffffffffffffffffffffffff\n      mul\n      not\n      and\n      swap1\n      dup4\n      0xffffffffffffffffffffffffffffffffffffffff\n      and\n      mul\n      or\n      swap1\n      sstore\n      pop\n        /* \"contracts/ZombieGame.sol\":10091:10236  function approve(address to, uint id) external OnlyOwner(id) {... */\n      pop\n      pop\n      pop\n      jump\t// out\n        /* \"contracts/ZombieGame.sol\":4535:4571  mapping (uint => uint) public Timing */\n    tag_36:\n      mstore(0x20, 0x09)\n      dup1\n      0x00\n      mstore\n      keccak256(0x00, 0x40)\n      0x00\n      swap2\n      pop\n      swap1\n      pop\n      sload\n      dup2\n      jump\t// out\n        /* \"contracts/ZombieGame.sol\":9292:9659  function GiveOnRent(uint id, uint RentAmount) external OnlyOwner(id) {... */\n    tag_43:\n        /* \"contracts/ZombieGame.sol\":9357:9359  id */\n      dup2\n        /* \"contracts/ZombieGame.sol\":5204:5214  msg.sender */\n      caller\n        /* \"contracts/ZombieGame.sol\":5179:5214  ZombieOwner[zombieId] == msg.sender */\n      0xffffffffffffffffffffffffffffffffffffffff\n      and\n        /* \"contracts/ZombieGame.sol\":5179:5190  ZombieOwner */\n      0x00\n        /* \"contracts/ZombieGame.sol\":5179:5200  ZombieOwner[zombieId] */\n      dup1\n        /* \"contracts/ZombieGame.sol\":5191:5199  zombieId */\n      dup4\n        /* \"contracts/ZombieGame.sol\":5179:5200  ZombieOwner[zombieId] */\n      dup2\n      mstore\n      0x20\n      add\n      swap1\n      dup2\n      mstore\n      0x20\n      add\n      0x00\n      keccak256\n      0x00\n      swap1\n      sload\n      swap1\n      0x0100\n      exp\n      swap1\n      div\n      0xffffffffffffffffffffffffffffffffffffffff\n      and\n        /* \"contracts/ZombieGame.sol\":5179:5214  ZombieOwner[zombieId] == msg.sender */\n      0xffffffffffffffffffffffffffffffffffffffff\n      and\n      eq\n        /* \"contracts/ZombieGame.sol\":5171:5230  require(ZombieOwner[zombieId] == msg.sender, \"Only Owner.\") */\n      tag_144\n      jumpi\n      mload(0x40)\n      0x08c379a000000000000000000000000000000000000000000000000000000000\n      dup2\n      mstore\n      0x04\n      add\n      tag_145\n      swap1\n      tag_141\n      jump\t// in\n    tag_145:\n      mload(0x40)\n      dup1\n      swap2\n      sub\n      swap1\n      revert\n    tag_144:\n        /* \"contracts/ZombieGame.sol\":9381:9387  onRent */\n      0x06\n        /* \"contracts/ZombieGame.sol\":9381:9391  onRent[id] */\n      0x00\n        /* \"contracts/ZombieGame.sol\":9388:9390  id */\n      dup5\n        /* \"contracts/ZombieGame.sol\":9381:9391  onRent[id] */\n      dup2\n      mstore\n      0x20\n      add\n      swap1\n      dup2\n      mstore\n      0x20\n      add\n      0x00\n      keccak256\n      0x00\n      swap1\n      sload\n      swap1\n      0x0100\n      exp\n      swap1\n      div\n      0xff\n      and\n        /* \"contracts/ZombieGame.sol\":9380:9391  !onRent[id] */\n      iszero\n        /* \"contracts/ZombieGame.sol\":9380:9460  !onRent[id] && keccak256(bytes(zombies[id].plan)) == keccak256(bytes(\"premium\")) */\n      dup1\n      iszero\n      tag_147\n      jumpi\n      pop\n        /* \"contracts/ZombieGame.sol\":9443:9459  bytes(\"premium\") */\n      mload(0x40)\n      dup1\n      0x40\n      add\n      0x40\n      mstore\n      dup1\n      0x07\n      dup2\n      mstore\n      0x20\n      add\n      0x7072656d69756d00000000000000000000000000000000000000000000000000\n      dup2\n      mstore\n      pop\n        /* \"contracts/ZombieGame.sol\":9433:9460  keccak256(bytes(\"premium\")) */\n      dup1\n      mload\n      swap1\n      0x20\n      add\n      keccak256\n        /* \"contracts/ZombieGame.sol\":9411:9418  zombies */\n      0x03\n        /* \"contracts/ZombieGame.sol\":9419:9421  id */\n      dup5\n        /* \"contracts/ZombieGame.sol\":9411:9422  zombies[id] */\n      dup2\n      sload\n      dup2\n      lt\n      tag_148\n      jumpi\n      tag_149\n      tag_150\n      jump\t// in\n    tag_149:\n    tag_148:\n      swap1\n      0x00\n      mstore\n      keccak256(0x00, 0x20)\n      swap1\n      0x09\n      mul\n      add\n        /* \"contracts/ZombieGame.sol\":9411:9427  zombies[id].plan */\n      0x00\n      add\n        /* \"contracts/ZombieGame.sol\":9395:9429  keccak256(bytes(zombies[id].plan)) */\n      mload(0x40)\n      tag_152\n      swap2\n      swap1\n      tag_153\n      jump\t// in\n    tag_152:\n      mload(0x40)\n      dup1\n      swap2\n      sub\n      swap1\n      keccak256\n        /* \"contracts/ZombieGame.sol\":9395:9460  keccak256(bytes(zombies[id].plan)) == keccak256(bytes(\"premium\")) */\n      eq\n        /* \"contracts/ZombieGame.sol\":9380:9460  !onRent[id] && keccak256(bytes(zombies[id].plan)) == keccak256(bytes(\"premium\")) */\n    tag_147:\n        /* \"contracts/ZombieGame.sol\":9372:9486  require(!onRent[id] && keccak256(bytes(zombies[id].plan)) == keccak256(bytes(\"premium\")),\"free nft cant on rent.\") */\n      tag_154\n      jumpi\n      mload(0x40)\n      0x08c379a000000000000000000000000000000000000000000000000000000000\n      dup2\n      mstore\n      0x04\n      add\n      tag_155\n      swap1\n      tag_156\n      jump\t// in\n    tag_155:\n      mload(0x40)\n      dup1\n      swap2\n      sub\n      swap1\n      revert\n    tag_154:\n        /* \"contracts/ZombieGame.sol\":9528:9536  10 ** 18 */\n      0x0de0b6b3a7640000\n        /* \"contracts/ZombieGame.sol\":9514:9524  RentAmount */\n      dup3\n        /* \"contracts/ZombieGame.sol\":9514:9537  RentAmount % (10 ** 18) */\n      tag_157\n      swap2\n      swap1\n      tag_158\n      jump\t// in\n    tag_157:\n        /* \"contracts/ZombieGame.sol\":9497:9507  rentAmount */\n      0x0d\n        /* \"contracts/ZombieGame.sol\":9497:9511  rentAmount[id] */\n      0x00\n        /* \"contracts/ZombieGame.sol\":9508:9510  id */\n      dup6\n        /* \"contracts/ZombieGame.sol\":9497:9511  rentAmount[id] */\n      dup2\n      mstore\n      0x20\n      add\n      swap1\n      dup2\n      mstore\n      0x20\n      add\n      0x00\n      keccak256\n        /* \"contracts/ZombieGame.sol\":9497:9537  rentAmount[id] = RentAmount % (10 ** 18) */\n      dup2\n      swap1\n      sstore\n      pop\n        /* \"contracts/ZombieGame.sol\":9562:9566  true */\n      0x01\n        /* \"contracts/ZombieGame.sol\":9549:9555  onRent */\n      0x06\n        /* \"contracts/ZombieGame.sol\":9549:9559  onRent[id] */\n      0x00\n        /* \"contracts/ZombieGame.sol\":9556:9558  id */\n      dup6\n        /* \"contracts/ZombieGame.sol\":9549:9559  onRent[id] */\n      dup2\n      mstore\n      0x20\n      add\n      swap1\n      dup2\n      mstore\n      0x20\n      add\n      0x00\n      keccak256\n      0x00\n        /* \"contracts/ZombieGame.sol\":9549:9566  onRent[id] = true */\n      0x0100\n      exp\n      dup2\n      sload\n      dup2\n      0xff\n      mul\n      not\n      and\n      swap1\n      dup4\n      iszero\n      iszero\n      mul\n      or\n      swap1\n      sstore\n      pop\n        /* \"contracts/ZombieGame.sol\":9577:9589  uint EndTime */\n      0x00\n        /* \"contracts/ZombieGame.sol\":9610:9620  30 seconds */\n      0x1e\n        /* \"contracts/ZombieGame.sol\":9592:9607  block.timestamp */\n      timestamp\n        /* \"contracts/ZombieGame.sol\":9592:9620  block.timestamp + 30 seconds */\n      tag_159\n      swap2\n      swap1\n      tag_160\n      jump\t// in\n    tag_159:\n        /* \"contracts/ZombieGame.sol\":9577:9620  uint EndTime = block.timestamp + 30 seconds */\n      swap1\n      pop\n        /* \"contracts/ZombieGame.sol\":9644:9651  EndTime */\n      dup1\n        /* \"contracts/ZombieGame.sol\":9631:9637  Timing */\n      0x09\n        /* \"contracts/ZombieGame.sol\":9631:9641  Timing[id] */\n      0x00\n        /* \"contracts/ZombieGame.sol\":9638:9640  id */\n      dup7\n        /* \"contracts/ZombieGame.sol\":9631:9641  Timing[id] */\n      dup2\n      mstore\n      0x20\n      add\n      swap1\n      dup2\n      mstore\n      0x20\n      add\n      0x00\n      keccak256\n        /* \"contracts/ZombieGame.sol\":9631:9651  Timing[id] = EndTime */\n      dup2\n      swap1\n      sstore\n      pop\n        /* \"contracts/ZombieGame.sol\":9361:9659  {... */\n      pop\n        /* \"contracts/ZombieGame.sol\":9292:9659  function GiveOnRent(uint id, uint RentAmount) external OnlyOwner(id) {... */\n      pop\n      pop\n      pop\n      jump\t// out\n        /* \"contracts/ZombieGame.sol\":5079:5117  mapping (uint => uint) public MintTime */\n    tag_47:\n      mstore(0x20, 0x0e)\n      dup1\n      0x00\n      mstore\n      keccak256(0x00, 0x40)\n      0x00\n      swap2\n      pop\n      swap1\n      pop\n      sload\n      dup2\n      jump\t// out\n        /* \"contracts/ZombieGame.sol\":7140:7640  function ownerZombies(address _owner) public view returns (uint[] memory) {... */\n    tag_53:\n        /* \"contracts/ZombieGame.sol\":7199:7212  uint[] memory */\n      0x60\n        /* \"contracts/ZombieGame.sol\":7224:7252  uint[] memory OwnerZombiesId */\n      0x00\n        /* \"contracts/ZombieGame.sol\":7266:7277  ZombieCount */\n      0x01\n        /* \"contracts/ZombieGame.sol\":7266:7285  ZombieCount[_owner] */\n      0x00\n        /* \"contracts/ZombieGame.sol\":7278:7284  _owner */\n      dup5\n        /* \"contracts/ZombieGame.sol\":7266:7285  ZombieCount[_owner] */\n      0xffffffffffffffffffffffffffffffffffffffff\n      and\n      0xffffffffffffffffffffffffffffffffffffffff\n      and\n      dup2\n      mstore\n      0x20\n      add\n      swap1\n      dup2\n      mstore\n      0x20\n      add\n      0x00\n      keccak256\n      sload\n        /* \"contracts/ZombieGame.sol\":7255:7286  new uint[](ZombieCount[_owner]) */\n      0xffffffffffffffff\n      dup2\n      gt\n      iszero\n      tag_162\n      jumpi\n      tag_163\n      tag_164\n      jump\t// in\n    tag_163:\n    tag_162:\n      mload(0x40)\n      swap1\n      dup1\n      dup3\n      mstore\n      dup1\n      0x20\n      mul\n      0x20\n      add\n      dup3\n      add\n      0x40\n      mstore\n      dup1\n      iszero\n      tag_165\n      jumpi\n      dup2\n      0x20\n      add\n      0x20\n      dup3\n      mul\n      dup1\n      calldatasize\n      dup4\n      calldatacopy\n      dup1\n      dup3\n      add\n      swap2\n      pop\n      pop\n      swap1\n      pop\n    tag_165:\n      pop\n        /* \"contracts/ZombieGame.sol\":7224:7286  uint[] memory OwnerZombiesId = new uint[](ZombieCount[_owner]) */\n      swap1\n      pop\n        /* \"contracts/ZombieGame.sol\":7394:7404  uint index */\n      0x00\n        /* \"contracts/ZombieGame.sol\":7430:7436  uint i */\n      dup1\n        /* \"contracts/ZombieGame.sol\":7425:7601  for (uint i = 0; i < zombies.length; i++) {... */\n    tag_166:\n        /* \"contracts/ZombieGame.sol\":7446:7453  zombies */\n      0x03\n        /* \"contracts/ZombieGame.sol\":7446:7460  zombies.length */\n      dup1\n      sload\n      swap1\n      pop\n        /* \"contracts/ZombieGame.sol\":7442:7443  i */\n      dup2\n        /* \"contracts/ZombieGame.sol\":7442:7460  i < zombies.length */\n      lt\n        /* \"contracts/ZombieGame.sol\":7425:7601  for (uint i = 0; i < zombies.length; i++) {... */\n      iszero\n      tag_167\n      jumpi\n        /* \"contracts/ZombieGame.sol\":7504:7510  _owner */\n      dup5\n        /* \"contracts/ZombieGame.sol\":7486:7510  ZombieOwner[i] == _owner */\n      0xffffffffffffffffffffffffffffffffffffffff\n      and\n        /* \"contracts/ZombieGame.sol\":7486:7497  ZombieOwner */\n      0x00\n        /* \"contracts/ZombieGame.sol\":7486:7500  ZombieOwner[i] */\n      dup1\n        /* \"contracts/ZombieGame.sol\":7498:7499  i */\n      dup4\n        /* \"contracts/ZombieGame.sol\":7486:7500  ZombieOwner[i] */\n      dup2\n      mstore\n      0x20\n      add\n      swap1\n      dup2\n      mstore\n      0x20\n      add\n      0x00\n      keccak256\n      0x00\n      swap1\n      sload\n      swap1\n      0x0100\n      exp\n      swap1\n      div\n      0xffffffffffffffffffffffffffffffffffffffff\n      and\n        /* \"contracts/ZombieGame.sol\":7486:7510  ZombieOwner[i] == _owner */\n      0xffffffffffffffffffffffffffffffffffffffff\n      and\n      sub\n        /* \"contracts/ZombieGame.sol\":7482:7590  if (ZombieOwner[i] == _owner) {... */\n      tag_169\n      jumpi\n        /* \"contracts/ZombieGame.sol\":7551:7552  i */\n      dup1\n        /* \"contracts/ZombieGame.sol\":7527:7541  OwnerZombiesId */\n      dup4\n        /* \"contracts/ZombieGame.sol\":7542:7547  index */\n      dup4\n        /* \"contracts/ZombieGame.sol\":7527:7548  OwnerZombiesId[index] */\n      dup2\n      mload\n      dup2\n      lt\n      tag_170\n      jumpi\n      tag_171\n      tag_150\n      jump\t// in\n    tag_171:\n    tag_170:\n      0x20\n      mul\n      0x20\n      add\n      add\n        /* \"contracts/ZombieGame.sol\":7527:7552  OwnerZombiesId[index] = i */\n      dup2\n      dup2\n      mstore\n      pop\n      pop\n        /* \"contracts/ZombieGame.sol\":7567:7574  index++ */\n      dup2\n      dup1\n      tag_172\n      swap1\n      tag_173\n      jump\t// in\n    tag_172:\n      swap3\n      pop\n      pop\n        /* \"contracts/ZombieGame.sol\":7482:7590  if (ZombieOwner[i] == _owner) {... */\n    tag_169:\n        /* \"contracts/ZombieGame.sol\":7462:7465  i++ */\n      dup1\n      dup1\n      tag_174\n      swap1\n      tag_173\n      jump\t// in\n    tag_174:\n      swap2\n      pop\n      pop\n        /* \"contracts/ZombieGame.sol\":7425:7601  for (uint i = 0; i < zombies.length; i++) {... */\n      jump(tag_166)\n    tag_167:\n      pop\n        /* \"contracts/ZombieGame.sol\":7618:7632  OwnerZombiesId */\n      dup2\n        /* \"contracts/ZombieGame.sol\":7611:7632  return OwnerZombiesId */\n      swap3\n      pop\n      pop\n      pop\n        /* \"contracts/ZombieGame.sol\":7140:7640  function ownerZombies(address _owner) public view returns (uint[] memory) {... */\n      swap2\n      swap1\n      pop\n      jump\t// out\n        /* \"contracts/ZombieGame.sol\":4328:4391  mapping (address => mapping (address => uint)) public Allowance */\n    tag_60:\n      mstore(0x20, 0x07)\n      dup2\n      0x00\n      mstore\n      mstore(0x20, keccak256(0x00, 0x40))\n      dup1\n      0x00\n      mstore\n      keccak256(0x00, 0x40)\n      0x00\n      swap2\n      pop\n      swap2\n      pop\n      pop\n      sload\n      dup2\n      jump\t// out\n        /* \"contracts/ZombieGame.sol\":4997:5037  mapping (uint => uint) public rentAmount */\n    tag_65:\n      mstore(0x20, 0x0d)\n      dup1\n      0x00\n      mstore\n      keccak256(0x00, 0x40)\n      0x00\n      swap2\n      pop\n      swap1\n      pop\n      sload\n      dup2\n      jump\t// out\n        /* \"contracts/ZombieGame.sol\":10297:10730  function tranferFrom(address from, address to, uint id) external OnlyOwner(id) {... */\n    tag_71:\n        /* \"contracts/ZombieGame.sol\":10372:10374  id */\n      dup1\n        /* \"contracts/ZombieGame.sol\":5204:5214  msg.sender */\n      caller\n        /* \"contracts/ZombieGame.sol\":5179:5214  ZombieOwner[zombieId] == msg.sender */\n      0xffffffffffffffffffffffffffffffffffffffff\n      and\n        /* \"contracts/ZombieGame.sol\":5179:5190  ZombieOwner */\n      0x00\n        /* \"contracts/ZombieGame.sol\":5179:5200  ZombieOwner[zombieId] */\n      dup1\n        /* \"contracts/ZombieGame.sol\":5191:5199  zombieId */\n      dup4\n        /* \"contracts/ZombieGame.sol\":5179:5200  ZombieOwner[zombieId] */\n      dup2\n      mstore\n      0x20\n      add\n      swap1\n      dup2\n      mstore\n      0x20\n      add\n      0x00\n      keccak256\n      0x00\n      swap1\n      sload\n      swap1\n      0x0100\n      exp\n      swap1\n      div\n      0xffffffffffffffffffffffffffffffffffffffff\n      and\n        /* \"contracts/ZombieGame.sol\":5179:5214  ZombieOwner[zombieId] == msg.sender */\n      0xffffffffffffffffffffffffffffffffffffffff\n      and\n      eq\n        /* \"contracts/ZombieGame.sol\":5171:5230  require(ZombieOwner[zombieId] == msg.sender, \"Only Owner.\") */\n      tag_176\n      jumpi\n      mload(0x40)\n      0x08c379a000000000000000000000000000000000000000000000000000000000\n      dup2\n      mstore\n      0x04\n      add\n      tag_177\n      swap1\n      tag_141\n      jump\t// in\n    tag_177:\n      mload(0x40)\n      dup1\n      swap2\n      sub\n      swap1\n      revert\n    tag_176:\n        /* \"contracts/ZombieGame.sol\":10443:10459  bytes(\"premium\") */\n      mload(0x40)\n      dup1\n      0x40\n      add\n      0x40\n      mstore\n      dup1\n      0x07\n      dup2\n      mstore\n      0x20\n      add\n      0x7072656d69756d00000000000000000000000000000000000000000000000000\n      dup2\n      mstore\n      pop\n        /* \"contracts/ZombieGame.sol\":10433:10460  keccak256(bytes(\"premium\")) */\n      dup1\n      mload\n      swap1\n      0x20\n      add\n      keccak256\n        /* \"contracts/ZombieGame.sol\":10411:10418  zombies */\n      0x03\n        /* \"contracts/ZombieGame.sol\":10419:10421  id */\n      dup4\n        /* \"contracts/ZombieGame.sol\":10411:10422  zombies[id] */\n      dup2\n      sload\n      dup2\n      lt\n      tag_179\n      jumpi\n      tag_180\n      tag_150\n      jump\t// in\n    tag_180:\n    tag_179:\n      swap1\n      0x00\n      mstore\n      keccak256(0x00, 0x20)\n      swap1\n      0x09\n      mul\n      add\n        /* \"contracts/ZombieGame.sol\":10411:10427  zombies[id].plan */\n      0x00\n      add\n        /* \"contracts/ZombieGame.sol\":10395:10429  keccak256(bytes(zombies[id].plan)) */\n      mload(0x40)\n      tag_182\n      swap2\n      swap1\n      tag_153\n      jump\t// in\n    tag_182:\n      mload(0x40)\n      dup1\n      swap2\n      sub\n      swap1\n      keccak256\n        /* \"contracts/ZombieGame.sol\":10395:10460  keccak256(bytes(zombies[id].plan)) == keccak256(bytes(\"premium\")) */\n      eq\n        /* \"contracts/ZombieGame.sol\":10387:10483  require(keccak256(bytes(zombies[id].plan)) == keccak256(bytes(\"premium\")), \"free nft can sell.\") */\n      tag_183\n      jumpi\n      mload(0x40)\n      0x08c379a000000000000000000000000000000000000000000000000000000000\n      dup2\n      mstore\n      0x04\n      add\n      tag_184\n      swap1\n      tag_185\n      jump\t// in\n    tag_184:\n      mload(0x40)\n      dup1\n      swap2\n      sub\n      swap1\n      revert\n    tag_183:\n        /* \"contracts/ZombieGame.sol\":10504:10510  onRent */\n      0x06\n        /* \"contracts/ZombieGame.sol\":10504:10514  onRent[id] */\n      0x00\n        /* \"contracts/ZombieGame.sol\":10511:10513  id */\n      dup4\n        /* \"contracts/ZombieGame.sol\":10504:10514  onRent[id] */\n      dup2\n      mstore\n      0x20\n      add\n      swap1\n      dup2\n      mstore\n      0x20\n      add\n      0x00\n      keccak256\n      0x00\n      swap1\n      sload\n      swap1\n      0x0100\n      exp\n      swap1\n      div\n      0xff\n      and\n        /* \"contracts/ZombieGame.sol\":10502:10514  ! onRent[id] */\n      iszero\n        /* \"contracts/ZombieGame.sol\":10494:10537  require(! onRent[id], \"This nft on rent.\" ) */\n      tag_186\n      jumpi\n      mload(0x40)\n      0x08c379a000000000000000000000000000000000000000000000000000000000\n      dup2\n      mstore\n      0x04\n      add\n      tag_187\n      swap1\n      tag_188\n      jump\t// in\n    tag_187:\n      mload(0x40)\n      dup1\n      swap2\n      sub\n      swap1\n      revert\n    tag_186:\n        /* \"contracts/ZombieGame.sol\":10575:10579  from */\n      dup4\n        /* \"contracts/ZombieGame.sol\":10556:10579  ZombieOwner[id] == from */\n      0xffffffffffffffffffffffffffffffffffffffff\n      and\n        /* \"contracts/ZombieGame.sol\":10556:10567  ZombieOwner */\n      0x00\n        /* \"contracts/ZombieGame.sol\":10556:10571  ZombieOwner[id] */\n      dup1\n        /* \"contracts/ZombieGame.sol\":10568:10570  id */\n      dup5\n        /* \"contracts/ZombieGame.sol\":10556:10571  ZombieOwner[id] */\n      dup2\n      mstore\n      0x20\n      add\n      swap1\n      dup2\n      mstore\n      0x20\n      add\n      0x00\n      keccak256\n      0x00\n      swap1\n      sload\n      swap1\n      0x0100\n      exp\n      swap1\n      div\n      0xffffffffffffffffffffffffffffffffffffffff\n      and\n        /* \"contracts/ZombieGame.sol\":10556:10579  ZombieOwner[id] == from */\n      0xffffffffffffffffffffffffffffffffffffffff\n      and\n      eq\n        /* \"contracts/ZombieGame.sol\":10556:10610  ZombieOwner[id] == from || Approve[from] == msg.sender */\n      dup1\n      tag_189\n      jumpi\n      pop\n        /* \"contracts/ZombieGame.sol\":10600:10610  msg.sender */\n      caller\n        /* \"contracts/ZombieGame.sol\":10583:10610  Approve[from] == msg.sender */\n      0xffffffffffffffffffffffffffffffffffffffff\n      and\n        /* \"contracts/ZombieGame.sol\":10583:10590  Approve */\n      0x08\n        /* \"contracts/ZombieGame.sol\":10583:10596  Approve[from] */\n      0x00\n        /* \"contracts/ZombieGame.sol\":10591:10595  from */\n      dup7\n        /* \"contracts/ZombieGame.sol\":10583:10596  Approve[from] */\n      0xffffffffffffffffffffffffffffffffffffffff\n      and\n      0xffffffffffffffffffffffffffffffffffffffff\n      and\n      dup2\n      mstore\n      0x20\n      add\n      swap1\n      dup2\n      mstore\n      0x20\n      add\n      0x00\n      keccak256\n      0x00\n      swap1\n      sload\n      swap1\n      0x0100\n      exp\n      swap1\n      div\n      0xffffffffffffffffffffffffffffffffffffffff\n      and\n        /* \"contracts/ZombieGame.sol\":10583:10610  Approve[from] == msg.sender */\n      0xffffffffffffffffffffffffffffffffffffffff\n      and\n      eq\n        /* \"contracts/ZombieGame.sol\":10556:10610  ZombieOwner[id] == from || Approve[from] == msg.sender */\n    tag_189:\n        /* \"contracts/ZombieGame.sol\":10548:10633  require(ZombieOwner[id] == from || Approve[from] == msg.sender, \"You dont have Nft.\") */\n      tag_190\n      jumpi\n      mload(0x40)\n      0x08c379a000000000000000000000000000000000000000000000000000000000\n      dup2\n      mstore\n      0x04\n      add\n      tag_191\n      swap1\n      tag_192\n      jump\t// in\n    tag_191:\n      mload(0x40)\n      dup1\n      swap2\n      sub\n      swap1\n      revert\n    tag_190:\n        /* \"contracts/ZombieGame.sol\":10662:10664  to */\n      dup3\n        /* \"contracts/ZombieGame.sol\":10644:10655  ZombieOwner */\n      0x00\n        /* \"contracts/ZombieGame.sol\":10644:10659  ZombieOwner[id] */\n      dup1\n        /* \"contracts/ZombieGame.sol\":10656:10658  id */\n      dup5\n        /* \"contracts/ZombieGame.sol\":10644:10659  ZombieOwner[id] */\n      dup2\n      mstore\n      0x20\n      add\n      swap1\n      dup2\n      mstore\n      0x20\n      add\n      0x00\n      keccak256\n      0x00\n        /* \"contracts/ZombieGame.sol\":10644:10664  ZombieOwner[id] = to */\n      0x0100\n      exp\n      dup2\n      sload\n      dup2\n      0xffffffffffffffffffffffffffffffffffffffff\n      mul\n      not\n      and\n      swap1\n      dup4\n      0xffffffffffffffffffffffffffffffffffffffff\n      and\n      mul\n      or\n      swap1\n      sstore\n      pop\n        /* \"contracts/ZombieGame.sol\":10675:10686  ZombieCount */\n      0x01\n        /* \"contracts/ZombieGame.sol\":10675:10692  ZombieCount[from] */\n      0x00\n        /* \"contracts/ZombieGame.sol\":10687:10691  from */\n      dup6\n        /* \"contracts/ZombieGame.sol\":10675:10692  ZombieCount[from] */\n      0xffffffffffffffffffffffffffffffffffffffff\n      and\n      0xffffffffffffffffffffffffffffffffffffffff\n      and\n      dup2\n      mstore\n      0x20\n      add\n      swap1\n      dup2\n      mstore\n      0x20\n      add\n      0x00\n      keccak256\n      0x00\n        /* \"contracts/ZombieGame.sol\":10675:10694  ZombieCount[from]-- */\n      dup2\n      sload\n      dup1\n      swap3\n      swap2\n      swap1\n      tag_193\n      swap1\n      tag_194\n      jump\t// in\n    tag_193:\n      swap2\n      swap1\n      pop\n      sstore\n      pop\n        /* \"contracts/ZombieGame.sol\":10705:10716  ZombieCount */\n      0x01\n        /* \"contracts/ZombieGame.sol\":10705:10720  ZombieCount[to] */\n      0x00\n        /* \"contracts/ZombieGame.sol\":10717:10719  to */\n      dup5\n        /* \"contracts/ZombieGame.sol\":10705:10720  ZombieCount[to] */\n      0xffffffffffffffffffffffffffffffffffffffff\n      and\n      0xffffffffffffffffffffffffffffffffffffffff\n      and\n      dup2\n      mstore\n      0x20\n      add\n      swap1\n      dup2\n      mstore\n      0x20\n      add\n      0x00\n      keccak256\n      0x00\n        /* \"contracts/ZombieGame.sol\":10705:10722  ZombieCount[to]++ */\n      dup2\n      sload\n      dup1\n      swap3\n      swap2\n      swap1\n      tag_195\n      swap1\n      tag_173\n      jump\t// in\n    tag_195:\n      swap2\n      swap1\n      pop\n      sstore\n      pop\n        /* \"contracts/ZombieGame.sol\":10297:10730  function tranferFrom(address from, address to, uint id) external OnlyOwner(id) {... */\n      pop\n      pop\n      pop\n      pop\n      jump\t// out\n        /* \"contracts/ZombieGame.sol\":4768:4810  mapping (address => bool) public buyOnRent */\n    tag_75:\n      mstore(0x20, 0x0b)\n      dup1\n      0x00\n      mstore\n      keccak256(0x00, 0x40)\n      0x00\n      swap2\n      pop\n      sload\n      swap1\n      0x0100\n      exp\n      swap1\n      div\n      0xff\n      and\n      dup2\n      jump\t// out\n        /* \"contracts/ZombieGame.sol\":4670:4708  mapping (uint => bool) public TakenNft */\n    tag_81:\n      mstore(0x20, 0x0a)\n      dup1\n      0x00\n      mstore\n      keccak256(0x00, 0x40)\n      0x00\n      swap2\n      pop\n      sload\n      swap1\n      0x0100\n      exp\n      swap1\n      div\n      0xff\n      and\n      dup2\n      jump\t// out\n        /* \"contracts/ZombieGame.sol\":5675:5915  function FreeZombie() external {... */\n    tag_85:\n        /* \"contracts/ZombieGame.sol\":5752:5753  0 */\n      0x00\n        /* \"contracts/ZombieGame.sol\":5725:5736  ZombieCount */\n      0x01\n        /* \"contracts/ZombieGame.sol\":5725:5748  ZombieCount[msg.sender] */\n      0x00\n        /* \"contracts/ZombieGame.sol\":5737:5747  msg.sender */\n      caller\n        /* \"contracts/ZombieGame.sol\":5725:5748  ZombieCount[msg.sender] */\n      0xffffffffffffffffffffffffffffffffffffffff\n      and\n      0xffffffffffffffffffffffffffffffffffffffff\n      and\n      dup2\n      mstore\n      0x20\n      add\n      swap1\n      dup2\n      mstore\n      0x20\n      add\n      0x00\n      keccak256\n      sload\n        /* \"contracts/ZombieGame.sol\":5725:5753  ZombieCount[msg.sender] == 0 */\n      eq\n        /* \"contracts/ZombieGame.sol\":5717:5785  require(ZombieCount[msg.sender] == 0, \"Already have 1 or more nft.\") */\n      tag_197\n      jumpi\n      mload(0x40)\n      0x08c379a000000000000000000000000000000000000000000000000000000000\n      dup2\n      mstore\n      0x04\n      add\n      tag_198\n      swap1\n      tag_199\n      jump\t// in\n    tag_198:\n      mload(0x40)\n      dup1\n      swap2\n      sub\n      swap1\n      revert\n    tag_197:\n        /* \"contracts/ZombieGame.sol\":5818:5822  true */\n      0x01\n        /* \"contracts/ZombieGame.sol\":5796:5803  FreeNft */\n      0x05\n        /* \"contracts/ZombieGame.sol\":5796:5815  FreeNft[msg.sender] */\n      0x00\n        /* \"contracts/ZombieGame.sol\":5804:5814  msg.sender */\n      caller\n        /* \"contracts/ZombieGame.sol\":5796:5815  FreeNft[msg.sender] */\n      0xffffffffffffffffffffffffffffffffffffffff\n      and\n      0xffffffffffffffffffffffffffffffffffffffff\n      and\n      dup2\n      mstore\n      0x20\n      add\n      swap1\n      dup2\n      mstore\n      0x20\n      add\n      0x00\n      keccak256\n      0x00\n        /* \"contracts/ZombieGame.sol\":5796:5822  FreeNft[msg.sender] = true */\n      0x0100\n      exp\n      dup2\n      sload\n      dup2\n      0xff\n      mul\n      not\n      and\n      swap1\n      dup4\n      iszero\n      iszero\n      mul\n      or\n      swap1\n      sstore\n      pop\n        /* \"contracts/ZombieGame.sol\":5833:5907  createZombie(\"Free\", \"FreeZombie\", DnaGenerator(\"free\"), 1, 0, 0, 2, 0, 0) */\n      tag_200\n      mload(0x40)\n      dup1\n      0x40\n      add\n      0x40\n      mstore\n      dup1\n      0x04\n      dup2\n      mstore\n      0x20\n      add\n      0x4672656500000000000000000000000000000000000000000000000000000000\n      dup2\n      mstore\n      pop\n      mload(0x40)\n      dup1\n      0x40\n      add\n      0x40\n      mstore\n      dup1\n      0x0a\n      dup2\n      mstore\n      0x20\n      add\n      0x467265655a6f6d62696500000000000000000000000000000000000000000000\n      dup2\n      mstore\n      pop\n        /* \"contracts/ZombieGame.sol\":5868:5888  DnaGenerator(\"free\") */\n      tag_201\n      mload(0x40)\n      dup1\n      0x40\n      add\n      0x40\n      mstore\n      dup1\n      0x04\n      dup2\n      mstore\n      0x20\n      add\n      0x6672656500000000000000000000000000000000000000000000000000000000\n      dup2\n      mstore\n      pop\n        /* \"contracts/ZombieGame.sol\":5868:5880  DnaGenerator */\n      tag_202\n        /* \"contracts/ZombieGame.sol\":5868:5888  DnaGenerator(\"free\") */\n      jump\t// in\n    tag_201:\n        /* \"contracts/ZombieGame.sol\":5890:5891  1 */\n      0x01\n        /* \"contracts/ZombieGame.sol\":5893:5894  0 */\n      0x00\n        /* \"contracts/ZombieGame.sol\":5896:5897  0 */\n      dup1\n        /* \"contracts/ZombieGame.sol\":5899:5900  2 */\n      0x02\n        /* \"contracts/ZombieGame.sol\":5902:5903  0 */\n      0x00\n        /* \"contracts/ZombieGame.sol\":5905:5906  0 */\n      dup1\n        /* \"contracts/ZombieGame.sol\":5833:5845  createZombie */\n      tag_203\n        /* \"contracts/ZombieGame.sol\":5833:5907  createZombie(\"Free\", \"FreeZombie\", DnaGenerator(\"free\"), 1, 0, 0, 2, 0, 0) */\n      jump\t// in\n    tag_200:\n        /* \"contracts/ZombieGame.sol\":5675:5915  function FreeZombie() external {... */\n      jump\t// out\n        /* \"contracts/ZombieGame.sol\":7726:7851  function getDetails(uint zombieId) external view returns(zombieDetails memory){... */\n    tag_89:\n        /* \"contracts/ZombieGame.sol\":7783:7803  zombieDetails memory */\n      tag_204\n      tag_205\n      jump\t// in\n    tag_204:\n        /* \"contracts/ZombieGame.sol\":7822:7829  zombies */\n      0x03\n        /* \"contracts/ZombieGame.sol\":7830:7838  zombieId */\n      dup3\n        /* \"contracts/ZombieGame.sol\":7822:7839  zombies[zombieId] */\n      dup2\n      sload\n      dup2\n      lt\n      tag_207\n      jumpi\n      tag_208\n      tag_150\n      jump\t// in\n    tag_208:\n    tag_207:\n      swap1\n      0x00\n      mstore\n      keccak256(0x00, 0x20)\n      swap1\n      0x09\n      mul\n      add\n        /* \"contracts/ZombieGame.sol\":7815:7839  return zombies[zombieId] */\n      mload(0x40)\n      dup1\n      0x0120\n      add\n      0x40\n      mstore\n      swap1\n      dup2\n      0x00\n      dup3\n      add\n      dup1\n      sload\n      tag_210\n      swap1\n      tag_211\n      jump\t// in\n    tag_210:\n      dup1\n      0x1f\n      add\n      0x20\n      dup1\n      swap2\n      div\n      mul\n      0x20\n      add\n      mload(0x40)\n      swap1\n      dup2\n      add\n      0x40\n      mstore\n      dup1\n      swap3\n      swap2\n      swap1\n      dup2\n      dup2\n      mstore\n      0x20\n      add\n      dup3\n      dup1\n      sload\n      tag_212\n      swap1\n      tag_211\n      jump\t// in\n    tag_212:\n      dup1\n      iszero\n      tag_213\n      jumpi\n      dup1\n      0x1f\n      lt\n      tag_214\n      jumpi\n      0x0100\n      dup1\n      dup4\n      sload\n      div\n      mul\n      dup4\n      mstore\n      swap2\n      0x20\n      add\n      swap2\n      jump(tag_213)\n    tag_214:\n      dup3\n      add\n      swap2\n      swap1\n      0x00\n      mstore\n      keccak256(0x00, 0x20)\n      swap1\n    tag_215:\n      dup2\n      sload\n      dup2\n      mstore\n      swap1\n      0x01\n      add\n      swap1\n      0x20\n      add\n      dup1\n      dup4\n      gt\n      tag_215\n      jumpi\n      dup3\n      swap1\n      sub\n      0x1f\n      and\n      dup3\n      add\n      swap2\n    tag_213:\n      pop\n      pop\n      pop\n      pop\n      pop\n      dup2\n      mstore\n      0x20\n      add\n      0x01\n      dup3\n      add\n      dup1\n      sload\n      tag_216\n      swap1\n      tag_211\n      jump\t// in\n    tag_216:\n      dup1\n      0x1f\n      add\n      0x20\n      dup1\n      swap2\n      div\n      mul\n      0x20\n      add\n      mload(0x40)\n      swap1\n      dup2\n      add\n      0x40\n      mstore\n      dup1\n      swap3\n      swap2\n      swap1\n      dup2\n      dup2\n      mstore\n      0x20\n      add\n      dup3\n      dup1\n      sload\n      tag_217\n      swap1\n      tag_211\n      jump\t// in\n    tag_217:\n      dup1\n      iszero\n      tag_218\n      jumpi\n      dup1\n      0x1f\n      lt\n      tag_219\n      jumpi\n      0x0100\n      dup1\n      dup4\n      sload\n      div\n      mul\n      dup4\n      mstore\n      swap2\n      0x20\n      add\n      swap2\n      jump(tag_218)\n    tag_219:\n      dup3\n      add\n      swap2\n      swap1\n      0x00\n      mstore\n      keccak256(0x00, 0x20)\n      swap1\n    tag_220:\n      dup2\n      sload\n      dup2\n      mstore\n      swap1\n      0x01\n      add\n      swap1\n      0x20\n      add\n      dup1\n      dup4\n      gt\n      tag_220\n      jumpi\n      dup3\n      swap1\n      sub\n      0x1f\n      and\n      dup3\n      add\n      swap2\n    tag_218:\n      pop\n      pop\n      pop\n      pop\n      pop\n      dup2\n      mstore\n      0x20\n      add\n      0x02\n      dup3\n      add\n      sload\n      dup2\n      mstore\n      0x20\n      add\n      0x03\n      dup3\n      add\n      sload\n      dup2\n      mstore\n      0x20\n      add\n      0x04\n      dup3\n      add\n      sload\n      dup2\n      mstore\n      0x20\n      add\n      0x05\n      dup3\n      add\n      sload\n      dup2\n      mstore\n      0x20\n      add\n      0x06\n      dup3\n      add\n      sload\n      dup2\n      mstore\n      0x20\n      add\n      0x07\n      dup3\n      add\n      sload\n      dup2\n      mstore\n      0x20\n      add\n      0x08\n      dup3\n      add\n      sload\n      dup2\n      mstore\n      pop\n      pop\n      swap1\n      pop\n        /* \"contracts/ZombieGame.sol\":7726:7851  function getDetails(uint zombieId) external view returns(zombieDetails memory){... */\n      swap2\n      swap1\n      pop\n      jump\t// out\n        /* \"contracts/ZombieGame.sol\":4199:4239  mapping (address => bool) public FreeNft */\n    tag_95:\n      mstore(0x20, 0x05)\n      dup1\n      0x00\n      mstore\n      keccak256(0x00, 0x40)\n      0x00\n      swap2\n      pop\n      sload\n      swap1\n      0x0100\n      exp\n      swap1\n      div\n      0xff\n      and\n      dup2\n      jump\t// out\n        /* \"contracts/ZombieGame.sol\":8293:8974  function FightWithZombie(uint zombieID) external {... */\n    tag_100:\n        /* \"contracts/ZombieGame.sol\":8389:8399  msg.sender */\n      caller\n        /* \"contracts/ZombieGame.sol\":8365:8399  RentedbyID[zombieID] == msg.sender */\n      0xffffffffffffffffffffffffffffffffffffffff\n      and\n        /* \"contracts/ZombieGame.sol\":8365:8375  RentedbyID */\n      0x0c\n        /* \"contracts/ZombieGame.sol\":8365:8385  RentedbyID[zombieID] */\n      0x00\n        /* \"contracts/ZombieGame.sol\":8376:8384  zombieID */\n      dup4\n        /* \"contracts/ZombieGame.sol\":8365:8385  RentedbyID[zombieID] */\n      dup2\n      mstore\n      0x20\n      add\n      swap1\n      dup2\n      mstore\n      0x20\n      add\n      0x00\n      keccak256\n      0x00\n      swap1\n      sload\n      swap1\n      0x0100\n      exp\n      swap1\n      div\n      0xffffffffffffffffffffffffffffffffffffffff\n      and\n        /* \"contracts/ZombieGame.sol\":8365:8399  RentedbyID[zombieID] == msg.sender */\n      0xffffffffffffffffffffffffffffffffffffffff\n      and\n      eq\n        /* \"contracts/ZombieGame.sol\":8365:8437  RentedbyID[zombieID] == msg.sender && Timing[zombieID] > block.timestamp */\n      dup1\n      iszero\n      tag_222\n      jumpi\n      pop\n        /* \"contracts/ZombieGame.sol\":8422:8437  block.timestamp */\n      timestamp\n        /* \"contracts/ZombieGame.sol\":8403:8409  Timing */\n      0x09\n        /* \"contracts/ZombieGame.sol\":8403:8419  Timing[zombieID] */\n      0x00\n        /* \"contracts/ZombieGame.sol\":8410:8418  zombieID */\n      dup4\n        /* \"contracts/ZombieGame.sol\":8403:8419  Timing[zombieID] */\n      dup2\n      mstore\n      0x20\n      add\n      swap1\n      dup2\n      mstore\n      0x20\n      add\n      0x00\n      keccak256\n      sload\n        /* \"contracts/ZombieGame.sol\":8403:8437  Timing[zombieID] > block.timestamp */\n      gt\n        /* \"contracts/ZombieGame.sol\":8365:8437  RentedbyID[zombieID] == msg.sender && Timing[zombieID] > block.timestamp */\n    tag_222:\n        /* \"contracts/ZombieGame.sol\":8365:8468  RentedbyID[zombieID] == msg.sender && Timing[zombieID] > block.timestamp || FreeNft[msg.sender] == true */\n      dup1\n      tag_223\n      jumpi\n      pop\n        /* \"contracts/ZombieGame.sol\":8464:8468  true */\n      0x01\n        /* \"contracts/ZombieGame.sol\":8441:8468  FreeNft[msg.sender] == true */\n      iszero\n      iszero\n        /* \"contracts/ZombieGame.sol\":8441:8448  FreeNft */\n      0x05\n        /* \"contracts/ZombieGame.sol\":8441:8460  FreeNft[msg.sender] */\n      0x00\n        /* \"contracts/ZombieGame.sol\":8449:8459  msg.sender */\n      caller\n        /* \"contracts/ZombieGame.sol\":8441:8460  FreeNft[msg.sender] */\n      0xffffffffffffffffffffffffffffffffffffffff\n      and\n      0xffffffffffffffffffffffffffffffffffffffff\n      and\n      dup2\n      mstore\n      0x20\n      add\n      swap1\n      dup2\n      mstore\n      0x20\n      add\n      0x00\n      keccak256\n      0x00\n      swap1\n      sload\n      swap1\n      0x0100\n      exp\n      swap1\n      div\n      0xff\n      and\n        /* \"contracts/ZombieGame.sol\":8441:8468  FreeNft[msg.sender] == true */\n      iszero\n      iszero\n      eq\n        /* \"contracts/ZombieGame.sol\":8365:8468  RentedbyID[zombieID] == msg.sender && Timing[zombieID] > block.timestamp || FreeNft[msg.sender] == true */\n    tag_223:\n        /* \"contracts/ZombieGame.sol\":8361:8967  if (RentedbyID[zombieID] == msg.sender && Timing[zombieID] > block.timestamp || FreeNft[msg.sender] == true) {... */\n      iszero\n      tag_224\n      jumpi\n        /* \"contracts/ZombieGame.sol\":8485:8505  uint beforeMatchWins */\n      0x00\n        /* \"contracts/ZombieGame.sol\":8508:8515  zombies */\n      0x03\n        /* \"contracts/ZombieGame.sol\":8516:8524  zombieID */\n      dup3\n        /* \"contracts/ZombieGame.sol\":8508:8525  zombies[zombieID] */\n      dup2\n      sload\n      dup2\n      lt\n      tag_225\n      jumpi\n      tag_226\n      tag_150\n      jump\t// in\n    tag_226:\n    tag_225:\n      swap1\n      0x00\n      mstore\n      keccak256(0x00, 0x20)\n      swap1\n      0x09\n      mul\n      add\n        /* \"contracts/ZombieGame.sol\":8508:8530  zombies[zombieID].Wins */\n      0x07\n      add\n      sload\n        /* \"contracts/ZombieGame.sol\":8485:8530  uint beforeMatchWins = zombies[zombieID].Wins */\n      swap1\n      pop\n        /* \"contracts/ZombieGame.sol\":8545:8569  ZombieVsZombie(zombieID) */\n      tag_228\n        /* \"contracts/ZombieGame.sol\":8560:8568  zombieID */\n      dup3\n        /* \"contracts/ZombieGame.sol\":8545:8559  ZombieVsZombie */\n      tag_229\n        /* \"contracts/ZombieGame.sol\":8545:8569  ZombieVsZombie(zombieID) */\n      jump\t// in\n    tag_228:\n      pop\n        /* \"contracts/ZombieGame.sol\":8617:8632  beforeMatchWins */\n      dup1\n        /* \"contracts/ZombieGame.sol\":8592:8599  zombies */\n      0x03\n        /* \"contracts/ZombieGame.sol\":8600:8608  zombieID */\n      dup4\n        /* \"contracts/ZombieGame.sol\":8592:8609  zombies[zombieID] */\n      dup2\n      sload\n      dup2\n      lt\n      tag_230\n      jumpi\n      tag_231\n      tag_150\n      jump\t// in\n    tag_231:\n    tag_230:\n      swap1\n      0x00\n      mstore\n      keccak256(0x00, 0x20)\n      swap1\n      0x09\n      mul\n      add\n        /* \"contracts/ZombieGame.sol\":8592:8614  zombies[zombieID].Wins */\n      0x07\n      add\n      sload\n        /* \"contracts/ZombieGame.sol\":8592:8632  zombies[zombieID].Wins > beforeMatchWins */\n      gt\n        /* \"contracts/ZombieGame.sol\":8592:8664  zombies[zombieID].Wins > beforeMatchWins && ZombieCount[msg.sender] >= 1 */\n      dup1\n      iszero\n      tag_233\n      jumpi\n      pop\n        /* \"contracts/ZombieGame.sol\":8663:8664  1 */\n      0x01\n        /* \"contracts/ZombieGame.sol\":8636:8647  ZombieCount */\n      dup1\n        /* \"contracts/ZombieGame.sol\":8636:8659  ZombieCount[msg.sender] */\n      0x00\n        /* \"contracts/ZombieGame.sol\":8648:8658  msg.sender */\n      caller\n        /* \"contracts/ZombieGame.sol\":8636:8659  ZombieCount[msg.sender] */\n      0xffffffffffffffffffffffffffffffffffffffff\n      and\n      0xffffffffffffffffffffffffffffffffffffffff\n      and\n      dup2\n      mstore\n      0x20\n      add\n      swap1\n      dup2\n      mstore\n      0x20\n      add\n      0x00\n      keccak256\n      sload\n        /* \"contracts/ZombieGame.sol\":8636:8664  ZombieCount[msg.sender] >= 1 */\n      lt\n      iszero\n        /* \"contracts/ZombieGame.sol\":8592:8664  zombies[zombieID].Wins > beforeMatchWins && ZombieCount[msg.sender] >= 1 */\n    tag_233:\n        /* \"contracts/ZombieGame.sol\":8588:8800  if (zombies[zombieID].Wins > beforeMatchWins && ZombieCount[msg.sender] >= 1) {... */\n      iszero\n      tag_234\n      jumpi\n        /* \"contracts/ZombieGame.sol\":8685:8707  uint[] memory renterId */\n      0x00\n        /* \"contracts/ZombieGame.sol\":8710:8734  ownerZombies(msg.sender) */\n      tag_235\n        /* \"contracts/ZombieGame.sol\":8723:8733  msg.sender */\n      caller\n        /* \"contracts/ZombieGame.sol\":8710:8722  ownerZombies */\n      tag_53\n        /* \"contracts/ZombieGame.sol\":8710:8734  ownerZombies(msg.sender) */\n      jump\t// in\n    tag_235:\n        /* \"contracts/ZombieGame.sol\":8685:8734  uint[] memory renterId = ownerZombies(msg.sender) */\n      swap1\n      pop\n        /* \"contracts/ZombieGame.sol\":8783:8784  1 */\n      0x01\n        /* \"contracts/ZombieGame.sol\":8753:8760  zombies */\n      0x03\n        /* \"contracts/ZombieGame.sol\":8761:8769  renterId */\n      dup3\n        /* \"contracts/ZombieGame.sol\":8770:8771  0 */\n      0x00\n        /* \"contracts/ZombieGame.sol\":8761:8772  renterId[0] */\n      dup2\n      mload\n      dup2\n      lt\n      tag_236\n      jumpi\n      tag_237\n      tag_150\n      jump\t// in\n    tag_237:\n    tag_236:\n      0x20\n      mul\n      0x20\n      add\n      add\n      mload\n        /* \"contracts/ZombieGame.sol\":8753:8773  zombies[renterId[0]] */\n      dup2\n      sload\n      dup2\n      lt\n      tag_238\n      jumpi\n      tag_239\n      tag_150\n      jump\t// in\n    tag_239:\n    tag_238:\n      swap1\n      0x00\n      mstore\n      keccak256(0x00, 0x20)\n      swap1\n      0x09\n      mul\n      add\n        /* \"contracts/ZombieGame.sol\":8753:8779  zombies[renterId[0]].level */\n      0x03\n      add\n      0x00\n        /* \"contracts/ZombieGame.sol\":8753:8784  zombies[renterId[0]].level += 1 */\n      dup3\n      dup3\n      sload\n      tag_241\n      swap2\n      swap1\n      tag_160\n      jump\t// in\n    tag_241:\n      swap3\n      pop\n      pop\n      dup2\n      swap1\n      sstore\n      pop\n        /* \"contracts/ZombieGame.sol\":8666:8800  {... */\n      pop\n        /* \"contracts/ZombieGame.sol\":8588:8800  if (zombies[zombieID].Wins > beforeMatchWins && ZombieCount[msg.sender] >= 1) {... */\n    tag_234:\n        /* \"contracts/ZombieGame.sol\":8470:8811  {... */\n      pop\n        /* \"contracts/ZombieGame.sol\":8361:8967  if (RentedbyID[zombieID] == msg.sender && Timing[zombieID] > block.timestamp || FreeNft[msg.sender] == true) {... */\n      jump(tag_242)\n    tag_224:\n        /* \"contracts/ZombieGame.sol\":8876:8886  msg.sender */\n      caller\n        /* \"contracts/ZombieGame.sol\":8851:8886  ZombieOwner[zombieID] == msg.sender */\n      0xffffffffffffffffffffffffffffffffffffffff\n      and\n        /* \"contracts/ZombieGame.sol\":8851:8862  ZombieOwner */\n      0x00\n        /* \"contracts/ZombieGame.sol\":8851:8872  ZombieOwner[zombieID] */\n      dup1\n        /* \"contracts/ZombieGame.sol\":8863:8871  zombieID */\n      dup4\n        /* \"contracts/ZombieGame.sol\":8851:8872  ZombieOwner[zombieID] */\n      dup2\n      mstore\n      0x20\n      add\n      swap1\n      dup2\n      mstore\n      0x20\n      add\n      0x00\n      keccak256\n      0x00\n      swap1\n      sload\n      swap1\n      0x0100\n      exp\n      swap1\n      div\n      0xffffffffffffffffffffffffffffffffffffffff\n      and\n        /* \"contracts/ZombieGame.sol\":8851:8886  ZombieOwner[zombieID] == msg.sender */\n      0xffffffffffffffffffffffffffffffffffffffff\n      and\n      eq\n        /* \"contracts/ZombieGame.sol\":8843:8909  require(ZombieOwner[zombieID] == msg.sender, \"You dont have nft.\") */\n      tag_243\n      jumpi\n      mload(0x40)\n      0x08c379a000000000000000000000000000000000000000000000000000000000\n      dup2\n      mstore\n      0x04\n      add\n      tag_244\n      swap1\n      tag_245\n      jump\t// in\n    tag_244:\n      mload(0x40)\n      dup1\n      swap2\n      sub\n      swap1\n      revert\n    tag_243:\n        /* \"contracts/ZombieGame.sol\":8924:8948  ZombieVsZombie(zombieID) */\n      tag_246\n        /* \"contracts/ZombieGame.sol\":8939:8947  zombieID */\n      dup2\n        /* \"contracts/ZombieGame.sol\":8924:8938  ZombieVsZombie */\n      tag_229\n        /* \"contracts/ZombieGame.sol\":8924:8948  ZombieVsZombie(zombieID) */\n      jump\t// in\n    tag_246:\n      pop\n        /* \"contracts/ZombieGame.sol\":8361:8967  if (RentedbyID[zombieID] == msg.sender && Timing[zombieID] > block.timestamp || FreeNft[msg.sender] == true) {... */\n    tag_242:\n        /* \"contracts/ZombieGame.sol\":8293:8974  function FightWithZombie(uint zombieID) external {... */\n      pop\n      jump\t// out\n        /* \"contracts/ZombieGame.sol\":4895:4938  mapping (uint => address) public RentedbyID */\n    tag_104:\n      mstore(0x20, 0x0c)\n      dup1\n      0x00\n      mstore\n      keccak256(0x00, 0x40)\n      0x00\n      swap2\n      pop\n      sload\n      swap1\n      0x0100\n      exp\n      swap1\n      div\n      0xffffffffffffffffffffffffffffffffffffffff\n      and\n      dup2\n      jump\t// out\n        /* \"contracts/ZombieGame.sol\":6024:6403  function BuyZombie(string memory plan, string memory name) external payable returns(bool) {... */\n    tag_110:\n        /* \"contracts/ZombieGame.sol\":6108:6112  bool */\n      0x00\n        /* \"contracts/ZombieGame.sol\":6146:6153  1 ether */\n      0x0de0b6b3a7640000\n        /* \"contracts/ZombieGame.sol\":6133:6142  msg.value */\n      callvalue\n        /* \"contracts/ZombieGame.sol\":6133:6153  msg.value == 1 ether */\n      eq\n        /* \"contracts/ZombieGame.sol\":6125:6180  require(msg.value == 1 ether , \"vlue must be 1 ether.\") */\n      tag_248\n      jumpi\n      mload(0x40)\n      0x08c379a000000000000000000000000000000000000000000000000000000000\n      dup2\n      mstore\n      0x04\n      add\n      tag_249\n      swap1\n      tag_250\n      jump\t// in\n    tag_249:\n      mload(0x40)\n      dup1\n      swap2\n      sub\n      swap1\n      revert\n    tag_248:\n        /* \"contracts/ZombieGame.sol\":6235:6251  bytes(\"premium\") */\n      mload(0x40)\n      dup1\n      0x40\n      add\n      0x40\n      mstore\n      dup1\n      0x07\n      dup2\n      mstore\n      0x20\n      add\n      0x7072656d69756d00000000000000000000000000000000000000000000000000\n      dup2\n      mstore\n      pop\n        /* \"contracts/ZombieGame.sol\":6225:6252  keccak256(bytes(\"premium\")) */\n      dup1\n      mload\n      swap1\n      0x20\n      add\n      keccak256\n        /* \"contracts/ZombieGame.sol\":6215:6219  plan */\n      dup4\n        /* \"contracts/ZombieGame.sol\":6199:6221  keccak256(bytes(plan)) */\n      dup1\n      mload\n      swap1\n      0x20\n      add\n      keccak256\n        /* \"contracts/ZombieGame.sol\":6199:6252  keccak256(bytes(plan)) == keccak256(bytes(\"premium\")) */\n      eq\n        /* \"contracts/ZombieGame.sol\":6191:6273  require(keccak256(bytes(plan)) == keccak256(bytes(\"premium\")), \"Correct Spelling\") */\n      tag_251\n      jumpi\n      mload(0x40)\n      0x08c379a000000000000000000000000000000000000000000000000000000000\n      dup2\n      mstore\n      0x04\n      add\n      tag_252\n      swap1\n      tag_253\n      jump\t// in\n    tag_252:\n      mload(0x40)\n      dup1\n      swap2\n      sub\n      swap1\n      revert\n    tag_251:\n        /* \"contracts/ZombieGame.sol\":6284:6292  uint Dna */\n      0x00\n        /* \"contracts/ZombieGame.sol\":6295:6313  DnaGenerator(name) */\n      tag_254\n        /* \"contracts/ZombieGame.sol\":6308:6312  name */\n      dup4\n        /* \"contracts/ZombieGame.sol\":6295:6307  DnaGenerator */\n      tag_202\n        /* \"contracts/ZombieGame.sol\":6295:6313  DnaGenerator(name) */\n      jump\t// in\n    tag_254:\n        /* \"contracts/ZombieGame.sol\":6284:6313  uint Dna = DnaGenerator(name) */\n      swap1\n      pop\n        /* \"contracts/ZombieGame.sol\":6324:6373  createZombie(plan, name, Dna, 5, 500, 0, 5, 0, 0) */\n      tag_255\n        /* \"contracts/ZombieGame.sol\":6337:6341  plan */\n      dup5\n        /* \"contracts/ZombieGame.sol\":6343:6347  name */\n      dup5\n        /* \"contracts/ZombieGame.sol\":6349:6352  Dna */\n      dup4\n        /* \"contracts/ZombieGame.sol\":6354:6355  5 */\n      0x05\n        /* \"contracts/ZombieGame.sol\":6357:6360  500 */\n      0x01f4\n        /* \"contracts/ZombieGame.sol\":6362:6363  0 */\n      0x00\n        /* \"contracts/ZombieGame.sol\":6365:6366  5 */\n      0x05\n        /* \"contracts/ZombieGame.sol\":6368:6369  0 */\n      0x00\n        /* \"contracts/ZombieGame.sol\":6371:6372  0 */\n      dup1\n        /* \"contracts/ZombieGame.sol\":6324:6336  createZombie */\n      tag_203\n        /* \"contracts/ZombieGame.sol\":6324:6373  createZombie(plan, name, Dna, 5, 500, 0, 5, 0, 0) */\n      jump\t// in\n    tag_255:\n        /* \"contracts/ZombieGame.sol\":6391:6395  true */\n      0x01\n        /* \"contracts/ZombieGame.sol\":6384:6395  return true */\n      swap2\n      pop\n      pop\n        /* \"contracts/ZombieGame.sol\":6024:6403  function BuyZombie(string memory plan, string memory name) external payable returns(bool) {... */\n      swap3\n      swap2\n      pop\n      pop\n      jump\t// out\n        /* \"contracts/ZombieGame.sol\":7859:8207  function FightWithBot(uint YourZombieId) public {... */\n    tag_115:\n        /* \"contracts/ZombieGame.sol\":7918:7931  ZombieVsBot() */\n      tag_257\n        /* \"contracts/ZombieGame.sol\":7918:7929  ZombieVsBot */\n      tag_258\n        /* \"contracts/ZombieGame.sol\":7918:7931  ZombieVsBot() */\n      jump\t// in\n    tag_257:\n        /* \"contracts/ZombieGame.sol\":7942:7952  uint botId */\n      0x00\n        /* \"contracts/ZombieGame.sol\":8053:8060  zombies */\n      0x03\n        /* \"contracts/ZombieGame.sol\":8061:8073  YourZombieId */\n      dup3\n        /* \"contracts/ZombieGame.sol\":8053:8074  zombies[YourZombieId] */\n      dup2\n      sload\n      dup2\n      lt\n      tag_259\n      jumpi\n      tag_260\n      tag_150\n      jump\t// in\n    tag_260:\n    tag_259:\n      swap1\n      0x00\n      mstore\n      keccak256(0x00, 0x20)\n      swap1\n      0x09\n      mul\n      add\n        /* \"contracts/ZombieGame.sol\":8053:8080  zombies[YourZombieId].level */\n      0x03\n      add\n      sload\n        /* \"contracts/ZombieGame.sol\":8034:8046  block.number */\n      number\n        /* \"contracts/ZombieGame.sol\":8017:8033  block.difficulty */\n      prevrandao\n        /* \"contracts/ZombieGame.sol\":8003:8016  block.chainid */\n      chainid\n        /* \"contracts/ZombieGame.sol\":7987:8002  block.timestamp */\n      timestamp\n        /* \"contracts/ZombieGame.sol\":7987:8016  block.timestamp*block.chainid */\n      tag_262\n      swap2\n      swap1\n      tag_263\n      jump\t// in\n    tag_262:\n        /* \"contracts/ZombieGame.sol\":7987:8033  block.timestamp*block.chainid*block.difficulty */\n      tag_264\n      swap2\n      swap1\n      tag_263\n      jump\t// in\n    tag_264:\n        /* \"contracts/ZombieGame.sol\":7987:8046  block.timestamp*block.chainid*block.difficulty*block.number */\n      tag_265\n      swap2\n      swap1\n      tag_263\n      jump\t// in\n    tag_265:\n        /* \"contracts/ZombieGame.sol\":7970:8047  abi.encodePacked(block.timestamp*block.chainid*block.difficulty*block.number) */\n      add(0x20, mload(0x40))\n      tag_266\n      swap2\n      swap1\n      tag_267\n      jump\t// in\n    tag_266:\n      mload(0x40)\n      0x20\n      dup2\n      dup4\n      sub\n      sub\n      dup2\n      mstore\n      swap1\n      0x40\n      mstore\n        /* \"contracts/ZombieGame.sol\":7960:8048  keccak256(abi.encodePacked(block.timestamp*block.chainid*block.difficulty*block.number)) */\n      dup1\n      mload\n      swap1\n      0x20\n      add\n      keccak256\n        /* \"contracts/ZombieGame.sol\":7955:8049  uint(keccak256(abi.encodePacked(block.timestamp*block.chainid*block.difficulty*block.number))) */\n      0x00\n      shr\n        /* \"contracts/ZombieGame.sol\":7955:8081  uint(keccak256(abi.encodePacked(block.timestamp*block.chainid*block.difficulty*block.number))) % (zombies[YourZombieId].level) */\n      tag_268\n      swap2\n      swap1\n      tag_158\n      jump\t// in\n    tag_268:\n        /* \"contracts/ZombieGame.sol\":7942:8081  uint botId = uint(keccak256(abi.encodePacked(block.timestamp*block.chainid*block.difficulty*block.number))) % (zombies[YourZombieId].level) */\n      swap1\n      pop\n        /* \"contracts/ZombieGame.sol\":8125:8129  bots */\n      0x04\n        /* \"contracts/ZombieGame.sol\":8130:8135  botId */\n      dup2\n        /* \"contracts/ZombieGame.sol\":8125:8136  bots[botId] */\n      dup2\n      sload\n      dup2\n      lt\n      tag_269\n      jumpi\n      tag_270\n      tag_150\n      jump\t// in\n    tag_270:\n    tag_269:\n      swap1\n      0x00\n      mstore\n      keccak256(0x00, 0x20)\n      add\n        /* \"contracts/ZombieGame.sol\":8125:8142  bots[botId].level */\n      0x00\n      add\n      sload\n        /* \"contracts/ZombieGame.sol\":8095:8102  zombies */\n      0x03\n        /* \"contracts/ZombieGame.sol\":8103:8115  YourZombieId */\n      dup4\n        /* \"contracts/ZombieGame.sol\":8095:8116  zombies[YourZombieId] */\n      dup2\n      sload\n      dup2\n      lt\n      tag_272\n      jumpi\n      tag_273\n      tag_150\n      jump\t// in\n    tag_273:\n    tag_272:\n      swap1\n      0x00\n      mstore\n      keccak256(0x00, 0x20)\n      swap1\n      0x09\n      mul\n      add\n        /* \"contracts/ZombieGame.sol\":8095:8122  zombies[YourZombieId].level */\n      0x03\n      add\n      sload\n        /* \"contracts/ZombieGame.sol\":8095:8142  zombies[YourZombieId].level > bots[botId].level */\n      gt\n        /* \"contracts/ZombieGame.sol\":8092:8200  if(zombies[YourZombieId].level > bots[botId].level){... */\n      iszero\n      tag_275\n      jumpi\n        /* \"contracts/ZombieGame.sol\":8158:8165  zombies */\n      0x03\n        /* \"contracts/ZombieGame.sol\":8166:8178  YourZombieId */\n      dup3\n        /* \"contracts/ZombieGame.sol\":8158:8179  zombies[YourZombieId] */\n      dup2\n      sload\n      dup2\n      lt\n      tag_276\n      jumpi\n      tag_277\n      tag_150\n      jump\t// in\n    tag_277:\n    tag_276:\n      swap1\n      0x00\n      mstore\n      keccak256(0x00, 0x20)\n      swap1\n      0x09\n      mul\n      add\n        /* \"contracts/ZombieGame.sol\":8158:8185  zombies[YourZombieId].level */\n      0x03\n      add\n      0x00\n        /* \"contracts/ZombieGame.sol\":8158:8188  zombies[YourZombieId].level ++ */\n      dup2\n      sload\n      dup1\n      swap3\n      swap2\n      swap1\n      tag_279\n      swap1\n      tag_173\n      jump\t// in\n    tag_279:\n      swap2\n      swap1\n      pop\n      sstore\n      pop\n        /* \"contracts/ZombieGame.sol\":8092:8200  if(zombies[YourZombieId].level > bots[botId].level){... */\n    tag_275:\n        /* \"contracts/ZombieGame.sol\":7907:8207  {... */\n      pop\n        /* \"contracts/ZombieGame.sol\":7859:8207  function FightWithBot(uint YourZombieId) public {... */\n      pop\n      jump\t// out\n        /* \"contracts/ZombieGame.sol\":9060:9244  function convertXP(uint id) external OnlyOwner(id) {... */\n    tag_119:\n        /* \"contracts/ZombieGame.sol\":9107:9109  id */\n      dup1\n        /* \"contracts/ZombieGame.sol\":5204:5214  msg.sender */\n      caller\n        /* \"contracts/ZombieGame.sol\":5179:5214  ZombieOwner[zombieId] == msg.sender */\n      0xffffffffffffffffffffffffffffffffffffffff\n      and\n        /* \"contracts/ZombieGame.sol\":5179:5190  ZombieOwner */\n      0x00\n        /* \"contracts/ZombieGame.sol\":5179:5200  ZombieOwner[zombieId] */\n      dup1\n        /* \"contracts/ZombieGame.sol\":5191:5199  zombieId */\n      dup4\n        /* \"contracts/ZombieGame.sol\":5179:5200  ZombieOwner[zombieId] */\n      dup2\n      mstore\n      0x20\n      add\n      swap1\n      dup2\n      mstore\n      0x20\n      add\n      0x00\n      keccak256\n      0x00\n      swap1\n      sload\n      swap1\n      0x0100\n      exp\n      swap1\n      div\n      0xffffffffffffffffffffffffffffffffffffffff\n      and\n        /* \"contracts/ZombieGame.sol\":5179:5214  ZombieOwner[zombieId] == msg.sender */\n      0xffffffffffffffffffffffffffffffffffffffff\n      and\n      eq\n        /* \"contracts/ZombieGame.sol\":5171:5230  require(ZombieOwner[zombieId] == msg.sender, \"Only Owner.\") */\n      tag_281\n      jumpi\n      mload(0x40)\n      0x08c379a000000000000000000000000000000000000000000000000000000000\n      dup2\n      mstore\n      0x04\n      add\n      tag_282\n      swap1\n      tag_141\n      jump\t// in\n    tag_282:\n      mload(0x40)\n      dup1\n      swap2\n      sub\n      swap1\n      revert\n    tag_281:\n        /* \"contracts/ZombieGame.sol\":9147:9150  500 */\n      0x01f4\n        /* \"contracts/ZombieGame.sol\":9130:9137  zombies */\n      0x03\n        /* \"contracts/ZombieGame.sol\":9138:9140  id */\n      dup4\n        /* \"contracts/ZombieGame.sol\":9130:9141  zombies[id] */\n      dup2\n      sload\n      dup2\n      lt\n      tag_284\n      jumpi\n      tag_285\n      tag_150\n      jump\t// in\n    tag_285:\n    tag_284:\n      swap1\n      0x00\n      mstore\n      keccak256(0x00, 0x20)\n      swap1\n      0x09\n      mul\n      add\n        /* \"contracts/ZombieGame.sol\":9130:9144  zombies[id].xp */\n      0x04\n      add\n      sload\n        /* \"contracts/ZombieGame.sol\":9130:9150  zombies[id].xp >=500 */\n      lt\n      iszero\n        /* \"contracts/ZombieGame.sol\":9122:9171  require(zombies[id].xp >=500, \"you need more xp\") */\n      tag_287\n      jumpi\n      mload(0x40)\n      0x08c379a000000000000000000000000000000000000000000000000000000000\n      dup2\n      mstore\n      0x04\n      add\n      tag_288\n      swap1\n      tag_289\n      jump\t// in\n    tag_288:\n      mload(0x40)\n      dup1\n      swap2\n      sub\n      swap1\n      revert\n    tag_287:\n        /* \"contracts/ZombieGame.sol\":9200:9203  500 */\n      0x01f4\n        /* \"contracts/ZombieGame.sol\":9182:9189  zombies */\n      0x03\n        /* \"contracts/ZombieGame.sol\":9190:9192  id */\n      dup4\n        /* \"contracts/ZombieGame.sol\":9182:9193  zombies[id] */\n      dup2\n      sload\n      dup2\n      lt\n      tag_290\n      jumpi\n      tag_291\n      tag_150\n      jump\t// in\n    tag_291:\n    tag_290:\n      swap1\n      0x00\n      mstore\n      keccak256(0x00, 0x20)\n      swap1\n      0x09\n      mul\n      add\n        /* \"contracts/ZombieGame.sol\":9182:9196  zombies[id].xp */\n      0x04\n      add\n      0x00\n        /* \"contracts/ZombieGame.sol\":9182:9203  zombies[id].xp -= 500 */\n      dup3\n      dup3\n      sload\n      tag_293\n      swap2\n      swap1\n      tag_294\n      jump\t// in\n    tag_293:\n      swap3\n      pop\n      pop\n      dup2\n      swap1\n      sstore\n      pop\n        /* \"contracts/ZombieGame.sol\":9235:9236  1 */\n      0x01\n        /* \"contracts/ZombieGame.sol\":9214:9221  zombies */\n      0x03\n        /* \"contracts/ZombieGame.sol\":9222:9224  id */\n      dup4\n        /* \"contracts/ZombieGame.sol\":9214:9225  zombies[id] */\n      dup2\n      sload\n      dup2\n      lt\n      tag_295\n      jumpi\n      tag_296\n      tag_150\n      jump\t// in\n    tag_296:\n    tag_295:\n      swap1\n      0x00\n      mstore\n      keccak256(0x00, 0x20)\n      swap1\n      0x09\n      mul\n      add\n        /* \"contracts/ZombieGame.sol\":9214:9231  zombies[id].level */\n      0x03\n      add\n      0x00\n        /* \"contracts/ZombieGame.sol\":9214:9236  zombies[id].level += 1 */\n      dup3\n      dup3\n      sload\n      tag_298\n      swap2\n      swap1\n      tag_160\n      jump\t// in\n    tag_298:\n      swap3\n      pop\n      pop\n      dup2\n      swap1\n      sstore\n      pop\n        /* \"contracts/ZombieGame.sol\":9060:9244  function convertXP(uint id) external OnlyOwner(id) {... */\n      pop\n      pop\n      jump\t// out\n        /* \"contracts/ZombieGame.sol\":9733:10011  function RemoveRent(uint id) external OnlyOwner(id) {... */\n    tag_123:\n        /* \"contracts/ZombieGame.sol\":9781:9783  id */\n      dup1\n        /* \"contracts/ZombieGame.sol\":5204:5214  msg.sender */\n      caller\n        /* \"contracts/ZombieGame.sol\":5179:5214  ZombieOwner[zombieId] == msg.sender */\n      0xffffffffffffffffffffffffffffffffffffffff\n      and\n        /* \"contracts/ZombieGame.sol\":5179:5190  ZombieOwner */\n      0x00\n        /* \"contracts/ZombieGame.sol\":5179:5200  ZombieOwner[zombieId] */\n      dup1\n        /* \"contracts/ZombieGame.sol\":5191:5199  zombieId */\n      dup4\n        /* \"contracts/ZombieGame.sol\":5179:5200  ZombieOwner[zombieId] */\n      dup2\n      mstore\n      0x20\n      add\n      swap1\n      dup2\n      mstore\n      0x20\n      add\n      0x00\n      keccak256\n      0x00\n      swap1\n      sload\n      swap1\n      0x0100\n      exp\n      swap1\n      div\n      0xffffffffffffffffffffffffffffffffffffffff\n      and\n        /* \"contracts/ZombieGame.sol\":5179:5214  ZombieOwner[zombieId] == msg.sender */\n      0xffffffffffffffffffffffffffffffffffffffff\n      and\n      eq\n        /* \"contracts/ZombieGame.sol\":5171:5230  require(ZombieOwner[zombieId] == msg.sender, \"Only Owner.\") */\n      tag_300\n      jumpi\n      mload(0x40)\n      0x08c379a000000000000000000000000000000000000000000000000000000000\n      dup2\n      mstore\n      0x04\n      add\n      tag_301\n      swap1\n      tag_141\n      jump\t// in\n    tag_301:\n      mload(0x40)\n      dup1\n      swap2\n      sub\n      swap1\n      revert\n    tag_300:\n        /* \"contracts/ZombieGame.sol\":9818:9822  true */\n      0x01\n        /* \"contracts/ZombieGame.sol\":9804:9822  onRent[id] == true */\n      iszero\n      iszero\n        /* \"contracts/ZombieGame.sol\":9804:9810  onRent */\n      0x06\n        /* \"contracts/ZombieGame.sol\":9804:9814  onRent[id] */\n      0x00\n        /* \"contracts/ZombieGame.sol\":9811:9813  id */\n      dup5\n        /* \"contracts/ZombieGame.sol\":9804:9814  onRent[id] */\n      dup2\n      mstore\n      0x20\n      add\n      swap1\n      dup2\n      mstore\n      0x20\n      add\n      0x00\n      keccak256\n      0x00\n      swap1\n      sload\n      swap1\n      0x0100\n      exp\n      swap1\n      div\n      0xff\n      and\n        /* \"contracts/ZombieGame.sol\":9804:9822  onRent[id] == true */\n      iszero\n      iszero\n      eq\n        /* \"contracts/ZombieGame.sol\":9796:9839  require(onRent[id] == true, \"not in rent.\") */\n      tag_303\n      jumpi\n      mload(0x40)\n      0x08c379a000000000000000000000000000000000000000000000000000000000\n      dup2\n      mstore\n      0x04\n      add\n      tag_304\n      swap1\n      tag_305\n      jump\t// in\n    tag_304:\n      mload(0x40)\n      dup1\n      swap2\n      sub\n      swap1\n      revert\n    tag_303:\n        /* \"contracts/ZombieGame.sol\":9877:9883  Timing */\n      0x09\n        /* \"contracts/ZombieGame.sol\":9877:9887  Timing[id] */\n      0x00\n        /* \"contracts/ZombieGame.sol\":9884:9886  id */\n      dup4\n        /* \"contracts/ZombieGame.sol\":9877:9887  Timing[id] */\n      dup2\n      mstore\n      0x20\n      add\n      swap1\n      dup2\n      mstore\n      0x20\n      add\n      0x00\n      keccak256\n      sload\n        /* \"contracts/ZombieGame.sol\":9858:9873  block.timestamp */\n      timestamp\n        /* \"contracts/ZombieGame.sol\":9858:9887  block.timestamp >= Timing[id] */\n      lt\n      iszero\n        /* \"contracts/ZombieGame.sol\":9850:9905  require(block.timestamp >= Timing[id], \"time remains.\") */\n      tag_306\n      jumpi\n      mload(0x40)\n      0x08c379a000000000000000000000000000000000000000000000000000000000\n      dup2\n      mstore\n      0x04\n      add\n      tag_307\n      swap1\n      tag_308\n      jump\t// in\n    tag_307:\n      mload(0x40)\n      dup1\n      swap2\n      sub\n      swap1\n      revert\n    tag_306:\n        /* \"contracts/ZombieGame.sol\":9929:9934  false */\n      0x00\n        /* \"contracts/ZombieGame.sol\":9916:9922  onRent */\n      0x06\n        /* \"contracts/ZombieGame.sol\":9916:9926  onRent[id] */\n      0x00\n        /* \"contracts/ZombieGame.sol\":9923:9925  id */\n      dup5\n        /* \"contracts/ZombieGame.sol\":9916:9926  onRent[id] */\n      dup2\n      mstore\n      0x20\n      add\n      swap1\n      dup2\n      mstore\n      0x20\n      add\n      0x00\n      keccak256\n      0x00\n        /* \"contracts/ZombieGame.sol\":9916:9934  onRent[id] = false */\n      0x0100\n      exp\n      dup2\n      sload\n      dup2\n      0xff\n      mul\n      not\n      and\n      swap1\n      dup4\n      iszero\n      iszero\n      mul\n      or\n      swap1\n      sstore\n      pop\n        /* \"contracts/ZombieGame.sol\":9960:9965  false */\n      0x00\n        /* \"contracts/ZombieGame.sol\":9945:9953  TakenNft */\n      0x0a\n        /* \"contracts/ZombieGame.sol\":9945:9957  TakenNft[id] */\n      0x00\n        /* \"contracts/ZombieGame.sol\":9954:9956  id */\n      dup5\n        /* \"contracts/ZombieGame.sol\":9945:9957  TakenNft[id] */\n      dup2\n      mstore\n      0x20\n      add\n      swap1\n      dup2\n      mstore\n      0x20\n      add\n      0x00\n      keccak256\n      0x00\n        /* \"contracts/ZombieGame.sol\":9945:9965  TakenNft[id] = false */\n      0x0100\n      exp\n      dup2\n      sload\n      dup2\n      0xff\n      mul\n      not\n      and\n      swap1\n      dup4\n      iszero\n      iszero\n      mul\n      or\n      swap1\n      sstore\n      pop\n        /* \"contracts/ZombieGame.sol\":10001:10002  0 */\n      0x00\n        /* \"contracts/ZombieGame.sol\":9976:9986  RentedbyID */\n      0x0c\n        /* \"contracts/ZombieGame.sol\":9976:9990  RentedbyID[id] */\n      0x00\n        /* \"contracts/ZombieGame.sol\":9987:9989  id */\n      dup5\n        /* \"contracts/ZombieGame.sol\":9976:9990  RentedbyID[id] */\n      dup2\n      mstore\n      0x20\n      add\n      swap1\n      dup2\n      mstore\n      0x20\n      add\n      0x00\n      keccak256\n      0x00\n        /* \"contracts/ZombieGame.sol\":9976:10003  RentedbyID[id] = address(0) */\n      0x0100\n      exp\n      dup2\n      sload\n      dup2\n      0xffffffffffffffffffffffffffffffffffffffff\n      mul\n      not\n      and\n      swap1\n      dup4\n      0xffffffffffffffffffffffffffffffffffffffff\n      and\n      mul\n      or\n      swap1\n      sstore\n      pop\n        /* \"contracts/ZombieGame.sol\":9733:10011  function RemoveRent(uint id) external OnlyOwner(id) {... */\n      pop\n      pop\n      jump\t// out\n        /* \"contracts/ZombieGame.sol\":6451:7079  function BuyOnRent(uint id) external payable returns(bool) {... */\n    tag_126:\n        /* \"contracts/ZombieGame.sol\":6504:6508  bool */\n      0x00\n        /* \"contracts/ZombieGame.sol\":6542:6557  block.timestamp */\n      timestamp\n        /* \"contracts/ZombieGame.sol\":6529:6535  Timing */\n      0x09\n        /* \"contracts/ZombieGame.sol\":6529:6539  Timing[id] */\n      0x00\n        /* \"contracts/ZombieGame.sol\":6536:6538  id */\n      dup5\n        /* \"contracts/ZombieGame.sol\":6529:6539  Timing[id] */\n      dup2\n      mstore\n      0x20\n      add\n      swap1\n      dup2\n      mstore\n      0x20\n      add\n      0x00\n      keccak256\n      sload\n        /* \"contracts/ZombieGame.sol\":6529:6557  Timing[id] > block.timestamp */\n      gt\n        /* \"contracts/ZombieGame.sol\":6521:6584  require(Timing[id] > block.timestamp, \"Now id is not on rent.\") */\n      tag_310\n      jumpi\n      mload(0x40)\n      0x08c379a000000000000000000000000000000000000000000000000000000000\n      dup2\n      mstore\n      0x04\n      add\n      tag_311\n      swap1\n      tag_312\n      jump\t// in\n    tag_311:\n      mload(0x40)\n      dup1\n      swap2\n      sub\n      swap1\n      revert\n    tag_310:\n        /* \"contracts/ZombieGame.sol\":6616:6626  rentAmount */\n      0x0d\n        /* \"contracts/ZombieGame.sol\":6616:6630  rentAmount[id] */\n      0x00\n        /* \"contracts/ZombieGame.sol\":6627:6629  id */\n      dup4\n        /* \"contracts/ZombieGame.sol\":6616:6630  rentAmount[id] */\n      dup2\n      mstore\n      0x20\n      add\n      swap1\n      dup2\n      mstore\n      0x20\n      add\n      0x00\n      keccak256\n      sload\n        /* \"contracts/ZombieGame.sol\":6603:6612  msg.value */\n      callvalue\n        /* \"contracts/ZombieGame.sol\":6603:6630  msg.value == rentAmount[id] */\n      eq\n        /* \"contracts/ZombieGame.sol\":6595:6667  require(msg.value == rentAmount[id], \"amount not match ether required.\") */\n      tag_313\n      jumpi\n      mload(0x40)\n      0x08c379a000000000000000000000000000000000000000000000000000000000\n      dup2\n      mstore\n      0x04\n      add\n      tag_314\n      swap1\n      tag_315\n      jump\t// in\n    tag_314:\n      mload(0x40)\n      dup1\n      swap2\n      sub\n      swap1\n      revert\n    tag_313:\n        /* \"contracts/ZombieGame.sol\":6687:6695  TakenNft */\n      0x0a\n        /* \"contracts/ZombieGame.sol\":6687:6699  TakenNft[id] */\n      0x00\n        /* \"contracts/ZombieGame.sol\":6696:6698  id */\n      dup4\n        /* \"contracts/ZombieGame.sol\":6687:6699  TakenNft[id] */\n      dup2\n      mstore\n      0x20\n      add\n      swap1\n      dup2\n      mstore\n      0x20\n      add\n      0x00\n      keccak256\n      0x00\n      swap1\n      sload\n      swap1\n      0x0100\n      exp\n      swap1\n      div\n      0xff\n      and\n        /* \"contracts/ZombieGame.sol\":6686:6699  !TakenNft[id] */\n      iszero\n        /* \"contracts/ZombieGame.sol\":6686:6725  !TakenNft[id] && !buyOnRent[msg.sender] */\n      dup1\n      iszero\n      tag_316\n      jumpi\n      pop\n        /* \"contracts/ZombieGame.sol\":6704:6713  buyOnRent */\n      0x0b\n        /* \"contracts/ZombieGame.sol\":6704:6725  buyOnRent[msg.sender] */\n      0x00\n        /* \"contracts/ZombieGame.sol\":6714:6724  msg.sender */\n      caller\n        /* \"contracts/ZombieGame.sol\":6704:6725  buyOnRent[msg.sender] */\n      0xffffffffffffffffffffffffffffffffffffffff\n      and\n      0xffffffffffffffffffffffffffffffffffffffff\n      and\n      dup2\n      mstore\n      0x20\n      add\n      swap1\n      dup2\n      mstore\n      0x20\n      add\n      0x00\n      keccak256\n      0x00\n      swap1\n      sload\n      swap1\n      0x0100\n      exp\n      swap1\n      div\n      0xff\n      and\n        /* \"contracts/ZombieGame.sol\":6703:6725  !buyOnRent[msg.sender] */\n      iszero\n        /* \"contracts/ZombieGame.sol\":6686:6725  !TakenNft[id] && !buyOnRent[msg.sender] */\n    tag_316:\n        /* \"contracts/ZombieGame.sol\":6678:6748  require(!TakenNft[id] && !buyOnRent[msg.sender], \"already taken Nft.\") */\n      tag_317\n      jumpi\n      mload(0x40)\n      0x08c379a000000000000000000000000000000000000000000000000000000000\n      dup2\n      mstore\n      0x04\n      add\n      tag_318\n      swap1\n      tag_319\n      jump\t// in\n    tag_318:\n      mload(0x40)\n      dup1\n      swap2\n      sub\n      swap1\n      revert\n    tag_317:\n        /* \"contracts/ZombieGame.sol\":6786:6796  msg.sender */\n      caller\n        /* \"contracts/ZombieGame.sol\":6767:6796  ZombieOwner[id] != msg.sender */\n      0xffffffffffffffffffffffffffffffffffffffff\n      and\n        /* \"contracts/ZombieGame.sol\":6767:6778  ZombieOwner */\n      0x00\n        /* \"contracts/ZombieGame.sol\":6767:6782  ZombieOwner[id] */\n      dup1\n        /* \"contracts/ZombieGame.sol\":6779:6781  id */\n      dup5\n        /* \"contracts/ZombieGame.sol\":6767:6782  ZombieOwner[id] */\n      dup2\n      mstore\n      0x20\n      add\n      swap1\n      dup2\n      mstore\n      0x20\n      add\n      0x00\n      keccak256\n      0x00\n      swap1\n      sload\n      swap1\n      0x0100\n      exp\n      swap1\n      div\n      0xffffffffffffffffffffffffffffffffffffffff\n      and\n        /* \"contracts/ZombieGame.sol\":6767:6796  ZombieOwner[id] != msg.sender */\n      0xffffffffffffffffffffffffffffffffffffffff\n      and\n      sub\n        /* \"contracts/ZombieGame.sol\":6759:6828  require(ZombieOwner[id] != msg.sender, \"owner cant take his own id.\") */\n      tag_320\n      jumpi\n      mload(0x40)\n      0x08c379a000000000000000000000000000000000000000000000000000000000\n      dup2\n      mstore\n      0x04\n      add\n      tag_321\n      swap1\n      tag_322\n      jump\t// in\n    tag_321:\n      mload(0x40)\n      dup1\n      swap2\n      sub\n      swap1\n      revert\n    tag_320:\n        /* \"contracts/ZombieGame.sol\":6861:6865  true */\n      0x01\n        /* \"contracts/ZombieGame.sol\":6847:6865  onRent[id] == true */\n      iszero\n      iszero\n        /* \"contracts/ZombieGame.sol\":6847:6853  onRent */\n      0x06\n        /* \"contracts/ZombieGame.sol\":6847:6857  onRent[id] */\n      0x00\n        /* \"contracts/ZombieGame.sol\":6854:6856  id */\n      dup5\n        /* \"contracts/ZombieGame.sol\":6847:6857  onRent[id] */\n      dup2\n      mstore\n      0x20\n      add\n      swap1\n      dup2\n      mstore\n      0x20\n      add\n      0x00\n      keccak256\n      0x00\n      swap1\n      sload\n      swap1\n      0x0100\n      exp\n      swap1\n      div\n      0xff\n      and\n        /* \"contracts/ZombieGame.sol\":6847:6865  onRent[id] == true */\n      iszero\n      iszero\n      eq\n        /* \"contracts/ZombieGame.sol\":6839:6885  require(onRent[id] == true, \"nft not listed.\") */\n      tag_323\n      jumpi\n      mload(0x40)\n      0x08c379a000000000000000000000000000000000000000000000000000000000\n      dup2\n      mstore\n      0x04\n      add\n      tag_324\n      swap1\n      tag_325\n      jump\t// in\n    tag_324:\n      mload(0x40)\n      dup1\n      swap2\n      sub\n      swap1\n      revert\n    tag_323:\n        /* \"contracts/ZombieGame.sol\":6906:6917  ZombieOwner */\n      0x00\n        /* \"contracts/ZombieGame.sol\":6906:6921  ZombieOwner[id] */\n      dup1\n        /* \"contracts/ZombieGame.sol\":6918:6920  id */\n      dup4\n        /* \"contracts/ZombieGame.sol\":6906:6921  ZombieOwner[id] */\n      dup2\n      mstore\n      0x20\n      add\n      swap1\n      dup2\n      mstore\n      0x20\n      add\n      0x00\n      keccak256\n      0x00\n      swap1\n      sload\n      swap1\n      0x0100\n      exp\n      swap1\n      div\n      0xffffffffffffffffffffffffffffffffffffffff\n      and\n        /* \"contracts/ZombieGame.sol\":6898:6931  payable(ZombieOwner[id]).transfer */\n      0xffffffffffffffffffffffffffffffffffffffff\n      and\n        /* \"contracts/ZombieGame.sol\":6898:6942  payable(ZombieOwner[id]).transfer(msg.value) */\n      0x08fc\n        /* \"contracts/ZombieGame.sol\":6932:6941  msg.value */\n      callvalue\n        /* \"contracts/ZombieGame.sol\":6898:6942  payable(ZombieOwner[id]).transfer(msg.value) */\n      swap1\n      dup2\n      iszero\n      mul\n      swap1\n      mload(0x40)\n      0x00\n      mload(0x40)\n      dup1\n      dup4\n      sub\n      dup2\n      dup6\n      dup9\n      dup9\n      call\n      swap4\n      pop\n      pop\n      pop\n      pop\n      iszero\n      dup1\n      iszero\n      tag_327\n      jumpi\n      returndatasize\n      0x00\n      dup1\n      returndatacopy\n      revert(0x00, returndatasize)\n    tag_327:\n      pop\n        /* \"contracts/ZombieGame.sol\":6970:6980  msg.sender */\n      caller\n        /* \"contracts/ZombieGame.sol\":6953:6963  RentedbyID */\n      0x0c\n        /* \"contracts/ZombieGame.sol\":6953:6967  RentedbyID[id] */\n      0x00\n        /* \"contracts/ZombieGame.sol\":6964:6966  id */\n      dup5\n        /* \"contracts/ZombieGame.sol\":6953:6967  RentedbyID[id] */\n      dup2\n      mstore\n      0x20\n      add\n      swap1\n      dup2\n      mstore\n      0x20\n      add\n      0x00\n      keccak256\n      0x00\n        /* \"contracts/ZombieGame.sol\":6953:6980  RentedbyID[id] = msg.sender */\n      0x0100\n      exp\n      dup2\n      sload\n      dup2\n      0xffffffffffffffffffffffffffffffffffffffff\n      mul\n      not\n      and\n      swap1\n      dup4\n      0xffffffffffffffffffffffffffffffffffffffff\n      and\n      mul\n      or\n      swap1\n      sstore\n      pop\n        /* \"contracts/ZombieGame.sol\":7015:7019  true */\n      0x01\n        /* \"contracts/ZombieGame.sol\":6991:7000  buyOnRent */\n      0x0b\n        /* \"contracts/ZombieGame.sol\":6991:7012  buyOnRent[msg.sender] */\n      0x00\n        /* \"contracts/ZombieGame.sol\":7001:7011  msg.sender */\n      caller\n        /* \"contracts/ZombieGame.sol\":6991:7012  buyOnRent[msg.sender] */\n      0xffffffffffffffffffffffffffffffffffffffff\n      and\n      0xffffffffffffffffffffffffffffffffffffffff\n      and\n      dup2\n      mstore\n      0x20\n      add\n      swap1\n      dup2\n      mstore\n      0x20\n      add\n      0x00\n      keccak256\n      0x00\n        /* \"contracts/ZombieGame.sol\":6991:7019  buyOnRent[msg.sender] = true */\n      0x0100\n      exp\n      dup2\n      sload\n      dup2\n      0xff\n      mul\n      not\n      and\n      swap1\n      dup4\n      iszero\n      iszero\n      mul\n      or\n      swap1\n      sstore\n      pop\n        /* \"contracts/ZombieGame.sol\":7045:7049  true */\n      0x01\n        /* \"contracts/ZombieGame.sol\":7030:7038  TakenNft */\n      0x0a\n        /* \"contracts/ZombieGame.sol\":7030:7042  TakenNft[id] */\n      0x00\n        /* \"contracts/ZombieGame.sol\":7039:7041  id */\n      dup5\n        /* \"contracts/ZombieGame.sol\":7030:7042  TakenNft[id] */\n      dup2\n      mstore\n      0x20\n      add\n      swap1\n      dup2\n      mstore\n      0x20\n      add\n      0x00\n      keccak256\n      0x00\n        /* \"contracts/ZombieGame.sol\":7030:7049  TakenNft[id] = true */\n      0x0100\n      exp\n      dup2\n      sload\n      dup2\n      0xff\n      mul\n      not\n      and\n      swap1\n      dup4\n      iszero\n      iszero\n      mul\n      or\n      swap1\n      sstore\n      pop\n        /* \"contracts/ZombieGame.sol\":7067:7071  true */\n      0x01\n        /* \"contracts/ZombieGame.sol\":7060:7071  return true */\n      swap1\n      pop\n        /* \"contracts/ZombieGame.sol\":6451:7079  function BuyOnRent(uint id) external payable returns(bool) {... */\n      swap2\n      swap1\n      pop\n      jump\t// out\n        /* \"contracts/ZombieGame.sol\":5258:5618  function mineTotalMatch(uint id) external OnlyOwner(id) returns(bool) {... */\n    tag_131:\n        /* \"contracts/ZombieGame.sol\":5322:5326  bool */\n      0x00\n        /* \"contracts/ZombieGame.sol\":5310:5312  id */\n      dup2\n        /* \"contracts/ZombieGame.sol\":5204:5214  msg.sender */\n      caller\n        /* \"contracts/ZombieGame.sol\":5179:5214  ZombieOwner[zombieId] == msg.sender */\n      0xffffffffffffffffffffffffffffffffffffffff\n      and\n        /* \"contracts/ZombieGame.sol\":5179:5190  ZombieOwner */\n      0x00\n        /* \"contracts/ZombieGame.sol\":5179:5200  ZombieOwner[zombieId] */\n      dup1\n        /* \"contracts/ZombieGame.sol\":5191:5199  zombieId */\n      dup4\n        /* \"contracts/ZombieGame.sol\":5179:5200  ZombieOwner[zombieId] */\n      dup2\n      mstore\n      0x20\n      add\n      swap1\n      dup2\n      mstore\n      0x20\n      add\n      0x00\n      keccak256\n      0x00\n      swap1\n      sload\n      swap1\n      0x0100\n      exp\n      swap1\n      div\n      0xffffffffffffffffffffffffffffffffffffffff\n      and\n        /* \"contracts/ZombieGame.sol\":5179:5214  ZombieOwner[zombieId] == msg.sender */\n      0xffffffffffffffffffffffffffffffffffffffff\n      and\n      eq\n        /* \"contracts/ZombieGame.sol\":5171:5230  require(ZombieOwner[zombieId] == msg.sender, \"Only Owner.\") */\n      tag_329\n      jumpi\n      mload(0x40)\n      0x08c379a000000000000000000000000000000000000000000000000000000000\n      dup2\n      mstore\n      0x04\n      add\n      tag_330\n      swap1\n      tag_141\n      jump\t// in\n    tag_330:\n      mload(0x40)\n      dup1\n      swap2\n      sub\n      swap1\n      revert\n    tag_329:\n        /* \"contracts/ZombieGame.sol\":5372:5373  0 */\n      0x00\n        /* \"contracts/ZombieGame.sol\":5347:5354  zombies */\n      0x03\n        /* \"contracts/ZombieGame.sol\":5355:5357  id */\n      dup5\n        /* \"contracts/ZombieGame.sol\":5347:5358  zombies[id] */\n      dup2\n      sload\n      dup2\n      lt\n      tag_332\n      jumpi\n      tag_333\n      tag_150\n      jump\t// in\n    tag_333:\n    tag_332:\n      swap1\n      0x00\n      mstore\n      keccak256(0x00, 0x20)\n      swap1\n      0x09\n      mul\n      add\n        /* \"contracts/ZombieGame.sol\":5347:5368  zombies[id].MatchLeft */\n      0x06\n      add\n      sload\n        /* \"contracts/ZombieGame.sol\":5347:5373  zombies[id].MatchLeft == 0 */\n      eq\n        /* \"contracts/ZombieGame.sol\":5347:5394  zombies[id].MatchLeft == 0 && MintTime[id] == 0 */\n      dup1\n      iszero\n      tag_335\n      jumpi\n      pop\n        /* \"contracts/ZombieGame.sol\":5393:5394  0 */\n      0x00\n        /* \"contracts/ZombieGame.sol\":5377:5385  MintTime */\n      0x0e\n        /* \"contracts/ZombieGame.sol\":5377:5389  MintTime[id] */\n      0x00\n        /* \"contracts/ZombieGame.sol\":5386:5388  id */\n      dup6\n        /* \"contracts/ZombieGame.sol\":5377:5389  MintTime[id] */\n      dup2\n      mstore\n      0x20\n      add\n      swap1\n      dup2\n      mstore\n      0x20\n      add\n      0x00\n      keccak256\n      sload\n        /* \"contracts/ZombieGame.sol\":5377:5394  MintTime[id] == 0 */\n      eq\n        /* \"contracts/ZombieGame.sol\":5347:5394  zombies[id].MatchLeft == 0 && MintTime[id] == 0 */\n    tag_335:\n        /* \"contracts/ZombieGame.sol\":5339:5434  require(zombies[id].MatchLeft == 0 && MintTime[id] == 0, \"You have chances or Already mining.\") */\n      tag_336\n      jumpi\n      mload(0x40)\n      0x08c379a000000000000000000000000000000000000000000000000000000000\n      dup2\n      mstore\n      0x04\n      add\n      tag_337\n      swap1\n      tag_338\n      jump\t// in\n    tag_337:\n      mload(0x40)\n      dup1\n      swap2\n      sub\n      swap1\n      revert\n    tag_336:\n        /* \"contracts/ZombieGame.sol\":5478:5486  24 hours */\n      0x015180\n        /* \"contracts/ZombieGame.sol\":5460:5475  block.timestamp */\n      timestamp\n        /* \"contracts/ZombieGame.sol\":5460:5486  block.timestamp + 24 hours */\n      tag_339\n      swap2\n      swap1\n      tag_160\n      jump\t// in\n    tag_339:\n        /* \"contracts/ZombieGame.sol\":5445:5453  MintTime */\n      0x0e\n        /* \"contracts/ZombieGame.sol\":5445:5457  MintTime[id] */\n      0x00\n        /* \"contracts/ZombieGame.sol\":5454:5456  id */\n      dup6\n        /* \"contracts/ZombieGame.sol\":5445:5457  MintTime[id] */\n      dup2\n      mstore\n      0x20\n      add\n      swap1\n      dup2\n      mstore\n      0x20\n      add\n      0x00\n      keccak256\n        /* \"contracts/ZombieGame.sol\":5445:5486  MintTime[id] = block.timestamp + 24 hours */\n      dup2\n      swap1\n      sstore\n      pop\n        /* \"contracts/ZombieGame.sol\":5520:5528  MintTime */\n      0x0e\n        /* \"contracts/ZombieGame.sol\":5520:5532  MintTime[id] */\n      0x00\n        /* \"contracts/ZombieGame.sol\":5529:5531  id */\n      dup5\n        /* \"contracts/ZombieGame.sol\":5520:5532  MintTime[id] */\n      dup2\n      mstore\n      0x20\n      add\n      swap1\n      dup2\n      mstore\n      0x20\n      add\n      0x00\n      keccak256\n      sload\n        /* \"contracts/ZombieGame.sol\":5501:5516  block.timestamp */\n      timestamp\n        /* \"contracts/ZombieGame.sol\":5501:5532  block.timestamp >= MintTime[id] */\n      lt\n        /* \"contracts/ZombieGame.sol\":5497:5583  if (block.timestamp >= MintTime[id]) {... */\n      tag_340\n      jumpi\n        /* \"contracts/ZombieGame.sol\":5570:5571  5 */\n      0x05\n        /* \"contracts/ZombieGame.sol\":5545:5552  zombies */\n      0x03\n        /* \"contracts/ZombieGame.sol\":5553:5555  id */\n      dup5\n        /* \"contracts/ZombieGame.sol\":5545:5556  zombies[id] */\n      dup2\n      sload\n      dup2\n      lt\n      tag_341\n      jumpi\n      tag_342\n      tag_150\n      jump\t// in\n    tag_342:\n    tag_341:\n      swap1\n      0x00\n      mstore\n      keccak256(0x00, 0x20)\n      swap1\n      0x09\n      mul\n      add\n        /* \"contracts/ZombieGame.sol\":5545:5566  zombies[id].MatchLeft */\n      0x06\n      add\n      0x00\n        /* \"contracts/ZombieGame.sol\":5545:5571  zombies[id].MatchLeft += 5 */\n      dup3\n      dup3\n      sload\n      tag_344\n      swap2\n      swap1\n      tag_160\n      jump\t// in\n    tag_344:\n      swap3\n      pop\n      pop\n      dup2\n      swap1\n      sstore\n      pop\n        /* \"contracts/ZombieGame.sol\":5497:5583  if (block.timestamp >= MintTime[id]) {... */\n    tag_340:\n        /* \"contracts/ZombieGame.sol\":5600:5604  true */\n      0x01\n        /* \"contracts/ZombieGame.sol\":5593:5604  return true */\n      swap2\n      pop\n        /* \"contracts/ZombieGame.sol\":5258:5618  function mineTotalMatch(uint id) external OnlyOwner(id) returns(bool) {... */\n      pop\n      swap2\n      swap1\n      pop\n      jump\t// out\n        /* \"contracts/ZombieGame.sol\":4246:4282  mapping (uint => bool) public onRent */\n    tag_136:\n      mstore(0x20, 0x06)\n      dup1\n      0x00\n      mstore\n      keccak256(0x00, 0x40)\n      0x00\n      swap2\n      pop\n      sload\n      swap1\n      0x0100\n      exp\n      swap1\n      div\n      0xff\n      and\n      dup2\n      jump\t// out\n        /* \"contracts/ZombieGame.sol\":1173:1344  function DnaGenerator(string memory name) internal view returns(uint){... */\n    tag_202:\n        /* \"contracts/ZombieGame.sol\":1237:1241  uint */\n      0x00\n        /* \"contracts/ZombieGame.sol\":1253:1261  uint Dna */\n      dup1\n        /* \"contracts/ZombieGame.sol\":1296:1300  name */\n      dup3\n        /* \"contracts/ZombieGame.sol\":1279:1301  abi.encodePacked(name) */\n      add(0x20, mload(0x40))\n      tag_346\n      swap2\n      swap1\n      tag_347\n      jump\t// in\n    tag_346:\n      mload(0x40)\n      0x20\n      dup2\n      dup4\n      sub\n      sub\n      dup2\n      mstore\n      swap1\n      0x40\n      mstore\n        /* \"contracts/ZombieGame.sol\":1269:1302  keccak256(abi.encodePacked(name)) */\n      dup1\n      mload\n      swap1\n      0x20\n      add\n      keccak256\n        /* \"contracts/ZombieGame.sol\":1264:1303  uint(keccak256(abi.encodePacked(name))) */\n      0x00\n      shr\n        /* \"contracts/ZombieGame.sol\":1253:1303  uint Dna = uint(keccak256(abi.encodePacked(name))) */\n      swap1\n      pop\n        /* \"contracts/ZombieGame.sol\":1327:1336  dnaLength */\n      sload(0x02)\n        /* \"contracts/ZombieGame.sol\":1321:1324  Dna */\n      dup2\n        /* \"contracts/ZombieGame.sol\":1321:1336  Dna % dnaLength */\n      tag_348\n      swap2\n      swap1\n      tag_158\n      jump\t// in\n    tag_348:\n        /* \"contracts/ZombieGame.sol\":1314:1336  return Dna % dnaLength */\n      swap2\n      pop\n      pop\n        /* \"contracts/ZombieGame.sol\":1173:1344  function DnaGenerator(string memory name) internal view returns(uint){... */\n      swap2\n      swap1\n      pop\n      jump\t// out\n        /* \"contracts/ZombieGame.sol\":716:1118  function createZombie(string memory Plan, string memory name, uint dna, uint level, uint xp, uint TotalMatch, uint MatchLeft, uint Wins, uint Looses) internal {... */\n    tag_203:\n        /* \"contracts/ZombieGame.sol\":886:893  zombies */\n      0x03\n        /* \"contracts/ZombieGame.sol\":899:976  zombieDetails(Plan ,name ,dna ,level ,xp ,TotalMatch, MatchLeft,Wins ,Looses) */\n      mload(0x40)\n      dup1\n      0x0120\n      add\n      0x40\n      mstore\n      dup1\n        /* \"contracts/ZombieGame.sol\":913:917  Plan */\n      dup12\n        /* \"contracts/ZombieGame.sol\":899:976  zombieDetails(Plan ,name ,dna ,level ,xp ,TotalMatch, MatchLeft,Wins ,Looses) */\n      dup2\n      mstore\n      0x20\n      add\n        /* \"contracts/ZombieGame.sol\":919:923  name */\n      dup11\n        /* \"contracts/ZombieGame.sol\":899:976  zombieDetails(Plan ,name ,dna ,level ,xp ,TotalMatch, MatchLeft,Wins ,Looses) */\n      dup2\n      mstore\n      0x20\n      add\n        /* \"contracts/ZombieGame.sol\":925:928  dna */\n      dup10\n        /* \"contracts/ZombieGame.sol\":899:976  zombieDetails(Plan ,name ,dna ,level ,xp ,TotalMatch, MatchLeft,Wins ,Looses) */\n      dup2\n      mstore\n      0x20\n      add\n        /* \"contracts/ZombieGame.sol\":930:935  level */\n      dup9\n        /* \"contracts/ZombieGame.sol\":899:976  zombieDetails(Plan ,name ,dna ,level ,xp ,TotalMatch, MatchLeft,Wins ,Looses) */\n      dup2\n      mstore\n      0x20\n      add\n        /* \"contracts/ZombieGame.sol\":937:939  xp */\n      dup8\n        /* \"contracts/ZombieGame.sol\":899:976  zombieDetails(Plan ,name ,dna ,level ,xp ,TotalMatch, MatchLeft,Wins ,Looses) */\n      dup2\n      mstore\n      0x20\n      add\n        /* \"contracts/ZombieGame.sol\":941:951  TotalMatch */\n      dup7\n        /* \"contracts/ZombieGame.sol\":899:976  zombieDetails(Plan ,name ,dna ,level ,xp ,TotalMatch, MatchLeft,Wins ,Looses) */\n      dup2\n      mstore\n      0x20\n      add\n        /* \"contracts/ZombieGame.sol\":953:962  MatchLeft */\n      dup6\n        /* \"contracts/ZombieGame.sol\":899:976  zombieDetails(Plan ,name ,dna ,level ,xp ,TotalMatch, MatchLeft,Wins ,Looses) */\n      dup2\n      mstore\n      0x20\n      add\n        /* \"contracts/ZombieGame.sol\":963:967  Wins */\n      dup5\n        /* \"contracts/ZombieGame.sol\":899:976  zombieDetails(Plan ,name ,dna ,level ,xp ,TotalMatch, MatchLeft,Wins ,Looses) */\n      dup2\n      mstore\n      0x20\n      add\n        /* \"contracts/ZombieGame.sol\":969:975  Looses */\n      dup4\n        /* \"contracts/ZombieGame.sol\":899:976  zombieDetails(Plan ,name ,dna ,level ,xp ,TotalMatch, MatchLeft,Wins ,Looses) */\n      dup2\n      mstore\n      pop\n        /* \"contracts/ZombieGame.sol\":886:977  zombies.push(zombieDetails(Plan ,name ,dna ,level ,xp ,TotalMatch, MatchLeft,Wins ,Looses)) */\n      swap1\n      dup1\n      0x01\n      dup2\n      sload\n      add\n      dup1\n      dup3\n      sstore\n      dup1\n      swap2\n      pop\n      pop\n      0x01\n      swap1\n      sub\n      swap1\n      0x00\n      mstore\n      keccak256(0x00, 0x20)\n      swap1\n      0x09\n      mul\n      add\n      0x00\n      swap1\n      swap2\n      swap1\n      swap2\n      swap1\n      swap2\n      pop\n      0x00\n      dup3\n      add\n      mload\n      dup2\n      0x00\n      add\n      swap1\n      dup2\n      tag_351\n      swap2\n      swap1\n      tag_352\n      jump\t// in\n    tag_351:\n      pop\n      0x20\n      dup3\n      add\n      mload\n      dup2\n      0x01\n      add\n      swap1\n      dup2\n      tag_353\n      swap2\n      swap1\n      tag_352\n      jump\t// in\n    tag_353:\n      pop\n      0x40\n      dup3\n      add\n      mload\n      dup2\n      0x02\n      add\n      sstore\n      0x60\n      dup3\n      add\n      mload\n      dup2\n      0x03\n      add\n      sstore\n      0x80\n      dup3\n      add\n      mload\n      dup2\n      0x04\n      add\n      sstore\n      0xa0\n      dup3\n      add\n      mload\n      dup2\n      0x05\n      add\n      sstore\n      0xc0\n      dup3\n      add\n      mload\n      dup2\n      0x06\n      add\n      sstore\n      0xe0\n      dup3\n      add\n      mload\n      dup2\n      0x07\n      add\n      sstore\n      0x0100\n      dup3\n      add\n      mload\n      dup2\n      0x08\n      add\n      sstore\n      pop\n      pop\n        /* \"contracts/ZombieGame.sol\":988:1005  uint currentIndex */\n      0x00\n        /* \"contracts/ZombieGame.sol\":1024:1025  1 */\n      0x01\n        /* \"contracts/ZombieGame.sol\":1008:1015  zombies */\n      0x03\n        /* \"contracts/ZombieGame.sol\":1008:1022  zombies.length */\n      dup1\n      sload\n      swap1\n      pop\n        /* \"contracts/ZombieGame.sol\":1008:1025  zombies.length -1 */\n      tag_354\n      swap2\n      swap1\n      tag_294\n      jump\t// in\n    tag_354:\n        /* \"contracts/ZombieGame.sol\":988:1025  uint currentIndex = zombies.length -1 */\n      swap1\n      pop\n        /* \"contracts/ZombieGame.sol\":1036:1047  ZombieCount */\n      0x01\n        /* \"contracts/ZombieGame.sol\":1036:1059  ZombieCount[msg.sender] */\n      0x00\n        /* \"contracts/ZombieGame.sol\":1048:1058  msg.sender */\n      caller\n        /* \"contracts/ZombieGame.sol\":1036:1059  ZombieCount[msg.sender] */\n      0xffffffffffffffffffffffffffffffffffffffff\n      and\n      0xffffffffffffffffffffffffffffffffffffffff\n      and\n      dup2\n      mstore\n      0x20\n      add\n      swap1\n      dup2\n      mstore\n      0x20\n      add\n      0x00\n      keccak256\n      0x00\n        /* \"contracts/ZombieGame.sol\":1036:1061  ZombieCount[msg.sender]++ */\n      dup2\n      sload\n      dup1\n      swap3\n      swap2\n      swap1\n      tag_355\n      swap1\n      tag_173\n      jump\t// in\n    tag_355:\n      swap2\n      swap1\n      pop\n      sstore\n      pop\n        /* \"contracts/ZombieGame.sol\":1100:1110  msg.sender */\n      caller\n        /* \"contracts/ZombieGame.sol\":1072:1083  ZombieOwner */\n      0x00\n        /* \"contracts/ZombieGame.sol\":1072:1097  ZombieOwner[currentIndex] */\n      dup1\n        /* \"contracts/ZombieGame.sol\":1084:1096  currentIndex */\n      dup4\n        /* \"contracts/ZombieGame.sol\":1072:1097  ZombieOwner[currentIndex] */\n      dup2\n      mstore\n      0x20\n      add\n      swap1\n      dup2\n      mstore\n      0x20\n      add\n      0x00\n      keccak256\n      0x00\n        /* \"contracts/ZombieGame.sol\":1072:1110  ZombieOwner[currentIndex] = msg.sender */\n      0x0100\n      exp\n      dup2\n      sload\n      dup2\n      0xffffffffffffffffffffffffffffffffffffffff\n      mul\n      not\n      and\n      swap1\n      dup4\n      0xffffffffffffffffffffffffffffffffffffffff\n      and\n      mul\n      or\n      swap1\n      sstore\n      pop\n        /* \"contracts/ZombieGame.sol\":875:1118  {... */\n      pop\n        /* \"contracts/ZombieGame.sol\":716:1118  function createZombie(string memory Plan, string memory name, uint dna, uint level, uint xp, uint TotalMatch, uint MatchLeft, uint Wins, uint Looses) internal {... */\n      pop\n      pop\n      pop\n      pop\n      pop\n      pop\n      pop\n      pop\n      pop\n      jump\t// out\n        /* \"contracts/ZombieGame.sol\":2277:4098  function ZombieVsZombie(uint yourZombie) internal returns(string memory){... */\n    tag_229:\n        /* \"contracts/ZombieGame.sol\":2335:2348  string memory */\n      0x60\n        /* \"contracts/ZombieGame.sol\":2360:2376  uint enemyZombie */\n      0x00\n        /* \"contracts/ZombieGame.sol\":2379:2392  randomEnemy() */\n      tag_357\n        /* \"contracts/ZombieGame.sol\":2379:2390  randomEnemy */\n      tag_358\n        /* \"contracts/ZombieGame.sol\":2379:2392  randomEnemy() */\n      jump\t// in\n    tag_357:\n        /* \"contracts/ZombieGame.sol\":2360:2392  uint enemyZombie = randomEnemy() */\n      swap1\n      pop\n        /* \"contracts/ZombieGame.sol\":2444:2445  1 */\n      0x01\n        /* \"contracts/ZombieGame.sol\":2411:2418  zombies */\n      0x03\n        /* \"contracts/ZombieGame.sol\":2419:2429  yourZombie */\n      dup5\n        /* \"contracts/ZombieGame.sol\":2411:2430  zombies[yourZombie] */\n      dup2\n      sload\n      dup2\n      lt\n      tag_359\n      jumpi\n      tag_360\n      tag_150\n      jump\t// in\n    tag_360:\n    tag_359:\n      swap1\n      0x00\n      mstore\n      keccak256(0x00, 0x20)\n      swap1\n      0x09\n      mul\n      add\n        /* \"contracts/ZombieGame.sol\":2411:2440  zombies[yourZombie].MatchLeft */\n      0x06\n      add\n      sload\n        /* \"contracts/ZombieGame.sol\":2411:2445  zombies[yourZombie].MatchLeft >= 1 */\n      lt\n      iszero\n        /* \"contracts/ZombieGame.sol\":2403:2468  require(zombies[yourZombie].MatchLeft >= 1 , \"Mine the matches.\") */\n      tag_362\n      jumpi\n      mload(0x40)\n      0x08c379a000000000000000000000000000000000000000000000000000000000\n      dup2\n      mstore\n      0x04\n      add\n      tag_363\n      swap1\n      tag_364\n      jump\t// in\n    tag_363:\n      mload(0x40)\n      dup1\n      swap2\n      sub\n      swap1\n      revert\n    tag_362:\n        /* \"contracts/ZombieGame.sol\":2521:2522  1 */\n      0x01\n        /* \"contracts/ZombieGame.sol\":2487:2494  zombies */\n      0x03\n        /* \"contracts/ZombieGame.sol\":2495:2506  enemyZombie */\n      dup3\n        /* \"contracts/ZombieGame.sol\":2487:2507  zombies[enemyZombie] */\n      dup2\n      sload\n      dup2\n      lt\n      tag_365\n      jumpi\n      tag_366\n      tag_150\n      jump\t// in\n    tag_366:\n    tag_365:\n      swap1\n      0x00\n      mstore\n      keccak256(0x00, 0x20)\n      swap1\n      0x09\n      mul\n      add\n        /* \"contracts/ZombieGame.sol\":2487:2517  zombies[enemyZombie].MatchLeft */\n      0x06\n      add\n      sload\n        /* \"contracts/ZombieGame.sol\":2487:2522  zombies[enemyZombie].MatchLeft >= 1 */\n      lt\n      iszero\n        /* \"contracts/ZombieGame.sol\":2479:2536  require(zombies[enemyZombie].MatchLeft >= 1, \"Again Try\") */\n      tag_368\n      jumpi\n      mload(0x40)\n      0x08c379a000000000000000000000000000000000000000000000000000000000\n      dup2\n      mstore\n      0x04\n      add\n      tag_369\n      swap1\n      tag_370\n      jump\t// in\n    tag_369:\n      mload(0x40)\n      dup1\n      swap2\n      sub\n      swap1\n      revert\n    tag_368:\n        /* \"contracts/ZombieGame.sol\":2657:2664  zombies */\n      0x03\n        /* \"contracts/ZombieGame.sol\":2665:2676  enemyZombie */\n      dup2\n        /* \"contracts/ZombieGame.sol\":2657:2677  zombies[enemyZombie] */\n      dup2\n      sload\n      dup2\n      lt\n      tag_371\n      jumpi\n      tag_372\n      tag_150\n      jump\t// in\n    tag_372:\n    tag_371:\n      swap1\n      0x00\n      mstore\n      keccak256(0x00, 0x20)\n      swap1\n      0x09\n      mul\n      add\n        /* \"contracts/ZombieGame.sol\":2657:2683  zombies[enemyZombie].level */\n      0x03\n      add\n      sload\n        /* \"contracts/ZombieGame.sol\":2629:2636  zombies */\n      0x03\n        /* \"contracts/ZombieGame.sol\":2637:2647  yourZombie */\n      dup5\n        /* \"contracts/ZombieGame.sol\":2629:2648  zombies[yourZombie] */\n      dup2\n      sload\n      dup2\n      lt\n      tag_374\n      jumpi\n      tag_375\n      tag_150\n      jump\t// in\n    tag_375:\n    tag_374:\n      swap1\n      0x00\n      mstore\n      keccak256(0x00, 0x20)\n      swap1\n      0x09\n      mul\n      add\n        /* \"contracts/ZombieGame.sol\":2629:2654  zombies[yourZombie].level */\n      0x03\n      add\n      sload\n        /* \"contracts/ZombieGame.sol\":2629:2683  zombies[yourZombie].level > zombies[enemyZombie].level */\n      gt\n        /* \"contracts/ZombieGame.sol\":2625:4091  if (zombies[yourZombie].level > zombies[enemyZombie].level) {... */\n      iszero\n      tag_377\n      jumpi\n        /* \"contracts/ZombieGame.sol\":2700:2707  zombies */\n      0x03\n        /* \"contracts/ZombieGame.sol\":2708:2718  yourZombie */\n      dup4\n        /* \"contracts/ZombieGame.sol\":2700:2719  zombies[yourZombie] */\n      dup2\n      sload\n      dup2\n      lt\n      tag_378\n      jumpi\n      tag_379\n      tag_150\n      jump\t// in\n    tag_379:\n    tag_378:\n      swap1\n      0x00\n      mstore\n      keccak256(0x00, 0x20)\n      swap1\n      0x09\n      mul\n      add\n        /* \"contracts/ZombieGame.sol\":2700:2725  zombies[yourZombie].level */\n      0x03\n      add\n      0x00\n        /* \"contracts/ZombieGame.sol\":2700:2727  zombies[yourZombie].level++ */\n      dup2\n      sload\n      dup1\n      swap3\n      swap2\n      swap1\n      tag_381\n      swap1\n      tag_173\n      jump\t// in\n    tag_381:\n      swap2\n      swap1\n      pop\n      sstore\n      pop\n        /* \"contracts/ZombieGame.sol\":2743:2750  zombies */\n      0x03\n        /* \"contracts/ZombieGame.sol\":2751:2761  yourZombie */\n      dup4\n        /* \"contracts/ZombieGame.sol\":2743:2762  zombies[yourZombie] */\n      dup2\n      sload\n      dup2\n      lt\n      tag_382\n      jumpi\n      tag_383\n      tag_150\n      jump\t// in\n    tag_383:\n    tag_382:\n      swap1\n      0x00\n      mstore\n      keccak256(0x00, 0x20)\n      swap1\n      0x09\n      mul\n      add\n        /* \"contracts/ZombieGame.sol\":2743:2773  zombies[yourZombie].TotalMatch */\n      0x05\n      add\n      0x00\n        /* \"contracts/ZombieGame.sol\":2743:2775  zombies[yourZombie].TotalMatch++ */\n      dup2\n      sload\n      dup1\n      swap3\n      swap2\n      swap1\n      tag_385\n      swap1\n      tag_173\n      jump\t// in\n    tag_385:\n      swap2\n      swap1\n      pop\n      sstore\n      pop\n        /* \"contracts/ZombieGame.sol\":2790:2797  zombies */\n      0x03\n        /* \"contracts/ZombieGame.sol\":2798:2808  yourZombie */\n      dup4\n        /* \"contracts/ZombieGame.sol\":2790:2809  zombies[yourZombie] */\n      dup2\n      sload\n      dup2\n      lt\n      tag_386\n      jumpi\n      tag_387\n      tag_150\n      jump\t// in\n    tag_387:\n    tag_386:\n      swap1\n      0x00\n      mstore\n      keccak256(0x00, 0x20)\n      swap1\n      0x09\n      mul\n      add\n        /* \"contracts/ZombieGame.sol\":2790:2819  zombies[yourZombie].MatchLeft */\n      0x06\n      add\n      0x00\n        /* \"contracts/ZombieGame.sol\":2790:2821  zombies[yourZombie].MatchLeft-- */\n      dup2\n      sload\n      dup1\n      swap3\n      swap2\n      swap1\n      tag_389\n      swap1\n      tag_194\n      jump\t// in\n    tag_389:\n      swap2\n      swap1\n      pop\n      sstore\n      pop\n        /* \"contracts/ZombieGame.sol\":2836:2843  zombies */\n      0x03\n        /* \"contracts/ZombieGame.sol\":2844:2854  yourZombie */\n      dup4\n        /* \"contracts/ZombieGame.sol\":2836:2855  zombies[yourZombie] */\n      dup2\n      sload\n      dup2\n      lt\n      tag_390\n      jumpi\n      tag_391\n      tag_150\n      jump\t// in\n    tag_391:\n    tag_390:\n      swap1\n      0x00\n      mstore\n      keccak256(0x00, 0x20)\n      swap1\n      0x09\n      mul\n      add\n        /* \"contracts/ZombieGame.sol\":2836:2860  zombies[yourZombie].Wins */\n      0x07\n      add\n      0x00\n        /* \"contracts/ZombieGame.sol\":2836:2862  zombies[yourZombie].Wins++ */\n      dup2\n      sload\n      dup1\n      swap3\n      swap2\n      swap1\n      tag_393\n      swap1\n      tag_173\n      jump\t// in\n    tag_393:\n      swap2\n      swap1\n      pop\n      sstore\n      pop\n        /* \"contracts/ZombieGame.sol\":2903:2906  100 */\n      0x64\n        /* \"contracts/ZombieGame.sol\":2877:2884  zombies */\n      0x03\n        /* \"contracts/ZombieGame.sol\":2885:2895  yourZombie */\n      dup5\n        /* \"contracts/ZombieGame.sol\":2877:2896  zombies[yourZombie] */\n      dup2\n      sload\n      dup2\n      lt\n      tag_394\n      jumpi\n      tag_395\n      tag_150\n      jump\t// in\n    tag_395:\n    tag_394:\n      swap1\n      0x00\n      mstore\n      keccak256(0x00, 0x20)\n      swap1\n      0x09\n      mul\n      add\n        /* \"contracts/ZombieGame.sol\":2877:2899  zombies[yourZombie].xp */\n      0x04\n      add\n      0x00\n        /* \"contracts/ZombieGame.sol\":2877:2906  zombies[yourZombie].xp += 100 */\n      dup3\n      dup3\n      sload\n      tag_397\n      swap2\n      swap1\n      tag_160\n      jump\t// in\n    tag_397:\n      swap3\n      pop\n      pop\n      dup2\n      swap1\n      sstore\n      pop\n        /* \"contracts/ZombieGame.sol\":2921:2928  zombies */\n      0x03\n        /* \"contracts/ZombieGame.sol\":2929:2940  enemyZombie */\n      dup2\n        /* \"contracts/ZombieGame.sol\":2921:2941  zombies[enemyZombie] */\n      dup2\n      sload\n      dup2\n      lt\n      tag_398\n      jumpi\n      tag_399\n      tag_150\n      jump\t// in\n    tag_399:\n    tag_398:\n      swap1\n      0x00\n      mstore\n      keccak256(0x00, 0x20)\n      swap1\n      0x09\n      mul\n      add\n        /* \"contracts/ZombieGame.sol\":2921:2947  zombies[enemyZombie].level */\n      0x03\n      add\n      0x00\n        /* \"contracts/ZombieGame.sol\":2921:2949  zombies[enemyZombie].level-- */\n      dup2\n      sload\n      dup1\n      swap3\n      swap2\n      swap1\n      tag_401\n      swap1\n      tag_194\n      jump\t// in\n    tag_401:\n      swap2\n      swap1\n      pop\n      sstore\n      pop\n        /* \"contracts/ZombieGame.sol\":2964:2971  zombies */\n      0x03\n        /* \"contracts/ZombieGame.sol\":2972:2983  enemyZombie */\n      dup2\n        /* \"contracts/ZombieGame.sol\":2964:2984  zombies[enemyZombie] */\n      dup2\n      sload\n      dup2\n      lt\n      tag_402\n      jumpi\n      tag_403\n      tag_150\n      jump\t// in\n    tag_403:\n    tag_402:\n      swap1\n      0x00\n      mstore\n      keccak256(0x00, 0x20)\n      swap1\n      0x09\n      mul\n      add\n        /* \"contracts/ZombieGame.sol\":2964:2995  zombies[enemyZombie].TotalMatch */\n      0x05\n      add\n      0x00\n        /* \"contracts/ZombieGame.sol\":2964:2997  zombies[enemyZombie].TotalMatch++ */\n      dup2\n      sload\n      dup1\n      swap3\n      swap2\n      swap1\n      tag_405\n      swap1\n      tag_173\n      jump\t// in\n    tag_405:\n      swap2\n      swap1\n      pop\n      sstore\n      pop\n        /* \"contracts/ZombieGame.sol\":3012:3019  zombies */\n      0x03\n        /* \"contracts/ZombieGame.sol\":3020:3031  enemyZombie */\n      dup2\n        /* \"contracts/ZombieGame.sol\":3012:3032  zombies[enemyZombie] */\n      dup2\n      sload\n      dup2\n      lt\n      tag_406\n      jumpi\n      tag_407\n      tag_150\n      jump\t// in\n    tag_407:\n    tag_406:\n      swap1\n      0x00\n      mstore\n      keccak256(0x00, 0x20)\n      swap1\n      0x09\n      mul\n      add\n        /* \"contracts/ZombieGame.sol\":3012:3042  zombies[enemyZombie].MatchLeft */\n      0x06\n      add\n      0x00\n        /* \"contracts/ZombieGame.sol\":3012:3044  zombies[enemyZombie].MatchLeft-- */\n      dup2\n      sload\n      dup1\n      swap3\n      swap2\n      swap1\n      tag_409\n      swap1\n      tag_194\n      jump\t// in\n    tag_409:\n      swap2\n      swap1\n      pop\n      sstore\n      pop\n        /* \"contracts/ZombieGame.sol\":3059:3066  zombies */\n      0x03\n        /* \"contracts/ZombieGame.sol\":3067:3078  enemyZombie */\n      dup2\n        /* \"contracts/ZombieGame.sol\":3059:3079  zombies[enemyZombie] */\n      dup2\n      sload\n      dup2\n      lt\n      tag_410\n      jumpi\n      tag_411\n      tag_150\n      jump\t// in\n    tag_411:\n    tag_410:\n      swap1\n      0x00\n      mstore\n      keccak256(0x00, 0x20)\n      swap1\n      0x09\n      mul\n      add\n        /* \"contracts/ZombieGame.sol\":3059:3086  zombies[enemyZombie].Looses */\n      0x08\n      add\n      0x00\n        /* \"contracts/ZombieGame.sol\":3059:3088  zombies[enemyZombie].Looses++ */\n      dup2\n      sload\n      dup1\n      swap3\n      swap2\n      swap1\n      tag_413\n      swap1\n      tag_173\n      jump\t// in\n    tag_413:\n      swap2\n      swap1\n      pop\n      sstore\n      pop\n        /* \"contracts/ZombieGame.sol\":3101:3124  return \"Congrats Wins.\" */\n      mload(0x40)\n      dup1\n      0x40\n      add\n      0x40\n      mstore\n      dup1\n      0x0e\n      dup2\n      mstore\n      0x20\n      add\n      0x436f6e67726174732057696e732e000000000000000000000000000000000000\n      dup2\n      mstore\n      pop\n      swap2\n      pop\n      pop\n      jump(tag_356)\n        /* \"contracts/ZombieGame.sol\":2625:4091  if (zombies[yourZombie].level > zombies[enemyZombie].level) {... */\n    tag_377:\n        /* \"contracts/ZombieGame.sol\":3255:3262  zombies */\n      0x03\n        /* \"contracts/ZombieGame.sol\":3263:3273  yourZombie */\n      dup4\n        /* \"contracts/ZombieGame.sol\":3255:3274  zombies[yourZombie] */\n      dup2\n      sload\n      dup2\n      lt\n      tag_415\n      jumpi\n      tag_416\n      tag_150\n      jump\t// in\n    tag_416:\n    tag_415:\n      swap1\n      0x00\n      mstore\n      keccak256(0x00, 0x20)\n      swap1\n      0x09\n      mul\n      add\n        /* \"contracts/ZombieGame.sol\":3255:3280  zombies[yourZombie].level */\n      0x03\n      add\n      sload\n        /* \"contracts/ZombieGame.sol\":3226:3233  zombies */\n      0x03\n        /* \"contracts/ZombieGame.sol\":3234:3245  enemyZombie */\n      dup3\n        /* \"contracts/ZombieGame.sol\":3226:3246  zombies[enemyZombie] */\n      dup2\n      sload\n      dup2\n      lt\n      tag_418\n      jumpi\n      tag_419\n      tag_150\n      jump\t// in\n    tag_419:\n    tag_418:\n      swap1\n      0x00\n      mstore\n      keccak256(0x00, 0x20)\n      swap1\n      0x09\n      mul\n      add\n        /* \"contracts/ZombieGame.sol\":3226:3252  zombies[enemyZombie].level */\n      0x03\n      add\n      sload\n        /* \"contracts/ZombieGame.sol\":3226:3280  zombies[enemyZombie].level > zombies[yourZombie].level */\n      gt\n        /* \"contracts/ZombieGame.sol\":3222:4091  if (zombies[enemyZombie].level > zombies[yourZombie].level) {... */\n      iszero\n      tag_421\n      jumpi\n        /* \"contracts/ZombieGame.sol\":3297:3304  zombies */\n      0x03\n        /* \"contracts/ZombieGame.sol\":3305:3316  enemyZombie */\n      dup2\n        /* \"contracts/ZombieGame.sol\":3297:3317  zombies[enemyZombie] */\n      dup2\n      sload\n      dup2\n      lt\n      tag_422\n      jumpi\n      tag_423\n      tag_150\n      jump\t// in\n    tag_423:\n    tag_422:\n      swap1\n      0x00\n      mstore\n      keccak256(0x00, 0x20)\n      swap1\n      0x09\n      mul\n      add\n        /* \"contracts/ZombieGame.sol\":3297:3323  zombies[enemyZombie].level */\n      0x03\n      add\n      0x00\n        /* \"contracts/ZombieGame.sol\":3297:3325  zombies[enemyZombie].level++ */\n      dup2\n      sload\n      dup1\n      swap3\n      swap2\n      swap1\n      tag_425\n      swap1\n      tag_173\n      jump\t// in\n    tag_425:\n      swap2\n      swap1\n      pop\n      sstore\n      pop\n        /* \"contracts/ZombieGame.sol\":3341:3348  zombies */\n      0x03\n        /* \"contracts/ZombieGame.sol\":3349:3360  enemyZombie */\n      dup2\n        /* \"contracts/ZombieGame.sol\":3341:3361  zombies[enemyZombie] */\n      dup2\n      sload\n      dup2\n      lt\n      tag_426\n      jumpi\n      tag_427\n      tag_150\n      jump\t// in\n    tag_427:\n    tag_426:\n      swap1\n      0x00\n      mstore\n      keccak256(0x00, 0x20)\n      swap1\n      0x09\n      mul\n      add\n        /* \"contracts/ZombieGame.sol\":3341:3372  zombies[enemyZombie].TotalMatch */\n      0x05\n      add\n      0x00\n        /* \"contracts/ZombieGame.sol\":3341:3374  zombies[enemyZombie].TotalMatch++ */\n      dup2\n      sload\n      dup1\n      swap3\n      swap2\n      swap1\n      tag_429\n      swap1\n      tag_173\n      jump\t// in\n    tag_429:\n      swap2\n      swap1\n      pop\n      sstore\n      pop\n        /* \"contracts/ZombieGame.sol\":3389:3396  zombies */\n      0x03\n        /* \"contracts/ZombieGame.sol\":3397:3408  enemyZombie */\n      dup2\n        /* \"contracts/ZombieGame.sol\":3389:3409  zombies[enemyZombie] */\n      dup2\n      sload\n      dup2\n      lt\n      tag_430\n      jumpi\n      tag_431\n      tag_150\n      jump\t// in\n    tag_431:\n    tag_430:\n      swap1\n      0x00\n      mstore\n      keccak256(0x00, 0x20)\n      swap1\n      0x09\n      mul\n      add\n        /* \"contracts/ZombieGame.sol\":3389:3419  zombies[enemyZombie].MatchLeft */\n      0x06\n      add\n      0x00\n        /* \"contracts/ZombieGame.sol\":3389:3421  zombies[enemyZombie].MatchLeft-- */\n      dup2\n      sload\n      dup1\n      swap3\n      swap2\n      swap1\n      tag_433\n      swap1\n      tag_194\n      jump\t// in\n    tag_433:\n      swap2\n      swap1\n      pop\n      sstore\n      pop\n        /* \"contracts/ZombieGame.sol\":3436:3443  zombies */\n      0x03\n        /* \"contracts/ZombieGame.sol\":3444:3455  enemyZombie */\n      dup2\n        /* \"contracts/ZombieGame.sol\":3436:3456  zombies[enemyZombie] */\n      dup2\n      sload\n      dup2\n      lt\n      tag_434\n      jumpi\n      tag_435\n      tag_150\n      jump\t// in\n    tag_435:\n    tag_434:\n      swap1\n      0x00\n      mstore\n      keccak256(0x00, 0x20)\n      swap1\n      0x09\n      mul\n      add\n        /* \"contracts/ZombieGame.sol\":3436:3461  zombies[enemyZombie].Wins */\n      0x07\n      add\n      0x00\n        /* \"contracts/ZombieGame.sol\":3436:3463  zombies[enemyZombie].Wins++ */\n      dup2\n      sload\n      dup1\n      swap3\n      swap2\n      swap1\n      tag_437\n      swap1\n      tag_173\n      jump\t// in\n    tag_437:\n      swap2\n      swap1\n      pop\n      sstore\n      pop\n        /* \"contracts/ZombieGame.sol\":3505:3508  100 */\n      0x64\n        /* \"contracts/ZombieGame.sol\":3478:3485  zombies */\n      0x03\n        /* \"contracts/ZombieGame.sol\":3486:3497  enemyZombie */\n      dup3\n        /* \"contracts/ZombieGame.sol\":3478:3498  zombies[enemyZombie] */\n      dup2\n      sload\n      dup2\n      lt\n      tag_438\n      jumpi\n      tag_439\n      tag_150\n      jump\t// in\n    tag_439:\n    tag_438:\n      swap1\n      0x00\n      mstore\n      keccak256(0x00, 0x20)\n      swap1\n      0x09\n      mul\n      add\n        /* \"contracts/ZombieGame.sol\":3478:3501  zombies[enemyZombie].xp */\n      0x04\n      add\n      0x00\n        /* \"contracts/ZombieGame.sol\":3478:3508  zombies[enemyZombie].xp += 100 */\n      dup3\n      dup3\n      sload\n      tag_441\n      swap2\n      swap1\n      tag_160\n      jump\t// in\n    tag_441:\n      swap3\n      pop\n      pop\n      dup2\n      swap1\n      sstore\n      pop\n        /* \"contracts/ZombieGame.sol\":3523:3530  zombies */\n      0x03\n        /* \"contracts/ZombieGame.sol\":3531:3541  yourZombie */\n      dup4\n        /* \"contracts/ZombieGame.sol\":3523:3542  zombies[yourZombie] */\n      dup2\n      sload\n      dup2\n      lt\n      tag_442\n      jumpi\n      tag_443\n      tag_150\n      jump\t// in\n    tag_443:\n    tag_442:\n      swap1\n      0x00\n      mstore\n      keccak256(0x00, 0x20)\n      swap1\n      0x09\n      mul\n      add\n        /* \"contracts/ZombieGame.sol\":3523:3548  zombies[yourZombie].level */\n      0x03\n      add\n      0x00\n        /* \"contracts/ZombieGame.sol\":3523:3550  zombies[yourZombie].level-- */\n      dup2\n      sload\n      dup1\n      swap3\n      swap2\n      swap1\n      tag_445\n      swap1\n      tag_194\n      jump\t// in\n    tag_445:\n      swap2\n      swap1\n      pop\n      sstore\n      pop\n        /* \"contracts/ZombieGame.sol\":3565:3572  zombies */\n      0x03\n        /* \"contracts/ZombieGame.sol\":3573:3583  yourZombie */\n      dup4\n        /* \"contracts/ZombieGame.sol\":3565:3584  zombies[yourZombie] */\n      dup2\n      sload\n      dup2\n      lt\n      tag_446\n      jumpi\n      tag_447\n      tag_150\n      jump\t// in\n    tag_447:\n    tag_446:\n      swap1\n      0x00\n      mstore\n      keccak256(0x00, 0x20)\n      swap1\n      0x09\n      mul\n      add\n        /* \"contracts/ZombieGame.sol\":3565:3595  zombies[yourZombie].TotalMatch */\n      0x05\n      add\n      0x00\n        /* \"contracts/ZombieGame.sol\":3565:3597  zombies[yourZombie].TotalMatch++ */\n      dup2\n      sload\n      dup1\n      swap3\n      swap2\n      swap1\n      tag_449\n      swap1\n      tag_173\n      jump\t// in\n    tag_449:\n      swap2\n      swap1\n      pop\n      sstore\n      pop\n        /* \"contracts/ZombieGame.sol\":3612:3619  zombies */\n      0x03\n        /* \"contracts/ZombieGame.sol\":3620:3630  yourZombie */\n      dup4\n        /* \"contracts/ZombieGame.sol\":3612:3631  zombies[yourZombie] */\n      dup2\n      sload\n      dup2\n      lt\n      tag_450\n      jumpi\n      tag_451\n      tag_150\n      jump\t// in\n    tag_451:\n    tag_450:\n      swap1\n      0x00\n      mstore\n      keccak256(0x00, 0x20)\n      swap1\n      0x09\n      mul\n      add\n        /* \"contracts/ZombieGame.sol\":3612:3641  zombies[yourZombie].MatchLeft */\n      0x06\n      add\n      0x00\n        /* \"contracts/ZombieGame.sol\":3612:3643  zombies[yourZombie].MatchLeft-- */\n      dup2\n      sload\n      dup1\n      swap3\n      swap2\n      swap1\n      tag_453\n      swap1\n      tag_194\n      jump\t// in\n    tag_453:\n      swap2\n      swap1\n      pop\n      sstore\n      pop\n        /* \"contracts/ZombieGame.sol\":3658:3665  zombies */\n      0x03\n        /* \"contracts/ZombieGame.sol\":3666:3676  yourZombie */\n      dup4\n        /* \"contracts/ZombieGame.sol\":3658:3677  zombies[yourZombie] */\n      dup2\n      sload\n      dup2\n      lt\n      tag_454\n      jumpi\n      tag_455\n      tag_150\n      jump\t// in\n    tag_455:\n    tag_454:\n      swap1\n      0x00\n      mstore\n      keccak256(0x00, 0x20)\n      swap1\n      0x09\n      mul\n      add\n        /* \"contracts/ZombieGame.sol\":3658:3684  zombies[yourZombie].Looses */\n      0x08\n      add\n      0x00\n        /* \"contracts/ZombieGame.sol\":3658:3686  zombies[yourZombie].Looses++ */\n      dup2\n      sload\n      dup1\n      swap3\n      swap2\n      swap1\n      tag_457\n      swap1\n      tag_173\n      jump\t// in\n    tag_457:\n      swap2\n      swap1\n      pop\n      sstore\n      pop\n        /* \"contracts/ZombieGame.sol\":3699:3757  return \"Win And Loose is the part of the Game.Try Again!.\" */\n      mload(0x40)\n      dup1\n      0x60\n      add\n      0x40\n      mstore\n      dup1\n      0x31\n      dup2\n      mstore\n      0x20\n      add\n      data_e0168f3fae51cf798b1321eebdaae7bc178ca214b91f59783066943e69095f12\n      0x31\n      swap2\n      codecopy\n      swap2\n      pop\n      pop\n      jump(tag_356)\n        /* \"contracts/ZombieGame.sol\":3222:4091  if (zombies[enemyZombie].level > zombies[yourZombie].level) {... */\n    tag_421:\n        /* \"contracts/ZombieGame.sol\":3864:3871  zombies */\n      0x03\n        /* \"contracts/ZombieGame.sol\":3872:3883  enemyZombie */\n      dup2\n        /* \"contracts/ZombieGame.sol\":3864:3884  zombies[enemyZombie] */\n      dup2\n      sload\n      dup2\n      lt\n      tag_459\n      jumpi\n      tag_460\n      tag_150\n      jump\t// in\n    tag_460:\n    tag_459:\n      swap1\n      0x00\n      mstore\n      keccak256(0x00, 0x20)\n      swap1\n      0x09\n      mul\n      add\n        /* \"contracts/ZombieGame.sol\":3864:3895  zombies[enemyZombie].TotalMatch */\n      0x05\n      add\n      0x00\n        /* \"contracts/ZombieGame.sol\":3864:3897  zombies[enemyZombie].TotalMatch++ */\n      dup2\n      sload\n      dup1\n      swap3\n      swap2\n      swap1\n      tag_462\n      swap1\n      tag_173\n      jump\t// in\n    tag_462:\n      swap2\n      swap1\n      pop\n      sstore\n      pop\n        /* \"contracts/ZombieGame.sol\":3912:3919  zombies */\n      0x03\n        /* \"contracts/ZombieGame.sol\":3920:3930  yourZombie */\n      dup4\n        /* \"contracts/ZombieGame.sol\":3912:3931  zombies[yourZombie] */\n      dup2\n      sload\n      dup2\n      lt\n      tag_463\n      jumpi\n      tag_464\n      tag_150\n      jump\t// in\n    tag_464:\n    tag_463:\n      swap1\n      0x00\n      mstore\n      keccak256(0x00, 0x20)\n      swap1\n      0x09\n      mul\n      add\n        /* \"contracts/ZombieGame.sol\":3912:3942  zombies[yourZombie].TotalMatch */\n      0x05\n      add\n      0x00\n        /* \"contracts/ZombieGame.sol\":3912:3944  zombies[yourZombie].TotalMatch++ */\n      dup2\n      sload\n      dup1\n      swap3\n      swap2\n      swap1\n      tag_466\n      swap1\n      tag_173\n      jump\t// in\n    tag_466:\n      swap2\n      swap1\n      pop\n      sstore\n      pop\n        /* \"contracts/ZombieGame.sol\":3959:3966  zombies */\n      0x03\n        /* \"contracts/ZombieGame.sol\":3967:3977  yourZombie */\n      dup4\n        /* \"contracts/ZombieGame.sol\":3959:3978  zombies[yourZombie] */\n      dup2\n      sload\n      dup2\n      lt\n      tag_467\n      jumpi\n      tag_468\n      tag_150\n      jump\t// in\n    tag_468:\n    tag_467:\n      swap1\n      0x00\n      mstore\n      keccak256(0x00, 0x20)\n      swap1\n      0x09\n      mul\n      add\n        /* \"contracts/ZombieGame.sol\":3959:3988  zombies[yourZombie].MatchLeft */\n      0x06\n      add\n      0x00\n        /* \"contracts/ZombieGame.sol\":3959:3990  zombies[yourZombie].MatchLeft-- */\n      dup2\n      sload\n      dup1\n      swap3\n      swap2\n      swap1\n      tag_470\n      swap1\n      tag_194\n      jump\t// in\n    tag_470:\n      swap2\n      swap1\n      pop\n      sstore\n      pop\n        /* \"contracts/ZombieGame.sol\":4005:4012  zombies */\n      0x03\n        /* \"contracts/ZombieGame.sol\":4013:4024  enemyZombie */\n      dup2\n        /* \"contracts/ZombieGame.sol\":4005:4025  zombies[enemyZombie] */\n      dup2\n      sload\n      dup2\n      lt\n      tag_471\n      jumpi\n      tag_472\n      tag_150\n      jump\t// in\n    tag_472:\n    tag_471:\n      swap1\n      0x00\n      mstore\n      keccak256(0x00, 0x20)\n      swap1\n      0x09\n      mul\n      add\n        /* \"contracts/ZombieGame.sol\":4005:4035  zombies[enemyZombie].MatchLeft */\n      0x06\n      add\n      0x00\n        /* \"contracts/ZombieGame.sol\":4005:4037  zombies[enemyZombie].MatchLeft-- */\n      dup2\n      sload\n      dup1\n      swap3\n      swap2\n      swap1\n      tag_474\n      swap1\n      tag_194\n      jump\t// in\n    tag_474:\n      swap2\n      swap1\n      pop\n      sstore\n      pop\n        /* \"contracts/ZombieGame.sol\":4050:4074  return \"Draw Try Again.\" */\n      mload(0x40)\n      dup1\n      0x40\n      add\n      0x40\n      mstore\n      dup1\n      0x0f\n      dup2\n      mstore\n      0x20\n      add\n      0x447261772054727920416761696e2e0000000000000000000000000000000000\n      dup2\n      mstore\n      pop\n      swap2\n      pop\n      pop\n        /* \"contracts/ZombieGame.sol\":2277:4098  function ZombieVsZombie(uint yourZombie) internal returns(string memory){... */\n    tag_356:\n      swap2\n      swap1\n      pop\n      jump\t// out\n        /* \"contracts/ZombieGame.sol\":1870:2139  function ZombieVsBot() internal {... */\n    tag_258:\n        /* \"contracts/ZombieGame.sol\":1917:1923  uint i */\n      0x00\n        /* \"contracts/ZombieGame.sol\":1913:2123  for(uint i = 0; i < 11; i++) {... */\n    tag_476:\n        /* \"contracts/ZombieGame.sol\":1933:1935  11 */\n      0x0b\n        /* \"contracts/ZombieGame.sol\":1929:1930  i */\n      dup2\n        /* \"contracts/ZombieGame.sol\":1929:1935  i < 11 */\n      lt\n        /* \"contracts/ZombieGame.sol\":1913:2123  for(uint i = 0; i < 11; i++) {... */\n      iszero\n      tag_477\n      jumpi\n        /* \"contracts/ZombieGame.sol\":1957:1970  uint RandomId */\n      0x00\n        /* \"contracts/ZombieGame.sol\":2070:2072  10 */\n      0x0a\n        /* \"contracts/ZombieGame.sol\":2052:2064  block.number */\n      number\n        /* \"contracts/ZombieGame.sol\":2035:2051  block.difficulty */\n      prevrandao\n        /* \"contracts/ZombieGame.sol\":2021:2034  block.chainid */\n      chainid\n        /* \"contracts/ZombieGame.sol\":2005:2020  block.timestamp */\n      timestamp\n        /* \"contracts/ZombieGame.sol\":2005:2034  block.timestamp*block.chainid */\n      tag_479\n      swap2\n      swap1\n      tag_263\n      jump\t// in\n    tag_479:\n        /* \"contracts/ZombieGame.sol\":2005:2051  block.timestamp*block.chainid*block.difficulty */\n      tag_480\n      swap2\n      swap1\n      tag_263\n      jump\t// in\n    tag_480:\n        /* \"contracts/ZombieGame.sol\":2005:2064  block.timestamp*block.chainid*block.difficulty*block.number */\n      tag_481\n      swap2\n      swap1\n      tag_263\n      jump\t// in\n    tag_481:\n        /* \"contracts/ZombieGame.sol\":1988:2065  abi.encodePacked(block.timestamp*block.chainid*block.difficulty*block.number) */\n      add(0x20, mload(0x40))\n      tag_482\n      swap2\n      swap1\n      tag_267\n      jump\t// in\n    tag_482:\n      mload(0x40)\n      0x20\n      dup2\n      dup4\n      sub\n      sub\n      dup2\n      mstore\n      swap1\n      0x40\n      mstore\n        /* \"contracts/ZombieGame.sol\":1978:2066  keccak256(abi.encodePacked(block.timestamp*block.chainid*block.difficulty*block.number)) */\n      dup1\n      mload\n      swap1\n      0x20\n      add\n      keccak256\n        /* \"contracts/ZombieGame.sol\":1973:2067  uint(keccak256(abi.encodePacked(block.timestamp*block.chainid*block.difficulty*block.number))) */\n      0x00\n      shr\n        /* \"contracts/ZombieGame.sol\":1973:2072  uint(keccak256(abi.encodePacked(block.timestamp*block.chainid*block.difficulty*block.number))) % 10 */\n      tag_483\n      swap2\n      swap1\n      tag_158\n      jump\t// in\n    tag_483:\n        /* \"contracts/ZombieGame.sol\":1957:2072  uint RandomId = uint(keccak256(abi.encodePacked(block.timestamp*block.chainid*block.difficulty*block.number))) % 10 */\n      swap1\n      pop\n        /* \"contracts/ZombieGame.sol\":2103:2111  RandomId */\n      dup1\n        /* \"contracts/ZombieGame.sol\":2087:2091  bots */\n      0x04\n        /* \"contracts/ZombieGame.sol\":2092:2093  i */\n      dup4\n        /* \"contracts/ZombieGame.sol\":2087:2094  bots[i] */\n      dup2\n      sload\n      dup2\n      lt\n      tag_484\n      jumpi\n      tag_485\n      tag_150\n      jump\t// in\n    tag_485:\n    tag_484:\n      swap1\n      0x00\n      mstore\n      keccak256(0x00, 0x20)\n      add\n        /* \"contracts/ZombieGame.sol\":2087:2100  bots[i].level */\n      0x00\n      add\n        /* \"contracts/ZombieGame.sol\":2087:2111  bots[i].level = RandomId */\n      dup2\n      swap1\n      sstore\n      pop\n        /* \"contracts/ZombieGame.sol\":1942:2123  {... */\n      pop\n        /* \"contracts/ZombieGame.sol\":1937:1940  i++ */\n      dup1\n      dup1\n      tag_487\n      swap1\n      tag_173\n      jump\t// in\n    tag_487:\n      swap2\n      pop\n      pop\n        /* \"contracts/ZombieGame.sol\":1913:2123  for(uint i = 0; i < 11; i++) {... */\n      jump(tag_476)\n    tag_477:\n      pop\n        /* \"contracts/ZombieGame.sol\":1870:2139  function ZombieVsBot() internal {... */\n      jump\t// out\n        /* \"contracts/ZombieGame.sol\":1590:1862  function randomEnemy() private view returns(uint) {... */\n    tag_358:\n        /* \"contracts/ZombieGame.sol\":1634:1638  uint */\n      0x00\n        /* \"contracts/ZombieGame.sol\":1651:1666  uint TotalEnemy */\n      dup1\n        /* \"contracts/ZombieGame.sol\":1669:1676  zombies */\n      0x03\n        /* \"contracts/ZombieGame.sol\":1669:1683  zombies.length */\n      dup1\n      sload\n      swap1\n      pop\n        /* \"contracts/ZombieGame.sol\":1651:1683  uint TotalEnemy = zombies.length */\n      swap1\n      pop\n        /* \"contracts/ZombieGame.sol\":1694:1707  uint RandomId */\n      0x00\n        /* \"contracts/ZombieGame.sol\":1818:1828  TotalEnemy */\n      dup2\n        /* \"contracts/ZombieGame.sol\":1800:1812  block.number */\n      number\n        /* \"contracts/ZombieGame.sol\":1783:1799  block.difficulty */\n      prevrandao\n        /* \"contracts/ZombieGame.sol\":1769:1782  block.chainid */\n      chainid\n        /* \"contracts/ZombieGame.sol\":1753:1768  block.timestamp */\n      timestamp\n        /* \"contracts/ZombieGame.sol\":1742:1752  TotalEnemy */\n      dup7\n        /* \"contracts/ZombieGame.sol\":1742:1768  TotalEnemy*block.timestamp */\n      tag_489\n      swap2\n      swap1\n      tag_263\n      jump\t// in\n    tag_489:\n        /* \"contracts/ZombieGame.sol\":1742:1782  TotalEnemy*block.timestamp*block.chainid */\n      tag_490\n      swap2\n      swap1\n      tag_263\n      jump\t// in\n    tag_490:\n        /* \"contracts/ZombieGame.sol\":1742:1799  TotalEnemy*block.timestamp*block.chainid*block.difficulty */\n      tag_491\n      swap2\n      swap1\n      tag_263\n      jump\t// in\n    tag_491:\n        /* \"contracts/ZombieGame.sol\":1742:1812  TotalEnemy*block.timestamp*block.chainid*block.difficulty*block.number */\n      tag_492\n      swap2\n      swap1\n      tag_263\n      jump\t// in\n    tag_492:\n        /* \"contracts/ZombieGame.sol\":1725:1813  abi.encodePacked(TotalEnemy*block.timestamp*block.chainid*block.difficulty*block.number) */\n      add(0x20, mload(0x40))\n      tag_493\n      swap2\n      swap1\n      tag_267\n      jump\t// in\n    tag_493:\n      mload(0x40)\n      0x20\n      dup2\n      dup4\n      sub\n      sub\n      dup2\n      mstore\n      swap1\n      0x40\n      mstore\n        /* \"contracts/ZombieGame.sol\":1715:1814  keccak256(abi.encodePacked(TotalEnemy*block.timestamp*block.chainid*block.difficulty*block.number)) */\n      dup1\n      mload\n      swap1\n      0x20\n      add\n      keccak256\n        /* \"contracts/ZombieGame.sol\":1710:1815  uint(keccak256(abi.encodePacked(TotalEnemy*block.timestamp*block.chainid*block.difficulty*block.number))) */\n      0x00\n      shr\n        /* \"contracts/ZombieGame.sol\":1710:1828  uint(keccak256(abi.encodePacked(TotalEnemy*block.timestamp*block.chainid*block.difficulty*block.number))) % TotalEnemy */\n      tag_494\n      swap2\n      swap1\n      tag_158\n      jump\t// in\n    tag_494:\n        /* \"contracts/ZombieGame.sol\":1694:1828  uint RandomId = uint(keccak256(abi.encodePacked(TotalEnemy*block.timestamp*block.chainid*block.difficulty*block.number))) % TotalEnemy */\n      swap1\n      pop\n        /* \"contracts/ZombieGame.sol\":1846:1854  RandomId */\n      dup1\n        /* \"contracts/ZombieGame.sol\":1839:1854  return RandomId */\n      swap3\n      pop\n      pop\n      pop\n        /* \"contracts/ZombieGame.sol\":1590:1862  function randomEnemy() private view returns(uint) {... */\n      swap1\n      jump\t// out\n    tag_205:\n      mload(0x40)\n      dup1\n      0x0120\n      add\n      0x40\n      mstore\n      dup1\n      0x60\n      dup2\n      mstore\n      0x20\n      add\n      0x60\n      dup2\n      mstore\n      0x20\n      add\n      0x00\n      dup2\n      mstore\n      0x20\n      add\n      0x00\n      dup2\n      mstore\n      0x20\n      add\n      0x00\n      dup2\n      mstore\n      0x20\n      add\n      0x00\n      dup2\n      mstore\n      0x20\n      add\n      0x00\n      dup2\n      mstore\n      0x20\n      add\n      0x00\n      dup2\n      mstore\n      0x20\n      add\n      0x00\n      dup2\n      mstore\n      pop\n      swap1\n      jump\t// out\n        /* \"#utility.yul\":7:82   */\n    tag_495:\n        /* \"#utility.yul\":40:46   */\n      0x00\n        /* \"#utility.yul\":73:75   */\n      0x40\n        /* \"#utility.yul\":67:76   */\n      mload\n        /* \"#utility.yul\":57:76   */\n      swap1\n      pop\n        /* \"#utility.yul\":7:82   */\n      swap1\n      jump\t// out\n        /* \"#utility.yul\":88:205   */\n    tag_496:\n        /* \"#utility.yul\":197:198   */\n      0x00\n        /* \"#utility.yul\":194:195   */\n      dup1\n        /* \"#utility.yul\":187:199   */\n      revert\n        /* \"#utility.yul\":211:328   */\n    tag_497:\n        /* \"#utility.yul\":320:321   */\n      0x00\n        /* \"#utility.yul\":317:318   */\n      dup1\n        /* \"#utility.yul\":310:322   */\n      revert\n        /* \"#utility.yul\":334:460   */\n    tag_498:\n        /* \"#utility.yul\":371:378   */\n      0x00\n        /* \"#utility.yul\":411:453   */\n      0xffffffffffffffffffffffffffffffffffffffff\n        /* \"#utility.yul\":404:409   */\n      dup3\n        /* \"#utility.yul\":400:454   */\n      and\n        /* \"#utility.yul\":389:454   */\n      swap1\n      pop\n        /* \"#utility.yul\":334:460   */\n      swap2\n      swap1\n      pop\n      jump\t// out\n        /* \"#utility.yul\":466:562   */\n    tag_499:\n        /* \"#utility.yul\":503:510   */\n      0x00\n        /* \"#utility.yul\":532:556   */\n      tag_602\n        /* \"#utility.yul\":550:555   */\n      dup3\n        /* \"#utility.yul\":532:556   */\n      tag_498\n      jump\t// in\n    tag_602:\n        /* \"#utility.yul\":521:556   */\n      swap1\n      pop\n        /* \"#utility.yul\":466:562   */\n      swap2\n      swap1\n      pop\n      jump\t// out\n        /* \"#utility.yul\":568:690   */\n    tag_500:\n        /* \"#utility.yul\":641:665   */\n      tag_604\n        /* \"#utility.yul\":659:664   */\n      dup2\n        /* \"#utility.yul\":641:665   */\n      tag_499\n      jump\t// in\n    tag_604:\n        /* \"#utility.yul\":634:639   */\n      dup2\n        /* \"#utility.yul\":631:666   */\n      eq\n        /* \"#utility.yul\":621:684   */\n      tag_605\n      jumpi\n        /* \"#utility.yul\":680:681   */\n      0x00\n        /* \"#utility.yul\":677:678   */\n      dup1\n        /* \"#utility.yul\":670:682   */\n      revert\n        /* \"#utility.yul\":621:684   */\n    tag_605:\n        /* \"#utility.yul\":568:690   */\n      pop\n      jump\t// out\n        /* \"#utility.yul\":696:835   */\n    tag_501:\n        /* \"#utility.yul\":742:747   */\n      0x00\n        /* \"#utility.yul\":780:786   */\n      dup2\n        /* \"#utility.yul\":767:787   */\n      calldataload\n        /* \"#utility.yul\":758:787   */\n      swap1\n      pop\n        /* \"#utility.yul\":796:829   */\n      tag_607\n        /* \"#utility.yul\":823:828   */\n      dup2\n        /* \"#utility.yul\":796:829   */\n      tag_500\n      jump\t// in\n    tag_607:\n        /* \"#utility.yul\":696:835   */\n      swap3\n      swap2\n      pop\n      pop\n      jump\t// out\n        /* \"#utility.yul\":841:918   */\n    tag_502:\n        /* \"#utility.yul\":878:885   */\n      0x00\n        /* \"#utility.yul\":907:912   */\n      dup2\n        /* \"#utility.yul\":896:912   */\n      swap1\n      pop\n        /* \"#utility.yul\":841:918   */\n      swap2\n      swap1\n      pop\n      jump\t// out\n        /* \"#utility.yul\":924:1046   */\n    tag_503:\n        /* \"#utility.yul\":997:1021   */\n      tag_610\n        /* \"#utility.yul\":1015:1020   */\n      dup2\n        /* \"#utility.yul\":997:1021   */\n      tag_502\n      jump\t// in\n    tag_610:\n        /* \"#utility.yul\":990:995   */\n      dup2\n        /* \"#utility.yul\":987:1022   */\n      eq\n        /* \"#utility.yul\":977:1040   */\n      tag_611\n      jumpi\n        /* \"#utility.yul\":1036:1037   */\n      0x00\n        /* \"#utility.yul\":1033:1034   */\n      dup1\n        /* \"#utility.yul\":1026:1038   */\n      revert\n        /* \"#utility.yul\":977:1040   */\n    tag_611:\n        /* \"#utility.yul\":924:1046   */\n      pop\n      jump\t// out\n        /* \"#utility.yul\":1052:1191   */\n    tag_504:\n        /* \"#utility.yul\":1098:1103   */\n      0x00\n        /* \"#utility.yul\":1136:1142   */\n      dup2\n        /* \"#utility.yul\":1123:1143   */\n      calldataload\n        /* \"#utility.yul\":1114:1143   */\n      swap1\n      pop\n        /* \"#utility.yul\":1152:1185   */\n      tag_613\n        /* \"#utility.yul\":1179:1184   */\n      dup2\n        /* \"#utility.yul\":1152:1185   */\n      tag_503\n      jump\t// in\n    tag_613:\n        /* \"#utility.yul\":1052:1191   */\n      swap3\n      swap2\n      pop\n      pop\n      jump\t// out\n        /* \"#utility.yul\":1197:1671   */\n    tag_30:\n        /* \"#utility.yul\":1265:1271   */\n      0x00\n        /* \"#utility.yul\":1273:1279   */\n      dup1\n        /* \"#utility.yul\":1322:1324   */\n      0x40\n        /* \"#utility.yul\":1310:1319   */\n      dup4\n        /* \"#utility.yul\":1301:1308   */\n      dup6\n        /* \"#utility.yul\":1297:1320   */\n      sub\n        /* \"#utility.yul\":1293:1325   */\n      slt\n        /* \"#utility.yul\":1290:1409   */\n      iszero\n      tag_615\n      jumpi\n        /* \"#utility.yul\":1328:1407   */\n      tag_616\n      tag_496\n      jump\t// in\n    tag_616:\n        /* \"#utility.yul\":1290:1409   */\n    tag_615:\n        /* \"#utility.yul\":1448:1449   */\n      0x00\n        /* \"#utility.yul\":1473:1526   */\n      tag_617\n        /* \"#utility.yul\":1518:1525   */\n      dup6\n        /* \"#utility.yul\":1509:1515   */\n      dup3\n        /* \"#utility.yul\":1498:1507   */\n      dup7\n        /* \"#utility.yul\":1494:1516   */\n      add\n        /* \"#utility.yul\":1473:1526   */\n      tag_501\n      jump\t// in\n    tag_617:\n        /* \"#utility.yul\":1463:1526   */\n      swap3\n      pop\n        /* \"#utility.yul\":1419:1536   */\n      pop\n        /* \"#utility.yul\":1575:1577   */\n      0x20\n        /* \"#utility.yul\":1601:1654   */\n      tag_618\n        /* \"#utility.yul\":1646:1653   */\n      dup6\n        /* \"#utility.yul\":1637:1643   */\n      dup3\n        /* \"#utility.yul\":1626:1635   */\n      dup7\n        /* \"#utility.yul\":1622:1644   */\n      add\n        /* \"#utility.yul\":1601:1654   */\n      tag_504\n      jump\t// in\n    tag_618:\n        /* \"#utility.yul\":1591:1654   */\n      swap2\n      pop\n        /* \"#utility.yul\":1546:1664   */\n      pop\n        /* \"#utility.yul\":1197:1671   */\n      swap3\n      pop\n      swap3\n      swap1\n      pop\n      jump\t// out\n        /* \"#utility.yul\":1677:2006   */\n    tag_35:\n        /* \"#utility.yul\":1736:1742   */\n      0x00\n        /* \"#utility.yul\":1785:1787   */\n      0x20\n        /* \"#utility.yul\":1773:1782   */\n      dup3\n        /* \"#utility.yul\":1764:1771   */\n      dup5\n        /* \"#utility.yul\":1760:1783   */\n      sub\n        /* \"#utility.yul\":1756:1788   */\n      slt\n        /* \"#utility.yul\":1753:1872   */\n      iszero\n      tag_620\n      jumpi\n        /* \"#utility.yul\":1791:1870   */\n      tag_621\n      tag_496\n      jump\t// in\n    tag_621:\n        /* \"#utility.yul\":1753:1872   */\n    tag_620:\n        /* \"#utility.yul\":1911:1912   */\n      0x00\n        /* \"#utility.yul\":1936:1989   */\n      tag_622\n        /* \"#utility.yul\":1981:1988   */\n      dup5\n        /* \"#utility.yul\":1972:1978   */\n      dup3\n        /* \"#utility.yul\":1961:1970   */\n      dup6\n        /* \"#utility.yul\":1957:1979   */\n      add\n        /* \"#utility.yul\":1936:1989   */\n      tag_504\n      jump\t// in\n    tag_622:\n        /* \"#utility.yul\":1926:1989   */\n      swap2\n      pop\n        /* \"#utility.yul\":1882:1999   */\n      pop\n        /* \"#utility.yul\":1677:2006   */\n      swap3\n      swap2\n      pop\n      pop\n      jump\t// out\n        /* \"#utility.yul\":2012:2130   */\n    tag_505:\n        /* \"#utility.yul\":2099:2123   */\n      tag_624\n        /* \"#utility.yul\":2117:2122   */\n      dup2\n        /* \"#utility.yul\":2099:2123   */\n      tag_502\n      jump\t// in\n    tag_624:\n        /* \"#utility.yul\":2094:2097   */\n      dup3\n        /* \"#utility.yul\":2087:2124   */\n      mstore\n        /* \"#utility.yul\":2012:2130   */\n      pop\n      pop\n      jump\t// out\n        /* \"#utility.yul\":2136:2358   */\n    tag_38:\n        /* \"#utility.yul\":2229:2233   */\n      0x00\n        /* \"#utility.yul\":2267:2269   */\n      0x20\n        /* \"#utility.yul\":2256:2265   */\n      dup3\n        /* \"#utility.yul\":2252:2270   */\n      add\n        /* \"#utility.yul\":2244:2270   */\n      swap1\n      pop\n        /* \"#utility.yul\":2280:2351   */\n      tag_626\n        /* \"#utility.yul\":2348:2349   */\n      0x00\n        /* \"#utility.yul\":2337:2346   */\n      dup4\n        /* \"#utility.yul\":2333:2350   */\n      add\n        /* \"#utility.yul\":2324:2330   */\n      dup5\n        /* \"#utility.yul\":2280:2351   */\n      tag_505\n      jump\t// in\n    tag_626:\n        /* \"#utility.yul\":2136:2358   */\n      swap3\n      swap2\n      pop\n      pop\n      jump\t// out\n        /* \"#utility.yul\":2364:2838   */\n    tag_42:\n        /* \"#utility.yul\":2432:2438   */\n      0x00\n        /* \"#utility.yul\":2440:2446   */\n      dup1\n        /* \"#utility.yul\":2489:2491   */\n      0x40\n        /* \"#utility.yul\":2477:2486   */\n      dup4\n        /* \"#utility.yul\":2468:2475   */\n      dup6\n        /* \"#utility.yul\":2464:2487   */\n      sub\n        /* \"#utility.yul\":2460:2492   */\n      slt\n        /* \"#utility.yul\":2457:2576   */\n      iszero\n      tag_628\n      jumpi\n        /* \"#utility.yul\":2495:2574   */\n      tag_629\n      tag_496\n      jump\t// in\n    tag_629:\n        /* \"#utility.yul\":2457:2576   */\n    tag_628:\n        /* \"#utility.yul\":2615:2616   */\n      0x00\n        /* \"#utility.yul\":2640:2693   */\n      tag_630\n        /* \"#utility.yul\":2685:2692   */\n      dup6\n        /* \"#utility.yul\":2676:2682   */\n      dup3\n        /* \"#utility.yul\":2665:2674   */\n      dup7\n        /* \"#utility.yul\":2661:2683   */\n      add\n        /* \"#utility.yul\":2640:2693   */\n      tag_504\n      jump\t// in\n    tag_630:\n        /* \"#utility.yul\":2630:2693   */\n      swap3\n      pop\n        /* \"#utility.yul\":2586:2703   */\n      pop\n        /* \"#utility.yul\":2742:2744   */\n      0x20\n        /* \"#utility.yul\":2768:2821   */\n      tag_631\n        /* \"#utility.yul\":2813:2820   */\n      dup6\n        /* \"#utility.yul\":2804:2810   */\n      dup3\n        /* \"#utility.yul\":2793:2802   */\n      dup7\n        /* \"#utility.yul\":2789:2811   */\n      add\n        /* \"#utility.yul\":2768:2821   */\n      tag_504\n      jump\t// in\n    tag_631:\n        /* \"#utility.yul\":2758:2821   */\n      swap2\n      pop\n        /* \"#utility.yul\":2713:2831   */\n      pop\n        /* \"#utility.yul\":2364:2838   */\n      swap3\n      pop\n      swap3\n      swap1\n      pop\n      jump\t// out\n        /* \"#utility.yul\":2844:3173   */\n    tag_52:\n        /* \"#utility.yul\":2903:2909   */\n      0x00\n        /* \"#utility.yul\":2952:2954   */\n      0x20\n        /* \"#utility.yul\":2940:2949   */\n      dup3\n        /* \"#utility.yul\":2931:2938   */\n      dup5\n        /* \"#utility.yul\":2927:2950   */\n      sub\n        /* \"#utility.yul\":2923:2955   */\n      slt\n        /* \"#utility.yul\":2920:3039   */\n      iszero\n      tag_633\n      jumpi\n        /* \"#utility.yul\":2958:3037   */\n      tag_634\n      tag_496\n      jump\t// in\n    tag_634:\n        /* \"#utility.yul\":2920:3039   */\n    tag_633:\n        /* \"#utility.yul\":3078:3079   */\n      0x00\n        /* \"#utility.yul\":3103:3156   */\n      tag_635\n        /* \"#utility.yul\":3148:3155   */\n      dup5\n        /* \"#utility.yul\":3139:3145   */\n      dup3\n        /* \"#utility.yul\":3128:3137   */\n      dup6\n        /* \"#utility.yul\":3124:3146   */\n      add\n        /* \"#utility.yul\":3103:3156   */\n      tag_501\n      jump\t// in\n    tag_635:\n        /* \"#utility.yul\":3093:3156   */\n      swap2\n      pop\n        /* \"#utility.yul\":3049:3166   */\n      pop\n        /* \"#utility.yul\":2844:3173   */\n      swap3\n      swap2\n      pop\n      pop\n      jump\t// out\n        /* \"#utility.yul\":3179:3293   */\n    tag_506:\n        /* \"#utility.yul\":3246:3252   */\n      0x00\n        /* \"#utility.yul\":3280:3285   */\n      dup2\n        /* \"#utility.yul\":3274:3286   */\n      mload\n        /* \"#utility.yul\":3264:3286   */\n      swap1\n      pop\n        /* \"#utility.yul\":3179:3293   */\n      swap2\n      swap1\n      pop\n      jump\t// out\n        /* \"#utility.yul\":3299:3483   */\n    tag_507:\n        /* \"#utility.yul\":3398:3409   */\n      0x00\n        /* \"#utility.yul\":3432:3438   */\n      dup3\n        /* \"#utility.yul\":3427:3430   */\n      dup3\n        /* \"#utility.yul\":3420:3439   */\n      mstore\n        /* \"#utility.yul\":3472:3476   */\n      0x20\n        /* \"#utility.yul\":3467:3470   */\n      dup3\n        /* \"#utility.yul\":3463:3477   */\n      add\n        /* \"#utility.yul\":3448:3477   */\n      swap1\n      pop\n        /* \"#utility.yul\":3299:3483   */\n      swap3\n      swap2\n      pop\n      pop\n      jump\t// out\n        /* \"#utility.yul\":3489:3621   */\n    tag_508:\n        /* \"#utility.yul\":3556:3560   */\n      0x00\n        /* \"#utility.yul\":3579:3582   */\n      dup2\n        /* \"#utility.yul\":3571:3582   */\n      swap1\n      pop\n        /* \"#utility.yul\":3609:3613   */\n      0x20\n        /* \"#utility.yul\":3604:3607   */\n      dup3\n        /* \"#utility.yul\":3600:3614   */\n      add\n        /* \"#utility.yul\":3592:3614   */\n      swap1\n      pop\n        /* \"#utility.yul\":3489:3621   */\n      swap2\n      swap1\n      pop\n      jump\t// out\n        /* \"#utility.yul\":3627:3735   */\n    tag_509:\n        /* \"#utility.yul\":3704:3728   */\n      tag_640\n        /* \"#utility.yul\":3722:3727   */\n      dup2\n        /* \"#utility.yul\":3704:3728   */\n      tag_502\n      jump\t// in\n    tag_640:\n        /* \"#utility.yul\":3699:3702   */\n      dup3\n        /* \"#utility.yul\":3692:3729   */\n      mstore\n        /* \"#utility.yul\":3627:3735   */\n      pop\n      pop\n      jump\t// out\n        /* \"#utility.yul\":3741:3920   */\n    tag_510:\n        /* \"#utility.yul\":3810:3820   */\n      0x00\n        /* \"#utility.yul\":3831:3877   */\n      tag_642\n        /* \"#utility.yul\":3873:3876   */\n      dup4\n        /* \"#utility.yul\":3865:3871   */\n      dup4\n        /* \"#utility.yul\":3831:3877   */\n      tag_509\n      jump\t// in\n    tag_642:\n        /* \"#utility.yul\":3909:3913   */\n      0x20\n        /* \"#utility.yul\":3904:3907   */\n      dup4\n        /* \"#utility.yul\":3900:3914   */\n      add\n        /* \"#utility.yul\":3886:3914   */\n      swap1\n      pop\n        /* \"#utility.yul\":3741:3920   */\n      swap3\n      swap2\n      pop\n      pop\n      jump\t// out\n        /* \"#utility.yul\":3926:4039   */\n    tag_511:\n        /* \"#utility.yul\":3996:4000   */\n      0x00\n        /* \"#utility.yul\":4028:4032   */\n      0x20\n        /* \"#utility.yul\":4023:4026   */\n      dup3\n        /* \"#utility.yul\":4019:4033   */\n      add\n        /* \"#utility.yul\":4011:4033   */\n      swap1\n      pop\n        /* \"#utility.yul\":3926:4039   */\n      swap2\n      swap1\n      pop\n      jump\t// out\n        /* \"#utility.yul\":4075:4807   */\n    tag_512:\n        /* \"#utility.yul\":4194:4197   */\n      0x00\n        /* \"#utility.yul\":4223:4277   */\n      tag_645\n        /* \"#utility.yul\":4271:4276   */\n      dup3\n        /* \"#utility.yul\":4223:4277   */\n      tag_506\n      jump\t// in\n    tag_645:\n        /* \"#utility.yul\":4293:4379   */\n      tag_646\n        /* \"#utility.yul\":4372:4378   */\n      dup2\n        /* \"#utility.yul\":4367:4370   */\n      dup6\n        /* \"#utility.yul\":4293:4379   */\n      tag_507\n      jump\t// in\n    tag_646:\n        /* \"#utility.yul\":4286:4379   */\n      swap4\n      pop\n        /* \"#utility.yul\":4403:4459   */\n      tag_647\n        /* \"#utility.yul\":4453:4458   */\n      dup4\n        /* \"#utility.yul\":4403:4459   */\n      tag_508\n      jump\t// in\n    tag_647:\n        /* \"#utility.yul\":4482:4489   */\n      dup1\n        /* \"#utility.yul\":4513:4514   */\n      0x00\n        /* \"#utility.yul\":4498:4782   */\n    tag_648:\n        /* \"#utility.yul\":4523:4529   */\n      dup4\n        /* \"#utility.yul\":4520:4521   */\n      dup2\n        /* \"#utility.yul\":4517:4530   */\n      lt\n        /* \"#utility.yul\":4498:4782   */\n      iszero\n      tag_650\n      jumpi\n        /* \"#utility.yul\":4599:4605   */\n      dup2\n        /* \"#utility.yul\":4593:4606   */\n      mload\n        /* \"#utility.yul\":4626:4689   */\n      tag_651\n        /* \"#utility.yul\":4685:4688   */\n      dup9\n        /* \"#utility.yul\":4670:4683   */\n      dup3\n        /* \"#utility.yul\":4626:4689   */\n      tag_510\n      jump\t// in\n    tag_651:\n        /* \"#utility.yul\":4619:4689   */\n      swap8\n      pop\n        /* \"#utility.yul\":4712:4772   */\n      tag_652\n        /* \"#utility.yul\":4765:4771   */\n      dup4\n        /* \"#utility.yul\":4712:4772   */\n      tag_511\n      jump\t// in\n    tag_652:\n        /* \"#utility.yul\":4702:4772   */\n      swap3\n      pop\n        /* \"#utility.yul\":4558:4782   */\n      pop\n        /* \"#utility.yul\":4545:4546   */\n      0x01\n        /* \"#utility.yul\":4542:4543   */\n      dup2\n        /* \"#utility.yul\":4538:4547   */\n      add\n        /* \"#utility.yul\":4533:4547   */\n      swap1\n      pop\n        /* \"#utility.yul\":4498:4782   */\n      jump(tag_648)\n    tag_650:\n        /* \"#utility.yul\":4502:4516   */\n      pop\n        /* \"#utility.yul\":4798:4801   */\n      dup6\n        /* \"#utility.yul\":4791:4801   */\n      swap4\n      pop\n        /* \"#utility.yul\":4199:4807   */\n      pop\n      pop\n      pop\n        /* \"#utility.yul\":4075:4807   */\n      swap3\n      swap2\n      pop\n      pop\n      jump\t// out\n        /* \"#utility.yul\":4813:5186   */\n    tag_55:\n        /* \"#utility.yul\":4956:4960   */\n      0x00\n        /* \"#utility.yul\":4994:4996   */\n      0x20\n        /* \"#utility.yul\":4983:4992   */\n      dup3\n        /* \"#utility.yul\":4979:4997   */\n      add\n        /* \"#utility.yul\":4971:4997   */\n      swap1\n      pop\n        /* \"#utility.yul\":5043:5052   */\n      dup2\n        /* \"#utility.yul\":5037:5041   */\n      dup2\n        /* \"#utility.yul\":5033:5053   */\n      sub\n        /* \"#utility.yul\":5029:5030   */\n      0x00\n        /* \"#utility.yul\":5018:5027   */\n      dup4\n        /* \"#utility.yul\":5014:5031   */\n      add\n        /* \"#utility.yul\":5007:5054   */\n      mstore\n        /* \"#utility.yul\":5071:5179   */\n      tag_654\n        /* \"#utility.yul\":5174:5178   */\n      dup2\n        /* \"#utility.yul\":5165:5171   */\n      dup5\n        /* \"#utility.yul\":5071:5179   */\n      tag_512\n      jump\t// in\n    tag_654:\n        /* \"#utility.yul\":5063:5179   */\n      swap1\n      pop\n        /* \"#utility.yul\":4813:5186   */\n      swap3\n      swap2\n      pop\n      pop\n      jump\t// out\n        /* \"#utility.yul\":5192:5666   */\n    tag_59:\n        /* \"#utility.yul\":5260:5266   */\n      0x00\n        /* \"#utility.yul\":5268:5274   */\n      dup1\n        /* \"#utility.yul\":5317:5319   */\n      0x40\n        /* \"#utility.yul\":5305:5314   */\n      dup4\n        /* \"#utility.yul\":5296:5303   */\n      dup6\n        /* \"#utility.yul\":5292:5315   */\n      sub\n        /* \"#utility.yul\":5288:5320   */\n      slt\n        /* \"#utility.yul\":5285:5404   */\n      iszero\n      tag_656\n      jumpi\n        /* \"#utility.yul\":5323:5402   */\n      tag_657\n      tag_496\n      jump\t// in\n    tag_657:\n        /* \"#utility.yul\":5285:5404   */\n    tag_656:\n        /* \"#utility.yul\":5443:5444   */\n      0x00\n        /* \"#utility.yul\":5468:5521   */\n      tag_658\n        /* \"#utility.yul\":5513:5520   */\n      dup6\n        /* \"#utility.yul\":5504:5510   */\n      dup3\n        /* \"#utility.yul\":5493:5502   */\n      dup7\n        /* \"#utility.yul\":5489:5511   */\n      add\n        /* \"#utility.yul\":5468:5521   */\n      tag_501\n      jump\t// in\n    tag_658:\n        /* \"#utility.yul\":5458:5521   */\n      swap3\n      pop\n        /* \"#utility.yul\":5414:5531   */\n      pop\n        /* \"#utility.yul\":5570:5572   */\n      0x20\n        /* \"#utility.yul\":5596:5649   */\n      tag_659\n        /* \"#utility.yul\":5641:5648   */\n      dup6\n        /* \"#utility.yul\":5632:5638   */\n      dup3\n        /* \"#utility.yul\":5621:5630   */\n      dup7\n        /* \"#utility.yul\":5617:5639   */\n      add\n        /* \"#utility.yul\":5596:5649   */\n      tag_501\n      jump\t// in\n    tag_659:\n        /* \"#utility.yul\":5586:5649   */\n      swap2\n      pop\n        /* \"#utility.yul\":5541:5659   */\n      pop\n        /* \"#utility.yul\":5192:5666   */\n      swap3\n      pop\n      swap3\n      swap1\n      pop\n      jump\t// out\n        /* \"#utility.yul\":5672:6291   */\n    tag_70:\n        /* \"#utility.yul\":5749:5755   */\n      0x00\n        /* \"#utility.yul\":5757:5763   */\n      dup1\n        /* \"#utility.yul\":5765:5771   */\n      0x00\n        /* \"#utility.yul\":5814:5816   */\n      0x60\n        /* \"#utility.yul\":5802:5811   */\n      dup5\n        /* \"#utility.yul\":5793:5800   */\n      dup7\n        /* \"#utility.yul\":5789:5812   */\n      sub\n        /* \"#utility.yul\":5785:5817   */\n      slt\n        /* \"#utility.yul\":5782:5901   */\n      iszero\n      tag_661\n      jumpi\n        /* \"#utility.yul\":5820:5899   */\n      tag_662\n      tag_496\n      jump\t// in\n    tag_662:\n        /* \"#utility.yul\":5782:5901   */\n    tag_661:\n        /* \"#utility.yul\":5940:5941   */\n      0x00\n        /* \"#utility.yul\":5965:6018   */\n      tag_663\n        /* \"#utility.yul\":6010:6017   */\n      dup7\n        /* \"#utility.yul\":6001:6007   */\n      dup3\n        /* \"#utility.yul\":5990:5999   */\n      dup8\n        /* \"#utility.yul\":5986:6008   */\n      add\n        /* \"#utility.yul\":5965:6018   */\n      tag_501\n      jump\t// in\n    tag_663:\n        /* \"#utility.yul\":5955:6018   */\n      swap4\n      pop\n        /* \"#utility.yul\":5911:6028   */\n      pop\n        /* \"#utility.yul\":6067:6069   */\n      0x20\n        /* \"#utility.yul\":6093:6146   */\n      tag_664\n        /* \"#utility.yul\":6138:6145   */\n      dup7\n        /* \"#utility.yul\":6129:6135   */\n      dup3\n        /* \"#utility.yul\":6118:6127   */\n      dup8\n        /* \"#utility.yul\":6114:6136   */\n      add\n        /* \"#utility.yul\":6093:6146   */\n      tag_501\n      jump\t// in\n    tag_664:\n        /* \"#utility.yul\":6083:6146   */\n      swap3\n      pop\n        /* \"#utility.yul\":6038:6156   */\n      pop\n        /* \"#utility.yul\":6195:6197   */\n      0x40\n        /* \"#utility.yul\":6221:6274   */\n      tag_665\n        /* \"#utility.yul\":6266:6273   */\n      dup7\n        /* \"#utility.yul\":6257:6263   */\n      dup3\n        /* \"#utility.yul\":6246:6255   */\n      dup8\n        /* \"#utility.yul\":6242:6264   */\n      add\n        /* \"#utility.yul\":6221:6274   */\n      tag_504\n      jump\t// in\n    tag_665:\n        /* \"#utility.yul\":6211:6274   */\n      swap2\n      pop\n        /* \"#utility.yul\":6166:6284   */\n      pop\n        /* \"#utility.yul\":5672:6291   */\n      swap3\n      pop\n      swap3\n      pop\n      swap3\n      jump\t// out\n        /* \"#utility.yul\":6297:6387   */\n    tag_513:\n        /* \"#utility.yul\":6331:6338   */\n      0x00\n        /* \"#utility.yul\":6374:6379   */\n      dup2\n        /* \"#utility.yul\":6367:6380   */\n      iszero\n        /* \"#utility.yul\":6360:6381   */\n      iszero\n        /* \"#utility.yul\":6349:6381   */\n      swap1\n      pop\n        /* \"#utility.yul\":6297:6387   */\n      swap2\n      swap1\n      pop\n      jump\t// out\n        /* \"#utility.yul\":6393:6502   */\n    tag_514:\n        /* \"#utility.yul\":6474:6495   */\n      tag_668\n        /* \"#utility.yul\":6489:6494   */\n      dup2\n        /* \"#utility.yul\":6474:6495   */\n      tag_513\n      jump\t// in\n    tag_668:\n        /* \"#utility.yul\":6469:6472   */\n      dup3\n        /* \"#utility.yul\":6462:6496   */\n      mstore\n        /* \"#utility.yul\":6393:6502   */\n      pop\n      pop\n      jump\t// out\n        /* \"#utility.yul\":6508:6718   */\n    tag_77:\n        /* \"#utility.yul\":6595:6599   */\n      0x00\n        /* \"#utility.yul\":6633:6635   */\n      0x20\n        /* \"#utility.yul\":6622:6631   */\n      dup3\n        /* \"#utility.yul\":6618:6636   */\n      add\n        /* \"#utility.yul\":6610:6636   */\n      swap1\n      pop\n        /* \"#utility.yul\":6646:6711   */\n      tag_670\n        /* \"#utility.yul\":6708:6709   */\n      0x00\n        /* \"#utility.yul\":6697:6706   */\n      dup4\n        /* \"#utility.yul\":6693:6710   */\n      add\n        /* \"#utility.yul\":6684:6690   */\n      dup5\n        /* \"#utility.yul\":6646:6711   */\n      tag_514\n      jump\t// in\n    tag_670:\n        /* \"#utility.yul\":6508:6718   */\n      swap3\n      swap2\n      pop\n      pop\n      jump\t// out\n        /* \"#utility.yul\":6724:6823   */\n    tag_515:\n        /* \"#utility.yul\":6776:6782   */\n      0x00\n        /* \"#utility.yul\":6810:6815   */\n      dup2\n        /* \"#utility.yul\":6804:6816   */\n      mload\n        /* \"#utility.yul\":6794:6816   */\n      swap1\n      pop\n        /* \"#utility.yul\":6724:6823   */\n      swap2\n      swap1\n      pop\n      jump\t// out\n        /* \"#utility.yul\":6829:6988   */\n    tag_516:\n        /* \"#utility.yul\":6903:6914   */\n      0x00\n        /* \"#utility.yul\":6937:6943   */\n      dup3\n        /* \"#utility.yul\":6932:6935   */\n      dup3\n        /* \"#utility.yul\":6925:6944   */\n      mstore\n        /* \"#utility.yul\":6977:6981   */\n      0x20\n        /* \"#utility.yul\":6972:6975   */\n      dup3\n        /* \"#utility.yul\":6968:6982   */\n      add\n        /* \"#utility.yul\":6953:6982   */\n      swap1\n      pop\n        /* \"#utility.yul\":6829:6988   */\n      swap3\n      swap2\n      pop\n      pop\n      jump\t// out\n        /* \"#utility.yul\":6994:7240   */\n    tag_517:\n        /* \"#utility.yul\":7075:7076   */\n      0x00\n        /* \"#utility.yul\":7085:7198   */\n    tag_674:\n        /* \"#utility.yul\":7099:7105   */\n      dup4\n        /* \"#utility.yul\":7096:7097   */\n      dup2\n        /* \"#utility.yul\":7093:7106   */\n      lt\n        /* \"#utility.yul\":7085:7198   */\n      iszero\n      tag_676\n      jumpi\n        /* \"#utility.yul\":7184:7185   */\n      dup1\n        /* \"#utility.yul\":7179:7182   */\n      dup3\n        /* \"#utility.yul\":7175:7186   */\n      add\n        /* \"#utility.yul\":7169:7187   */\n      mload\n        /* \"#utility.yul\":7165:7166   */\n      dup2\n        /* \"#utility.yul\":7160:7163   */\n      dup5\n        /* \"#utility.yul\":7156:7167   */\n      add\n        /* \"#utility.yul\":7149:7188   */\n      mstore\n        /* \"#utility.yul\":7121:7123   */\n      0x20\n        /* \"#utility.yul\":7118:7119   */\n      dup2\n        /* \"#utility.yul\":7114:7124   */\n      add\n        /* \"#utility.yul\":7109:7124   */\n      swap1\n      pop\n        /* \"#utility.yul\":7085:7198   */\n      jump(tag_674)\n    tag_676:\n        /* \"#utility.yul\":7232:7233   */\n      0x00\n        /* \"#utility.yul\":7223:7229   */\n      dup5\n        /* \"#utility.yul\":7218:7221   */\n      dup5\n        /* \"#utility.yul\":7214:7230   */\n      add\n        /* \"#utility.yul\":7207:7234   */\n      mstore\n        /* \"#utility.yul\":7056:7240   */\n      pop\n        /* \"#utility.yul\":6994:7240   */\n      pop\n      pop\n      pop\n      jump\t// out\n        /* \"#utility.yul\":7246:7348   */\n    tag_518:\n        /* \"#utility.yul\":7287:7293   */\n      0x00\n        /* \"#utility.yul\":7338:7340   */\n      0x1f\n        /* \"#utility.yul\":7334:7341   */\n      not\n        /* \"#utility.yul\":7329:7331   */\n      0x1f\n        /* \"#utility.yul\":7322:7327   */\n      dup4\n        /* \"#utility.yul\":7318:7332   */\n      add\n        /* \"#utility.yul\":7314:7342   */\n      and\n        /* \"#utility.yul\":7304:7342   */\n      swap1\n      pop\n        /* \"#utility.yul\":7246:7348   */\n      swap2\n      swap1\n      pop\n      jump\t// out\n        /* \"#utility.yul\":7354:7711   */\n    tag_519:\n        /* \"#utility.yul\":7432:7435   */\n      0x00\n        /* \"#utility.yul\":7460:7499   */\n      tag_679\n        /* \"#utility.yul\":7493:7498   */\n      dup3\n        /* \"#utility.yul\":7460:7499   */\n      tag_515\n      jump\t// in\n    tag_679:\n        /* \"#utility.yul\":7515:7576   */\n      tag_680\n        /* \"#utility.yul\":7569:7575   */\n      dup2\n        /* \"#utility.yul\":7564:7567   */\n      dup6\n        /* \"#utility.yul\":7515:7576   */\n      tag_516\n      jump\t// in\n    tag_680:\n        /* \"#utility.yul\":7508:7576   */\n      swap4\n      pop\n        /* \"#utility.yul\":7585:7650   */\n      tag_681\n        /* \"#utility.yul\":7643:7649   */\n      dup2\n        /* \"#utility.yul\":7638:7641   */\n      dup6\n        /* \"#utility.yul\":7631:7635   */\n      0x20\n        /* \"#utility.yul\":7624:7629   */\n      dup7\n        /* \"#utility.yul\":7620:7636   */\n      add\n        /* \"#utility.yul\":7585:7650   */\n      tag_517\n      jump\t// in\n    tag_681:\n        /* \"#utility.yul\":7675:7704   */\n      tag_682\n        /* \"#utility.yul\":7697:7703   */\n      dup2\n        /* \"#utility.yul\":7675:7704   */\n      tag_518\n      jump\t// in\n    tag_682:\n        /* \"#utility.yul\":7670:7673   */\n      dup5\n        /* \"#utility.yul\":7666:7705   */\n      add\n        /* \"#utility.yul\":7659:7705   */\n      swap2\n      pop\n        /* \"#utility.yul\":7436:7711   */\n      pop\n        /* \"#utility.yul\":7354:7711   */\n      swap3\n      swap2\n      pop\n      pop\n      jump\t// out\n        /* \"#utility.yul\":7791:9711   */\n    tag_520:\n        /* \"#utility.yul\":7918:7921   */\n      0x00\n        /* \"#utility.yul\":7954:7960   */\n      0x0120\n        /* \"#utility.yul\":7949:7952   */\n      dup4\n        /* \"#utility.yul\":7945:7961   */\n      add\n        /* \"#utility.yul\":8043:8047   */\n      0x00\n        /* \"#utility.yul\":8036:8041   */\n      dup4\n        /* \"#utility.yul\":8032:8048   */\n      add\n        /* \"#utility.yul\":8026:8049   */\n      mload\n        /* \"#utility.yul\":8096:8099   */\n      dup5\n        /* \"#utility.yul\":8090:8094   */\n      dup3\n        /* \"#utility.yul\":8086:8100   */\n      sub\n        /* \"#utility.yul\":8079:8083   */\n      0x00\n        /* \"#utility.yul\":8074:8077   */\n      dup7\n        /* \"#utility.yul\":8070:8084   */\n      add\n        /* \"#utility.yul\":8063:8101   */\n      mstore\n        /* \"#utility.yul\":8122:8195   */\n      tag_684\n        /* \"#utility.yul\":8190:8194   */\n      dup3\n        /* \"#utility.yul\":8176:8188   */\n      dup3\n        /* \"#utility.yul\":8122:8195   */\n      tag_519\n      jump\t// in\n    tag_684:\n        /* \"#utility.yul\":8114:8195   */\n      swap2\n      pop\n        /* \"#utility.yul\":7971:8206   */\n      pop\n        /* \"#utility.yul\":8288:8292   */\n      0x20\n        /* \"#utility.yul\":8281:8286   */\n      dup4\n        /* \"#utility.yul\":8277:8293   */\n      add\n        /* \"#utility.yul\":8271:8294   */\n      mload\n        /* \"#utility.yul\":8341:8344   */\n      dup5\n        /* \"#utility.yul\":8335:8339   */\n      dup3\n        /* \"#utility.yul\":8331:8345   */\n      sub\n        /* \"#utility.yul\":8324:8328   */\n      0x20\n        /* \"#utility.yul\":8319:8322   */\n      dup7\n        /* \"#utility.yul\":8315:8329   */\n      add\n        /* \"#utility.yul\":8308:8346   */\n      mstore\n        /* \"#utility.yul\":8367:8440   */\n      tag_685\n        /* \"#utility.yul\":8435:8439   */\n      dup3\n        /* \"#utility.yul\":8421:8433   */\n      dup3\n        /* \"#utility.yul\":8367:8440   */\n      tag_519\n      jump\t// in\n    tag_685:\n        /* \"#utility.yul\":8359:8440   */\n      swap2\n      pop\n        /* \"#utility.yul\":8216:8451   */\n      pop\n        /* \"#utility.yul\":8532:8536   */\n      0x40\n        /* \"#utility.yul\":8525:8530   */\n      dup4\n        /* \"#utility.yul\":8521:8537   */\n      add\n        /* \"#utility.yul\":8515:8538   */\n      mload\n        /* \"#utility.yul\":8551:8614   */\n      tag_686\n        /* \"#utility.yul\":8608:8612   */\n      0x40\n        /* \"#utility.yul\":8603:8606   */\n      dup7\n        /* \"#utility.yul\":8599:8613   */\n      add\n        /* \"#utility.yul\":8585:8597   */\n      dup3\n        /* \"#utility.yul\":8551:8614   */\n      tag_509\n      jump\t// in\n    tag_686:\n        /* \"#utility.yul\":8461:8624   */\n      pop\n        /* \"#utility.yul\":8707:8711   */\n      0x60\n        /* \"#utility.yul\":8700:8705   */\n      dup4\n        /* \"#utility.yul\":8696:8712   */\n      add\n        /* \"#utility.yul\":8690:8713   */\n      mload\n        /* \"#utility.yul\":8726:8789   */\n      tag_687\n        /* \"#utility.yul\":8783:8787   */\n      0x60\n        /* \"#utility.yul\":8778:8781   */\n      dup7\n        /* \"#utility.yul\":8774:8788   */\n      add\n        /* \"#utility.yul\":8760:8772   */\n      dup3\n        /* \"#utility.yul\":8726:8789   */\n      tag_509\n      jump\t// in\n    tag_687:\n        /* \"#utility.yul\":8634:8799   */\n      pop\n        /* \"#utility.yul\":8879:8883   */\n      0x80\n        /* \"#utility.yul\":8872:8877   */\n      dup4\n        /* \"#utility.yul\":8868:8884   */\n      add\n        /* \"#utility.yul\":8862:8885   */\n      mload\n        /* \"#utility.yul\":8898:8961   */\n      tag_688\n        /* \"#utility.yul\":8955:8959   */\n      0x80\n        /* \"#utility.yul\":8950:8953   */\n      dup7\n        /* \"#utility.yul\":8946:8960   */\n      add\n        /* \"#utility.yul\":8932:8944   */\n      dup3\n        /* \"#utility.yul\":8898:8961   */\n      tag_509\n      jump\t// in\n    tag_688:\n        /* \"#utility.yul\":8809:8971   */\n      pop\n        /* \"#utility.yul\":9059:9063   */\n      0xa0\n        /* \"#utility.yul\":9052:9057   */\n      dup4\n        /* \"#utility.yul\":9048:9064   */\n      add\n        /* \"#utility.yul\":9042:9065   */\n      mload\n        /* \"#utility.yul\":9078:9141   */\n      tag_689\n        /* \"#utility.yul\":9135:9139   */\n      0xa0\n        /* \"#utility.yul\":9130:9133   */\n      dup7\n        /* \"#utility.yul\":9126:9140   */\n      add\n        /* \"#utility.yul\":9112:9124   */\n      dup3\n        /* \"#utility.yul\":9078:9141   */\n      tag_509\n      jump\t// in\n    tag_689:\n        /* \"#utility.yul\":8981:9151   */\n      pop\n        /* \"#utility.yul\":9238:9242   */\n      0xc0\n        /* \"#utility.yul\":9231:9236   */\n      dup4\n        /* \"#utility.yul\":9227:9243   */\n      add\n        /* \"#utility.yul\":9221:9244   */\n      mload\n        /* \"#utility.yul\":9257:9320   */\n      tag_690\n        /* \"#utility.yul\":9314:9318   */\n      0xc0\n        /* \"#utility.yul\":9309:9312   */\n      dup7\n        /* \"#utility.yul\":9305:9319   */\n      add\n        /* \"#utility.yul\":9291:9303   */\n      dup3\n        /* \"#utility.yul\":9257:9320   */\n      tag_509\n      jump\t// in\n    tag_690:\n        /* \"#utility.yul\":9161:9330   */\n      pop\n        /* \"#utility.yul\":9412:9416   */\n      0xe0\n        /* \"#utility.yul\":9405:9410   */\n      dup4\n        /* \"#utility.yul\":9401:9417   */\n      add\n        /* \"#utility.yul\":9395:9418   */\n      mload\n        /* \"#utility.yul\":9431:9494   */\n      tag_691\n        /* \"#utility.yul\":9488:9492   */\n      0xe0\n        /* \"#utility.yul\":9483:9486   */\n      dup7\n        /* \"#utility.yul\":9479:9493   */\n      add\n        /* \"#utility.yul\":9465:9477   */\n      dup3\n        /* \"#utility.yul\":9431:9494   */\n      tag_509\n      jump\t// in\n    tag_691:\n        /* \"#utility.yul\":9340:9504   */\n      pop\n        /* \"#utility.yul\":9588:9594   */\n      0x0100\n        /* \"#utility.yul\":9581:9586   */\n      dup4\n        /* \"#utility.yul\":9577:9595   */\n      add\n        /* \"#utility.yul\":9571:9596   */\n      mload\n        /* \"#utility.yul\":9609:9674   */\n      tag_692\n        /* \"#utility.yul\":9666:9672   */\n      0x0100\n        /* \"#utility.yul\":9661:9664   */\n      dup7\n        /* \"#utility.yul\":9657:9673   */\n      add\n        /* \"#utility.yul\":9643:9655   */\n      dup3\n        /* \"#utility.yul\":9609:9674   */\n      tag_509\n      jump\t// in\n    tag_692:\n        /* \"#utility.yul\":9514:9684   */\n      pop\n        /* \"#utility.yul\":9701:9705   */\n      dup1\n        /* \"#utility.yul\":9694:9705   */\n      swap2\n      pop\n        /* \"#utility.yul\":7923:9711   */\n      pop\n        /* \"#utility.yul\":7791:9711   */\n      swap3\n      swap2\n      pop\n      pop\n      jump\t// out\n        /* \"#utility.yul\":9717:10106   */\n    tag_91:\n        /* \"#utility.yul\":9868:9872   */\n      0x00\n        /* \"#utility.yul\":9906:9908   */\n      0x20\n        /* \"#utility.yul\":9895:9904   */\n      dup3\n        /* \"#utility.yul\":9891:9909   */\n      add\n        /* \"#utility.yul\":9883:9909   */\n      swap1\n      pop\n        /* \"#utility.yul\":9955:9964   */\n      dup2\n        /* \"#utility.yul\":9949:9953   */\n      dup2\n        /* \"#utility.yul\":9945:9965   */\n      sub\n        /* \"#utility.yul\":9941:9942   */\n      0x00\n        /* \"#utility.yul\":9930:9939   */\n      dup4\n        /* \"#utility.yul\":9926:9943   */\n      add\n        /* \"#utility.yul\":9919:9966   */\n      mstore\n        /* \"#utility.yul\":9983:10099   */\n      tag_694\n        /* \"#utility.yul\":10094:10098   */\n      dup2\n        /* \"#utility.yul\":10085:10091   */\n      dup5\n        /* \"#utility.yul\":9983:10099   */\n      tag_520\n      jump\t// in\n    tag_694:\n        /* \"#utility.yul\":9975:10099   */\n      swap1\n      pop\n        /* \"#utility.yul\":9717:10106   */\n      swap3\n      swap2\n      pop\n      pop\n      jump\t// out\n        /* \"#utility.yul\":10112:10230   */\n    tag_521:\n        /* \"#utility.yul\":10199:10223   */\n      tag_696\n        /* \"#utility.yul\":10217:10222   */\n      dup2\n        /* \"#utility.yul\":10199:10223   */\n      tag_499\n      jump\t// in\n    tag_696:\n        /* \"#utility.yul\":10194:10197   */\n      dup3\n        /* \"#utility.yul\":10187:10224   */\n      mstore\n        /* \"#utility.yul\":10112:10230   */\n      pop\n      pop\n      jump\t// out\n        /* \"#utility.yul\":10236:10458   */\n    tag_106:\n        /* \"#utility.yul\":10329:10333   */\n      0x00\n        /* \"#utility.yul\":10367:10369   */\n      0x20\n        /* \"#utility.yul\":10356:10365   */\n      dup3\n        /* \"#utility.yul\":10352:10370   */\n      add\n        /* \"#utility.yul\":10344:10370   */\n      swap1\n      pop\n        /* \"#utility.yul\":10380:10451   */\n      tag_698\n        /* \"#utility.yul\":10448:10449   */\n      0x00\n        /* \"#utility.yul\":10437:10446   */\n      dup4\n        /* \"#utility.yul\":10433:10450   */\n      add\n        /* \"#utility.yul\":10424:10430   */\n      dup5\n        /* \"#utility.yul\":10380:10451   */\n      tag_521\n      jump\t// in\n    tag_698:\n        /* \"#utility.yul\":10236:10458   */\n      swap3\n      swap2\n      pop\n      pop\n      jump\t// out\n        /* \"#utility.yul\":10464:10581   */\n    tag_522:\n        /* \"#utility.yul\":10573:10574   */\n      0x00\n        /* \"#utility.yul\":10570:10571   */\n      dup1\n        /* \"#utility.yul\":10563:10575   */\n      revert\n        /* \"#utility.yul\":10587:10704   */\n    tag_523:\n        /* \"#utility.yul\":10696:10697   */\n      0x00\n        /* \"#utility.yul\":10693:10694   */\n      dup1\n        /* \"#utility.yul\":10686:10698   */\n      revert\n        /* \"#utility.yul\":10710:10890   */\n    tag_164:\n        /* \"#utility.yul\":10758:10835   */\n      0x4e487b7100000000000000000000000000000000000000000000000000000000\n        /* \"#utility.yul\":10755:10756   */\n      0x00\n        /* \"#utility.yul\":10748:10836   */\n      mstore\n        /* \"#utility.yul\":10855:10859   */\n      0x41\n        /* \"#utility.yul\":10852:10853   */\n      0x04\n        /* \"#utility.yul\":10845:10860   */\n      mstore\n        /* \"#utility.yul\":10879:10883   */\n      0x24\n        /* \"#utility.yul\":10876:10877   */\n      0x00\n        /* \"#utility.yul\":10869:10884   */\n      revert\n        /* \"#utility.yul\":10896:11177   */\n    tag_524:\n        /* \"#utility.yul\":10979:11006   */\n      tag_703\n        /* \"#utility.yul\":11001:11005   */\n      dup3\n        /* \"#utility.yul\":10979:11006   */\n      tag_518\n      jump\t// in\n    tag_703:\n        /* \"#utility.yul\":10971:10977   */\n      dup2\n        /* \"#utility.yul\":10967:11007   */\n      add\n        /* \"#utility.yul\":11109:11115   */\n      dup2\n        /* \"#utility.yul\":11097:11107   */\n      dup2\n        /* \"#utility.yul\":11094:11116   */\n      lt\n        /* \"#utility.yul\":11073:11091   */\n      0xffffffffffffffff\n        /* \"#utility.yul\":11061:11071   */\n      dup3\n        /* \"#utility.yul\":11058:11092   */\n      gt\n        /* \"#utility.yul\":11055:11117   */\n      or\n        /* \"#utility.yul\":11052:11140   */\n      iszero\n      tag_704\n      jumpi\n        /* \"#utility.yul\":11120:11138   */\n      tag_705\n      tag_164\n      jump\t// in\n    tag_705:\n        /* \"#utility.yul\":11052:11140   */\n    tag_704:\n        /* \"#utility.yul\":11160:11170   */\n      dup1\n        /* \"#utility.yul\":11156:11158   */\n      0x40\n        /* \"#utility.yul\":11149:11171   */\n      mstore\n        /* \"#utility.yul\":10939:11177   */\n      pop\n        /* \"#utility.yul\":10896:11177   */\n      pop\n      pop\n      jump\t// out\n        /* \"#utility.yul\":11183:11312   */\n    tag_525:\n        /* \"#utility.yul\":11217:11223   */\n      0x00\n        /* \"#utility.yul\":11244:11264   */\n      tag_707\n      tag_495\n      jump\t// in\n    tag_707:\n        /* \"#utility.yul\":11234:11264   */\n      swap1\n      pop\n        /* \"#utility.yul\":11273:11306   */\n      tag_708\n        /* \"#utility.yul\":11301:11305   */\n      dup3\n        /* \"#utility.yul\":11293:11299   */\n      dup3\n        /* \"#utility.yul\":11273:11306   */\n      tag_524\n      jump\t// in\n    tag_708:\n        /* \"#utility.yul\":11183:11312   */\n      swap2\n      swap1\n      pop\n      jump\t// out\n        /* \"#utility.yul\":11318:11626   */\n    tag_526:\n        /* \"#utility.yul\":11380:11384   */\n      0x00\n        /* \"#utility.yul\":11470:11488   */\n      0xffffffffffffffff\n        /* \"#utility.yul\":11462:11468   */\n      dup3\n        /* \"#utility.yul\":11459:11489   */\n      gt\n        /* \"#utility.yul\":11456:11512   */\n      iszero\n      tag_710\n      jumpi\n        /* \"#utility.yul\":11492:11510   */\n      tag_711\n      tag_164\n      jump\t// in\n    tag_711:\n        /* \"#utility.yul\":11456:11512   */\n    tag_710:\n        /* \"#utility.yul\":11530:11559   */\n      tag_712\n        /* \"#utility.yul\":11552:11558   */\n      dup3\n        /* \"#utility.yul\":11530:11559   */\n      tag_518\n      jump\t// in\n    tag_712:\n        /* \"#utility.yul\":11522:11559   */\n      swap1\n      pop\n        /* \"#utility.yul\":11614:11618   */\n      0x20\n        /* \"#utility.yul\":11608:11612   */\n      dup2\n        /* \"#utility.yul\":11604:11619   */\n      add\n        /* \"#utility.yul\":11596:11619   */\n      swap1\n      pop\n        /* \"#utility.yul\":11318:11626   */\n      swap2\n      swap1\n      pop\n      jump\t// out\n        /* \"#utility.yul\":11632:11778   */\n    tag_527:\n        /* \"#utility.yul\":11729:11735   */\n      dup3\n        /* \"#utility.yul\":11724:11727   */\n      dup2\n        /* \"#utility.yul\":11719:11722   */\n      dup4\n        /* \"#utility.yul\":11706:11736   */\n      calldatacopy\n        /* \"#utility.yul\":11770:11771   */\n      0x00\n        /* \"#utility.yul\":11761:11767   */\n      dup4\n        /* \"#utility.yul\":11756:11759   */\n      dup4\n        /* \"#utility.yul\":11752:11768   */\n      add\n        /* \"#utility.yul\":11745:11772   */\n      mstore\n        /* \"#utility.yul\":11632:11778   */\n      pop\n      pop\n      pop\n      jump\t// out\n        /* \"#utility.yul\":11784:12209   */\n    tag_528:\n        /* \"#utility.yul\":11862:11867   */\n      0x00\n        /* \"#utility.yul\":11887:11953   */\n      tag_715\n        /* \"#utility.yul\":11903:11952   */\n      tag_716\n        /* \"#utility.yul\":11945:11951   */\n      dup5\n        /* \"#utility.yul\":11903:11952   */\n      tag_526\n      jump\t// in\n    tag_716:\n        /* \"#utility.yul\":11887:11953   */\n      tag_525\n      jump\t// in\n    tag_715:\n        /* \"#utility.yul\":11878:11953   */\n      swap1\n      pop\n        /* \"#utility.yul\":11976:11982   */\n      dup3\n        /* \"#utility.yul\":11969:11974   */\n      dup2\n        /* \"#utility.yul\":11962:11983   */\n      mstore\n        /* \"#utility.yul\":12014:12018   */\n      0x20\n        /* \"#utility.yul\":12007:12012   */\n      dup2\n        /* \"#utility.yul\":12003:12019   */\n      add\n        /* \"#utility.yul\":12052:12055   */\n      dup5\n        /* \"#utility.yul\":12043:12049   */\n      dup5\n        /* \"#utility.yul\":12038:12041   */\n      dup5\n        /* \"#utility.yul\":12034:12050   */\n      add\n        /* \"#utility.yul\":12031:12056   */\n      gt\n        /* \"#utility.yul\":12028:12140   */\n      iszero\n      tag_717\n      jumpi\n        /* \"#utility.yul\":12059:12138   */\n      tag_718\n      tag_523\n      jump\t// in\n    tag_718:\n        /* \"#utility.yul\":12028:12140   */\n    tag_717:\n        /* \"#utility.yul\":12149:12203   */\n      tag_719\n        /* \"#utility.yul\":12196:12202   */\n      dup5\n        /* \"#utility.yul\":12191:12194   */\n      dup3\n        /* \"#utility.yul\":12186:12189   */\n      dup6\n        /* \"#utility.yul\":12149:12203   */\n      tag_527\n      jump\t// in\n    tag_719:\n        /* \"#utility.yul\":11868:12209   */\n      pop\n        /* \"#utility.yul\":11784:12209   */\n      swap4\n      swap3\n      pop\n      pop\n      pop\n      jump\t// out\n        /* \"#utility.yul\":12229:12569   */\n    tag_529:\n        /* \"#utility.yul\":12285:12290   */\n      0x00\n        /* \"#utility.yul\":12334:12337   */\n      dup3\n        /* \"#utility.yul\":12327:12331   */\n      0x1f\n        /* \"#utility.yul\":12319:12325   */\n      dup4\n        /* \"#utility.yul\":12315:12332   */\n      add\n        /* \"#utility.yul\":12311:12338   */\n      slt\n        /* \"#utility.yul\":12301:12423   */\n      tag_721\n      jumpi\n        /* \"#utility.yul\":12342:12421   */\n      tag_722\n      tag_522\n      jump\t// in\n    tag_722:\n        /* \"#utility.yul\":12301:12423   */\n    tag_721:\n        /* \"#utility.yul\":12459:12465   */\n      dup2\n        /* \"#utility.yul\":12446:12466   */\n      calldataload\n        /* \"#utility.yul\":12484:12563   */\n      tag_723\n        /* \"#utility.yul\":12559:12562   */\n      dup5\n        /* \"#utility.yul\":12551:12557   */\n      dup3\n        /* \"#utility.yul\":12544:12548   */\n      0x20\n        /* \"#utility.yul\":12536:12542   */\n      dup7\n        /* \"#utility.yul\":12532:12549   */\n      add\n        /* \"#utility.yul\":12484:12563   */\n      tag_528\n      jump\t// in\n    tag_723:\n        /* \"#utility.yul\":12475:12563   */\n      swap2\n      pop\n        /* \"#utility.yul\":12291:12569   */\n      pop\n        /* \"#utility.yul\":12229:12569   */\n      swap3\n      swap2\n      pop\n      pop\n      jump\t// out\n        /* \"#utility.yul\":12575:13409   */\n    tag_109:\n        /* \"#utility.yul\":12663:12669   */\n      0x00\n        /* \"#utility.yul\":12671:12677   */\n      dup1\n        /* \"#utility.yul\":12720:12722   */\n      0x40\n        /* \"#utility.yul\":12708:12717   */\n      dup4\n        /* \"#utility.yul\":12699:12706   */\n      dup6\n        /* \"#utility.yul\":12695:12718   */\n      sub\n        /* \"#utility.yul\":12691:12723   */\n      slt\n        /* \"#utility.yul\":12688:12807   */\n      iszero\n      tag_725\n      jumpi\n        /* \"#utility.yul\":12726:12805   */\n      tag_726\n      tag_496\n      jump\t// in\n    tag_726:\n        /* \"#utility.yul\":12688:12807   */\n    tag_725:\n        /* \"#utility.yul\":12874:12875   */\n      0x00\n        /* \"#utility.yul\":12863:12872   */\n      dup4\n        /* \"#utility.yul\":12859:12876   */\n      add\n        /* \"#utility.yul\":12846:12877   */\n      calldataload\n        /* \"#utility.yul\":12904:12922   */\n      0xffffffffffffffff\n        /* \"#utility.yul\":12896:12902   */\n      dup2\n        /* \"#utility.yul\":12893:12923   */\n      gt\n        /* \"#utility.yul\":12890:13007   */\n      iszero\n      tag_727\n      jumpi\n        /* \"#utility.yul\":12926:13005   */\n      tag_728\n      tag_497\n      jump\t// in\n    tag_728:\n        /* \"#utility.yul\":12890:13007   */\n    tag_727:\n        /* \"#utility.yul\":13031:13094   */\n      tag_729\n        /* \"#utility.yul\":13086:13093   */\n      dup6\n        /* \"#utility.yul\":13077:13083   */\n      dup3\n        /* \"#utility.yul\":13066:13075   */\n      dup7\n        /* \"#utility.yul\":13062:13084   */\n      add\n        /* \"#utility.yul\":13031:13094   */\n      tag_529\n      jump\t// in\n    tag_729:\n        /* \"#utility.yul\":13021:13094   */\n      swap3\n      pop\n        /* \"#utility.yul\":12817:13104   */\n      pop\n        /* \"#utility.yul\":13171:13173   */\n      0x20\n        /* \"#utility.yul\":13160:13169   */\n      dup4\n        /* \"#utility.yul\":13156:13174   */\n      add\n        /* \"#utility.yul\":13143:13175   */\n      calldataload\n        /* \"#utility.yul\":13202:13220   */\n      0xffffffffffffffff\n        /* \"#utility.yul\":13194:13200   */\n      dup2\n        /* \"#utility.yul\":13191:13221   */\n      gt\n        /* \"#utility.yul\":13188:13305   */\n      iszero\n      tag_730\n      jumpi\n        /* \"#utility.yul\":13224:13303   */\n      tag_731\n      tag_497\n      jump\t// in\n    tag_731:\n        /* \"#utility.yul\":13188:13305   */\n    tag_730:\n        /* \"#utility.yul\":13329:13392   */\n      tag_732\n        /* \"#utility.yul\":13384:13391   */\n      dup6\n        /* \"#utility.yul\":13375:13381   */\n      dup3\n        /* \"#utility.yul\":13364:13373   */\n      dup7\n        /* \"#utility.yul\":13360:13382   */\n      add\n        /* \"#utility.yul\":13329:13392   */\n      tag_529\n      jump\t// in\n    tag_732:\n        /* \"#utility.yul\":13319:13392   */\n      swap2\n      pop\n        /* \"#utility.yul\":13114:13402   */\n      pop\n        /* \"#utility.yul\":12575:13409   */\n      swap3\n      pop\n      swap3\n      swap1\n      pop\n      jump\t// out\n        /* \"#utility.yul\":13415:13584   */\n    tag_530:\n        /* \"#utility.yul\":13499:13510   */\n      0x00\n        /* \"#utility.yul\":13533:13539   */\n      dup3\n        /* \"#utility.yul\":13528:13531   */\n      dup3\n        /* \"#utility.yul\":13521:13540   */\n      mstore\n        /* \"#utility.yul\":13573:13577   */\n      0x20\n        /* \"#utility.yul\":13568:13571   */\n      dup3\n        /* \"#utility.yul\":13564:13578   */\n      add\n        /* \"#utility.yul\":13549:13578   */\n      swap1\n      pop\n        /* \"#utility.yul\":13415:13584   */\n      swap3\n      swap2\n      pop\n      pop\n      jump\t// out\n        /* \"#utility.yul\":13590:13751   */\n    tag_531:\n        /* \"#utility.yul\":13730:13743   */\n      0x4f6e6c79204f776e65722e000000000000000000000000000000000000000000\n        /* \"#utility.yul\":13726:13727   */\n      0x00\n        /* \"#utility.yul\":13718:13724   */\n      dup3\n        /* \"#utility.yul\":13714:13728   */\n      add\n        /* \"#utility.yul\":13707:13744   */\n      mstore\n        /* \"#utility.yul\":13590:13751   */\n      pop\n      jump\t// out\n        /* \"#utility.yul\":13757:14123   */\n    tag_532:\n        /* \"#utility.yul\":13899:13902   */\n      0x00\n        /* \"#utility.yul\":13920:13987   */\n      tag_736\n        /* \"#utility.yul\":13984:13986   */\n      0x0b\n        /* \"#utility.yul\":13979:13982   */\n      dup4\n        /* \"#utility.yul\":13920:13987   */\n      tag_530\n      jump\t// in\n    tag_736:\n        /* \"#utility.yul\":13913:13987   */\n      swap2\n      pop\n        /* \"#utility.yul\":13996:14089   */\n      tag_737\n        /* \"#utility.yul\":14085:14088   */\n      dup3\n        /* \"#utility.yul\":13996:14089   */\n      tag_531\n      jump\t// in\n    tag_737:\n        /* \"#utility.yul\":14114:14116   */\n      0x20\n        /* \"#utility.yul\":14109:14112   */\n      dup3\n        /* \"#utility.yul\":14105:14117   */\n      add\n        /* \"#utility.yul\":14098:14117   */\n      swap1\n      pop\n        /* \"#utility.yul\":13757:14123   */\n      swap2\n      swap1\n      pop\n      jump\t// out\n        /* \"#utility.yul\":14129:14548   */\n    tag_141:\n        /* \"#utility.yul\":14295:14299   */\n      0x00\n        /* \"#utility.yul\":14333:14335   */\n      0x20\n        /* \"#utility.yul\":14322:14331   */\n      dup3\n        /* \"#utility.yul\":14318:14336   */\n      add\n        /* \"#utility.yul\":14310:14336   */\n      swap1\n      pop\n        /* \"#utility.yul\":14382:14391   */\n      dup2\n        /* \"#utility.yul\":14376:14380   */\n      dup2\n        /* \"#utility.yul\":14372:14392   */\n      sub\n        /* \"#utility.yul\":14368:14369   */\n      0x00\n        /* \"#utility.yul\":14357:14366   */\n      dup4\n        /* \"#utility.yul\":14353:14370   */\n      add\n        /* \"#utility.yul\":14346:14393   */\n      mstore\n        /* \"#utility.yul\":14410:14541   */\n      tag_739\n        /* \"#utility.yul\":14536:14540   */\n      dup2\n        /* \"#utility.yul\":14410:14541   */\n      tag_532\n      jump\t// in\n    tag_739:\n        /* \"#utility.yul\":14402:14541   */\n      swap1\n      pop\n        /* \"#utility.yul\":14129:14548   */\n      swap2\n      swap1\n      pop\n      jump\t// out\n        /* \"#utility.yul\":14554:14734   */\n    tag_150:\n        /* \"#utility.yul\":14602:14679   */\n      0x4e487b7100000000000000000000000000000000000000000000000000000000\n        /* \"#utility.yul\":14599:14600   */\n      0x00\n        /* \"#utility.yul\":14592:14680   */\n      mstore\n        /* \"#utility.yul\":14699:14703   */\n      0x32\n        /* \"#utility.yul\":14696:14697   */\n      0x04\n        /* \"#utility.yul\":14689:14704   */\n      mstore\n        /* \"#utility.yul\":14723:14727   */\n      0x24\n        /* \"#utility.yul\":14720:14721   */\n      0x00\n        /* \"#utility.yul\":14713:14728   */\n      revert\n        /* \"#utility.yul\":14740:14920   */\n    tag_533:\n        /* \"#utility.yul\":14788:14865   */\n      0x4e487b7100000000000000000000000000000000000000000000000000000000\n        /* \"#utility.yul\":14785:14786   */\n      0x00\n        /* \"#utility.yul\":14778:14866   */\n      mstore\n        /* \"#utility.yul\":14885:14889   */\n      0x22\n        /* \"#utility.yul\":14882:14883   */\n      0x04\n        /* \"#utility.yul\":14875:14890   */\n      mstore\n        /* \"#utility.yul\":14909:14913   */\n      0x24\n        /* \"#utility.yul\":14906:14907   */\n      0x00\n        /* \"#utility.yul\":14899:14914   */\n      revert\n        /* \"#utility.yul\":14926:15246   */\n    tag_211:\n        /* \"#utility.yul\":14970:14976   */\n      0x00\n        /* \"#utility.yul\":15007:15008   */\n      0x02\n        /* \"#utility.yul\":15001:15005   */\n      dup3\n        /* \"#utility.yul\":14997:15009   */\n      div\n        /* \"#utility.yul\":14987:15009   */\n      swap1\n      pop\n        /* \"#utility.yul\":15054:15055   */\n      0x01\n        /* \"#utility.yul\":15048:15052   */\n      dup3\n        /* \"#utility.yul\":15044:15056   */\n      and\n        /* \"#utility.yul\":15075:15093   */\n      dup1\n        /* \"#utility.yul\":15065:15146   */\n      tag_743\n      jumpi\n        /* \"#utility.yul\":15131:15135   */\n      0x7f\n        /* \"#utility.yul\":15123:15129   */\n      dup3\n        /* \"#utility.yul\":15119:15136   */\n      and\n        /* \"#utility.yul\":15109:15136   */\n      swap2\n      pop\n        /* \"#utility.yul\":15065:15146   */\n    tag_743:\n        /* \"#utility.yul\":15193:15195   */\n      0x20\n        /* \"#utility.yul\":15185:15191   */\n      dup3\n        /* \"#utility.yul\":15182:15196   */\n      lt\n        /* \"#utility.yul\":15162:15180   */\n      dup2\n        /* \"#utility.yul\":15159:15197   */\n      sub\n        /* \"#utility.yul\":15156:15240   */\n      tag_744\n      jumpi\n        /* \"#utility.yul\":15212:15230   */\n      tag_745\n      tag_533\n      jump\t// in\n    tag_745:\n        /* \"#utility.yul\":15156:15240   */\n    tag_744:\n        /* \"#utility.yul\":14977:15246   */\n      pop\n        /* \"#utility.yul\":14926:15246   */\n      swap2\n      swap1\n      pop\n      jump\t// out\n        /* \"#utility.yul\":15252:15399   */\n    tag_534:\n        /* \"#utility.yul\":15353:15364   */\n      0x00\n        /* \"#utility.yul\":15390:15393   */\n      dup2\n        /* \"#utility.yul\":15375:15393   */\n      swap1\n      pop\n        /* \"#utility.yul\":15252:15399   */\n      swap3\n      swap2\n      pop\n      pop\n      jump\t// out\n        /* \"#utility.yul\":15405:15549   */\n    tag_535:\n        /* \"#utility.yul\":15457:15461   */\n      0x00\n        /* \"#utility.yul\":15480:15483   */\n      dup2\n        /* \"#utility.yul\":15472:15483   */\n      swap1\n      pop\n        /* \"#utility.yul\":15503:15506   */\n      dup2\n        /* \"#utility.yul\":15500:15501   */\n      0x00\n        /* \"#utility.yul\":15493:15507   */\n      mstore\n        /* \"#utility.yul\":15537:15541   */\n      0x20\n        /* \"#utility.yul\":15534:15535   */\n      0x00\n        /* \"#utility.yul\":15524:15542   */\n      keccak256\n        /* \"#utility.yul\":15516:15542   */\n      swap1\n      pop\n        /* \"#utility.yul\":15405:15549   */\n      swap2\n      swap1\n      pop\n      jump\t// out\n        /* \"#utility.yul\":15577:16455   */\n    tag_536:\n        /* \"#utility.yul\":15682:15685   */\n      0x00\n        /* \"#utility.yul\":15719:15724   */\n      dup2\n        /* \"#utility.yul\":15713:15725   */\n      sload\n        /* \"#utility.yul\":15748:15784   */\n      tag_749\n        /* \"#utility.yul\":15774:15783   */\n      dup2\n        /* \"#utility.yul\":15748:15784   */\n      tag_211\n      jump\t// in\n    tag_749:\n        /* \"#utility.yul\":15800:15888   */\n      tag_750\n        /* \"#utility.yul\":15881:15887   */\n      dup2\n        /* \"#utility.yul\":15876:15879   */\n      dup7\n        /* \"#utility.yul\":15800:15888   */\n      tag_534\n      jump\t// in\n    tag_750:\n        /* \"#utility.yul\":15793:15888   */\n      swap5\n      pop\n        /* \"#utility.yul\":15919:15920   */\n      0x01\n        /* \"#utility.yul\":15908:15917   */\n      dup3\n        /* \"#utility.yul\":15904:15921   */\n      and\n        /* \"#utility.yul\":15935:15936   */\n      0x00\n        /* \"#utility.yul\":15930:16096   */\n      dup2\n      eq\n      tag_752\n      jumpi\n        /* \"#utility.yul\":16110:16111   */\n      0x01\n        /* \"#utility.yul\":16105:16449   */\n      dup2\n      eq\n      tag_753\n      jumpi\n        /* \"#utility.yul\":15897:16449   */\n      jump(tag_751)\n        /* \"#utility.yul\":15930:16096   */\n    tag_752:\n        /* \"#utility.yul\":16014:16018   */\n      0xff\n        /* \"#utility.yul\":16010:16019   */\n      not\n        /* \"#utility.yul\":15999:16008   */\n      dup4\n        /* \"#utility.yul\":15995:16020   */\n      and\n        /* \"#utility.yul\":15990:15993   */\n      dup7\n        /* \"#utility.yul\":15983:16021   */\n      mstore\n        /* \"#utility.yul\":16076:16082   */\n      dup2\n        /* \"#utility.yul\":16069:16083   */\n      iszero\n        /* \"#utility.yul\":16062:16084   */\n      iszero\n        /* \"#utility.yul\":16054:16060   */\n      dup3\n        /* \"#utility.yul\":16050:16085   */\n      mul\n        /* \"#utility.yul\":16045:16048   */\n      dup7\n        /* \"#utility.yul\":16041:16086   */\n      add\n        /* \"#utility.yul\":16034:16086   */\n      swap4\n      pop\n        /* \"#utility.yul\":15930:16096   */\n      jump(tag_751)\n        /* \"#utility.yul\":16105:16449   */\n    tag_753:\n        /* \"#utility.yul\":16172:16213   */\n      tag_754\n        /* \"#utility.yul\":16207:16212   */\n      dup6\n        /* \"#utility.yul\":16172:16213   */\n      tag_535\n      jump\t// in\n    tag_754:\n        /* \"#utility.yul\":16235:16236   */\n      0x00\n        /* \"#utility.yul\":16249:16403   */\n    tag_755:\n        /* \"#utility.yul\":16263:16269   */\n      dup4\n        /* \"#utility.yul\":16260:16261   */\n      dup2\n        /* \"#utility.yul\":16257:16270   */\n      lt\n        /* \"#utility.yul\":16249:16403   */\n      iszero\n      tag_757\n      jumpi\n        /* \"#utility.yul\":16337:16344   */\n      dup2\n        /* \"#utility.yul\":16331:16345   */\n      sload\n        /* \"#utility.yul\":16327:16328   */\n      dup2\n        /* \"#utility.yul\":16322:16325   */\n      dup10\n        /* \"#utility.yul\":16318:16329   */\n      add\n        /* \"#utility.yul\":16311:16346   */\n      mstore\n        /* \"#utility.yul\":16387:16388   */\n      0x01\n        /* \"#utility.yul\":16378:16385   */\n      dup3\n        /* \"#utility.yul\":16374:16389   */\n      add\n        /* \"#utility.yul\":16363:16389   */\n      swap2\n      pop\n        /* \"#utility.yul\":16285:16289   */\n      0x20\n        /* \"#utility.yul\":16282:16283   */\n      dup2\n        /* \"#utility.yul\":16278:16290   */\n      add\n        /* \"#utility.yul\":16273:16290   */\n      swap1\n      pop\n        /* \"#utility.yul\":16249:16403   */\n      jump(tag_755)\n    tag_757:\n        /* \"#utility.yul\":16432:16438   */\n      dup4\n        /* \"#utility.yul\":16427:16430   */\n      dup9\n        /* \"#utility.yul\":16423:16439   */\n      add\n        /* \"#utility.yul\":16416:16439   */\n      swap6\n      pop\n        /* \"#utility.yul\":16112:16449   */\n      pop\n      pop\n        /* \"#utility.yul\":15897:16449   */\n    tag_751:\n      pop\n        /* \"#utility.yul\":15686:16455   */\n      pop\n      pop\n        /* \"#utility.yul\":15577:16455   */\n      swap3\n      swap2\n      pop\n      pop\n      jump\t// out\n        /* \"#utility.yul\":16461:16734   */\n    tag_153:\n        /* \"#utility.yul\":16592:16595   */\n      0x00\n        /* \"#utility.yul\":16614:16708   */\n      tag_759\n        /* \"#utility.yul\":16704:16707   */\n      dup3\n        /* \"#utility.yul\":16695:16701   */\n      dup5\n        /* \"#utility.yul\":16614:16708   */\n      tag_536\n      jump\t// in\n    tag_759:\n        /* \"#utility.yul\":16607:16708   */\n      swap2\n      pop\n        /* \"#utility.yul\":16725:16728   */\n      dup2\n        /* \"#utility.yul\":16718:16728   */\n      swap1\n      pop\n        /* \"#utility.yul\":16461:16734   */\n      swap3\n      swap2\n      pop\n      pop\n      jump\t// out\n        /* \"#utility.yul\":16740:16912   */\n    tag_537:\n        /* \"#utility.yul\":16880:16904   */\n      0x66726565206e66742063616e74206f6e2072656e742e00000000000000000000\n        /* \"#utility.yul\":16876:16877   */\n      0x00\n        /* \"#utility.yul\":16868:16874   */\n      dup3\n        /* \"#utility.yul\":16864:16878   */\n      add\n        /* \"#utility.yul\":16857:16905   */\n      mstore\n        /* \"#utility.yul\":16740:16912   */\n      pop\n      jump\t// out\n        /* \"#utility.yul\":16918:17284   */\n    tag_538:\n        /* \"#utility.yul\":17060:17063   */\n      0x00\n        /* \"#utility.yul\":17081:17148   */\n      tag_762\n        /* \"#utility.yul\":17145:17147   */\n      0x16\n        /* \"#utility.yul\":17140:17143   */\n      dup4\n        /* \"#utility.yul\":17081:17148   */\n      tag_530\n      jump\t// in\n    tag_762:\n        /* \"#utility.yul\":17074:17148   */\n      swap2\n      pop\n        /* \"#utility.yul\":17157:17250   */\n      tag_763\n        /* \"#utility.yul\":17246:17249   */\n      dup3\n        /* \"#utility.yul\":17157:17250   */\n      tag_537\n      jump\t// in\n    tag_763:\n        /* \"#utility.yul\":17275:17277   */\n      0x20\n        /* \"#utility.yul\":17270:17273   */\n      dup3\n        /* \"#utility.yul\":17266:17278   */\n      add\n        /* \"#utility.yul\":17259:17278   */\n      swap1\n      pop\n        /* \"#utility.yul\":16918:17284   */\n      swap2\n      swap1\n      pop\n      jump\t// out\n        /* \"#utility.yul\":17290:17709   */\n    tag_156:\n        /* \"#utility.yul\":17456:17460   */\n      0x00\n        /* \"#utility.yul\":17494:17496   */\n      0x20\n        /* \"#utility.yul\":17483:17492   */\n      dup3\n        /* \"#utility.yul\":17479:17497   */\n      add\n        /* \"#utility.yul\":17471:17497   */\n      swap1\n      pop\n        /* \"#utility.yul\":17543:17552   */\n      dup2\n        /* \"#utility.yul\":17537:17541   */\n      dup2\n        /* \"#utility.yul\":17533:17553   */\n      sub\n        /* \"#utility.yul\":17529:17530   */\n      0x00\n        /* \"#utility.yul\":17518:17527   */\n      dup4\n        /* \"#utility.yul\":17514:17531   */\n      add\n        /* \"#utility.yul\":17507:17554   */\n      mstore\n        /* \"#utility.yul\":17571:17702   */\n      tag_765\n        /* \"#utility.yul\":17697:17701   */\n      dup2\n        /* \"#utility.yul\":17571:17702   */\n      tag_538\n      jump\t// in\n    tag_765:\n        /* \"#utility.yul\":17563:17702   */\n      swap1\n      pop\n        /* \"#utility.yul\":17290:17709   */\n      swap2\n      swap1\n      pop\n      jump\t// out\n        /* \"#utility.yul\":17715:17895   */\n    tag_539:\n        /* \"#utility.yul\":17763:17840   */\n      0x4e487b7100000000000000000000000000000000000000000000000000000000\n        /* \"#utility.yul\":17760:17761   */\n      0x00\n        /* \"#utility.yul\":17753:17841   */\n      mstore\n        /* \"#utility.yul\":17860:17864   */\n      0x12\n        /* \"#utility.yul\":17857:17858   */\n      0x04\n        /* \"#utility.yul\":17850:17865   */\n      mstore\n        /* \"#utility.yul\":17884:17888   */\n      0x24\n        /* \"#utility.yul\":17881:17882   */\n      0x00\n        /* \"#utility.yul\":17874:17889   */\n      revert\n        /* \"#utility.yul\":17901:18077   */\n    tag_158:\n        /* \"#utility.yul\":17933:17934   */\n      0x00\n        /* \"#utility.yul\":17950:17970   */\n      tag_768\n        /* \"#utility.yul\":17968:17969   */\n      dup3\n        /* \"#utility.yul\":17950:17970   */\n      tag_502\n      jump\t// in\n    tag_768:\n        /* \"#utility.yul\":17945:17970   */\n      swap2\n      pop\n        /* \"#utility.yul\":17984:18004   */\n      tag_769\n        /* \"#utility.yul\":18002:18003   */\n      dup4\n        /* \"#utility.yul\":17984:18004   */\n      tag_502\n      jump\t// in\n    tag_769:\n        /* \"#utility.yul\":17979:18004   */\n      swap3\n      pop\n        /* \"#utility.yul\":18023:18024   */\n      dup3\n        /* \"#utility.yul\":18013:18048   */\n      tag_770\n      jumpi\n        /* \"#utility.yul\":18028:18046   */\n      tag_771\n      tag_539\n      jump\t// in\n    tag_771:\n        /* \"#utility.yul\":18013:18048   */\n    tag_770:\n        /* \"#utility.yul\":18069:18070   */\n      dup3\n        /* \"#utility.yul\":18066:18067   */\n      dup3\n        /* \"#utility.yul\":18062:18071   */\n      mod\n        /* \"#utility.yul\":18057:18071   */\n      swap1\n      pop\n        /* \"#utility.yul\":17901:18077   */\n      swap3\n      swap2\n      pop\n      pop\n      jump\t// out\n        /* \"#utility.yul\":18083:18263   */\n    tag_540:\n        /* \"#utility.yul\":18131:18208   */\n      0x4e487b7100000000000000000000000000000000000000000000000000000000\n        /* \"#utility.yul\":18128:18129   */\n      0x00\n        /* \"#utility.yul\":18121:18209   */\n      mstore\n        /* \"#utility.yul\":18228:18232   */\n      0x11\n        /* \"#utility.yul\":18225:18226   */\n      0x04\n        /* \"#utility.yul\":18218:18233   */\n      mstore\n        /* \"#utility.yul\":18252:18256   */\n      0x24\n        /* \"#utility.yul\":18249:18250   */\n      0x00\n        /* \"#utility.yul\":18242:18257   */\n      revert\n        /* \"#utility.yul\":18269:18460   */\n    tag_160:\n        /* \"#utility.yul\":18309:18312   */\n      0x00\n        /* \"#utility.yul\":18328:18348   */\n      tag_774\n        /* \"#utility.yul\":18346:18347   */\n      dup3\n        /* \"#utility.yul\":18328:18348   */\n      tag_502\n      jump\t// in\n    tag_774:\n        /* \"#utility.yul\":18323:18348   */\n      swap2\n      pop\n        /* \"#utility.yul\":18362:18382   */\n      tag_775\n        /* \"#utility.yul\":18380:18381   */\n      dup4\n        /* \"#utility.yul\":18362:18382   */\n      tag_502\n      jump\t// in\n    tag_775:\n        /* \"#utility.yul\":18357:18382   */\n      swap3\n      pop\n        /* \"#utility.yul\":18405:18406   */\n      dup3\n        /* \"#utility.yul\":18402:18403   */\n      dup3\n        /* \"#utility.yul\":18398:18407   */\n      add\n        /* \"#utility.yul\":18391:18407   */\n      swap1\n      pop\n        /* \"#utility.yul\":18426:18429   */\n      dup1\n        /* \"#utility.yul\":18423:18424   */\n      dup3\n        /* \"#utility.yul\":18420:18430   */\n      gt\n        /* \"#utility.yul\":18417:18453   */\n      iszero\n      tag_776\n      jumpi\n        /* \"#utility.yul\":18433:18451   */\n      tag_777\n      tag_540\n      jump\t// in\n    tag_777:\n        /* \"#utility.yul\":18417:18453   */\n    tag_776:\n        /* \"#utility.yul\":18269:18460   */\n      swap3\n      swap2\n      pop\n      pop\n      jump\t// out\n        /* \"#utility.yul\":18466:18699   */\n    tag_173:\n        /* \"#utility.yul\":18505:18508   */\n      0x00\n        /* \"#utility.yul\":18528:18552   */\n      tag_779\n        /* \"#utility.yul\":18546:18551   */\n      dup3\n        /* \"#utility.yul\":18528:18552   */\n      tag_502\n      jump\t// in\n    tag_779:\n        /* \"#utility.yul\":18519:18552   */\n      swap2\n      pop\n        /* \"#utility.yul\":18574:18640   */\n      0xffffffffffffffffffffffffffffffffffffffffffffffffffffffffffffffff\n        /* \"#utility.yul\":18567:18572   */\n      dup3\n        /* \"#utility.yul\":18564:18641   */\n      sub\n        /* \"#utility.yul\":18561:18664   */\n      tag_780\n      jumpi\n        /* \"#utility.yul\":18644:18662   */\n      tag_781\n      tag_540\n      jump\t// in\n    tag_781:\n        /* \"#utility.yul\":18561:18664   */\n    tag_780:\n        /* \"#utility.yul\":18691:18692   */\n      0x01\n        /* \"#utility.yul\":18684:18689   */\n      dup3\n        /* \"#utility.yul\":18680:18693   */\n      add\n        /* \"#utility.yul\":18673:18693   */\n      swap1\n      pop\n        /* \"#utility.yul\":18466:18699   */\n      swap2\n      swap1\n      pop\n      jump\t// out\n        /* \"#utility.yul\":18705:18873   */\n    tag_541:\n        /* \"#utility.yul\":18845:18865   */\n      0x66726565206e66742063616e2073656c6c2e0000000000000000000000000000\n        /* \"#utility.yul\":18841:18842   */\n      0x00\n        /* \"#utility.yul\":18833:18839   */\n      dup3\n        /* \"#utility.yul\":18829:18843   */\n      add\n        /* \"#utility.yul\":18822:18866   */\n      mstore\n        /* \"#utility.yul\":18705:18873   */\n      pop\n      jump\t// out\n        /* \"#utility.yul\":18879:19245   */\n    tag_542:\n        /* \"#utility.yul\":19021:19024   */\n      0x00\n        /* \"#utility.yul\":19042:19109   */\n      tag_784\n        /* \"#utility.yul\":19106:19108   */\n      0x12\n        /* \"#utility.yul\":19101:19104   */\n      dup4\n        /* \"#utility.yul\":19042:19109   */\n      tag_530\n      jump\t// in\n    tag_784:\n        /* \"#utility.yul\":19035:19109   */\n      swap2\n      pop\n        /* \"#utility.yul\":19118:19211   */\n      tag_785\n        /* \"#utility.yul\":19207:19210   */\n      dup3\n        /* \"#utility.yul\":19118:19211   */\n      tag_541\n      jump\t// in\n    tag_785:\n        /* \"#utility.yul\":19236:19238   */\n      0x20\n        /* \"#utility.yul\":19231:19234   */\n      dup3\n        /* \"#utility.yul\":19227:19239   */\n      add\n        /* \"#utility.yul\":19220:19239   */\n      swap1\n      pop\n        /* \"#utility.yul\":18879:19245   */\n      swap2\n      swap1\n      pop\n      jump\t// out\n        /* \"#utility.yul\":19251:19670   */\n    tag_185:\n        /* \"#utility.yul\":19417:19421   */\n      0x00\n        /* \"#utility.yul\":19455:19457   */\n      0x20\n        /* \"#utility.yul\":19444:19453   */\n      dup3\n        /* \"#utility.yul\":19440:19458   */\n      add\n        /* \"#utility.yul\":19432:19458   */\n      swap1\n      pop\n        /* \"#utility.yul\":19504:19513   */\n      dup2\n        /* \"#utility.yul\":19498:19502   */\n      dup2\n        /* \"#utility.yul\":19494:19514   */\n      sub\n        /* \"#utility.yul\":19490:19491   */\n      0x00\n        /* \"#utility.yul\":19479:19488   */\n      dup4\n        /* \"#utility.yul\":19475:19492   */\n      add\n        /* \"#utility.yul\":19468:19515   */\n      mstore\n        /* \"#utility.yul\":19532:19663   */\n      tag_787\n        /* \"#utility.yul\":19658:19662   */\n      dup2\n        /* \"#utility.yul\":19532:19663   */\n      tag_542\n      jump\t// in\n    tag_787:\n        /* \"#utility.yul\":19524:19663   */\n      swap1\n      pop\n        /* \"#utility.yul\":19251:19670   */\n      swap2\n      swap1\n      pop\n      jump\t// out\n        /* \"#utility.yul\":19676:19843   */\n    tag_543:\n        /* \"#utility.yul\":19816:19835   */\n      0x54686973206e6674206f6e2072656e742e000000000000000000000000000000\n        /* \"#utility.yul\":19812:19813   */\n      0x00\n        /* \"#utility.yul\":19804:19810   */\n      dup3\n        /* \"#utility.yul\":19800:19814   */\n      add\n        /* \"#utility.yul\":19793:19836   */\n      mstore\n        /* \"#utility.yul\":19676:19843   */\n      pop\n      jump\t// out\n        /* \"#utility.yul\":19849:20215   */\n    tag_544:\n        /* \"#utility.yul\":19991:19994   */\n      0x00\n        /* \"#utility.yul\":20012:20079   */\n      tag_790\n        /* \"#utility.yul\":20076:20078   */\n      0x11\n        /* \"#utility.yul\":20071:20074   */\n      dup4\n        /* \"#utility.yul\":20012:20079   */\n      tag_530\n      jump\t// in\n    tag_790:\n        /* \"#utility.yul\":20005:20079   */\n      swap2\n      pop\n        /* \"#utility.yul\":20088:20181   */\n      tag_791\n        /* \"#utility.yul\":20177:20180   */\n      dup3\n        /* \"#utility.yul\":20088:20181   */\n      tag_543\n      jump\t// in\n    tag_791:\n        /* \"#utility.yul\":20206:20208   */\n      0x20\n        /* \"#utility.yul\":20201:20204   */\n      dup3\n        /* \"#utility.yul\":20197:20209   */\n      add\n        /* \"#utility.yul\":20190:20209   */\n      swap1\n      pop\n        /* \"#utility.yul\":19849:20215   */\n      swap2\n      swap1\n      pop\n      jump\t// out\n        /* \"#utility.yul\":20221:20640   */\n    tag_188:\n        /* \"#utility.yul\":20387:20391   */\n      0x00\n        /* \"#utility.yul\":20425:20427   */\n      0x20\n        /* \"#utility.yul\":20414:20423   */\n      dup3\n        /* \"#utility.yul\":20410:20428   */\n      add\n        /* \"#utility.yul\":20402:20428   */\n      swap1\n      pop\n        /* \"#utility.yul\":20474:20483   */\n      dup2\n        /* \"#utility.yul\":20468:20472   */\n      dup2\n        /* \"#utility.yul\":20464:20484   */\n      sub\n        /* \"#utility.yul\":20460:20461   */\n      0x00\n        /* \"#utility.yul\":20449:20458   */\n      dup4\n        /* \"#utility.yul\":20445:20462   */\n      add\n        /* \"#utility.yul\":20438:20485   */\n      mstore\n        /* \"#utility.yul\":20502:20633   */\n      tag_793\n        /* \"#utility.yul\":20628:20632   */\n      dup2\n        /* \"#utility.yul\":20502:20633   */\n      tag_544\n      jump\t// in\n    tag_793:\n        /* \"#utility.yul\":20494:20633   */\n      swap1\n      pop\n        /* \"#utility.yul\":20221:20640   */\n      swap2\n      swap1\n      pop\n      jump\t// out\n        /* \"#utility.yul\":20646:20814   */\n    tag_545:\n        /* \"#utility.yul\":20786:20806   */\n      0x596f7520646f6e742068617665204e66742e0000000000000000000000000000\n        /* \"#utility.yul\":20782:20783   */\n      0x00\n        /* \"#utility.yul\":20774:20780   */\n      dup3\n        /* \"#utility.yul\":20770:20784   */\n      add\n        /* \"#utility.yul\":20763:20807   */\n      mstore\n        /* \"#utility.yul\":20646:20814   */\n      pop\n      jump\t// out\n        /* \"#utility.yul\":20820:21186   */\n    tag_546:\n        /* \"#utility.yul\":20962:20965   */\n      0x00\n        /* \"#utility.yul\":20983:21050   */\n      tag_796\n        /* \"#utility.yul\":21047:21049   */\n      0x12\n        /* \"#utility.yul\":21042:21045   */\n      dup4\n        /* \"#utility.yul\":20983:21050   */\n      tag_530\n      jump\t// in\n    tag_796:\n        /* \"#utility.yul\":20976:21050   */\n      swap2\n      pop\n        /* \"#utility.yul\":21059:21152   */\n      tag_797\n        /* \"#utility.yul\":21148:21151   */\n      dup3\n        /* \"#utility.yul\":21059:21152   */\n      tag_545\n      jump\t// in\n    tag_797:\n        /* \"#utility.yul\":21177:21179   */\n      0x20\n        /* \"#utility.yul\":21172:21175   */\n      dup3\n        /* \"#utility.yul\":21168:21180   */\n      add\n        /* \"#utility.yul\":21161:21180   */\n      swap1\n      pop\n        /* \"#utility.yul\":20820:21186   */\n      swap2\n      swap1\n      pop\n      jump\t// out\n        /* \"#utility.yul\":21192:21611   */\n    tag_192:\n        /* \"#utility.yul\":21358:21362   */\n      0x00\n        /* \"#utility.yul\":21396:21398   */\n      0x20\n        /* \"#utility.yul\":21385:21394   */\n      dup3\n        /* \"#utility.yul\":21381:21399   */\n      add\n        /* \"#utility.yul\":21373:21399   */\n      swap1\n      pop\n        /* \"#utility.yul\":21445:21454   */\n      dup2\n        /* \"#utility.yul\":21439:21443   */\n      dup2\n        /* \"#utility.yul\":21435:21455   */\n      sub\n        /* \"#utility.yul\":21431:21432   */\n      0x00\n        /* \"#utility.yul\":21420:21429   */\n      dup4\n        /* \"#utility.yul\":21416:21433   */\n      add\n        /* \"#utility.yul\":21409:21456   */\n      mstore\n        /* \"#utility.yul\":21473:21604   */\n      tag_799\n        /* \"#utility.yul\":21599:21603   */\n      dup2\n        /* \"#utility.yul\":21473:21604   */\n      tag_546\n      jump\t// in\n    tag_799:\n        /* \"#utility.yul\":21465:21604   */\n      swap1\n      pop\n        /* \"#utility.yul\":21192:21611   */\n      swap2\n      swap1\n      pop\n      jump\t// out\n        /* \"#utility.yul\":21617:21788   */\n    tag_194:\n        /* \"#utility.yul\":21656:21659   */\n      0x00\n        /* \"#utility.yul\":21679:21703   */\n      tag_801\n        /* \"#utility.yul\":21697:21702   */\n      dup3\n        /* \"#utility.yul\":21679:21703   */\n      tag_502\n      jump\t// in\n    tag_801:\n        /* \"#utility.yul\":21670:21703   */\n      swap2\n      pop\n        /* \"#utility.yul\":21725:21729   */\n      0x00\n        /* \"#utility.yul\":21718:21723   */\n      dup3\n        /* \"#utility.yul\":21715:21730   */\n      sub\n        /* \"#utility.yul\":21712:21753   */\n      tag_802\n      jumpi\n        /* \"#utility.yul\":21733:21751   */\n      tag_803\n      tag_540\n      jump\t// in\n    tag_803:\n        /* \"#utility.yul\":21712:21753   */\n    tag_802:\n        /* \"#utility.yul\":21780:21781   */\n      0x01\n        /* \"#utility.yul\":21773:21778   */\n      dup3\n        /* \"#utility.yul\":21769:21782   */\n      sub\n        /* \"#utility.yul\":21762:21782   */\n      swap1\n      pop\n        /* \"#utility.yul\":21617:21788   */\n      swap2\n      swap1\n      pop\n      jump\t// out\n        /* \"#utility.yul\":21794:21971   */\n    tag_547:\n        /* \"#utility.yul\":21934:21963   */\n      0x416c726561647920686176652031206f72206d6f7265206e66742e0000000000\n        /* \"#utility.yul\":21930:21931   */\n      0x00\n        /* \"#utility.yul\":21922:21928   */\n      dup3\n        /* \"#utility.yul\":21918:21932   */\n      add\n        /* \"#utility.yul\":21911:21964   */\n      mstore\n        /* \"#utility.yul\":21794:21971   */\n      pop\n      jump\t// out\n        /* \"#utility.yul\":21977:22343   */\n    tag_548:\n        /* \"#utility.yul\":22119:22122   */\n      0x00\n        /* \"#utility.yul\":22140:22207   */\n      tag_806\n        /* \"#utility.yul\":22204:22206   */\n      0x1b\n        /* \"#utility.yul\":22199:22202   */\n      dup4\n        /* \"#utility.yul\":22140:22207   */\n      tag_530\n      jump\t// in\n    tag_806:\n        /* \"#utility.yul\":22133:22207   */\n      swap2\n      pop\n        /* \"#utility.yul\":22216:22309   */\n      tag_807\n        /* \"#utility.yul\":22305:22308   */\n      dup3\n        /* \"#utility.yul\":22216:22309   */\n      tag_547\n      jump\t// in\n    tag_807:\n        /* \"#utility.yul\":22334:22336   */\n      0x20\n        /* \"#utility.yul\":22329:22332   */\n      dup3\n        /* \"#utility.yul\":22325:22337   */\n      add\n        /* \"#utility.yul\":22318:22337   */\n      swap1\n      pop\n        /* \"#utility.yul\":21977:22343   */\n      swap2\n      swap1\n      pop\n      jump\t// out\n        /* \"#utility.yul\":22349:22768   */\n    tag_199:\n        /* \"#utility.yul\":22515:22519   */\n      0x00\n        /* \"#utility.yul\":22553:22555   */\n      0x20\n        /* \"#utility.yul\":22542:22551   */\n      dup3\n        /* \"#utility.yul\":22538:22556   */\n      add\n        /* \"#utility.yul\":22530:22556   */\n      swap1\n      pop\n        /* \"#utility.yul\":22602:22611   */\n      dup2\n        /* \"#utility.yul\":22596:22600   */\n      dup2\n        /* \"#utility.yul\":22592:22612   */\n      sub\n        /* \"#utility.yul\":22588:22589   */\n      0x00\n        /* \"#utility.yul\":22577:22586   */\n      dup4\n        /* \"#utility.yul\":22573:22590   */\n      add\n        /* \"#utility.yul\":22566:22613   */\n      mstore\n        /* \"#utility.yul\":22630:22761   */\n      tag_809\n        /* \"#utility.yul\":22756:22760   */\n      dup2\n        /* \"#utility.yul\":22630:22761   */\n      tag_548\n      jump\t// in\n    tag_809:\n        /* \"#utility.yul\":22622:22761   */\n      swap1\n      pop\n        /* \"#utility.yul\":22349:22768   */\n      swap2\n      swap1\n      pop\n      jump\t// out\n        /* \"#utility.yul\":22774:22942   */\n    tag_549:\n        /* \"#utility.yul\":22914:22934   */\n      0x596f7520646f6e742068617665206e66742e0000000000000000000000000000\n        /* \"#utility.yul\":22910:22911   */\n      0x00\n        /* \"#utility.yul\":22902:22908   */\n      dup3\n        /* \"#utility.yul\":22898:22912   */\n      add\n        /* \"#utility.yul\":22891:22935   */\n      mstore\n        /* \"#utility.yul\":22774:22942   */\n      pop\n      jump\t// out\n        /* \"#utility.yul\":22948:23314   */\n    tag_550:\n        /* \"#utility.yul\":23090:23093   */\n      0x00\n        /* \"#utility.yul\":23111:23178   */\n      tag_812\n        /* \"#utility.yul\":23175:23177   */\n      0x12\n        /* \"#utility.yul\":23170:23173   */\n      dup4\n        /* \"#utility.yul\":23111:23178   */\n      tag_530\n      jump\t// in\n    tag_812:\n        /* \"#utility.yul\":23104:23178   */\n      swap2\n      pop\n        /* \"#utility.yul\":23187:23280   */\n      tag_813\n        /* \"#utility.yul\":23276:23279   */\n      dup3\n        /* \"#utility.yul\":23187:23280   */\n      tag_549\n      jump\t// in\n    tag_813:\n        /* \"#utility.yul\":23305:23307   */\n      0x20\n        /* \"#utility.yul\":23300:23303   */\n      dup3\n        /* \"#utility.yul\":23296:23308   */\n      add\n        /* \"#utility.yul\":23289:23308   */\n      swap1\n      pop\n        /* \"#utility.yul\":22948:23314   */\n      swap2\n      swap1\n      pop\n      jump\t// out\n        /* \"#utility.yul\":23320:23739   */\n    tag_245:\n        /* \"#utility.yul\":23486:23490   */\n      0x00\n        /* \"#utility.yul\":23524:23526   */\n      0x20\n        /* \"#utility.yul\":23513:23522   */\n      dup3\n        /* \"#utility.yul\":23509:23527   */\n      add\n        /* \"#utility.yul\":23501:23527   */\n      swap1\n      pop\n        /* \"#utility.yul\":23573:23582   */\n      dup2\n        /* \"#utility.yul\":23567:23571   */\n      dup2\n        /* \"#utility.yul\":23563:23583   */\n      sub\n        /* \"#utility.yul\":23559:23560   */\n      0x00\n        /* \"#utility.yul\":23548:23557   */\n      dup4\n        /* \"#utility.yul\":23544:23561   */\n      add\n        /* \"#utility.yul\":23537:23584   */\n      mstore\n        /* \"#utility.yul\":23601:23732   */\n      tag_815\n        /* \"#utility.yul\":23727:23731   */\n      dup2\n        /* \"#utility.yul\":23601:23732   */\n      tag_550\n      jump\t// in\n    tag_815:\n        /* \"#utility.yul\":23593:23732   */\n      swap1\n      pop\n        /* \"#utility.yul\":23320:23739   */\n      swap2\n      swap1\n      pop\n      jump\t// out\n        /* \"#utility.yul\":23745:23916   */\n    tag_551:\n        /* \"#utility.yul\":23885:23908   */\n      0x766c7565206d75737420626520312065746865722e0000000000000000000000\n        /* \"#utility.yul\":23881:23882   */\n      0x00\n        /* \"#utility.yul\":23873:23879   */\n      dup3\n        /* \"#utility.yul\":23869:23883   */\n      add\n        /* \"#utility.yul\":23862:23909   */\n      mstore\n        /* \"#utility.yul\":23745:23916   */\n      pop\n      jump\t// out\n        /* \"#utility.yul\":23922:24288   */\n    tag_552:\n        /* \"#utility.yul\":24064:24067   */\n      0x00\n        /* \"#utility.yul\":24085:24152   */\n      tag_818\n        /* \"#utility.yul\":24149:24151   */\n      0x15\n        /* \"#utility.yul\":24144:24147   */\n      dup4\n        /* \"#utility.yul\":24085:24152   */\n      tag_530\n      jump\t// in\n    tag_818:\n        /* \"#utility.yul\":24078:24152   */\n      swap2\n      pop\n        /* \"#utility.yul\":24161:24254   */\n      tag_819\n        /* \"#utility.yul\":24250:24253   */\n      dup3\n        /* \"#utility.yul\":24161:24254   */\n      tag_551\n      jump\t// in\n    tag_819:\n        /* \"#utility.yul\":24279:24281   */\n      0x20\n        /* \"#utility.yul\":24274:24277   */\n      dup3\n        /* \"#utility.yul\":24270:24282   */\n      add\n        /* \"#utility.yul\":24263:24282   */\n      swap1\n      pop\n        /* \"#utility.yul\":23922:24288   */\n      swap2\n      swap1\n      pop\n      jump\t// out\n        /* \"#utility.yul\":24294:24713   */\n    tag_250:\n        /* \"#utility.yul\":24460:24464   */\n      0x00\n        /* \"#utility.yul\":24498:24500   */\n      0x20\n        /* \"#utility.yul\":24487:24496   */\n      dup3\n        /* \"#utility.yul\":24483:24501   */\n      add\n        /* \"#utility.yul\":24475:24501   */\n      swap1\n      pop\n        /* \"#utility.yul\":24547:24556   */\n      dup2\n        /* \"#utility.yul\":24541:24545   */\n      dup2\n        /* \"#utility.yul\":24537:24557   */\n      sub\n        /* \"#utility.yul\":24533:24534   */\n      0x00\n        /* \"#utility.yul\":24522:24531   */\n      dup4\n        /* \"#utility.yul\":24518:24535   */\n      add\n        /* \"#utility.yul\":24511:24558   */\n      mstore\n        /* \"#utility.yul\":24575:24706   */\n      tag_821\n        /* \"#utility.yul\":24701:24705   */\n      dup2\n        /* \"#utility.yul\":24575:24706   */\n      tag_552\n      jump\t// in\n    tag_821:\n        /* \"#utility.yul\":24567:24706   */\n      swap1\n      pop\n        /* \"#utility.yul\":24294:24713   */\n      swap2\n      swap1\n      pop\n      jump\t// out\n        /* \"#utility.yul\":24719:24885   */\n    tag_553:\n        /* \"#utility.yul\":24859:24877   */\n      0x436f7272656374205370656c6c696e6700000000000000000000000000000000\n        /* \"#utility.yul\":24855:24856   */\n      0x00\n        /* \"#utility.yul\":24847:24853   */\n      dup3\n        /* \"#utility.yul\":24843:24857   */\n      add\n        /* \"#utility.yul\":24836:24878   */\n      mstore\n        /* \"#utility.yul\":24719:24885   */\n      pop\n      jump\t// out\n        /* \"#utility.yul\":24891:25257   */\n    tag_554:\n        /* \"#utility.yul\":25033:25036   */\n      0x00\n        /* \"#utility.yul\":25054:25121   */\n      tag_824\n        /* \"#utility.yul\":25118:25120   */\n      0x10\n        /* \"#utility.yul\":25113:25116   */\n      dup4\n        /* \"#utility.yul\":25054:25121   */\n      tag_530\n      jump\t// in\n    tag_824:\n        /* \"#utility.yul\":25047:25121   */\n      swap2\n      pop\n        /* \"#utility.yul\":25130:25223   */\n      tag_825\n        /* \"#utility.yul\":25219:25222   */\n      dup3\n        /* \"#utility.yul\":25130:25223   */\n      tag_553\n      jump\t// in\n    tag_825:\n        /* \"#utility.yul\":25248:25250   */\n      0x20\n        /* \"#utility.yul\":25243:25246   */\n      dup3\n        /* \"#utility.yul\":25239:25251   */\n      add\n        /* \"#utility.yul\":25232:25251   */\n      swap1\n      pop\n        /* \"#utility.yul\":24891:25257   */\n      swap2\n      swap1\n      pop\n      jump\t// out\n        /* \"#utility.yul\":25263:25682   */\n    tag_253:\n        /* \"#utility.yul\":25429:25433   */\n      0x00\n        /* \"#utility.yul\":25467:25469   */\n      0x20\n        /* \"#utility.yul\":25456:25465   */\n      dup3\n        /* \"#utility.yul\":25452:25470   */\n      add\n        /* \"#utility.yul\":25444:25470   */\n      swap1\n      pop\n        /* \"#utility.yul\":25516:25525   */\n      dup2\n        /* \"#utility.yul\":25510:25514   */\n      dup2\n        /* \"#utility.yul\":25506:25526   */\n      sub\n        /* \"#utility.yul\":25502:25503   */\n      0x00\n        /* \"#utility.yul\":25491:25500   */\n      dup4\n        /* \"#utility.yul\":25487:25504   */\n      add\n        /* \"#utility.yul\":25480:25527   */\n      mstore\n        /* \"#utility.yul\":25544:25675   */\n      tag_827\n        /* \"#utility.yul\":25670:25674   */\n      dup2\n        /* \"#utility.yul\":25544:25675   */\n      tag_554\n      jump\t// in\n    tag_827:\n        /* \"#utility.yul\":25536:25675   */\n      swap1\n      pop\n        /* \"#utility.yul\":25263:25682   */\n      swap2\n      swap1\n      pop\n      jump\t// out\n        /* \"#utility.yul\":25688:26098   */\n    tag_263:\n        /* \"#utility.yul\":25728:25735   */\n      0x00\n        /* \"#utility.yul\":25751:25771   */\n      tag_829\n        /* \"#utility.yul\":25769:25770   */\n      dup3\n        /* \"#utility.yul\":25751:25771   */\n      tag_502\n      jump\t// in\n    tag_829:\n        /* \"#utility.yul\":25746:25771   */\n      swap2\n      pop\n        /* \"#utility.yul\":25785:25805   */\n      tag_830\n        /* \"#utility.yul\":25803:25804   */\n      dup4\n        /* \"#utility.yul\":25785:25805   */\n      tag_502\n      jump\t// in\n    tag_830:\n        /* \"#utility.yul\":25780:25805   */\n      swap3\n      pop\n        /* \"#utility.yul\":25840:25841   */\n      dup3\n        /* \"#utility.yul\":25837:25838   */\n      dup3\n        /* \"#utility.yul\":25833:25842   */\n      mul\n        /* \"#utility.yul\":25862:25892   */\n      tag_831\n        /* \"#utility.yul\":25880:25891   */\n      dup2\n        /* \"#utility.yul\":25862:25892   */\n      tag_502\n      jump\t// in\n    tag_831:\n        /* \"#utility.yul\":25851:25892   */\n      swap2\n      pop\n        /* \"#utility.yul\":26041:26042   */\n      dup3\n        /* \"#utility.yul\":26032:26039   */\n      dup3\n        /* \"#utility.yul\":26028:26043   */\n      div\n        /* \"#utility.yul\":26025:26026   */\n      dup5\n        /* \"#utility.yul\":26022:26044   */\n      eq\n        /* \"#utility.yul\":26002:26003   */\n      dup4\n        /* \"#utility.yul\":25995:26004   */\n      iszero\n        /* \"#utility.yul\":25975:26058   */\n      or\n        /* \"#utility.yul\":25952:26091   */\n      tag_832\n      jumpi\n        /* \"#utility.yul\":26071:26089   */\n      tag_833\n      tag_540\n      jump\t// in\n    tag_833:\n        /* \"#utility.yul\":25952:26091   */\n    tag_832:\n        /* \"#utility.yul\":25736:26098   */\n      pop\n        /* \"#utility.yul\":25688:26098   */\n      swap3\n      swap2\n      pop\n      pop\n      jump\t// out\n        /* \"#utility.yul\":26104:26183   */\n    tag_555:\n        /* \"#utility.yul\":26143:26150   */\n      0x00\n        /* \"#utility.yul\":26172:26177   */\n      dup2\n        /* \"#utility.yul\":26161:26177   */\n      swap1\n      pop\n        /* \"#utility.yul\":26104:26183   */\n      swap2\n      swap1\n      pop\n      jump\t// out\n        /* \"#utility.yul\":26189:26346   */\n    tag_556:\n        /* \"#utility.yul\":26294:26339   */\n      tag_836\n        /* \"#utility.yul\":26314:26338   */\n      tag_837\n        /* \"#utility.yul\":26332:26337   */\n      dup3\n        /* \"#utility.yul\":26314:26338   */\n      tag_502\n      jump\t// in\n    tag_837:\n        /* \"#utility.yul\":26294:26339   */\n      tag_555\n      jump\t// in\n    tag_836:\n        /* \"#utility.yul\":26289:26292   */\n      dup3\n        /* \"#utility.yul\":26282:26340   */\n      mstore\n        /* \"#utility.yul\":26189:26346   */\n      pop\n      pop\n      jump\t// out\n        /* \"#utility.yul\":26352:26608   */\n    tag_267:\n        /* \"#utility.yul\":26464:26467   */\n      0x00\n        /* \"#utility.yul\":26479:26554   */\n      tag_839\n        /* \"#utility.yul\":26550:26553   */\n      dup3\n        /* \"#utility.yul\":26541:26547   */\n      dup5\n        /* \"#utility.yul\":26479:26554   */\n      tag_556\n      jump\t// in\n    tag_839:\n        /* \"#utility.yul\":26579:26581   */\n      0x20\n        /* \"#utility.yul\":26574:26577   */\n      dup3\n        /* \"#utility.yul\":26570:26582   */\n      add\n        /* \"#utility.yul\":26563:26582   */\n      swap2\n      pop\n        /* \"#utility.yul\":26599:26602   */\n      dup2\n        /* \"#utility.yul\":26592:26602   */\n      swap1\n      pop\n        /* \"#utility.yul\":26352:26608   */\n      swap3\n      swap2\n      pop\n      pop\n      jump\t// out\n        /* \"#utility.yul\":26614:26780   */\n    tag_557:\n        /* \"#utility.yul\":26754:26772   */\n      0x796f75206e656564206d6f726520787000000000000000000000000000000000\n        /* \"#utility.yul\":26750:26751   */\n      0x00\n        /* \"#utility.yul\":26742:26748   */\n      dup3\n        /* \"#utility.yul\":26738:26752   */\n      add\n        /* \"#utility.yul\":26731:26773   */\n      mstore\n        /* \"#utility.yul\":26614:26780   */\n      pop\n      jump\t// out\n        /* \"#utility.yul\":26786:27152   */\n    tag_558:\n        /* \"#utility.yul\":26928:26931   */\n      0x00\n        /* \"#utility.yul\":26949:27016   */\n      tag_842\n        /* \"#utility.yul\":27013:27015   */\n      0x10\n        /* \"#utility.yul\":27008:27011   */\n      dup4\n        /* \"#utility.yul\":26949:27016   */\n      tag_530\n      jump\t// in\n    tag_842:\n        /* \"#utility.yul\":26942:27016   */\n      swap2\n      pop\n        /* \"#utility.yul\":27025:27118   */\n      tag_843\n        /* \"#utility.yul\":27114:27117   */\n      dup3\n        /* \"#utility.yul\":27025:27118   */\n      tag_557\n      jump\t// in\n    tag_843:\n        /* \"#utility.yul\":27143:27145   */\n      0x20\n        /* \"#utility.yul\":27138:27141   */\n      dup3\n        /* \"#utility.yul\":27134:27146   */\n      add\n        /* \"#utility.yul\":27127:27146   */\n      swap1\n      pop\n        /* \"#utility.yul\":26786:27152   */\n      swap2\n      swap1\n      pop\n      jump\t// out\n        /* \"#utility.yul\":27158:27577   */\n    tag_289:\n        /* \"#utility.yul\":27324:27328   */\n      0x00\n        /* \"#utility.yul\":27362:27364   */\n      0x20\n        /* \"#utility.yul\":27351:27360   */\n      dup3\n        /* \"#utility.yul\":27347:27365   */\n      add\n        /* \"#utility.yul\":27339:27365   */\n      swap1\n      pop\n        /* \"#utility.yul\":27411:27420   */\n      dup2\n        /* \"#utility.yul\":27405:27409   */\n      dup2\n        /* \"#utility.yul\":27401:27421   */\n      sub\n        /* \"#utility.yul\":27397:27398   */\n      0x00\n        /* \"#utility.yul\":27386:27395   */\n      dup4\n        /* \"#utility.yul\":27382:27399   */\n      add\n        /* \"#utility.yul\":27375:27422   */\n      mstore\n        /* \"#utility.yul\":27439:27570   */\n      tag_845\n        /* \"#utility.yul\":27565:27569   */\n      dup2\n        /* \"#utility.yul\":27439:27570   */\n      tag_558\n      jump\t// in\n    tag_845:\n        /* \"#utility.yul\":27431:27570   */\n      swap1\n      pop\n        /* \"#utility.yul\":27158:27577   */\n      swap2\n      swap1\n      pop\n      jump\t// out\n        /* \"#utility.yul\":27583:27777   */\n    tag_294:\n        /* \"#utility.yul\":27623:27627   */\n      0x00\n        /* \"#utility.yul\":27643:27663   */\n      tag_847\n        /* \"#utility.yul\":27661:27662   */\n      dup3\n        /* \"#utility.yul\":27643:27663   */\n      tag_502\n      jump\t// in\n    tag_847:\n        /* \"#utility.yul\":27638:27663   */\n      swap2\n      pop\n        /* \"#utility.yul\":27677:27697   */\n      tag_848\n        /* \"#utility.yul\":27695:27696   */\n      dup4\n        /* \"#utility.yul\":27677:27697   */\n      tag_502\n      jump\t// in\n    tag_848:\n        /* \"#utility.yul\":27672:27697   */\n      swap3\n      pop\n        /* \"#utility.yul\":27721:27722   */\n      dup3\n        /* \"#utility.yul\":27718:27719   */\n      dup3\n        /* \"#utility.yul\":27714:27723   */\n      sub\n        /* \"#utility.yul\":27706:27723   */\n      swap1\n      pop\n        /* \"#utility.yul\":27745:27746   */\n      dup2\n        /* \"#utility.yul\":27739:27743   */\n      dup2\n        /* \"#utility.yul\":27736:27747   */\n      gt\n        /* \"#utility.yul\":27733:27770   */\n      iszero\n      tag_849\n      jumpi\n        /* \"#utility.yul\":27750:27768   */\n      tag_850\n      tag_540\n      jump\t// in\n    tag_850:\n        /* \"#utility.yul\":27733:27770   */\n    tag_849:\n        /* \"#utility.yul\":27583:27777   */\n      swap3\n      swap2\n      pop\n      pop\n      jump\t// out\n        /* \"#utility.yul\":27783:27945   */\n    tag_559:\n        /* \"#utility.yul\":27923:27937   */\n      0x6e6f7420696e2072656e742e0000000000000000000000000000000000000000\n        /* \"#utility.yul\":27919:27920   */\n      0x00\n        /* \"#utility.yul\":27911:27917   */\n      dup3\n        /* \"#utility.yul\":27907:27921   */\n      add\n        /* \"#utility.yul\":27900:27938   */\n      mstore\n        /* \"#utility.yul\":27783:27945   */\n      pop\n      jump\t// out\n        /* \"#utility.yul\":27951:28317   */\n    tag_560:\n        /* \"#utility.yul\":28093:28096   */\n      0x00\n        /* \"#utility.yul\":28114:28181   */\n      tag_853\n        /* \"#utility.yul\":28178:28180   */\n      0x0c\n        /* \"#utility.yul\":28173:28176   */\n      dup4\n        /* \"#utility.yul\":28114:28181   */\n      tag_530\n      jump\t// in\n    tag_853:\n        /* \"#utility.yul\":28107:28181   */\n      swap2\n      pop\n        /* \"#utility.yul\":28190:28283   */\n      tag_854\n        /* \"#utility.yul\":28279:28282   */\n      dup3\n        /* \"#utility.yul\":28190:28283   */\n      tag_559\n      jump\t// in\n    tag_854:\n        /* \"#utility.yul\":28308:28310   */\n      0x20\n        /* \"#utility.yul\":28303:28306   */\n      dup3\n        /* \"#utility.yul\":28299:28311   */\n      add\n        /* \"#utility.yul\":28292:28311   */\n      swap1\n      pop\n        /* \"#utility.yul\":27951:28317   */\n      swap2\n      swap1\n      pop\n      jump\t// out\n        /* \"#utility.yul\":28323:28742   */\n    tag_305:\n        /* \"#utility.yul\":28489:28493   */\n      0x00\n        /* \"#utility.yul\":28527:28529   */\n      0x20\n        /* \"#utility.yul\":28516:28525   */\n      dup3\n        /* \"#utility.yul\":28512:28530   */\n      add\n        /* \"#utility.yul\":28504:28530   */\n      swap1\n      pop\n        /* \"#utility.yul\":28576:28585   */\n      dup2\n        /* \"#utility.yul\":28570:28574   */\n      dup2\n        /* \"#utility.yul\":28566:28586   */\n      sub\n        /* \"#utility.yul\":28562:28563   */\n      0x00\n        /* \"#utility.yul\":28551:28560   */\n      dup4\n        /* \"#utility.yul\":28547:28564   */\n      add\n        /* \"#utility.yul\":28540:28587   */\n      mstore\n        /* \"#utility.yul\":28604:28735   */\n      tag_856\n        /* \"#utility.yul\":28730:28734   */\n      dup2\n        /* \"#utility.yul\":28604:28735   */\n      tag_560\n      jump\t// in\n    tag_856:\n        /* \"#utility.yul\":28596:28735   */\n      swap1\n      pop\n        /* \"#utility.yul\":28323:28742   */\n      swap2\n      swap1\n      pop\n      jump\t// out\n        /* \"#utility.yul\":28748:28911   */\n    tag_561:\n        /* \"#utility.yul\":28888:28903   */\n      0x74696d652072656d61696e732e00000000000000000000000000000000000000\n        /* \"#utility.yul\":28884:28885   */\n      0x00\n        /* \"#utility.yul\":28876:28882   */\n      dup3\n        /* \"#utility.yul\":28872:28886   */\n      add\n        /* \"#utility.yul\":28865:28904   */\n      mstore\n        /* \"#utility.yul\":28748:28911   */\n      pop\n      jump\t// out\n        /* \"#utility.yul\":28917:29283   */\n    tag_562:\n        /* \"#utility.yul\":29059:29062   */\n      0x00\n        /* \"#utility.yul\":29080:29147   */\n      tag_859\n        /* \"#utility.yul\":29144:29146   */\n      0x0d\n        /* \"#utility.yul\":29139:29142   */\n      dup4\n        /* \"#utility.yul\":29080:29147   */\n      tag_530\n      jump\t// in\n    tag_859:\n        /* \"#utility.yul\":29073:29147   */\n      swap2\n      pop\n        /* \"#utility.yul\":29156:29249   */\n      tag_860\n        /* \"#utility.yul\":29245:29248   */\n      dup3\n        /* \"#utility.yul\":29156:29249   */\n      tag_561\n      jump\t// in\n    tag_860:\n        /* \"#utility.yul\":29274:29276   */\n      0x20\n        /* \"#utility.yul\":29269:29272   */\n      dup3\n        /* \"#utility.yul\":29265:29277   */\n      add\n        /* \"#utility.yul\":29258:29277   */\n      swap1\n      pop\n        /* \"#utility.yul\":28917:29283   */\n      swap2\n      swap1\n      pop\n      jump\t// out\n        /* \"#utility.yul\":29289:29708   */\n    tag_308:\n        /* \"#utility.yul\":29455:29459   */\n      0x00\n        /* \"#utility.yul\":29493:29495   */\n      0x20\n        /* \"#utility.yul\":29482:29491   */\n      dup3\n        /* \"#utility.yul\":29478:29496   */\n      add\n        /* \"#utility.yul\":29470:29496   */\n      swap1\n      pop\n        /* \"#utility.yul\":29542:29551   */\n      dup2\n        /* \"#utility.yul\":29536:29540   */\n      dup2\n        /* \"#utility.yul\":29532:29552   */\n      sub\n        /* \"#utility.yul\":29528:29529   */\n      0x00\n        /* \"#utility.yul\":29517:29526   */\n      dup4\n        /* \"#utility.yul\":29513:29530   */\n      add\n        /* \"#utility.yul\":29506:29553   */\n      mstore\n        /* \"#utility.yul\":29570:29701   */\n      tag_862\n        /* \"#utility.yul\":29696:29700   */\n      dup2\n        /* \"#utility.yul\":29570:29701   */\n      tag_562\n      jump\t// in\n    tag_862:\n        /* \"#utility.yul\":29562:29701   */\n      swap1\n      pop\n        /* \"#utility.yul\":29289:29708   */\n      swap2\n      swap1\n      pop\n      jump\t// out\n        /* \"#utility.yul\":29714:29886   */\n    tag_563:\n        /* \"#utility.yul\":29854:29878   */\n      0x4e6f77206964206973206e6f74206f6e2072656e742e00000000000000000000\n        /* \"#utility.yul\":29850:29851   */\n      0x00\n        /* \"#utility.yul\":29842:29848   */\n      dup3\n        /* \"#utility.yul\":29838:29852   */\n      add\n        /* \"#utility.yul\":29831:29879   */\n      mstore\n        /* \"#utility.yul\":29714:29886   */\n      pop\n      jump\t// out\n        /* \"#utility.yul\":29892:30258   */\n    tag_564:\n        /* \"#utility.yul\":30034:30037   */\n      0x00\n        /* \"#utility.yul\":30055:30122   */\n      tag_865\n        /* \"#utility.yul\":30119:30121   */\n      0x16\n        /* \"#utility.yul\":30114:30117   */\n      dup4\n        /* \"#utility.yul\":30055:30122   */\n      tag_530\n      jump\t// in\n    tag_865:\n        /* \"#utility.yul\":30048:30122   */\n      swap2\n      pop\n        /* \"#utility.yul\":30131:30224   */\n      tag_866\n        /* \"#utility.yul\":30220:30223   */\n      dup3\n        /* \"#utility.yul\":30131:30224   */\n      tag_563\n      jump\t// in\n    tag_866:\n        /* \"#utility.yul\":30249:30251   */\n      0x20\n        /* \"#utility.yul\":30244:30247   */\n      dup3\n        /* \"#utility.yul\":30240:30252   */\n      add\n        /* \"#utility.yul\":30233:30252   */\n      swap1\n      pop\n        /* \"#utility.yul\":29892:30258   */\n      swap2\n      swap1\n      pop\n      jump\t// out\n        /* \"#utility.yul\":30264:30683   */\n    tag_312:\n        /* \"#utility.yul\":30430:30434   */\n      0x00\n        /* \"#utility.yul\":30468:30470   */\n      0x20\n        /* \"#utility.yul\":30457:30466   */\n      dup3\n        /* \"#utility.yul\":30453:30471   */\n      add\n        /* \"#utility.yul\":30445:30471   */\n      swap1\n      pop\n        /* \"#utility.yul\":30517:30526   */\n      dup2\n        /* \"#utility.yul\":30511:30515   */\n      dup2\n        /* \"#utility.yul\":30507:30527   */\n      sub\n        /* \"#utility.yul\":30503:30504   */\n      0x00\n        /* \"#utility.yul\":30492:30501   */\n      dup4\n        /* \"#utility.yul\":30488:30505   */\n      add\n        /* \"#utility.yul\":30481:30528   */\n      mstore\n        /* \"#utility.yul\":30545:30676   */\n      tag_868\n        /* \"#utility.yul\":30671:30675   */\n      dup2\n        /* \"#utility.yul\":30545:30676   */\n      tag_564\n      jump\t// in\n    tag_868:\n        /* \"#utility.yul\":30537:30676   */\n      swap1\n      pop\n        /* \"#utility.yul\":30264:30683   */\n      swap2\n      swap1\n      pop\n      jump\t// out\n        /* \"#utility.yul\":30689:30871   */\n    tag_565:\n        /* \"#utility.yul\":30829:30863   */\n      0x616d6f756e74206e6f74206d617463682065746865722072657175697265642e\n        /* \"#utility.yul\":30825:30826   */\n      0x00\n        /* \"#utility.yul\":30817:30823   */\n      dup3\n        /* \"#utility.yul\":30813:30827   */\n      add\n        /* \"#utility.yul\":30806:30864   */\n      mstore\n        /* \"#utility.yul\":30689:30871   */\n      pop\n      jump\t// out\n        /* \"#utility.yul\":30877:31243   */\n    tag_566:\n        /* \"#utility.yul\":31019:31022   */\n      0x00\n        /* \"#utility.yul\":31040:31107   */\n      tag_871\n        /* \"#utility.yul\":31104:31106   */\n      0x20\n        /* \"#utility.yul\":31099:31102   */\n      dup4\n        /* \"#utility.yul\":31040:31107   */\n      tag_530\n      jump\t// in\n    tag_871:\n        /* \"#utility.yul\":31033:31107   */\n      swap2\n      pop\n        /* \"#utility.yul\":31116:31209   */\n      tag_872\n        /* \"#utility.yul\":31205:31208   */\n      dup3\n        /* \"#utility.yul\":31116:31209   */\n      tag_565\n      jump\t// in\n    tag_872:\n        /* \"#utility.yul\":31234:31236   */\n      0x20\n        /* \"#utility.yul\":31229:31232   */\n      dup3\n        /* \"#utility.yul\":31225:31237   */\n      add\n        /* \"#utility.yul\":31218:31237   */\n      swap1\n      pop\n        /* \"#utility.yul\":30877:31243   */\n      swap2\n      swap1\n      pop\n      jump\t// out\n        /* \"#utility.yul\":31249:31668   */\n    tag_315:\n        /* \"#utility.yul\":31415:31419   */\n      0x00\n        /* \"#utility.yul\":31453:31455   */\n      0x20\n        /* \"#utility.yul\":31442:31451   */\n      dup3\n        /* \"#utility.yul\":31438:31456   */\n      add\n        /* \"#utility.yul\":31430:31456   */\n      swap1\n      pop\n        /* \"#utility.yul\":31502:31511   */\n      dup2\n        /* \"#utility.yul\":31496:31500   */\n      dup2\n        /* \"#utility.yul\":31492:31512   */\n      sub\n        /* \"#utility.yul\":31488:31489   */\n      0x00\n        /* \"#utility.yul\":31477:31486   */\n      dup4\n        /* \"#utility.yul\":31473:31490   */\n      add\n        /* \"#utility.yul\":31466:31513   */\n      mstore\n        /* \"#utility.yul\":31530:31661   */\n      tag_874\n        /* \"#utility.yul\":31656:31660   */\n      dup2\n        /* \"#utility.yul\":31530:31661   */\n      tag_566\n      jump\t// in\n    tag_874:\n        /* \"#utility.yul\":31522:31661   */\n      swap1\n      pop\n        /* \"#utility.yul\":31249:31668   */\n      swap2\n      swap1\n      pop\n      jump\t// out\n        /* \"#utility.yul\":31674:31842   */\n    tag_567:\n        /* \"#utility.yul\":31814:31834   */\n      0x616c72656164792074616b656e204e66742e0000000000000000000000000000\n        /* \"#utility.yul\":31810:31811   */\n      0x00\n        /* \"#utility.yul\":31802:31808   */\n      dup3\n        /* \"#utility.yul\":31798:31812   */\n      add\n        /* \"#utility.yul\":31791:31835   */\n      mstore\n        /* \"#utility.yul\":31674:31842   */\n      pop\n      jump\t// out\n        /* \"#utility.yul\":31848:32214   */\n    tag_568:\n        /* \"#utility.yul\":31990:31993   */\n      0x00\n        /* \"#utility.yul\":32011:32078   */\n      tag_877\n        /* \"#utility.yul\":32075:32077   */\n      0x12\n        /* \"#utility.yul\":32070:32073   */\n      dup4\n        /* \"#utility.yul\":32011:32078   */\n      tag_530\n      jump\t// in\n    tag_877:\n        /* \"#utility.yul\":32004:32078   */\n      swap2\n      pop\n        /* \"#utility.yul\":32087:32180   */\n      tag_878\n        /* \"#utility.yul\":32176:32179   */\n      dup3\n        /* \"#utility.yul\":32087:32180   */\n      tag_567\n      jump\t// in\n    tag_878:\n        /* \"#utility.yul\":32205:32207   */\n      0x20\n        /* \"#utility.yul\":32200:32203   */\n      dup3\n        /* \"#utility.yul\":32196:32208   */\n      add\n        /* \"#utility.yul\":32189:32208   */\n      swap1\n      pop\n        /* \"#utility.yul\":31848:32214   */\n      swap2\n      swap1\n      pop\n      jump\t// out\n        /* \"#utility.yul\":32220:32639   */\n    tag_319:\n        /* \"#utility.yul\":32386:32390   */\n      0x00\n        /* \"#utility.yul\":32424:32426   */\n      0x20\n        /* \"#utility.yul\":32413:32422   */\n      dup3\n        /* \"#utility.yul\":32409:32427   */\n      add\n        /* \"#utility.yul\":32401:32427   */\n      swap1\n      pop\n        /* \"#utility.yul\":32473:32482   */\n      dup2\n        /* \"#utility.yul\":32467:32471   */\n      dup2\n        /* \"#utility.yul\":32463:32483   */\n      sub\n        /* \"#utility.yul\":32459:32460   */\n      0x00\n        /* \"#utility.yul\":32448:32457   */\n      dup4\n        /* \"#utility.yul\":32444:32461   */\n      add\n        /* \"#utility.yul\":32437:32484   */\n      mstore\n        /* \"#utility.yul\":32501:32632   */\n      tag_880\n        /* \"#utility.yul\":32627:32631   */\n      dup2\n        /* \"#utility.yul\":32501:32632   */\n      tag_568\n      jump\t// in\n    tag_880:\n        /* \"#utility.yul\":32493:32632   */\n      swap1\n      pop\n        /* \"#utility.yul\":32220:32639   */\n      swap2\n      swap1\n      pop\n      jump\t// out\n        /* \"#utility.yul\":32645:32822   */\n    tag_569:\n        /* \"#utility.yul\":32785:32814   */\n      0x6f776e65722063616e742074616b6520686973206f776e2069642e0000000000\n        /* \"#utility.yul\":32781:32782   */\n      0x00\n        /* \"#utility.yul\":32773:32779   */\n      dup3\n        /* \"#utility.yul\":32769:32783   */\n      add\n        /* \"#utility.yul\":32762:32815   */\n      mstore\n        /* \"#utility.yul\":32645:32822   */\n      pop\n      jump\t// out\n        /* \"#utility.yul\":32828:33194   */\n    tag_570:\n        /* \"#utility.yul\":32970:32973   */\n      0x00\n        /* \"#utility.yul\":32991:33058   */\n      tag_883\n        /* \"#utility.yul\":33055:33057   */\n      0x1b\n        /* \"#utility.yul\":33050:33053   */\n      dup4\n        /* \"#utility.yul\":32991:33058   */\n      tag_530\n      jump\t// in\n    tag_883:\n        /* \"#utility.yul\":32984:33058   */\n      swap2\n      pop\n        /* \"#utility.yul\":33067:33160   */\n      tag_884\n        /* \"#utility.yul\":33156:33159   */\n      dup3\n        /* \"#utility.yul\":33067:33160   */\n      tag_569\n      jump\t// in\n    tag_884:\n        /* \"#utility.yul\":33185:33187   */\n      0x20\n        /* \"#utility.yul\":33180:33183   */\n      dup3\n        /* \"#utility.yul\":33176:33188   */\n      add\n        /* \"#utility.yul\":33169:33188   */\n      swap1\n      pop\n        /* \"#utility.yul\":32828:33194   */\n      swap2\n      swap1\n      pop\n      jump\t// out\n        /* \"#utility.yul\":33200:33619   */\n    tag_322:\n        /* \"#utility.yul\":33366:33370   */\n      0x00\n        /* \"#utility.yul\":33404:33406   */\n      0x20\n        /* \"#utility.yul\":33393:33402   */\n      dup3\n        /* \"#utility.yul\":33389:33407   */\n      add\n        /* \"#utility.yul\":33381:33407   */\n      swap1\n      pop\n        /* \"#utility.yul\":33453:33462   */\n      dup2\n        /* \"#utility.yul\":33447:33451   */\n      dup2\n        /* \"#utility.yul\":33443:33463   */\n      sub\n        /* \"#utility.yul\":33439:33440   */\n      0x00\n        /* \"#utility.yul\":33428:33437   */\n      dup4\n        /* \"#utility.yul\":33424:33441   */\n      add\n        /* \"#utility.yul\":33417:33464   */\n      mstore\n        /* \"#utility.yul\":33481:33612   */\n      tag_886\n        /* \"#utility.yul\":33607:33611   */\n      dup2\n        /* \"#utility.yul\":33481:33612   */\n      tag_570\n      jump\t// in\n    tag_886:\n        /* \"#utility.yul\":33473:33612   */\n      swap1\n      pop\n        /* \"#utility.yul\":33200:33619   */\n      swap2\n      swap1\n      pop\n      jump\t// out\n        /* \"#utility.yul\":33625:33790   */\n    tag_571:\n        /* \"#utility.yul\":33765:33782   */\n      0x6e6674206e6f74206c69737465642e0000000000000000000000000000000000\n        /* \"#utility.yul\":33761:33762   */\n      0x00\n        /* \"#utility.yul\":33753:33759   */\n      dup3\n        /* \"#utility.yul\":33749:33763   */\n      add\n        /* \"#utility.yul\":33742:33783   */\n      mstore\n        /* \"#utility.yul\":33625:33790   */\n      pop\n      jump\t// out\n        /* \"#utility.yul\":33796:34162   */\n    tag_572:\n        /* \"#utility.yul\":33938:33941   */\n      0x00\n        /* \"#utility.yul\":33959:34026   */\n      tag_889\n        /* \"#utility.yul\":34023:34025   */\n      0x0f\n        /* \"#utility.yul\":34018:34021   */\n      dup4\n        /* \"#utility.yul\":33959:34026   */\n      tag_530\n      jump\t// in\n    tag_889:\n        /* \"#utility.yul\":33952:34026   */\n      swap2\n      pop\n        /* \"#utility.yul\":34035:34128   */\n      tag_890\n        /* \"#utility.yul\":34124:34127   */\n      dup3\n        /* \"#utility.yul\":34035:34128   */\n      tag_571\n      jump\t// in\n    tag_890:\n        /* \"#utility.yul\":34153:34155   */\n      0x20\n        /* \"#utility.yul\":34148:34151   */\n      dup3\n        /* \"#utility.yul\":34144:34156   */\n      add\n        /* \"#utility.yul\":34137:34156   */\n      swap1\n      pop\n        /* \"#utility.yul\":33796:34162   */\n      swap2\n      swap1\n      pop\n      jump\t// out\n        /* \"#utility.yul\":34168:34587   */\n    tag_325:\n        /* \"#utility.yul\":34334:34338   */\n      0x00\n        /* \"#utility.yul\":34372:34374   */\n      0x20\n        /* \"#utility.yul\":34361:34370   */\n      dup3\n        /* \"#utility.yul\":34357:34375   */\n      add\n        /* \"#utility.yul\":34349:34375   */\n      swap1\n      pop\n        /* \"#utility.yul\":34421:34430   */\n      dup2\n        /* \"#utility.yul\":34415:34419   */\n      dup2\n        /* \"#utility.yul\":34411:34431   */\n      sub\n        /* \"#utility.yul\":34407:34408   */\n      0x00\n        /* \"#utility.yul\":34396:34405   */\n      dup4\n        /* \"#utility.yul\":34392:34409   */\n      add\n        /* \"#utility.yul\":34385:34432   */\n      mstore\n        /* \"#utility.yul\":34449:34580   */\n      tag_892\n        /* \"#utility.yul\":34575:34579   */\n      dup2\n        /* \"#utility.yul\":34449:34580   */\n      tag_572\n      jump\t// in\n    tag_892:\n        /* \"#utility.yul\":34441:34580   */\n      swap1\n      pop\n        /* \"#utility.yul\":34168:34587   */\n      swap2\n      swap1\n      pop\n      jump\t// out\n        /* \"#utility.yul\":34593:34815   */\n    tag_573:\n        /* \"#utility.yul\":34733:34767   */\n      0x596f752068617665206368616e636573206f7220416c7265616479206d696e69\n        /* \"#utility.yul\":34729:34730   */\n      0x00\n        /* \"#utility.yul\":34721:34727   */\n      dup3\n        /* \"#utility.yul\":34717:34731   */\n      add\n        /* \"#utility.yul\":34710:34768   */\n      mstore\n        /* \"#utility.yul\":34802:34807   */\n      0x6e672e0000000000000000000000000000000000000000000000000000000000\n        /* \"#utility.yul\":34797:34799   */\n      0x20\n        /* \"#utility.yul\":34789:34795   */\n      dup3\n        /* \"#utility.yul\":34785:34800   */\n      add\n        /* \"#utility.yul\":34778:34808   */\n      mstore\n        /* \"#utility.yul\":34593:34815   */\n      pop\n      jump\t// out\n        /* \"#utility.yul\":34821:35187   */\n    tag_574:\n        /* \"#utility.yul\":34963:34966   */\n      0x00\n        /* \"#utility.yul\":34984:35051   */\n      tag_895\n        /* \"#utility.yul\":35048:35050   */\n      0x23\n        /* \"#utility.yul\":35043:35046   */\n      dup4\n        /* \"#utility.yul\":34984:35051   */\n      tag_530\n      jump\t// in\n    tag_895:\n        /* \"#utility.yul\":34977:35051   */\n      swap2\n      pop\n        /* \"#utility.yul\":35060:35153   */\n      tag_896\n        /* \"#utility.yul\":35149:35152   */\n      dup3\n        /* \"#utility.yul\":35060:35153   */\n      tag_573\n      jump\t// in\n    tag_896:\n        /* \"#utility.yul\":35178:35180   */\n      0x40\n        /* \"#utility.yul\":35173:35176   */\n      dup3\n        /* \"#utility.yul\":35169:35181   */\n      add\n        /* \"#utility.yul\":35162:35181   */\n      swap1\n      pop\n        /* \"#utility.yul\":34821:35187   */\n      swap2\n      swap1\n      pop\n      jump\t// out\n        /* \"#utility.yul\":35193:35612   */\n    tag_338:\n        /* \"#utility.yul\":35359:35363   */\n      0x00\n        /* \"#utility.yul\":35397:35399   */\n      0x20\n        /* \"#utility.yul\":35386:35395   */\n      dup3\n        /* \"#utility.yul\":35382:35400   */\n      add\n        /* \"#utility.yul\":35374:35400   */\n      swap1\n      pop\n        /* \"#utility.yul\":35446:35455   */\n      dup2\n        /* \"#utility.yul\":35440:35444   */\n      dup2\n        /* \"#utility.yul\":35436:35456   */\n      sub\n        /* \"#utility.yul\":35432:35433   */\n      0x00\n        /* \"#utility.yul\":35421:35430   */\n      dup4\n        /* \"#utility.yul\":35417:35434   */\n      add\n        /* \"#utility.yul\":35410:35457   */\n      mstore\n        /* \"#utility.yul\":35474:35605   */\n      tag_898\n        /* \"#utility.yul\":35600:35604   */\n      dup2\n        /* \"#utility.yul\":35474:35605   */\n      tag_574\n      jump\t// in\n    tag_898:\n        /* \"#utility.yul\":35466:35605   */\n      swap1\n      pop\n        /* \"#utility.yul\":35193:35612   */\n      swap2\n      swap1\n      pop\n      jump\t// out\n        /* \"#utility.yul\":35618:35766   */\n    tag_575:\n        /* \"#utility.yul\":35720:35731   */\n      0x00\n        /* \"#utility.yul\":35757:35760   */\n      dup2\n        /* \"#utility.yul\":35742:35760   */\n      swap1\n      pop\n        /* \"#utility.yul\":35618:35766   */\n      swap3\n      swap2\n      pop\n      pop\n      jump\t// out\n        /* \"#utility.yul\":35772:36162   */\n    tag_576:\n        /* \"#utility.yul\":35878:35881   */\n      0x00\n        /* \"#utility.yul\":35906:35945   */\n      tag_901\n        /* \"#utility.yul\":35939:35944   */\n      dup3\n        /* \"#utility.yul\":35906:35945   */\n      tag_515\n      jump\t// in\n    tag_901:\n        /* \"#utility.yul\":35961:36050   */\n      tag_902\n        /* \"#utility.yul\":36043:36049   */\n      dup2\n        /* \"#utility.yul\":36038:36041   */\n      dup6\n        /* \"#utility.yul\":35961:36050   */\n      tag_575\n      jump\t// in\n    tag_902:\n        /* \"#utility.yul\":35954:36050   */\n      swap4\n      pop\n        /* \"#utility.yul\":36059:36124   */\n      tag_903\n        /* \"#utility.yul\":36117:36123   */\n      dup2\n        /* \"#utility.yul\":36112:36115   */\n      dup6\n        /* \"#utility.yul\":36105:36109   */\n      0x20\n        /* \"#utility.yul\":36098:36103   */\n      dup7\n        /* \"#utility.yul\":36094:36110   */\n      add\n        /* \"#utility.yul\":36059:36124   */\n      tag_517\n      jump\t// in\n    tag_903:\n        /* \"#utility.yul\":36149:36155   */\n      dup1\n        /* \"#utility.yul\":36144:36147   */\n      dup5\n        /* \"#utility.yul\":36140:36156   */\n      add\n        /* \"#utility.yul\":36133:36156   */\n      swap2\n      pop\n        /* \"#utility.yul\":35882:36162   */\n      pop\n        /* \"#utility.yul\":35772:36162   */\n      swap3\n      swap2\n      pop\n      pop\n      jump\t// out\n        /* \"#utility.yul\":36168:36443   */\n    tag_347:\n        /* \"#utility.yul\":36300:36303   */\n      0x00\n        /* \"#utility.yul\":36322:36417   */\n      tag_905\n        /* \"#utility.yul\":36413:36416   */\n      dup3\n        /* \"#utility.yul\":36404:36410   */\n      dup5\n        /* \"#utility.yul\":36322:36417   */\n      tag_576\n      jump\t// in\n    tag_905:\n        /* \"#utility.yul\":36315:36417   */\n      swap2\n      pop\n        /* \"#utility.yul\":36434:36437   */\n      dup2\n        /* \"#utility.yul\":36427:36437   */\n      swap1\n      pop\n        /* \"#utility.yul\":36168:36443   */\n      swap3\n      swap2\n      pop\n      pop\n      jump\t// out\n        /* \"#utility.yul\":36449:36590   */\n    tag_577:\n        /* \"#utility.yul\":36498:36502   */\n      0x00\n        /* \"#utility.yul\":36521:36524   */\n      dup2\n        /* \"#utility.yul\":36513:36524   */\n      swap1\n      pop\n        /* \"#utility.yul\":36544:36547   */\n      dup2\n        /* \"#utility.yul\":36541:36542   */\n      0x00\n        /* \"#utility.yul\":36534:36548   */\n      mstore\n        /* \"#utility.yul\":36578:36582   */\n      0x20\n        /* \"#utility.yul\":36575:36576   */\n      0x00\n        /* \"#utility.yul\":36565:36583   */\n      keccak256\n        /* \"#utility.yul\":36557:36583   */\n      swap1\n      pop\n        /* \"#utility.yul\":36449:36590   */\n      swap2\n      swap1\n      pop\n      jump\t// out\n        /* \"#utility.yul\":36596:36689   */\n    tag_578:\n        /* \"#utility.yul\":36633:36639   */\n      0x00\n        /* \"#utility.yul\":36680:36682   */\n      0x20\n        /* \"#utility.yul\":36675:36677   */\n      0x1f\n        /* \"#utility.yul\":36668:36673   */\n      dup4\n        /* \"#utility.yul\":36664:36678   */\n      add\n        /* \"#utility.yul\":36660:36683   */\n      div\n        /* \"#utility.yul\":36650:36683   */\n      swap1\n      pop\n        /* \"#utility.yul\":36596:36689   */\n      swap2\n      swap1\n      pop\n      jump\t// out\n        /* \"#utility.yul\":36695:36802   */\n    tag_579:\n        /* \"#utility.yul\":36739:36747   */\n      0x00\n        /* \"#utility.yul\":36789:36794   */\n      dup3\n        /* \"#utility.yul\":36783:36787   */\n      dup3\n        /* \"#utility.yul\":36779:36795   */\n      shl\n        /* \"#utility.yul\":36758:36795   */\n      swap1\n      pop\n        /* \"#utility.yul\":36695:36802   */\n      swap3\n      swap2\n      pop\n      pop\n      jump\t// out\n        /* \"#utility.yul\":36808:37201   */\n    tag_580:\n        /* \"#utility.yul\":36877:36883   */\n      0x00\n        /* \"#utility.yul\":36927:36928   */\n      0x08\n        /* \"#utility.yul\":36915:36925   */\n      dup4\n        /* \"#utility.yul\":36911:36929   */\n      mul\n        /* \"#utility.yul\":36950:37047   */\n      tag_910\n        /* \"#utility.yul\":36980:37046   */\n      0xffffffffffffffffffffffffffffffffffffffffffffffffffffffffffffffff\n        /* \"#utility.yul\":36969:36978   */\n      dup3\n        /* \"#utility.yul\":36950:37047   */\n      tag_579\n      jump\t// in\n    tag_910:\n        /* \"#utility.yul\":37068:37107   */\n      tag_911\n        /* \"#utility.yul\":37098:37106   */\n      dup7\n        /* \"#utility.yul\":37087:37096   */\n      dup4\n        /* \"#utility.yul\":37068:37107   */\n      tag_579\n      jump\t// in\n    tag_911:\n        /* \"#utility.yul\":37056:37107   */\n      swap6\n      pop\n        /* \"#utility.yul\":37140:37144   */\n      dup1\n        /* \"#utility.yul\":37136:37145   */\n      not\n        /* \"#utility.yul\":37129:37134   */\n      dup5\n        /* \"#utility.yul\":37125:37146   */\n      and\n        /* \"#utility.yul\":37116:37146   */\n      swap4\n      pop\n        /* \"#utility.yul\":37189:37193   */\n      dup1\n        /* \"#utility.yul\":37179:37187   */\n      dup7\n        /* \"#utility.yul\":37175:37194   */\n      and\n        /* \"#utility.yul\":37168:37173   */\n      dup5\n        /* \"#utility.yul\":37165:37195   */\n      or\n        /* \"#utility.yul\":37155:37195   */\n      swap3\n      pop\n        /* \"#utility.yul\":36884:37201   */\n      pop\n      pop\n        /* \"#utility.yul\":36808:37201   */\n      swap4\n      swap3\n      pop\n      pop\n      pop\n      jump\t// out\n        /* \"#utility.yul\":37207:37267   */\n    tag_581:\n        /* \"#utility.yul\":37235:37238   */\n      0x00\n        /* \"#utility.yul\":37256:37261   */\n      dup2\n        /* \"#utility.yul\":37249:37261   */\n      swap1\n      pop\n        /* \"#utility.yul\":37207:37267   */\n      swap2\n      swap1\n      pop\n      jump\t// out\n        /* \"#utility.yul\":37273:37415   */\n    tag_582:\n        /* \"#utility.yul\":37323:37332   */\n      0x00\n        /* \"#utility.yul\":37356:37409   */\n      tag_914\n        /* \"#utility.yul\":37374:37408   */\n      tag_915\n        /* \"#utility.yul\":37383:37407   */\n      tag_916\n        /* \"#utility.yul\":37401:37406   */\n      dup5\n        /* \"#utility.yul\":37383:37407   */\n      tag_502\n      jump\t// in\n    tag_916:\n        /* \"#utility.yul\":37374:37408   */\n      tag_581\n      jump\t// in\n    tag_915:\n        /* \"#utility.yul\":37356:37409   */\n      tag_502\n      jump\t// in\n    tag_914:\n        /* \"#utility.yul\":37343:37409   */\n      swap1\n      pop\n        /* \"#utility.yul\":37273:37415   */\n      swap2\n      swap1\n      pop\n      jump\t// out\n        /* \"#utility.yul\":37421:37496   */\n    tag_583:\n        /* \"#utility.yul\":37464:37467   */\n      0x00\n        /* \"#utility.yul\":37485:37490   */\n      dup2\n        /* \"#utility.yul\":37478:37490   */\n      swap1\n      pop\n        /* \"#utility.yul\":37421:37496   */\n      swap2\n      swap1\n      pop\n      jump\t// out\n        /* \"#utility.yul\":37502:37771   */\n    tag_584:\n        /* \"#utility.yul\":37612:37651   */\n      tag_919\n        /* \"#utility.yul\":37643:37650   */\n      dup4\n        /* \"#utility.yul\":37612:37651   */\n      tag_582\n      jump\t// in\n    tag_919:\n        /* \"#utility.yul\":37673:37764   */\n      tag_920\n        /* \"#utility.yul\":37722:37763   */\n      tag_921\n        /* \"#utility.yul\":37746:37762   */\n      dup3\n        /* \"#utility.yul\":37722:37763   */\n      tag_583\n      jump\t// in\n    tag_921:\n        /* \"#utility.yul\":37714:37720   */\n      dup5\n        /* \"#utility.yul\":37707:37711   */\n      dup5\n        /* \"#utility.yul\":37701:37712   */\n      sload\n        /* \"#utility.yul\":37673:37764   */\n      tag_580\n      jump\t// in\n    tag_920:\n        /* \"#utility.yul\":37667:37671   */\n      dup3\n        /* \"#utility.yul\":37660:37765   */\n      sstore\n        /* \"#utility.yul\":37578:37771   */\n      pop\n        /* \"#utility.yul\":37502:37771   */\n      pop\n      pop\n      pop\n      jump\t// out\n        /* \"#utility.yul\":37777:37850   */\n    tag_585:\n        /* \"#utility.yul\":37822:37825   */\n      0x00\n        /* \"#utility.yul\":37777:37850   */\n      swap1\n      jump\t// out\n        /* \"#utility.yul\":37856:38045   */\n    tag_586:\n        /* \"#utility.yul\":37933:37965   */\n      tag_924\n      tag_585\n      jump\t// in\n    tag_924:\n        /* \"#utility.yul\":37974:38039   */\n      tag_925\n        /* \"#utility.yul\":38032:38038   */\n      dup2\n        /* \"#utility.yul\":38024:38030   */\n      dup5\n        /* \"#utility.yul\":38018:38022   */\n      dup5\n        /* \"#utility.yul\":37974:38039   */\n      tag_584\n      jump\t// in\n    tag_925:\n        /* \"#utility.yul\":37909:38045   */\n      pop\n        /* \"#utility.yul\":37856:38045   */\n      pop\n      pop\n      jump\t// out\n        /* \"#utility.yul\":38051:38237   */\n    tag_587:\n        /* \"#utility.yul\":38111:38231   */\n    tag_927:\n        /* \"#utility.yul\":38128:38131   */\n      dup2\n        /* \"#utility.yul\":38121:38126   */\n      dup2\n        /* \"#utility.yul\":38118:38132   */\n      lt\n        /* \"#utility.yul\":38111:38231   */\n      iszero\n      tag_929\n      jumpi\n        /* \"#utility.yul\":38182:38221   */\n      tag_930\n        /* \"#utility.yul\":38219:38220   */\n      0x00\n        /* \"#utility.yul\":38212:38217   */\n      dup3\n        /* \"#utility.yul\":38182:38221   */\n      tag_586\n      jump\t// in\n    tag_930:\n        /* \"#utility.yul\":38155:38156   */\n      0x01\n        /* \"#utility.yul\":38148:38153   */\n      dup2\n        /* \"#utility.yul\":38144:38157   */\n      add\n        /* \"#utility.yul\":38135:38157   */\n      swap1\n      pop\n        /* \"#utility.yul\":38111:38231   */\n      jump(tag_927)\n    tag_929:\n        /* \"#utility.yul\":38051:38237   */\n      pop\n      pop\n      jump\t// out\n        /* \"#utility.yul\":38243:38786   */\n    tag_588:\n        /* \"#utility.yul\":38344:38346   */\n      0x1f\n        /* \"#utility.yul\":38339:38342   */\n      dup3\n        /* \"#utility.yul\":38336:38347   */\n      gt\n        /* \"#utility.yul\":38333:38779   */\n      iszero\n      tag_932\n      jumpi\n        /* \"#utility.yul\":38378:38416   */\n      tag_933\n        /* \"#utility.yul\":38410:38415   */\n      dup2\n        /* \"#utility.yul\":38378:38416   */\n      tag_577\n      jump\t// in\n    tag_933:\n        /* \"#utility.yul\":38462:38491   */\n      tag_934\n        /* \"#utility.yul\":38480:38490   */\n      dup5\n        /* \"#utility.yul\":38462:38491   */\n      tag_578\n      jump\t// in\n    tag_934:\n        /* \"#utility.yul\":38452:38460   */\n      dup2\n        /* \"#utility.yul\":38448:38492   */\n      add\n        /* \"#utility.yul\":38645:38647   */\n      0x20\n        /* \"#utility.yul\":38633:38643   */\n      dup6\n        /* \"#utility.yul\":38630:38648   */\n      lt\n        /* \"#utility.yul\":38627:38676   */\n      iszero\n      tag_935\n      jumpi\n        /* \"#utility.yul\":38666:38674   */\n      dup2\n        /* \"#utility.yul\":38651:38674   */\n      swap1\n      pop\n        /* \"#utility.yul\":38627:38676   */\n    tag_935:\n        /* \"#utility.yul\":38689:38769   */\n      tag_936\n        /* \"#utility.yul\":38745:38767   */\n      tag_937\n        /* \"#utility.yul\":38763:38766   */\n      dup6\n        /* \"#utility.yul\":38745:38767   */\n      tag_578\n      jump\t// in\n    tag_937:\n        /* \"#utility.yul\":38735:38743   */\n      dup4\n        /* \"#utility.yul\":38731:38768   */\n      add\n        /* \"#utility.yul\":38718:38729   */\n      dup3\n        /* \"#utility.yul\":38689:38769   */\n      tag_587\n      jump\t// in\n    tag_936:\n        /* \"#utility.yul\":38348:38779   */\n      pop\n      pop\n        /* \"#utility.yul\":38333:38779   */\n    tag_932:\n        /* \"#utility.yul\":38243:38786   */\n      pop\n      pop\n      pop\n      jump\t// out\n        /* \"#utility.yul\":38792:38909   */\n    tag_589:\n        /* \"#utility.yul\":38846:38854   */\n      0x00\n        /* \"#utility.yul\":38896:38901   */\n      dup3\n        /* \"#utility.yul\":38890:38894   */\n      dup3\n        /* \"#utility.yul\":38886:38902   */\n      shr\n        /* \"#utility.yul\":38865:38902   */\n      swap1\n      pop\n        /* \"#utility.yul\":38792:38909   */\n      swap3\n      swap2\n      pop\n      pop\n      jump\t// out\n        /* \"#utility.yul\":38915:39084   */\n    tag_590:\n        /* \"#utility.yul\":38959:38965   */\n      0x00\n        /* \"#utility.yul\":38992:39043   */\n      tag_940\n        /* \"#utility.yul\":39040:39041   */\n      0x00\n        /* \"#utility.yul\":39036:39042   */\n      not\n        /* \"#utility.yul\":39028:39033   */\n      dup5\n        /* \"#utility.yul\":39025:39026   */\n      0x08\n        /* \"#utility.yul\":39021:39034   */\n      mul\n        /* \"#utility.yul\":38992:39043   */\n      tag_589\n      jump\t// in\n    tag_940:\n        /* \"#utility.yul\":38988:39044   */\n      not\n        /* \"#utility.yul\":39073:39077   */\n      dup1\n        /* \"#utility.yul\":39067:39071   */\n      dup4\n        /* \"#utility.yul\":39063:39078   */\n      and\n        /* \"#utility.yul\":39053:39078   */\n      swap2\n      pop\n        /* \"#utility.yul\":38966:39084   */\n      pop\n        /* \"#utility.yul\":38915:39084   */\n      swap3\n      swap2\n      pop\n      pop\n      jump\t// out\n        /* \"#utility.yul\":39089:39384   */\n    tag_591:\n        /* \"#utility.yul\":39165:39169   */\n      0x00\n        /* \"#utility.yul\":39311:39340   */\n      tag_942\n        /* \"#utility.yul\":39336:39339   */\n      dup4\n        /* \"#utility.yul\":39330:39334   */\n      dup4\n        /* \"#utility.yul\":39311:39340   */\n      tag_590\n      jump\t// in\n    tag_942:\n        /* \"#utility.yul\":39303:39340   */\n      swap2\n      pop\n        /* \"#utility.yul\":39373:39376   */\n      dup3\n        /* \"#utility.yul\":39370:39371   */\n      0x02\n        /* \"#utility.yul\":39366:39377   */\n      mul\n        /* \"#utility.yul\":39360:39364   */\n      dup3\n        /* \"#utility.yul\":39357:39378   */\n      or\n        /* \"#utility.yul\":39349:39378   */\n      swap1\n      pop\n        /* \"#utility.yul\":39089:39384   */\n      swap3\n      swap2\n      pop\n      pop\n      jump\t// out\n        /* \"#utility.yul\":39389:40784   */\n    tag_352:\n        /* \"#utility.yul\":39506:39543   */\n      tag_944\n        /* \"#utility.yul\":39539:39542   */\n      dup3\n        /* \"#utility.yul\":39506:39543   */\n      tag_515\n      jump\t// in\n    tag_944:\n        /* \"#utility.yul\":39608:39626   */\n      0xffffffffffffffff\n        /* \"#utility.yul\":39600:39606   */\n      dup2\n        /* \"#utility.yul\":39597:39627   */\n      gt\n        /* \"#utility.yul\":39594:39650   */\n      iszero\n      tag_945\n      jumpi\n        /* \"#utility.yul\":39630:39648   */\n      tag_946\n      tag_164\n      jump\t// in\n    tag_946:\n        /* \"#utility.yul\":39594:39650   */\n    tag_945:\n        /* \"#utility.yul\":39674:39712   */\n      tag_947\n        /* \"#utility.yul\":39706:39710   */\n      dup3\n        /* \"#utility.yul\":39700:39711   */\n      sload\n        /* \"#utility.yul\":39674:39712   */\n      tag_211\n      jump\t// in\n    tag_947:\n        /* \"#utility.yul\":39759:39826   */\n      tag_948\n        /* \"#utility.yul\":39819:39825   */\n      dup3\n        /* \"#utility.yul\":39811:39817   */\n      dup3\n        /* \"#utility.yul\":39805:39809   */\n      dup6\n        /* \"#utility.yul\":39759:39826   */\n      tag_588\n      jump\t// in\n    tag_948:\n        /* \"#utility.yul\":39853:39854   */\n      0x00\n        /* \"#utility.yul\":39877:39881   */\n      0x20\n        /* \"#utility.yul\":39864:39881   */\n      swap1\n      pop\n        /* \"#utility.yul\":39909:39911   */\n      0x1f\n        /* \"#utility.yul\":39901:39907   */\n      dup4\n        /* \"#utility.yul\":39898:39912   */\n      gt\n        /* \"#utility.yul\":39926:39927   */\n      0x01\n        /* \"#utility.yul\":39921:40539   */\n      dup2\n      eq\n      tag_950\n      jumpi\n        /* \"#utility.yul\":40583:40584   */\n      0x00\n        /* \"#utility.yul\":40600:40606   */\n      dup5\n        /* \"#utility.yul\":40597:40674   */\n      iszero\n      tag_951\n      jumpi\n        /* \"#utility.yul\":40649:40658   */\n      dup3\n        /* \"#utility.yul\":40644:40647   */\n      dup8\n        /* \"#utility.yul\":40640:40659   */\n      add\n        /* \"#utility.yul\":40634:40660   */\n      mload\n        /* \"#utility.yul\":40625:40660   */\n      swap1\n      pop\n        /* \"#utility.yul\":40597:40674   */\n    tag_951:\n        /* \"#utility.yul\":40700:40767   */\n      tag_952\n        /* \"#utility.yul\":40760:40766   */\n      dup6\n        /* \"#utility.yul\":40753:40758   */\n      dup3\n        /* \"#utility.yul\":40700:40767   */\n      tag_591\n      jump\t// in\n    tag_952:\n        /* \"#utility.yul\":40694:40698   */\n      dup7\n        /* \"#utility.yul\":40687:40768   */\n      sstore\n        /* \"#utility.yul\":40556:40778   */\n      pop\n        /* \"#utility.yul\":39891:40778   */\n      jump(tag_949)\n        /* \"#utility.yul\":39921:40539   */\n    tag_950:\n        /* \"#utility.yul\":39973:39977   */\n      0x1f\n        /* \"#utility.yul\":39969:39978   */\n      not\n        /* \"#utility.yul\":39961:39967   */\n      dup5\n        /* \"#utility.yul\":39957:39979   */\n      and\n        /* \"#utility.yul\":40007:40044   */\n      tag_953\n        /* \"#utility.yul\":40039:40043   */\n      dup7\n        /* \"#utility.yul\":40007:40044   */\n      tag_577\n      jump\t// in\n    tag_953:\n        /* \"#utility.yul\":40066:40067   */\n      0x00\n        /* \"#utility.yul\":40080:40288   */\n    tag_954:\n        /* \"#utility.yul\":40094:40101   */\n      dup3\n        /* \"#utility.yul\":40091:40092   */\n      dup2\n        /* \"#utility.yul\":40088:40102   */\n      lt\n        /* \"#utility.yul\":40080:40288   */\n      iszero\n      tag_956\n      jumpi\n        /* \"#utility.yul\":40173:40182   */\n      dup5\n        /* \"#utility.yul\":40168:40171   */\n      dup10\n        /* \"#utility.yul\":40164:40183   */\n      add\n        /* \"#utility.yul\":40158:40184   */\n      mload\n        /* \"#utility.yul\":40150:40156   */\n      dup3\n        /* \"#utility.yul\":40143:40185   */\n      sstore\n        /* \"#utility.yul\":40224:40225   */\n      0x01\n        /* \"#utility.yul\":40216:40222   */\n      dup3\n        /* \"#utility.yul\":40212:40226   */\n      add\n        /* \"#utility.yul\":40202:40226   */\n      swap2\n      pop\n        /* \"#utility.yul\":40271:40273   */\n      0x20\n        /* \"#utility.yul\":40260:40269   */\n      dup6\n        /* \"#utility.yul\":40256:40274   */\n      add\n        /* \"#utility.yul\":40243:40274   */\n      swap5\n      pop\n        /* \"#utility.yul\":40117:40121   */\n      0x20\n        /* \"#utility.yul\":40114:40115   */\n      dup2\n        /* \"#utility.yul\":40110:40122   */\n      add\n        /* \"#utility.yul\":40105:40122   */\n      swap1\n      pop\n        /* \"#utility.yul\":40080:40288   */\n      jump(tag_954)\n    tag_956:\n        /* \"#utility.yul\":40316:40322   */\n      dup7\n        /* \"#utility.yul\":40307:40314   */\n      dup4\n        /* \"#utility.yul\":40304:40323   */\n      lt\n        /* \"#utility.yul\":40301:40480   */\n      iszero\n      tag_957\n      jumpi\n        /* \"#utility.yul\":40374:40383   */\n      dup5\n        /* \"#utility.yul\":40369:40372   */\n      dup10\n        /* \"#utility.yul\":40365:40384   */\n      add\n        /* \"#utility.yul\":40359:40385   */\n      mload\n        /* \"#utility.yul\":40417:40465   */\n      tag_958\n        /* \"#utility.yul\":40459:40463   */\n      0x1f\n        /* \"#utility.yul\":40451:40457   */\n      dup10\n        /* \"#utility.yul\":40447:40464   */\n      and\n        /* \"#utility.yul\":40436:40445   */\n      dup3\n        /* \"#utility.yul\":40417:40465   */\n      tag_590\n      jump\t// in\n    tag_958:\n        /* \"#utility.yul\":40409:40415   */\n      dup4\n        /* \"#utility.yul\":40402:40466   */\n      sstore\n        /* \"#utility.yul\":40324:40480   */\n      pop\n        /* \"#utility.yul\":40301:40480   */\n    tag_957:\n        /* \"#utility.yul\":40526:40527   */\n      0x01\n        /* \"#utility.yul\":40522:40523   */\n      0x02\n        /* \"#utility.yul\":40514:40520   */\n      dup9\n        /* \"#utility.yul\":40510:40524   */\n      mul\n        /* \"#utility.yul\":40506:40528   */\n      add\n        /* \"#utility.yul\":40500:40504   */\n      dup9\n        /* \"#utility.yul\":40493:40529   */\n      sstore\n        /* \"#utility.yul\":39928:40539   */\n      pop\n      pop\n      pop\n        /* \"#utility.yul\":39891:40778   */\n    tag_949:\n      pop\n        /* \"#utility.yul\":39481:40784   */\n      pop\n      pop\n      pop\n        /* \"#utility.yul\":39389:40784   */\n      pop\n      pop\n      jump\t// out\n        /* \"#utility.yul\":40790:40957   */\n    tag_592:\n        /* \"#utility.yul\":40930:40949   */\n      0x4d696e6520746865206d6174636865732e000000000000000000000000000000\n        /* \"#utility.yul\":40926:40927   */\n      0x00\n        /* \"#utility.yul\":40918:40924   */\n      dup3\n        /* \"#utility.yul\":40914:40928   */\n      add\n        /* \"#utility.yul\":40907:40950   */\n      mstore\n        /* \"#utility.yul\":40790:40957   */\n      pop\n      jump\t// out\n        /* \"#utility.yul\":40963:41329   */\n    tag_593:\n        /* \"#utility.yul\":41105:41108   */\n      0x00\n        /* \"#utility.yul\":41126:41193   */\n      tag_961\n        /* \"#utility.yul\":41190:41192   */\n      0x11\n        /* \"#utility.yul\":41185:41188   */\n      dup4\n        /* \"#utility.yul\":41126:41193   */\n      tag_530\n      jump\t// in\n    tag_961:\n        /* \"#utility.yul\":41119:41193   */\n      swap2\n      pop\n        /* \"#utility.yul\":41202:41295   */\n      tag_962\n        /* \"#utility.yul\":41291:41294   */\n      dup3\n        /* \"#utility.yul\":41202:41295   */\n      tag_592\n      jump\t// in\n    tag_962:\n        /* \"#utility.yul\":41320:41322   */\n      0x20\n        /* \"#utility.yul\":41315:41318   */\n      dup3\n        /* \"#utility.yul\":41311:41323   */\n      add\n        /* \"#utility.yul\":41304:41323   */\n      swap1\n      pop\n        /* \"#utility.yul\":40963:41329   */\n      swap2\n      swap1\n      pop\n      jump\t// out\n        /* \"#utility.yul\":41335:41754   */\n    tag_364:\n        /* \"#utility.yul\":41501:41505   */\n      0x00\n        /* \"#utility.yul\":41539:41541   */\n      0x20\n        /* \"#utility.yul\":41528:41537   */\n      dup3\n        /* \"#utility.yul\":41524:41542   */\n      add\n        /* \"#utility.yul\":41516:41542   */\n      swap1\n      pop\n        /* \"#utility.yul\":41588:41597   */\n      dup2\n        /* \"#utility.yul\":41582:41586   */\n      dup2\n        /* \"#utility.yul\":41578:41598   */\n      sub\n        /* \"#utility.yul\":41574:41575   */\n      0x00\n        /* \"#utility.yul\":41563:41572   */\n      dup4\n        /* \"#utility.yul\":41559:41576   */\n      add\n        /* \"#utility.yul\":41552:41599   */\n      mstore\n        /* \"#utility.yul\":41616:41747   */\n      tag_964\n        /* \"#utility.yul\":41742:41746   */\n      dup2\n        /* \"#utility.yul\":41616:41747   */\n      tag_593\n      jump\t// in\n    tag_964:\n        /* \"#utility.yul\":41608:41747   */\n      swap1\n      pop\n        /* \"#utility.yul\":41335:41754   */\n      swap2\n      swap1\n      pop\n      jump\t// out\n        /* \"#utility.yul\":41760:41919   */\n    tag_594:\n        /* \"#utility.yul\":41900:41911   */\n      0x416761696e205472790000000000000000000000000000000000000000000000\n        /* \"#utility.yul\":41896:41897   */\n      0x00\n        /* \"#utility.yul\":41888:41894   */\n      dup3\n        /* \"#utility.yul\":41884:41898   */\n      add\n        /* \"#utility.yul\":41877:41912   */\n      mstore\n        /* \"#utility.yul\":41760:41919   */\n      pop\n      jump\t// out\n        /* \"#utility.yul\":41925:42290   */\n    tag_595:\n        /* \"#utility.yul\":42067:42070   */\n      0x00\n        /* \"#utility.yul\":42088:42154   */\n      tag_967\n        /* \"#utility.yul\":42152:42153   */\n      0x09\n        /* \"#utility.yul\":42147:42150   */\n      dup4\n        /* \"#utility.yul\":42088:42154   */\n      tag_530\n      jump\t// in\n    tag_967:\n        /* \"#utility.yul\":42081:42154   */\n      swap2\n      pop\n        /* \"#utility.yul\":42163:42256   */\n      tag_968\n        /* \"#utility.yul\":42252:42255   */\n      dup3\n        /* \"#utility.yul\":42163:42256   */\n      tag_594\n      jump\t// in\n    tag_968:\n        /* \"#utility.yul\":42281:42283   */\n      0x20\n        /* \"#utility.yul\":42276:42279   */\n      dup3\n        /* \"#utility.yul\":42272:42284   */\n      add\n        /* \"#utility.yul\":42265:42284   */\n      swap1\n      pop\n        /* \"#utility.yul\":41925:42290   */\n      swap2\n      swap1\n      pop\n      jump\t// out\n        /* \"#utility.yul\":42296:42715   */\n    tag_370:\n        /* \"#utility.yul\":42462:42466   */\n      0x00\n        /* \"#utility.yul\":42500:42502   */\n      0x20\n        /* \"#utility.yul\":42489:42498   */\n      dup3\n        /* \"#utility.yul\":42485:42503   */\n      add\n        /* \"#utility.yul\":42477:42503   */\n      swap1\n      pop\n        /* \"#utility.yul\":42549:42558   */\n      dup2\n        /* \"#utility.yul\":42543:42547   */\n      dup2\n        /* \"#utility.yul\":42539:42559   */\n      sub\n        /* \"#utility.yul\":42535:42536   */\n      0x00\n        /* \"#utility.yul\":42524:42533   */\n      dup4\n        /* \"#utility.yul\":42520:42537   */\n      add\n        /* \"#utility.yul\":42513:42560   */\n      mstore\n        /* \"#utility.yul\":42577:42708   */\n      tag_970\n        /* \"#utility.yul\":42703:42707   */\n      dup2\n        /* \"#utility.yul\":42577:42708   */\n      tag_595\n      jump\t// in\n    tag_970:\n        /* \"#utility.yul\":42569:42708   */\n      swap1\n      pop\n        /* \"#utility.yul\":42296:42715   */\n      swap2\n      swap1\n      pop\n      jump\t// out\n    stop\n    data_e0168f3fae51cf798b1321eebdaae7bc178ca214b91f59783066943e69095f12 57696e20416e64204c6f6f7365206973207468652070617274206f66207468652047616d652e54727920416761696e212e\n\n    auxdata: 0xa264697066735822122006bab5effb8545de12cfc5e35b7fa89aad9d172fe8c1f613ba8082ac15863baf64736f6c63430008150033\n}\n",
				"bytecode": {
					"linkReferences": {},
					"object": "6080604052662386f26fc1000060025534801561001a575f80fd5b50613ee7806100285f395ff3fe608060405260043610610134575f3560e01c8063b93a89f7116100aa578063cbc7d3671161006e578063cbc7d36714610476578063d41b93b11461049e578063e0c4f15e146104c6578063e70364d4146104ee578063e871d8f31461051e578063ef65bc971461055a57610134565b8063b93a89f71461036a578063c0342cb4146103a6578063c224f388146103e2578063c583f36a1461040a578063cb9940b71461044657610134565b80636dcdd00f116100fc5780636dcdd00f1461023c578063901ac159146102785780639264a169146102b45780639a861a78146102dc5780639f52f1a114610318578063b81c3db71461035457610134565b8063095ea7b31461013857806310f9ec131461016057806335e1d33c1461019c57806337e14e65146101c45780633c956b0514610200575b5f80fd5b348015610143575f80fd5b5061015e60048036038101906101599190612a8a565b610596565b005b34801561016b575f80fd5b5061018660048036038101906101819190612ac8565b610731565b6040516101939190612b02565b60405180910390f35b3480156101a7575f80fd5b506101c260048036038101906101bd9190612b1b565b610746565b005b3480156101cf575f80fd5b506101ea60048036038101906101e59190612ac8565b61093d565b6040516101f79190612b02565b60405180910390f35b34801561020b575f80fd5b5061022660048036038101906102219190612b59565b610952565b6040516102339190612c3b565b60405180910390f35b348015610247575f80fd5b50610262600480360381019061025d9190612c5b565b610a9c565b60405161026f9190612b02565b60405180910390f35b348015610283575f80fd5b5061029e60048036038101906102999190612ac8565b610abc565b6040516102ab9190612b02565b60405180910390f35b3480156102bf575f80fd5b506102da60048036038101906102d59190612c99565b610ad1565b005b3480156102e7575f80fd5b5061030260048036038101906102fd9190612b59565b610ea8565b60405161030f9190612d03565b60405180910390f35b348015610323575f80fd5b5061033e60048036038101906103399190612ac8565b610ec5565b60405161034b9190612d03565b60405180910390f35b34801561035f575f80fd5b50610368610ee2565b005b348015610375575f80fd5b50610390600480360381019061038b9190612ac8565b611072565b60405161039d9190612e6f565b60405180910390f35b3480156103b1575f80fd5b506103cc60048036038101906103c79190612b59565b611212565b6040516103d99190612d03565b60405180910390f35b3480156103ed575f80fd5b5061040860048036038101906104039190612ac8565b61122f565b005b348015610415575f80fd5b50610430600480360381019061042b9190612ac8565b6114bf565b60405161043d9190612e9e565b60405180910390f35b610460600480360381019061045b9190612fe3565b6114ef565b60405161046d9190612d03565b60405180910390f35b348015610481575f80fd5b5061049c60048036038101906104979190612ac8565b6115eb565b005b3480156104a9575f80fd5b506104c460048036038101906104bf9190612ac8565b6116f4565b005b3480156104d1575f80fd5b506104ec60048036038101906104e79190612ac8565b611873565b005b61050860048036038101906105039190612ac8565b611a6c565b6040516105159190612d03565b60405180910390f35b348015610529575f80fd5b50610544600480360381019061053f9190612ac8565b611e0e565b6040516105519190612d03565b60405180910390f35b348015610565575f80fd5b50610580600480360381019061057b9190612ac8565b611faf565b60405161058d9190612d03565b60405180910390f35b803373ffffffffffffffffffffffffffffffffffffffff165f808381526020019081526020015f205f9054906101000a900473ffffffffffffffffffffffffffffffffffffffff1673ffffffffffffffffffffffffffffffffffffffff1614610634576040517f08c379a000000000000000000000000000000000000000000000000000000000815260040161062b906130b3565b60405180910390fd5b8160075f3373ffffffffffffffffffffffffffffffffffffffff1673ffffffffffffffffffffffffffffffffffffffff1681526020019081526020015f205f8573ffffffffffffffffffffffffffffffffffffffff1673ffffffffffffffffffffffffffffffffffffffff1681526020019081526020015f20819055508260085f3373ffffffffffffffffffffffffffffffffffffffff1673ffffffffffffffffffffffffffffffffffffffff1681526020019081526020015f205f6101000a81548173ffffffffffffffffffffffffffffffffffffffff021916908373ffffffffffffffffffffffffffffffffffffffff160217905550505050565b6009602052805f5260405f205f915090505481565b813373ffffffffffffffffffffffffffffffffffffffff165f808381526020019081526020015f205f9054906101000a900473ffffffffffffffffffffffffffffffffffffffff1673ffffffffffffffffffffffffffffffffffffffff16146107e4576040517f08c379a00000000000000000000000000000000000000000000000000000000081526004016107db906130b3565b60405180910390fd5b60065f8481526020019081526020015f205f9054906101000a900460ff1615801561088057506040518060400160405280600781526020017f7072656d69756d00000000000000000000000000000000000000000000000000815250805190602001206003848154811061085b5761085a6130d1565b5b905f5260205f2090600902015f0160405161087691906131f7565b6040518091039020145b6108bf576040517f08c379a00000000000000000000000000000000000000000000000000000000081526004016108b690613257565b60405180910390fd5b670de0b6b3a7640000826108d391906132a2565b600d5f8581526020019081526020015f2081905550600160065f8581526020019081526020015f205f6101000a81548160ff0219169083151502179055505f601e4261091f91906132ff565b90508060095f8681526020019081526020015f208190555050505050565b600e602052805f5260405f205f915090505481565b60605f60015f8473ffffffffffffffffffffffffffffffffffffffff1673ffffffffffffffffffffffffffffffffffffffff1681526020019081526020015f205467ffffffffffffffff8111156109ac576109ab612ebf565b5b6040519080825280602002602001820160405280156109da5781602001602082028036833780820191505090505b5090505f805b600380549050811015610a91578473ffffffffffffffffffffffffffffffffffffffff165f808381526020019081526020015f205f9054906101000a900473ffffffffffffffffffffffffffffffffffffffff1673ffffffffffffffffffffffffffffffffffffffff1603610a7e5780838381518110610a6357610a626130d1565b5b6020026020010181815250508180610a7a90613332565b9250505b8080610a8990613332565b9150506109e0565b508192505050919050565b6007602052815f5260405f20602052805f5260405f205f91509150505481565b600d602052805f5260405f205f915090505481565b803373ffffffffffffffffffffffffffffffffffffffff165f808381526020019081526020015f205f9054906101000a900473ffffffffffffffffffffffffffffffffffffffff1673ffffffffffffffffffffffffffffffffffffffff1614610b6f576040517f08c379a0000000000000000000000000000000000000000000000000000000008152600401610b66906130b3565b60405180910390fd5b6040518060400160405280600781526020017f7072656d69756d000000000000000000000000000000000000000000000000008152508051906020012060038381548110610bc057610bbf6130d1565b5b905f5260205f2090600902015f01604051610bdb91906131f7565b604051809103902014610c23576040517f08c379a0000000000000000000000000000000000000000000000000000000008152600401610c1a906133c3565b60405180910390fd5b60065f8381526020019081526020015f205f9054906101000a900460ff1615610c81576040517f08c379a0000000000000000000000000000000000000000000000000000000008152600401610c789061342b565b60405180910390fd5b8373ffffffffffffffffffffffffffffffffffffffff165f808481526020019081526020015f205f9054906101000a900473ffffffffffffffffffffffffffffffffffffffff1673ffffffffffffffffffffffffffffffffffffffff161480610d7157503373ffffffffffffffffffffffffffffffffffffffff1660085f8673ffffffffffffffffffffffffffffffffffffffff1673ffffffffffffffffffffffffffffffffffffffff1681526020019081526020015f205f9054906101000a900473ffffffffffffffffffffffffffffffffffffffff1673ffffffffffffffffffffffffffffffffffffffff16145b610db0576040517f08c379a0000000000000000000000000000000000000000000000000000000008152600401610da790613493565b60405180910390fd5b825f808481526020019081526020015f205f6101000a81548173ffffffffffffffffffffffffffffffffffffffff021916908373ffffffffffffffffffffffffffffffffffffffff16021790555060015f8573ffffffffffffffffffffffffffffffffffffffff1673ffffffffffffffffffffffffffffffffffffffff1681526020019081526020015f205f815480929190610e4b906134b1565b919050555060015f8473ffffffffffffffffffffffffffffffffffffffff1673ffffffffffffffffffffffffffffffffffffffff1681526020019081526020015f205f815480929190610e9d90613332565b919050555050505050565b600b602052805f5260405f205f915054906101000a900460ff1681565b600a602052805f5260405f205f915054906101000a900460ff1681565b5f60015f3373ffffffffffffffffffffffffffffffffffffffff1673ffffffffffffffffffffffffffffffffffffffff1681526020019081526020015f205414610f61576040517f08c379a0000000000000000000000000000000000000000000000000000000008152600401610f5890613522565b60405180910390fd5b600160055f3373ffffffffffffffffffffffffffffffffffffffff1673ffffffffffffffffffffffffffffffffffffffff1681526020019081526020015f205f6101000a81548160ff0219169083151502179055506110706040518060400160405280600481526020017f46726565000000000000000000000000000000000000000000000000000000008152506040518060400160405280600a81526020017f467265655a6f6d626965000000000000000000000000000000000000000000008152506110636040518060400160405280600481526020017f6672656500000000000000000000000000000000000000000000000000000000815250611fcc565b60015f8060025f8061200f565b565b61107a6129a7565b6003828154811061108e5761108d6130d1565b5b905f5260205f209060090201604051806101200160405290815f820180546110b59061312b565b80601f01602080910402602001604051908101604052809291908181526020018280546110e19061312b565b801561112c5780601f106111035761010080835404028352916020019161112c565b820191905f5260205f20905b81548152906001019060200180831161110f57829003601f168201915b505050505081526020016001820180546111459061312b565b80601f01602080910402602001604051908101604052809291908181526020018280546111719061312b565b80156111bc5780601f10611193576101008083540402835291602001916111bc565b820191905f5260205f20905b81548152906001019060200180831161119f57829003601f168201915b505050505081526020016002820154815260200160038201548152602001600482015481526020016005820154815260200160068201548152602001600782015481526020016008820154815250509050919050565b6005602052805f5260405f205f915054906101000a900460ff1681565b3373ffffffffffffffffffffffffffffffffffffffff16600c5f8381526020019081526020015f205f9054906101000a900473ffffffffffffffffffffffffffffffffffffffff1673ffffffffffffffffffffffffffffffffffffffff161480156112aa57504260095f8381526020019081526020015f2054115b8061130257506001151560055f3373ffffffffffffffffffffffffffffffffffffffff1673ffffffffffffffffffffffffffffffffffffffff1681526020019081526020015f205f9054906101000a900460ff161515145b15611414575f6003828154811061131c5761131b6130d1565b5b905f5260205f209060090201600701549050611337826121ab565b50806003838154811061134d5761134c6130d1565b5b905f5260205f209060090201600701541180156113a757506001805f3373ffffffffffffffffffffffffffffffffffffffff1673ffffffffffffffffffffffffffffffffffffffff1681526020019081526020015f205410155b1561140e575f6113b633610952565b905060016003825f815181106113cf576113ce6130d1565b5b6020026020010151815481106113e8576113e76130d1565b5b905f5260205f2090600902016003015f82825461140591906132ff565b92505081905550505b506114bc565b3373ffffffffffffffffffffffffffffffffffffffff165f808381526020019081526020015f205f9054906101000a900473ffffffffffffffffffffffffffffffffffffffff1673ffffffffffffffffffffffffffffffffffffffff16146114b1576040517f08c379a00000000000000000000000000000000000000000000000000000000081526004016114a89061358a565b60405180910390fd5b6114ba816121ab565b505b50565b600c602052805f5260405f205f915054906101000a900473ffffffffffffffffffffffffffffffffffffffff1681565b5f670de0b6b3a7640000341461153a576040517f08c379a0000000000000000000000000000000000000000000000000000000008152600401611531906135f2565b60405180910390fd5b6040518060400160405280600781526020017f7072656d69756d00000000000000000000000000000000000000000000000000815250805190602001208380519060200120146115bf576040517f08c379a00000000000000000000000000000000000000000000000000000000081526004016115b69061365a565b60405180910390fd5b5f6115c983611fcc565b90506115e084848360056101f45f60055f8061200f565b600191505092915050565b6115f3612894565b5f60038281548110611608576116076130d1565b5b905f5260205f20906009020160030154434446426116269190613678565b6116309190613678565b61163a9190613678565b60405160200161164a91906136d9565b604051602081830303815290604052805190602001205f1c61166c91906132a2565b905060048181548110611682576116816130d1565b5b905f5260205f20015f0154600383815481106116a1576116a06130d1565b5b905f5260205f2090600902016003015411156116f057600382815481106116cb576116ca6130d1565b5b905f5260205f2090600902016003015f8154809291906116ea90613332565b91905055505b5050565b803373ffffffffffffffffffffffffffffffffffffffff165f808381526020019081526020015f205f9054906101000a900473ffffffffffffffffffffffffffffffffffffffff1673ffffffffffffffffffffffffffffffffffffffff1614611792576040517f08c379a0000000000000000000000000000000000000000000000000000000008152600401611789906130b3565b60405180910390fd5b6101f4600383815481106117a9576117a86130d1565b5b905f5260205f2090600902016004015410156117fa576040517f08c379a00000000000000000000000000000000000000000000000000000000081526004016117f19061373d565b60405180910390fd5b6101f460038381548110611811576118106130d1565b5b905f5260205f2090600902016004015f82825461182e919061375b565b9250508190555060016003838154811061184b5761184a6130d1565b5b905f5260205f2090600902016003015f82825461186891906132ff565b925050819055505050565b803373ffffffffffffffffffffffffffffffffffffffff165f808381526020019081526020015f205f9054906101000a900473ffffffffffffffffffffffffffffffffffffffff1673ffffffffffffffffffffffffffffffffffffffff1614611911576040517f08c379a0000000000000000000000000000000000000000000000000000000008152600401611908906130b3565b60405180910390fd5b6001151560065f8481526020019081526020015f205f9054906101000a900460ff16151514611975576040517f08c379a000000000000000000000000000000000000000000000000000000000815260040161196c906137d8565b60405180910390fd5b60095f8381526020019081526020015f20544210156119c9576040517f08c379a00000000000000000000000000000000000000000000000000000000081526004016119c090613840565b60405180910390fd5b5f60065f8481526020019081526020015f205f6101000a81548160ff0219169083151502179055505f600a5f8481526020019081526020015f205f6101000a81548160ff0219169083151502179055505f600c5f8481526020019081526020015f205f6101000a81548173ffffffffffffffffffffffffffffffffffffffff021916908373ffffffffffffffffffffffffffffffffffffffff1602179055505050565b5f4260095f8481526020019081526020015f205411611ac0576040517f08c379a0000000000000000000000000000000000000000000000000000000008152600401611ab7906138a8565b60405180910390fd5b600d5f8381526020019081526020015f20543414611b13576040517f08c379a0000000000000000000000000000000000000000000000000000000008152600401611b0a90613910565b60405180910390fd5b600a5f8381526020019081526020015f205f9054906101000a900460ff16158015611b855750600b5f3373ffffffffffffffffffffffffffffffffffffffff1673ffffffffffffffffffffffffffffffffffffffff1681526020019081526020015f205f9054906101000a900460ff16155b611bc4576040517f08c379a0000000000000000000000000000000000000000000000000000000008152600401611bbb90613978565b60405180910390fd5b3373ffffffffffffffffffffffffffffffffffffffff165f808481526020019081526020015f205f9054906101000a900473ffffffffffffffffffffffffffffffffffffffff1673ffffffffffffffffffffffffffffffffffffffff1603611c61576040517f08c379a0000000000000000000000000000000000000000000000000000000008152600401611c58906139e0565b60405180910390fd5b6001151560065f8481526020019081526020015f205f9054906101000a900460ff16151514611cc5576040517f08c379a0000000000000000000000000000000000000000000000000000000008152600401611cbc90613a48565b60405180910390fd5b5f808381526020019081526020015f205f9054906101000a900473ffffffffffffffffffffffffffffffffffffffff1673ffffffffffffffffffffffffffffffffffffffff166108fc3490811502906040515f60405180830381858888f19350505050158015611d37573d5f803e3d5ffd5b5033600c5f8481526020019081526020015f205f6101000a81548173ffffffffffffffffffffffffffffffffffffffff021916908373ffffffffffffffffffffffffffffffffffffffff1602179055506001600b5f3373ffffffffffffffffffffffffffffffffffffffff1673ffffffffffffffffffffffffffffffffffffffff1681526020019081526020015f205f6101000a81548160ff0219169083151502179055506001600a5f8481526020019081526020015f205f6101000a81548160ff02191690831515021790555060019050919050565b5f813373ffffffffffffffffffffffffffffffffffffffff165f808381526020019081526020015f205f9054906101000a900473ffffffffffffffffffffffffffffffffffffffff1673ffffffffffffffffffffffffffffffffffffffff1614611ead576040517f08c379a0000000000000000000000000000000000000000000000000000000008152600401611ea4906130b3565b60405180910390fd5b5f60038481548110611ec257611ec16130d1565b5b905f5260205f20906009020160060154148015611eef57505f600e5f8581526020019081526020015f2054145b611f2e576040517f08c379a0000000000000000000000000000000000000000000000000000000008152600401611f2590613ad6565b60405180910390fd5b6201518042611f3d91906132ff565b600e5f8581526020019081526020015f2081905550600e5f8481526020019081526020015f20544210611fa557600560038481548110611f8057611f7f6130d1565b5b905f5260205f2090600902016006015f828254611f9d91906132ff565b925050819055505b6001915050919050565b6006602052805f5260405f205f915054906101000a900460ff1681565b5f8082604051602001611fdf9190613b2e565b604051602081830303815290604052805190602001205f1c90506002548161200791906132a2565b915050919050565b60036040518061012001604052808b81526020018a815260200189815260200188815260200187815260200186815260200185815260200184815260200183815250908060018154018082558091505060019003905f5260205f2090600902015f909190919091505f820151815f01908161208a9190613ce1565b5060208201518160010190816120a09190613ce1565b5060408201518160020155606082015181600301556080820151816004015560a0820151816005015560c0820151816006015560e08201518160070155610100820151816008015550505f60016003805490506120fd919061375b565b905060015f3373ffffffffffffffffffffffffffffffffffffffff1673ffffffffffffffffffffffffffffffffffffffff1681526020019081526020015f205f81548092919061214c90613332565b9190505550335f808381526020019081526020015f205f6101000a81548173ffffffffffffffffffffffffffffffffffffffff021916908373ffffffffffffffffffffffffffffffffffffffff16021790555050505050505050505050565b60605f6121b6612932565b90506001600384815481106121ce576121cd6130d1565b5b905f5260205f20906009020160060154101561221f576040517f08c379a000000000000000000000000000000000000000000000000000000000815260040161221690613dfa565b60405180910390fd5b600160038281548110612235576122346130d1565b5b905f5260205f209060090201600601541015612286576040517f08c379a000000000000000000000000000000000000000000000000000000000815260040161227d90613e62565b60405180910390fd5b6003818154811061229a576122996130d1565b5b905f5260205f20906009020160030154600384815481106122be576122bd6130d1565b5b905f5260205f20906009020160030154111561250c57600383815481106122e8576122e76130d1565b5b905f5260205f2090600902016003015f81548092919061230790613332565b9190505550600383815481106123205761231f6130d1565b5b905f5260205f2090600902016005015f81548092919061233f90613332565b919050555060038381548110612358576123576130d1565b5b905f5260205f2090600902016006015f815480929190612377906134b1565b9190505550600383815481106123905761238f6130d1565b5b905f5260205f2090600902016007015f8154809291906123af90613332565b91905055506064600384815481106123ca576123c96130d1565b5b905f5260205f2090600902016004015f8282546123e791906132ff565b9250508190555060038181548110612402576124016130d1565b5b905f5260205f2090600902016003015f815480929190612421906134b1565b91905055506003818154811061243a576124396130d1565b5b905f5260205f2090600902016005015f81548092919061245990613332565b919050555060038181548110612472576124716130d1565b5b905f5260205f2090600902016006015f815480929190612491906134b1565b9190505550600381815481106124aa576124a96130d1565b5b905f5260205f2090600902016008015f8154809291906124c990613332565b91905055506040518060400160405280600e81526020017f436f6e67726174732057696e732e00000000000000000000000000000000000081525091505061288f565b600383815481106125205761251f6130d1565b5b905f5260205f2090600902016003015460038281548110612544576125436130d1565b5b905f5260205f209060090201600301541115612775576003818154811061256e5761256d6130d1565b5b905f5260205f2090600902016003015f81548092919061258d90613332565b9190505550600381815481106125a6576125a56130d1565b5b905f5260205f2090600902016005015f8154809291906125c590613332565b9190505550600381815481106125de576125dd6130d1565b5b905f5260205f2090600902016006015f8154809291906125fd906134b1565b919050555060038181548110612616576126156130d1565b5b905f5260205f2090600902016007015f81548092919061263590613332565b91905055506064600382815481106126505761264f6130d1565b5b905f5260205f2090600902016004015f82825461266d91906132ff565b9250508190555060038381548110612688576126876130d1565b5b905f5260205f2090600902016003015f8154809291906126a7906134b1565b9190505550600383815481106126c0576126bf6130d1565b5b905f5260205f2090600902016005015f8154809291906126df90613332565b9190505550600383815481106126f8576126f76130d1565b5b905f5260205f2090600902016006015f815480929190612717906134b1565b9190505550600383815481106127305761272f6130d1565b5b905f5260205f2090600902016008015f81548092919061274f90613332565b9190505550604051806060016040528060318152602001613e816031913991505061288f565b60038181548110612789576127886130d1565b5b905f5260205f2090600902016005015f8154809291906127a890613332565b9190505550600383815481106127c1576127c06130d1565b5b905f5260205f2090600902016005015f8154809291906127e090613332565b9190505550600383815481106127f9576127f86130d1565b5b905f5260205f2090600902016006015f815480929190612818906134b1565b919050555060038181548110612831576128306130d1565b5b905f5260205f2090600902016006015f815480929190612850906134b1565b91905055506040518060400160405280600f81526020017f447261772054727920416761696e2e00000000000000000000000000000000008152509150505b919050565b5f5b600b81101561292f575f600a434446426128b09190613678565b6128ba9190613678565b6128c49190613678565b6040516020016128d491906136d9565b604051602081830303815290604052805190602001205f1c6128f691906132a2565b9050806004838154811061290d5761290c6130d1565b5b905f5260205f20015f018190555050808061292790613332565b915050612896565b50565b5f8060038054905090505f81434446428661294d9190613678565b6129579190613678565b6129619190613678565b61296b9190613678565b60405160200161297b91906136d9565b604051602081830303815290604052805190602001205f1c61299d91906132a2565b9050809250505090565b60405180610120016040528060608152602001606081526020015f81526020015f81526020015f81526020015f81526020015f81526020015f81526020015f81525090565b5f604051905090565b5f80fd5b5f80fd5b5f73ffffffffffffffffffffffffffffffffffffffff82169050919050565b5f612a26826129fd565b9050919050565b612a3681612a1c565b8114612a40575f80fd5b50565b5f81359050612a5181612a2d565b92915050565b5f819050919050565b612a6981612a57565b8114612a73575f80fd5b50565b5f81359050612a8481612a60565b92915050565b5f8060408385031215612aa057612a9f6129f5565b5b5f612aad85828601612a43565b9250506020612abe85828601612a76565b9150509250929050565b5f60208284031215612add57612adc6129f5565b5b5f612aea84828501612a76565b91505092915050565b612afc81612a57565b82525050565b5f602082019050612b155f830184612af3565b92915050565b5f8060408385031215612b3157612b306129f5565b5b5f612b3e85828601612a76565b9250506020612b4f85828601612a76565b9150509250929050565b5f60208284031215612b6e57612b6d6129f5565b5b5f612b7b84828501612a43565b91505092915050565b5f81519050919050565b5f82825260208201905092915050565b5f819050602082019050919050565b612bb681612a57565b82525050565b5f612bc78383612bad565b60208301905092915050565b5f602082019050919050565b5f612be982612b84565b612bf38185612b8e565b9350612bfe83612b9e565b805f5b83811015612c2e578151612c158882612bbc565b9750612c2083612bd3565b925050600181019050612c01565b5085935050505092915050565b5f6020820190508181035f830152612c538184612bdf565b905092915050565b5f8060408385031215612c7157612c706129f5565b5b5f612c7e85828601612a43565b9250506020612c8f85828601612a43565b9150509250929050565b5f805f60608486031215612cb057612caf6129f5565b5b5f612cbd86828701612a43565b9350506020612cce86828701612a43565b9250506040612cdf86828701612a76565b9150509250925092565b5f8115159050919050565b612cfd81612ce9565b82525050565b5f602082019050612d165f830184612cf4565b92915050565b5f81519050919050565b5f82825260208201905092915050565b5f5b83811015612d53578082015181840152602081019050612d38565b5f8484015250505050565b5f601f19601f8301169050919050565b5f612d7882612d1c565b612d828185612d26565b9350612d92818560208601612d36565b612d9b81612d5e565b840191505092915050565b5f61012083015f8301518482035f860152612dc18282612d6e565b91505060208301518482036020860152612ddb8282612d6e565b9150506040830151612df06040860182612bad565b506060830151612e036060860182612bad565b506080830151612e166080860182612bad565b5060a0830151612e2960a0860182612bad565b5060c0830151612e3c60c0860182612bad565b5060e0830151612e4f60e0860182612bad565b50610100830151612e64610100860182612bad565b508091505092915050565b5f6020820190508181035f830152612e878184612da6565b905092915050565b612e9881612a1c565b82525050565b5f602082019050612eb15f830184612e8f565b92915050565b5f80fd5b5f80fd5b7f4e487b71000000000000000000000000000000000000000000000000000000005f52604160045260245ffd5b612ef582612d5e565b810181811067ffffffffffffffff82111715612f1457612f13612ebf565b5b80604052505050565b5f612f266129ec565b9050612f328282612eec565b919050565b5f67ffffffffffffffff821115612f5157612f50612ebf565b5b612f5a82612d5e565b9050602081019050919050565b828183375f83830152505050565b5f612f87612f8284612f37565b612f1d565b905082815260208101848484011115612fa357612fa2612ebb565b5b612fae848285612f67565b509392505050565b5f82601f830112612fca57612fc9612eb7565b5b8135612fda848260208601612f75565b91505092915050565b5f8060408385031215612ff957612ff86129f5565b5b5f83013567ffffffffffffffff811115613016576130156129f9565b5b61302285828601612fb6565b925050602083013567ffffffffffffffff811115613043576130426129f9565b5b61304f85828601612fb6565b9150509250929050565b5f82825260208201905092915050565b7f4f6e6c79204f776e65722e0000000000000000000000000000000000000000005f82015250565b5f61309d600b83613059565b91506130a882613069565b602082019050919050565b5f6020820190508181035f8301526130ca81613091565b9050919050565b7f4e487b71000000000000000000000000000000000000000000000000000000005f52603260045260245ffd5b7f4e487b71000000000000000000000000000000000000000000000000000000005f52602260045260245ffd5b5f600282049050600182168061314257607f821691505b602082108103613155576131546130fe565b5b50919050565b5f81905092915050565b5f819050815f5260205f209050919050565b5f81546131838161312b565b61318d818661315b565b9450600182165f81146131a757600181146131bc576131ee565b60ff19831686528115158202860193506131ee565b6131c585613165565b5f5b838110156131e6578154818901526001820191506020810190506131c7565b838801955050505b50505092915050565b5f6132028284613177565b915081905092915050565b7f66726565206e66742063616e74206f6e2072656e742e000000000000000000005f82015250565b5f613241601683613059565b915061324c8261320d565b602082019050919050565b5f6020820190508181035f83015261326e81613235565b9050919050565b7f4e487b71000000000000000000000000000000000000000000000000000000005f52601260045260245ffd5b5f6132ac82612a57565b91506132b783612a57565b9250826132c7576132c6613275565b5b828206905092915050565b7f4e487b71000000000000000000000000000000000000000000000000000000005f52601160045260245ffd5b5f61330982612a57565b915061331483612a57565b925082820190508082111561332c5761332b6132d2565b5b92915050565b5f61333c82612a57565b91507fffffffffffffffffffffffffffffffffffffffffffffffffffffffffffffffff820361336e5761336d6132d2565b5b600182019050919050565b7f66726565206e66742063616e2073656c6c2e00000000000000000000000000005f82015250565b5f6133ad601283613059565b91506133b882613379565b602082019050919050565b5f6020820190508181035f8301526133da816133a1565b9050919050565b7f54686973206e6674206f6e2072656e742e0000000000000000000000000000005f82015250565b5f613415601183613059565b9150613420826133e1565b602082019050919050565b5f6020820190508181035f83015261344281613409565b9050919050565b7f596f7520646f6e742068617665204e66742e00000000000000000000000000005f82015250565b5f61347d601283613059565b915061348882613449565b602082019050919050565b5f6020820190508181035f8301526134aa81613471565b9050919050565b5f6134bb82612a57565b91505f82036134cd576134cc6132d2565b5b600182039050919050565b7f416c726561647920686176652031206f72206d6f7265206e66742e00000000005f82015250565b5f61350c601b83613059565b9150613517826134d8565b602082019050919050565b5f6020820190508181035f83015261353981613500565b9050919050565b7f596f7520646f6e742068617665206e66742e00000000000000000000000000005f82015250565b5f613574601283613059565b915061357f82613540565b602082019050919050565b5f6020820190508181035f8301526135a181613568565b9050919050565b7f766c7565206d75737420626520312065746865722e00000000000000000000005f82015250565b5f6135dc601583613059565b91506135e7826135a8565b602082019050919050565b5f6020820190508181035f830152613609816135d0565b9050919050565b7f436f7272656374205370656c6c696e67000000000000000000000000000000005f82015250565b5f613644601083613059565b915061364f82613610565b602082019050919050565b5f6020820190508181035f83015261367181613638565b9050919050565b5f61368282612a57565b915061368d83612a57565b925082820261369b81612a57565b915082820484148315176136b2576136b16132d2565b5b5092915050565b5f819050919050565b6136d36136ce82612a57565b6136b9565b82525050565b5f6136e482846136c2565b60208201915081905092915050565b7f796f75206e656564206d6f7265207870000000000000000000000000000000005f82015250565b5f613727601083613059565b9150613732826136f3565b602082019050919050565b5f6020820190508181035f8301526137548161371b565b9050919050565b5f61376582612a57565b915061377083612a57565b9250828203905081811115613788576137876132d2565b5b92915050565b7f6e6f7420696e2072656e742e00000000000000000000000000000000000000005f82015250565b5f6137c2600c83613059565b91506137cd8261378e565b602082019050919050565b5f6020820190508181035f8301526137ef816137b6565b9050919050565b7f74696d652072656d61696e732e000000000000000000000000000000000000005f82015250565b5f61382a600d83613059565b9150613835826137f6565b602082019050919050565b5f6020820190508181035f8301526138578161381e565b9050919050565b7f4e6f77206964206973206e6f74206f6e2072656e742e000000000000000000005f82015250565b5f613892601683613059565b915061389d8261385e565b602082019050919050565b5f6020820190508181035f8301526138bf81613886565b9050919050565b7f616d6f756e74206e6f74206d617463682065746865722072657175697265642e5f82015250565b5f6138fa602083613059565b9150613905826138c6565b602082019050919050565b5f6020820190508181035f830152613927816138ee565b9050919050565b7f616c72656164792074616b656e204e66742e00000000000000000000000000005f82015250565b5f613962601283613059565b915061396d8261392e565b602082019050919050565b5f6020820190508181035f83015261398f81613956565b9050919050565b7f6f776e65722063616e742074616b6520686973206f776e2069642e00000000005f82015250565b5f6139ca601b83613059565b91506139d582613996565b602082019050919050565b5f6020820190508181035f8301526139f7816139be565b9050919050565b7f6e6674206e6f74206c69737465642e00000000000000000000000000000000005f82015250565b5f613a32600f83613059565b9150613a3d826139fe565b602082019050919050565b5f6020820190508181035f830152613a5f81613a26565b9050919050565b7f596f752068617665206368616e636573206f7220416c7265616479206d696e695f8201527f6e672e0000000000000000000000000000000000000000000000000000000000602082015250565b5f613ac0602383613059565b9150613acb82613a66565b604082019050919050565b5f6020820190508181035f830152613aed81613ab4565b9050919050565b5f81905092915050565b5f613b0882612d1c565b613b128185613af4565b9350613b22818560208601612d36565b80840191505092915050565b5f613b398284613afe565b915081905092915050565b5f819050815f5260205f209050919050565b5f6020601f8301049050919050565b5f82821b905092915050565b5f60088302613ba07fffffffffffffffffffffffffffffffffffffffffffffffffffffffffffffffff82613b65565b613baa8683613b65565b95508019841693508086168417925050509392505050565b5f819050919050565b5f613be5613be0613bdb84612a57565b613bc2565b612a57565b9050919050565b5f819050919050565b613bfe83613bcb565b613c12613c0a82613bec565b848454613b71565b825550505050565b5f90565b613c26613c1a565b613c31818484613bf5565b505050565b5b81811015613c5457613c495f82613c1e565b600181019050613c37565b5050565b601f821115613c9957613c6a81613b44565b613c7384613b56565b81016020851015613c82578190505b613c96613c8e85613b56565b830182613c36565b50505b505050565b5f82821c905092915050565b5f613cb95f1984600802613c9e565b1980831691505092915050565b5f613cd18383613caa565b9150826002028217905092915050565b613cea82612d1c565b67ffffffffffffffff811115613d0357613d02612ebf565b5b613d0d825461312b565b613d18828285613c58565b5f60209050601f831160018114613d49575f8415613d37578287015190505b613d418582613cc6565b865550613da8565b601f198416613d5786613b44565b5f5b82811015613d7e57848901518255600182019150602085019450602081019050613d59565b86831015613d9b5784890151613d97601f891682613caa565b8355505b6001600288020188555050505b505050505050565b7f4d696e6520746865206d6174636865732e0000000000000000000000000000005f82015250565b5f613de4601183613059565b9150613def82613db0565b602082019050919050565b5f6020820190508181035f830152613e1181613dd8565b9050919050565b7f416761696e2054727900000000000000000000000000000000000000000000005f82015250565b5f613e4c600983613059565b9150613e5782613e18565b602082019050919050565b5f6020820190508181035f830152613e7981613e40565b905091905056fe57696e20416e64204c6f6f7365206973207468652070617274206f66207468652047616d652e54727920416761696e212ea264697066735822122006bab5effb8545de12cfc5e35b7fa89aad9d172fe8c1f613ba8082ac15863baf64736f6c63430008150033",
					"opcodes": "PUSH1 0x80 PUSH1 0x40 MSTORE PUSH7 0x2386F26FC10000 PUSH1 0x2 SSTORE CALLVALUE DUP1 ISZERO PUSH2 0x1A JUMPI PUSH0 DUP1 REVERT JUMPDEST POP PUSH2 0x3EE7 DUP1 PUSH2 0x28 PUSH0 CODECOPY PUSH0 RETURN INVALID PUSH1 0x80 PUSH1 0x40 MSTORE PUSH1 0x4 CALLDATASIZE LT PUSH2 0x134 JUMPI PUSH0 CALLDATALOAD PUSH1 0xE0 SHR DUP1 PUSH4 0xB93A89F7 GT PUSH2 0xAA JUMPI DUP1 PUSH4 0xCBC7D367 GT PUSH2 0x6E JUMPI DUP1 PUSH4 0xCBC7D367 EQ PUSH2 0x476 JUMPI DUP1 PUSH4 0xD41B93B1 EQ PUSH2 0x49E JUMPI DUP1 PUSH4 0xE0C4F15E EQ PUSH2 0x4C6 JUMPI DUP1 PUSH4 0xE70364D4 EQ PUSH2 0x4EE JUMPI DUP1 PUSH4 0xE871D8F3 EQ PUSH2 0x51E JUMPI DUP1 PUSH4 0xEF65BC97 EQ PUSH2 0x55A JUMPI PUSH2 0x134 JUMP JUMPDEST DUP1 PUSH4 0xB93A89F7 EQ PUSH2 0x36A JUMPI DUP1 PUSH4 0xC0342CB4 EQ PUSH2 0x3A6 JUMPI DUP1 PUSH4 0xC224F388 EQ PUSH2 0x3E2 JUMPI DUP1 PUSH4 0xC583F36A EQ PUSH2 0x40A JUMPI DUP1 PUSH4 0xCB9940B7 EQ PUSH2 0x446 JUMPI PUSH2 0x134 JUMP JUMPDEST DUP1 PUSH4 0x6DCDD00F GT PUSH2 0xFC JUMPI DUP1 PUSH4 0x6DCDD00F EQ PUSH2 0x23C JUMPI DUP1 PUSH4 0x901AC159 EQ PUSH2 0x278 JUMPI DUP1 PUSH4 0x9264A169 EQ PUSH2 0x2B4 JUMPI DUP1 PUSH4 0x9A861A78 EQ PUSH2 0x2DC JUMPI DUP1 PUSH4 0x9F52F1A1 EQ PUSH2 0x318 JUMPI DUP1 PUSH4 0xB81C3DB7 EQ PUSH2 0x354 JUMPI PUSH2 0x134 JUMP JUMPDEST DUP1 PUSH4 0x95EA7B3 EQ PUSH2 0x138 JUMPI DUP1 PUSH4 0x10F9EC13 EQ PUSH2 0x160 JUMPI DUP1 PUSH4 0x35E1D33C EQ PUSH2 0x19C JUMPI DUP1 PUSH4 0x37E14E65 EQ PUSH2 0x1C4 JUMPI DUP1 PUSH4 0x3C956B05 EQ PUSH2 0x200 JUMPI JUMPDEST PUSH0 DUP1 REVERT JUMPDEST CALLVALUE DUP1 ISZERO PUSH2 0x143 JUMPI PUSH0 DUP1 REVERT JUMPDEST POP PUSH2 0x15E PUSH1 0x4 DUP1 CALLDATASIZE SUB DUP2 ADD SWAP1 PUSH2 0x159 SWAP2 SWAP1 PUSH2 0x2A8A JUMP JUMPDEST PUSH2 0x596 JUMP JUMPDEST STOP JUMPDEST CALLVALUE DUP1 ISZERO PUSH2 0x16B JUMPI PUSH0 DUP1 REVERT JUMPDEST POP PUSH2 0x186 PUSH1 0x4 DUP1 CALLDATASIZE SUB DUP2 ADD SWAP1 PUSH2 0x181 SWAP2 SWAP1 PUSH2 0x2AC8 JUMP JUMPDEST PUSH2 0x731 JUMP JUMPDEST PUSH1 0x40 MLOAD PUSH2 0x193 SWAP2 SWAP1 PUSH2 0x2B02 JUMP JUMPDEST PUSH1 0x40 MLOAD DUP1 SWAP2 SUB SWAP1 RETURN JUMPDEST CALLVALUE DUP1 ISZERO PUSH2 0x1A7 JUMPI PUSH0 DUP1 REVERT JUMPDEST POP PUSH2 0x1C2 PUSH1 0x4 DUP1 CALLDATASIZE SUB DUP2 ADD SWAP1 PUSH2 0x1BD SWAP2 SWAP1 PUSH2 0x2B1B JUMP JUMPDEST PUSH2 0x746 JUMP JUMPDEST STOP JUMPDEST CALLVALUE DUP1 ISZERO PUSH2 0x1CF JUMPI PUSH0 DUP1 REVERT JUMPDEST POP PUSH2 0x1EA PUSH1 0x4 DUP1 CALLDATASIZE SUB DUP2 ADD SWAP1 PUSH2 0x1E5 SWAP2 SWAP1 PUSH2 0x2AC8 JUMP JUMPDEST PUSH2 0x93D JUMP JUMPDEST PUSH1 0x40 MLOAD PUSH2 0x1F7 SWAP2 SWAP1 PUSH2 0x2B02 JUMP JUMPDEST PUSH1 0x40 MLOAD DUP1 SWAP2 SUB SWAP1 RETURN JUMPDEST CALLVALUE DUP1 ISZERO PUSH2 0x20B JUMPI PUSH0 DUP1 REVERT JUMPDEST POP PUSH2 0x226 PUSH1 0x4 DUP1 CALLDATASIZE SUB DUP2 ADD SWAP1 PUSH2 0x221 SWAP2 SWAP1 PUSH2 0x2B59 JUMP JUMPDEST PUSH2 0x952 JUMP JUMPDEST PUSH1 0x40 MLOAD PUSH2 0x233 SWAP2 SWAP1 PUSH2 0x2C3B JUMP JUMPDEST PUSH1 0x40 MLOAD DUP1 SWAP2 SUB SWAP1 RETURN JUMPDEST CALLVALUE DUP1 ISZERO PUSH2 0x247 JUMPI PUSH0 DUP1 REVERT JUMPDEST POP PUSH2 0x262 PUSH1 0x4 DUP1 CALLDATASIZE SUB DUP2 ADD SWAP1 PUSH2 0x25D SWAP2 SWAP1 PUSH2 0x2C5B JUMP JUMPDEST PUSH2 0xA9C JUMP JUMPDEST PUSH1 0x40 MLOAD PUSH2 0x26F SWAP2 SWAP1 PUSH2 0x2B02 JUMP JUMPDEST PUSH1 0x40 MLOAD DUP1 SWAP2 SUB SWAP1 RETURN JUMPDEST CALLVALUE DUP1 ISZERO PUSH2 0x283 JUMPI PUSH0 DUP1 REVERT JUMPDEST POP PUSH2 0x29E PUSH1 0x4 DUP1 CALLDATASIZE SUB DUP2 ADD SWAP1 PUSH2 0x299 SWAP2 SWAP1 PUSH2 0x2AC8 JUMP JUMPDEST PUSH2 0xABC JUMP JUMPDEST PUSH1 0x40 MLOAD PUSH2 0x2AB SWAP2 SWAP1 PUSH2 0x2B02 JUMP JUMPDEST PUSH1 0x40 MLOAD DUP1 SWAP2 SUB SWAP1 RETURN JUMPDEST CALLVALUE DUP1 ISZERO PUSH2 0x2BF JUMPI PUSH0 DUP1 REVERT JUMPDEST POP PUSH2 0x2DA PUSH1 0x4 DUP1 CALLDATASIZE SUB DUP2 ADD SWAP1 PUSH2 0x2D5 SWAP2 SWAP1 PUSH2 0x2C99 JUMP JUMPDEST PUSH2 0xAD1 JUMP JUMPDEST STOP JUMPDEST CALLVALUE DUP1 ISZERO PUSH2 0x2E7 JUMPI PUSH0 DUP1 REVERT JUMPDEST POP PUSH2 0x302 PUSH1 0x4 DUP1 CALLDATASIZE SUB DUP2 ADD SWAP1 PUSH2 0x2FD SWAP2 SWAP1 PUSH2 0x2B59 JUMP JUMPDEST PUSH2 0xEA8 JUMP JUMPDEST PUSH1 0x40 MLOAD PUSH2 0x30F SWAP2 SWAP1 PUSH2 0x2D03 JUMP JUMPDEST PUSH1 0x40 MLOAD DUP1 SWAP2 SUB SWAP1 RETURN JUMPDEST CALLVALUE DUP1 ISZERO PUSH2 0x323 JUMPI PUSH0 DUP1 REVERT JUMPDEST POP PUSH2 0x33E PUSH1 0x4 DUP1 CALLDATASIZE SUB DUP2 ADD SWAP1 PUSH2 0x339 SWAP2 SWAP1 PUSH2 0x2AC8 JUMP JUMPDEST PUSH2 0xEC5 JUMP JUMPDEST PUSH1 0x40 MLOAD PUSH2 0x34B SWAP2 SWAP1 PUSH2 0x2D03 JUMP JUMPDEST PUSH1 0x40 MLOAD DUP1 SWAP2 SUB SWAP1 RETURN JUMPDEST CALLVALUE DUP1 ISZERO PUSH2 0x35F JUMPI PUSH0 DUP1 REVERT JUMPDEST POP PUSH2 0x368 PUSH2 0xEE2 JUMP JUMPDEST STOP JUMPDEST CALLVALUE DUP1 ISZERO PUSH2 0x375 JUMPI PUSH0 DUP1 REVERT JUMPDEST POP PUSH2 0x390 PUSH1 0x4 DUP1 CALLDATASIZE SUB DUP2 ADD SWAP1 PUSH2 0x38B SWAP2 SWAP1 PUSH2 0x2AC8 JUMP JUMPDEST PUSH2 0x1072 JUMP JUMPDEST PUSH1 0x40 MLOAD PUSH2 0x39D SWAP2 SWAP1 PUSH2 0x2E6F JUMP JUMPDEST PUSH1 0x40 MLOAD DUP1 SWAP2 SUB SWAP1 RETURN JUMPDEST CALLVALUE DUP1 ISZERO PUSH2 0x3B1 JUMPI PUSH0 DUP1 REVERT JUMPDEST POP PUSH2 0x3CC PUSH1 0x4 DUP1 CALLDATASIZE SUB DUP2 ADD SWAP1 PUSH2 0x3C7 SWAP2 SWAP1 PUSH2 0x2B59 JUMP JUMPDEST PUSH2 0x1212 JUMP JUMPDEST PUSH1 0x40 MLOAD PUSH2 0x3D9 SWAP2 SWAP1 PUSH2 0x2D03 JUMP JUMPDEST PUSH1 0x40 MLOAD DUP1 SWAP2 SUB SWAP1 RETURN JUMPDEST CALLVALUE DUP1 ISZERO PUSH2 0x3ED JUMPI PUSH0 DUP1 REVERT JUMPDEST POP PUSH2 0x408 PUSH1 0x4 DUP1 CALLDATASIZE SUB DUP2 ADD SWAP1 PUSH2 0x403 SWAP2 SWAP1 PUSH2 0x2AC8 JUMP JUMPDEST PUSH2 0x122F JUMP JUMPDEST STOP JUMPDEST CALLVALUE DUP1 ISZERO PUSH2 0x415 JUMPI PUSH0 DUP1 REVERT JUMPDEST POP PUSH2 0x430 PUSH1 0x4 DUP1 CALLDATASIZE SUB DUP2 ADD SWAP1 PUSH2 0x42B SWAP2 SWAP1 PUSH2 0x2AC8 JUMP JUMPDEST PUSH2 0x14BF JUMP JUMPDEST PUSH1 0x40 MLOAD PUSH2 0x43D SWAP2 SWAP1 PUSH2 0x2E9E JUMP JUMPDEST PUSH1 0x40 MLOAD DUP1 SWAP2 SUB SWAP1 RETURN JUMPDEST PUSH2 0x460 PUSH1 0x4 DUP1 CALLDATASIZE SUB DUP2 ADD SWAP1 PUSH2 0x45B SWAP2 SWAP1 PUSH2 0x2FE3 JUMP JUMPDEST PUSH2 0x14EF JUMP JUMPDEST PUSH1 0x40 MLOAD PUSH2 0x46D SWAP2 SWAP1 PUSH2 0x2D03 JUMP JUMPDEST PUSH1 0x40 MLOAD DUP1 SWAP2 SUB SWAP1 RETURN JUMPDEST CALLVALUE DUP1 ISZERO PUSH2 0x481 JUMPI PUSH0 DUP1 REVERT JUMPDEST POP PUSH2 0x49C PUSH1 0x4 DUP1 CALLDATASIZE SUB DUP2 ADD SWAP1 PUSH2 0x497 SWAP2 SWAP1 PUSH2 0x2AC8 JUMP JUMPDEST PUSH2 0x15EB JUMP JUMPDEST STOP JUMPDEST CALLVALUE DUP1 ISZERO PUSH2 0x4A9 JUMPI PUSH0 DUP1 REVERT JUMPDEST POP PUSH2 0x4C4 PUSH1 0x4 DUP1 CALLDATASIZE SUB DUP2 ADD SWAP1 PUSH2 0x4BF SWAP2 SWAP1 PUSH2 0x2AC8 JUMP JUMPDEST PUSH2 0x16F4 JUMP JUMPDEST STOP JUMPDEST CALLVALUE DUP1 ISZERO PUSH2 0x4D1 JUMPI PUSH0 DUP1 REVERT JUMPDEST POP PUSH2 0x4EC PUSH1 0x4 DUP1 CALLDATASIZE SUB DUP2 ADD SWAP1 PUSH2 0x4E7 SWAP2 SWAP1 PUSH2 0x2AC8 JUMP JUMPDEST PUSH2 0x1873 JUMP JUMPDEST STOP JUMPDEST PUSH2 0x508 PUSH1 0x4 DUP1 CALLDATASIZE SUB DUP2 ADD SWAP1 PUSH2 0x503 SWAP2 SWAP1 PUSH2 0x2AC8 JUMP JUMPDEST PUSH2 0x1A6C JUMP JUMPDEST PUSH1 0x40 MLOAD PUSH2 0x515 SWAP2 SWAP1 PUSH2 0x2D03 JUMP JUMPDEST PUSH1 0x40 MLOAD DUP1 SWAP2 SUB SWAP1 RETURN JUMPDEST CALLVALUE DUP1 ISZERO PUSH2 0x529 JUMPI PUSH0 DUP1 REVERT JUMPDEST POP PUSH2 0x544 PUSH1 0x4 DUP1 CALLDATASIZE SUB DUP2 ADD SWAP1 PUSH2 0x53F SWAP2 SWAP1 PUSH2 0x2AC8 JUMP JUMPDEST PUSH2 0x1E0E JUMP JUMPDEST PUSH1 0x40 MLOAD PUSH2 0x551 SWAP2 SWAP1 PUSH2 0x2D03 JUMP JUMPDEST PUSH1 0x40 MLOAD DUP1 SWAP2 SUB SWAP1 RETURN JUMPDEST CALLVALUE DUP1 ISZERO PUSH2 0x565 JUMPI PUSH0 DUP1 REVERT JUMPDEST POP PUSH2 0x580 PUSH1 0x4 DUP1 CALLDATASIZE SUB DUP2 ADD SWAP1 PUSH2 0x57B SWAP2 SWAP1 PUSH2 0x2AC8 JUMP JUMPDEST PUSH2 0x1FAF JUMP JUMPDEST PUSH1 0x40 MLOAD PUSH2 0x58D SWAP2 SWAP1 PUSH2 0x2D03 JUMP JUMPDEST PUSH1 0x40 MLOAD DUP1 SWAP2 SUB SWAP1 RETURN JUMPDEST DUP1 CALLER PUSH20 0xFFFFFFFFFFFFFFFFFFFFFFFFFFFFFFFFFFFFFFFF AND PUSH0 DUP1 DUP4 DUP2 MSTORE PUSH1 0x20 ADD SWAP1 DUP2 MSTORE PUSH1 0x20 ADD PUSH0 KECCAK256 PUSH0 SWAP1 SLOAD SWAP1 PUSH2 0x100 EXP SWAP1 DIV PUSH20 0xFFFFFFFFFFFFFFFFFFFFFFFFFFFFFFFFFFFFFFFF AND PUSH20 0xFFFFFFFFFFFFFFFFFFFFFFFFFFFFFFFFFFFFFFFF AND EQ PUSH2 0x634 JUMPI PUSH1 0x40 MLOAD PUSH32 0x8C379A000000000000000000000000000000000000000000000000000000000 DUP2 MSTORE PUSH1 0x4 ADD PUSH2 0x62B SWAP1 PUSH2 0x30B3 JUMP JUMPDEST PUSH1 0x40 MLOAD DUP1 SWAP2 SUB SWAP1 REVERT JUMPDEST DUP2 PUSH1 0x7 PUSH0 CALLER PUSH20 0xFFFFFFFFFFFFFFFFFFFFFFFFFFFFFFFFFFFFFFFF AND PUSH20 0xFFFFFFFFFFFFFFFFFFFFFFFFFFFFFFFFFFFFFFFF AND DUP2 MSTORE PUSH1 0x20 ADD SWAP1 DUP2 MSTORE PUSH1 0x20 ADD PUSH0 KECCAK256 PUSH0 DUP6 PUSH20 0xFFFFFFFFFFFFFFFFFFFFFFFFFFFFFFFFFFFFFFFF AND PUSH20 0xFFFFFFFFFFFFFFFFFFFFFFFFFFFFFFFFFFFFFFFF AND DUP2 MSTORE PUSH1 0x20 ADD SWAP1 DUP2 MSTORE PUSH1 0x20 ADD PUSH0 KECCAK256 DUP2 SWAP1 SSTORE POP DUP3 PUSH1 0x8 PUSH0 CALLER PUSH20 0xFFFFFFFFFFFFFFFFFFFFFFFFFFFFFFFFFFFFFFFF AND PUSH20 0xFFFFFFFFFFFFFFFFFFFFFFFFFFFFFFFFFFFFFFFF AND DUP2 MSTORE PUSH1 0x20 ADD SWAP1 DUP2 MSTORE PUSH1 0x20 ADD PUSH0 KECCAK256 PUSH0 PUSH2 0x100 EXP DUP2 SLOAD DUP2 PUSH20 0xFFFFFFFFFFFFFFFFFFFFFFFFFFFFFFFFFFFFFFFF MUL NOT AND SWAP1 DUP4 PUSH20 0xFFFFFFFFFFFFFFFFFFFFFFFFFFFFFFFFFFFFFFFF AND MUL OR SWAP1 SSTORE POP POP POP POP JUMP JUMPDEST PUSH1 0x9 PUSH1 0x20 MSTORE DUP1 PUSH0 MSTORE PUSH1 0x40 PUSH0 KECCAK256 PUSH0 SWAP2 POP SWAP1 POP SLOAD DUP2 JUMP JUMPDEST DUP2 CALLER PUSH20 0xFFFFFFFFFFFFFFFFFFFFFFFFFFFFFFFFFFFFFFFF AND PUSH0 DUP1 DUP4 DUP2 MSTORE PUSH1 0x20 ADD SWAP1 DUP2 MSTORE PUSH1 0x20 ADD PUSH0 KECCAK256 PUSH0 SWAP1 SLOAD SWAP1 PUSH2 0x100 EXP SWAP1 DIV PUSH20 0xFFFFFFFFFFFFFFFFFFFFFFFFFFFFFFFFFFFFFFFF AND PUSH20 0xFFFFFFFFFFFFFFFFFFFFFFFFFFFFFFFFFFFFFFFF AND EQ PUSH2 0x7E4 JUMPI PUSH1 0x40 MLOAD PUSH32 0x8C379A000000000000000000000000000000000000000000000000000000000 DUP2 MSTORE PUSH1 0x4 ADD PUSH2 0x7DB SWAP1 PUSH2 0x30B3 JUMP JUMPDEST PUSH1 0x40 MLOAD DUP1 SWAP2 SUB SWAP1 REVERT JUMPDEST PUSH1 0x6 PUSH0 DUP5 DUP2 MSTORE PUSH1 0x20 ADD SWAP1 DUP2 MSTORE PUSH1 0x20 ADD PUSH0 KECCAK256 PUSH0 SWAP1 SLOAD SWAP1 PUSH2 0x100 EXP SWAP1 DIV PUSH1 0xFF AND ISZERO DUP1 ISZERO PUSH2 0x880 JUMPI POP PUSH1 0x40 MLOAD DUP1 PUSH1 0x40 ADD PUSH1 0x40 MSTORE DUP1 PUSH1 0x7 DUP2 MSTORE PUSH1 0x20 ADD PUSH32 0x7072656D69756D00000000000000000000000000000000000000000000000000 DUP2 MSTORE POP DUP1 MLOAD SWAP1 PUSH1 0x20 ADD KECCAK256 PUSH1 0x3 DUP5 DUP2 SLOAD DUP2 LT PUSH2 0x85B JUMPI PUSH2 0x85A PUSH2 0x30D1 JUMP JUMPDEST JUMPDEST SWAP1 PUSH0 MSTORE PUSH1 0x20 PUSH0 KECCAK256 SWAP1 PUSH1 0x9 MUL ADD PUSH0 ADD PUSH1 0x40 MLOAD PUSH2 0x876 SWAP2 SWAP1 PUSH2 0x31F7 JUMP JUMPDEST PUSH1 0x40 MLOAD DUP1 SWAP2 SUB SWAP1 KECCAK256 EQ JUMPDEST PUSH2 0x8BF JUMPI PUSH1 0x40 MLOAD PUSH32 0x8C379A000000000000000000000000000000000000000000000000000000000 DUP2 MSTORE PUSH1 0x4 ADD PUSH2 0x8B6 SWAP1 PUSH2 0x3257 JUMP JUMPDEST PUSH1 0x40 MLOAD DUP1 SWAP2 SUB SWAP1 REVERT JUMPDEST PUSH8 0xDE0B6B3A7640000 DUP3 PUSH2 0x8D3 SWAP2 SWAP1 PUSH2 0x32A2 JUMP JUMPDEST PUSH1 0xD PUSH0 DUP6 DUP2 MSTORE PUSH1 0x20 ADD SWAP1 DUP2 MSTORE PUSH1 0x20 ADD PUSH0 KECCAK256 DUP2 SWAP1 SSTORE POP PUSH1 0x1 PUSH1 0x6 PUSH0 DUP6 DUP2 MSTORE PUSH1 0x20 ADD SWAP1 DUP2 MSTORE PUSH1 0x20 ADD PUSH0 KECCAK256 PUSH0 PUSH2 0x100 EXP DUP2 SLOAD DUP2 PUSH1 0xFF MUL NOT AND SWAP1 DUP4 ISZERO ISZERO MUL OR SWAP1 SSTORE POP PUSH0 PUSH1 0x1E TIMESTAMP PUSH2 0x91F SWAP2 SWAP1 PUSH2 0x32FF JUMP JUMPDEST SWAP1 POP DUP1 PUSH1 0x9 PUSH0 DUP7 DUP2 MSTORE PUSH1 0x20 ADD SWAP1 DUP2 MSTORE PUSH1 0x20 ADD PUSH0 KECCAK256 DUP2 SWAP1 SSTORE POP POP POP POP POP JUMP JUMPDEST PUSH1 0xE PUSH1 0x20 MSTORE DUP1 PUSH0 MSTORE PUSH1 0x40 PUSH0 KECCAK256 PUSH0 SWAP2 POP SWAP1 POP SLOAD DUP2 JUMP JUMPDEST PUSH1 0x60 PUSH0 PUSH1 0x1 PUSH0 DUP5 PUSH20 0xFFFFFFFFFFFFFFFFFFFFFFFFFFFFFFFFFFFFFFFF AND PUSH20 0xFFFFFFFFFFFFFFFFFFFFFFFFFFFFFFFFFFFFFFFF AND DUP2 MSTORE PUSH1 0x20 ADD SWAP1 DUP2 MSTORE PUSH1 0x20 ADD PUSH0 KECCAK256 SLOAD PUSH8 0xFFFFFFFFFFFFFFFF DUP2 GT ISZERO PUSH2 0x9AC JUMPI PUSH2 0x9AB PUSH2 0x2EBF JUMP JUMPDEST JUMPDEST PUSH1 0x40 MLOAD SWAP1 DUP1 DUP3 MSTORE DUP1 PUSH1 0x20 MUL PUSH1 0x20 ADD DUP3 ADD PUSH1 0x40 MSTORE DUP1 ISZERO PUSH2 0x9DA JUMPI DUP2 PUSH1 0x20 ADD PUSH1 0x20 DUP3 MUL DUP1 CALLDATASIZE DUP4 CALLDATACOPY DUP1 DUP3 ADD SWAP2 POP POP SWAP1 POP JUMPDEST POP SWAP1 POP PUSH0 DUP1 JUMPDEST PUSH1 0x3 DUP1 SLOAD SWAP1 POP DUP2 LT ISZERO PUSH2 0xA91 JUMPI DUP5 PUSH20 0xFFFFFFFFFFFFFFFFFFFFFFFFFFFFFFFFFFFFFFFF AND PUSH0 DUP1 DUP4 DUP2 MSTORE PUSH1 0x20 ADD SWAP1 DUP2 MSTORE PUSH1 0x20 ADD PUSH0 KECCAK256 PUSH0 SWAP1 SLOAD SWAP1 PUSH2 0x100 EXP SWAP1 DIV PUSH20 0xFFFFFFFFFFFFFFFFFFFFFFFFFFFFFFFFFFFFFFFF AND PUSH20 0xFFFFFFFFFFFFFFFFFFFFFFFFFFFFFFFFFFFFFFFF AND SUB PUSH2 0xA7E JUMPI DUP1 DUP4 DUP4 DUP2 MLOAD DUP2 LT PUSH2 0xA63 JUMPI PUSH2 0xA62 PUSH2 0x30D1 JUMP JUMPDEST JUMPDEST PUSH1 0x20 MUL PUSH1 0x20 ADD ADD DUP2 DUP2 MSTORE POP POP DUP2 DUP1 PUSH2 0xA7A SWAP1 PUSH2 0x3332 JUMP JUMPDEST SWAP3 POP POP JUMPDEST DUP1 DUP1 PUSH2 0xA89 SWAP1 PUSH2 0x3332 JUMP JUMPDEST SWAP2 POP POP PUSH2 0x9E0 JUMP JUMPDEST POP DUP2 SWAP3 POP POP POP SWAP2 SWAP1 POP JUMP JUMPDEST PUSH1 0x7 PUSH1 0x20 MSTORE DUP2 PUSH0 MSTORE PUSH1 0x40 PUSH0 KECCAK256 PUSH1 0x20 MSTORE DUP1 PUSH0 MSTORE PUSH1 0x40 PUSH0 KECCAK256 PUSH0 SWAP2 POP SWAP2 POP POP SLOAD DUP2 JUMP JUMPDEST PUSH1 0xD PUSH1 0x20 MSTORE DUP1 PUSH0 MSTORE PUSH1 0x40 PUSH0 KECCAK256 PUSH0 SWAP2 POP SWAP1 POP SLOAD DUP2 JUMP JUMPDEST DUP1 CALLER PUSH20 0xFFFFFFFFFFFFFFFFFFFFFFFFFFFFFFFFFFFFFFFF AND PUSH0 DUP1 DUP4 DUP2 MSTORE PUSH1 0x20 ADD SWAP1 DUP2 MSTORE PUSH1 0x20 ADD PUSH0 KECCAK256 PUSH0 SWAP1 SLOAD SWAP1 PUSH2 0x100 EXP SWAP1 DIV PUSH20 0xFFFFFFFFFFFFFFFFFFFFFFFFFFFFFFFFFFFFFFFF AND PUSH20 0xFFFFFFFFFFFFFFFFFFFFFFFFFFFFFFFFFFFFFFFF AND EQ PUSH2 0xB6F JUMPI PUSH1 0x40 MLOAD PUSH32 0x8C379A000000000000000000000000000000000000000000000000000000000 DUP2 MSTORE PUSH1 0x4 ADD PUSH2 0xB66 SWAP1 PUSH2 0x30B3 JUMP JUMPDEST PUSH1 0x40 MLOAD DUP1 SWAP2 SUB SWAP1 REVERT JUMPDEST PUSH1 0x40 MLOAD DUP1 PUSH1 0x40 ADD PUSH1 0x40 MSTORE DUP1 PUSH1 0x7 DUP2 MSTORE PUSH1 0x20 ADD PUSH32 0x7072656D69756D00000000000000000000000000000000000000000000000000 DUP2 MSTORE POP DUP1 MLOAD SWAP1 PUSH1 0x20 ADD KECCAK256 PUSH1 0x3 DUP4 DUP2 SLOAD DUP2 LT PUSH2 0xBC0 JUMPI PUSH2 0xBBF PUSH2 0x30D1 JUMP JUMPDEST JUMPDEST SWAP1 PUSH0 MSTORE PUSH1 0x20 PUSH0 KECCAK256 SWAP1 PUSH1 0x9 MUL ADD PUSH0 ADD PUSH1 0x40 MLOAD PUSH2 0xBDB SWAP2 SWAP1 PUSH2 0x31F7 JUMP JUMPDEST PUSH1 0x40 MLOAD DUP1 SWAP2 SUB SWAP1 KECCAK256 EQ PUSH2 0xC23 JUMPI PUSH1 0x40 MLOAD PUSH32 0x8C379A000000000000000000000000000000000000000000000000000000000 DUP2 MSTORE PUSH1 0x4 ADD PUSH2 0xC1A SWAP1 PUSH2 0x33C3 JUMP JUMPDEST PUSH1 0x40 MLOAD DUP1 SWAP2 SUB SWAP1 REVERT JUMPDEST PUSH1 0x6 PUSH0 DUP4 DUP2 MSTORE PUSH1 0x20 ADD SWAP1 DUP2 MSTORE PUSH1 0x20 ADD PUSH0 KECCAK256 PUSH0 SWAP1 SLOAD SWAP1 PUSH2 0x100 EXP SWAP1 DIV PUSH1 0xFF AND ISZERO PUSH2 0xC81 JUMPI PUSH1 0x40 MLOAD PUSH32 0x8C379A000000000000000000000000000000000000000000000000000000000 DUP2 MSTORE PUSH1 0x4 ADD PUSH2 0xC78 SWAP1 PUSH2 0x342B JUMP JUMPDEST PUSH1 0x40 MLOAD DUP1 SWAP2 SUB SWAP1 REVERT JUMPDEST DUP4 PUSH20 0xFFFFFFFFFFFFFFFFFFFFFFFFFFFFFFFFFFFFFFFF AND PUSH0 DUP1 DUP5 DUP2 MSTORE PUSH1 0x20 ADD SWAP1 DUP2 MSTORE PUSH1 0x20 ADD PUSH0 KECCAK256 PUSH0 SWAP1 SLOAD SWAP1 PUSH2 0x100 EXP SWAP1 DIV PUSH20 0xFFFFFFFFFFFFFFFFFFFFFFFFFFFFFFFFFFFFFFFF AND PUSH20 0xFFFFFFFFFFFFFFFFFFFFFFFFFFFFFFFFFFFFFFFF AND EQ DUP1 PUSH2 0xD71 JUMPI POP CALLER PUSH20 0xFFFFFFFFFFFFFFFFFFFFFFFFFFFFFFFFFFFFFFFF AND PUSH1 0x8 PUSH0 DUP7 PUSH20 0xFFFFFFFFFFFFFFFFFFFFFFFFFFFFFFFFFFFFFFFF AND PUSH20 0xFFFFFFFFFFFFFFFFFFFFFFFFFFFFFFFFFFFFFFFF AND DUP2 MSTORE PUSH1 0x20 ADD SWAP1 DUP2 MSTORE PUSH1 0x20 ADD PUSH0 KECCAK256 PUSH0 SWAP1 SLOAD SWAP1 PUSH2 0x100 EXP SWAP1 DIV PUSH20 0xFFFFFFFFFFFFFFFFFFFFFFFFFFFFFFFFFFFFFFFF AND PUSH20 0xFFFFFFFFFFFFFFFFFFFFFFFFFFFFFFFFFFFFFFFF AND EQ JUMPDEST PUSH2 0xDB0 JUMPI PUSH1 0x40 MLOAD PUSH32 0x8C379A000000000000000000000000000000000000000000000000000000000 DUP2 MSTORE PUSH1 0x4 ADD PUSH2 0xDA7 SWAP1 PUSH2 0x3493 JUMP JUMPDEST PUSH1 0x40 MLOAD DUP1 SWAP2 SUB SWAP1 REVERT JUMPDEST DUP3 PUSH0 DUP1 DUP5 DUP2 MSTORE PUSH1 0x20 ADD SWAP1 DUP2 MSTORE PUSH1 0x20 ADD PUSH0 KECCAK256 PUSH0 PUSH2 0x100 EXP DUP2 SLOAD DUP2 PUSH20 0xFFFFFFFFFFFFFFFFFFFFFFFFFFFFFFFFFFFFFFFF MUL NOT AND SWAP1 DUP4 PUSH20 0xFFFFFFFFFFFFFFFFFFFFFFFFFFFFFFFFFFFFFFFF AND MUL OR SWAP1 SSTORE POP PUSH1 0x1 PUSH0 DUP6 PUSH20 0xFFFFFFFFFFFFFFFFFFFFFFFFFFFFFFFFFFFFFFFF AND PUSH20 0xFFFFFFFFFFFFFFFFFFFFFFFFFFFFFFFFFFFFFFFF AND DUP2 MSTORE PUSH1 0x20 ADD SWAP1 DUP2 MSTORE PUSH1 0x20 ADD PUSH0 KECCAK256 PUSH0 DUP2 SLOAD DUP1 SWAP3 SWAP2 SWAP1 PUSH2 0xE4B SWAP1 PUSH2 0x34B1 JUMP JUMPDEST SWAP2 SWAP1 POP SSTORE POP PUSH1 0x1 PUSH0 DUP5 PUSH20 0xFFFFFFFFFFFFFFFFFFFFFFFFFFFFFFFFFFFFFFFF AND PUSH20 0xFFFFFFFFFFFFFFFFFFFFFFFFFFFFFFFFFFFFFFFF AND DUP2 MSTORE PUSH1 0x20 ADD SWAP1 DUP2 MSTORE PUSH1 0x20 ADD PUSH0 KECCAK256 PUSH0 DUP2 SLOAD DUP1 SWAP3 SWAP2 SWAP1 PUSH2 0xE9D SWAP1 PUSH2 0x3332 JUMP JUMPDEST SWAP2 SWAP1 POP SSTORE POP POP POP POP POP JUMP JUMPDEST PUSH1 0xB PUSH1 0x20 MSTORE DUP1 PUSH0 MSTORE PUSH1 0x40 PUSH0 KECCAK256 PUSH0 SWAP2 POP SLOAD SWAP1 PUSH2 0x100 EXP SWAP1 DIV PUSH1 0xFF AND DUP2 JUMP JUMPDEST PUSH1 0xA PUSH1 0x20 MSTORE DUP1 PUSH0 MSTORE PUSH1 0x40 PUSH0 KECCAK256 PUSH0 SWAP2 POP SLOAD SWAP1 PUSH2 0x100 EXP SWAP1 DIV PUSH1 0xFF AND DUP2 JUMP JUMPDEST PUSH0 PUSH1 0x1 PUSH0 CALLER PUSH20 0xFFFFFFFFFFFFFFFFFFFFFFFFFFFFFFFFFFFFFFFF AND PUSH20 0xFFFFFFFFFFFFFFFFFFFFFFFFFFFFFFFFFFFFFFFF AND DUP2 MSTORE PUSH1 0x20 ADD SWAP1 DUP2 MSTORE PUSH1 0x20 ADD PUSH0 KECCAK256 SLOAD EQ PUSH2 0xF61 JUMPI PUSH1 0x40 MLOAD PUSH32 0x8C379A000000000000000000000000000000000000000000000000000000000 DUP2 MSTORE PUSH1 0x4 ADD PUSH2 0xF58 SWAP1 PUSH2 0x3522 JUMP JUMPDEST PUSH1 0x40 MLOAD DUP1 SWAP2 SUB SWAP1 REVERT JUMPDEST PUSH1 0x1 PUSH1 0x5 PUSH0 CALLER PUSH20 0xFFFFFFFFFFFFFFFFFFFFFFFFFFFFFFFFFFFFFFFF AND PUSH20 0xFFFFFFFFFFFFFFFFFFFFFFFFFFFFFFFFFFFFFFFF AND DUP2 MSTORE PUSH1 0x20 ADD SWAP1 DUP2 MSTORE PUSH1 0x20 ADD PUSH0 KECCAK256 PUSH0 PUSH2 0x100 EXP DUP2 SLOAD DUP2 PUSH1 0xFF MUL NOT AND SWAP1 DUP4 ISZERO ISZERO MUL OR SWAP1 SSTORE POP PUSH2 0x1070 PUSH1 0x40 MLOAD DUP1 PUSH1 0x40 ADD PUSH1 0x40 MSTORE DUP1 PUSH1 0x4 DUP2 MSTORE PUSH1 0x20 ADD PUSH32 0x4672656500000000000000000000000000000000000000000000000000000000 DUP2 MSTORE POP PUSH1 0x40 MLOAD DUP1 PUSH1 0x40 ADD PUSH1 0x40 MSTORE DUP1 PUSH1 0xA DUP2 MSTORE PUSH1 0x20 ADD PUSH32 0x467265655A6F6D62696500000000000000000000000000000000000000000000 DUP2 MSTORE POP PUSH2 0x1063 PUSH1 0x40 MLOAD DUP1 PUSH1 0x40 ADD PUSH1 0x40 MSTORE DUP1 PUSH1 0x4 DUP2 MSTORE PUSH1 0x20 ADD PUSH32 0x6672656500000000000000000000000000000000000000000000000000000000 DUP2 MSTORE POP PUSH2 0x1FCC JUMP JUMPDEST PUSH1 0x1 PUSH0 DUP1 PUSH1 0x2 PUSH0 DUP1 PUSH2 0x200F JUMP JUMPDEST JUMP JUMPDEST PUSH2 0x107A PUSH2 0x29A7 JUMP JUMPDEST PUSH1 0x3 DUP3 DUP2 SLOAD DUP2 LT PUSH2 0x108E JUMPI PUSH2 0x108D PUSH2 0x30D1 JUMP JUMPDEST JUMPDEST SWAP1 PUSH0 MSTORE PUSH1 0x20 PUSH0 KECCAK256 SWAP1 PUSH1 0x9 MUL ADD PUSH1 0x40 MLOAD DUP1 PUSH2 0x120 ADD PUSH1 0x40 MSTORE SWAP1 DUP2 PUSH0 DUP3 ADD DUP1 SLOAD PUSH2 0x10B5 SWAP1 PUSH2 0x312B JUMP JUMPDEST DUP1 PUSH1 0x1F ADD PUSH1 0x20 DUP1 SWAP2 DIV MUL PUSH1 0x20 ADD PUSH1 0x40 MLOAD SWAP1 DUP2 ADD PUSH1 0x40 MSTORE DUP1 SWAP3 SWAP2 SWAP1 DUP2 DUP2 MSTORE PUSH1 0x20 ADD DUP3 DUP1 SLOAD PUSH2 0x10E1 SWAP1 PUSH2 0x312B JUMP JUMPDEST DUP1 ISZERO PUSH2 0x112C JUMPI DUP1 PUSH1 0x1F LT PUSH2 0x1103 JUMPI PUSH2 0x100 DUP1 DUP4 SLOAD DIV MUL DUP4 MSTORE SWAP2 PUSH1 0x20 ADD SWAP2 PUSH2 0x112C JUMP JUMPDEST DUP3 ADD SWAP2 SWAP1 PUSH0 MSTORE PUSH1 0x20 PUSH0 KECCAK256 SWAP1 JUMPDEST DUP2 SLOAD DUP2 MSTORE SWAP1 PUSH1 0x1 ADD SWAP1 PUSH1 0x20 ADD DUP1 DUP4 GT PUSH2 0x110F JUMPI DUP3 SWAP1 SUB PUSH1 0x1F AND DUP3 ADD SWAP2 JUMPDEST POP POP POP POP POP DUP2 MSTORE PUSH1 0x20 ADD PUSH1 0x1 DUP3 ADD DUP1 SLOAD PUSH2 0x1145 SWAP1 PUSH2 0x312B JUMP JUMPDEST DUP1 PUSH1 0x1F ADD PUSH1 0x20 DUP1 SWAP2 DIV MUL PUSH1 0x20 ADD PUSH1 0x40 MLOAD SWAP1 DUP2 ADD PUSH1 0x40 MSTORE DUP1 SWAP3 SWAP2 SWAP1 DUP2 DUP2 MSTORE PUSH1 0x20 ADD DUP3 DUP1 SLOAD PUSH2 0x1171 SWAP1 PUSH2 0x312B JUMP JUMPDEST DUP1 ISZERO PUSH2 0x11BC JUMPI DUP1 PUSH1 0x1F LT PUSH2 0x1193 JUMPI PUSH2 0x100 DUP1 DUP4 SLOAD DIV MUL DUP4 MSTORE SWAP2 PUSH1 0x20 ADD SWAP2 PUSH2 0x11BC JUMP JUMPDEST DUP3 ADD SWAP2 SWAP1 PUSH0 MSTORE PUSH1 0x20 PUSH0 KECCAK256 SWAP1 JUMPDEST DUP2 SLOAD DUP2 MSTORE SWAP1 PUSH1 0x1 ADD SWAP1 PUSH1 0x20 ADD DUP1 DUP4 GT PUSH2 0x119F JUMPI DUP3 SWAP1 SUB PUSH1 0x1F AND DUP3 ADD SWAP2 JUMPDEST POP POP POP POP POP DUP2 MSTORE PUSH1 0x20 ADD PUSH1 0x2 DUP3 ADD SLOAD DUP2 MSTORE PUSH1 0x20 ADD PUSH1 0x3 DUP3 ADD SLOAD DUP2 MSTORE PUSH1 0x20 ADD PUSH1 0x4 DUP3 ADD SLOAD DUP2 MSTORE PUSH1 0x20 ADD PUSH1 0x5 DUP3 ADD SLOAD DUP2 MSTORE PUSH1 0x20 ADD PUSH1 0x6 DUP3 ADD SLOAD DUP2 MSTORE PUSH1 0x20 ADD PUSH1 0x7 DUP3 ADD SLOAD DUP2 MSTORE PUSH1 0x20 ADD PUSH1 0x8 DUP3 ADD SLOAD DUP2 MSTORE POP POP SWAP1 POP SWAP2 SWAP1 POP JUMP JUMPDEST PUSH1 0x5 PUSH1 0x20 MSTORE DUP1 PUSH0 MSTORE PUSH1 0x40 PUSH0 KECCAK256 PUSH0 SWAP2 POP SLOAD SWAP1 PUSH2 0x100 EXP SWAP1 DIV PUSH1 0xFF AND DUP2 JUMP JUMPDEST CALLER PUSH20 0xFFFFFFFFFFFFFFFFFFFFFFFFFFFFFFFFFFFFFFFF AND PUSH1 0xC PUSH0 DUP4 DUP2 MSTORE PUSH1 0x20 ADD SWAP1 DUP2 MSTORE PUSH1 0x20 ADD PUSH0 KECCAK256 PUSH0 SWAP1 SLOAD SWAP1 PUSH2 0x100 EXP SWAP1 DIV PUSH20 0xFFFFFFFFFFFFFFFFFFFFFFFFFFFFFFFFFFFFFFFF AND PUSH20 0xFFFFFFFFFFFFFFFFFFFFFFFFFFFFFFFFFFFFFFFF AND EQ DUP1 ISZERO PUSH2 0x12AA JUMPI POP TIMESTAMP PUSH1 0x9 PUSH0 DUP4 DUP2 MSTORE PUSH1 0x20 ADD SWAP1 DUP2 MSTORE PUSH1 0x20 ADD PUSH0 KECCAK256 SLOAD GT JUMPDEST DUP1 PUSH2 0x1302 JUMPI POP PUSH1 0x1 ISZERO ISZERO PUSH1 0x5 PUSH0 CALLER PUSH20 0xFFFFFFFFFFFFFFFFFFFFFFFFFFFFFFFFFFFFFFFF AND PUSH20 0xFFFFFFFFFFFFFFFFFFFFFFFFFFFFFFFFFFFFFFFF AND DUP2 MSTORE PUSH1 0x20 ADD SWAP1 DUP2 MSTORE PUSH1 0x20 ADD PUSH0 KECCAK256 PUSH0 SWAP1 SLOAD SWAP1 PUSH2 0x100 EXP SWAP1 DIV PUSH1 0xFF AND ISZERO ISZERO EQ JUMPDEST ISZERO PUSH2 0x1414 JUMPI PUSH0 PUSH1 0x3 DUP3 DUP2 SLOAD DUP2 LT PUSH2 0x131C JUMPI PUSH2 0x131B PUSH2 0x30D1 JUMP JUMPDEST JUMPDEST SWAP1 PUSH0 MSTORE PUSH1 0x20 PUSH0 KECCAK256 SWAP1 PUSH1 0x9 MUL ADD PUSH1 0x7 ADD SLOAD SWAP1 POP PUSH2 0x1337 DUP3 PUSH2 0x21AB JUMP JUMPDEST POP DUP1 PUSH1 0x3 DUP4 DUP2 SLOAD DUP2 LT PUSH2 0x134D JUMPI PUSH2 0x134C PUSH2 0x30D1 JUMP JUMPDEST JUMPDEST SWAP1 PUSH0 MSTORE PUSH1 0x20 PUSH0 KECCAK256 SWAP1 PUSH1 0x9 MUL ADD PUSH1 0x7 ADD SLOAD GT DUP1 ISZERO PUSH2 0x13A7 JUMPI POP PUSH1 0x1 DUP1 PUSH0 CALLER PUSH20 0xFFFFFFFFFFFFFFFFFFFFFFFFFFFFFFFFFFFFFFFF AND PUSH20 0xFFFFFFFFFFFFFFFFFFFFFFFFFFFFFFFFFFFFFFFF AND DUP2 MSTORE PUSH1 0x20 ADD SWAP1 DUP2 MSTORE PUSH1 0x20 ADD PUSH0 KECCAK256 SLOAD LT ISZERO JUMPDEST ISZERO PUSH2 0x140E JUMPI PUSH0 PUSH2 0x13B6 CALLER PUSH2 0x952 JUMP JUMPDEST SWAP1 POP PUSH1 0x1 PUSH1 0x3 DUP3 PUSH0 DUP2 MLOAD DUP2 LT PUSH2 0x13CF JUMPI PUSH2 0x13CE PUSH2 0x30D1 JUMP JUMPDEST JUMPDEST PUSH1 0x20 MUL PUSH1 0x20 ADD ADD MLOAD DUP2 SLOAD DUP2 LT PUSH2 0x13E8 JUMPI PUSH2 0x13E7 PUSH2 0x30D1 JUMP JUMPDEST JUMPDEST SWAP1 PUSH0 MSTORE PUSH1 0x20 PUSH0 KECCAK256 SWAP1 PUSH1 0x9 MUL ADD PUSH1 0x3 ADD PUSH0 DUP3 DUP3 SLOAD PUSH2 0x1405 SWAP2 SWAP1 PUSH2 0x32FF JUMP JUMPDEST SWAP3 POP POP DUP2 SWAP1 SSTORE POP POP JUMPDEST POP PUSH2 0x14BC JUMP JUMPDEST CALLER PUSH20 0xFFFFFFFFFFFFFFFFFFFFFFFFFFFFFFFFFFFFFFFF AND PUSH0 DUP1 DUP4 DUP2 MSTORE PUSH1 0x20 ADD SWAP1 DUP2 MSTORE PUSH1 0x20 ADD PUSH0 KECCAK256 PUSH0 SWAP1 SLOAD SWAP1 PUSH2 0x100 EXP SWAP1 DIV PUSH20 0xFFFFFFFFFFFFFFFFFFFFFFFFFFFFFFFFFFFFFFFF AND PUSH20 0xFFFFFFFFFFFFFFFFFFFFFFFFFFFFFFFFFFFFFFFF AND EQ PUSH2 0x14B1 JUMPI PUSH1 0x40 MLOAD PUSH32 0x8C379A000000000000000000000000000000000000000000000000000000000 DUP2 MSTORE PUSH1 0x4 ADD PUSH2 0x14A8 SWAP1 PUSH2 0x358A JUMP JUMPDEST PUSH1 0x40 MLOAD DUP1 SWAP2 SUB SWAP1 REVERT JUMPDEST PUSH2 0x14BA DUP2 PUSH2 0x21AB JUMP JUMPDEST POP JUMPDEST POP JUMP JUMPDEST PUSH1 0xC PUSH1 0x20 MSTORE DUP1 PUSH0 MSTORE PUSH1 0x40 PUSH0 KECCAK256 PUSH0 SWAP2 POP SLOAD SWAP1 PUSH2 0x100 EXP SWAP1 DIV PUSH20 0xFFFFFFFFFFFFFFFFFFFFFFFFFFFFFFFFFFFFFFFF AND DUP2 JUMP JUMPDEST PUSH0 PUSH8 0xDE0B6B3A7640000 CALLVALUE EQ PUSH2 0x153A JUMPI PUSH1 0x40 MLOAD PUSH32 0x8C379A000000000000000000000000000000000000000000000000000000000 DUP2 MSTORE PUSH1 0x4 ADD PUSH2 0x1531 SWAP1 PUSH2 0x35F2 JUMP JUMPDEST PUSH1 0x40 MLOAD DUP1 SWAP2 SUB SWAP1 REVERT JUMPDEST PUSH1 0x40 MLOAD DUP1 PUSH1 0x40 ADD PUSH1 0x40 MSTORE DUP1 PUSH1 0x7 DUP2 MSTORE PUSH1 0x20 ADD PUSH32 0x7072656D69756D00000000000000000000000000000000000000000000000000 DUP2 MSTORE POP DUP1 MLOAD SWAP1 PUSH1 0x20 ADD KECCAK256 DUP4 DUP1 MLOAD SWAP1 PUSH1 0x20 ADD KECCAK256 EQ PUSH2 0x15BF JUMPI PUSH1 0x40 MLOAD PUSH32 0x8C379A000000000000000000000000000000000000000000000000000000000 DUP2 MSTORE PUSH1 0x4 ADD PUSH2 0x15B6 SWAP1 PUSH2 0x365A JUMP JUMPDEST PUSH1 0x40 MLOAD DUP1 SWAP2 SUB SWAP1 REVERT JUMPDEST PUSH0 PUSH2 0x15C9 DUP4 PUSH2 0x1FCC JUMP JUMPDEST SWAP1 POP PUSH2 0x15E0 DUP5 DUP5 DUP4 PUSH1 0x5 PUSH2 0x1F4 PUSH0 PUSH1 0x5 PUSH0 DUP1 PUSH2 0x200F JUMP JUMPDEST PUSH1 0x1 SWAP2 POP POP SWAP3 SWAP2 POP POP JUMP JUMPDEST PUSH2 0x15F3 PUSH2 0x2894 JUMP JUMPDEST PUSH0 PUSH1 0x3 DUP3 DUP2 SLOAD DUP2 LT PUSH2 0x1608 JUMPI PUSH2 0x1607 PUSH2 0x30D1 JUMP JUMPDEST JUMPDEST SWAP1 PUSH0 MSTORE PUSH1 0x20 PUSH0 KECCAK256 SWAP1 PUSH1 0x9 MUL ADD PUSH1 0x3 ADD SLOAD NUMBER PREVRANDAO CHAINID TIMESTAMP PUSH2 0x1626 SWAP2 SWAP1 PUSH2 0x3678 JUMP JUMPDEST PUSH2 0x1630 SWAP2 SWAP1 PUSH2 0x3678 JUMP JUMPDEST PUSH2 0x163A SWAP2 SWAP1 PUSH2 0x3678 JUMP JUMPDEST PUSH1 0x40 MLOAD PUSH1 0x20 ADD PUSH2 0x164A SWAP2 SWAP1 PUSH2 0x36D9 JUMP JUMPDEST PUSH1 0x40 MLOAD PUSH1 0x20 DUP2 DUP4 SUB SUB DUP2 MSTORE SWAP1 PUSH1 0x40 MSTORE DUP1 MLOAD SWAP1 PUSH1 0x20 ADD KECCAK256 PUSH0 SHR PUSH2 0x166C SWAP2 SWAP1 PUSH2 0x32A2 JUMP JUMPDEST SWAP1 POP PUSH1 0x4 DUP2 DUP2 SLOAD DUP2 LT PUSH2 0x1682 JUMPI PUSH2 0x1681 PUSH2 0x30D1 JUMP JUMPDEST JUMPDEST SWAP1 PUSH0 MSTORE PUSH1 0x20 PUSH0 KECCAK256 ADD PUSH0 ADD SLOAD PUSH1 0x3 DUP4 DUP2 SLOAD DUP2 LT PUSH2 0x16A1 JUMPI PUSH2 0x16A0 PUSH2 0x30D1 JUMP JUMPDEST JUMPDEST SWAP1 PUSH0 MSTORE PUSH1 0x20 PUSH0 KECCAK256 SWAP1 PUSH1 0x9 MUL ADD PUSH1 0x3 ADD SLOAD GT ISZERO PUSH2 0x16F0 JUMPI PUSH1 0x3 DUP3 DUP2 SLOAD DUP2 LT PUSH2 0x16CB JUMPI PUSH2 0x16CA PUSH2 0x30D1 JUMP JUMPDEST JUMPDEST SWAP1 PUSH0 MSTORE PUSH1 0x20 PUSH0 KECCAK256 SWAP1 PUSH1 0x9 MUL ADD PUSH1 0x3 ADD PUSH0 DUP2 SLOAD DUP1 SWAP3 SWAP2 SWAP1 PUSH2 0x16EA SWAP1 PUSH2 0x3332 JUMP JUMPDEST SWAP2 SWAP1 POP SSTORE POP JUMPDEST POP POP JUMP JUMPDEST DUP1 CALLER PUSH20 0xFFFFFFFFFFFFFFFFFFFFFFFFFFFFFFFFFFFFFFFF AND PUSH0 DUP1 DUP4 DUP2 MSTORE PUSH1 0x20 ADD SWAP1 DUP2 MSTORE PUSH1 0x20 ADD PUSH0 KECCAK256 PUSH0 SWAP1 SLOAD SWAP1 PUSH2 0x100 EXP SWAP1 DIV PUSH20 0xFFFFFFFFFFFFFFFFFFFFFFFFFFFFFFFFFFFFFFFF AND PUSH20 0xFFFFFFFFFFFFFFFFFFFFFFFFFFFFFFFFFFFFFFFF AND EQ PUSH2 0x1792 JUMPI PUSH1 0x40 MLOAD PUSH32 0x8C379A000000000000000000000000000000000000000000000000000000000 DUP2 MSTORE PUSH1 0x4 ADD PUSH2 0x1789 SWAP1 PUSH2 0x30B3 JUMP JUMPDEST PUSH1 0x40 MLOAD DUP1 SWAP2 SUB SWAP1 REVERT JUMPDEST PUSH2 0x1F4 PUSH1 0x3 DUP4 DUP2 SLOAD DUP2 LT PUSH2 0x17A9 JUMPI PUSH2 0x17A8 PUSH2 0x30D1 JUMP JUMPDEST JUMPDEST SWAP1 PUSH0 MSTORE PUSH1 0x20 PUSH0 KECCAK256 SWAP1 PUSH1 0x9 MUL ADD PUSH1 0x4 ADD SLOAD LT ISZERO PUSH2 0x17FA JUMPI PUSH1 0x40 MLOAD PUSH32 0x8C379A000000000000000000000000000000000000000000000000000000000 DUP2 MSTORE PUSH1 0x4 ADD PUSH2 0x17F1 SWAP1 PUSH2 0x373D JUMP JUMPDEST PUSH1 0x40 MLOAD DUP1 SWAP2 SUB SWAP1 REVERT JUMPDEST PUSH2 0x1F4 PUSH1 0x3 DUP4 DUP2 SLOAD DUP2 LT PUSH2 0x1811 JUMPI PUSH2 0x1810 PUSH2 0x30D1 JUMP JUMPDEST JUMPDEST SWAP1 PUSH0 MSTORE PUSH1 0x20 PUSH0 KECCAK256 SWAP1 PUSH1 0x9 MUL ADD PUSH1 0x4 ADD PUSH0 DUP3 DUP3 SLOAD PUSH2 0x182E SWAP2 SWAP1 PUSH2 0x375B JUMP JUMPDEST SWAP3 POP POP DUP2 SWAP1 SSTORE POP PUSH1 0x1 PUSH1 0x3 DUP4 DUP2 SLOAD DUP2 LT PUSH2 0x184B JUMPI PUSH2 0x184A PUSH2 0x30D1 JUMP JUMPDEST JUMPDEST SWAP1 PUSH0 MSTORE PUSH1 0x20 PUSH0 KECCAK256 SWAP1 PUSH1 0x9 MUL ADD PUSH1 0x3 ADD PUSH0 DUP3 DUP3 SLOAD PUSH2 0x1868 SWAP2 SWAP1 PUSH2 0x32FF JUMP JUMPDEST SWAP3 POP POP DUP2 SWAP1 SSTORE POP POP POP JUMP JUMPDEST DUP1 CALLER PUSH20 0xFFFFFFFFFFFFFFFFFFFFFFFFFFFFFFFFFFFFFFFF AND PUSH0 DUP1 DUP4 DUP2 MSTORE PUSH1 0x20 ADD SWAP1 DUP2 MSTORE PUSH1 0x20 ADD PUSH0 KECCAK256 PUSH0 SWAP1 SLOAD SWAP1 PUSH2 0x100 EXP SWAP1 DIV PUSH20 0xFFFFFFFFFFFFFFFFFFFFFFFFFFFFFFFFFFFFFFFF AND PUSH20 0xFFFFFFFFFFFFFFFFFFFFFFFFFFFFFFFFFFFFFFFF AND EQ PUSH2 0x1911 JUMPI PUSH1 0x40 MLOAD PUSH32 0x8C379A000000000000000000000000000000000000000000000000000000000 DUP2 MSTORE PUSH1 0x4 ADD PUSH2 0x1908 SWAP1 PUSH2 0x30B3 JUMP JUMPDEST PUSH1 0x40 MLOAD DUP1 SWAP2 SUB SWAP1 REVERT JUMPDEST PUSH1 0x1 ISZERO ISZERO PUSH1 0x6 PUSH0 DUP5 DUP2 MSTORE PUSH1 0x20 ADD SWAP1 DUP2 MSTORE PUSH1 0x20 ADD PUSH0 KECCAK256 PUSH0 SWAP1 SLOAD SWAP1 PUSH2 0x100 EXP SWAP1 DIV PUSH1 0xFF AND ISZERO ISZERO EQ PUSH2 0x1975 JUMPI PUSH1 0x40 MLOAD PUSH32 0x8C379A000000000000000000000000000000000000000000000000000000000 DUP2 MSTORE PUSH1 0x4 ADD PUSH2 0x196C SWAP1 PUSH2 0x37D8 JUMP JUMPDEST PUSH1 0x40 MLOAD DUP1 SWAP2 SUB SWAP1 REVERT JUMPDEST PUSH1 0x9 PUSH0 DUP4 DUP2 MSTORE PUSH1 0x20 ADD SWAP1 DUP2 MSTORE PUSH1 0x20 ADD PUSH0 KECCAK256 SLOAD TIMESTAMP LT ISZERO PUSH2 0x19C9 JUMPI PUSH1 0x40 MLOAD PUSH32 0x8C379A000000000000000000000000000000000000000000000000000000000 DUP2 MSTORE PUSH1 0x4 ADD PUSH2 0x19C0 SWAP1 PUSH2 0x3840 JUMP JUMPDEST PUSH1 0x40 MLOAD DUP1 SWAP2 SUB SWAP1 REVERT JUMPDEST PUSH0 PUSH1 0x6 PUSH0 DUP5 DUP2 MSTORE PUSH1 0x20 ADD SWAP1 DUP2 MSTORE PUSH1 0x20 ADD PUSH0 KECCAK256 PUSH0 PUSH2 0x100 EXP DUP2 SLOAD DUP2 PUSH1 0xFF MUL NOT AND SWAP1 DUP4 ISZERO ISZERO MUL OR SWAP1 SSTORE POP PUSH0 PUSH1 0xA PUSH0 DUP5 DUP2 MSTORE PUSH1 0x20 ADD SWAP1 DUP2 MSTORE PUSH1 0x20 ADD PUSH0 KECCAK256 PUSH0 PUSH2 0x100 EXP DUP2 SLOAD DUP2 PUSH1 0xFF MUL NOT AND SWAP1 DUP4 ISZERO ISZERO MUL OR SWAP1 SSTORE POP PUSH0 PUSH1 0xC PUSH0 DUP5 DUP2 MSTORE PUSH1 0x20 ADD SWAP1 DUP2 MSTORE PUSH1 0x20 ADD PUSH0 KECCAK256 PUSH0 PUSH2 0x100 EXP DUP2 SLOAD DUP2 PUSH20 0xFFFFFFFFFFFFFFFFFFFFFFFFFFFFFFFFFFFFFFFF MUL NOT AND SWAP1 DUP4 PUSH20 0xFFFFFFFFFFFFFFFFFFFFFFFFFFFFFFFFFFFFFFFF AND MUL OR SWAP1 SSTORE POP POP POP JUMP JUMPDEST PUSH0 TIMESTAMP PUSH1 0x9 PUSH0 DUP5 DUP2 MSTORE PUSH1 0x20 ADD SWAP1 DUP2 MSTORE PUSH1 0x20 ADD PUSH0 KECCAK256 SLOAD GT PUSH2 0x1AC0 JUMPI PUSH1 0x40 MLOAD PUSH32 0x8C379A000000000000000000000000000000000000000000000000000000000 DUP2 MSTORE PUSH1 0x4 ADD PUSH2 0x1AB7 SWAP1 PUSH2 0x38A8 JUMP JUMPDEST PUSH1 0x40 MLOAD DUP1 SWAP2 SUB SWAP1 REVERT JUMPDEST PUSH1 0xD PUSH0 DUP4 DUP2 MSTORE PUSH1 0x20 ADD SWAP1 DUP2 MSTORE PUSH1 0x20 ADD PUSH0 KECCAK256 SLOAD CALLVALUE EQ PUSH2 0x1B13 JUMPI PUSH1 0x40 MLOAD PUSH32 0x8C379A000000000000000000000000000000000000000000000000000000000 DUP2 MSTORE PUSH1 0x4 ADD PUSH2 0x1B0A SWAP1 PUSH2 0x3910 JUMP JUMPDEST PUSH1 0x40 MLOAD DUP1 SWAP2 SUB SWAP1 REVERT JUMPDEST PUSH1 0xA PUSH0 DUP4 DUP2 MSTORE PUSH1 0x20 ADD SWAP1 DUP2 MSTORE PUSH1 0x20 ADD PUSH0 KECCAK256 PUSH0 SWAP1 SLOAD SWAP1 PUSH2 0x100 EXP SWAP1 DIV PUSH1 0xFF AND ISZERO DUP1 ISZERO PUSH2 0x1B85 JUMPI POP PUSH1 0xB PUSH0 CALLER PUSH20 0xFFFFFFFFFFFFFFFFFFFFFFFFFFFFFFFFFFFFFFFF AND PUSH20 0xFFFFFFFFFFFFFFFFFFFFFFFFFFFFFFFFFFFFFFFF AND DUP2 MSTORE PUSH1 0x20 ADD SWAP1 DUP2 MSTORE PUSH1 0x20 ADD PUSH0 KECCAK256 PUSH0 SWAP1 SLOAD SWAP1 PUSH2 0x100 EXP SWAP1 DIV PUSH1 0xFF AND ISZERO JUMPDEST PUSH2 0x1BC4 JUMPI PUSH1 0x40 MLOAD PUSH32 0x8C379A000000000000000000000000000000000000000000000000000000000 DUP2 MSTORE PUSH1 0x4 ADD PUSH2 0x1BBB SWAP1 PUSH2 0x3978 JUMP JUMPDEST PUSH1 0x40 MLOAD DUP1 SWAP2 SUB SWAP1 REVERT JUMPDEST CALLER PUSH20 0xFFFFFFFFFFFFFFFFFFFFFFFFFFFFFFFFFFFFFFFF AND PUSH0 DUP1 DUP5 DUP2 MSTORE PUSH1 0x20 ADD SWAP1 DUP2 MSTORE PUSH1 0x20 ADD PUSH0 KECCAK256 PUSH0 SWAP1 SLOAD SWAP1 PUSH2 0x100 EXP SWAP1 DIV PUSH20 0xFFFFFFFFFFFFFFFFFFFFFFFFFFFFFFFFFFFFFFFF AND PUSH20 0xFFFFFFFFFFFFFFFFFFFFFFFFFFFFFFFFFFFFFFFF AND SUB PUSH2 0x1C61 JUMPI PUSH1 0x40 MLOAD PUSH32 0x8C379A000000000000000000000000000000000000000000000000000000000 DUP2 MSTORE PUSH1 0x4 ADD PUSH2 0x1C58 SWAP1 PUSH2 0x39E0 JUMP JUMPDEST PUSH1 0x40 MLOAD DUP1 SWAP2 SUB SWAP1 REVERT JUMPDEST PUSH1 0x1 ISZERO ISZERO PUSH1 0x6 PUSH0 DUP5 DUP2 MSTORE PUSH1 0x20 ADD SWAP1 DUP2 MSTORE PUSH1 0x20 ADD PUSH0 KECCAK256 PUSH0 SWAP1 SLOAD SWAP1 PUSH2 0x100 EXP SWAP1 DIV PUSH1 0xFF AND ISZERO ISZERO EQ PUSH2 0x1CC5 JUMPI PUSH1 0x40 MLOAD PUSH32 0x8C379A000000000000000000000000000000000000000000000000000000000 DUP2 MSTORE PUSH1 0x4 ADD PUSH2 0x1CBC SWAP1 PUSH2 0x3A48 JUMP JUMPDEST PUSH1 0x40 MLOAD DUP1 SWAP2 SUB SWAP1 REVERT JUMPDEST PUSH0 DUP1 DUP4 DUP2 MSTORE PUSH1 0x20 ADD SWAP1 DUP2 MSTORE PUSH1 0x20 ADD PUSH0 KECCAK256 PUSH0 SWAP1 SLOAD SWAP1 PUSH2 0x100 EXP SWAP1 DIV PUSH20 0xFFFFFFFFFFFFFFFFFFFFFFFFFFFFFFFFFFFFFFFF AND PUSH20 0xFFFFFFFFFFFFFFFFFFFFFFFFFFFFFFFFFFFFFFFF AND PUSH2 0x8FC CALLVALUE SWAP1 DUP2 ISZERO MUL SWAP1 PUSH1 0x40 MLOAD PUSH0 PUSH1 0x40 MLOAD DUP1 DUP4 SUB DUP2 DUP6 DUP9 DUP9 CALL SWAP4 POP POP POP POP ISZERO DUP1 ISZERO PUSH2 0x1D37 JUMPI RETURNDATASIZE PUSH0 DUP1 RETURNDATACOPY RETURNDATASIZE PUSH0 REVERT JUMPDEST POP CALLER PUSH1 0xC PUSH0 DUP5 DUP2 MSTORE PUSH1 0x20 ADD SWAP1 DUP2 MSTORE PUSH1 0x20 ADD PUSH0 KECCAK256 PUSH0 PUSH2 0x100 EXP DUP2 SLOAD DUP2 PUSH20 0xFFFFFFFFFFFFFFFFFFFFFFFFFFFFFFFFFFFFFFFF MUL NOT AND SWAP1 DUP4 PUSH20 0xFFFFFFFFFFFFFFFFFFFFFFFFFFFFFFFFFFFFFFFF AND MUL OR SWAP1 SSTORE POP PUSH1 0x1 PUSH1 0xB PUSH0 CALLER PUSH20 0xFFFFFFFFFFFFFFFFFFFFFFFFFFFFFFFFFFFFFFFF AND PUSH20 0xFFFFFFFFFFFFFFFFFFFFFFFFFFFFFFFFFFFFFFFF AND DUP2 MSTORE PUSH1 0x20 ADD SWAP1 DUP2 MSTORE PUSH1 0x20 ADD PUSH0 KECCAK256 PUSH0 PUSH2 0x100 EXP DUP2 SLOAD DUP2 PUSH1 0xFF MUL NOT AND SWAP1 DUP4 ISZERO ISZERO MUL OR SWAP1 SSTORE POP PUSH1 0x1 PUSH1 0xA PUSH0 DUP5 DUP2 MSTORE PUSH1 0x20 ADD SWAP1 DUP2 MSTORE PUSH1 0x20 ADD PUSH0 KECCAK256 PUSH0 PUSH2 0x100 EXP DUP2 SLOAD DUP2 PUSH1 0xFF MUL NOT AND SWAP1 DUP4 ISZERO ISZERO MUL OR SWAP1 SSTORE POP PUSH1 0x1 SWAP1 POP SWAP2 SWAP1 POP JUMP JUMPDEST PUSH0 DUP2 CALLER PUSH20 0xFFFFFFFFFFFFFFFFFFFFFFFFFFFFFFFFFFFFFFFF AND PUSH0 DUP1 DUP4 DUP2 MSTORE PUSH1 0x20 ADD SWAP1 DUP2 MSTORE PUSH1 0x20 ADD PUSH0 KECCAK256 PUSH0 SWAP1 SLOAD SWAP1 PUSH2 0x100 EXP SWAP1 DIV PUSH20 0xFFFFFFFFFFFFFFFFFFFFFFFFFFFFFFFFFFFFFFFF AND PUSH20 0xFFFFFFFFFFFFFFFFFFFFFFFFFFFFFFFFFFFFFFFF AND EQ PUSH2 0x1EAD JUMPI PUSH1 0x40 MLOAD PUSH32 0x8C379A000000000000000000000000000000000000000000000000000000000 DUP2 MSTORE PUSH1 0x4 ADD PUSH2 0x1EA4 SWAP1 PUSH2 0x30B3 JUMP JUMPDEST PUSH1 0x40 MLOAD DUP1 SWAP2 SUB SWAP1 REVERT JUMPDEST PUSH0 PUSH1 0x3 DUP5 DUP2 SLOAD DUP2 LT PUSH2 0x1EC2 JUMPI PUSH2 0x1EC1 PUSH2 0x30D1 JUMP JUMPDEST JUMPDEST SWAP1 PUSH0 MSTORE PUSH1 0x20 PUSH0 KECCAK256 SWAP1 PUSH1 0x9 MUL ADD PUSH1 0x6 ADD SLOAD EQ DUP1 ISZERO PUSH2 0x1EEF JUMPI POP PUSH0 PUSH1 0xE PUSH0 DUP6 DUP2 MSTORE PUSH1 0x20 ADD SWAP1 DUP2 MSTORE PUSH1 0x20 ADD PUSH0 KECCAK256 SLOAD EQ JUMPDEST PUSH2 0x1F2E JUMPI PUSH1 0x40 MLOAD PUSH32 0x8C379A000000000000000000000000000000000000000000000000000000000 DUP2 MSTORE PUSH1 0x4 ADD PUSH2 0x1F25 SWAP1 PUSH2 0x3AD6 JUMP JUMPDEST PUSH1 0x40 MLOAD DUP1 SWAP2 SUB SWAP1 REVERT JUMPDEST PUSH3 0x15180 TIMESTAMP PUSH2 0x1F3D SWAP2 SWAP1 PUSH2 0x32FF JUMP JUMPDEST PUSH1 0xE PUSH0 DUP6 DUP2 MSTORE PUSH1 0x20 ADD SWAP1 DUP2 MSTORE PUSH1 0x20 ADD PUSH0 KECCAK256 DUP2 SWAP1 SSTORE POP PUSH1 0xE PUSH0 DUP5 DUP2 MSTORE PUSH1 0x20 ADD SWAP1 DUP2 MSTORE PUSH1 0x20 ADD PUSH0 KECCAK256 SLOAD TIMESTAMP LT PUSH2 0x1FA5 JUMPI PUSH1 0x5 PUSH1 0x3 DUP5 DUP2 SLOAD DUP2 LT PUSH2 0x1F80 JUMPI PUSH2 0x1F7F PUSH2 0x30D1 JUMP JUMPDEST JUMPDEST SWAP1 PUSH0 MSTORE PUSH1 0x20 PUSH0 KECCAK256 SWAP1 PUSH1 0x9 MUL ADD PUSH1 0x6 ADD PUSH0 DUP3 DUP3 SLOAD PUSH2 0x1F9D SWAP2 SWAP1 PUSH2 0x32FF JUMP JUMPDEST SWAP3 POP POP DUP2 SWAP1 SSTORE POP JUMPDEST PUSH1 0x1 SWAP2 POP POP SWAP2 SWAP1 POP JUMP JUMPDEST PUSH1 0x6 PUSH1 0x20 MSTORE DUP1 PUSH0 MSTORE PUSH1 0x40 PUSH0 KECCAK256 PUSH0 SWAP2 POP SLOAD SWAP1 PUSH2 0x100 EXP SWAP1 DIV PUSH1 0xFF AND DUP2 JUMP JUMPDEST PUSH0 DUP1 DUP3 PUSH1 0x40 MLOAD PUSH1 0x20 ADD PUSH2 0x1FDF SWAP2 SWAP1 PUSH2 0x3B2E JUMP JUMPDEST PUSH1 0x40 MLOAD PUSH1 0x20 DUP2 DUP4 SUB SUB DUP2 MSTORE SWAP1 PUSH1 0x40 MSTORE DUP1 MLOAD SWAP1 PUSH1 0x20 ADD KECCAK256 PUSH0 SHR SWAP1 POP PUSH1 0x2 SLOAD DUP2 PUSH2 0x2007 SWAP2 SWAP1 PUSH2 0x32A2 JUMP JUMPDEST SWAP2 POP POP SWAP2 SWAP1 POP JUMP JUMPDEST PUSH1 0x3 PUSH1 0x40 MLOAD DUP1 PUSH2 0x120 ADD PUSH1 0x40 MSTORE DUP1 DUP12 DUP2 MSTORE PUSH1 0x20 ADD DUP11 DUP2 MSTORE PUSH1 0x20 ADD DUP10 DUP2 MSTORE PUSH1 0x20 ADD DUP9 DUP2 MSTORE PUSH1 0x20 ADD DUP8 DUP2 MSTORE PUSH1 0x20 ADD DUP7 DUP2 MSTORE PUSH1 0x20 ADD DUP6 DUP2 MSTORE PUSH1 0x20 ADD DUP5 DUP2 MSTORE PUSH1 0x20 ADD DUP4 DUP2 MSTORE POP SWAP1 DUP1 PUSH1 0x1 DUP2 SLOAD ADD DUP1 DUP3 SSTORE DUP1 SWAP2 POP POP PUSH1 0x1 SWAP1 SUB SWAP1 PUSH0 MSTORE PUSH1 0x20 PUSH0 KECCAK256 SWAP1 PUSH1 0x9 MUL ADD PUSH0 SWAP1 SWAP2 SWAP1 SWAP2 SWAP1 SWAP2 POP PUSH0 DUP3 ADD MLOAD DUP2 PUSH0 ADD SWAP1 DUP2 PUSH2 0x208A SWAP2 SWAP1 PUSH2 0x3CE1 JUMP JUMPDEST POP PUSH1 0x20 DUP3 ADD MLOAD DUP2 PUSH1 0x1 ADD SWAP1 DUP2 PUSH2 0x20A0 SWAP2 SWAP1 PUSH2 0x3CE1 JUMP JUMPDEST POP PUSH1 0x40 DUP3 ADD MLOAD DUP2 PUSH1 0x2 ADD SSTORE PUSH1 0x60 DUP3 ADD MLOAD DUP2 PUSH1 0x3 ADD SSTORE PUSH1 0x80 DUP3 ADD MLOAD DUP2 PUSH1 0x4 ADD SSTORE PUSH1 0xA0 DUP3 ADD MLOAD DUP2 PUSH1 0x5 ADD SSTORE PUSH1 0xC0 DUP3 ADD MLOAD DUP2 PUSH1 0x6 ADD SSTORE PUSH1 0xE0 DUP3 ADD MLOAD DUP2 PUSH1 0x7 ADD SSTORE PUSH2 0x100 DUP3 ADD MLOAD DUP2 PUSH1 0x8 ADD SSTORE POP POP PUSH0 PUSH1 0x1 PUSH1 0x3 DUP1 SLOAD SWAP1 POP PUSH2 0x20FD SWAP2 SWAP1 PUSH2 0x375B JUMP JUMPDEST SWAP1 POP PUSH1 0x1 PUSH0 CALLER PUSH20 0xFFFFFFFFFFFFFFFFFFFFFFFFFFFFFFFFFFFFFFFF AND PUSH20 0xFFFFFFFFFFFFFFFFFFFFFFFFFFFFFFFFFFFFFFFF AND DUP2 MSTORE PUSH1 0x20 ADD SWAP1 DUP2 MSTORE PUSH1 0x20 ADD PUSH0 KECCAK256 PUSH0 DUP2 SLOAD DUP1 SWAP3 SWAP2 SWAP1 PUSH2 0x214C SWAP1 PUSH2 0x3332 JUMP JUMPDEST SWAP2 SWAP1 POP SSTORE POP CALLER PUSH0 DUP1 DUP4 DUP2 MSTORE PUSH1 0x20 ADD SWAP1 DUP2 MSTORE PUSH1 0x20 ADD PUSH0 KECCAK256 PUSH0 PUSH2 0x100 EXP DUP2 SLOAD DUP2 PUSH20 0xFFFFFFFFFFFFFFFFFFFFFFFFFFFFFFFFFFFFFFFF MUL NOT AND SWAP1 DUP4 PUSH20 0xFFFFFFFFFFFFFFFFFFFFFFFFFFFFFFFFFFFFFFFF AND MUL OR SWAP1 SSTORE POP POP POP POP POP POP POP POP POP POP POP JUMP JUMPDEST PUSH1 0x60 PUSH0 PUSH2 0x21B6 PUSH2 0x2932 JUMP JUMPDEST SWAP1 POP PUSH1 0x1 PUSH1 0x3 DUP5 DUP2 SLOAD DUP2 LT PUSH2 0x21CE JUMPI PUSH2 0x21CD PUSH2 0x30D1 JUMP JUMPDEST JUMPDEST SWAP1 PUSH0 MSTORE PUSH1 0x20 PUSH0 KECCAK256 SWAP1 PUSH1 0x9 MUL ADD PUSH1 0x6 ADD SLOAD LT ISZERO PUSH2 0x221F JUMPI PUSH1 0x40 MLOAD PUSH32 0x8C379A000000000000000000000000000000000000000000000000000000000 DUP2 MSTORE PUSH1 0x4 ADD PUSH2 0x2216 SWAP1 PUSH2 0x3DFA JUMP JUMPDEST PUSH1 0x40 MLOAD DUP1 SWAP2 SUB SWAP1 REVERT JUMPDEST PUSH1 0x1 PUSH1 0x3 DUP3 DUP2 SLOAD DUP2 LT PUSH2 0x2235 JUMPI PUSH2 0x2234 PUSH2 0x30D1 JUMP JUMPDEST JUMPDEST SWAP1 PUSH0 MSTORE PUSH1 0x20 PUSH0 KECCAK256 SWAP1 PUSH1 0x9 MUL ADD PUSH1 0x6 ADD SLOAD LT ISZERO PUSH2 0x2286 JUMPI PUSH1 0x40 MLOAD PUSH32 0x8C379A000000000000000000000000000000000000000000000000000000000 DUP2 MSTORE PUSH1 0x4 ADD PUSH2 0x227D SWAP1 PUSH2 0x3E62 JUMP JUMPDEST PUSH1 0x40 MLOAD DUP1 SWAP2 SUB SWAP1 REVERT JUMPDEST PUSH1 0x3 DUP2 DUP2 SLOAD DUP2 LT PUSH2 0x229A JUMPI PUSH2 0x2299 PUSH2 0x30D1 JUMP JUMPDEST JUMPDEST SWAP1 PUSH0 MSTORE PUSH1 0x20 PUSH0 KECCAK256 SWAP1 PUSH1 0x9 MUL ADD PUSH1 0x3 ADD SLOAD PUSH1 0x3 DUP5 DUP2 SLOAD DUP2 LT PUSH2 0x22BE JUMPI PUSH2 0x22BD PUSH2 0x30D1 JUMP JUMPDEST JUMPDEST SWAP1 PUSH0 MSTORE PUSH1 0x20 PUSH0 KECCAK256 SWAP1 PUSH1 0x9 MUL ADD PUSH1 0x3 ADD SLOAD GT ISZERO PUSH2 0x250C JUMPI PUSH1 0x3 DUP4 DUP2 SLOAD DUP2 LT PUSH2 0x22E8 JUMPI PUSH2 0x22E7 PUSH2 0x30D1 JUMP JUMPDEST JUMPDEST SWAP1 PUSH0 MSTORE PUSH1 0x20 PUSH0 KECCAK256 SWAP1 PUSH1 0x9 MUL ADD PUSH1 0x3 ADD PUSH0 DUP2 SLOAD DUP1 SWAP3 SWAP2 SWAP1 PUSH2 0x2307 SWAP1 PUSH2 0x3332 JUMP JUMPDEST SWAP2 SWAP1 POP SSTORE POP PUSH1 0x3 DUP4 DUP2 SLOAD DUP2 LT PUSH2 0x2320 JUMPI PUSH2 0x231F PUSH2 0x30D1 JUMP JUMPDEST JUMPDEST SWAP1 PUSH0 MSTORE PUSH1 0x20 PUSH0 KECCAK256 SWAP1 PUSH1 0x9 MUL ADD PUSH1 0x5 ADD PUSH0 DUP2 SLOAD DUP1 SWAP3 SWAP2 SWAP1 PUSH2 0x233F SWAP1 PUSH2 0x3332 JUMP JUMPDEST SWAP2 SWAP1 POP SSTORE POP PUSH1 0x3 DUP4 DUP2 SLOAD DUP2 LT PUSH2 0x2358 JUMPI PUSH2 0x2357 PUSH2 0x30D1 JUMP JUMPDEST JUMPDEST SWAP1 PUSH0 MSTORE PUSH1 0x20 PUSH0 KECCAK256 SWAP1 PUSH1 0x9 MUL ADD PUSH1 0x6 ADD PUSH0 DUP2 SLOAD DUP1 SWAP3 SWAP2 SWAP1 PUSH2 0x2377 SWAP1 PUSH2 0x34B1 JUMP JUMPDEST SWAP2 SWAP1 POP SSTORE POP PUSH1 0x3 DUP4 DUP2 SLOAD DUP2 LT PUSH2 0x2390 JUMPI PUSH2 0x238F PUSH2 0x30D1 JUMP JUMPDEST JUMPDEST SWAP1 PUSH0 MSTORE PUSH1 0x20 PUSH0 KECCAK256 SWAP1 PUSH1 0x9 MUL ADD PUSH1 0x7 ADD PUSH0 DUP2 SLOAD DUP1 SWAP3 SWAP2 SWAP1 PUSH2 0x23AF SWAP1 PUSH2 0x3332 JUMP JUMPDEST SWAP2 SWAP1 POP SSTORE POP PUSH1 0x64 PUSH1 0x3 DUP5 DUP2 SLOAD DUP2 LT PUSH2 0x23CA JUMPI PUSH2 0x23C9 PUSH2 0x30D1 JUMP JUMPDEST JUMPDEST SWAP1 PUSH0 MSTORE PUSH1 0x20 PUSH0 KECCAK256 SWAP1 PUSH1 0x9 MUL ADD PUSH1 0x4 ADD PUSH0 DUP3 DUP3 SLOAD PUSH2 0x23E7 SWAP2 SWAP1 PUSH2 0x32FF JUMP JUMPDEST SWAP3 POP POP DUP2 SWAP1 SSTORE POP PUSH1 0x3 DUP2 DUP2 SLOAD DUP2 LT PUSH2 0x2402 JUMPI PUSH2 0x2401 PUSH2 0x30D1 JUMP JUMPDEST JUMPDEST SWAP1 PUSH0 MSTORE PUSH1 0x20 PUSH0 KECCAK256 SWAP1 PUSH1 0x9 MUL ADD PUSH1 0x3 ADD PUSH0 DUP2 SLOAD DUP1 SWAP3 SWAP2 SWAP1 PUSH2 0x2421 SWAP1 PUSH2 0x34B1 JUMP JUMPDEST SWAP2 SWAP1 POP SSTORE POP PUSH1 0x3 DUP2 DUP2 SLOAD DUP2 LT PUSH2 0x243A JUMPI PUSH2 0x2439 PUSH2 0x30D1 JUMP JUMPDEST JUMPDEST SWAP1 PUSH0 MSTORE PUSH1 0x20 PUSH0 KECCAK256 SWAP1 PUSH1 0x9 MUL ADD PUSH1 0x5 ADD PUSH0 DUP2 SLOAD DUP1 SWAP3 SWAP2 SWAP1 PUSH2 0x2459 SWAP1 PUSH2 0x3332 JUMP JUMPDEST SWAP2 SWAP1 POP SSTORE POP PUSH1 0x3 DUP2 DUP2 SLOAD DUP2 LT PUSH2 0x2472 JUMPI PUSH2 0x2471 PUSH2 0x30D1 JUMP JUMPDEST JUMPDEST SWAP1 PUSH0 MSTORE PUSH1 0x20 PUSH0 KECCAK256 SWAP1 PUSH1 0x9 MUL ADD PUSH1 0x6 ADD PUSH0 DUP2 SLOAD DUP1 SWAP3 SWAP2 SWAP1 PUSH2 0x2491 SWAP1 PUSH2 0x34B1 JUMP JUMPDEST SWAP2 SWAP1 POP SSTORE POP PUSH1 0x3 DUP2 DUP2 SLOAD DUP2 LT PUSH2 0x24AA JUMPI PUSH2 0x24A9 PUSH2 0x30D1 JUMP JUMPDEST JUMPDEST SWAP1 PUSH0 MSTORE PUSH1 0x20 PUSH0 KECCAK256 SWAP1 PUSH1 0x9 MUL ADD PUSH1 0x8 ADD PUSH0 DUP2 SLOAD DUP1 SWAP3 SWAP2 SWAP1 PUSH2 0x24C9 SWAP1 PUSH2 0x3332 JUMP JUMPDEST SWAP2 SWAP1 POP SSTORE POP PUSH1 0x40 MLOAD DUP1 PUSH1 0x40 ADD PUSH1 0x40 MSTORE DUP1 PUSH1 0xE DUP2 MSTORE PUSH1 0x20 ADD PUSH32 0x436F6E67726174732057696E732E000000000000000000000000000000000000 DUP2 MSTORE POP SWAP2 POP POP PUSH2 0x288F JUMP JUMPDEST PUSH1 0x3 DUP4 DUP2 SLOAD DUP2 LT PUSH2 0x2520 JUMPI PUSH2 0x251F PUSH2 0x30D1 JUMP JUMPDEST JUMPDEST SWAP1 PUSH0 MSTORE PUSH1 0x20 PUSH0 KECCAK256 SWAP1 PUSH1 0x9 MUL ADD PUSH1 0x3 ADD SLOAD PUSH1 0x3 DUP3 DUP2 SLOAD DUP2 LT PUSH2 0x2544 JUMPI PUSH2 0x2543 PUSH2 0x30D1 JUMP JUMPDEST JUMPDEST SWAP1 PUSH0 MSTORE PUSH1 0x20 PUSH0 KECCAK256 SWAP1 PUSH1 0x9 MUL ADD PUSH1 0x3 ADD SLOAD GT ISZERO PUSH2 0x2775 JUMPI PUSH1 0x3 DUP2 DUP2 SLOAD DUP2 LT PUSH2 0x256E JUMPI PUSH2 0x256D PUSH2 0x30D1 JUMP JUMPDEST JUMPDEST SWAP1 PUSH0 MSTORE PUSH1 0x20 PUSH0 KECCAK256 SWAP1 PUSH1 0x9 MUL ADD PUSH1 0x3 ADD PUSH0 DUP2 SLOAD DUP1 SWAP3 SWAP2 SWAP1 PUSH2 0x258D SWAP1 PUSH2 0x3332 JUMP JUMPDEST SWAP2 SWAP1 POP SSTORE POP PUSH1 0x3 DUP2 DUP2 SLOAD DUP2 LT PUSH2 0x25A6 JUMPI PUSH2 0x25A5 PUSH2 0x30D1 JUMP JUMPDEST JUMPDEST SWAP1 PUSH0 MSTORE PUSH1 0x20 PUSH0 KECCAK256 SWAP1 PUSH1 0x9 MUL ADD PUSH1 0x5 ADD PUSH0 DUP2 SLOAD DUP1 SWAP3 SWAP2 SWAP1 PUSH2 0x25C5 SWAP1 PUSH2 0x3332 JUMP JUMPDEST SWAP2 SWAP1 POP SSTORE POP PUSH1 0x3 DUP2 DUP2 SLOAD DUP2 LT PUSH2 0x25DE JUMPI PUSH2 0x25DD PUSH2 0x30D1 JUMP JUMPDEST JUMPDEST SWAP1 PUSH0 MSTORE PUSH1 0x20 PUSH0 KECCAK256 SWAP1 PUSH1 0x9 MUL ADD PUSH1 0x6 ADD PUSH0 DUP2 SLOAD DUP1 SWAP3 SWAP2 SWAP1 PUSH2 0x25FD SWAP1 PUSH2 0x34B1 JUMP JUMPDEST SWAP2 SWAP1 POP SSTORE POP PUSH1 0x3 DUP2 DUP2 SLOAD DUP2 LT PUSH2 0x2616 JUMPI PUSH2 0x2615 PUSH2 0x30D1 JUMP JUMPDEST JUMPDEST SWAP1 PUSH0 MSTORE PUSH1 0x20 PUSH0 KECCAK256 SWAP1 PUSH1 0x9 MUL ADD PUSH1 0x7 ADD PUSH0 DUP2 SLOAD DUP1 SWAP3 SWAP2 SWAP1 PUSH2 0x2635 SWAP1 PUSH2 0x3332 JUMP JUMPDEST SWAP2 SWAP1 POP SSTORE POP PUSH1 0x64 PUSH1 0x3 DUP3 DUP2 SLOAD DUP2 LT PUSH2 0x2650 JUMPI PUSH2 0x264F PUSH2 0x30D1 JUMP JUMPDEST JUMPDEST SWAP1 PUSH0 MSTORE PUSH1 0x20 PUSH0 KECCAK256 SWAP1 PUSH1 0x9 MUL ADD PUSH1 0x4 ADD PUSH0 DUP3 DUP3 SLOAD PUSH2 0x266D SWAP2 SWAP1 PUSH2 0x32FF JUMP JUMPDEST SWAP3 POP POP DUP2 SWAP1 SSTORE POP PUSH1 0x3 DUP4 DUP2 SLOAD DUP2 LT PUSH2 0x2688 JUMPI PUSH2 0x2687 PUSH2 0x30D1 JUMP JUMPDEST JUMPDEST SWAP1 PUSH0 MSTORE PUSH1 0x20 PUSH0 KECCAK256 SWAP1 PUSH1 0x9 MUL ADD PUSH1 0x3 ADD PUSH0 DUP2 SLOAD DUP1 SWAP3 SWAP2 SWAP1 PUSH2 0x26A7 SWAP1 PUSH2 0x34B1 JUMP JUMPDEST SWAP2 SWAP1 POP SSTORE POP PUSH1 0x3 DUP4 DUP2 SLOAD DUP2 LT PUSH2 0x26C0 JUMPI PUSH2 0x26BF PUSH2 0x30D1 JUMP JUMPDEST JUMPDEST SWAP1 PUSH0 MSTORE PUSH1 0x20 PUSH0 KECCAK256 SWAP1 PUSH1 0x9 MUL ADD PUSH1 0x5 ADD PUSH0 DUP2 SLOAD DUP1 SWAP3 SWAP2 SWAP1 PUSH2 0x26DF SWAP1 PUSH2 0x3332 JUMP JUMPDEST SWAP2 SWAP1 POP SSTORE POP PUSH1 0x3 DUP4 DUP2 SLOAD DUP2 LT PUSH2 0x26F8 JUMPI PUSH2 0x26F7 PUSH2 0x30D1 JUMP JUMPDEST JUMPDEST SWAP1 PUSH0 MSTORE PUSH1 0x20 PUSH0 KECCAK256 SWAP1 PUSH1 0x9 MUL ADD PUSH1 0x6 ADD PUSH0 DUP2 SLOAD DUP1 SWAP3 SWAP2 SWAP1 PUSH2 0x2717 SWAP1 PUSH2 0x34B1 JUMP JUMPDEST SWAP2 SWAP1 POP SSTORE POP PUSH1 0x3 DUP4 DUP2 SLOAD DUP2 LT PUSH2 0x2730 JUMPI PUSH2 0x272F PUSH2 0x30D1 JUMP JUMPDEST JUMPDEST SWAP1 PUSH0 MSTORE PUSH1 0x20 PUSH0 KECCAK256 SWAP1 PUSH1 0x9 MUL ADD PUSH1 0x8 ADD PUSH0 DUP2 SLOAD DUP1 SWAP3 SWAP2 SWAP1 PUSH2 0x274F SWAP1 PUSH2 0x3332 JUMP JUMPDEST SWAP2 SWAP1 POP SSTORE POP PUSH1 0x40 MLOAD DUP1 PUSH1 0x60 ADD PUSH1 0x40 MSTORE DUP1 PUSH1 0x31 DUP2 MSTORE PUSH1 0x20 ADD PUSH2 0x3E81 PUSH1 0x31 SWAP2 CODECOPY SWAP2 POP POP PUSH2 0x288F JUMP JUMPDEST PUSH1 0x3 DUP2 DUP2 SLOAD DUP2 LT PUSH2 0x2789 JUMPI PUSH2 0x2788 PUSH2 0x30D1 JUMP JUMPDEST JUMPDEST SWAP1 PUSH0 MSTORE PUSH1 0x20 PUSH0 KECCAK256 SWAP1 PUSH1 0x9 MUL ADD PUSH1 0x5 ADD PUSH0 DUP2 SLOAD DUP1 SWAP3 SWAP2 SWAP1 PUSH2 0x27A8 SWAP1 PUSH2 0x3332 JUMP JUMPDEST SWAP2 SWAP1 POP SSTORE POP PUSH1 0x3 DUP4 DUP2 SLOAD DUP2 LT PUSH2 0x27C1 JUMPI PUSH2 0x27C0 PUSH2 0x30D1 JUMP JUMPDEST JUMPDEST SWAP1 PUSH0 MSTORE PUSH1 0x20 PUSH0 KECCAK256 SWAP1 PUSH1 0x9 MUL ADD PUSH1 0x5 ADD PUSH0 DUP2 SLOAD DUP1 SWAP3 SWAP2 SWAP1 PUSH2 0x27E0 SWAP1 PUSH2 0x3332 JUMP JUMPDEST SWAP2 SWAP1 POP SSTORE POP PUSH1 0x3 DUP4 DUP2 SLOAD DUP2 LT PUSH2 0x27F9 JUMPI PUSH2 0x27F8 PUSH2 0x30D1 JUMP JUMPDEST JUMPDEST SWAP1 PUSH0 MSTORE PUSH1 0x20 PUSH0 KECCAK256 SWAP1 PUSH1 0x9 MUL ADD PUSH1 0x6 ADD PUSH0 DUP2 SLOAD DUP1 SWAP3 SWAP2 SWAP1 PUSH2 0x2818 SWAP1 PUSH2 0x34B1 JUMP JUMPDEST SWAP2 SWAP1 POP SSTORE POP PUSH1 0x3 DUP2 DUP2 SLOAD DUP2 LT PUSH2 0x2831 JUMPI PUSH2 0x2830 PUSH2 0x30D1 JUMP JUMPDEST JUMPDEST SWAP1 PUSH0 MSTORE PUSH1 0x20 PUSH0 KECCAK256 SWAP1 PUSH1 0x9 MUL ADD PUSH1 0x6 ADD PUSH0 DUP2 SLOAD DUP1 SWAP3 SWAP2 SWAP1 PUSH2 0x2850 SWAP1 PUSH2 0x34B1 JUMP JUMPDEST SWAP2 SWAP1 POP SSTORE POP PUSH1 0x40 MLOAD DUP1 PUSH1 0x40 ADD PUSH1 0x40 MSTORE DUP1 PUSH1 0xF DUP2 MSTORE PUSH1 0x20 ADD PUSH32 0x447261772054727920416761696E2E0000000000000000000000000000000000 DUP2 MSTORE POP SWAP2 POP POP JUMPDEST SWAP2 SWAP1 POP JUMP JUMPDEST PUSH0 JUMPDEST PUSH1 0xB DUP2 LT ISZERO PUSH2 0x292F JUMPI PUSH0 PUSH1 0xA NUMBER PREVRANDAO CHAINID TIMESTAMP PUSH2 0x28B0 SWAP2 SWAP1 PUSH2 0x3678 JUMP JUMPDEST PUSH2 0x28BA SWAP2 SWAP1 PUSH2 0x3678 JUMP JUMPDEST PUSH2 0x28C4 SWAP2 SWAP1 PUSH2 0x3678 JUMP JUMPDEST PUSH1 0x40 MLOAD PUSH1 0x20 ADD PUSH2 0x28D4 SWAP2 SWAP1 PUSH2 0x36D9 JUMP JUMPDEST PUSH1 0x40 MLOAD PUSH1 0x20 DUP2 DUP4 SUB SUB DUP2 MSTORE SWAP1 PUSH1 0x40 MSTORE DUP1 MLOAD SWAP1 PUSH1 0x20 ADD KECCAK256 PUSH0 SHR PUSH2 0x28F6 SWAP2 SWAP1 PUSH2 0x32A2 JUMP JUMPDEST SWAP1 POP DUP1 PUSH1 0x4 DUP4 DUP2 SLOAD DUP2 LT PUSH2 0x290D JUMPI PUSH2 0x290C PUSH2 0x30D1 JUMP JUMPDEST JUMPDEST SWAP1 PUSH0 MSTORE PUSH1 0x20 PUSH0 KECCAK256 ADD PUSH0 ADD DUP2 SWAP1 SSTORE POP POP DUP1 DUP1 PUSH2 0x2927 SWAP1 PUSH2 0x3332 JUMP JUMPDEST SWAP2 POP POP PUSH2 0x2896 JUMP JUMPDEST POP JUMP JUMPDEST PUSH0 DUP1 PUSH1 0x3 DUP1 SLOAD SWAP1 POP SWAP1 POP PUSH0 DUP2 NUMBER PREVRANDAO CHAINID TIMESTAMP DUP7 PUSH2 0x294D SWAP2 SWAP1 PUSH2 0x3678 JUMP JUMPDEST PUSH2 0x2957 SWAP2 SWAP1 PUSH2 0x3678 JUMP JUMPDEST PUSH2 0x2961 SWAP2 SWAP1 PUSH2 0x3678 JUMP JUMPDEST PUSH2 0x296B SWAP2 SWAP1 PUSH2 0x3678 JUMP JUMPDEST PUSH1 0x40 MLOAD PUSH1 0x20 ADD PUSH2 0x297B SWAP2 SWAP1 PUSH2 0x36D9 JUMP JUMPDEST PUSH1 0x40 MLOAD PUSH1 0x20 DUP2 DUP4 SUB SUB DUP2 MSTORE SWAP1 PUSH1 0x40 MSTORE DUP1 MLOAD SWAP1 PUSH1 0x20 ADD KECCAK256 PUSH0 SHR PUSH2 0x299D SWAP2 SWAP1 PUSH2 0x32A2 JUMP JUMPDEST SWAP1 POP DUP1 SWAP3 POP POP POP SWAP1 JUMP JUMPDEST PUSH1 0x40 MLOAD DUP1 PUSH2 0x120 ADD PUSH1 0x40 MSTORE DUP1 PUSH1 0x60 DUP2 MSTORE PUSH1 0x20 ADD PUSH1 0x60 DUP2 MSTORE PUSH1 0x20 ADD PUSH0 DUP2 MSTORE PUSH1 0x20 ADD PUSH0 DUP2 MSTORE PUSH1 0x20 ADD PUSH0 DUP2 MSTORE PUSH1 0x20 ADD PUSH0 DUP2 MSTORE PUSH1 0x20 ADD PUSH0 DUP2 MSTORE PUSH1 0x20 ADD PUSH0 DUP2 MSTORE PUSH1 0x20 ADD PUSH0 DUP2 MSTORE POP SWAP1 JUMP JUMPDEST PUSH0 PUSH1 0x40 MLOAD SWAP1 POP SWAP1 JUMP JUMPDEST PUSH0 DUP1 REVERT JUMPDEST PUSH0 DUP1 REVERT JUMPDEST PUSH0 PUSH20 0xFFFFFFFFFFFFFFFFFFFFFFFFFFFFFFFFFFFFFFFF DUP3 AND SWAP1 POP SWAP2 SWAP1 POP JUMP JUMPDEST PUSH0 PUSH2 0x2A26 DUP3 PUSH2 0x29FD JUMP JUMPDEST SWAP1 POP SWAP2 SWAP1 POP JUMP JUMPDEST PUSH2 0x2A36 DUP2 PUSH2 0x2A1C JUMP JUMPDEST DUP2 EQ PUSH2 0x2A40 JUMPI PUSH0 DUP1 REVERT JUMPDEST POP JUMP JUMPDEST PUSH0 DUP2 CALLDATALOAD SWAP1 POP PUSH2 0x2A51 DUP2 PUSH2 0x2A2D JUMP JUMPDEST SWAP3 SWAP2 POP POP JUMP JUMPDEST PUSH0 DUP2 SWAP1 POP SWAP2 SWAP1 POP JUMP JUMPDEST PUSH2 0x2A69 DUP2 PUSH2 0x2A57 JUMP JUMPDEST DUP2 EQ PUSH2 0x2A73 JUMPI PUSH0 DUP1 REVERT JUMPDEST POP JUMP JUMPDEST PUSH0 DUP2 CALLDATALOAD SWAP1 POP PUSH2 0x2A84 DUP2 PUSH2 0x2A60 JUMP JUMPDEST SWAP3 SWAP2 POP POP JUMP JUMPDEST PUSH0 DUP1 PUSH1 0x40 DUP4 DUP6 SUB SLT ISZERO PUSH2 0x2AA0 JUMPI PUSH2 0x2A9F PUSH2 0x29F5 JUMP JUMPDEST JUMPDEST PUSH0 PUSH2 0x2AAD DUP6 DUP3 DUP7 ADD PUSH2 0x2A43 JUMP JUMPDEST SWAP3 POP POP PUSH1 0x20 PUSH2 0x2ABE DUP6 DUP3 DUP7 ADD PUSH2 0x2A76 JUMP JUMPDEST SWAP2 POP POP SWAP3 POP SWAP3 SWAP1 POP JUMP JUMPDEST PUSH0 PUSH1 0x20 DUP3 DUP5 SUB SLT ISZERO PUSH2 0x2ADD JUMPI PUSH2 0x2ADC PUSH2 0x29F5 JUMP JUMPDEST JUMPDEST PUSH0 PUSH2 0x2AEA DUP5 DUP3 DUP6 ADD PUSH2 0x2A76 JUMP JUMPDEST SWAP2 POP POP SWAP3 SWAP2 POP POP JUMP JUMPDEST PUSH2 0x2AFC DUP2 PUSH2 0x2A57 JUMP JUMPDEST DUP3 MSTORE POP POP JUMP JUMPDEST PUSH0 PUSH1 0x20 DUP3 ADD SWAP1 POP PUSH2 0x2B15 PUSH0 DUP4 ADD DUP5 PUSH2 0x2AF3 JUMP JUMPDEST SWAP3 SWAP2 POP POP JUMP JUMPDEST PUSH0 DUP1 PUSH1 0x40 DUP4 DUP6 SUB SLT ISZERO PUSH2 0x2B31 JUMPI PUSH2 0x2B30 PUSH2 0x29F5 JUMP JUMPDEST JUMPDEST PUSH0 PUSH2 0x2B3E DUP6 DUP3 DUP7 ADD PUSH2 0x2A76 JUMP JUMPDEST SWAP3 POP POP PUSH1 0x20 PUSH2 0x2B4F DUP6 DUP3 DUP7 ADD PUSH2 0x2A76 JUMP JUMPDEST SWAP2 POP POP SWAP3 POP SWAP3 SWAP1 POP JUMP JUMPDEST PUSH0 PUSH1 0x20 DUP3 DUP5 SUB SLT ISZERO PUSH2 0x2B6E JUMPI PUSH2 0x2B6D PUSH2 0x29F5 JUMP JUMPDEST JUMPDEST PUSH0 PUSH2 0x2B7B DUP5 DUP3 DUP6 ADD PUSH2 0x2A43 JUMP JUMPDEST SWAP2 POP POP SWAP3 SWAP2 POP POP JUMP JUMPDEST PUSH0 DUP2 MLOAD SWAP1 POP SWAP2 SWAP1 POP JUMP JUMPDEST PUSH0 DUP3 DUP3 MSTORE PUSH1 0x20 DUP3 ADD SWAP1 POP SWAP3 SWAP2 POP POP JUMP JUMPDEST PUSH0 DUP2 SWAP1 POP PUSH1 0x20 DUP3 ADD SWAP1 POP SWAP2 SWAP1 POP JUMP JUMPDEST PUSH2 0x2BB6 DUP2 PUSH2 0x2A57 JUMP JUMPDEST DUP3 MSTORE POP POP JUMP JUMPDEST PUSH0 PUSH2 0x2BC7 DUP4 DUP4 PUSH2 0x2BAD JUMP JUMPDEST PUSH1 0x20 DUP4 ADD SWAP1 POP SWAP3 SWAP2 POP POP JUMP JUMPDEST PUSH0 PUSH1 0x20 DUP3 ADD SWAP1 POP SWAP2 SWAP1 POP JUMP JUMPDEST PUSH0 PUSH2 0x2BE9 DUP3 PUSH2 0x2B84 JUMP JUMPDEST PUSH2 0x2BF3 DUP2 DUP6 PUSH2 0x2B8E JUMP JUMPDEST SWAP4 POP PUSH2 0x2BFE DUP4 PUSH2 0x2B9E JUMP JUMPDEST DUP1 PUSH0 JUMPDEST DUP4 DUP2 LT ISZERO PUSH2 0x2C2E JUMPI DUP2 MLOAD PUSH2 0x2C15 DUP9 DUP3 PUSH2 0x2BBC JUMP JUMPDEST SWAP8 POP PUSH2 0x2C20 DUP4 PUSH2 0x2BD3 JUMP JUMPDEST SWAP3 POP POP PUSH1 0x1 DUP2 ADD SWAP1 POP PUSH2 0x2C01 JUMP JUMPDEST POP DUP6 SWAP4 POP POP POP POP SWAP3 SWAP2 POP POP JUMP JUMPDEST PUSH0 PUSH1 0x20 DUP3 ADD SWAP1 POP DUP2 DUP2 SUB PUSH0 DUP4 ADD MSTORE PUSH2 0x2C53 DUP2 DUP5 PUSH2 0x2BDF JUMP JUMPDEST SWAP1 POP SWAP3 SWAP2 POP POP JUMP JUMPDEST PUSH0 DUP1 PUSH1 0x40 DUP4 DUP6 SUB SLT ISZERO PUSH2 0x2C71 JUMPI PUSH2 0x2C70 PUSH2 0x29F5 JUMP JUMPDEST JUMPDEST PUSH0 PUSH2 0x2C7E DUP6 DUP3 DUP7 ADD PUSH2 0x2A43 JUMP JUMPDEST SWAP3 POP POP PUSH1 0x20 PUSH2 0x2C8F DUP6 DUP3 DUP7 ADD PUSH2 0x2A43 JUMP JUMPDEST SWAP2 POP POP SWAP3 POP SWAP3 SWAP1 POP JUMP JUMPDEST PUSH0 DUP1 PUSH0 PUSH1 0x60 DUP5 DUP7 SUB SLT ISZERO PUSH2 0x2CB0 JUMPI PUSH2 0x2CAF PUSH2 0x29F5 JUMP JUMPDEST JUMPDEST PUSH0 PUSH2 0x2CBD DUP7 DUP3 DUP8 ADD PUSH2 0x2A43 JUMP JUMPDEST SWAP4 POP POP PUSH1 0x20 PUSH2 0x2CCE DUP7 DUP3 DUP8 ADD PUSH2 0x2A43 JUMP JUMPDEST SWAP3 POP POP PUSH1 0x40 PUSH2 0x2CDF DUP7 DUP3 DUP8 ADD PUSH2 0x2A76 JUMP JUMPDEST SWAP2 POP POP SWAP3 POP SWAP3 POP SWAP3 JUMP JUMPDEST PUSH0 DUP2 ISZERO ISZERO SWAP1 POP SWAP2 SWAP1 POP JUMP JUMPDEST PUSH2 0x2CFD DUP2 PUSH2 0x2CE9 JUMP JUMPDEST DUP3 MSTORE POP POP JUMP JUMPDEST PUSH0 PUSH1 0x20 DUP3 ADD SWAP1 POP PUSH2 0x2D16 PUSH0 DUP4 ADD DUP5 PUSH2 0x2CF4 JUMP JUMPDEST SWAP3 SWAP2 POP POP JUMP JUMPDEST PUSH0 DUP2 MLOAD SWAP1 POP SWAP2 SWAP1 POP JUMP JUMPDEST PUSH0 DUP3 DUP3 MSTORE PUSH1 0x20 DUP3 ADD SWAP1 POP SWAP3 SWAP2 POP POP JUMP JUMPDEST PUSH0 JUMPDEST DUP4 DUP2 LT ISZERO PUSH2 0x2D53 JUMPI DUP1 DUP3 ADD MLOAD DUP2 DUP5 ADD MSTORE PUSH1 0x20 DUP2 ADD SWAP1 POP PUSH2 0x2D38 JUMP JUMPDEST PUSH0 DUP5 DUP5 ADD MSTORE POP POP POP POP JUMP JUMPDEST PUSH0 PUSH1 0x1F NOT PUSH1 0x1F DUP4 ADD AND SWAP1 POP SWAP2 SWAP1 POP JUMP JUMPDEST PUSH0 PUSH2 0x2D78 DUP3 PUSH2 0x2D1C JUMP JUMPDEST PUSH2 0x2D82 DUP2 DUP6 PUSH2 0x2D26 JUMP JUMPDEST SWAP4 POP PUSH2 0x2D92 DUP2 DUP6 PUSH1 0x20 DUP7 ADD PUSH2 0x2D36 JUMP JUMPDEST PUSH2 0x2D9B DUP2 PUSH2 0x2D5E JUMP JUMPDEST DUP5 ADD SWAP2 POP POP SWAP3 SWAP2 POP POP JUMP JUMPDEST PUSH0 PUSH2 0x120 DUP4 ADD PUSH0 DUP4 ADD MLOAD DUP5 DUP3 SUB PUSH0 DUP7 ADD MSTORE PUSH2 0x2DC1 DUP3 DUP3 PUSH2 0x2D6E JUMP JUMPDEST SWAP2 POP POP PUSH1 0x20 DUP4 ADD MLOAD DUP5 DUP3 SUB PUSH1 0x20 DUP7 ADD MSTORE PUSH2 0x2DDB DUP3 DUP3 PUSH2 0x2D6E JUMP JUMPDEST SWAP2 POP POP PUSH1 0x40 DUP4 ADD MLOAD PUSH2 0x2DF0 PUSH1 0x40 DUP7 ADD DUP3 PUSH2 0x2BAD JUMP JUMPDEST POP PUSH1 0x60 DUP4 ADD MLOAD PUSH2 0x2E03 PUSH1 0x60 DUP7 ADD DUP3 PUSH2 0x2BAD JUMP JUMPDEST POP PUSH1 0x80 DUP4 ADD MLOAD PUSH2 0x2E16 PUSH1 0x80 DUP7 ADD DUP3 PUSH2 0x2BAD JUMP JUMPDEST POP PUSH1 0xA0 DUP4 ADD MLOAD PUSH2 0x2E29 PUSH1 0xA0 DUP7 ADD DUP3 PUSH2 0x2BAD JUMP JUMPDEST POP PUSH1 0xC0 DUP4 ADD MLOAD PUSH2 0x2E3C PUSH1 0xC0 DUP7 ADD DUP3 PUSH2 0x2BAD JUMP JUMPDEST POP PUSH1 0xE0 DUP4 ADD MLOAD PUSH2 0x2E4F PUSH1 0xE0 DUP7 ADD DUP3 PUSH2 0x2BAD JUMP JUMPDEST POP PUSH2 0x100 DUP4 ADD MLOAD PUSH2 0x2E64 PUSH2 0x100 DUP7 ADD DUP3 PUSH2 0x2BAD JUMP JUMPDEST POP DUP1 SWAP2 POP POP SWAP3 SWAP2 POP POP JUMP JUMPDEST PUSH0 PUSH1 0x20 DUP3 ADD SWAP1 POP DUP2 DUP2 SUB PUSH0 DUP4 ADD MSTORE PUSH2 0x2E87 DUP2 DUP5 PUSH2 0x2DA6 JUMP JUMPDEST SWAP1 POP SWAP3 SWAP2 POP POP JUMP JUMPDEST PUSH2 0x2E98 DUP2 PUSH2 0x2A1C JUMP JUMPDEST DUP3 MSTORE POP POP JUMP JUMPDEST PUSH0 PUSH1 0x20 DUP3 ADD SWAP1 POP PUSH2 0x2EB1 PUSH0 DUP4 ADD DUP5 PUSH2 0x2E8F JUMP JUMPDEST SWAP3 SWAP2 POP POP JUMP JUMPDEST PUSH0 DUP1 REVERT JUMPDEST PUSH0 DUP1 REVERT JUMPDEST PUSH32 0x4E487B7100000000000000000000000000000000000000000000000000000000 PUSH0 MSTORE PUSH1 0x41 PUSH1 0x4 MSTORE PUSH1 0x24 PUSH0 REVERT JUMPDEST PUSH2 0x2EF5 DUP3 PUSH2 0x2D5E JUMP JUMPDEST DUP2 ADD DUP2 DUP2 LT PUSH8 0xFFFFFFFFFFFFFFFF DUP3 GT OR ISZERO PUSH2 0x2F14 JUMPI PUSH2 0x2F13 PUSH2 0x2EBF JUMP JUMPDEST JUMPDEST DUP1 PUSH1 0x40 MSTORE POP POP POP JUMP JUMPDEST PUSH0 PUSH2 0x2F26 PUSH2 0x29EC JUMP JUMPDEST SWAP1 POP PUSH2 0x2F32 DUP3 DUP3 PUSH2 0x2EEC JUMP JUMPDEST SWAP2 SWAP1 POP JUMP JUMPDEST PUSH0 PUSH8 0xFFFFFFFFFFFFFFFF DUP3 GT ISZERO PUSH2 0x2F51 JUMPI PUSH2 0x2F50 PUSH2 0x2EBF JUMP JUMPDEST JUMPDEST PUSH2 0x2F5A DUP3 PUSH2 0x2D5E JUMP JUMPDEST SWAP1 POP PUSH1 0x20 DUP2 ADD SWAP1 POP SWAP2 SWAP1 POP JUMP JUMPDEST DUP3 DUP2 DUP4 CALLDATACOPY PUSH0 DUP4 DUP4 ADD MSTORE POP POP POP JUMP JUMPDEST PUSH0 PUSH2 0x2F87 PUSH2 0x2F82 DUP5 PUSH2 0x2F37 JUMP JUMPDEST PUSH2 0x2F1D JUMP JUMPDEST SWAP1 POP DUP3 DUP2 MSTORE PUSH1 0x20 DUP2 ADD DUP5 DUP5 DUP5 ADD GT ISZERO PUSH2 0x2FA3 JUMPI PUSH2 0x2FA2 PUSH2 0x2EBB JUMP JUMPDEST JUMPDEST PUSH2 0x2FAE DUP5 DUP3 DUP6 PUSH2 0x2F67 JUMP JUMPDEST POP SWAP4 SWAP3 POP POP POP JUMP JUMPDEST PUSH0 DUP3 PUSH1 0x1F DUP4 ADD SLT PUSH2 0x2FCA JUMPI PUSH2 0x2FC9 PUSH2 0x2EB7 JUMP JUMPDEST JUMPDEST DUP2 CALLDATALOAD PUSH2 0x2FDA DUP5 DUP3 PUSH1 0x20 DUP7 ADD PUSH2 0x2F75 JUMP JUMPDEST SWAP2 POP POP SWAP3 SWAP2 POP POP JUMP JUMPDEST PUSH0 DUP1 PUSH1 0x40 DUP4 DUP6 SUB SLT ISZERO PUSH2 0x2FF9 JUMPI PUSH2 0x2FF8 PUSH2 0x29F5 JUMP JUMPDEST JUMPDEST PUSH0 DUP4 ADD CALLDATALOAD PUSH8 0xFFFFFFFFFFFFFFFF DUP2 GT ISZERO PUSH2 0x3016 JUMPI PUSH2 0x3015 PUSH2 0x29F9 JUMP JUMPDEST JUMPDEST PUSH2 0x3022 DUP6 DUP3 DUP7 ADD PUSH2 0x2FB6 JUMP JUMPDEST SWAP3 POP POP PUSH1 0x20 DUP4 ADD CALLDATALOAD PUSH8 0xFFFFFFFFFFFFFFFF DUP2 GT ISZERO PUSH2 0x3043 JUMPI PUSH2 0x3042 PUSH2 0x29F9 JUMP JUMPDEST JUMPDEST PUSH2 0x304F DUP6 DUP3 DUP7 ADD PUSH2 0x2FB6 JUMP JUMPDEST SWAP2 POP POP SWAP3 POP SWAP3 SWAP1 POP JUMP JUMPDEST PUSH0 DUP3 DUP3 MSTORE PUSH1 0x20 DUP3 ADD SWAP1 POP SWAP3 SWAP2 POP POP JUMP JUMPDEST PUSH32 0x4F6E6C79204F776E65722E000000000000000000000000000000000000000000 PUSH0 DUP3 ADD MSTORE POP JUMP JUMPDEST PUSH0 PUSH2 0x309D PUSH1 0xB DUP4 PUSH2 0x3059 JUMP JUMPDEST SWAP2 POP PUSH2 0x30A8 DUP3 PUSH2 0x3069 JUMP JUMPDEST PUSH1 0x20 DUP3 ADD SWAP1 POP SWAP2 SWAP1 POP JUMP JUMPDEST PUSH0 PUSH1 0x20 DUP3 ADD SWAP1 POP DUP2 DUP2 SUB PUSH0 DUP4 ADD MSTORE PUSH2 0x30CA DUP2 PUSH2 0x3091 JUMP JUMPDEST SWAP1 POP SWAP2 SWAP1 POP JUMP JUMPDEST PUSH32 0x4E487B7100000000000000000000000000000000000000000000000000000000 PUSH0 MSTORE PUSH1 0x32 PUSH1 0x4 MSTORE PUSH1 0x24 PUSH0 REVERT JUMPDEST PUSH32 0x4E487B7100000000000000000000000000000000000000000000000000000000 PUSH0 MSTORE PUSH1 0x22 PUSH1 0x4 MSTORE PUSH1 0x24 PUSH0 REVERT JUMPDEST PUSH0 PUSH1 0x2 DUP3 DIV SWAP1 POP PUSH1 0x1 DUP3 AND DUP1 PUSH2 0x3142 JUMPI PUSH1 0x7F DUP3 AND SWAP2 POP JUMPDEST PUSH1 0x20 DUP3 LT DUP2 SUB PUSH2 0x3155 JUMPI PUSH2 0x3154 PUSH2 0x30FE JUMP JUMPDEST JUMPDEST POP SWAP2 SWAP1 POP JUMP JUMPDEST PUSH0 DUP2 SWAP1 POP SWAP3 SWAP2 POP POP JUMP JUMPDEST PUSH0 DUP2 SWAP1 POP DUP2 PUSH0 MSTORE PUSH1 0x20 PUSH0 KECCAK256 SWAP1 POP SWAP2 SWAP1 POP JUMP JUMPDEST PUSH0 DUP2 SLOAD PUSH2 0x3183 DUP2 PUSH2 0x312B JUMP JUMPDEST PUSH2 0x318D DUP2 DUP7 PUSH2 0x315B JUMP JUMPDEST SWAP5 POP PUSH1 0x1 DUP3 AND PUSH0 DUP2 EQ PUSH2 0x31A7 JUMPI PUSH1 0x1 DUP2 EQ PUSH2 0x31BC JUMPI PUSH2 0x31EE JUMP JUMPDEST PUSH1 0xFF NOT DUP4 AND DUP7 MSTORE DUP2 ISZERO ISZERO DUP3 MUL DUP7 ADD SWAP4 POP PUSH2 0x31EE JUMP JUMPDEST PUSH2 0x31C5 DUP6 PUSH2 0x3165 JUMP JUMPDEST PUSH0 JUMPDEST DUP4 DUP2 LT ISZERO PUSH2 0x31E6 JUMPI DUP2 SLOAD DUP2 DUP10 ADD MSTORE PUSH1 0x1 DUP3 ADD SWAP2 POP PUSH1 0x20 DUP2 ADD SWAP1 POP PUSH2 0x31C7 JUMP JUMPDEST DUP4 DUP9 ADD SWAP6 POP POP POP JUMPDEST POP POP POP SWAP3 SWAP2 POP POP JUMP JUMPDEST PUSH0 PUSH2 0x3202 DUP3 DUP5 PUSH2 0x3177 JUMP JUMPDEST SWAP2 POP DUP2 SWAP1 POP SWAP3 SWAP2 POP POP JUMP JUMPDEST PUSH32 0x66726565206E66742063616E74206F6E2072656E742E00000000000000000000 PUSH0 DUP3 ADD MSTORE POP JUMP JUMPDEST PUSH0 PUSH2 0x3241 PUSH1 0x16 DUP4 PUSH2 0x3059 JUMP JUMPDEST SWAP2 POP PUSH2 0x324C DUP3 PUSH2 0x320D JUMP JUMPDEST PUSH1 0x20 DUP3 ADD SWAP1 POP SWAP2 SWAP1 POP JUMP JUMPDEST PUSH0 PUSH1 0x20 DUP3 ADD SWAP1 POP DUP2 DUP2 SUB PUSH0 DUP4 ADD MSTORE PUSH2 0x326E DUP2 PUSH2 0x3235 JUMP JUMPDEST SWAP1 POP SWAP2 SWAP1 POP JUMP JUMPDEST PUSH32 0x4E487B7100000000000000000000000000000000000000000000000000000000 PUSH0 MSTORE PUSH1 0x12 PUSH1 0x4 MSTORE PUSH1 0x24 PUSH0 REVERT JUMPDEST PUSH0 PUSH2 0x32AC DUP3 PUSH2 0x2A57 JUMP JUMPDEST SWAP2 POP PUSH2 0x32B7 DUP4 PUSH2 0x2A57 JUMP JUMPDEST SWAP3 POP DUP3 PUSH2 0x32C7 JUMPI PUSH2 0x32C6 PUSH2 0x3275 JUMP JUMPDEST JUMPDEST DUP3 DUP3 MOD SWAP1 POP SWAP3 SWAP2 POP POP JUMP JUMPDEST PUSH32 0x4E487B7100000000000000000000000000000000000000000000000000000000 PUSH0 MSTORE PUSH1 0x11 PUSH1 0x4 MSTORE PUSH1 0x24 PUSH0 REVERT JUMPDEST PUSH0 PUSH2 0x3309 DUP3 PUSH2 0x2A57 JUMP JUMPDEST SWAP2 POP PUSH2 0x3314 DUP4 PUSH2 0x2A57 JUMP JUMPDEST SWAP3 POP DUP3 DUP3 ADD SWAP1 POP DUP1 DUP3 GT ISZERO PUSH2 0x332C JUMPI PUSH2 0x332B PUSH2 0x32D2 JUMP JUMPDEST JUMPDEST SWAP3 SWAP2 POP POP JUMP JUMPDEST PUSH0 PUSH2 0x333C DUP3 PUSH2 0x2A57 JUMP JUMPDEST SWAP2 POP PUSH32 0xFFFFFFFFFFFFFFFFFFFFFFFFFFFFFFFFFFFFFFFFFFFFFFFFFFFFFFFFFFFFFFFF DUP3 SUB PUSH2 0x336E JUMPI PUSH2 0x336D PUSH2 0x32D2 JUMP JUMPDEST JUMPDEST PUSH1 0x1 DUP3 ADD SWAP1 POP SWAP2 SWAP1 POP JUMP JUMPDEST PUSH32 0x66726565206E66742063616E2073656C6C2E0000000000000000000000000000 PUSH0 DUP3 ADD MSTORE POP JUMP JUMPDEST PUSH0 PUSH2 0x33AD PUSH1 0x12 DUP4 PUSH2 0x3059 JUMP JUMPDEST SWAP2 POP PUSH2 0x33B8 DUP3 PUSH2 0x3379 JUMP JUMPDEST PUSH1 0x20 DUP3 ADD SWAP1 POP SWAP2 SWAP1 POP JUMP JUMPDEST PUSH0 PUSH1 0x20 DUP3 ADD SWAP1 POP DUP2 DUP2 SUB PUSH0 DUP4 ADD MSTORE PUSH2 0x33DA DUP2 PUSH2 0x33A1 JUMP JUMPDEST SWAP1 POP SWAP2 SWAP1 POP JUMP JUMPDEST PUSH32 0x54686973206E6674206F6E2072656E742E000000000000000000000000000000 PUSH0 DUP3 ADD MSTORE POP JUMP JUMPDEST PUSH0 PUSH2 0x3415 PUSH1 0x11 DUP4 PUSH2 0x3059 JUMP JUMPDEST SWAP2 POP PUSH2 0x3420 DUP3 PUSH2 0x33E1 JUMP JUMPDEST PUSH1 0x20 DUP3 ADD SWAP1 POP SWAP2 SWAP1 POP JUMP JUMPDEST PUSH0 PUSH1 0x20 DUP3 ADD SWAP1 POP DUP2 DUP2 SUB PUSH0 DUP4 ADD MSTORE PUSH2 0x3442 DUP2 PUSH2 0x3409 JUMP JUMPDEST SWAP1 POP SWAP2 SWAP1 POP JUMP JUMPDEST PUSH32 0x596F7520646F6E742068617665204E66742E0000000000000000000000000000 PUSH0 DUP3 ADD MSTORE POP JUMP JUMPDEST PUSH0 PUSH2 0x347D PUSH1 0x12 DUP4 PUSH2 0x3059 JUMP JUMPDEST SWAP2 POP PUSH2 0x3488 DUP3 PUSH2 0x3449 JUMP JUMPDEST PUSH1 0x20 DUP3 ADD SWAP1 POP SWAP2 SWAP1 POP JUMP JUMPDEST PUSH0 PUSH1 0x20 DUP3 ADD SWAP1 POP DUP2 DUP2 SUB PUSH0 DUP4 ADD MSTORE PUSH2 0x34AA DUP2 PUSH2 0x3471 JUMP JUMPDEST SWAP1 POP SWAP2 SWAP1 POP JUMP JUMPDEST PUSH0 PUSH2 0x34BB DUP3 PUSH2 0x2A57 JUMP JUMPDEST SWAP2 POP PUSH0 DUP3 SUB PUSH2 0x34CD JUMPI PUSH2 0x34CC PUSH2 0x32D2 JUMP JUMPDEST JUMPDEST PUSH1 0x1 DUP3 SUB SWAP1 POP SWAP2 SWAP1 POP JUMP JUMPDEST PUSH32 0x416C726561647920686176652031206F72206D6F7265206E66742E0000000000 PUSH0 DUP3 ADD MSTORE POP JUMP JUMPDEST PUSH0 PUSH2 0x350C PUSH1 0x1B DUP4 PUSH2 0x3059 JUMP JUMPDEST SWAP2 POP PUSH2 0x3517 DUP3 PUSH2 0x34D8 JUMP JUMPDEST PUSH1 0x20 DUP3 ADD SWAP1 POP SWAP2 SWAP1 POP JUMP JUMPDEST PUSH0 PUSH1 0x20 DUP3 ADD SWAP1 POP DUP2 DUP2 SUB PUSH0 DUP4 ADD MSTORE PUSH2 0x3539 DUP2 PUSH2 0x3500 JUMP JUMPDEST SWAP1 POP SWAP2 SWAP1 POP JUMP JUMPDEST PUSH32 0x596F7520646F6E742068617665206E66742E0000000000000000000000000000 PUSH0 DUP3 ADD MSTORE POP JUMP JUMPDEST PUSH0 PUSH2 0x3574 PUSH1 0x12 DUP4 PUSH2 0x3059 JUMP JUMPDEST SWAP2 POP PUSH2 0x357F DUP3 PUSH2 0x3540 JUMP JUMPDEST PUSH1 0x20 DUP3 ADD SWAP1 POP SWAP2 SWAP1 POP JUMP JUMPDEST PUSH0 PUSH1 0x20 DUP3 ADD SWAP1 POP DUP2 DUP2 SUB PUSH0 DUP4 ADD MSTORE PUSH2 0x35A1 DUP2 PUSH2 0x3568 JUMP JUMPDEST SWAP1 POP SWAP2 SWAP1 POP JUMP JUMPDEST PUSH32 0x766C7565206D75737420626520312065746865722E0000000000000000000000 PUSH0 DUP3 ADD MSTORE POP JUMP JUMPDEST PUSH0 PUSH2 0x35DC PUSH1 0x15 DUP4 PUSH2 0x3059 JUMP JUMPDEST SWAP2 POP PUSH2 0x35E7 DUP3 PUSH2 0x35A8 JUMP JUMPDEST PUSH1 0x20 DUP3 ADD SWAP1 POP SWAP2 SWAP1 POP JUMP JUMPDEST PUSH0 PUSH1 0x20 DUP3 ADD SWAP1 POP DUP2 DUP2 SUB PUSH0 DUP4 ADD MSTORE PUSH2 0x3609 DUP2 PUSH2 0x35D0 JUMP JUMPDEST SWAP1 POP SWAP2 SWAP1 POP JUMP JUMPDEST PUSH32 0x436F7272656374205370656C6C696E6700000000000000000000000000000000 PUSH0 DUP3 ADD MSTORE POP JUMP JUMPDEST PUSH0 PUSH2 0x3644 PUSH1 0x10 DUP4 PUSH2 0x3059 JUMP JUMPDEST SWAP2 POP PUSH2 0x364F DUP3 PUSH2 0x3610 JUMP JUMPDEST PUSH1 0x20 DUP3 ADD SWAP1 POP SWAP2 SWAP1 POP JUMP JUMPDEST PUSH0 PUSH1 0x20 DUP3 ADD SWAP1 POP DUP2 DUP2 SUB PUSH0 DUP4 ADD MSTORE PUSH2 0x3671 DUP2 PUSH2 0x3638 JUMP JUMPDEST SWAP1 POP SWAP2 SWAP1 POP JUMP JUMPDEST PUSH0 PUSH2 0x3682 DUP3 PUSH2 0x2A57 JUMP JUMPDEST SWAP2 POP PUSH2 0x368D DUP4 PUSH2 0x2A57 JUMP JUMPDEST SWAP3 POP DUP3 DUP3 MUL PUSH2 0x369B DUP2 PUSH2 0x2A57 JUMP JUMPDEST SWAP2 POP DUP3 DUP3 DIV DUP5 EQ DUP4 ISZERO OR PUSH2 0x36B2 JUMPI PUSH2 0x36B1 PUSH2 0x32D2 JUMP JUMPDEST JUMPDEST POP SWAP3 SWAP2 POP POP JUMP JUMPDEST PUSH0 DUP2 SWAP1 POP SWAP2 SWAP1 POP JUMP JUMPDEST PUSH2 0x36D3 PUSH2 0x36CE DUP3 PUSH2 0x2A57 JUMP JUMPDEST PUSH2 0x36B9 JUMP JUMPDEST DUP3 MSTORE POP POP JUMP JUMPDEST PUSH0 PUSH2 0x36E4 DUP3 DUP5 PUSH2 0x36C2 JUMP JUMPDEST PUSH1 0x20 DUP3 ADD SWAP2 POP DUP2 SWAP1 POP SWAP3 SWAP2 POP POP JUMP JUMPDEST PUSH32 0x796F75206E656564206D6F726520787000000000000000000000000000000000 PUSH0 DUP3 ADD MSTORE POP JUMP JUMPDEST PUSH0 PUSH2 0x3727 PUSH1 0x10 DUP4 PUSH2 0x3059 JUMP JUMPDEST SWAP2 POP PUSH2 0x3732 DUP3 PUSH2 0x36F3 JUMP JUMPDEST PUSH1 0x20 DUP3 ADD SWAP1 POP SWAP2 SWAP1 POP JUMP JUMPDEST PUSH0 PUSH1 0x20 DUP3 ADD SWAP1 POP DUP2 DUP2 SUB PUSH0 DUP4 ADD MSTORE PUSH2 0x3754 DUP2 PUSH2 0x371B JUMP JUMPDEST SWAP1 POP SWAP2 SWAP1 POP JUMP JUMPDEST PUSH0 PUSH2 0x3765 DUP3 PUSH2 0x2A57 JUMP JUMPDEST SWAP2 POP PUSH2 0x3770 DUP4 PUSH2 0x2A57 JUMP JUMPDEST SWAP3 POP DUP3 DUP3 SUB SWAP1 POP DUP2 DUP2 GT ISZERO PUSH2 0x3788 JUMPI PUSH2 0x3787 PUSH2 0x32D2 JUMP JUMPDEST JUMPDEST SWAP3 SWAP2 POP POP JUMP JUMPDEST PUSH32 0x6E6F7420696E2072656E742E0000000000000000000000000000000000000000 PUSH0 DUP3 ADD MSTORE POP JUMP JUMPDEST PUSH0 PUSH2 0x37C2 PUSH1 0xC DUP4 PUSH2 0x3059 JUMP JUMPDEST SWAP2 POP PUSH2 0x37CD DUP3 PUSH2 0x378E JUMP JUMPDEST PUSH1 0x20 DUP3 ADD SWAP1 POP SWAP2 SWAP1 POP JUMP JUMPDEST PUSH0 PUSH1 0x20 DUP3 ADD SWAP1 POP DUP2 DUP2 SUB PUSH0 DUP4 ADD MSTORE PUSH2 0x37EF DUP2 PUSH2 0x37B6 JUMP JUMPDEST SWAP1 POP SWAP2 SWAP1 POP JUMP JUMPDEST PUSH32 0x74696D652072656D61696E732E00000000000000000000000000000000000000 PUSH0 DUP3 ADD MSTORE POP JUMP JUMPDEST PUSH0 PUSH2 0x382A PUSH1 0xD DUP4 PUSH2 0x3059 JUMP JUMPDEST SWAP2 POP PUSH2 0x3835 DUP3 PUSH2 0x37F6 JUMP JUMPDEST PUSH1 0x20 DUP3 ADD SWAP1 POP SWAP2 SWAP1 POP JUMP JUMPDEST PUSH0 PUSH1 0x20 DUP3 ADD SWAP1 POP DUP2 DUP2 SUB PUSH0 DUP4 ADD MSTORE PUSH2 0x3857 DUP2 PUSH2 0x381E JUMP JUMPDEST SWAP1 POP SWAP2 SWAP1 POP JUMP JUMPDEST PUSH32 0x4E6F77206964206973206E6F74206F6E2072656E742E00000000000000000000 PUSH0 DUP3 ADD MSTORE POP JUMP JUMPDEST PUSH0 PUSH2 0x3892 PUSH1 0x16 DUP4 PUSH2 0x3059 JUMP JUMPDEST SWAP2 POP PUSH2 0x389D DUP3 PUSH2 0x385E JUMP JUMPDEST PUSH1 0x20 DUP3 ADD SWAP1 POP SWAP2 SWAP1 POP JUMP JUMPDEST PUSH0 PUSH1 0x20 DUP3 ADD SWAP1 POP DUP2 DUP2 SUB PUSH0 DUP4 ADD MSTORE PUSH2 0x38BF DUP2 PUSH2 0x3886 JUMP JUMPDEST SWAP1 POP SWAP2 SWAP1 POP JUMP JUMPDEST PUSH32 0x616D6F756E74206E6F74206D617463682065746865722072657175697265642E PUSH0 DUP3 ADD MSTORE POP JUMP JUMPDEST PUSH0 PUSH2 0x38FA PUSH1 0x20 DUP4 PUSH2 0x3059 JUMP JUMPDEST SWAP2 POP PUSH2 0x3905 DUP3 PUSH2 0x38C6 JUMP JUMPDEST PUSH1 0x20 DUP3 ADD SWAP1 POP SWAP2 SWAP1 POP JUMP JUMPDEST PUSH0 PUSH1 0x20 DUP3 ADD SWAP1 POP DUP2 DUP2 SUB PUSH0 DUP4 ADD MSTORE PUSH2 0x3927 DUP2 PUSH2 0x38EE JUMP JUMPDEST SWAP1 POP SWAP2 SWAP1 POP JUMP JUMPDEST PUSH32 0x616C72656164792074616B656E204E66742E0000000000000000000000000000 PUSH0 DUP3 ADD MSTORE POP JUMP JUMPDEST PUSH0 PUSH2 0x3962 PUSH1 0x12 DUP4 PUSH2 0x3059 JUMP JUMPDEST SWAP2 POP PUSH2 0x396D DUP3 PUSH2 0x392E JUMP JUMPDEST PUSH1 0x20 DUP3 ADD SWAP1 POP SWAP2 SWAP1 POP JUMP JUMPDEST PUSH0 PUSH1 0x20 DUP3 ADD SWAP1 POP DUP2 DUP2 SUB PUSH0 DUP4 ADD MSTORE PUSH2 0x398F DUP2 PUSH2 0x3956 JUMP JUMPDEST SWAP1 POP SWAP2 SWAP1 POP JUMP JUMPDEST PUSH32 0x6F776E65722063616E742074616B6520686973206F776E2069642E0000000000 PUSH0 DUP3 ADD MSTORE POP JUMP JUMPDEST PUSH0 PUSH2 0x39CA PUSH1 0x1B DUP4 PUSH2 0x3059 JUMP JUMPDEST SWAP2 POP PUSH2 0x39D5 DUP3 PUSH2 0x3996 JUMP JUMPDEST PUSH1 0x20 DUP3 ADD SWAP1 POP SWAP2 SWAP1 POP JUMP JUMPDEST PUSH0 PUSH1 0x20 DUP3 ADD SWAP1 POP DUP2 DUP2 SUB PUSH0 DUP4 ADD MSTORE PUSH2 0x39F7 DUP2 PUSH2 0x39BE JUMP JUMPDEST SWAP1 POP SWAP2 SWAP1 POP JUMP JUMPDEST PUSH32 0x6E6674206E6F74206C69737465642E0000000000000000000000000000000000 PUSH0 DUP3 ADD MSTORE POP JUMP JUMPDEST PUSH0 PUSH2 0x3A32 PUSH1 0xF DUP4 PUSH2 0x3059 JUMP JUMPDEST SWAP2 POP PUSH2 0x3A3D DUP3 PUSH2 0x39FE JUMP JUMPDEST PUSH1 0x20 DUP3 ADD SWAP1 POP SWAP2 SWAP1 POP JUMP JUMPDEST PUSH0 PUSH1 0x20 DUP3 ADD SWAP1 POP DUP2 DUP2 SUB PUSH0 DUP4 ADD MSTORE PUSH2 0x3A5F DUP2 PUSH2 0x3A26 JUMP JUMPDEST SWAP1 POP SWAP2 SWAP1 POP JUMP JUMPDEST PUSH32 0x596F752068617665206368616E636573206F7220416C7265616479206D696E69 PUSH0 DUP3 ADD MSTORE PUSH32 0x6E672E0000000000000000000000000000000000000000000000000000000000 PUSH1 0x20 DUP3 ADD MSTORE POP JUMP JUMPDEST PUSH0 PUSH2 0x3AC0 PUSH1 0x23 DUP4 PUSH2 0x3059 JUMP JUMPDEST SWAP2 POP PUSH2 0x3ACB DUP3 PUSH2 0x3A66 JUMP JUMPDEST PUSH1 0x40 DUP3 ADD SWAP1 POP SWAP2 SWAP1 POP JUMP JUMPDEST PUSH0 PUSH1 0x20 DUP3 ADD SWAP1 POP DUP2 DUP2 SUB PUSH0 DUP4 ADD MSTORE PUSH2 0x3AED DUP2 PUSH2 0x3AB4 JUMP JUMPDEST SWAP1 POP SWAP2 SWAP1 POP JUMP JUMPDEST PUSH0 DUP2 SWAP1 POP SWAP3 SWAP2 POP POP JUMP JUMPDEST PUSH0 PUSH2 0x3B08 DUP3 PUSH2 0x2D1C JUMP JUMPDEST PUSH2 0x3B12 DUP2 DUP6 PUSH2 0x3AF4 JUMP JUMPDEST SWAP4 POP PUSH2 0x3B22 DUP2 DUP6 PUSH1 0x20 DUP7 ADD PUSH2 0x2D36 JUMP JUMPDEST DUP1 DUP5 ADD SWAP2 POP POP SWAP3 SWAP2 POP POP JUMP JUMPDEST PUSH0 PUSH2 0x3B39 DUP3 DUP5 PUSH2 0x3AFE JUMP JUMPDEST SWAP2 POP DUP2 SWAP1 POP SWAP3 SWAP2 POP POP JUMP JUMPDEST PUSH0 DUP2 SWAP1 POP DUP2 PUSH0 MSTORE PUSH1 0x20 PUSH0 KECCAK256 SWAP1 POP SWAP2 SWAP1 POP JUMP JUMPDEST PUSH0 PUSH1 0x20 PUSH1 0x1F DUP4 ADD DIV SWAP1 POP SWAP2 SWAP1 POP JUMP JUMPDEST PUSH0 DUP3 DUP3 SHL SWAP1 POP SWAP3 SWAP2 POP POP JUMP JUMPDEST PUSH0 PUSH1 0x8 DUP4 MUL PUSH2 0x3BA0 PUSH32 0xFFFFFFFFFFFFFFFFFFFFFFFFFFFFFFFFFFFFFFFFFFFFFFFFFFFFFFFFFFFFFFFF DUP3 PUSH2 0x3B65 JUMP JUMPDEST PUSH2 0x3BAA DUP7 DUP4 PUSH2 0x3B65 JUMP JUMPDEST SWAP6 POP DUP1 NOT DUP5 AND SWAP4 POP DUP1 DUP7 AND DUP5 OR SWAP3 POP POP POP SWAP4 SWAP3 POP POP POP JUMP JUMPDEST PUSH0 DUP2 SWAP1 POP SWAP2 SWAP1 POP JUMP JUMPDEST PUSH0 PUSH2 0x3BE5 PUSH2 0x3BE0 PUSH2 0x3BDB DUP5 PUSH2 0x2A57 JUMP JUMPDEST PUSH2 0x3BC2 JUMP JUMPDEST PUSH2 0x2A57 JUMP JUMPDEST SWAP1 POP SWAP2 SWAP1 POP JUMP JUMPDEST PUSH0 DUP2 SWAP1 POP SWAP2 SWAP1 POP JUMP JUMPDEST PUSH2 0x3BFE DUP4 PUSH2 0x3BCB JUMP JUMPDEST PUSH2 0x3C12 PUSH2 0x3C0A DUP3 PUSH2 0x3BEC JUMP JUMPDEST DUP5 DUP5 SLOAD PUSH2 0x3B71 JUMP JUMPDEST DUP3 SSTORE POP POP POP POP JUMP JUMPDEST PUSH0 SWAP1 JUMP JUMPDEST PUSH2 0x3C26 PUSH2 0x3C1A JUMP JUMPDEST PUSH2 0x3C31 DUP2 DUP5 DUP5 PUSH2 0x3BF5 JUMP JUMPDEST POP POP POP JUMP JUMPDEST JUMPDEST DUP2 DUP2 LT ISZERO PUSH2 0x3C54 JUMPI PUSH2 0x3C49 PUSH0 DUP3 PUSH2 0x3C1E JUMP JUMPDEST PUSH1 0x1 DUP2 ADD SWAP1 POP PUSH2 0x3C37 JUMP JUMPDEST POP POP JUMP JUMPDEST PUSH1 0x1F DUP3 GT ISZERO PUSH2 0x3C99 JUMPI PUSH2 0x3C6A DUP2 PUSH2 0x3B44 JUMP JUMPDEST PUSH2 0x3C73 DUP5 PUSH2 0x3B56 JUMP JUMPDEST DUP2 ADD PUSH1 0x20 DUP6 LT ISZERO PUSH2 0x3C82 JUMPI DUP2 SWAP1 POP JUMPDEST PUSH2 0x3C96 PUSH2 0x3C8E DUP6 PUSH2 0x3B56 JUMP JUMPDEST DUP4 ADD DUP3 PUSH2 0x3C36 JUMP JUMPDEST POP POP JUMPDEST POP POP POP JUMP JUMPDEST PUSH0 DUP3 DUP3 SHR SWAP1 POP SWAP3 SWAP2 POP POP JUMP JUMPDEST PUSH0 PUSH2 0x3CB9 PUSH0 NOT DUP5 PUSH1 0x8 MUL PUSH2 0x3C9E JUMP JUMPDEST NOT DUP1 DUP4 AND SWAP2 POP POP SWAP3 SWAP2 POP POP JUMP JUMPDEST PUSH0 PUSH2 0x3CD1 DUP4 DUP4 PUSH2 0x3CAA JUMP JUMPDEST SWAP2 POP DUP3 PUSH1 0x2 MUL DUP3 OR SWAP1 POP SWAP3 SWAP2 POP POP JUMP JUMPDEST PUSH2 0x3CEA DUP3 PUSH2 0x2D1C JUMP JUMPDEST PUSH8 0xFFFFFFFFFFFFFFFF DUP2 GT ISZERO PUSH2 0x3D03 JUMPI PUSH2 0x3D02 PUSH2 0x2EBF JUMP JUMPDEST JUMPDEST PUSH2 0x3D0D DUP3 SLOAD PUSH2 0x312B JUMP JUMPDEST PUSH2 0x3D18 DUP3 DUP3 DUP6 PUSH2 0x3C58 JUMP JUMPDEST PUSH0 PUSH1 0x20 SWAP1 POP PUSH1 0x1F DUP4 GT PUSH1 0x1 DUP2 EQ PUSH2 0x3D49 JUMPI PUSH0 DUP5 ISZERO PUSH2 0x3D37 JUMPI DUP3 DUP8 ADD MLOAD SWAP1 POP JUMPDEST PUSH2 0x3D41 DUP6 DUP3 PUSH2 0x3CC6 JUMP JUMPDEST DUP7 SSTORE POP PUSH2 0x3DA8 JUMP JUMPDEST PUSH1 0x1F NOT DUP5 AND PUSH2 0x3D57 DUP7 PUSH2 0x3B44 JUMP JUMPDEST PUSH0 JUMPDEST DUP3 DUP2 LT ISZERO PUSH2 0x3D7E JUMPI DUP5 DUP10 ADD MLOAD DUP3 SSTORE PUSH1 0x1 DUP3 ADD SWAP2 POP PUSH1 0x20 DUP6 ADD SWAP5 POP PUSH1 0x20 DUP2 ADD SWAP1 POP PUSH2 0x3D59 JUMP JUMPDEST DUP7 DUP4 LT ISZERO PUSH2 0x3D9B JUMPI DUP5 DUP10 ADD MLOAD PUSH2 0x3D97 PUSH1 0x1F DUP10 AND DUP3 PUSH2 0x3CAA JUMP JUMPDEST DUP4 SSTORE POP JUMPDEST PUSH1 0x1 PUSH1 0x2 DUP9 MUL ADD DUP9 SSTORE POP POP POP JUMPDEST POP POP POP POP POP POP JUMP JUMPDEST PUSH32 0x4D696E6520746865206D6174636865732E000000000000000000000000000000 PUSH0 DUP3 ADD MSTORE POP JUMP JUMPDEST PUSH0 PUSH2 0x3DE4 PUSH1 0x11 DUP4 PUSH2 0x3059 JUMP JUMPDEST SWAP2 POP PUSH2 0x3DEF DUP3 PUSH2 0x3DB0 JUMP JUMPDEST PUSH1 0x20 DUP3 ADD SWAP1 POP SWAP2 SWAP1 POP JUMP JUMPDEST PUSH0 PUSH1 0x20 DUP3 ADD SWAP1 POP DUP2 DUP2 SUB PUSH0 DUP4 ADD MSTORE PUSH2 0x3E11 DUP2 PUSH2 0x3DD8 JUMP JUMPDEST SWAP1 POP SWAP2 SWAP1 POP JUMP JUMPDEST PUSH32 0x416761696E205472790000000000000000000000000000000000000000000000 PUSH0 DUP3 ADD MSTORE POP JUMP JUMPDEST PUSH0 PUSH2 0x3E4C PUSH1 0x9 DUP4 PUSH2 0x3059 JUMP JUMPDEST SWAP2 POP PUSH2 0x3E57 DUP3 PUSH2 0x3E18 JUMP JUMPDEST PUSH1 0x20 DUP3 ADD SWAP1 POP SWAP2 SWAP1 POP JUMP JUMPDEST PUSH0 PUSH1 0x20 DUP3 ADD SWAP1 POP DUP2 DUP2 SUB PUSH0 DUP4 ADD MSTORE PUSH2 0x3E79 DUP2 PUSH2 0x3E40 JUMP JUMPDEST SWAP1 POP SWAP2 SWAP1 POP JUMP INVALID JUMPI PUSH10 0x6E20416E64204C6F6F73 PUSH6 0x206973207468 PUSH6 0x207061727420 PUSH16 0x66207468652047616D652E5472792041 PUSH8 0x61696E212EA26469 PUSH17 0x66735822122006BAB5EFFB8545DE12CFC5 0xE3 JUMPDEST PUSH32 0xA89AAD9D172FE8C1F613BA8082AC15863BAF64736F6C63430008150033000000 "
				},
				"gasEstimates": {
					"creation": {
						"codeDepositCost": "3220600",
						"executionCost": "25675",
						"totalCost": "3246275"
					},
					"external": {
						"Allowance(address,address)": "infinite",
						"BuyOnRent(uint256)": "infinite",
						"BuyZombie(string,string)": "infinite",
						"FightWithBot(uint256)": "infinite",
						"FightWithZombie(uint256)": "infinite",
						"FreeNft(address)": "2878",
						"FreeZombie()": "infinite",
						"GiveOnRent(uint256,uint256)": "infinite",
						"MintTime(uint256)": "infinite",
						"RemoveRent(uint256)": "80187",
						"RentedbyID(uint256)": "2916",
						"TakenNft(uint256)": "2896",
						"Timing(uint256)": "infinite",
						"approve(address,uint256)": "49536",
						"buyOnRent(address)": "2922",
						"convertXP(uint256)": "infinite",
						"getDetails(uint256)": "infinite",
						"mineTotalMatch(uint256)": "infinite",
						"onRent(uint256)": "2917",
						"ownerZombies(address)": "infinite",
						"rentAmount(uint256)": "infinite",
						"tranferFrom(address,address,uint256)": "infinite"
					}
				},
				"methodIdentifiers": {
					"Allowance(address,address)": "6dcdd00f",
					"BuyOnRent(uint256)": "e70364d4",
					"BuyZombie(string,string)": "cb9940b7",
					"FightWithBot(uint256)": "cbc7d367",
					"FightWithZombie(uint256)": "c224f388",
					"FreeNft(address)": "c0342cb4",
					"FreeZombie()": "b81c3db7",
					"GiveOnRent(uint256,uint256)": "35e1d33c",
					"MintTime(uint256)": "37e14e65",
					"RemoveRent(uint256)": "e0c4f15e",
					"RentedbyID(uint256)": "c583f36a",
					"TakenNft(uint256)": "9f52f1a1",
					"Timing(uint256)": "10f9ec13",
					"approve(address,uint256)": "095ea7b3",
					"buyOnRent(address)": "9a861a78",
					"convertXP(uint256)": "d41b93b1",
					"getDetails(uint256)": "b93a89f7",
					"mineTotalMatch(uint256)": "e871d8f3",
					"onRent(uint256)": "ef65bc97",
					"ownerZombies(address)": "3c956b05",
					"rentAmount(uint256)": "901ac159",
					"tranferFrom(address,address,uint256)": "9264a169"
				}
			},
			"storageLayout": {
				"storage": [
					{
						"astId": 5,
						"contract": "contracts/ZombieGame.sol:GetZombie",
						"label": "ZombieOwner",
						"offset": 0,
						"slot": "0",
						"type": "t_mapping(t_uint256,t_address)"
					},
					{
						"astId": 9,
						"contract": "contracts/ZombieGame.sol:GetZombie",
						"label": "ZombieCount",
						"offset": 0,
						"slot": "1",
						"type": "t_mapping(t_address,t_uint256)"
					},
					{
						"astId": 36,
						"contract": "contracts/ZombieGame.sol:GetZombie",
						"label": "dnaLength",
						"offset": 0,
						"slot": "2",
						"type": "t_uint256"
					},
					{
						"astId": 40,
						"contract": "contracts/ZombieGame.sol:GetZombie",
						"label": "zombies",
						"offset": 0,
						"slot": "3",
						"type": "t_array(t_struct(zombieDetails)28_storage)dyn_storage"
					},
					{
						"astId": 44,
						"contract": "contracts/ZombieGame.sol:GetZombie",
						"label": "bots",
						"offset": 0,
						"slot": "4",
						"type": "t_array(t_struct(botDetails)31_storage)dyn_storage"
					},
					{
						"astId": 420,
						"contract": "contracts/ZombieGame.sol:GetZombie",
						"label": "FreeNft",
						"offset": 0,
						"slot": "5",
						"type": "t_mapping(t_address,t_bool)"
					},
					{
						"astId": 424,
						"contract": "contracts/ZombieGame.sol:GetZombie",
						"label": "onRent",
						"offset": 0,
						"slot": "6",
						"type": "t_mapping(t_uint256,t_bool)"
					},
					{
						"astId": 430,
						"contract": "contracts/ZombieGame.sol:GetZombie",
						"label": "Allowance",
						"offset": 0,
						"slot": "7",
						"type": "t_mapping(t_address,t_mapping(t_address,t_uint256))"
					},
					{
						"astId": 434,
						"contract": "contracts/ZombieGame.sol:GetZombie",
						"label": "Approve",
						"offset": 0,
						"slot": "8",
						"type": "t_mapping(t_address,t_address)"
					},
					{
						"astId": 438,
						"contract": "contracts/ZombieGame.sol:GetZombie",
						"label": "Timing",
						"offset": 0,
						"slot": "9",
						"type": "t_mapping(t_uint256,t_uint256)"
					},
					{
						"astId": 442,
						"contract": "contracts/ZombieGame.sol:GetZombie",
						"label": "TakenNft",
						"offset": 0,
						"slot": "10",
						"type": "t_mapping(t_uint256,t_bool)"
					},
					{
						"astId": 446,
						"contract": "contracts/ZombieGame.sol:GetZombie",
						"label": "buyOnRent",
						"offset": 0,
						"slot": "11",
						"type": "t_mapping(t_address,t_bool)"
					},
					{
						"astId": 450,
						"contract": "contracts/ZombieGame.sol:GetZombie",
						"label": "RentedbyID",
						"offset": 0,
						"slot": "12",
						"type": "t_mapping(t_uint256,t_address)"
					},
					{
						"astId": 454,
						"contract": "contracts/ZombieGame.sol:GetZombie",
						"label": "rentAmount",
						"offset": 0,
						"slot": "13",
						"type": "t_mapping(t_uint256,t_uint256)"
					},
					{
						"astId": 458,
						"contract": "contracts/ZombieGame.sol:GetZombie",
						"label": "MintTime",
						"offset": 0,
						"slot": "14",
						"type": "t_mapping(t_uint256,t_uint256)"
					}
				],
				"types": {
					"t_address": {
						"encoding": "inplace",
						"label": "address",
						"numberOfBytes": "20"
					},
					"t_array(t_struct(botDetails)31_storage)dyn_storage": {
						"base": "t_struct(botDetails)31_storage",
						"encoding": "dynamic_array",
						"label": "struct ZombieGame.botDetails[]",
						"numberOfBytes": "32"
					},
					"t_array(t_struct(zombieDetails)28_storage)dyn_storage": {
						"base": "t_struct(zombieDetails)28_storage",
						"encoding": "dynamic_array",
						"label": "struct ZombieGame.zombieDetails[]",
						"numberOfBytes": "32"
					},
					"t_bool": {
						"encoding": "inplace",
						"label": "bool",
						"numberOfBytes": "1"
					},
					"t_mapping(t_address,t_address)": {
						"encoding": "mapping",
						"key": "t_address",
						"label": "mapping(address => address)",
						"numberOfBytes": "32",
						"value": "t_address"
					},
					"t_mapping(t_address,t_bool)": {
						"encoding": "mapping",
						"key": "t_address",
						"label": "mapping(address => bool)",
						"numberOfBytes": "32",
						"value": "t_bool"
					},
					"t_mapping(t_address,t_mapping(t_address,t_uint256))": {
						"encoding": "mapping",
						"key": "t_address",
						"label": "mapping(address => mapping(address => uint256))",
						"numberOfBytes": "32",
						"value": "t_mapping(t_address,t_uint256)"
					},
					"t_mapping(t_address,t_uint256)": {
						"encoding": "mapping",
						"key": "t_address",
						"label": "mapping(address => uint256)",
						"numberOfBytes": "32",
						"value": "t_uint256"
					},
					"t_mapping(t_uint256,t_address)": {
						"encoding": "mapping",
						"key": "t_uint256",
						"label": "mapping(uint256 => address)",
						"numberOfBytes": "32",
						"value": "t_address"
					},
					"t_mapping(t_uint256,t_bool)": {
						"encoding": "mapping",
						"key": "t_uint256",
						"label": "mapping(uint256 => bool)",
						"numberOfBytes": "32",
						"value": "t_bool"
					},
					"t_mapping(t_uint256,t_uint256)": {
						"encoding": "mapping",
						"key": "t_uint256",
						"label": "mapping(uint256 => uint256)",
						"numberOfBytes": "32",
						"value": "t_uint256"
					},
					"t_string_storage": {
						"encoding": "bytes",
						"label": "string",
						"numberOfBytes": "32"
					},
					"t_struct(botDetails)31_storage": {
						"encoding": "inplace",
						"label": "struct ZombieGame.botDetails",
						"members": [
							{
								"astId": 30,
								"contract": "contracts/ZombieGame.sol:GetZombie",
								"label": "level",
								"offset": 0,
								"slot": "0",
								"type": "t_uint256"
							}
						],
						"numberOfBytes": "32"
					},
					"t_struct(zombieDetails)28_storage": {
						"encoding": "inplace",
						"label": "struct ZombieGame.zombieDetails",
						"members": [
							{
								"astId": 11,
								"contract": "contracts/ZombieGame.sol:GetZombie",
								"label": "plan",
								"offset": 0,
								"slot": "0",
								"type": "t_string_storage"
							},
							{
								"astId": 13,
								"contract": "contracts/ZombieGame.sol:GetZombie",
								"label": "name",
								"offset": 0,
								"slot": "1",
								"type": "t_string_storage"
							},
							{
								"astId": 15,
								"contract": "contracts/ZombieGame.sol:GetZombie",
								"label": "dna",
								"offset": 0,
								"slot": "2",
								"type": "t_uint256"
							},
							{
								"astId": 17,
								"contract": "contracts/ZombieGame.sol:GetZombie",
								"label": "level",
								"offset": 0,
								"slot": "3",
								"type": "t_uint256"
							},
							{
								"astId": 19,
								"contract": "contracts/ZombieGame.sol:GetZombie",
								"label": "xp",
								"offset": 0,
								"slot": "4",
								"type": "t_uint256"
							},
							{
								"astId": 21,
								"contract": "contracts/ZombieGame.sol:GetZombie",
								"label": "TotalMatch",
								"offset": 0,
								"slot": "5",
								"type": "t_uint256"
							},
							{
								"astId": 23,
								"contract": "contracts/ZombieGame.sol:GetZombie",
								"label": "MatchLeft",
								"offset": 0,
								"slot": "6",
								"type": "t_uint256"
							},
							{
								"astId": 25,
								"contract": "contracts/ZombieGame.sol:GetZombie",
								"label": "Wins",
								"offset": 0,
								"slot": "7",
								"type": "t_uint256"
							},
							{
								"astId": 27,
								"contract": "contracts/ZombieGame.sol:GetZombie",
								"label": "Looses",
								"offset": 0,
								"slot": "8",
								"type": "t_uint256"
							}
						],
						"numberOfBytes": "288"
					},
					"t_uint256": {
						"encoding": "inplace",
						"label": "uint256",
						"numberOfBytes": "32"
					}
				}
			},
			"userdoc": {
				"kind": "user",
				"methods": {},
				"version": 1
			}
		}
	}
}