{
	"data": {
		"bytecode": {
			"linkReferences": {},
			"object": "60806040526040518060400160405280600a81526020017f636f6e74726163742061000000000000000000000000000000000000000000008152505f9081620000499190620002c1565b5034801562000056575f80fd5b50620003a5565b5f81519050919050565b7f4e487b71000000000000000000000000000000000000000000000000000000005f52604160045260245ffd5b7f4e487b71000000000000000000000000000000000000000000000000000000005f52602260045260245ffd5b5f6002820490506001821680620000d957607f821691505b602082108103620000ef57620000ee62000094565b5b50919050565b5f819050815f5260205f209050919050565b5f6020601f8301049050919050565b5f82821b905092915050565b5f60088302620001537fffffffffffffffffffffffffffffffffffffffffffffffffffffffffffffffff8262000116565b6200015f868362000116565b95508019841693508086168417925050509392505050565b5f819050919050565b5f819050919050565b5f620001a9620001a36200019d8462000177565b62000180565b62000177565b9050919050565b5f819050919050565b620001c48362000189565b620001dc620001d382620001b0565b84845462000122565b825550505050565b5f90565b620001f2620001e4565b620001ff818484620001b9565b505050565b5b8181101562000226576200021a5f82620001e8565b60018101905062000205565b5050565b601f82111562000275576200023f81620000f5565b6200024a8462000107565b810160208510156200025a578190505b62000272620002698562000107565b83018262000204565b50505b505050565b5f82821c905092915050565b5f620002975f19846008026200027a565b1980831691505092915050565b5f620002b1838362000286565b9150826002028217905092915050565b620002cc826200005d565b67ffffffffffffffff811115620002e857620002e762000067565b5b620002f48254620000c1565b620003018282856200022a565b5f60209050601f83116001811462000337575f841562000322578287015190505b6200032e8582620002a4565b8655506200039d565b601f1984166200034786620000f5565b5f5b82811015620003705784890151825560018201915060208501945060208101905062000349565b868310156200039057848901516200038c601f89168262000286565b8355505b6001600288020188555050505b505050505050565b61066580620003b35f395ff3fe608060405234801561000f575f80fd5b506004361061003f575f3560e01c806306fdde03146100435780634ed3885e14610061578063c6ea59b91461007d575b5f80fd5b61004b61009b565b6040516100589190610254565b60405180910390f35b61007b600480360381019061007691906102dd565b610126565b005b61008561013b565b6040516100929190610254565b60405180910390f35b5f80546100a790610355565b80601f01602080910402602001604051908101604052809291908181526020018280546100d390610355565b801561011e5780601f106100f55761010080835404028352916020019161011e565b820191905f5260205f20905b81548152906001019060200180831161010157829003601f168201915b505050505081565b81815f9182610136929190610562565b505050565b60605f805461014990610355565b80601f016020809104026020016040519081016040528092919081815260200182805461017590610355565b80156101c05780601f10610197576101008083540402835291602001916101c0565b820191905f5260205f20905b8154815290600101906020018083116101a357829003601f168201915b5050505050905090565b5f81519050919050565b5f82825260208201905092915050565b5f5b838110156102015780820151818401526020810190506101e6565b5f8484015250505050565b5f601f19601f8301169050919050565b5f610226826101ca565b61023081856101d4565b93506102408185602086016101e4565b6102498161020c565b840191505092915050565b5f6020820190508181035f83015261026c818461021c565b905092915050565b5f80fd5b5f80fd5b5f80fd5b5f80fd5b5f80fd5b5f8083601f84011261029d5761029c61027c565b5b8235905067ffffffffffffffff8111156102ba576102b9610280565b5b6020830191508360018202830111156102d6576102d5610284565b5b9250929050565b5f80602083850312156102f3576102f2610274565b5b5f83013567ffffffffffffffff8111156103105761030f610278565b5b61031c85828601610288565b92509250509250929050565b7f4e487b71000000000000000000000000000000000000000000000000000000005f52602260045260245ffd5b5f600282049050600182168061036c57607f821691505b60208210810361037f5761037e610328565b5b50919050565b5f82905092915050565b7f4e487b71000000000000000000000000000000000000000000000000000000005f52604160045260245ffd5b5f819050815f5260205f209050919050565b5f6020601f8301049050919050565b5f82821b905092915050565b5f600883026104187fffffffffffffffffffffffffffffffffffffffffffffffffffffffffffffffff826103dd565b61042286836103dd565b95508019841693508086168417925050509392505050565b5f819050919050565b5f819050919050565b5f61046661046161045c8461043a565b610443565b61043a565b9050919050565b5f819050919050565b61047f8361044c565b61049361048b8261046d565b8484546103e9565b825550505050565b5f90565b6104a761049b565b6104b2818484610476565b505050565b5b818110156104d5576104ca5f8261049f565b6001810190506104b8565b5050565b601f82111561051a576104eb816103bc565b6104f4846103ce565b81016020851015610503578190505b61051761050f856103ce565b8301826104b7565b50505b505050565b5f82821c905092915050565b5f61053a5f198460080261051f565b1980831691505092915050565b5f610552838361052b565b9150826002028217905092915050565b61056c8383610385565b67ffffffffffffffff8111156105855761058461038f565b5b61058f8254610355565b61059a8282856104d9565b5f601f8311600181146105c7575f84156105b5578287013590505b6105bf8582610547565b865550610626565b601f1984166105d5866103bc565b5f5b828110156105fc578489013582556001820191506020850194506020810190506105d7565b868310156106195784890135610615601f89168261052b565b8355505b6001600288020188555050505b5050505050505056fea2646970667358221220a88af600ba4232bf634c9cbd6298d025513b7447f25a531abf54647e63761a8f64736f6c63430008140033",
			"opcodes": "PUSH1 0x80 PUSH1 0x40 MSTORE PUSH1 0x40 MLOAD DUP1 PUSH1 0x40 ADD PUSH1 0x40 MSTORE DUP1 PUSH1 0xA DUP2 MSTORE PUSH1 0x20 ADD PUSH32 0x636F6E7472616374206100000000000000000000000000000000000000000000 DUP2 MSTORE POP PUSH0 SWAP1 DUP2 PUSH3 0x49 SWAP2 SWAP1 PUSH3 0x2C1 JUMP JUMPDEST POP CALLVALUE DUP1 ISZERO PUSH3 0x56 JUMPI PUSH0 DUP1 REVERT JUMPDEST POP PUSH3 0x3A5 JUMP JUMPDEST PUSH0 DUP2 MLOAD SWAP1 POP SWAP2 SWAP1 POP JUMP JUMPDEST PUSH32 0x4E487B7100000000000000000000000000000000000000000000000000000000 PUSH0 MSTORE PUSH1 0x41 PUSH1 0x4 MSTORE PUSH1 0x24 PUSH0 REVERT JUMPDEST PUSH32 0x4E487B7100000000000000000000000000000000000000000000000000000000 PUSH0 MSTORE PUSH1 0x22 PUSH1 0x4 MSTORE PUSH1 0x24 PUSH0 REVERT JUMPDEST PUSH0 PUSH1 0x2 DUP3 DIV SWAP1 POP PUSH1 0x1 DUP3 AND DUP1 PUSH3 0xD9 JUMPI PUSH1 0x7F DUP3 AND SWAP2 POP JUMPDEST PUSH1 0x20 DUP3 LT DUP2 SUB PUSH3 0xEF JUMPI PUSH3 0xEE PUSH3 0x94 JUMP JUMPDEST JUMPDEST POP SWAP2 SWAP1 POP JUMP JUMPDEST PUSH0 DUP2 SWAP1 POP DUP2 PUSH0 MSTORE PUSH1 0x20 PUSH0 KECCAK256 SWAP1 POP SWAP2 SWAP1 POP JUMP JUMPDEST PUSH0 PUSH1 0x20 PUSH1 0x1F DUP4 ADD DIV SWAP1 POP SWAP2 SWAP1 POP JUMP JUMPDEST PUSH0 DUP3 DUP3 SHL SWAP1 POP SWAP3 SWAP2 POP POP JUMP JUMPDEST PUSH0 PUSH1 0x8 DUP4 MUL PUSH3 0x153 PUSH32 0xFFFFFFFFFFFFFFFFFFFFFFFFFFFFFFFFFFFFFFFFFFFFFFFFFFFFFFFFFFFFFFFF DUP3 PUSH3 0x116 JUMP JUMPDEST PUSH3 0x15F DUP7 DUP4 PUSH3 0x116 JUMP JUMPDEST SWAP6 POP DUP1 NOT DUP5 AND SWAP4 POP DUP1 DUP7 AND DUP5 OR SWAP3 POP POP POP SWAP4 SWAP3 POP POP POP JUMP JUMPDEST PUSH0 DUP2 SWAP1 POP SWAP2 SWAP1 POP JUMP JUMPDEST PUSH0 DUP2 SWAP1 POP SWAP2 SWAP1 POP JUMP JUMPDEST PUSH0 PUSH3 0x1A9 PUSH3 0x1A3 PUSH3 0x19D DUP5 PUSH3 0x177 JUMP JUMPDEST PUSH3 0x180 JUMP JUMPDEST PUSH3 0x177 JUMP JUMPDEST SWAP1 POP SWAP2 SWAP1 POP JUMP JUMPDEST PUSH0 DUP2 SWAP1 POP SWAP2 SWAP1 POP JUMP JUMPDEST PUSH3 0x1C4 DUP4 PUSH3 0x189 JUMP JUMPDEST PUSH3 0x1DC PUSH3 0x1D3 DUP3 PUSH3 0x1B0 JUMP JUMPDEST DUP5 DUP5 SLOAD PUSH3 0x122 JUMP JUMPDEST DUP3 SSTORE POP POP POP POP JUMP JUMPDEST PUSH0 SWAP1 JUMP JUMPDEST PUSH3 0x1F2 PUSH3 0x1E4 JUMP JUMPDEST PUSH3 0x1FF DUP2 DUP5 DUP5 PUSH3 0x1B9 JUMP JUMPDEST POP POP POP JUMP JUMPDEST JUMPDEST DUP2 DUP2 LT ISZERO PUSH3 0x226 JUMPI PUSH3 0x21A PUSH0 DUP3 PUSH3 0x1E8 JUMP JUMPDEST PUSH1 0x1 DUP2 ADD SWAP1 POP PUSH3 0x205 JUMP JUMPDEST POP POP JUMP JUMPDEST PUSH1 0x1F DUP3 GT ISZERO PUSH3 0x275 JUMPI PUSH3 0x23F DUP2 PUSH3 0xF5 JUMP JUMPDEST PUSH3 0x24A DUP5 PUSH3 0x107 JUMP JUMPDEST DUP2 ADD PUSH1 0x20 DUP6 LT ISZERO PUSH3 0x25A JUMPI DUP2 SWAP1 POP JUMPDEST PUSH3 0x272 PUSH3 0x269 DUP6 PUSH3 0x107 JUMP JUMPDEST DUP4 ADD DUP3 PUSH3 0x204 JUMP JUMPDEST POP POP JUMPDEST POP POP POP JUMP JUMPDEST PUSH0 DUP3 DUP3 SHR SWAP1 POP SWAP3 SWAP2 POP POP JUMP JUMPDEST PUSH0 PUSH3 0x297 PUSH0 NOT DUP5 PUSH1 0x8 MUL PUSH3 0x27A JUMP JUMPDEST NOT DUP1 DUP4 AND SWAP2 POP POP SWAP3 SWAP2 POP POP JUMP JUMPDEST PUSH0 PUSH3 0x2B1 DUP4 DUP4 PUSH3 0x286 JUMP JUMPDEST SWAP2 POP DUP3 PUSH1 0x2 MUL DUP3 OR SWAP1 POP SWAP3 SWAP2 POP POP JUMP JUMPDEST PUSH3 0x2CC DUP3 PUSH3 0x5D JUMP JUMPDEST PUSH8 0xFFFFFFFFFFFFFFFF DUP2 GT ISZERO PUSH3 0x2E8 JUMPI PUSH3 0x2E7 PUSH3 0x67 JUMP JUMPDEST JUMPDEST PUSH3 0x2F4 DUP3 SLOAD PUSH3 0xC1 JUMP JUMPDEST PUSH3 0x301 DUP3 DUP3 DUP6 PUSH3 0x22A JUMP JUMPDEST PUSH0 PUSH1 0x20 SWAP1 POP PUSH1 0x1F DUP4 GT PUSH1 0x1 DUP2 EQ PUSH3 0x337 JUMPI PUSH0 DUP5 ISZERO PUSH3 0x322 JUMPI DUP3 DUP8 ADD MLOAD SWAP1 POP JUMPDEST PUSH3 0x32E DUP6 DUP3 PUSH3 0x2A4 JUMP JUMPDEST DUP7 SSTORE POP PUSH3 0x39D JUMP JUMPDEST PUSH1 0x1F NOT DUP5 AND PUSH3 0x347 DUP7 PUSH3 0xF5 JUMP JUMPDEST PUSH0 JUMPDEST DUP3 DUP2 LT ISZERO PUSH3 0x370 JUMPI DUP5 DUP10 ADD MLOAD DUP3 SSTORE PUSH1 0x1 DUP3 ADD SWAP2 POP PUSH1 0x20 DUP6 ADD SWAP5 POP PUSH1 0x20 DUP2 ADD SWAP1 POP PUSH3 0x349 JUMP JUMPDEST DUP7 DUP4 LT ISZERO PUSH3 0x390 JUMPI DUP5 DUP10 ADD MLOAD PUSH3 0x38C PUSH1 0x1F DUP10 AND DUP3 PUSH3 0x286 JUMP JUMPDEST DUP4 SSTORE POP JUMPDEST PUSH1 0x1 PUSH1 0x2 DUP9 MUL ADD DUP9 SSTORE POP POP POP JUMPDEST POP POP POP POP POP POP JUMP JUMPDEST PUSH2 0x665 DUP1 PUSH3 0x3B3 PUSH0 CODECOPY PUSH0 RETURN INVALID PUSH1 0x80 PUSH1 0x40 MSTORE CALLVALUE DUP1 ISZERO PUSH2 0xF JUMPI PUSH0 DUP1 REVERT JUMPDEST POP PUSH1 0x4 CALLDATASIZE LT PUSH2 0x3F JUMPI PUSH0 CALLDATALOAD PUSH1 0xE0 SHR DUP1 PUSH4 0x6FDDE03 EQ PUSH2 0x43 JUMPI DUP1 PUSH4 0x4ED3885E EQ PUSH2 0x61 JUMPI DUP1 PUSH4 0xC6EA59B9 EQ PUSH2 0x7D JUMPI JUMPDEST PUSH0 DUP1 REVERT JUMPDEST PUSH2 0x4B PUSH2 0x9B JUMP JUMPDEST PUSH1 0x40 MLOAD PUSH2 0x58 SWAP2 SWAP1 PUSH2 0x254 JUMP JUMPDEST PUSH1 0x40 MLOAD DUP1 SWAP2 SUB SWAP1 RETURN JUMPDEST PUSH2 0x7B PUSH1 0x4 DUP1 CALLDATASIZE SUB DUP2 ADD SWAP1 PUSH2 0x76 SWAP2 SWAP1 PUSH2 0x2DD JUMP JUMPDEST PUSH2 0x126 JUMP JUMPDEST STOP JUMPDEST PUSH2 0x85 PUSH2 0x13B JUMP JUMPDEST PUSH1 0x40 MLOAD PUSH2 0x92 SWAP2 SWAP1 PUSH2 0x254 JUMP JUMPDEST PUSH1 0x40 MLOAD DUP1 SWAP2 SUB SWAP1 RETURN JUMPDEST PUSH0 DUP1 SLOAD PUSH2 0xA7 SWAP1 PUSH2 0x355 JUMP JUMPDEST DUP1 PUSH1 0x1F ADD PUSH1 0x20 DUP1 SWAP2 DIV MUL PUSH1 0x20 ADD PUSH1 0x40 MLOAD SWAP1 DUP2 ADD PUSH1 0x40 MSTORE DUP1 SWAP3 SWAP2 SWAP1 DUP2 DUP2 MSTORE PUSH1 0x20 ADD DUP3 DUP1 SLOAD PUSH2 0xD3 SWAP1 PUSH2 0x355 JUMP JUMPDEST DUP1 ISZERO PUSH2 0x11E JUMPI DUP1 PUSH1 0x1F LT PUSH2 0xF5 JUMPI PUSH2 0x100 DUP1 DUP4 SLOAD DIV MUL DUP4 MSTORE SWAP2 PUSH1 0x20 ADD SWAP2 PUSH2 0x11E JUMP JUMPDEST DUP3 ADD SWAP2 SWAP1 PUSH0 MSTORE PUSH1 0x20 PUSH0 KECCAK256 SWAP1 JUMPDEST DUP2 SLOAD DUP2 MSTORE SWAP1 PUSH1 0x1 ADD SWAP1 PUSH1 0x20 ADD DUP1 DUP4 GT PUSH2 0x101 JUMPI DUP3 SWAP1 SUB PUSH1 0x1F AND DUP3 ADD SWAP2 JUMPDEST POP POP POP POP POP DUP2 JUMP JUMPDEST DUP2 DUP2 PUSH0 SWAP2 DUP3 PUSH2 0x136 SWAP3 SWAP2 SWAP1 PUSH2 0x562 JUMP JUMPDEST POP POP POP JUMP JUMPDEST PUSH1 0x60 PUSH0 DUP1 SLOAD PUSH2 0x149 SWAP1 PUSH2 0x355 JUMP JUMPDEST DUP1 PUSH1 0x1F ADD PUSH1 0x20 DUP1 SWAP2 DIV MUL PUSH1 0x20 ADD PUSH1 0x40 MLOAD SWAP1 DUP2 ADD PUSH1 0x40 MSTORE DUP1 SWAP3 SWAP2 SWAP1 DUP2 DUP2 MSTORE PUSH1 0x20 ADD DUP3 DUP1 SLOAD PUSH2 0x175 SWAP1 PUSH2 0x355 JUMP JUMPDEST DUP1 ISZERO PUSH2 0x1C0 JUMPI DUP1 PUSH1 0x1F LT PUSH2 0x197 JUMPI PUSH2 0x100 DUP1 DUP4 SLOAD DIV MUL DUP4 MSTORE SWAP2 PUSH1 0x20 ADD SWAP2 PUSH2 0x1C0 JUMP JUMPDEST DUP3 ADD SWAP2 SWAP1 PUSH0 MSTORE PUSH1 0x20 PUSH0 KECCAK256 SWAP1 JUMPDEST DUP2 SLOAD DUP2 MSTORE SWAP1 PUSH1 0x1 ADD SWAP1 PUSH1 0x20 ADD DUP1 DUP4 GT PUSH2 0x1A3 JUMPI DUP3 SWAP1 SUB PUSH1 0x1F AND DUP3 ADD SWAP2 JUMPDEST POP POP POP POP POP SWAP1 POP SWAP1 JUMP JUMPDEST PUSH0 DUP2 MLOAD SWAP1 POP SWAP2 SWAP1 POP JUMP JUMPDEST PUSH0 DUP3 DUP3 MSTORE PUSH1 0x20 DUP3 ADD SWAP1 POP SWAP3 SWAP2 POP POP JUMP JUMPDEST PUSH0 JUMPDEST DUP4 DUP2 LT ISZERO PUSH2 0x201 JUMPI DUP1 DUP3 ADD MLOAD DUP2 DUP5 ADD MSTORE PUSH1 0x20 DUP2 ADD SWAP1 POP PUSH2 0x1E6 JUMP JUMPDEST PUSH0 DUP5 DUP5 ADD MSTORE POP POP POP POP JUMP JUMPDEST PUSH0 PUSH1 0x1F NOT PUSH1 0x1F DUP4 ADD AND SWAP1 POP SWAP2 SWAP1 POP JUMP JUMPDEST PUSH0 PUSH2 0x226 DUP3 PUSH2 0x1CA JUMP JUMPDEST PUSH2 0x230 DUP2 DUP6 PUSH2 0x1D4 JUMP JUMPDEST SWAP4 POP PUSH2 0x240 DUP2 DUP6 PUSH1 0x20 DUP7 ADD PUSH2 0x1E4 JUMP JUMPDEST PUSH2 0x249 DUP2 PUSH2 0x20C JUMP JUMPDEST DUP5 ADD SWAP2 POP POP SWAP3 SWAP2 POP POP JUMP JUMPDEST PUSH0 PUSH1 0x20 DUP3 ADD SWAP1 POP DUP2 DUP2 SUB PUSH0 DUP4 ADD MSTORE PUSH2 0x26C DUP2 DUP5 PUSH2 0x21C JUMP JUMPDEST SWAP1 POP SWAP3 SWAP2 POP POP JUMP JUMPDEST PUSH0 DUP1 REVERT JUMPDEST PUSH0 DUP1 REVERT JUMPDEST PUSH0 DUP1 REVERT JUMPDEST PUSH0 DUP1 REVERT JUMPDEST PUSH0 DUP1 REVERT JUMPDEST PUSH0 DUP1 DUP4 PUSH1 0x1F DUP5 ADD SLT PUSH2 0x29D JUMPI PUSH2 0x29C PUSH2 0x27C JUMP JUMPDEST JUMPDEST DUP3 CALLDATALOAD SWAP1 POP PUSH8 0xFFFFFFFFFFFFFFFF DUP2 GT ISZERO PUSH2 0x2BA JUMPI PUSH2 0x2B9 PUSH2 0x280 JUMP JUMPDEST JUMPDEST PUSH1 0x20 DUP4 ADD SWAP2 POP DUP4 PUSH1 0x1 DUP3 MUL DUP4 ADD GT ISZERO PUSH2 0x2D6 JUMPI PUSH2 0x2D5 PUSH2 0x284 JUMP JUMPDEST JUMPDEST SWAP3 POP SWAP3 SWAP1 POP JUMP JUMPDEST PUSH0 DUP1 PUSH1 0x20 DUP4 DUP6 SUB SLT ISZERO PUSH2 0x2F3 JUMPI PUSH2 0x2F2 PUSH2 0x274 JUMP JUMPDEST JUMPDEST PUSH0 DUP4 ADD CALLDATALOAD PUSH8 0xFFFFFFFFFFFFFFFF DUP2 GT ISZERO PUSH2 0x310 JUMPI PUSH2 0x30F PUSH2 0x278 JUMP JUMPDEST JUMPDEST PUSH2 0x31C DUP6 DUP3 DUP7 ADD PUSH2 0x288 JUMP JUMPDEST SWAP3 POP SWAP3 POP POP SWAP3 POP SWAP3 SWAP1 POP JUMP JUMPDEST PUSH32 0x4E487B7100000000000000000000000000000000000000000000000000000000 PUSH0 MSTORE PUSH1 0x22 PUSH1 0x4 MSTORE PUSH1 0x24 PUSH0 REVERT JUMPDEST PUSH0 PUSH1 0x2 DUP3 DIV SWAP1 POP PUSH1 0x1 DUP3 AND DUP1 PUSH2 0x36C JUMPI PUSH1 0x7F DUP3 AND SWAP2 POP JUMPDEST PUSH1 0x20 DUP3 LT DUP2 SUB PUSH2 0x37F JUMPI PUSH2 0x37E PUSH2 0x328 JUMP JUMPDEST JUMPDEST POP SWAP2 SWAP1 POP JUMP JUMPDEST PUSH0 DUP3 SWAP1 POP SWAP3 SWAP2 POP POP JUMP JUMPDEST PUSH32 0x4E487B7100000000000000000000000000000000000000000000000000000000 PUSH0 MSTORE PUSH1 0x41 PUSH1 0x4 MSTORE PUSH1 0x24 PUSH0 REVERT JUMPDEST PUSH0 DUP2 SWAP1 POP DUP2 PUSH0 MSTORE PUSH1 0x20 PUSH0 KECCAK256 SWAP1 POP SWAP2 SWAP1 POP JUMP JUMPDEST PUSH0 PUSH1 0x20 PUSH1 0x1F DUP4 ADD DIV SWAP1 POP SWAP2 SWAP1 POP JUMP JUMPDEST PUSH0 DUP3 DUP3 SHL SWAP1 POP SWAP3 SWAP2 POP POP JUMP JUMPDEST PUSH0 PUSH1 0x8 DUP4 MUL PUSH2 0x418 PUSH32 0xFFFFFFFFFFFFFFFFFFFFFFFFFFFFFFFFFFFFFFFFFFFFFFFFFFFFFFFFFFFFFFFF DUP3 PUSH2 0x3DD JUMP JUMPDEST PUSH2 0x422 DUP7 DUP4 PUSH2 0x3DD JUMP JUMPDEST SWAP6 POP DUP1 NOT DUP5 AND SWAP4 POP DUP1 DUP7 AND DUP5 OR SWAP3 POP POP POP SWAP4 SWAP3 POP POP POP JUMP JUMPDEST PUSH0 DUP2 SWAP1 POP SWAP2 SWAP1 POP JUMP JUMPDEST PUSH0 DUP2 SWAP1 POP SWAP2 SWAP1 POP JUMP JUMPDEST PUSH0 PUSH2 0x466 PUSH2 0x461 PUSH2 0x45C DUP5 PUSH2 0x43A JUMP JUMPDEST PUSH2 0x443 JUMP JUMPDEST PUSH2 0x43A JUMP JUMPDEST SWAP1 POP SWAP2 SWAP1 POP JUMP JUMPDEST PUSH0 DUP2 SWAP1 POP SWAP2 SWAP1 POP JUMP JUMPDEST PUSH2 0x47F DUP4 PUSH2 0x44C JUMP JUMPDEST PUSH2 0x493 PUSH2 0x48B DUP3 PUSH2 0x46D JUMP JUMPDEST DUP5 DUP5 SLOAD PUSH2 0x3E9 JUMP JUMPDEST DUP3 SSTORE POP POP POP POP JUMP JUMPDEST PUSH0 SWAP1 JUMP JUMPDEST PUSH2 0x4A7 PUSH2 0x49B JUMP JUMPDEST PUSH2 0x4B2 DUP2 DUP5 DUP5 PUSH2 0x476 JUMP JUMPDEST POP POP POP JUMP JUMPDEST JUMPDEST DUP2 DUP2 LT ISZERO PUSH2 0x4D5 JUMPI PUSH2 0x4CA PUSH0 DUP3 PUSH2 0x49F JUMP JUMPDEST PUSH1 0x1 DUP2 ADD SWAP1 POP PUSH2 0x4B8 JUMP JUMPDEST POP POP JUMP JUMPDEST PUSH1 0x1F DUP3 GT ISZERO PUSH2 0x51A JUMPI PUSH2 0x4EB DUP2 PUSH2 0x3BC JUMP JUMPDEST PUSH2 0x4F4 DUP5 PUSH2 0x3CE JUMP JUMPDEST DUP2 ADD PUSH1 0x20 DUP6 LT ISZERO PUSH2 0x503 JUMPI DUP2 SWAP1 POP JUMPDEST PUSH2 0x517 PUSH2 0x50F DUP6 PUSH2 0x3CE JUMP JUMPDEST DUP4 ADD DUP3 PUSH2 0x4B7 JUMP JUMPDEST POP POP JUMPDEST POP POP POP JUMP JUMPDEST PUSH0 DUP3 DUP3 SHR SWAP1 POP SWAP3 SWAP2 POP POP JUMP JUMPDEST PUSH0 PUSH2 0x53A PUSH0 NOT DUP5 PUSH1 0x8 MUL PUSH2 0x51F JUMP JUMPDEST NOT DUP1 DUP4 AND SWAP2 POP POP SWAP3 SWAP2 POP POP JUMP JUMPDEST PUSH0 PUSH2 0x552 DUP4 DUP4 PUSH2 0x52B JUMP JUMPDEST SWAP2 POP DUP3 PUSH1 0x2 MUL DUP3 OR SWAP1 POP SWAP3 SWAP2 POP POP JUMP JUMPDEST PUSH2 0x56C DUP4 DUP4 PUSH2 0x385 JUMP JUMPDEST PUSH8 0xFFFFFFFFFFFFFFFF DUP2 GT ISZERO PUSH2 0x585 JUMPI PUSH2 0x584 PUSH2 0x38F JUMP JUMPDEST JUMPDEST PUSH2 0x58F DUP3 SLOAD PUSH2 0x355 JUMP JUMPDEST PUSH2 0x59A DUP3 DUP3 DUP6 PUSH2 0x4D9 JUMP JUMPDEST PUSH0 PUSH1 0x1F DUP4 GT PUSH1 0x1 DUP2 EQ PUSH2 0x5C7 JUMPI PUSH0 DUP5 ISZERO PUSH2 0x5B5 JUMPI DUP3 DUP8 ADD CALLDATALOAD SWAP1 POP JUMPDEST PUSH2 0x5BF DUP6 DUP3 PUSH2 0x547 JUMP JUMPDEST DUP7 SSTORE POP PUSH2 0x626 JUMP JUMPDEST PUSH1 0x1F NOT DUP5 AND PUSH2 0x5D5 DUP7 PUSH2 0x3BC JUMP JUMPDEST PUSH0 JUMPDEST DUP3 DUP2 LT ISZERO PUSH2 0x5FC JUMPI DUP5 DUP10 ADD CALLDATALOAD DUP3 SSTORE PUSH1 0x1 DUP3 ADD SWAP2 POP PUSH1 0x20 DUP6 ADD SWAP5 POP PUSH1 0x20 DUP2 ADD SWAP1 POP PUSH2 0x5D7 JUMP JUMPDEST DUP7 DUP4 LT ISZERO PUSH2 0x619 JUMPI DUP5 DUP10 ADD CALLDATALOAD PUSH2 0x615 PUSH1 0x1F DUP10 AND DUP3 PUSH2 0x52B JUMP JUMPDEST DUP4 SSTORE POP JUMPDEST PUSH1 0x1 PUSH1 0x2 DUP9 MUL ADD DUP9 SSTORE POP POP POP JUMPDEST POP POP POP POP POP POP POP JUMP INVALID LOG2 PUSH5 0x6970667358 0x22 SLT KECCAK256 0xA8 DUP11 0xF6 STOP 0xBA TIMESTAMP ORIGIN 0xBF PUSH4 0x4C9CBD62 SWAP9 0xD0 0x25 MLOAD EXTCODESIZE PUSH21 0x47F25A531ABF54647E63761A8F64736F6C63430008 EQ STOP CALLER "
		},
		"gasEstimates": {
			"creation": {
				"codeDepositCost": "327400",
				"executionCost": "infinite",
				"totalCost": "infinite"
			},
			"external": {
				"getname()": "infinite",
				"name()": "infinite",
				"set(string)": "infinite"
			}
		},
		"methodIdentifiers": {
			"getname()": "c6ea59b9",
			"name()": "06fdde03",
			"set(string)": "4ed3885e"
		}
	},
	"abi": [
		{
			"inputs": [],
			"name": "getname",
			"outputs": [
				{
					"internalType": "string",
					"name": "",
					"type": "string"
				}
			],
			"stateMutability": "view",
			"type": "function"
		},
		{
			"inputs": [],
			"name": "name",
			"outputs": [
				{
					"internalType": "string",
					"name": "",
					"type": "string"
				}
			],
			"stateMutability": "view",
			"type": "function"
		},
		{
			"inputs": [
				{
					"internalType": "string",
					"name": "_name",
					"type": "string"
				}
			],
			"name": "set",
			"outputs": [],
			"stateMutability": "nonpayable",
			"type": "function"
		}
	]
}