{
	"data": {
		"bytecode": {
			"linkReferences": {},
			"object": "608060405234801561000f575f80fd5b50610f078061001d5f395ff3fe60806040526004361062000037575f3560e01c8063571eb88d146200003b578063b6a46b3b146200005b578063f7746e361462000088575b5f80fd5b620000596004803603810190620000539190620003bf565b620000cb565b005b34801562000067575f80fd5b5062000086600480360381019062000080919062000423565b6200010e565b005b34801562000094575f80fd5b50620000b36004803603810190620000ad9190620004aa565b620001ac565b604051620000c2919062000541565b60405180910390f35b5f348284604051620000dd90620001e7565b620000ea929190620005f1565b6040518091039082f090508015801562000106573d5f803e3d5ffd5b509050505050565b5f81306040516200011f90620001e7565b6200012c929190620005f1565b604051809103905ff08015801562000146573d5f803e3d5ffd5b5090505f81908060018154018082558091505060019003905f5260205f20015f9091909190916101000a81548173ffffffffffffffffffffffffffffffffffffffff021916908373ffffffffffffffffffffffffffffffffffffffff1602179055505050565b5f8181548110620001bb575f80fd5b905f5260205f20015f915054906101000a900473ffffffffffffffffffffffffffffffffffffffff1681565b6108ae806200062483390190565b5f604051905090565b5f80fd5b5f80fd5b5f73ffffffffffffffffffffffffffffffffffffffff82169050919050565b5f620002318262000206565b9050919050565b620002438162000225565b81146200024e575f80fd5b50565b5f81359050620002618162000238565b92915050565b5f80fd5b5f80fd5b5f601f19601f8301169050919050565b7f4e487b71000000000000000000000000000000000000000000000000000000005f52604160045260245ffd5b620002b7826200026f565b810181811067ffffffffffffffff82111715620002d957620002d86200027f565b5b80604052505050565b5f620002ed620001f5565b9050620002fb8282620002ac565b919050565b5f67ffffffffffffffff8211156200031d576200031c6200027f565b5b62000328826200026f565b9050602081019050919050565b828183375f83830152505050565b5f62000359620003538462000300565b620002e2565b9050828152602081018484840111156200037857620003776200026b565b5b6200038584828562000335565b509392505050565b5f82601f830112620003a457620003a362000267565b5b8135620003b684826020860162000343565b91505092915050565b5f8060408385031215620003d857620003d7620001fe565b5b5f620003e78582860162000251565b925050602083013567ffffffffffffffff8111156200040b576200040a62000202565b5b62000419858286016200038d565b9150509250929050565b5f602082840312156200043b576200043a620001fe565b5b5f82013567ffffffffffffffff8111156200045b576200045a62000202565b5b62000469848285016200038d565b91505092915050565b5f819050919050565b620004868162000472565b811462000491575f80fd5b50565b5f81359050620004a4816200047b565b92915050565b5f60208284031215620004c257620004c1620001fe565b5b5f620004d18482850162000494565b91505092915050565b5f819050919050565b5f62000503620004fd620004f78462000206565b620004da565b62000206565b9050919050565b5f6200051682620004e3565b9050919050565b5f62000529826200050a565b9050919050565b6200053b816200051d565b82525050565b5f602082019050620005565f83018462000530565b92915050565b5f81519050919050565b5f82825260208201905092915050565b5f5b838110156200059557808201518184015260208101905062000578565b5f8484015250505050565b5f620005ac826200055c565b620005b8818562000566565b9350620005ca81856020860162000576565b620005d5816200026f565b840191505092915050565b620005eb8162000225565b82525050565b5f6040820190508181035f8301526200060b8185620005a0565b90506200061c6020830184620005e0565b939250505056fe6080604052604051620008ae380380620008ae833981810160405281019062000029919062000268565b815f908162000039919062000503565b508060015f6101000a81548173ffffffffffffffffffffffffffffffffffffffff021916908373ffffffffffffffffffffffffffffffffffffffff1602179055505050620005e7565b5f604051905090565b5f80fd5b5f80fd5b5f80fd5b5f80fd5b5f601f19601f8301169050919050565b7f4e487b71000000000000000000000000000000000000000000000000000000005f52604160045260245ffd5b620000e3826200009b565b810181811067ffffffffffffffff82111715620001055762000104620000ab565b5b80604052505050565b5f6200011962000082565b9050620001278282620000d8565b919050565b5f67ffffffffffffffff821115620001495762000148620000ab565b5b62000154826200009b565b9050602081019050919050565b5f5b838110156200018057808201518184015260208101905062000163565b5f8484015250505050565b5f620001a16200019b846200012c565b6200010e565b905082815260208101848484011115620001c057620001bf62000097565b5b620001cd84828562000161565b509392505050565b5f82601f830112620001ec57620001eb62000093565b5b8151620001fe8482602086016200018b565b91505092915050565b5f73ffffffffffffffffffffffffffffffffffffffff82169050919050565b5f620002328262000207565b9050919050565b620002448162000226565b81146200024f575f80fd5b50565b5f81519050620002628162000239565b92915050565b5f80604083850312156200028157620002806200008b565b5b5f83015167ffffffffffffffff811115620002a157620002a06200008f565b5b620002af85828601620001d5565b9250506020620002c28582860162000252565b9150509250929050565b5f81519050919050565b7f4e487b71000000000000000000000000000000000000000000000000000000005f52602260045260245ffd5b5f60028204905060018216806200031b57607f821691505b602082108103620003315762000330620002d6565b5b50919050565b5f819050815f5260205f209050919050565b5f6020601f8301049050919050565b5f82821b905092915050565b5f60088302620003957fffffffffffffffffffffffffffffffffffffffffffffffffffffffffffffffff8262000358565b620003a1868362000358565b95508019841693508086168417925050509392505050565b5f819050919050565b5f819050919050565b5f620003eb620003e5620003df84620003b9565b620003c2565b620003b9565b9050919050565b5f819050919050565b6200040683620003cb565b6200041e6200041582620003f2565b84845462000364565b825550505050565b5f90565b6200043462000426565b62000441818484620003fb565b505050565b5b8181101562000468576200045c5f826200042a565b60018101905062000447565b5050565b601f821115620004b757620004818162000337565b6200048c8462000349565b810160208510156200049c578190505b620004b4620004ab8562000349565b83018262000446565b50505b505050565b5f82821c905092915050565b5f620004d95f1984600802620004bc565b1980831691505092915050565b5f620004f38383620004c8565b9150826002028217905092915050565b6200050e82620002cc565b67ffffffffffffffff8111156200052a5762000529620000ab565b5b62000536825462000303565b620005438282856200046c565b5f60209050601f83116001811462000579575f841562000564578287015190505b620005708582620004e6565b865550620005df565b601f198416620005898662000337565b5f5b82811015620005b2578489015182556001820191506020850194506020810190506200058b565b86831015620005d25784890151620005ce601f891682620004c8565b8355505b6001600288020188555050505b505050505050565b6102b980620005f55f395ff3fe608060405234801561000f575f80fd5b5060043610610034575f3560e01c80630ad9d052146100385780638da5cb5b14610056575b5f80fd5b610040610074565b60405161004d91906101ae565b60405180910390f35b61005e6100ff565b60405161006b919061020d565b60405180910390f35b5f805461008090610253565b80601f01602080910402602001604051908101604052809291908181526020018280546100ac90610253565b80156100f75780601f106100ce576101008083540402835291602001916100f7565b820191905f5260205f20905b8154815290600101906020018083116100da57829003601f168201915b505050505081565b60015f9054906101000a900473ffffffffffffffffffffffffffffffffffffffff1681565b5f81519050919050565b5f82825260208201905092915050565b5f5b8381101561015b578082015181840152602081019050610140565b5f8484015250505050565b5f601f19601f8301169050919050565b5f61018082610124565b61018a818561012e565b935061019a81856020860161013e565b6101a381610166565b840191505092915050565b5f6020820190508181035f8301526101c68184610176565b905092915050565b5f73ffffffffffffffffffffffffffffffffffffffff82169050919050565b5f6101f7826101ce565b9050919050565b610207816101ed565b82525050565b5f6020820190506102205f8301846101fe565b92915050565b7f4e487b71000000000000000000000000000000000000000000000000000000005f52602260045260245ffd5b5f600282049050600182168061026a57607f821691505b60208210810361027d5761027c610226565b5b5091905056fea2646970667358221220389fde2dd1509b02b2887ae2f24a67fc40b6796a4c37c1ce6fa2e356d90bcb1664736f6c63430008140033a2646970667358221220feb785a8ec7c253f6334090ccb2013b2c9a150669b513d4aa49524c2e2dad08764736f6c63430008140033",
			"opcodes": "PUSH1 0x80 PUSH1 0x40 MSTORE CALLVALUE DUP1 ISZERO PUSH2 0xF JUMPI PUSH0 DUP1 REVERT JUMPDEST POP PUSH2 0xF07 DUP1 PUSH2 0x1D PUSH0 CODECOPY PUSH0 RETURN INVALID PUSH1 0x80 PUSH1 0x40 MSTORE PUSH1 0x4 CALLDATASIZE LT PUSH3 0x37 JUMPI PUSH0 CALLDATALOAD PUSH1 0xE0 SHR DUP1 PUSH4 0x571EB88D EQ PUSH3 0x3B JUMPI DUP1 PUSH4 0xB6A46B3B EQ PUSH3 0x5B JUMPI DUP1 PUSH4 0xF7746E36 EQ PUSH3 0x88 JUMPI JUMPDEST PUSH0 DUP1 REVERT JUMPDEST PUSH3 0x59 PUSH1 0x4 DUP1 CALLDATASIZE SUB DUP2 ADD SWAP1 PUSH3 0x53 SWAP2 SWAP1 PUSH3 0x3BF JUMP JUMPDEST PUSH3 0xCB JUMP JUMPDEST STOP JUMPDEST CALLVALUE DUP1 ISZERO PUSH3 0x67 JUMPI PUSH0 DUP1 REVERT JUMPDEST POP PUSH3 0x86 PUSH1 0x4 DUP1 CALLDATASIZE SUB DUP2 ADD SWAP1 PUSH3 0x80 SWAP2 SWAP1 PUSH3 0x423 JUMP JUMPDEST PUSH3 0x10E JUMP JUMPDEST STOP JUMPDEST CALLVALUE DUP1 ISZERO PUSH3 0x94 JUMPI PUSH0 DUP1 REVERT JUMPDEST POP PUSH3 0xB3 PUSH1 0x4 DUP1 CALLDATASIZE SUB DUP2 ADD SWAP1 PUSH3 0xAD SWAP2 SWAP1 PUSH3 0x4AA JUMP JUMPDEST PUSH3 0x1AC JUMP JUMPDEST PUSH1 0x40 MLOAD PUSH3 0xC2 SWAP2 SWAP1 PUSH3 0x541 JUMP JUMPDEST PUSH1 0x40 MLOAD DUP1 SWAP2 SUB SWAP1 RETURN JUMPDEST PUSH0 CALLVALUE DUP3 DUP5 PUSH1 0x40 MLOAD PUSH3 0xDD SWAP1 PUSH3 0x1E7 JUMP JUMPDEST PUSH3 0xEA SWAP3 SWAP2 SWAP1 PUSH3 0x5F1 JUMP JUMPDEST PUSH1 0x40 MLOAD DUP1 SWAP2 SUB SWAP1 DUP3 CREATE SWAP1 POP DUP1 ISZERO DUP1 ISZERO PUSH3 0x106 JUMPI RETURNDATASIZE PUSH0 DUP1 RETURNDATACOPY RETURNDATASIZE PUSH0 REVERT JUMPDEST POP SWAP1 POP POP POP POP JUMP JUMPDEST PUSH0 DUP2 ADDRESS PUSH1 0x40 MLOAD PUSH3 0x11F SWAP1 PUSH3 0x1E7 JUMP JUMPDEST PUSH3 0x12C SWAP3 SWAP2 SWAP1 PUSH3 0x5F1 JUMP JUMPDEST PUSH1 0x40 MLOAD DUP1 SWAP2 SUB SWAP1 PUSH0 CREATE DUP1 ISZERO DUP1 ISZERO PUSH3 0x146 JUMPI RETURNDATASIZE PUSH0 DUP1 RETURNDATACOPY RETURNDATASIZE PUSH0 REVERT JUMPDEST POP SWAP1 POP PUSH0 DUP2 SWAP1 DUP1 PUSH1 0x1 DUP2 SLOAD ADD DUP1 DUP3 SSTORE DUP1 SWAP2 POP POP PUSH1 0x1 SWAP1 SUB SWAP1 PUSH0 MSTORE PUSH1 0x20 PUSH0 KECCAK256 ADD PUSH0 SWAP1 SWAP2 SWAP1 SWAP2 SWAP1 SWAP2 PUSH2 0x100 EXP DUP2 SLOAD DUP2 PUSH20 0xFFFFFFFFFFFFFFFFFFFFFFFFFFFFFFFFFFFFFFFF MUL NOT AND SWAP1 DUP4 PUSH20 0xFFFFFFFFFFFFFFFFFFFFFFFFFFFFFFFFFFFFFFFF AND MUL OR SWAP1 SSTORE POP POP POP JUMP JUMPDEST PUSH0 DUP2 DUP2 SLOAD DUP2 LT PUSH3 0x1BB JUMPI PUSH0 DUP1 REVERT JUMPDEST SWAP1 PUSH0 MSTORE PUSH1 0x20 PUSH0 KECCAK256 ADD PUSH0 SWAP2 POP SLOAD SWAP1 PUSH2 0x100 EXP SWAP1 DIV PUSH20 0xFFFFFFFFFFFFFFFFFFFFFFFFFFFFFFFFFFFFFFFF AND DUP2 JUMP JUMPDEST PUSH2 0x8AE DUP1 PUSH3 0x624 DUP4 CODECOPY ADD SWAP1 JUMP JUMPDEST PUSH0 PUSH1 0x40 MLOAD SWAP1 POP SWAP1 JUMP JUMPDEST PUSH0 DUP1 REVERT JUMPDEST PUSH0 DUP1 REVERT JUMPDEST PUSH0 PUSH20 0xFFFFFFFFFFFFFFFFFFFFFFFFFFFFFFFFFFFFFFFF DUP3 AND SWAP1 POP SWAP2 SWAP1 POP JUMP JUMPDEST PUSH0 PUSH3 0x231 DUP3 PUSH3 0x206 JUMP JUMPDEST SWAP1 POP SWAP2 SWAP1 POP JUMP JUMPDEST PUSH3 0x243 DUP2 PUSH3 0x225 JUMP JUMPDEST DUP2 EQ PUSH3 0x24E JUMPI PUSH0 DUP1 REVERT JUMPDEST POP JUMP JUMPDEST PUSH0 DUP2 CALLDATALOAD SWAP1 POP PUSH3 0x261 DUP2 PUSH3 0x238 JUMP JUMPDEST SWAP3 SWAP2 POP POP JUMP JUMPDEST PUSH0 DUP1 REVERT JUMPDEST PUSH0 DUP1 REVERT JUMPDEST PUSH0 PUSH1 0x1F NOT PUSH1 0x1F DUP4 ADD AND SWAP1 POP SWAP2 SWAP1 POP JUMP JUMPDEST PUSH32 0x4E487B7100000000000000000000000000000000000000000000000000000000 PUSH0 MSTORE PUSH1 0x41 PUSH1 0x4 MSTORE PUSH1 0x24 PUSH0 REVERT JUMPDEST PUSH3 0x2B7 DUP3 PUSH3 0x26F JUMP JUMPDEST DUP2 ADD DUP2 DUP2 LT PUSH8 0xFFFFFFFFFFFFFFFF DUP3 GT OR ISZERO PUSH3 0x2D9 JUMPI PUSH3 0x2D8 PUSH3 0x27F JUMP JUMPDEST JUMPDEST DUP1 PUSH1 0x40 MSTORE POP POP POP JUMP JUMPDEST PUSH0 PUSH3 0x2ED PUSH3 0x1F5 JUMP JUMPDEST SWAP1 POP PUSH3 0x2FB DUP3 DUP3 PUSH3 0x2AC JUMP JUMPDEST SWAP2 SWAP1 POP JUMP JUMPDEST PUSH0 PUSH8 0xFFFFFFFFFFFFFFFF DUP3 GT ISZERO PUSH3 0x31D JUMPI PUSH3 0x31C PUSH3 0x27F JUMP JUMPDEST JUMPDEST PUSH3 0x328 DUP3 PUSH3 0x26F JUMP JUMPDEST SWAP1 POP PUSH1 0x20 DUP2 ADD SWAP1 POP SWAP2 SWAP1 POP JUMP JUMPDEST DUP3 DUP2 DUP4 CALLDATACOPY PUSH0 DUP4 DUP4 ADD MSTORE POP POP POP JUMP JUMPDEST PUSH0 PUSH3 0x359 PUSH3 0x353 DUP5 PUSH3 0x300 JUMP JUMPDEST PUSH3 0x2E2 JUMP JUMPDEST SWAP1 POP DUP3 DUP2 MSTORE PUSH1 0x20 DUP2 ADD DUP5 DUP5 DUP5 ADD GT ISZERO PUSH3 0x378 JUMPI PUSH3 0x377 PUSH3 0x26B JUMP JUMPDEST JUMPDEST PUSH3 0x385 DUP5 DUP3 DUP6 PUSH3 0x335 JUMP JUMPDEST POP SWAP4 SWAP3 POP POP POP JUMP JUMPDEST PUSH0 DUP3 PUSH1 0x1F DUP4 ADD SLT PUSH3 0x3A4 JUMPI PUSH3 0x3A3 PUSH3 0x267 JUMP JUMPDEST JUMPDEST DUP2 CALLDATALOAD PUSH3 0x3B6 DUP5 DUP3 PUSH1 0x20 DUP7 ADD PUSH3 0x343 JUMP JUMPDEST SWAP2 POP POP SWAP3 SWAP2 POP POP JUMP JUMPDEST PUSH0 DUP1 PUSH1 0x40 DUP4 DUP6 SUB SLT ISZERO PUSH3 0x3D8 JUMPI PUSH3 0x3D7 PUSH3 0x1FE JUMP JUMPDEST JUMPDEST PUSH0 PUSH3 0x3E7 DUP6 DUP3 DUP7 ADD PUSH3 0x251 JUMP JUMPDEST SWAP3 POP POP PUSH1 0x20 DUP4 ADD CALLDATALOAD PUSH8 0xFFFFFFFFFFFFFFFF DUP2 GT ISZERO PUSH3 0x40B JUMPI PUSH3 0x40A PUSH3 0x202 JUMP JUMPDEST JUMPDEST PUSH3 0x419 DUP6 DUP3 DUP7 ADD PUSH3 0x38D JUMP JUMPDEST SWAP2 POP POP SWAP3 POP SWAP3 SWAP1 POP JUMP JUMPDEST PUSH0 PUSH1 0x20 DUP3 DUP5 SUB SLT ISZERO PUSH3 0x43B JUMPI PUSH3 0x43A PUSH3 0x1FE JUMP JUMPDEST JUMPDEST PUSH0 DUP3 ADD CALLDATALOAD PUSH8 0xFFFFFFFFFFFFFFFF DUP2 GT ISZERO PUSH3 0x45B JUMPI PUSH3 0x45A PUSH3 0x202 JUMP JUMPDEST JUMPDEST PUSH3 0x469 DUP5 DUP3 DUP6 ADD PUSH3 0x38D JUMP JUMPDEST SWAP2 POP POP SWAP3 SWAP2 POP POP JUMP JUMPDEST PUSH0 DUP2 SWAP1 POP SWAP2 SWAP1 POP JUMP JUMPDEST PUSH3 0x486 DUP2 PUSH3 0x472 JUMP JUMPDEST DUP2 EQ PUSH3 0x491 JUMPI PUSH0 DUP1 REVERT JUMPDEST POP JUMP JUMPDEST PUSH0 DUP2 CALLDATALOAD SWAP1 POP PUSH3 0x4A4 DUP2 PUSH3 0x47B JUMP JUMPDEST SWAP3 SWAP2 POP POP JUMP JUMPDEST PUSH0 PUSH1 0x20 DUP3 DUP5 SUB SLT ISZERO PUSH3 0x4C2 JUMPI PUSH3 0x4C1 PUSH3 0x1FE JUMP JUMPDEST JUMPDEST PUSH0 PUSH3 0x4D1 DUP5 DUP3 DUP6 ADD PUSH3 0x494 JUMP JUMPDEST SWAP2 POP POP SWAP3 SWAP2 POP POP JUMP JUMPDEST PUSH0 DUP2 SWAP1 POP SWAP2 SWAP1 POP JUMP JUMPDEST PUSH0 PUSH3 0x503 PUSH3 0x4FD PUSH3 0x4F7 DUP5 PUSH3 0x206 JUMP JUMPDEST PUSH3 0x4DA JUMP JUMPDEST PUSH3 0x206 JUMP JUMPDEST SWAP1 POP SWAP2 SWAP1 POP JUMP JUMPDEST PUSH0 PUSH3 0x516 DUP3 PUSH3 0x4E3 JUMP JUMPDEST SWAP1 POP SWAP2 SWAP1 POP JUMP JUMPDEST PUSH0 PUSH3 0x529 DUP3 PUSH3 0x50A JUMP JUMPDEST SWAP1 POP SWAP2 SWAP1 POP JUMP JUMPDEST PUSH3 0x53B DUP2 PUSH3 0x51D JUMP JUMPDEST DUP3 MSTORE POP POP JUMP JUMPDEST PUSH0 PUSH1 0x20 DUP3 ADD SWAP1 POP PUSH3 0x556 PUSH0 DUP4 ADD DUP5 PUSH3 0x530 JUMP JUMPDEST SWAP3 SWAP2 POP POP JUMP JUMPDEST PUSH0 DUP2 MLOAD SWAP1 POP SWAP2 SWAP1 POP JUMP JUMPDEST PUSH0 DUP3 DUP3 MSTORE PUSH1 0x20 DUP3 ADD SWAP1 POP SWAP3 SWAP2 POP POP JUMP JUMPDEST PUSH0 JUMPDEST DUP4 DUP2 LT ISZERO PUSH3 0x595 JUMPI DUP1 DUP3 ADD MLOAD DUP2 DUP5 ADD MSTORE PUSH1 0x20 DUP2 ADD SWAP1 POP PUSH3 0x578 JUMP JUMPDEST PUSH0 DUP5 DUP5 ADD MSTORE POP POP POP POP JUMP JUMPDEST PUSH0 PUSH3 0x5AC DUP3 PUSH3 0x55C JUMP JUMPDEST PUSH3 0x5B8 DUP2 DUP6 PUSH3 0x566 JUMP JUMPDEST SWAP4 POP PUSH3 0x5CA DUP2 DUP6 PUSH1 0x20 DUP7 ADD PUSH3 0x576 JUMP JUMPDEST PUSH3 0x5D5 DUP2 PUSH3 0x26F JUMP JUMPDEST DUP5 ADD SWAP2 POP POP SWAP3 SWAP2 POP POP JUMP JUMPDEST PUSH3 0x5EB DUP2 PUSH3 0x225 JUMP JUMPDEST DUP3 MSTORE POP POP JUMP JUMPDEST PUSH0 PUSH1 0x40 DUP3 ADD SWAP1 POP DUP2 DUP2 SUB PUSH0 DUP4 ADD MSTORE PUSH3 0x60B DUP2 DUP6 PUSH3 0x5A0 JUMP JUMPDEST SWAP1 POP PUSH3 0x61C PUSH1 0x20 DUP4 ADD DUP5 PUSH3 0x5E0 JUMP JUMPDEST SWAP4 SWAP3 POP POP POP JUMP INVALID PUSH1 0x80 PUSH1 0x40 MSTORE PUSH1 0x40 MLOAD PUSH3 0x8AE CODESIZE SUB DUP1 PUSH3 0x8AE DUP4 CODECOPY DUP2 DUP2 ADD PUSH1 0x40 MSTORE DUP2 ADD SWAP1 PUSH3 0x29 SWAP2 SWAP1 PUSH3 0x268 JUMP JUMPDEST DUP2 PUSH0 SWAP1 DUP2 PUSH3 0x39 SWAP2 SWAP1 PUSH3 0x503 JUMP JUMPDEST POP DUP1 PUSH1 0x1 PUSH0 PUSH2 0x100 EXP DUP2 SLOAD DUP2 PUSH20 0xFFFFFFFFFFFFFFFFFFFFFFFFFFFFFFFFFFFFFFFF MUL NOT AND SWAP1 DUP4 PUSH20 0xFFFFFFFFFFFFFFFFFFFFFFFFFFFFFFFFFFFFFFFF AND MUL OR SWAP1 SSTORE POP POP POP PUSH3 0x5E7 JUMP JUMPDEST PUSH0 PUSH1 0x40 MLOAD SWAP1 POP SWAP1 JUMP JUMPDEST PUSH0 DUP1 REVERT JUMPDEST PUSH0 DUP1 REVERT JUMPDEST PUSH0 DUP1 REVERT JUMPDEST PUSH0 DUP1 REVERT JUMPDEST PUSH0 PUSH1 0x1F NOT PUSH1 0x1F DUP4 ADD AND SWAP1 POP SWAP2 SWAP1 POP JUMP JUMPDEST PUSH32 0x4E487B7100000000000000000000000000000000000000000000000000000000 PUSH0 MSTORE PUSH1 0x41 PUSH1 0x4 MSTORE PUSH1 0x24 PUSH0 REVERT JUMPDEST PUSH3 0xE3 DUP3 PUSH3 0x9B JUMP JUMPDEST DUP2 ADD DUP2 DUP2 LT PUSH8 0xFFFFFFFFFFFFFFFF DUP3 GT OR ISZERO PUSH3 0x105 JUMPI PUSH3 0x104 PUSH3 0xAB JUMP JUMPDEST JUMPDEST DUP1 PUSH1 0x40 MSTORE POP POP POP JUMP JUMPDEST PUSH0 PUSH3 0x119 PUSH3 0x82 JUMP JUMPDEST SWAP1 POP PUSH3 0x127 DUP3 DUP3 PUSH3 0xD8 JUMP JUMPDEST SWAP2 SWAP1 POP JUMP JUMPDEST PUSH0 PUSH8 0xFFFFFFFFFFFFFFFF DUP3 GT ISZERO PUSH3 0x149 JUMPI PUSH3 0x148 PUSH3 0xAB JUMP JUMPDEST JUMPDEST PUSH3 0x154 DUP3 PUSH3 0x9B JUMP JUMPDEST SWAP1 POP PUSH1 0x20 DUP2 ADD SWAP1 POP SWAP2 SWAP1 POP JUMP JUMPDEST PUSH0 JUMPDEST DUP4 DUP2 LT ISZERO PUSH3 0x180 JUMPI DUP1 DUP3 ADD MLOAD DUP2 DUP5 ADD MSTORE PUSH1 0x20 DUP2 ADD SWAP1 POP PUSH3 0x163 JUMP JUMPDEST PUSH0 DUP5 DUP5 ADD MSTORE POP POP POP POP JUMP JUMPDEST PUSH0 PUSH3 0x1A1 PUSH3 0x19B DUP5 PUSH3 0x12C JUMP JUMPDEST PUSH3 0x10E JUMP JUMPDEST SWAP1 POP DUP3 DUP2 MSTORE PUSH1 0x20 DUP2 ADD DUP5 DUP5 DUP5 ADD GT ISZERO PUSH3 0x1C0 JUMPI PUSH3 0x1BF PUSH3 0x97 JUMP JUMPDEST JUMPDEST PUSH3 0x1CD DUP5 DUP3 DUP6 PUSH3 0x161 JUMP JUMPDEST POP SWAP4 SWAP3 POP POP POP JUMP JUMPDEST PUSH0 DUP3 PUSH1 0x1F DUP4 ADD SLT PUSH3 0x1EC JUMPI PUSH3 0x1EB PUSH3 0x93 JUMP JUMPDEST JUMPDEST DUP2 MLOAD PUSH3 0x1FE DUP5 DUP3 PUSH1 0x20 DUP7 ADD PUSH3 0x18B JUMP JUMPDEST SWAP2 POP POP SWAP3 SWAP2 POP POP JUMP JUMPDEST PUSH0 PUSH20 0xFFFFFFFFFFFFFFFFFFFFFFFFFFFFFFFFFFFFFFFF DUP3 AND SWAP1 POP SWAP2 SWAP1 POP JUMP JUMPDEST PUSH0 PUSH3 0x232 DUP3 PUSH3 0x207 JUMP JUMPDEST SWAP1 POP SWAP2 SWAP1 POP JUMP JUMPDEST PUSH3 0x244 DUP2 PUSH3 0x226 JUMP JUMPDEST DUP2 EQ PUSH3 0x24F JUMPI PUSH0 DUP1 REVERT JUMPDEST POP JUMP JUMPDEST PUSH0 DUP2 MLOAD SWAP1 POP PUSH3 0x262 DUP2 PUSH3 0x239 JUMP JUMPDEST SWAP3 SWAP2 POP POP JUMP JUMPDEST PUSH0 DUP1 PUSH1 0x40 DUP4 DUP6 SUB SLT ISZERO PUSH3 0x281 JUMPI PUSH3 0x280 PUSH3 0x8B JUMP JUMPDEST JUMPDEST PUSH0 DUP4 ADD MLOAD PUSH8 0xFFFFFFFFFFFFFFFF DUP2 GT ISZERO PUSH3 0x2A1 JUMPI PUSH3 0x2A0 PUSH3 0x8F JUMP JUMPDEST JUMPDEST PUSH3 0x2AF DUP6 DUP3 DUP7 ADD PUSH3 0x1D5 JUMP JUMPDEST SWAP3 POP POP PUSH1 0x20 PUSH3 0x2C2 DUP6 DUP3 DUP7 ADD PUSH3 0x252 JUMP JUMPDEST SWAP2 POP POP SWAP3 POP SWAP3 SWAP1 POP JUMP JUMPDEST PUSH0 DUP2 MLOAD SWAP1 POP SWAP2 SWAP1 POP JUMP JUMPDEST PUSH32 0x4E487B7100000000000000000000000000000000000000000000000000000000 PUSH0 MSTORE PUSH1 0x22 PUSH1 0x4 MSTORE PUSH1 0x24 PUSH0 REVERT JUMPDEST PUSH0 PUSH1 0x2 DUP3 DIV SWAP1 POP PUSH1 0x1 DUP3 AND DUP1 PUSH3 0x31B JUMPI PUSH1 0x7F DUP3 AND SWAP2 POP JUMPDEST PUSH1 0x20 DUP3 LT DUP2 SUB PUSH3 0x331 JUMPI PUSH3 0x330 PUSH3 0x2D6 JUMP JUMPDEST JUMPDEST POP SWAP2 SWAP1 POP JUMP JUMPDEST PUSH0 DUP2 SWAP1 POP DUP2 PUSH0 MSTORE PUSH1 0x20 PUSH0 KECCAK256 SWAP1 POP SWAP2 SWAP1 POP JUMP JUMPDEST PUSH0 PUSH1 0x20 PUSH1 0x1F DUP4 ADD DIV SWAP1 POP SWAP2 SWAP1 POP JUMP JUMPDEST PUSH0 DUP3 DUP3 SHL SWAP1 POP SWAP3 SWAP2 POP POP JUMP JUMPDEST PUSH0 PUSH1 0x8 DUP4 MUL PUSH3 0x395 PUSH32 0xFFFFFFFFFFFFFFFFFFFFFFFFFFFFFFFFFFFFFFFFFFFFFFFFFFFFFFFFFFFFFFFF DUP3 PUSH3 0x358 JUMP JUMPDEST PUSH3 0x3A1 DUP7 DUP4 PUSH3 0x358 JUMP JUMPDEST SWAP6 POP DUP1 NOT DUP5 AND SWAP4 POP DUP1 DUP7 AND DUP5 OR SWAP3 POP POP POP SWAP4 SWAP3 POP POP POP JUMP JUMPDEST PUSH0 DUP2 SWAP1 POP SWAP2 SWAP1 POP JUMP JUMPDEST PUSH0 DUP2 SWAP1 POP SWAP2 SWAP1 POP JUMP JUMPDEST PUSH0 PUSH3 0x3EB PUSH3 0x3E5 PUSH3 0x3DF DUP5 PUSH3 0x3B9 JUMP JUMPDEST PUSH3 0x3C2 JUMP JUMPDEST PUSH3 0x3B9 JUMP JUMPDEST SWAP1 POP SWAP2 SWAP1 POP JUMP JUMPDEST PUSH0 DUP2 SWAP1 POP SWAP2 SWAP1 POP JUMP JUMPDEST PUSH3 0x406 DUP4 PUSH3 0x3CB JUMP JUMPDEST PUSH3 0x41E PUSH3 0x415 DUP3 PUSH3 0x3F2 JUMP JUMPDEST DUP5 DUP5 SLOAD PUSH3 0x364 JUMP JUMPDEST DUP3 SSTORE POP POP POP POP JUMP JUMPDEST PUSH0 SWAP1 JUMP JUMPDEST PUSH3 0x434 PUSH3 0x426 JUMP JUMPDEST PUSH3 0x441 DUP2 DUP5 DUP5 PUSH3 0x3FB JUMP JUMPDEST POP POP POP JUMP JUMPDEST JUMPDEST DUP2 DUP2 LT ISZERO PUSH3 0x468 JUMPI PUSH3 0x45C PUSH0 DUP3 PUSH3 0x42A JUMP JUMPDEST PUSH1 0x1 DUP2 ADD SWAP1 POP PUSH3 0x447 JUMP JUMPDEST POP POP JUMP JUMPDEST PUSH1 0x1F DUP3 GT ISZERO PUSH3 0x4B7 JUMPI PUSH3 0x481 DUP2 PUSH3 0x337 JUMP JUMPDEST PUSH3 0x48C DUP5 PUSH3 0x349 JUMP JUMPDEST DUP2 ADD PUSH1 0x20 DUP6 LT ISZERO PUSH3 0x49C JUMPI DUP2 SWAP1 POP JUMPDEST PUSH3 0x4B4 PUSH3 0x4AB DUP6 PUSH3 0x349 JUMP JUMPDEST DUP4 ADD DUP3 PUSH3 0x446 JUMP JUMPDEST POP POP JUMPDEST POP POP POP JUMP JUMPDEST PUSH0 DUP3 DUP3 SHR SWAP1 POP SWAP3 SWAP2 POP POP JUMP JUMPDEST PUSH0 PUSH3 0x4D9 PUSH0 NOT DUP5 PUSH1 0x8 MUL PUSH3 0x4BC JUMP JUMPDEST NOT DUP1 DUP4 AND SWAP2 POP POP SWAP3 SWAP2 POP POP JUMP JUMPDEST PUSH0 PUSH3 0x4F3 DUP4 DUP4 PUSH3 0x4C8 JUMP JUMPDEST SWAP2 POP DUP3 PUSH1 0x2 MUL DUP3 OR SWAP1 POP SWAP3 SWAP2 POP POP JUMP JUMPDEST PUSH3 0x50E DUP3 PUSH3 0x2CC JUMP JUMPDEST PUSH8 0xFFFFFFFFFFFFFFFF DUP2 GT ISZERO PUSH3 0x52A JUMPI PUSH3 0x529 PUSH3 0xAB JUMP JUMPDEST JUMPDEST PUSH3 0x536 DUP3 SLOAD PUSH3 0x303 JUMP JUMPDEST PUSH3 0x543 DUP3 DUP3 DUP6 PUSH3 0x46C JUMP JUMPDEST PUSH0 PUSH1 0x20 SWAP1 POP PUSH1 0x1F DUP4 GT PUSH1 0x1 DUP2 EQ PUSH3 0x579 JUMPI PUSH0 DUP5 ISZERO PUSH3 0x564 JUMPI DUP3 DUP8 ADD MLOAD SWAP1 POP JUMPDEST PUSH3 0x570 DUP6 DUP3 PUSH3 0x4E6 JUMP JUMPDEST DUP7 SSTORE POP PUSH3 0x5DF JUMP JUMPDEST PUSH1 0x1F NOT DUP5 AND PUSH3 0x589 DUP7 PUSH3 0x337 JUMP JUMPDEST PUSH0 JUMPDEST DUP3 DUP2 LT ISZERO PUSH3 0x5B2 JUMPI DUP5 DUP10 ADD MLOAD DUP3 SSTORE PUSH1 0x1 DUP3 ADD SWAP2 POP PUSH1 0x20 DUP6 ADD SWAP5 POP PUSH1 0x20 DUP2 ADD SWAP1 POP PUSH3 0x58B JUMP JUMPDEST DUP7 DUP4 LT ISZERO PUSH3 0x5D2 JUMPI DUP5 DUP10 ADD MLOAD PUSH3 0x5CE PUSH1 0x1F DUP10 AND DUP3 PUSH3 0x4C8 JUMP JUMPDEST DUP4 SSTORE POP JUMPDEST PUSH1 0x1 PUSH1 0x2 DUP9 MUL ADD DUP9 SSTORE POP POP POP JUMPDEST POP POP POP POP POP POP JUMP JUMPDEST PUSH2 0x2B9 DUP1 PUSH3 0x5F5 PUSH0 CODECOPY PUSH0 RETURN INVALID PUSH1 0x80 PUSH1 0x40 MSTORE CALLVALUE DUP1 ISZERO PUSH2 0xF JUMPI PUSH0 DUP1 REVERT JUMPDEST POP PUSH1 0x4 CALLDATASIZE LT PUSH2 0x34 JUMPI PUSH0 CALLDATALOAD PUSH1 0xE0 SHR DUP1 PUSH4 0xAD9D052 EQ PUSH2 0x38 JUMPI DUP1 PUSH4 0x8DA5CB5B EQ PUSH2 0x56 JUMPI JUMPDEST PUSH0 DUP1 REVERT JUMPDEST PUSH2 0x40 PUSH2 0x74 JUMP JUMPDEST PUSH1 0x40 MLOAD PUSH2 0x4D SWAP2 SWAP1 PUSH2 0x1AE JUMP JUMPDEST PUSH1 0x40 MLOAD DUP1 SWAP2 SUB SWAP1 RETURN JUMPDEST PUSH2 0x5E PUSH2 0xFF JUMP JUMPDEST PUSH1 0x40 MLOAD PUSH2 0x6B SWAP2 SWAP1 PUSH2 0x20D JUMP JUMPDEST PUSH1 0x40 MLOAD DUP1 SWAP2 SUB SWAP1 RETURN JUMPDEST PUSH0 DUP1 SLOAD PUSH2 0x80 SWAP1 PUSH2 0x253 JUMP JUMPDEST DUP1 PUSH1 0x1F ADD PUSH1 0x20 DUP1 SWAP2 DIV MUL PUSH1 0x20 ADD PUSH1 0x40 MLOAD SWAP1 DUP2 ADD PUSH1 0x40 MSTORE DUP1 SWAP3 SWAP2 SWAP1 DUP2 DUP2 MSTORE PUSH1 0x20 ADD DUP3 DUP1 SLOAD PUSH2 0xAC SWAP1 PUSH2 0x253 JUMP JUMPDEST DUP1 ISZERO PUSH2 0xF7 JUMPI DUP1 PUSH1 0x1F LT PUSH2 0xCE JUMPI PUSH2 0x100 DUP1 DUP4 SLOAD DIV MUL DUP4 MSTORE SWAP2 PUSH1 0x20 ADD SWAP2 PUSH2 0xF7 JUMP JUMPDEST DUP3 ADD SWAP2 SWAP1 PUSH0 MSTORE PUSH1 0x20 PUSH0 KECCAK256 SWAP1 JUMPDEST DUP2 SLOAD DUP2 MSTORE SWAP1 PUSH1 0x1 ADD SWAP1 PUSH1 0x20 ADD DUP1 DUP4 GT PUSH2 0xDA JUMPI DUP3 SWAP1 SUB PUSH1 0x1F AND DUP3 ADD SWAP2 JUMPDEST POP POP POP POP POP DUP2 JUMP JUMPDEST PUSH1 0x1 PUSH0 SWAP1 SLOAD SWAP1 PUSH2 0x100 EXP SWAP1 DIV PUSH20 0xFFFFFFFFFFFFFFFFFFFFFFFFFFFFFFFFFFFFFFFF AND DUP2 JUMP JUMPDEST PUSH0 DUP2 MLOAD SWAP1 POP SWAP2 SWAP1 POP JUMP JUMPDEST PUSH0 DUP3 DUP3 MSTORE PUSH1 0x20 DUP3 ADD SWAP1 POP SWAP3 SWAP2 POP POP JUMP JUMPDEST PUSH0 JUMPDEST DUP4 DUP2 LT ISZERO PUSH2 0x15B JUMPI DUP1 DUP3 ADD MLOAD DUP2 DUP5 ADD MSTORE PUSH1 0x20 DUP2 ADD SWAP1 POP PUSH2 0x140 JUMP JUMPDEST PUSH0 DUP5 DUP5 ADD MSTORE POP POP POP POP JUMP JUMPDEST PUSH0 PUSH1 0x1F NOT PUSH1 0x1F DUP4 ADD AND SWAP1 POP SWAP2 SWAP1 POP JUMP JUMPDEST PUSH0 PUSH2 0x180 DUP3 PUSH2 0x124 JUMP JUMPDEST PUSH2 0x18A DUP2 DUP6 PUSH2 0x12E JUMP JUMPDEST SWAP4 POP PUSH2 0x19A DUP2 DUP6 PUSH1 0x20 DUP7 ADD PUSH2 0x13E JUMP JUMPDEST PUSH2 0x1A3 DUP2 PUSH2 0x166 JUMP JUMPDEST DUP5 ADD SWAP2 POP POP SWAP3 SWAP2 POP POP JUMP JUMPDEST PUSH0 PUSH1 0x20 DUP3 ADD SWAP1 POP DUP2 DUP2 SUB PUSH0 DUP4 ADD MSTORE PUSH2 0x1C6 DUP2 DUP5 PUSH2 0x176 JUMP JUMPDEST SWAP1 POP SWAP3 SWAP2 POP POP JUMP JUMPDEST PUSH0 PUSH20 0xFFFFFFFFFFFFFFFFFFFFFFFFFFFFFFFFFFFFFFFF DUP3 AND SWAP1 POP SWAP2 SWAP1 POP JUMP JUMPDEST PUSH0 PUSH2 0x1F7 DUP3 PUSH2 0x1CE JUMP JUMPDEST SWAP1 POP SWAP2 SWAP1 POP JUMP JUMPDEST PUSH2 0x207 DUP2 PUSH2 0x1ED JUMP JUMPDEST DUP3 MSTORE POP POP JUMP JUMPDEST PUSH0 PUSH1 0x20 DUP3 ADD SWAP1 POP PUSH2 0x220 PUSH0 DUP4 ADD DUP5 PUSH2 0x1FE JUMP JUMPDEST SWAP3 SWAP2 POP POP JUMP JUMPDEST PUSH32 0x4E487B7100000000000000000000000000000000000000000000000000000000 PUSH0 MSTORE PUSH1 0x22 PUSH1 0x4 MSTORE PUSH1 0x24 PUSH0 REVERT JUMPDEST PUSH0 PUSH1 0x2 DUP3 DIV SWAP1 POP PUSH1 0x1 DUP3 AND DUP1 PUSH2 0x26A JUMPI PUSH1 0x7F DUP3 AND SWAP2 POP JUMPDEST PUSH1 0x20 DUP3 LT DUP2 SUB PUSH2 0x27D JUMPI PUSH2 0x27C PUSH2 0x226 JUMP JUMPDEST JUMPDEST POP SWAP2 SWAP1 POP JUMP INVALID LOG2 PUSH5 0x6970667358 0x22 SLT KECCAK256 CODESIZE SWAP16 0xDE 0x2D 0xD1 POP SWAP12 MUL 0xB2 DUP9 PUSH27 0xE2F24A67FC40B6796A4C37C1CE6FA2E356D90BCB1664736F6C6343 STOP ADDMOD EQ STOP CALLER LOG2 PUSH5 0x6970667358 0x22 SLT KECCAK256 INVALID 0xB7 DUP6 0xA8 0xEC PUSH29 0x253F6334090CCB2013B2C9A150669B513D4AA49524C2E2DAD08764736F PUSH13 0x63430008140033000000000000 "
		},
		"gasEstimates": {
			"creation": {
				"codeDepositCost": "769400",
				"executionCost": "803",
				"totalCost": "770203"
			},
			"external": {
				"cars(uint256)": "infinite",
				"create(string)": "infinite",
				"createandsendether(address,string)": "infinite"
			}
		},
		"methodIdentifiers": {
			"cars(uint256)": "f7746e36",
			"create(string)": "b6a46b3b",
			"createandsendether(address,string)": "571eb88d"
		}
	},
	"abi": [
		{
			"inputs": [
				{
					"internalType": "uint256",
					"name": "",
					"type": "uint256"
				}
			],
			"name": "cars",
			"outputs": [
				{
					"internalType": "contract Car",
					"name": "",
					"type": "address"
				}
			],
			"stateMutability": "view",
			"type": "function"
		},
		{
			"inputs": [
				{
					"internalType": "string",
					"name": "_model",
					"type": "string"
				}
			],
			"name": "create",
			"outputs": [],
			"stateMutability": "nonpayable",
			"type": "function"
		},
		{
			"inputs": [
				{
					"internalType": "address",
					"name": "_owner",
					"type": "address"
				},
				{
					"internalType": "string",
					"name": "_model",
					"type": "string"
				}
			],
			"name": "createandsendether",
			"outputs": [],
			"stateMutability": "payable",
			"type": "function"
		}
	]
}