{
	"data": {
		"bytecode": {
			"linkReferences": {},
			"object": "608060405234801561001057600080fd5b506103f1806100206000396000f3fe608060405234801561001057600080fd5b50600436106100365760003560e01c8063a15ab08d1461003b578063f7746e3614610057575b600080fd5b61005560048036038101906100509190610282565b610087565b005b610071600480360381019061006c9190610314565b61008b565b60405161007e91906103a0565b60405180910390f35b5050565b6000818154811061009b57600080fd5b906000526020600020016000915054906101000a900473ffffffffffffffffffffffffffffffffffffffff1681565b6000604051905090565b600080fd5b600080fd5b600073ffffffffffffffffffffffffffffffffffffffff82169050919050565b6000610109826100de565b9050919050565b610119816100fe565b811461012457600080fd5b50565b60008135905061013681610110565b92915050565b600080fd5b600080fd5b6000601f19601f8301169050919050565b7f4e487b7100000000000000000000000000000000000000000000000000000000600052604160045260246000fd5b61018f82610146565b810181811067ffffffffffffffff821117156101ae576101ad610157565b5b80604052505050565b60006101c16100ca565b90506101cd8282610186565b919050565b600067ffffffffffffffff8211156101ed576101ec610157565b5b6101f682610146565b9050602081019050919050565b82818337600083830152505050565b6000610225610220846101d2565b6101b7565b90508281526020810184848401111561024157610240610141565b5b61024c848285610203565b509392505050565b600082601f8301126102695761026861013c565b5b8135610279848260208601610212565b91505092915050565b60008060408385031215610299576102986100d4565b5b60006102a785828601610127565b925050602083013567ffffffffffffffff8111156102c8576102c76100d9565b5b6102d485828601610254565b9150509250929050565b6000819050919050565b6102f1816102de565b81146102fc57600080fd5b50565b60008135905061030e816102e8565b92915050565b60006020828403121561032a576103296100d4565b5b6000610338848285016102ff565b91505092915050565b6000819050919050565b600061036661036161035c846100de565b610341565b6100de565b9050919050565b60006103788261034b565b9050919050565b600061038a8261036d565b9050919050565b61039a8161037f565b82525050565b60006020820190506103b56000830184610391565b9291505056fea2646970667358221220bf4ac7acd8d02e81c38e4e4947507865654281555b8f2cf8d6d04d6cd1131bb464736f6c63430008120033",
			"opcodes": "PUSH1 0x80 PUSH1 0x40 MSTORE CALLVALUE DUP1 ISZERO PUSH2 0x10 JUMPI PUSH1 0x0 DUP1 REVERT JUMPDEST POP PUSH2 0x3F1 DUP1 PUSH2 0x20 PUSH1 0x0 CODECOPY PUSH1 0x0 RETURN INVALID PUSH1 0x80 PUSH1 0x40 MSTORE CALLVALUE DUP1 ISZERO PUSH2 0x10 JUMPI PUSH1 0x0 DUP1 REVERT JUMPDEST POP PUSH1 0x4 CALLDATASIZE LT PUSH2 0x36 JUMPI PUSH1 0x0 CALLDATALOAD PUSH1 0xE0 SHR DUP1 PUSH4 0xA15AB08D EQ PUSH2 0x3B JUMPI DUP1 PUSH4 0xF7746E36 EQ PUSH2 0x57 JUMPI JUMPDEST PUSH1 0x0 DUP1 REVERT JUMPDEST PUSH2 0x55 PUSH1 0x4 DUP1 CALLDATASIZE SUB DUP2 ADD SWAP1 PUSH2 0x50 SWAP2 SWAP1 PUSH2 0x282 JUMP JUMPDEST PUSH2 0x87 JUMP JUMPDEST STOP JUMPDEST PUSH2 0x71 PUSH1 0x4 DUP1 CALLDATASIZE SUB DUP2 ADD SWAP1 PUSH2 0x6C SWAP2 SWAP1 PUSH2 0x314 JUMP JUMPDEST PUSH2 0x8B JUMP JUMPDEST PUSH1 0x40 MLOAD PUSH2 0x7E SWAP2 SWAP1 PUSH2 0x3A0 JUMP JUMPDEST PUSH1 0x40 MLOAD DUP1 SWAP2 SUB SWAP1 RETURN JUMPDEST POP POP JUMP JUMPDEST PUSH1 0x0 DUP2 DUP2 SLOAD DUP2 LT PUSH2 0x9B JUMPI PUSH1 0x0 DUP1 REVERT JUMPDEST SWAP1 PUSH1 0x0 MSTORE PUSH1 0x20 PUSH1 0x0 KECCAK256 ADD PUSH1 0x0 SWAP2 POP SLOAD SWAP1 PUSH2 0x100 EXP SWAP1 DIV PUSH20 0xFFFFFFFFFFFFFFFFFFFFFFFFFFFFFFFFFFFFFFFF AND DUP2 JUMP JUMPDEST PUSH1 0x0 PUSH1 0x40 MLOAD SWAP1 POP SWAP1 JUMP JUMPDEST PUSH1 0x0 DUP1 REVERT JUMPDEST PUSH1 0x0 DUP1 REVERT JUMPDEST PUSH1 0x0 PUSH20 0xFFFFFFFFFFFFFFFFFFFFFFFFFFFFFFFFFFFFFFFF DUP3 AND SWAP1 POP SWAP2 SWAP1 POP JUMP JUMPDEST PUSH1 0x0 PUSH2 0x109 DUP3 PUSH2 0xDE JUMP JUMPDEST SWAP1 POP SWAP2 SWAP1 POP JUMP JUMPDEST PUSH2 0x119 DUP2 PUSH2 0xFE JUMP JUMPDEST DUP2 EQ PUSH2 0x124 JUMPI PUSH1 0x0 DUP1 REVERT JUMPDEST POP JUMP JUMPDEST PUSH1 0x0 DUP2 CALLDATALOAD SWAP1 POP PUSH2 0x136 DUP2 PUSH2 0x110 JUMP JUMPDEST SWAP3 SWAP2 POP POP JUMP JUMPDEST PUSH1 0x0 DUP1 REVERT JUMPDEST PUSH1 0x0 DUP1 REVERT JUMPDEST PUSH1 0x0 PUSH1 0x1F NOT PUSH1 0x1F DUP4 ADD AND SWAP1 POP SWAP2 SWAP1 POP JUMP JUMPDEST PUSH32 0x4E487B7100000000000000000000000000000000000000000000000000000000 PUSH1 0x0 MSTORE PUSH1 0x41 PUSH1 0x4 MSTORE PUSH1 0x24 PUSH1 0x0 REVERT JUMPDEST PUSH2 0x18F DUP3 PUSH2 0x146 JUMP JUMPDEST DUP2 ADD DUP2 DUP2 LT PUSH8 0xFFFFFFFFFFFFFFFF DUP3 GT OR ISZERO PUSH2 0x1AE JUMPI PUSH2 0x1AD PUSH2 0x157 JUMP JUMPDEST JUMPDEST DUP1 PUSH1 0x40 MSTORE POP POP POP JUMP JUMPDEST PUSH1 0x0 PUSH2 0x1C1 PUSH2 0xCA JUMP JUMPDEST SWAP1 POP PUSH2 0x1CD DUP3 DUP3 PUSH2 0x186 JUMP JUMPDEST SWAP2 SWAP1 POP JUMP JUMPDEST PUSH1 0x0 PUSH8 0xFFFFFFFFFFFFFFFF DUP3 GT ISZERO PUSH2 0x1ED JUMPI PUSH2 0x1EC PUSH2 0x157 JUMP JUMPDEST JUMPDEST PUSH2 0x1F6 DUP3 PUSH2 0x146 JUMP JUMPDEST SWAP1 POP PUSH1 0x20 DUP2 ADD SWAP1 POP SWAP2 SWAP1 POP JUMP JUMPDEST DUP3 DUP2 DUP4 CALLDATACOPY PUSH1 0x0 DUP4 DUP4 ADD MSTORE POP POP POP JUMP JUMPDEST PUSH1 0x0 PUSH2 0x225 PUSH2 0x220 DUP5 PUSH2 0x1D2 JUMP JUMPDEST PUSH2 0x1B7 JUMP JUMPDEST SWAP1 POP DUP3 DUP2 MSTORE PUSH1 0x20 DUP2 ADD DUP5 DUP5 DUP5 ADD GT ISZERO PUSH2 0x241 JUMPI PUSH2 0x240 PUSH2 0x141 JUMP JUMPDEST JUMPDEST PUSH2 0x24C DUP5 DUP3 DUP6 PUSH2 0x203 JUMP JUMPDEST POP SWAP4 SWAP3 POP POP POP JUMP JUMPDEST PUSH1 0x0 DUP3 PUSH1 0x1F DUP4 ADD SLT PUSH2 0x269 JUMPI PUSH2 0x268 PUSH2 0x13C JUMP JUMPDEST JUMPDEST DUP2 CALLDATALOAD PUSH2 0x279 DUP5 DUP3 PUSH1 0x20 DUP7 ADD PUSH2 0x212 JUMP JUMPDEST SWAP2 POP POP SWAP3 SWAP2 POP POP JUMP JUMPDEST PUSH1 0x0 DUP1 PUSH1 0x40 DUP4 DUP6 SUB SLT ISZERO PUSH2 0x299 JUMPI PUSH2 0x298 PUSH2 0xD4 JUMP JUMPDEST JUMPDEST PUSH1 0x0 PUSH2 0x2A7 DUP6 DUP3 DUP7 ADD PUSH2 0x127 JUMP JUMPDEST SWAP3 POP POP PUSH1 0x20 DUP4 ADD CALLDATALOAD PUSH8 0xFFFFFFFFFFFFFFFF DUP2 GT ISZERO PUSH2 0x2C8 JUMPI PUSH2 0x2C7 PUSH2 0xD9 JUMP JUMPDEST JUMPDEST PUSH2 0x2D4 DUP6 DUP3 DUP7 ADD PUSH2 0x254 JUMP JUMPDEST SWAP2 POP POP SWAP3 POP SWAP3 SWAP1 POP JUMP JUMPDEST PUSH1 0x0 DUP2 SWAP1 POP SWAP2 SWAP1 POP JUMP JUMPDEST PUSH2 0x2F1 DUP2 PUSH2 0x2DE JUMP JUMPDEST DUP2 EQ PUSH2 0x2FC JUMPI PUSH1 0x0 DUP1 REVERT JUMPDEST POP JUMP JUMPDEST PUSH1 0x0 DUP2 CALLDATALOAD SWAP1 POP PUSH2 0x30E DUP2 PUSH2 0x2E8 JUMP JUMPDEST SWAP3 SWAP2 POP POP JUMP JUMPDEST PUSH1 0x0 PUSH1 0x20 DUP3 DUP5 SUB SLT ISZERO PUSH2 0x32A JUMPI PUSH2 0x329 PUSH2 0xD4 JUMP JUMPDEST JUMPDEST PUSH1 0x0 PUSH2 0x338 DUP5 DUP3 DUP6 ADD PUSH2 0x2FF JUMP JUMPDEST SWAP2 POP POP SWAP3 SWAP2 POP POP JUMP JUMPDEST PUSH1 0x0 DUP2 SWAP1 POP SWAP2 SWAP1 POP JUMP JUMPDEST PUSH1 0x0 PUSH2 0x366 PUSH2 0x361 PUSH2 0x35C DUP5 PUSH2 0xDE JUMP JUMPDEST PUSH2 0x341 JUMP JUMPDEST PUSH2 0xDE JUMP JUMPDEST SWAP1 POP SWAP2 SWAP1 POP JUMP JUMPDEST PUSH1 0x0 PUSH2 0x378 DUP3 PUSH2 0x34B JUMP JUMPDEST SWAP1 POP SWAP2 SWAP1 POP JUMP JUMPDEST PUSH1 0x0 PUSH2 0x38A DUP3 PUSH2 0x36D JUMP JUMPDEST SWAP1 POP SWAP2 SWAP1 POP JUMP JUMPDEST PUSH2 0x39A DUP2 PUSH2 0x37F JUMP JUMPDEST DUP3 MSTORE POP POP JUMP JUMPDEST PUSH1 0x0 PUSH1 0x20 DUP3 ADD SWAP1 POP PUSH2 0x3B5 PUSH1 0x0 DUP4 ADD DUP5 PUSH2 0x391 JUMP JUMPDEST SWAP3 SWAP2 POP POP JUMP INVALID LOG2 PUSH5 0x6970667358 0x22 SLT KECCAK256 0xBF 0x4A 0xC7 0xAC 0xD8 0xD0 0x2E DUP2 0xC3 DUP15 0x4E 0x49 SELFBALANCE POP PUSH25 0x65654281555B8F2CF8D6D04D6CD1131BB464736F6C63430008 SLT STOP CALLER "
		},
		"gasEstimates": {
			"creation": {
				"codeDepositCost": "201800",
				"executionCost": "245",
				"totalCost": "202045"
			},
			"external": {
				"cars(uint256)": "infinite",
				"create(address,string)": "infinite"
			}
		},
		"methodIdentifiers": {
			"cars(uint256)": "f7746e36",
			"create(address,string)": "a15ab08d"
		}
	},
	"abi": [
		{
			"inputs": [
				{
					"internalType": "uint256",
					"name": "",
					"type": "uint256"
				}
			],
			"name": "cars",
			"outputs": [
				{
					"internalType": "contract car",
					"name": "",
					"type": "address"
				}
			],
			"stateMutability": "view",
			"type": "function"
		},
		{
			"inputs": [
				{
					"internalType": "address",
					"name": "_owner",
					"type": "address"
				},
				{
					"internalType": "string",
					"name": "_model",
					"type": "string"
				}
			],
			"name": "create",
			"outputs": [],
			"stateMutability": "nonpayable",
			"type": "function"
		}
	]
}