{
	"data": {
		"bytecode": {
			"linkReferences": {},
			"object": "608060405234801561001057600080fd5b50610117806100206000396000f3fe6080604052348015600f57600080fd5b506004361060285760003560e01c8063febb0f7e14602d575b600080fd5b60336035565b005b7f41304facd9323d75b11bcdd609cb38effffdb05710f7caf0e9b16c6d9d709f5060405160609060c3565b60405180910390a1565b600082825260208201905092915050565b7f636865636b2e666f6f0000000000000000000000000000000000000000000000600082015250565b600060af600983606a565b915060b882607b565b602082019050919050565b6000602082019050818103600083015260da8160a4565b905091905056fea264697066735822122088de63953c1bba14a5a126455ecde1ac39d36fc37734f3082bdc88fd383d792464736f6c63430008120033",
			"opcodes": "PUSH1 0x80 PUSH1 0x40 MSTORE CALLVALUE DUP1 ISZERO PUSH2 0x10 JUMPI PUSH1 0x0 DUP1 REVERT JUMPDEST POP PUSH2 0x117 DUP1 PUSH2 0x20 PUSH1 0x0 CODECOPY PUSH1 0x0 RETURN INVALID PUSH1 0x80 PUSH1 0x40 MSTORE CALLVALUE DUP1 ISZERO PUSH1 0xF JUMPI PUSH1 0x0 DUP1 REVERT JUMPDEST POP PUSH1 0x4 CALLDATASIZE LT PUSH1 0x28 JUMPI PUSH1 0x0 CALLDATALOAD PUSH1 0xE0 SHR DUP1 PUSH4 0xFEBB0F7E EQ PUSH1 0x2D JUMPI JUMPDEST PUSH1 0x0 DUP1 REVERT JUMPDEST PUSH1 0x33 PUSH1 0x35 JUMP JUMPDEST STOP JUMPDEST PUSH32 0x41304FACD9323D75B11BCDD609CB38EFFFFDB05710F7CAF0E9B16C6D9D709F50 PUSH1 0x40 MLOAD PUSH1 0x60 SWAP1 PUSH1 0xC3 JUMP JUMPDEST PUSH1 0x40 MLOAD DUP1 SWAP2 SUB SWAP1 LOG1 JUMP JUMPDEST PUSH1 0x0 DUP3 DUP3 MSTORE PUSH1 0x20 DUP3 ADD SWAP1 POP SWAP3 SWAP2 POP POP JUMP JUMPDEST PUSH32 0x636865636B2E666F6F0000000000000000000000000000000000000000000000 PUSH1 0x0 DUP3 ADD MSTORE POP JUMP JUMPDEST PUSH1 0x0 PUSH1 0xAF PUSH1 0x9 DUP4 PUSH1 0x6A JUMP JUMPDEST SWAP2 POP PUSH1 0xB8 DUP3 PUSH1 0x7B JUMP JUMPDEST PUSH1 0x20 DUP3 ADD SWAP1 POP SWAP2 SWAP1 POP JUMP JUMPDEST PUSH1 0x0 PUSH1 0x20 DUP3 ADD SWAP1 POP DUP2 DUP2 SUB PUSH1 0x0 DUP4 ADD MSTORE PUSH1 0xDA DUP2 PUSH1 0xA4 JUMP JUMPDEST SWAP1 POP SWAP2 SWAP1 POP JUMP INVALID LOG2 PUSH5 0x6970667358 0x22 SLT KECCAK256 DUP9 0xDE PUSH4 0x953C1BBA EQ 0xA5 LOG1 0x26 GASLIMIT 0x5E 0xCD 0xE1 0xAC CODECOPY 0xD3 PUSH16 0xC37734F3082BDC88FD383D792464736F PUSH13 0x63430008120033000000000000 "
		},
		"gasEstimates": {
			"creation": {
				"codeDepositCost": "55800",
				"executionCost": "105",
				"totalCost": "55905"
			},
			"external": {
				"bar()": "1924"
			}
		},
		"methodIdentifiers": {
			"bar()": "febb0f7e"
		}
	},
	"abi": [
		{
			"anonymous": false,
			"inputs": [
				{
					"indexed": false,
					"internalType": "string",
					"name": "message",
					"type": "string"
				}
			],
			"name": "log",
			"type": "event"
		},
		{
			"inputs": [],
			"name": "bar",
			"outputs": [],
			"stateMutability": "nonpayable",
			"type": "function"
		}
	]
}