{
	"data": {
		"bytecode": {
			"linkReferences": {},
			"object": "6080604052662386f26fc1000060025534801561001a575f80fd5b506106ff806100285f395ff3fe608060405234801561000f575f80fd5b5060043610610029575f3560e01c8063a85b2ba71461002d575b5f80fd5b61004760048036038101906100429190610420565b61005d565b60405161005491906104d5565b60405180910390f35b60605f61006861039e565b90505f6003848154811061007f5761007e6104f5565b5b905f5260205f20906009020190505f600383815481106100a2576100a16104f5565b5b905f5260205f20906009020190508060030154826003015411156101e357816003015f8154809291906100d49061054f565b9190505550816005015f8154809291906100ed9061054f565b9190505550816006015f81548092919061010690610596565b9190505550816007015f81548092919061011f9061054f565b91905055506064826004015f82825461013891906105bd565b92505081905550806003015f81548092919061015390610596565b9190505550806005015f81548092919061016c9061054f565b9190505550806006015f81548092919061018590610596565b9190505550806008015f81548092919061019e9061054f565b91905055506040518060400160405280600e81526020017f436f6e67726174732057696e732e0000000000000000000000000000000000008152509350505050610399565b8160030154816003015411156102f957806003015f8154809291906102079061054f565b9190505550806005015f8154809291906102209061054f565b9190505550806006015f81548092919061023990610596565b9190505550806007015f8154809291906102529061054f565b91905055506064816004015f82825461026b91906105bd565b92505081905550816003015f81548092919061028690610596565b9190505550816005015f81548092919061029f9061054f565b9190505550816006015f8154809291906102b890610596565b9190505550816008015f8154809291906102d19061054f565b9190505550604051806060016040528060318152602001610699603191399350505050610399565b806005015f81548092919061030d9061054f565b9190505550816005015f8154809291906103269061054f565b9190505550816006015f81548092919061033f90610596565b9190505550806006015f81548092919061035890610596565b91905055506040518060400160405280600f81526020017f447261772054727920416761696e2e000000000000000000000000000000000081525093505050505b919050565b5f8060038054905090505f8182426040516020016103bd929190610610565b604051602081830303815290604052805190602001205f1c6103df9190610668565b9050809250505090565b5f80fd5b5f819050919050565b6103ff816103ed565b8114610409575f80fd5b50565b5f8135905061041a816103f6565b92915050565b5f60208284031215610435576104346103e9565b5b5f6104428482850161040c565b91505092915050565b5f81519050919050565b5f82825260208201905092915050565b5f5b83811015610482578082015181840152602081019050610467565b5f8484015250505050565b5f601f19601f8301169050919050565b5f6104a78261044b565b6104b18185610455565b93506104c1818560208601610465565b6104ca8161048d565b840191505092915050565b5f6020820190508181035f8301526104ed818461049d565b905092915050565b7f4e487b71000000000000000000000000000000000000000000000000000000005f52603260045260245ffd5b7f4e487b71000000000000000000000000000000000000000000000000000000005f52601160045260245ffd5b5f610559826103ed565b91507fffffffffffffffffffffffffffffffffffffffffffffffffffffffffffffffff820361058b5761058a610522565b5b600182019050919050565b5f6105a0826103ed565b91505f82036105b2576105b1610522565b5b600182039050919050565b5f6105c7826103ed565b91506105d2836103ed565b92508282019050808211156105ea576105e9610522565b5b92915050565b5f819050919050565b61060a610605826103ed565b6105f0565b82525050565b5f61061b82856105f9565b60208201915061062b82846105f9565b6020820191508190509392505050565b7f4e487b71000000000000000000000000000000000000000000000000000000005f52601260045260245ffd5b5f610672826103ed565b915061067d836103ed565b92508261068d5761068c61063b565b5b82820690509291505056fe57696e20416e64204c6f6f7365206973207468652070617274206f66207468652047616d652e54727920416761696e212ea26469706673582212204eee407c46ce1465e64ff22ee13b43a18bd0ed76e568dbfa4fd04fcf0c76308864736f6c63430008140033",
			"opcodes": "PUSH1 0x80 PUSH1 0x40 MSTORE PUSH7 0x2386F26FC10000 PUSH1 0x2 SSTORE CALLVALUE DUP1 ISZERO PUSH2 0x1A JUMPI PUSH0 DUP1 REVERT JUMPDEST POP PUSH2 0x6FF DUP1 PUSH2 0x28 PUSH0 CODECOPY PUSH0 RETURN INVALID PUSH1 0x80 PUSH1 0x40 MSTORE CALLVALUE DUP1 ISZERO PUSH2 0xF JUMPI PUSH0 DUP1 REVERT JUMPDEST POP PUSH1 0x4 CALLDATASIZE LT PUSH2 0x29 JUMPI PUSH0 CALLDATALOAD PUSH1 0xE0 SHR DUP1 PUSH4 0xA85B2BA7 EQ PUSH2 0x2D JUMPI JUMPDEST PUSH0 DUP1 REVERT JUMPDEST PUSH2 0x47 PUSH1 0x4 DUP1 CALLDATASIZE SUB DUP2 ADD SWAP1 PUSH2 0x42 SWAP2 SWAP1 PUSH2 0x420 JUMP JUMPDEST PUSH2 0x5D JUMP JUMPDEST PUSH1 0x40 MLOAD PUSH2 0x54 SWAP2 SWAP1 PUSH2 0x4D5 JUMP JUMPDEST PUSH1 0x40 MLOAD DUP1 SWAP2 SUB SWAP1 RETURN JUMPDEST PUSH1 0x60 PUSH0 PUSH2 0x68 PUSH2 0x39E JUMP JUMPDEST SWAP1 POP PUSH0 PUSH1 0x3 DUP5 DUP2 SLOAD DUP2 LT PUSH2 0x7F JUMPI PUSH2 0x7E PUSH2 0x4F5 JUMP JUMPDEST JUMPDEST SWAP1 PUSH0 MSTORE PUSH1 0x20 PUSH0 KECCAK256 SWAP1 PUSH1 0x9 MUL ADD SWAP1 POP PUSH0 PUSH1 0x3 DUP4 DUP2 SLOAD DUP2 LT PUSH2 0xA2 JUMPI PUSH2 0xA1 PUSH2 0x4F5 JUMP JUMPDEST JUMPDEST SWAP1 PUSH0 MSTORE PUSH1 0x20 PUSH0 KECCAK256 SWAP1 PUSH1 0x9 MUL ADD SWAP1 POP DUP1 PUSH1 0x3 ADD SLOAD DUP3 PUSH1 0x3 ADD SLOAD GT ISZERO PUSH2 0x1E3 JUMPI DUP2 PUSH1 0x3 ADD PUSH0 DUP2 SLOAD DUP1 SWAP3 SWAP2 SWAP1 PUSH2 0xD4 SWAP1 PUSH2 0x54F JUMP JUMPDEST SWAP2 SWAP1 POP SSTORE POP DUP2 PUSH1 0x5 ADD PUSH0 DUP2 SLOAD DUP1 SWAP3 SWAP2 SWAP1 PUSH2 0xED SWAP1 PUSH2 0x54F JUMP JUMPDEST SWAP2 SWAP1 POP SSTORE POP DUP2 PUSH1 0x6 ADD PUSH0 DUP2 SLOAD DUP1 SWAP3 SWAP2 SWAP1 PUSH2 0x106 SWAP1 PUSH2 0x596 JUMP JUMPDEST SWAP2 SWAP1 POP SSTORE POP DUP2 PUSH1 0x7 ADD PUSH0 DUP2 SLOAD DUP1 SWAP3 SWAP2 SWAP1 PUSH2 0x11F SWAP1 PUSH2 0x54F JUMP JUMPDEST SWAP2 SWAP1 POP SSTORE POP PUSH1 0x64 DUP3 PUSH1 0x4 ADD PUSH0 DUP3 DUP3 SLOAD PUSH2 0x138 SWAP2 SWAP1 PUSH2 0x5BD JUMP JUMPDEST SWAP3 POP POP DUP2 SWAP1 SSTORE POP DUP1 PUSH1 0x3 ADD PUSH0 DUP2 SLOAD DUP1 SWAP3 SWAP2 SWAP1 PUSH2 0x153 SWAP1 PUSH2 0x596 JUMP JUMPDEST SWAP2 SWAP1 POP SSTORE POP DUP1 PUSH1 0x5 ADD PUSH0 DUP2 SLOAD DUP1 SWAP3 SWAP2 SWAP1 PUSH2 0x16C SWAP1 PUSH2 0x54F JUMP JUMPDEST SWAP2 SWAP1 POP SSTORE POP DUP1 PUSH1 0x6 ADD PUSH0 DUP2 SLOAD DUP1 SWAP3 SWAP2 SWAP1 PUSH2 0x185 SWAP1 PUSH2 0x596 JUMP JUMPDEST SWAP2 SWAP1 POP SSTORE POP DUP1 PUSH1 0x8 ADD PUSH0 DUP2 SLOAD DUP1 SWAP3 SWAP2 SWAP1 PUSH2 0x19E SWAP1 PUSH2 0x54F JUMP JUMPDEST SWAP2 SWAP1 POP SSTORE POP PUSH1 0x40 MLOAD DUP1 PUSH1 0x40 ADD PUSH1 0x40 MSTORE DUP1 PUSH1 0xE DUP2 MSTORE PUSH1 0x20 ADD PUSH32 0x436F6E67726174732057696E732E000000000000000000000000000000000000 DUP2 MSTORE POP SWAP4 POP POP POP POP PUSH2 0x399 JUMP JUMPDEST DUP2 PUSH1 0x3 ADD SLOAD DUP2 PUSH1 0x3 ADD SLOAD GT ISZERO PUSH2 0x2F9 JUMPI DUP1 PUSH1 0x3 ADD PUSH0 DUP2 SLOAD DUP1 SWAP3 SWAP2 SWAP1 PUSH2 0x207 SWAP1 PUSH2 0x54F JUMP JUMPDEST SWAP2 SWAP1 POP SSTORE POP DUP1 PUSH1 0x5 ADD PUSH0 DUP2 SLOAD DUP1 SWAP3 SWAP2 SWAP1 PUSH2 0x220 SWAP1 PUSH2 0x54F JUMP JUMPDEST SWAP2 SWAP1 POP SSTORE POP DUP1 PUSH1 0x6 ADD PUSH0 DUP2 SLOAD DUP1 SWAP3 SWAP2 SWAP1 PUSH2 0x239 SWAP1 PUSH2 0x596 JUMP JUMPDEST SWAP2 SWAP1 POP SSTORE POP DUP1 PUSH1 0x7 ADD PUSH0 DUP2 SLOAD DUP1 SWAP3 SWAP2 SWAP1 PUSH2 0x252 SWAP1 PUSH2 0x54F JUMP JUMPDEST SWAP2 SWAP1 POP SSTORE POP PUSH1 0x64 DUP2 PUSH1 0x4 ADD PUSH0 DUP3 DUP3 SLOAD PUSH2 0x26B SWAP2 SWAP1 PUSH2 0x5BD JUMP JUMPDEST SWAP3 POP POP DUP2 SWAP1 SSTORE POP DUP2 PUSH1 0x3 ADD PUSH0 DUP2 SLOAD DUP1 SWAP3 SWAP2 SWAP1 PUSH2 0x286 SWAP1 PUSH2 0x596 JUMP JUMPDEST SWAP2 SWAP1 POP SSTORE POP DUP2 PUSH1 0x5 ADD PUSH0 DUP2 SLOAD DUP1 SWAP3 SWAP2 SWAP1 PUSH2 0x29F SWAP1 PUSH2 0x54F JUMP JUMPDEST SWAP2 SWAP1 POP SSTORE POP DUP2 PUSH1 0x6 ADD PUSH0 DUP2 SLOAD DUP1 SWAP3 SWAP2 SWAP1 PUSH2 0x2B8 SWAP1 PUSH2 0x596 JUMP JUMPDEST SWAP2 SWAP1 POP SSTORE POP DUP2 PUSH1 0x8 ADD PUSH0 DUP2 SLOAD DUP1 SWAP3 SWAP2 SWAP1 PUSH2 0x2D1 SWAP1 PUSH2 0x54F JUMP JUMPDEST SWAP2 SWAP1 POP SSTORE POP PUSH1 0x40 MLOAD DUP1 PUSH1 0x60 ADD PUSH1 0x40 MSTORE DUP1 PUSH1 0x31 DUP2 MSTORE PUSH1 0x20 ADD PUSH2 0x699 PUSH1 0x31 SWAP2 CODECOPY SWAP4 POP POP POP POP PUSH2 0x399 JUMP JUMPDEST DUP1 PUSH1 0x5 ADD PUSH0 DUP2 SLOAD DUP1 SWAP3 SWAP2 SWAP1 PUSH2 0x30D SWAP1 PUSH2 0x54F JUMP JUMPDEST SWAP2 SWAP1 POP SSTORE POP DUP2 PUSH1 0x5 ADD PUSH0 DUP2 SLOAD DUP1 SWAP3 SWAP2 SWAP1 PUSH2 0x326 SWAP1 PUSH2 0x54F JUMP JUMPDEST SWAP2 SWAP1 POP SSTORE POP DUP2 PUSH1 0x6 ADD PUSH0 DUP2 SLOAD DUP1 SWAP3 SWAP2 SWAP1 PUSH2 0x33F SWAP1 PUSH2 0x596 JUMP JUMPDEST SWAP2 SWAP1 POP SSTORE POP DUP1 PUSH1 0x6 ADD PUSH0 DUP2 SLOAD DUP1 SWAP3 SWAP2 SWAP1 PUSH2 0x358 SWAP1 PUSH2 0x596 JUMP JUMPDEST SWAP2 SWAP1 POP SSTORE POP PUSH1 0x40 MLOAD DUP1 PUSH1 0x40 ADD PUSH1 0x40 MSTORE DUP1 PUSH1 0xF DUP2 MSTORE PUSH1 0x20 ADD PUSH32 0x447261772054727920416761696E2E0000000000000000000000000000000000 DUP2 MSTORE POP SWAP4 POP POP POP POP JUMPDEST SWAP2 SWAP1 POP JUMP JUMPDEST PUSH0 DUP1 PUSH1 0x3 DUP1 SLOAD SWAP1 POP SWAP1 POP PUSH0 DUP2 DUP3 TIMESTAMP PUSH1 0x40 MLOAD PUSH1 0x20 ADD PUSH2 0x3BD SWAP3 SWAP2 SWAP1 PUSH2 0x610 JUMP JUMPDEST PUSH1 0x40 MLOAD PUSH1 0x20 DUP2 DUP4 SUB SUB DUP2 MSTORE SWAP1 PUSH1 0x40 MSTORE DUP1 MLOAD SWAP1 PUSH1 0x20 ADD KECCAK256 PUSH0 SHR PUSH2 0x3DF SWAP2 SWAP1 PUSH2 0x668 JUMP JUMPDEST SWAP1 POP DUP1 SWAP3 POP POP POP SWAP1 JUMP JUMPDEST PUSH0 DUP1 REVERT JUMPDEST PUSH0 DUP2 SWAP1 POP SWAP2 SWAP1 POP JUMP JUMPDEST PUSH2 0x3FF DUP2 PUSH2 0x3ED JUMP JUMPDEST DUP2 EQ PUSH2 0x409 JUMPI PUSH0 DUP1 REVERT JUMPDEST POP JUMP JUMPDEST PUSH0 DUP2 CALLDATALOAD SWAP1 POP PUSH2 0x41A DUP2 PUSH2 0x3F6 JUMP JUMPDEST SWAP3 SWAP2 POP POP JUMP JUMPDEST PUSH0 PUSH1 0x20 DUP3 DUP5 SUB SLT ISZERO PUSH2 0x435 JUMPI PUSH2 0x434 PUSH2 0x3E9 JUMP JUMPDEST JUMPDEST PUSH0 PUSH2 0x442 DUP5 DUP3 DUP6 ADD PUSH2 0x40C JUMP JUMPDEST SWAP2 POP POP SWAP3 SWAP2 POP POP JUMP JUMPDEST PUSH0 DUP2 MLOAD SWAP1 POP SWAP2 SWAP1 POP JUMP JUMPDEST PUSH0 DUP3 DUP3 MSTORE PUSH1 0x20 DUP3 ADD SWAP1 POP SWAP3 SWAP2 POP POP JUMP JUMPDEST PUSH0 JUMPDEST DUP4 DUP2 LT ISZERO PUSH2 0x482 JUMPI DUP1 DUP3 ADD MLOAD DUP2 DUP5 ADD MSTORE PUSH1 0x20 DUP2 ADD SWAP1 POP PUSH2 0x467 JUMP JUMPDEST PUSH0 DUP5 DUP5 ADD MSTORE POP POP POP POP JUMP JUMPDEST PUSH0 PUSH1 0x1F NOT PUSH1 0x1F DUP4 ADD AND SWAP1 POP SWAP2 SWAP1 POP JUMP JUMPDEST PUSH0 PUSH2 0x4A7 DUP3 PUSH2 0x44B JUMP JUMPDEST PUSH2 0x4B1 DUP2 DUP6 PUSH2 0x455 JUMP JUMPDEST SWAP4 POP PUSH2 0x4C1 DUP2 DUP6 PUSH1 0x20 DUP7 ADD PUSH2 0x465 JUMP JUMPDEST PUSH2 0x4CA DUP2 PUSH2 0x48D JUMP JUMPDEST DUP5 ADD SWAP2 POP POP SWAP3 SWAP2 POP POP JUMP JUMPDEST PUSH0 PUSH1 0x20 DUP3 ADD SWAP1 POP DUP2 DUP2 SUB PUSH0 DUP4 ADD MSTORE PUSH2 0x4ED DUP2 DUP5 PUSH2 0x49D JUMP JUMPDEST SWAP1 POP SWAP3 SWAP2 POP POP JUMP JUMPDEST PUSH32 0x4E487B7100000000000000000000000000000000000000000000000000000000 PUSH0 MSTORE PUSH1 0x32 PUSH1 0x4 MSTORE PUSH1 0x24 PUSH0 REVERT JUMPDEST PUSH32 0x4E487B7100000000000000000000000000000000000000000000000000000000 PUSH0 MSTORE PUSH1 0x11 PUSH1 0x4 MSTORE PUSH1 0x24 PUSH0 REVERT JUMPDEST PUSH0 PUSH2 0x559 DUP3 PUSH2 0x3ED JUMP JUMPDEST SWAP2 POP PUSH32 0xFFFFFFFFFFFFFFFFFFFFFFFFFFFFFFFFFFFFFFFFFFFFFFFFFFFFFFFFFFFFFFFF DUP3 SUB PUSH2 0x58B JUMPI PUSH2 0x58A PUSH2 0x522 JUMP JUMPDEST JUMPDEST PUSH1 0x1 DUP3 ADD SWAP1 POP SWAP2 SWAP1 POP JUMP JUMPDEST PUSH0 PUSH2 0x5A0 DUP3 PUSH2 0x3ED JUMP JUMPDEST SWAP2 POP PUSH0 DUP3 SUB PUSH2 0x5B2 JUMPI PUSH2 0x5B1 PUSH2 0x522 JUMP JUMPDEST JUMPDEST PUSH1 0x1 DUP3 SUB SWAP1 POP SWAP2 SWAP1 POP JUMP JUMPDEST PUSH0 PUSH2 0x5C7 DUP3 PUSH2 0x3ED JUMP JUMPDEST SWAP2 POP PUSH2 0x5D2 DUP4 PUSH2 0x3ED JUMP JUMPDEST SWAP3 POP DUP3 DUP3 ADD SWAP1 POP DUP1 DUP3 GT ISZERO PUSH2 0x5EA JUMPI PUSH2 0x5E9 PUSH2 0x522 JUMP JUMPDEST JUMPDEST SWAP3 SWAP2 POP POP JUMP JUMPDEST PUSH0 DUP2 SWAP1 POP SWAP2 SWAP1 POP JUMP JUMPDEST PUSH2 0x60A PUSH2 0x605 DUP3 PUSH2 0x3ED JUMP JUMPDEST PUSH2 0x5F0 JUMP JUMPDEST DUP3 MSTORE POP POP JUMP JUMPDEST PUSH0 PUSH2 0x61B DUP3 DUP6 PUSH2 0x5F9 JUMP JUMPDEST PUSH1 0x20 DUP3 ADD SWAP2 POP PUSH2 0x62B DUP3 DUP5 PUSH2 0x5F9 JUMP JUMPDEST PUSH1 0x20 DUP3 ADD SWAP2 POP DUP2 SWAP1 POP SWAP4 SWAP3 POP POP POP JUMP JUMPDEST PUSH32 0x4E487B7100000000000000000000000000000000000000000000000000000000 PUSH0 MSTORE PUSH1 0x12 PUSH1 0x4 MSTORE PUSH1 0x24 PUSH0 REVERT JUMPDEST PUSH0 PUSH2 0x672 DUP3 PUSH2 0x3ED JUMP JUMPDEST SWAP2 POP PUSH2 0x67D DUP4 PUSH2 0x3ED JUMP JUMPDEST SWAP3 POP DUP3 PUSH2 0x68D JUMPI PUSH2 0x68C PUSH2 0x63B JUMP JUMPDEST JUMPDEST DUP3 DUP3 MOD SWAP1 POP SWAP3 SWAP2 POP POP JUMP INVALID JUMPI PUSH10 0x6E20416E64204C6F6F73 PUSH6 0x206973207468 PUSH6 0x207061727420 PUSH16 0x66207468652047616D652E5472792041 PUSH8 0x61696E212EA26469 PUSH17 0x6673582212204EEE407C46CE1465E64FF2 0x2E 0xE1 EXTCODESIZE NUMBER LOG1 DUP12 0xD0 0xED PUSH23 0xE568DBFA4FD04FCF0C76308864736F6C63430008140033 "
		},
		"gasEstimates": {
			"creation": {
				"codeDepositCost": "358200",
				"executionCost": "22497",
				"totalCost": "380697"
			},
			"external": {
				"ZombieVsZombie(uint256)": "infinite"
			},
			"internal": {
				"randomEnemy()": "infinite"
			}
		},
		"methodIdentifiers": {
			"ZombieVsZombie(uint256)": "a85b2ba7"
		}
	},
	"abi": [
		{
			"inputs": [
				{
					"internalType": "uint256",
					"name": "yourZombie",
					"type": "uint256"
				}
			],
			"name": "ZombieVsZombie",
			"outputs": [
				{
					"internalType": "string",
					"name": "Result",
					"type": "string"
				}
			],
			"stateMutability": "nonpayable",
			"type": "function"
		}
	]
}