{
	"data": {
		"bytecode": {
			"linkReferences": {},
			"object": "6080604052662386f26fc1000060025534801561001a575f80fd5b50613ee7806100285f395ff3fe608060405260043610610134575f3560e01c8063b93a89f7116100aa578063cbc7d3671161006e578063cbc7d36714610476578063d41b93b11461049e578063e0c4f15e146104c6578063e70364d4146104ee578063e871d8f31461051e578063ef65bc971461055a57610134565b8063b93a89f71461036a578063c0342cb4146103a6578063c224f388146103e2578063c583f36a1461040a578063cb9940b71461044657610134565b80636dcdd00f116100fc5780636dcdd00f1461023c578063901ac159146102785780639264a169146102b45780639a861a78146102dc5780639f52f1a114610318578063b81c3db71461035457610134565b8063095ea7b31461013857806310f9ec131461016057806335e1d33c1461019c57806337e14e65146101c45780633c956b0514610200575b5f80fd5b348015610143575f80fd5b5061015e60048036038101906101599190612a8a565b610596565b005b34801561016b575f80fd5b5061018660048036038101906101819190612ac8565b610731565b6040516101939190612b02565b60405180910390f35b3480156101a7575f80fd5b506101c260048036038101906101bd9190612b1b565b610746565b005b3480156101cf575f80fd5b506101ea60048036038101906101e59190612ac8565b61093d565b6040516101f79190612b02565b60405180910390f35b34801561020b575f80fd5b5061022660048036038101906102219190612b59565b610952565b6040516102339190612c3b565b60405180910390f35b348015610247575f80fd5b50610262600480360381019061025d9190612c5b565b610a9c565b60405161026f9190612b02565b60405180910390f35b348015610283575f80fd5b5061029e60048036038101906102999190612ac8565b610abc565b6040516102ab9190612b02565b60405180910390f35b3480156102bf575f80fd5b506102da60048036038101906102d59190612c99565b610ad1565b005b3480156102e7575f80fd5b5061030260048036038101906102fd9190612b59565b610ea8565b60405161030f9190612d03565b60405180910390f35b348015610323575f80fd5b5061033e60048036038101906103399190612ac8565b610ec5565b60405161034b9190612d03565b60405180910390f35b34801561035f575f80fd5b50610368610ee2565b005b348015610375575f80fd5b50610390600480360381019061038b9190612ac8565b611072565b60405161039d9190612e6f565b60405180910390f35b3480156103b1575f80fd5b506103cc60048036038101906103c79190612b59565b611212565b6040516103d99190612d03565b60405180910390f35b3480156103ed575f80fd5b5061040860048036038101906104039190612ac8565b61122f565b005b348015610415575f80fd5b50610430600480360381019061042b9190612ac8565b6114bf565b60405161043d9190612e9e565b60405180910390f35b610460600480360381019061045b9190612fe3565b6114ef565b60405161046d9190612d03565b60405180910390f35b348015610481575f80fd5b5061049c60048036038101906104979190612ac8565b6115eb565b005b3480156104a9575f80fd5b506104c460048036038101906104bf9190612ac8565b6116f4565b005b3480156104d1575f80fd5b506104ec60048036038101906104e79190612ac8565b611873565b005b61050860048036038101906105039190612ac8565b611a6c565b6040516105159190612d03565b60405180910390f35b348015610529575f80fd5b50610544600480360381019061053f9190612ac8565b611e0e565b6040516105519190612d03565b60405180910390f35b348015610565575f80fd5b50610580600480360381019061057b9190612ac8565b611faf565b60405161058d9190612d03565b60405180910390f35b803373ffffffffffffffffffffffffffffffffffffffff165f808381526020019081526020015f205f9054906101000a900473ffffffffffffffffffffffffffffffffffffffff1673ffffffffffffffffffffffffffffffffffffffff1614610634576040517f08c379a000000000000000000000000000000000000000000000000000000000815260040161062b906130b3565b60405180910390fd5b8160075f3373ffffffffffffffffffffffffffffffffffffffff1673ffffffffffffffffffffffffffffffffffffffff1681526020019081526020015f205f8573ffffffffffffffffffffffffffffffffffffffff1673ffffffffffffffffffffffffffffffffffffffff1681526020019081526020015f20819055508260085f3373ffffffffffffffffffffffffffffffffffffffff1673ffffffffffffffffffffffffffffffffffffffff1681526020019081526020015f205f6101000a81548173ffffffffffffffffffffffffffffffffffffffff021916908373ffffffffffffffffffffffffffffffffffffffff160217905550505050565b6009602052805f5260405f205f915090505481565b813373ffffffffffffffffffffffffffffffffffffffff165f808381526020019081526020015f205f9054906101000a900473ffffffffffffffffffffffffffffffffffffffff1673ffffffffffffffffffffffffffffffffffffffff16146107e4576040517f08c379a00000000000000000000000000000000000000000000000000000000081526004016107db906130b3565b60405180910390fd5b60065f8481526020019081526020015f205f9054906101000a900460ff1615801561088057506040518060400160405280600781526020017f7072656d69756d00000000000000000000000000000000000000000000000000815250805190602001206003848154811061085b5761085a6130d1565b5b905f5260205f2090600902015f0160405161087691906131f7565b6040518091039020145b6108bf576040517f08c379a00000000000000000000000000000000000000000000000000000000081526004016108b690613257565b60405180910390fd5b670de0b6b3a7640000826108d391906132a2565b600d5f8581526020019081526020015f2081905550600160065f8581526020019081526020015f205f6101000a81548160ff0219169083151502179055505f601e4261091f91906132ff565b90508060095f8681526020019081526020015f208190555050505050565b600e602052805f5260405f205f915090505481565b60605f60015f8473ffffffffffffffffffffffffffffffffffffffff1673ffffffffffffffffffffffffffffffffffffffff1681526020019081526020015f205467ffffffffffffffff8111156109ac576109ab612ebf565b5b6040519080825280602002602001820160405280156109da5781602001602082028036833780820191505090505b5090505f805b600380549050811015610a91578473ffffffffffffffffffffffffffffffffffffffff165f808381526020019081526020015f205f9054906101000a900473ffffffffffffffffffffffffffffffffffffffff1673ffffffffffffffffffffffffffffffffffffffff1603610a7e5780838381518110610a6357610a626130d1565b5b6020026020010181815250508180610a7a90613332565b9250505b8080610a8990613332565b9150506109e0565b508192505050919050565b6007602052815f5260405f20602052805f5260405f205f91509150505481565b600d602052805f5260405f205f915090505481565b803373ffffffffffffffffffffffffffffffffffffffff165f808381526020019081526020015f205f9054906101000a900473ffffffffffffffffffffffffffffffffffffffff1673ffffffffffffffffffffffffffffffffffffffff1614610b6f576040517f08c379a0000000000000000000000000000000000000000000000000000000008152600401610b66906130b3565b60405180910390fd5b6040518060400160405280600781526020017f7072656d69756d000000000000000000000000000000000000000000000000008152508051906020012060038381548110610bc057610bbf6130d1565b5b905f5260205f2090600902015f01604051610bdb91906131f7565b604051809103902014610c23576040517f08c379a0000000000000000000000000000000000000000000000000000000008152600401610c1a906133c3565b60405180910390fd5b60065f8381526020019081526020015f205f9054906101000a900460ff1615610c81576040517f08c379a0000000000000000000000000000000000000000000000000000000008152600401610c789061342b565b60405180910390fd5b8373ffffffffffffffffffffffffffffffffffffffff165f808481526020019081526020015f205f9054906101000a900473ffffffffffffffffffffffffffffffffffffffff1673ffffffffffffffffffffffffffffffffffffffff161480610d7157503373ffffffffffffffffffffffffffffffffffffffff1660085f8673ffffffffffffffffffffffffffffffffffffffff1673ffffffffffffffffffffffffffffffffffffffff1681526020019081526020015f205f9054906101000a900473ffffffffffffffffffffffffffffffffffffffff1673ffffffffffffffffffffffffffffffffffffffff16145b610db0576040517f08c379a0000000000000000000000000000000000000000000000000000000008152600401610da790613493565b60405180910390fd5b825f808481526020019081526020015f205f6101000a81548173ffffffffffffffffffffffffffffffffffffffff021916908373ffffffffffffffffffffffffffffffffffffffff16021790555060015f8573ffffffffffffffffffffffffffffffffffffffff1673ffffffffffffffffffffffffffffffffffffffff1681526020019081526020015f205f815480929190610e4b906134b1565b919050555060015f8473ffffffffffffffffffffffffffffffffffffffff1673ffffffffffffffffffffffffffffffffffffffff1681526020019081526020015f205f815480929190610e9d90613332565b919050555050505050565b600b602052805f5260405f205f915054906101000a900460ff1681565b600a602052805f5260405f205f915054906101000a900460ff1681565b5f60015f3373ffffffffffffffffffffffffffffffffffffffff1673ffffffffffffffffffffffffffffffffffffffff1681526020019081526020015f205414610f61576040517f08c379a0000000000000000000000000000000000000000000000000000000008152600401610f5890613522565b60405180910390fd5b600160055f3373ffffffffffffffffffffffffffffffffffffffff1673ffffffffffffffffffffffffffffffffffffffff1681526020019081526020015f205f6101000a81548160ff0219169083151502179055506110706040518060400160405280600481526020017f46726565000000000000000000000000000000000000000000000000000000008152506040518060400160405280600a81526020017f467265655a6f6d626965000000000000000000000000000000000000000000008152506110636040518060400160405280600481526020017f6672656500000000000000000000000000000000000000000000000000000000815250611fcc565b60015f8060025f8061200f565b565b61107a6129a7565b6003828154811061108e5761108d6130d1565b5b905f5260205f209060090201604051806101200160405290815f820180546110b59061312b565b80601f01602080910402602001604051908101604052809291908181526020018280546110e19061312b565b801561112c5780601f106111035761010080835404028352916020019161112c565b820191905f5260205f20905b81548152906001019060200180831161110f57829003601f168201915b505050505081526020016001820180546111459061312b565b80601f01602080910402602001604051908101604052809291908181526020018280546111719061312b565b80156111bc5780601f10611193576101008083540402835291602001916111bc565b820191905f5260205f20905b81548152906001019060200180831161119f57829003601f168201915b505050505081526020016002820154815260200160038201548152602001600482015481526020016005820154815260200160068201548152602001600782015481526020016008820154815250509050919050565b6005602052805f5260405f205f915054906101000a900460ff1681565b3373ffffffffffffffffffffffffffffffffffffffff16600c5f8381526020019081526020015f205f9054906101000a900473ffffffffffffffffffffffffffffffffffffffff1673ffffffffffffffffffffffffffffffffffffffff161480156112aa57504260095f8381526020019081526020015f2054115b8061130257506001151560055f3373ffffffffffffffffffffffffffffffffffffffff1673ffffffffffffffffffffffffffffffffffffffff1681526020019081526020015f205f9054906101000a900460ff161515145b15611414575f6003828154811061131c5761131b6130d1565b5b905f5260205f209060090201600701549050611337826121ab565b50806003838154811061134d5761134c6130d1565b5b905f5260205f209060090201600701541180156113a757506001805f3373ffffffffffffffffffffffffffffffffffffffff1673ffffffffffffffffffffffffffffffffffffffff1681526020019081526020015f205410155b1561140e575f6113b633610952565b905060016003825f815181106113cf576113ce6130d1565b5b6020026020010151815481106113e8576113e76130d1565b5b905f5260205f2090600902016003015f82825461140591906132ff565b92505081905550505b506114bc565b3373ffffffffffffffffffffffffffffffffffffffff165f808381526020019081526020015f205f9054906101000a900473ffffffffffffffffffffffffffffffffffffffff1673ffffffffffffffffffffffffffffffffffffffff16146114b1576040517f08c379a00000000000000000000000000000000000000000000000000000000081526004016114a89061358a565b60405180910390fd5b6114ba816121ab565b505b50565b600c602052805f5260405f205f915054906101000a900473ffffffffffffffffffffffffffffffffffffffff1681565b5f670de0b6b3a7640000341461153a576040517f08c379a0000000000000000000000000000000000000000000000000000000008152600401611531906135f2565b60405180910390fd5b6040518060400160405280600781526020017f7072656d69756d00000000000000000000000000000000000000000000000000815250805190602001208380519060200120146115bf576040517f08c379a00000000000000000000000000000000000000000000000000000000081526004016115b69061365a565b60405180910390fd5b5f6115c983611fcc565b90506115e084848360056101f45f60055f8061200f565b600191505092915050565b6115f3612894565b5f60038281548110611608576116076130d1565b5b905f5260205f20906009020160030154434446426116269190613678565b6116309190613678565b61163a9190613678565b60405160200161164a91906136d9565b604051602081830303815290604052805190602001205f1c61166c91906132a2565b905060048181548110611682576116816130d1565b5b905f5260205f20015f0154600383815481106116a1576116a06130d1565b5b905f5260205f2090600902016003015411156116f057600382815481106116cb576116ca6130d1565b5b905f5260205f2090600902016003015f8154809291906116ea90613332565b91905055505b5050565b803373ffffffffffffffffffffffffffffffffffffffff165f808381526020019081526020015f205f9054906101000a900473ffffffffffffffffffffffffffffffffffffffff1673ffffffffffffffffffffffffffffffffffffffff1614611792576040517f08c379a0000000000000000000000000000000000000000000000000000000008152600401611789906130b3565b60405180910390fd5b6101f4600383815481106117a9576117a86130d1565b5b905f5260205f2090600902016004015410156117fa576040517f08c379a00000000000000000000000000000000000000000000000000000000081526004016117f19061373d565b60405180910390fd5b6101f460038381548110611811576118106130d1565b5b905f5260205f2090600902016004015f82825461182e919061375b565b9250508190555060016003838154811061184b5761184a6130d1565b5b905f5260205f2090600902016003015f82825461186891906132ff565b925050819055505050565b803373ffffffffffffffffffffffffffffffffffffffff165f808381526020019081526020015f205f9054906101000a900473ffffffffffffffffffffffffffffffffffffffff1673ffffffffffffffffffffffffffffffffffffffff1614611911576040517f08c379a0000000000000000000000000000000000000000000000000000000008152600401611908906130b3565b60405180910390fd5b6001151560065f8481526020019081526020015f205f9054906101000a900460ff16151514611975576040517f08c379a000000000000000000000000000000000000000000000000000000000815260040161196c906137d8565b60405180910390fd5b60095f8381526020019081526020015f20544210156119c9576040517f08c379a00000000000000000000000000000000000000000000000000000000081526004016119c090613840565b60405180910390fd5b5f60065f8481526020019081526020015f205f6101000a81548160ff0219169083151502179055505f600a5f8481526020019081526020015f205f6101000a81548160ff0219169083151502179055505f600c5f8481526020019081526020015f205f6101000a81548173ffffffffffffffffffffffffffffffffffffffff021916908373ffffffffffffffffffffffffffffffffffffffff1602179055505050565b5f4260095f8481526020019081526020015f205411611ac0576040517f08c379a0000000000000000000000000000000000000000000000000000000008152600401611ab7906138a8565b60405180910390fd5b600d5f8381526020019081526020015f20543414611b13576040517f08c379a0000000000000000000000000000000000000000000000000000000008152600401611b0a90613910565b60405180910390fd5b600a5f8381526020019081526020015f205f9054906101000a900460ff16158015611b855750600b5f3373ffffffffffffffffffffffffffffffffffffffff1673ffffffffffffffffffffffffffffffffffffffff1681526020019081526020015f205f9054906101000a900460ff16155b611bc4576040517f08c379a0000000000000000000000000000000000000000000000000000000008152600401611bbb90613978565b60405180910390fd5b3373ffffffffffffffffffffffffffffffffffffffff165f808481526020019081526020015f205f9054906101000a900473ffffffffffffffffffffffffffffffffffffffff1673ffffffffffffffffffffffffffffffffffffffff1603611c61576040517f08c379a0000000000000000000000000000000000000000000000000000000008152600401611c58906139e0565b60405180910390fd5b6001151560065f8481526020019081526020015f205f9054906101000a900460ff16151514611cc5576040517f08c379a0000000000000000000000000000000000000000000000000000000008152600401611cbc90613a48565b60405180910390fd5b5f808381526020019081526020015f205f9054906101000a900473ffffffffffffffffffffffffffffffffffffffff1673ffffffffffffffffffffffffffffffffffffffff166108fc3490811502906040515f60405180830381858888f19350505050158015611d37573d5f803e3d5ffd5b5033600c5f8481526020019081526020015f205f6101000a81548173ffffffffffffffffffffffffffffffffffffffff021916908373ffffffffffffffffffffffffffffffffffffffff1602179055506001600b5f3373ffffffffffffffffffffffffffffffffffffffff1673ffffffffffffffffffffffffffffffffffffffff1681526020019081526020015f205f6101000a81548160ff0219169083151502179055506001600a5f8481526020019081526020015f205f6101000a81548160ff02191690831515021790555060019050919050565b5f813373ffffffffffffffffffffffffffffffffffffffff165f808381526020019081526020015f205f9054906101000a900473ffffffffffffffffffffffffffffffffffffffff1673ffffffffffffffffffffffffffffffffffffffff1614611ead576040517f08c379a0000000000000000000000000000000000000000000000000000000008152600401611ea4906130b3565b60405180910390fd5b5f60038481548110611ec257611ec16130d1565b5b905f5260205f20906009020160060154148015611eef57505f600e5f8581526020019081526020015f2054145b611f2e576040517f08c379a0000000000000000000000000000000000000000000000000000000008152600401611f2590613ad6565b60405180910390fd5b6201518042611f3d91906132ff565b600e5f8581526020019081526020015f2081905550600e5f8481526020019081526020015f20544210611fa557600560038481548110611f8057611f7f6130d1565b5b905f5260205f2090600902016006015f828254611f9d91906132ff565b925050819055505b6001915050919050565b6006602052805f5260405f205f915054906101000a900460ff1681565b5f8082604051602001611fdf9190613b2e565b604051602081830303815290604052805190602001205f1c90506002548161200791906132a2565b915050919050565b60036040518061012001604052808b81526020018a815260200189815260200188815260200187815260200186815260200185815260200184815260200183815250908060018154018082558091505060019003905f5260205f2090600902015f909190919091505f820151815f01908161208a9190613ce1565b5060208201518160010190816120a09190613ce1565b5060408201518160020155606082015181600301556080820151816004015560a0820151816005015560c0820151816006015560e08201518160070155610100820151816008015550505f60016003805490506120fd919061375b565b905060015f3373ffffffffffffffffffffffffffffffffffffffff1673ffffffffffffffffffffffffffffffffffffffff1681526020019081526020015f205f81548092919061214c90613332565b9190505550335f808381526020019081526020015f205f6101000a81548173ffffffffffffffffffffffffffffffffffffffff021916908373ffffffffffffffffffffffffffffffffffffffff16021790555050505050505050505050565b60605f6121b6612932565b90506001600384815481106121ce576121cd6130d1565b5b905f5260205f20906009020160060154101561221f576040517f08c379a000000000000000000000000000000000000000000000000000000000815260040161221690613dfa565b60405180910390fd5b600160038281548110612235576122346130d1565b5b905f5260205f209060090201600601541015612286576040517f08c379a000000000000000000000000000000000000000000000000000000000815260040161227d90613e62565b60405180910390fd5b6003818154811061229a576122996130d1565b5b905f5260205f20906009020160030154600384815481106122be576122bd6130d1565b5b905f5260205f20906009020160030154111561250c57600383815481106122e8576122e76130d1565b5b905f5260205f2090600902016003015f81548092919061230790613332565b9190505550600383815481106123205761231f6130d1565b5b905f5260205f2090600902016005015f81548092919061233f90613332565b919050555060038381548110612358576123576130d1565b5b905f5260205f2090600902016006015f815480929190612377906134b1565b9190505550600383815481106123905761238f6130d1565b5b905f5260205f2090600902016007015f8154809291906123af90613332565b91905055506064600384815481106123ca576123c96130d1565b5b905f5260205f2090600902016004015f8282546123e791906132ff565b9250508190555060038181548110612402576124016130d1565b5b905f5260205f2090600902016003015f815480929190612421906134b1565b91905055506003818154811061243a576124396130d1565b5b905f5260205f2090600902016005015f81548092919061245990613332565b919050555060038181548110612472576124716130d1565b5b905f5260205f2090600902016006015f815480929190612491906134b1565b9190505550600381815481106124aa576124a96130d1565b5b905f5260205f2090600902016008015f8154809291906124c990613332565b91905055506040518060400160405280600e81526020017f436f6e67726174732057696e732e00000000000000000000000000000000000081525091505061288f565b600383815481106125205761251f6130d1565b5b905f5260205f2090600902016003015460038281548110612544576125436130d1565b5b905f5260205f209060090201600301541115612775576003818154811061256e5761256d6130d1565b5b905f5260205f2090600902016003015f81548092919061258d90613332565b9190505550600381815481106125a6576125a56130d1565b5b905f5260205f2090600902016005015f8154809291906125c590613332565b9190505550600381815481106125de576125dd6130d1565b5b905f5260205f2090600902016006015f8154809291906125fd906134b1565b919050555060038181548110612616576126156130d1565b5b905f5260205f2090600902016007015f81548092919061263590613332565b91905055506064600382815481106126505761264f6130d1565b5b905f5260205f2090600902016004015f82825461266d91906132ff565b9250508190555060038381548110612688576126876130d1565b5b905f5260205f2090600902016003015f8154809291906126a7906134b1565b9190505550600383815481106126c0576126bf6130d1565b5b905f5260205f2090600902016005015f8154809291906126df90613332565b9190505550600383815481106126f8576126f76130d1565b5b905f5260205f2090600902016006015f815480929190612717906134b1565b9190505550600383815481106127305761272f6130d1565b5b905f5260205f2090600902016008015f81548092919061274f90613332565b9190505550604051806060016040528060318152602001613e816031913991505061288f565b60038181548110612789576127886130d1565b5b905f5260205f2090600902016005015f8154809291906127a890613332565b9190505550600383815481106127c1576127c06130d1565b5b905f5260205f2090600902016005015f8154809291906127e090613332565b9190505550600383815481106127f9576127f86130d1565b5b905f5260205f2090600902016006015f815480929190612818906134b1565b919050555060038181548110612831576128306130d1565b5b905f5260205f2090600902016006015f815480929190612850906134b1565b91905055506040518060400160405280600f81526020017f447261772054727920416761696e2e00000000000000000000000000000000008152509150505b919050565b5f5b600b81101561292f575f600a434446426128b09190613678565b6128ba9190613678565b6128c49190613678565b6040516020016128d491906136d9565b604051602081830303815290604052805190602001205f1c6128f691906132a2565b9050806004838154811061290d5761290c6130d1565b5b905f5260205f20015f018190555050808061292790613332565b915050612896565b50565b5f8060038054905090505f81434446428661294d9190613678565b6129579190613678565b6129619190613678565b61296b9190613678565b60405160200161297b91906136d9565b604051602081830303815290604052805190602001205f1c61299d91906132a2565b9050809250505090565b60405180610120016040528060608152602001606081526020015f81526020015f81526020015f81526020015f81526020015f81526020015f81526020015f81525090565b5f604051905090565b5f80fd5b5f80fd5b5f73ffffffffffffffffffffffffffffffffffffffff82169050919050565b5f612a26826129fd565b9050919050565b612a3681612a1c565b8114612a40575f80fd5b50565b5f81359050612a5181612a2d565b92915050565b5f819050919050565b612a6981612a57565b8114612a73575f80fd5b50565b5f81359050612a8481612a60565b92915050565b5f8060408385031215612aa057612a9f6129f5565b5b5f612aad85828601612a43565b9250506020612abe85828601612a76565b9150509250929050565b5f60208284031215612add57612adc6129f5565b5b5f612aea84828501612a76565b91505092915050565b612afc81612a57565b82525050565b5f602082019050612b155f830184612af3565b92915050565b5f8060408385031215612b3157612b306129f5565b5b5f612b3e85828601612a76565b9250506020612b4f85828601612a76565b9150509250929050565b5f60208284031215612b6e57612b6d6129f5565b5b5f612b7b84828501612a43565b91505092915050565b5f81519050919050565b5f82825260208201905092915050565b5f819050602082019050919050565b612bb681612a57565b82525050565b5f612bc78383612bad565b60208301905092915050565b5f602082019050919050565b5f612be982612b84565b612bf38185612b8e565b9350612bfe83612b9e565b805f5b83811015612c2e578151612c158882612bbc565b9750612c2083612bd3565b925050600181019050612c01565b5085935050505092915050565b5f6020820190508181035f830152612c538184612bdf565b905092915050565b5f8060408385031215612c7157612c706129f5565b5b5f612c7e85828601612a43565b9250506020612c8f85828601612a43565b9150509250929050565b5f805f60608486031215612cb057612caf6129f5565b5b5f612cbd86828701612a43565b9350506020612cce86828701612a43565b9250506040612cdf86828701612a76565b9150509250925092565b5f8115159050919050565b612cfd81612ce9565b82525050565b5f602082019050612d165f830184612cf4565b92915050565b5f81519050919050565b5f82825260208201905092915050565b5f5b83811015612d53578082015181840152602081019050612d38565b5f8484015250505050565b5f601f19601f8301169050919050565b5f612d7882612d1c565b612d828185612d26565b9350612d92818560208601612d36565b612d9b81612d5e565b840191505092915050565b5f61012083015f8301518482035f860152612dc18282612d6e565b91505060208301518482036020860152612ddb8282612d6e565b9150506040830151612df06040860182612bad565b506060830151612e036060860182612bad565b506080830151612e166080860182612bad565b5060a0830151612e2960a0860182612bad565b5060c0830151612e3c60c0860182612bad565b5060e0830151612e4f60e0860182612bad565b50610100830151612e64610100860182612bad565b508091505092915050565b5f6020820190508181035f830152612e878184612da6565b905092915050565b612e9881612a1c565b82525050565b5f602082019050612eb15f830184612e8f565b92915050565b5f80fd5b5f80fd5b7f4e487b71000000000000000000000000000000000000000000000000000000005f52604160045260245ffd5b612ef582612d5e565b810181811067ffffffffffffffff82111715612f1457612f13612ebf565b5b80604052505050565b5f612f266129ec565b9050612f328282612eec565b919050565b5f67ffffffffffffffff821115612f5157612f50612ebf565b5b612f5a82612d5e565b9050602081019050919050565b828183375f83830152505050565b5f612f87612f8284612f37565b612f1d565b905082815260208101848484011115612fa357612fa2612ebb565b5b612fae848285612f67565b509392505050565b5f82601f830112612fca57612fc9612eb7565b5b8135612fda848260208601612f75565b91505092915050565b5f8060408385031215612ff957612ff86129f5565b5b5f83013567ffffffffffffffff811115613016576130156129f9565b5b61302285828601612fb6565b925050602083013567ffffffffffffffff811115613043576130426129f9565b5b61304f85828601612fb6565b9150509250929050565b5f82825260208201905092915050565b7f4f6e6c79204f776e65722e0000000000000000000000000000000000000000005f82015250565b5f61309d600b83613059565b91506130a882613069565b602082019050919050565b5f6020820190508181035f8301526130ca81613091565b9050919050565b7f4e487b71000000000000000000000000000000000000000000000000000000005f52603260045260245ffd5b7f4e487b71000000000000000000000000000000000000000000000000000000005f52602260045260245ffd5b5f600282049050600182168061314257607f821691505b602082108103613155576131546130fe565b5b50919050565b5f81905092915050565b5f819050815f5260205f209050919050565b5f81546131838161312b565b61318d818661315b565b9450600182165f81146131a757600181146131bc576131ee565b60ff19831686528115158202860193506131ee565b6131c585613165565b5f5b838110156131e6578154818901526001820191506020810190506131c7565b838801955050505b50505092915050565b5f6132028284613177565b915081905092915050565b7f66726565206e66742063616e74206f6e2072656e742e000000000000000000005f82015250565b5f613241601683613059565b915061324c8261320d565b602082019050919050565b5f6020820190508181035f83015261326e81613235565b9050919050565b7f4e487b71000000000000000000000000000000000000000000000000000000005f52601260045260245ffd5b5f6132ac82612a57565b91506132b783612a57565b9250826132c7576132c6613275565b5b828206905092915050565b7f4e487b71000000000000000000000000000000000000000000000000000000005f52601160045260245ffd5b5f61330982612a57565b915061331483612a57565b925082820190508082111561332c5761332b6132d2565b5b92915050565b5f61333c82612a57565b91507fffffffffffffffffffffffffffffffffffffffffffffffffffffffffffffffff820361336e5761336d6132d2565b5b600182019050919050565b7f66726565206e66742063616e2073656c6c2e00000000000000000000000000005f82015250565b5f6133ad601283613059565b91506133b882613379565b602082019050919050565b5f6020820190508181035f8301526133da816133a1565b9050919050565b7f54686973206e6674206f6e2072656e742e0000000000000000000000000000005f82015250565b5f613415601183613059565b9150613420826133e1565b602082019050919050565b5f6020820190508181035f83015261344281613409565b9050919050565b7f596f7520646f6e742068617665204e66742e00000000000000000000000000005f82015250565b5f61347d601283613059565b915061348882613449565b602082019050919050565b5f6020820190508181035f8301526134aa81613471565b9050919050565b5f6134bb82612a57565b91505f82036134cd576134cc6132d2565b5b600182039050919050565b7f416c726561647920686176652031206f72206d6f7265206e66742e00000000005f82015250565b5f61350c601b83613059565b9150613517826134d8565b602082019050919050565b5f6020820190508181035f83015261353981613500565b9050919050565b7f596f7520646f6e742068617665206e66742e00000000000000000000000000005f82015250565b5f613574601283613059565b915061357f82613540565b602082019050919050565b5f6020820190508181035f8301526135a181613568565b9050919050565b7f766c7565206d75737420626520312065746865722e00000000000000000000005f82015250565b5f6135dc601583613059565b91506135e7826135a8565b602082019050919050565b5f6020820190508181035f830152613609816135d0565b9050919050565b7f436f7272656374205370656c6c696e67000000000000000000000000000000005f82015250565b5f613644601083613059565b915061364f82613610565b602082019050919050565b5f6020820190508181035f83015261367181613638565b9050919050565b5f61368282612a57565b915061368d83612a57565b925082820261369b81612a57565b915082820484148315176136b2576136b16132d2565b5b5092915050565b5f819050919050565b6136d36136ce82612a57565b6136b9565b82525050565b5f6136e482846136c2565b60208201915081905092915050565b7f796f75206e656564206d6f7265207870000000000000000000000000000000005f82015250565b5f613727601083613059565b9150613732826136f3565b602082019050919050565b5f6020820190508181035f8301526137548161371b565b9050919050565b5f61376582612a57565b915061377083612a57565b9250828203905081811115613788576137876132d2565b5b92915050565b7f6e6f7420696e2072656e742e00000000000000000000000000000000000000005f82015250565b5f6137c2600c83613059565b91506137cd8261378e565b602082019050919050565b5f6020820190508181035f8301526137ef816137b6565b9050919050565b7f74696d652072656d61696e732e000000000000000000000000000000000000005f82015250565b5f61382a600d83613059565b9150613835826137f6565b602082019050919050565b5f6020820190508181035f8301526138578161381e565b9050919050565b7f4e6f77206964206973206e6f74206f6e2072656e742e000000000000000000005f82015250565b5f613892601683613059565b915061389d8261385e565b602082019050919050565b5f6020820190508181035f8301526138bf81613886565b9050919050565b7f616d6f756e74206e6f74206d617463682065746865722072657175697265642e5f82015250565b5f6138fa602083613059565b9150613905826138c6565b602082019050919050565b5f6020820190508181035f830152613927816138ee565b9050919050565b7f616c72656164792074616b656e204e66742e00000000000000000000000000005f82015250565b5f613962601283613059565b915061396d8261392e565b602082019050919050565b5f6020820190508181035f83015261398f81613956565b9050919050565b7f6f776e65722063616e742074616b6520686973206f776e2069642e00000000005f82015250565b5f6139ca601b83613059565b91506139d582613996565b602082019050919050565b5f6020820190508181035f8301526139f7816139be565b9050919050565b7f6e6674206e6f74206c69737465642e00000000000000000000000000000000005f82015250565b5f613a32600f83613059565b9150613a3d826139fe565b602082019050919050565b5f6020820190508181035f830152613a5f81613a26565b9050919050565b7f596f752068617665206368616e636573206f7220416c7265616479206d696e695f8201527f6e672e0000000000000000000000000000000000000000000000000000000000602082015250565b5f613ac0602383613059565b9150613acb82613a66565b604082019050919050565b5f6020820190508181035f830152613aed81613ab4565b9050919050565b5f81905092915050565b5f613b0882612d1c565b613b128185613af4565b9350613b22818560208601612d36565b80840191505092915050565b5f613b398284613afe565b915081905092915050565b5f819050815f5260205f209050919050565b5f6020601f8301049050919050565b5f82821b905092915050565b5f60088302613ba07fffffffffffffffffffffffffffffffffffffffffffffffffffffffffffffffff82613b65565b613baa8683613b65565b95508019841693508086168417925050509392505050565b5f819050919050565b5f613be5613be0613bdb84612a57565b613bc2565b612a57565b9050919050565b5f819050919050565b613bfe83613bcb565b613c12613c0a82613bec565b848454613b71565b825550505050565b5f90565b613c26613c1a565b613c31818484613bf5565b505050565b5b81811015613c5457613c495f82613c1e565b600181019050613c37565b5050565b601f821115613c9957613c6a81613b44565b613c7384613b56565b81016020851015613c82578190505b613c96613c8e85613b56565b830182613c36565b50505b505050565b5f82821c905092915050565b5f613cb95f1984600802613c9e565b1980831691505092915050565b5f613cd18383613caa565b9150826002028217905092915050565b613cea82612d1c565b67ffffffffffffffff811115613d0357613d02612ebf565b5b613d0d825461312b565b613d18828285613c58565b5f60209050601f831160018114613d49575f8415613d37578287015190505b613d418582613cc6565b865550613da8565b601f198416613d5786613b44565b5f5b82811015613d7e57848901518255600182019150602085019450602081019050613d59565b86831015613d9b5784890151613d97601f891682613caa565b8355505b6001600288020188555050505b505050505050565b7f4d696e6520746865206d6174636865732e0000000000000000000000000000005f82015250565b5f613de4601183613059565b9150613def82613db0565b602082019050919050565b5f6020820190508181035f830152613e1181613dd8565b9050919050565b7f416761696e2054727900000000000000000000000000000000000000000000005f82015250565b5f613e4c600983613059565b9150613e5782613e18565b602082019050919050565b5f6020820190508181035f830152613e7981613e40565b905091905056fe57696e20416e64204c6f6f7365206973207468652070617274206f66207468652047616d652e54727920416761696e212ea264697066735822122006bab5effb8545de12cfc5e35b7fa89aad9d172fe8c1f613ba8082ac15863baf64736f6c63430008150033",
			"opcodes": "PUSH1 0x80 PUSH1 0x40 MSTORE PUSH7 0x2386F26FC10000 PUSH1 0x2 SSTORE CALLVALUE DUP1 ISZERO PUSH2 0x1A JUMPI PUSH0 DUP1 REVERT JUMPDEST POP PUSH2 0x3EE7 DUP1 PUSH2 0x28 PUSH0 CODECOPY PUSH0 RETURN INVALID PUSH1 0x80 PUSH1 0x40 MSTORE PUSH1 0x4 CALLDATASIZE LT PUSH2 0x134 JUMPI PUSH0 CALLDATALOAD PUSH1 0xE0 SHR DUP1 PUSH4 0xB93A89F7 GT PUSH2 0xAA JUMPI DUP1 PUSH4 0xCBC7D367 GT PUSH2 0x6E JUMPI DUP1 PUSH4 0xCBC7D367 EQ PUSH2 0x476 JUMPI DUP1 PUSH4 0xD41B93B1 EQ PUSH2 0x49E JUMPI DUP1 PUSH4 0xE0C4F15E EQ PUSH2 0x4C6 JUMPI DUP1 PUSH4 0xE70364D4 EQ PUSH2 0x4EE JUMPI DUP1 PUSH4 0xE871D8F3 EQ PUSH2 0x51E JUMPI DUP1 PUSH4 0xEF65BC97 EQ PUSH2 0x55A JUMPI PUSH2 0x134 JUMP JUMPDEST DUP1 PUSH4 0xB93A89F7 EQ PUSH2 0x36A JUMPI DUP1 PUSH4 0xC0342CB4 EQ PUSH2 0x3A6 JUMPI DUP1 PUSH4 0xC224F388 EQ PUSH2 0x3E2 JUMPI DUP1 PUSH4 0xC583F36A EQ PUSH2 0x40A JUMPI DUP1 PUSH4 0xCB9940B7 EQ PUSH2 0x446 JUMPI PUSH2 0x134 JUMP JUMPDEST DUP1 PUSH4 0x6DCDD00F GT PUSH2 0xFC JUMPI DUP1 PUSH4 0x6DCDD00F EQ PUSH2 0x23C JUMPI DUP1 PUSH4 0x901AC159 EQ PUSH2 0x278 JUMPI DUP1 PUSH4 0x9264A169 EQ PUSH2 0x2B4 JUMPI DUP1 PUSH4 0x9A861A78 EQ PUSH2 0x2DC JUMPI DUP1 PUSH4 0x9F52F1A1 EQ PUSH2 0x318 JUMPI DUP1 PUSH4 0xB81C3DB7 EQ PUSH2 0x354 JUMPI PUSH2 0x134 JUMP JUMPDEST DUP1 PUSH4 0x95EA7B3 EQ PUSH2 0x138 JUMPI DUP1 PUSH4 0x10F9EC13 EQ PUSH2 0x160 JUMPI DUP1 PUSH4 0x35E1D33C EQ PUSH2 0x19C JUMPI DUP1 PUSH4 0x37E14E65 EQ PUSH2 0x1C4 JUMPI DUP1 PUSH4 0x3C956B05 EQ PUSH2 0x200 JUMPI JUMPDEST PUSH0 DUP1 REVERT JUMPDEST CALLVALUE DUP1 ISZERO PUSH2 0x143 JUMPI PUSH0 DUP1 REVERT JUMPDEST POP PUSH2 0x15E PUSH1 0x4 DUP1 CALLDATASIZE SUB DUP2 ADD SWAP1 PUSH2 0x159 SWAP2 SWAP1 PUSH2 0x2A8A JUMP JUMPDEST PUSH2 0x596 JUMP JUMPDEST STOP JUMPDEST CALLVALUE DUP1 ISZERO PUSH2 0x16B JUMPI PUSH0 DUP1 REVERT JUMPDEST POP PUSH2 0x186 PUSH1 0x4 DUP1 CALLDATASIZE SUB DUP2 ADD SWAP1 PUSH2 0x181 SWAP2 SWAP1 PUSH2 0x2AC8 JUMP JUMPDEST PUSH2 0x731 JUMP JUMPDEST PUSH1 0x40 MLOAD PUSH2 0x193 SWAP2 SWAP1 PUSH2 0x2B02 JUMP JUMPDEST PUSH1 0x40 MLOAD DUP1 SWAP2 SUB SWAP1 RETURN JUMPDEST CALLVALUE DUP1 ISZERO PUSH2 0x1A7 JUMPI PUSH0 DUP1 REVERT JUMPDEST POP PUSH2 0x1C2 PUSH1 0x4 DUP1 CALLDATASIZE SUB DUP2 ADD SWAP1 PUSH2 0x1BD SWAP2 SWAP1 PUSH2 0x2B1B JUMP JUMPDEST PUSH2 0x746 JUMP JUMPDEST STOP JUMPDEST CALLVALUE DUP1 ISZERO PUSH2 0x1CF JUMPI PUSH0 DUP1 REVERT JUMPDEST POP PUSH2 0x1EA PUSH1 0x4 DUP1 CALLDATASIZE SUB DUP2 ADD SWAP1 PUSH2 0x1E5 SWAP2 SWAP1 PUSH2 0x2AC8 JUMP JUMPDEST PUSH2 0x93D JUMP JUMPDEST PUSH1 0x40 MLOAD PUSH2 0x1F7 SWAP2 SWAP1 PUSH2 0x2B02 JUMP JUMPDEST PUSH1 0x40 MLOAD DUP1 SWAP2 SUB SWAP1 RETURN JUMPDEST CALLVALUE DUP1 ISZERO PUSH2 0x20B JUMPI PUSH0 DUP1 REVERT JUMPDEST POP PUSH2 0x226 PUSH1 0x4 DUP1 CALLDATASIZE SUB DUP2 ADD SWAP1 PUSH2 0x221 SWAP2 SWAP1 PUSH2 0x2B59 JUMP JUMPDEST PUSH2 0x952 JUMP JUMPDEST PUSH1 0x40 MLOAD PUSH2 0x233 SWAP2 SWAP1 PUSH2 0x2C3B JUMP JUMPDEST PUSH1 0x40 MLOAD DUP1 SWAP2 SUB SWAP1 RETURN JUMPDEST CALLVALUE DUP1 ISZERO PUSH2 0x247 JUMPI PUSH0 DUP1 REVERT JUMPDEST POP PUSH2 0x262 PUSH1 0x4 DUP1 CALLDATASIZE SUB DUP2 ADD SWAP1 PUSH2 0x25D SWAP2 SWAP1 PUSH2 0x2C5B JUMP JUMPDEST PUSH2 0xA9C JUMP JUMPDEST PUSH1 0x40 MLOAD PUSH2 0x26F SWAP2 SWAP1 PUSH2 0x2B02 JUMP JUMPDEST PUSH1 0x40 MLOAD DUP1 SWAP2 SUB SWAP1 RETURN JUMPDEST CALLVALUE DUP1 ISZERO PUSH2 0x283 JUMPI PUSH0 DUP1 REVERT JUMPDEST POP PUSH2 0x29E PUSH1 0x4 DUP1 CALLDATASIZE SUB DUP2 ADD SWAP1 PUSH2 0x299 SWAP2 SWAP1 PUSH2 0x2AC8 JUMP JUMPDEST PUSH2 0xABC JUMP JUMPDEST PUSH1 0x40 MLOAD PUSH2 0x2AB SWAP2 SWAP1 PUSH2 0x2B02 JUMP JUMPDEST PUSH1 0x40 MLOAD DUP1 SWAP2 SUB SWAP1 RETURN JUMPDEST CALLVALUE DUP1 ISZERO PUSH2 0x2BF JUMPI PUSH0 DUP1 REVERT JUMPDEST POP PUSH2 0x2DA PUSH1 0x4 DUP1 CALLDATASIZE SUB DUP2 ADD SWAP1 PUSH2 0x2D5 SWAP2 SWAP1 PUSH2 0x2C99 JUMP JUMPDEST PUSH2 0xAD1 JUMP JUMPDEST STOP JUMPDEST CALLVALUE DUP1 ISZERO PUSH2 0x2E7 JUMPI PUSH0 DUP1 REVERT JUMPDEST POP PUSH2 0x302 PUSH1 0x4 DUP1 CALLDATASIZE SUB DUP2 ADD SWAP1 PUSH2 0x2FD SWAP2 SWAP1 PUSH2 0x2B59 JUMP JUMPDEST PUSH2 0xEA8 JUMP JUMPDEST PUSH1 0x40 MLOAD PUSH2 0x30F SWAP2 SWAP1 PUSH2 0x2D03 JUMP JUMPDEST PUSH1 0x40 MLOAD DUP1 SWAP2 SUB SWAP1 RETURN JUMPDEST CALLVALUE DUP1 ISZERO PUSH2 0x323 JUMPI PUSH0 DUP1 REVERT JUMPDEST POP PUSH2 0x33E PUSH1 0x4 DUP1 CALLDATASIZE SUB DUP2 ADD SWAP1 PUSH2 0x339 SWAP2 SWAP1 PUSH2 0x2AC8 JUMP JUMPDEST PUSH2 0xEC5 JUMP JUMPDEST PUSH1 0x40 MLOAD PUSH2 0x34B SWAP2 SWAP1 PUSH2 0x2D03 JUMP JUMPDEST PUSH1 0x40 MLOAD DUP1 SWAP2 SUB SWAP1 RETURN JUMPDEST CALLVALUE DUP1 ISZERO PUSH2 0x35F JUMPI PUSH0 DUP1 REVERT JUMPDEST POP PUSH2 0x368 PUSH2 0xEE2 JUMP JUMPDEST STOP JUMPDEST CALLVALUE DUP1 ISZERO PUSH2 0x375 JUMPI PUSH0 DUP1 REVERT JUMPDEST POP PUSH2 0x390 PUSH1 0x4 DUP1 CALLDATASIZE SUB DUP2 ADD SWAP1 PUSH2 0x38B SWAP2 SWAP1 PUSH2 0x2AC8 JUMP JUMPDEST PUSH2 0x1072 JUMP JUMPDEST PUSH1 0x40 MLOAD PUSH2 0x39D SWAP2 SWAP1 PUSH2 0x2E6F JUMP JUMPDEST PUSH1 0x40 MLOAD DUP1 SWAP2 SUB SWAP1 RETURN JUMPDEST CALLVALUE DUP1 ISZERO PUSH2 0x3B1 JUMPI PUSH0 DUP1 REVERT JUMPDEST POP PUSH2 0x3CC PUSH1 0x4 DUP1 CALLDATASIZE SUB DUP2 ADD SWAP1 PUSH2 0x3C7 SWAP2 SWAP1 PUSH2 0x2B59 JUMP JUMPDEST PUSH2 0x1212 JUMP JUMPDEST PUSH1 0x40 MLOAD PUSH2 0x3D9 SWAP2 SWAP1 PUSH2 0x2D03 JUMP JUMPDEST PUSH1 0x40 MLOAD DUP1 SWAP2 SUB SWAP1 RETURN JUMPDEST CALLVALUE DUP1 ISZERO PUSH2 0x3ED JUMPI PUSH0 DUP1 REVERT JUMPDEST POP PUSH2 0x408 PUSH1 0x4 DUP1 CALLDATASIZE SUB DUP2 ADD SWAP1 PUSH2 0x403 SWAP2 SWAP1 PUSH2 0x2AC8 JUMP JUMPDEST PUSH2 0x122F JUMP JUMPDEST STOP JUMPDEST CALLVALUE DUP1 ISZERO PUSH2 0x415 JUMPI PUSH0 DUP1 REVERT JUMPDEST POP PUSH2 0x430 PUSH1 0x4 DUP1 CALLDATASIZE SUB DUP2 ADD SWAP1 PUSH2 0x42B SWAP2 SWAP1 PUSH2 0x2AC8 JUMP JUMPDEST PUSH2 0x14BF JUMP JUMPDEST PUSH1 0x40 MLOAD PUSH2 0x43D SWAP2 SWAP1 PUSH2 0x2E9E JUMP JUMPDEST PUSH1 0x40 MLOAD DUP1 SWAP2 SUB SWAP1 RETURN JUMPDEST PUSH2 0x460 PUSH1 0x4 DUP1 CALLDATASIZE SUB DUP2 ADD SWAP1 PUSH2 0x45B SWAP2 SWAP1 PUSH2 0x2FE3 JUMP JUMPDEST PUSH2 0x14EF JUMP JUMPDEST PUSH1 0x40 MLOAD PUSH2 0x46D SWAP2 SWAP1 PUSH2 0x2D03 JUMP JUMPDEST PUSH1 0x40 MLOAD DUP1 SWAP2 SUB SWAP1 RETURN JUMPDEST CALLVALUE DUP1 ISZERO PUSH2 0x481 JUMPI PUSH0 DUP1 REVERT JUMPDEST POP PUSH2 0x49C PUSH1 0x4 DUP1 CALLDATASIZE SUB DUP2 ADD SWAP1 PUSH2 0x497 SWAP2 SWAP1 PUSH2 0x2AC8 JUMP JUMPDEST PUSH2 0x15EB JUMP JUMPDEST STOP JUMPDEST CALLVALUE DUP1 ISZERO PUSH2 0x4A9 JUMPI PUSH0 DUP1 REVERT JUMPDEST POP PUSH2 0x4C4 PUSH1 0x4 DUP1 CALLDATASIZE SUB DUP2 ADD SWAP1 PUSH2 0x4BF SWAP2 SWAP1 PUSH2 0x2AC8 JUMP JUMPDEST PUSH2 0x16F4 JUMP JUMPDEST STOP JUMPDEST CALLVALUE DUP1 ISZERO PUSH2 0x4D1 JUMPI PUSH0 DUP1 REVERT JUMPDEST POP PUSH2 0x4EC PUSH1 0x4 DUP1 CALLDATASIZE SUB DUP2 ADD SWAP1 PUSH2 0x4E7 SWAP2 SWAP1 PUSH2 0x2AC8 JUMP JUMPDEST PUSH2 0x1873 JUMP JUMPDEST STOP JUMPDEST PUSH2 0x508 PUSH1 0x4 DUP1 CALLDATASIZE SUB DUP2 ADD SWAP1 PUSH2 0x503 SWAP2 SWAP1 PUSH2 0x2AC8 JUMP JUMPDEST PUSH2 0x1A6C JUMP JUMPDEST PUSH1 0x40 MLOAD PUSH2 0x515 SWAP2 SWAP1 PUSH2 0x2D03 JUMP JUMPDEST PUSH1 0x40 MLOAD DUP1 SWAP2 SUB SWAP1 RETURN JUMPDEST CALLVALUE DUP1 ISZERO PUSH2 0x529 JUMPI PUSH0 DUP1 REVERT JUMPDEST POP PUSH2 0x544 PUSH1 0x4 DUP1 CALLDATASIZE SUB DUP2 ADD SWAP1 PUSH2 0x53F SWAP2 SWAP1 PUSH2 0x2AC8 JUMP JUMPDEST PUSH2 0x1E0E JUMP JUMPDEST PUSH1 0x40 MLOAD PUSH2 0x551 SWAP2 SWAP1 PUSH2 0x2D03 JUMP JUMPDEST PUSH1 0x40 MLOAD DUP1 SWAP2 SUB SWAP1 RETURN JUMPDEST CALLVALUE DUP1 ISZERO PUSH2 0x565 JUMPI PUSH0 DUP1 REVERT JUMPDEST POP PUSH2 0x580 PUSH1 0x4 DUP1 CALLDATASIZE SUB DUP2 ADD SWAP1 PUSH2 0x57B SWAP2 SWAP1 PUSH2 0x2AC8 JUMP JUMPDEST PUSH2 0x1FAF JUMP JUMPDEST PUSH1 0x40 MLOAD PUSH2 0x58D SWAP2 SWAP1 PUSH2 0x2D03 JUMP JUMPDEST PUSH1 0x40 MLOAD DUP1 SWAP2 SUB SWAP1 RETURN JUMPDEST DUP1 CALLER PUSH20 0xFFFFFFFFFFFFFFFFFFFFFFFFFFFFFFFFFFFFFFFF AND PUSH0 DUP1 DUP4 DUP2 MSTORE PUSH1 0x20 ADD SWAP1 DUP2 MSTORE PUSH1 0x20 ADD PUSH0 KECCAK256 PUSH0 SWAP1 SLOAD SWAP1 PUSH2 0x100 EXP SWAP1 DIV PUSH20 0xFFFFFFFFFFFFFFFFFFFFFFFFFFFFFFFFFFFFFFFF AND PUSH20 0xFFFFFFFFFFFFFFFFFFFFFFFFFFFFFFFFFFFFFFFF AND EQ PUSH2 0x634 JUMPI PUSH1 0x40 MLOAD PUSH32 0x8C379A000000000000000000000000000000000000000000000000000000000 DUP2 MSTORE PUSH1 0x4 ADD PUSH2 0x62B SWAP1 PUSH2 0x30B3 JUMP JUMPDEST PUSH1 0x40 MLOAD DUP1 SWAP2 SUB SWAP1 REVERT JUMPDEST DUP2 PUSH1 0x7 PUSH0 CALLER PUSH20 0xFFFFFFFFFFFFFFFFFFFFFFFFFFFFFFFFFFFFFFFF AND PUSH20 0xFFFFFFFFFFFFFFFFFFFFFFFFFFFFFFFFFFFFFFFF AND DUP2 MSTORE PUSH1 0x20 ADD SWAP1 DUP2 MSTORE PUSH1 0x20 ADD PUSH0 KECCAK256 PUSH0 DUP6 PUSH20 0xFFFFFFFFFFFFFFFFFFFFFFFFFFFFFFFFFFFFFFFF AND PUSH20 0xFFFFFFFFFFFFFFFFFFFFFFFFFFFFFFFFFFFFFFFF AND DUP2 MSTORE PUSH1 0x20 ADD SWAP1 DUP2 MSTORE PUSH1 0x20 ADD PUSH0 KECCAK256 DUP2 SWAP1 SSTORE POP DUP3 PUSH1 0x8 PUSH0 CALLER PUSH20 0xFFFFFFFFFFFFFFFFFFFFFFFFFFFFFFFFFFFFFFFF AND PUSH20 0xFFFFFFFFFFFFFFFFFFFFFFFFFFFFFFFFFFFFFFFF AND DUP2 MSTORE PUSH1 0x20 ADD SWAP1 DUP2 MSTORE PUSH1 0x20 ADD PUSH0 KECCAK256 PUSH0 PUSH2 0x100 EXP DUP2 SLOAD DUP2 PUSH20 0xFFFFFFFFFFFFFFFFFFFFFFFFFFFFFFFFFFFFFFFF MUL NOT AND SWAP1 DUP4 PUSH20 0xFFFFFFFFFFFFFFFFFFFFFFFFFFFFFFFFFFFFFFFF AND MUL OR SWAP1 SSTORE POP POP POP POP JUMP JUMPDEST PUSH1 0x9 PUSH1 0x20 MSTORE DUP1 PUSH0 MSTORE PUSH1 0x40 PUSH0 KECCAK256 PUSH0 SWAP2 POP SWAP1 POP SLOAD DUP2 JUMP JUMPDEST DUP2 CALLER PUSH20 0xFFFFFFFFFFFFFFFFFFFFFFFFFFFFFFFFFFFFFFFF AND PUSH0 DUP1 DUP4 DUP2 MSTORE PUSH1 0x20 ADD SWAP1 DUP2 MSTORE PUSH1 0x20 ADD PUSH0 KECCAK256 PUSH0 SWAP1 SLOAD SWAP1 PUSH2 0x100 EXP SWAP1 DIV PUSH20 0xFFFFFFFFFFFFFFFFFFFFFFFFFFFFFFFFFFFFFFFF AND PUSH20 0xFFFFFFFFFFFFFFFFFFFFFFFFFFFFFFFFFFFFFFFF AND EQ PUSH2 0x7E4 JUMPI PUSH1 0x40 MLOAD PUSH32 0x8C379A000000000000000000000000000000000000000000000000000000000 DUP2 MSTORE PUSH1 0x4 ADD PUSH2 0x7DB SWAP1 PUSH2 0x30B3 JUMP JUMPDEST PUSH1 0x40 MLOAD DUP1 SWAP2 SUB SWAP1 REVERT JUMPDEST PUSH1 0x6 PUSH0 DUP5 DUP2 MSTORE PUSH1 0x20 ADD SWAP1 DUP2 MSTORE PUSH1 0x20 ADD PUSH0 KECCAK256 PUSH0 SWAP1 SLOAD SWAP1 PUSH2 0x100 EXP SWAP1 DIV PUSH1 0xFF AND ISZERO DUP1 ISZERO PUSH2 0x880 JUMPI POP PUSH1 0x40 MLOAD DUP1 PUSH1 0x40 ADD PUSH1 0x40 MSTORE DUP1 PUSH1 0x7 DUP2 MSTORE PUSH1 0x20 ADD PUSH32 0x7072656D69756D00000000000000000000000000000000000000000000000000 DUP2 MSTORE POP DUP1 MLOAD SWAP1 PUSH1 0x20 ADD KECCAK256 PUSH1 0x3 DUP5 DUP2 SLOAD DUP2 LT PUSH2 0x85B JUMPI PUSH2 0x85A PUSH2 0x30D1 JUMP JUMPDEST JUMPDEST SWAP1 PUSH0 MSTORE PUSH1 0x20 PUSH0 KECCAK256 SWAP1 PUSH1 0x9 MUL ADD PUSH0 ADD PUSH1 0x40 MLOAD PUSH2 0x876 SWAP2 SWAP1 PUSH2 0x31F7 JUMP JUMPDEST PUSH1 0x40 MLOAD DUP1 SWAP2 SUB SWAP1 KECCAK256 EQ JUMPDEST PUSH2 0x8BF JUMPI PUSH1 0x40 MLOAD PUSH32 0x8C379A000000000000000000000000000000000000000000000000000000000 DUP2 MSTORE PUSH1 0x4 ADD PUSH2 0x8B6 SWAP1 PUSH2 0x3257 JUMP JUMPDEST PUSH1 0x40 MLOAD DUP1 SWAP2 SUB SWAP1 REVERT JUMPDEST PUSH8 0xDE0B6B3A7640000 DUP3 PUSH2 0x8D3 SWAP2 SWAP1 PUSH2 0x32A2 JUMP JUMPDEST PUSH1 0xD PUSH0 DUP6 DUP2 MSTORE PUSH1 0x20 ADD SWAP1 DUP2 MSTORE PUSH1 0x20 ADD PUSH0 KECCAK256 DUP2 SWAP1 SSTORE POP PUSH1 0x1 PUSH1 0x6 PUSH0 DUP6 DUP2 MSTORE PUSH1 0x20 ADD SWAP1 DUP2 MSTORE PUSH1 0x20 ADD PUSH0 KECCAK256 PUSH0 PUSH2 0x100 EXP DUP2 SLOAD DUP2 PUSH1 0xFF MUL NOT AND SWAP1 DUP4 ISZERO ISZERO MUL OR SWAP1 SSTORE POP PUSH0 PUSH1 0x1E TIMESTAMP PUSH2 0x91F SWAP2 SWAP1 PUSH2 0x32FF JUMP JUMPDEST SWAP1 POP DUP1 PUSH1 0x9 PUSH0 DUP7 DUP2 MSTORE PUSH1 0x20 ADD SWAP1 DUP2 MSTORE PUSH1 0x20 ADD PUSH0 KECCAK256 DUP2 SWAP1 SSTORE POP POP POP POP POP JUMP JUMPDEST PUSH1 0xE PUSH1 0x20 MSTORE DUP1 PUSH0 MSTORE PUSH1 0x40 PUSH0 KECCAK256 PUSH0 SWAP2 POP SWAP1 POP SLOAD DUP2 JUMP JUMPDEST PUSH1 0x60 PUSH0 PUSH1 0x1 PUSH0 DUP5 PUSH20 0xFFFFFFFFFFFFFFFFFFFFFFFFFFFFFFFFFFFFFFFF AND PUSH20 0xFFFFFFFFFFFFFFFFFFFFFFFFFFFFFFFFFFFFFFFF AND DUP2 MSTORE PUSH1 0x20 ADD SWAP1 DUP2 MSTORE PUSH1 0x20 ADD PUSH0 KECCAK256 SLOAD PUSH8 0xFFFFFFFFFFFFFFFF DUP2 GT ISZERO PUSH2 0x9AC JUMPI PUSH2 0x9AB PUSH2 0x2EBF JUMP JUMPDEST JUMPDEST PUSH1 0x40 MLOAD SWAP1 DUP1 DUP3 MSTORE DUP1 PUSH1 0x20 MUL PUSH1 0x20 ADD DUP3 ADD PUSH1 0x40 MSTORE DUP1 ISZERO PUSH2 0x9DA JUMPI DUP2 PUSH1 0x20 ADD PUSH1 0x20 DUP3 MUL DUP1 CALLDATASIZE DUP4 CALLDATACOPY DUP1 DUP3 ADD SWAP2 POP POP SWAP1 POP JUMPDEST POP SWAP1 POP PUSH0 DUP1 JUMPDEST PUSH1 0x3 DUP1 SLOAD SWAP1 POP DUP2 LT ISZERO PUSH2 0xA91 JUMPI DUP5 PUSH20 0xFFFFFFFFFFFFFFFFFFFFFFFFFFFFFFFFFFFFFFFF AND PUSH0 DUP1 DUP4 DUP2 MSTORE PUSH1 0x20 ADD SWAP1 DUP2 MSTORE PUSH1 0x20 ADD PUSH0 KECCAK256 PUSH0 SWAP1 SLOAD SWAP1 PUSH2 0x100 EXP SWAP1 DIV PUSH20 0xFFFFFFFFFFFFFFFFFFFFFFFFFFFFFFFFFFFFFFFF AND PUSH20 0xFFFFFFFFFFFFFFFFFFFFFFFFFFFFFFFFFFFFFFFF AND SUB PUSH2 0xA7E JUMPI DUP1 DUP4 DUP4 DUP2 MLOAD DUP2 LT PUSH2 0xA63 JUMPI PUSH2 0xA62 PUSH2 0x30D1 JUMP JUMPDEST JUMPDEST PUSH1 0x20 MUL PUSH1 0x20 ADD ADD DUP2 DUP2 MSTORE POP POP DUP2 DUP1 PUSH2 0xA7A SWAP1 PUSH2 0x3332 JUMP JUMPDEST SWAP3 POP POP JUMPDEST DUP1 DUP1 PUSH2 0xA89 SWAP1 PUSH2 0x3332 JUMP JUMPDEST SWAP2 POP POP PUSH2 0x9E0 JUMP JUMPDEST POP DUP2 SWAP3 POP POP POP SWAP2 SWAP1 POP JUMP JUMPDEST PUSH1 0x7 PUSH1 0x20 MSTORE DUP2 PUSH0 MSTORE PUSH1 0x40 PUSH0 KECCAK256 PUSH1 0x20 MSTORE DUP1 PUSH0 MSTORE PUSH1 0x40 PUSH0 KECCAK256 PUSH0 SWAP2 POP SWAP2 POP POP SLOAD DUP2 JUMP JUMPDEST PUSH1 0xD PUSH1 0x20 MSTORE DUP1 PUSH0 MSTORE PUSH1 0x40 PUSH0 KECCAK256 PUSH0 SWAP2 POP SWAP1 POP SLOAD DUP2 JUMP JUMPDEST DUP1 CALLER PUSH20 0xFFFFFFFFFFFFFFFFFFFFFFFFFFFFFFFFFFFFFFFF AND PUSH0 DUP1 DUP4 DUP2 MSTORE PUSH1 0x20 ADD SWAP1 DUP2 MSTORE PUSH1 0x20 ADD PUSH0 KECCAK256 PUSH0 SWAP1 SLOAD SWAP1 PUSH2 0x100 EXP SWAP1 DIV PUSH20 0xFFFFFFFFFFFFFFFFFFFFFFFFFFFFFFFFFFFFFFFF AND PUSH20 0xFFFFFFFFFFFFFFFFFFFFFFFFFFFFFFFFFFFFFFFF AND EQ PUSH2 0xB6F JUMPI PUSH1 0x40 MLOAD PUSH32 0x8C379A000000000000000000000000000000000000000000000000000000000 DUP2 MSTORE PUSH1 0x4 ADD PUSH2 0xB66 SWAP1 PUSH2 0x30B3 JUMP JUMPDEST PUSH1 0x40 MLOAD DUP1 SWAP2 SUB SWAP1 REVERT JUMPDEST PUSH1 0x40 MLOAD DUP1 PUSH1 0x40 ADD PUSH1 0x40 MSTORE DUP1 PUSH1 0x7 DUP2 MSTORE PUSH1 0x20 ADD PUSH32 0x7072656D69756D00000000000000000000000000000000000000000000000000 DUP2 MSTORE POP DUP1 MLOAD SWAP1 PUSH1 0x20 ADD KECCAK256 PUSH1 0x3 DUP4 DUP2 SLOAD DUP2 LT PUSH2 0xBC0 JUMPI PUSH2 0xBBF PUSH2 0x30D1 JUMP JUMPDEST JUMPDEST SWAP1 PUSH0 MSTORE PUSH1 0x20 PUSH0 KECCAK256 SWAP1 PUSH1 0x9 MUL ADD PUSH0 ADD PUSH1 0x40 MLOAD PUSH2 0xBDB SWAP2 SWAP1 PUSH2 0x31F7 JUMP JUMPDEST PUSH1 0x40 MLOAD DUP1 SWAP2 SUB SWAP1 KECCAK256 EQ PUSH2 0xC23 JUMPI PUSH1 0x40 MLOAD PUSH32 0x8C379A000000000000000000000000000000000000000000000000000000000 DUP2 MSTORE PUSH1 0x4 ADD PUSH2 0xC1A SWAP1 PUSH2 0x33C3 JUMP JUMPDEST PUSH1 0x40 MLOAD DUP1 SWAP2 SUB SWAP1 REVERT JUMPDEST PUSH1 0x6 PUSH0 DUP4 DUP2 MSTORE PUSH1 0x20 ADD SWAP1 DUP2 MSTORE PUSH1 0x20 ADD PUSH0 KECCAK256 PUSH0 SWAP1 SLOAD SWAP1 PUSH2 0x100 EXP SWAP1 DIV PUSH1 0xFF AND ISZERO PUSH2 0xC81 JUMPI PUSH1 0x40 MLOAD PUSH32 0x8C379A000000000000000000000000000000000000000000000000000000000 DUP2 MSTORE PUSH1 0x4 ADD PUSH2 0xC78 SWAP1 PUSH2 0x342B JUMP JUMPDEST PUSH1 0x40 MLOAD DUP1 SWAP2 SUB SWAP1 REVERT JUMPDEST DUP4 PUSH20 0xFFFFFFFFFFFFFFFFFFFFFFFFFFFFFFFFFFFFFFFF AND PUSH0 DUP1 DUP5 DUP2 MSTORE PUSH1 0x20 ADD SWAP1 DUP2 MSTORE PUSH1 0x20 ADD PUSH0 KECCAK256 PUSH0 SWAP1 SLOAD SWAP1 PUSH2 0x100 EXP SWAP1 DIV PUSH20 0xFFFFFFFFFFFFFFFFFFFFFFFFFFFFFFFFFFFFFFFF AND PUSH20 0xFFFFFFFFFFFFFFFFFFFFFFFFFFFFFFFFFFFFFFFF AND EQ DUP1 PUSH2 0xD71 JUMPI POP CALLER PUSH20 0xFFFFFFFFFFFFFFFFFFFFFFFFFFFFFFFFFFFFFFFF AND PUSH1 0x8 PUSH0 DUP7 PUSH20 0xFFFFFFFFFFFFFFFFFFFFFFFFFFFFFFFFFFFFFFFF AND PUSH20 0xFFFFFFFFFFFFFFFFFFFFFFFFFFFFFFFFFFFFFFFF AND DUP2 MSTORE PUSH1 0x20 ADD SWAP1 DUP2 MSTORE PUSH1 0x20 ADD PUSH0 KECCAK256 PUSH0 SWAP1 SLOAD SWAP1 PUSH2 0x100 EXP SWAP1 DIV PUSH20 0xFFFFFFFFFFFFFFFFFFFFFFFFFFFFFFFFFFFFFFFF AND PUSH20 0xFFFFFFFFFFFFFFFFFFFFFFFFFFFFFFFFFFFFFFFF AND EQ JUMPDEST PUSH2 0xDB0 JUMPI PUSH1 0x40 MLOAD PUSH32 0x8C379A000000000000000000000000000000000000000000000000000000000 DUP2 MSTORE PUSH1 0x4 ADD PUSH2 0xDA7 SWAP1 PUSH2 0x3493 JUMP JUMPDEST PUSH1 0x40 MLOAD DUP1 SWAP2 SUB SWAP1 REVERT JUMPDEST DUP3 PUSH0 DUP1 DUP5 DUP2 MSTORE PUSH1 0x20 ADD SWAP1 DUP2 MSTORE PUSH1 0x20 ADD PUSH0 KECCAK256 PUSH0 PUSH2 0x100 EXP DUP2 SLOAD DUP2 PUSH20 0xFFFFFFFFFFFFFFFFFFFFFFFFFFFFFFFFFFFFFFFF MUL NOT AND SWAP1 DUP4 PUSH20 0xFFFFFFFFFFFFFFFFFFFFFFFFFFFFFFFFFFFFFFFF AND MUL OR SWAP1 SSTORE POP PUSH1 0x1 PUSH0 DUP6 PUSH20 0xFFFFFFFFFFFFFFFFFFFFFFFFFFFFFFFFFFFFFFFF AND PUSH20 0xFFFFFFFFFFFFFFFFFFFFFFFFFFFFFFFFFFFFFFFF AND DUP2 MSTORE PUSH1 0x20 ADD SWAP1 DUP2 MSTORE PUSH1 0x20 ADD PUSH0 KECCAK256 PUSH0 DUP2 SLOAD DUP1 SWAP3 SWAP2 SWAP1 PUSH2 0xE4B SWAP1 PUSH2 0x34B1 JUMP JUMPDEST SWAP2 SWAP1 POP SSTORE POP PUSH1 0x1 PUSH0 DUP5 PUSH20 0xFFFFFFFFFFFFFFFFFFFFFFFFFFFFFFFFFFFFFFFF AND PUSH20 0xFFFFFFFFFFFFFFFFFFFFFFFFFFFFFFFFFFFFFFFF AND DUP2 MSTORE PUSH1 0x20 ADD SWAP1 DUP2 MSTORE PUSH1 0x20 ADD PUSH0 KECCAK256 PUSH0 DUP2 SLOAD DUP1 SWAP3 SWAP2 SWAP1 PUSH2 0xE9D SWAP1 PUSH2 0x3332 JUMP JUMPDEST SWAP2 SWAP1 POP SSTORE POP POP POP POP POP JUMP JUMPDEST PUSH1 0xB PUSH1 0x20 MSTORE DUP1 PUSH0 MSTORE PUSH1 0x40 PUSH0 KECCAK256 PUSH0 SWAP2 POP SLOAD SWAP1 PUSH2 0x100 EXP SWAP1 DIV PUSH1 0xFF AND DUP2 JUMP JUMPDEST PUSH1 0xA PUSH1 0x20 MSTORE DUP1 PUSH0 MSTORE PUSH1 0x40 PUSH0 KECCAK256 PUSH0 SWAP2 POP SLOAD SWAP1 PUSH2 0x100 EXP SWAP1 DIV PUSH1 0xFF AND DUP2 JUMP JUMPDEST PUSH0 PUSH1 0x1 PUSH0 CALLER PUSH20 0xFFFFFFFFFFFFFFFFFFFFFFFFFFFFFFFFFFFFFFFF AND PUSH20 0xFFFFFFFFFFFFFFFFFFFFFFFFFFFFFFFFFFFFFFFF AND DUP2 MSTORE PUSH1 0x20 ADD SWAP1 DUP2 MSTORE PUSH1 0x20 ADD PUSH0 KECCAK256 SLOAD EQ PUSH2 0xF61 JUMPI PUSH1 0x40 MLOAD PUSH32 0x8C379A000000000000000000000000000000000000000000000000000000000 DUP2 MSTORE PUSH1 0x4 ADD PUSH2 0xF58 SWAP1 PUSH2 0x3522 JUMP JUMPDEST PUSH1 0x40 MLOAD DUP1 SWAP2 SUB SWAP1 REVERT JUMPDEST PUSH1 0x1 PUSH1 0x5 PUSH0 CALLER PUSH20 0xFFFFFFFFFFFFFFFFFFFFFFFFFFFFFFFFFFFFFFFF AND PUSH20 0xFFFFFFFFFFFFFFFFFFFFFFFFFFFFFFFFFFFFFFFF AND DUP2 MSTORE PUSH1 0x20 ADD SWAP1 DUP2 MSTORE PUSH1 0x20 ADD PUSH0 KECCAK256 PUSH0 PUSH2 0x100 EXP DUP2 SLOAD DUP2 PUSH1 0xFF MUL NOT AND SWAP1 DUP4 ISZERO ISZERO MUL OR SWAP1 SSTORE POP PUSH2 0x1070 PUSH1 0x40 MLOAD DUP1 PUSH1 0x40 ADD PUSH1 0x40 MSTORE DUP1 PUSH1 0x4 DUP2 MSTORE PUSH1 0x20 ADD PUSH32 0x4672656500000000000000000000000000000000000000000000000000000000 DUP2 MSTORE POP PUSH1 0x40 MLOAD DUP1 PUSH1 0x40 ADD PUSH1 0x40 MSTORE DUP1 PUSH1 0xA DUP2 MSTORE PUSH1 0x20 ADD PUSH32 0x467265655A6F6D62696500000000000000000000000000000000000000000000 DUP2 MSTORE POP PUSH2 0x1063 PUSH1 0x40 MLOAD DUP1 PUSH1 0x40 ADD PUSH1 0x40 MSTORE DUP1 PUSH1 0x4 DUP2 MSTORE PUSH1 0x20 ADD PUSH32 0x6672656500000000000000000000000000000000000000000000000000000000 DUP2 MSTORE POP PUSH2 0x1FCC JUMP JUMPDEST PUSH1 0x1 PUSH0 DUP1 PUSH1 0x2 PUSH0 DUP1 PUSH2 0x200F JUMP JUMPDEST JUMP JUMPDEST PUSH2 0x107A PUSH2 0x29A7 JUMP JUMPDEST PUSH1 0x3 DUP3 DUP2 SLOAD DUP2 LT PUSH2 0x108E JUMPI PUSH2 0x108D PUSH2 0x30D1 JUMP JUMPDEST JUMPDEST SWAP1 PUSH0 MSTORE PUSH1 0x20 PUSH0 KECCAK256 SWAP1 PUSH1 0x9 MUL ADD PUSH1 0x40 MLOAD DUP1 PUSH2 0x120 ADD PUSH1 0x40 MSTORE SWAP1 DUP2 PUSH0 DUP3 ADD DUP1 SLOAD PUSH2 0x10B5 SWAP1 PUSH2 0x312B JUMP JUMPDEST DUP1 PUSH1 0x1F ADD PUSH1 0x20 DUP1 SWAP2 DIV MUL PUSH1 0x20 ADD PUSH1 0x40 MLOAD SWAP1 DUP2 ADD PUSH1 0x40 MSTORE DUP1 SWAP3 SWAP2 SWAP1 DUP2 DUP2 MSTORE PUSH1 0x20 ADD DUP3 DUP1 SLOAD PUSH2 0x10E1 SWAP1 PUSH2 0x312B JUMP JUMPDEST DUP1 ISZERO PUSH2 0x112C JUMPI DUP1 PUSH1 0x1F LT PUSH2 0x1103 JUMPI PUSH2 0x100 DUP1 DUP4 SLOAD DIV MUL DUP4 MSTORE SWAP2 PUSH1 0x20 ADD SWAP2 PUSH2 0x112C JUMP JUMPDEST DUP3 ADD SWAP2 SWAP1 PUSH0 MSTORE PUSH1 0x20 PUSH0 KECCAK256 SWAP1 JUMPDEST DUP2 SLOAD DUP2 MSTORE SWAP1 PUSH1 0x1 ADD SWAP1 PUSH1 0x20 ADD DUP1 DUP4 GT PUSH2 0x110F JUMPI DUP3 SWAP1 SUB PUSH1 0x1F AND DUP3 ADD SWAP2 JUMPDEST POP POP POP POP POP DUP2 MSTORE PUSH1 0x20 ADD PUSH1 0x1 DUP3 ADD DUP1 SLOAD PUSH2 0x1145 SWAP1 PUSH2 0x312B JUMP JUMPDEST DUP1 PUSH1 0x1F ADD PUSH1 0x20 DUP1 SWAP2 DIV MUL PUSH1 0x20 ADD PUSH1 0x40 MLOAD SWAP1 DUP2 ADD PUSH1 0x40 MSTORE DUP1 SWAP3 SWAP2 SWAP1 DUP2 DUP2 MSTORE PUSH1 0x20 ADD DUP3 DUP1 SLOAD PUSH2 0x1171 SWAP1 PUSH2 0x312B JUMP JUMPDEST DUP1 ISZERO PUSH2 0x11BC JUMPI DUP1 PUSH1 0x1F LT PUSH2 0x1193 JUMPI PUSH2 0x100 DUP1 DUP4 SLOAD DIV MUL DUP4 MSTORE SWAP2 PUSH1 0x20 ADD SWAP2 PUSH2 0x11BC JUMP JUMPDEST DUP3 ADD SWAP2 SWAP1 PUSH0 MSTORE PUSH1 0x20 PUSH0 KECCAK256 SWAP1 JUMPDEST DUP2 SLOAD DUP2 MSTORE SWAP1 PUSH1 0x1 ADD SWAP1 PUSH1 0x20 ADD DUP1 DUP4 GT PUSH2 0x119F JUMPI DUP3 SWAP1 SUB PUSH1 0x1F AND DUP3 ADD SWAP2 JUMPDEST POP POP POP POP POP DUP2 MSTORE PUSH1 0x20 ADD PUSH1 0x2 DUP3 ADD SLOAD DUP2 MSTORE PUSH1 0x20 ADD PUSH1 0x3 DUP3 ADD SLOAD DUP2 MSTORE PUSH1 0x20 ADD PUSH1 0x4 DUP3 ADD SLOAD DUP2 MSTORE PUSH1 0x20 ADD PUSH1 0x5 DUP3 ADD SLOAD DUP2 MSTORE PUSH1 0x20 ADD PUSH1 0x6 DUP3 ADD SLOAD DUP2 MSTORE PUSH1 0x20 ADD PUSH1 0x7 DUP3 ADD SLOAD DUP2 MSTORE PUSH1 0x20 ADD PUSH1 0x8 DUP3 ADD SLOAD DUP2 MSTORE POP POP SWAP1 POP SWAP2 SWAP1 POP JUMP JUMPDEST PUSH1 0x5 PUSH1 0x20 MSTORE DUP1 PUSH0 MSTORE PUSH1 0x40 PUSH0 KECCAK256 PUSH0 SWAP2 POP SLOAD SWAP1 PUSH2 0x100 EXP SWAP1 DIV PUSH1 0xFF AND DUP2 JUMP JUMPDEST CALLER PUSH20 0xFFFFFFFFFFFFFFFFFFFFFFFFFFFFFFFFFFFFFFFF AND PUSH1 0xC PUSH0 DUP4 DUP2 MSTORE PUSH1 0x20 ADD SWAP1 DUP2 MSTORE PUSH1 0x20 ADD PUSH0 KECCAK256 PUSH0 SWAP1 SLOAD SWAP1 PUSH2 0x100 EXP SWAP1 DIV PUSH20 0xFFFFFFFFFFFFFFFFFFFFFFFFFFFFFFFFFFFFFFFF AND PUSH20 0xFFFFFFFFFFFFFFFFFFFFFFFFFFFFFFFFFFFFFFFF AND EQ DUP1 ISZERO PUSH2 0x12AA JUMPI POP TIMESTAMP PUSH1 0x9 PUSH0 DUP4 DUP2 MSTORE PUSH1 0x20 ADD SWAP1 DUP2 MSTORE PUSH1 0x20 ADD PUSH0 KECCAK256 SLOAD GT JUMPDEST DUP1 PUSH2 0x1302 JUMPI POP PUSH1 0x1 ISZERO ISZERO PUSH1 0x5 PUSH0 CALLER PUSH20 0xFFFFFFFFFFFFFFFFFFFFFFFFFFFFFFFFFFFFFFFF AND PUSH20 0xFFFFFFFFFFFFFFFFFFFFFFFFFFFFFFFFFFFFFFFF AND DUP2 MSTORE PUSH1 0x20 ADD SWAP1 DUP2 MSTORE PUSH1 0x20 ADD PUSH0 KECCAK256 PUSH0 SWAP1 SLOAD SWAP1 PUSH2 0x100 EXP SWAP1 DIV PUSH1 0xFF AND ISZERO ISZERO EQ JUMPDEST ISZERO PUSH2 0x1414 JUMPI PUSH0 PUSH1 0x3 DUP3 DUP2 SLOAD DUP2 LT PUSH2 0x131C JUMPI PUSH2 0x131B PUSH2 0x30D1 JUMP JUMPDEST JUMPDEST SWAP1 PUSH0 MSTORE PUSH1 0x20 PUSH0 KECCAK256 SWAP1 PUSH1 0x9 MUL ADD PUSH1 0x7 ADD SLOAD SWAP1 POP PUSH2 0x1337 DUP3 PUSH2 0x21AB JUMP JUMPDEST POP DUP1 PUSH1 0x3 DUP4 DUP2 SLOAD DUP2 LT PUSH2 0x134D JUMPI PUSH2 0x134C PUSH2 0x30D1 JUMP JUMPDEST JUMPDEST SWAP1 PUSH0 MSTORE PUSH1 0x20 PUSH0 KECCAK256 SWAP1 PUSH1 0x9 MUL ADD PUSH1 0x7 ADD SLOAD GT DUP1 ISZERO PUSH2 0x13A7 JUMPI POP PUSH1 0x1 DUP1 PUSH0 CALLER PUSH20 0xFFFFFFFFFFFFFFFFFFFFFFFFFFFFFFFFFFFFFFFF AND PUSH20 0xFFFFFFFFFFFFFFFFFFFFFFFFFFFFFFFFFFFFFFFF AND DUP2 MSTORE PUSH1 0x20 ADD SWAP1 DUP2 MSTORE PUSH1 0x20 ADD PUSH0 KECCAK256 SLOAD LT ISZERO JUMPDEST ISZERO PUSH2 0x140E JUMPI PUSH0 PUSH2 0x13B6 CALLER PUSH2 0x952 JUMP JUMPDEST SWAP1 POP PUSH1 0x1 PUSH1 0x3 DUP3 PUSH0 DUP2 MLOAD DUP2 LT PUSH2 0x13CF JUMPI PUSH2 0x13CE PUSH2 0x30D1 JUMP JUMPDEST JUMPDEST PUSH1 0x20 MUL PUSH1 0x20 ADD ADD MLOAD DUP2 SLOAD DUP2 LT PUSH2 0x13E8 JUMPI PUSH2 0x13E7 PUSH2 0x30D1 JUMP JUMPDEST JUMPDEST SWAP1 PUSH0 MSTORE PUSH1 0x20 PUSH0 KECCAK256 SWAP1 PUSH1 0x9 MUL ADD PUSH1 0x3 ADD PUSH0 DUP3 DUP3 SLOAD PUSH2 0x1405 SWAP2 SWAP1 PUSH2 0x32FF JUMP JUMPDEST SWAP3 POP POP DUP2 SWAP1 SSTORE POP POP JUMPDEST POP PUSH2 0x14BC JUMP JUMPDEST CALLER PUSH20 0xFFFFFFFFFFFFFFFFFFFFFFFFFFFFFFFFFFFFFFFF AND PUSH0 DUP1 DUP4 DUP2 MSTORE PUSH1 0x20 ADD SWAP1 DUP2 MSTORE PUSH1 0x20 ADD PUSH0 KECCAK256 PUSH0 SWAP1 SLOAD SWAP1 PUSH2 0x100 EXP SWAP1 DIV PUSH20 0xFFFFFFFFFFFFFFFFFFFFFFFFFFFFFFFFFFFFFFFF AND PUSH20 0xFFFFFFFFFFFFFFFFFFFFFFFFFFFFFFFFFFFFFFFF AND EQ PUSH2 0x14B1 JUMPI PUSH1 0x40 MLOAD PUSH32 0x8C379A000000000000000000000000000000000000000000000000000000000 DUP2 MSTORE PUSH1 0x4 ADD PUSH2 0x14A8 SWAP1 PUSH2 0x358A JUMP JUMPDEST PUSH1 0x40 MLOAD DUP1 SWAP2 SUB SWAP1 REVERT JUMPDEST PUSH2 0x14BA DUP2 PUSH2 0x21AB JUMP JUMPDEST POP JUMPDEST POP JUMP JUMPDEST PUSH1 0xC PUSH1 0x20 MSTORE DUP1 PUSH0 MSTORE PUSH1 0x40 PUSH0 KECCAK256 PUSH0 SWAP2 POP SLOAD SWAP1 PUSH2 0x100 EXP SWAP1 DIV PUSH20 0xFFFFFFFFFFFFFFFFFFFFFFFFFFFFFFFFFFFFFFFF AND DUP2 JUMP JUMPDEST PUSH0 PUSH8 0xDE0B6B3A7640000 CALLVALUE EQ PUSH2 0x153A JUMPI PUSH1 0x40 MLOAD PUSH32 0x8C379A000000000000000000000000000000000000000000000000000000000 DUP2 MSTORE PUSH1 0x4 ADD PUSH2 0x1531 SWAP1 PUSH2 0x35F2 JUMP JUMPDEST PUSH1 0x40 MLOAD DUP1 SWAP2 SUB SWAP1 REVERT JUMPDEST PUSH1 0x40 MLOAD DUP1 PUSH1 0x40 ADD PUSH1 0x40 MSTORE DUP1 PUSH1 0x7 DUP2 MSTORE PUSH1 0x20 ADD PUSH32 0x7072656D69756D00000000000000000000000000000000000000000000000000 DUP2 MSTORE POP DUP1 MLOAD SWAP1 PUSH1 0x20 ADD KECCAK256 DUP4 DUP1 MLOAD SWAP1 PUSH1 0x20 ADD KECCAK256 EQ PUSH2 0x15BF JUMPI PUSH1 0x40 MLOAD PUSH32 0x8C379A000000000000000000000000000000000000000000000000000000000 DUP2 MSTORE PUSH1 0x4 ADD PUSH2 0x15B6 SWAP1 PUSH2 0x365A JUMP JUMPDEST PUSH1 0x40 MLOAD DUP1 SWAP2 SUB SWAP1 REVERT JUMPDEST PUSH0 PUSH2 0x15C9 DUP4 PUSH2 0x1FCC JUMP JUMPDEST SWAP1 POP PUSH2 0x15E0 DUP5 DUP5 DUP4 PUSH1 0x5 PUSH2 0x1F4 PUSH0 PUSH1 0x5 PUSH0 DUP1 PUSH2 0x200F JUMP JUMPDEST PUSH1 0x1 SWAP2 POP POP SWAP3 SWAP2 POP POP JUMP JUMPDEST PUSH2 0x15F3 PUSH2 0x2894 JUMP JUMPDEST PUSH0 PUSH1 0x3 DUP3 DUP2 SLOAD DUP2 LT PUSH2 0x1608 JUMPI PUSH2 0x1607 PUSH2 0x30D1 JUMP JUMPDEST JUMPDEST SWAP1 PUSH0 MSTORE PUSH1 0x20 PUSH0 KECCAK256 SWAP1 PUSH1 0x9 MUL ADD PUSH1 0x3 ADD SLOAD NUMBER PREVRANDAO CHAINID TIMESTAMP PUSH2 0x1626 SWAP2 SWAP1 PUSH2 0x3678 JUMP JUMPDEST PUSH2 0x1630 SWAP2 SWAP1 PUSH2 0x3678 JUMP JUMPDEST PUSH2 0x163A SWAP2 SWAP1 PUSH2 0x3678 JUMP JUMPDEST PUSH1 0x40 MLOAD PUSH1 0x20 ADD PUSH2 0x164A SWAP2 SWAP1 PUSH2 0x36D9 JUMP JUMPDEST PUSH1 0x40 MLOAD PUSH1 0x20 DUP2 DUP4 SUB SUB DUP2 MSTORE SWAP1 PUSH1 0x40 MSTORE DUP1 MLOAD SWAP1 PUSH1 0x20 ADD KECCAK256 PUSH0 SHR PUSH2 0x166C SWAP2 SWAP1 PUSH2 0x32A2 JUMP JUMPDEST SWAP1 POP PUSH1 0x4 DUP2 DUP2 SLOAD DUP2 LT PUSH2 0x1682 JUMPI PUSH2 0x1681 PUSH2 0x30D1 JUMP JUMPDEST JUMPDEST SWAP1 PUSH0 MSTORE PUSH1 0x20 PUSH0 KECCAK256 ADD PUSH0 ADD SLOAD PUSH1 0x3 DUP4 DUP2 SLOAD DUP2 LT PUSH2 0x16A1 JUMPI PUSH2 0x16A0 PUSH2 0x30D1 JUMP JUMPDEST JUMPDEST SWAP1 PUSH0 MSTORE PUSH1 0x20 PUSH0 KECCAK256 SWAP1 PUSH1 0x9 MUL ADD PUSH1 0x3 ADD SLOAD GT ISZERO PUSH2 0x16F0 JUMPI PUSH1 0x3 DUP3 DUP2 SLOAD DUP2 LT PUSH2 0x16CB JUMPI PUSH2 0x16CA PUSH2 0x30D1 JUMP JUMPDEST JUMPDEST SWAP1 PUSH0 MSTORE PUSH1 0x20 PUSH0 KECCAK256 SWAP1 PUSH1 0x9 MUL ADD PUSH1 0x3 ADD PUSH0 DUP2 SLOAD DUP1 SWAP3 SWAP2 SWAP1 PUSH2 0x16EA SWAP1 PUSH2 0x3332 JUMP JUMPDEST SWAP2 SWAP1 POP SSTORE POP JUMPDEST POP POP JUMP JUMPDEST DUP1 CALLER PUSH20 0xFFFFFFFFFFFFFFFFFFFFFFFFFFFFFFFFFFFFFFFF AND PUSH0 DUP1 DUP4 DUP2 MSTORE PUSH1 0x20 ADD SWAP1 DUP2 MSTORE PUSH1 0x20 ADD PUSH0 KECCAK256 PUSH0 SWAP1 SLOAD SWAP1 PUSH2 0x100 EXP SWAP1 DIV PUSH20 0xFFFFFFFFFFFFFFFFFFFFFFFFFFFFFFFFFFFFFFFF AND PUSH20 0xFFFFFFFFFFFFFFFFFFFFFFFFFFFFFFFFFFFFFFFF AND EQ PUSH2 0x1792 JUMPI PUSH1 0x40 MLOAD PUSH32 0x8C379A000000000000000000000000000000000000000000000000000000000 DUP2 MSTORE PUSH1 0x4 ADD PUSH2 0x1789 SWAP1 PUSH2 0x30B3 JUMP JUMPDEST PUSH1 0x40 MLOAD DUP1 SWAP2 SUB SWAP1 REVERT JUMPDEST PUSH2 0x1F4 PUSH1 0x3 DUP4 DUP2 SLOAD DUP2 LT PUSH2 0x17A9 JUMPI PUSH2 0x17A8 PUSH2 0x30D1 JUMP JUMPDEST JUMPDEST SWAP1 PUSH0 MSTORE PUSH1 0x20 PUSH0 KECCAK256 SWAP1 PUSH1 0x9 MUL ADD PUSH1 0x4 ADD SLOAD LT ISZERO PUSH2 0x17FA JUMPI PUSH1 0x40 MLOAD PUSH32 0x8C379A000000000000000000000000000000000000000000000000000000000 DUP2 MSTORE PUSH1 0x4 ADD PUSH2 0x17F1 SWAP1 PUSH2 0x373D JUMP JUMPDEST PUSH1 0x40 MLOAD DUP1 SWAP2 SUB SWAP1 REVERT JUMPDEST PUSH2 0x1F4 PUSH1 0x3 DUP4 DUP2 SLOAD DUP2 LT PUSH2 0x1811 JUMPI PUSH2 0x1810 PUSH2 0x30D1 JUMP JUMPDEST JUMPDEST SWAP1 PUSH0 MSTORE PUSH1 0x20 PUSH0 KECCAK256 SWAP1 PUSH1 0x9 MUL ADD PUSH1 0x4 ADD PUSH0 DUP3 DUP3 SLOAD PUSH2 0x182E SWAP2 SWAP1 PUSH2 0x375B JUMP JUMPDEST SWAP3 POP POP DUP2 SWAP1 SSTORE POP PUSH1 0x1 PUSH1 0x3 DUP4 DUP2 SLOAD DUP2 LT PUSH2 0x184B JUMPI PUSH2 0x184A PUSH2 0x30D1 JUMP JUMPDEST JUMPDEST SWAP1 PUSH0 MSTORE PUSH1 0x20 PUSH0 KECCAK256 SWAP1 PUSH1 0x9 MUL ADD PUSH1 0x3 ADD PUSH0 DUP3 DUP3 SLOAD PUSH2 0x1868 SWAP2 SWAP1 PUSH2 0x32FF JUMP JUMPDEST SWAP3 POP POP DUP2 SWAP1 SSTORE POP POP POP JUMP JUMPDEST DUP1 CALLER PUSH20 0xFFFFFFFFFFFFFFFFFFFFFFFFFFFFFFFFFFFFFFFF AND PUSH0 DUP1 DUP4 DUP2 MSTORE PUSH1 0x20 ADD SWAP1 DUP2 MSTORE PUSH1 0x20 ADD PUSH0 KECCAK256 PUSH0 SWAP1 SLOAD SWAP1 PUSH2 0x100 EXP SWAP1 DIV PUSH20 0xFFFFFFFFFFFFFFFFFFFFFFFFFFFFFFFFFFFFFFFF AND PUSH20 0xFFFFFFFFFFFFFFFFFFFFFFFFFFFFFFFFFFFFFFFF AND EQ PUSH2 0x1911 JUMPI PUSH1 0x40 MLOAD PUSH32 0x8C379A000000000000000000000000000000000000000000000000000000000 DUP2 MSTORE PUSH1 0x4 ADD PUSH2 0x1908 SWAP1 PUSH2 0x30B3 JUMP JUMPDEST PUSH1 0x40 MLOAD DUP1 SWAP2 SUB SWAP1 REVERT JUMPDEST PUSH1 0x1 ISZERO ISZERO PUSH1 0x6 PUSH0 DUP5 DUP2 MSTORE PUSH1 0x20 ADD SWAP1 DUP2 MSTORE PUSH1 0x20 ADD PUSH0 KECCAK256 PUSH0 SWAP1 SLOAD SWAP1 PUSH2 0x100 EXP SWAP1 DIV PUSH1 0xFF AND ISZERO ISZERO EQ PUSH2 0x1975 JUMPI PUSH1 0x40 MLOAD PUSH32 0x8C379A000000000000000000000000000000000000000000000000000000000 DUP2 MSTORE PUSH1 0x4 ADD PUSH2 0x196C SWAP1 PUSH2 0x37D8 JUMP JUMPDEST PUSH1 0x40 MLOAD DUP1 SWAP2 SUB SWAP1 REVERT JUMPDEST PUSH1 0x9 PUSH0 DUP4 DUP2 MSTORE PUSH1 0x20 ADD SWAP1 DUP2 MSTORE PUSH1 0x20 ADD PUSH0 KECCAK256 SLOAD TIMESTAMP LT ISZERO PUSH2 0x19C9 JUMPI PUSH1 0x40 MLOAD PUSH32 0x8C379A000000000000000000000000000000000000000000000000000000000 DUP2 MSTORE PUSH1 0x4 ADD PUSH2 0x19C0 SWAP1 PUSH2 0x3840 JUMP JUMPDEST PUSH1 0x40 MLOAD DUP1 SWAP2 SUB SWAP1 REVERT JUMPDEST PUSH0 PUSH1 0x6 PUSH0 DUP5 DUP2 MSTORE PUSH1 0x20 ADD SWAP1 DUP2 MSTORE PUSH1 0x20 ADD PUSH0 KECCAK256 PUSH0 PUSH2 0x100 EXP DUP2 SLOAD DUP2 PUSH1 0xFF MUL NOT AND SWAP1 DUP4 ISZERO ISZERO MUL OR SWAP1 SSTORE POP PUSH0 PUSH1 0xA PUSH0 DUP5 DUP2 MSTORE PUSH1 0x20 ADD SWAP1 DUP2 MSTORE PUSH1 0x20 ADD PUSH0 KECCAK256 PUSH0 PUSH2 0x100 EXP DUP2 SLOAD DUP2 PUSH1 0xFF MUL NOT AND SWAP1 DUP4 ISZERO ISZERO MUL OR SWAP1 SSTORE POP PUSH0 PUSH1 0xC PUSH0 DUP5 DUP2 MSTORE PUSH1 0x20 ADD SWAP1 DUP2 MSTORE PUSH1 0x20 ADD PUSH0 KECCAK256 PUSH0 PUSH2 0x100 EXP DUP2 SLOAD DUP2 PUSH20 0xFFFFFFFFFFFFFFFFFFFFFFFFFFFFFFFFFFFFFFFF MUL NOT AND SWAP1 DUP4 PUSH20 0xFFFFFFFFFFFFFFFFFFFFFFFFFFFFFFFFFFFFFFFF AND MUL OR SWAP1 SSTORE POP POP POP JUMP JUMPDEST PUSH0 TIMESTAMP PUSH1 0x9 PUSH0 DUP5 DUP2 MSTORE PUSH1 0x20 ADD SWAP1 DUP2 MSTORE PUSH1 0x20 ADD PUSH0 KECCAK256 SLOAD GT PUSH2 0x1AC0 JUMPI PUSH1 0x40 MLOAD PUSH32 0x8C379A000000000000000000000000000000000000000000000000000000000 DUP2 MSTORE PUSH1 0x4 ADD PUSH2 0x1AB7 SWAP1 PUSH2 0x38A8 JUMP JUMPDEST PUSH1 0x40 MLOAD DUP1 SWAP2 SUB SWAP1 REVERT JUMPDEST PUSH1 0xD PUSH0 DUP4 DUP2 MSTORE PUSH1 0x20 ADD SWAP1 DUP2 MSTORE PUSH1 0x20 ADD PUSH0 KECCAK256 SLOAD CALLVALUE EQ PUSH2 0x1B13 JUMPI PUSH1 0x40 MLOAD PUSH32 0x8C379A000000000000000000000000000000000000000000000000000000000 DUP2 MSTORE PUSH1 0x4 ADD PUSH2 0x1B0A SWAP1 PUSH2 0x3910 JUMP JUMPDEST PUSH1 0x40 MLOAD DUP1 SWAP2 SUB SWAP1 REVERT JUMPDEST PUSH1 0xA PUSH0 DUP4 DUP2 MSTORE PUSH1 0x20 ADD SWAP1 DUP2 MSTORE PUSH1 0x20 ADD PUSH0 KECCAK256 PUSH0 SWAP1 SLOAD SWAP1 PUSH2 0x100 EXP SWAP1 DIV PUSH1 0xFF AND ISZERO DUP1 ISZERO PUSH2 0x1B85 JUMPI POP PUSH1 0xB PUSH0 CALLER PUSH20 0xFFFFFFFFFFFFFFFFFFFFFFFFFFFFFFFFFFFFFFFF AND PUSH20 0xFFFFFFFFFFFFFFFFFFFFFFFFFFFFFFFFFFFFFFFF AND DUP2 MSTORE PUSH1 0x20 ADD SWAP1 DUP2 MSTORE PUSH1 0x20 ADD PUSH0 KECCAK256 PUSH0 SWAP1 SLOAD SWAP1 PUSH2 0x100 EXP SWAP1 DIV PUSH1 0xFF AND ISZERO JUMPDEST PUSH2 0x1BC4 JUMPI PUSH1 0x40 MLOAD PUSH32 0x8C379A000000000000000000000000000000000000000000000000000000000 DUP2 MSTORE PUSH1 0x4 ADD PUSH2 0x1BBB SWAP1 PUSH2 0x3978 JUMP JUMPDEST PUSH1 0x40 MLOAD DUP1 SWAP2 SUB SWAP1 REVERT JUMPDEST CALLER PUSH20 0xFFFFFFFFFFFFFFFFFFFFFFFFFFFFFFFFFFFFFFFF AND PUSH0 DUP1 DUP5 DUP2 MSTORE PUSH1 0x20 ADD SWAP1 DUP2 MSTORE PUSH1 0x20 ADD PUSH0 KECCAK256 PUSH0 SWAP1 SLOAD SWAP1 PUSH2 0x100 EXP SWAP1 DIV PUSH20 0xFFFFFFFFFFFFFFFFFFFFFFFFFFFFFFFFFFFFFFFF AND PUSH20 0xFFFFFFFFFFFFFFFFFFFFFFFFFFFFFFFFFFFFFFFF AND SUB PUSH2 0x1C61 JUMPI PUSH1 0x40 MLOAD PUSH32 0x8C379A000000000000000000000000000000000000000000000000000000000 DUP2 MSTORE PUSH1 0x4 ADD PUSH2 0x1C58 SWAP1 PUSH2 0x39E0 JUMP JUMPDEST PUSH1 0x40 MLOAD DUP1 SWAP2 SUB SWAP1 REVERT JUMPDEST PUSH1 0x1 ISZERO ISZERO PUSH1 0x6 PUSH0 DUP5 DUP2 MSTORE PUSH1 0x20 ADD SWAP1 DUP2 MSTORE PUSH1 0x20 ADD PUSH0 KECCAK256 PUSH0 SWAP1 SLOAD SWAP1 PUSH2 0x100 EXP SWAP1 DIV PUSH1 0xFF AND ISZERO ISZERO EQ PUSH2 0x1CC5 JUMPI PUSH1 0x40 MLOAD PUSH32 0x8C379A000000000000000000000000000000000000000000000000000000000 DUP2 MSTORE PUSH1 0x4 ADD PUSH2 0x1CBC SWAP1 PUSH2 0x3A48 JUMP JUMPDEST PUSH1 0x40 MLOAD DUP1 SWAP2 SUB SWAP1 REVERT JUMPDEST PUSH0 DUP1 DUP4 DUP2 MSTORE PUSH1 0x20 ADD SWAP1 DUP2 MSTORE PUSH1 0x20 ADD PUSH0 KECCAK256 PUSH0 SWAP1 SLOAD SWAP1 PUSH2 0x100 EXP SWAP1 DIV PUSH20 0xFFFFFFFFFFFFFFFFFFFFFFFFFFFFFFFFFFFFFFFF AND PUSH20 0xFFFFFFFFFFFFFFFFFFFFFFFFFFFFFFFFFFFFFFFF AND PUSH2 0x8FC CALLVALUE SWAP1 DUP2 ISZERO MUL SWAP1 PUSH1 0x40 MLOAD PUSH0 PUSH1 0x40 MLOAD DUP1 DUP4 SUB DUP2 DUP6 DUP9 DUP9 CALL SWAP4 POP POP POP POP ISZERO DUP1 ISZERO PUSH2 0x1D37 JUMPI RETURNDATASIZE PUSH0 DUP1 RETURNDATACOPY RETURNDATASIZE PUSH0 REVERT JUMPDEST POP CALLER PUSH1 0xC PUSH0 DUP5 DUP2 MSTORE PUSH1 0x20 ADD SWAP1 DUP2 MSTORE PUSH1 0x20 ADD PUSH0 KECCAK256 PUSH0 PUSH2 0x100 EXP DUP2 SLOAD DUP2 PUSH20 0xFFFFFFFFFFFFFFFFFFFFFFFFFFFFFFFFFFFFFFFF MUL NOT AND SWAP1 DUP4 PUSH20 0xFFFFFFFFFFFFFFFFFFFFFFFFFFFFFFFFFFFFFFFF AND MUL OR SWAP1 SSTORE POP PUSH1 0x1 PUSH1 0xB PUSH0 CALLER PUSH20 0xFFFFFFFFFFFFFFFFFFFFFFFFFFFFFFFFFFFFFFFF AND PUSH20 0xFFFFFFFFFFFFFFFFFFFFFFFFFFFFFFFFFFFFFFFF AND DUP2 MSTORE PUSH1 0x20 ADD SWAP1 DUP2 MSTORE PUSH1 0x20 ADD PUSH0 KECCAK256 PUSH0 PUSH2 0x100 EXP DUP2 SLOAD DUP2 PUSH1 0xFF MUL NOT AND SWAP1 DUP4 ISZERO ISZERO MUL OR SWAP1 SSTORE POP PUSH1 0x1 PUSH1 0xA PUSH0 DUP5 DUP2 MSTORE PUSH1 0x20 ADD SWAP1 DUP2 MSTORE PUSH1 0x20 ADD PUSH0 KECCAK256 PUSH0 PUSH2 0x100 EXP DUP2 SLOAD DUP2 PUSH1 0xFF MUL NOT AND SWAP1 DUP4 ISZERO ISZERO MUL OR SWAP1 SSTORE POP PUSH1 0x1 SWAP1 POP SWAP2 SWAP1 POP JUMP JUMPDEST PUSH0 DUP2 CALLER PUSH20 0xFFFFFFFFFFFFFFFFFFFFFFFFFFFFFFFFFFFFFFFF AND PUSH0 DUP1 DUP4 DUP2 MSTORE PUSH1 0x20 ADD SWAP1 DUP2 MSTORE PUSH1 0x20 ADD PUSH0 KECCAK256 PUSH0 SWAP1 SLOAD SWAP1 PUSH2 0x100 EXP SWAP1 DIV PUSH20 0xFFFFFFFFFFFFFFFFFFFFFFFFFFFFFFFFFFFFFFFF AND PUSH20 0xFFFFFFFFFFFFFFFFFFFFFFFFFFFFFFFFFFFFFFFF AND EQ PUSH2 0x1EAD JUMPI PUSH1 0x40 MLOAD PUSH32 0x8C379A000000000000000000000000000000000000000000000000000000000 DUP2 MSTORE PUSH1 0x4 ADD PUSH2 0x1EA4 SWAP1 PUSH2 0x30B3 JUMP JUMPDEST PUSH1 0x40 MLOAD DUP1 SWAP2 SUB SWAP1 REVERT JUMPDEST PUSH0 PUSH1 0x3 DUP5 DUP2 SLOAD DUP2 LT PUSH2 0x1EC2 JUMPI PUSH2 0x1EC1 PUSH2 0x30D1 JUMP JUMPDEST JUMPDEST SWAP1 PUSH0 MSTORE PUSH1 0x20 PUSH0 KECCAK256 SWAP1 PUSH1 0x9 MUL ADD PUSH1 0x6 ADD SLOAD EQ DUP1 ISZERO PUSH2 0x1EEF JUMPI POP PUSH0 PUSH1 0xE PUSH0 DUP6 DUP2 MSTORE PUSH1 0x20 ADD SWAP1 DUP2 MSTORE PUSH1 0x20 ADD PUSH0 KECCAK256 SLOAD EQ JUMPDEST PUSH2 0x1F2E JUMPI PUSH1 0x40 MLOAD PUSH32 0x8C379A000000000000000000000000000000000000000000000000000000000 DUP2 MSTORE PUSH1 0x4 ADD PUSH2 0x1F25 SWAP1 PUSH2 0x3AD6 JUMP JUMPDEST PUSH1 0x40 MLOAD DUP1 SWAP2 SUB SWAP1 REVERT JUMPDEST PUSH3 0x15180 TIMESTAMP PUSH2 0x1F3D SWAP2 SWAP1 PUSH2 0x32FF JUMP JUMPDEST PUSH1 0xE PUSH0 DUP6 DUP2 MSTORE PUSH1 0x20 ADD SWAP1 DUP2 MSTORE PUSH1 0x20 ADD PUSH0 KECCAK256 DUP2 SWAP1 SSTORE POP PUSH1 0xE PUSH0 DUP5 DUP2 MSTORE PUSH1 0x20 ADD SWAP1 DUP2 MSTORE PUSH1 0x20 ADD PUSH0 KECCAK256 SLOAD TIMESTAMP LT PUSH2 0x1FA5 JUMPI PUSH1 0x5 PUSH1 0x3 DUP5 DUP2 SLOAD DUP2 LT PUSH2 0x1F80 JUMPI PUSH2 0x1F7F PUSH2 0x30D1 JUMP JUMPDEST JUMPDEST SWAP1 PUSH0 MSTORE PUSH1 0x20 PUSH0 KECCAK256 SWAP1 PUSH1 0x9 MUL ADD PUSH1 0x6 ADD PUSH0 DUP3 DUP3 SLOAD PUSH2 0x1F9D SWAP2 SWAP1 PUSH2 0x32FF JUMP JUMPDEST SWAP3 POP POP DUP2 SWAP1 SSTORE POP JUMPDEST PUSH1 0x1 SWAP2 POP POP SWAP2 SWAP1 POP JUMP JUMPDEST PUSH1 0x6 PUSH1 0x20 MSTORE DUP1 PUSH0 MSTORE PUSH1 0x40 PUSH0 KECCAK256 PUSH0 SWAP2 POP SLOAD SWAP1 PUSH2 0x100 EXP SWAP1 DIV PUSH1 0xFF AND DUP2 JUMP JUMPDEST PUSH0 DUP1 DUP3 PUSH1 0x40 MLOAD PUSH1 0x20 ADD PUSH2 0x1FDF SWAP2 SWAP1 PUSH2 0x3B2E JUMP JUMPDEST PUSH1 0x40 MLOAD PUSH1 0x20 DUP2 DUP4 SUB SUB DUP2 MSTORE SWAP1 PUSH1 0x40 MSTORE DUP1 MLOAD SWAP1 PUSH1 0x20 ADD KECCAK256 PUSH0 SHR SWAP1 POP PUSH1 0x2 SLOAD DUP2 PUSH2 0x2007 SWAP2 SWAP1 PUSH2 0x32A2 JUMP JUMPDEST SWAP2 POP POP SWAP2 SWAP1 POP JUMP JUMPDEST PUSH1 0x3 PUSH1 0x40 MLOAD DUP1 PUSH2 0x120 ADD PUSH1 0x40 MSTORE DUP1 DUP12 DUP2 MSTORE PUSH1 0x20 ADD DUP11 DUP2 MSTORE PUSH1 0x20 ADD DUP10 DUP2 MSTORE PUSH1 0x20 ADD DUP9 DUP2 MSTORE PUSH1 0x20 ADD DUP8 DUP2 MSTORE PUSH1 0x20 ADD DUP7 DUP2 MSTORE PUSH1 0x20 ADD DUP6 DUP2 MSTORE PUSH1 0x20 ADD DUP5 DUP2 MSTORE PUSH1 0x20 ADD DUP4 DUP2 MSTORE POP SWAP1 DUP1 PUSH1 0x1 DUP2 SLOAD ADD DUP1 DUP3 SSTORE DUP1 SWAP2 POP POP PUSH1 0x1 SWAP1 SUB SWAP1 PUSH0 MSTORE PUSH1 0x20 PUSH0 KECCAK256 SWAP1 PUSH1 0x9 MUL ADD PUSH0 SWAP1 SWAP2 SWAP1 SWAP2 SWAP1 SWAP2 POP PUSH0 DUP3 ADD MLOAD DUP2 PUSH0 ADD SWAP1 DUP2 PUSH2 0x208A SWAP2 SWAP1 PUSH2 0x3CE1 JUMP JUMPDEST POP PUSH1 0x20 DUP3 ADD MLOAD DUP2 PUSH1 0x1 ADD SWAP1 DUP2 PUSH2 0x20A0 SWAP2 SWAP1 PUSH2 0x3CE1 JUMP JUMPDEST POP PUSH1 0x40 DUP3 ADD MLOAD DUP2 PUSH1 0x2 ADD SSTORE PUSH1 0x60 DUP3 ADD MLOAD DUP2 PUSH1 0x3 ADD SSTORE PUSH1 0x80 DUP3 ADD MLOAD DUP2 PUSH1 0x4 ADD SSTORE PUSH1 0xA0 DUP3 ADD MLOAD DUP2 PUSH1 0x5 ADD SSTORE PUSH1 0xC0 DUP3 ADD MLOAD DUP2 PUSH1 0x6 ADD SSTORE PUSH1 0xE0 DUP3 ADD MLOAD DUP2 PUSH1 0x7 ADD SSTORE PUSH2 0x100 DUP3 ADD MLOAD DUP2 PUSH1 0x8 ADD SSTORE POP POP PUSH0 PUSH1 0x1 PUSH1 0x3 DUP1 SLOAD SWAP1 POP PUSH2 0x20FD SWAP2 SWAP1 PUSH2 0x375B JUMP JUMPDEST SWAP1 POP PUSH1 0x1 PUSH0 CALLER PUSH20 0xFFFFFFFFFFFFFFFFFFFFFFFFFFFFFFFFFFFFFFFF AND PUSH20 0xFFFFFFFFFFFFFFFFFFFFFFFFFFFFFFFFFFFFFFFF AND DUP2 MSTORE PUSH1 0x20 ADD SWAP1 DUP2 MSTORE PUSH1 0x20 ADD PUSH0 KECCAK256 PUSH0 DUP2 SLOAD DUP1 SWAP3 SWAP2 SWAP1 PUSH2 0x214C SWAP1 PUSH2 0x3332 JUMP JUMPDEST SWAP2 SWAP1 POP SSTORE POP CALLER PUSH0 DUP1 DUP4 DUP2 MSTORE PUSH1 0x20 ADD SWAP1 DUP2 MSTORE PUSH1 0x20 ADD PUSH0 KECCAK256 PUSH0 PUSH2 0x100 EXP DUP2 SLOAD DUP2 PUSH20 0xFFFFFFFFFFFFFFFFFFFFFFFFFFFFFFFFFFFFFFFF MUL NOT AND SWAP1 DUP4 PUSH20 0xFFFFFFFFFFFFFFFFFFFFFFFFFFFFFFFFFFFFFFFF AND MUL OR SWAP1 SSTORE POP POP POP POP POP POP POP POP POP POP POP JUMP JUMPDEST PUSH1 0x60 PUSH0 PUSH2 0x21B6 PUSH2 0x2932 JUMP JUMPDEST SWAP1 POP PUSH1 0x1 PUSH1 0x3 DUP5 DUP2 SLOAD DUP2 LT PUSH2 0x21CE JUMPI PUSH2 0x21CD PUSH2 0x30D1 JUMP JUMPDEST JUMPDEST SWAP1 PUSH0 MSTORE PUSH1 0x20 PUSH0 KECCAK256 SWAP1 PUSH1 0x9 MUL ADD PUSH1 0x6 ADD SLOAD LT ISZERO PUSH2 0x221F JUMPI PUSH1 0x40 MLOAD PUSH32 0x8C379A000000000000000000000000000000000000000000000000000000000 DUP2 MSTORE PUSH1 0x4 ADD PUSH2 0x2216 SWAP1 PUSH2 0x3DFA JUMP JUMPDEST PUSH1 0x40 MLOAD DUP1 SWAP2 SUB SWAP1 REVERT JUMPDEST PUSH1 0x1 PUSH1 0x3 DUP3 DUP2 SLOAD DUP2 LT PUSH2 0x2235 JUMPI PUSH2 0x2234 PUSH2 0x30D1 JUMP JUMPDEST JUMPDEST SWAP1 PUSH0 MSTORE PUSH1 0x20 PUSH0 KECCAK256 SWAP1 PUSH1 0x9 MUL ADD PUSH1 0x6 ADD SLOAD LT ISZERO PUSH2 0x2286 JUMPI PUSH1 0x40 MLOAD PUSH32 0x8C379A000000000000000000000000000000000000000000000000000000000 DUP2 MSTORE PUSH1 0x4 ADD PUSH2 0x227D SWAP1 PUSH2 0x3E62 JUMP JUMPDEST PUSH1 0x40 MLOAD DUP1 SWAP2 SUB SWAP1 REVERT JUMPDEST PUSH1 0x3 DUP2 DUP2 SLOAD DUP2 LT PUSH2 0x229A JUMPI PUSH2 0x2299 PUSH2 0x30D1 JUMP JUMPDEST JUMPDEST SWAP1 PUSH0 MSTORE PUSH1 0x20 PUSH0 KECCAK256 SWAP1 PUSH1 0x9 MUL ADD PUSH1 0x3 ADD SLOAD PUSH1 0x3 DUP5 DUP2 SLOAD DUP2 LT PUSH2 0x22BE JUMPI PUSH2 0x22BD PUSH2 0x30D1 JUMP JUMPDEST JUMPDEST SWAP1 PUSH0 MSTORE PUSH1 0x20 PUSH0 KECCAK256 SWAP1 PUSH1 0x9 MUL ADD PUSH1 0x3 ADD SLOAD GT ISZERO PUSH2 0x250C JUMPI PUSH1 0x3 DUP4 DUP2 SLOAD DUP2 LT PUSH2 0x22E8 JUMPI PUSH2 0x22E7 PUSH2 0x30D1 JUMP JUMPDEST JUMPDEST SWAP1 PUSH0 MSTORE PUSH1 0x20 PUSH0 KECCAK256 SWAP1 PUSH1 0x9 MUL ADD PUSH1 0x3 ADD PUSH0 DUP2 SLOAD DUP1 SWAP3 SWAP2 SWAP1 PUSH2 0x2307 SWAP1 PUSH2 0x3332 JUMP JUMPDEST SWAP2 SWAP1 POP SSTORE POP PUSH1 0x3 DUP4 DUP2 SLOAD DUP2 LT PUSH2 0x2320 JUMPI PUSH2 0x231F PUSH2 0x30D1 JUMP JUMPDEST JUMPDEST SWAP1 PUSH0 MSTORE PUSH1 0x20 PUSH0 KECCAK256 SWAP1 PUSH1 0x9 MUL ADD PUSH1 0x5 ADD PUSH0 DUP2 SLOAD DUP1 SWAP3 SWAP2 SWAP1 PUSH2 0x233F SWAP1 PUSH2 0x3332 JUMP JUMPDEST SWAP2 SWAP1 POP SSTORE POP PUSH1 0x3 DUP4 DUP2 SLOAD DUP2 LT PUSH2 0x2358 JUMPI PUSH2 0x2357 PUSH2 0x30D1 JUMP JUMPDEST JUMPDEST SWAP1 PUSH0 MSTORE PUSH1 0x20 PUSH0 KECCAK256 SWAP1 PUSH1 0x9 MUL ADD PUSH1 0x6 ADD PUSH0 DUP2 SLOAD DUP1 SWAP3 SWAP2 SWAP1 PUSH2 0x2377 SWAP1 PUSH2 0x34B1 JUMP JUMPDEST SWAP2 SWAP1 POP SSTORE POP PUSH1 0x3 DUP4 DUP2 SLOAD DUP2 LT PUSH2 0x2390 JUMPI PUSH2 0x238F PUSH2 0x30D1 JUMP JUMPDEST JUMPDEST SWAP1 PUSH0 MSTORE PUSH1 0x20 PUSH0 KECCAK256 SWAP1 PUSH1 0x9 MUL ADD PUSH1 0x7 ADD PUSH0 DUP2 SLOAD DUP1 SWAP3 SWAP2 SWAP1 PUSH2 0x23AF SWAP1 PUSH2 0x3332 JUMP JUMPDEST SWAP2 SWAP1 POP SSTORE POP PUSH1 0x64 PUSH1 0x3 DUP5 DUP2 SLOAD DUP2 LT PUSH2 0x23CA JUMPI PUSH2 0x23C9 PUSH2 0x30D1 JUMP JUMPDEST JUMPDEST SWAP1 PUSH0 MSTORE PUSH1 0x20 PUSH0 KECCAK256 SWAP1 PUSH1 0x9 MUL ADD PUSH1 0x4 ADD PUSH0 DUP3 DUP3 SLOAD PUSH2 0x23E7 SWAP2 SWAP1 PUSH2 0x32FF JUMP JUMPDEST SWAP3 POP POP DUP2 SWAP1 SSTORE POP PUSH1 0x3 DUP2 DUP2 SLOAD DUP2 LT PUSH2 0x2402 JUMPI PUSH2 0x2401 PUSH2 0x30D1 JUMP JUMPDEST JUMPDEST SWAP1 PUSH0 MSTORE PUSH1 0x20 PUSH0 KECCAK256 SWAP1 PUSH1 0x9 MUL ADD PUSH1 0x3 ADD PUSH0 DUP2 SLOAD DUP1 SWAP3 SWAP2 SWAP1 PUSH2 0x2421 SWAP1 PUSH2 0x34B1 JUMP JUMPDEST SWAP2 SWAP1 POP SSTORE POP PUSH1 0x3 DUP2 DUP2 SLOAD DUP2 LT PUSH2 0x243A JUMPI PUSH2 0x2439 PUSH2 0x30D1 JUMP JUMPDEST JUMPDEST SWAP1 PUSH0 MSTORE PUSH1 0x20 PUSH0 KECCAK256 SWAP1 PUSH1 0x9 MUL ADD PUSH1 0x5 ADD PUSH0 DUP2 SLOAD DUP1 SWAP3 SWAP2 SWAP1 PUSH2 0x2459 SWAP1 PUSH2 0x3332 JUMP JUMPDEST SWAP2 SWAP1 POP SSTORE POP PUSH1 0x3 DUP2 DUP2 SLOAD DUP2 LT PUSH2 0x2472 JUMPI PUSH2 0x2471 PUSH2 0x30D1 JUMP JUMPDEST JUMPDEST SWAP1 PUSH0 MSTORE PUSH1 0x20 PUSH0 KECCAK256 SWAP1 PUSH1 0x9 MUL ADD PUSH1 0x6 ADD PUSH0 DUP2 SLOAD DUP1 SWAP3 SWAP2 SWAP1 PUSH2 0x2491 SWAP1 PUSH2 0x34B1 JUMP JUMPDEST SWAP2 SWAP1 POP SSTORE POP PUSH1 0x3 DUP2 DUP2 SLOAD DUP2 LT PUSH2 0x24AA JUMPI PUSH2 0x24A9 PUSH2 0x30D1 JUMP JUMPDEST JUMPDEST SWAP1 PUSH0 MSTORE PUSH1 0x20 PUSH0 KECCAK256 SWAP1 PUSH1 0x9 MUL ADD PUSH1 0x8 ADD PUSH0 DUP2 SLOAD DUP1 SWAP3 SWAP2 SWAP1 PUSH2 0x24C9 SWAP1 PUSH2 0x3332 JUMP JUMPDEST SWAP2 SWAP1 POP SSTORE POP PUSH1 0x40 MLOAD DUP1 PUSH1 0x40 ADD PUSH1 0x40 MSTORE DUP1 PUSH1 0xE DUP2 MSTORE PUSH1 0x20 ADD PUSH32 0x436F6E67726174732057696E732E000000000000000000000000000000000000 DUP2 MSTORE POP SWAP2 POP POP PUSH2 0x288F JUMP JUMPDEST PUSH1 0x3 DUP4 DUP2 SLOAD DUP2 LT PUSH2 0x2520 JUMPI PUSH2 0x251F PUSH2 0x30D1 JUMP JUMPDEST JUMPDEST SWAP1 PUSH0 MSTORE PUSH1 0x20 PUSH0 KECCAK256 SWAP1 PUSH1 0x9 MUL ADD PUSH1 0x3 ADD SLOAD PUSH1 0x3 DUP3 DUP2 SLOAD DUP2 LT PUSH2 0x2544 JUMPI PUSH2 0x2543 PUSH2 0x30D1 JUMP JUMPDEST JUMPDEST SWAP1 PUSH0 MSTORE PUSH1 0x20 PUSH0 KECCAK256 SWAP1 PUSH1 0x9 MUL ADD PUSH1 0x3 ADD SLOAD GT ISZERO PUSH2 0x2775 JUMPI PUSH1 0x3 DUP2 DUP2 SLOAD DUP2 LT PUSH2 0x256E JUMPI PUSH2 0x256D PUSH2 0x30D1 JUMP JUMPDEST JUMPDEST SWAP1 PUSH0 MSTORE PUSH1 0x20 PUSH0 KECCAK256 SWAP1 PUSH1 0x9 MUL ADD PUSH1 0x3 ADD PUSH0 DUP2 SLOAD DUP1 SWAP3 SWAP2 SWAP1 PUSH2 0x258D SWAP1 PUSH2 0x3332 JUMP JUMPDEST SWAP2 SWAP1 POP SSTORE POP PUSH1 0x3 DUP2 DUP2 SLOAD DUP2 LT PUSH2 0x25A6 JUMPI PUSH2 0x25A5 PUSH2 0x30D1 JUMP JUMPDEST JUMPDEST SWAP1 PUSH0 MSTORE PUSH1 0x20 PUSH0 KECCAK256 SWAP1 PUSH1 0x9 MUL ADD PUSH1 0x5 ADD PUSH0 DUP2 SLOAD DUP1 SWAP3 SWAP2 SWAP1 PUSH2 0x25C5 SWAP1 PUSH2 0x3332 JUMP JUMPDEST SWAP2 SWAP1 POP SSTORE POP PUSH1 0x3 DUP2 DUP2 SLOAD DUP2 LT PUSH2 0x25DE JUMPI PUSH2 0x25DD PUSH2 0x30D1 JUMP JUMPDEST JUMPDEST SWAP1 PUSH0 MSTORE PUSH1 0x20 PUSH0 KECCAK256 SWAP1 PUSH1 0x9 MUL ADD PUSH1 0x6 ADD PUSH0 DUP2 SLOAD DUP1 SWAP3 SWAP2 SWAP1 PUSH2 0x25FD SWAP1 PUSH2 0x34B1 JUMP JUMPDEST SWAP2 SWAP1 POP SSTORE POP PUSH1 0x3 DUP2 DUP2 SLOAD DUP2 LT PUSH2 0x2616 JUMPI PUSH2 0x2615 PUSH2 0x30D1 JUMP JUMPDEST JUMPDEST SWAP1 PUSH0 MSTORE PUSH1 0x20 PUSH0 KECCAK256 SWAP1 PUSH1 0x9 MUL ADD PUSH1 0x7 ADD PUSH0 DUP2 SLOAD DUP1 SWAP3 SWAP2 SWAP1 PUSH2 0x2635 SWAP1 PUSH2 0x3332 JUMP JUMPDEST SWAP2 SWAP1 POP SSTORE POP PUSH1 0x64 PUSH1 0x3 DUP3 DUP2 SLOAD DUP2 LT PUSH2 0x2650 JUMPI PUSH2 0x264F PUSH2 0x30D1 JUMP JUMPDEST JUMPDEST SWAP1 PUSH0 MSTORE PUSH1 0x20 PUSH0 KECCAK256 SWAP1 PUSH1 0x9 MUL ADD PUSH1 0x4 ADD PUSH0 DUP3 DUP3 SLOAD PUSH2 0x266D SWAP2 SWAP1 PUSH2 0x32FF JUMP JUMPDEST SWAP3 POP POP DUP2 SWAP1 SSTORE POP PUSH1 0x3 DUP4 DUP2 SLOAD DUP2 LT PUSH2 0x2688 JUMPI PUSH2 0x2687 PUSH2 0x30D1 JUMP JUMPDEST JUMPDEST SWAP1 PUSH0 MSTORE PUSH1 0x20 PUSH0 KECCAK256 SWAP1 PUSH1 0x9 MUL ADD PUSH1 0x3 ADD PUSH0 DUP2 SLOAD DUP1 SWAP3 SWAP2 SWAP1 PUSH2 0x26A7 SWAP1 PUSH2 0x34B1 JUMP JUMPDEST SWAP2 SWAP1 POP SSTORE POP PUSH1 0x3 DUP4 DUP2 SLOAD DUP2 LT PUSH2 0x26C0 JUMPI PUSH2 0x26BF PUSH2 0x30D1 JUMP JUMPDEST JUMPDEST SWAP1 PUSH0 MSTORE PUSH1 0x20 PUSH0 KECCAK256 SWAP1 PUSH1 0x9 MUL ADD PUSH1 0x5 ADD PUSH0 DUP2 SLOAD DUP1 SWAP3 SWAP2 SWAP1 PUSH2 0x26DF SWAP1 PUSH2 0x3332 JUMP JUMPDEST SWAP2 SWAP1 POP SSTORE POP PUSH1 0x3 DUP4 DUP2 SLOAD DUP2 LT PUSH2 0x26F8 JUMPI PUSH2 0x26F7 PUSH2 0x30D1 JUMP JUMPDEST JUMPDEST SWAP1 PUSH0 MSTORE PUSH1 0x20 PUSH0 KECCAK256 SWAP1 PUSH1 0x9 MUL ADD PUSH1 0x6 ADD PUSH0 DUP2 SLOAD DUP1 SWAP3 SWAP2 SWAP1 PUSH2 0x2717 SWAP1 PUSH2 0x34B1 JUMP JUMPDEST SWAP2 SWAP1 POP SSTORE POP PUSH1 0x3 DUP4 DUP2 SLOAD DUP2 LT PUSH2 0x2730 JUMPI PUSH2 0x272F PUSH2 0x30D1 JUMP JUMPDEST JUMPDEST SWAP1 PUSH0 MSTORE PUSH1 0x20 PUSH0 KECCAK256 SWAP1 PUSH1 0x9 MUL ADD PUSH1 0x8 ADD PUSH0 DUP2 SLOAD DUP1 SWAP3 SWAP2 SWAP1 PUSH2 0x274F SWAP1 PUSH2 0x3332 JUMP JUMPDEST SWAP2 SWAP1 POP SSTORE POP PUSH1 0x40 MLOAD DUP1 PUSH1 0x60 ADD PUSH1 0x40 MSTORE DUP1 PUSH1 0x31 DUP2 MSTORE PUSH1 0x20 ADD PUSH2 0x3E81 PUSH1 0x31 SWAP2 CODECOPY SWAP2 POP POP PUSH2 0x288F JUMP JUMPDEST PUSH1 0x3 DUP2 DUP2 SLOAD DUP2 LT PUSH2 0x2789 JUMPI PUSH2 0x2788 PUSH2 0x30D1 JUMP JUMPDEST JUMPDEST SWAP1 PUSH0 MSTORE PUSH1 0x20 PUSH0 KECCAK256 SWAP1 PUSH1 0x9 MUL ADD PUSH1 0x5 ADD PUSH0 DUP2 SLOAD DUP1 SWAP3 SWAP2 SWAP1 PUSH2 0x27A8 SWAP1 PUSH2 0x3332 JUMP JUMPDEST SWAP2 SWAP1 POP SSTORE POP PUSH1 0x3 DUP4 DUP2 SLOAD DUP2 LT PUSH2 0x27C1 JUMPI PUSH2 0x27C0 PUSH2 0x30D1 JUMP JUMPDEST JUMPDEST SWAP1 PUSH0 MSTORE PUSH1 0x20 PUSH0 KECCAK256 SWAP1 PUSH1 0x9 MUL ADD PUSH1 0x5 ADD PUSH0 DUP2 SLOAD DUP1 SWAP3 SWAP2 SWAP1 PUSH2 0x27E0 SWAP1 PUSH2 0x3332 JUMP JUMPDEST SWAP2 SWAP1 POP SSTORE POP PUSH1 0x3 DUP4 DUP2 SLOAD DUP2 LT PUSH2 0x27F9 JUMPI PUSH2 0x27F8 PUSH2 0x30D1 JUMP JUMPDEST JUMPDEST SWAP1 PUSH0 MSTORE PUSH1 0x20 PUSH0 KECCAK256 SWAP1 PUSH1 0x9 MUL ADD PUSH1 0x6 ADD PUSH0 DUP2 SLOAD DUP1 SWAP3 SWAP2 SWAP1 PUSH2 0x2818 SWAP1 PUSH2 0x34B1 JUMP JUMPDEST SWAP2 SWAP1 POP SSTORE POP PUSH1 0x3 DUP2 DUP2 SLOAD DUP2 LT PUSH2 0x2831 JUMPI PUSH2 0x2830 PUSH2 0x30D1 JUMP JUMPDEST JUMPDEST SWAP1 PUSH0 MSTORE PUSH1 0x20 PUSH0 KECCAK256 SWAP1 PUSH1 0x9 MUL ADD PUSH1 0x6 ADD PUSH0 DUP2 SLOAD DUP1 SWAP3 SWAP2 SWAP1 PUSH2 0x2850 SWAP1 PUSH2 0x34B1 JUMP JUMPDEST SWAP2 SWAP1 POP SSTORE POP PUSH1 0x40 MLOAD DUP1 PUSH1 0x40 ADD PUSH1 0x40 MSTORE DUP1 PUSH1 0xF DUP2 MSTORE PUSH1 0x20 ADD PUSH32 0x447261772054727920416761696E2E0000000000000000000000000000000000 DUP2 MSTORE POP SWAP2 POP POP JUMPDEST SWAP2 SWAP1 POP JUMP JUMPDEST PUSH0 JUMPDEST PUSH1 0xB DUP2 LT ISZERO PUSH2 0x292F JUMPI PUSH0 PUSH1 0xA NUMBER PREVRANDAO CHAINID TIMESTAMP PUSH2 0x28B0 SWAP2 SWAP1 PUSH2 0x3678 JUMP JUMPDEST PUSH2 0x28BA SWAP2 SWAP1 PUSH2 0x3678 JUMP JUMPDEST PUSH2 0x28C4 SWAP2 SWAP1 PUSH2 0x3678 JUMP JUMPDEST PUSH1 0x40 MLOAD PUSH1 0x20 ADD PUSH2 0x28D4 SWAP2 SWAP1 PUSH2 0x36D9 JUMP JUMPDEST PUSH1 0x40 MLOAD PUSH1 0x20 DUP2 DUP4 SUB SUB DUP2 MSTORE SWAP1 PUSH1 0x40 MSTORE DUP1 MLOAD SWAP1 PUSH1 0x20 ADD KECCAK256 PUSH0 SHR PUSH2 0x28F6 SWAP2 SWAP1 PUSH2 0x32A2 JUMP JUMPDEST SWAP1 POP DUP1 PUSH1 0x4 DUP4 DUP2 SLOAD DUP2 LT PUSH2 0x290D JUMPI PUSH2 0x290C PUSH2 0x30D1 JUMP JUMPDEST JUMPDEST SWAP1 PUSH0 MSTORE PUSH1 0x20 PUSH0 KECCAK256 ADD PUSH0 ADD DUP2 SWAP1 SSTORE POP POP DUP1 DUP1 PUSH2 0x2927 SWAP1 PUSH2 0x3332 JUMP JUMPDEST SWAP2 POP POP PUSH2 0x2896 JUMP JUMPDEST POP JUMP JUMPDEST PUSH0 DUP1 PUSH1 0x3 DUP1 SLOAD SWAP1 POP SWAP1 POP PUSH0 DUP2 NUMBER PREVRANDAO CHAINID TIMESTAMP DUP7 PUSH2 0x294D SWAP2 SWAP1 PUSH2 0x3678 JUMP JUMPDEST PUSH2 0x2957 SWAP2 SWAP1 PUSH2 0x3678 JUMP JUMPDEST PUSH2 0x2961 SWAP2 SWAP1 PUSH2 0x3678 JUMP JUMPDEST PUSH2 0x296B SWAP2 SWAP1 PUSH2 0x3678 JUMP JUMPDEST PUSH1 0x40 MLOAD PUSH1 0x20 ADD PUSH2 0x297B SWAP2 SWAP1 PUSH2 0x36D9 JUMP JUMPDEST PUSH1 0x40 MLOAD PUSH1 0x20 DUP2 DUP4 SUB SUB DUP2 MSTORE SWAP1 PUSH1 0x40 MSTORE DUP1 MLOAD SWAP1 PUSH1 0x20 ADD KECCAK256 PUSH0 SHR PUSH2 0x299D SWAP2 SWAP1 PUSH2 0x32A2 JUMP JUMPDEST SWAP1 POP DUP1 SWAP3 POP POP POP SWAP1 JUMP JUMPDEST PUSH1 0x40 MLOAD DUP1 PUSH2 0x120 ADD PUSH1 0x40 MSTORE DUP1 PUSH1 0x60 DUP2 MSTORE PUSH1 0x20 ADD PUSH1 0x60 DUP2 MSTORE PUSH1 0x20 ADD PUSH0 DUP2 MSTORE PUSH1 0x20 ADD PUSH0 DUP2 MSTORE PUSH1 0x20 ADD PUSH0 DUP2 MSTORE PUSH1 0x20 ADD PUSH0 DUP2 MSTORE PUSH1 0x20 ADD PUSH0 DUP2 MSTORE PUSH1 0x20 ADD PUSH0 DUP2 MSTORE PUSH1 0x20 ADD PUSH0 DUP2 MSTORE POP SWAP1 JUMP JUMPDEST PUSH0 PUSH1 0x40 MLOAD SWAP1 POP SWAP1 JUMP JUMPDEST PUSH0 DUP1 REVERT JUMPDEST PUSH0 DUP1 REVERT JUMPDEST PUSH0 PUSH20 0xFFFFFFFFFFFFFFFFFFFFFFFFFFFFFFFFFFFFFFFF DUP3 AND SWAP1 POP SWAP2 SWAP1 POP JUMP JUMPDEST PUSH0 PUSH2 0x2A26 DUP3 PUSH2 0x29FD JUMP JUMPDEST SWAP1 POP SWAP2 SWAP1 POP JUMP JUMPDEST PUSH2 0x2A36 DUP2 PUSH2 0x2A1C JUMP JUMPDEST DUP2 EQ PUSH2 0x2A40 JUMPI PUSH0 DUP1 REVERT JUMPDEST POP JUMP JUMPDEST PUSH0 DUP2 CALLDATALOAD SWAP1 POP PUSH2 0x2A51 DUP2 PUSH2 0x2A2D JUMP JUMPDEST SWAP3 SWAP2 POP POP JUMP JUMPDEST PUSH0 DUP2 SWAP1 POP SWAP2 SWAP1 POP JUMP JUMPDEST PUSH2 0x2A69 DUP2 PUSH2 0x2A57 JUMP JUMPDEST DUP2 EQ PUSH2 0x2A73 JUMPI PUSH0 DUP1 REVERT JUMPDEST POP JUMP JUMPDEST PUSH0 DUP2 CALLDATALOAD SWAP1 POP PUSH2 0x2A84 DUP2 PUSH2 0x2A60 JUMP JUMPDEST SWAP3 SWAP2 POP POP JUMP JUMPDEST PUSH0 DUP1 PUSH1 0x40 DUP4 DUP6 SUB SLT ISZERO PUSH2 0x2AA0 JUMPI PUSH2 0x2A9F PUSH2 0x29F5 JUMP JUMPDEST JUMPDEST PUSH0 PUSH2 0x2AAD DUP6 DUP3 DUP7 ADD PUSH2 0x2A43 JUMP JUMPDEST SWAP3 POP POP PUSH1 0x20 PUSH2 0x2ABE DUP6 DUP3 DUP7 ADD PUSH2 0x2A76 JUMP JUMPDEST SWAP2 POP POP SWAP3 POP SWAP3 SWAP1 POP JUMP JUMPDEST PUSH0 PUSH1 0x20 DUP3 DUP5 SUB SLT ISZERO PUSH2 0x2ADD JUMPI PUSH2 0x2ADC PUSH2 0x29F5 JUMP JUMPDEST JUMPDEST PUSH0 PUSH2 0x2AEA DUP5 DUP3 DUP6 ADD PUSH2 0x2A76 JUMP JUMPDEST SWAP2 POP POP SWAP3 SWAP2 POP POP JUMP JUMPDEST PUSH2 0x2AFC DUP2 PUSH2 0x2A57 JUMP JUMPDEST DUP3 MSTORE POP POP JUMP JUMPDEST PUSH0 PUSH1 0x20 DUP3 ADD SWAP1 POP PUSH2 0x2B15 PUSH0 DUP4 ADD DUP5 PUSH2 0x2AF3 JUMP JUMPDEST SWAP3 SWAP2 POP POP JUMP JUMPDEST PUSH0 DUP1 PUSH1 0x40 DUP4 DUP6 SUB SLT ISZERO PUSH2 0x2B31 JUMPI PUSH2 0x2B30 PUSH2 0x29F5 JUMP JUMPDEST JUMPDEST PUSH0 PUSH2 0x2B3E DUP6 DUP3 DUP7 ADD PUSH2 0x2A76 JUMP JUMPDEST SWAP3 POP POP PUSH1 0x20 PUSH2 0x2B4F DUP6 DUP3 DUP7 ADD PUSH2 0x2A76 JUMP JUMPDEST SWAP2 POP POP SWAP3 POP SWAP3 SWAP1 POP JUMP JUMPDEST PUSH0 PUSH1 0x20 DUP3 DUP5 SUB SLT ISZERO PUSH2 0x2B6E JUMPI PUSH2 0x2B6D PUSH2 0x29F5 JUMP JUMPDEST JUMPDEST PUSH0 PUSH2 0x2B7B DUP5 DUP3 DUP6 ADD PUSH2 0x2A43 JUMP JUMPDEST SWAP2 POP POP SWAP3 SWAP2 POP POP JUMP JUMPDEST PUSH0 DUP2 MLOAD SWAP1 POP SWAP2 SWAP1 POP JUMP JUMPDEST PUSH0 DUP3 DUP3 MSTORE PUSH1 0x20 DUP3 ADD SWAP1 POP SWAP3 SWAP2 POP POP JUMP JUMPDEST PUSH0 DUP2 SWAP1 POP PUSH1 0x20 DUP3 ADD SWAP1 POP SWAP2 SWAP1 POP JUMP JUMPDEST PUSH2 0x2BB6 DUP2 PUSH2 0x2A57 JUMP JUMPDEST DUP3 MSTORE POP POP JUMP JUMPDEST PUSH0 PUSH2 0x2BC7 DUP4 DUP4 PUSH2 0x2BAD JUMP JUMPDEST PUSH1 0x20 DUP4 ADD SWAP1 POP SWAP3 SWAP2 POP POP JUMP JUMPDEST PUSH0 PUSH1 0x20 DUP3 ADD SWAP1 POP SWAP2 SWAP1 POP JUMP JUMPDEST PUSH0 PUSH2 0x2BE9 DUP3 PUSH2 0x2B84 JUMP JUMPDEST PUSH2 0x2BF3 DUP2 DUP6 PUSH2 0x2B8E JUMP JUMPDEST SWAP4 POP PUSH2 0x2BFE DUP4 PUSH2 0x2B9E JUMP JUMPDEST DUP1 PUSH0 JUMPDEST DUP4 DUP2 LT ISZERO PUSH2 0x2C2E JUMPI DUP2 MLOAD PUSH2 0x2C15 DUP9 DUP3 PUSH2 0x2BBC JUMP JUMPDEST SWAP8 POP PUSH2 0x2C20 DUP4 PUSH2 0x2BD3 JUMP JUMPDEST SWAP3 POP POP PUSH1 0x1 DUP2 ADD SWAP1 POP PUSH2 0x2C01 JUMP JUMPDEST POP DUP6 SWAP4 POP POP POP POP SWAP3 SWAP2 POP POP JUMP JUMPDEST PUSH0 PUSH1 0x20 DUP3 ADD SWAP1 POP DUP2 DUP2 SUB PUSH0 DUP4 ADD MSTORE PUSH2 0x2C53 DUP2 DUP5 PUSH2 0x2BDF JUMP JUMPDEST SWAP1 POP SWAP3 SWAP2 POP POP JUMP JUMPDEST PUSH0 DUP1 PUSH1 0x40 DUP4 DUP6 SUB SLT ISZERO PUSH2 0x2C71 JUMPI PUSH2 0x2C70 PUSH2 0x29F5 JUMP JUMPDEST JUMPDEST PUSH0 PUSH2 0x2C7E DUP6 DUP3 DUP7 ADD PUSH2 0x2A43 JUMP JUMPDEST SWAP3 POP POP PUSH1 0x20 PUSH2 0x2C8F DUP6 DUP3 DUP7 ADD PUSH2 0x2A43 JUMP JUMPDEST SWAP2 POP POP SWAP3 POP SWAP3 SWAP1 POP JUMP JUMPDEST PUSH0 DUP1 PUSH0 PUSH1 0x60 DUP5 DUP7 SUB SLT ISZERO PUSH2 0x2CB0 JUMPI PUSH2 0x2CAF PUSH2 0x29F5 JUMP JUMPDEST JUMPDEST PUSH0 PUSH2 0x2CBD DUP7 DUP3 DUP8 ADD PUSH2 0x2A43 JUMP JUMPDEST SWAP4 POP POP PUSH1 0x20 PUSH2 0x2CCE DUP7 DUP3 DUP8 ADD PUSH2 0x2A43 JUMP JUMPDEST SWAP3 POP POP PUSH1 0x40 PUSH2 0x2CDF DUP7 DUP3 DUP8 ADD PUSH2 0x2A76 JUMP JUMPDEST SWAP2 POP POP SWAP3 POP SWAP3 POP SWAP3 JUMP JUMPDEST PUSH0 DUP2 ISZERO ISZERO SWAP1 POP SWAP2 SWAP1 POP JUMP JUMPDEST PUSH2 0x2CFD DUP2 PUSH2 0x2CE9 JUMP JUMPDEST DUP3 MSTORE POP POP JUMP JUMPDEST PUSH0 PUSH1 0x20 DUP3 ADD SWAP1 POP PUSH2 0x2D16 PUSH0 DUP4 ADD DUP5 PUSH2 0x2CF4 JUMP JUMPDEST SWAP3 SWAP2 POP POP JUMP JUMPDEST PUSH0 DUP2 MLOAD SWAP1 POP SWAP2 SWAP1 POP JUMP JUMPDEST PUSH0 DUP3 DUP3 MSTORE PUSH1 0x20 DUP3 ADD SWAP1 POP SWAP3 SWAP2 POP POP JUMP JUMPDEST PUSH0 JUMPDEST DUP4 DUP2 LT ISZERO PUSH2 0x2D53 JUMPI DUP1 DUP3 ADD MLOAD DUP2 DUP5 ADD MSTORE PUSH1 0x20 DUP2 ADD SWAP1 POP PUSH2 0x2D38 JUMP JUMPDEST PUSH0 DUP5 DUP5 ADD MSTORE POP POP POP POP JUMP JUMPDEST PUSH0 PUSH1 0x1F NOT PUSH1 0x1F DUP4 ADD AND SWAP1 POP SWAP2 SWAP1 POP JUMP JUMPDEST PUSH0 PUSH2 0x2D78 DUP3 PUSH2 0x2D1C JUMP JUMPDEST PUSH2 0x2D82 DUP2 DUP6 PUSH2 0x2D26 JUMP JUMPDEST SWAP4 POP PUSH2 0x2D92 DUP2 DUP6 PUSH1 0x20 DUP7 ADD PUSH2 0x2D36 JUMP JUMPDEST PUSH2 0x2D9B DUP2 PUSH2 0x2D5E JUMP JUMPDEST DUP5 ADD SWAP2 POP POP SWAP3 SWAP2 POP POP JUMP JUMPDEST PUSH0 PUSH2 0x120 DUP4 ADD PUSH0 DUP4 ADD MLOAD DUP5 DUP3 SUB PUSH0 DUP7 ADD MSTORE PUSH2 0x2DC1 DUP3 DUP3 PUSH2 0x2D6E JUMP JUMPDEST SWAP2 POP POP PUSH1 0x20 DUP4 ADD MLOAD DUP5 DUP3 SUB PUSH1 0x20 DUP7 ADD MSTORE PUSH2 0x2DDB DUP3 DUP3 PUSH2 0x2D6E JUMP JUMPDEST SWAP2 POP POP PUSH1 0x40 DUP4 ADD MLOAD PUSH2 0x2DF0 PUSH1 0x40 DUP7 ADD DUP3 PUSH2 0x2BAD JUMP JUMPDEST POP PUSH1 0x60 DUP4 ADD MLOAD PUSH2 0x2E03 PUSH1 0x60 DUP7 ADD DUP3 PUSH2 0x2BAD JUMP JUMPDEST POP PUSH1 0x80 DUP4 ADD MLOAD PUSH2 0x2E16 PUSH1 0x80 DUP7 ADD DUP3 PUSH2 0x2BAD JUMP JUMPDEST POP PUSH1 0xA0 DUP4 ADD MLOAD PUSH2 0x2E29 PUSH1 0xA0 DUP7 ADD DUP3 PUSH2 0x2BAD JUMP JUMPDEST POP PUSH1 0xC0 DUP4 ADD MLOAD PUSH2 0x2E3C PUSH1 0xC0 DUP7 ADD DUP3 PUSH2 0x2BAD JUMP JUMPDEST POP PUSH1 0xE0 DUP4 ADD MLOAD PUSH2 0x2E4F PUSH1 0xE0 DUP7 ADD DUP3 PUSH2 0x2BAD JUMP JUMPDEST POP PUSH2 0x100 DUP4 ADD MLOAD PUSH2 0x2E64 PUSH2 0x100 DUP7 ADD DUP3 PUSH2 0x2BAD JUMP JUMPDEST POP DUP1 SWAP2 POP POP SWAP3 SWAP2 POP POP JUMP JUMPDEST PUSH0 PUSH1 0x20 DUP3 ADD SWAP1 POP DUP2 DUP2 SUB PUSH0 DUP4 ADD MSTORE PUSH2 0x2E87 DUP2 DUP5 PUSH2 0x2DA6 JUMP JUMPDEST SWAP1 POP SWAP3 SWAP2 POP POP JUMP JUMPDEST PUSH2 0x2E98 DUP2 PUSH2 0x2A1C JUMP JUMPDEST DUP3 MSTORE POP POP JUMP JUMPDEST PUSH0 PUSH1 0x20 DUP3 ADD SWAP1 POP PUSH2 0x2EB1 PUSH0 DUP4 ADD DUP5 PUSH2 0x2E8F JUMP JUMPDEST SWAP3 SWAP2 POP POP JUMP JUMPDEST PUSH0 DUP1 REVERT JUMPDEST PUSH0 DUP1 REVERT JUMPDEST PUSH32 0x4E487B7100000000000000000000000000000000000000000000000000000000 PUSH0 MSTORE PUSH1 0x41 PUSH1 0x4 MSTORE PUSH1 0x24 PUSH0 REVERT JUMPDEST PUSH2 0x2EF5 DUP3 PUSH2 0x2D5E JUMP JUMPDEST DUP2 ADD DUP2 DUP2 LT PUSH8 0xFFFFFFFFFFFFFFFF DUP3 GT OR ISZERO PUSH2 0x2F14 JUMPI PUSH2 0x2F13 PUSH2 0x2EBF JUMP JUMPDEST JUMPDEST DUP1 PUSH1 0x40 MSTORE POP POP POP JUMP JUMPDEST PUSH0 PUSH2 0x2F26 PUSH2 0x29EC JUMP JUMPDEST SWAP1 POP PUSH2 0x2F32 DUP3 DUP3 PUSH2 0x2EEC JUMP JUMPDEST SWAP2 SWAP1 POP JUMP JUMPDEST PUSH0 PUSH8 0xFFFFFFFFFFFFFFFF DUP3 GT ISZERO PUSH2 0x2F51 JUMPI PUSH2 0x2F50 PUSH2 0x2EBF JUMP JUMPDEST JUMPDEST PUSH2 0x2F5A DUP3 PUSH2 0x2D5E JUMP JUMPDEST SWAP1 POP PUSH1 0x20 DUP2 ADD SWAP1 POP SWAP2 SWAP1 POP JUMP JUMPDEST DUP3 DUP2 DUP4 CALLDATACOPY PUSH0 DUP4 DUP4 ADD MSTORE POP POP POP JUMP JUMPDEST PUSH0 PUSH2 0x2F87 PUSH2 0x2F82 DUP5 PUSH2 0x2F37 JUMP JUMPDEST PUSH2 0x2F1D JUMP JUMPDEST SWAP1 POP DUP3 DUP2 MSTORE PUSH1 0x20 DUP2 ADD DUP5 DUP5 DUP5 ADD GT ISZERO PUSH2 0x2FA3 JUMPI PUSH2 0x2FA2 PUSH2 0x2EBB JUMP JUMPDEST JUMPDEST PUSH2 0x2FAE DUP5 DUP3 DUP6 PUSH2 0x2F67 JUMP JUMPDEST POP SWAP4 SWAP3 POP POP POP JUMP JUMPDEST PUSH0 DUP3 PUSH1 0x1F DUP4 ADD SLT PUSH2 0x2FCA JUMPI PUSH2 0x2FC9 PUSH2 0x2EB7 JUMP JUMPDEST JUMPDEST DUP2 CALLDATALOAD PUSH2 0x2FDA DUP5 DUP3 PUSH1 0x20 DUP7 ADD PUSH2 0x2F75 JUMP JUMPDEST SWAP2 POP POP SWAP3 SWAP2 POP POP JUMP JUMPDEST PUSH0 DUP1 PUSH1 0x40 DUP4 DUP6 SUB SLT ISZERO PUSH2 0x2FF9 JUMPI PUSH2 0x2FF8 PUSH2 0x29F5 JUMP JUMPDEST JUMPDEST PUSH0 DUP4 ADD CALLDATALOAD PUSH8 0xFFFFFFFFFFFFFFFF DUP2 GT ISZERO PUSH2 0x3016 JUMPI PUSH2 0x3015 PUSH2 0x29F9 JUMP JUMPDEST JUMPDEST PUSH2 0x3022 DUP6 DUP3 DUP7 ADD PUSH2 0x2FB6 JUMP JUMPDEST SWAP3 POP POP PUSH1 0x20 DUP4 ADD CALLDATALOAD PUSH8 0xFFFFFFFFFFFFFFFF DUP2 GT ISZERO PUSH2 0x3043 JUMPI PUSH2 0x3042 PUSH2 0x29F9 JUMP JUMPDEST JUMPDEST PUSH2 0x304F DUP6 DUP3 DUP7 ADD PUSH2 0x2FB6 JUMP JUMPDEST SWAP2 POP POP SWAP3 POP SWAP3 SWAP1 POP JUMP JUMPDEST PUSH0 DUP3 DUP3 MSTORE PUSH1 0x20 DUP3 ADD SWAP1 POP SWAP3 SWAP2 POP POP JUMP JUMPDEST PUSH32 0x4F6E6C79204F776E65722E000000000000000000000000000000000000000000 PUSH0 DUP3 ADD MSTORE POP JUMP JUMPDEST PUSH0 PUSH2 0x309D PUSH1 0xB DUP4 PUSH2 0x3059 JUMP JUMPDEST SWAP2 POP PUSH2 0x30A8 DUP3 PUSH2 0x3069 JUMP JUMPDEST PUSH1 0x20 DUP3 ADD SWAP1 POP SWAP2 SWAP1 POP JUMP JUMPDEST PUSH0 PUSH1 0x20 DUP3 ADD SWAP1 POP DUP2 DUP2 SUB PUSH0 DUP4 ADD MSTORE PUSH2 0x30CA DUP2 PUSH2 0x3091 JUMP JUMPDEST SWAP1 POP SWAP2 SWAP1 POP JUMP JUMPDEST PUSH32 0x4E487B7100000000000000000000000000000000000000000000000000000000 PUSH0 MSTORE PUSH1 0x32 PUSH1 0x4 MSTORE PUSH1 0x24 PUSH0 REVERT JUMPDEST PUSH32 0x4E487B7100000000000000000000000000000000000000000000000000000000 PUSH0 MSTORE PUSH1 0x22 PUSH1 0x4 MSTORE PUSH1 0x24 PUSH0 REVERT JUMPDEST PUSH0 PUSH1 0x2 DUP3 DIV SWAP1 POP PUSH1 0x1 DUP3 AND DUP1 PUSH2 0x3142 JUMPI PUSH1 0x7F DUP3 AND SWAP2 POP JUMPDEST PUSH1 0x20 DUP3 LT DUP2 SUB PUSH2 0x3155 JUMPI PUSH2 0x3154 PUSH2 0x30FE JUMP JUMPDEST JUMPDEST POP SWAP2 SWAP1 POP JUMP JUMPDEST PUSH0 DUP2 SWAP1 POP SWAP3 SWAP2 POP POP JUMP JUMPDEST PUSH0 DUP2 SWAP1 POP DUP2 PUSH0 MSTORE PUSH1 0x20 PUSH0 KECCAK256 SWAP1 POP SWAP2 SWAP1 POP JUMP JUMPDEST PUSH0 DUP2 SLOAD PUSH2 0x3183 DUP2 PUSH2 0x312B JUMP JUMPDEST PUSH2 0x318D DUP2 DUP7 PUSH2 0x315B JUMP JUMPDEST SWAP5 POP PUSH1 0x1 DUP3 AND PUSH0 DUP2 EQ PUSH2 0x31A7 JUMPI PUSH1 0x1 DUP2 EQ PUSH2 0x31BC JUMPI PUSH2 0x31EE JUMP JUMPDEST PUSH1 0xFF NOT DUP4 AND DUP7 MSTORE DUP2 ISZERO ISZERO DUP3 MUL DUP7 ADD SWAP4 POP PUSH2 0x31EE JUMP JUMPDEST PUSH2 0x31C5 DUP6 PUSH2 0x3165 JUMP JUMPDEST PUSH0 JUMPDEST DUP4 DUP2 LT ISZERO PUSH2 0x31E6 JUMPI DUP2 SLOAD DUP2 DUP10 ADD MSTORE PUSH1 0x1 DUP3 ADD SWAP2 POP PUSH1 0x20 DUP2 ADD SWAP1 POP PUSH2 0x31C7 JUMP JUMPDEST DUP4 DUP9 ADD SWAP6 POP POP POP JUMPDEST POP POP POP SWAP3 SWAP2 POP POP JUMP JUMPDEST PUSH0 PUSH2 0x3202 DUP3 DUP5 PUSH2 0x3177 JUMP JUMPDEST SWAP2 POP DUP2 SWAP1 POP SWAP3 SWAP2 POP POP JUMP JUMPDEST PUSH32 0x66726565206E66742063616E74206F6E2072656E742E00000000000000000000 PUSH0 DUP3 ADD MSTORE POP JUMP JUMPDEST PUSH0 PUSH2 0x3241 PUSH1 0x16 DUP4 PUSH2 0x3059 JUMP JUMPDEST SWAP2 POP PUSH2 0x324C DUP3 PUSH2 0x320D JUMP JUMPDEST PUSH1 0x20 DUP3 ADD SWAP1 POP SWAP2 SWAP1 POP JUMP JUMPDEST PUSH0 PUSH1 0x20 DUP3 ADD SWAP1 POP DUP2 DUP2 SUB PUSH0 DUP4 ADD MSTORE PUSH2 0x326E DUP2 PUSH2 0x3235 JUMP JUMPDEST SWAP1 POP SWAP2 SWAP1 POP JUMP JUMPDEST PUSH32 0x4E487B7100000000000000000000000000000000000000000000000000000000 PUSH0 MSTORE PUSH1 0x12 PUSH1 0x4 MSTORE PUSH1 0x24 PUSH0 REVERT JUMPDEST PUSH0 PUSH2 0x32AC DUP3 PUSH2 0x2A57 JUMP JUMPDEST SWAP2 POP PUSH2 0x32B7 DUP4 PUSH2 0x2A57 JUMP JUMPDEST SWAP3 POP DUP3 PUSH2 0x32C7 JUMPI PUSH2 0x32C6 PUSH2 0x3275 JUMP JUMPDEST JUMPDEST DUP3 DUP3 MOD SWAP1 POP SWAP3 SWAP2 POP POP JUMP JUMPDEST PUSH32 0x4E487B7100000000000000000000000000000000000000000000000000000000 PUSH0 MSTORE PUSH1 0x11 PUSH1 0x4 MSTORE PUSH1 0x24 PUSH0 REVERT JUMPDEST PUSH0 PUSH2 0x3309 DUP3 PUSH2 0x2A57 JUMP JUMPDEST SWAP2 POP PUSH2 0x3314 DUP4 PUSH2 0x2A57 JUMP JUMPDEST SWAP3 POP DUP3 DUP3 ADD SWAP1 POP DUP1 DUP3 GT ISZERO PUSH2 0x332C JUMPI PUSH2 0x332B PUSH2 0x32D2 JUMP JUMPDEST JUMPDEST SWAP3 SWAP2 POP POP JUMP JUMPDEST PUSH0 PUSH2 0x333C DUP3 PUSH2 0x2A57 JUMP JUMPDEST SWAP2 POP PUSH32 0xFFFFFFFFFFFFFFFFFFFFFFFFFFFFFFFFFFFFFFFFFFFFFFFFFFFFFFFFFFFFFFFF DUP3 SUB PUSH2 0x336E JUMPI PUSH2 0x336D PUSH2 0x32D2 JUMP JUMPDEST JUMPDEST PUSH1 0x1 DUP3 ADD SWAP1 POP SWAP2 SWAP1 POP JUMP JUMPDEST PUSH32 0x66726565206E66742063616E2073656C6C2E0000000000000000000000000000 PUSH0 DUP3 ADD MSTORE POP JUMP JUMPDEST PUSH0 PUSH2 0x33AD PUSH1 0x12 DUP4 PUSH2 0x3059 JUMP JUMPDEST SWAP2 POP PUSH2 0x33B8 DUP3 PUSH2 0x3379 JUMP JUMPDEST PUSH1 0x20 DUP3 ADD SWAP1 POP SWAP2 SWAP1 POP JUMP JUMPDEST PUSH0 PUSH1 0x20 DUP3 ADD SWAP1 POP DUP2 DUP2 SUB PUSH0 DUP4 ADD MSTORE PUSH2 0x33DA DUP2 PUSH2 0x33A1 JUMP JUMPDEST SWAP1 POP SWAP2 SWAP1 POP JUMP JUMPDEST PUSH32 0x54686973206E6674206F6E2072656E742E000000000000000000000000000000 PUSH0 DUP3 ADD MSTORE POP JUMP JUMPDEST PUSH0 PUSH2 0x3415 PUSH1 0x11 DUP4 PUSH2 0x3059 JUMP JUMPDEST SWAP2 POP PUSH2 0x3420 DUP3 PUSH2 0x33E1 JUMP JUMPDEST PUSH1 0x20 DUP3 ADD SWAP1 POP SWAP2 SWAP1 POP JUMP JUMPDEST PUSH0 PUSH1 0x20 DUP3 ADD SWAP1 POP DUP2 DUP2 SUB PUSH0 DUP4 ADD MSTORE PUSH2 0x3442 DUP2 PUSH2 0x3409 JUMP JUMPDEST SWAP1 POP SWAP2 SWAP1 POP JUMP JUMPDEST PUSH32 0x596F7520646F6E742068617665204E66742E0000000000000000000000000000 PUSH0 DUP3 ADD MSTORE POP JUMP JUMPDEST PUSH0 PUSH2 0x347D PUSH1 0x12 DUP4 PUSH2 0x3059 JUMP JUMPDEST SWAP2 POP PUSH2 0x3488 DUP3 PUSH2 0x3449 JUMP JUMPDEST PUSH1 0x20 DUP3 ADD SWAP1 POP SWAP2 SWAP1 POP JUMP JUMPDEST PUSH0 PUSH1 0x20 DUP3 ADD SWAP1 POP DUP2 DUP2 SUB PUSH0 DUP4 ADD MSTORE PUSH2 0x34AA DUP2 PUSH2 0x3471 JUMP JUMPDEST SWAP1 POP SWAP2 SWAP1 POP JUMP JUMPDEST PUSH0 PUSH2 0x34BB DUP3 PUSH2 0x2A57 JUMP JUMPDEST SWAP2 POP PUSH0 DUP3 SUB PUSH2 0x34CD JUMPI PUSH2 0x34CC PUSH2 0x32D2 JUMP JUMPDEST JUMPDEST PUSH1 0x1 DUP3 SUB SWAP1 POP SWAP2 SWAP1 POP JUMP JUMPDEST PUSH32 0x416C726561647920686176652031206F72206D6F7265206E66742E0000000000 PUSH0 DUP3 ADD MSTORE POP JUMP JUMPDEST PUSH0 PUSH2 0x350C PUSH1 0x1B DUP4 PUSH2 0x3059 JUMP JUMPDEST SWAP2 POP PUSH2 0x3517 DUP3 PUSH2 0x34D8 JUMP JUMPDEST PUSH1 0x20 DUP3 ADD SWAP1 POP SWAP2 SWAP1 POP JUMP JUMPDEST PUSH0 PUSH1 0x20 DUP3 ADD SWAP1 POP DUP2 DUP2 SUB PUSH0 DUP4 ADD MSTORE PUSH2 0x3539 DUP2 PUSH2 0x3500 JUMP JUMPDEST SWAP1 POP SWAP2 SWAP1 POP JUMP JUMPDEST PUSH32 0x596F7520646F6E742068617665206E66742E0000000000000000000000000000 PUSH0 DUP3 ADD MSTORE POP JUMP JUMPDEST PUSH0 PUSH2 0x3574 PUSH1 0x12 DUP4 PUSH2 0x3059 JUMP JUMPDEST SWAP2 POP PUSH2 0x357F DUP3 PUSH2 0x3540 JUMP JUMPDEST PUSH1 0x20 DUP3 ADD SWAP1 POP SWAP2 SWAP1 POP JUMP JUMPDEST PUSH0 PUSH1 0x20 DUP3 ADD SWAP1 POP DUP2 DUP2 SUB PUSH0 DUP4 ADD MSTORE PUSH2 0x35A1 DUP2 PUSH2 0x3568 JUMP JUMPDEST SWAP1 POP SWAP2 SWAP1 POP JUMP JUMPDEST PUSH32 0x766C7565206D75737420626520312065746865722E0000000000000000000000 PUSH0 DUP3 ADD MSTORE POP JUMP JUMPDEST PUSH0 PUSH2 0x35DC PUSH1 0x15 DUP4 PUSH2 0x3059 JUMP JUMPDEST SWAP2 POP PUSH2 0x35E7 DUP3 PUSH2 0x35A8 JUMP JUMPDEST PUSH1 0x20 DUP3 ADD SWAP1 POP SWAP2 SWAP1 POP JUMP JUMPDEST PUSH0 PUSH1 0x20 DUP3 ADD SWAP1 POP DUP2 DUP2 SUB PUSH0 DUP4 ADD MSTORE PUSH2 0x3609 DUP2 PUSH2 0x35D0 JUMP JUMPDEST SWAP1 POP SWAP2 SWAP1 POP JUMP JUMPDEST PUSH32 0x436F7272656374205370656C6C696E6700000000000000000000000000000000 PUSH0 DUP3 ADD MSTORE POP JUMP JUMPDEST PUSH0 PUSH2 0x3644 PUSH1 0x10 DUP4 PUSH2 0x3059 JUMP JUMPDEST SWAP2 POP PUSH2 0x364F DUP3 PUSH2 0x3610 JUMP JUMPDEST PUSH1 0x20 DUP3 ADD SWAP1 POP SWAP2 SWAP1 POP JUMP JUMPDEST PUSH0 PUSH1 0x20 DUP3 ADD SWAP1 POP DUP2 DUP2 SUB PUSH0 DUP4 ADD MSTORE PUSH2 0x3671 DUP2 PUSH2 0x3638 JUMP JUMPDEST SWAP1 POP SWAP2 SWAP1 POP JUMP JUMPDEST PUSH0 PUSH2 0x3682 DUP3 PUSH2 0x2A57 JUMP JUMPDEST SWAP2 POP PUSH2 0x368D DUP4 PUSH2 0x2A57 JUMP JUMPDEST SWAP3 POP DUP3 DUP3 MUL PUSH2 0x369B DUP2 PUSH2 0x2A57 JUMP JUMPDEST SWAP2 POP DUP3 DUP3 DIV DUP5 EQ DUP4 ISZERO OR PUSH2 0x36B2 JUMPI PUSH2 0x36B1 PUSH2 0x32D2 JUMP JUMPDEST JUMPDEST POP SWAP3 SWAP2 POP POP JUMP JUMPDEST PUSH0 DUP2 SWAP1 POP SWAP2 SWAP1 POP JUMP JUMPDEST PUSH2 0x36D3 PUSH2 0x36CE DUP3 PUSH2 0x2A57 JUMP JUMPDEST PUSH2 0x36B9 JUMP JUMPDEST DUP3 MSTORE POP POP JUMP JUMPDEST PUSH0 PUSH2 0x36E4 DUP3 DUP5 PUSH2 0x36C2 JUMP JUMPDEST PUSH1 0x20 DUP3 ADD SWAP2 POP DUP2 SWAP1 POP SWAP3 SWAP2 POP POP JUMP JUMPDEST PUSH32 0x796F75206E656564206D6F726520787000000000000000000000000000000000 PUSH0 DUP3 ADD MSTORE POP JUMP JUMPDEST PUSH0 PUSH2 0x3727 PUSH1 0x10 DUP4 PUSH2 0x3059 JUMP JUMPDEST SWAP2 POP PUSH2 0x3732 DUP3 PUSH2 0x36F3 JUMP JUMPDEST PUSH1 0x20 DUP3 ADD SWAP1 POP SWAP2 SWAP1 POP JUMP JUMPDEST PUSH0 PUSH1 0x20 DUP3 ADD SWAP1 POP DUP2 DUP2 SUB PUSH0 DUP4 ADD MSTORE PUSH2 0x3754 DUP2 PUSH2 0x371B JUMP JUMPDEST SWAP1 POP SWAP2 SWAP1 POP JUMP JUMPDEST PUSH0 PUSH2 0x3765 DUP3 PUSH2 0x2A57 JUMP JUMPDEST SWAP2 POP PUSH2 0x3770 DUP4 PUSH2 0x2A57 JUMP JUMPDEST SWAP3 POP DUP3 DUP3 SUB SWAP1 POP DUP2 DUP2 GT ISZERO PUSH2 0x3788 JUMPI PUSH2 0x3787 PUSH2 0x32D2 JUMP JUMPDEST JUMPDEST SWAP3 SWAP2 POP POP JUMP JUMPDEST PUSH32 0x6E6F7420696E2072656E742E0000000000000000000000000000000000000000 PUSH0 DUP3 ADD MSTORE POP JUMP JUMPDEST PUSH0 PUSH2 0x37C2 PUSH1 0xC DUP4 PUSH2 0x3059 JUMP JUMPDEST SWAP2 POP PUSH2 0x37CD DUP3 PUSH2 0x378E JUMP JUMPDEST PUSH1 0x20 DUP3 ADD SWAP1 POP SWAP2 SWAP1 POP JUMP JUMPDEST PUSH0 PUSH1 0x20 DUP3 ADD SWAP1 POP DUP2 DUP2 SUB PUSH0 DUP4 ADD MSTORE PUSH2 0x37EF DUP2 PUSH2 0x37B6 JUMP JUMPDEST SWAP1 POP SWAP2 SWAP1 POP JUMP JUMPDEST PUSH32 0x74696D652072656D61696E732E00000000000000000000000000000000000000 PUSH0 DUP3 ADD MSTORE POP JUMP JUMPDEST PUSH0 PUSH2 0x382A PUSH1 0xD DUP4 PUSH2 0x3059 JUMP JUMPDEST SWAP2 POP PUSH2 0x3835 DUP3 PUSH2 0x37F6 JUMP JUMPDEST PUSH1 0x20 DUP3 ADD SWAP1 POP SWAP2 SWAP1 POP JUMP JUMPDEST PUSH0 PUSH1 0x20 DUP3 ADD SWAP1 POP DUP2 DUP2 SUB PUSH0 DUP4 ADD MSTORE PUSH2 0x3857 DUP2 PUSH2 0x381E JUMP JUMPDEST SWAP1 POP SWAP2 SWAP1 POP JUMP JUMPDEST PUSH32 0x4E6F77206964206973206E6F74206F6E2072656E742E00000000000000000000 PUSH0 DUP3 ADD MSTORE POP JUMP JUMPDEST PUSH0 PUSH2 0x3892 PUSH1 0x16 DUP4 PUSH2 0x3059 JUMP JUMPDEST SWAP2 POP PUSH2 0x389D DUP3 PUSH2 0x385E JUMP JUMPDEST PUSH1 0x20 DUP3 ADD SWAP1 POP SWAP2 SWAP1 POP JUMP JUMPDEST PUSH0 PUSH1 0x20 DUP3 ADD SWAP1 POP DUP2 DUP2 SUB PUSH0 DUP4 ADD MSTORE PUSH2 0x38BF DUP2 PUSH2 0x3886 JUMP JUMPDEST SWAP1 POP SWAP2 SWAP1 POP JUMP JUMPDEST PUSH32 0x616D6F756E74206E6F74206D617463682065746865722072657175697265642E PUSH0 DUP3 ADD MSTORE POP JUMP JUMPDEST PUSH0 PUSH2 0x38FA PUSH1 0x20 DUP4 PUSH2 0x3059 JUMP JUMPDEST SWAP2 POP PUSH2 0x3905 DUP3 PUSH2 0x38C6 JUMP JUMPDEST PUSH1 0x20 DUP3 ADD SWAP1 POP SWAP2 SWAP1 POP JUMP JUMPDEST PUSH0 PUSH1 0x20 DUP3 ADD SWAP1 POP DUP2 DUP2 SUB PUSH0 DUP4 ADD MSTORE PUSH2 0x3927 DUP2 PUSH2 0x38EE JUMP JUMPDEST SWAP1 POP SWAP2 SWAP1 POP JUMP JUMPDEST PUSH32 0x616C72656164792074616B656E204E66742E0000000000000000000000000000 PUSH0 DUP3 ADD MSTORE POP JUMP JUMPDEST PUSH0 PUSH2 0x3962 PUSH1 0x12 DUP4 PUSH2 0x3059 JUMP JUMPDEST SWAP2 POP PUSH2 0x396D DUP3 PUSH2 0x392E JUMP JUMPDEST PUSH1 0x20 DUP3 ADD SWAP1 POP SWAP2 SWAP1 POP JUMP JUMPDEST PUSH0 PUSH1 0x20 DUP3 ADD SWAP1 POP DUP2 DUP2 SUB PUSH0 DUP4 ADD MSTORE PUSH2 0x398F DUP2 PUSH2 0x3956 JUMP JUMPDEST SWAP1 POP SWAP2 SWAP1 POP JUMP JUMPDEST PUSH32 0x6F776E65722063616E742074616B6520686973206F776E2069642E0000000000 PUSH0 DUP3 ADD MSTORE POP JUMP JUMPDEST PUSH0 PUSH2 0x39CA PUSH1 0x1B DUP4 PUSH2 0x3059 JUMP JUMPDEST SWAP2 POP PUSH2 0x39D5 DUP3 PUSH2 0x3996 JUMP JUMPDEST PUSH1 0x20 DUP3 ADD SWAP1 POP SWAP2 SWAP1 POP JUMP JUMPDEST PUSH0 PUSH1 0x20 DUP3 ADD SWAP1 POP DUP2 DUP2 SUB PUSH0 DUP4 ADD MSTORE PUSH2 0x39F7 DUP2 PUSH2 0x39BE JUMP JUMPDEST SWAP1 POP SWAP2 SWAP1 POP JUMP JUMPDEST PUSH32 0x6E6674206E6F74206C69737465642E0000000000000000000000000000000000 PUSH0 DUP3 ADD MSTORE POP JUMP JUMPDEST PUSH0 PUSH2 0x3A32 PUSH1 0xF DUP4 PUSH2 0x3059 JUMP JUMPDEST SWAP2 POP PUSH2 0x3A3D DUP3 PUSH2 0x39FE JUMP JUMPDEST PUSH1 0x20 DUP3 ADD SWAP1 POP SWAP2 SWAP1 POP JUMP JUMPDEST PUSH0 PUSH1 0x20 DUP3 ADD SWAP1 POP DUP2 DUP2 SUB PUSH0 DUP4 ADD MSTORE PUSH2 0x3A5F DUP2 PUSH2 0x3A26 JUMP JUMPDEST SWAP1 POP SWAP2 SWAP1 POP JUMP JUMPDEST PUSH32 0x596F752068617665206368616E636573206F7220416C7265616479206D696E69 PUSH0 DUP3 ADD MSTORE PUSH32 0x6E672E0000000000000000000000000000000000000000000000000000000000 PUSH1 0x20 DUP3 ADD MSTORE POP JUMP JUMPDEST PUSH0 PUSH2 0x3AC0 PUSH1 0x23 DUP4 PUSH2 0x3059 JUMP JUMPDEST SWAP2 POP PUSH2 0x3ACB DUP3 PUSH2 0x3A66 JUMP JUMPDEST PUSH1 0x40 DUP3 ADD SWAP1 POP SWAP2 SWAP1 POP JUMP JUMPDEST PUSH0 PUSH1 0x20 DUP3 ADD SWAP1 POP DUP2 DUP2 SUB PUSH0 DUP4 ADD MSTORE PUSH2 0x3AED DUP2 PUSH2 0x3AB4 JUMP JUMPDEST SWAP1 POP SWAP2 SWAP1 POP JUMP JUMPDEST PUSH0 DUP2 SWAP1 POP SWAP3 SWAP2 POP POP JUMP JUMPDEST PUSH0 PUSH2 0x3B08 DUP3 PUSH2 0x2D1C JUMP JUMPDEST PUSH2 0x3B12 DUP2 DUP6 PUSH2 0x3AF4 JUMP JUMPDEST SWAP4 POP PUSH2 0x3B22 DUP2 DUP6 PUSH1 0x20 DUP7 ADD PUSH2 0x2D36 JUMP JUMPDEST DUP1 DUP5 ADD SWAP2 POP POP SWAP3 SWAP2 POP POP JUMP JUMPDEST PUSH0 PUSH2 0x3B39 DUP3 DUP5 PUSH2 0x3AFE JUMP JUMPDEST SWAP2 POP DUP2 SWAP1 POP SWAP3 SWAP2 POP POP JUMP JUMPDEST PUSH0 DUP2 SWAP1 POP DUP2 PUSH0 MSTORE PUSH1 0x20 PUSH0 KECCAK256 SWAP1 POP SWAP2 SWAP1 POP JUMP JUMPDEST PUSH0 PUSH1 0x20 PUSH1 0x1F DUP4 ADD DIV SWAP1 POP SWAP2 SWAP1 POP JUMP JUMPDEST PUSH0 DUP3 DUP3 SHL SWAP1 POP SWAP3 SWAP2 POP POP JUMP JUMPDEST PUSH0 PUSH1 0x8 DUP4 MUL PUSH2 0x3BA0 PUSH32 0xFFFFFFFFFFFFFFFFFFFFFFFFFFFFFFFFFFFFFFFFFFFFFFFFFFFFFFFFFFFFFFFF DUP3 PUSH2 0x3B65 JUMP JUMPDEST PUSH2 0x3BAA DUP7 DUP4 PUSH2 0x3B65 JUMP JUMPDEST SWAP6 POP DUP1 NOT DUP5 AND SWAP4 POP DUP1 DUP7 AND DUP5 OR SWAP3 POP POP POP SWAP4 SWAP3 POP POP POP JUMP JUMPDEST PUSH0 DUP2 SWAP1 POP SWAP2 SWAP1 POP JUMP JUMPDEST PUSH0 PUSH2 0x3BE5 PUSH2 0x3BE0 PUSH2 0x3BDB DUP5 PUSH2 0x2A57 JUMP JUMPDEST PUSH2 0x3BC2 JUMP JUMPDEST PUSH2 0x2A57 JUMP JUMPDEST SWAP1 POP SWAP2 SWAP1 POP JUMP JUMPDEST PUSH0 DUP2 SWAP1 POP SWAP2 SWAP1 POP JUMP JUMPDEST PUSH2 0x3BFE DUP4 PUSH2 0x3BCB JUMP JUMPDEST PUSH2 0x3C12 PUSH2 0x3C0A DUP3 PUSH2 0x3BEC JUMP JUMPDEST DUP5 DUP5 SLOAD PUSH2 0x3B71 JUMP JUMPDEST DUP3 SSTORE POP POP POP POP JUMP JUMPDEST PUSH0 SWAP1 JUMP JUMPDEST PUSH2 0x3C26 PUSH2 0x3C1A JUMP JUMPDEST PUSH2 0x3C31 DUP2 DUP5 DUP5 PUSH2 0x3BF5 JUMP JUMPDEST POP POP POP JUMP JUMPDEST JUMPDEST DUP2 DUP2 LT ISZERO PUSH2 0x3C54 JUMPI PUSH2 0x3C49 PUSH0 DUP3 PUSH2 0x3C1E JUMP JUMPDEST PUSH1 0x1 DUP2 ADD SWAP1 POP PUSH2 0x3C37 JUMP JUMPDEST POP POP JUMP JUMPDEST PUSH1 0x1F DUP3 GT ISZERO PUSH2 0x3C99 JUMPI PUSH2 0x3C6A DUP2 PUSH2 0x3B44 JUMP JUMPDEST PUSH2 0x3C73 DUP5 PUSH2 0x3B56 JUMP JUMPDEST DUP2 ADD PUSH1 0x20 DUP6 LT ISZERO PUSH2 0x3C82 JUMPI DUP2 SWAP1 POP JUMPDEST PUSH2 0x3C96 PUSH2 0x3C8E DUP6 PUSH2 0x3B56 JUMP JUMPDEST DUP4 ADD DUP3 PUSH2 0x3C36 JUMP JUMPDEST POP POP JUMPDEST POP POP POP JUMP JUMPDEST PUSH0 DUP3 DUP3 SHR SWAP1 POP SWAP3 SWAP2 POP POP JUMP JUMPDEST PUSH0 PUSH2 0x3CB9 PUSH0 NOT DUP5 PUSH1 0x8 MUL PUSH2 0x3C9E JUMP JUMPDEST NOT DUP1 DUP4 AND SWAP2 POP POP SWAP3 SWAP2 POP POP JUMP JUMPDEST PUSH0 PUSH2 0x3CD1 DUP4 DUP4 PUSH2 0x3CAA JUMP JUMPDEST SWAP2 POP DUP3 PUSH1 0x2 MUL DUP3 OR SWAP1 POP SWAP3 SWAP2 POP POP JUMP JUMPDEST PUSH2 0x3CEA DUP3 PUSH2 0x2D1C JUMP JUMPDEST PUSH8 0xFFFFFFFFFFFFFFFF DUP2 GT ISZERO PUSH2 0x3D03 JUMPI PUSH2 0x3D02 PUSH2 0x2EBF JUMP JUMPDEST JUMPDEST PUSH2 0x3D0D DUP3 SLOAD PUSH2 0x312B JUMP JUMPDEST PUSH2 0x3D18 DUP3 DUP3 DUP6 PUSH2 0x3C58 JUMP JUMPDEST PUSH0 PUSH1 0x20 SWAP1 POP PUSH1 0x1F DUP4 GT PUSH1 0x1 DUP2 EQ PUSH2 0x3D49 JUMPI PUSH0 DUP5 ISZERO PUSH2 0x3D37 JUMPI DUP3 DUP8 ADD MLOAD SWAP1 POP JUMPDEST PUSH2 0x3D41 DUP6 DUP3 PUSH2 0x3CC6 JUMP JUMPDEST DUP7 SSTORE POP PUSH2 0x3DA8 JUMP JUMPDEST PUSH1 0x1F NOT DUP5 AND PUSH2 0x3D57 DUP7 PUSH2 0x3B44 JUMP JUMPDEST PUSH0 JUMPDEST DUP3 DUP2 LT ISZERO PUSH2 0x3D7E JUMPI DUP5 DUP10 ADD MLOAD DUP3 SSTORE PUSH1 0x1 DUP3 ADD SWAP2 POP PUSH1 0x20 DUP6 ADD SWAP5 POP PUSH1 0x20 DUP2 ADD SWAP1 POP PUSH2 0x3D59 JUMP JUMPDEST DUP7 DUP4 LT ISZERO PUSH2 0x3D9B JUMPI DUP5 DUP10 ADD MLOAD PUSH2 0x3D97 PUSH1 0x1F DUP10 AND DUP3 PUSH2 0x3CAA JUMP JUMPDEST DUP4 SSTORE POP JUMPDEST PUSH1 0x1 PUSH1 0x2 DUP9 MUL ADD DUP9 SSTORE POP POP POP JUMPDEST POP POP POP POP POP POP JUMP JUMPDEST PUSH32 0x4D696E6520746865206D6174636865732E000000000000000000000000000000 PUSH0 DUP3 ADD MSTORE POP JUMP JUMPDEST PUSH0 PUSH2 0x3DE4 PUSH1 0x11 DUP4 PUSH2 0x3059 JUMP JUMPDEST SWAP2 POP PUSH2 0x3DEF DUP3 PUSH2 0x3DB0 JUMP JUMPDEST PUSH1 0x20 DUP3 ADD SWAP1 POP SWAP2 SWAP1 POP JUMP JUMPDEST PUSH0 PUSH1 0x20 DUP3 ADD SWAP1 POP DUP2 DUP2 SUB PUSH0 DUP4 ADD MSTORE PUSH2 0x3E11 DUP2 PUSH2 0x3DD8 JUMP JUMPDEST SWAP1 POP SWAP2 SWAP1 POP JUMP JUMPDEST PUSH32 0x416761696E205472790000000000000000000000000000000000000000000000 PUSH0 DUP3 ADD MSTORE POP JUMP JUMPDEST PUSH0 PUSH2 0x3E4C PUSH1 0x9 DUP4 PUSH2 0x3059 JUMP JUMPDEST SWAP2 POP PUSH2 0x3E57 DUP3 PUSH2 0x3E18 JUMP JUMPDEST PUSH1 0x20 DUP3 ADD SWAP1 POP SWAP2 SWAP1 POP JUMP JUMPDEST PUSH0 PUSH1 0x20 DUP3 ADD SWAP1 POP DUP2 DUP2 SUB PUSH0 DUP4 ADD MSTORE PUSH2 0x3E79 DUP2 PUSH2 0x3E40 JUMP JUMPDEST SWAP1 POP SWAP2 SWAP1 POP JUMP INVALID JUMPI PUSH10 0x6E20416E64204C6F6F73 PUSH6 0x206973207468 PUSH6 0x207061727420 PUSH16 0x66207468652047616D652E5472792041 PUSH8 0x61696E212EA26469 PUSH17 0x66735822122006BAB5EFFB8545DE12CFC5 0xE3 JUMPDEST PUSH32 0xA89AAD9D172FE8C1F613BA8082AC15863BAF64736F6C63430008150033000000 "
		},
		"gasEstimates": {
			"creation": {
				"codeDepositCost": "3220600",
				"executionCost": "25675",
				"totalCost": "3246275"
			},
			"external": {
				"Allowance(address,address)": "infinite",
				"BuyOnRent(uint256)": "infinite",
				"BuyZombie(string,string)": "infinite",
				"FightWithBot(uint256)": "infinite",
				"FightWithZombie(uint256)": "infinite",
				"FreeNft(address)": "2878",
				"FreeZombie()": "infinite",
				"GiveOnRent(uint256,uint256)": "infinite",
				"MintTime(uint256)": "infinite",
				"RemoveRent(uint256)": "80187",
				"RentedbyID(uint256)": "2916",
				"TakenNft(uint256)": "2896",
				"Timing(uint256)": "infinite",
				"approve(address,uint256)": "49536",
				"buyOnRent(address)": "2922",
				"convertXP(uint256)": "infinite",
				"getDetails(uint256)": "infinite",
				"mineTotalMatch(uint256)": "infinite",
				"onRent(uint256)": "2917",
				"ownerZombies(address)": "infinite",
				"rentAmount(uint256)": "infinite",
				"tranferFrom(address,address,uint256)": "infinite"
			}
		},
		"methodIdentifiers": {
			"Allowance(address,address)": "6dcdd00f",
			"BuyOnRent(uint256)": "e70364d4",
			"BuyZombie(string,string)": "cb9940b7",
			"FightWithBot(uint256)": "cbc7d367",
			"FightWithZombie(uint256)": "c224f388",
			"FreeNft(address)": "c0342cb4",
			"FreeZombie()": "b81c3db7",
			"GiveOnRent(uint256,uint256)": "35e1d33c",
			"MintTime(uint256)": "37e14e65",
			"RemoveRent(uint256)": "e0c4f15e",
			"RentedbyID(uint256)": "c583f36a",
			"TakenNft(uint256)": "9f52f1a1",
			"Timing(uint256)": "10f9ec13",
			"approve(address,uint256)": "095ea7b3",
			"buyOnRent(address)": "9a861a78",
			"convertXP(uint256)": "d41b93b1",
			"getDetails(uint256)": "b93a89f7",
			"mineTotalMatch(uint256)": "e871d8f3",
			"onRent(uint256)": "ef65bc97",
			"ownerZombies(address)": "3c956b05",
			"rentAmount(uint256)": "901ac159",
			"tranferFrom(address,address,uint256)": "9264a169"
		}
	},
	"abi": [
		{
			"inputs": [
				{
					"internalType": "address",
					"name": "",
					"type": "address"
				},
				{
					"internalType": "address",
					"name": "",
					"type": "address"
				}
			],
			"name": "Allowance",
			"outputs": [
				{
					"internalType": "uint256",
					"name": "",
					"type": "uint256"
				}
			],
			"stateMutability": "view",
			"type": "function"
		},
		{
			"inputs": [
				{
					"internalType": "uint256",
					"name": "id",
					"type": "uint256"
				}
			],
			"name": "BuyOnRent",
			"outputs": [
				{
					"internalType": "bool",
					"name": "",
					"type": "bool"
				}
			],
			"stateMutability": "payable",
			"type": "function"
		},
		{
			"inputs": [
				{
					"internalType": "string",
					"name": "plan",
					"type": "string"
				},
				{
					"internalType": "string",
					"name": "name",
					"type": "string"
				}
			],
			"name": "BuyZombie",
			"outputs": [
				{
					"internalType": "bool",
					"name": "",
					"type": "bool"
				}
			],
			"stateMutability": "payable",
			"type": "function"
		},
		{
			"inputs": [
				{
					"internalType": "uint256",
					"name": "YourZombieId",
					"type": "uint256"
				}
			],
			"name": "FightWithBot",
			"outputs": [],
			"stateMutability": "nonpayable",
			"type": "function"
		},
		{
			"inputs": [
				{
					"internalType": "uint256",
					"name": "zombieID",
					"type": "uint256"
				}
			],
			"name": "FightWithZombie",
			"outputs": [],
			"stateMutability": "nonpayable",
			"type": "function"
		},
		{
			"inputs": [
				{
					"internalType": "address",
					"name": "",
					"type": "address"
				}
			],
			"name": "FreeNft",
			"outputs": [
				{
					"internalType": "bool",
					"name": "",
					"type": "bool"
				}
			],
			"stateMutability": "view",
			"type": "function"
		},
		{
			"inputs": [],
			"name": "FreeZombie",
			"outputs": [],
			"stateMutability": "nonpayable",
			"type": "function"
		},
		{
			"inputs": [
				{
					"internalType": "uint256",
					"name": "id",
					"type": "uint256"
				},
				{
					"internalType": "uint256",
					"name": "RentAmount",
					"type": "uint256"
				}
			],
			"name": "GiveOnRent",
			"outputs": [],
			"stateMutability": "nonpayable",
			"type": "function"
		},
		{
			"inputs": [
				{
					"internalType": "uint256",
					"name": "",
					"type": "uint256"
				}
			],
			"name": "MintTime",
			"outputs": [
				{
					"internalType": "uint256",
					"name": "",
					"type": "uint256"
				}
			],
			"stateMutability": "view",
			"type": "function"
		},
		{
			"inputs": [
				{
					"internalType": "uint256",
					"name": "id",
					"type": "uint256"
				}
			],
			"name": "RemoveRent",
			"outputs": [],
			"stateMutability": "nonpayable",
			"type": "function"
		},
		{
			"inputs": [
				{
					"internalType": "uint256",
					"name": "",
					"type": "uint256"
				}
			],
			"name": "RentedbyID",
			"outputs": [
				{
					"internalType": "address",
					"name": "",
					"type": "address"
				}
			],
			"stateMutability": "view",
			"type": "function"
		},
		{
			"inputs": [
				{
					"internalType": "uint256",
					"name": "",
					"type": "uint256"
				}
			],
			"name": "TakenNft",
			"outputs": [
				{
					"internalType": "bool",
					"name": "",
					"type": "bool"
				}
			],
			"stateMutability": "view",
			"type": "function"
		},
		{
			"inputs": [
				{
					"internalType": "uint256",
					"name": "",
					"type": "uint256"
				}
			],
			"name": "Timing",
			"outputs": [
				{
					"internalType": "uint256",
					"name": "",
					"type": "uint256"
				}
			],
			"stateMutability": "view",
			"type": "function"
		},
		{
			"inputs": [
				{
					"internalType": "address",
					"name": "to",
					"type": "address"
				},
				{
					"internalType": "uint256",
					"name": "id",
					"type": "uint256"
				}
			],
			"name": "approve",
			"outputs": [],
			"stateMutability": "nonpayable",
			"type": "function"
		},
		{
			"inputs": [
				{
					"internalType": "address",
					"name": "",
					"type": "address"
				}
			],
			"name": "buyOnRent",
			"outputs": [
				{
					"internalType": "bool",
					"name": "",
					"type": "bool"
				}
			],
			"stateMutability": "view",
			"type": "function"
		},
		{
			"inputs": [
				{
					"internalType": "uint256",
					"name": "id",
					"type": "uint256"
				}
			],
			"name": "convertXP",
			"outputs": [],
			"stateMutability": "nonpayable",
			"type": "function"
		},
		{
			"inputs": [
				{
					"internalType": "uint256",
					"name": "zombieId",
					"type": "uint256"
				}
			],
			"name": "getDetails",
			"outputs": [
				{
					"components": [
						{
							"internalType": "string",
							"name": "plan",
							"type": "string"
						},
						{
							"internalType": "string",
							"name": "name",
							"type": "string"
						},
						{
							"internalType": "uint256",
							"name": "dna",
							"type": "uint256"
						},
						{
							"internalType": "uint256",
							"name": "level",
							"type": "uint256"
						},
						{
							"internalType": "uint256",
							"name": "xp",
							"type": "uint256"
						},
						{
							"internalType": "uint256",
							"name": "TotalMatch",
							"type": "uint256"
						},
						{
							"internalType": "uint256",
							"name": "MatchLeft",
							"type": "uint256"
						},
						{
							"internalType": "uint256",
							"name": "Wins",
							"type": "uint256"
						},
						{
							"internalType": "uint256",
							"name": "Looses",
							"type": "uint256"
						}
					],
					"internalType": "struct ZombieGame.zombieDetails",
					"name": "",
					"type": "tuple"
				}
			],
			"stateMutability": "view",
			"type": "function"
		},
		{
			"inputs": [
				{
					"internalType": "uint256",
					"name": "id",
					"type": "uint256"
				}
			],
			"name": "mineTotalMatch",
			"outputs": [
				{
					"internalType": "bool",
					"name": "",
					"type": "bool"
				}
			],
			"stateMutability": "nonpayable",
			"type": "function"
		},
		{
			"inputs": [
				{
					"internalType": "uint256",
					"name": "",
					"type": "uint256"
				}
			],
			"name": "onRent",
			"outputs": [
				{
					"internalType": "bool",
					"name": "",
					"type": "bool"
				}
			],
			"stateMutability": "view",
			"type": "function"
		},
		{
			"inputs": [
				{
					"internalType": "address",
					"name": "_owner",
					"type": "address"
				}
			],
			"name": "ownerZombies",
			"outputs": [
				{
					"internalType": "uint256[]",
					"name": "",
					"type": "uint256[]"
				}
			],
			"stateMutability": "view",
			"type": "function"
		},
		{
			"inputs": [
				{
					"internalType": "uint256",
					"name": "",
					"type": "uint256"
				}
			],
			"name": "rentAmount",
			"outputs": [
				{
					"internalType": "uint256",
					"name": "",
					"type": "uint256"
				}
			],
			"stateMutability": "view",
			"type": "function"
		},
		{
			"inputs": [
				{
					"internalType": "address",
					"name": "from",
					"type": "address"
				},
				{
					"internalType": "address",
					"name": "to",
					"type": "address"
				},
				{
					"internalType": "uint256",
					"name": "id",
					"type": "uint256"
				}
			],
			"name": "tranferFrom",
			"outputs": [],
			"stateMutability": "nonpayable",
			"type": "function"
		}
	]
}