{
	"data": {
		"bytecode": {
			"linkReferences": {},
			"object": "608060405234801561001057600080fd5b5061036f806100206000396000f3fe6080604052600436106100225760003560e01c80634d9b3d5d146100a657610064565b36610064577ff5a6c327dca456b19a46c2013b59108cf09e6c92bd2984058c8eb86bfd610a7a33345a60405161005a939291906101c7565b60405180910390a1005b7ff5a6c327dca456b19a46c2013b59108cf09e6c92bd2984058c8eb86bfd610a7a33346000365a60405161009c9594939291906102bd565b60405180910390a1005b3480156100b257600080fd5b506100bb6100d1565b6040516100c8919061031e565b60405180910390f35b600047905090565b600082825260208201905092915050565b7f7265636569766500000000000000000000000000000000000000000000000000600082015250565b60006101206007836100d9565b915061012b826100ea565b602082019050919050565b600073ffffffffffffffffffffffffffffffffffffffff82169050919050565b600061016182610136565b9050919050565b61017181610156565b82525050565b6000819050919050565b61018a81610177565b82525050565b600082825260208201905092915050565b50565b60006101b1600083610190565b91506101bc826101a1565b600082019050919050565b600060a08201905081810360008301526101e081610113565b90506101ef6020830186610168565b6101fc6040830185610181565b818103606083015261020d816101a4565b905061021c6080830184610181565b949350505050565b7f66616c6c6261636b000000000000000000000000000000000000000000000000600082015250565b600061025a6008836100d9565b915061026582610224565b602082019050919050565b82818337600083830152505050565b6000601f19601f8301169050919050565b600061029c8385610190565b93506102a9838584610270565b6102b28361027f565b840190509392505050565b600060a08201905081810360008301526102d68161024d565b90506102e56020830188610168565b6102f26040830187610181565b8181036060830152610305818587610290565b90506103146080830184610181565b9695505050505050565b60006020820190506103336000830184610181565b9291505056fea2646970667358221220023c36985f811fb8fab70ffbfb344b9c4fadc799270ad8c9e1751d54517c765d64736f6c63430008120033",
			"opcodes": "PUSH1 0x80 PUSH1 0x40 MSTORE CALLVALUE DUP1 ISZERO PUSH2 0x10 JUMPI PUSH1 0x0 DUP1 REVERT JUMPDEST POP PUSH2 0x36F DUP1 PUSH2 0x20 PUSH1 0x0 CODECOPY PUSH1 0x0 RETURN INVALID PUSH1 0x80 PUSH1 0x40 MSTORE PUSH1 0x4 CALLDATASIZE LT PUSH2 0x22 JUMPI PUSH1 0x0 CALLDATALOAD PUSH1 0xE0 SHR DUP1 PUSH4 0x4D9B3D5D EQ PUSH2 0xA6 JUMPI PUSH2 0x64 JUMP JUMPDEST CALLDATASIZE PUSH2 0x64 JUMPI PUSH32 0xF5A6C327DCA456B19A46C2013B59108CF09E6C92BD2984058C8EB86BFD610A7A CALLER CALLVALUE GAS PUSH1 0x40 MLOAD PUSH2 0x5A SWAP4 SWAP3 SWAP2 SWAP1 PUSH2 0x1C7 JUMP JUMPDEST PUSH1 0x40 MLOAD DUP1 SWAP2 SUB SWAP1 LOG1 STOP JUMPDEST PUSH32 0xF5A6C327DCA456B19A46C2013B59108CF09E6C92BD2984058C8EB86BFD610A7A CALLER CALLVALUE PUSH1 0x0 CALLDATASIZE GAS PUSH1 0x40 MLOAD PUSH2 0x9C SWAP6 SWAP5 SWAP4 SWAP3 SWAP2 SWAP1 PUSH2 0x2BD JUMP JUMPDEST PUSH1 0x40 MLOAD DUP1 SWAP2 SUB SWAP1 LOG1 STOP JUMPDEST CALLVALUE DUP1 ISZERO PUSH2 0xB2 JUMPI PUSH1 0x0 DUP1 REVERT JUMPDEST POP PUSH2 0xBB PUSH2 0xD1 JUMP JUMPDEST PUSH1 0x40 MLOAD PUSH2 0xC8 SWAP2 SWAP1 PUSH2 0x31E JUMP JUMPDEST PUSH1 0x40 MLOAD DUP1 SWAP2 SUB SWAP1 RETURN JUMPDEST PUSH1 0x0 SELFBALANCE SWAP1 POP SWAP1 JUMP JUMPDEST PUSH1 0x0 DUP3 DUP3 MSTORE PUSH1 0x20 DUP3 ADD SWAP1 POP SWAP3 SWAP2 POP POP JUMP JUMPDEST PUSH32 0x7265636569766500000000000000000000000000000000000000000000000000 PUSH1 0x0 DUP3 ADD MSTORE POP JUMP JUMPDEST PUSH1 0x0 PUSH2 0x120 PUSH1 0x7 DUP4 PUSH2 0xD9 JUMP JUMPDEST SWAP2 POP PUSH2 0x12B DUP3 PUSH2 0xEA JUMP JUMPDEST PUSH1 0x20 DUP3 ADD SWAP1 POP SWAP2 SWAP1 POP JUMP JUMPDEST PUSH1 0x0 PUSH20 0xFFFFFFFFFFFFFFFFFFFFFFFFFFFFFFFFFFFFFFFF DUP3 AND SWAP1 POP SWAP2 SWAP1 POP JUMP JUMPDEST PUSH1 0x0 PUSH2 0x161 DUP3 PUSH2 0x136 JUMP JUMPDEST SWAP1 POP SWAP2 SWAP1 POP JUMP JUMPDEST PUSH2 0x171 DUP2 PUSH2 0x156 JUMP JUMPDEST DUP3 MSTORE POP POP JUMP JUMPDEST PUSH1 0x0 DUP2 SWAP1 POP SWAP2 SWAP1 POP JUMP JUMPDEST PUSH2 0x18A DUP2 PUSH2 0x177 JUMP JUMPDEST DUP3 MSTORE POP POP JUMP JUMPDEST PUSH1 0x0 DUP3 DUP3 MSTORE PUSH1 0x20 DUP3 ADD SWAP1 POP SWAP3 SWAP2 POP POP JUMP JUMPDEST POP JUMP JUMPDEST PUSH1 0x0 PUSH2 0x1B1 PUSH1 0x0 DUP4 PUSH2 0x190 JUMP JUMPDEST SWAP2 POP PUSH2 0x1BC DUP3 PUSH2 0x1A1 JUMP JUMPDEST PUSH1 0x0 DUP3 ADD SWAP1 POP SWAP2 SWAP1 POP JUMP JUMPDEST PUSH1 0x0 PUSH1 0xA0 DUP3 ADD SWAP1 POP DUP2 DUP2 SUB PUSH1 0x0 DUP4 ADD MSTORE PUSH2 0x1E0 DUP2 PUSH2 0x113 JUMP JUMPDEST SWAP1 POP PUSH2 0x1EF PUSH1 0x20 DUP4 ADD DUP7 PUSH2 0x168 JUMP JUMPDEST PUSH2 0x1FC PUSH1 0x40 DUP4 ADD DUP6 PUSH2 0x181 JUMP JUMPDEST DUP2 DUP2 SUB PUSH1 0x60 DUP4 ADD MSTORE PUSH2 0x20D DUP2 PUSH2 0x1A4 JUMP JUMPDEST SWAP1 POP PUSH2 0x21C PUSH1 0x80 DUP4 ADD DUP5 PUSH2 0x181 JUMP JUMPDEST SWAP5 SWAP4 POP POP POP POP JUMP JUMPDEST PUSH32 0x66616C6C6261636B000000000000000000000000000000000000000000000000 PUSH1 0x0 DUP3 ADD MSTORE POP JUMP JUMPDEST PUSH1 0x0 PUSH2 0x25A PUSH1 0x8 DUP4 PUSH2 0xD9 JUMP JUMPDEST SWAP2 POP PUSH2 0x265 DUP3 PUSH2 0x224 JUMP JUMPDEST PUSH1 0x20 DUP3 ADD SWAP1 POP SWAP2 SWAP1 POP JUMP JUMPDEST DUP3 DUP2 DUP4 CALLDATACOPY PUSH1 0x0 DUP4 DUP4 ADD MSTORE POP POP POP JUMP JUMPDEST PUSH1 0x0 PUSH1 0x1F NOT PUSH1 0x1F DUP4 ADD AND SWAP1 POP SWAP2 SWAP1 POP JUMP JUMPDEST PUSH1 0x0 PUSH2 0x29C DUP4 DUP6 PUSH2 0x190 JUMP JUMPDEST SWAP4 POP PUSH2 0x2A9 DUP4 DUP6 DUP5 PUSH2 0x270 JUMP JUMPDEST PUSH2 0x2B2 DUP4 PUSH2 0x27F JUMP JUMPDEST DUP5 ADD SWAP1 POP SWAP4 SWAP3 POP POP POP JUMP JUMPDEST PUSH1 0x0 PUSH1 0xA0 DUP3 ADD SWAP1 POP DUP2 DUP2 SUB PUSH1 0x0 DUP4 ADD MSTORE PUSH2 0x2D6 DUP2 PUSH2 0x24D JUMP JUMPDEST SWAP1 POP PUSH2 0x2E5 PUSH1 0x20 DUP4 ADD DUP9 PUSH2 0x168 JUMP JUMPDEST PUSH2 0x2F2 PUSH1 0x40 DUP4 ADD DUP8 PUSH2 0x181 JUMP JUMPDEST DUP2 DUP2 SUB PUSH1 0x60 DUP4 ADD MSTORE PUSH2 0x305 DUP2 DUP6 DUP8 PUSH2 0x290 JUMP JUMPDEST SWAP1 POP PUSH2 0x314 PUSH1 0x80 DUP4 ADD DUP5 PUSH2 0x181 JUMP JUMPDEST SWAP7 SWAP6 POP POP POP POP POP POP JUMP JUMPDEST PUSH1 0x0 PUSH1 0x20 DUP3 ADD SWAP1 POP PUSH2 0x333 PUSH1 0x0 DUP4 ADD DUP5 PUSH2 0x181 JUMP JUMPDEST SWAP3 SWAP2 POP POP JUMP INVALID LOG2 PUSH5 0x6970667358 0x22 SLT KECCAK256 MUL EXTCODECOPY CALLDATASIZE SWAP9 0x5F DUP2 0x1F 0xB8 STATICCALL 0xB7 0xF 0xFB 0xFB CALLVALUE 0x4B SWAP13 0x4F 0xAD 0xC7 SWAP10 0x27 EXP 0xD8 0xC9 0xE1 PUSH22 0x1D54517C765D64736F6C634300081200330000000000 "
		},
		"gasEstimates": {
			"creation": {
				"codeDepositCost": "175800",
				"executionCost": "220",
				"totalCost": "176020"
			},
			"external": {
				"": "infinite",
				"getbalance()": "317"
			}
		},
		"methodIdentifiers": {
			"getbalance()": "4d9b3d5d"
		}
	},
	"abi": [
		{
			"anonymous": false,
			"inputs": [
				{
					"indexed": false,
					"internalType": "string",
					"name": "text",
					"type": "string"
				},
				{
					"indexed": false,
					"internalType": "address",
					"name": "sender",
					"type": "address"
				},
				{
					"indexed": false,
					"internalType": "uint256",
					"name": "value",
					"type": "uint256"
				},
				{
					"indexed": false,
					"internalType": "bytes",
					"name": "data",
					"type": "bytes"
				},
				{
					"indexed": false,
					"internalType": "uint256",
					"name": "gas",
					"type": "uint256"
				}
			],
			"name": "bottomlog",
			"type": "event"
		},
		{
			"stateMutability": "payable",
			"type": "fallback"
		},
		{
			"inputs": [],
			"name": "getbalance",
			"outputs": [
				{
					"internalType": "uint256",
					"name": "",
					"type": "uint256"
				}
			],
			"stateMutability": "view",
			"type": "function"
		},
		{
			"stateMutability": "payable",
			"type": "receive"
		}
	]
}