{
	"data": {
		"bytecode": {
			"linkReferences": {},
			"object": "608060405234801561000f575f80fd5b506104ef8061001d5f395ff3fe608060405260043610610021575f3560e01c806324ccab8f1461005d57610022565b5b7f4ea43b897a5f947a4940ce8fc2485d2854dcf256c52754394f1804723a091a21333460405161005392919061018f565b60405180910390a1005b61007760048036038101906100729190610340565b61008d565b604051610084919061039a565b60405180910390f35b5f7f4ea43b897a5f947a4940ce8fc2485d2854dcf256c52754394f1804723a091a213334856040516100c19392919061041d565b60405180910390a16001826100d69190610486565b905092915050565b5f73ffffffffffffffffffffffffffffffffffffffff82169050919050565b5f610107826100de565b9050919050565b610117816100fd565b82525050565b5f819050919050565b61012f8161011d565b82525050565b5f82825260208201905092915050565b7f66616c6c6261636b63616c6c65640000000000000000000000000000000000005f82015250565b5f610179600e83610135565b915061018482610145565b602082019050919050565b5f6060820190506101a25f83018561010e565b6101af6020830184610126565b81810360408301526101c08161016d565b90509392505050565b5f604051905090565b5f80fd5b5f80fd5b5f80fd5b5f80fd5b5f601f19601f8301169050919050565b7f4e487b71000000000000000000000000000000000000000000000000000000005f52604160045260245ffd5b610228826101e2565b810181811067ffffffffffffffff82111715610247576102466101f2565b5b80604052505050565b5f6102596101c9565b9050610265828261021f565b919050565b5f67ffffffffffffffff821115610284576102836101f2565b5b61028d826101e2565b9050602081019050919050565b828183375f83830152505050565b5f6102ba6102b58461026a565b610250565b9050828152602081018484840111156102d6576102d56101de565b5b6102e184828561029a565b509392505050565b5f82601f8301126102fd576102fc6101da565b5b813561030d8482602086016102a8565b91505092915050565b61031f8161011d565b8114610329575f80fd5b50565b5f8135905061033a81610316565b92915050565b5f8060408385031215610356576103556101d2565b5b5f83013567ffffffffffffffff811115610373576103726101d6565b5b61037f858286016102e9565b92505060206103908582860161032c565b9150509250929050565b5f6020820190506103ad5f830184610126565b92915050565b5f81519050919050565b5f5b838110156103da5780820151818401526020810190506103bf565b5f8484015250505050565b5f6103ef826103b3565b6103f98185610135565b93506104098185602086016103bd565b610412816101e2565b840191505092915050565b5f6060820190506104305f83018661010e565b61043d6020830185610126565b818103604083015261044f81846103e5565b9050949350505050565b7f4e487b71000000000000000000000000000000000000000000000000000000005f52601160045260245ffd5b5f6104908261011d565b915061049b8361011d565b92508282019050808211156104b3576104b2610459565b5b9291505056fea2646970667358221220180d64f24177433c8cbd7c1ba88d07eae9281964c945355342aaf06ce6aac4c364736f6c63430008140033",
			"opcodes": "PUSH1 0x80 PUSH1 0x40 MSTORE CALLVALUE DUP1 ISZERO PUSH2 0xF JUMPI PUSH0 DUP1 REVERT JUMPDEST POP PUSH2 0x4EF DUP1 PUSH2 0x1D PUSH0 CODECOPY PUSH0 RETURN INVALID PUSH1 0x80 PUSH1 0x40 MSTORE PUSH1 0x4 CALLDATASIZE LT PUSH2 0x21 JUMPI PUSH0 CALLDATALOAD PUSH1 0xE0 SHR DUP1 PUSH4 0x24CCAB8F EQ PUSH2 0x5D JUMPI PUSH2 0x22 JUMP JUMPDEST JUMPDEST PUSH32 0x4EA43B897A5F947A4940CE8FC2485D2854DCF256C52754394F1804723A091A21 CALLER CALLVALUE PUSH1 0x40 MLOAD PUSH2 0x53 SWAP3 SWAP2 SWAP1 PUSH2 0x18F JUMP JUMPDEST PUSH1 0x40 MLOAD DUP1 SWAP2 SUB SWAP1 LOG1 STOP JUMPDEST PUSH2 0x77 PUSH1 0x4 DUP1 CALLDATASIZE SUB DUP2 ADD SWAP1 PUSH2 0x72 SWAP2 SWAP1 PUSH2 0x340 JUMP JUMPDEST PUSH2 0x8D JUMP JUMPDEST PUSH1 0x40 MLOAD PUSH2 0x84 SWAP2 SWAP1 PUSH2 0x39A JUMP JUMPDEST PUSH1 0x40 MLOAD DUP1 SWAP2 SUB SWAP1 RETURN JUMPDEST PUSH0 PUSH32 0x4EA43B897A5F947A4940CE8FC2485D2854DCF256C52754394F1804723A091A21 CALLER CALLVALUE DUP6 PUSH1 0x40 MLOAD PUSH2 0xC1 SWAP4 SWAP3 SWAP2 SWAP1 PUSH2 0x41D JUMP JUMPDEST PUSH1 0x40 MLOAD DUP1 SWAP2 SUB SWAP1 LOG1 PUSH1 0x1 DUP3 PUSH2 0xD6 SWAP2 SWAP1 PUSH2 0x486 JUMP JUMPDEST SWAP1 POP SWAP3 SWAP2 POP POP JUMP JUMPDEST PUSH0 PUSH20 0xFFFFFFFFFFFFFFFFFFFFFFFFFFFFFFFFFFFFFFFF DUP3 AND SWAP1 POP SWAP2 SWAP1 POP JUMP JUMPDEST PUSH0 PUSH2 0x107 DUP3 PUSH2 0xDE JUMP JUMPDEST SWAP1 POP SWAP2 SWAP1 POP JUMP JUMPDEST PUSH2 0x117 DUP2 PUSH2 0xFD JUMP JUMPDEST DUP3 MSTORE POP POP JUMP JUMPDEST PUSH0 DUP2 SWAP1 POP SWAP2 SWAP1 POP JUMP JUMPDEST PUSH2 0x12F DUP2 PUSH2 0x11D JUMP JUMPDEST DUP3 MSTORE POP POP JUMP JUMPDEST PUSH0 DUP3 DUP3 MSTORE PUSH1 0x20 DUP3 ADD SWAP1 POP SWAP3 SWAP2 POP POP JUMP JUMPDEST PUSH32 0x66616C6C6261636B63616C6C6564000000000000000000000000000000000000 PUSH0 DUP3 ADD MSTORE POP JUMP JUMPDEST PUSH0 PUSH2 0x179 PUSH1 0xE DUP4 PUSH2 0x135 JUMP JUMPDEST SWAP2 POP PUSH2 0x184 DUP3 PUSH2 0x145 JUMP JUMPDEST PUSH1 0x20 DUP3 ADD SWAP1 POP SWAP2 SWAP1 POP JUMP JUMPDEST PUSH0 PUSH1 0x60 DUP3 ADD SWAP1 POP PUSH2 0x1A2 PUSH0 DUP4 ADD DUP6 PUSH2 0x10E JUMP JUMPDEST PUSH2 0x1AF PUSH1 0x20 DUP4 ADD DUP5 PUSH2 0x126 JUMP JUMPDEST DUP2 DUP2 SUB PUSH1 0x40 DUP4 ADD MSTORE PUSH2 0x1C0 DUP2 PUSH2 0x16D JUMP JUMPDEST SWAP1 POP SWAP4 SWAP3 POP POP POP JUMP JUMPDEST PUSH0 PUSH1 0x40 MLOAD SWAP1 POP SWAP1 JUMP JUMPDEST PUSH0 DUP1 REVERT JUMPDEST PUSH0 DUP1 REVERT JUMPDEST PUSH0 DUP1 REVERT JUMPDEST PUSH0 DUP1 REVERT JUMPDEST PUSH0 PUSH1 0x1F NOT PUSH1 0x1F DUP4 ADD AND SWAP1 POP SWAP2 SWAP1 POP JUMP JUMPDEST PUSH32 0x4E487B7100000000000000000000000000000000000000000000000000000000 PUSH0 MSTORE PUSH1 0x41 PUSH1 0x4 MSTORE PUSH1 0x24 PUSH0 REVERT JUMPDEST PUSH2 0x228 DUP3 PUSH2 0x1E2 JUMP JUMPDEST DUP2 ADD DUP2 DUP2 LT PUSH8 0xFFFFFFFFFFFFFFFF DUP3 GT OR ISZERO PUSH2 0x247 JUMPI PUSH2 0x246 PUSH2 0x1F2 JUMP JUMPDEST JUMPDEST DUP1 PUSH1 0x40 MSTORE POP POP POP JUMP JUMPDEST PUSH0 PUSH2 0x259 PUSH2 0x1C9 JUMP JUMPDEST SWAP1 POP PUSH2 0x265 DUP3 DUP3 PUSH2 0x21F JUMP JUMPDEST SWAP2 SWAP1 POP JUMP JUMPDEST PUSH0 PUSH8 0xFFFFFFFFFFFFFFFF DUP3 GT ISZERO PUSH2 0x284 JUMPI PUSH2 0x283 PUSH2 0x1F2 JUMP JUMPDEST JUMPDEST PUSH2 0x28D DUP3 PUSH2 0x1E2 JUMP JUMPDEST SWAP1 POP PUSH1 0x20 DUP2 ADD SWAP1 POP SWAP2 SWAP1 POP JUMP JUMPDEST DUP3 DUP2 DUP4 CALLDATACOPY PUSH0 DUP4 DUP4 ADD MSTORE POP POP POP JUMP JUMPDEST PUSH0 PUSH2 0x2BA PUSH2 0x2B5 DUP5 PUSH2 0x26A JUMP JUMPDEST PUSH2 0x250 JUMP JUMPDEST SWAP1 POP DUP3 DUP2 MSTORE PUSH1 0x20 DUP2 ADD DUP5 DUP5 DUP5 ADD GT ISZERO PUSH2 0x2D6 JUMPI PUSH2 0x2D5 PUSH2 0x1DE JUMP JUMPDEST JUMPDEST PUSH2 0x2E1 DUP5 DUP3 DUP6 PUSH2 0x29A JUMP JUMPDEST POP SWAP4 SWAP3 POP POP POP JUMP JUMPDEST PUSH0 DUP3 PUSH1 0x1F DUP4 ADD SLT PUSH2 0x2FD JUMPI PUSH2 0x2FC PUSH2 0x1DA JUMP JUMPDEST JUMPDEST DUP2 CALLDATALOAD PUSH2 0x30D DUP5 DUP3 PUSH1 0x20 DUP7 ADD PUSH2 0x2A8 JUMP JUMPDEST SWAP2 POP POP SWAP3 SWAP2 POP POP JUMP JUMPDEST PUSH2 0x31F DUP2 PUSH2 0x11D JUMP JUMPDEST DUP2 EQ PUSH2 0x329 JUMPI PUSH0 DUP1 REVERT JUMPDEST POP JUMP JUMPDEST PUSH0 DUP2 CALLDATALOAD SWAP1 POP PUSH2 0x33A DUP2 PUSH2 0x316 JUMP JUMPDEST SWAP3 SWAP2 POP POP JUMP JUMPDEST PUSH0 DUP1 PUSH1 0x40 DUP4 DUP6 SUB SLT ISZERO PUSH2 0x356 JUMPI PUSH2 0x355 PUSH2 0x1D2 JUMP JUMPDEST JUMPDEST PUSH0 DUP4 ADD CALLDATALOAD PUSH8 0xFFFFFFFFFFFFFFFF DUP2 GT ISZERO PUSH2 0x373 JUMPI PUSH2 0x372 PUSH2 0x1D6 JUMP JUMPDEST JUMPDEST PUSH2 0x37F DUP6 DUP3 DUP7 ADD PUSH2 0x2E9 JUMP JUMPDEST SWAP3 POP POP PUSH1 0x20 PUSH2 0x390 DUP6 DUP3 DUP7 ADD PUSH2 0x32C JUMP JUMPDEST SWAP2 POP POP SWAP3 POP SWAP3 SWAP1 POP JUMP JUMPDEST PUSH0 PUSH1 0x20 DUP3 ADD SWAP1 POP PUSH2 0x3AD PUSH0 DUP4 ADD DUP5 PUSH2 0x126 JUMP JUMPDEST SWAP3 SWAP2 POP POP JUMP JUMPDEST PUSH0 DUP2 MLOAD SWAP1 POP SWAP2 SWAP1 POP JUMP JUMPDEST PUSH0 JUMPDEST DUP4 DUP2 LT ISZERO PUSH2 0x3DA JUMPI DUP1 DUP3 ADD MLOAD DUP2 DUP5 ADD MSTORE PUSH1 0x20 DUP2 ADD SWAP1 POP PUSH2 0x3BF JUMP JUMPDEST PUSH0 DUP5 DUP5 ADD MSTORE POP POP POP POP JUMP JUMPDEST PUSH0 PUSH2 0x3EF DUP3 PUSH2 0x3B3 JUMP JUMPDEST PUSH2 0x3F9 DUP2 DUP6 PUSH2 0x135 JUMP JUMPDEST SWAP4 POP PUSH2 0x409 DUP2 DUP6 PUSH1 0x20 DUP7 ADD PUSH2 0x3BD JUMP JUMPDEST PUSH2 0x412 DUP2 PUSH2 0x1E2 JUMP JUMPDEST DUP5 ADD SWAP2 POP POP SWAP3 SWAP2 POP POP JUMP JUMPDEST PUSH0 PUSH1 0x60 DUP3 ADD SWAP1 POP PUSH2 0x430 PUSH0 DUP4 ADD DUP7 PUSH2 0x10E JUMP JUMPDEST PUSH2 0x43D PUSH1 0x20 DUP4 ADD DUP6 PUSH2 0x126 JUMP JUMPDEST DUP2 DUP2 SUB PUSH1 0x40 DUP4 ADD MSTORE PUSH2 0x44F DUP2 DUP5 PUSH2 0x3E5 JUMP JUMPDEST SWAP1 POP SWAP5 SWAP4 POP POP POP POP JUMP JUMPDEST PUSH32 0x4E487B7100000000000000000000000000000000000000000000000000000000 PUSH0 MSTORE PUSH1 0x11 PUSH1 0x4 MSTORE PUSH1 0x24 PUSH0 REVERT JUMPDEST PUSH0 PUSH2 0x490 DUP3 PUSH2 0x11D JUMP JUMPDEST SWAP2 POP PUSH2 0x49B DUP4 PUSH2 0x11D JUMP JUMPDEST SWAP3 POP DUP3 DUP3 ADD SWAP1 POP DUP1 DUP3 GT ISZERO PUSH2 0x4B3 JUMPI PUSH2 0x4B2 PUSH2 0x459 JUMP JUMPDEST JUMPDEST SWAP3 SWAP2 POP POP JUMP INVALID LOG2 PUSH5 0x6970667358 0x22 SLT KECCAK256 XOR 0xD PUSH5 0xF24177433C DUP13 0xBD PUSH29 0x1BA88D07EAE9281964C945355342AAF06CE6AAC4C364736F6C63430008 EQ STOP CALLER "
		},
		"gasEstimates": {
			"creation": {
				"codeDepositCost": "252600",
				"executionCost": "292",
				"totalCost": "252892"
			},
			"external": {
				"": "2643",
				"foo(string,uint256)": "infinite"
			}
		},
		"methodIdentifiers": {
			"foo(string,uint256)": "24ccab8f"
		}
	},
	"abi": [
		{
			"anonymous": false,
			"inputs": [
				{
					"indexed": false,
					"internalType": "address",
					"name": "caller",
					"type": "address"
				},
				{
					"indexed": false,
					"internalType": "uint256",
					"name": "amount",
					"type": "uint256"
				},
				{
					"indexed": false,
					"internalType": "string",
					"name": "message",
					"type": "string"
				}
			],
			"name": "received",
			"type": "event"
		},
		{
			"stateMutability": "payable",
			"type": "fallback"
		},
		{
			"inputs": [
				{
					"internalType": "string",
					"name": "_message",
					"type": "string"
				},
				{
					"internalType": "uint256",
					"name": "_x",
					"type": "uint256"
				}
			],
			"name": "foo",
			"outputs": [
				{
					"internalType": "uint256",
					"name": "",
					"type": "uint256"
				}
			],
			"stateMutability": "payable",
			"type": "function"
		}
	]
}