{
	"data": {
		"bytecode": {
			"linkReferences": {},
			"object": "60806040526019600055601e60015534801561001a57600080fd5b506101f28061002a6000396000f3fe608060405234801561001057600080fd5b50600436106100415760003560e01c80634f2be91f14610046578063853255cc146100655780639e5f504414610083575b600080fd5b61004e6100a1565b60405161005c929190610107565b60405180910390f35b61006d6100e2565b60405161007a9190610130565b60405180910390f35b61008b6100e8565b6040516100989190610130565b60405180910390f35b60008060006005905060006006905060006001546000546100c2919061017a565b9050600082846100d2919061017a565b9050808295509550505050509091565b60005481565b60015481565b6000819050919050565b610101816100ee565b82525050565b600060408201905061011c60008301856100f8565b61012960208301846100f8565b9392505050565b600060208201905061014560008301846100f8565b92915050565b7f4e487b7100000000000000000000000000000000000000000000000000000000600052601160045260246000fd5b6000610185826100ee565b9150610190836100ee565b925082820261019e816100ee565b915082820484148315176101b5576101b461014b565b5b509291505056fea264697066735822122090837ad7af025d5a512873f32665abd12a127d6314a1601284fbeb82b3d79cb564736f6c63430008120033",
			"opcodes": "PUSH1 0x80 PUSH1 0x40 MSTORE PUSH1 0x19 PUSH1 0x0 SSTORE PUSH1 0x1E PUSH1 0x1 SSTORE CALLVALUE DUP1 ISZERO PUSH2 0x1A JUMPI PUSH1 0x0 DUP1 REVERT JUMPDEST POP PUSH2 0x1F2 DUP1 PUSH2 0x2A PUSH1 0x0 CODECOPY PUSH1 0x0 RETURN INVALID PUSH1 0x80 PUSH1 0x40 MSTORE CALLVALUE DUP1 ISZERO PUSH2 0x10 JUMPI PUSH1 0x0 DUP1 REVERT JUMPDEST POP PUSH1 0x4 CALLDATASIZE LT PUSH2 0x41 JUMPI PUSH1 0x0 CALLDATALOAD PUSH1 0xE0 SHR DUP1 PUSH4 0x4F2BE91F EQ PUSH2 0x46 JUMPI DUP1 PUSH4 0x853255CC EQ PUSH2 0x65 JUMPI DUP1 PUSH4 0x9E5F5044 EQ PUSH2 0x83 JUMPI JUMPDEST PUSH1 0x0 DUP1 REVERT JUMPDEST PUSH2 0x4E PUSH2 0xA1 JUMP JUMPDEST PUSH1 0x40 MLOAD PUSH2 0x5C SWAP3 SWAP2 SWAP1 PUSH2 0x107 JUMP JUMPDEST PUSH1 0x40 MLOAD DUP1 SWAP2 SUB SWAP1 RETURN JUMPDEST PUSH2 0x6D PUSH2 0xE2 JUMP JUMPDEST PUSH1 0x40 MLOAD PUSH2 0x7A SWAP2 SWAP1 PUSH2 0x130 JUMP JUMPDEST PUSH1 0x40 MLOAD DUP1 SWAP2 SUB SWAP1 RETURN JUMPDEST PUSH2 0x8B PUSH2 0xE8 JUMP JUMPDEST PUSH1 0x40 MLOAD PUSH2 0x98 SWAP2 SWAP1 PUSH2 0x130 JUMP JUMPDEST PUSH1 0x40 MLOAD DUP1 SWAP2 SUB SWAP1 RETURN JUMPDEST PUSH1 0x0 DUP1 PUSH1 0x0 PUSH1 0x5 SWAP1 POP PUSH1 0x0 PUSH1 0x6 SWAP1 POP PUSH1 0x0 PUSH1 0x1 SLOAD PUSH1 0x0 SLOAD PUSH2 0xC2 SWAP2 SWAP1 PUSH2 0x17A JUMP JUMPDEST SWAP1 POP PUSH1 0x0 DUP3 DUP5 PUSH2 0xD2 SWAP2 SWAP1 PUSH2 0x17A JUMP JUMPDEST SWAP1 POP DUP1 DUP3 SWAP6 POP SWAP6 POP POP POP POP POP SWAP1 SWAP2 JUMP JUMPDEST PUSH1 0x0 SLOAD DUP2 JUMP JUMPDEST PUSH1 0x1 SLOAD DUP2 JUMP JUMPDEST PUSH1 0x0 DUP2 SWAP1 POP SWAP2 SWAP1 POP JUMP JUMPDEST PUSH2 0x101 DUP2 PUSH2 0xEE JUMP JUMPDEST DUP3 MSTORE POP POP JUMP JUMPDEST PUSH1 0x0 PUSH1 0x40 DUP3 ADD SWAP1 POP PUSH2 0x11C PUSH1 0x0 DUP4 ADD DUP6 PUSH2 0xF8 JUMP JUMPDEST PUSH2 0x129 PUSH1 0x20 DUP4 ADD DUP5 PUSH2 0xF8 JUMP JUMPDEST SWAP4 SWAP3 POP POP POP JUMP JUMPDEST PUSH1 0x0 PUSH1 0x20 DUP3 ADD SWAP1 POP PUSH2 0x145 PUSH1 0x0 DUP4 ADD DUP5 PUSH2 0xF8 JUMP JUMPDEST SWAP3 SWAP2 POP POP JUMP JUMPDEST PUSH32 0x4E487B7100000000000000000000000000000000000000000000000000000000 PUSH1 0x0 MSTORE PUSH1 0x11 PUSH1 0x4 MSTORE PUSH1 0x24 PUSH1 0x0 REVERT JUMPDEST PUSH1 0x0 PUSH2 0x185 DUP3 PUSH2 0xEE JUMP JUMPDEST SWAP2 POP PUSH2 0x190 DUP4 PUSH2 0xEE JUMP JUMPDEST SWAP3 POP DUP3 DUP3 MUL PUSH2 0x19E DUP2 PUSH2 0xEE JUMP JUMPDEST SWAP2 POP DUP3 DUP3 DIV DUP5 EQ DUP4 ISZERO OR PUSH2 0x1B5 JUMPI PUSH2 0x1B4 PUSH2 0x14B JUMP JUMPDEST JUMPDEST POP SWAP3 SWAP2 POP POP JUMP INVALID LOG2 PUSH5 0x6970667358 0x22 SLT KECCAK256 SWAP1 DUP4 PUSH27 0xD7AF025D5A512873F32665ABD12A127D6314A1601284FBEB82B3D7 SWAP13 0xB5 PUSH5 0x736F6C6343 STOP ADDMOD SLT STOP CALLER "
		},
		"gasEstimates": {
			"creation": {
				"codeDepositCost": "99600",
				"executionCost": "44359",
				"totalCost": "143959"
			},
			"external": {
				"add()": "infinite",
				"sum()": "2429",
				"sum1()": "2451"
			}
		},
		"methodIdentifiers": {
			"add()": "4f2be91f",
			"sum()": "853255cc",
			"sum1()": "9e5f5044"
		}
	},
	"abi": [
		{
			"inputs": [],
			"name": "add",
			"outputs": [
				{
					"internalType": "uint256",
					"name": "",
					"type": "uint256"
				},
				{
					"internalType": "uint256",
					"name": "",
					"type": "uint256"
				}
			],
			"stateMutability": "view",
			"type": "function"
		},
		{
			"inputs": [],
			"name": "sum",
			"outputs": [
				{
					"internalType": "uint256",
					"name": "",
					"type": "uint256"
				}
			],
			"stateMutability": "view",
			"type": "function"
		},
		{
			"inputs": [],
			"name": "sum1",
			"outputs": [
				{
					"internalType": "uint256",
					"name": "",
					"type": "uint256"
				}
			],
			"stateMutability": "view",
			"type": "function"
		}
	]
}